{
	"Pledage.sol": {
		"Proxy": {
			"abi": [
				{
					"inputs": [],
					"stateMutability": "nonpayable",
					"type": "constructor"
				},
				{
					"stateMutability": "payable",
					"type": "fallback"
				},
				{
					"inputs": [
						{
							"internalType": "address",
							"name": "_admin",
							"type": "address"
						}
					],
					"name": "_updateAdmin",
					"outputs": [],
					"stateMutability": "nonpayable",
					"type": "function"
				},
				{
					"inputs": [],
					"name": "admin",
					"outputs": [
						{
							"internalType": "address",
							"name": "",
							"type": "address"
						}
					],
					"stateMutability": "view",
					"type": "function"
				},
				{
					"inputs": [],
					"name": "implementation",
					"outputs": [
						{
							"internalType": "address",
							"name": "",
							"type": "address"
						}
					],
					"stateMutability": "view",
					"type": "function"
				},
				{
					"inputs": [
						{
							"internalType": "address",
							"name": "newImplementation",
							"type": "address"
						}
					],
					"name": "setImplementation",
					"outputs": [],
					"stateMutability": "nonpayable",
					"type": "function"
				},
				{
					"stateMutability": "payable",
					"type": "receive"
				}
			],
			"devdoc": {
				"kind": "dev",
				"methods": {},
				"version": 1
			},
			"evm": {
				"assembly": "    /* \"Pledage.sol\":149:1071  contract Proxy is PledageStor{... */\n  mstore(0x40, 0x80)\n    /* \"Pledage.sol\":218:267  constructor() {... */\n  callvalue\n  dup1\n  iszero\n  tag_1\n  jumpi\n  0x00\n  dup1\n  revert\ntag_1:\n  pop\n    /* \"Pledage.sol\":242:247  admin */\n  0x00\n    /* \"Pledage.sol\":242:260  admin = msg.sender */\n  dup1\n  sload\n  not(sub(shl(0xa0, 0x01), 0x01))\n  and\n    /* \"Pledage.sol\":250:260  msg.sender */\n  caller\n    /* \"Pledage.sol\":242:260  admin = msg.sender */\n  or\n  swap1\n  sstore\n    /* \"Pledage.sol\":149:1071  contract Proxy is PledageStor{... */\n  dataSize(sub_0)\n  dup1\n  dataOffset(sub_0)\n  0x00\n  codecopy\n  0x00\n  return\nstop\n\nsub_0: assembly {\n        /* \"Pledage.sol\":149:1071  contract Proxy is PledageStor{... */\n      mstore(0x40, 0x80)\n      jumpi(tag_1, lt(calldatasize, 0x04))\n      shr(0xe0, calldataload(0x00))\n      dup1\n      0x5c60da1b\n      eq\n      tag_3\n      jumpi\n      dup1\n      0xbc174391\n      eq\n      tag_4\n      jumpi\n      dup1\n      0xd784d426\n      eq\n      tag_5\n      jumpi\n      dup1\n      0xf851a440\n      eq\n      tag_6\n      jumpi\n      jump(tag_2)\n    tag_1:\n      jumpi(tag_2, calldatasize)\n      stop\n    tag_2:\n        /* \"Pledage.sol\":726:740  implementation */\n      sload(0x01)\n        /* \"Pledage.sol\":726:763  implementation.delegatecall(msg.data) */\n      mload(0x40)\n        /* \"Pledage.sol\":708:720  bool success */\n      0x00\n      swap2\n      sub(shl(0xa0, 0x01), 0x01)\n        /* \"Pledage.sol\":726:740  implementation */\n      and\n      swap1\n        /* \"Pledage.sol\":726:763  implementation.delegatecall(msg.data) */\n      tag_11\n      swap1\n        /* \"Pledage.sol\":708:720  bool success */\n      dup4\n      swap1\n        /* \"Pledage.sol\":754:762  msg.data */\n      calldatasize\n      swap1\n        /* \"Pledage.sol\":726:763  implementation.delegatecall(msg.data) */\n      tag_12\n      jump\t// in\n    tag_11:\n      0x00\n      mload(0x40)\n      dup1\n      dup4\n      sub\n      dup2\n      dup6\n      gas\n      delegatecall\n      swap2\n      pop\n      pop\n      returndatasize\n      dup1\n      0x00\n      dup2\n      eq\n      tag_15\n      jumpi\n      mload(0x40)\n      swap2\n      pop\n      and(add(returndatasize, 0x3f), not(0x1f))\n      dup3\n      add\n      0x40\n      mstore\n      returndatasize\n      dup3\n      mstore\n      returndatasize\n      0x00\n      0x20\n      dup5\n      add\n      returndatacopy\n      jump(tag_14)\n    tag_15:\n      0x60\n      swap2\n      pop\n    tag_14:\n      pop\n        /* \"Pledage.sol\":707:763  (bool success, ) = implementation.delegatecall(msg.data) */\n      pop\n      swap1\n      pop\n        /* \"Pledage.sol\":825:829  0x40 */\n      0x40\n        /* \"Pledage.sol\":819:830  mload(0x40) */\n      mload\n        /* \"Pledage.sol\":877:893  returndatasize() */\n      returndatasize\n        /* \"Pledage.sol\":874:875  0 */\n      0x00\n        /* \"Pledage.sol\":860:872  free_mem_ptr */\n      dup3\n        /* \"Pledage.sol\":845:894  returndatacopy(free_mem_ptr, 0, returndatasize()) */\n      returndatacopy\n        /* \"Pledage.sol\":917:924  success */\n      dup2\n        /* \"Pledage.sol\":939:988  case 0 { revert(free_mem_ptr, returndatasize()) } */\n      dup1\n      iszero\n      tag_17\n      jumpi\n        /* \"Pledage.sol\":1034:1050  returndatasize() */\n      returndatasize\n        /* \"Pledage.sol\":1020:1032  free_mem_ptr */\n      dup3\n        /* \"Pledage.sol\":1013:1051  return(free_mem_ptr, returndatasize()) */\n      return\n        /* \"Pledage.sol\":939:988  case 0 { revert(free_mem_ptr, returndatasize()) } */\n    tag_17:\n        /* \"Pledage.sol\":969:985  returndatasize() */\n      returndatasize\n        /* \"Pledage.sol\":955:967  free_mem_ptr */\n      dup3\n        /* \"Pledage.sol\":948:986  revert(free_mem_ptr, returndatasize()) */\n      revert\n        /* \"Pledage.sol\":910:1053  switch success... */\n    tag_16:\n      stop\n        /* \"Pledage.sol\":115:144  address public implementation */\n    tag_3:\n      callvalue\n      dup1\n      iszero\n      tag_18\n      jumpi\n      0x00\n      dup1\n      revert\n    tag_18:\n      pop\n      sload(0x01)\n      tag_19\n      swap1\n      sub(shl(0xa0, 0x01), 0x01)\n      and\n      dup2\n      jump\n    tag_19:\n      mload(0x40)\n      sub(shl(0xa0, 0x01), 0x01)\n        /* \"#utility.yul\":454:486   */\n      swap1\n      swap2\n      and\n        /* \"#utility.yul\":436:487   */\n      dup2\n      mstore\n        /* \"#utility.yul\":424:426   */\n      0x20\n        /* \"#utility.yul\":409:427   */\n      add\n        /* \"Pledage.sol\":115:144  address public implementation */\n      mload(0x40)\n      dup1\n      swap2\n      sub\n      swap1\n      return\n        /* \"Pledage.sol\":383:468  function _updateAdmin(address _admin) public onlyOwner{... */\n    tag_4:\n      callvalue\n      dup1\n      iszero\n      tag_23\n      jumpi\n      0x00\n      dup1\n      revert\n    tag_23:\n      pop\n      tag_16\n      tag_25\n      calldatasize\n      0x04\n      tag_26\n      jump\t// in\n    tag_25:\n      tag_27\n      jump\t// in\n        /* \"Pledage.sol\":474:597  function setImplementation(address newImplementation) public onlyOwner{  ... */\n    tag_5:\n      callvalue\n      dup1\n      iszero\n      tag_28\n      jumpi\n      0x00\n      dup1\n      revert\n    tag_28:\n      pop\n      tag_16\n      tag_30\n      calldatasize\n      0x04\n      tag_26\n      jump\t// in\n    tag_30:\n      tag_31\n      jump\t// in\n        /* \"Pledage.sol\":89:109  address public admin */\n    tag_6:\n      callvalue\n      dup1\n      iszero\n      tag_32\n      jumpi\n      0x00\n      dup1\n      revert\n    tag_32:\n      pop\n      sload(0x00)\n      tag_19\n      swap1\n      sub(shl(0xa0, 0x01), 0x01)\n      and\n      dup2\n      jump\n        /* \"Pledage.sol\":383:468  function _updateAdmin(address _admin) public onlyOwner{... */\n    tag_27:\n        /* \"Pledage.sol\":311:316  admin */\n      and(sub(shl(0xa0, 0x01), 0x01), sload(0x00))\n        /* \"Pledage.sol\":320:330  msg.sender */\n      caller\n        /* \"Pledage.sol\":311:330  admin == msg.sender */\n      eq\n        /* \"Pledage.sol\":303:359  require(admin == msg.sender,\"Proxy:Caller is not owner\") */\n      tag_37\n      jumpi\n      mload(0x40)\n      shl(0xe5, 0x461bcd)\n      dup2\n      mstore\n        /* \"#utility.yul\":991:993   */\n      0x20\n        /* \"Pledage.sol\":303:359  require(admin == msg.sender,\"Proxy:Caller is not owner\") */\n      0x04\n      dup3\n      add\n        /* \"#utility.yul\":973:994   */\n      mstore\n        /* \"#utility.yul\":1030:1032   */\n      0x19\n        /* \"#utility.yul\":1010:1028   */\n      0x24\n      dup3\n      add\n        /* \"#utility.yul\":1003:1033   */\n      mstore\n      shl(0x39, 0x283937bc3c9d21b0b63632b91034b9903737ba1037bbb732b9)\n        /* \"#utility.yul\":1049:1067   */\n      0x44\n      dup3\n      add\n        /* \"#utility.yul\":1042:1097   */\n      mstore\n        /* \"#utility.yul\":1114:1132   */\n      0x64\n      add\n        /* \"Pledage.sol\":303:359  require(admin == msg.sender,\"Proxy:Caller is not owner\") */\n    tag_38:\n      mload(0x40)\n      dup1\n      swap2\n      sub\n      swap1\n      revert\n    tag_37:\n        /* \"Pledage.sol\":447:452  admin */\n      0x00\n        /* \"Pledage.sol\":447:461  admin = _admin */\n      dup1\n      sload\n      not(sub(shl(0xa0, 0x01), 0x01))\n      and\n      sub(shl(0xa0, 0x01), 0x01)\n      swap3\n      swap1\n      swap3\n      and\n      swap2\n      swap1\n      swap2\n      or\n      swap1\n      sstore\n        /* \"Pledage.sol\":383:468  function _updateAdmin(address _admin) public onlyOwner{... */\n      jump\t// out\n        /* \"Pledage.sol\":474:597  function setImplementation(address newImplementation) public onlyOwner{  ... */\n    tag_31:\n        /* \"Pledage.sol\":311:316  admin */\n      and(sub(shl(0xa0, 0x01), 0x01), sload(0x00))\n        /* \"Pledage.sol\":320:330  msg.sender */\n      caller\n        /* \"Pledage.sol\":311:330  admin == msg.sender */\n      eq\n        /* \"Pledage.sol\":303:359  require(admin == msg.sender,\"Proxy:Caller is not owner\") */\n      tag_42\n      jumpi\n      mload(0x40)\n      shl(0xe5, 0x461bcd)\n      dup2\n      mstore\n        /* \"#utility.yul\":991:993   */\n      0x20\n        /* \"Pledage.sol\":303:359  require(admin == msg.sender,\"Proxy:Caller is not owner\") */\n      0x04\n      dup3\n      add\n        /* \"#utility.yul\":973:994   */\n      mstore\n        /* \"#utility.yul\":1030:1032   */\n      0x19\n        /* \"#utility.yul\":1010:1028   */\n      0x24\n      dup3\n      add\n        /* \"#utility.yul\":1003:1033   */\n      mstore\n      shl(0x39, 0x283937bc3c9d21b0b63632b91034b9903737ba1037bbb732b9)\n        /* \"#utility.yul\":1049:1067   */\n      0x44\n      dup3\n      add\n        /* \"#utility.yul\":1042:1097   */\n      mstore\n        /* \"#utility.yul\":1114:1132   */\n      0x64\n      add\n        /* \"Pledage.sol\":303:359  require(admin == msg.sender,\"Proxy:Caller is not owner\") */\n      tag_38\n        /* \"#utility.yul\":789:1138   */\n      jump\n        /* \"Pledage.sol\":303:359  require(admin == msg.sender,\"Proxy:Caller is not owner\") */\n    tag_42:\n        /* \"Pledage.sol\":556:570  implementation */\n      0x01\n        /* \"Pledage.sol\":556:590  implementation = newImplementation */\n      dup1\n      sload\n      not(sub(shl(0xa0, 0x01), 0x01))\n      and\n      sub(shl(0xa0, 0x01), 0x01)\n      swap3\n      swap1\n      swap3\n      and\n      swap2\n      swap1\n      swap2\n      or\n      swap1\n      sstore\n        /* \"Pledage.sol\":474:597  function setImplementation(address newImplementation) public onlyOwner{  ... */\n      jump\t// out\n        /* \"#utility.yul\":14:285   */\n    tag_12:\n        /* \"#utility.yul\":197:203   */\n      dup2\n        /* \"#utility.yul\":189:195   */\n      dup4\n        /* \"#utility.yul\":184:187   */\n      dup3\n        /* \"#utility.yul\":171:204   */\n      calldatacopy\n        /* \"#utility.yul\":153:156   */\n      0x00\n        /* \"#utility.yul\":223:239   */\n      swap2\n      add\n        /* \"#utility.yul\":248:261   */\n      swap1\n      dup2\n      mstore\n        /* \"#utility.yul\":223:239   */\n      swap2\n        /* \"#utility.yul\":14:285   */\n      swap1\n      pop\n      jump\t// out\n        /* \"#utility.yul\":498:784   */\n    tag_26:\n        /* \"#utility.yul\":557:563   */\n      0x00\n        /* \"#utility.yul\":610:612   */\n      0x20\n        /* \"#utility.yul\":598:607   */\n      dup3\n        /* \"#utility.yul\":589:596   */\n      dup5\n        /* \"#utility.yul\":585:608   */\n      sub\n        /* \"#utility.yul\":581:613   */\n      slt\n        /* \"#utility.yul\":578:630   */\n      iszero\n      tag_49\n      jumpi\n        /* \"#utility.yul\":626:627   */\n      0x00\n        /* \"#utility.yul\":623:624   */\n      dup1\n        /* \"#utility.yul\":616:628   */\n      revert\n        /* \"#utility.yul\":578:630   */\n    tag_49:\n        /* \"#utility.yul\":652:675   */\n      dup2\n      calldataload\n      sub(shl(0xa0, 0x01), 0x01)\n        /* \"#utility.yul\":704:735   */\n      dup2\n      and\n        /* \"#utility.yul\":694:736   */\n      dup2\n      eq\n        /* \"#utility.yul\":684:754   */\n      tag_50\n      jumpi\n        /* \"#utility.yul\":750:751   */\n      0x00\n        /* \"#utility.yul\":747:748   */\n      dup1\n        /* \"#utility.yul\":740:752   */\n      revert\n        /* \"#utility.yul\":684:754   */\n    tag_50:\n        /* \"#utility.yul\":773:778   */\n      swap4\n        /* \"#utility.yul\":498:784   */\n      swap3\n      pop\n      pop\n      pop\n      jump\t// out\n\n    auxdata: 0xa26469706673582212207ae4177d40f567d096d38f90d5cb9ff27f41d27f453e127dfe6e0d2d68619d6464736f6c63430008120033\n}\n",
				"bytecode": {
					"linkReferences": {},
					"object": "608060405234801561001057600080fd5b50600080546001600160a01b031916331790556102ce806100326000396000f3fe6080604052600436106100435760003560e01c80635c60da1b146100c7578063bc17439114610103578063d784d42614610123578063f851a440146101435761004a565b3661004a57005b6001546040516000916001600160a01b03169061006a9083903690610258565b600060405180830381855af49150503d80600081146100a5576040519150601f19603f3d011682016040523d82523d6000602084013e6100aa565b606091505b505090506040513d6000823e8180156100c1573d82f35b3d82fd5b005b3480156100d357600080fd5b506001546100e7906001600160a01b031681565b6040516001600160a01b03909116815260200160405180910390f35b34801561010f57600080fd5b506100c561011e366004610268565b610163565b34801561012f57600080fd5b506100c561013e366004610268565b6101e0565b34801561014f57600080fd5b506000546100e7906001600160a01b031681565b6000546001600160a01b031633146101be5760405162461bcd60e51b8152602060048201526019602482015278283937bc3c9d21b0b63632b91034b9903737ba1037bbb732b960391b60448201526064015b60405180910390fd5b600080546001600160a01b0319166001600160a01b0392909216919091179055565b6000546001600160a01b031633146102365760405162461bcd60e51b8152602060048201526019602482015278283937bc3c9d21b0b63632b91034b9903737ba1037bbb732b960391b60448201526064016101b5565b600180546001600160a01b0319166001600160a01b0392909216919091179055565b8183823760009101908152919050565b60006020828403121561027a57600080fd5b81356001600160a01b038116811461029157600080fd5b939250505056fea26469706673582212207ae4177d40f567d096d38f90d5cb9ff27f41d27f453e127dfe6e0d2d68619d6464736f6c63430008120033",
					"opcodes": "PUSH1 0x80 PUSH1 0x40 MSTORE CALLVALUE DUP1 ISZERO PUSH2 0x10 JUMPI PUSH1 0x0 DUP1 REVERT JUMPDEST POP PUSH1 0x0 DUP1 SLOAD PUSH1 0x1 PUSH1 0x1 PUSH1 0xA0 SHL SUB NOT AND CALLER OR SWAP1 SSTORE PUSH2 0x2CE DUP1 PUSH2 0x32 PUSH1 0x0 CODECOPY PUSH1 0x0 RETURN INVALID PUSH1 0x80 PUSH1 0x40 MSTORE PUSH1 0x4 CALLDATASIZE LT PUSH2 0x43 JUMPI PUSH1 0x0 CALLDATALOAD PUSH1 0xE0 SHR DUP1 PUSH4 0x5C60DA1B EQ PUSH2 0xC7 JUMPI DUP1 PUSH4 0xBC174391 EQ PUSH2 0x103 JUMPI DUP1 PUSH4 0xD784D426 EQ PUSH2 0x123 JUMPI DUP1 PUSH4 0xF851A440 EQ PUSH2 0x143 JUMPI PUSH2 0x4A JUMP JUMPDEST CALLDATASIZE PUSH2 0x4A JUMPI STOP JUMPDEST PUSH1 0x1 SLOAD PUSH1 0x40 MLOAD PUSH1 0x0 SWAP2 PUSH1 0x1 PUSH1 0x1 PUSH1 0xA0 SHL SUB AND SWAP1 PUSH2 0x6A SWAP1 DUP4 SWAP1 CALLDATASIZE SWAP1 PUSH2 0x258 JUMP JUMPDEST PUSH1 0x0 PUSH1 0x40 MLOAD DUP1 DUP4 SUB DUP2 DUP6 GAS DELEGATECALL SWAP2 POP POP RETURNDATASIZE DUP1 PUSH1 0x0 DUP2 EQ PUSH2 0xA5 JUMPI PUSH1 0x40 MLOAD SWAP2 POP PUSH1 0x1F NOT PUSH1 0x3F RETURNDATASIZE ADD AND DUP3 ADD PUSH1 0x40 MSTORE RETURNDATASIZE DUP3 MSTORE RETURNDATASIZE PUSH1 0x0 PUSH1 0x20 DUP5 ADD RETURNDATACOPY PUSH2 0xAA JUMP JUMPDEST PUSH1 0x60 SWAP2 POP JUMPDEST POP POP SWAP1 POP PUSH1 0x40 MLOAD RETURNDATASIZE PUSH1 0x0 DUP3 RETURNDATACOPY DUP2 DUP1 ISZERO PUSH2 0xC1 JUMPI RETURNDATASIZE DUP3 RETURN JUMPDEST RETURNDATASIZE DUP3 REVERT JUMPDEST STOP JUMPDEST CALLVALUE DUP1 ISZERO PUSH2 0xD3 JUMPI PUSH1 0x0 DUP1 REVERT JUMPDEST POP PUSH1 0x1 SLOAD PUSH2 0xE7 SWAP1 PUSH1 0x1 PUSH1 0x1 PUSH1 0xA0 SHL SUB AND DUP2 JUMP JUMPDEST PUSH1 0x40 MLOAD PUSH1 0x1 PUSH1 0x1 PUSH1 0xA0 SHL SUB SWAP1 SWAP2 AND DUP2 MSTORE PUSH1 0x20 ADD PUSH1 0x40 MLOAD DUP1 SWAP2 SUB SWAP1 RETURN JUMPDEST CALLVALUE DUP1 ISZERO PUSH2 0x10F JUMPI PUSH1 0x0 DUP1 REVERT JUMPDEST POP PUSH2 0xC5 PUSH2 0x11E CALLDATASIZE PUSH1 0x4 PUSH2 0x268 JUMP JUMPDEST PUSH2 0x163 JUMP JUMPDEST CALLVALUE DUP1 ISZERO PUSH2 0x12F JUMPI PUSH1 0x0 DUP1 REVERT JUMPDEST POP PUSH2 0xC5 PUSH2 0x13E CALLDATASIZE PUSH1 0x4 PUSH2 0x268 JUMP JUMPDEST PUSH2 0x1E0 JUMP JUMPDEST CALLVALUE DUP1 ISZERO PUSH2 0x14F JUMPI PUSH1 0x0 DUP1 REVERT JUMPDEST POP PUSH1 0x0 SLOAD PUSH2 0xE7 SWAP1 PUSH1 0x1 PUSH1 0x1 PUSH1 0xA0 SHL SUB AND DUP2 JUMP JUMPDEST PUSH1 0x0 SLOAD PUSH1 0x1 PUSH1 0x1 PUSH1 0xA0 SHL SUB AND CALLER EQ PUSH2 0x1BE JUMPI PUSH1 0x40 MLOAD PUSH3 0x461BCD PUSH1 0xE5 SHL DUP2 MSTORE PUSH1 0x20 PUSH1 0x4 DUP3 ADD MSTORE PUSH1 0x19 PUSH1 0x24 DUP3 ADD MSTORE PUSH25 0x283937BC3C9D21B0B63632B91034B9903737BA1037BBB732B9 PUSH1 0x39 SHL PUSH1 0x44 DUP3 ADD MSTORE PUSH1 0x64 ADD JUMPDEST PUSH1 0x40 MLOAD DUP1 SWAP2 SUB SWAP1 REVERT JUMPDEST PUSH1 0x0 DUP1 SLOAD PUSH1 0x1 PUSH1 0x1 PUSH1 0xA0 SHL SUB NOT AND PUSH1 0x1 PUSH1 0x1 PUSH1 0xA0 SHL SUB SWAP3 SWAP1 SWAP3 AND SWAP2 SWAP1 SWAP2 OR SWAP1 SSTORE JUMP JUMPDEST PUSH1 0x0 SLOAD PUSH1 0x1 PUSH1 0x1 PUSH1 0xA0 SHL SUB AND CALLER EQ PUSH2 0x236 JUMPI PUSH1 0x40 MLOAD PUSH3 0x461BCD PUSH1 0xE5 SHL DUP2 MSTORE PUSH1 0x20 PUSH1 0x4 DUP3 ADD MSTORE PUSH1 0x19 PUSH1 0x24 DUP3 ADD MSTORE PUSH25 0x283937BC3C9D21B0B63632B91034B9903737BA1037BBB732B9 PUSH1 0x39 SHL PUSH1 0x44 DUP3 ADD MSTORE PUSH1 0x64 ADD PUSH2 0x1B5 JUMP JUMPDEST PUSH1 0x1 DUP1 SLOAD PUSH1 0x1 PUSH1 0x1 PUSH1 0xA0 SHL SUB NOT AND PUSH1 0x1 PUSH1 0x1 PUSH1 0xA0 SHL SUB SWAP3 SWAP1 SWAP3 AND SWAP2 SWAP1 SWAP2 OR SWAP1 SSTORE JUMP JUMPDEST DUP2 DUP4 DUP3 CALLDATACOPY PUSH1 0x0 SWAP2 ADD SWAP1 DUP2 MSTORE SWAP2 SWAP1 POP JUMP JUMPDEST PUSH1 0x0 PUSH1 0x20 DUP3 DUP5 SUB SLT ISZERO PUSH2 0x27A JUMPI PUSH1 0x0 DUP1 REVERT JUMPDEST DUP2 CALLDATALOAD PUSH1 0x1 PUSH1 0x1 PUSH1 0xA0 SHL SUB DUP2 AND DUP2 EQ PUSH2 0x291 JUMPI PUSH1 0x0 DUP1 REVERT JUMPDEST SWAP4 SWAP3 POP POP POP JUMP INVALID LOG2 PUSH5 0x6970667358 0x22 SLT KECCAK256 PUSH27 0xE4177D40F567D096D38F90D5CB9FF27F41D27F453E127DFE6E0D2D PUSH9 0x619D6464736F6C6343 STOP ADDMOD SLT STOP CALLER "
				},
				"gasEstimates": {
					"creation": {
						"codeDepositCost": "143600",
						"executionCost": "24425",
						"totalCost": "168025"
					},
					"external": {
						"": "infinite",
						"_updateAdmin(address)": "26676",
						"admin()": "2369",
						"implementation()": "2303",
						"setImplementation(address)": "26698"
					}
				},
				"methodIdentifiers": {
					"_updateAdmin(address)": "bc174391",
					"admin()": "f851a440",
					"implementation()": "5c60da1b",
					"setImplementation(address)": "d784d426"
				}
			},
			"storageLayout": {
				"storage": [
					{
						"astId": 3,
						"contract": "Pledage.sol:Proxy",
						"label": "admin",
						"offset": 0,
						"slot": "0",
						"type": "t_address"
					},
					{
						"astId": 5,
						"contract": "Pledage.sol:Proxy",
						"label": "implementation",
						"offset": 0,
						"slot": "1",
						"type": "t_address"
					}
				],
				"types": {
					"t_address": {
						"encoding": "inplace",
						"label": "address",
						"numberOfBytes": "20"
					}
				}
			},
			"userdoc": {
				"kind": "user",
				"methods": {},
				"version": 1
			}
		}
	}
}