{
	"Pledage.sol": {
		"Pledage": {
			"abi": [
				{
					"inputs": [],
					"stateMutability": "nonpayable",
					"type": "constructor"
				},
				{
					"anonymous": false,
					"inputs": [
						{
							"indexed": false,
							"internalType": "address",
							"name": "owner",
							"type": "address"
						},
						{
							"indexed": false,
							"internalType": "uint256",
							"name": "amount",
							"type": "uint256"
						},
						{
							"indexed": false,
							"internalType": "uint256",
							"name": "time",
							"type": "uint256"
						},
						{
							"indexed": false,
							"internalType": "enum PledageStorV1.Expiration",
							"name": "expiration",
							"type": "uint8"
						}
					],
					"name": "Provide",
					"type": "event"
				},
				{
					"anonymous": false,
					"inputs": [
						{
							"indexed": false,
							"internalType": "uint256",
							"name": "orderId",
							"type": "uint256"
						},
						{
							"indexed": false,
							"internalType": "address",
							"name": "receiver",
							"type": "address"
						},
						{
							"indexed": false,
							"internalType": "address",
							"name": "token",
							"type": "address"
						},
						{
							"indexed": false,
							"internalType": "uint256",
							"name": "amount",
							"type": "uint256"
						},
						{
							"indexed": false,
							"internalType": "uint256",
							"name": "time",
							"type": "uint256"
						}
					],
					"name": "Withdraw",
					"type": "event"
				},
				{
					"inputs": [],
					"name": "DOMAIN_SEPARATOR",
					"outputs": [
						{
							"internalType": "bytes32",
							"name": "",
							"type": "bytes32"
						}
					],
					"stateMutability": "view",
					"type": "function"
				},
				{
					"inputs": [],
					"name": "admin",
					"outputs": [
						{
							"internalType": "address",
							"name": "",
							"type": "address"
						}
					],
					"stateMutability": "view",
					"type": "function"
				},
				{
					"inputs": [],
					"name": "dead",
					"outputs": [
						{
							"internalType": "address",
							"name": "",
							"type": "address"
						}
					],
					"stateMutability": "view",
					"type": "function"
				},
				{
					"inputs": [
						{
							"internalType": "address",
							"name": "receiver",
							"type": "address"
						},
						{
							"internalType": "uint256",
							"name": "amount",
							"type": "uint256"
						}
					],
					"name": "emergencyBNB",
					"outputs": [],
					"stateMutability": "nonpayable",
					"type": "function"
				},
				{
					"inputs": [
						{
							"internalType": "address",
							"name": "receiver",
							"type": "address"
						},
						{
							"internalType": "uint256",
							"name": "amount",
							"type": "uint256"
						}
					],
					"name": "emergencyToken",
					"outputs": [],
					"stateMutability": "nonpayable",
					"type": "function"
				},
				{
					"inputs": [],
					"name": "getBnbPrice",
					"outputs": [
						{
							"internalType": "uint256",
							"name": "",
							"type": "uint256"
						}
					],
					"stateMutability": "view",
					"type": "function"
				},
				{
					"inputs": [],
					"name": "getHash",
					"outputs": [
						{
							"internalType": "bytes32",
							"name": "",
							"type": "bytes32"
						}
					],
					"stateMutability": "pure",
					"type": "function"
				},
				{
					"inputs": [
						{
							"components": [
								{
									"internalType": "address",
									"name": "token",
									"type": "address"
								},
								{
									"internalType": "address",
									"name": "holder",
									"type": "address"
								},
								{
									"internalType": "uint256",
									"name": "amount",
									"type": "uint256"
								},
								{
									"internalType": "uint256",
									"name": "orderId",
									"type": "uint256"
								},
								{
									"internalType": "uint256",
									"name": "deadline",
									"type": "uint256"
								},
								{
									"internalType": "uint8",
									"name": "v",
									"type": "uint8"
								},
								{
									"internalType": "bytes32",
									"name": "r",
									"type": "bytes32"
								},
								{
									"internalType": "bytes32",
									"name": "s",
									"type": "bytes32"
								}
							],
							"internalType": "struct SignatureInfo.Content",
							"name": "content",
							"type": "tuple"
						}
					],
					"name": "getResult",
					"outputs": [
						{
							"internalType": "bool",
							"name": "",
							"type": "bool"
						}
					],
					"stateMutability": "view",
					"type": "function"
				},
				{
					"inputs": [],
					"name": "getTokenPrice",
					"outputs": [
						{
							"internalType": "uint256",
							"name": "",
							"type": "uint256"
						}
					],
					"stateMutability": "view",
					"type": "function"
				},
				{
					"inputs": [],
					"name": "implementation",
					"outputs": [
						{
							"internalType": "address",
							"name": "",
							"type": "address"
						}
					],
					"stateMutability": "view",
					"type": "function"
				},
				{
					"inputs": [
						{
							"internalType": "address",
							"name": "_permit",
							"type": "address"
						}
					],
					"name": "initialize",
					"outputs": [],
					"stateMutability": "nonpayable",
					"type": "function"
				},
				{
					"inputs": [
						{
							"internalType": "uint256",
							"name": "",
							"type": "uint256"
						}
					],
					"name": "optionInfo",
					"outputs": [
						{
							"internalType": "uint256",
							"name": "optionId",
							"type": "uint256"
						},
						{
							"internalType": "address",
							"name": "holder",
							"type": "address"
						},
						{
							"internalType": "address",
							"name": "token",
							"type": "address"
						},
						{
							"internalType": "uint256",
							"name": "amount",
							"type": "uint256"
						}
					],
					"stateMutability": "view",
					"type": "function"
				},
				{
					"inputs": [],
					"name": "permit",
					"outputs": [
						{
							"internalType": "address",
							"name": "",
							"type": "address"
						}
					],
					"stateMutability": "view",
					"type": "function"
				},
				{
					"inputs": [
						{
							"internalType": "uint256",
							"name": "_amount",
							"type": "uint256"
						},
						{
							"internalType": "enum PledageStorV1.Expiration",
							"name": "_expiration",
							"type": "uint8"
						}
					],
					"name": "provide",
					"outputs": [],
					"stateMutability": "nonpayable",
					"type": "function"
				},
				{
					"inputs": [
						{
							"internalType": "address",
							"name": "",
							"type": "address"
						}
					],
					"name": "reentrancy",
					"outputs": [
						{
							"internalType": "uint256",
							"name": "",
							"type": "uint256"
						}
					],
					"stateMutability": "view",
					"type": "function"
				},
				{
					"inputs": [
						{
							"internalType": "address",
							"name": "_admin",
							"type": "address"
						}
					],
					"name": "setAdmin",
					"outputs": [],
					"stateMutability": "nonpayable",
					"type": "function"
				},
				{
					"inputs": [
						{
							"internalType": "address",
							"name": "_permit",
							"type": "address"
						}
					],
					"name": "setPermit",
					"outputs": [],
					"stateMutability": "nonpayable",
					"type": "function"
				},
				{
					"inputs": [
						{
							"internalType": "address",
							"name": "_token",
							"type": "address"
						}
					],
					"name": "setToken",
					"outputs": [],
					"stateMutability": "nonpayable",
					"type": "function"
				},
				{
					"inputs": [],
					"name": "token",
					"outputs": [
						{
							"internalType": "address",
							"name": "",
							"type": "address"
						}
					],
					"stateMutability": "view",
					"type": "function"
				},
				{
					"inputs": [],
					"name": "uniswapV2Factory",
					"outputs": [
						{
							"internalType": "address",
							"name": "",
							"type": "address"
						}
					],
					"stateMutability": "view",
					"type": "function"
				},
				{
					"inputs": [],
					"name": "uniswapV2Router",
					"outputs": [
						{
							"internalType": "address",
							"name": "",
							"type": "address"
						}
					],
					"stateMutability": "view",
					"type": "function"
				},
				{
					"inputs": [],
					"name": "usdt",
					"outputs": [
						{
							"internalType": "address",
							"name": "",
							"type": "address"
						}
					],
					"stateMutability": "view",
					"type": "function"
				},
				{
					"inputs": [
						{
							"components": [
								{
									"internalType": "address",
									"name": "token",
									"type": "address"
								},
								{
									"internalType": "address",
									"name": "holder",
									"type": "address"
								},
								{
									"internalType": "uint256",
									"name": "amount",
									"type": "uint256"
								},
								{
									"internalType": "uint256",
									"name": "orderId",
									"type": "uint256"
								},
								{
									"internalType": "uint256",
									"name": "deadline",
									"type": "uint256"
								},
								{
									"internalType": "uint8",
									"name": "v",
									"type": "uint8"
								},
								{
									"internalType": "bytes32",
									"name": "r",
									"type": "bytes32"
								},
								{
									"internalType": "bytes32",
									"name": "s",
									"type": "bytes32"
								}
							],
							"internalType": "struct SignatureInfo.Content",
							"name": "content",
							"type": "tuple"
						}
					],
					"name": "withdraw",
					"outputs": [],
					"stateMutability": "nonpayable",
					"type": "function"
				},
				{
					"stateMutability": "payable",
					"type": "receive"
				}
			],
			"devdoc": {
				"kind": "dev",
				"methods": {},
				"version": 1
			},
			"evm": {
				"assembly": "    /* \"Pledage.sol\":7766:12496  contract Pledage is PledageStorV1{... */\n  mstore(0x40, 0x80)\n    /* \"Pledage.sol\":7992:8040  constructor(){... */\n  callvalue\n  dup1\n  iszero\n  tag_1\n  jumpi\n  0x00\n  dup1\n  revert\ntag_1:\n  pop\n    /* \"Pledage.sol\":8015:8020  admin */\n  0x00\n    /* \"Pledage.sol\":8015:8033  admin = msg.sender */\n  dup1\n  sload\n  not(sub(shl(0xa0, 0x01), 0x01))\n  and\n    /* \"Pledage.sol\":8023:8033  msg.sender */\n  caller\n    /* \"Pledage.sol\":8015:8033  admin = msg.sender */\n  or\n  swap1\n  sstore\n    /* \"Pledage.sol\":7766:12496  contract Pledage is PledageStorV1{... */\n  dataSize(sub_0)\n  dup1\n  dataOffset(sub_0)\n  0x00\n  codecopy\n  0x00\n  return\nstop\n\nsub_0: assembly {\n        /* \"Pledage.sol\":7766:12496  contract Pledage is PledageStorV1{... */\n      mstore(0x40, 0x80)\n      jumpi(tag_1, lt(calldatasize, 0x04))\n      shr(0xe0, calldataload(0x00))\n      dup1\n      0x5c60da1b\n      gt\n      tag_26\n      jumpi\n      dup1\n      0xbc446708\n      gt\n      tag_27\n      jumpi\n      dup1\n      0xbc446708\n      eq\n      tag_20\n      jumpi\n      dup1\n      0xbc7fb169\n      eq\n      tag_21\n      jumpi\n      dup1\n      0xc4d66de8\n      eq\n      tag_22\n      jumpi\n      dup1\n      0xd13319c4\n      eq\n      tag_23\n      jumpi\n      dup1\n      0xf851a440\n      eq\n      tag_24\n      jumpi\n      dup1\n      0xfc0c546a\n      eq\n      tag_25\n      jumpi\n      0x00\n      dup1\n      revert\n    tag_27:\n      dup1\n      0x5c60da1b\n      eq\n      tag_14\n      jumpi\n      dup1\n      0x5e43cd68\n      eq\n      tag_15\n      jumpi\n      dup1\n      0x704b6c02\n      eq\n      tag_16\n      jumpi\n      dup1\n      0x88e3988f\n      eq\n      tag_17\n      jumpi\n      dup1\n      0x8fe7002c\n      eq\n      tag_18\n      jumpi\n      dup1\n      0x993b37da\n      eq\n      tag_19\n      jumpi\n      0x00\n      dup1\n      revert\n    tag_26:\n      dup1\n      0x3644e515\n      gt\n      tag_28\n      jumpi\n      dup1\n      0x3644e515\n      eq\n      tag_8\n      jumpi\n      dup1\n      0x36cf7c87\n      eq\n      tag_9\n      jumpi\n      dup1\n      0x40003763\n      eq\n      tag_10\n      jumpi\n      dup1\n      0x4b94f50e\n      eq\n      tag_11\n      jumpi\n      dup1\n      0x5777e93d\n      eq\n      tag_12\n      jumpi\n      dup1\n      0x59d0f713\n      eq\n      tag_13\n      jumpi\n      0x00\n      dup1\n      revert\n    tag_28:\n      dup1\n      0x08760b0d\n      eq\n      tag_3\n      jumpi\n      dup1\n      0x144fa6d7\n      eq\n      tag_4\n      jumpi\n      dup1\n      0x1694505e\n      eq\n      tag_5\n      jumpi\n      dup1\n      0x2f48ab7d\n      eq\n      tag_6\n      jumpi\n      dup1\n      0x32105e46\n      eq\n      tag_7\n      jumpi\n      0x00\n      dup1\n      revert\n    tag_1:\n      jumpi(tag_2, calldatasize)\n      stop\n    tag_2:\n      0x00\n      dup1\n      revert\n        /* \"Pledage.sol\":11207:11511  function getBnbPrice() external view returns(uint256){... */\n    tag_3:\n      callvalue\n      dup1\n      iszero\n      tag_31\n      jumpi\n      0x00\n      dup1\n      revert\n    tag_31:\n      pop\n      tag_32\n      tag_33\n      jump\t// in\n    tag_32:\n      mload(0x40)\n        /* \"#utility.yul\":160:185   */\n      swap1\n      dup2\n      mstore\n        /* \"#utility.yul\":148:150   */\n      0x20\n        /* \"#utility.yul\":133:151   */\n      add\n        /* \"Pledage.sol\":11207:11511  function getBnbPrice() external view returns(uint256){... */\n    tag_34:\n      mload(0x40)\n      dup1\n      swap2\n      sub\n      swap1\n      return\n        /* \"Pledage.sol\":12410:12494  function setToken(address _token) external  onlyOwner{... */\n    tag_4:\n      callvalue\n      dup1\n      iszero\n      tag_36\n      jumpi\n      0x00\n      dup1\n      revert\n    tag_36:\n      pop\n      tag_37\n      tag_38\n      calldatasize\n      0x04\n      tag_39\n      jump\t// in\n    tag_38:\n      tag_40\n      jump\t// in\n    tag_37:\n      stop\n        /* \"Pledage.sol\":7604:7634  address public uniswapV2Router */\n    tag_5:\n      callvalue\n      dup1\n      iszero\n      tag_41\n      jumpi\n      0x00\n      dup1\n      revert\n    tag_41:\n      pop\n      sload(0x08)\n      tag_42\n      swap1\n      sub(shl(0xa0, 0x01), 0x01)\n      and\n      dup2\n      jump\n    tag_42:\n      mload(0x40)\n      sub(shl(0xa0, 0x01), 0x01)\n        /* \"#utility.yul\":748:780   */\n      swap1\n      swap2\n      and\n        /* \"#utility.yul\":730:781   */\n      dup2\n      mstore\n        /* \"#utility.yul\":718:720   */\n      0x20\n        /* \"#utility.yul\":703:721   */\n      add\n        /* \"Pledage.sol\":7604:7634  address public uniswapV2Router */\n      tag_34\n        /* \"#utility.yul\":584:787   */\n      jump\n        /* \"Pledage.sol\":7579:7598  address public usdt */\n    tag_6:\n      callvalue\n      dup1\n      iszero\n      tag_46\n      jumpi\n      0x00\n      dup1\n      revert\n    tag_46:\n      pop\n      sload(0x07)\n      tag_42\n      swap1\n      sub(shl(0xa0, 0x01), 0x01)\n      and\n      dup2\n      jump\n        /* \"Pledage.sol\":12154:12243  function setPermit(address _permit) external onlyOwner(){... */\n    tag_7:\n      callvalue\n      dup1\n      iszero\n      tag_50\n      jumpi\n      0x00\n      dup1\n      revert\n    tag_50:\n      pop\n      tag_37\n      tag_52\n      calldatasize\n      0x04\n      tag_39\n      jump\t// in\n    tag_52:\n      tag_53\n      jump\t// in\n        /* \"Pledage.sol\":7677:7708  bytes32 public DOMAIN_SEPARATOR */\n    tag_8:\n      callvalue\n      dup1\n      iszero\n      tag_54\n      jumpi\n      0x00\n      dup1\n      revert\n    tag_54:\n      pop\n      tag_32\n      sload(0x0a)\n      dup2\n      jump\n        /* \"Pledage.sol\":7554:7573  address public dead */\n    tag_9:\n      callvalue\n      dup1\n      iszero\n      tag_59\n      jumpi\n      0x00\n      dup1\n      revert\n    tag_59:\n      pop\n      sload(0x06)\n      tag_42\n      swap1\n      sub(shl(0xa0, 0x01), 0x01)\n      and\n      dup2\n      jump\n        /* \"Pledage.sol\":9200:10573  function withdraw(SignatureInfo.Content calldata content) external {... */\n    tag_10:\n      callvalue\n      dup1\n      iszero\n      tag_63\n      jumpi\n      0x00\n      dup1\n      revert\n    tag_63:\n      pop\n      tag_37\n      tag_65\n      calldatasize\n      0x04\n      tag_66\n      jump\t// in\n    tag_65:\n      tag_67\n      jump\t// in\n        /* \"Pledage.sol\":11517:11759  function getTokenPrice() external view returns(uint256){... */\n    tag_11:\n      callvalue\n      dup1\n      iszero\n      tag_68\n      jumpi\n      0x00\n      dup1\n      revert\n    tag_68:\n      pop\n      tag_32\n      tag_70\n      jump\t// in\n        /* \"Pledage.sol\":7527:7548  address public permit */\n    tag_12:\n      callvalue\n      dup1\n      iszero\n      tag_72\n      jumpi\n      0x00\n      dup1\n      revert\n    tag_72:\n      pop\n      sload(0x05)\n      tag_42\n      swap1\n      sub(shl(0xa0, 0x01), 0x01)\n      and\n      dup2\n      jump\n        /* \"Pledage.sol\":7640:7671  address public uniswapV2Factory */\n    tag_13:\n      callvalue\n      dup1\n      iszero\n      tag_76\n      jumpi\n      0x00\n      dup1\n      revert\n    tag_76:\n      pop\n      sload(0x09)\n      tag_42\n      swap1\n      sub(shl(0xa0, 0x01), 0x01)\n      and\n      dup2\n      jump\n        /* \"Pledage.sol\":115:144  address public implementation */\n    tag_14:\n      callvalue\n      dup1\n      iszero\n      tag_80\n      jumpi\n      0x00\n      dup1\n      revert\n    tag_80:\n      pop\n      sload(0x01)\n      tag_42\n      swap1\n      sub(shl(0xa0, 0x01), 0x01)\n      and\n      dup2\n      jump\n        /* \"Pledage.sol\":10579:10808  function getResult(SignatureInfo.Content calldata content) public view returns(bool){... */\n    tag_15:\n      callvalue\n      dup1\n      iszero\n      tag_84\n      jumpi\n      0x00\n      dup1\n      revert\n    tag_84:\n      pop\n      tag_85\n      tag_86\n      calldatasize\n      0x04\n      tag_66\n      jump\t// in\n    tag_86:\n      tag_87\n      jump\t// in\n    tag_85:\n      mload(0x40)\n        /* \"#utility.yul\":1337:1351   */\n      swap1\n      iszero\n        /* \"#utility.yul\":1330:1352   */\n      iszero\n        /* \"#utility.yul\":1312:1353   */\n      dup2\n      mstore\n        /* \"#utility.yul\":1300:1302   */\n      0x20\n        /* \"#utility.yul\":1285:1303   */\n      add\n        /* \"Pledage.sol\":10579:10808  function getResult(SignatureInfo.Content calldata content) public view returns(bool){... */\n      tag_34\n        /* \"#utility.yul\":1172:1359   */\n      jump\n        /* \"Pledage.sol\":12063:12148  function setAdmin(address _admin) external onlyOwner(){... */\n    tag_16:\n      callvalue\n      dup1\n      iszero\n      tag_90\n      jumpi\n      0x00\n      dup1\n      revert\n    tag_90:\n      pop\n      tag_37\n      tag_92\n      calldatasize\n      0x04\n      tag_39\n      jump\t// in\n    tag_92:\n      tag_93\n      jump\t// in\n        /* \"Pledage.sol\":11911:12057  function emergencyToken(address receiver,uint256 amount) external onlyOwner(){... */\n    tag_17:\n      callvalue\n      dup1\n      iszero\n      tag_94\n      jumpi\n      0x00\n      dup1\n      revert\n    tag_94:\n      pop\n      tag_37\n      tag_96\n      calldatasize\n      0x04\n      tag_97\n      jump\t// in\n    tag_96:\n      tag_98\n      jump\t// in\n        /* \"Pledage.sol\":11765:11905  function emergencyBNB(address receiver,uint256 amount) external onlyOwner(){... */\n    tag_18:\n      callvalue\n      dup1\n      iszero\n      tag_99\n      jumpi\n      0x00\n      dup1\n      revert\n    tag_99:\n      pop\n      tag_37\n      tag_101\n      calldatasize\n      0x04\n      tag_97\n      jump\t// in\n    tag_101:\n      tag_102\n      jump\t// in\n        /* \"Pledage.sol\":7714:7760  mapping (address => uint256) public reentrancy */\n    tag_19:\n      callvalue\n      dup1\n      iszero\n      tag_103\n      jumpi\n      0x00\n      dup1\n      revert\n    tag_103:\n      pop\n      tag_32\n      tag_105\n      calldatasize\n      0x04\n      tag_39\n      jump\t// in\n    tag_105:\n      mstore(0x20, 0x0b)\n      0x00\n      swap1\n      dup2\n      mstore\n      0x40\n      swap1\n      keccak256\n      sload\n      dup2\n      jump\n        /* \"Pledage.sol\":7450:7494  mapping(uint256 => Option) public optionInfo */\n    tag_20:\n      callvalue\n      dup1\n      iszero\n      tag_108\n      jumpi\n      0x00\n      dup1\n      revert\n    tag_108:\n      pop\n      tag_109\n      tag_110\n      calldatasize\n      0x04\n      tag_111\n      jump\t// in\n    tag_110:\n      0x03\n      0x20\n      dup2\n      swap1\n      mstore\n      0x00\n      swap2\n      dup3\n      mstore\n      0x40\n      swap1\n      swap2\n      keccak256\n      dup1\n      sload\n      0x01\n      dup3\n      add\n      sload\n      0x02\n      dup4\n      add\n      sload\n      swap3\n      swap1\n      swap4\n      add\n      sload\n      swap1\n      swap3\n      sub(shl(0xa0, 0x01), 0x01)\n      swap1\n      dup2\n      and\n      swap3\n      and\n      swap1\n      dup5\n      jump\n    tag_109:\n      mload(0x40)\n      tag_34\n      swap5\n      swap4\n      swap3\n      swap2\n      swap1\n        /* \"#utility.yul\":2100:2125   */\n      swap4\n      dup5\n      mstore\n      sub(shl(0xa0, 0x01), 0x01)\n        /* \"#utility.yul\":2199:2214   */\n      swap3\n      dup4\n      and\n        /* \"#utility.yul\":2194:2196   */\n      0x20\n        /* \"#utility.yul\":2179:2197   */\n      dup6\n      add\n        /* \"#utility.yul\":2172:2215   */\n      mstore\n        /* \"#utility.yul\":2251:2266   */\n      swap2\n      and\n        /* \"#utility.yul\":2246:2248   */\n      0x40\n        /* \"#utility.yul\":2231:2249   */\n      dup4\n      add\n        /* \"#utility.yul\":2224:2267   */\n      mstore\n        /* \"#utility.yul\":2298:2300   */\n      0x60\n        /* \"#utility.yul\":2283:2301   */\n      dup3\n      add\n        /* \"#utility.yul\":2276:2310   */\n      mstore\n        /* \"#utility.yul\":2087:2090   */\n      0x80\n        /* \"#utility.yul\":2072:2091   */\n      add\n      swap1\n        /* \"#utility.yul\":1869:2316   */\n      jump\n        /* \"Pledage.sol\":8638:9194  function provide(uint256 _amount,Expiration _expiration) external{... */\n    tag_21:\n      callvalue\n      dup1\n      iszero\n      tag_115\n      jumpi\n      0x00\n      dup1\n      revert\n    tag_115:\n      pop\n      tag_37\n      tag_117\n      calldatasize\n      0x04\n      tag_118\n      jump\t// in\n    tag_117:\n      tag_119\n      jump\t// in\n        /* \"Pledage.sol\":8184:8632  function initialize( address _permit) external onlyOwner(){... */\n    tag_22:\n      callvalue\n      dup1\n      iszero\n      tag_120\n      jumpi\n      0x00\n      dup1\n      revert\n    tag_120:\n      pop\n      tag_37\n      tag_122\n      calldatasize\n      0x04\n      tag_39\n      jump\t// in\n    tag_122:\n      tag_123\n      jump\t// in\n        /* \"Pledage.sol\":12249:12404  function getHash() external pure returns (bytes32){... */\n    tag_23:\n      callvalue\n      dup1\n      iszero\n      tag_124\n      jumpi\n      0x00\n      dup1\n      revert\n    tag_124:\n      pop\n        /* \"Pledage.sol\":12316:12397  keccak256(\"Content(address token,address holder,uint256 amount,uint256 orderId)\") */\n      0xb5f106453e92c83f8ef471e09a8097b99888030beb671302e7c318e4d198c6e3\n        /* \"Pledage.sol\":12249:12404  function getHash() external pure returns (bytes32){... */\n      jump(tag_32)\n        /* \"Pledage.sol\":89:109  address public admin */\n    tag_24:\n      callvalue\n      dup1\n      iszero\n      tag_128\n      jumpi\n      0x00\n      dup1\n      revert\n    tag_128:\n      pop\n      sload(0x00)\n      tag_42\n      swap1\n      sub(shl(0xa0, 0x01), 0x01)\n      and\n      dup2\n      jump\n        /* \"Pledage.sol\":7501:7521  address public token */\n    tag_25:\n      callvalue\n      dup1\n      iszero\n      tag_132\n      jumpi\n      0x00\n      dup1\n      revert\n    tag_132:\n      pop\n      sload(0x04)\n      tag_42\n      swap1\n      sub(shl(0xa0, 0x01), 0x01)\n      and\n      dup2\n      jump\n        /* \"Pledage.sol\":11207:11511  function getBnbPrice() external view returns(uint256){... */\n    tag_33:\n        /* \"Pledage.sol\":11252:11259  uint256 */\n      0x00\n        /* \"Pledage.sol\":11270:11282  address weth */\n      dup1\n        /* \"Pledage.sol\":11302:11317  uniswapV2Router */\n      0x08\n      0x00\n      swap1\n      sload\n      swap1\n      0x0100\n      exp\n      swap1\n      div\n      sub(shl(0xa0, 0x01), 0x01)\n      and\n      sub(shl(0xa0, 0x01), 0x01)\n        /* \"Pledage.sol\":11285:11323  IUniswapV2Router(uniswapV2Router).WETH */\n      and\n      0xad5c4648\n        /* \"Pledage.sol\":11285:11325  IUniswapV2Router(uniswapV2Router).WETH() */\n      mload(0x40)\n      dup2\n      0xffffffff\n      and\n      0xe0\n      shl\n      dup2\n      mstore\n      0x04\n      add\n      0x20\n      mload(0x40)\n      dup1\n      dup4\n      sub\n      dup2\n      dup7\n      gas\n      staticcall\n      iszero\n      dup1\n      iszero\n      tag_138\n      jumpi\n      returndatasize\n      0x00\n      dup1\n      returndatacopy\n      revert(0x00, returndatasize)\n    tag_138:\n      pop\n      pop\n      pop\n      pop\n      mload(0x40)\n      returndatasize\n      not(0x1f)\n      0x1f\n      dup3\n      add\n      and\n      dup3\n      add\n      dup1\n      0x40\n      mstore\n      pop\n      dup2\n      add\n      swap1\n      tag_139\n      swap2\n      swap1\n      tag_140\n      jump\t// in\n    tag_139:\n        /* \"Pledage.sol\":11400:11416  uniswapV2Factory */\n      sload(0x09)\n        /* \"Pledage.sol\":11424:11428  usdt */\n      sload(0x07)\n        /* \"Pledage.sol\":11270:11325  address weth = IUniswapV2Router(uniswapV2Router).WETH() */\n      swap2\n      swap3\n      pop\n        /* \"Pledage.sol\":11336:11350  uint reserveIn */\n      0x00\n      swap2\n      dup3\n      swap2\n        /* \"Pledage.sol\":11371:11429  UniswapV2Library.getReserves(uniswapV2Factory, weth, usdt) */\n      tag_141\n      swap2\n      sub(shl(0xa0, 0x01), 0x01)\n        /* \"Pledage.sol\":11400:11416  uniswapV2Factory */\n      swap2\n      dup3\n      and\n      swap2\n        /* \"Pledage.sol\":11270:11325  address weth = IUniswapV2Router(uniswapV2Router).WETH() */\n      dup7\n      swap2\n        /* \"Pledage.sol\":11424:11428  usdt */\n      and\n        /* \"Pledage.sol\":11371:11399  UniswapV2Library.getReserves */\n      tag_142\n        /* \"Pledage.sol\":11371:11429  UniswapV2Library.getReserves(uniswapV2Factory, weth, usdt) */\n      jump\t// in\n    tag_141:\n        /* \"Pledage.sol\":11335:11429  (uint reserveIn, uint reserveOut) = UniswapV2Library.getReserves(uniswapV2Factory, weth, usdt) */\n      swap2\n      pop\n      swap2\n      pop\n        /* \"Pledage.sol\":11446:11504  UniswapV2Library.getAmountOut(1e18, reserveIn, reserveOut) */\n      tag_143\n        /* \"Pledage.sol\":11476:11480  1e18 */\n      0x0de0b6b3a7640000\n        /* \"Pledage.sol\":11482:11491  reserveIn */\n      dup4\n        /* \"Pledage.sol\":11493:11503  reserveOut */\n      dup4\n        /* \"Pledage.sol\":11446:11475  UniswapV2Library.getAmountOut */\n      tag_144\n        /* \"Pledage.sol\":11446:11504  UniswapV2Library.getAmountOut(1e18, reserveIn, reserveOut) */\n      jump\t// in\n    tag_143:\n        /* \"Pledage.sol\":11439:11504  return UniswapV2Library.getAmountOut(1e18, reserveIn, reserveOut) */\n      swap4\n      pop\n      pop\n      pop\n      pop\n        /* \"Pledage.sol\":11207:11511  function getBnbPrice() external view returns(uint256){... */\n      swap1\n      jump\t// out\n        /* \"Pledage.sol\":12410:12494  function setToken(address _token) external  onlyOwner{... */\n    tag_40:\n        /* \"Pledage.sol\":8118:8123  admin */\n      and(sub(shl(0xa0, 0x01), 0x01), sload(0x00))\n        /* \"Pledage.sol\":8127:8137  msg.sender */\n      caller\n        /* \"Pledage.sol\":8118:8137  admin == msg.sender */\n      eq\n        /* \"Pledage.sol\":8110:8160  require(admin == msg.sender,\"Caller is not owner\") */\n      tag_146\n      jumpi\n      mload(0x40)\n      shl(0xe5, 0x461bcd)\n      dup2\n      mstore\n      0x04\n      add\n      tag_147\n      swap1\n      tag_148\n      jump\t// in\n    tag_147:\n      mload(0x40)\n      dup1\n      swap2\n      sub\n      swap1\n      revert\n    tag_146:\n        /* \"Pledage.sol\":12473:12478  token */\n      0x04\n        /* \"Pledage.sol\":12473:12487  token = _token */\n      dup1\n      sload\n      not(sub(shl(0xa0, 0x01), 0x01))\n      and\n      sub(shl(0xa0, 0x01), 0x01)\n      swap3\n      swap1\n      swap3\n      and\n      swap2\n      swap1\n      swap2\n      or\n      swap1\n      sstore\n        /* \"Pledage.sol\":12410:12494  function setToken(address _token) external  onlyOwner{... */\n      jump\t// out\n        /* \"Pledage.sol\":12154:12243  function setPermit(address _permit) external onlyOwner(){... */\n    tag_53:\n        /* \"Pledage.sol\":8118:8123  admin */\n      and(sub(shl(0xa0, 0x01), 0x01), sload(0x00))\n        /* \"Pledage.sol\":8127:8137  msg.sender */\n      caller\n        /* \"Pledage.sol\":8118:8137  admin == msg.sender */\n      eq\n        /* \"Pledage.sol\":8110:8160  require(admin == msg.sender,\"Caller is not owner\") */\n      tag_151\n      jumpi\n      mload(0x40)\n      shl(0xe5, 0x461bcd)\n      dup2\n      mstore\n      0x04\n      add\n      tag_147\n      swap1\n      tag_148\n      jump\t// in\n    tag_151:\n        /* \"Pledage.sol\":12220:12226  permit */\n      0x05\n        /* \"Pledage.sol\":12220:12236  permit = _permit */\n      dup1\n      sload\n      not(sub(shl(0xa0, 0x01), 0x01))\n      and\n      sub(shl(0xa0, 0x01), 0x01)\n      swap3\n      swap1\n      swap3\n      and\n      swap2\n      swap1\n      swap2\n      or\n      swap1\n      sstore\n        /* \"Pledage.sol\":12154:12243  function setPermit(address _permit) external onlyOwner(){... */\n      jump\t// out\n        /* \"Pledage.sol\":9200:10573  function withdraw(SignatureInfo.Content calldata content) external {... */\n    tag_67:\n        /* \"Pledage.sol\":9305:9320  block.timestamp */\n      timestamp\n        /* \"Pledage.sol\":9285:9292  content */\n      dup2\n        /* \"Pledage.sol\":9285:9301  content.deadline */\n      0x80\n      add\n      calldataload\n        /* \"Pledage.sol\":9285:9320  content.deadline >= block.timestamp */\n      lt\n      iszero\n        /* \"Pledage.sol\":9277:9357  require(content.deadline >= block.timestamp,\"Pledage:Invalid withdraw duration\") */\n      tag_155\n      jumpi\n      mload(0x40)\n      shl(0xe5, 0x461bcd)\n      dup2\n      mstore\n        /* \"#utility.yul\":3470:3472   */\n      0x20\n        /* \"Pledage.sol\":9277:9357  require(content.deadline >= block.timestamp,\"Pledage:Invalid withdraw duration\") */\n      0x04\n      dup3\n      add\n        /* \"#utility.yul\":3452:3473   */\n      mstore\n        /* \"#utility.yul\":3509:3511   */\n      0x21\n        /* \"#utility.yul\":3489:3507   */\n      0x24\n      dup3\n      add\n        /* \"#utility.yul\":3482:3512   */\n      mstore\n        /* \"#utility.yul\":3548:3582   */\n      0x506c65646167653a496e76616c6964207769746864726177206475726174696f\n        /* \"#utility.yul\":3528:3546   */\n      0x44\n      dup3\n      add\n        /* \"#utility.yul\":3521:3583   */\n      mstore\n      shl(0xf9, 0x37)\n        /* \"#utility.yul\":3599:3617   */\n      0x64\n      dup3\n      add\n        /* \"#utility.yul\":3592:3623   */\n      mstore\n        /* \"#utility.yul\":3640:3659   */\n      0x84\n      add\n        /* \"Pledage.sol\":9277:9357  require(content.deadline >= block.timestamp,\"Pledage:Invalid withdraw duration\") */\n      tag_147\n        /* \"#utility.yul\":3268:3665   */\n      jump\n        /* \"Pledage.sol\":9277:9357  require(content.deadline >= block.timestamp,\"Pledage:Invalid withdraw duration\") */\n    tag_155:\n        /* \"Pledage.sol\":9375:9393  getResult(content) */\n      tag_158\n        /* \"Pledage.sol\":9385:9392  content */\n      dup2\n        /* \"Pledage.sol\":9375:9384  getResult */\n      tag_87\n        /* \"Pledage.sol\":9375:9393  getResult(content) */\n      jump\t// in\n    tag_158:\n        /* \"Pledage.sol\":9367:9426  require(getResult(content),\"Pledage:Invalid withdraw data\") */\n      tag_159\n      jumpi\n      mload(0x40)\n      shl(0xe5, 0x461bcd)\n      dup2\n      mstore\n        /* \"#utility.yul\":3872:3874   */\n      0x20\n        /* \"Pledage.sol\":9367:9426  require(getResult(content),\"Pledage:Invalid withdraw data\") */\n      0x04\n      dup3\n      add\n        /* \"#utility.yul\":3854:3875   */\n      mstore\n        /* \"#utility.yul\":3911:3913   */\n      0x1d\n        /* \"#utility.yul\":3891:3909   */\n      0x24\n      dup3\n      add\n        /* \"#utility.yul\":3884:3914   */\n      mstore\n        /* \"#utility.yul\":3950:3981   */\n      0x506c65646167653a496e76616c69642077697468647261772064617461000000\n        /* \"#utility.yul\":3930:3948   */\n      0x44\n      dup3\n      add\n        /* \"#utility.yul\":3923:3982   */\n      mstore\n        /* \"#utility.yul\":3999:4017   */\n      0x64\n      add\n        /* \"Pledage.sol\":9367:9426  require(getResult(content),\"Pledage:Invalid withdraw data\") */\n      tag_147\n        /* \"#utility.yul\":3670:4023   */\n      jump\n        /* \"Pledage.sol\":9367:9426  require(getResult(content),\"Pledage:Invalid withdraw data\") */\n    tag_159:\n        /* \"Pledage.sol\":9470:9471  0 */\n      0x00\n        /* \"Pledage.sol\":9444:9458  content.holder */\n      tag_162\n      0x40\n      dup4\n      add\n      0x20\n      dup5\n      add\n      tag_39\n      jump\t// in\n    tag_162:\n      sub(shl(0xa0, 0x01), 0x01)\n        /* \"Pledage.sol\":9444:9472  content.holder != address(0) */\n      and\n      sub\n        /* \"Pledage.sol\":9436:9508  require(content.holder != address(0),\"Pledage:Invalid withdraw address\") */\n      tag_163\n      jumpi\n      mload(0x40)\n      shl(0xe5, 0x461bcd)\n      dup2\n      mstore\n        /* \"#utility.yul\":4230:4232   */\n      0x20\n        /* \"Pledage.sol\":9436:9508  require(content.holder != address(0),\"Pledage:Invalid withdraw address\") */\n      0x04\n      dup3\n      add\n        /* \"#utility.yul\":4212:4233   */\n      dup2\n      swap1\n      mstore\n        /* \"#utility.yul\":4249:4267   */\n      0x24\n      dup3\n      add\n        /* \"#utility.yul\":4242:4272   */\n      mstore\n        /* \"#utility.yul\":4308:4342   */\n      0x506c65646167653a496e76616c69642077697468647261772061646472657373\n        /* \"#utility.yul\":4288:4306   */\n      0x44\n      dup3\n      add\n        /* \"#utility.yul\":4281:4343   */\n      mstore\n        /* \"#utility.yul\":4360:4378   */\n      0x64\n      add\n        /* \"Pledage.sol\":9436:9508  require(content.holder != address(0),\"Pledage:Invalid withdraw address\") */\n      tag_147\n        /* \"#utility.yul\":4028:4384   */\n      jump\n        /* \"Pledage.sol\":9436:9508  require(content.holder != address(0),\"Pledage:Invalid withdraw address\") */\n    tag_163:\n        /* \"Pledage.sol\":9543:9544  0 */\n      0x00\n        /* \"Pledage.sol\":9526:9533  content */\n      dup2\n        /* \"Pledage.sol\":9526:9540  content.amount */\n      0x40\n      add\n      calldataload\n        /* \"Pledage.sol\":9526:9544  content.amount > 0 */\n      gt\n        /* \"Pledage.sol\":9518:9579  require(content.amount > 0,\"Pledage:Invalid withdraw amount\") */\n      tag_166\n      jumpi\n      mload(0x40)\n      shl(0xe5, 0x461bcd)\n      dup2\n      mstore\n        /* \"#utility.yul\":4591:4593   */\n      0x20\n        /* \"Pledage.sol\":9518:9579  require(content.amount > 0,\"Pledage:Invalid withdraw amount\") */\n      0x04\n      dup3\n      add\n        /* \"#utility.yul\":4573:4594   */\n      mstore\n        /* \"#utility.yul\":4630:4632   */\n      0x1f\n        /* \"#utility.yul\":4610:4628   */\n      0x24\n      dup3\n      add\n        /* \"#utility.yul\":4603:4633   */\n      mstore\n        /* \"#utility.yul\":4669:4702   */\n      0x506c65646167653a496e76616c696420776974686472617720616d6f756e7400\n        /* \"#utility.yul\":4649:4667   */\n      0x44\n      dup3\n      add\n        /* \"#utility.yul\":4642:4703   */\n      mstore\n        /* \"#utility.yul\":4720:4738   */\n      0x64\n      add\n        /* \"Pledage.sol\":9518:9579  require(content.amount > 0,\"Pledage:Invalid withdraw amount\") */\n      tag_147\n        /* \"#utility.yul\":4389:4744   */\n      jump\n        /* \"Pledage.sol\":9518:9579  require(content.amount > 0,\"Pledage:Invalid withdraw amount\") */\n    tag_166:\n        /* \"Pledage.sol\":9615:9625  msg.sender */\n      caller\n        /* \"Pledage.sol\":9597:9611  content.holder */\n      tag_169\n      0x40\n      dup4\n      add\n      0x20\n      dup5\n      add\n      tag_39\n      jump\t// in\n    tag_169:\n      sub(shl(0xa0, 0x01), 0x01)\n        /* \"Pledage.sol\":9597:9625  content.holder == msg.sender */\n      and\n      eq\n        /* \"Pledage.sol\":9589:9665  require(content.holder == msg.sender,\"Pledage:Lack of operating permission\") */\n      tag_170\n      jumpi\n      mload(0x40)\n      shl(0xe5, 0x461bcd)\n      dup2\n      mstore\n        /* \"#utility.yul\":4951:4953   */\n      0x20\n        /* \"Pledage.sol\":9589:9665  require(content.holder == msg.sender,\"Pledage:Lack of operating permission\") */\n      0x04\n      dup3\n      add\n        /* \"#utility.yul\":4933:4954   */\n      mstore\n        /* \"#utility.yul\":4990:4992   */\n      0x24\n        /* \"#utility.yul\":4970:4988   */\n      dup1\n      dup3\n      add\n        /* \"#utility.yul\":4963:4993   */\n      mstore\n        /* \"#utility.yul\":5029:5063   */\n      0x506c65646167653a4c61636b206f66206f7065726174696e67207065726d6973\n        /* \"#utility.yul\":5009:5027   */\n      0x44\n      dup3\n      add\n        /* \"#utility.yul\":5002:5064   */\n      mstore\n      shl(0xe1, 0x39b4b7b7)\n        /* \"#utility.yul\":5080:5098   */\n      0x64\n      dup3\n      add\n        /* \"#utility.yul\":5073:5107   */\n      mstore\n        /* \"#utility.yul\":5124:5143   */\n      0x84\n      add\n        /* \"Pledage.sol\":9589:9665  require(content.holder == msg.sender,\"Pledage:Lack of operating permission\") */\n      tag_147\n        /* \"#utility.yul\":4749:5149   */\n      jump\n        /* \"Pledage.sol\":9589:9665  require(content.holder == msg.sender,\"Pledage:Lack of operating permission\") */\n    tag_170:\n        /* \"Pledage.sol\":9694:9704  msg.sender */\n      caller\n        /* \"Pledage.sol\":9683:9705  reentrancy[msg.sender] */\n      0x00\n      swap1\n      dup2\n      mstore\n        /* \"Pledage.sol\":9683:9693  reentrancy */\n      0x0b\n        /* \"Pledage.sol\":9683:9705  reentrancy[msg.sender] */\n      0x20\n      mstore\n        /* \"Pledage.sol\":9709:9723  content.amount */\n      0x40\n        /* \"Pledage.sol\":9683:9705  reentrancy[msg.sender] */\n      swap1\n      dup2\n      swap1\n      keccak256\n      sload\n        /* \"Pledage.sol\":9709:9723  content.amount */\n      swap1\n      dup3\n      add\n      calldataload\n        /* \"Pledage.sol\":9683:9723  reentrancy[msg.sender] != content.amount */\n      swap1\n      sub\n        /* \"Pledage.sol\":9675:9764  require(reentrancy[msg.sender] != content.amount,\"Pledage:Repeated withdrawal operation\") */\n      tag_173\n      jumpi\n      mload(0x40)\n      shl(0xe5, 0x461bcd)\n      dup2\n      mstore\n        /* \"#utility.yul\":5356:5358   */\n      0x20\n        /* \"Pledage.sol\":9675:9764  require(reentrancy[msg.sender] != content.amount,\"Pledage:Repeated withdrawal operation\") */\n      0x04\n      dup3\n      add\n        /* \"#utility.yul\":5338:5359   */\n      mstore\n        /* \"#utility.yul\":5395:5397   */\n      0x25\n        /* \"#utility.yul\":5375:5393   */\n      0x24\n      dup3\n      add\n        /* \"#utility.yul\":5368:5398   */\n      mstore\n        /* \"#utility.yul\":5434:5468   */\n      0x506c65646167653a5265706561746564207769746864726177616c206f706572\n        /* \"#utility.yul\":5414:5432   */\n      0x44\n      dup3\n      add\n        /* \"#utility.yul\":5407:5469   */\n      mstore\n      shl(0xd9, 0x30ba34b7b7)\n        /* \"#utility.yul\":5485:5503   */\n      0x64\n      dup3\n      add\n        /* \"#utility.yul\":5478:5513   */\n      mstore\n        /* \"#utility.yul\":5530:5549   */\n      0x84\n      add\n        /* \"Pledage.sol\":9675:9764  require(reentrancy[msg.sender] != content.amount,\"Pledage:Repeated withdrawal operation\") */\n      tag_147\n        /* \"#utility.yul\":5154:5555   */\n      jump\n        /* \"Pledage.sol\":9675:9764  require(reentrancy[msg.sender] != content.amount,\"Pledage:Repeated withdrawal operation\") */\n    tag_173:\n        /* \"Pledage.sol\":9785:9795  msg.sender */\n      caller\n        /* \"Pledage.sol\":9774:9796  reentrancy[msg.sender] */\n      0x00\n      swap1\n      dup2\n      mstore\n        /* \"Pledage.sol\":9774:9784  reentrancy */\n      0x0b\n        /* \"Pledage.sol\":9774:9796  reentrancy[msg.sender] */\n      0x20\n      swap1\n      dup2\n      mstore\n        /* \"Pledage.sol\":9799:9813  content.amount */\n      0x40\n        /* \"Pledage.sol\":9774:9796  reentrancy[msg.sender] */\n      dup1\n      dup4\n      keccak256\n        /* \"Pledage.sol\":9799:9813  content.amount */\n      dup2\n      dup6\n      add\n      calldataload\n        /* \"Pledage.sol\":9774:9813  reentrancy[msg.sender] = content.amount */\n      swap1\n      dup2\n      swap1\n      sstore\n        /* \"Pledage.sol\":9858:9873  content.orderId */\n      0x60\n      dup6\n      add\n      calldataload\n        /* \"Pledage.sol\":9847:9874  optionInfo[content.orderId] */\n      dup5\n      mstore\n        /* \"Pledage.sol\":9847:9857  optionInfo */\n      0x03\n        /* \"Pledage.sol\":9847:9874  optionInfo[content.orderId] */\n      swap3\n      dup4\n      swap1\n      mstore\n      swap1\n      dup4\n      keccak256\n        /* \"Pledage.sol\":9884:9897  option.amount */\n      swap2\n      dup3\n      add\n        /* \"Pledage.sol\":9884:9915  option.amount += content.amount */\n      dup1\n      sload\n        /* \"Pledage.sol\":9847:9874  optionInfo[content.orderId] */\n      swap3\n      swap4\n        /* \"Pledage.sol\":9799:9813  content.amount */\n      swap2\n      swap3\n        /* \"Pledage.sol\":9884:9897  option.amount */\n      swap1\n      swap2\n        /* \"Pledage.sol\":9774:9796  reentrancy[msg.sender] */\n      swap1\n        /* \"Pledage.sol\":9884:9915  option.amount += content.amount */\n      tag_176\n      swap1\n        /* \"Pledage.sol\":9799:9813  content.amount */\n      dup5\n      swap1\n        /* \"Pledage.sol\":9884:9915  option.amount += content.amount */\n      tag_177\n      jump\t// in\n    tag_176:\n      swap1\n      swap2\n      sstore\n      pop\n        /* \"Pledage.sol\":9940:9953  content.token */\n      tag_178\n      swap1\n      pop\n      0x20\n      dup4\n      add\n        /* \"Pledage.sol\":9940:9947  content */\n      dup4\n        /* \"Pledage.sol\":9940:9953  content.token */\n      tag_39\n      jump\t// in\n    tag_178:\n        /* \"Pledage.sol\":9925:9937  option.token */\n      0x02\n      dup3\n      add\n        /* \"Pledage.sol\":9925:9953  option.token = content.token */\n      dup1\n      sload\n      not(sub(shl(0xa0, 0x01), 0x01))\n      and\n      sub(shl(0xa0, 0x01), 0x01)\n      swap3\n      swap1\n      swap3\n      and\n      swap2\n      swap1\n      swap2\n      or\n      swap1\n      sstore\n        /* \"Pledage.sol\":9979:9993  content.holder */\n      tag_179\n      0x40\n      dup4\n      add\n      0x20\n      dup5\n      add\n      tag_39\n      jump\t// in\n    tag_179:\n        /* \"Pledage.sol\":9963:9976  option.holder */\n      0x01\n      dup3\n      add\n        /* \"Pledage.sol\":9963:9993  option.holder = content.holder */\n      dup1\n      sload\n      not(sub(shl(0xa0, 0x01), 0x01))\n      and\n      sub(shl(0xa0, 0x01), 0x01)\n      swap3\n      dup4\n      and\n      or\n      swap1\n      sstore\n        /* \"Pledage.sol\":10022:10027  token */\n      sload(0x04)\n        /* \"Pledage.sol\":10006:10018  option.token */\n      0x02\n      dup4\n      add\n      sload\n        /* \"Pledage.sol\":10022:10027  token */\n      swap1\n      dup3\n      and\n        /* \"Pledage.sol\":10006:10018  option.token */\n      swap2\n      and\n        /* \"Pledage.sol\":10006:10027  option.token == token */\n      sub\n        /* \"Pledage.sol\":10003:10327  if(option.token == token){... */\n      tag_180\n      jumpi\n        /* \"Pledage.sol\":10070:10075  token */\n      sload(0x04)\n        /* \"Pledage.sol\":10042:10119  TransferHelper.safeTransfer(token, content.holder, content.amount * 99 / 100) */\n      tag_181\n      swap1\n      sub(shl(0xa0, 0x01), 0x01)\n        /* \"Pledage.sol\":10070:10075  token */\n      and\n        /* \"Pledage.sol\":10077:10091  content.holder */\n      tag_182\n      0x40\n      dup6\n      add\n      0x20\n      dup7\n      add\n      tag_39\n      jump\t// in\n    tag_182:\n        /* \"Pledage.sol\":10115:10118  100 */\n      0x64\n        /* \"Pledage.sol\":10093:10112  content.amount * 99 */\n      tag_183\n        /* \"Pledage.sol\":10093:10107  content.amount */\n      0x40\n      dup8\n      add\n      calldataload\n        /* \"Pledage.sol\":10110:10112  99 */\n      0x63\n        /* \"Pledage.sol\":10093:10112  content.amount * 99 */\n      tag_184\n      jump\t// in\n    tag_183:\n        /* \"Pledage.sol\":10093:10118  content.amount * 99 / 100 */\n      tag_185\n      swap2\n      swap1\n      tag_186\n      jump\t// in\n    tag_185:\n        /* \"Pledage.sol\":10042:10069  TransferHelper.safeTransfer */\n      tag_187\n        /* \"Pledage.sol\":10042:10119  TransferHelper.safeTransfer(token, content.holder, content.amount * 99 / 100) */\n      jump\t// in\n    tag_181:\n        /* \"Pledage.sol\":10161:10166  token */\n      sload(0x04)\n        /* \"Pledage.sol\":10133:10209  TransferHelper.safeTransfer(token, content.holder, content.amount * 1 / 100) */\n      tag_188\n      swap1\n      sub(shl(0xa0, 0x01), 0x01)\n        /* \"Pledage.sol\":10161:10166  token */\n      and\n        /* \"Pledage.sol\":10168:10182  content.holder */\n      tag_189\n      0x40\n      dup6\n      add\n      0x20\n      dup7\n      add\n      tag_39\n      jump\t// in\n    tag_189:\n        /* \"Pledage.sol\":10205:10208  100 */\n      0x64\n        /* \"Pledage.sol\":10184:10202  content.amount * 1 */\n      tag_183\n        /* \"Pledage.sol\":10184:10198  content.amount */\n      0x40\n      dup8\n      add\n      calldataload\n        /* \"Pledage.sol\":10201:10202  1 */\n      0x01\n        /* \"Pledage.sol\":10184:10202  content.amount * 1 */\n      tag_184\n      jump\t// in\n        /* \"Pledage.sol\":10133:10209  TransferHelper.safeTransfer(token, content.holder, content.amount * 1 / 100) */\n    tag_188:\n        /* \"Pledage.sol\":10228:10316  Withdraw(content.orderId, content.holder, content.token, content.amount,block.timestamp) */\n      0xfe7813e2866053d5c3938554e517b554fce6666a6561bed9eaa7419b29fa9b68\n        /* \"Pledage.sol\":10237:10252  content.orderId */\n      0x60\n      dup4\n      add\n      calldataload\n        /* \"Pledage.sol\":10254:10268  content.holder */\n      tag_192\n      0x40\n      dup6\n      add\n      0x20\n      dup7\n      add\n      tag_39\n      jump\t// in\n    tag_192:\n        /* \"Pledage.sol\":10270:10283  content.token */\n      tag_193\n      0x20\n      dup7\n      add\n        /* \"Pledage.sol\":10270:10277  content */\n      dup7\n        /* \"Pledage.sol\":10270:10283  content.token */\n      tag_39\n      jump\t// in\n    tag_193:\n        /* \"Pledage.sol\":10285:10299  content.amount */\n      0x40\n        /* \"Pledage.sol\":10228:10316  Withdraw(content.orderId, content.holder, content.token, content.amount,block.timestamp) */\n      dup1\n      mload\n        /* \"#utility.yul\":6476:6501   */\n      swap4\n      dup5\n      mstore\n      sub(shl(0xa0, 0x01), 0x01)\n        /* \"#utility.yul\":6575:6590   */\n      swap3\n      dup4\n      and\n        /* \"#utility.yul\":6570:6572   */\n      0x20\n        /* \"#utility.yul\":6555:6573   */\n      dup6\n      add\n        /* \"#utility.yul\":6548:6591   */\n      mstore\n        /* \"#utility.yul\":6627:6642   */\n      swap2\n      and\n        /* \"#utility.yul\":6607:6625   */\n      dup3\n      dup3\n      add\n        /* \"#utility.yul\":6600:6643   */\n      mstore\n        /* \"Pledage.sol\":10285:10299  content.amount */\n      dup5\n      add\n      calldataload\n        /* \"#utility.yul\":6674:6676   */\n      0x60\n        /* \"#utility.yul\":6659:6677   */\n      dup3\n      add\n        /* \"#utility.yul\":6652:6686   */\n      mstore\n        /* \"Pledage.sol\":10300:10315  block.timestamp */\n      timestamp\n        /* \"#utility.yul\":6717:6720   */\n      0x80\n        /* \"#utility.yul\":6702:6721   */\n      dup3\n      add\n        /* \"#utility.yul\":6695:6730   */\n      mstore\n        /* \"#utility.yul\":6463:6466   */\n      0xa0\n        /* \"#utility.yul\":6448:6467   */\n      add\n        /* \"Pledage.sol\":10228:10316  Withdraw(content.orderId, content.holder, content.token, content.amount,block.timestamp) */\n      mload(0x40)\n      dup1\n      swap2\n      sub\n      swap1\n      log1\n        /* \"Pledage.sol\":10003:10327  if(option.token == token){... */\n    tag_180:\n        /* \"Pledage.sol\":10339:10351  option.token */\n      0x02\n      dup2\n      add\n      sload\n      sub(shl(0xa0, 0x01), 0x01)\n      and\n        /* \"Pledage.sol\":10336:10557  if(option.token == address(0)){... */\n      tag_196\n      jumpi\n        /* \"Pledage.sol\":10380:10442  TransferHelper.safeTransferETH(content.holder, content.amount) */\n      tag_197\n        /* \"Pledage.sol\":10411:10425  content.holder */\n      tag_198\n      0x40\n      dup5\n      add\n      0x20\n      dup6\n      add\n      tag_39\n      jump\t// in\n    tag_198:\n        /* \"Pledage.sol\":10427:10434  content */\n      dup4\n        /* \"Pledage.sol\":10427:10441  content.amount */\n      0x40\n      add\n      calldataload\n        /* \"Pledage.sol\":10380:10410  TransferHelper.safeTransferETH */\n      tag_199\n        /* \"Pledage.sol\":10380:10442  TransferHelper.safeTransferETH(content.holder, content.amount) */\n      jump\t// in\n    tag_197:\n        /* \"Pledage.sol\":10461:10546  Withdraw(content.orderId, content.holder, address(0), content.amount,block.timestamp) */\n      0xfe7813e2866053d5c3938554e517b554fce6666a6561bed9eaa7419b29fa9b68\n        /* \"Pledage.sol\":10470:10485  content.orderId */\n      0x60\n      dup4\n      add\n      calldataload\n        /* \"Pledage.sol\":10487:10501  content.holder */\n      tag_200\n      0x40\n      dup6\n      add\n      0x20\n      dup7\n      add\n      tag_39\n      jump\t// in\n    tag_200:\n        /* \"Pledage.sol\":10515:10529  content.amount */\n      0x40\n        /* \"Pledage.sol\":10461:10546  Withdraw(content.orderId, content.holder, address(0), content.amount,block.timestamp) */\n      dup1\n      mload\n        /* \"#utility.yul\":6476:6501   */\n      swap3\n      dup4\n      mstore\n      sub(shl(0xa0, 0x01), 0x01)\n        /* \"#utility.yul\":6575:6590   */\n      swap1\n      swap2\n      and\n        /* \"#utility.yul\":6570:6572   */\n      0x20\n        /* \"#utility.yul\":6555:6573   */\n      dup4\n      add\n        /* \"#utility.yul\":6548:6591   */\n      mstore\n        /* \"Pledage.sol\":10511:10512  0 */\n      0x00\n        /* \"#utility.yul\":6607:6625   */\n      dup3\n      dup3\n      add\n        /* \"#utility.yul\":6600:6643   */\n      mstore\n        /* \"Pledage.sol\":10515:10529  content.amount */\n      dup5\n      add\n      calldataload\n        /* \"#utility.yul\":6674:6676   */\n      0x60\n        /* \"#utility.yul\":6659:6677   */\n      dup3\n      add\n        /* \"#utility.yul\":6652:6686   */\n      mstore\n        /* \"Pledage.sol\":10530:10545  block.timestamp */\n      timestamp\n        /* \"#utility.yul\":6717:6720   */\n      0x80\n        /* \"#utility.yul\":6702:6721   */\n      dup3\n      add\n        /* \"#utility.yul\":6695:6730   */\n      mstore\n        /* \"#utility.yul\":6463:6466   */\n      0xa0\n        /* \"#utility.yul\":6448:6467   */\n      add\n        /* \"Pledage.sol\":10461:10546  Withdraw(content.orderId, content.holder, address(0), content.amount,block.timestamp) */\n      mload(0x40)\n      dup1\n      swap2\n      sub\n      swap1\n      log1\n        /* \"Pledage.sol\":10336:10557  if(option.token == address(0)){... */\n    tag_196:\n        /* \"Pledage.sol\":9267:10573  {... */\n      pop\n        /* \"Pledage.sol\":9200:10573  function withdraw(SignatureInfo.Content calldata content) external {... */\n      pop\n      jump\t// out\n        /* \"Pledage.sol\":11517:11759  function getTokenPrice() external view returns(uint256){... */\n    tag_70:\n        /* \"Pledage.sol\":11647:11663  uniswapV2Factory */\n      sload(0x09)\n        /* \"Pledage.sol\":11665:11670  token */\n      sload(0x04)\n        /* \"Pledage.sol\":11672:11676  usdt */\n      sload(0x07)\n        /* \"Pledage.sol\":11564:11571  uint256 */\n      0x00\n      swap3\n      dup4\n      swap3\n      dup4\n      swap3\n        /* \"Pledage.sol\":11618:11677  UniswapV2Library.getReserves(uniswapV2Factory, token, usdt) */\n      tag_203\n      swap3\n      sub(shl(0xa0, 0x01), 0x01)\n        /* \"Pledage.sol\":11647:11663  uniswapV2Factory */\n      swap1\n      dup2\n      and\n      swap3\n        /* \"Pledage.sol\":11665:11670  token */\n      dup2\n      and\n      swap2\n        /* \"Pledage.sol\":11672:11676  usdt */\n      and\n        /* \"Pledage.sol\":11618:11646  UniswapV2Library.getReserves */\n      tag_142\n        /* \"Pledage.sol\":11618:11677  UniswapV2Library.getReserves(uniswapV2Factory, token, usdt) */\n      jump\t// in\n    tag_203:\n        /* \"Pledage.sol\":11582:11677  (uint reserveIn, uint reserveOut) = UniswapV2Library.getReserves(uniswapV2Factory, token, usdt) */\n      swap2\n      pop\n      swap2\n      pop\n        /* \"Pledage.sol\":11694:11752  UniswapV2Library.getAmountOut(1e18, reserveIn, reserveOut) */\n      tag_204\n        /* \"Pledage.sol\":11724:11728  1e18 */\n      0x0de0b6b3a7640000\n        /* \"Pledage.sol\":11730:11739  reserveIn */\n      dup4\n        /* \"Pledage.sol\":11741:11751  reserveOut */\n      dup4\n        /* \"Pledage.sol\":11694:11723  UniswapV2Library.getAmountOut */\n      tag_144\n        /* \"Pledage.sol\":11694:11752  UniswapV2Library.getAmountOut(1e18, reserveIn, reserveOut) */\n      jump\t// in\n    tag_204:\n        /* \"Pledage.sol\":11687:11752  return UniswapV2Library.getAmountOut(1e18, reserveIn, reserveOut) */\n      swap3\n      pop\n      pop\n      pop\n        /* \"Pledage.sol\":11517:11759  function getTokenPrice() external view returns(uint256){... */\n      swap1\n      jump\t// out\n        /* \"Pledage.sol\":10579:10808  function getResult(SignatureInfo.Content calldata content) public view returns(bool){... */\n    tag_87:\n        /* \"Pledage.sol\":10658:10662  bool */\n      0x00\n        /* \"Pledage.sol\":10680:10801  SignatureChecker.verify(SignatureInfo.getContentHash(content), permit, content.v, content.r, content.s, DOMAIN_SEPARATOR) */\n      tag_206\n        /* \"Pledage.sol\":10704:10741  SignatureInfo.getContentHash(content) */\n      tag_207\n        /* \"Pledage.sol\":10733:10740  content */\n      dup4\n        /* \"Pledage.sol\":10704:10732  SignatureInfo.getContentHash */\n      tag_208\n        /* \"Pledage.sol\":10704:10741  SignatureInfo.getContentHash(content) */\n      jump\t// in\n    tag_207:\n        /* \"Pledage.sol\":10743:10749  permit */\n      and(sub(shl(0xa0, 0x01), 0x01), sload(0x05))\n        /* \"Pledage.sol\":10751:10760  content.v */\n      tag_209\n      0xc0\n      dup7\n      add\n      0xa0\n      dup8\n      add\n      tag_210\n      jump\t// in\n    tag_209:\n        /* \"Pledage.sol\":10762:10769  content */\n      dup6\n        /* \"Pledage.sol\":10762:10771  content.r */\n      0xc0\n      add\n      calldataload\n        /* \"Pledage.sol\":10773:10780  content */\n      dup7\n        /* \"Pledage.sol\":10773:10782  content.s */\n      0xe0\n      add\n      calldataload\n        /* \"Pledage.sol\":10784:10800  DOMAIN_SEPARATOR */\n      sload(0x0a)\n        /* \"Pledage.sol\":10680:10703  SignatureChecker.verify */\n      tag_211\n        /* \"Pledage.sol\":10680:10801  SignatureChecker.verify(SignatureInfo.getContentHash(content), permit, content.v, content.r, content.s, DOMAIN_SEPARATOR) */\n      jump\t// in\n    tag_206:\n        /* \"Pledage.sol\":10673:10801  return SignatureChecker.verify(SignatureInfo.getContentHash(content), permit, content.v, content.r, content.s, DOMAIN_SEPARATOR) */\n      swap3\n        /* \"Pledage.sol\":10579:10808  function getResult(SignatureInfo.Content calldata content) public view returns(bool){... */\n      swap2\n      pop\n      pop\n      jump\t// out\n        /* \"Pledage.sol\":12063:12148  function setAdmin(address _admin) external onlyOwner(){... */\n    tag_93:\n        /* \"Pledage.sol\":8118:8123  admin */\n      and(sub(shl(0xa0, 0x01), 0x01), sload(0x00))\n        /* \"Pledage.sol\":8127:8137  msg.sender */\n      caller\n        /* \"Pledage.sol\":8118:8137  admin == msg.sender */\n      eq\n        /* \"Pledage.sol\":8110:8160  require(admin == msg.sender,\"Caller is not owner\") */\n      tag_213\n      jumpi\n      mload(0x40)\n      shl(0xe5, 0x461bcd)\n      dup2\n      mstore\n      0x04\n      add\n      tag_147\n      swap1\n      tag_148\n      jump\t// in\n    tag_213:\n        /* \"Pledage.sol\":12127:12132  admin */\n      0x00\n        /* \"Pledage.sol\":12127:12141  admin = _admin */\n      dup1\n      sload\n      not(sub(shl(0xa0, 0x01), 0x01))\n      and\n      sub(shl(0xa0, 0x01), 0x01)\n      swap3\n      swap1\n      swap3\n      and\n      swap2\n      swap1\n      swap2\n      or\n      swap1\n      sstore\n        /* \"Pledage.sol\":12063:12148  function setAdmin(address _admin) external onlyOwner(){... */\n      jump\t// out\n        /* \"Pledage.sol\":11911:12057  function emergencyToken(address receiver,uint256 amount) external onlyOwner(){... */\n    tag_98:\n        /* \"Pledage.sol\":8118:8123  admin */\n      and(sub(shl(0xa0, 0x01), 0x01), sload(0x00))\n        /* \"Pledage.sol\":8127:8137  msg.sender */\n      caller\n        /* \"Pledage.sol\":8118:8137  admin == msg.sender */\n      eq\n        /* \"Pledage.sol\":8110:8160  require(admin == msg.sender,\"Caller is not owner\") */\n      tag_217\n      jumpi\n      mload(0x40)\n      shl(0xe5, 0x461bcd)\n      dup2\n      mstore\n      0x04\n      add\n      tag_147\n      swap1\n      tag_148\n      jump\t// in\n    tag_217:\n        /* \"Pledage.sol\":12026:12031  token */\n      sload(0x04)\n        /* \"Pledage.sol\":11998:12050  TransferHelper.safeTransfer(token, receiver, amount) */\n      tag_196\n      swap1\n      sub(shl(0xa0, 0x01), 0x01)\n        /* \"Pledage.sol\":12026:12031  token */\n      and\n        /* \"Pledage.sol\":12033:12041  receiver */\n      dup4\n        /* \"Pledage.sol\":12043:12049  amount */\n      dup4\n        /* \"Pledage.sol\":11998:12025  TransferHelper.safeTransfer */\n      tag_187\n        /* \"Pledage.sol\":11998:12050  TransferHelper.safeTransfer(token, receiver, amount) */\n      jump\t// in\n        /* \"Pledage.sol\":11765:11905  function emergencyBNB(address receiver,uint256 amount) external onlyOwner(){... */\n    tag_102:\n        /* \"Pledage.sol\":8118:8123  admin */\n      and(sub(shl(0xa0, 0x01), 0x01), sload(0x00))\n        /* \"Pledage.sol\":8127:8137  msg.sender */\n      caller\n        /* \"Pledage.sol\":8118:8137  admin == msg.sender */\n      eq\n        /* \"Pledage.sol\":8110:8160  require(admin == msg.sender,\"Caller is not owner\") */\n      tag_222\n      jumpi\n      mload(0x40)\n      shl(0xe5, 0x461bcd)\n      dup2\n      mstore\n      0x04\n      add\n      tag_147\n      swap1\n      tag_148\n      jump\t// in\n    tag_222:\n        /* \"Pledage.sol\":11850:11898  TransferHelper.safeTransferETH(receiver, amount) */\n      tag_196\n        /* \"Pledage.sol\":11881:11889  receiver */\n      dup3\n        /* \"Pledage.sol\":11891:11897  amount */\n      dup3\n        /* \"Pledage.sol\":11850:11880  TransferHelper.safeTransferETH */\n      tag_199\n        /* \"Pledage.sol\":11850:11898  TransferHelper.safeTransferETH(receiver, amount) */\n      jump\t// in\n        /* \"Pledage.sol\":8638:9194  function provide(uint256 _amount,Expiration _expiration) external{... */\n    tag_119:\n        /* \"Pledage.sol\":8732:8738  100e18 */\n      0x056bc75e2d63100000\n        /* \"Pledage.sol\":8721:8728  _amount */\n      dup3\n        /* \"Pledage.sol\":8721:8738  _amount >= 100e18 */\n      lt\n      iszero\n        /* \"Pledage.sol\":8713:8772  require(_amount >= 100e18,\"Pledage:Invalid provide amount\") */\n      tag_227\n      jumpi\n      mload(0x40)\n      shl(0xe5, 0x461bcd)\n      dup2\n      mstore\n        /* \"#utility.yul\":7217:7219   */\n      0x20\n        /* \"Pledage.sol\":8713:8772  require(_amount >= 100e18,\"Pledage:Invalid provide amount\") */\n      0x04\n      dup3\n      add\n        /* \"#utility.yul\":7199:7220   */\n      mstore\n        /* \"#utility.yul\":7256:7258   */\n      0x1e\n        /* \"#utility.yul\":7236:7254   */\n      0x24\n      dup3\n      add\n        /* \"#utility.yul\":7229:7259   */\n      mstore\n        /* \"#utility.yul\":7295:7327   */\n      0x506c65646167653a496e76616c69642070726f7669646520616d6f756e740000\n        /* \"#utility.yul\":7275:7293   */\n      0x44\n      dup3\n      add\n        /* \"#utility.yul\":7268:7328   */\n      mstore\n        /* \"#utility.yul\":7345:7363   */\n      0x64\n      add\n        /* \"Pledage.sol\":8713:8772  require(_amount >= 100e18,\"Pledage:Invalid provide amount\") */\n      tag_147\n        /* \"#utility.yul\":7015:7369   */\n      jump\n        /* \"Pledage.sol\":8713:8772  require(_amount >= 100e18,\"Pledage:Invalid provide amount\") */\n    tag_227:\n        /* \"Pledage.sol\":8805:8820  Expiration.zero */\n      0x00\n        /* \"Pledage.sol\":8790:8801  _expiration */\n      dup2\n        /* \"Pledage.sol\":8790:8820  _expiration != Expiration.zero */\n      0x04\n      dup2\n      gt\n      iszero\n      tag_234\n      jumpi\n      tag_234\n      tag_232\n      jump\t// in\n    tag_234:\n      sub\n        /* \"Pledage.sol\":8782:8858  require(_expiration != Expiration.zero,\"Pledage:Invalid provide expiration\") */\n      tag_235\n      jumpi\n      mload(0x40)\n      shl(0xe5, 0x461bcd)\n      dup2\n      mstore\n        /* \"#utility.yul\":7708:7710   */\n      0x20\n        /* \"Pledage.sol\":8782:8858  require(_expiration != Expiration.zero,\"Pledage:Invalid provide expiration\") */\n      0x04\n      dup3\n      add\n        /* \"#utility.yul\":7690:7711   */\n      mstore\n        /* \"#utility.yul\":7747:7749   */\n      0x22\n        /* \"#utility.yul\":7727:7745   */\n      0x24\n      dup3\n      add\n        /* \"#utility.yul\":7720:7750   */\n      mstore\n        /* \"#utility.yul\":7786:7820   */\n      0x506c65646167653a496e76616c69642070726f76696465206578706972617469\n        /* \"#utility.yul\":7766:7784   */\n      0x44\n      dup3\n      add\n        /* \"#utility.yul\":7759:7821   */\n      mstore\n      shl(0xf1, 0x37b7)\n        /* \"#utility.yul\":7837:7855   */\n      0x64\n      dup3\n      add\n        /* \"#utility.yul\":7830:7862   */\n      mstore\n        /* \"#utility.yul\":7879:7898   */\n      0x84\n      add\n        /* \"Pledage.sol\":8782:8858  require(_expiration != Expiration.zero,\"Pledage:Invalid provide expiration\") */\n      tag_147\n        /* \"#utility.yul\":7506:7904   */\n      jump\n        /* \"Pledage.sol\":8782:8858  require(_expiration != Expiration.zero,\"Pledage:Invalid provide expiration\") */\n    tag_235:\n        /* \"Pledage.sol\":8900:8905  token */\n      sload(0x04)\n        /* \"Pledage.sol\":8868:8942  TransferHelper.safeTransferFrom(token, msg.sender, address(this), _amount) */\n      tag_238\n      swap1\n      sub(shl(0xa0, 0x01), 0x01)\n        /* \"Pledage.sol\":8900:8905  token */\n      and\n        /* \"Pledage.sol\":8907:8917  msg.sender */\n      caller\n        /* \"Pledage.sol\":8927:8931  this */\n      address\n        /* \"Pledage.sol\":8934:8941  _amount */\n      dup6\n        /* \"Pledage.sol\":8868:8899  TransferHelper.safeTransferFrom */\n      tag_239\n        /* \"Pledage.sol\":8868:8942  TransferHelper.safeTransferFrom(token, msg.sender, address(this), _amount) */\n      jump\t// in\n    tag_238:\n        /* \"Pledage.sol\":8981:8991  msg.sender */\n      caller\n        /* \"Pledage.sol\":8952:8969  User storage user */\n      0x00\n        /* \"Pledage.sol\":8972:8992  userInfo[msg.sender] */\n      swap1\n      dup2\n      mstore\n        /* \"Pledage.sol\":8972:8980  userInfo */\n      0x02\n        /* \"Pledage.sol\":8972:8992  userInfo[msg.sender] */\n      0x20\n      dup2\n      dup2\n      mstore\n      0x40\n      dup4\n      keccak256\n        /* \"Pledage.sol\":9002:9028  user.amounts.push(_amount) */\n      dup1\n      sload\n      0x01\n      dup1\n      dup3\n      add\n      dup4\n      sstore\n      dup3\n      dup7\n      mstore\n      dup4\n      dup7\n      keccak256\n      swap1\n      swap2\n      add\n      dup8\n      swap1\n      sstore\n        /* \"Pledage.sol\":9038:9054  user.expirations */\n      swap3\n      dup2\n      add\n        /* \"Pledage.sol\":9038:9072  user.expirations.push(_expiration) */\n      dup1\n      sload\n      swap4\n      dup5\n      add\n      dup2\n      sstore\n      dup5\n      mstore\n      swap3\n      dup2\n      swap1\n      keccak256\n      swap1\n      dup3\n      div\n      add\n      dup1\n      sload\n        /* \"Pledage.sol\":9060:9071  _expiration */\n      dup5\n      swap3\n        /* \"Pledage.sol\":9038:9072  user.expirations.push(_expiration) */\n      0x1f\n      and\n      0x0100\n      exp\n      0xff\n      dup2\n      mul\n      not\n      swap1\n      swap2\n      and\n      swap1\n        /* \"Pledage.sol\":9060:9071  _expiration */\n      dup4\n        /* \"Pledage.sol\":9038:9072  user.expirations.push(_expiration) */\n      0x04\n      dup2\n      gt\n      iszero\n      tag_243\n      jumpi\n      tag_243\n      tag_232\n      jump\t// in\n    tag_243:\n      mul\n      or\n      swap1\n      sstore\n      pop\n        /* \"Pledage.sol\":9082:9092  user.times */\n      0x01\n      dup1\n      dup3\n      add\n        /* \"Pledage.sol\":9082:9114  user.times.push(block.timestamp) */\n      dup1\n      sload\n      swap2\n      dup3\n      add\n      dup2\n      sstore\n      0x00\n      swap1\n      dup2\n      mstore\n      0x20\n      swap1\n      keccak256\n        /* \"Pledage.sol\":9098:9113  block.timestamp */\n      timestamp\n        /* \"Pledage.sol\":9082:9114  user.times.push(block.timestamp) */\n      swap2\n      add\n      dup2\n      swap1\n      sstore\n        /* \"Pledage.sol\":9129:9187  Provide(msg.sender, _amount, block.timestamp, _expiration) */\n      mload(0x40)\n      0x1ab2d7016a285cf7ca78bdd1c8a8e845f082fe124067d9137646150ced640816\n      swap2\n      tag_245\n      swap2\n        /* \"Pledage.sol\":9137:9147  msg.sender */\n      caller\n      swap2\n        /* \"Pledage.sol\":9149:9156  _amount */\n      dup8\n      swap2\n        /* \"Pledage.sol\":9175:9186  _expiration */\n      dup8\n      swap1\n        /* \"Pledage.sol\":9129:9187  Provide(msg.sender, _amount, block.timestamp, _expiration) */\n      tag_246\n      jump\t// in\n    tag_245:\n      mload(0x40)\n      dup1\n      swap2\n      sub\n      swap1\n      log1\n        /* \"Pledage.sol\":8703:9194  {... */\n      pop\n        /* \"Pledage.sol\":8638:9194  function provide(uint256 _amount,Expiration _expiration) external{... */\n      pop\n      pop\n      jump\t// out\n        /* \"Pledage.sol\":8184:8632  function initialize( address _permit) external onlyOwner(){... */\n    tag_123:\n        /* \"Pledage.sol\":8118:8123  admin */\n      and(sub(shl(0xa0, 0x01), 0x01), sload(0x00))\n        /* \"Pledage.sol\":8127:8137  msg.sender */\n      caller\n        /* \"Pledage.sol\":8118:8137  admin == msg.sender */\n      eq\n        /* \"Pledage.sol\":8110:8160  require(admin == msg.sender,\"Caller is not owner\") */\n      tag_248\n      jumpi\n      mload(0x40)\n      shl(0xe5, 0x461bcd)\n      dup2\n      mstore\n      0x04\n      add\n      tag_147\n      swap1\n      tag_148\n      jump\t// in\n    tag_248:\n        /* \"Pledage.sol\":8252:8267  uniswapV2Router */\n      0x08\n        /* \"Pledage.sol\":8252:8312  uniswapV2Router = 0x10ED43C718714eb63d5aA57B78B54704E256024E */\n      dup1\n      sload\n      not(sub(shl(0xa0, 0x01), 0x01))\n      swap1\n      dup2\n      and\n        /* \"Pledage.sol\":8270:8312  0x10ED43C718714eb63d5aA57B78B54704E256024E */\n      0x10ed43c718714eb63d5aa57b78b54704e256024e\n        /* \"Pledage.sol\":8252:8312  uniswapV2Router = 0x10ED43C718714eb63d5aA57B78B54704E256024E */\n      or\n      swap1\n      swap2\n      sstore\n        /* \"Pledage.sol\":8322:8338  uniswapV2Factory */\n      0x09\n        /* \"Pledage.sol\":8322:8383  uniswapV2Factory = 0xcA143Ce32Fe78f1f7019d7d551a6402fC5350c73 */\n      dup1\n      sload\n      dup3\n      and\n        /* \"Pledage.sol\":8341:8383  0xcA143Ce32Fe78f1f7019d7d551a6402fC5350c73 */\n      0xca143ce32fe78f1f7019d7d551a6402fc5350c73\n        /* \"Pledage.sol\":8322:8383  uniswapV2Factory = 0xcA143Ce32Fe78f1f7019d7d551a6402fC5350c73 */\n      or\n      swap1\n      sstore\n        /* \"Pledage.sol\":8393:8397  usdt */\n      0x07\n        /* \"Pledage.sol\":8393:8442  usdt = 0x55d398326f99059fF775485246999027B3197955 */\n      dup1\n      sload\n      dup3\n      and\n        /* \"Pledage.sol\":8400:8442  0x55d398326f99059fF775485246999027B3197955 */\n      0x55d398326f99059ff775485246999027b3197955\n        /* \"Pledage.sol\":8393:8442  usdt = 0x55d398326f99059fF775485246999027B3197955 */\n      or\n      swap1\n      sstore\n        /* \"Pledage.sol\":8452:8456  dead */\n      0x06\n        /* \"Pledage.sol\":8452:8501  dead = 0x000000000000000000000000000000000000dEaD */\n      dup1\n      sload\n      dup3\n      and\n        /* \"Pledage.sol\":8459:8501  0x000000000000000000000000000000000000dEaD */\n      0xdead\n        /* \"Pledage.sol\":8452:8501  dead = 0x000000000000000000000000000000000000dEaD */\n      or\n      swap1\n      sstore\n        /* \"Pledage.sol\":8511:8516  token */\n      0x04\n        /* \"Pledage.sol\":8511:8561  token = 0x33E0B24aaeA62500ca79D33e26EFe576BBf5baCF */\n      dup1\n      sload\n      dup3\n      and\n        /* \"Pledage.sol\":8519:8561  0x33E0B24aaeA62500ca79D33e26EFe576BBf5baCF */\n      0x33e0b24aaea62500ca79d33e26efe576bbf5bacf\n        /* \"Pledage.sol\":8511:8561  token = 0x33E0B24aaeA62500ca79D33e26EFe576BBf5baCF */\n      or\n      swap1\n      sstore\n      0x05\n        /* \"Pledage.sol\":8571:8587  permit = _permit */\n      dup1\n      sload\n      sub(shl(0xa0, 0x01), 0x01)\n      dup5\n      and\n      swap3\n      and\n      swap2\n      swap1\n      swap2\n      or\n      swap1\n      sstore\n        /* \"Pledage.sol\":8597:8621  _updateDomainSeparator() */\n      tag_251\n        /* \"Pledage.sol\":11097:11107  bytes(\"1\") */\n      0x40\n      dup1\n      mload\n      dup1\n      dup3\n      add\n      dup3\n      mstore\n      0x01\n      dup2\n      mstore\n      shl(0xf8, 0x31)\n      0x20\n      swap2\n      dup3\n      add\n      mstore\n        /* \"Pledage.sol\":10908:11184  abi.encode(... */\n      dup2\n      mload\n        /* \"Pledage.sol\":10936:11031  keccak256(\"EIP712Domain(string name,string version,uint256 chainId,address verifyingContract)\") */\n      0x8b73c3c69bb8fe3d512ecc4cf759cc79239f7b179b0ffacaa9a75d522b39400f\n        /* \"Pledage.sol\":10908:11184  abi.encode(... */\n      dup2\n      dup4\n      add\n        /* \"#utility.yul\":13876:13901   */\n      mstore\n        /* \"Pledage.sol\":11049:11069  keccak256(\"Pledage\") */\n      0xed9e26fc34b201817108d14db5e93fff6700cff6f5e90ac3b3da395aba756b5c\n        /* \"#utility.yul\":13917:13935   */\n      dup2\n      dup5\n      add\n        /* \"#utility.yul\":13910:13944   */\n      mstore\n        /* \"Pledage.sol\":11087:11108  keccak256(bytes(\"1\")) */\n      0xc89efdaa54c0f20c7adf612882df0950f5a951637e0307cdcb4c672f298b8bc6\n        /* \"#utility.yul\":13960:13978   */\n      0x60\n      dup3\n      add\n        /* \"#utility.yul\":13953:13987   */\n      mstore\n        /* \"Pledage.sol\":11126:11139  block.chainid */\n      chainid\n        /* \"#utility.yul\":14003:14021   */\n      0x80\n      dup3\n      add\n        /* \"#utility.yul\":13996:14030   */\n      mstore\n        /* \"Pledage.sol\":11165:11169  this */\n      address\n        /* \"#utility.yul\":14046:14065   */\n      0xa0\n      dup1\n      dup4\n      add\n        /* \"#utility.yul\":14039:14100   */\n      swap2\n      swap1\n      swap2\n      mstore\n        /* \"Pledage.sol\":10908:11184  abi.encode(... */\n      dup4\n      mload\n      dup1\n      dup4\n      sub\n      swap1\n      swap2\n      add\n      dup2\n      mstore\n        /* \"#utility.yul\":13848:13867   */\n      0xc0\n      swap1\n      swap2\n      add\n        /* \"Pledage.sol\":10908:11184  abi.encode(... */\n      swap1\n      swap3\n      mstore\n        /* \"Pledage.sol\":10885:11194  keccak256(... */\n      dup2\n      mload\n      swap2\n      add\n      keccak256\n        /* \"Pledage.sol\":10866:10882  DOMAIN_SEPARATOR */\n      0x0a\n        /* \"Pledage.sol\":10866:11194  DOMAIN_SEPARATOR = keccak256(... */\n      sstore\n        /* \"Pledage.sol\":10814:11201  function _updateDomainSeparator() private {... */\n      jump\n        /* \"Pledage.sol\":8597:8621  _updateDomainSeparator() */\n    tag_251:\n        /* \"Pledage.sol\":8184:8632  function initialize( address _permit) external onlyOwner(){... */\n      pop\n      jump\t// out\n        /* \"Pledage.sol\":6128:6515  function getReserves(address factory, address tokenA, address tokenB) internal view returns (uint reserveA, uint reserveB) {... */\n    tag_142:\n        /* \"Pledage.sol\":6221:6234  uint reserveA */\n      0x00\n        /* \"Pledage.sol\":6236:6249  uint reserveB */\n      dup1\n        /* \"Pledage.sol\":6262:6276  address token0 */\n      0x00\n        /* \"Pledage.sol\":6281:6307  sortTokens(tokenA, tokenB) */\n      tag_255\n        /* \"Pledage.sol\":6292:6298  tokenA */\n      dup6\n        /* \"Pledage.sol\":6300:6306  tokenB */\n      dup6\n        /* \"Pledage.sol\":6281:6291  sortTokens */\n      tag_256\n        /* \"Pledage.sol\":6281:6307  sortTokens(tokenA, tokenB) */\n      jump\t// in\n    tag_255:\n        /* \"Pledage.sol\":6261:6307  (address token0,) = sortTokens(tokenA, tokenB) */\n      pop\n      swap1\n      pop\n        /* \"Pledage.sol\":6318:6331  uint reserve0 */\n      0x00\n        /* \"Pledage.sol\":6333:6346  uint reserve1 */\n      dup1\n        /* \"Pledage.sol\":6366:6398  pairFor(factory, tokenA, tokenB) */\n      tag_257\n        /* \"Pledage.sol\":6374:6381  factory */\n      dup9\n        /* \"Pledage.sol\":6383:6389  tokenA */\n      dup9\n        /* \"Pledage.sol\":6391:6397  tokenB */\n      dup9\n        /* \"Pledage.sol\":6366:6373  pairFor */\n      tag_258\n        /* \"Pledage.sol\":6366:6398  pairFor(factory, tokenA, tokenB) */\n      jump\t// in\n    tag_257:\n      sub(shl(0xa0, 0x01), 0x01)\n        /* \"Pledage.sol\":6351:6411  IUniswapV2Pair(pairFor(factory, tokenA, tokenB)).getReserves */\n      and\n      0x0902f1ac\n        /* \"Pledage.sol\":6351:6413  IUniswapV2Pair(pairFor(factory, tokenA, tokenB)).getReserves() */\n      mload(0x40)\n      dup2\n      0xffffffff\n      and\n      0xe0\n      shl\n      dup2\n      mstore\n      0x04\n      add\n      0x60\n      mload(0x40)\n      dup1\n      dup4\n      sub\n      dup2\n      dup7\n      gas\n      staticcall\n      iszero\n      dup1\n      iszero\n      tag_260\n      jumpi\n      returndatasize\n      0x00\n      dup1\n      returndatacopy\n      revert(0x00, returndatasize)\n    tag_260:\n      pop\n      pop\n      pop\n      pop\n      mload(0x40)\n      returndatasize\n      not(0x1f)\n      0x1f\n      dup3\n      add\n      and\n      dup3\n      add\n      dup1\n      0x40\n      mstore\n      pop\n      dup2\n      add\n      swap1\n      tag_261\n      swap2\n      swap1\n      tag_262\n      jump\t// in\n    tag_261:\n        /* \"Pledage.sol\":6317:6413  (uint reserve0, uint reserve1,) = IUniswapV2Pair(pairFor(factory, tokenA, tokenB)).getReserves() */\n      pop\n      sub(shl(0x70, 0x01), 0x01)\n      and\n      swap2\n      pop\n      sub(shl(0x70, 0x01), 0x01)\n      and\n      swap2\n      pop\n        /* \"Pledage.sol\":6456:6462  token0 */\n      dup3\n      sub(shl(0xa0, 0x01), 0x01)\n        /* \"Pledage.sol\":6446:6462  tokenA == token0 */\n      and\n        /* \"Pledage.sol\":6446:6452  tokenA */\n      dup8\n      sub(shl(0xa0, 0x01), 0x01)\n        /* \"Pledage.sol\":6446:6462  tokenA == token0 */\n      and\n      eq\n        /* \"Pledage.sol\":6446:6508  tokenA == token0 ? (reserve0, reserve1) : (reserve1, reserve0) */\n      tag_263\n      jumpi\n        /* \"Pledage.sol\":6489:6497  reserve1 */\n      dup1\n        /* \"Pledage.sol\":6499:6507  reserve0 */\n      dup3\n        /* \"Pledage.sol\":6446:6508  tokenA == token0 ? (reserve0, reserve1) : (reserve1, reserve0) */\n      jump(tag_264)\n    tag_263:\n        /* \"Pledage.sol\":6466:6474  reserve0 */\n      dup2\n        /* \"Pledage.sol\":6476:6484  reserve1 */\n      dup2\n        /* \"Pledage.sol\":6446:6508  tokenA == token0 ? (reserve0, reserve1) : (reserve1, reserve0) */\n    tag_264:\n        /* \"Pledage.sol\":6423:6508  (reserveA, reserveB) = tokenA == token0 ? (reserve0, reserve1) : (reserve1, reserve0) */\n      swap1\n      swap10\n      swap1\n      swap9\n      pop\n        /* \"Pledage.sol\":6128:6515  function getReserves(address factory, address tokenA, address tokenB) internal view returns (uint reserveA, uint reserveB) {... */\n      swap7\n      pop\n      pop\n      pop\n      pop\n      pop\n      pop\n      pop\n      jump\t// out\n        /* \"Pledage.sol\":6521:7031  function getAmountOut(uint amountIn, uint reserveIn, uint reserveOut) internal pure returns (uint amountOut) {... */\n    tag_144:\n        /* \"Pledage.sol\":6614:6628  uint amountOut */\n      0x00\n        /* \"Pledage.sol\":6659:6660  0 */\n      dup1\n        /* \"Pledage.sol\":6648:6656  amountIn */\n      dup5\n        /* \"Pledage.sol\":6648:6660  amountIn > 0 */\n      gt\n        /* \"Pledage.sol\":6640:6708  require(amountIn > 0, 'UniswapV2Library: INSUFFICIENT_INPUT_AMOUNT') */\n      tag_266\n      jumpi\n      mload(0x40)\n      shl(0xe5, 0x461bcd)\n      dup2\n      mstore\n        /* \"#utility.yul\":9346:9348   */\n      0x20\n        /* \"Pledage.sol\":6640:6708  require(amountIn > 0, 'UniswapV2Library: INSUFFICIENT_INPUT_AMOUNT') */\n      0x04\n      dup3\n      add\n        /* \"#utility.yul\":9328:9349   */\n      mstore\n        /* \"#utility.yul\":9385:9387   */\n      0x2b\n        /* \"#utility.yul\":9365:9383   */\n      0x24\n      dup3\n      add\n        /* \"#utility.yul\":9358:9388   */\n      mstore\n        /* \"#utility.yul\":9424:9458   */\n      0x556e697377617056324c6962726172793a20494e53554646494349454e545f49\n        /* \"#utility.yul\":9404:9422   */\n      0x44\n      dup3\n      add\n        /* \"#utility.yul\":9397:9459   */\n      mstore\n      shl(0xaa, 0x1394155517d05353d55395)\n        /* \"#utility.yul\":9475:9493   */\n      0x64\n      dup3\n      add\n        /* \"#utility.yul\":9468:9509   */\n      mstore\n        /* \"#utility.yul\":9526:9545   */\n      0x84\n      add\n        /* \"Pledage.sol\":6640:6708  require(amountIn > 0, 'UniswapV2Library: INSUFFICIENT_INPUT_AMOUNT') */\n      tag_147\n        /* \"#utility.yul\":9144:9551   */\n      jump\n        /* \"Pledage.sol\":6640:6708  require(amountIn > 0, 'UniswapV2Library: INSUFFICIENT_INPUT_AMOUNT') */\n    tag_266:\n        /* \"Pledage.sol\":6738:6739  0 */\n      0x00\n        /* \"Pledage.sol\":6726:6735  reserveIn */\n      dup4\n        /* \"Pledage.sol\":6726:6739  reserveIn > 0 */\n      gt\n        /* \"Pledage.sol\":6726:6757  reserveIn > 0 && reserveOut > 0 */\n      dup1\n      iszero\n      tag_269\n      jumpi\n      pop\n        /* \"Pledage.sol\":6756:6757  0 */\n      0x00\n        /* \"Pledage.sol\":6743:6753  reserveOut */\n      dup3\n        /* \"Pledage.sol\":6743:6757  reserveOut > 0 */\n      gt\n        /* \"Pledage.sol\":6726:6757  reserveIn > 0 && reserveOut > 0 */\n    tag_269:\n        /* \"Pledage.sol\":6718:6802  require(reserveIn > 0 && reserveOut > 0, 'UniswapV2Library: INSUFFICIENT_LIQUIDITY') */\n      tag_270\n      jumpi\n      mload(0x40)\n      shl(0xe5, 0x461bcd)\n      dup2\n      mstore\n        /* \"#utility.yul\":9758:9760   */\n      0x20\n        /* \"Pledage.sol\":6718:6802  require(reserveIn > 0 && reserveOut > 0, 'UniswapV2Library: INSUFFICIENT_LIQUIDITY') */\n      0x04\n      dup3\n      add\n        /* \"#utility.yul\":9740:9761   */\n      mstore\n        /* \"#utility.yul\":9797:9799   */\n      0x28\n        /* \"#utility.yul\":9777:9795   */\n      0x24\n      dup3\n      add\n        /* \"#utility.yul\":9770:9800   */\n      mstore\n        /* \"#utility.yul\":9836:9870   */\n      0x556e697377617056324c6962726172793a20494e53554646494349454e545f4c\n        /* \"#utility.yul\":9816:9834   */\n      0x44\n      dup3\n      add\n        /* \"#utility.yul\":9809:9871   */\n      mstore\n      shl(0xc0, 0x4951554944495459)\n        /* \"#utility.yul\":9887:9905   */\n      0x64\n      dup3\n      add\n        /* \"#utility.yul\":9880:9918   */\n      mstore\n        /* \"#utility.yul\":9935:9954   */\n      0x84\n      add\n        /* \"Pledage.sol\":6718:6802  require(reserveIn > 0 && reserveOut > 0, 'UniswapV2Library: INSUFFICIENT_LIQUIDITY') */\n      tag_147\n        /* \"#utility.yul\":9556:9960   */\n      jump\n        /* \"Pledage.sol\":6718:6802  require(reserveIn > 0 && reserveOut > 0, 'UniswapV2Library: INSUFFICIENT_LIQUIDITY') */\n    tag_270:\n        /* \"Pledage.sol\":6812:6832  uint amountInWithFee */\n      0x00\n        /* \"Pledage.sol\":6835:6852  amountIn.mul(997) */\n      tag_273\n        /* \"Pledage.sol\":6835:6843  amountIn */\n      dup6\n        /* \"Pledage.sol\":6848:6851  997 */\n      0x03e5\n        /* \"Pledage.sol\":6835:6847  amountIn.mul */\n      tag_274\n        /* \"Pledage.sol\":6835:6852  amountIn.mul(997) */\n      jump\t// in\n    tag_273:\n        /* \"Pledage.sol\":6812:6852  uint amountInWithFee = amountIn.mul(997) */\n      swap1\n      pop\n        /* \"Pledage.sol\":6862:6876  uint numerator */\n      0x00\n        /* \"Pledage.sol\":6879:6910  amountInWithFee.mul(reserveOut) */\n      tag_275\n        /* \"Pledage.sol\":6812:6852  uint amountInWithFee = amountIn.mul(997) */\n      dup3\n        /* \"Pledage.sol\":6899:6909  reserveOut */\n      dup6\n        /* \"Pledage.sol\":6879:6898  amountInWithFee.mul */\n      tag_274\n        /* \"Pledage.sol\":6879:6910  amountInWithFee.mul(reserveOut) */\n      jump\t// in\n    tag_275:\n        /* \"Pledage.sol\":6862:6910  uint numerator = amountInWithFee.mul(reserveOut) */\n      swap1\n      pop\n        /* \"Pledage.sol\":6920:6936  uint denominator */\n      0x00\n        /* \"Pledage.sol\":6939:6979  reserveIn.mul(1000).add(amountInWithFee) */\n      tag_276\n        /* \"Pledage.sol\":6963:6978  amountInWithFee */\n      dup4\n        /* \"Pledage.sol\":6939:6958  reserveIn.mul(1000) */\n      tag_277\n        /* \"Pledage.sol\":6939:6948  reserveIn */\n      dup9\n        /* \"Pledage.sol\":6953:6957  1000 */\n      0x03e8\n        /* \"Pledage.sol\":6939:6952  reserveIn.mul */\n      tag_274\n        /* \"Pledage.sol\":6939:6958  reserveIn.mul(1000) */\n      jump\t// in\n    tag_277:\n        /* \"Pledage.sol\":6939:6962  reserveIn.mul(1000).add */\n      swap1\n      tag_278\n        /* \"Pledage.sol\":6939:6979  reserveIn.mul(1000).add(amountInWithFee) */\n      jump\t// in\n    tag_276:\n        /* \"Pledage.sol\":6920:6979  uint denominator = reserveIn.mul(1000).add(amountInWithFee) */\n      swap1\n      pop\n        /* \"Pledage.sol\":7001:7024  numerator / denominator */\n      tag_279\n        /* \"Pledage.sol\":6920:6979  uint denominator = reserveIn.mul(1000).add(amountInWithFee) */\n      dup2\n        /* \"Pledage.sol\":7001:7010  numerator */\n      dup4\n        /* \"Pledage.sol\":7001:7024  numerator / denominator */\n      tag_186\n      jump\t// in\n    tag_279:\n        /* \"Pledage.sol\":6989:7024  amountOut = numerator / denominator */\n      swap8\n        /* \"Pledage.sol\":6521:7031  function getAmountOut(uint amountIn, uint reserveIn, uint reserveOut) internal pure returns (uint amountOut) {... */\n      swap7\n      pop\n      pop\n      pop\n      pop\n      pop\n      pop\n      pop\n      jump\t// out\n        /* \"Pledage.sol\":3797:4088  function safeTransfer(address token, address to, uint value) internal {... */\n    tag_187:\n        /* \"Pledage.sol\":3924:3969  abi.encodeWithSelector(0xa9059cbb, to, value) */\n      0x40\n      dup1\n      mload\n      sub(shl(0xa0, 0x01), 0x01)\n        /* \"#utility.yul\":10157:10189   */\n      dup5\n      dup2\n      and\n        /* \"Pledage.sol\":3924:3969  abi.encodeWithSelector(0xa9059cbb, to, value) */\n      0x24\n      dup4\n      add\n        /* \"#utility.yul\":10139:10190   */\n      mstore\n        /* \"#utility.yul\":10206:10224   */\n      0x44\n      dup1\n      dup4\n      add\n        /* \"#utility.yul\":10199:10233   */\n      dup6\n      swap1\n      mstore\n        /* \"Pledage.sol\":3924:3969  abi.encodeWithSelector(0xa9059cbb, to, value) */\n      dup4\n      mload\n      dup1\n      dup5\n      sub\n      swap1\n      swap2\n      add\n      dup2\n      mstore\n        /* \"#utility.yul\":10112:10130   */\n      0x64\n      swap1\n      swap3\n      add\n        /* \"Pledage.sol\":3924:3969  abi.encodeWithSelector(0xa9059cbb, to, value) */\n      dup4\n      mstore\n      0x20\n      dup3\n      add\n      dup1\n      mload\n      sub(shl(0xe0, 0x01), 0x01)\n      and\n      shl(0xe0, 0xa9059cbb)\n      or\n      swap1\n      mstore\n        /* \"Pledage.sol\":3913:3970  token.call(abi.encodeWithSelector(0xa9059cbb, to, value)) */\n      swap2\n      mload\n      0x00\n      swap3\n      dup4\n      swap3\n        /* \"Pledage.sol\":3913:3923  token.call */\n      swap1\n      dup8\n      and\n      swap2\n        /* \"Pledage.sol\":3913:3970  token.call(abi.encodeWithSelector(0xa9059cbb, to, value)) */\n      tag_283\n      swap2\n        /* \"Pledage.sol\":3924:3969  abi.encodeWithSelector(0xa9059cbb, to, value) */\n      swap1\n        /* \"Pledage.sol\":3913:3970  token.call(abi.encodeWithSelector(0xa9059cbb, to, value)) */\n      tag_284\n      jump\t// in\n    tag_283:\n      0x00\n      mload(0x40)\n      dup1\n      dup4\n      sub\n      dup2\n      0x00\n      dup7\n      gas\n      call\n      swap2\n      pop\n      pop\n      returndatasize\n      dup1\n      0x00\n      dup2\n      eq\n      tag_287\n      jumpi\n      mload(0x40)\n      swap2\n      pop\n      and(add(returndatasize, 0x3f), not(0x1f))\n      dup3\n      add\n      0x40\n      mstore\n      returndatasize\n      dup3\n      mstore\n      returndatasize\n      0x00\n      0x20\n      dup5\n      add\n      returndatacopy\n      jump(tag_286)\n    tag_287:\n      0x60\n      swap2\n      pop\n    tag_286:\n      pop\n        /* \"Pledage.sol\":3877:3970  (bool success, bytes memory data) = token.call(abi.encodeWithSelector(0xa9059cbb, to, value)) */\n      swap2\n      pop\n      swap2\n      pop\n        /* \"Pledage.sol\":3988:3995  success */\n      dup2\n        /* \"Pledage.sol\":3988:4045  success && (data.length == 0 || abi.decode(data, (bool))) */\n      dup1\n      iszero\n      tag_290\n      jumpi\n      pop\n        /* \"Pledage.sol\":4000:4011  data.length */\n      dup1\n      mload\n        /* \"Pledage.sol\":4000:4016  data.length == 0 */\n      iszero\n      dup1\n        /* \"Pledage.sol\":4000:4044  data.length == 0 || abi.decode(data, (bool)) */\n      tag_290\n      jumpi\n      pop\n        /* \"Pledage.sol\":4031:4035  data */\n      dup1\n        /* \"Pledage.sol\":4020:4044  abi.decode(data, (bool)) */\n      dup1\n      0x20\n      add\n      swap1\n      mload\n      dup2\n      add\n      swap1\n      tag_290\n      swap2\n      swap1\n      tag_291\n      jump\t// in\n    tag_290:\n        /* \"Pledage.sol\":3980:4081  require(success && (data.length == 0 || abi.decode(data, (bool))), 'TransferHelper: TRANSFER_FAILED') */\n      tag_292\n      jumpi\n      mload(0x40)\n      shl(0xe5, 0x461bcd)\n      dup2\n      mstore\n        /* \"#utility.yul\":11145:11147   */\n      0x20\n        /* \"Pledage.sol\":3980:4081  require(success && (data.length == 0 || abi.decode(data, (bool))), 'TransferHelper: TRANSFER_FAILED') */\n      0x04\n      dup3\n      add\n        /* \"#utility.yul\":11127:11148   */\n      mstore\n        /* \"#utility.yul\":11184:11186   */\n      0x1f\n        /* \"#utility.yul\":11164:11182   */\n      0x24\n      dup3\n      add\n        /* \"#utility.yul\":11157:11187   */\n      mstore\n        /* \"#utility.yul\":11223:11256   */\n      0x5472616e7366657248656c7065723a205452414e534645525f4641494c454400\n        /* \"#utility.yul\":11203:11221   */\n      0x44\n      dup3\n      add\n        /* \"#utility.yul\":11196:11257   */\n      mstore\n        /* \"#utility.yul\":11274:11292   */\n      0x64\n      add\n        /* \"Pledage.sol\":3980:4081  require(success && (data.length == 0 || abi.decode(data, (bool))), 'TransferHelper: TRANSFER_FAILED') */\n      tag_147\n        /* \"#utility.yul\":10943:11298   */\n      jump\n        /* \"Pledage.sol\":3980:4081  require(success && (data.length == 0 || abi.decode(data, (bool))), 'TransferHelper: TRANSFER_FAILED') */\n    tag_292:\n        /* \"Pledage.sol\":3867:4088  {... */\n      pop\n      pop\n        /* \"Pledage.sol\":3797:4088  function safeTransfer(address token, address to, uint value) internal {... */\n      pop\n      pop\n      pop\n      jump\t// out\n        /* \"Pledage.sol\":4420:4612  function safeTransferETH(address to, uint value) internal {... */\n    tag_199:\n        /* \"Pledage.sol\":4527:4539  new bytes(0) */\n      0x40\n      dup1\n      mload\n        /* \"Pledage.sol\":4489:4501  bool success */\n      0x00\n        /* \"Pledage.sol\":4527:4539  new bytes(0) */\n      dup1\n      dup3\n      mstore\n      0x20\n      dup3\n      add\n      swap1\n      swap3\n      mstore\n      sub(shl(0xa0, 0x01), 0x01)\n        /* \"Pledage.sol\":4506:4513  to.call */\n      dup5\n      and\n      swap1\n        /* \"Pledage.sol\":4520:4525  value */\n      dup4\n      swap1\n        /* \"Pledage.sol\":4506:4540  to.call{value:value}(new bytes(0)) */\n      mload(0x40)\n      tag_300\n      swap2\n      swap1\n      tag_284\n      jump\t// in\n    tag_300:\n      0x00\n      mload(0x40)\n      dup1\n      dup4\n      sub\n      dup2\n      dup6\n      dup8\n      gas\n      call\n      swap3\n      pop\n      pop\n      pop\n      returndatasize\n      dup1\n      0x00\n      dup2\n      eq\n      tag_303\n      jumpi\n      mload(0x40)\n      swap2\n      pop\n      and(add(returndatasize, 0x3f), not(0x1f))\n      dup3\n      add\n      0x40\n      mstore\n      returndatasize\n      dup3\n      mstore\n      returndatasize\n      0x00\n      0x20\n      dup5\n      add\n      returndatacopy\n      jump(tag_302)\n    tag_303:\n      0x60\n      swap2\n      pop\n    tag_302:\n      pop\n        /* \"Pledage.sol\":4488:4540  (bool success,) = to.call{value:value}(new bytes(0)) */\n      pop\n      swap1\n      pop\n        /* \"Pledage.sol\":4558:4565  success */\n      dup1\n        /* \"Pledage.sol\":4550:4605  require(success, 'TransferHelper: ETH_TRANSFER_FAILED') */\n      tag_304\n      jumpi\n      mload(0x40)\n      shl(0xe5, 0x461bcd)\n      dup2\n      mstore\n        /* \"#utility.yul\":11637:11639   */\n      0x20\n        /* \"Pledage.sol\":4550:4605  require(success, 'TransferHelper: ETH_TRANSFER_FAILED') */\n      0x04\n      dup3\n      add\n        /* \"#utility.yul\":11619:11640   */\n      mstore\n        /* \"#utility.yul\":11676:11678   */\n      0x23\n        /* \"#utility.yul\":11656:11674   */\n      0x24\n      dup3\n      add\n        /* \"#utility.yul\":11649:11679   */\n      mstore\n        /* \"#utility.yul\":11715:11749   */\n      0x5472616e7366657248656c7065723a204554485f5452414e534645525f464149\n        /* \"#utility.yul\":11695:11713   */\n      0x44\n      dup3\n      add\n        /* \"#utility.yul\":11688:11750   */\n      mstore\n      shl(0xea, 0x131151)\n        /* \"#utility.yul\":11766:11784   */\n      0x64\n      dup3\n      add\n        /* \"#utility.yul\":11759:11792   */\n      mstore\n        /* \"#utility.yul\":11809:11828   */\n      0x84\n      add\n        /* \"Pledage.sol\":4550:4605  require(success, 'TransferHelper: ETH_TRANSFER_FAILED') */\n      tag_147\n        /* \"#utility.yul\":11435:11834   */\n      jump\n        /* \"Pledage.sol\":4550:4605  require(success, 'TransferHelper: ETH_TRANSFER_FAILED') */\n    tag_304:\n        /* \"Pledage.sol\":4478:4612  {... */\n      pop\n        /* \"Pledage.sol\":4420:4612  function safeTransferETH(address to, uint value) internal {... */\n      pop\n      pop\n      jump\t// out\n        /* \"Pledage.sol\":2400:2831  function getContentHash(Content calldata content)... */\n    tag_208:\n        /* \"Pledage.sol\":2497:2504  bytes32 */\n      0x00\n        /* \"Pledage.sol\":2079:2145  0xb5f106453e92c83f8ef471e09a8097b99888030beb671302e7c318e4d198c6e3 */\n      0xb5f106453e92c83f8ef471e09a8097b99888030beb671302e7c318e4d198c6e3\n        /* \"Pledage.sol\":2632:2645  content.token */\n      tag_308\n      0x20\n      dup5\n      add\n        /* \"Pledage.sol\":2632:2639  content */\n      dup5\n        /* \"Pledage.sol\":2632:2645  content.token */\n      tag_39\n      jump\t// in\n    tag_308:\n        /* \"Pledage.sol\":2667:2681  content.holder */\n      tag_309\n      0x40\n      dup6\n      add\n      0x20\n      dup7\n      add\n      tag_39\n      jump\t// in\n    tag_309:\n        /* \"Pledage.sol\":2703:2717  content.amount */\n      0x40\n        /* \"Pledage.sol\":2566:2810  abi.encode(... */\n      dup1\n      mload\n      0x20\n      dup2\n      add\n        /* \"#utility.yul\":12126:12151   */\n      swap5\n      swap1\n      swap5\n      mstore\n      sub(shl(0xa0, 0x01), 0x01)\n        /* \"#utility.yul\":12225:12240   */\n      swap3\n      dup4\n      and\n        /* \"#utility.yul\":12205:12223   */\n      dup5\n      dup3\n      add\n        /* \"#utility.yul\":12198:12241   */\n      mstore\n        /* \"#utility.yul\":12277:12292   */\n      swap2\n      and\n        /* \"Pledage.sol\":2739:2754  content.orderId */\n      0x60\n        /* \"#utility.yul\":12257:12275   */\n      dup4\n      dup2\n      add\n        /* \"#utility.yul\":12250:12293   */\n      swap2\n      swap1\n      swap2\n      mstore\n        /* \"Pledage.sol\":2703:2717  content.amount */\n      swap1\n      dup5\n      add\n      calldataload\n        /* \"Pledage.sol\":2776:2792  content.deadline */\n      0x80\n        /* \"#utility.yul\":12309:12327   */\n      dup4\n      dup2\n      add\n        /* \"#utility.yul\":12302:12336   */\n      swap2\n      swap1\n      swap2\n      mstore\n        /* \"Pledage.sol\":2739:2754  content.orderId */\n      swap1\n      dup5\n      add\n      calldataload\n        /* \"#utility.yul\":12352:12371   */\n      0xa0\n      dup4\n      add\n        /* \"#utility.yul\":12345:12380   */\n      mstore\n        /* \"Pledage.sol\":2776:2792  content.deadline */\n      dup4\n      add\n      calldataload\n        /* \"#utility.yul\":12396:12415   */\n      0xc0\n      dup3\n      add\n        /* \"#utility.yul\":12389:12424   */\n      mstore\n        /* \"#utility.yul\":12098:12117   */\n      0xe0\n      add\n        /* \"Pledage.sol\":2566:2810  abi.encode(... */\n      mload(0x40)\n      0x20\n      dup2\n      dup4\n      sub\n      sub\n      dup2\n      mstore\n      swap1\n      0x40\n      mstore\n        /* \"Pledage.sol\":2539:2824  keccak256(... */\n      dup1\n      mload\n      swap1\n      0x20\n      add\n      keccak256\n        /* \"Pledage.sol\":2520:2824  return... */\n      swap1\n      pop\n        /* \"Pledage.sol\":2400:2831  function getContentHash(Content calldata content)... */\n      swap2\n      swap1\n      pop\n      jump\t// out\n        /* \"Pledage.sol\":3410:3764  function verify(... */\n    tag_211:\n        /* \"Pledage.sol\":3645:3696  abi.encodePacked(\"\\x19\\x01\", domainSeparator, hash) */\n      mload(0x40)\n      shl(0xf0, 0x1901)\n      0x20\n      dup3\n      add\n        /* \"#utility.yul\":12693:12720   */\n      mstore\n        /* \"#utility.yul\":12736:12747   */\n      0x22\n      dup2\n      add\n        /* \"#utility.yul\":12729:12756   */\n      dup3\n      swap1\n      mstore\n        /* \"#utility.yul\":12772:12784   */\n      0x42\n      dup2\n      add\n        /* \"#utility.yul\":12765:12793   */\n      dup8\n      swap1\n      mstore\n        /* \"Pledage.sol\":3589:3593  bool */\n      0x00\n      swap1\n      dup2\n      swap1\n        /* \"#utility.yul\":12809:12821   */\n      0x62\n      add\n        /* \"Pledage.sol\":3645:3696  abi.encodePacked(\"\\x19\\x01\", domainSeparator, hash) */\n      mload(0x40)\n      0x20\n      dup2\n      dup4\n      sub\n      sub\n      dup2\n      mstore\n      swap1\n      0x40\n      mstore\n        /* \"Pledage.sol\":3622:3706  keccak256(... */\n      dup1\n      mload\n      swap1\n      0x20\n      add\n      keccak256\n        /* \"Pledage.sol\":3605:3706  bytes32 digest = keccak256(... */\n      swap1\n      pop\n        /* \"Pledage.sol\":3751:3757  signer */\n      dup7\n      sub(shl(0xa0, 0x01), 0x01)\n        /* \"Pledage.sol\":3723:3757  recover(digest, v, r, s) == signer */\n      and\n        /* \"Pledage.sol\":3723:3747  recover(digest, v, r, s) */\n      tag_315\n        /* \"Pledage.sol\":3731:3737  digest */\n      dup3\n        /* \"Pledage.sol\":3739:3740  v */\n      dup9\n        /* \"Pledage.sol\":3742:3743  r */\n      dup9\n        /* \"Pledage.sol\":3745:3746  s */\n      dup9\n        /* \"Pledage.sol\":3723:3730  recover */\n      tag_316\n        /* \"Pledage.sol\":3723:3747  recover(digest, v, r, s) */\n      jump\t// in\n    tag_315:\n      sub(shl(0xa0, 0x01), 0x01)\n        /* \"Pledage.sol\":3723:3757  recover(digest, v, r, s) == signer */\n      and\n      eq\n      swap9\n        /* \"Pledage.sol\":3410:3764  function verify(... */\n      swap8\n      pop\n      pop\n      pop\n      pop\n      pop\n      pop\n      pop\n      pop\n      jump\t// out\n        /* \"Pledage.sol\":4094:4414  function safeTransferFrom(address token, address from, address to, uint value) internal {... */\n    tag_239:\n        /* \"Pledage.sol\":4239:4290  abi.encodeWithSelector(0x23b872dd, from, to, value) */\n      0x40\n      dup1\n      mload\n      sub(shl(0xa0, 0x01), 0x01)\n        /* \"#utility.yul\":13090:13105   */\n      dup6\n      dup2\n      and\n        /* \"Pledage.sol\":4239:4290  abi.encodeWithSelector(0x23b872dd, from, to, value) */\n      0x24\n      dup4\n      add\n        /* \"#utility.yul\":13072:13106   */\n      mstore\n        /* \"#utility.yul\":13142:13157   */\n      dup5\n      dup2\n      and\n        /* \"#utility.yul\":13122:13140   */\n      0x44\n      dup4\n      add\n        /* \"#utility.yul\":13115:13158   */\n      mstore\n        /* \"#utility.yul\":13174:13192   */\n      0x64\n      dup1\n      dup4\n      add\n        /* \"#utility.yul\":13167:13201   */\n      dup6\n      swap1\n      mstore\n        /* \"Pledage.sol\":4239:4290  abi.encodeWithSelector(0x23b872dd, from, to, value) */\n      dup4\n      mload\n      dup1\n      dup5\n      sub\n      swap1\n      swap2\n      add\n      dup2\n      mstore\n        /* \"#utility.yul\":13007:13025   */\n      0x84\n      swap1\n      swap3\n      add\n        /* \"Pledage.sol\":4239:4290  abi.encodeWithSelector(0x23b872dd, from, to, value) */\n      dup4\n      mstore\n      0x20\n      dup3\n      add\n      dup1\n      mload\n      sub(shl(0xe0, 0x01), 0x01)\n      and\n      shl(0xe0, 0x23b872dd)\n      or\n      swap1\n      mstore\n        /* \"Pledage.sol\":4228:4291  token.call(abi.encodeWithSelector(0x23b872dd, from, to, value)) */\n      swap2\n      mload\n      0x00\n      swap3\n      dup4\n      swap3\n        /* \"Pledage.sol\":4228:4238  token.call */\n      swap1\n      dup9\n      and\n      swap2\n        /* \"Pledage.sol\":4228:4291  token.call(abi.encodeWithSelector(0x23b872dd, from, to, value)) */\n      tag_320\n      swap2\n        /* \"Pledage.sol\":4239:4290  abi.encodeWithSelector(0x23b872dd, from, to, value) */\n      swap1\n        /* \"Pledage.sol\":4228:4291  token.call(abi.encodeWithSelector(0x23b872dd, from, to, value)) */\n      tag_284\n      jump\t// in\n    tag_320:\n      0x00\n      mload(0x40)\n      dup1\n      dup4\n      sub\n      dup2\n      0x00\n      dup7\n      gas\n      call\n      swap2\n      pop\n      pop\n      returndatasize\n      dup1\n      0x00\n      dup2\n      eq\n      tag_323\n      jumpi\n      mload(0x40)\n      swap2\n      pop\n      and(add(returndatasize, 0x3f), not(0x1f))\n      dup3\n      add\n      0x40\n      mstore\n      returndatasize\n      dup3\n      mstore\n      returndatasize\n      0x00\n      0x20\n      dup5\n      add\n      returndatacopy\n      jump(tag_322)\n    tag_323:\n      0x60\n      swap2\n      pop\n    tag_322:\n      pop\n        /* \"Pledage.sol\":4192:4291  (bool success, bytes memory data) = token.call(abi.encodeWithSelector(0x23b872dd, from, to, value)) */\n      swap2\n      pop\n      swap2\n      pop\n        /* \"Pledage.sol\":4309:4316  success */\n      dup2\n        /* \"Pledage.sol\":4309:4366  success && (data.length == 0 || abi.decode(data, (bool))) */\n      dup1\n      iszero\n      tag_326\n      jumpi\n      pop\n        /* \"Pledage.sol\":4321:4332  data.length */\n      dup1\n      mload\n        /* \"Pledage.sol\":4321:4337  data.length == 0 */\n      iszero\n      dup1\n        /* \"Pledage.sol\":4321:4365  data.length == 0 || abi.decode(data, (bool)) */\n      tag_326\n      jumpi\n      pop\n        /* \"Pledage.sol\":4352:4356  data */\n      dup1\n        /* \"Pledage.sol\":4341:4365  abi.decode(data, (bool)) */\n      dup1\n      0x20\n      add\n      swap1\n      mload\n      dup2\n      add\n      swap1\n      tag_326\n      swap2\n      swap1\n      tag_291\n      jump\t// in\n    tag_326:\n        /* \"Pledage.sol\":4301:4407  require(success && (data.length == 0 || abi.decode(data, (bool))), 'TransferHelper: TRANSFER_FROM_FAILED') */\n      tag_327\n      jumpi\n      mload(0x40)\n      shl(0xe5, 0x461bcd)\n      dup2\n      mstore\n        /* \"#utility.yul\":13414:13416   */\n      0x20\n        /* \"Pledage.sol\":4301:4407  require(success && (data.length == 0 || abi.decode(data, (bool))), 'TransferHelper: TRANSFER_FROM_FAILED') */\n      0x04\n      dup3\n      add\n        /* \"#utility.yul\":13396:13417   */\n      mstore\n        /* \"#utility.yul\":13453:13455   */\n      0x24\n        /* \"#utility.yul\":13433:13451   */\n      dup1\n      dup3\n      add\n        /* \"#utility.yul\":13426:13456   */\n      mstore\n        /* \"#utility.yul\":13492:13526   */\n      0x5472616e7366657248656c7065723a205452414e534645525f46524f4d5f4641\n        /* \"#utility.yul\":13472:13490   */\n      0x44\n      dup3\n      add\n        /* \"#utility.yul\":13465:13527   */\n      mstore\n      shl(0xe2, 0x12531151)\n        /* \"#utility.yul\":13543:13561   */\n      0x64\n      dup3\n      add\n        /* \"#utility.yul\":13536:13570   */\n      mstore\n        /* \"#utility.yul\":13587:13606   */\n      0x84\n      add\n        /* \"Pledage.sol\":4301:4407  require(success && (data.length == 0 || abi.decode(data, (bool))), 'TransferHelper: TRANSFER_FROM_FAILED') */\n      tag_147\n        /* \"#utility.yul\":13212:13612   */\n      jump\n        /* \"Pledage.sol\":4301:4407  require(success && (data.length == 0 || abi.decode(data, (bool))), 'TransferHelper: TRANSFER_FROM_FAILED') */\n    tag_327:\n        /* \"Pledage.sol\":4182:4414  {... */\n      pop\n      pop\n        /* \"Pledage.sol\":4094:4414  function safeTransferFrom(address token, address from, address to, uint value) internal {... */\n      pop\n      pop\n      pop\n      pop\n      jump\t// out\n        /* \"Pledage.sol\":5209:5554  function sortTokens(address tokenA, address tokenB) internal pure returns (address token0, address token1) {... */\n    tag_256:\n        /* \"Pledage.sol\":5284:5298  address token0 */\n      0x00\n        /* \"Pledage.sol\":5300:5314  address token1 */\n      dup1\n        /* \"Pledage.sol\":5344:5350  tokenB */\n      dup3\n      sub(shl(0xa0, 0x01), 0x01)\n        /* \"Pledage.sol\":5334:5350  tokenA != tokenB */\n      and\n        /* \"Pledage.sol\":5334:5340  tokenA */\n      dup5\n      sub(shl(0xa0, 0x01), 0x01)\n        /* \"Pledage.sol\":5334:5350  tokenA != tokenB */\n      and\n      sub\n        /* \"Pledage.sol\":5326:5392  require(tokenA != tokenB, 'UniswapV2Library: IDENTICAL_ADDRESSES') */\n      tag_334\n      jumpi\n      mload(0x40)\n      shl(0xe5, 0x461bcd)\n      dup2\n      mstore\n        /* \"#utility.yul\":14313:14315   */\n      0x20\n        /* \"Pledage.sol\":5326:5392  require(tokenA != tokenB, 'UniswapV2Library: IDENTICAL_ADDRESSES') */\n      0x04\n      dup3\n      add\n        /* \"#utility.yul\":14295:14316   */\n      mstore\n        /* \"#utility.yul\":14352:14354   */\n      0x25\n        /* \"#utility.yul\":14332:14350   */\n      0x24\n      dup3\n      add\n        /* \"#utility.yul\":14325:14355   */\n      mstore\n        /* \"#utility.yul\":14391:14425   */\n      0x556e697377617056324c6962726172793a204944454e544943414c5f41444452\n        /* \"#utility.yul\":14371:14389   */\n      0x44\n      dup3\n      add\n        /* \"#utility.yul\":14364:14426   */\n      mstore\n      shl(0xd8, 0x4553534553)\n        /* \"#utility.yul\":14442:14460   */\n      0x64\n      dup3\n      add\n        /* \"#utility.yul\":14435:14470   */\n      mstore\n        /* \"#utility.yul\":14487:14506   */\n      0x84\n      add\n        /* \"Pledage.sol\":5326:5392  require(tokenA != tokenB, 'UniswapV2Library: IDENTICAL_ADDRESSES') */\n      tag_147\n        /* \"#utility.yul\":14111:14512   */\n      jump\n        /* \"Pledage.sol\":5326:5392  require(tokenA != tokenB, 'UniswapV2Library: IDENTICAL_ADDRESSES') */\n    tag_334:\n        /* \"Pledage.sol\":5430:5436  tokenB */\n      dup3\n      sub(shl(0xa0, 0x01), 0x01)\n        /* \"Pledage.sol\":5421:5436  tokenA < tokenB */\n      and\n        /* \"Pledage.sol\":5421:5427  tokenA */\n      dup5\n      sub(shl(0xa0, 0x01), 0x01)\n        /* \"Pledage.sol\":5421:5436  tokenA < tokenB */\n      and\n      lt\n        /* \"Pledage.sol\":5421:5474  tokenA < tokenB ? (tokenA, tokenB) : (tokenB, tokenA) */\n      tag_337\n      jumpi\n        /* \"Pledage.sol\":5459:5465  tokenB */\n      dup3\n        /* \"Pledage.sol\":5467:5473  tokenA */\n      dup5\n        /* \"Pledage.sol\":5421:5474  tokenA < tokenB ? (tokenA, tokenB) : (tokenB, tokenA) */\n      jump(tag_338)\n    tag_337:\n        /* \"Pledage.sol\":5440:5446  tokenA */\n      dup4\n        /* \"Pledage.sol\":5448:5454  tokenB */\n      dup4\n        /* \"Pledage.sol\":5421:5474  tokenA < tokenB ? (tokenA, tokenB) : (tokenB, tokenA) */\n    tag_338:\n        /* \"Pledage.sol\":5402:5474  (token0, token1) = tokenA < tokenB ? (tokenA, tokenB) : (tokenB, tokenA) */\n      swap1\n      swap3\n      pop\n      swap1\n      pop\n      sub(shl(0xa0, 0x01), 0x01)\n        /* \"Pledage.sol\":5492:5512  token0 != address(0) */\n      dup3\n      and\n        /* \"Pledage.sol\":5484:5547  require(token0 != address(0), 'UniswapV2Library: ZERO_ADDRESS') */\n      tag_339\n      jumpi\n      mload(0x40)\n      shl(0xe5, 0x461bcd)\n      dup2\n      mstore\n        /* \"#utility.yul\":14719:14721   */\n      0x20\n        /* \"Pledage.sol\":5484:5547  require(token0 != address(0), 'UniswapV2Library: ZERO_ADDRESS') */\n      0x04\n      dup3\n      add\n        /* \"#utility.yul\":14701:14722   */\n      mstore\n        /* \"#utility.yul\":14758:14760   */\n      0x1e\n        /* \"#utility.yul\":14738:14756   */\n      0x24\n      dup3\n      add\n        /* \"#utility.yul\":14731:14761   */\n      mstore\n        /* \"#utility.yul\":14797:14829   */\n      0x556e697377617056324c6962726172793a205a45524f5f414444524553530000\n        /* \"#utility.yul\":14777:14795   */\n      0x44\n      dup3\n      add\n        /* \"#utility.yul\":14770:14830   */\n      mstore\n        /* \"#utility.yul\":14847:14865   */\n      0x64\n      add\n        /* \"Pledage.sol\":5484:5547  require(token0 != address(0), 'UniswapV2Library: ZERO_ADDRESS') */\n      tag_147\n        /* \"#utility.yul\":14517:14871   */\n      jump\n        /* \"Pledage.sol\":5484:5547  require(token0 != address(0), 'UniswapV2Library: ZERO_ADDRESS') */\n    tag_339:\n        /* \"Pledage.sol\":5209:5554  function sortTokens(address tokenA, address tokenB) internal pure returns (address token0, address token1) {... */\n      swap3\n      pop\n      swap3\n      swap1\n      pop\n      jump\t// out\n        /* \"Pledage.sol\":5643:6122  function pairFor(address factory, address tokenA, address tokenB) internal pure returns (address pair) {... */\n    tag_258:\n        /* \"Pledage.sol\":5732:5744  address pair */\n      0x00\n        /* \"Pledage.sol\":5757:5771  address token0 */\n      dup1\n        /* \"Pledage.sol\":5773:5787  address token1 */\n      0x00\n        /* \"Pledage.sol\":5791:5817  sortTokens(tokenA, tokenB) */\n      tag_343\n        /* \"Pledage.sol\":5802:5808  tokenA */\n      dup6\n        /* \"Pledage.sol\":5810:5816  tokenB */\n      dup6\n        /* \"Pledage.sol\":5791:5801  sortTokens */\n      tag_256\n        /* \"Pledage.sol\":5791:5817  sortTokens(tokenA, tokenB) */\n      jump\t// in\n    tag_343:\n        /* \"Pledage.sol\":5959:5991  abi.encodePacked(token0, token1) */\n      mload(0x40)\n      not(0xffffffffffffffffffffffff)\n        /* \"#utility.yul\":15103:15105   */\n      0x60\n        /* \"#utility.yul\":15099:15114   */\n      dup5\n      dup2\n      shl\n        /* \"#utility.yul\":15095:15119   */\n      dup3\n      and\n        /* \"Pledage.sol\":5959:5991  abi.encodePacked(token0, token1) */\n      0x20\n      dup5\n      add\n        /* \"#utility.yul\":15083:15120   */\n      mstore\n        /* \"#utility.yul\":15154:15169   */\n      dup4\n      swap1\n      shl\n        /* \"#utility.yul\":15150:15174   */\n      and\n        /* \"#utility.yul\":15136:15148   */\n      0x34\n      dup3\n      add\n        /* \"#utility.yul\":15129:15175   */\n      mstore\n        /* \"Pledage.sol\":5756:5817  (address token0, address token1) = sortTokens(tokenA, tokenB) */\n      swap2\n      swap4\n      pop\n      swap2\n      pop\n        /* \"Pledage.sol\":5924:5931  factory */\n      dup7\n      swap1\n        /* \"#utility.yul\":15191:15203   */\n      0x48\n      add\n        /* \"Pledage.sol\":5959:5991  abi.encodePacked(token0, token1) */\n      mload(0x40)\n      0x20\n      dup2\n      dup4\n      sub\n      sub\n      dup2\n      mstore\n      swap1\n      0x40\n      mstore\n        /* \"Pledage.sol\":5949:5992  keccak256(abi.encodePacked(token0, token1)) */\n      dup1\n      mload\n      swap1\n      0x20\n      add\n      keccak256\n        /* \"Pledage.sol\":5865:6111  abi.encodePacked(... */\n      add(0x20, mload(0x40))\n      tag_346\n      swap3\n      swap2\n      swap1\n      not(sub(shl(0xf8, 0x01), 0x01))\n        /* \"#utility.yul\":15573:15599   */\n      dup2\n      mstore\n        /* \"#utility.yul\":15636:15638   */\n      0x60\n        /* \"#utility.yul\":15632:15647   */\n      swap3\n      swap1\n      swap3\n      shl\n      not(0xffffffffffffffffffffffff)\n        /* \"#utility.yul\":15628:15681   */\n      and\n        /* \"#utility.yul\":15624:15625   */\n      0x01\n        /* \"#utility.yul\":15615:15626   */\n      dup4\n      add\n        /* \"#utility.yul\":15608:15682   */\n      mstore\n        /* \"#utility.yul\":15707:15709   */\n      0x15\n        /* \"#utility.yul\":15698:15710   */\n      dup3\n      add\n        /* \"#utility.yul\":15691:15719   */\n      mstore\n        /* \"#utility.yul\":15749:15815   */\n      0xfb7f630766e6a796048ea87d01acd3068e8ff67d078148a3fa3f4a84f69bd5\n        /* \"#utility.yul\":15744:15746   */\n      0x35\n        /* \"#utility.yul\":15735:15747   */\n      dup3\n      add\n        /* \"#utility.yul\":15728:15816   */\n      mstore\n        /* \"#utility.yul\":15841:15843   */\n      0x55\n        /* \"#utility.yul\":15832:15844   */\n      add\n      swap1\n        /* \"#utility.yul\":15214:15850   */\n      jump\n        /* \"Pledage.sol\":5865:6111  abi.encodePacked(... */\n    tag_346:\n      0x40\n      dup1\n      mload\n      not(0x1f)\n      dup2\n      dup5\n      sub\n      add\n      dup2\n      mstore\n      swap2\n      swap1\n      mstore\n        /* \"Pledage.sol\":5855:6112  keccak256(abi.encodePacked(... */\n      dup1\n      mload\n        /* \"Pledage.sol\":5865:6111  abi.encodePacked(... */\n      0x20\n        /* \"Pledage.sol\":5855:6112  keccak256(abi.encodePacked(... */\n      swap1\n      swap2\n      add\n      keccak256\n      swap7\n        /* \"Pledage.sol\":5643:6122  function pairFor(address factory, address tokenA, address tokenB) internal pure returns (address pair) {... */\n      swap6\n      pop\n      pop\n      pop\n      pop\n      pop\n      pop\n      jump\t// out\n        /* \"Pledage.sol\":4904:5044  function mul(uint x, uint y) internal pure returns (uint z) {... */\n    tag_274:\n        /* \"Pledage.sol\":4956:4962  uint z */\n      0x00\n        /* \"Pledage.sol\":4982:4988  y == 0 */\n      dup2\n      iszero\n      dup1\n        /* \"Pledage.sol\":4982:5012  y == 0 || (z = x * y) / y == x */\n      tag_349\n      jumpi\n      pop\n        /* \"Pledage.sol\":5011:5012  x */\n      dup3\n        /* \"Pledage.sol\":5006:5007  y */\n      dup3\n        /* \"Pledage.sol\":4997:5002  x * y */\n      tag_350\n        /* \"Pledage.sol\":5006:5007  y */\n      dup2\n        /* \"Pledage.sol\":5011:5012  x */\n      dup4\n        /* \"Pledage.sol\":4997:5002  x * y */\n      tag_184\n      jump\t// in\n    tag_350:\n        /* \"Pledage.sol\":4993:5002  z = x * y */\n      swap3\n      pop\n        /* \"Pledage.sol\":4992:5007  (z = x * y) / y */\n      tag_351\n      swap1\n        /* \"Pledage.sol\":4993:5002  z = x * y */\n      dup4\n        /* \"Pledage.sol\":4992:5007  (z = x * y) / y */\n      tag_186\n      jump\t// in\n    tag_351:\n        /* \"Pledage.sol\":4992:5012  (z = x * y) / y == x */\n      eq\n        /* \"Pledage.sol\":4982:5012  y == 0 || (z = x * y) / y == x */\n    tag_349:\n        /* \"Pledage.sol\":4974:5037  require(y == 0 || (z = x * y) / y == x, 'ds-math-mul-overflow') */\n      tag_206\n      jumpi\n      mload(0x40)\n      shl(0xe5, 0x461bcd)\n      dup2\n      mstore\n        /* \"#utility.yul\":16057:16059   */\n      0x20\n        /* \"Pledage.sol\":4974:5037  require(y == 0 || (z = x * y) / y == x, 'ds-math-mul-overflow') */\n      0x04\n      dup3\n      add\n        /* \"#utility.yul\":16039:16060   */\n      mstore\n        /* \"#utility.yul\":16096:16098   */\n      0x14\n        /* \"#utility.yul\":16076:16094   */\n      0x24\n      dup3\n      add\n        /* \"#utility.yul\":16069:16099   */\n      mstore\n      shl(0x60, 0x64732d6d6174682d6d756c2d6f766572666c6f77)\n        /* \"#utility.yul\":16115:16133   */\n      0x44\n      dup3\n      add\n        /* \"#utility.yul\":16108:16158   */\n      mstore\n        /* \"#utility.yul\":16175:16193   */\n      0x64\n      add\n        /* \"Pledage.sol\":4974:5037  require(y == 0 || (z = x * y) / y == x, 'ds-math-mul-overflow') */\n      tag_147\n        /* \"#utility.yul\":15855:16199   */\n      jump\n        /* \"Pledage.sol\":4641:4767  function add(uint x, uint y) internal pure returns (uint z) {... */\n    tag_278:\n        /* \"Pledage.sol\":4693:4699  uint z */\n      0x00\n        /* \"Pledage.sol\":4734:4735  x */\n      dup3\n        /* \"Pledage.sol\":4724:4729  x + y */\n      tag_356\n        /* \"Pledage.sol\":4728:4729  y */\n      dup4\n        /* \"Pledage.sol\":4734:4735  x */\n      dup3\n        /* \"Pledage.sol\":4724:4729  x + y */\n      tag_177\n      jump\t// in\n    tag_356:\n        /* \"Pledage.sol\":4720:4729  z = x + y */\n      swap2\n      pop\n      dup2\n        /* \"Pledage.sol\":4719:4735  (z = x + y) >= x */\n      lt\n      iszero\n        /* \"Pledage.sol\":4711:4760  require((z = x + y) >= x, 'ds-math-add-overflow') */\n      tag_206\n      jumpi\n      mload(0x40)\n      shl(0xe5, 0x461bcd)\n      dup2\n      mstore\n        /* \"#utility.yul\":16406:16408   */\n      0x20\n        /* \"Pledage.sol\":4711:4760  require((z = x + y) >= x, 'ds-math-add-overflow') */\n      0x04\n      dup3\n      add\n        /* \"#utility.yul\":16388:16409   */\n      mstore\n        /* \"#utility.yul\":16445:16447   */\n      0x14\n        /* \"#utility.yul\":16425:16443   */\n      0x24\n      dup3\n      add\n        /* \"#utility.yul\":16418:16448   */\n      mstore\n      shl(0x60, 0x64732d6d6174682d6164642d6f766572666c6f77)\n        /* \"#utility.yul\":16464:16482   */\n      0x44\n      dup3\n      add\n        /* \"#utility.yul\":16457:16507   */\n      mstore\n        /* \"#utility.yul\":16524:16542   */\n      0x64\n      add\n        /* \"Pledage.sol\":4711:4760  require((z = x + y) >= x, 'ds-math-add-overflow') */\n      tag_147\n        /* \"#utility.yul\":16204:16548   */\n      jump\n        /* \"Pledage.sol\":2867:3404  function recover(... */\n    tag_316:\n        /* \"Pledage.sol\":2990:2997  address */\n      0x00\n        /* \"Pledage.sol\":3060:3126  0x7FFFFFFFFFFFFFFFFFFFFFFFFFFFFFFF5D576E7357A4501DDFE92F46681B20A0 */\n      0x7fffffffffffffffffffffffffffffff5d576e7357a4501ddfe92f46681b20a0\n        /* \"Pledage.sol\":3030:3126  uint256(s) <=... */\n      dup3\n      gt\n      iszero\n        /* \"Pledage.sol\":3009:3182  require(... */\n      tag_361\n      jumpi\n      mload(0x40)\n      shl(0xe5, 0x461bcd)\n      dup2\n      mstore\n        /* \"#utility.yul\":16755:16757   */\n      0x20\n        /* \"Pledage.sol\":3009:3182  require(... */\n      0x04\n      dup3\n      add\n        /* \"#utility.yul\":16737:16758   */\n      mstore\n        /* \"#utility.yul\":16794:16796   */\n      0x1e\n        /* \"#utility.yul\":16774:16792   */\n      0x24\n      dup3\n      add\n        /* \"#utility.yul\":16767:16797   */\n      mstore\n        /* \"#utility.yul\":16833:16865   */\n      0x5369676e61747572653a20496e76616c6964207320706172616d657465720000\n        /* \"#utility.yul\":16813:16831   */\n      0x44\n      dup3\n      add\n        /* \"#utility.yul\":16806:16866   */\n      mstore\n        /* \"#utility.yul\":16883:16901   */\n      0x64\n      add\n        /* \"Pledage.sol\":3009:3182  require(... */\n      tag_147\n        /* \"#utility.yul\":16553:16907   */\n      jump\n        /* \"Pledage.sol\":3009:3182  require(... */\n    tag_361:\n        /* \"Pledage.sol\":3201:3202  v */\n      dup4\n        /* \"Pledage.sol\":3201:3208  v == 27 */\n      0xff\n      and\n        /* \"Pledage.sol\":3206:3208  27 */\n      0x1b\n        /* \"Pledage.sol\":3201:3208  v == 27 */\n      eq\n        /* \"Pledage.sol\":3201:3219  v == 27 || v == 28 */\n      dup1\n      tag_364\n      jumpi\n      pop\n        /* \"Pledage.sol\":3212:3213  v */\n      dup4\n        /* \"Pledage.sol\":3212:3219  v == 28 */\n      0xff\n      and\n        /* \"Pledage.sol\":3217:3219  28 */\n      0x1c\n        /* \"Pledage.sol\":3212:3219  v == 28 */\n      eq\n        /* \"Pledage.sol\":3201:3219  v == 27 || v == 28 */\n    tag_364:\n        /* \"Pledage.sol\":3193:3254  require(v == 27 || v == 28, \"Signature: Invalid v parameter\") */\n      tag_365\n      jumpi\n      mload(0x40)\n      shl(0xe5, 0x461bcd)\n      dup2\n      mstore\n        /* \"#utility.yul\":17114:17116   */\n      0x20\n        /* \"Pledage.sol\":3193:3254  require(v == 27 || v == 28, \"Signature: Invalid v parameter\") */\n      0x04\n      dup3\n      add\n        /* \"#utility.yul\":17096:17117   */\n      mstore\n        /* \"#utility.yul\":17153:17155   */\n      0x1e\n        /* \"#utility.yul\":17133:17151   */\n      0x24\n      dup3\n      add\n        /* \"#utility.yul\":17126:17156   */\n      mstore\n        /* \"#utility.yul\":17192:17224   */\n      0x5369676e61747572653a20496e76616c6964207620706172616d657465720000\n        /* \"#utility.yul\":17172:17190   */\n      0x44\n      dup3\n      add\n        /* \"#utility.yul\":17165:17225   */\n      mstore\n        /* \"#utility.yul\":17242:17260   */\n      0x64\n      add\n        /* \"Pledage.sol\":3193:3254  require(v == 27 || v == 28, \"Signature: Invalid v parameter\") */\n      tag_147\n        /* \"#utility.yul\":16912:17266   */\n      jump\n        /* \"Pledage.sol\":3193:3254  require(v == 27 || v == 28, \"Signature: Invalid v parameter\") */\n    tag_365:\n        /* \"Pledage.sol\":3281:3305  ecrecover(hash, v, r, s) */\n      0x40\n      dup1\n      mload\n        /* \"Pledage.sol\":3264:3278  address signer */\n      0x00\n        /* \"Pledage.sol\":3281:3305  ecrecover(hash, v, r, s) */\n      dup1\n      dup3\n      mstore\n      0x20\n      dup3\n      add\n      dup1\n      dup5\n      mstore\n        /* \"#utility.yul\":17498:17523   */\n      dup9\n      swap1\n      mstore\n        /* \"#utility.yul\":17571:17575   */\n      0xff\n        /* \"#utility.yul\":17559:17576   */\n      dup8\n      and\n        /* \"#utility.yul\":17539:17557   */\n      swap3\n      dup3\n      add\n        /* \"#utility.yul\":17532:17577   */\n      swap3\n      swap1\n      swap3\n      mstore\n        /* \"#utility.yul\":17593:17611   */\n      0x60\n      dup2\n      add\n        /* \"#utility.yul\":17586:17620   */\n      dup6\n      swap1\n      mstore\n        /* \"#utility.yul\":17636:17654   */\n      0x80\n      dup2\n      add\n        /* \"#utility.yul\":17629:17663   */\n      dup5\n      swap1\n      mstore\n        /* \"Pledage.sol\":3281:3305  ecrecover(hash, v, r, s) */\n      0x01\n      swap1\n        /* \"#utility.yul\":17470:17489   */\n      0xa0\n      add\n        /* \"Pledage.sol\":3281:3305  ecrecover(hash, v, r, s) */\n      0x20\n      mload(0x40)\n      0x20\n      dup2\n      sub\n      swap1\n      dup1\n      dup5\n      sub\n      swap1\n      dup6\n      gas\n      staticcall\n      iszero\n      dup1\n      iszero\n      tag_371\n      jumpi\n      returndatasize\n      0x00\n      dup1\n      returndatacopy\n      revert(0x00, returndatasize)\n    tag_371:\n      pop\n      pop\n      mload(add(not(0x1f), mload(0x40)))\n      swap2\n      pop\n      pop\n      sub(shl(0xa0, 0x01), 0x01)\n        /* \"Pledage.sol\":3323:3343  signer != address(0) */\n      dup2\n      and\n        /* \"Pledage.sol\":3315:3373  require(signer != address(0), \"Signature: Invalid signer\") */\n      tag_372\n      jumpi\n      mload(0x40)\n      shl(0xe5, 0x461bcd)\n      dup2\n      mstore\n        /* \"#utility.yul\":17876:17878   */\n      0x20\n        /* \"Pledage.sol\":3315:3373  require(signer != address(0), \"Signature: Invalid signer\") */\n      0x04\n      dup3\n      add\n        /* \"#utility.yul\":17858:17879   */\n      mstore\n        /* \"#utility.yul\":17915:17917   */\n      0x19\n        /* \"#utility.yul\":17895:17913   */\n      0x24\n      dup3\n      add\n        /* \"#utility.yul\":17888:17918   */\n      mstore\n        /* \"#utility.yul\":17954:17981   */\n      0x5369676e61747572653a20496e76616c6964207369676e657200000000000000\n        /* \"#utility.yul\":17934:17952   */\n      0x44\n      dup3\n      add\n        /* \"#utility.yul\":17927:17982   */\n      mstore\n        /* \"#utility.yul\":17999:18017   */\n      0x64\n      add\n        /* \"Pledage.sol\":3315:3373  require(signer != address(0), \"Signature: Invalid signer\") */\n      tag_147\n        /* \"#utility.yul\":17674:18023   */\n      jump\n        /* \"Pledage.sol\":3315:3373  require(signer != address(0), \"Signature: Invalid signer\") */\n    tag_372:\n        /* \"Pledage.sol\":3391:3397  signer */\n      swap6\n        /* \"Pledage.sol\":2867:3404  function recover(... */\n      swap5\n      pop\n      pop\n      pop\n      pop\n      pop\n      jump\t// out\n        /* \"#utility.yul\":196:327   */\n    tag_375:\n      sub(shl(0xa0, 0x01), 0x01)\n        /* \"#utility.yul\":271:302   */\n      dup2\n      and\n        /* \"#utility.yul\":261:303   */\n      dup2\n      eq\n        /* \"#utility.yul\":251:321   */\n      tag_251\n      jumpi\n        /* \"#utility.yul\":317:318   */\n      0x00\n        /* \"#utility.yul\":314:315   */\n      dup1\n        /* \"#utility.yul\":307:319   */\n      revert\n        /* \"#utility.yul\":332:579   */\n    tag_39:\n        /* \"#utility.yul\":391:397   */\n      0x00\n        /* \"#utility.yul\":444:446   */\n      0x20\n        /* \"#utility.yul\":432:441   */\n      dup3\n        /* \"#utility.yul\":423:430   */\n      dup5\n        /* \"#utility.yul\":419:442   */\n      sub\n        /* \"#utility.yul\":415:447   */\n      slt\n        /* \"#utility.yul\":412:464   */\n      iszero\n      tag_383\n      jumpi\n        /* \"#utility.yul\":460:461   */\n      0x00\n        /* \"#utility.yul\":457:458   */\n      dup1\n        /* \"#utility.yul\":450:462   */\n      revert\n        /* \"#utility.yul\":412:464   */\n    tag_383:\n        /* \"#utility.yul\":499:508   */\n      dup2\n        /* \"#utility.yul\":486:509   */\n      calldataload\n        /* \"#utility.yul\":518:549   */\n      tag_384\n        /* \"#utility.yul\":543:548   */\n      dup2\n        /* \"#utility.yul\":518:549   */\n      tag_375\n      jump\t// in\n    tag_384:\n        /* \"#utility.yul\":568:573   */\n      swap4\n        /* \"#utility.yul\":332:579   */\n      swap3\n      pop\n      pop\n      pop\n      jump\t// out\n        /* \"#utility.yul\":974:1167   */\n    tag_66:\n        /* \"#utility.yul\":1059:1065   */\n      0x00\n        /* \"#utility.yul\":1112:1115   */\n      0x0100\n        /* \"#utility.yul\":1100:1109   */\n      dup3\n        /* \"#utility.yul\":1091:1098   */\n      dup5\n        /* \"#utility.yul\":1087:1110   */\n      sub\n        /* \"#utility.yul\":1083:1116   */\n      slt\n        /* \"#utility.yul\":1080:1133   */\n      iszero\n      tag_388\n      jumpi\n        /* \"#utility.yul\":1129:1130   */\n      0x00\n        /* \"#utility.yul\":1126:1127   */\n      dup1\n        /* \"#utility.yul\":1119:1131   */\n      revert\n        /* \"#utility.yul\":1080:1133   */\n    tag_388:\n      pop\n        /* \"#utility.yul\":1152:1161   */\n      swap2\n        /* \"#utility.yul\":974:1167   */\n      swap1\n      pop\n      jump\t// out\n        /* \"#utility.yul\":1364:1679   */\n    tag_97:\n        /* \"#utility.yul\":1432:1438   */\n      0x00\n        /* \"#utility.yul\":1440:1446   */\n      dup1\n        /* \"#utility.yul\":1493:1495   */\n      0x40\n        /* \"#utility.yul\":1481:1490   */\n      dup4\n        /* \"#utility.yul\":1472:1479   */\n      dup6\n        /* \"#utility.yul\":1468:1491   */\n      sub\n        /* \"#utility.yul\":1464:1496   */\n      slt\n        /* \"#utility.yul\":1461:1513   */\n      iszero\n      tag_391\n      jumpi\n        /* \"#utility.yul\":1509:1510   */\n      0x00\n        /* \"#utility.yul\":1506:1507   */\n      dup1\n        /* \"#utility.yul\":1499:1511   */\n      revert\n        /* \"#utility.yul\":1461:1513   */\n    tag_391:\n        /* \"#utility.yul\":1548:1557   */\n      dup3\n        /* \"#utility.yul\":1535:1558   */\n      calldataload\n        /* \"#utility.yul\":1567:1598   */\n      tag_392\n        /* \"#utility.yul\":1592:1597   */\n      dup2\n        /* \"#utility.yul\":1567:1598   */\n      tag_375\n      jump\t// in\n    tag_392:\n        /* \"#utility.yul\":1617:1622   */\n      swap5\n        /* \"#utility.yul\":1669:1671   */\n      0x20\n        /* \"#utility.yul\":1654:1672   */\n      swap4\n      swap1\n      swap4\n      add\n        /* \"#utility.yul\":1641:1673   */\n      calldataload\n      swap4\n      pop\n      pop\n      pop\n        /* \"#utility.yul\":1364:1679   */\n      jump\t// out\n        /* \"#utility.yul\":1684:1864   */\n    tag_111:\n        /* \"#utility.yul\":1743:1749   */\n      0x00\n        /* \"#utility.yul\":1796:1798   */\n      0x20\n        /* \"#utility.yul\":1784:1793   */\n      dup3\n        /* \"#utility.yul\":1775:1782   */\n      dup5\n        /* \"#utility.yul\":1771:1794   */\n      sub\n        /* \"#utility.yul\":1767:1799   */\n      slt\n        /* \"#utility.yul\":1764:1816   */\n      iszero\n      tag_394\n      jumpi\n        /* \"#utility.yul\":1812:1813   */\n      0x00\n        /* \"#utility.yul\":1809:1810   */\n      dup1\n        /* \"#utility.yul\":1802:1814   */\n      revert\n        /* \"#utility.yul\":1764:1816   */\n    tag_394:\n      pop\n        /* \"#utility.yul\":1835:1858   */\n      calldataload\n      swap2\n        /* \"#utility.yul\":1684:1864   */\n      swap1\n      pop\n      jump\t// out\n        /* \"#utility.yul\":2321:2659   */\n    tag_118:\n        /* \"#utility.yul\":2403:2409   */\n      0x00\n        /* \"#utility.yul\":2411:2417   */\n      dup1\n        /* \"#utility.yul\":2464:2466   */\n      0x40\n        /* \"#utility.yul\":2452:2461   */\n      dup4\n        /* \"#utility.yul\":2443:2450   */\n      dup6\n        /* \"#utility.yul\":2439:2462   */\n      sub\n        /* \"#utility.yul\":2435:2467   */\n      slt\n        /* \"#utility.yul\":2432:2484   */\n      iszero\n      tag_397\n      jumpi\n        /* \"#utility.yul\":2480:2481   */\n      0x00\n        /* \"#utility.yul\":2477:2478   */\n      dup1\n        /* \"#utility.yul\":2470:2482   */\n      revert\n        /* \"#utility.yul\":2432:2484   */\n    tag_397:\n        /* \"#utility.yul\":2516:2525   */\n      dup3\n        /* \"#utility.yul\":2503:2526   */\n      calldataload\n        /* \"#utility.yul\":2493:2526   */\n      swap2\n      pop\n        /* \"#utility.yul\":2576:2578   */\n      0x20\n        /* \"#utility.yul\":2565:2574   */\n      dup4\n        /* \"#utility.yul\":2561:2579   */\n      add\n        /* \"#utility.yul\":2548:2580   */\n      calldataload\n        /* \"#utility.yul\":2609:2610   */\n      0x05\n        /* \"#utility.yul\":2602:2607   */\n      dup2\n        /* \"#utility.yul\":2599:2611   */\n      lt\n        /* \"#utility.yul\":2589:2629   */\n      tag_398\n      jumpi\n        /* \"#utility.yul\":2625:2626   */\n      0x00\n        /* \"#utility.yul\":2622:2623   */\n      dup1\n        /* \"#utility.yul\":2615:2627   */\n      revert\n        /* \"#utility.yul\":2589:2629   */\n    tag_398:\n        /* \"#utility.yul\":2648:2653   */\n      dup1\n        /* \"#utility.yul\":2638:2653   */\n      swap2\n      pop\n      pop\n        /* \"#utility.yul\":2321:2659   */\n      swap3\n      pop\n      swap3\n      swap1\n      pop\n      jump\t// out\n        /* \"#utility.yul\":2664:2915   */\n    tag_140:\n        /* \"#utility.yul\":2734:2740   */\n      0x00\n        /* \"#utility.yul\":2787:2789   */\n      0x20\n        /* \"#utility.yul\":2775:2784   */\n      dup3\n        /* \"#utility.yul\":2766:2773   */\n      dup5\n        /* \"#utility.yul\":2762:2785   */\n      sub\n        /* \"#utility.yul\":2758:2790   */\n      slt\n        /* \"#utility.yul\":2755:2807   */\n      iszero\n      tag_400\n      jumpi\n        /* \"#utility.yul\":2803:2804   */\n      0x00\n        /* \"#utility.yul\":2800:2801   */\n      dup1\n        /* \"#utility.yul\":2793:2805   */\n      revert\n        /* \"#utility.yul\":2755:2807   */\n    tag_400:\n        /* \"#utility.yul\":2835:2844   */\n      dup2\n        /* \"#utility.yul\":2829:2845   */\n      mload\n        /* \"#utility.yul\":2854:2885   */\n      tag_384\n        /* \"#utility.yul\":2879:2884   */\n      dup2\n        /* \"#utility.yul\":2854:2885   */\n      tag_375\n      jump\t// in\n        /* \"#utility.yul\":2920:3263   */\n    tag_148:\n        /* \"#utility.yul\":3122:3124   */\n      0x20\n        /* \"#utility.yul\":3104:3125   */\n      dup1\n      dup3\n      mstore\n        /* \"#utility.yul\":3161:3163   */\n      0x13\n        /* \"#utility.yul\":3141:3159   */\n      swap1\n      dup3\n      add\n        /* \"#utility.yul\":3134:3164   */\n      mstore\n      shl(0x69, 0x21b0b63632b91034b9903737ba1037bbb732b9)\n        /* \"#utility.yul\":3195:3197   */\n      0x40\n        /* \"#utility.yul\":3180:3198   */\n      dup3\n      add\n        /* \"#utility.yul\":3173:3222   */\n      mstore\n        /* \"#utility.yul\":3254:3256   */\n      0x60\n        /* \"#utility.yul\":3239:3257   */\n      add\n      swap1\n        /* \"#utility.yul\":2920:3263   */\n      jump\t// out\n        /* \"#utility.yul\":5560:5687   */\n    tag_376:\n        /* \"#utility.yul\":5621:5631   */\n      0x4e487b71\n        /* \"#utility.yul\":5616:5619   */\n      0xe0\n        /* \"#utility.yul\":5612:5632   */\n      shl\n        /* \"#utility.yul\":5609:5610   */\n      0x00\n        /* \"#utility.yul\":5602:5633   */\n      mstore\n        /* \"#utility.yul\":5652:5656   */\n      0x11\n        /* \"#utility.yul\":5649:5650   */\n      0x04\n        /* \"#utility.yul\":5642:5657   */\n      mstore\n        /* \"#utility.yul\":5676:5680   */\n      0x24\n        /* \"#utility.yul\":5673:5674   */\n      0x00\n        /* \"#utility.yul\":5666:5681   */\n      revert\n        /* \"#utility.yul\":5692:5817   */\n    tag_177:\n        /* \"#utility.yul\":5757:5766   */\n      dup1\n      dup3\n      add\n        /* \"#utility.yul\":5778:5788   */\n      dup1\n      dup3\n      gt\n        /* \"#utility.yul\":5775:5811   */\n      iszero\n      tag_206\n      jumpi\n        /* \"#utility.yul\":5791:5809   */\n      tag_206\n      tag_376\n      jump\t// in\n        /* \"#utility.yul\":5822:5990   */\n    tag_184:\n        /* \"#utility.yul\":5895:5904   */\n      dup1\n      dup3\n      mul\n        /* \"#utility.yul\":5926:5935   */\n      dup2\n      iszero\n        /* \"#utility.yul\":5943:5958   */\n      dup3\n      dup3\n      div\n        /* \"#utility.yul\":5937:5959   */\n      dup5\n      eq\n        /* \"#utility.yul\":5923:5960   */\n      or\n        /* \"#utility.yul\":5913:5984   */\n      tag_206\n      jumpi\n        /* \"#utility.yul\":5964:5982   */\n      tag_206\n      tag_376\n      jump\t// in\n        /* \"#utility.yul\":5995:6212   */\n    tag_186:\n        /* \"#utility.yul\":6035:6036   */\n      0x00\n        /* \"#utility.yul\":6061:6062   */\n      dup3\n        /* \"#utility.yul\":6051:6183   */\n      tag_417\n      jumpi\n        /* \"#utility.yul\":6105:6115   */\n      0x4e487b71\n        /* \"#utility.yul\":6100:6103   */\n      0xe0\n        /* \"#utility.yul\":6096:6116   */\n      shl\n        /* \"#utility.yul\":6093:6094   */\n      0x00\n        /* \"#utility.yul\":6086:6117   */\n      mstore\n        /* \"#utility.yul\":6140:6144   */\n      0x12\n        /* \"#utility.yul\":6137:6138   */\n      0x04\n        /* \"#utility.yul\":6130:6145   */\n      mstore\n        /* \"#utility.yul\":6168:6172   */\n      0x24\n        /* \"#utility.yul\":6165:6166   */\n      0x00\n        /* \"#utility.yul\":6158:6173   */\n      revert\n        /* \"#utility.yul\":6051:6183   */\n    tag_417:\n      pop\n        /* \"#utility.yul\":6197:6206   */\n      div\n      swap1\n        /* \"#utility.yul\":5995:6212   */\n      jump\t// out\n        /* \"#utility.yul\":6741:7010   */\n    tag_210:\n        /* \"#utility.yul\":6798:6804   */\n      0x00\n        /* \"#utility.yul\":6851:6853   */\n      0x20\n        /* \"#utility.yul\":6839:6848   */\n      dup3\n        /* \"#utility.yul\":6830:6837   */\n      dup5\n        /* \"#utility.yul\":6826:6849   */\n      sub\n        /* \"#utility.yul\":6822:6854   */\n      slt\n        /* \"#utility.yul\":6819:6871   */\n      iszero\n      tag_420\n      jumpi\n        /* \"#utility.yul\":6867:6868   */\n      0x00\n        /* \"#utility.yul\":6864:6865   */\n      dup1\n        /* \"#utility.yul\":6857:6869   */\n      revert\n        /* \"#utility.yul\":6819:6871   */\n    tag_420:\n        /* \"#utility.yul\":6906:6915   */\n      dup2\n        /* \"#utility.yul\":6893:6916   */\n      calldataload\n        /* \"#utility.yul\":6956:6960   */\n      0xff\n        /* \"#utility.yul\":6949:6954   */\n      dup2\n        /* \"#utility.yul\":6945:6961   */\n      and\n        /* \"#utility.yul\":6938:6943   */\n      dup2\n        /* \"#utility.yul\":6935:6962   */\n      eq\n        /* \"#utility.yul\":6925:6980   */\n      tag_384\n      jumpi\n        /* \"#utility.yul\":6976:6977   */\n      0x00\n        /* \"#utility.yul\":6973:6974   */\n      dup1\n        /* \"#utility.yul\":6966:6978   */\n      revert\n        /* \"#utility.yul\":7374:7501   */\n    tag_232:\n        /* \"#utility.yul\":7435:7445   */\n      0x4e487b71\n        /* \"#utility.yul\":7430:7433   */\n      0xe0\n        /* \"#utility.yul\":7426:7446   */\n      shl\n        /* \"#utility.yul\":7423:7424   */\n      0x00\n        /* \"#utility.yul\":7416:7447   */\n      mstore\n        /* \"#utility.yul\":7466:7470   */\n      0x21\n        /* \"#utility.yul\":7463:7464   */\n      0x04\n        /* \"#utility.yul\":7456:7471   */\n      mstore\n        /* \"#utility.yul\":7490:7494   */\n      0x24\n        /* \"#utility.yul\":7487:7488   */\n      0x00\n        /* \"#utility.yul\":7480:7495   */\n      revert\n        /* \"#utility.yul\":7909:8491   */\n    tag_246:\n      sub(shl(0xa0, 0x01), 0x01)\n        /* \"#utility.yul\":8170:8202   */\n      dup6\n      and\n        /* \"#utility.yul\":8152:8203   */\n      dup2\n      mstore\n        /* \"#utility.yul\":8234:8236   */\n      0x20\n        /* \"#utility.yul\":8219:8237   */\n      dup2\n      add\n        /* \"#utility.yul\":8212:8246   */\n      dup5\n      swap1\n      mstore\n        /* \"#utility.yul\":8277:8279   */\n      0x40\n        /* \"#utility.yul\":8262:8280   */\n      dup2\n      add\n        /* \"#utility.yul\":8255:8289   */\n      dup4\n      swap1\n      mstore\n        /* \"#utility.yul\":8139:8142   */\n      0x80\n        /* \"#utility.yul\":8124:8143   */\n      dup2\n      add\n        /* \"#utility.yul\":8319:8320   */\n      0x05\n        /* \"#utility.yul\":8308:8321   */\n      dup4\n      lt\n        /* \"#utility.yul\":8298:8442   */\n      tag_426\n      jumpi\n        /* \"#utility.yul\":8364:8374   */\n      0x4e487b71\n        /* \"#utility.yul\":8359:8362   */\n      0xe0\n        /* \"#utility.yul\":8355:8375   */\n      shl\n        /* \"#utility.yul\":8352:8353   */\n      0x00\n        /* \"#utility.yul\":8345:8376   */\n      mstore\n        /* \"#utility.yul\":8399:8403   */\n      0x21\n        /* \"#utility.yul\":8396:8397   */\n      0x04\n        /* \"#utility.yul\":8389:8404   */\n      mstore\n        /* \"#utility.yul\":8427:8431   */\n      0x24\n        /* \"#utility.yul\":8424:8425   */\n      0x00\n        /* \"#utility.yul\":8417:8432   */\n      revert\n        /* \"#utility.yul\":8298:8442   */\n    tag_426:\n        /* \"#utility.yul\":8478:8484   */\n      dup3\n        /* \"#utility.yul\":8473:8475   */\n      0x60\n        /* \"#utility.yul\":8462:8471   */\n      dup4\n        /* \"#utility.yul\":8458:8476   */\n      add\n        /* \"#utility.yul\":8451:8485   */\n      mstore\n        /* \"#utility.yul\":7909:8491   */\n      swap6\n      swap5\n      pop\n      pop\n      pop\n      pop\n      pop\n      jump\t// out\n        /* \"#utility.yul\":8496:8684   */\n    tag_377:\n        /* \"#utility.yul\":8575:8588   */\n      dup1\n      mload\n      sub(shl(0x70, 0x01), 0x01)\n        /* \"#utility.yul\":8617:8659   */\n      dup2\n      and\n        /* \"#utility.yul\":8607:8660   */\n      dup2\n      eq\n        /* \"#utility.yul\":8597:8678   */\n      tag_428\n      jumpi\n        /* \"#utility.yul\":8674:8675   */\n      0x00\n        /* \"#utility.yul\":8671:8672   */\n      dup1\n        /* \"#utility.yul\":8664:8676   */\n      revert\n        /* \"#utility.yul\":8597:8678   */\n    tag_428:\n        /* \"#utility.yul\":8496:8684   */\n      swap2\n      swap1\n      pop\n      jump\t// out\n        /* \"#utility.yul\":8689:9139   */\n    tag_262:\n        /* \"#utility.yul\":8776:8782   */\n      0x00\n        /* \"#utility.yul\":8784:8790   */\n      dup1\n        /* \"#utility.yul\":8792:8798   */\n      0x00\n        /* \"#utility.yul\":8845:8847   */\n      0x60\n        /* \"#utility.yul\":8833:8842   */\n      dup5\n        /* \"#utility.yul\":8824:8831   */\n      dup7\n        /* \"#utility.yul\":8820:8843   */\n      sub\n        /* \"#utility.yul\":8816:8848   */\n      slt\n        /* \"#utility.yul\":8813:8865   */\n      iszero\n      tag_430\n      jumpi\n        /* \"#utility.yul\":8861:8862   */\n      0x00\n        /* \"#utility.yul\":8858:8859   */\n      dup1\n        /* \"#utility.yul\":8851:8863   */\n      revert\n        /* \"#utility.yul\":8813:8865   */\n    tag_430:\n        /* \"#utility.yul\":8884:8924   */\n      tag_431\n        /* \"#utility.yul\":8914:8923   */\n      dup5\n        /* \"#utility.yul\":8884:8924   */\n      tag_377\n      jump\t// in\n    tag_431:\n        /* \"#utility.yul\":8874:8924   */\n      swap3\n      pop\n        /* \"#utility.yul\":8943:8992   */\n      tag_432\n        /* \"#utility.yul\":8988:8990   */\n      0x20\n        /* \"#utility.yul\":8977:8986   */\n      dup6\n        /* \"#utility.yul\":8973:8991   */\n      add\n        /* \"#utility.yul\":8943:8992   */\n      tag_377\n      jump\t// in\n    tag_432:\n        /* \"#utility.yul\":8933:8992   */\n      swap2\n      pop\n        /* \"#utility.yul\":9035:9037   */\n      0x40\n        /* \"#utility.yul\":9024:9033   */\n      dup5\n        /* \"#utility.yul\":9020:9038   */\n      add\n        /* \"#utility.yul\":9014:9039   */\n      mload\n        /* \"#utility.yul\":9079:9089   */\n      0xffffffff\n        /* \"#utility.yul\":9072:9077   */\n      dup2\n        /* \"#utility.yul\":9068:9090   */\n      and\n        /* \"#utility.yul\":9061:9066   */\n      dup2\n        /* \"#utility.yul\":9058:9091   */\n      eq\n        /* \"#utility.yul\":9048:9109   */\n      tag_433\n      jumpi\n        /* \"#utility.yul\":9105:9106   */\n      0x00\n        /* \"#utility.yul\":9102:9103   */\n      dup1\n        /* \"#utility.yul\":9095:9107   */\n      revert\n        /* \"#utility.yul\":9048:9109   */\n    tag_433:\n        /* \"#utility.yul\":9128:9133   */\n      dup1\n        /* \"#utility.yul\":9118:9133   */\n      swap2\n      pop\n      pop\n        /* \"#utility.yul\":8689:9139   */\n      swap3\n      pop\n      swap3\n      pop\n      swap3\n      jump\t// out\n        /* \"#utility.yul\":10244:10656   */\n    tag_284:\n        /* \"#utility.yul\":10373:10376   */\n      0x00\n        /* \"#utility.yul\":10411:10417   */\n      dup3\n        /* \"#utility.yul\":10405:10418   */\n      mload\n        /* \"#utility.yul\":10436:10437   */\n      0x00\n        /* \"#utility.yul\":10446:10575   */\n    tag_438:\n        /* \"#utility.yul\":10460:10466   */\n      dup2\n        /* \"#utility.yul\":10457:10458   */\n      dup2\n        /* \"#utility.yul\":10454:10467   */\n      lt\n        /* \"#utility.yul\":10446:10575   */\n      iszero\n      tag_440\n      jumpi\n        /* \"#utility.yul\":10558:10562   */\n      0x20\n        /* \"#utility.yul\":10542:10556   */\n      dup2\n      dup7\n      add\n        /* \"#utility.yul\":10538:10563   */\n      dup2\n      add\n        /* \"#utility.yul\":10532:10564   */\n      mload\n        /* \"#utility.yul\":10519:10530   */\n      dup6\n      dup4\n      add\n        /* \"#utility.yul\":10512:10565   */\n      mstore\n        /* \"#utility.yul\":10475:10487   */\n      add\n        /* \"#utility.yul\":10446:10575   */\n      jump(tag_438)\n    tag_440:\n      pop\n        /* \"#utility.yul\":10630:10631   */\n      0x00\n        /* \"#utility.yul\":10594:10610   */\n      swap3\n      add\n        /* \"#utility.yul\":10619:10632   */\n      swap2\n      dup3\n      mstore\n      pop\n        /* \"#utility.yul\":10594:10610   */\n      swap2\n        /* \"#utility.yul\":10244:10656   */\n      swap1\n      pop\n      jump\t// out\n        /* \"#utility.yul\":10661:10938   */\n    tag_291:\n        /* \"#utility.yul\":10728:10734   */\n      0x00\n        /* \"#utility.yul\":10781:10783   */\n      0x20\n        /* \"#utility.yul\":10769:10778   */\n      dup3\n        /* \"#utility.yul\":10760:10767   */\n      dup5\n        /* \"#utility.yul\":10756:10779   */\n      sub\n        /* \"#utility.yul\":10752:10784   */\n      slt\n        /* \"#utility.yul\":10749:10801   */\n      iszero\n      tag_442\n      jumpi\n        /* \"#utility.yul\":10797:10798   */\n      0x00\n        /* \"#utility.yul\":10794:10795   */\n      dup1\n        /* \"#utility.yul\":10787:10799   */\n      revert\n        /* \"#utility.yul\":10749:10801   */\n    tag_442:\n        /* \"#utility.yul\":10829:10838   */\n      dup2\n        /* \"#utility.yul\":10823:10839   */\n      mload\n        /* \"#utility.yul\":10882:10887   */\n      dup1\n        /* \"#utility.yul\":10875:10888   */\n      iszero\n        /* \"#utility.yul\":10868:10889   */\n      iszero\n        /* \"#utility.yul\":10861:10866   */\n      dup2\n        /* \"#utility.yul\":10858:10890   */\n      eq\n        /* \"#utility.yul\":10848:10908   */\n      tag_384\n      jumpi\n        /* \"#utility.yul\":10904:10905   */\n      0x00\n        /* \"#utility.yul\":10901:10902   */\n      dup1\n        /* \"#utility.yul\":10894:10906   */\n      revert\n\n    auxdata: 0xa2646970667358221220b8224f6048b2d521273e6203922d92c65efb36875cbb5ed7e31d5c4aa216662964736f6c63430008120033\n}\n",
				"bytecode": {
					"linkReferences": {},
					"object": "608060405234801561001057600080fd5b50600080546001600160a01b03191633179055611c4f806100326000396000f3fe6080604052600436106101445760003560e01c80635c60da1b116100b6578063bc4467081161006f578063bc4467081461039a578063bc7fb1691461041a578063c4d66de81461043a578063d13319c41461045a578063f851a4401461048d578063fc0c546a146104ad57600080fd5b80635c60da1b146102bd5780635e43cd68146102dd578063704b6c021461030d57806388e3988f1461032d5780638fe7002c1461034d578063993b37da1461036d57600080fd5b80633644e515116101085780633644e5151461021257806336cf7c871461022857806340003763146102485780634b94f50e146102685780635777e93d1461027d57806359d0f7131461029d57600080fd5b806308760b0d14610150578063144fa6d7146101785780631694505e1461019a5780632f48ab7d146101d257806332105e46146101f257600080fd5b3661014b57005b600080fd5b34801561015c57600080fd5b506101656104cd565b6040519081526020015b60405180910390f35b34801561018457600080fd5b50610198610193366004611976565b61058c565b005b3480156101a657600080fd5b506008546101ba906001600160a01b031681565b6040516001600160a01b03909116815260200161016f565b3480156101de57600080fd5b506007546101ba906001600160a01b031681565b3480156101fe57600080fd5b5061019861020d366004611976565b6105e1565b34801561021e57600080fd5b50610165600a5481565b34801561023457600080fd5b506006546101ba906001600160a01b031681565b34801561025457600080fd5b5061019861026336600461199a565b61062d565b34801561027457600080fd5b50610165610ac2565b34801561028957600080fd5b506005546101ba906001600160a01b031681565b3480156102a957600080fd5b506009546101ba906001600160a01b031681565b3480156102c957600080fd5b506001546101ba906001600160a01b031681565b3480156102e957600080fd5b506102fd6102f836600461199a565b610b09565b604051901515815260200161016f565b34801561031957600080fd5b50610198610328366004611976565b610b4b565b34801561033957600080fd5b506101986103483660046119b3565b610b97565b34801561035957600080fd5b506101986103683660046119b3565b610bd8565b34801561037957600080fd5b50610165610388366004611976565b600b6020526000908152604090205481565b3480156103a657600080fd5b506103ea6103b53660046119df565b6003602081905260009182526040909120805460018201546002830154929093015490926001600160a01b0390811692169084565b60405161016f94939291909384526001600160a01b03928316602085015291166040830152606082015260800190565b34801561042657600080fd5b506101986104353660046119f8565b610c0c565b34801561044657600080fd5b50610198610455366004611976565b610daa565b34801561046657600080fd5b507fb5f106453e92c83f8ef471e09a8097b99888030beb671302e7c318e4d198c6e3610165565b34801561049957600080fd5b506000546101ba906001600160a01b031681565b3480156104b957600080fd5b506004546101ba906001600160a01b031681565b600080600860009054906101000a90046001600160a01b03166001600160a01b031663ad5c46486040518163ffffffff1660e01b8152600401602060405180830381865afa158015610523573d6000803e3d6000fd5b505050506040513d601f19601f820116820180604052508101906105479190611a2c565b600954600754919250600091829161056d916001600160a01b0391821691869116610f35565b91509150610584670de0b6b3a76400008383610fff565b935050505090565b6000546001600160a01b031633146105bf5760405162461bcd60e51b81526004016105b690611a49565b60405180910390fd5b600480546001600160a01b0319166001600160a01b0392909216919091179055565b6000546001600160a01b0316331461060b5760405162461bcd60e51b81526004016105b690611a49565b600580546001600160a01b0319166001600160a01b0392909216919091179055565b428160800135101561068b5760405162461bcd60e51b815260206004820152602160248201527f506c65646167653a496e76616c6964207769746864726177206475726174696f6044820152603760f91b60648201526084016105b6565b61069481610b09565b6106e05760405162461bcd60e51b815260206004820152601d60248201527f506c65646167653a496e76616c6964207769746864726177206461746100000060448201526064016105b6565b60006106f26040830160208401611976565b6001600160a01b0316036107485760405162461bcd60e51b815260206004820181905260248201527f506c65646167653a496e76616c6964207769746864726177206164647265737360448201526064016105b6565b600081604001351161079c5760405162461bcd60e51b815260206004820152601f60248201527f506c65646167653a496e76616c696420776974686472617720616d6f756e740060448201526064016105b6565b336107ad6040830160208401611976565b6001600160a01b03161461080f5760405162461bcd60e51b8152602060048201526024808201527f506c65646167653a4c61636b206f66206f7065726174696e67207065726d697360448201526339b4b7b760e11b60648201526084016105b6565b336000908152600b602052604090819020549082013590036108815760405162461bcd60e51b815260206004820152602560248201527f506c65646167653a5265706561746564207769746864726177616c206f70657260448201526430ba34b7b760d91b60648201526084016105b6565b336000908152600b602090815260408083208185013590819055606085013584526003928390529083209182018054929391929091906108c2908490611a8c565b909155506108d590506020830183611976565b6002820180546001600160a01b0319166001600160a01b03929092169190911790556109076040830160208401611976565b6001820180546001600160a01b0319166001600160a01b039283161790556004546002830154908216911603610a2257600454610977906001600160a01b03166109576040850160208601611976565b606461096860408701356063611a9f565b6109729190611ab6565b61111e565b6004546109a8906001600160a01b03166109976040850160208601611976565b606461096860408701356001611a9f565b7ffe7813e2866053d5c3938554e517b554fce6666a6561bed9eaa7419b29fa9b6860608301356109de6040850160208601611976565b6109eb6020860186611976565b604080519384526001600160a01b039283166020850152911682820152840135606082015242608082015260a00160405180910390a15b60028101546001600160a01b0316610abe57610a51610a476040840160208501611976565b8360400135611239565b7ffe7813e2866053d5c3938554e517b554fce6666a6561bed9eaa7419b29fa9b686060830135610a876040850160208601611976565b604080519283526001600160a01b039091166020830152600082820152840135606082015242608082015260a00160405180910390a15b5050565b60095460045460075460009283928392610aeb926001600160a01b039081169281169116610f35565b91509150610b02670de0b6b3a76400008383610fff565b9250505090565b6000610b45610b1783611307565b6005546001600160a01b0316610b3360c0860160a08701611ad8565b8560c001358660e00135600a546113ab565b92915050565b6000546001600160a01b03163314610b755760405162461bcd60e51b81526004016105b690611a49565b600080546001600160a01b0319166001600160a01b0392909216919091179055565b6000546001600160a01b03163314610bc15760405162461bcd60e51b81526004016105b690611a49565b600454610abe906001600160a01b0316838361111e565b6000546001600160a01b03163314610c025760405162461bcd60e51b81526004016105b690611a49565b610abe8282611239565b68056bc75e2d63100000821015610c655760405162461bcd60e51b815260206004820152601e60248201527f506c65646167653a496e76616c69642070726f7669646520616d6f756e74000060448201526064016105b6565b6000816004811115610c7957610c79611afb565b03610cd15760405162461bcd60e51b815260206004820152602260248201527f506c65646167653a496e76616c69642070726f7669646520657870697261746960448201526137b760f11b60648201526084016105b6565b600454610ce9906001600160a01b0316333085611413565b3360009081526002602081815260408320805460018082018355828652838620909101879055928101805493840181558452928190209082040180548492601f166101000a60ff81021990911690836004811115610d4957610d49611afb565b02179055506001808201805491820181556000908152602090204291018190556040517f1ab2d7016a285cf7ca78bdd1c8a8e845f082fe124067d9137646150ced64081691610d9d91339187918790611b11565b60405180910390a1505050565b6000546001600160a01b03163314610dd45760405162461bcd60e51b81526004016105b690611a49565b600880546001600160a01b03199081167310ed43c718714eb63d5aa57b78b54704e256024e1790915560098054821673ca143ce32fe78f1f7019d7d551a6402fc5350c731790556007805482167355d398326f99059ff775485246999027b319795517905560068054821661dead1790556004805482167333e0b24aaea62500ca79d33e26efe576bbf5bacf179055600580546001600160a01b0384169216919091179055610f3260408051808201825260018152603160f81b60209182015281517f8b73c3c69bb8fe3d512ecc4cf759cc79239f7b179b0ffacaa9a75d522b39400f818301527fed9e26fc34b201817108d14db5e93fff6700cff6f5e90ac3b3da395aba756b5c818401527fc89efdaa54c0f20c7adf612882df0950f5a951637e0307cdcb4c672f298b8bc660608201524660808201523060a0808301919091528351808303909101815260c09091019092528151910120600a55565b50565b6000806000610f448585611543565b509050600080610f5588888861163a565b6001600160a01b0316630902f1ac6040518163ffffffff1660e01b8152600401606060405180830381865afa158015610f92573d6000803e3d6000fd5b505050506040513d601f19601f82011682018060405250810190610fb69190611b78565b506001600160701b031691506001600160701b03169150826001600160a01b0316876001600160a01b031614610fed578082610ff0565b81815b90999098509650505050505050565b60008084116110645760405162461bcd60e51b815260206004820152602b60248201527f556e697377617056324c6962726172793a20494e53554646494349454e545f4960448201526a1394155517d05353d5539560aa1b60648201526084016105b6565b6000831180156110745750600082115b6110d15760405162461bcd60e51b815260206004820152602860248201527f556e697377617056324c6962726172793a20494e53554646494349454e545f4c604482015267495155494449545960c01b60648201526084016105b6565b60006110df856103e5611712565b905060006110ed8285611712565b9050600061110783611101886103e8611712565b90611779565b90506111138183611ab6565b979650505050505050565b604080516001600160a01b038481166024830152604480830185905283518084039091018152606490920183526020820180516001600160e01b031663a9059cbb60e01b179052915160009283929087169161117a9190611bc8565b6000604051808303816000865af19150503d80600081146111b7576040519150601f19603f3d011682016040523d82523d6000602084013e6111bc565b606091505b50915091508180156111e65750805115806111e65750808060200190518101906111e69190611bf7565b6112325760405162461bcd60e51b815260206004820152601f60248201527f5472616e7366657248656c7065723a205452414e534645525f4641494c45440060448201526064016105b6565b5050505050565b604080516000808252602082019092526001600160a01b0384169083906040516112639190611bc8565b60006040518083038185875af1925050503d80600081146112a0576040519150601f19603f3d011682016040523d82523d6000602084013e6112a5565b606091505b50509050806113025760405162461bcd60e51b815260206004820152602360248201527f5472616e7366657248656c7065723a204554485f5452414e534645525f46414960448201526213115160ea1b60648201526084016105b6565b505050565b60007fb5f106453e92c83f8ef471e09a8097b99888030beb671302e7c318e4d198c6e36113376020840184611976565b6113476040850160208601611976565b6040805160208101949094526001600160a01b03928316848201529116606083810191909152908401356080838101919091529084013560a083015283013560c082015260e001604051602081830303815290604052805190602001209050919050565b60405161190160f01b602082015260228101829052604281018790526000908190606201604051602081830303815290604052805190602001209050866001600160a01b03166113fd828888886117ce565b6001600160a01b03161498975050505050505050565b604080516001600160a01b0385811660248301528481166044830152606480830185905283518084039091018152608490920183526020820180516001600160e01b03166323b872dd60e01b17905291516000928392908816916114779190611bc8565b6000604051808303816000865af19150503d80600081146114b4576040519150601f19603f3d011682016040523d82523d6000602084013e6114b9565b606091505b50915091508180156114e35750805115806114e35750808060200190518101906114e39190611bf7565b61153b5760405162461bcd60e51b8152602060048201526024808201527f5472616e7366657248656c7065723a205452414e534645525f46524f4d5f46416044820152631253115160e21b60648201526084016105b6565b505050505050565b600080826001600160a01b0316846001600160a01b0316036115b55760405162461bcd60e51b815260206004820152602560248201527f556e697377617056324c6962726172793a204944454e544943414c5f41444452604482015264455353455360d81b60648201526084016105b6565b826001600160a01b0316846001600160a01b0316106115d55782846115d8565b83835b90925090506001600160a01b0382166116335760405162461bcd60e51b815260206004820152601e60248201527f556e697377617056324c6962726172793a205a45524f5f41444452455353000060448201526064016105b6565b9250929050565b60008060006116498585611543565b6040516bffffffffffffffffffffffff19606084811b8216602084015283901b16603482015291935091508690604801604051602081830303815290604052805190602001206040516020016116f09291906001600160f81b0319815260609290921b6bffffffffffffffffffffffff1916600183015260158201527efb7f630766e6a796048ea87d01acd3068e8ff67d078148a3fa3f4a84f69bd5603582015260550190565b60408051601f1981840301815291905280516020909101209695505050505050565b6000811580611736575082826117288183611a9f565b92506117349083611ab6565b145b610b455760405162461bcd60e51b815260206004820152601460248201527364732d6d6174682d6d756c2d6f766572666c6f7760601b60448201526064016105b6565b6000826117868382611a8c565b9150811015610b455760405162461bcd60e51b815260206004820152601460248201527364732d6d6174682d6164642d6f766572666c6f7760601b60448201526064016105b6565b60007f7fffffffffffffffffffffffffffffff5d576e7357a4501ddfe92f46681b20a08211156118405760405162461bcd60e51b815260206004820152601e60248201527f5369676e61747572653a20496e76616c6964207320706172616d65746572000060448201526064016105b6565b8360ff16601b148061185557508360ff16601c145b6118a15760405162461bcd60e51b815260206004820152601e60248201527f5369676e61747572653a20496e76616c6964207620706172616d65746572000060448201526064016105b6565b6040805160008082526020820180845288905260ff871692820192909252606081018590526080810184905260019060a0016020604051602081039080840390855afa1580156118f5573d6000803e3d6000fd5b5050604051601f1901519150506001600160a01b0381166119585760405162461bcd60e51b815260206004820152601960248201527f5369676e61747572653a20496e76616c6964207369676e65720000000000000060448201526064016105b6565b95945050505050565b6001600160a01b0381168114610f3257600080fd5b60006020828403121561198857600080fd5b813561199381611961565b9392505050565b600061010082840312156119ad57600080fd5b50919050565b600080604083850312156119c657600080fd5b82356119d181611961565b946020939093013593505050565b6000602082840312156119f157600080fd5b5035919050565b60008060408385031215611a0b57600080fd5b82359150602083013560058110611a2157600080fd5b809150509250929050565b600060208284031215611a3e57600080fd5b815161199381611961565b60208082526013908201527221b0b63632b91034b9903737ba1037bbb732b960691b604082015260600190565b634e487b7160e01b600052601160045260246000fd5b80820180821115610b4557610b45611a76565b8082028115828204841417610b4557610b45611a76565b600082611ad357634e487b7160e01b600052601260045260246000fd5b500490565b600060208284031215611aea57600080fd5b813560ff8116811461199357600080fd5b634e487b7160e01b600052602160045260246000fd5b6001600160a01b038516815260208101849052604081018390526080810160058310611b4d57634e487b7160e01b600052602160045260246000fd5b82606083015295945050505050565b80516001600160701b0381168114611b7357600080fd5b919050565b600080600060608486031215611b8d57600080fd5b611b9684611b5c565b9250611ba460208501611b5c565b9150604084015163ffffffff81168114611bbd57600080fd5b809150509250925092565b6000825160005b81811015611be95760208186018101518583015201611bcf565b506000920191825250919050565b600060208284031215611c0957600080fd5b8151801515811461199357600080fdfea2646970667358221220b8224f6048b2d521273e6203922d92c65efb36875cbb5ed7e31d5c4aa216662964736f6c63430008120033",
					"opcodes": "PUSH1 0x80 PUSH1 0x40 MSTORE CALLVALUE DUP1 ISZERO PUSH2 0x10 JUMPI PUSH1 0x0 DUP1 REVERT JUMPDEST POP PUSH1 0x0 DUP1 SLOAD PUSH1 0x1 PUSH1 0x1 PUSH1 0xA0 SHL SUB NOT AND CALLER OR SWAP1 SSTORE PUSH2 0x1C4F DUP1 PUSH2 0x32 PUSH1 0x0 CODECOPY PUSH1 0x0 RETURN INVALID PUSH1 0x80 PUSH1 0x40 MSTORE PUSH1 0x4 CALLDATASIZE LT PUSH2 0x144 JUMPI PUSH1 0x0 CALLDATALOAD PUSH1 0xE0 SHR DUP1 PUSH4 0x5C60DA1B GT PUSH2 0xB6 JUMPI DUP1 PUSH4 0xBC446708 GT PUSH2 0x6F JUMPI DUP1 PUSH4 0xBC446708 EQ PUSH2 0x39A JUMPI DUP1 PUSH4 0xBC7FB169 EQ PUSH2 0x41A JUMPI DUP1 PUSH4 0xC4D66DE8 EQ PUSH2 0x43A JUMPI DUP1 PUSH4 0xD13319C4 EQ PUSH2 0x45A JUMPI DUP1 PUSH4 0xF851A440 EQ PUSH2 0x48D JUMPI DUP1 PUSH4 0xFC0C546A EQ PUSH2 0x4AD JUMPI PUSH1 0x0 DUP1 REVERT JUMPDEST DUP1 PUSH4 0x5C60DA1B EQ PUSH2 0x2BD JUMPI DUP1 PUSH4 0x5E43CD68 EQ PUSH2 0x2DD JUMPI DUP1 PUSH4 0x704B6C02 EQ PUSH2 0x30D JUMPI DUP1 PUSH4 0x88E3988F EQ PUSH2 0x32D JUMPI DUP1 PUSH4 0x8FE7002C EQ PUSH2 0x34D JUMPI DUP1 PUSH4 0x993B37DA EQ PUSH2 0x36D JUMPI PUSH1 0x0 DUP1 REVERT JUMPDEST DUP1 PUSH4 0x3644E515 GT PUSH2 0x108 JUMPI DUP1 PUSH4 0x3644E515 EQ PUSH2 0x212 JUMPI DUP1 PUSH4 0x36CF7C87 EQ PUSH2 0x228 JUMPI DUP1 PUSH4 0x40003763 EQ PUSH2 0x248 JUMPI DUP1 PUSH4 0x4B94F50E EQ PUSH2 0x268 JUMPI DUP1 PUSH4 0x5777E93D EQ PUSH2 0x27D JUMPI DUP1 PUSH4 0x59D0F713 EQ PUSH2 0x29D JUMPI PUSH1 0x0 DUP1 REVERT JUMPDEST DUP1 PUSH4 0x8760B0D EQ PUSH2 0x150 JUMPI DUP1 PUSH4 0x144FA6D7 EQ PUSH2 0x178 JUMPI DUP1 PUSH4 0x1694505E EQ PUSH2 0x19A JUMPI DUP1 PUSH4 0x2F48AB7D EQ PUSH2 0x1D2 JUMPI DUP1 PUSH4 0x32105E46 EQ PUSH2 0x1F2 JUMPI PUSH1 0x0 DUP1 REVERT JUMPDEST CALLDATASIZE PUSH2 0x14B JUMPI STOP JUMPDEST PUSH1 0x0 DUP1 REVERT JUMPDEST CALLVALUE DUP1 ISZERO PUSH2 0x15C JUMPI PUSH1 0x0 DUP1 REVERT JUMPDEST POP PUSH2 0x165 PUSH2 0x4CD JUMP JUMPDEST PUSH1 0x40 MLOAD SWAP1 DUP2 MSTORE PUSH1 0x20 ADD JUMPDEST PUSH1 0x40 MLOAD DUP1 SWAP2 SUB SWAP1 RETURN JUMPDEST CALLVALUE DUP1 ISZERO PUSH2 0x184 JUMPI PUSH1 0x0 DUP1 REVERT JUMPDEST POP PUSH2 0x198 PUSH2 0x193 CALLDATASIZE PUSH1 0x4 PUSH2 0x1976 JUMP JUMPDEST PUSH2 0x58C JUMP JUMPDEST STOP JUMPDEST CALLVALUE DUP1 ISZERO PUSH2 0x1A6 JUMPI PUSH1 0x0 DUP1 REVERT JUMPDEST POP PUSH1 0x8 SLOAD PUSH2 0x1BA SWAP1 PUSH1 0x1 PUSH1 0x1 PUSH1 0xA0 SHL SUB AND DUP2 JUMP JUMPDEST PUSH1 0x40 MLOAD PUSH1 0x1 PUSH1 0x1 PUSH1 0xA0 SHL SUB SWAP1 SWAP2 AND DUP2 MSTORE PUSH1 0x20 ADD PUSH2 0x16F JUMP JUMPDEST CALLVALUE DUP1 ISZERO PUSH2 0x1DE JUMPI PUSH1 0x0 DUP1 REVERT JUMPDEST POP PUSH1 0x7 SLOAD PUSH2 0x1BA SWAP1 PUSH1 0x1 PUSH1 0x1 PUSH1 0xA0 SHL SUB AND DUP2 JUMP JUMPDEST CALLVALUE DUP1 ISZERO PUSH2 0x1FE JUMPI PUSH1 0x0 DUP1 REVERT JUMPDEST POP PUSH2 0x198 PUSH2 0x20D CALLDATASIZE PUSH1 0x4 PUSH2 0x1976 JUMP JUMPDEST PUSH2 0x5E1 JUMP JUMPDEST CALLVALUE DUP1 ISZERO PUSH2 0x21E JUMPI PUSH1 0x0 DUP1 REVERT JUMPDEST POP PUSH2 0x165 PUSH1 0xA SLOAD DUP2 JUMP JUMPDEST CALLVALUE DUP1 ISZERO PUSH2 0x234 JUMPI PUSH1 0x0 DUP1 REVERT JUMPDEST POP PUSH1 0x6 SLOAD PUSH2 0x1BA SWAP1 PUSH1 0x1 PUSH1 0x1 PUSH1 0xA0 SHL SUB AND DUP2 JUMP JUMPDEST CALLVALUE DUP1 ISZERO PUSH2 0x254 JUMPI PUSH1 0x0 DUP1 REVERT JUMPDEST POP PUSH2 0x198 PUSH2 0x263 CALLDATASIZE PUSH1 0x4 PUSH2 0x199A JUMP JUMPDEST PUSH2 0x62D JUMP JUMPDEST CALLVALUE DUP1 ISZERO PUSH2 0x274 JUMPI PUSH1 0x0 DUP1 REVERT JUMPDEST POP PUSH2 0x165 PUSH2 0xAC2 JUMP JUMPDEST CALLVALUE DUP1 ISZERO PUSH2 0x289 JUMPI PUSH1 0x0 DUP1 REVERT JUMPDEST POP PUSH1 0x5 SLOAD PUSH2 0x1BA SWAP1 PUSH1 0x1 PUSH1 0x1 PUSH1 0xA0 SHL SUB AND DUP2 JUMP JUMPDEST CALLVALUE DUP1 ISZERO PUSH2 0x2A9 JUMPI PUSH1 0x0 DUP1 REVERT JUMPDEST POP PUSH1 0x9 SLOAD PUSH2 0x1BA SWAP1 PUSH1 0x1 PUSH1 0x1 PUSH1 0xA0 SHL SUB AND DUP2 JUMP JUMPDEST CALLVALUE DUP1 ISZERO PUSH2 0x2C9 JUMPI PUSH1 0x0 DUP1 REVERT JUMPDEST POP PUSH1 0x1 SLOAD PUSH2 0x1BA SWAP1 PUSH1 0x1 PUSH1 0x1 PUSH1 0xA0 SHL SUB AND DUP2 JUMP JUMPDEST CALLVALUE DUP1 ISZERO PUSH2 0x2E9 JUMPI PUSH1 0x0 DUP1 REVERT JUMPDEST POP PUSH2 0x2FD PUSH2 0x2F8 CALLDATASIZE PUSH1 0x4 PUSH2 0x199A JUMP JUMPDEST PUSH2 0xB09 JUMP JUMPDEST PUSH1 0x40 MLOAD SWAP1 ISZERO ISZERO DUP2 MSTORE PUSH1 0x20 ADD PUSH2 0x16F JUMP JUMPDEST CALLVALUE DUP1 ISZERO PUSH2 0x319 JUMPI PUSH1 0x0 DUP1 REVERT JUMPDEST POP PUSH2 0x198 PUSH2 0x328 CALLDATASIZE PUSH1 0x4 PUSH2 0x1976 JUMP JUMPDEST PUSH2 0xB4B JUMP JUMPDEST CALLVALUE DUP1 ISZERO PUSH2 0x339 JUMPI PUSH1 0x0 DUP1 REVERT JUMPDEST POP PUSH2 0x198 PUSH2 0x348 CALLDATASIZE PUSH1 0x4 PUSH2 0x19B3 JUMP JUMPDEST PUSH2 0xB97 JUMP JUMPDEST CALLVALUE DUP1 ISZERO PUSH2 0x359 JUMPI PUSH1 0x0 DUP1 REVERT JUMPDEST POP PUSH2 0x198 PUSH2 0x368 CALLDATASIZE PUSH1 0x4 PUSH2 0x19B3 JUMP JUMPDEST PUSH2 0xBD8 JUMP JUMPDEST CALLVALUE DUP1 ISZERO PUSH2 0x379 JUMPI PUSH1 0x0 DUP1 REVERT JUMPDEST POP PUSH2 0x165 PUSH2 0x388 CALLDATASIZE PUSH1 0x4 PUSH2 0x1976 JUMP JUMPDEST PUSH1 0xB PUSH1 0x20 MSTORE PUSH1 0x0 SWAP1 DUP2 MSTORE PUSH1 0x40 SWAP1 KECCAK256 SLOAD DUP2 JUMP JUMPDEST CALLVALUE DUP1 ISZERO PUSH2 0x3A6 JUMPI PUSH1 0x0 DUP1 REVERT JUMPDEST POP PUSH2 0x3EA PUSH2 0x3B5 CALLDATASIZE PUSH1 0x4 PUSH2 0x19DF JUMP JUMPDEST PUSH1 0x3 PUSH1 0x20 DUP2 SWAP1 MSTORE PUSH1 0x0 SWAP2 DUP3 MSTORE PUSH1 0x40 SWAP1 SWAP2 KECCAK256 DUP1 SLOAD PUSH1 0x1 DUP3 ADD SLOAD PUSH1 0x2 DUP4 ADD SLOAD SWAP3 SWAP1 SWAP4 ADD SLOAD SWAP1 SWAP3 PUSH1 0x1 PUSH1 0x1 PUSH1 0xA0 SHL SUB SWAP1 DUP2 AND SWAP3 AND SWAP1 DUP5 JUMP JUMPDEST PUSH1 0x40 MLOAD PUSH2 0x16F SWAP5 SWAP4 SWAP3 SWAP2 SWAP1 SWAP4 DUP5 MSTORE PUSH1 0x1 PUSH1 0x1 PUSH1 0xA0 SHL SUB SWAP3 DUP4 AND PUSH1 0x20 DUP6 ADD MSTORE SWAP2 AND PUSH1 0x40 DUP4 ADD MSTORE PUSH1 0x60 DUP3 ADD MSTORE PUSH1 0x80 ADD SWAP1 JUMP JUMPDEST CALLVALUE DUP1 ISZERO PUSH2 0x426 JUMPI PUSH1 0x0 DUP1 REVERT JUMPDEST POP PUSH2 0x198 PUSH2 0x435 CALLDATASIZE PUSH1 0x4 PUSH2 0x19F8 JUMP JUMPDEST PUSH2 0xC0C JUMP JUMPDEST CALLVALUE DUP1 ISZERO PUSH2 0x446 JUMPI PUSH1 0x0 DUP1 REVERT JUMPDEST POP PUSH2 0x198 PUSH2 0x455 CALLDATASIZE PUSH1 0x4 PUSH2 0x1976 JUMP JUMPDEST PUSH2 0xDAA JUMP JUMPDEST CALLVALUE DUP1 ISZERO PUSH2 0x466 JUMPI PUSH1 0x0 DUP1 REVERT JUMPDEST POP PUSH32 0xB5F106453E92C83F8EF471E09A8097B99888030BEB671302E7C318E4D198C6E3 PUSH2 0x165 JUMP JUMPDEST CALLVALUE DUP1 ISZERO PUSH2 0x499 JUMPI PUSH1 0x0 DUP1 REVERT JUMPDEST POP PUSH1 0x0 SLOAD PUSH2 0x1BA SWAP1 PUSH1 0x1 PUSH1 0x1 PUSH1 0xA0 SHL SUB AND DUP2 JUMP JUMPDEST CALLVALUE DUP1 ISZERO PUSH2 0x4B9 JUMPI PUSH1 0x0 DUP1 REVERT JUMPDEST POP PUSH1 0x4 SLOAD PUSH2 0x1BA SWAP1 PUSH1 0x1 PUSH1 0x1 PUSH1 0xA0 SHL SUB AND DUP2 JUMP JUMPDEST PUSH1 0x0 DUP1 PUSH1 0x8 PUSH1 0x0 SWAP1 SLOAD SWAP1 PUSH2 0x100 EXP SWAP1 DIV PUSH1 0x1 PUSH1 0x1 PUSH1 0xA0 SHL SUB AND PUSH1 0x1 PUSH1 0x1 PUSH1 0xA0 SHL SUB AND PUSH4 0xAD5C4648 PUSH1 0x40 MLOAD DUP2 PUSH4 0xFFFFFFFF AND PUSH1 0xE0 SHL DUP2 MSTORE PUSH1 0x4 ADD PUSH1 0x20 PUSH1 0x40 MLOAD DUP1 DUP4 SUB DUP2 DUP7 GAS STATICCALL ISZERO DUP1 ISZERO PUSH2 0x523 JUMPI RETURNDATASIZE PUSH1 0x0 DUP1 RETURNDATACOPY RETURNDATASIZE PUSH1 0x0 REVERT JUMPDEST POP POP POP POP PUSH1 0x40 MLOAD RETURNDATASIZE PUSH1 0x1F NOT PUSH1 0x1F DUP3 ADD AND DUP3 ADD DUP1 PUSH1 0x40 MSTORE POP DUP2 ADD SWAP1 PUSH2 0x547 SWAP2 SWAP1 PUSH2 0x1A2C JUMP JUMPDEST PUSH1 0x9 SLOAD PUSH1 0x7 SLOAD SWAP2 SWAP3 POP PUSH1 0x0 SWAP2 DUP3 SWAP2 PUSH2 0x56D SWAP2 PUSH1 0x1 PUSH1 0x1 PUSH1 0xA0 SHL SUB SWAP2 DUP3 AND SWAP2 DUP7 SWAP2 AND PUSH2 0xF35 JUMP JUMPDEST SWAP2 POP SWAP2 POP PUSH2 0x584 PUSH8 0xDE0B6B3A7640000 DUP4 DUP4 PUSH2 0xFFF JUMP JUMPDEST SWAP4 POP POP POP POP SWAP1 JUMP JUMPDEST PUSH1 0x0 SLOAD PUSH1 0x1 PUSH1 0x1 PUSH1 0xA0 SHL SUB AND CALLER EQ PUSH2 0x5BF JUMPI PUSH1 0x40 MLOAD PUSH3 0x461BCD PUSH1 0xE5 SHL DUP2 MSTORE PUSH1 0x4 ADD PUSH2 0x5B6 SWAP1 PUSH2 0x1A49 JUMP JUMPDEST PUSH1 0x40 MLOAD DUP1 SWAP2 SUB SWAP1 REVERT JUMPDEST PUSH1 0x4 DUP1 SLOAD PUSH1 0x1 PUSH1 0x1 PUSH1 0xA0 SHL SUB NOT AND PUSH1 0x1 PUSH1 0x1 PUSH1 0xA0 SHL SUB SWAP3 SWAP1 SWAP3 AND SWAP2 SWAP1 SWAP2 OR SWAP1 SSTORE JUMP JUMPDEST PUSH1 0x0 SLOAD PUSH1 0x1 PUSH1 0x1 PUSH1 0xA0 SHL SUB AND CALLER EQ PUSH2 0x60B JUMPI PUSH1 0x40 MLOAD PUSH3 0x461BCD PUSH1 0xE5 SHL DUP2 MSTORE PUSH1 0x4 ADD PUSH2 0x5B6 SWAP1 PUSH2 0x1A49 JUMP JUMPDEST PUSH1 0x5 DUP1 SLOAD PUSH1 0x1 PUSH1 0x1 PUSH1 0xA0 SHL SUB NOT AND PUSH1 0x1 PUSH1 0x1 PUSH1 0xA0 SHL SUB SWAP3 SWAP1 SWAP3 AND SWAP2 SWAP1 SWAP2 OR SWAP1 SSTORE JUMP JUMPDEST TIMESTAMP DUP2 PUSH1 0x80 ADD CALLDATALOAD LT ISZERO PUSH2 0x68B JUMPI PUSH1 0x40 MLOAD PUSH3 0x461BCD PUSH1 0xE5 SHL DUP2 MSTORE PUSH1 0x20 PUSH1 0x4 DUP3 ADD MSTORE PUSH1 0x21 PUSH1 0x24 DUP3 ADD MSTORE PUSH32 0x506C65646167653A496E76616C6964207769746864726177206475726174696F PUSH1 0x44 DUP3 ADD MSTORE PUSH1 0x37 PUSH1 0xF9 SHL PUSH1 0x64 DUP3 ADD MSTORE PUSH1 0x84 ADD PUSH2 0x5B6 JUMP JUMPDEST PUSH2 0x694 DUP2 PUSH2 0xB09 JUMP JUMPDEST PUSH2 0x6E0 JUMPI PUSH1 0x40 MLOAD PUSH3 0x461BCD PUSH1 0xE5 SHL DUP2 MSTORE PUSH1 0x20 PUSH1 0x4 DUP3 ADD MSTORE PUSH1 0x1D PUSH1 0x24 DUP3 ADD MSTORE PUSH32 0x506C65646167653A496E76616C69642077697468647261772064617461000000 PUSH1 0x44 DUP3 ADD MSTORE PUSH1 0x64 ADD PUSH2 0x5B6 JUMP JUMPDEST PUSH1 0x0 PUSH2 0x6F2 PUSH1 0x40 DUP4 ADD PUSH1 0x20 DUP5 ADD PUSH2 0x1976 JUMP JUMPDEST PUSH1 0x1 PUSH1 0x1 PUSH1 0xA0 SHL SUB AND SUB PUSH2 0x748 JUMPI PUSH1 0x40 MLOAD PUSH3 0x461BCD PUSH1 0xE5 SHL DUP2 MSTORE PUSH1 0x20 PUSH1 0x4 DUP3 ADD DUP2 SWAP1 MSTORE PUSH1 0x24 DUP3 ADD MSTORE PUSH32 0x506C65646167653A496E76616C69642077697468647261772061646472657373 PUSH1 0x44 DUP3 ADD MSTORE PUSH1 0x64 ADD PUSH2 0x5B6 JUMP JUMPDEST PUSH1 0x0 DUP2 PUSH1 0x40 ADD CALLDATALOAD GT PUSH2 0x79C JUMPI PUSH1 0x40 MLOAD PUSH3 0x461BCD PUSH1 0xE5 SHL DUP2 MSTORE PUSH1 0x20 PUSH1 0x4 DUP3 ADD MSTORE PUSH1 0x1F PUSH1 0x24 DUP3 ADD MSTORE PUSH32 0x506C65646167653A496E76616C696420776974686472617720616D6F756E7400 PUSH1 0x44 DUP3 ADD MSTORE PUSH1 0x64 ADD PUSH2 0x5B6 JUMP JUMPDEST CALLER PUSH2 0x7AD PUSH1 0x40 DUP4 ADD PUSH1 0x20 DUP5 ADD PUSH2 0x1976 JUMP JUMPDEST PUSH1 0x1 PUSH1 0x1 PUSH1 0xA0 SHL SUB AND EQ PUSH2 0x80F JUMPI PUSH1 0x40 MLOAD PUSH3 0x461BCD PUSH1 0xE5 SHL DUP2 MSTORE PUSH1 0x20 PUSH1 0x4 DUP3 ADD MSTORE PUSH1 0x24 DUP1 DUP3 ADD MSTORE PUSH32 0x506C65646167653A4C61636B206F66206F7065726174696E67207065726D6973 PUSH1 0x44 DUP3 ADD MSTORE PUSH4 0x39B4B7B7 PUSH1 0xE1 SHL PUSH1 0x64 DUP3 ADD MSTORE PUSH1 0x84 ADD PUSH2 0x5B6 JUMP JUMPDEST CALLER PUSH1 0x0 SWAP1 DUP2 MSTORE PUSH1 0xB PUSH1 0x20 MSTORE PUSH1 0x40 SWAP1 DUP2 SWAP1 KECCAK256 SLOAD SWAP1 DUP3 ADD CALLDATALOAD SWAP1 SUB PUSH2 0x881 JUMPI PUSH1 0x40 MLOAD PUSH3 0x461BCD PUSH1 0xE5 SHL DUP2 MSTORE PUSH1 0x20 PUSH1 0x4 DUP3 ADD MSTORE PUSH1 0x25 PUSH1 0x24 DUP3 ADD MSTORE PUSH32 0x506C65646167653A5265706561746564207769746864726177616C206F706572 PUSH1 0x44 DUP3 ADD MSTORE PUSH5 0x30BA34B7B7 PUSH1 0xD9 SHL PUSH1 0x64 DUP3 ADD MSTORE PUSH1 0x84 ADD PUSH2 0x5B6 JUMP JUMPDEST CALLER PUSH1 0x0 SWAP1 DUP2 MSTORE PUSH1 0xB PUSH1 0x20 SWAP1 DUP2 MSTORE PUSH1 0x40 DUP1 DUP4 KECCAK256 DUP2 DUP6 ADD CALLDATALOAD SWAP1 DUP2 SWAP1 SSTORE PUSH1 0x60 DUP6 ADD CALLDATALOAD DUP5 MSTORE PUSH1 0x3 SWAP3 DUP4 SWAP1 MSTORE SWAP1 DUP4 KECCAK256 SWAP2 DUP3 ADD DUP1 SLOAD SWAP3 SWAP4 SWAP2 SWAP3 SWAP1 SWAP2 SWAP1 PUSH2 0x8C2 SWAP1 DUP5 SWAP1 PUSH2 0x1A8C JUMP JUMPDEST SWAP1 SWAP2 SSTORE POP PUSH2 0x8D5 SWAP1 POP PUSH1 0x20 DUP4 ADD DUP4 PUSH2 0x1976 JUMP JUMPDEST PUSH1 0x2 DUP3 ADD DUP1 SLOAD PUSH1 0x1 PUSH1 0x1 PUSH1 0xA0 SHL SUB NOT AND PUSH1 0x1 PUSH1 0x1 PUSH1 0xA0 SHL SUB SWAP3 SWAP1 SWAP3 AND SWAP2 SWAP1 SWAP2 OR SWAP1 SSTORE PUSH2 0x907 PUSH1 0x40 DUP4 ADD PUSH1 0x20 DUP5 ADD PUSH2 0x1976 JUMP JUMPDEST PUSH1 0x1 DUP3 ADD DUP1 SLOAD PUSH1 0x1 PUSH1 0x1 PUSH1 0xA0 SHL SUB NOT AND PUSH1 0x1 PUSH1 0x1 PUSH1 0xA0 SHL SUB SWAP3 DUP4 AND OR SWAP1 SSTORE PUSH1 0x4 SLOAD PUSH1 0x2 DUP4 ADD SLOAD SWAP1 DUP3 AND SWAP2 AND SUB PUSH2 0xA22 JUMPI PUSH1 0x4 SLOAD PUSH2 0x977 SWAP1 PUSH1 0x1 PUSH1 0x1 PUSH1 0xA0 SHL SUB AND PUSH2 0x957 PUSH1 0x40 DUP6 ADD PUSH1 0x20 DUP7 ADD PUSH2 0x1976 JUMP JUMPDEST PUSH1 0x64 PUSH2 0x968 PUSH1 0x40 DUP8 ADD CALLDATALOAD PUSH1 0x63 PUSH2 0x1A9F JUMP JUMPDEST PUSH2 0x972 SWAP2 SWAP1 PUSH2 0x1AB6 JUMP JUMPDEST PUSH2 0x111E JUMP JUMPDEST PUSH1 0x4 SLOAD PUSH2 0x9A8 SWAP1 PUSH1 0x1 PUSH1 0x1 PUSH1 0xA0 SHL SUB AND PUSH2 0x997 PUSH1 0x40 DUP6 ADD PUSH1 0x20 DUP7 ADD PUSH2 0x1976 JUMP JUMPDEST PUSH1 0x64 PUSH2 0x968 PUSH1 0x40 DUP8 ADD CALLDATALOAD PUSH1 0x1 PUSH2 0x1A9F JUMP JUMPDEST PUSH32 0xFE7813E2866053D5C3938554E517B554FCE6666A6561BED9EAA7419B29FA9B68 PUSH1 0x60 DUP4 ADD CALLDATALOAD PUSH2 0x9DE PUSH1 0x40 DUP6 ADD PUSH1 0x20 DUP7 ADD PUSH2 0x1976 JUMP JUMPDEST PUSH2 0x9EB PUSH1 0x20 DUP7 ADD DUP7 PUSH2 0x1976 JUMP JUMPDEST PUSH1 0x40 DUP1 MLOAD SWAP4 DUP5 MSTORE PUSH1 0x1 PUSH1 0x1 PUSH1 0xA0 SHL SUB SWAP3 DUP4 AND PUSH1 0x20 DUP6 ADD MSTORE SWAP2 AND DUP3 DUP3 ADD MSTORE DUP5 ADD CALLDATALOAD PUSH1 0x60 DUP3 ADD MSTORE TIMESTAMP PUSH1 0x80 DUP3 ADD MSTORE PUSH1 0xA0 ADD PUSH1 0x40 MLOAD DUP1 SWAP2 SUB SWAP1 LOG1 JUMPDEST PUSH1 0x2 DUP2 ADD SLOAD PUSH1 0x1 PUSH1 0x1 PUSH1 0xA0 SHL SUB AND PUSH2 0xABE JUMPI PUSH2 0xA51 PUSH2 0xA47 PUSH1 0x40 DUP5 ADD PUSH1 0x20 DUP6 ADD PUSH2 0x1976 JUMP JUMPDEST DUP4 PUSH1 0x40 ADD CALLDATALOAD PUSH2 0x1239 JUMP JUMPDEST PUSH32 0xFE7813E2866053D5C3938554E517B554FCE6666A6561BED9EAA7419B29FA9B68 PUSH1 0x60 DUP4 ADD CALLDATALOAD PUSH2 0xA87 PUSH1 0x40 DUP6 ADD PUSH1 0x20 DUP7 ADD PUSH2 0x1976 JUMP JUMPDEST PUSH1 0x40 DUP1 MLOAD SWAP3 DUP4 MSTORE PUSH1 0x1 PUSH1 0x1 PUSH1 0xA0 SHL SUB SWAP1 SWAP2 AND PUSH1 0x20 DUP4 ADD MSTORE PUSH1 0x0 DUP3 DUP3 ADD MSTORE DUP5 ADD CALLDATALOAD PUSH1 0x60 DUP3 ADD MSTORE TIMESTAMP PUSH1 0x80 DUP3 ADD MSTORE PUSH1 0xA0 ADD PUSH1 0x40 MLOAD DUP1 SWAP2 SUB SWAP1 LOG1 JUMPDEST POP POP JUMP JUMPDEST PUSH1 0x9 SLOAD PUSH1 0x4 SLOAD PUSH1 0x7 SLOAD PUSH1 0x0 SWAP3 DUP4 SWAP3 DUP4 SWAP3 PUSH2 0xAEB SWAP3 PUSH1 0x1 PUSH1 0x1 PUSH1 0xA0 SHL SUB SWAP1 DUP2 AND SWAP3 DUP2 AND SWAP2 AND PUSH2 0xF35 JUMP JUMPDEST SWAP2 POP SWAP2 POP PUSH2 0xB02 PUSH8 0xDE0B6B3A7640000 DUP4 DUP4 PUSH2 0xFFF JUMP JUMPDEST SWAP3 POP POP POP SWAP1 JUMP JUMPDEST PUSH1 0x0 PUSH2 0xB45 PUSH2 0xB17 DUP4 PUSH2 0x1307 JUMP JUMPDEST PUSH1 0x5 SLOAD PUSH1 0x1 PUSH1 0x1 PUSH1 0xA0 SHL SUB AND PUSH2 0xB33 PUSH1 0xC0 DUP7 ADD PUSH1 0xA0 DUP8 ADD PUSH2 0x1AD8 JUMP JUMPDEST DUP6 PUSH1 0xC0 ADD CALLDATALOAD DUP7 PUSH1 0xE0 ADD CALLDATALOAD PUSH1 0xA SLOAD PUSH2 0x13AB JUMP JUMPDEST SWAP3 SWAP2 POP POP JUMP JUMPDEST PUSH1 0x0 SLOAD PUSH1 0x1 PUSH1 0x1 PUSH1 0xA0 SHL SUB AND CALLER EQ PUSH2 0xB75 JUMPI PUSH1 0x40 MLOAD PUSH3 0x461BCD PUSH1 0xE5 SHL DUP2 MSTORE PUSH1 0x4 ADD PUSH2 0x5B6 SWAP1 PUSH2 0x1A49 JUMP JUMPDEST PUSH1 0x0 DUP1 SLOAD PUSH1 0x1 PUSH1 0x1 PUSH1 0xA0 SHL SUB NOT AND PUSH1 0x1 PUSH1 0x1 PUSH1 0xA0 SHL SUB SWAP3 SWAP1 SWAP3 AND SWAP2 SWAP1 SWAP2 OR SWAP1 SSTORE JUMP JUMPDEST PUSH1 0x0 SLOAD PUSH1 0x1 PUSH1 0x1 PUSH1 0xA0 SHL SUB AND CALLER EQ PUSH2 0xBC1 JUMPI PUSH1 0x40 MLOAD PUSH3 0x461BCD PUSH1 0xE5 SHL DUP2 MSTORE PUSH1 0x4 ADD PUSH2 0x5B6 SWAP1 PUSH2 0x1A49 JUMP JUMPDEST PUSH1 0x4 SLOAD PUSH2 0xABE SWAP1 PUSH1 0x1 PUSH1 0x1 PUSH1 0xA0 SHL SUB AND DUP4 DUP4 PUSH2 0x111E JUMP JUMPDEST PUSH1 0x0 SLOAD PUSH1 0x1 PUSH1 0x1 PUSH1 0xA0 SHL SUB AND CALLER EQ PUSH2 0xC02 JUMPI PUSH1 0x40 MLOAD PUSH3 0x461BCD PUSH1 0xE5 SHL DUP2 MSTORE PUSH1 0x4 ADD PUSH2 0x5B6 SWAP1 PUSH2 0x1A49 JUMP JUMPDEST PUSH2 0xABE DUP3 DUP3 PUSH2 0x1239 JUMP JUMPDEST PUSH9 0x56BC75E2D63100000 DUP3 LT ISZERO PUSH2 0xC65 JUMPI PUSH1 0x40 MLOAD PUSH3 0x461BCD PUSH1 0xE5 SHL DUP2 MSTORE PUSH1 0x20 PUSH1 0x4 DUP3 ADD MSTORE PUSH1 0x1E PUSH1 0x24 DUP3 ADD MSTORE PUSH32 0x506C65646167653A496E76616C69642070726F7669646520616D6F756E740000 PUSH1 0x44 DUP3 ADD MSTORE PUSH1 0x64 ADD PUSH2 0x5B6 JUMP JUMPDEST PUSH1 0x0 DUP2 PUSH1 0x4 DUP2 GT ISZERO PUSH2 0xC79 JUMPI PUSH2 0xC79 PUSH2 0x1AFB JUMP JUMPDEST SUB PUSH2 0xCD1 JUMPI PUSH1 0x40 MLOAD PUSH3 0x461BCD PUSH1 0xE5 SHL DUP2 MSTORE PUSH1 0x20 PUSH1 0x4 DUP3 ADD MSTORE PUSH1 0x22 PUSH1 0x24 DUP3 ADD MSTORE PUSH32 0x506C65646167653A496E76616C69642070726F76696465206578706972617469 PUSH1 0x44 DUP3 ADD MSTORE PUSH2 0x37B7 PUSH1 0xF1 SHL PUSH1 0x64 DUP3 ADD MSTORE PUSH1 0x84 ADD PUSH2 0x5B6 JUMP JUMPDEST PUSH1 0x4 SLOAD PUSH2 0xCE9 SWAP1 PUSH1 0x1 PUSH1 0x1 PUSH1 0xA0 SHL SUB AND CALLER ADDRESS DUP6 PUSH2 0x1413 JUMP JUMPDEST CALLER PUSH1 0x0 SWAP1 DUP2 MSTORE PUSH1 0x2 PUSH1 0x20 DUP2 DUP2 MSTORE PUSH1 0x40 DUP4 KECCAK256 DUP1 SLOAD PUSH1 0x1 DUP1 DUP3 ADD DUP4 SSTORE DUP3 DUP7 MSTORE DUP4 DUP7 KECCAK256 SWAP1 SWAP2 ADD DUP8 SWAP1 SSTORE SWAP3 DUP2 ADD DUP1 SLOAD SWAP4 DUP5 ADD DUP2 SSTORE DUP5 MSTORE SWAP3 DUP2 SWAP1 KECCAK256 SWAP1 DUP3 DIV ADD DUP1 SLOAD DUP5 SWAP3 PUSH1 0x1F AND PUSH2 0x100 EXP PUSH1 0xFF DUP2 MUL NOT SWAP1 SWAP2 AND SWAP1 DUP4 PUSH1 0x4 DUP2 GT ISZERO PUSH2 0xD49 JUMPI PUSH2 0xD49 PUSH2 0x1AFB JUMP JUMPDEST MUL OR SWAP1 SSTORE POP PUSH1 0x1 DUP1 DUP3 ADD DUP1 SLOAD SWAP2 DUP3 ADD DUP2 SSTORE PUSH1 0x0 SWAP1 DUP2 MSTORE PUSH1 0x20 SWAP1 KECCAK256 TIMESTAMP SWAP2 ADD DUP2 SWAP1 SSTORE PUSH1 0x40 MLOAD PUSH32 0x1AB2D7016A285CF7CA78BDD1C8A8E845F082FE124067D9137646150CED640816 SWAP2 PUSH2 0xD9D SWAP2 CALLER SWAP2 DUP8 SWAP2 DUP8 SWAP1 PUSH2 0x1B11 JUMP JUMPDEST PUSH1 0x40 MLOAD DUP1 SWAP2 SUB SWAP1 LOG1 POP POP POP JUMP JUMPDEST PUSH1 0x0 SLOAD PUSH1 0x1 PUSH1 0x1 PUSH1 0xA0 SHL SUB AND CALLER EQ PUSH2 0xDD4 JUMPI PUSH1 0x40 MLOAD PUSH3 0x461BCD PUSH1 0xE5 SHL DUP2 MSTORE PUSH1 0x4 ADD PUSH2 0x5B6 SWAP1 PUSH2 0x1A49 JUMP JUMPDEST PUSH1 0x8 DUP1 SLOAD PUSH1 0x1 PUSH1 0x1 PUSH1 0xA0 SHL SUB NOT SWAP1 DUP2 AND PUSH20 0x10ED43C718714EB63D5AA57B78B54704E256024E OR SWAP1 SWAP2 SSTORE PUSH1 0x9 DUP1 SLOAD DUP3 AND PUSH20 0xCA143CE32FE78F1F7019D7D551A6402FC5350C73 OR SWAP1 SSTORE PUSH1 0x7 DUP1 SLOAD DUP3 AND PUSH20 0x55D398326F99059FF775485246999027B3197955 OR SWAP1 SSTORE PUSH1 0x6 DUP1 SLOAD DUP3 AND PUSH2 0xDEAD OR SWAP1 SSTORE PUSH1 0x4 DUP1 SLOAD DUP3 AND PUSH20 0x33E0B24AAEA62500CA79D33E26EFE576BBF5BACF OR SWAP1 SSTORE PUSH1 0x5 DUP1 SLOAD PUSH1 0x1 PUSH1 0x1 PUSH1 0xA0 SHL SUB DUP5 AND SWAP3 AND SWAP2 SWAP1 SWAP2 OR SWAP1 SSTORE PUSH2 0xF32 PUSH1 0x40 DUP1 MLOAD DUP1 DUP3 ADD DUP3 MSTORE PUSH1 0x1 DUP2 MSTORE PUSH1 0x31 PUSH1 0xF8 SHL PUSH1 0x20 SWAP2 DUP3 ADD MSTORE DUP2 MLOAD PUSH32 0x8B73C3C69BB8FE3D512ECC4CF759CC79239F7B179B0FFACAA9A75D522B39400F DUP2 DUP4 ADD MSTORE PUSH32 0xED9E26FC34B201817108D14DB5E93FFF6700CFF6F5E90AC3B3DA395ABA756B5C DUP2 DUP5 ADD MSTORE PUSH32 0xC89EFDAA54C0F20C7ADF612882DF0950F5A951637E0307CDCB4C672F298B8BC6 PUSH1 0x60 DUP3 ADD MSTORE CHAINID PUSH1 0x80 DUP3 ADD MSTORE ADDRESS PUSH1 0xA0 DUP1 DUP4 ADD SWAP2 SWAP1 SWAP2 MSTORE DUP4 MLOAD DUP1 DUP4 SUB SWAP1 SWAP2 ADD DUP2 MSTORE PUSH1 0xC0 SWAP1 SWAP2 ADD SWAP1 SWAP3 MSTORE DUP2 MLOAD SWAP2 ADD KECCAK256 PUSH1 0xA SSTORE JUMP JUMPDEST POP JUMP JUMPDEST PUSH1 0x0 DUP1 PUSH1 0x0 PUSH2 0xF44 DUP6 DUP6 PUSH2 0x1543 JUMP JUMPDEST POP SWAP1 POP PUSH1 0x0 DUP1 PUSH2 0xF55 DUP9 DUP9 DUP9 PUSH2 0x163A JUMP JUMPDEST PUSH1 0x1 PUSH1 0x1 PUSH1 0xA0 SHL SUB AND PUSH4 0x902F1AC PUSH1 0x40 MLOAD DUP2 PUSH4 0xFFFFFFFF AND PUSH1 0xE0 SHL DUP2 MSTORE PUSH1 0x4 ADD PUSH1 0x60 PUSH1 0x40 MLOAD DUP1 DUP4 SUB DUP2 DUP7 GAS STATICCALL ISZERO DUP1 ISZERO PUSH2 0xF92 JUMPI RETURNDATASIZE PUSH1 0x0 DUP1 RETURNDATACOPY RETURNDATASIZE PUSH1 0x0 REVERT JUMPDEST POP POP POP POP PUSH1 0x40 MLOAD RETURNDATASIZE PUSH1 0x1F NOT PUSH1 0x1F DUP3 ADD AND DUP3 ADD DUP1 PUSH1 0x40 MSTORE POP DUP2 ADD SWAP1 PUSH2 0xFB6 SWAP2 SWAP1 PUSH2 0x1B78 JUMP JUMPDEST POP PUSH1 0x1 PUSH1 0x1 PUSH1 0x70 SHL SUB AND SWAP2 POP PUSH1 0x1 PUSH1 0x1 PUSH1 0x70 SHL SUB AND SWAP2 POP DUP3 PUSH1 0x1 PUSH1 0x1 PUSH1 0xA0 SHL SUB AND DUP8 PUSH1 0x1 PUSH1 0x1 PUSH1 0xA0 SHL SUB AND EQ PUSH2 0xFED JUMPI DUP1 DUP3 PUSH2 0xFF0 JUMP JUMPDEST DUP2 DUP2 JUMPDEST SWAP1 SWAP10 SWAP1 SWAP9 POP SWAP7 POP POP POP POP POP POP POP JUMP JUMPDEST PUSH1 0x0 DUP1 DUP5 GT PUSH2 0x1064 JUMPI PUSH1 0x40 MLOAD PUSH3 0x461BCD PUSH1 0xE5 SHL DUP2 MSTORE PUSH1 0x20 PUSH1 0x4 DUP3 ADD MSTORE PUSH1 0x2B PUSH1 0x24 DUP3 ADD MSTORE PUSH32 0x556E697377617056324C6962726172793A20494E53554646494349454E545F49 PUSH1 0x44 DUP3 ADD MSTORE PUSH11 0x1394155517D05353D55395 PUSH1 0xAA SHL PUSH1 0x64 DUP3 ADD MSTORE PUSH1 0x84 ADD PUSH2 0x5B6 JUMP JUMPDEST PUSH1 0x0 DUP4 GT DUP1 ISZERO PUSH2 0x1074 JUMPI POP PUSH1 0x0 DUP3 GT JUMPDEST PUSH2 0x10D1 JUMPI PUSH1 0x40 MLOAD PUSH3 0x461BCD PUSH1 0xE5 SHL DUP2 MSTORE PUSH1 0x20 PUSH1 0x4 DUP3 ADD MSTORE PUSH1 0x28 PUSH1 0x24 DUP3 ADD MSTORE PUSH32 0x556E697377617056324C6962726172793A20494E53554646494349454E545F4C PUSH1 0x44 DUP3 ADD MSTORE PUSH8 0x4951554944495459 PUSH1 0xC0 SHL PUSH1 0x64 DUP3 ADD MSTORE PUSH1 0x84 ADD PUSH2 0x5B6 JUMP JUMPDEST PUSH1 0x0 PUSH2 0x10DF DUP6 PUSH2 0x3E5 PUSH2 0x1712 JUMP JUMPDEST SWAP1 POP PUSH1 0x0 PUSH2 0x10ED DUP3 DUP6 PUSH2 0x1712 JUMP JUMPDEST SWAP1 POP PUSH1 0x0 PUSH2 0x1107 DUP4 PUSH2 0x1101 DUP9 PUSH2 0x3E8 PUSH2 0x1712 JUMP JUMPDEST SWAP1 PUSH2 0x1779 JUMP JUMPDEST SWAP1 POP PUSH2 0x1113 DUP2 DUP4 PUSH2 0x1AB6 JUMP JUMPDEST SWAP8 SWAP7 POP POP POP POP POP POP POP JUMP JUMPDEST PUSH1 0x40 DUP1 MLOAD PUSH1 0x1 PUSH1 0x1 PUSH1 0xA0 SHL SUB DUP5 DUP2 AND PUSH1 0x24 DUP4 ADD MSTORE PUSH1 0x44 DUP1 DUP4 ADD DUP6 SWAP1 MSTORE DUP4 MLOAD DUP1 DUP5 SUB SWAP1 SWAP2 ADD DUP2 MSTORE PUSH1 0x64 SWAP1 SWAP3 ADD DUP4 MSTORE PUSH1 0x20 DUP3 ADD DUP1 MLOAD PUSH1 0x1 PUSH1 0x1 PUSH1 0xE0 SHL SUB AND PUSH4 0xA9059CBB PUSH1 0xE0 SHL OR SWAP1 MSTORE SWAP2 MLOAD PUSH1 0x0 SWAP3 DUP4 SWAP3 SWAP1 DUP8 AND SWAP2 PUSH2 0x117A SWAP2 SWAP1 PUSH2 0x1BC8 JUMP JUMPDEST PUSH1 0x0 PUSH1 0x40 MLOAD DUP1 DUP4 SUB DUP2 PUSH1 0x0 DUP7 GAS CALL SWAP2 POP POP RETURNDATASIZE DUP1 PUSH1 0x0 DUP2 EQ PUSH2 0x11B7 JUMPI PUSH1 0x40 MLOAD SWAP2 POP PUSH1 0x1F NOT PUSH1 0x3F RETURNDATASIZE ADD AND DUP3 ADD PUSH1 0x40 MSTORE RETURNDATASIZE DUP3 MSTORE RETURNDATASIZE PUSH1 0x0 PUSH1 0x20 DUP5 ADD RETURNDATACOPY PUSH2 0x11BC JUMP JUMPDEST PUSH1 0x60 SWAP2 POP JUMPDEST POP SWAP2 POP SWAP2 POP DUP2 DUP1 ISZERO PUSH2 0x11E6 JUMPI POP DUP1 MLOAD ISZERO DUP1 PUSH2 0x11E6 JUMPI POP DUP1 DUP1 PUSH1 0x20 ADD SWAP1 MLOAD DUP2 ADD SWAP1 PUSH2 0x11E6 SWAP2 SWAP1 PUSH2 0x1BF7 JUMP JUMPDEST PUSH2 0x1232 JUMPI PUSH1 0x40 MLOAD PUSH3 0x461BCD PUSH1 0xE5 SHL DUP2 MSTORE PUSH1 0x20 PUSH1 0x4 DUP3 ADD MSTORE PUSH1 0x1F PUSH1 0x24 DUP3 ADD MSTORE PUSH32 0x5472616E7366657248656C7065723A205452414E534645525F4641494C454400 PUSH1 0x44 DUP3 ADD MSTORE PUSH1 0x64 ADD PUSH2 0x5B6 JUMP JUMPDEST POP POP POP POP POP JUMP JUMPDEST PUSH1 0x40 DUP1 MLOAD PUSH1 0x0 DUP1 DUP3 MSTORE PUSH1 0x20 DUP3 ADD SWAP1 SWAP3 MSTORE PUSH1 0x1 PUSH1 0x1 PUSH1 0xA0 SHL SUB DUP5 AND SWAP1 DUP4 SWAP1 PUSH1 0x40 MLOAD PUSH2 0x1263 SWAP2 SWAP1 PUSH2 0x1BC8 JUMP JUMPDEST PUSH1 0x0 PUSH1 0x40 MLOAD DUP1 DUP4 SUB DUP2 DUP6 DUP8 GAS CALL SWAP3 POP POP POP RETURNDATASIZE DUP1 PUSH1 0x0 DUP2 EQ PUSH2 0x12A0 JUMPI PUSH1 0x40 MLOAD SWAP2 POP PUSH1 0x1F NOT PUSH1 0x3F RETURNDATASIZE ADD AND DUP3 ADD PUSH1 0x40 MSTORE RETURNDATASIZE DUP3 MSTORE RETURNDATASIZE PUSH1 0x0 PUSH1 0x20 DUP5 ADD RETURNDATACOPY PUSH2 0x12A5 JUMP JUMPDEST PUSH1 0x60 SWAP2 POP JUMPDEST POP POP SWAP1 POP DUP1 PUSH2 0x1302 JUMPI PUSH1 0x40 MLOAD PUSH3 0x461BCD PUSH1 0xE5 SHL DUP2 MSTORE PUSH1 0x20 PUSH1 0x4 DUP3 ADD MSTORE PUSH1 0x23 PUSH1 0x24 DUP3 ADD MSTORE PUSH32 0x5472616E7366657248656C7065723A204554485F5452414E534645525F464149 PUSH1 0x44 DUP3 ADD MSTORE PUSH3 0x131151 PUSH1 0xEA SHL PUSH1 0x64 DUP3 ADD MSTORE PUSH1 0x84 ADD PUSH2 0x5B6 JUMP JUMPDEST POP POP POP JUMP JUMPDEST PUSH1 0x0 PUSH32 0xB5F106453E92C83F8EF471E09A8097B99888030BEB671302E7C318E4D198C6E3 PUSH2 0x1337 PUSH1 0x20 DUP5 ADD DUP5 PUSH2 0x1976 JUMP JUMPDEST PUSH2 0x1347 PUSH1 0x40 DUP6 ADD PUSH1 0x20 DUP7 ADD PUSH2 0x1976 JUMP JUMPDEST PUSH1 0x40 DUP1 MLOAD PUSH1 0x20 DUP2 ADD SWAP5 SWAP1 SWAP5 MSTORE PUSH1 0x1 PUSH1 0x1 PUSH1 0xA0 SHL SUB SWAP3 DUP4 AND DUP5 DUP3 ADD MSTORE SWAP2 AND PUSH1 0x60 DUP4 DUP2 ADD SWAP2 SWAP1 SWAP2 MSTORE SWAP1 DUP5 ADD CALLDATALOAD PUSH1 0x80 DUP4 DUP2 ADD SWAP2 SWAP1 SWAP2 MSTORE SWAP1 DUP5 ADD CALLDATALOAD PUSH1 0xA0 DUP4 ADD MSTORE DUP4 ADD CALLDATALOAD PUSH1 0xC0 DUP3 ADD MSTORE PUSH1 0xE0 ADD PUSH1 0x40 MLOAD PUSH1 0x20 DUP2 DUP4 SUB SUB DUP2 MSTORE SWAP1 PUSH1 0x40 MSTORE DUP1 MLOAD SWAP1 PUSH1 0x20 ADD KECCAK256 SWAP1 POP SWAP2 SWAP1 POP JUMP JUMPDEST PUSH1 0x40 MLOAD PUSH2 0x1901 PUSH1 0xF0 SHL PUSH1 0x20 DUP3 ADD MSTORE PUSH1 0x22 DUP2 ADD DUP3 SWAP1 MSTORE PUSH1 0x42 DUP2 ADD DUP8 SWAP1 MSTORE PUSH1 0x0 SWAP1 DUP2 SWAP1 PUSH1 0x62 ADD PUSH1 0x40 MLOAD PUSH1 0x20 DUP2 DUP4 SUB SUB DUP2 MSTORE SWAP1 PUSH1 0x40 MSTORE DUP1 MLOAD SWAP1 PUSH1 0x20 ADD KECCAK256 SWAP1 POP DUP7 PUSH1 0x1 PUSH1 0x1 PUSH1 0xA0 SHL SUB AND PUSH2 0x13FD DUP3 DUP9 DUP9 DUP9 PUSH2 0x17CE JUMP JUMPDEST PUSH1 0x1 PUSH1 0x1 PUSH1 0xA0 SHL SUB AND EQ SWAP9 SWAP8 POP POP POP POP POP POP POP POP JUMP JUMPDEST PUSH1 0x40 DUP1 MLOAD PUSH1 0x1 PUSH1 0x1 PUSH1 0xA0 SHL SUB DUP6 DUP2 AND PUSH1 0x24 DUP4 ADD MSTORE DUP5 DUP2 AND PUSH1 0x44 DUP4 ADD MSTORE PUSH1 0x64 DUP1 DUP4 ADD DUP6 SWAP1 MSTORE DUP4 MLOAD DUP1 DUP5 SUB SWAP1 SWAP2 ADD DUP2 MSTORE PUSH1 0x84 SWAP1 SWAP3 ADD DUP4 MSTORE PUSH1 0x20 DUP3 ADD DUP1 MLOAD PUSH1 0x1 PUSH1 0x1 PUSH1 0xE0 SHL SUB AND PUSH4 0x23B872DD PUSH1 0xE0 SHL OR SWAP1 MSTORE SWAP2 MLOAD PUSH1 0x0 SWAP3 DUP4 SWAP3 SWAP1 DUP9 AND SWAP2 PUSH2 0x1477 SWAP2 SWAP1 PUSH2 0x1BC8 JUMP JUMPDEST PUSH1 0x0 PUSH1 0x40 MLOAD DUP1 DUP4 SUB DUP2 PUSH1 0x0 DUP7 GAS CALL SWAP2 POP POP RETURNDATASIZE DUP1 PUSH1 0x0 DUP2 EQ PUSH2 0x14B4 JUMPI PUSH1 0x40 MLOAD SWAP2 POP PUSH1 0x1F NOT PUSH1 0x3F RETURNDATASIZE ADD AND DUP3 ADD PUSH1 0x40 MSTORE RETURNDATASIZE DUP3 MSTORE RETURNDATASIZE PUSH1 0x0 PUSH1 0x20 DUP5 ADD RETURNDATACOPY PUSH2 0x14B9 JUMP JUMPDEST PUSH1 0x60 SWAP2 POP JUMPDEST POP SWAP2 POP SWAP2 POP DUP2 DUP1 ISZERO PUSH2 0x14E3 JUMPI POP DUP1 MLOAD ISZERO DUP1 PUSH2 0x14E3 JUMPI POP DUP1 DUP1 PUSH1 0x20 ADD SWAP1 MLOAD DUP2 ADD SWAP1 PUSH2 0x14E3 SWAP2 SWAP1 PUSH2 0x1BF7 JUMP JUMPDEST PUSH2 0x153B JUMPI PUSH1 0x40 MLOAD PUSH3 0x461BCD PUSH1 0xE5 SHL DUP2 MSTORE PUSH1 0x20 PUSH1 0x4 DUP3 ADD MSTORE PUSH1 0x24 DUP1 DUP3 ADD MSTORE PUSH32 0x5472616E7366657248656C7065723A205452414E534645525F46524F4D5F4641 PUSH1 0x44 DUP3 ADD MSTORE PUSH4 0x12531151 PUSH1 0xE2 SHL PUSH1 0x64 DUP3 ADD MSTORE PUSH1 0x84 ADD PUSH2 0x5B6 JUMP JUMPDEST POP POP POP POP POP POP JUMP JUMPDEST PUSH1 0x0 DUP1 DUP3 PUSH1 0x1 PUSH1 0x1 PUSH1 0xA0 SHL SUB AND DUP5 PUSH1 0x1 PUSH1 0x1 PUSH1 0xA0 SHL SUB AND SUB PUSH2 0x15B5 JUMPI PUSH1 0x40 MLOAD PUSH3 0x461BCD PUSH1 0xE5 SHL DUP2 MSTORE PUSH1 0x20 PUSH1 0x4 DUP3 ADD MSTORE PUSH1 0x25 PUSH1 0x24 DUP3 ADD MSTORE PUSH32 0x556E697377617056324C6962726172793A204944454E544943414C5F41444452 PUSH1 0x44 DUP3 ADD MSTORE PUSH5 0x4553534553 PUSH1 0xD8 SHL PUSH1 0x64 DUP3 ADD MSTORE PUSH1 0x84 ADD PUSH2 0x5B6 JUMP JUMPDEST DUP3 PUSH1 0x1 PUSH1 0x1 PUSH1 0xA0 SHL SUB AND DUP5 PUSH1 0x1 PUSH1 0x1 PUSH1 0xA0 SHL SUB AND LT PUSH2 0x15D5 JUMPI DUP3 DUP5 PUSH2 0x15D8 JUMP JUMPDEST DUP4 DUP4 JUMPDEST SWAP1 SWAP3 POP SWAP1 POP PUSH1 0x1 PUSH1 0x1 PUSH1 0xA0 SHL SUB DUP3 AND PUSH2 0x1633 JUMPI PUSH1 0x40 MLOAD PUSH3 0x461BCD PUSH1 0xE5 SHL DUP2 MSTORE PUSH1 0x20 PUSH1 0x4 DUP3 ADD MSTORE PUSH1 0x1E PUSH1 0x24 DUP3 ADD MSTORE PUSH32 0x556E697377617056324C6962726172793A205A45524F5F414444524553530000 PUSH1 0x44 DUP3 ADD MSTORE PUSH1 0x64 ADD PUSH2 0x5B6 JUMP JUMPDEST SWAP3 POP SWAP3 SWAP1 POP JUMP JUMPDEST PUSH1 0x0 DUP1 PUSH1 0x0 PUSH2 0x1649 DUP6 DUP6 PUSH2 0x1543 JUMP JUMPDEST PUSH1 0x40 MLOAD PUSH12 0xFFFFFFFFFFFFFFFFFFFFFFFF NOT PUSH1 0x60 DUP5 DUP2 SHL DUP3 AND PUSH1 0x20 DUP5 ADD MSTORE DUP4 SWAP1 SHL AND PUSH1 0x34 DUP3 ADD MSTORE SWAP2 SWAP4 POP SWAP2 POP DUP7 SWAP1 PUSH1 0x48 ADD PUSH1 0x40 MLOAD PUSH1 0x20 DUP2 DUP4 SUB SUB DUP2 MSTORE SWAP1 PUSH1 0x40 MSTORE DUP1 MLOAD SWAP1 PUSH1 0x20 ADD KECCAK256 PUSH1 0x40 MLOAD PUSH1 0x20 ADD PUSH2 0x16F0 SWAP3 SWAP2 SWAP1 PUSH1 0x1 PUSH1 0x1 PUSH1 0xF8 SHL SUB NOT DUP2 MSTORE PUSH1 0x60 SWAP3 SWAP1 SWAP3 SHL PUSH12 0xFFFFFFFFFFFFFFFFFFFFFFFF NOT AND PUSH1 0x1 DUP4 ADD MSTORE PUSH1 0x15 DUP3 ADD MSTORE PUSH31 0xFB7F630766E6A796048EA87D01ACD3068E8FF67D078148A3FA3F4A84F69BD5 PUSH1 0x35 DUP3 ADD MSTORE PUSH1 0x55 ADD SWAP1 JUMP JUMPDEST PUSH1 0x40 DUP1 MLOAD PUSH1 0x1F NOT DUP2 DUP5 SUB ADD DUP2 MSTORE SWAP2 SWAP1 MSTORE DUP1 MLOAD PUSH1 0x20 SWAP1 SWAP2 ADD KECCAK256 SWAP7 SWAP6 POP POP POP POP POP POP JUMP JUMPDEST PUSH1 0x0 DUP2 ISZERO DUP1 PUSH2 0x1736 JUMPI POP DUP3 DUP3 PUSH2 0x1728 DUP2 DUP4 PUSH2 0x1A9F JUMP JUMPDEST SWAP3 POP PUSH2 0x1734 SWAP1 DUP4 PUSH2 0x1AB6 JUMP JUMPDEST EQ JUMPDEST PUSH2 0xB45 JUMPI PUSH1 0x40 MLOAD PUSH3 0x461BCD PUSH1 0xE5 SHL DUP2 MSTORE PUSH1 0x20 PUSH1 0x4 DUP3 ADD MSTORE PUSH1 0x14 PUSH1 0x24 DUP3 ADD MSTORE PUSH20 0x64732D6D6174682D6D756C2D6F766572666C6F77 PUSH1 0x60 SHL PUSH1 0x44 DUP3 ADD MSTORE PUSH1 0x64 ADD PUSH2 0x5B6 JUMP JUMPDEST PUSH1 0x0 DUP3 PUSH2 0x1786 DUP4 DUP3 PUSH2 0x1A8C JUMP JUMPDEST SWAP2 POP DUP2 LT ISZERO PUSH2 0xB45 JUMPI PUSH1 0x40 MLOAD PUSH3 0x461BCD PUSH1 0xE5 SHL DUP2 MSTORE PUSH1 0x20 PUSH1 0x4 DUP3 ADD MSTORE PUSH1 0x14 PUSH1 0x24 DUP3 ADD MSTORE PUSH20 0x64732D6D6174682D6164642D6F766572666C6F77 PUSH1 0x60 SHL PUSH1 0x44 DUP3 ADD MSTORE PUSH1 0x64 ADD PUSH2 0x5B6 JUMP JUMPDEST PUSH1 0x0 PUSH32 0x7FFFFFFFFFFFFFFFFFFFFFFFFFFFFFFF5D576E7357A4501DDFE92F46681B20A0 DUP3 GT ISZERO PUSH2 0x1840 JUMPI PUSH1 0x40 MLOAD PUSH3 0x461BCD PUSH1 0xE5 SHL DUP2 MSTORE PUSH1 0x20 PUSH1 0x4 DUP3 ADD MSTORE PUSH1 0x1E PUSH1 0x24 DUP3 ADD MSTORE PUSH32 0x5369676E61747572653A20496E76616C6964207320706172616D657465720000 PUSH1 0x44 DUP3 ADD MSTORE PUSH1 0x64 ADD PUSH2 0x5B6 JUMP JUMPDEST DUP4 PUSH1 0xFF AND PUSH1 0x1B EQ DUP1 PUSH2 0x1855 JUMPI POP DUP4 PUSH1 0xFF AND PUSH1 0x1C EQ JUMPDEST PUSH2 0x18A1 JUMPI PUSH1 0x40 MLOAD PUSH3 0x461BCD PUSH1 0xE5 SHL DUP2 MSTORE PUSH1 0x20 PUSH1 0x4 DUP3 ADD MSTORE PUSH1 0x1E PUSH1 0x24 DUP3 ADD MSTORE PUSH32 0x5369676E61747572653A20496E76616C6964207620706172616D657465720000 PUSH1 0x44 DUP3 ADD MSTORE PUSH1 0x64 ADD PUSH2 0x5B6 JUMP JUMPDEST PUSH1 0x40 DUP1 MLOAD PUSH1 0x0 DUP1 DUP3 MSTORE PUSH1 0x20 DUP3 ADD DUP1 DUP5 MSTORE DUP9 SWAP1 MSTORE PUSH1 0xFF DUP8 AND SWAP3 DUP3 ADD SWAP3 SWAP1 SWAP3 MSTORE PUSH1 0x60 DUP2 ADD DUP6 SWAP1 MSTORE PUSH1 0x80 DUP2 ADD DUP5 SWAP1 MSTORE PUSH1 0x1 SWAP1 PUSH1 0xA0 ADD PUSH1 0x20 PUSH1 0x40 MLOAD PUSH1 0x20 DUP2 SUB SWAP1 DUP1 DUP5 SUB SWAP1 DUP6 GAS STATICCALL ISZERO DUP1 ISZERO PUSH2 0x18F5 JUMPI RETURNDATASIZE PUSH1 0x0 DUP1 RETURNDATACOPY RETURNDATASIZE PUSH1 0x0 REVERT JUMPDEST POP POP PUSH1 0x40 MLOAD PUSH1 0x1F NOT ADD MLOAD SWAP2 POP POP PUSH1 0x1 PUSH1 0x1 PUSH1 0xA0 SHL SUB DUP2 AND PUSH2 0x1958 JUMPI PUSH1 0x40 MLOAD PUSH3 0x461BCD PUSH1 0xE5 SHL DUP2 MSTORE PUSH1 0x20 PUSH1 0x4 DUP3 ADD MSTORE PUSH1 0x19 PUSH1 0x24 DUP3 ADD MSTORE PUSH32 0x5369676E61747572653A20496E76616C6964207369676E657200000000000000 PUSH1 0x44 DUP3 ADD MSTORE PUSH1 0x64 ADD PUSH2 0x5B6 JUMP JUMPDEST SWAP6 SWAP5 POP POP POP POP POP JUMP JUMPDEST PUSH1 0x1 PUSH1 0x1 PUSH1 0xA0 SHL SUB DUP2 AND DUP2 EQ PUSH2 0xF32 JUMPI PUSH1 0x0 DUP1 REVERT JUMPDEST PUSH1 0x0 PUSH1 0x20 DUP3 DUP5 SUB SLT ISZERO PUSH2 0x1988 JUMPI PUSH1 0x0 DUP1 REVERT JUMPDEST DUP2 CALLDATALOAD PUSH2 0x1993 DUP2 PUSH2 0x1961 JUMP JUMPDEST SWAP4 SWAP3 POP POP POP JUMP JUMPDEST PUSH1 0x0 PUSH2 0x100 DUP3 DUP5 SUB SLT ISZERO PUSH2 0x19AD JUMPI PUSH1 0x0 DUP1 REVERT JUMPDEST POP SWAP2 SWAP1 POP JUMP JUMPDEST PUSH1 0x0 DUP1 PUSH1 0x40 DUP4 DUP6 SUB SLT ISZERO PUSH2 0x19C6 JUMPI PUSH1 0x0 DUP1 REVERT JUMPDEST DUP3 CALLDATALOAD PUSH2 0x19D1 DUP2 PUSH2 0x1961 JUMP JUMPDEST SWAP5 PUSH1 0x20 SWAP4 SWAP1 SWAP4 ADD CALLDATALOAD SWAP4 POP POP POP JUMP JUMPDEST PUSH1 0x0 PUSH1 0x20 DUP3 DUP5 SUB SLT ISZERO PUSH2 0x19F1 JUMPI PUSH1 0x0 DUP1 REVERT JUMPDEST POP CALLDATALOAD SWAP2 SWAP1 POP JUMP JUMPDEST PUSH1 0x0 DUP1 PUSH1 0x40 DUP4 DUP6 SUB SLT ISZERO PUSH2 0x1A0B JUMPI PUSH1 0x0 DUP1 REVERT JUMPDEST DUP3 CALLDATALOAD SWAP2 POP PUSH1 0x20 DUP4 ADD CALLDATALOAD PUSH1 0x5 DUP2 LT PUSH2 0x1A21 JUMPI PUSH1 0x0 DUP1 REVERT JUMPDEST DUP1 SWAP2 POP POP SWAP3 POP SWAP3 SWAP1 POP JUMP JUMPDEST PUSH1 0x0 PUSH1 0x20 DUP3 DUP5 SUB SLT ISZERO PUSH2 0x1A3E JUMPI PUSH1 0x0 DUP1 REVERT JUMPDEST DUP2 MLOAD PUSH2 0x1993 DUP2 PUSH2 0x1961 JUMP JUMPDEST PUSH1 0x20 DUP1 DUP3 MSTORE PUSH1 0x13 SWAP1 DUP3 ADD MSTORE PUSH19 0x21B0B63632B91034B9903737BA1037BBB732B9 PUSH1 0x69 SHL PUSH1 0x40 DUP3 ADD MSTORE PUSH1 0x60 ADD SWAP1 JUMP JUMPDEST PUSH4 0x4E487B71 PUSH1 0xE0 SHL PUSH1 0x0 MSTORE PUSH1 0x11 PUSH1 0x4 MSTORE PUSH1 0x24 PUSH1 0x0 REVERT JUMPDEST DUP1 DUP3 ADD DUP1 DUP3 GT ISZERO PUSH2 0xB45 JUMPI PUSH2 0xB45 PUSH2 0x1A76 JUMP JUMPDEST DUP1 DUP3 MUL DUP2 ISZERO DUP3 DUP3 DIV DUP5 EQ OR PUSH2 0xB45 JUMPI PUSH2 0xB45 PUSH2 0x1A76 JUMP JUMPDEST PUSH1 0x0 DUP3 PUSH2 0x1AD3 JUMPI PUSH4 0x4E487B71 PUSH1 0xE0 SHL PUSH1 0x0 MSTORE PUSH1 0x12 PUSH1 0x4 MSTORE PUSH1 0x24 PUSH1 0x0 REVERT JUMPDEST POP DIV SWAP1 JUMP JUMPDEST PUSH1 0x0 PUSH1 0x20 DUP3 DUP5 SUB SLT ISZERO PUSH2 0x1AEA JUMPI PUSH1 0x0 DUP1 REVERT JUMPDEST DUP2 CALLDATALOAD PUSH1 0xFF DUP2 AND DUP2 EQ PUSH2 0x1993 JUMPI PUSH1 0x0 DUP1 REVERT JUMPDEST PUSH4 0x4E487B71 PUSH1 0xE0 SHL PUSH1 0x0 MSTORE PUSH1 0x21 PUSH1 0x4 MSTORE PUSH1 0x24 PUSH1 0x0 REVERT JUMPDEST PUSH1 0x1 PUSH1 0x1 PUSH1 0xA0 SHL SUB DUP6 AND DUP2 MSTORE PUSH1 0x20 DUP2 ADD DUP5 SWAP1 MSTORE PUSH1 0x40 DUP2 ADD DUP4 SWAP1 MSTORE PUSH1 0x80 DUP2 ADD PUSH1 0x5 DUP4 LT PUSH2 0x1B4D JUMPI PUSH4 0x4E487B71 PUSH1 0xE0 SHL PUSH1 0x0 MSTORE PUSH1 0x21 PUSH1 0x4 MSTORE PUSH1 0x24 PUSH1 0x0 REVERT JUMPDEST DUP3 PUSH1 0x60 DUP4 ADD MSTORE SWAP6 SWAP5 POP POP POP POP POP JUMP JUMPDEST DUP1 MLOAD PUSH1 0x1 PUSH1 0x1 PUSH1 0x70 SHL SUB DUP2 AND DUP2 EQ PUSH2 0x1B73 JUMPI PUSH1 0x0 DUP1 REVERT JUMPDEST SWAP2 SWAP1 POP JUMP JUMPDEST PUSH1 0x0 DUP1 PUSH1 0x0 PUSH1 0x60 DUP5 DUP7 SUB SLT ISZERO PUSH2 0x1B8D JUMPI PUSH1 0x0 DUP1 REVERT JUMPDEST PUSH2 0x1B96 DUP5 PUSH2 0x1B5C JUMP JUMPDEST SWAP3 POP PUSH2 0x1BA4 PUSH1 0x20 DUP6 ADD PUSH2 0x1B5C JUMP JUMPDEST SWAP2 POP PUSH1 0x40 DUP5 ADD MLOAD PUSH4 0xFFFFFFFF DUP2 AND DUP2 EQ PUSH2 0x1BBD JUMPI PUSH1 0x0 DUP1 REVERT JUMPDEST DUP1 SWAP2 POP POP SWAP3 POP SWAP3 POP SWAP3 JUMP JUMPDEST PUSH1 0x0 DUP3 MLOAD PUSH1 0x0 JUMPDEST DUP2 DUP2 LT ISZERO PUSH2 0x1BE9 JUMPI PUSH1 0x20 DUP2 DUP7 ADD DUP2 ADD MLOAD DUP6 DUP4 ADD MSTORE ADD PUSH2 0x1BCF JUMP JUMPDEST POP PUSH1 0x0 SWAP3 ADD SWAP2 DUP3 MSTORE POP SWAP2 SWAP1 POP JUMP JUMPDEST PUSH1 0x0 PUSH1 0x20 DUP3 DUP5 SUB SLT ISZERO PUSH2 0x1C09 JUMPI PUSH1 0x0 DUP1 REVERT JUMPDEST DUP2 MLOAD DUP1 ISZERO ISZERO DUP2 EQ PUSH2 0x1993 JUMPI PUSH1 0x0 DUP1 REVERT INVALID LOG2 PUSH5 0x6970667358 0x22 SLT KECCAK256 0xB8 0x22 0x4F PUSH1 0x48 0xB2 0xD5 0x21 0x27 RETURNDATACOPY PUSH3 0x3922D SWAP3 0xC6 0x5E 0xFB CALLDATASIZE DUP8 0x5C 0xBB 0x5E 0xD7 0xE3 SAR 0x5C 0x4A LOG2 AND PUSH7 0x2964736F6C6343 STOP ADDMOD SLT STOP CALLER "
				},
				"gasEstimates": {
					"creation": {
						"codeDepositCost": "1449400",
						"executionCost": "25748",
						"totalCost": "1475148"
					},
					"external": {
						"DOMAIN_SEPARATOR()": "2307",
						"admin()": "2447",
						"dead()": "2382",
						"emergencyBNB(address,uint256)": "infinite",
						"emergencyToken(address,uint256)": "infinite",
						"getBnbPrice()": "infinite",
						"getHash()": "269",
						"getResult((address,address,uint256,uint256,uint256,uint8,bytes32,bytes32))": "infinite",
						"getTokenPrice()": "infinite",
						"implementation()": "2360",
						"initialize(address)": "infinite",
						"optionInfo(uint256)": "8934",
						"permit()": "2448",
						"provide(uint256,uint8)": "infinite",
						"reentrancy(address)": "2635",
						"setAdmin(address)": "26772",
						"setPermit(address)": "26817",
						"setToken(address)": "26751",
						"token()": "2469",
						"uniswapV2Factory()": "2470",
						"uniswapV2Router()": "2405",
						"usdt()": "2427",
						"withdraw((address,address,uint256,uint256,uint256,uint8,bytes32,bytes32))": "infinite"
					},
					"internal": {
						"_updateDomainSeparator()": "infinite"
					}
				},
				"methodIdentifiers": {
					"DOMAIN_SEPARATOR()": "3644e515",
					"admin()": "f851a440",
					"dead()": "36cf7c87",
					"emergencyBNB(address,uint256)": "8fe7002c",
					"emergencyToken(address,uint256)": "88e3988f",
					"getBnbPrice()": "08760b0d",
					"getHash()": "d13319c4",
					"getResult((address,address,uint256,uint256,uint256,uint8,bytes32,bytes32))": "5e43cd68",
					"getTokenPrice()": "4b94f50e",
					"implementation()": "5c60da1b",
					"initialize(address)": "c4d66de8",
					"optionInfo(uint256)": "bc446708",
					"permit()": "5777e93d",
					"provide(uint256,uint8)": "bc7fb169",
					"reentrancy(address)": "993b37da",
					"setAdmin(address)": "704b6c02",
					"setPermit(address)": "32105e46",
					"setToken(address)": "144fa6d7",
					"token()": "fc0c546a",
					"uniswapV2Factory()": "59d0f713",
					"uniswapV2Router()": "1694505e",
					"usdt()": "2f48ab7d",
					"withdraw((address,address,uint256,uint256,uint256,uint8,bytes32,bytes32))": "40003763"
				}
			},
			"storageLayout": {
				"storage": [
					{
						"astId": 3,
						"contract": "Pledage.sol:Pledage",
						"label": "admin",
						"offset": 0,
						"slot": "0",
						"type": "t_address"
					},
					{
						"astId": 5,
						"contract": "Pledage.sol:Pledage",
						"label": "implementation",
						"offset": 0,
						"slot": "1",
						"type": "t_address"
					},
					{
						"astId": 719,
						"contract": "Pledage.sol:Pledage",
						"label": "userInfo",
						"offset": 0,
						"slot": "2",
						"type": "t_mapping(t_address,t_struct(User)714_storage)"
					},
					{
						"astId": 733,
						"contract": "Pledage.sol:Pledage",
						"label": "optionInfo",
						"offset": 0,
						"slot": "3",
						"type": "t_mapping(t_uint256,t_struct(Option)728_storage)"
					},
					{
						"astId": 735,
						"contract": "Pledage.sol:Pledage",
						"label": "token",
						"offset": 0,
						"slot": "4",
						"type": "t_address"
					},
					{
						"astId": 737,
						"contract": "Pledage.sol:Pledage",
						"label": "permit",
						"offset": 0,
						"slot": "5",
						"type": "t_address"
					},
					{
						"astId": 739,
						"contract": "Pledage.sol:Pledage",
						"label": "dead",
						"offset": 0,
						"slot": "6",
						"type": "t_address"
					},
					{
						"astId": 741,
						"contract": "Pledage.sol:Pledage",
						"label": "usdt",
						"offset": 0,
						"slot": "7",
						"type": "t_address"
					},
					{
						"astId": 743,
						"contract": "Pledage.sol:Pledage",
						"label": "uniswapV2Router",
						"offset": 0,
						"slot": "8",
						"type": "t_address"
					},
					{
						"astId": 745,
						"contract": "Pledage.sol:Pledage",
						"label": "uniswapV2Factory",
						"offset": 0,
						"slot": "9",
						"type": "t_address"
					},
					{
						"astId": 747,
						"contract": "Pledage.sol:Pledage",
						"label": "DOMAIN_SEPARATOR",
						"offset": 0,
						"slot": "10",
						"type": "t_bytes32"
					},
					{
						"astId": 751,
						"contract": "Pledage.sol:Pledage",
						"label": "reentrancy",
						"offset": 0,
						"slot": "11",
						"type": "t_mapping(t_address,t_uint256)"
					}
				],
				"types": {
					"t_address": {
						"encoding": "inplace",
						"label": "address",
						"numberOfBytes": "20"
					},
					"t_array(t_enum(Expiration)703)dyn_storage": {
						"base": "t_enum(Expiration)703",
						"encoding": "dynamic_array",
						"label": "enum PledageStorV1.Expiration[]",
						"numberOfBytes": "32"
					},
					"t_array(t_uint256)dyn_storage": {
						"base": "t_uint256",
						"encoding": "dynamic_array",
						"label": "uint256[]",
						"numberOfBytes": "32"
					},
					"t_bytes32": {
						"encoding": "inplace",
						"label": "bytes32",
						"numberOfBytes": "32"
					},
					"t_enum(Expiration)703": {
						"encoding": "inplace",
						"label": "enum PledageStorV1.Expiration",
						"numberOfBytes": "1"
					},
					"t_mapping(t_address,t_struct(User)714_storage)": {
						"encoding": "mapping",
						"key": "t_address",
						"label": "mapping(address => struct PledageStorV1.User)",
						"numberOfBytes": "32",
						"value": "t_struct(User)714_storage"
					},
					"t_mapping(t_address,t_uint256)": {
						"encoding": "mapping",
						"key": "t_address",
						"label": "mapping(address => uint256)",
						"numberOfBytes": "32",
						"value": "t_uint256"
					},
					"t_mapping(t_uint256,t_struct(Option)728_storage)": {
						"encoding": "mapping",
						"key": "t_uint256",
						"label": "mapping(uint256 => struct PledageStorV1.Option)",
						"numberOfBytes": "32",
						"value": "t_struct(Option)728_storage"
					},
					"t_struct(Option)728_storage": {
						"encoding": "inplace",
						"label": "struct PledageStorV1.Option",
						"members": [
							{
								"astId": 721,
								"contract": "Pledage.sol:Pledage",
								"label": "optionId",
								"offset": 0,
								"slot": "0",
								"type": "t_uint256"
							},
							{
								"astId": 723,
								"contract": "Pledage.sol:Pledage",
								"label": "holder",
								"offset": 0,
								"slot": "1",
								"type": "t_address"
							},
							{
								"astId": 725,
								"contract": "Pledage.sol:Pledage",
								"label": "token",
								"offset": 0,
								"slot": "2",
								"type": "t_address"
							},
							{
								"astId": 727,
								"contract": "Pledage.sol:Pledage",
								"label": "amount",
								"offset": 0,
								"slot": "3",
								"type": "t_uint256"
							}
						],
						"numberOfBytes": "128"
					},
					"t_struct(User)714_storage": {
						"encoding": "inplace",
						"label": "struct PledageStorV1.User",
						"members": [
							{
								"astId": 706,
								"contract": "Pledage.sol:Pledage",
								"label": "amounts",
								"offset": 0,
								"slot": "0",
								"type": "t_array(t_uint256)dyn_storage"
							},
							{
								"astId": 709,
								"contract": "Pledage.sol:Pledage",
								"label": "times",
								"offset": 0,
								"slot": "1",
								"type": "t_array(t_uint256)dyn_storage"
							},
							{
								"astId": 713,
								"contract": "Pledage.sol:Pledage",
								"label": "expirations",
								"offset": 0,
								"slot": "2",
								"type": "t_array(t_enum(Expiration)703)dyn_storage"
							}
						],
						"numberOfBytes": "96"
					},
					"t_uint256": {
						"encoding": "inplace",
						"label": "uint256",
						"numberOfBytes": "32"
					}
				}
			},
			"userdoc": {
				"kind": "user",
				"methods": {},
				"version": 1
			}
		}
	}
}