{
	"Pledage.sol": {
		"Pledage": {
			"abi": [
				{
					"inputs": [],
					"stateMutability": "nonpayable",
					"type": "constructor"
				},
				{
					"anonymous": false,
					"inputs": [
						{
							"indexed": false,
							"internalType": "address",
							"name": "owner",
							"type": "address"
						},
						{
							"indexed": false,
							"internalType": "uint256",
							"name": "amount",
							"type": "uint256"
						},
						{
							"indexed": false,
							"internalType": "uint256",
							"name": "time",
							"type": "uint256"
						},
						{
							"indexed": false,
							"internalType": "enum PledageStorV1.Expiration",
							"name": "expiration",
							"type": "uint8"
						}
					],
					"name": "Provide",
					"type": "event"
				},
				{
					"anonymous": false,
					"inputs": [
						{
							"indexed": false,
							"internalType": "uint256",
							"name": "orderId",
							"type": "uint256"
						},
						{
							"indexed": false,
							"internalType": "address",
							"name": "receiver",
							"type": "address"
						},
						{
							"indexed": false,
							"internalType": "address",
							"name": "token",
							"type": "address"
						},
						{
							"indexed": false,
							"internalType": "uint256",
							"name": "amount",
							"type": "uint256"
						},
						{
							"indexed": false,
							"internalType": "uint256",
							"name": "time",
							"type": "uint256"
						}
					],
					"name": "Withdraw",
					"type": "event"
				},
				{
					"inputs": [],
					"name": "DOMAIN_SEPARATOR",
					"outputs": [
						{
							"internalType": "bytes32",
							"name": "",
							"type": "bytes32"
						}
					],
					"stateMutability": "view",
					"type": "function"
				},
				{
					"inputs": [],
					"name": "admin",
					"outputs": [
						{
							"internalType": "address",
							"name": "",
							"type": "address"
						}
					],
					"stateMutability": "view",
					"type": "function"
				},
				{
					"inputs": [],
					"name": "dead",
					"outputs": [
						{
							"internalType": "address",
							"name": "",
							"type": "address"
						}
					],
					"stateMutability": "view",
					"type": "function"
				},
				{
					"inputs": [
						{
							"internalType": "address",
							"name": "receiver",
							"type": "address"
						},
						{
							"internalType": "uint256",
							"name": "amount",
							"type": "uint256"
						}
					],
					"name": "emergencyBNB",
					"outputs": [],
					"stateMutability": "nonpayable",
					"type": "function"
				},
				{
					"inputs": [
						{
							"internalType": "address",
							"name": "receiver",
							"type": "address"
						},
						{
							"internalType": "uint256",
							"name": "amount",
							"type": "uint256"
						}
					],
					"name": "emergencyToken",
					"outputs": [],
					"stateMutability": "nonpayable",
					"type": "function"
				},
				{
					"inputs": [],
					"name": "getBnbPrice",
					"outputs": [
						{
							"internalType": "uint256",
							"name": "",
							"type": "uint256"
						}
					],
					"stateMutability": "view",
					"type": "function"
				},
				{
					"inputs": [],
					"name": "getHash",
					"outputs": [
						{
							"internalType": "bytes32",
							"name": "",
							"type": "bytes32"
						}
					],
					"stateMutability": "pure",
					"type": "function"
				},
				{
					"inputs": [
						{
							"components": [
								{
									"internalType": "address",
									"name": "token",
									"type": "address"
								},
								{
									"internalType": "address",
									"name": "holder",
									"type": "address"
								},
								{
									"internalType": "uint256",
									"name": "amount",
									"type": "uint256"
								},
								{
									"internalType": "uint256",
									"name": "orderId",
									"type": "uint256"
								},
								{
									"internalType": "uint256",
									"name": "deadline",
									"type": "uint256"
								},
								{
									"internalType": "uint8",
									"name": "v",
									"type": "uint8"
								},
								{
									"internalType": "bytes32",
									"name": "r",
									"type": "bytes32"
								},
								{
									"internalType": "bytes32",
									"name": "s",
									"type": "bytes32"
								}
							],
							"internalType": "struct SignatureInfo.Content",
							"name": "content",
							"type": "tuple"
						}
					],
					"name": "getResult",
					"outputs": [
						{
							"internalType": "bool",
							"name": "",
							"type": "bool"
						}
					],
					"stateMutability": "view",
					"type": "function"
				},
				{
					"inputs": [],
					"name": "getTokenPrice",
					"outputs": [
						{
							"internalType": "uint256",
							"name": "",
							"type": "uint256"
						}
					],
					"stateMutability": "view",
					"type": "function"
				},
				{
					"inputs": [],
					"name": "implementation",
					"outputs": [
						{
							"internalType": "address",
							"name": "",
							"type": "address"
						}
					],
					"stateMutability": "view",
					"type": "function"
				},
				{
					"inputs": [
						{
							"internalType": "address",
							"name": "_permit",
							"type": "address"
						}
					],
					"name": "initialize",
					"outputs": [],
					"stateMutability": "nonpayable",
					"type": "function"
				},
				{
					"inputs": [
						{
							"internalType": "uint256",
							"name": "",
							"type": "uint256"
						}
					],
					"name": "optionInfo",
					"outputs": [
						{
							"internalType": "uint256",
							"name": "optionId",
							"type": "uint256"
						},
						{
							"internalType": "address",
							"name": "holder",
							"type": "address"
						},
						{
							"internalType": "address",
							"name": "token",
							"type": "address"
						},
						{
							"internalType": "uint256",
							"name": "amount",
							"type": "uint256"
						}
					],
					"stateMutability": "view",
					"type": "function"
				},
				{
					"inputs": [],
					"name": "permit",
					"outputs": [
						{
							"internalType": "address",
							"name": "",
							"type": "address"
						}
					],
					"stateMutability": "view",
					"type": "function"
				},
				{
					"inputs": [
						{
							"internalType": "uint256",
							"name": "_amount",
							"type": "uint256"
						},
						{
							"internalType": "enum PledageStorV1.Expiration",
							"name": "_expiration",
							"type": "uint8"
						}
					],
					"name": "provide",
					"outputs": [],
					"stateMutability": "nonpayable",
					"type": "function"
				},
				{
					"inputs": [
						{
							"internalType": "uint256",
							"name": "",
							"type": "uint256"
						},
						{
							"internalType": "address",
							"name": "",
							"type": "address"
						}
					],
					"name": "reentrant",
					"outputs": [
						{
							"internalType": "uint256",
							"name": "",
							"type": "uint256"
						}
					],
					"stateMutability": "view",
					"type": "function"
				},
				{
					"inputs": [
						{
							"internalType": "address",
							"name": "_admin",
							"type": "address"
						}
					],
					"name": "setAdmin",
					"outputs": [],
					"stateMutability": "nonpayable",
					"type": "function"
				},
				{
					"inputs": [
						{
							"internalType": "address",
							"name": "_permit",
							"type": "address"
						}
					],
					"name": "setPermit",
					"outputs": [],
					"stateMutability": "nonpayable",
					"type": "function"
				},
				{
					"inputs": [],
					"name": "token",
					"outputs": [
						{
							"internalType": "address",
							"name": "",
							"type": "address"
						}
					],
					"stateMutability": "view",
					"type": "function"
				},
				{
					"inputs": [],
					"name": "uniswapV2Factory",
					"outputs": [
						{
							"internalType": "address",
							"name": "",
							"type": "address"
						}
					],
					"stateMutability": "view",
					"type": "function"
				},
				{
					"inputs": [],
					"name": "uniswapV2Router",
					"outputs": [
						{
							"internalType": "address",
							"name": "",
							"type": "address"
						}
					],
					"stateMutability": "view",
					"type": "function"
				},
				{
					"inputs": [],
					"name": "usdt",
					"outputs": [
						{
							"internalType": "address",
							"name": "",
							"type": "address"
						}
					],
					"stateMutability": "view",
					"type": "function"
				},
				{
					"inputs": [
						{
							"components": [
								{
									"internalType": "address",
									"name": "token",
									"type": "address"
								},
								{
									"internalType": "address",
									"name": "holder",
									"type": "address"
								},
								{
									"internalType": "uint256",
									"name": "amount",
									"type": "uint256"
								},
								{
									"internalType": "uint256",
									"name": "orderId",
									"type": "uint256"
								},
								{
									"internalType": "uint256",
									"name": "deadline",
									"type": "uint256"
								},
								{
									"internalType": "uint8",
									"name": "v",
									"type": "uint8"
								},
								{
									"internalType": "bytes32",
									"name": "r",
									"type": "bytes32"
								},
								{
									"internalType": "bytes32",
									"name": "s",
									"type": "bytes32"
								}
							],
							"internalType": "struct SignatureInfo.Content",
							"name": "content",
							"type": "tuple"
						}
					],
					"name": "withdraw",
					"outputs": [],
					"stateMutability": "nonpayable",
					"type": "function"
				},
				{
					"stateMutability": "payable",
					"type": "receive"
				}
			],
			"devdoc": {
				"kind": "dev",
				"methods": {},
				"version": 1
			},
			"evm": {
				"assembly": "    /* \"Pledage.sol\":7829:12411  contract Pledage is PledageStorV2{... */\n  mstore(0x40, 0x80)\n    /* \"Pledage.sol\":8055:8103  constructor(){... */\n  callvalue\n  dup1\n  iszero\n  tag_1\n  jumpi\n  0x00\n  dup1\n  revert\ntag_1:\n  pop\n    /* \"Pledage.sol\":8078:8083  admin */\n  0x00\n    /* \"Pledage.sol\":8078:8096  admin = msg.sender */\n  dup1\n  sload\n  not(sub(shl(0xa0, 0x01), 0x01))\n  and\n    /* \"Pledage.sol\":8086:8096  msg.sender */\n  caller\n    /* \"Pledage.sol\":8078:8096  admin = msg.sender */\n  or\n  swap1\n  sstore\n    /* \"Pledage.sol\":7829:12411  contract Pledage is PledageStorV2{... */\n  dataSize(sub_0)\n  dup1\n  dataOffset(sub_0)\n  0x00\n  codecopy\n  0x00\n  return\nstop\n\nsub_0: assembly {\n        /* \"Pledage.sol\":7829:12411  contract Pledage is PledageStorV2{... */\n      mstore(0x40, 0x80)\n      jumpi(tag_1, lt(calldatasize, 0x04))\n      shr(0xe0, calldataload(0x00))\n      dup1\n      0x5e43cd68\n      gt\n      tag_25\n      jumpi\n      dup1\n      0xbc446708\n      gt\n      tag_26\n      jumpi\n      dup1\n      0xbc446708\n      eq\n      tag_19\n      jumpi\n      dup1\n      0xbc7fb169\n      eq\n      tag_20\n      jumpi\n      dup1\n      0xc4d66de8\n      eq\n      tag_21\n      jumpi\n      dup1\n      0xd13319c4\n      eq\n      tag_22\n      jumpi\n      dup1\n      0xf851a440\n      eq\n      tag_23\n      jumpi\n      dup1\n      0xfc0c546a\n      eq\n      tag_24\n      jumpi\n      0x00\n      dup1\n      revert\n    tag_26:\n      dup1\n      0x5e43cd68\n      eq\n      tag_14\n      jumpi\n      dup1\n      0x6d0000b7\n      eq\n      tag_15\n      jumpi\n      dup1\n      0x704b6c02\n      eq\n      tag_16\n      jumpi\n      dup1\n      0x88e3988f\n      eq\n      tag_17\n      jumpi\n      dup1\n      0x8fe7002c\n      eq\n      tag_18\n      jumpi\n      0x00\n      dup1\n      revert\n    tag_25:\n      dup1\n      0x36cf7c87\n      gt\n      tag_27\n      jumpi\n      dup1\n      0x36cf7c87\n      eq\n      tag_8\n      jumpi\n      dup1\n      0x40003763\n      eq\n      tag_9\n      jumpi\n      dup1\n      0x4b94f50e\n      eq\n      tag_10\n      jumpi\n      dup1\n      0x5777e93d\n      eq\n      tag_11\n      jumpi\n      dup1\n      0x59d0f713\n      eq\n      tag_12\n      jumpi\n      dup1\n      0x5c60da1b\n      eq\n      tag_13\n      jumpi\n      0x00\n      dup1\n      revert\n    tag_27:\n      dup1\n      0x08760b0d\n      eq\n      tag_3\n      jumpi\n      dup1\n      0x1694505e\n      eq\n      tag_4\n      jumpi\n      dup1\n      0x2f48ab7d\n      eq\n      tag_5\n      jumpi\n      dup1\n      0x32105e46\n      eq\n      tag_6\n      jumpi\n      dup1\n      0x3644e515\n      eq\n      tag_7\n      jumpi\n      0x00\n      dup1\n      revert\n    tag_1:\n      jumpi(tag_2, calldatasize)\n      stop\n    tag_2:\n      0x00\n      dup1\n      revert\n        /* \"Pledage.sol\":11211:11515  function getBnbPrice() external view returns(uint256){... */\n    tag_3:\n      callvalue\n      dup1\n      iszero\n      tag_30\n      jumpi\n      0x00\n      dup1\n      revert\n    tag_30:\n      pop\n      tag_31\n      tag_32\n      jump\t// in\n    tag_31:\n      mload(0x40)\n        /* \"#utility.yul\":160:185   */\n      swap1\n      dup2\n      mstore\n        /* \"#utility.yul\":148:150   */\n      0x20\n        /* \"#utility.yul\":133:151   */\n      add\n        /* \"Pledage.sol\":11211:11515  function getBnbPrice() external view returns(uint256){... */\n    tag_33:\n      mload(0x40)\n      dup1\n      swap2\n      sub\n      swap1\n      return\n        /* \"Pledage.sol\":7604:7634  address public uniswapV2Router */\n    tag_4:\n      callvalue\n      dup1\n      iszero\n      tag_35\n      jumpi\n      0x00\n      dup1\n      revert\n    tag_35:\n      pop\n      sload(0x08)\n      tag_36\n      swap1\n      sub(shl(0xa0, 0x01), 0x01)\n      and\n      dup2\n      jump\n    tag_36:\n      mload(0x40)\n      sub(shl(0xa0, 0x01), 0x01)\n        /* \"#utility.yul\":360:392   */\n      swap1\n      swap2\n      and\n        /* \"#utility.yul\":342:393   */\n      dup2\n      mstore\n        /* \"#utility.yul\":330:332   */\n      0x20\n        /* \"#utility.yul\":315:333   */\n      add\n        /* \"Pledage.sol\":7604:7634  address public uniswapV2Router */\n      tag_33\n        /* \"#utility.yul\":196:399   */\n      jump\n        /* \"Pledage.sol\":7579:7598  address public usdt */\n    tag_5:\n      callvalue\n      dup1\n      iszero\n      tag_40\n      jumpi\n      0x00\n      dup1\n      revert\n    tag_40:\n      pop\n      sload(0x07)\n      tag_36\n      swap1\n      sub(shl(0xa0, 0x01), 0x01)\n      and\n      dup2\n      jump\n        /* \"Pledage.sol\":12158:12247  function setPermit(address _permit) external onlyOwner(){... */\n    tag_6:\n      callvalue\n      dup1\n      iszero\n      tag_44\n      jumpi\n      0x00\n      dup1\n      revert\n    tag_44:\n      pop\n      tag_45\n      tag_46\n      calldatasize\n      0x04\n      tag_47\n      jump\t// in\n    tag_46:\n      tag_48\n      jump\t// in\n    tag_45:\n      stop\n        /* \"Pledage.sol\":7677:7708  bytes32 public DOMAIN_SEPARATOR */\n    tag_7:\n      callvalue\n      dup1\n      iszero\n      tag_49\n      jumpi\n      0x00\n      dup1\n      revert\n    tag_49:\n      pop\n      tag_31\n      sload(0x0a)\n      dup2\n      jump\n        /* \"Pledage.sol\":7554:7573  address public dead */\n    tag_8:\n      callvalue\n      dup1\n      iszero\n      tag_54\n      jumpi\n      0x00\n      dup1\n      revert\n    tag_54:\n      pop\n      sload(0x06)\n      tag_36\n      swap1\n      sub(shl(0xa0, 0x01), 0x01)\n      and\n      dup2\n      jump\n        /* \"Pledage.sol\":9263:10577  function withdraw(SignatureInfo.Content calldata content) external {... */\n    tag_9:\n      callvalue\n      dup1\n      iszero\n      tag_58\n      jumpi\n      0x00\n      dup1\n      revert\n    tag_58:\n      pop\n      tag_45\n      tag_60\n      calldatasize\n      0x04\n      tag_61\n      jump\t// in\n    tag_60:\n      tag_62\n      jump\t// in\n        /* \"Pledage.sol\":11521:11763  function getTokenPrice() external view returns(uint256){... */\n    tag_10:\n      callvalue\n      dup1\n      iszero\n      tag_63\n      jumpi\n      0x00\n      dup1\n      revert\n    tag_63:\n      pop\n      tag_31\n      tag_65\n      jump\t// in\n        /* \"Pledage.sol\":7527:7548  address public permit */\n    tag_11:\n      callvalue\n      dup1\n      iszero\n      tag_67\n      jumpi\n      0x00\n      dup1\n      revert\n    tag_67:\n      pop\n      sload(0x05)\n      tag_36\n      swap1\n      sub(shl(0xa0, 0x01), 0x01)\n      and\n      dup2\n      jump\n        /* \"Pledage.sol\":7640:7671  address public uniswapV2Factory */\n    tag_12:\n      callvalue\n      dup1\n      iszero\n      tag_71\n      jumpi\n      0x00\n      dup1\n      revert\n    tag_71:\n      pop\n      sload(0x09)\n      tag_36\n      swap1\n      sub(shl(0xa0, 0x01), 0x01)\n      and\n      dup2\n      jump\n        /* \"Pledage.sol\":115:144  address public implementation */\n    tag_13:\n      callvalue\n      dup1\n      iszero\n      tag_75\n      jumpi\n      0x00\n      dup1\n      revert\n    tag_75:\n      pop\n      sload(0x01)\n      tag_36\n      swap1\n      sub(shl(0xa0, 0x01), 0x01)\n      and\n      dup2\n      jump\n        /* \"Pledage.sol\":10583:10812  function getResult(SignatureInfo.Content calldata content) public view returns(bool){... */\n    tag_14:\n      callvalue\n      dup1\n      iszero\n      tag_79\n      jumpi\n      0x00\n      dup1\n      revert\n    tag_79:\n      pop\n      tag_80\n      tag_81\n      calldatasize\n      0x04\n      tag_61\n      jump\t// in\n    tag_81:\n      tag_82\n      jump\t// in\n    tag_80:\n      mload(0x40)\n        /* \"#utility.yul\":1337:1351   */\n      swap1\n      iszero\n        /* \"#utility.yul\":1330:1352   */\n      iszero\n        /* \"#utility.yul\":1312:1353   */\n      dup2\n      mstore\n        /* \"#utility.yul\":1300:1302   */\n      0x20\n        /* \"#utility.yul\":1285:1303   */\n      add\n        /* \"Pledage.sol\":10583:10812  function getResult(SignatureInfo.Content calldata content) public view returns(bool){... */\n      tag_33\n        /* \"#utility.yul\":1172:1359   */\n      jump\n        /* \"Pledage.sol\":7759:7824  mapping(uint256 => mapping (address => uint256)) public reentrant */\n    tag_15:\n      callvalue\n      dup1\n      iszero\n      tag_85\n      jumpi\n      0x00\n      dup1\n      revert\n    tag_85:\n      pop\n      tag_31\n      tag_87\n      calldatasize\n      0x04\n      tag_88\n      jump\t// in\n    tag_87:\n      0x0b\n      0x20\n      swap1\n      dup2\n      mstore\n      0x00\n      swap3\n      dup4\n      mstore\n      0x40\n      dup1\n      dup5\n      keccak256\n      swap1\n      swap2\n      mstore\n      swap1\n      dup3\n      mstore\n      swap1\n      keccak256\n      sload\n      dup2\n      jump\n        /* \"Pledage.sol\":12067:12152  function setAdmin(address _admin) external onlyOwner(){... */\n    tag_16:\n      callvalue\n      dup1\n      iszero\n      tag_91\n      jumpi\n      0x00\n      dup1\n      revert\n    tag_91:\n      pop\n      tag_45\n      tag_93\n      calldatasize\n      0x04\n      tag_47\n      jump\t// in\n    tag_93:\n      tag_94\n      jump\t// in\n        /* \"Pledage.sol\":11915:12061  function emergencyToken(address receiver,uint256 amount) external onlyOwner(){... */\n    tag_17:\n      callvalue\n      dup1\n      iszero\n      tag_95\n      jumpi\n      0x00\n      dup1\n      revert\n    tag_95:\n      pop\n      tag_45\n      tag_97\n      calldatasize\n      0x04\n      tag_98\n      jump\t// in\n    tag_97:\n      tag_99\n      jump\t// in\n        /* \"Pledage.sol\":11769:11909  function emergencyBNB(address receiver,uint256 amount) external onlyOwner(){... */\n    tag_18:\n      callvalue\n      dup1\n      iszero\n      tag_100\n      jumpi\n      0x00\n      dup1\n      revert\n    tag_100:\n      pop\n      tag_45\n      tag_102\n      calldatasize\n      0x04\n      tag_98\n      jump\t// in\n    tag_102:\n      tag_103\n      jump\t// in\n        /* \"Pledage.sol\":7450:7494  mapping(uint256 => Option) public optionInfo */\n    tag_19:\n      callvalue\n      dup1\n      iszero\n      tag_104\n      jumpi\n      0x00\n      dup1\n      revert\n    tag_104:\n      pop\n      tag_105\n      tag_106\n      calldatasize\n      0x04\n      tag_107\n      jump\t// in\n    tag_106:\n      0x03\n      0x20\n      dup2\n      swap1\n      mstore\n      0x00\n      swap2\n      dup3\n      mstore\n      0x40\n      swap1\n      swap2\n      keccak256\n      dup1\n      sload\n      0x01\n      dup3\n      add\n      sload\n      0x02\n      dup4\n      add\n      sload\n      swap3\n      swap1\n      swap4\n      add\n      sload\n      swap1\n      swap3\n      sub(shl(0xa0, 0x01), 0x01)\n      swap1\n      dup2\n      and\n      swap3\n      and\n      swap1\n      dup5\n      jump\n    tag_105:\n      mload(0x40)\n      tag_33\n      swap5\n      swap4\n      swap3\n      swap2\n      swap1\n        /* \"#utility.yul\":2420:2445   */\n      swap4\n      dup5\n      mstore\n      sub(shl(0xa0, 0x01), 0x01)\n        /* \"#utility.yul\":2519:2534   */\n      swap3\n      dup4\n      and\n        /* \"#utility.yul\":2514:2516   */\n      0x20\n        /* \"#utility.yul\":2499:2517   */\n      dup6\n      add\n        /* \"#utility.yul\":2492:2535   */\n      mstore\n        /* \"#utility.yul\":2571:2586   */\n      swap2\n      and\n        /* \"#utility.yul\":2566:2568   */\n      0x40\n        /* \"#utility.yul\":2551:2569   */\n      dup4\n      add\n        /* \"#utility.yul\":2544:2587   */\n      mstore\n        /* \"#utility.yul\":2618:2620   */\n      0x60\n        /* \"#utility.yul\":2603:2621   */\n      dup3\n      add\n        /* \"#utility.yul\":2596:2630   */\n      mstore\n        /* \"#utility.yul\":2407:2410   */\n      0x80\n        /* \"#utility.yul\":2392:2411   */\n      add\n      swap1\n        /* \"#utility.yul\":2189:2636   */\n      jump\n        /* \"Pledage.sol\":8701:9257  function provide(uint256 _amount,Expiration _expiration) external{... */\n    tag_20:\n      callvalue\n      dup1\n      iszero\n      tag_111\n      jumpi\n      0x00\n      dup1\n      revert\n    tag_111:\n      pop\n      tag_45\n      tag_113\n      calldatasize\n      0x04\n      tag_114\n      jump\t// in\n    tag_113:\n      tag_115\n      jump\t// in\n        /* \"Pledage.sol\":8247:8695  function initialize( address _permit) external onlyOwner(){... */\n    tag_21:\n      callvalue\n      dup1\n      iszero\n      tag_116\n      jumpi\n      0x00\n      dup1\n      revert\n    tag_116:\n      pop\n      tag_45\n      tag_118\n      calldatasize\n      0x04\n      tag_47\n      jump\t// in\n    tag_118:\n      tag_119\n      jump\t// in\n        /* \"Pledage.sol\":12253:12408  function getHash() external pure returns (bytes32){... */\n    tag_22:\n      callvalue\n      dup1\n      iszero\n      tag_120\n      jumpi\n      0x00\n      dup1\n      revert\n    tag_120:\n      pop\n        /* \"Pledage.sol\":12320:12401  keccak256(\"Content(address token,address holder,uint256 amount,uint256 orderId)\") */\n      0xb5f106453e92c83f8ef471e09a8097b99888030beb671302e7c318e4d198c6e3\n        /* \"Pledage.sol\":12253:12408  function getHash() external pure returns (bytes32){... */\n      jump(tag_31)\n        /* \"Pledage.sol\":89:109  address public admin */\n    tag_23:\n      callvalue\n      dup1\n      iszero\n      tag_124\n      jumpi\n      0x00\n      dup1\n      revert\n    tag_124:\n      pop\n      sload(0x00)\n      tag_36\n      swap1\n      sub(shl(0xa0, 0x01), 0x01)\n      and\n      dup2\n      jump\n        /* \"Pledage.sol\":7501:7521  address public token */\n    tag_24:\n      callvalue\n      dup1\n      iszero\n      tag_128\n      jumpi\n      0x00\n      dup1\n      revert\n    tag_128:\n      pop\n      sload(0x04)\n      tag_36\n      swap1\n      sub(shl(0xa0, 0x01), 0x01)\n      and\n      dup2\n      jump\n        /* \"Pledage.sol\":11211:11515  function getBnbPrice() external view returns(uint256){... */\n    tag_32:\n        /* \"Pledage.sol\":11256:11263  uint256 */\n      0x00\n        /* \"Pledage.sol\":11274:11286  address weth */\n      dup1\n        /* \"Pledage.sol\":11306:11321  uniswapV2Router */\n      0x08\n      0x00\n      swap1\n      sload\n      swap1\n      0x0100\n      exp\n      swap1\n      div\n      sub(shl(0xa0, 0x01), 0x01)\n      and\n      sub(shl(0xa0, 0x01), 0x01)\n        /* \"Pledage.sol\":11289:11327  IUniswapV2Router(uniswapV2Router).WETH */\n      and\n      0xad5c4648\n        /* \"Pledage.sol\":11289:11329  IUniswapV2Router(uniswapV2Router).WETH() */\n      mload(0x40)\n      dup2\n      0xffffffff\n      and\n      0xe0\n      shl\n      dup2\n      mstore\n      0x04\n      add\n      0x20\n      mload(0x40)\n      dup1\n      dup4\n      sub\n      dup2\n      dup7\n      gas\n      staticcall\n      iszero\n      dup1\n      iszero\n      tag_134\n      jumpi\n      returndatasize\n      0x00\n      dup1\n      returndatacopy\n      revert(0x00, returndatasize)\n    tag_134:\n      pop\n      pop\n      pop\n      pop\n      mload(0x40)\n      returndatasize\n      not(0x1f)\n      0x1f\n      dup3\n      add\n      and\n      dup3\n      add\n      dup1\n      0x40\n      mstore\n      pop\n      dup2\n      add\n      swap1\n      tag_135\n      swap2\n      swap1\n      tag_136\n      jump\t// in\n    tag_135:\n        /* \"Pledage.sol\":11404:11420  uniswapV2Factory */\n      sload(0x09)\n        /* \"Pledage.sol\":11428:11432  usdt */\n      sload(0x07)\n        /* \"Pledage.sol\":11274:11329  address weth = IUniswapV2Router(uniswapV2Router).WETH() */\n      swap2\n      swap3\n      pop\n        /* \"Pledage.sol\":11340:11354  uint reserveIn */\n      0x00\n      swap2\n      dup3\n      swap2\n        /* \"Pledage.sol\":11375:11433  UniswapV2Library.getReserves(uniswapV2Factory, weth, usdt) */\n      tag_137\n      swap2\n      sub(shl(0xa0, 0x01), 0x01)\n        /* \"Pledage.sol\":11404:11420  uniswapV2Factory */\n      swap2\n      dup3\n      and\n      swap2\n        /* \"Pledage.sol\":11274:11329  address weth = IUniswapV2Router(uniswapV2Router).WETH() */\n      dup7\n      swap2\n        /* \"Pledage.sol\":11428:11432  usdt */\n      and\n        /* \"Pledage.sol\":11375:11403  UniswapV2Library.getReserves */\n      tag_138\n        /* \"Pledage.sol\":11375:11433  UniswapV2Library.getReserves(uniswapV2Factory, weth, usdt) */\n      jump\t// in\n    tag_137:\n        /* \"Pledage.sol\":11339:11433  (uint reserveIn, uint reserveOut) = UniswapV2Library.getReserves(uniswapV2Factory, weth, usdt) */\n      swap2\n      pop\n      swap2\n      pop\n        /* \"Pledage.sol\":11450:11508  UniswapV2Library.getAmountOut(1e18, reserveIn, reserveOut) */\n      tag_139\n        /* \"Pledage.sol\":11480:11484  1e18 */\n      0x0de0b6b3a7640000\n        /* \"Pledage.sol\":11486:11495  reserveIn */\n      dup4\n        /* \"Pledage.sol\":11497:11507  reserveOut */\n      dup4\n        /* \"Pledage.sol\":11450:11479  UniswapV2Library.getAmountOut */\n      tag_140\n        /* \"Pledage.sol\":11450:11508  UniswapV2Library.getAmountOut(1e18, reserveIn, reserveOut) */\n      jump\t// in\n    tag_139:\n        /* \"Pledage.sol\":11443:11508  return UniswapV2Library.getAmountOut(1e18, reserveIn, reserveOut) */\n      swap4\n      pop\n      pop\n      pop\n      pop\n        /* \"Pledage.sol\":11211:11515  function getBnbPrice() external view returns(uint256){... */\n      swap1\n      jump\t// out\n        /* \"Pledage.sol\":12158:12247  function setPermit(address _permit) external onlyOwner(){... */\n    tag_48:\n        /* \"Pledage.sol\":8181:8186  admin */\n      and(sub(shl(0xa0, 0x01), 0x01), sload(0x00))\n        /* \"Pledage.sol\":8190:8200  msg.sender */\n      caller\n        /* \"Pledage.sol\":8181:8200  admin == msg.sender */\n      eq\n        /* \"Pledage.sol\":8173:8223  require(admin == msg.sender,\"Caller is not owner\") */\n      tag_142\n      jumpi\n      mload(0x40)\n      shl(0xe5, 0x461bcd)\n      dup2\n      mstore\n      0x04\n      add\n      tag_143\n      swap1\n      tag_144\n      jump\t// in\n    tag_143:\n      mload(0x40)\n      dup1\n      swap2\n      sub\n      swap1\n      revert\n    tag_142:\n        /* \"Pledage.sol\":12224:12230  permit */\n      0x05\n        /* \"Pledage.sol\":12224:12240  permit = _permit */\n      dup1\n      sload\n      not(sub(shl(0xa0, 0x01), 0x01))\n      and\n      sub(shl(0xa0, 0x01), 0x01)\n      swap3\n      swap1\n      swap3\n      and\n      swap2\n      swap1\n      swap2\n      or\n      swap1\n      sstore\n        /* \"Pledage.sol\":12158:12247  function setPermit(address _permit) external onlyOwner(){... */\n      jump\t// out\n        /* \"Pledage.sol\":9263:10577  function withdraw(SignatureInfo.Content calldata content) external {... */\n    tag_62:\n        /* \"Pledage.sol\":9368:9383  block.timestamp */\n      timestamp\n        /* \"Pledage.sol\":9348:9355  content */\n      dup2\n        /* \"Pledage.sol\":9348:9364  content.deadline */\n      0x80\n      add\n      calldataload\n        /* \"Pledage.sol\":9348:9383  content.deadline >= block.timestamp */\n      lt\n      iszero\n        /* \"Pledage.sol\":9340:9420  require(content.deadline >= block.timestamp,\"Pledage:Invalid withdraw duration\") */\n      tag_147\n      jumpi\n      mload(0x40)\n      shl(0xe5, 0x461bcd)\n      dup2\n      mstore\n        /* \"#utility.yul\":3790:3792   */\n      0x20\n        /* \"Pledage.sol\":9340:9420  require(content.deadline >= block.timestamp,\"Pledage:Invalid withdraw duration\") */\n      0x04\n      dup3\n      add\n        /* \"#utility.yul\":3772:3793   */\n      mstore\n        /* \"#utility.yul\":3829:3831   */\n      0x21\n        /* \"#utility.yul\":3809:3827   */\n      0x24\n      dup3\n      add\n        /* \"#utility.yul\":3802:3832   */\n      mstore\n        /* \"#utility.yul\":3868:3902   */\n      0x506c65646167653a496e76616c6964207769746864726177206475726174696f\n        /* \"#utility.yul\":3848:3866   */\n      0x44\n      dup3\n      add\n        /* \"#utility.yul\":3841:3903   */\n      mstore\n      shl(0xf9, 0x37)\n        /* \"#utility.yul\":3919:3937   */\n      0x64\n      dup3\n      add\n        /* \"#utility.yul\":3912:3943   */\n      mstore\n        /* \"#utility.yul\":3960:3979   */\n      0x84\n      add\n        /* \"Pledage.sol\":9340:9420  require(content.deadline >= block.timestamp,\"Pledage:Invalid withdraw duration\") */\n      tag_143\n        /* \"#utility.yul\":3588:3985   */\n      jump\n        /* \"Pledage.sol\":9340:9420  require(content.deadline >= block.timestamp,\"Pledage:Invalid withdraw duration\") */\n    tag_147:\n        /* \"Pledage.sol\":9438:9456  getResult(content) */\n      tag_150\n        /* \"Pledage.sol\":9448:9455  content */\n      dup2\n        /* \"Pledage.sol\":9438:9447  getResult */\n      tag_82\n        /* \"Pledage.sol\":9438:9456  getResult(content) */\n      jump\t// in\n    tag_150:\n        /* \"Pledage.sol\":9430:9489  require(getResult(content),\"Pledage:Invalid withdraw data\") */\n      tag_151\n      jumpi\n      mload(0x40)\n      shl(0xe5, 0x461bcd)\n      dup2\n      mstore\n        /* \"#utility.yul\":4192:4194   */\n      0x20\n        /* \"Pledage.sol\":9430:9489  require(getResult(content),\"Pledage:Invalid withdraw data\") */\n      0x04\n      dup3\n      add\n        /* \"#utility.yul\":4174:4195   */\n      mstore\n        /* \"#utility.yul\":4231:4233   */\n      0x1d\n        /* \"#utility.yul\":4211:4229   */\n      0x24\n      dup3\n      add\n        /* \"#utility.yul\":4204:4234   */\n      mstore\n        /* \"#utility.yul\":4270:4301   */\n      0x506c65646167653a496e76616c69642077697468647261772064617461000000\n        /* \"#utility.yul\":4250:4268   */\n      0x44\n      dup3\n      add\n        /* \"#utility.yul\":4243:4302   */\n      mstore\n        /* \"#utility.yul\":4319:4337   */\n      0x64\n      add\n        /* \"Pledage.sol\":9430:9489  require(getResult(content),\"Pledage:Invalid withdraw data\") */\n      tag_143\n        /* \"#utility.yul\":3990:4343   */\n      jump\n        /* \"Pledage.sol\":9430:9489  require(getResult(content),\"Pledage:Invalid withdraw data\") */\n    tag_151:\n        /* \"Pledage.sol\":9533:9534  0 */\n      0x00\n        /* \"Pledage.sol\":9507:9521  content.holder */\n      tag_154\n      0x40\n      dup4\n      add\n      0x20\n      dup5\n      add\n      tag_47\n      jump\t// in\n    tag_154:\n      sub(shl(0xa0, 0x01), 0x01)\n        /* \"Pledage.sol\":9507:9535  content.holder != address(0) */\n      and\n      sub\n        /* \"Pledage.sol\":9499:9571  require(content.holder != address(0),\"Pledage:Invalid withdraw address\") */\n      tag_155\n      jumpi\n      mload(0x40)\n      shl(0xe5, 0x461bcd)\n      dup2\n      mstore\n        /* \"#utility.yul\":4550:4552   */\n      0x20\n        /* \"Pledage.sol\":9499:9571  require(content.holder != address(0),\"Pledage:Invalid withdraw address\") */\n      0x04\n      dup3\n      add\n        /* \"#utility.yul\":4532:4553   */\n      dup2\n      swap1\n      mstore\n        /* \"#utility.yul\":4569:4587   */\n      0x24\n      dup3\n      add\n        /* \"#utility.yul\":4562:4592   */\n      mstore\n        /* \"#utility.yul\":4628:4662   */\n      0x506c65646167653a496e76616c69642077697468647261772061646472657373\n        /* \"#utility.yul\":4608:4626   */\n      0x44\n      dup3\n      add\n        /* \"#utility.yul\":4601:4663   */\n      mstore\n        /* \"#utility.yul\":4680:4698   */\n      0x64\n      add\n        /* \"Pledage.sol\":9499:9571  require(content.holder != address(0),\"Pledage:Invalid withdraw address\") */\n      tag_143\n        /* \"#utility.yul\":4348:4704   */\n      jump\n        /* \"Pledage.sol\":9499:9571  require(content.holder != address(0),\"Pledage:Invalid withdraw address\") */\n    tag_155:\n        /* \"Pledage.sol\":9606:9607  0 */\n      0x00\n        /* \"Pledage.sol\":9589:9596  content */\n      dup2\n        /* \"Pledage.sol\":9589:9603  content.amount */\n      0x40\n      add\n      calldataload\n        /* \"Pledage.sol\":9589:9607  content.amount > 0 */\n      gt\n        /* \"Pledage.sol\":9581:9642  require(content.amount > 0,\"Pledage:Invalid withdraw amount\") */\n      tag_158\n      jumpi\n      mload(0x40)\n      shl(0xe5, 0x461bcd)\n      dup2\n      mstore\n        /* \"#utility.yul\":4911:4913   */\n      0x20\n        /* \"Pledage.sol\":9581:9642  require(content.amount > 0,\"Pledage:Invalid withdraw amount\") */\n      0x04\n      dup3\n      add\n        /* \"#utility.yul\":4893:4914   */\n      mstore\n        /* \"#utility.yul\":4950:4952   */\n      0x1f\n        /* \"#utility.yul\":4930:4948   */\n      0x24\n      dup3\n      add\n        /* \"#utility.yul\":4923:4953   */\n      mstore\n        /* \"#utility.yul\":4989:5022   */\n      0x506c65646167653a496e76616c696420776974686472617720616d6f756e7400\n        /* \"#utility.yul\":4969:4987   */\n      0x44\n      dup3\n      add\n        /* \"#utility.yul\":4962:5023   */\n      mstore\n        /* \"#utility.yul\":5040:5058   */\n      0x64\n      add\n        /* \"Pledage.sol\":9581:9642  require(content.amount > 0,\"Pledage:Invalid withdraw amount\") */\n      tag_143\n        /* \"#utility.yul\":4709:5064   */\n      jump\n        /* \"Pledage.sol\":9581:9642  require(content.amount > 0,\"Pledage:Invalid withdraw amount\") */\n    tag_158:\n        /* \"Pledage.sol\":9687:9702  content.orderId */\n      0x60\n      dup2\n      add\n      calldataload\n        /* \"Pledage.sol\":9652:9673  Option storage option */\n      0x00\n        /* \"Pledage.sol\":9676:9703  optionInfo[content.orderId] */\n      swap1\n      dup2\n      mstore\n        /* \"Pledage.sol\":9676:9686  optionInfo */\n      0x03\n        /* \"Pledage.sol\":9676:9703  optionInfo[content.orderId] */\n      0x20\n      dup2\n      dup2\n      mstore\n      0x40\n      dup1\n      dup5\n      keccak256\n        /* \"Pledage.sol\":9766:9779  option.amount */\n      swap3\n      dup4\n      add\n      sload\n        /* \"Pledage.sol\":9731:9746  option.optionId */\n      dup4\n      sload\n        /* \"Pledage.sol\":9721:9747  reentrant[option.optionId] */\n      dup6\n      mstore\n        /* \"Pledage.sol\":9721:9730  reentrant */\n      0x0b\n        /* \"Pledage.sol\":9721:9747  reentrant[option.optionId] */\n      dup4\n      mstore\n      dup2\n      dup6\n      keccak256\n        /* \"Pledage.sol\":9748:9761  option.holder */\n      0x01\n      dup6\n      add\n      sload\n      sub(shl(0xa0, 0x01), 0x01)\n      and\n        /* \"Pledage.sol\":9721:9762  reentrant[option.optionId][option.holder] */\n      dup7\n      mstore\n      swap1\n      swap3\n      mstore\n      swap1\n      swap3\n      keccak256\n      sload\n        /* \"Pledage.sol\":9676:9703  optionInfo[content.orderId] */\n      swap1\n      swap2\n        /* \"Pledage.sol\":9721:9779  reentrant[option.optionId][option.holder] != option.amount */\n      swap1\n      sub\n        /* \"Pledage.sol\":9713:9811  require(reentrant[option.optionId][option.holder] != option.amount,\"Pledage:Repeated withdrawals\") */\n      tag_161\n      jumpi\n      mload(0x40)\n      shl(0xe5, 0x461bcd)\n      dup2\n      mstore\n        /* \"#utility.yul\":5271:5273   */\n      0x20\n        /* \"Pledage.sol\":9713:9811  require(reentrant[option.optionId][option.holder] != option.amount,\"Pledage:Repeated withdrawals\") */\n      0x04\n      dup3\n      add\n        /* \"#utility.yul\":5253:5274   */\n      mstore\n        /* \"#utility.yul\":5310:5312   */\n      0x1c\n        /* \"#utility.yul\":5290:5308   */\n      0x24\n      dup3\n      add\n        /* \"#utility.yul\":5283:5313   */\n      mstore\n        /* \"#utility.yul\":5349:5379   */\n      0x506c65646167653a5265706561746564207769746864726177616c7300000000\n        /* \"#utility.yul\":5329:5347   */\n      0x44\n      dup3\n      add\n        /* \"#utility.yul\":5322:5380   */\n      mstore\n        /* \"#utility.yul\":5397:5415   */\n      0x64\n      add\n        /* \"Pledage.sol\":9713:9811  require(reentrant[option.optionId][option.holder] != option.amount,\"Pledage:Repeated withdrawals\") */\n      tag_143\n        /* \"#utility.yul\":5069:5421   */\n      jump\n        /* \"Pledage.sol\":9713:9811  require(reentrant[option.optionId][option.holder] != option.amount,\"Pledage:Repeated withdrawals\") */\n    tag_161:\n        /* \"Pledage.sol\":9838:9845  content */\n      dup2\n        /* \"Pledage.sol\":9838:9852  content.amount */\n      0x40\n      add\n      calldataload\n        /* \"Pledage.sol\":9821:9827  option */\n      dup2\n        /* \"Pledage.sol\":9821:9834  option.amount */\n      0x03\n      add\n      0x00\n        /* \"Pledage.sol\":9821:9852  option.amount += content.amount */\n      dup3\n      dup3\n      sload\n      tag_164\n      swap2\n      swap1\n      tag_165\n      jump\t// in\n    tag_164:\n      swap1\n      swap2\n      sstore\n      pop\n        /* \"Pledage.sol\":9877:9890  content.token */\n      tag_166\n      swap1\n      pop\n      0x20\n      dup4\n      add\n        /* \"Pledage.sol\":9877:9884  content */\n      dup4\n        /* \"Pledage.sol\":9877:9890  content.token */\n      tag_47\n      jump\t// in\n    tag_166:\n        /* \"Pledage.sol\":9862:9874  option.token */\n      0x02\n      dup3\n      add\n        /* \"Pledage.sol\":9862:9890  option.token = content.token */\n      dup1\n      sload\n      not(sub(shl(0xa0, 0x01), 0x01))\n      and\n      sub(shl(0xa0, 0x01), 0x01)\n      swap3\n      swap1\n      swap3\n      and\n      swap2\n      swap1\n      swap2\n      or\n      swap1\n      sstore\n        /* \"Pledage.sol\":9916:9930  content.holder */\n      tag_167\n      0x40\n      dup4\n      add\n      0x20\n      dup5\n      add\n      tag_47\n      jump\t// in\n    tag_167:\n        /* \"Pledage.sol\":9900:9913  option.holder */\n      0x01\n      dup3\n      add\n        /* \"Pledage.sol\":9900:9930  option.holder = content.holder */\n      dup1\n      sload\n      not(sub(shl(0xa0, 0x01), 0x01))\n      and\n      sub(shl(0xa0, 0x01), 0x01)\n      swap3\n      dup4\n      and\n      swap1\n      dup2\n      or\n      swap1\n      swap2\n      sstore\n        /* \"Pledage.sol\":9984:9997  option.amount */\n      0x03\n      dup4\n      add\n      sload\n        /* \"Pledage.sol\":9950:9965  option.optionId */\n      dup4\n      sload\n      0x00\n        /* \"Pledage.sol\":9940:9966  reentrant[option.optionId] */\n      swap1\n      dup2\n      mstore\n        /* \"Pledage.sol\":9940:9949  reentrant */\n      0x0b\n        /* \"Pledage.sol\":9940:9966  reentrant[option.optionId] */\n      0x20\n      swap1\n      dup2\n      mstore\n      0x40\n      dup1\n      dup4\n      keccak256\n        /* \"Pledage.sol\":9940:9981  reentrant[option.optionId][option.holder] */\n      swap5\n      dup4\n      mstore\n      swap4\n      swap1\n      mstore\n      swap2\n      swap1\n      swap2\n      keccak256\n        /* \"Pledage.sol\":9940:9997  reentrant[option.optionId][option.holder] = option.amount */\n      sstore\n        /* \"Pledage.sol\":10026:10031  token */\n      sload(0x04)\n        /* \"Pledage.sol\":10010:10022  option.token */\n      0x02\n      dup4\n      add\n      sload\n        /* \"Pledage.sol\":10026:10031  token */\n      swap1\n      dup3\n      and\n        /* \"Pledage.sol\":10010:10022  option.token */\n      swap2\n      and\n        /* \"Pledage.sol\":10010:10031  option.token == token */\n      sub\n        /* \"Pledage.sol\":10007:10331  if(option.token == token){... */\n      tag_168\n      jumpi\n        /* \"Pledage.sol\":10074:10079  token */\n      sload(0x04)\n        /* \"Pledage.sol\":10046:10123  TransferHelper.safeTransfer(token, content.holder, content.amount * 99 / 100) */\n      tag_169\n      swap1\n      sub(shl(0xa0, 0x01), 0x01)\n        /* \"Pledage.sol\":10074:10079  token */\n      and\n        /* \"Pledage.sol\":10081:10095  content.holder */\n      tag_170\n      0x40\n      dup6\n      add\n      0x20\n      dup7\n      add\n      tag_47\n      jump\t// in\n    tag_170:\n        /* \"Pledage.sol\":10119:10122  100 */\n      0x64\n        /* \"Pledage.sol\":10097:10116  content.amount * 99 */\n      tag_171\n        /* \"Pledage.sol\":10097:10111  content.amount */\n      0x40\n      dup8\n      add\n      calldataload\n        /* \"Pledage.sol\":10114:10116  99 */\n      0x63\n        /* \"Pledage.sol\":10097:10116  content.amount * 99 */\n      tag_172\n      jump\t// in\n    tag_171:\n        /* \"Pledage.sol\":10097:10122  content.amount * 99 / 100 */\n      tag_173\n      swap2\n      swap1\n      tag_174\n      jump\t// in\n    tag_173:\n        /* \"Pledage.sol\":10046:10073  TransferHelper.safeTransfer */\n      tag_175\n        /* \"Pledage.sol\":10046:10123  TransferHelper.safeTransfer(token, content.holder, content.amount * 99 / 100) */\n      jump\t// in\n    tag_169:\n        /* \"Pledage.sol\":10165:10170  token */\n      sload(0x04)\n        /* \"Pledage.sol\":10137:10213  TransferHelper.safeTransfer(token, content.holder, content.amount * 1 / 100) */\n      tag_176\n      swap1\n      sub(shl(0xa0, 0x01), 0x01)\n        /* \"Pledage.sol\":10165:10170  token */\n      and\n        /* \"Pledage.sol\":10172:10186  content.holder */\n      tag_177\n      0x40\n      dup6\n      add\n      0x20\n      dup7\n      add\n      tag_47\n      jump\t// in\n    tag_177:\n        /* \"Pledage.sol\":10209:10212  100 */\n      0x64\n        /* \"Pledage.sol\":10188:10206  content.amount * 1 */\n      tag_171\n        /* \"Pledage.sol\":10188:10202  content.amount */\n      0x40\n      dup8\n      add\n      calldataload\n        /* \"Pledage.sol\":10205:10206  1 */\n      0x01\n        /* \"Pledage.sol\":10188:10206  content.amount * 1 */\n      tag_172\n      jump\t// in\n        /* \"Pledage.sol\":10137:10213  TransferHelper.safeTransfer(token, content.holder, content.amount * 1 / 100) */\n    tag_176:\n        /* \"Pledage.sol\":10232:10320  Withdraw(content.orderId, content.holder, content.token, content.amount,block.timestamp) */\n      0xfe7813e2866053d5c3938554e517b554fce6666a6561bed9eaa7419b29fa9b68\n        /* \"Pledage.sol\":10241:10256  content.orderId */\n      0x60\n      dup4\n      add\n      calldataload\n        /* \"Pledage.sol\":10258:10272  content.holder */\n      tag_180\n      0x40\n      dup6\n      add\n      0x20\n      dup7\n      add\n      tag_47\n      jump\t// in\n    tag_180:\n        /* \"Pledage.sol\":10274:10287  content.token */\n      tag_181\n      0x20\n      dup7\n      add\n        /* \"Pledage.sol\":10274:10281  content */\n      dup7\n        /* \"Pledage.sol\":10274:10287  content.token */\n      tag_47\n      jump\t// in\n    tag_181:\n        /* \"Pledage.sol\":10289:10303  content.amount */\n      0x40\n        /* \"Pledage.sol\":10232:10320  Withdraw(content.orderId, content.holder, content.token, content.amount,block.timestamp) */\n      dup1\n      mload\n        /* \"#utility.yul\":6342:6367   */\n      swap4\n      dup5\n      mstore\n      sub(shl(0xa0, 0x01), 0x01)\n        /* \"#utility.yul\":6441:6456   */\n      swap3\n      dup4\n      and\n        /* \"#utility.yul\":6436:6438   */\n      0x20\n        /* \"#utility.yul\":6421:6439   */\n      dup6\n      add\n        /* \"#utility.yul\":6414:6457   */\n      mstore\n        /* \"#utility.yul\":6493:6508   */\n      swap2\n      and\n        /* \"#utility.yul\":6473:6491   */\n      dup3\n      dup3\n      add\n        /* \"#utility.yul\":6466:6509   */\n      mstore\n        /* \"Pledage.sol\":10289:10303  content.amount */\n      dup5\n      add\n      calldataload\n        /* \"#utility.yul\":6540:6542   */\n      0x60\n        /* \"#utility.yul\":6525:6543   */\n      dup3\n      add\n        /* \"#utility.yul\":6518:6552   */\n      mstore\n        /* \"Pledage.sol\":10304:10319  block.timestamp */\n      timestamp\n        /* \"#utility.yul\":6583:6586   */\n      0x80\n        /* \"#utility.yul\":6568:6587   */\n      dup3\n      add\n        /* \"#utility.yul\":6561:6596   */\n      mstore\n        /* \"#utility.yul\":6329:6332   */\n      0xa0\n        /* \"#utility.yul\":6314:6333   */\n      add\n        /* \"Pledage.sol\":10232:10320  Withdraw(content.orderId, content.holder, content.token, content.amount,block.timestamp) */\n      mload(0x40)\n      dup1\n      swap2\n      sub\n      swap1\n      log1\n        /* \"Pledage.sol\":10007:10331  if(option.token == token){... */\n    tag_168:\n        /* \"Pledage.sol\":10343:10355  option.token */\n      0x02\n      dup2\n      add\n      sload\n      sub(shl(0xa0, 0x01), 0x01)\n      and\n        /* \"Pledage.sol\":10340:10561  if(option.token == address(0)){... */\n      tag_184\n      jumpi\n        /* \"Pledage.sol\":10384:10446  TransferHelper.safeTransferETH(content.holder, content.amount) */\n      tag_185\n        /* \"Pledage.sol\":10415:10429  content.holder */\n      tag_186\n      0x40\n      dup5\n      add\n      0x20\n      dup6\n      add\n      tag_47\n      jump\t// in\n    tag_186:\n        /* \"Pledage.sol\":10431:10438  content */\n      dup4\n        /* \"Pledage.sol\":10431:10445  content.amount */\n      0x40\n      add\n      calldataload\n        /* \"Pledage.sol\":10384:10414  TransferHelper.safeTransferETH */\n      tag_187\n        /* \"Pledage.sol\":10384:10446  TransferHelper.safeTransferETH(content.holder, content.amount) */\n      jump\t// in\n    tag_185:\n        /* \"Pledage.sol\":10465:10550  Withdraw(content.orderId, content.holder, address(0), content.amount,block.timestamp) */\n      0xfe7813e2866053d5c3938554e517b554fce6666a6561bed9eaa7419b29fa9b68\n        /* \"Pledage.sol\":10474:10489  content.orderId */\n      0x60\n      dup4\n      add\n      calldataload\n        /* \"Pledage.sol\":10491:10505  content.holder */\n      tag_188\n      0x40\n      dup6\n      add\n      0x20\n      dup7\n      add\n      tag_47\n      jump\t// in\n    tag_188:\n        /* \"Pledage.sol\":10519:10533  content.amount */\n      0x40\n        /* \"Pledage.sol\":10465:10550  Withdraw(content.orderId, content.holder, address(0), content.amount,block.timestamp) */\n      dup1\n      mload\n        /* \"#utility.yul\":6342:6367   */\n      swap3\n      dup4\n      mstore\n      sub(shl(0xa0, 0x01), 0x01)\n        /* \"#utility.yul\":6441:6456   */\n      swap1\n      swap2\n      and\n        /* \"#utility.yul\":6436:6438   */\n      0x20\n        /* \"#utility.yul\":6421:6439   */\n      dup4\n      add\n        /* \"#utility.yul\":6414:6457   */\n      mstore\n        /* \"Pledage.sol\":10515:10516  0 */\n      0x00\n        /* \"#utility.yul\":6473:6491   */\n      dup3\n      dup3\n      add\n        /* \"#utility.yul\":6466:6509   */\n      mstore\n        /* \"Pledage.sol\":10519:10533  content.amount */\n      dup5\n      add\n      calldataload\n        /* \"#utility.yul\":6540:6542   */\n      0x60\n        /* \"#utility.yul\":6525:6543   */\n      dup3\n      add\n        /* \"#utility.yul\":6518:6552   */\n      mstore\n        /* \"Pledage.sol\":10534:10549  block.timestamp */\n      timestamp\n        /* \"#utility.yul\":6583:6586   */\n      0x80\n        /* \"#utility.yul\":6568:6587   */\n      dup3\n      add\n        /* \"#utility.yul\":6561:6596   */\n      mstore\n        /* \"#utility.yul\":6329:6332   */\n      0xa0\n        /* \"#utility.yul\":6314:6333   */\n      add\n        /* \"Pledage.sol\":10465:10550  Withdraw(content.orderId, content.holder, address(0), content.amount,block.timestamp) */\n      mload(0x40)\n      dup1\n      swap2\n      sub\n      swap1\n      log1\n        /* \"Pledage.sol\":10340:10561  if(option.token == address(0)){... */\n    tag_184:\n        /* \"Pledage.sol\":9330:10577  {... */\n      pop\n        /* \"Pledage.sol\":9263:10577  function withdraw(SignatureInfo.Content calldata content) external {... */\n      pop\n      jump\t// out\n        /* \"Pledage.sol\":11521:11763  function getTokenPrice() external view returns(uint256){... */\n    tag_65:\n        /* \"Pledage.sol\":11651:11667  uniswapV2Factory */\n      sload(0x09)\n        /* \"Pledage.sol\":11669:11674  token */\n      sload(0x04)\n        /* \"Pledage.sol\":11676:11680  usdt */\n      sload(0x07)\n        /* \"Pledage.sol\":11568:11575  uint256 */\n      0x00\n      swap3\n      dup4\n      swap3\n      dup4\n      swap3\n        /* \"Pledage.sol\":11622:11681  UniswapV2Library.getReserves(uniswapV2Factory, token, usdt) */\n      tag_191\n      swap3\n      sub(shl(0xa0, 0x01), 0x01)\n        /* \"Pledage.sol\":11651:11667  uniswapV2Factory */\n      swap1\n      dup2\n      and\n      swap3\n        /* \"Pledage.sol\":11669:11674  token */\n      dup2\n      and\n      swap2\n        /* \"Pledage.sol\":11676:11680  usdt */\n      and\n        /* \"Pledage.sol\":11622:11650  UniswapV2Library.getReserves */\n      tag_138\n        /* \"Pledage.sol\":11622:11681  UniswapV2Library.getReserves(uniswapV2Factory, token, usdt) */\n      jump\t// in\n    tag_191:\n        /* \"Pledage.sol\":11586:11681  (uint reserveIn, uint reserveOut) = UniswapV2Library.getReserves(uniswapV2Factory, token, usdt) */\n      swap2\n      pop\n      swap2\n      pop\n        /* \"Pledage.sol\":11698:11756  UniswapV2Library.getAmountOut(1e18, reserveIn, reserveOut) */\n      tag_192\n        /* \"Pledage.sol\":11728:11732  1e18 */\n      0x0de0b6b3a7640000\n        /* \"Pledage.sol\":11734:11743  reserveIn */\n      dup4\n        /* \"Pledage.sol\":11745:11755  reserveOut */\n      dup4\n        /* \"Pledage.sol\":11698:11727  UniswapV2Library.getAmountOut */\n      tag_140\n        /* \"Pledage.sol\":11698:11756  UniswapV2Library.getAmountOut(1e18, reserveIn, reserveOut) */\n      jump\t// in\n    tag_192:\n        /* \"Pledage.sol\":11691:11756  return UniswapV2Library.getAmountOut(1e18, reserveIn, reserveOut) */\n      swap3\n      pop\n      pop\n      pop\n        /* \"Pledage.sol\":11521:11763  function getTokenPrice() external view returns(uint256){... */\n      swap1\n      jump\t// out\n        /* \"Pledage.sol\":10583:10812  function getResult(SignatureInfo.Content calldata content) public view returns(bool){... */\n    tag_82:\n        /* \"Pledage.sol\":10662:10666  bool */\n      0x00\n        /* \"Pledage.sol\":10684:10805  SignatureChecker.verify(SignatureInfo.getContentHash(content), permit, content.v, content.r, content.s, DOMAIN_SEPARATOR) */\n      tag_194\n        /* \"Pledage.sol\":10708:10745  SignatureInfo.getContentHash(content) */\n      tag_195\n        /* \"Pledage.sol\":10737:10744  content */\n      dup4\n        /* \"Pledage.sol\":10708:10736  SignatureInfo.getContentHash */\n      tag_196\n        /* \"Pledage.sol\":10708:10745  SignatureInfo.getContentHash(content) */\n      jump\t// in\n    tag_195:\n        /* \"Pledage.sol\":10747:10753  permit */\n      and(sub(shl(0xa0, 0x01), 0x01), sload(0x05))\n        /* \"Pledage.sol\":10755:10764  content.v */\n      tag_197\n      0xc0\n      dup7\n      add\n      0xa0\n      dup8\n      add\n      tag_198\n      jump\t// in\n    tag_197:\n        /* \"Pledage.sol\":10766:10773  content */\n      dup6\n        /* \"Pledage.sol\":10766:10775  content.r */\n      0xc0\n      add\n      calldataload\n        /* \"Pledage.sol\":10777:10784  content */\n      dup7\n        /* \"Pledage.sol\":10777:10786  content.s */\n      0xe0\n      add\n      calldataload\n        /* \"Pledage.sol\":10788:10804  DOMAIN_SEPARATOR */\n      sload(0x0a)\n        /* \"Pledage.sol\":10684:10707  SignatureChecker.verify */\n      tag_199\n        /* \"Pledage.sol\":10684:10805  SignatureChecker.verify(SignatureInfo.getContentHash(content), permit, content.v, content.r, content.s, DOMAIN_SEPARATOR) */\n      jump\t// in\n    tag_194:\n        /* \"Pledage.sol\":10677:10805  return SignatureChecker.verify(SignatureInfo.getContentHash(content), permit, content.v, content.r, content.s, DOMAIN_SEPARATOR) */\n      swap3\n        /* \"Pledage.sol\":10583:10812  function getResult(SignatureInfo.Content calldata content) public view returns(bool){... */\n      swap2\n      pop\n      pop\n      jump\t// out\n        /* \"Pledage.sol\":12067:12152  function setAdmin(address _admin) external onlyOwner(){... */\n    tag_94:\n        /* \"Pledage.sol\":8181:8186  admin */\n      and(sub(shl(0xa0, 0x01), 0x01), sload(0x00))\n        /* \"Pledage.sol\":8190:8200  msg.sender */\n      caller\n        /* \"Pledage.sol\":8181:8200  admin == msg.sender */\n      eq\n        /* \"Pledage.sol\":8173:8223  require(admin == msg.sender,\"Caller is not owner\") */\n      tag_201\n      jumpi\n      mload(0x40)\n      shl(0xe5, 0x461bcd)\n      dup2\n      mstore\n      0x04\n      add\n      tag_143\n      swap1\n      tag_144\n      jump\t// in\n    tag_201:\n        /* \"Pledage.sol\":12131:12136  admin */\n      0x00\n        /* \"Pledage.sol\":12131:12145  admin = _admin */\n      dup1\n      sload\n      not(sub(shl(0xa0, 0x01), 0x01))\n      and\n      sub(shl(0xa0, 0x01), 0x01)\n      swap3\n      swap1\n      swap3\n      and\n      swap2\n      swap1\n      swap2\n      or\n      swap1\n      sstore\n        /* \"Pledage.sol\":12067:12152  function setAdmin(address _admin) external onlyOwner(){... */\n      jump\t// out\n        /* \"Pledage.sol\":11915:12061  function emergencyToken(address receiver,uint256 amount) external onlyOwner(){... */\n    tag_99:\n        /* \"Pledage.sol\":8181:8186  admin */\n      and(sub(shl(0xa0, 0x01), 0x01), sload(0x00))\n        /* \"Pledage.sol\":8190:8200  msg.sender */\n      caller\n        /* \"Pledage.sol\":8181:8200  admin == msg.sender */\n      eq\n        /* \"Pledage.sol\":8173:8223  require(admin == msg.sender,\"Caller is not owner\") */\n      tag_205\n      jumpi\n      mload(0x40)\n      shl(0xe5, 0x461bcd)\n      dup2\n      mstore\n      0x04\n      add\n      tag_143\n      swap1\n      tag_144\n      jump\t// in\n    tag_205:\n        /* \"Pledage.sol\":12030:12035  token */\n      sload(0x04)\n        /* \"Pledage.sol\":12002:12054  TransferHelper.safeTransfer(token, receiver, amount) */\n      tag_184\n      swap1\n      sub(shl(0xa0, 0x01), 0x01)\n        /* \"Pledage.sol\":12030:12035  token */\n      and\n        /* \"Pledage.sol\":12037:12045  receiver */\n      dup4\n        /* \"Pledage.sol\":12047:12053  amount */\n      dup4\n        /* \"Pledage.sol\":12002:12029  TransferHelper.safeTransfer */\n      tag_175\n        /* \"Pledage.sol\":12002:12054  TransferHelper.safeTransfer(token, receiver, amount) */\n      jump\t// in\n        /* \"Pledage.sol\":11769:11909  function emergencyBNB(address receiver,uint256 amount) external onlyOwner(){... */\n    tag_103:\n        /* \"Pledage.sol\":8181:8186  admin */\n      and(sub(shl(0xa0, 0x01), 0x01), sload(0x00))\n        /* \"Pledage.sol\":8190:8200  msg.sender */\n      caller\n        /* \"Pledage.sol\":8181:8200  admin == msg.sender */\n      eq\n        /* \"Pledage.sol\":8173:8223  require(admin == msg.sender,\"Caller is not owner\") */\n      tag_210\n      jumpi\n      mload(0x40)\n      shl(0xe5, 0x461bcd)\n      dup2\n      mstore\n      0x04\n      add\n      tag_143\n      swap1\n      tag_144\n      jump\t// in\n    tag_210:\n        /* \"Pledage.sol\":11854:11902  TransferHelper.safeTransferETH(receiver, amount) */\n      tag_184\n        /* \"Pledage.sol\":11885:11893  receiver */\n      dup3\n        /* \"Pledage.sol\":11895:11901  amount */\n      dup3\n        /* \"Pledage.sol\":11854:11884  TransferHelper.safeTransferETH */\n      tag_187\n        /* \"Pledage.sol\":11854:11902  TransferHelper.safeTransferETH(receiver, amount) */\n      jump\t// in\n        /* \"Pledage.sol\":8701:9257  function provide(uint256 _amount,Expiration _expiration) external{... */\n    tag_115:\n        /* \"Pledage.sol\":8795:8801  100e18 */\n      0x056bc75e2d63100000\n        /* \"Pledage.sol\":8784:8791  _amount */\n      dup3\n        /* \"Pledage.sol\":8784:8801  _amount >= 100e18 */\n      lt\n      iszero\n        /* \"Pledage.sol\":8776:8835  require(_amount >= 100e18,\"Pledage:Invalid provide amount\") */\n      tag_215\n      jumpi\n      mload(0x40)\n      shl(0xe5, 0x461bcd)\n      dup2\n      mstore\n        /* \"#utility.yul\":7083:7085   */\n      0x20\n        /* \"Pledage.sol\":8776:8835  require(_amount >= 100e18,\"Pledage:Invalid provide amount\") */\n      0x04\n      dup3\n      add\n        /* \"#utility.yul\":7065:7086   */\n      mstore\n        /* \"#utility.yul\":7122:7124   */\n      0x1e\n        /* \"#utility.yul\":7102:7120   */\n      0x24\n      dup3\n      add\n        /* \"#utility.yul\":7095:7125   */\n      mstore\n        /* \"#utility.yul\":7161:7193   */\n      0x506c65646167653a496e76616c69642070726f7669646520616d6f756e740000\n        /* \"#utility.yul\":7141:7159   */\n      0x44\n      dup3\n      add\n        /* \"#utility.yul\":7134:7194   */\n      mstore\n        /* \"#utility.yul\":7211:7229   */\n      0x64\n      add\n        /* \"Pledage.sol\":8776:8835  require(_amount >= 100e18,\"Pledage:Invalid provide amount\") */\n      tag_143\n        /* \"#utility.yul\":6881:7235   */\n      jump\n        /* \"Pledage.sol\":8776:8835  require(_amount >= 100e18,\"Pledage:Invalid provide amount\") */\n    tag_215:\n        /* \"Pledage.sol\":8868:8883  Expiration.zero */\n      0x00\n        /* \"Pledage.sol\":8853:8864  _expiration */\n      dup2\n        /* \"Pledage.sol\":8853:8883  _expiration != Expiration.zero */\n      0x04\n      dup2\n      gt\n      iszero\n      tag_222\n      jumpi\n      tag_222\n      tag_220\n      jump\t// in\n    tag_222:\n      sub\n        /* \"Pledage.sol\":8845:8921  require(_expiration != Expiration.zero,\"Pledage:Invalid provide expiration\") */\n      tag_223\n      jumpi\n      mload(0x40)\n      shl(0xe5, 0x461bcd)\n      dup2\n      mstore\n        /* \"#utility.yul\":7574:7576   */\n      0x20\n        /* \"Pledage.sol\":8845:8921  require(_expiration != Expiration.zero,\"Pledage:Invalid provide expiration\") */\n      0x04\n      dup3\n      add\n        /* \"#utility.yul\":7556:7577   */\n      mstore\n        /* \"#utility.yul\":7613:7615   */\n      0x22\n        /* \"#utility.yul\":7593:7611   */\n      0x24\n      dup3\n      add\n        /* \"#utility.yul\":7586:7616   */\n      mstore\n        /* \"#utility.yul\":7652:7686   */\n      0x506c65646167653a496e76616c69642070726f76696465206578706972617469\n        /* \"#utility.yul\":7632:7650   */\n      0x44\n      dup3\n      add\n        /* \"#utility.yul\":7625:7687   */\n      mstore\n      shl(0xf1, 0x37b7)\n        /* \"#utility.yul\":7703:7721   */\n      0x64\n      dup3\n      add\n        /* \"#utility.yul\":7696:7728   */\n      mstore\n        /* \"#utility.yul\":7745:7764   */\n      0x84\n      add\n        /* \"Pledage.sol\":8845:8921  require(_expiration != Expiration.zero,\"Pledage:Invalid provide expiration\") */\n      tag_143\n        /* \"#utility.yul\":7372:7770   */\n      jump\n        /* \"Pledage.sol\":8845:8921  require(_expiration != Expiration.zero,\"Pledage:Invalid provide expiration\") */\n    tag_223:\n        /* \"Pledage.sol\":8963:8968  token */\n      sload(0x04)\n        /* \"Pledage.sol\":8931:9005  TransferHelper.safeTransferFrom(token, msg.sender, address(this), _amount) */\n      tag_226\n      swap1\n      sub(shl(0xa0, 0x01), 0x01)\n        /* \"Pledage.sol\":8963:8968  token */\n      and\n        /* \"Pledage.sol\":8970:8980  msg.sender */\n      caller\n        /* \"Pledage.sol\":8990:8994  this */\n      address\n        /* \"Pledage.sol\":8997:9004  _amount */\n      dup6\n        /* \"Pledage.sol\":8931:8962  TransferHelper.safeTransferFrom */\n      tag_227\n        /* \"Pledage.sol\":8931:9005  TransferHelper.safeTransferFrom(token, msg.sender, address(this), _amount) */\n      jump\t// in\n    tag_226:\n        /* \"Pledage.sol\":9044:9054  msg.sender */\n      caller\n        /* \"Pledage.sol\":9015:9032  User storage user */\n      0x00\n        /* \"Pledage.sol\":9035:9055  userInfo[msg.sender] */\n      swap1\n      dup2\n      mstore\n        /* \"Pledage.sol\":9035:9043  userInfo */\n      0x02\n        /* \"Pledage.sol\":9035:9055  userInfo[msg.sender] */\n      0x20\n      dup2\n      dup2\n      mstore\n      0x40\n      dup4\n      keccak256\n        /* \"Pledage.sol\":9065:9091  user.amounts.push(_amount) */\n      dup1\n      sload\n      0x01\n      dup1\n      dup3\n      add\n      dup4\n      sstore\n      dup3\n      dup7\n      mstore\n      dup4\n      dup7\n      keccak256\n      swap1\n      swap2\n      add\n      dup8\n      swap1\n      sstore\n        /* \"Pledage.sol\":9101:9117  user.expirations */\n      swap3\n      dup2\n      add\n        /* \"Pledage.sol\":9101:9135  user.expirations.push(_expiration) */\n      dup1\n      sload\n      swap4\n      dup5\n      add\n      dup2\n      sstore\n      dup5\n      mstore\n      swap3\n      dup2\n      swap1\n      keccak256\n      swap1\n      dup3\n      div\n      add\n      dup1\n      sload\n        /* \"Pledage.sol\":9123:9134  _expiration */\n      dup5\n      swap3\n        /* \"Pledage.sol\":9101:9135  user.expirations.push(_expiration) */\n      0x1f\n      and\n      0x0100\n      exp\n      0xff\n      dup2\n      mul\n      not\n      swap1\n      swap2\n      and\n      swap1\n        /* \"Pledage.sol\":9123:9134  _expiration */\n      dup4\n        /* \"Pledage.sol\":9101:9135  user.expirations.push(_expiration) */\n      0x04\n      dup2\n      gt\n      iszero\n      tag_231\n      jumpi\n      tag_231\n      tag_220\n      jump\t// in\n    tag_231:\n      mul\n      or\n      swap1\n      sstore\n      pop\n        /* \"Pledage.sol\":9145:9155  user.times */\n      0x01\n      dup1\n      dup3\n      add\n        /* \"Pledage.sol\":9145:9177  user.times.push(block.timestamp) */\n      dup1\n      sload\n      swap2\n      dup3\n      add\n      dup2\n      sstore\n      0x00\n      swap1\n      dup2\n      mstore\n      0x20\n      swap1\n      keccak256\n        /* \"Pledage.sol\":9161:9176  block.timestamp */\n      timestamp\n        /* \"Pledage.sol\":9145:9177  user.times.push(block.timestamp) */\n      swap2\n      add\n      dup2\n      swap1\n      sstore\n        /* \"Pledage.sol\":9192:9250  Provide(msg.sender, _amount, block.timestamp, _expiration) */\n      mload(0x40)\n      0x1ab2d7016a285cf7ca78bdd1c8a8e845f082fe124067d9137646150ced640816\n      swap2\n      tag_233\n      swap2\n        /* \"Pledage.sol\":9200:9210  msg.sender */\n      caller\n      swap2\n        /* \"Pledage.sol\":9212:9219  _amount */\n      dup8\n      swap2\n        /* \"Pledage.sol\":9238:9249  _expiration */\n      dup8\n      swap1\n        /* \"Pledage.sol\":9192:9250  Provide(msg.sender, _amount, block.timestamp, _expiration) */\n      tag_234\n      jump\t// in\n    tag_233:\n      mload(0x40)\n      dup1\n      swap2\n      sub\n      swap1\n      log1\n        /* \"Pledage.sol\":8766:9257  {... */\n      pop\n        /* \"Pledage.sol\":8701:9257  function provide(uint256 _amount,Expiration _expiration) external{... */\n      pop\n      pop\n      jump\t// out\n        /* \"Pledage.sol\":8247:8695  function initialize( address _permit) external onlyOwner(){... */\n    tag_119:\n        /* \"Pledage.sol\":8181:8186  admin */\n      and(sub(shl(0xa0, 0x01), 0x01), sload(0x00))\n        /* \"Pledage.sol\":8190:8200  msg.sender */\n      caller\n        /* \"Pledage.sol\":8181:8200  admin == msg.sender */\n      eq\n        /* \"Pledage.sol\":8173:8223  require(admin == msg.sender,\"Caller is not owner\") */\n      tag_236\n      jumpi\n      mload(0x40)\n      shl(0xe5, 0x461bcd)\n      dup2\n      mstore\n      0x04\n      add\n      tag_143\n      swap1\n      tag_144\n      jump\t// in\n    tag_236:\n        /* \"Pledage.sol\":8315:8330  uniswapV2Router */\n      0x08\n        /* \"Pledage.sol\":8315:8375  uniswapV2Router = 0x10ED43C718714eb63d5aA57B78B54704E256024E */\n      dup1\n      sload\n      not(sub(shl(0xa0, 0x01), 0x01))\n      swap1\n      dup2\n      and\n        /* \"Pledage.sol\":8333:8375  0x10ED43C718714eb63d5aA57B78B54704E256024E */\n      0x10ed43c718714eb63d5aa57b78b54704e256024e\n        /* \"Pledage.sol\":8315:8375  uniswapV2Router = 0x10ED43C718714eb63d5aA57B78B54704E256024E */\n      or\n      swap1\n      swap2\n      sstore\n        /* \"Pledage.sol\":8385:8401  uniswapV2Factory */\n      0x09\n        /* \"Pledage.sol\":8385:8446  uniswapV2Factory = 0xcA143Ce32Fe78f1f7019d7d551a6402fC5350c73 */\n      dup1\n      sload\n      dup3\n      and\n        /* \"Pledage.sol\":8404:8446  0xcA143Ce32Fe78f1f7019d7d551a6402fC5350c73 */\n      0xca143ce32fe78f1f7019d7d551a6402fc5350c73\n        /* \"Pledage.sol\":8385:8446  uniswapV2Factory = 0xcA143Ce32Fe78f1f7019d7d551a6402fC5350c73 */\n      or\n      swap1\n      sstore\n        /* \"Pledage.sol\":8456:8460  usdt */\n      0x07\n        /* \"Pledage.sol\":8456:8505  usdt = 0x55d398326f99059fF775485246999027B3197955 */\n      dup1\n      sload\n      dup3\n      and\n        /* \"Pledage.sol\":8463:8505  0x55d398326f99059fF775485246999027B3197955 */\n      0x55d398326f99059ff775485246999027b3197955\n        /* \"Pledage.sol\":8456:8505  usdt = 0x55d398326f99059fF775485246999027B3197955 */\n      or\n      swap1\n      sstore\n        /* \"Pledage.sol\":8515:8519  dead */\n      0x06\n        /* \"Pledage.sol\":8515:8564  dead = 0x000000000000000000000000000000000000dEaD */\n      dup1\n      sload\n      dup3\n      and\n        /* \"Pledage.sol\":8522:8564  0x000000000000000000000000000000000000dEaD */\n      0xdead\n        /* \"Pledage.sol\":8515:8564  dead = 0x000000000000000000000000000000000000dEaD */\n      or\n      swap1\n      sstore\n        /* \"Pledage.sol\":8574:8579  token */\n      0x04\n        /* \"Pledage.sol\":8574:8624  token = 0x33E0B24aaeA62500ca79D33e26EFe576BBf5baCF */\n      dup1\n      sload\n      dup3\n      and\n        /* \"Pledage.sol\":8582:8624  0x33E0B24aaeA62500ca79D33e26EFe576BBf5baCF */\n      0x33e0b24aaea62500ca79d33e26efe576bbf5bacf\n        /* \"Pledage.sol\":8574:8624  token = 0x33E0B24aaeA62500ca79D33e26EFe576BBf5baCF */\n      or\n      swap1\n      sstore\n      0x05\n        /* \"Pledage.sol\":8634:8650  permit = _permit */\n      dup1\n      sload\n      sub(shl(0xa0, 0x01), 0x01)\n      dup5\n      and\n      swap3\n      and\n      swap2\n      swap1\n      swap2\n      or\n      swap1\n      sstore\n        /* \"Pledage.sol\":8660:8684  _updateDomainSeparator() */\n      tag_239\n        /* \"Pledage.sol\":11101:11111  bytes(\"1\") */\n      0x40\n      dup1\n      mload\n      dup1\n      dup3\n      add\n      dup3\n      mstore\n      0x01\n      dup2\n      mstore\n      shl(0xf8, 0x31)\n      0x20\n      swap2\n      dup3\n      add\n      mstore\n        /* \"Pledage.sol\":10912:11188  abi.encode(... */\n      dup2\n      mload\n        /* \"Pledage.sol\":10940:11035  keccak256(\"EIP712Domain(string name,string version,uint256 chainId,address verifyingContract)\") */\n      0x8b73c3c69bb8fe3d512ecc4cf759cc79239f7b179b0ffacaa9a75d522b39400f\n        /* \"Pledage.sol\":10912:11188  abi.encode(... */\n      dup2\n      dup4\n      add\n        /* \"#utility.yul\":13742:13767   */\n      mstore\n        /* \"Pledage.sol\":11053:11073  keccak256(\"Pledage\") */\n      0xed9e26fc34b201817108d14db5e93fff6700cff6f5e90ac3b3da395aba756b5c\n        /* \"#utility.yul\":13783:13801   */\n      dup2\n      dup5\n      add\n        /* \"#utility.yul\":13776:13810   */\n      mstore\n        /* \"Pledage.sol\":11091:11112  keccak256(bytes(\"1\")) */\n      0xc89efdaa54c0f20c7adf612882df0950f5a951637e0307cdcb4c672f298b8bc6\n        /* \"#utility.yul\":13826:13844   */\n      0x60\n      dup3\n      add\n        /* \"#utility.yul\":13819:13853   */\n      mstore\n        /* \"Pledage.sol\":11130:11143  block.chainid */\n      chainid\n        /* \"#utility.yul\":13869:13887   */\n      0x80\n      dup3\n      add\n        /* \"#utility.yul\":13862:13896   */\n      mstore\n        /* \"Pledage.sol\":11169:11173  this */\n      address\n        /* \"#utility.yul\":13912:13931   */\n      0xa0\n      dup1\n      dup4\n      add\n        /* \"#utility.yul\":13905:13966   */\n      swap2\n      swap1\n      swap2\n      mstore\n        /* \"Pledage.sol\":10912:11188  abi.encode(... */\n      dup4\n      mload\n      dup1\n      dup4\n      sub\n      swap1\n      swap2\n      add\n      dup2\n      mstore\n        /* \"#utility.yul\":13714:13733   */\n      0xc0\n      swap1\n      swap2\n      add\n        /* \"Pledage.sol\":10912:11188  abi.encode(... */\n      swap1\n      swap3\n      mstore\n        /* \"Pledage.sol\":10889:11198  keccak256(... */\n      dup2\n      mload\n      swap2\n      add\n      keccak256\n        /* \"Pledage.sol\":10870:10886  DOMAIN_SEPARATOR */\n      0x0a\n        /* \"Pledage.sol\":10870:11198  DOMAIN_SEPARATOR = keccak256(... */\n      sstore\n        /* \"Pledage.sol\":10818:11205  function _updateDomainSeparator() private {... */\n      jump\n        /* \"Pledage.sol\":8660:8684  _updateDomainSeparator() */\n    tag_239:\n        /* \"Pledage.sol\":8247:8695  function initialize( address _permit) external onlyOwner(){... */\n      pop\n      jump\t// out\n        /* \"Pledage.sol\":6128:6515  function getReserves(address factory, address tokenA, address tokenB) internal view returns (uint reserveA, uint reserveB) {... */\n    tag_138:\n        /* \"Pledage.sol\":6221:6234  uint reserveA */\n      0x00\n        /* \"Pledage.sol\":6236:6249  uint reserveB */\n      dup1\n        /* \"Pledage.sol\":6262:6276  address token0 */\n      0x00\n        /* \"Pledage.sol\":6281:6307  sortTokens(tokenA, tokenB) */\n      tag_243\n        /* \"Pledage.sol\":6292:6298  tokenA */\n      dup6\n        /* \"Pledage.sol\":6300:6306  tokenB */\n      dup6\n        /* \"Pledage.sol\":6281:6291  sortTokens */\n      tag_244\n        /* \"Pledage.sol\":6281:6307  sortTokens(tokenA, tokenB) */\n      jump\t// in\n    tag_243:\n        /* \"Pledage.sol\":6261:6307  (address token0,) = sortTokens(tokenA, tokenB) */\n      pop\n      swap1\n      pop\n        /* \"Pledage.sol\":6318:6331  uint reserve0 */\n      0x00\n        /* \"Pledage.sol\":6333:6346  uint reserve1 */\n      dup1\n        /* \"Pledage.sol\":6366:6398  pairFor(factory, tokenA, tokenB) */\n      tag_245\n        /* \"Pledage.sol\":6374:6381  factory */\n      dup9\n        /* \"Pledage.sol\":6383:6389  tokenA */\n      dup9\n        /* \"Pledage.sol\":6391:6397  tokenB */\n      dup9\n        /* \"Pledage.sol\":6366:6373  pairFor */\n      tag_246\n        /* \"Pledage.sol\":6366:6398  pairFor(factory, tokenA, tokenB) */\n      jump\t// in\n    tag_245:\n      sub(shl(0xa0, 0x01), 0x01)\n        /* \"Pledage.sol\":6351:6411  IUniswapV2Pair(pairFor(factory, tokenA, tokenB)).getReserves */\n      and\n      0x0902f1ac\n        /* \"Pledage.sol\":6351:6413  IUniswapV2Pair(pairFor(factory, tokenA, tokenB)).getReserves() */\n      mload(0x40)\n      dup2\n      0xffffffff\n      and\n      0xe0\n      shl\n      dup2\n      mstore\n      0x04\n      add\n      0x60\n      mload(0x40)\n      dup1\n      dup4\n      sub\n      dup2\n      dup7\n      gas\n      staticcall\n      iszero\n      dup1\n      iszero\n      tag_248\n      jumpi\n      returndatasize\n      0x00\n      dup1\n      returndatacopy\n      revert(0x00, returndatasize)\n    tag_248:\n      pop\n      pop\n      pop\n      pop\n      mload(0x40)\n      returndatasize\n      not(0x1f)\n      0x1f\n      dup3\n      add\n      and\n      dup3\n      add\n      dup1\n      0x40\n      mstore\n      pop\n      dup2\n      add\n      swap1\n      tag_249\n      swap2\n      swap1\n      tag_250\n      jump\t// in\n    tag_249:\n        /* \"Pledage.sol\":6317:6413  (uint reserve0, uint reserve1,) = IUniswapV2Pair(pairFor(factory, tokenA, tokenB)).getReserves() */\n      pop\n      sub(shl(0x70, 0x01), 0x01)\n      and\n      swap2\n      pop\n      sub(shl(0x70, 0x01), 0x01)\n      and\n      swap2\n      pop\n        /* \"Pledage.sol\":6456:6462  token0 */\n      dup3\n      sub(shl(0xa0, 0x01), 0x01)\n        /* \"Pledage.sol\":6446:6462  tokenA == token0 */\n      and\n        /* \"Pledage.sol\":6446:6452  tokenA */\n      dup8\n      sub(shl(0xa0, 0x01), 0x01)\n        /* \"Pledage.sol\":6446:6462  tokenA == token0 */\n      and\n      eq\n        /* \"Pledage.sol\":6446:6508  tokenA == token0 ? (reserve0, reserve1) : (reserve1, reserve0) */\n      tag_251\n      jumpi\n        /* \"Pledage.sol\":6489:6497  reserve1 */\n      dup1\n        /* \"Pledage.sol\":6499:6507  reserve0 */\n      dup3\n        /* \"Pledage.sol\":6446:6508  tokenA == token0 ? (reserve0, reserve1) : (reserve1, reserve0) */\n      jump(tag_252)\n    tag_251:\n        /* \"Pledage.sol\":6466:6474  reserve0 */\n      dup2\n        /* \"Pledage.sol\":6476:6484  reserve1 */\n      dup2\n        /* \"Pledage.sol\":6446:6508  tokenA == token0 ? (reserve0, reserve1) : (reserve1, reserve0) */\n    tag_252:\n        /* \"Pledage.sol\":6423:6508  (reserveA, reserveB) = tokenA == token0 ? (reserve0, reserve1) : (reserve1, reserve0) */\n      swap1\n      swap10\n      swap1\n      swap9\n      pop\n        /* \"Pledage.sol\":6128:6515  function getReserves(address factory, address tokenA, address tokenB) internal view returns (uint reserveA, uint reserveB) {... */\n      swap7\n      pop\n      pop\n      pop\n      pop\n      pop\n      pop\n      pop\n      jump\t// out\n        /* \"Pledage.sol\":6521:7031  function getAmountOut(uint amountIn, uint reserveIn, uint reserveOut) internal pure returns (uint amountOut) {... */\n    tag_140:\n        /* \"Pledage.sol\":6614:6628  uint amountOut */\n      0x00\n        /* \"Pledage.sol\":6659:6660  0 */\n      dup1\n        /* \"Pledage.sol\":6648:6656  amountIn */\n      dup5\n        /* \"Pledage.sol\":6648:6660  amountIn > 0 */\n      gt\n        /* \"Pledage.sol\":6640:6708  require(amountIn > 0, 'UniswapV2Library: INSUFFICIENT_INPUT_AMOUNT') */\n      tag_254\n      jumpi\n      mload(0x40)\n      shl(0xe5, 0x461bcd)\n      dup2\n      mstore\n        /* \"#utility.yul\":9212:9214   */\n      0x20\n        /* \"Pledage.sol\":6640:6708  require(amountIn > 0, 'UniswapV2Library: INSUFFICIENT_INPUT_AMOUNT') */\n      0x04\n      dup3\n      add\n        /* \"#utility.yul\":9194:9215   */\n      mstore\n        /* \"#utility.yul\":9251:9253   */\n      0x2b\n        /* \"#utility.yul\":9231:9249   */\n      0x24\n      dup3\n      add\n        /* \"#utility.yul\":9224:9254   */\n      mstore\n        /* \"#utility.yul\":9290:9324   */\n      0x556e697377617056324c6962726172793a20494e53554646494349454e545f49\n        /* \"#utility.yul\":9270:9288   */\n      0x44\n      dup3\n      add\n        /* \"#utility.yul\":9263:9325   */\n      mstore\n      shl(0xaa, 0x1394155517d05353d55395)\n        /* \"#utility.yul\":9341:9359   */\n      0x64\n      dup3\n      add\n        /* \"#utility.yul\":9334:9375   */\n      mstore\n        /* \"#utility.yul\":9392:9411   */\n      0x84\n      add\n        /* \"Pledage.sol\":6640:6708  require(amountIn > 0, 'UniswapV2Library: INSUFFICIENT_INPUT_AMOUNT') */\n      tag_143\n        /* \"#utility.yul\":9010:9417   */\n      jump\n        /* \"Pledage.sol\":6640:6708  require(amountIn > 0, 'UniswapV2Library: INSUFFICIENT_INPUT_AMOUNT') */\n    tag_254:\n        /* \"Pledage.sol\":6738:6739  0 */\n      0x00\n        /* \"Pledage.sol\":6726:6735  reserveIn */\n      dup4\n        /* \"Pledage.sol\":6726:6739  reserveIn > 0 */\n      gt\n        /* \"Pledage.sol\":6726:6757  reserveIn > 0 && reserveOut > 0 */\n      dup1\n      iszero\n      tag_257\n      jumpi\n      pop\n        /* \"Pledage.sol\":6756:6757  0 */\n      0x00\n        /* \"Pledage.sol\":6743:6753  reserveOut */\n      dup3\n        /* \"Pledage.sol\":6743:6757  reserveOut > 0 */\n      gt\n        /* \"Pledage.sol\":6726:6757  reserveIn > 0 && reserveOut > 0 */\n    tag_257:\n        /* \"Pledage.sol\":6718:6802  require(reserveIn > 0 && reserveOut > 0, 'UniswapV2Library: INSUFFICIENT_LIQUIDITY') */\n      tag_258\n      jumpi\n      mload(0x40)\n      shl(0xe5, 0x461bcd)\n      dup2\n      mstore\n        /* \"#utility.yul\":9624:9626   */\n      0x20\n        /* \"Pledage.sol\":6718:6802  require(reserveIn > 0 && reserveOut > 0, 'UniswapV2Library: INSUFFICIENT_LIQUIDITY') */\n      0x04\n      dup3\n      add\n        /* \"#utility.yul\":9606:9627   */\n      mstore\n        /* \"#utility.yul\":9663:9665   */\n      0x28\n        /* \"#utility.yul\":9643:9661   */\n      0x24\n      dup3\n      add\n        /* \"#utility.yul\":9636:9666   */\n      mstore\n        /* \"#utility.yul\":9702:9736   */\n      0x556e697377617056324c6962726172793a20494e53554646494349454e545f4c\n        /* \"#utility.yul\":9682:9700   */\n      0x44\n      dup3\n      add\n        /* \"#utility.yul\":9675:9737   */\n      mstore\n      shl(0xc0, 0x4951554944495459)\n        /* \"#utility.yul\":9753:9771   */\n      0x64\n      dup3\n      add\n        /* \"#utility.yul\":9746:9784   */\n      mstore\n        /* \"#utility.yul\":9801:9820   */\n      0x84\n      add\n        /* \"Pledage.sol\":6718:6802  require(reserveIn > 0 && reserveOut > 0, 'UniswapV2Library: INSUFFICIENT_LIQUIDITY') */\n      tag_143\n        /* \"#utility.yul\":9422:9826   */\n      jump\n        /* \"Pledage.sol\":6718:6802  require(reserveIn > 0 && reserveOut > 0, 'UniswapV2Library: INSUFFICIENT_LIQUIDITY') */\n    tag_258:\n        /* \"Pledage.sol\":6812:6832  uint amountInWithFee */\n      0x00\n        /* \"Pledage.sol\":6835:6852  amountIn.mul(997) */\n      tag_261\n        /* \"Pledage.sol\":6835:6843  amountIn */\n      dup6\n        /* \"Pledage.sol\":6848:6851  997 */\n      0x03e5\n        /* \"Pledage.sol\":6835:6847  amountIn.mul */\n      tag_262\n        /* \"Pledage.sol\":6835:6852  amountIn.mul(997) */\n      jump\t// in\n    tag_261:\n        /* \"Pledage.sol\":6812:6852  uint amountInWithFee = amountIn.mul(997) */\n      swap1\n      pop\n        /* \"Pledage.sol\":6862:6876  uint numerator */\n      0x00\n        /* \"Pledage.sol\":6879:6910  amountInWithFee.mul(reserveOut) */\n      tag_263\n        /* \"Pledage.sol\":6812:6852  uint amountInWithFee = amountIn.mul(997) */\n      dup3\n        /* \"Pledage.sol\":6899:6909  reserveOut */\n      dup6\n        /* \"Pledage.sol\":6879:6898  amountInWithFee.mul */\n      tag_262\n        /* \"Pledage.sol\":6879:6910  amountInWithFee.mul(reserveOut) */\n      jump\t// in\n    tag_263:\n        /* \"Pledage.sol\":6862:6910  uint numerator = amountInWithFee.mul(reserveOut) */\n      swap1\n      pop\n        /* \"Pledage.sol\":6920:6936  uint denominator */\n      0x00\n        /* \"Pledage.sol\":6939:6979  reserveIn.mul(1000).add(amountInWithFee) */\n      tag_264\n        /* \"Pledage.sol\":6963:6978  amountInWithFee */\n      dup4\n        /* \"Pledage.sol\":6939:6958  reserveIn.mul(1000) */\n      tag_265\n        /* \"Pledage.sol\":6939:6948  reserveIn */\n      dup9\n        /* \"Pledage.sol\":6953:6957  1000 */\n      0x03e8\n        /* \"Pledage.sol\":6939:6952  reserveIn.mul */\n      tag_262\n        /* \"Pledage.sol\":6939:6958  reserveIn.mul(1000) */\n      jump\t// in\n    tag_265:\n        /* \"Pledage.sol\":6939:6962  reserveIn.mul(1000).add */\n      swap1\n      tag_266\n        /* \"Pledage.sol\":6939:6979  reserveIn.mul(1000).add(amountInWithFee) */\n      jump\t// in\n    tag_264:\n        /* \"Pledage.sol\":6920:6979  uint denominator = reserveIn.mul(1000).add(amountInWithFee) */\n      swap1\n      pop\n        /* \"Pledage.sol\":7001:7024  numerator / denominator */\n      tag_267\n        /* \"Pledage.sol\":6920:6979  uint denominator = reserveIn.mul(1000).add(amountInWithFee) */\n      dup2\n        /* \"Pledage.sol\":7001:7010  numerator */\n      dup4\n        /* \"Pledage.sol\":7001:7024  numerator / denominator */\n      tag_174\n      jump\t// in\n    tag_267:\n        /* \"Pledage.sol\":6989:7024  amountOut = numerator / denominator */\n      swap8\n        /* \"Pledage.sol\":6521:7031  function getAmountOut(uint amountIn, uint reserveIn, uint reserveOut) internal pure returns (uint amountOut) {... */\n      swap7\n      pop\n      pop\n      pop\n      pop\n      pop\n      pop\n      pop\n      jump\t// out\n        /* \"Pledage.sol\":3797:4088  function safeTransfer(address token, address to, uint value) internal {... */\n    tag_175:\n        /* \"Pledage.sol\":3924:3969  abi.encodeWithSelector(0xa9059cbb, to, value) */\n      0x40\n      dup1\n      mload\n      sub(shl(0xa0, 0x01), 0x01)\n        /* \"#utility.yul\":10023:10055   */\n      dup5\n      dup2\n      and\n        /* \"Pledage.sol\":3924:3969  abi.encodeWithSelector(0xa9059cbb, to, value) */\n      0x24\n      dup4\n      add\n        /* \"#utility.yul\":10005:10056   */\n      mstore\n        /* \"#utility.yul\":10072:10090   */\n      0x44\n      dup1\n      dup4\n      add\n        /* \"#utility.yul\":10065:10099   */\n      dup6\n      swap1\n      mstore\n        /* \"Pledage.sol\":3924:3969  abi.encodeWithSelector(0xa9059cbb, to, value) */\n      dup4\n      mload\n      dup1\n      dup5\n      sub\n      swap1\n      swap2\n      add\n      dup2\n      mstore\n        /* \"#utility.yul\":9978:9996   */\n      0x64\n      swap1\n      swap3\n      add\n        /* \"Pledage.sol\":3924:3969  abi.encodeWithSelector(0xa9059cbb, to, value) */\n      dup4\n      mstore\n      0x20\n      dup3\n      add\n      dup1\n      mload\n      sub(shl(0xe0, 0x01), 0x01)\n      and\n      shl(0xe0, 0xa9059cbb)\n      or\n      swap1\n      mstore\n        /* \"Pledage.sol\":3913:3970  token.call(abi.encodeWithSelector(0xa9059cbb, to, value)) */\n      swap2\n      mload\n      0x00\n      swap3\n      dup4\n      swap3\n        /* \"Pledage.sol\":3913:3923  token.call */\n      swap1\n      dup8\n      and\n      swap2\n        /* \"Pledage.sol\":3913:3970  token.call(abi.encodeWithSelector(0xa9059cbb, to, value)) */\n      tag_271\n      swap2\n        /* \"Pledage.sol\":3924:3969  abi.encodeWithSelector(0xa9059cbb, to, value) */\n      swap1\n        /* \"Pledage.sol\":3913:3970  token.call(abi.encodeWithSelector(0xa9059cbb, to, value)) */\n      tag_272\n      jump\t// in\n    tag_271:\n      0x00\n      mload(0x40)\n      dup1\n      dup4\n      sub\n      dup2\n      0x00\n      dup7\n      gas\n      call\n      swap2\n      pop\n      pop\n      returndatasize\n      dup1\n      0x00\n      dup2\n      eq\n      tag_275\n      jumpi\n      mload(0x40)\n      swap2\n      pop\n      and(add(returndatasize, 0x3f), not(0x1f))\n      dup3\n      add\n      0x40\n      mstore\n      returndatasize\n      dup3\n      mstore\n      returndatasize\n      0x00\n      0x20\n      dup5\n      add\n      returndatacopy\n      jump(tag_274)\n    tag_275:\n      0x60\n      swap2\n      pop\n    tag_274:\n      pop\n        /* \"Pledage.sol\":3877:3970  (bool success, bytes memory data) = token.call(abi.encodeWithSelector(0xa9059cbb, to, value)) */\n      swap2\n      pop\n      swap2\n      pop\n        /* \"Pledage.sol\":3988:3995  success */\n      dup2\n        /* \"Pledage.sol\":3988:4045  success && (data.length == 0 || abi.decode(data, (bool))) */\n      dup1\n      iszero\n      tag_278\n      jumpi\n      pop\n        /* \"Pledage.sol\":4000:4011  data.length */\n      dup1\n      mload\n        /* \"Pledage.sol\":4000:4016  data.length == 0 */\n      iszero\n      dup1\n        /* \"Pledage.sol\":4000:4044  data.length == 0 || abi.decode(data, (bool)) */\n      tag_278\n      jumpi\n      pop\n        /* \"Pledage.sol\":4031:4035  data */\n      dup1\n        /* \"Pledage.sol\":4020:4044  abi.decode(data, (bool)) */\n      dup1\n      0x20\n      add\n      swap1\n      mload\n      dup2\n      add\n      swap1\n      tag_278\n      swap2\n      swap1\n      tag_279\n      jump\t// in\n    tag_278:\n        /* \"Pledage.sol\":3980:4081  require(success && (data.length == 0 || abi.decode(data, (bool))), 'TransferHelper: TRANSFER_FAILED') */\n      tag_280\n      jumpi\n      mload(0x40)\n      shl(0xe5, 0x461bcd)\n      dup2\n      mstore\n        /* \"#utility.yul\":11011:11013   */\n      0x20\n        /* \"Pledage.sol\":3980:4081  require(success && (data.length == 0 || abi.decode(data, (bool))), 'TransferHelper: TRANSFER_FAILED') */\n      0x04\n      dup3\n      add\n        /* \"#utility.yul\":10993:11014   */\n      mstore\n        /* \"#utility.yul\":11050:11052   */\n      0x1f\n        /* \"#utility.yul\":11030:11048   */\n      0x24\n      dup3\n      add\n        /* \"#utility.yul\":11023:11053   */\n      mstore\n        /* \"#utility.yul\":11089:11122   */\n      0x5472616e7366657248656c7065723a205452414e534645525f4641494c454400\n        /* \"#utility.yul\":11069:11087   */\n      0x44\n      dup3\n      add\n        /* \"#utility.yul\":11062:11123   */\n      mstore\n        /* \"#utility.yul\":11140:11158   */\n      0x64\n      add\n        /* \"Pledage.sol\":3980:4081  require(success && (data.length == 0 || abi.decode(data, (bool))), 'TransferHelper: TRANSFER_FAILED') */\n      tag_143\n        /* \"#utility.yul\":10809:11164   */\n      jump\n        /* \"Pledage.sol\":3980:4081  require(success && (data.length == 0 || abi.decode(data, (bool))), 'TransferHelper: TRANSFER_FAILED') */\n    tag_280:\n        /* \"Pledage.sol\":3867:4088  {... */\n      pop\n      pop\n        /* \"Pledage.sol\":3797:4088  function safeTransfer(address token, address to, uint value) internal {... */\n      pop\n      pop\n      pop\n      jump\t// out\n        /* \"Pledage.sol\":4420:4612  function safeTransferETH(address to, uint value) internal {... */\n    tag_187:\n        /* \"Pledage.sol\":4527:4539  new bytes(0) */\n      0x40\n      dup1\n      mload\n        /* \"Pledage.sol\":4489:4501  bool success */\n      0x00\n        /* \"Pledage.sol\":4527:4539  new bytes(0) */\n      dup1\n      dup3\n      mstore\n      0x20\n      dup3\n      add\n      swap1\n      swap3\n      mstore\n      sub(shl(0xa0, 0x01), 0x01)\n        /* \"Pledage.sol\":4506:4513  to.call */\n      dup5\n      and\n      swap1\n        /* \"Pledage.sol\":4520:4525  value */\n      dup4\n      swap1\n        /* \"Pledage.sol\":4506:4540  to.call{value:value}(new bytes(0)) */\n      mload(0x40)\n      tag_288\n      swap2\n      swap1\n      tag_272\n      jump\t// in\n    tag_288:\n      0x00\n      mload(0x40)\n      dup1\n      dup4\n      sub\n      dup2\n      dup6\n      dup8\n      gas\n      call\n      swap3\n      pop\n      pop\n      pop\n      returndatasize\n      dup1\n      0x00\n      dup2\n      eq\n      tag_291\n      jumpi\n      mload(0x40)\n      swap2\n      pop\n      and(add(returndatasize, 0x3f), not(0x1f))\n      dup3\n      add\n      0x40\n      mstore\n      returndatasize\n      dup3\n      mstore\n      returndatasize\n      0x00\n      0x20\n      dup5\n      add\n      returndatacopy\n      jump(tag_290)\n    tag_291:\n      0x60\n      swap2\n      pop\n    tag_290:\n      pop\n        /* \"Pledage.sol\":4488:4540  (bool success,) = to.call{value:value}(new bytes(0)) */\n      pop\n      swap1\n      pop\n        /* \"Pledage.sol\":4558:4565  success */\n      dup1\n        /* \"Pledage.sol\":4550:4605  require(success, 'TransferHelper: ETH_TRANSFER_FAILED') */\n      tag_292\n      jumpi\n      mload(0x40)\n      shl(0xe5, 0x461bcd)\n      dup2\n      mstore\n        /* \"#utility.yul\":11503:11505   */\n      0x20\n        /* \"Pledage.sol\":4550:4605  require(success, 'TransferHelper: ETH_TRANSFER_FAILED') */\n      0x04\n      dup3\n      add\n        /* \"#utility.yul\":11485:11506   */\n      mstore\n        /* \"#utility.yul\":11542:11544   */\n      0x23\n        /* \"#utility.yul\":11522:11540   */\n      0x24\n      dup3\n      add\n        /* \"#utility.yul\":11515:11545   */\n      mstore\n        /* \"#utility.yul\":11581:11615   */\n      0x5472616e7366657248656c7065723a204554485f5452414e534645525f464149\n        /* \"#utility.yul\":11561:11579   */\n      0x44\n      dup3\n      add\n        /* \"#utility.yul\":11554:11616   */\n      mstore\n      shl(0xea, 0x131151)\n        /* \"#utility.yul\":11632:11650   */\n      0x64\n      dup3\n      add\n        /* \"#utility.yul\":11625:11658   */\n      mstore\n        /* \"#utility.yul\":11675:11694   */\n      0x84\n      add\n        /* \"Pledage.sol\":4550:4605  require(success, 'TransferHelper: ETH_TRANSFER_FAILED') */\n      tag_143\n        /* \"#utility.yul\":11301:11700   */\n      jump\n        /* \"Pledage.sol\":4550:4605  require(success, 'TransferHelper: ETH_TRANSFER_FAILED') */\n    tag_292:\n        /* \"Pledage.sol\":4478:4612  {... */\n      pop\n        /* \"Pledage.sol\":4420:4612  function safeTransferETH(address to, uint value) internal {... */\n      pop\n      pop\n      jump\t// out\n        /* \"Pledage.sol\":2400:2831  function getContentHash(Content calldata content)... */\n    tag_196:\n        /* \"Pledage.sol\":2497:2504  bytes32 */\n      0x00\n        /* \"Pledage.sol\":2079:2145  0xb5f106453e92c83f8ef471e09a8097b99888030beb671302e7c318e4d198c6e3 */\n      0xb5f106453e92c83f8ef471e09a8097b99888030beb671302e7c318e4d198c6e3\n        /* \"Pledage.sol\":2632:2645  content.token */\n      tag_296\n      0x20\n      dup5\n      add\n        /* \"Pledage.sol\":2632:2639  content */\n      dup5\n        /* \"Pledage.sol\":2632:2645  content.token */\n      tag_47\n      jump\t// in\n    tag_296:\n        /* \"Pledage.sol\":2667:2681  content.holder */\n      tag_297\n      0x40\n      dup6\n      add\n      0x20\n      dup7\n      add\n      tag_47\n      jump\t// in\n    tag_297:\n        /* \"Pledage.sol\":2703:2717  content.amount */\n      0x40\n        /* \"Pledage.sol\":2566:2810  abi.encode(... */\n      dup1\n      mload\n      0x20\n      dup2\n      add\n        /* \"#utility.yul\":11992:12017   */\n      swap5\n      swap1\n      swap5\n      mstore\n      sub(shl(0xa0, 0x01), 0x01)\n        /* \"#utility.yul\":12091:12106   */\n      swap3\n      dup4\n      and\n        /* \"#utility.yul\":12071:12089   */\n      dup5\n      dup3\n      add\n        /* \"#utility.yul\":12064:12107   */\n      mstore\n        /* \"#utility.yul\":12143:12158   */\n      swap2\n      and\n        /* \"Pledage.sol\":2739:2754  content.orderId */\n      0x60\n        /* \"#utility.yul\":12123:12141   */\n      dup4\n      dup2\n      add\n        /* \"#utility.yul\":12116:12159   */\n      swap2\n      swap1\n      swap2\n      mstore\n        /* \"Pledage.sol\":2703:2717  content.amount */\n      swap1\n      dup5\n      add\n      calldataload\n        /* \"Pledage.sol\":2776:2792  content.deadline */\n      0x80\n        /* \"#utility.yul\":12175:12193   */\n      dup4\n      dup2\n      add\n        /* \"#utility.yul\":12168:12202   */\n      swap2\n      swap1\n      swap2\n      mstore\n        /* \"Pledage.sol\":2739:2754  content.orderId */\n      swap1\n      dup5\n      add\n      calldataload\n        /* \"#utility.yul\":12218:12237   */\n      0xa0\n      dup4\n      add\n        /* \"#utility.yul\":12211:12246   */\n      mstore\n        /* \"Pledage.sol\":2776:2792  content.deadline */\n      dup4\n      add\n      calldataload\n        /* \"#utility.yul\":12262:12281   */\n      0xc0\n      dup3\n      add\n        /* \"#utility.yul\":12255:12290   */\n      mstore\n        /* \"#utility.yul\":11964:11983   */\n      0xe0\n      add\n        /* \"Pledage.sol\":2566:2810  abi.encode(... */\n      mload(0x40)\n      0x20\n      dup2\n      dup4\n      sub\n      sub\n      dup2\n      mstore\n      swap1\n      0x40\n      mstore\n        /* \"Pledage.sol\":2539:2824  keccak256(... */\n      dup1\n      mload\n      swap1\n      0x20\n      add\n      keccak256\n        /* \"Pledage.sol\":2520:2824  return... */\n      swap1\n      pop\n        /* \"Pledage.sol\":2400:2831  function getContentHash(Content calldata content)... */\n      swap2\n      swap1\n      pop\n      jump\t// out\n        /* \"Pledage.sol\":3410:3764  function verify(... */\n    tag_199:\n        /* \"Pledage.sol\":3645:3696  abi.encodePacked(\"\\x19\\x01\", domainSeparator, hash) */\n      mload(0x40)\n      shl(0xf0, 0x1901)\n      0x20\n      dup3\n      add\n        /* \"#utility.yul\":12559:12586   */\n      mstore\n        /* \"#utility.yul\":12602:12613   */\n      0x22\n      dup2\n      add\n        /* \"#utility.yul\":12595:12622   */\n      dup3\n      swap1\n      mstore\n        /* \"#utility.yul\":12638:12650   */\n      0x42\n      dup2\n      add\n        /* \"#utility.yul\":12631:12659   */\n      dup8\n      swap1\n      mstore\n        /* \"Pledage.sol\":3589:3593  bool */\n      0x00\n      swap1\n      dup2\n      swap1\n        /* \"#utility.yul\":12675:12687   */\n      0x62\n      add\n        /* \"Pledage.sol\":3645:3696  abi.encodePacked(\"\\x19\\x01\", domainSeparator, hash) */\n      mload(0x40)\n      0x20\n      dup2\n      dup4\n      sub\n      sub\n      dup2\n      mstore\n      swap1\n      0x40\n      mstore\n        /* \"Pledage.sol\":3622:3706  keccak256(... */\n      dup1\n      mload\n      swap1\n      0x20\n      add\n      keccak256\n        /* \"Pledage.sol\":3605:3706  bytes32 digest = keccak256(... */\n      swap1\n      pop\n        /* \"Pledage.sol\":3751:3757  signer */\n      dup7\n      sub(shl(0xa0, 0x01), 0x01)\n        /* \"Pledage.sol\":3723:3757  recover(digest, v, r, s) == signer */\n      and\n        /* \"Pledage.sol\":3723:3747  recover(digest, v, r, s) */\n      tag_303\n        /* \"Pledage.sol\":3731:3737  digest */\n      dup3\n        /* \"Pledage.sol\":3739:3740  v */\n      dup9\n        /* \"Pledage.sol\":3742:3743  r */\n      dup9\n        /* \"Pledage.sol\":3745:3746  s */\n      dup9\n        /* \"Pledage.sol\":3723:3730  recover */\n      tag_304\n        /* \"Pledage.sol\":3723:3747  recover(digest, v, r, s) */\n      jump\t// in\n    tag_303:\n      sub(shl(0xa0, 0x01), 0x01)\n        /* \"Pledage.sol\":3723:3757  recover(digest, v, r, s) == signer */\n      and\n      eq\n      swap9\n        /* \"Pledage.sol\":3410:3764  function verify(... */\n      swap8\n      pop\n      pop\n      pop\n      pop\n      pop\n      pop\n      pop\n      pop\n      jump\t// out\n        /* \"Pledage.sol\":4094:4414  function safeTransferFrom(address token, address from, address to, uint value) internal {... */\n    tag_227:\n        /* \"Pledage.sol\":4239:4290  abi.encodeWithSelector(0x23b872dd, from, to, value) */\n      0x40\n      dup1\n      mload\n      sub(shl(0xa0, 0x01), 0x01)\n        /* \"#utility.yul\":12956:12971   */\n      dup6\n      dup2\n      and\n        /* \"Pledage.sol\":4239:4290  abi.encodeWithSelector(0x23b872dd, from, to, value) */\n      0x24\n      dup4\n      add\n        /* \"#utility.yul\":12938:12972   */\n      mstore\n        /* \"#utility.yul\":13008:13023   */\n      dup5\n      dup2\n      and\n        /* \"#utility.yul\":12988:13006   */\n      0x44\n      dup4\n      add\n        /* \"#utility.yul\":12981:13024   */\n      mstore\n        /* \"#utility.yul\":13040:13058   */\n      0x64\n      dup1\n      dup4\n      add\n        /* \"#utility.yul\":13033:13067   */\n      dup6\n      swap1\n      mstore\n        /* \"Pledage.sol\":4239:4290  abi.encodeWithSelector(0x23b872dd, from, to, value) */\n      dup4\n      mload\n      dup1\n      dup5\n      sub\n      swap1\n      swap2\n      add\n      dup2\n      mstore\n        /* \"#utility.yul\":12873:12891   */\n      0x84\n      swap1\n      swap3\n      add\n        /* \"Pledage.sol\":4239:4290  abi.encodeWithSelector(0x23b872dd, from, to, value) */\n      dup4\n      mstore\n      0x20\n      dup3\n      add\n      dup1\n      mload\n      sub(shl(0xe0, 0x01), 0x01)\n      and\n      shl(0xe0, 0x23b872dd)\n      or\n      swap1\n      mstore\n        /* \"Pledage.sol\":4228:4291  token.call(abi.encodeWithSelector(0x23b872dd, from, to, value)) */\n      swap2\n      mload\n      0x00\n      swap3\n      dup4\n      swap3\n        /* \"Pledage.sol\":4228:4238  token.call */\n      swap1\n      dup9\n      and\n      swap2\n        /* \"Pledage.sol\":4228:4291  token.call(abi.encodeWithSelector(0x23b872dd, from, to, value)) */\n      tag_308\n      swap2\n        /* \"Pledage.sol\":4239:4290  abi.encodeWithSelector(0x23b872dd, from, to, value) */\n      swap1\n        /* \"Pledage.sol\":4228:4291  token.call(abi.encodeWithSelector(0x23b872dd, from, to, value)) */\n      tag_272\n      jump\t// in\n    tag_308:\n      0x00\n      mload(0x40)\n      dup1\n      dup4\n      sub\n      dup2\n      0x00\n      dup7\n      gas\n      call\n      swap2\n      pop\n      pop\n      returndatasize\n      dup1\n      0x00\n      dup2\n      eq\n      tag_311\n      jumpi\n      mload(0x40)\n      swap2\n      pop\n      and(add(returndatasize, 0x3f), not(0x1f))\n      dup3\n      add\n      0x40\n      mstore\n      returndatasize\n      dup3\n      mstore\n      returndatasize\n      0x00\n      0x20\n      dup5\n      add\n      returndatacopy\n      jump(tag_310)\n    tag_311:\n      0x60\n      swap2\n      pop\n    tag_310:\n      pop\n        /* \"Pledage.sol\":4192:4291  (bool success, bytes memory data) = token.call(abi.encodeWithSelector(0x23b872dd, from, to, value)) */\n      swap2\n      pop\n      swap2\n      pop\n        /* \"Pledage.sol\":4309:4316  success */\n      dup2\n        /* \"Pledage.sol\":4309:4366  success && (data.length == 0 || abi.decode(data, (bool))) */\n      dup1\n      iszero\n      tag_314\n      jumpi\n      pop\n        /* \"Pledage.sol\":4321:4332  data.length */\n      dup1\n      mload\n        /* \"Pledage.sol\":4321:4337  data.length == 0 */\n      iszero\n      dup1\n        /* \"Pledage.sol\":4321:4365  data.length == 0 || abi.decode(data, (bool)) */\n      tag_314\n      jumpi\n      pop\n        /* \"Pledage.sol\":4352:4356  data */\n      dup1\n        /* \"Pledage.sol\":4341:4365  abi.decode(data, (bool)) */\n      dup1\n      0x20\n      add\n      swap1\n      mload\n      dup2\n      add\n      swap1\n      tag_314\n      swap2\n      swap1\n      tag_279\n      jump\t// in\n    tag_314:\n        /* \"Pledage.sol\":4301:4407  require(success && (data.length == 0 || abi.decode(data, (bool))), 'TransferHelper: TRANSFER_FROM_FAILED') */\n      tag_315\n      jumpi\n      mload(0x40)\n      shl(0xe5, 0x461bcd)\n      dup2\n      mstore\n        /* \"#utility.yul\":13280:13282   */\n      0x20\n        /* \"Pledage.sol\":4301:4407  require(success && (data.length == 0 || abi.decode(data, (bool))), 'TransferHelper: TRANSFER_FROM_FAILED') */\n      0x04\n      dup3\n      add\n        /* \"#utility.yul\":13262:13283   */\n      mstore\n        /* \"#utility.yul\":13319:13321   */\n      0x24\n        /* \"#utility.yul\":13299:13317   */\n      dup1\n      dup3\n      add\n        /* \"#utility.yul\":13292:13322   */\n      mstore\n        /* \"#utility.yul\":13358:13392   */\n      0x5472616e7366657248656c7065723a205452414e534645525f46524f4d5f4641\n        /* \"#utility.yul\":13338:13356   */\n      0x44\n      dup3\n      add\n        /* \"#utility.yul\":13331:13393   */\n      mstore\n      shl(0xe2, 0x12531151)\n        /* \"#utility.yul\":13409:13427   */\n      0x64\n      dup3\n      add\n        /* \"#utility.yul\":13402:13436   */\n      mstore\n        /* \"#utility.yul\":13453:13472   */\n      0x84\n      add\n        /* \"Pledage.sol\":4301:4407  require(success && (data.length == 0 || abi.decode(data, (bool))), 'TransferHelper: TRANSFER_FROM_FAILED') */\n      tag_143\n        /* \"#utility.yul\":13078:13478   */\n      jump\n        /* \"Pledage.sol\":4301:4407  require(success && (data.length == 0 || abi.decode(data, (bool))), 'TransferHelper: TRANSFER_FROM_FAILED') */\n    tag_315:\n        /* \"Pledage.sol\":4182:4414  {... */\n      pop\n      pop\n        /* \"Pledage.sol\":4094:4414  function safeTransferFrom(address token, address from, address to, uint value) internal {... */\n      pop\n      pop\n      pop\n      pop\n      jump\t// out\n        /* \"Pledage.sol\":5209:5554  function sortTokens(address tokenA, address tokenB) internal pure returns (address token0, address token1) {... */\n    tag_244:\n        /* \"Pledage.sol\":5284:5298  address token0 */\n      0x00\n        /* \"Pledage.sol\":5300:5314  address token1 */\n      dup1\n        /* \"Pledage.sol\":5344:5350  tokenB */\n      dup3\n      sub(shl(0xa0, 0x01), 0x01)\n        /* \"Pledage.sol\":5334:5350  tokenA != tokenB */\n      and\n        /* \"Pledage.sol\":5334:5340  tokenA */\n      dup5\n      sub(shl(0xa0, 0x01), 0x01)\n        /* \"Pledage.sol\":5334:5350  tokenA != tokenB */\n      and\n      sub\n        /* \"Pledage.sol\":5326:5392  require(tokenA != tokenB, 'UniswapV2Library: IDENTICAL_ADDRESSES') */\n      tag_322\n      jumpi\n      mload(0x40)\n      shl(0xe5, 0x461bcd)\n      dup2\n      mstore\n        /* \"#utility.yul\":14179:14181   */\n      0x20\n        /* \"Pledage.sol\":5326:5392  require(tokenA != tokenB, 'UniswapV2Library: IDENTICAL_ADDRESSES') */\n      0x04\n      dup3\n      add\n        /* \"#utility.yul\":14161:14182   */\n      mstore\n        /* \"#utility.yul\":14218:14220   */\n      0x25\n        /* \"#utility.yul\":14198:14216   */\n      0x24\n      dup3\n      add\n        /* \"#utility.yul\":14191:14221   */\n      mstore\n        /* \"#utility.yul\":14257:14291   */\n      0x556e697377617056324c6962726172793a204944454e544943414c5f41444452\n        /* \"#utility.yul\":14237:14255   */\n      0x44\n      dup3\n      add\n        /* \"#utility.yul\":14230:14292   */\n      mstore\n      shl(0xd8, 0x4553534553)\n        /* \"#utility.yul\":14308:14326   */\n      0x64\n      dup3\n      add\n        /* \"#utility.yul\":14301:14336   */\n      mstore\n        /* \"#utility.yul\":14353:14372   */\n      0x84\n      add\n        /* \"Pledage.sol\":5326:5392  require(tokenA != tokenB, 'UniswapV2Library: IDENTICAL_ADDRESSES') */\n      tag_143\n        /* \"#utility.yul\":13977:14378   */\n      jump\n        /* \"Pledage.sol\":5326:5392  require(tokenA != tokenB, 'UniswapV2Library: IDENTICAL_ADDRESSES') */\n    tag_322:\n        /* \"Pledage.sol\":5430:5436  tokenB */\n      dup3\n      sub(shl(0xa0, 0x01), 0x01)\n        /* \"Pledage.sol\":5421:5436  tokenA < tokenB */\n      and\n        /* \"Pledage.sol\":5421:5427  tokenA */\n      dup5\n      sub(shl(0xa0, 0x01), 0x01)\n        /* \"Pledage.sol\":5421:5436  tokenA < tokenB */\n      and\n      lt\n        /* \"Pledage.sol\":5421:5474  tokenA < tokenB ? (tokenA, tokenB) : (tokenB, tokenA) */\n      tag_325\n      jumpi\n        /* \"Pledage.sol\":5459:5465  tokenB */\n      dup3\n        /* \"Pledage.sol\":5467:5473  tokenA */\n      dup5\n        /* \"Pledage.sol\":5421:5474  tokenA < tokenB ? (tokenA, tokenB) : (tokenB, tokenA) */\n      jump(tag_326)\n    tag_325:\n        /* \"Pledage.sol\":5440:5446  tokenA */\n      dup4\n        /* \"Pledage.sol\":5448:5454  tokenB */\n      dup4\n        /* \"Pledage.sol\":5421:5474  tokenA < tokenB ? (tokenA, tokenB) : (tokenB, tokenA) */\n    tag_326:\n        /* \"Pledage.sol\":5402:5474  (token0, token1) = tokenA < tokenB ? (tokenA, tokenB) : (tokenB, tokenA) */\n      swap1\n      swap3\n      pop\n      swap1\n      pop\n      sub(shl(0xa0, 0x01), 0x01)\n        /* \"Pledage.sol\":5492:5512  token0 != address(0) */\n      dup3\n      and\n        /* \"Pledage.sol\":5484:5547  require(token0 != address(0), 'UniswapV2Library: ZERO_ADDRESS') */\n      tag_327\n      jumpi\n      mload(0x40)\n      shl(0xe5, 0x461bcd)\n      dup2\n      mstore\n        /* \"#utility.yul\":14585:14587   */\n      0x20\n        /* \"Pledage.sol\":5484:5547  require(token0 != address(0), 'UniswapV2Library: ZERO_ADDRESS') */\n      0x04\n      dup3\n      add\n        /* \"#utility.yul\":14567:14588   */\n      mstore\n        /* \"#utility.yul\":14624:14626   */\n      0x1e\n        /* \"#utility.yul\":14604:14622   */\n      0x24\n      dup3\n      add\n        /* \"#utility.yul\":14597:14627   */\n      mstore\n        /* \"#utility.yul\":14663:14695   */\n      0x556e697377617056324c6962726172793a205a45524f5f414444524553530000\n        /* \"#utility.yul\":14643:14661   */\n      0x44\n      dup3\n      add\n        /* \"#utility.yul\":14636:14696   */\n      mstore\n        /* \"#utility.yul\":14713:14731   */\n      0x64\n      add\n        /* \"Pledage.sol\":5484:5547  require(token0 != address(0), 'UniswapV2Library: ZERO_ADDRESS') */\n      tag_143\n        /* \"#utility.yul\":14383:14737   */\n      jump\n        /* \"Pledage.sol\":5484:5547  require(token0 != address(0), 'UniswapV2Library: ZERO_ADDRESS') */\n    tag_327:\n        /* \"Pledage.sol\":5209:5554  function sortTokens(address tokenA, address tokenB) internal pure returns (address token0, address token1) {... */\n      swap3\n      pop\n      swap3\n      swap1\n      pop\n      jump\t// out\n        /* \"Pledage.sol\":5643:6122  function pairFor(address factory, address tokenA, address tokenB) internal pure returns (address pair) {... */\n    tag_246:\n        /* \"Pledage.sol\":5732:5744  address pair */\n      0x00\n        /* \"Pledage.sol\":5757:5771  address token0 */\n      dup1\n        /* \"Pledage.sol\":5773:5787  address token1 */\n      0x00\n        /* \"Pledage.sol\":5791:5817  sortTokens(tokenA, tokenB) */\n      tag_331\n        /* \"Pledage.sol\":5802:5808  tokenA */\n      dup6\n        /* \"Pledage.sol\":5810:5816  tokenB */\n      dup6\n        /* \"Pledage.sol\":5791:5801  sortTokens */\n      tag_244\n        /* \"Pledage.sol\":5791:5817  sortTokens(tokenA, tokenB) */\n      jump\t// in\n    tag_331:\n        /* \"Pledage.sol\":5959:5991  abi.encodePacked(token0, token1) */\n      mload(0x40)\n      not(0xffffffffffffffffffffffff)\n        /* \"#utility.yul\":14969:14971   */\n      0x60\n        /* \"#utility.yul\":14965:14980   */\n      dup5\n      dup2\n      shl\n        /* \"#utility.yul\":14961:14985   */\n      dup3\n      and\n        /* \"Pledage.sol\":5959:5991  abi.encodePacked(token0, token1) */\n      0x20\n      dup5\n      add\n        /* \"#utility.yul\":14949:14986   */\n      mstore\n        /* \"#utility.yul\":15020:15035   */\n      dup4\n      swap1\n      shl\n        /* \"#utility.yul\":15016:15040   */\n      and\n        /* \"#utility.yul\":15002:15014   */\n      0x34\n      dup3\n      add\n        /* \"#utility.yul\":14995:15041   */\n      mstore\n        /* \"Pledage.sol\":5756:5817  (address token0, address token1) = sortTokens(tokenA, tokenB) */\n      swap2\n      swap4\n      pop\n      swap2\n      pop\n        /* \"Pledage.sol\":5924:5931  factory */\n      dup7\n      swap1\n        /* \"#utility.yul\":15057:15069   */\n      0x48\n      add\n        /* \"Pledage.sol\":5959:5991  abi.encodePacked(token0, token1) */\n      mload(0x40)\n      0x20\n      dup2\n      dup4\n      sub\n      sub\n      dup2\n      mstore\n      swap1\n      0x40\n      mstore\n        /* \"Pledage.sol\":5949:5992  keccak256(abi.encodePacked(token0, token1)) */\n      dup1\n      mload\n      swap1\n      0x20\n      add\n      keccak256\n        /* \"Pledage.sol\":5865:6111  abi.encodePacked(... */\n      add(0x20, mload(0x40))\n      tag_334\n      swap3\n      swap2\n      swap1\n      not(sub(shl(0xf8, 0x01), 0x01))\n        /* \"#utility.yul\":15439:15465   */\n      dup2\n      mstore\n        /* \"#utility.yul\":15502:15504   */\n      0x60\n        /* \"#utility.yul\":15498:15513   */\n      swap3\n      swap1\n      swap3\n      shl\n      not(0xffffffffffffffffffffffff)\n        /* \"#utility.yul\":15494:15547   */\n      and\n        /* \"#utility.yul\":15490:15491   */\n      0x01\n        /* \"#utility.yul\":15481:15492   */\n      dup4\n      add\n        /* \"#utility.yul\":15474:15548   */\n      mstore\n        /* \"#utility.yul\":15573:15575   */\n      0x15\n        /* \"#utility.yul\":15564:15576   */\n      dup3\n      add\n        /* \"#utility.yul\":15557:15585   */\n      mstore\n        /* \"#utility.yul\":15615:15681   */\n      0xfb7f630766e6a796048ea87d01acd3068e8ff67d078148a3fa3f4a84f69bd5\n        /* \"#utility.yul\":15610:15612   */\n      0x35\n        /* \"#utility.yul\":15601:15613   */\n      dup3\n      add\n        /* \"#utility.yul\":15594:15682   */\n      mstore\n        /* \"#utility.yul\":15707:15709   */\n      0x55\n        /* \"#utility.yul\":15698:15710   */\n      add\n      swap1\n        /* \"#utility.yul\":15080:15716   */\n      jump\n        /* \"Pledage.sol\":5865:6111  abi.encodePacked(... */\n    tag_334:\n      0x40\n      dup1\n      mload\n      not(0x1f)\n      dup2\n      dup5\n      sub\n      add\n      dup2\n      mstore\n      swap2\n      swap1\n      mstore\n        /* \"Pledage.sol\":5855:6112  keccak256(abi.encodePacked(... */\n      dup1\n      mload\n        /* \"Pledage.sol\":5865:6111  abi.encodePacked(... */\n      0x20\n        /* \"Pledage.sol\":5855:6112  keccak256(abi.encodePacked(... */\n      swap1\n      swap2\n      add\n      keccak256\n      swap7\n        /* \"Pledage.sol\":5643:6122  function pairFor(address factory, address tokenA, address tokenB) internal pure returns (address pair) {... */\n      swap6\n      pop\n      pop\n      pop\n      pop\n      pop\n      pop\n      jump\t// out\n        /* \"Pledage.sol\":4904:5044  function mul(uint x, uint y) internal pure returns (uint z) {... */\n    tag_262:\n        /* \"Pledage.sol\":4956:4962  uint z */\n      0x00\n        /* \"Pledage.sol\":4982:4988  y == 0 */\n      dup2\n      iszero\n      dup1\n        /* \"Pledage.sol\":4982:5012  y == 0 || (z = x * y) / y == x */\n      tag_337\n      jumpi\n      pop\n        /* \"Pledage.sol\":5011:5012  x */\n      dup3\n        /* \"Pledage.sol\":5006:5007  y */\n      dup3\n        /* \"Pledage.sol\":4997:5002  x * y */\n      tag_338\n        /* \"Pledage.sol\":5006:5007  y */\n      dup2\n        /* \"Pledage.sol\":5011:5012  x */\n      dup4\n        /* \"Pledage.sol\":4997:5002  x * y */\n      tag_172\n      jump\t// in\n    tag_338:\n        /* \"Pledage.sol\":4993:5002  z = x * y */\n      swap3\n      pop\n        /* \"Pledage.sol\":4992:5007  (z = x * y) / y */\n      tag_339\n      swap1\n        /* \"Pledage.sol\":4993:5002  z = x * y */\n      dup4\n        /* \"Pledage.sol\":4992:5007  (z = x * y) / y */\n      tag_174\n      jump\t// in\n    tag_339:\n        /* \"Pledage.sol\":4992:5012  (z = x * y) / y == x */\n      eq\n        /* \"Pledage.sol\":4982:5012  y == 0 || (z = x * y) / y == x */\n    tag_337:\n        /* \"Pledage.sol\":4974:5037  require(y == 0 || (z = x * y) / y == x, 'ds-math-mul-overflow') */\n      tag_194\n      jumpi\n      mload(0x40)\n      shl(0xe5, 0x461bcd)\n      dup2\n      mstore\n        /* \"#utility.yul\":15923:15925   */\n      0x20\n        /* \"Pledage.sol\":4974:5037  require(y == 0 || (z = x * y) / y == x, 'ds-math-mul-overflow') */\n      0x04\n      dup3\n      add\n        /* \"#utility.yul\":15905:15926   */\n      mstore\n        /* \"#utility.yul\":15962:15964   */\n      0x14\n        /* \"#utility.yul\":15942:15960   */\n      0x24\n      dup3\n      add\n        /* \"#utility.yul\":15935:15965   */\n      mstore\n      shl(0x60, 0x64732d6d6174682d6d756c2d6f766572666c6f77)\n        /* \"#utility.yul\":15981:15999   */\n      0x44\n      dup3\n      add\n        /* \"#utility.yul\":15974:16024   */\n      mstore\n        /* \"#utility.yul\":16041:16059   */\n      0x64\n      add\n        /* \"Pledage.sol\":4974:5037  require(y == 0 || (z = x * y) / y == x, 'ds-math-mul-overflow') */\n      tag_143\n        /* \"#utility.yul\":15721:16065   */\n      jump\n        /* \"Pledage.sol\":4641:4767  function add(uint x, uint y) internal pure returns (uint z) {... */\n    tag_266:\n        /* \"Pledage.sol\":4693:4699  uint z */\n      0x00\n        /* \"Pledage.sol\":4734:4735  x */\n      dup3\n        /* \"Pledage.sol\":4724:4729  x + y */\n      tag_344\n        /* \"Pledage.sol\":4728:4729  y */\n      dup4\n        /* \"Pledage.sol\":4734:4735  x */\n      dup3\n        /* \"Pledage.sol\":4724:4729  x + y */\n      tag_165\n      jump\t// in\n    tag_344:\n        /* \"Pledage.sol\":4720:4729  z = x + y */\n      swap2\n      pop\n      dup2\n        /* \"Pledage.sol\":4719:4735  (z = x + y) >= x */\n      lt\n      iszero\n        /* \"Pledage.sol\":4711:4760  require((z = x + y) >= x, 'ds-math-add-overflow') */\n      tag_194\n      jumpi\n      mload(0x40)\n      shl(0xe5, 0x461bcd)\n      dup2\n      mstore\n        /* \"#utility.yul\":16272:16274   */\n      0x20\n        /* \"Pledage.sol\":4711:4760  require((z = x + y) >= x, 'ds-math-add-overflow') */\n      0x04\n      dup3\n      add\n        /* \"#utility.yul\":16254:16275   */\n      mstore\n        /* \"#utility.yul\":16311:16313   */\n      0x14\n        /* \"#utility.yul\":16291:16309   */\n      0x24\n      dup3\n      add\n        /* \"#utility.yul\":16284:16314   */\n      mstore\n      shl(0x60, 0x64732d6d6174682d6164642d6f766572666c6f77)\n        /* \"#utility.yul\":16330:16348   */\n      0x44\n      dup3\n      add\n        /* \"#utility.yul\":16323:16373   */\n      mstore\n        /* \"#utility.yul\":16390:16408   */\n      0x64\n      add\n        /* \"Pledage.sol\":4711:4760  require((z = x + y) >= x, 'ds-math-add-overflow') */\n      tag_143\n        /* \"#utility.yul\":16070:16414   */\n      jump\n        /* \"Pledage.sol\":2867:3404  function recover(... */\n    tag_304:\n        /* \"Pledage.sol\":2990:2997  address */\n      0x00\n        /* \"Pledage.sol\":3060:3126  0x7FFFFFFFFFFFFFFFFFFFFFFFFFFFFFFF5D576E7357A4501DDFE92F46681B20A0 */\n      0x7fffffffffffffffffffffffffffffff5d576e7357a4501ddfe92f46681b20a0\n        /* \"Pledage.sol\":3030:3126  uint256(s) <=... */\n      dup3\n      gt\n      iszero\n        /* \"Pledage.sol\":3009:3182  require(... */\n      tag_349\n      jumpi\n      mload(0x40)\n      shl(0xe5, 0x461bcd)\n      dup2\n      mstore\n        /* \"#utility.yul\":16621:16623   */\n      0x20\n        /* \"Pledage.sol\":3009:3182  require(... */\n      0x04\n      dup3\n      add\n        /* \"#utility.yul\":16603:16624   */\n      mstore\n        /* \"#utility.yul\":16660:16662   */\n      0x1e\n        /* \"#utility.yul\":16640:16658   */\n      0x24\n      dup3\n      add\n        /* \"#utility.yul\":16633:16663   */\n      mstore\n        /* \"#utility.yul\":16699:16731   */\n      0x5369676e61747572653a20496e76616c6964207320706172616d657465720000\n        /* \"#utility.yul\":16679:16697   */\n      0x44\n      dup3\n      add\n        /* \"#utility.yul\":16672:16732   */\n      mstore\n        /* \"#utility.yul\":16749:16767   */\n      0x64\n      add\n        /* \"Pledage.sol\":3009:3182  require(... */\n      tag_143\n        /* \"#utility.yul\":16419:16773   */\n      jump\n        /* \"Pledage.sol\":3009:3182  require(... */\n    tag_349:\n        /* \"Pledage.sol\":3201:3202  v */\n      dup4\n        /* \"Pledage.sol\":3201:3208  v == 27 */\n      0xff\n      and\n        /* \"Pledage.sol\":3206:3208  27 */\n      0x1b\n        /* \"Pledage.sol\":3201:3208  v == 27 */\n      eq\n        /* \"Pledage.sol\":3201:3219  v == 27 || v == 28 */\n      dup1\n      tag_352\n      jumpi\n      pop\n        /* \"Pledage.sol\":3212:3213  v */\n      dup4\n        /* \"Pledage.sol\":3212:3219  v == 28 */\n      0xff\n      and\n        /* \"Pledage.sol\":3217:3219  28 */\n      0x1c\n        /* \"Pledage.sol\":3212:3219  v == 28 */\n      eq\n        /* \"Pledage.sol\":3201:3219  v == 27 || v == 28 */\n    tag_352:\n        /* \"Pledage.sol\":3193:3254  require(v == 27 || v == 28, \"Signature: Invalid v parameter\") */\n      tag_353\n      jumpi\n      mload(0x40)\n      shl(0xe5, 0x461bcd)\n      dup2\n      mstore\n        /* \"#utility.yul\":16980:16982   */\n      0x20\n        /* \"Pledage.sol\":3193:3254  require(v == 27 || v == 28, \"Signature: Invalid v parameter\") */\n      0x04\n      dup3\n      add\n        /* \"#utility.yul\":16962:16983   */\n      mstore\n        /* \"#utility.yul\":17019:17021   */\n      0x1e\n        /* \"#utility.yul\":16999:17017   */\n      0x24\n      dup3\n      add\n        /* \"#utility.yul\":16992:17022   */\n      mstore\n        /* \"#utility.yul\":17058:17090   */\n      0x5369676e61747572653a20496e76616c6964207620706172616d657465720000\n        /* \"#utility.yul\":17038:17056   */\n      0x44\n      dup3\n      add\n        /* \"#utility.yul\":17031:17091   */\n      mstore\n        /* \"#utility.yul\":17108:17126   */\n      0x64\n      add\n        /* \"Pledage.sol\":3193:3254  require(v == 27 || v == 28, \"Signature: Invalid v parameter\") */\n      tag_143\n        /* \"#utility.yul\":16778:17132   */\n      jump\n        /* \"Pledage.sol\":3193:3254  require(v == 27 || v == 28, \"Signature: Invalid v parameter\") */\n    tag_353:\n        /* \"Pledage.sol\":3281:3305  ecrecover(hash, v, r, s) */\n      0x40\n      dup1\n      mload\n        /* \"Pledage.sol\":3264:3278  address signer */\n      0x00\n        /* \"Pledage.sol\":3281:3305  ecrecover(hash, v, r, s) */\n      dup1\n      dup3\n      mstore\n      0x20\n      dup3\n      add\n      dup1\n      dup5\n      mstore\n        /* \"#utility.yul\":17364:17389   */\n      dup9\n      swap1\n      mstore\n        /* \"#utility.yul\":17437:17441   */\n      0xff\n        /* \"#utility.yul\":17425:17442   */\n      dup8\n      and\n        /* \"#utility.yul\":17405:17423   */\n      swap3\n      dup3\n      add\n        /* \"#utility.yul\":17398:17443   */\n      swap3\n      swap1\n      swap3\n      mstore\n        /* \"#utility.yul\":17459:17477   */\n      0x60\n      dup2\n      add\n        /* \"#utility.yul\":17452:17486   */\n      dup6\n      swap1\n      mstore\n        /* \"#utility.yul\":17502:17520   */\n      0x80\n      dup2\n      add\n        /* \"#utility.yul\":17495:17529   */\n      dup5\n      swap1\n      mstore\n        /* \"Pledage.sol\":3281:3305  ecrecover(hash, v, r, s) */\n      0x01\n      swap1\n        /* \"#utility.yul\":17336:17355   */\n      0xa0\n      add\n        /* \"Pledage.sol\":3281:3305  ecrecover(hash, v, r, s) */\n      0x20\n      mload(0x40)\n      0x20\n      dup2\n      sub\n      swap1\n      dup1\n      dup5\n      sub\n      swap1\n      dup6\n      gas\n      staticcall\n      iszero\n      dup1\n      iszero\n      tag_359\n      jumpi\n      returndatasize\n      0x00\n      dup1\n      returndatacopy\n      revert(0x00, returndatasize)\n    tag_359:\n      pop\n      pop\n      mload(add(not(0x1f), mload(0x40)))\n      swap2\n      pop\n      pop\n      sub(shl(0xa0, 0x01), 0x01)\n        /* \"Pledage.sol\":3323:3343  signer != address(0) */\n      dup2\n      and\n        /* \"Pledage.sol\":3315:3373  require(signer != address(0), \"Signature: Invalid signer\") */\n      tag_360\n      jumpi\n      mload(0x40)\n      shl(0xe5, 0x461bcd)\n      dup2\n      mstore\n        /* \"#utility.yul\":17742:17744   */\n      0x20\n        /* \"Pledage.sol\":3315:3373  require(signer != address(0), \"Signature: Invalid signer\") */\n      0x04\n      dup3\n      add\n        /* \"#utility.yul\":17724:17745   */\n      mstore\n        /* \"#utility.yul\":17781:17783   */\n      0x19\n        /* \"#utility.yul\":17761:17779   */\n      0x24\n      dup3\n      add\n        /* \"#utility.yul\":17754:17784   */\n      mstore\n        /* \"#utility.yul\":17820:17847   */\n      0x5369676e61747572653a20496e76616c6964207369676e657200000000000000\n        /* \"#utility.yul\":17800:17818   */\n      0x44\n      dup3\n      add\n        /* \"#utility.yul\":17793:17848   */\n      mstore\n        /* \"#utility.yul\":17865:17883   */\n      0x64\n      add\n        /* \"Pledage.sol\":3315:3373  require(signer != address(0), \"Signature: Invalid signer\") */\n      tag_143\n        /* \"#utility.yul\":17540:17889   */\n      jump\n        /* \"Pledage.sol\":3315:3373  require(signer != address(0), \"Signature: Invalid signer\") */\n    tag_360:\n        /* \"Pledage.sol\":3391:3397  signer */\n      swap6\n        /* \"Pledage.sol\":2867:3404  function recover(... */\n      swap5\n      pop\n      pop\n      pop\n      pop\n      pop\n      jump\t// out\n        /* \"#utility.yul\":404:535   */\n    tag_363:\n      sub(shl(0xa0, 0x01), 0x01)\n        /* \"#utility.yul\":479:510   */\n      dup2\n      and\n        /* \"#utility.yul\":469:511   */\n      dup2\n      eq\n        /* \"#utility.yul\":459:529   */\n      tag_239\n      jumpi\n        /* \"#utility.yul\":525:526   */\n      0x00\n        /* \"#utility.yul\":522:523   */\n      dup1\n        /* \"#utility.yul\":515:527   */\n      revert\n        /* \"#utility.yul\":540:787   */\n    tag_47:\n        /* \"#utility.yul\":599:605   */\n      0x00\n        /* \"#utility.yul\":652:654   */\n      0x20\n        /* \"#utility.yul\":640:649   */\n      dup3\n        /* \"#utility.yul\":631:638   */\n      dup5\n        /* \"#utility.yul\":627:650   */\n      sub\n        /* \"#utility.yul\":623:655   */\n      slt\n        /* \"#utility.yul\":620:672   */\n      iszero\n      tag_372\n      jumpi\n        /* \"#utility.yul\":668:669   */\n      0x00\n        /* \"#utility.yul\":665:666   */\n      dup1\n        /* \"#utility.yul\":658:670   */\n      revert\n        /* \"#utility.yul\":620:672   */\n    tag_372:\n        /* \"#utility.yul\":707:716   */\n      dup2\n        /* \"#utility.yul\":694:717   */\n      calldataload\n        /* \"#utility.yul\":726:757   */\n      tag_373\n        /* \"#utility.yul\":751:756   */\n      dup2\n        /* \"#utility.yul\":726:757   */\n      tag_363\n      jump\t// in\n    tag_373:\n        /* \"#utility.yul\":776:781   */\n      swap4\n        /* \"#utility.yul\":540:787   */\n      swap3\n      pop\n      pop\n      pop\n      jump\t// out\n        /* \"#utility.yul\":974:1167   */\n    tag_61:\n        /* \"#utility.yul\":1059:1065   */\n      0x00\n        /* \"#utility.yul\":1112:1115   */\n      0x0100\n        /* \"#utility.yul\":1100:1109   */\n      dup3\n        /* \"#utility.yul\":1091:1098   */\n      dup5\n        /* \"#utility.yul\":1087:1110   */\n      sub\n        /* \"#utility.yul\":1083:1116   */\n      slt\n        /* \"#utility.yul\":1080:1133   */\n      iszero\n      tag_376\n      jumpi\n        /* \"#utility.yul\":1129:1130   */\n      0x00\n        /* \"#utility.yul\":1126:1127   */\n      dup1\n        /* \"#utility.yul\":1119:1131   */\n      revert\n        /* \"#utility.yul\":1080:1133   */\n    tag_376:\n      pop\n        /* \"#utility.yul\":1152:1161   */\n      swap2\n        /* \"#utility.yul\":974:1167   */\n      swap1\n      pop\n      jump\t// out\n        /* \"#utility.yul\":1364:1679   */\n    tag_88:\n        /* \"#utility.yul\":1432:1438   */\n      0x00\n        /* \"#utility.yul\":1440:1446   */\n      dup1\n        /* \"#utility.yul\":1493:1495   */\n      0x40\n        /* \"#utility.yul\":1481:1490   */\n      dup4\n        /* \"#utility.yul\":1472:1479   */\n      dup6\n        /* \"#utility.yul\":1468:1491   */\n      sub\n        /* \"#utility.yul\":1464:1496   */\n      slt\n        /* \"#utility.yul\":1461:1513   */\n      iszero\n      tag_379\n      jumpi\n        /* \"#utility.yul\":1509:1510   */\n      0x00\n        /* \"#utility.yul\":1506:1507   */\n      dup1\n        /* \"#utility.yul\":1499:1511   */\n      revert\n        /* \"#utility.yul\":1461:1513   */\n    tag_379:\n        /* \"#utility.yul\":1545:1554   */\n      dup3\n        /* \"#utility.yul\":1532:1555   */\n      calldataload\n        /* \"#utility.yul\":1522:1555   */\n      swap2\n      pop\n        /* \"#utility.yul\":1605:1607   */\n      0x20\n        /* \"#utility.yul\":1594:1603   */\n      dup4\n        /* \"#utility.yul\":1590:1608   */\n      add\n        /* \"#utility.yul\":1577:1609   */\n      calldataload\n        /* \"#utility.yul\":1618:1649   */\n      tag_380\n        /* \"#utility.yul\":1643:1648   */\n      dup2\n        /* \"#utility.yul\":1618:1649   */\n      tag_363\n      jump\t// in\n    tag_380:\n        /* \"#utility.yul\":1668:1673   */\n      dup1\n        /* \"#utility.yul\":1658:1673   */\n      swap2\n      pop\n      pop\n        /* \"#utility.yul\":1364:1679   */\n      swap3\n      pop\n      swap3\n      swap1\n      pop\n      jump\t// out\n        /* \"#utility.yul\":1684:1999   */\n    tag_98:\n        /* \"#utility.yul\":1752:1758   */\n      0x00\n        /* \"#utility.yul\":1760:1766   */\n      dup1\n        /* \"#utility.yul\":1813:1815   */\n      0x40\n        /* \"#utility.yul\":1801:1810   */\n      dup4\n        /* \"#utility.yul\":1792:1799   */\n      dup6\n        /* \"#utility.yul\":1788:1811   */\n      sub\n        /* \"#utility.yul\":1784:1816   */\n      slt\n        /* \"#utility.yul\":1781:1833   */\n      iszero\n      tag_382\n      jumpi\n        /* \"#utility.yul\":1829:1830   */\n      0x00\n        /* \"#utility.yul\":1826:1827   */\n      dup1\n        /* \"#utility.yul\":1819:1831   */\n      revert\n        /* \"#utility.yul\":1781:1833   */\n    tag_382:\n        /* \"#utility.yul\":1868:1877   */\n      dup3\n        /* \"#utility.yul\":1855:1878   */\n      calldataload\n        /* \"#utility.yul\":1887:1918   */\n      tag_383\n        /* \"#utility.yul\":1912:1917   */\n      dup2\n        /* \"#utility.yul\":1887:1918   */\n      tag_363\n      jump\t// in\n    tag_383:\n        /* \"#utility.yul\":1937:1942   */\n      swap5\n        /* \"#utility.yul\":1989:1991   */\n      0x20\n        /* \"#utility.yul\":1974:1992   */\n      swap4\n      swap1\n      swap4\n      add\n        /* \"#utility.yul\":1961:1993   */\n      calldataload\n      swap4\n      pop\n      pop\n      pop\n        /* \"#utility.yul\":1684:1999   */\n      jump\t// out\n        /* \"#utility.yul\":2004:2184   */\n    tag_107:\n        /* \"#utility.yul\":2063:2069   */\n      0x00\n        /* \"#utility.yul\":2116:2118   */\n      0x20\n        /* \"#utility.yul\":2104:2113   */\n      dup3\n        /* \"#utility.yul\":2095:2102   */\n      dup5\n        /* \"#utility.yul\":2091:2114   */\n      sub\n        /* \"#utility.yul\":2087:2119   */\n      slt\n        /* \"#utility.yul\":2084:2136   */\n      iszero\n      tag_385\n      jumpi\n        /* \"#utility.yul\":2132:2133   */\n      0x00\n        /* \"#utility.yul\":2129:2130   */\n      dup1\n        /* \"#utility.yul\":2122:2134   */\n      revert\n        /* \"#utility.yul\":2084:2136   */\n    tag_385:\n      pop\n        /* \"#utility.yul\":2155:2178   */\n      calldataload\n      swap2\n        /* \"#utility.yul\":2004:2184   */\n      swap1\n      pop\n      jump\t// out\n        /* \"#utility.yul\":2641:2979   */\n    tag_114:\n        /* \"#utility.yul\":2723:2729   */\n      0x00\n        /* \"#utility.yul\":2731:2737   */\n      dup1\n        /* \"#utility.yul\":2784:2786   */\n      0x40\n        /* \"#utility.yul\":2772:2781   */\n      dup4\n        /* \"#utility.yul\":2763:2770   */\n      dup6\n        /* \"#utility.yul\":2759:2782   */\n      sub\n        /* \"#utility.yul\":2755:2787   */\n      slt\n        /* \"#utility.yul\":2752:2804   */\n      iszero\n      tag_388\n      jumpi\n        /* \"#utility.yul\":2800:2801   */\n      0x00\n        /* \"#utility.yul\":2797:2798   */\n      dup1\n        /* \"#utility.yul\":2790:2802   */\n      revert\n        /* \"#utility.yul\":2752:2804   */\n    tag_388:\n        /* \"#utility.yul\":2836:2845   */\n      dup3\n        /* \"#utility.yul\":2823:2846   */\n      calldataload\n        /* \"#utility.yul\":2813:2846   */\n      swap2\n      pop\n        /* \"#utility.yul\":2896:2898   */\n      0x20\n        /* \"#utility.yul\":2885:2894   */\n      dup4\n        /* \"#utility.yul\":2881:2899   */\n      add\n        /* \"#utility.yul\":2868:2900   */\n      calldataload\n        /* \"#utility.yul\":2929:2930   */\n      0x05\n        /* \"#utility.yul\":2922:2927   */\n      dup2\n        /* \"#utility.yul\":2919:2931   */\n      lt\n        /* \"#utility.yul\":2909:2949   */\n      tag_380\n      jumpi\n        /* \"#utility.yul\":2945:2946   */\n      0x00\n        /* \"#utility.yul\":2942:2943   */\n      dup1\n        /* \"#utility.yul\":2935:2947   */\n      revert\n        /* \"#utility.yul\":2984:3235   */\n    tag_136:\n        /* \"#utility.yul\":3054:3060   */\n      0x00\n        /* \"#utility.yul\":3107:3109   */\n      0x20\n        /* \"#utility.yul\":3095:3104   */\n      dup3\n        /* \"#utility.yul\":3086:3093   */\n      dup5\n        /* \"#utility.yul\":3082:3105   */\n      sub\n        /* \"#utility.yul\":3078:3110   */\n      slt\n        /* \"#utility.yul\":3075:3127   */\n      iszero\n      tag_391\n      jumpi\n        /* \"#utility.yul\":3123:3124   */\n      0x00\n        /* \"#utility.yul\":3120:3121   */\n      dup1\n        /* \"#utility.yul\":3113:3125   */\n      revert\n        /* \"#utility.yul\":3075:3127   */\n    tag_391:\n        /* \"#utility.yul\":3155:3164   */\n      dup2\n        /* \"#utility.yul\":3149:3165   */\n      mload\n        /* \"#utility.yul\":3174:3205   */\n      tag_373\n        /* \"#utility.yul\":3199:3204   */\n      dup2\n        /* \"#utility.yul\":3174:3205   */\n      tag_363\n      jump\t// in\n        /* \"#utility.yul\":3240:3583   */\n    tag_144:\n        /* \"#utility.yul\":3442:3444   */\n      0x20\n        /* \"#utility.yul\":3424:3445   */\n      dup1\n      dup3\n      mstore\n        /* \"#utility.yul\":3481:3483   */\n      0x13\n        /* \"#utility.yul\":3461:3479   */\n      swap1\n      dup3\n      add\n        /* \"#utility.yul\":3454:3484   */\n      mstore\n      shl(0x69, 0x21b0b63632b91034b9903737ba1037bbb732b9)\n        /* \"#utility.yul\":3515:3517   */\n      0x40\n        /* \"#utility.yul\":3500:3518   */\n      dup3\n      add\n        /* \"#utility.yul\":3493:3542   */\n      mstore\n        /* \"#utility.yul\":3574:3576   */\n      0x60\n        /* \"#utility.yul\":3559:3577   */\n      add\n      swap1\n        /* \"#utility.yul\":3240:3583   */\n      jump\t// out\n        /* \"#utility.yul\":5426:5553   */\n    tag_364:\n        /* \"#utility.yul\":5487:5497   */\n      0x4e487b71\n        /* \"#utility.yul\":5482:5485   */\n      0xe0\n        /* \"#utility.yul\":5478:5498   */\n      shl\n        /* \"#utility.yul\":5475:5476   */\n      0x00\n        /* \"#utility.yul\":5468:5499   */\n      mstore\n        /* \"#utility.yul\":5518:5522   */\n      0x11\n        /* \"#utility.yul\":5515:5516   */\n      0x04\n        /* \"#utility.yul\":5508:5523   */\n      mstore\n        /* \"#utility.yul\":5542:5546   */\n      0x24\n        /* \"#utility.yul\":5539:5540   */\n      0x00\n        /* \"#utility.yul\":5532:5547   */\n      revert\n        /* \"#utility.yul\":5558:5683   */\n    tag_165:\n        /* \"#utility.yul\":5623:5632   */\n      dup1\n      dup3\n      add\n        /* \"#utility.yul\":5644:5654   */\n      dup1\n      dup3\n      gt\n        /* \"#utility.yul\":5641:5677   */\n      iszero\n      tag_194\n      jumpi\n        /* \"#utility.yul\":5657:5675   */\n      tag_194\n      tag_364\n      jump\t// in\n        /* \"#utility.yul\":5688:5856   */\n    tag_172:\n        /* \"#utility.yul\":5761:5770   */\n      dup1\n      dup3\n      mul\n        /* \"#utility.yul\":5792:5801   */\n      dup2\n      iszero\n        /* \"#utility.yul\":5809:5824   */\n      dup3\n      dup3\n      div\n        /* \"#utility.yul\":5803:5825   */\n      dup5\n      eq\n        /* \"#utility.yul\":5789:5826   */\n      or\n        /* \"#utility.yul\":5779:5850   */\n      tag_194\n      jumpi\n        /* \"#utility.yul\":5830:5848   */\n      tag_194\n      tag_364\n      jump\t// in\n        /* \"#utility.yul\":5861:6078   */\n    tag_174:\n        /* \"#utility.yul\":5901:5902   */\n      0x00\n        /* \"#utility.yul\":5927:5928   */\n      dup3\n        /* \"#utility.yul\":5917:6049   */\n      tag_407\n      jumpi\n        /* \"#utility.yul\":5971:5981   */\n      0x4e487b71\n        /* \"#utility.yul\":5966:5969   */\n      0xe0\n        /* \"#utility.yul\":5962:5982   */\n      shl\n        /* \"#utility.yul\":5959:5960   */\n      0x00\n        /* \"#utility.yul\":5952:5983   */\n      mstore\n        /* \"#utility.yul\":6006:6010   */\n      0x12\n        /* \"#utility.yul\":6003:6004   */\n      0x04\n        /* \"#utility.yul\":5996:6011   */\n      mstore\n        /* \"#utility.yul\":6034:6038   */\n      0x24\n        /* \"#utility.yul\":6031:6032   */\n      0x00\n        /* \"#utility.yul\":6024:6039   */\n      revert\n        /* \"#utility.yul\":5917:6049   */\n    tag_407:\n      pop\n        /* \"#utility.yul\":6063:6072   */\n      div\n      swap1\n        /* \"#utility.yul\":5861:6078   */\n      jump\t// out\n        /* \"#utility.yul\":6607:6876   */\n    tag_198:\n        /* \"#utility.yul\":6664:6670   */\n      0x00\n        /* \"#utility.yul\":6717:6719   */\n      0x20\n        /* \"#utility.yul\":6705:6714   */\n      dup3\n        /* \"#utility.yul\":6696:6703   */\n      dup5\n        /* \"#utility.yul\":6692:6715   */\n      sub\n        /* \"#utility.yul\":6688:6720   */\n      slt\n        /* \"#utility.yul\":6685:6737   */\n      iszero\n      tag_410\n      jumpi\n        /* \"#utility.yul\":6733:6734   */\n      0x00\n        /* \"#utility.yul\":6730:6731   */\n      dup1\n        /* \"#utility.yul\":6723:6735   */\n      revert\n        /* \"#utility.yul\":6685:6737   */\n    tag_410:\n        /* \"#utility.yul\":6772:6781   */\n      dup2\n        /* \"#utility.yul\":6759:6782   */\n      calldataload\n        /* \"#utility.yul\":6822:6826   */\n      0xff\n        /* \"#utility.yul\":6815:6820   */\n      dup2\n        /* \"#utility.yul\":6811:6827   */\n      and\n        /* \"#utility.yul\":6804:6809   */\n      dup2\n        /* \"#utility.yul\":6801:6828   */\n      eq\n        /* \"#utility.yul\":6791:6846   */\n      tag_373\n      jumpi\n        /* \"#utility.yul\":6842:6843   */\n      0x00\n        /* \"#utility.yul\":6839:6840   */\n      dup1\n        /* \"#utility.yul\":6832:6844   */\n      revert\n        /* \"#utility.yul\":7240:7367   */\n    tag_220:\n        /* \"#utility.yul\":7301:7311   */\n      0x4e487b71\n        /* \"#utility.yul\":7296:7299   */\n      0xe0\n        /* \"#utility.yul\":7292:7312   */\n      shl\n        /* \"#utility.yul\":7289:7290   */\n      0x00\n        /* \"#utility.yul\":7282:7313   */\n      mstore\n        /* \"#utility.yul\":7332:7336   */\n      0x21\n        /* \"#utility.yul\":7329:7330   */\n      0x04\n        /* \"#utility.yul\":7322:7337   */\n      mstore\n        /* \"#utility.yul\":7356:7360   */\n      0x24\n        /* \"#utility.yul\":7353:7354   */\n      0x00\n        /* \"#utility.yul\":7346:7361   */\n      revert\n        /* \"#utility.yul\":7775:8357   */\n    tag_234:\n      sub(shl(0xa0, 0x01), 0x01)\n        /* \"#utility.yul\":8036:8068   */\n      dup6\n      and\n        /* \"#utility.yul\":8018:8069   */\n      dup2\n      mstore\n        /* \"#utility.yul\":8100:8102   */\n      0x20\n        /* \"#utility.yul\":8085:8103   */\n      dup2\n      add\n        /* \"#utility.yul\":8078:8112   */\n      dup5\n      swap1\n      mstore\n        /* \"#utility.yul\":8143:8145   */\n      0x40\n        /* \"#utility.yul\":8128:8146   */\n      dup2\n      add\n        /* \"#utility.yul\":8121:8155   */\n      dup4\n      swap1\n      mstore\n        /* \"#utility.yul\":8005:8008   */\n      0x80\n        /* \"#utility.yul\":7990:8009   */\n      dup2\n      add\n        /* \"#utility.yul\":8185:8186   */\n      0x05\n        /* \"#utility.yul\":8174:8187   */\n      dup4\n      lt\n        /* \"#utility.yul\":8164:8308   */\n      tag_416\n      jumpi\n        /* \"#utility.yul\":8230:8240   */\n      0x4e487b71\n        /* \"#utility.yul\":8225:8228   */\n      0xe0\n        /* \"#utility.yul\":8221:8241   */\n      shl\n        /* \"#utility.yul\":8218:8219   */\n      0x00\n        /* \"#utility.yul\":8211:8242   */\n      mstore\n        /* \"#utility.yul\":8265:8269   */\n      0x21\n        /* \"#utility.yul\":8262:8263   */\n      0x04\n        /* \"#utility.yul\":8255:8270   */\n      mstore\n        /* \"#utility.yul\":8293:8297   */\n      0x24\n        /* \"#utility.yul\":8290:8291   */\n      0x00\n        /* \"#utility.yul\":8283:8298   */\n      revert\n        /* \"#utility.yul\":8164:8308   */\n    tag_416:\n        /* \"#utility.yul\":8344:8350   */\n      dup3\n        /* \"#utility.yul\":8339:8341   */\n      0x60\n        /* \"#utility.yul\":8328:8337   */\n      dup4\n        /* \"#utility.yul\":8324:8342   */\n      add\n        /* \"#utility.yul\":8317:8351   */\n      mstore\n        /* \"#utility.yul\":7775:8357   */\n      swap6\n      swap5\n      pop\n      pop\n      pop\n      pop\n      pop\n      jump\t// out\n        /* \"#utility.yul\":8362:8550   */\n    tag_365:\n        /* \"#utility.yul\":8441:8454   */\n      dup1\n      mload\n      sub(shl(0x70, 0x01), 0x01)\n        /* \"#utility.yul\":8483:8525   */\n      dup2\n      and\n        /* \"#utility.yul\":8473:8526   */\n      dup2\n      eq\n        /* \"#utility.yul\":8463:8544   */\n      tag_418\n      jumpi\n        /* \"#utility.yul\":8540:8541   */\n      0x00\n        /* \"#utility.yul\":8537:8538   */\n      dup1\n        /* \"#utility.yul\":8530:8542   */\n      revert\n        /* \"#utility.yul\":8463:8544   */\n    tag_418:\n        /* \"#utility.yul\":8362:8550   */\n      swap2\n      swap1\n      pop\n      jump\t// out\n        /* \"#utility.yul\":8555:9005   */\n    tag_250:\n        /* \"#utility.yul\":8642:8648   */\n      0x00\n        /* \"#utility.yul\":8650:8656   */\n      dup1\n        /* \"#utility.yul\":8658:8664   */\n      0x00\n        /* \"#utility.yul\":8711:8713   */\n      0x60\n        /* \"#utility.yul\":8699:8708   */\n      dup5\n        /* \"#utility.yul\":8690:8697   */\n      dup7\n        /* \"#utility.yul\":8686:8709   */\n      sub\n        /* \"#utility.yul\":8682:8714   */\n      slt\n        /* \"#utility.yul\":8679:8731   */\n      iszero\n      tag_420\n      jumpi\n        /* \"#utility.yul\":8727:8728   */\n      0x00\n        /* \"#utility.yul\":8724:8725   */\n      dup1\n        /* \"#utility.yul\":8717:8729   */\n      revert\n        /* \"#utility.yul\":8679:8731   */\n    tag_420:\n        /* \"#utility.yul\":8750:8790   */\n      tag_421\n        /* \"#utility.yul\":8780:8789   */\n      dup5\n        /* \"#utility.yul\":8750:8790   */\n      tag_365\n      jump\t// in\n    tag_421:\n        /* \"#utility.yul\":8740:8790   */\n      swap3\n      pop\n        /* \"#utility.yul\":8809:8858   */\n      tag_422\n        /* \"#utility.yul\":8854:8856   */\n      0x20\n        /* \"#utility.yul\":8843:8852   */\n      dup6\n        /* \"#utility.yul\":8839:8857   */\n      add\n        /* \"#utility.yul\":8809:8858   */\n      tag_365\n      jump\t// in\n    tag_422:\n        /* \"#utility.yul\":8799:8858   */\n      swap2\n      pop\n        /* \"#utility.yul\":8901:8903   */\n      0x40\n        /* \"#utility.yul\":8890:8899   */\n      dup5\n        /* \"#utility.yul\":8886:8904   */\n      add\n        /* \"#utility.yul\":8880:8905   */\n      mload\n        /* \"#utility.yul\":8945:8955   */\n      0xffffffff\n        /* \"#utility.yul\":8938:8943   */\n      dup2\n        /* \"#utility.yul\":8934:8956   */\n      and\n        /* \"#utility.yul\":8927:8932   */\n      dup2\n        /* \"#utility.yul\":8924:8957   */\n      eq\n        /* \"#utility.yul\":8914:8975   */\n      tag_423\n      jumpi\n        /* \"#utility.yul\":8971:8972   */\n      0x00\n        /* \"#utility.yul\":8968:8969   */\n      dup1\n        /* \"#utility.yul\":8961:8973   */\n      revert\n        /* \"#utility.yul\":8914:8975   */\n    tag_423:\n        /* \"#utility.yul\":8994:8999   */\n      dup1\n        /* \"#utility.yul\":8984:8999   */\n      swap2\n      pop\n      pop\n        /* \"#utility.yul\":8555:9005   */\n      swap3\n      pop\n      swap3\n      pop\n      swap3\n      jump\t// out\n        /* \"#utility.yul\":10110:10522   */\n    tag_272:\n        /* \"#utility.yul\":10239:10242   */\n      0x00\n        /* \"#utility.yul\":10277:10283   */\n      dup3\n        /* \"#utility.yul\":10271:10284   */\n      mload\n        /* \"#utility.yul\":10302:10303   */\n      0x00\n        /* \"#utility.yul\":10312:10441   */\n    tag_428:\n        /* \"#utility.yul\":10326:10332   */\n      dup2\n        /* \"#utility.yul\":10323:10324   */\n      dup2\n        /* \"#utility.yul\":10320:10333   */\n      lt\n        /* \"#utility.yul\":10312:10441   */\n      iszero\n      tag_430\n      jumpi\n        /* \"#utility.yul\":10424:10428   */\n      0x20\n        /* \"#utility.yul\":10408:10422   */\n      dup2\n      dup7\n      add\n        /* \"#utility.yul\":10404:10429   */\n      dup2\n      add\n        /* \"#utility.yul\":10398:10430   */\n      mload\n        /* \"#utility.yul\":10385:10396   */\n      dup6\n      dup4\n      add\n        /* \"#utility.yul\":10378:10431   */\n      mstore\n        /* \"#utility.yul\":10341:10353   */\n      add\n        /* \"#utility.yul\":10312:10441   */\n      jump(tag_428)\n    tag_430:\n      pop\n        /* \"#utility.yul\":10496:10497   */\n      0x00\n        /* \"#utility.yul\":10460:10476   */\n      swap3\n      add\n        /* \"#utility.yul\":10485:10498   */\n      swap2\n      dup3\n      mstore\n      pop\n        /* \"#utility.yul\":10460:10476   */\n      swap2\n        /* \"#utility.yul\":10110:10522   */\n      swap1\n      pop\n      jump\t// out\n        /* \"#utility.yul\":10527:10804   */\n    tag_279:\n        /* \"#utility.yul\":10594:10600   */\n      0x00\n        /* \"#utility.yul\":10647:10649   */\n      0x20\n        /* \"#utility.yul\":10635:10644   */\n      dup3\n        /* \"#utility.yul\":10626:10633   */\n      dup5\n        /* \"#utility.yul\":10622:10645   */\n      sub\n        /* \"#utility.yul\":10618:10650   */\n      slt\n        /* \"#utility.yul\":10615:10667   */\n      iszero\n      tag_432\n      jumpi\n        /* \"#utility.yul\":10663:10664   */\n      0x00\n        /* \"#utility.yul\":10660:10661   */\n      dup1\n        /* \"#utility.yul\":10653:10665   */\n      revert\n        /* \"#utility.yul\":10615:10667   */\n    tag_432:\n        /* \"#utility.yul\":10695:10704   */\n      dup2\n        /* \"#utility.yul\":10689:10705   */\n      mload\n        /* \"#utility.yul\":10748:10753   */\n      dup1\n        /* \"#utility.yul\":10741:10754   */\n      iszero\n        /* \"#utility.yul\":10734:10755   */\n      iszero\n        /* \"#utility.yul\":10727:10732   */\n      dup2\n        /* \"#utility.yul\":10724:10756   */\n      eq\n        /* \"#utility.yul\":10714:10774   */\n      tag_373\n      jumpi\n        /* \"#utility.yul\":10770:10771   */\n      0x00\n        /* \"#utility.yul\":10767:10768   */\n      dup1\n        /* \"#utility.yul\":10760:10772   */\n      revert\n\n    auxdata: 0xa26469706673582212203dd0a17b462bff02cfd963beef0f89d3d369a633c074b3ba73a81decb229532164736f6c63430008120033\n}\n",
				"bytecode": {
					"linkReferences": {},
					"object": "608060405234801561001057600080fd5b50600080546001600160a01b03191633179055611bac806100326000396000f3fe6080604052600436106101395760003560e01c80635e43cd68116100ab578063bc4467081161006f578063bc4467081461037a578063bc7fb169146103fa578063c4d66de81461041a578063d13319c41461043a578063f851a4401461046d578063fc0c546a1461048d57600080fd5b80635e43cd68146102b25780636d0000b7146102e2578063704b6c021461031a57806388e3988f1461033a5780638fe7002c1461035a57600080fd5b806336cf7c87116100fd57806336cf7c87146101fd578063400037631461021d5780634b94f50e1461023d5780635777e93d1461025257806359d0f713146102725780635c60da1b1461029257600080fd5b806308760b0d146101455780631694505e1461016d5780632f48ab7d146101a557806332105e46146101c55780633644e515146101e757600080fd5b3661014057005b600080fd5b34801561015157600080fd5b5061015a6104ad565b6040519081526020015b60405180910390f35b34801561017957600080fd5b5060085461018d906001600160a01b031681565b6040516001600160a01b039091168152602001610164565b3480156101b157600080fd5b5060075461018d906001600160a01b031681565b3480156101d157600080fd5b506101e56101e03660046118ae565b61056c565b005b3480156101f357600080fd5b5061015a600a5481565b34801561020957600080fd5b5060065461018d906001600160a01b031681565b34801561022957600080fd5b506101e56102383660046118d2565b6105c1565b34801561024957600080fd5b5061015a6109fa565b34801561025e57600080fd5b5060055461018d906001600160a01b031681565b34801561027e57600080fd5b5060095461018d906001600160a01b031681565b34801561029e57600080fd5b5060015461018d906001600160a01b031681565b3480156102be57600080fd5b506102d26102cd3660046118d2565b610a41565b6040519015158152602001610164565b3480156102ee57600080fd5b5061015a6102fd3660046118eb565b600b60209081526000928352604080842090915290825290205481565b34801561032657600080fd5b506101e56103353660046118ae565b610a83565b34801561034657600080fd5b506101e561035536600461191b565b610acf565b34801561036657600080fd5b506101e561037536600461191b565b610b10565b34801561038657600080fd5b506103ca610395366004611947565b6003602081905260009182526040909120805460018201546002830154929093015490926001600160a01b0390811692169084565b60405161016494939291909384526001600160a01b03928316602085015291166040830152606082015260800190565b34801561040657600080fd5b506101e5610415366004611960565b610b44565b34801561042657600080fd5b506101e56104353660046118ae565b610ce2565b34801561044657600080fd5b507fb5f106453e92c83f8ef471e09a8097b99888030beb671302e7c318e4d198c6e361015a565b34801561047957600080fd5b5060005461018d906001600160a01b031681565b34801561049957600080fd5b5060045461018d906001600160a01b031681565b600080600860009054906101000a90046001600160a01b03166001600160a01b031663ad5c46486040518163ffffffff1660e01b8152600401602060405180830381865afa158015610503573d6000803e3d6000fd5b505050506040513d601f19601f820116820180604052508101906105279190611989565b600954600754919250600091829161054d916001600160a01b0391821691869116610e6d565b91509150610564670de0b6b3a76400008383610f37565b935050505090565b6000546001600160a01b0316331461059f5760405162461bcd60e51b8152600401610596906119a6565b60405180910390fd5b600580546001600160a01b0319166001600160a01b0392909216919091179055565b428160800135101561061f5760405162461bcd60e51b815260206004820152602160248201527f506c65646167653a496e76616c6964207769746864726177206475726174696f6044820152603760f91b6064820152608401610596565b61062881610a41565b6106745760405162461bcd60e51b815260206004820152601d60248201527f506c65646167653a496e76616c696420776974686472617720646174610000006044820152606401610596565b600061068660408301602084016118ae565b6001600160a01b0316036106dc5760405162461bcd60e51b815260206004820181905260248201527f506c65646167653a496e76616c696420776974686472617720616464726573736044820152606401610596565b60008160400135116107305760405162461bcd60e51b815260206004820152601f60248201527f506c65646167653a496e76616c696420776974686472617720616d6f756e74006044820152606401610596565b606081013560009081526003602081815260408084209283015483548552600b835281852060018501546001600160a01b0316865290925290922054909190036107bc5760405162461bcd60e51b815260206004820152601c60248201527f506c65646167653a5265706561746564207769746864726177616c73000000006044820152606401610596565b81604001358160030160008282546107d491906119e9565b909155506107e7905060208301836118ae565b6002820180546001600160a01b0319166001600160a01b039290921691909117905561081960408301602084016118ae565b6001820180546001600160a01b0319166001600160a01b03928316908117909155600383015483546000908152600b602090815260408083209483529390529190912055600454600283015490821691160361095a576004546108af906001600160a01b031661088f60408501602086016118ae565b60646108a0604087013560636119fc565b6108aa9190611a13565b611056565b6004546108e0906001600160a01b03166108cf60408501602086016118ae565b60646108a0604087013560016119fc565b7ffe7813e2866053d5c3938554e517b554fce6666a6561bed9eaa7419b29fa9b68606083013561091660408501602086016118ae565b61092360208601866118ae565b604080519384526001600160a01b039283166020850152911682820152840135606082015242608082015260a00160405180910390a15b60028101546001600160a01b03166109f65761098961097f60408401602085016118ae565b8360400135611171565b7ffe7813e2866053d5c3938554e517b554fce6666a6561bed9eaa7419b29fa9b6860608301356109bf60408501602086016118ae565b604080519283526001600160a01b039091166020830152600082820152840135606082015242608082015260a00160405180910390a15b5050565b60095460045460075460009283928392610a23926001600160a01b039081169281169116610e6d565b91509150610a3a670de0b6b3a76400008383610f37565b9250505090565b6000610a7d610a4f8361123f565b6005546001600160a01b0316610a6b60c0860160a08701611a35565b8560c001358660e00135600a546112e3565b92915050565b6000546001600160a01b03163314610aad5760405162461bcd60e51b8152600401610596906119a6565b600080546001600160a01b0319166001600160a01b0392909216919091179055565b6000546001600160a01b03163314610af95760405162461bcd60e51b8152600401610596906119a6565b6004546109f6906001600160a01b03168383611056565b6000546001600160a01b03163314610b3a5760405162461bcd60e51b8152600401610596906119a6565b6109f68282611171565b68056bc75e2d63100000821015610b9d5760405162461bcd60e51b815260206004820152601e60248201527f506c65646167653a496e76616c69642070726f7669646520616d6f756e7400006044820152606401610596565b6000816004811115610bb157610bb1611a58565b03610c095760405162461bcd60e51b815260206004820152602260248201527f506c65646167653a496e76616c69642070726f7669646520657870697261746960448201526137b760f11b6064820152608401610596565b600454610c21906001600160a01b031633308561134b565b3360009081526002602081815260408320805460018082018355828652838620909101879055928101805493840181558452928190209082040180548492601f166101000a60ff81021990911690836004811115610c8157610c81611a58565b02179055506001808201805491820181556000908152602090204291018190556040517f1ab2d7016a285cf7ca78bdd1c8a8e845f082fe124067d9137646150ced64081691610cd591339187918790611a6e565b60405180910390a1505050565b6000546001600160a01b03163314610d0c5760405162461bcd60e51b8152600401610596906119a6565b600880546001600160a01b03199081167310ed43c718714eb63d5aa57b78b54704e256024e1790915560098054821673ca143ce32fe78f1f7019d7d551a6402fc5350c731790556007805482167355d398326f99059ff775485246999027b319795517905560068054821661dead1790556004805482167333e0b24aaea62500ca79d33e26efe576bbf5bacf179055600580546001600160a01b0384169216919091179055610e6a60408051808201825260018152603160f81b60209182015281517f8b73c3c69bb8fe3d512ecc4cf759cc79239f7b179b0ffacaa9a75d522b39400f818301527fed9e26fc34b201817108d14db5e93fff6700cff6f5e90ac3b3da395aba756b5c818401527fc89efdaa54c0f20c7adf612882df0950f5a951637e0307cdcb4c672f298b8bc660608201524660808201523060a0808301919091528351808303909101815260c09091019092528151910120600a55565b50565b6000806000610e7c858561147b565b509050600080610e8d888888611572565b6001600160a01b0316630902f1ac6040518163ffffffff1660e01b8152600401606060405180830381865afa158015610eca573d6000803e3d6000fd5b505050506040513d601f19601f82011682018060405250810190610eee9190611ad5565b506001600160701b031691506001600160701b03169150826001600160a01b0316876001600160a01b031614610f25578082610f28565b81815b90999098509650505050505050565b6000808411610f9c5760405162461bcd60e51b815260206004820152602b60248201527f556e697377617056324c6962726172793a20494e53554646494349454e545f4960448201526a1394155517d05353d5539560aa1b6064820152608401610596565b600083118015610fac5750600082115b6110095760405162461bcd60e51b815260206004820152602860248201527f556e697377617056324c6962726172793a20494e53554646494349454e545f4c604482015267495155494449545960c01b6064820152608401610596565b6000611017856103e561164a565b90506000611025828561164a565b9050600061103f83611039886103e861164a565b906116b1565b905061104b8183611a13565b979650505050505050565b604080516001600160a01b038481166024830152604480830185905283518084039091018152606490920183526020820180516001600160e01b031663a9059cbb60e01b17905291516000928392908716916110b29190611b25565b6000604051808303816000865af19150503d80600081146110ef576040519150601f19603f3d011682016040523d82523d6000602084013e6110f4565b606091505b509150915081801561111e57508051158061111e57508080602001905181019061111e9190611b54565b61116a5760405162461bcd60e51b815260206004820152601f60248201527f5472616e7366657248656c7065723a205452414e534645525f4641494c4544006044820152606401610596565b5050505050565b604080516000808252602082019092526001600160a01b03841690839060405161119b9190611b25565b60006040518083038185875af1925050503d80600081146111d8576040519150601f19603f3d011682016040523d82523d6000602084013e6111dd565b606091505b505090508061123a5760405162461bcd60e51b815260206004820152602360248201527f5472616e7366657248656c7065723a204554485f5452414e534645525f46414960448201526213115160ea1b6064820152608401610596565b505050565b60007fb5f106453e92c83f8ef471e09a8097b99888030beb671302e7c318e4d198c6e361126f60208401846118ae565b61127f60408501602086016118ae565b6040805160208101949094526001600160a01b03928316848201529116606083810191909152908401356080838101919091529084013560a083015283013560c082015260e001604051602081830303815290604052805190602001209050919050565b60405161190160f01b602082015260228101829052604281018790526000908190606201604051602081830303815290604052805190602001209050866001600160a01b031661133582888888611706565b6001600160a01b03161498975050505050505050565b604080516001600160a01b0385811660248301528481166044830152606480830185905283518084039091018152608490920183526020820180516001600160e01b03166323b872dd60e01b17905291516000928392908816916113af9190611b25565b6000604051808303816000865af19150503d80600081146113ec576040519150601f19603f3d011682016040523d82523d6000602084013e6113f1565b606091505b509150915081801561141b57508051158061141b57508080602001905181019061141b9190611b54565b6114735760405162461bcd60e51b8152602060048201526024808201527f5472616e7366657248656c7065723a205452414e534645525f46524f4d5f46416044820152631253115160e21b6064820152608401610596565b505050505050565b600080826001600160a01b0316846001600160a01b0316036114ed5760405162461bcd60e51b815260206004820152602560248201527f556e697377617056324c6962726172793a204944454e544943414c5f41444452604482015264455353455360d81b6064820152608401610596565b826001600160a01b0316846001600160a01b03161061150d578284611510565b83835b90925090506001600160a01b03821661156b5760405162461bcd60e51b815260206004820152601e60248201527f556e697377617056324c6962726172793a205a45524f5f4144445245535300006044820152606401610596565b9250929050565b6000806000611581858561147b565b6040516bffffffffffffffffffffffff19606084811b8216602084015283901b16603482015291935091508690604801604051602081830303815290604052805190602001206040516020016116289291906001600160f81b0319815260609290921b6bffffffffffffffffffffffff1916600183015260158201527efb7f630766e6a796048ea87d01acd3068e8ff67d078148a3fa3f4a84f69bd5603582015260550190565b60408051601f1981840301815291905280516020909101209695505050505050565b600081158061166e5750828261166081836119fc565b925061166c9083611a13565b145b610a7d5760405162461bcd60e51b815260206004820152601460248201527364732d6d6174682d6d756c2d6f766572666c6f7760601b6044820152606401610596565b6000826116be83826119e9565b9150811015610a7d5760405162461bcd60e51b815260206004820152601460248201527364732d6d6174682d6164642d6f766572666c6f7760601b6044820152606401610596565b60007f7fffffffffffffffffffffffffffffff5d576e7357a4501ddfe92f46681b20a08211156117785760405162461bcd60e51b815260206004820152601e60248201527f5369676e61747572653a20496e76616c6964207320706172616d6574657200006044820152606401610596565b8360ff16601b148061178d57508360ff16601c145b6117d95760405162461bcd60e51b815260206004820152601e60248201527f5369676e61747572653a20496e76616c6964207620706172616d6574657200006044820152606401610596565b6040805160008082526020820180845288905260ff871692820192909252606081018590526080810184905260019060a0016020604051602081039080840390855afa15801561182d573d6000803e3d6000fd5b5050604051601f1901519150506001600160a01b0381166118905760405162461bcd60e51b815260206004820152601960248201527f5369676e61747572653a20496e76616c6964207369676e6572000000000000006044820152606401610596565b95945050505050565b6001600160a01b0381168114610e6a57600080fd5b6000602082840312156118c057600080fd5b81356118cb81611899565b9392505050565b600061010082840312156118e557600080fd5b50919050565b600080604083850312156118fe57600080fd5b82359150602083013561191081611899565b809150509250929050565b6000806040838503121561192e57600080fd5b823561193981611899565b946020939093013593505050565b60006020828403121561195957600080fd5b5035919050565b6000806040838503121561197357600080fd5b8235915060208301356005811061191057600080fd5b60006020828403121561199b57600080fd5b81516118cb81611899565b60208082526013908201527221b0b63632b91034b9903737ba1037bbb732b960691b604082015260600190565b634e487b7160e01b600052601160045260246000fd5b80820180821115610a7d57610a7d6119d3565b8082028115828204841417610a7d57610a7d6119d3565b600082611a3057634e487b7160e01b600052601260045260246000fd5b500490565b600060208284031215611a4757600080fd5b813560ff811681146118cb57600080fd5b634e487b7160e01b600052602160045260246000fd5b6001600160a01b038516815260208101849052604081018390526080810160058310611aaa57634e487b7160e01b600052602160045260246000fd5b82606083015295945050505050565b80516001600160701b0381168114611ad057600080fd5b919050565b600080600060608486031215611aea57600080fd5b611af384611ab9565b9250611b0160208501611ab9565b9150604084015163ffffffff81168114611b1a57600080fd5b809150509250925092565b6000825160005b81811015611b465760208186018101518583015201611b2c565b506000920191825250919050565b600060208284031215611b6657600080fd5b815180151581146118cb57600080fdfea26469706673582212203dd0a17b462bff02cfd963beef0f89d3d369a633c074b3ba73a81decb229532164736f6c63430008120033",
					"opcodes": "PUSH1 0x80 PUSH1 0x40 MSTORE CALLVALUE DUP1 ISZERO PUSH2 0x10 JUMPI PUSH1 0x0 DUP1 REVERT JUMPDEST POP PUSH1 0x0 DUP1 SLOAD PUSH1 0x1 PUSH1 0x1 PUSH1 0xA0 SHL SUB NOT AND CALLER OR SWAP1 SSTORE PUSH2 0x1BAC DUP1 PUSH2 0x32 PUSH1 0x0 CODECOPY PUSH1 0x0 RETURN INVALID PUSH1 0x80 PUSH1 0x40 MSTORE PUSH1 0x4 CALLDATASIZE LT PUSH2 0x139 JUMPI PUSH1 0x0 CALLDATALOAD PUSH1 0xE0 SHR DUP1 PUSH4 0x5E43CD68 GT PUSH2 0xAB JUMPI DUP1 PUSH4 0xBC446708 GT PUSH2 0x6F JUMPI DUP1 PUSH4 0xBC446708 EQ PUSH2 0x37A JUMPI DUP1 PUSH4 0xBC7FB169 EQ PUSH2 0x3FA JUMPI DUP1 PUSH4 0xC4D66DE8 EQ PUSH2 0x41A JUMPI DUP1 PUSH4 0xD13319C4 EQ PUSH2 0x43A JUMPI DUP1 PUSH4 0xF851A440 EQ PUSH2 0x46D JUMPI DUP1 PUSH4 0xFC0C546A EQ PUSH2 0x48D JUMPI PUSH1 0x0 DUP1 REVERT JUMPDEST DUP1 PUSH4 0x5E43CD68 EQ PUSH2 0x2B2 JUMPI DUP1 PUSH4 0x6D0000B7 EQ PUSH2 0x2E2 JUMPI DUP1 PUSH4 0x704B6C02 EQ PUSH2 0x31A JUMPI DUP1 PUSH4 0x88E3988F EQ PUSH2 0x33A JUMPI DUP1 PUSH4 0x8FE7002C EQ PUSH2 0x35A JUMPI PUSH1 0x0 DUP1 REVERT JUMPDEST DUP1 PUSH4 0x36CF7C87 GT PUSH2 0xFD JUMPI DUP1 PUSH4 0x36CF7C87 EQ PUSH2 0x1FD JUMPI DUP1 PUSH4 0x40003763 EQ PUSH2 0x21D JUMPI DUP1 PUSH4 0x4B94F50E EQ PUSH2 0x23D JUMPI DUP1 PUSH4 0x5777E93D EQ PUSH2 0x252 JUMPI DUP1 PUSH4 0x59D0F713 EQ PUSH2 0x272 JUMPI DUP1 PUSH4 0x5C60DA1B EQ PUSH2 0x292 JUMPI PUSH1 0x0 DUP1 REVERT JUMPDEST DUP1 PUSH4 0x8760B0D EQ PUSH2 0x145 JUMPI DUP1 PUSH4 0x1694505E EQ PUSH2 0x16D JUMPI DUP1 PUSH4 0x2F48AB7D EQ PUSH2 0x1A5 JUMPI DUP1 PUSH4 0x32105E46 EQ PUSH2 0x1C5 JUMPI DUP1 PUSH4 0x3644E515 EQ PUSH2 0x1E7 JUMPI PUSH1 0x0 DUP1 REVERT JUMPDEST CALLDATASIZE PUSH2 0x140 JUMPI STOP JUMPDEST PUSH1 0x0 DUP1 REVERT JUMPDEST CALLVALUE DUP1 ISZERO PUSH2 0x151 JUMPI PUSH1 0x0 DUP1 REVERT JUMPDEST POP PUSH2 0x15A PUSH2 0x4AD JUMP JUMPDEST PUSH1 0x40 MLOAD SWAP1 DUP2 MSTORE PUSH1 0x20 ADD JUMPDEST PUSH1 0x40 MLOAD DUP1 SWAP2 SUB SWAP1 RETURN JUMPDEST CALLVALUE DUP1 ISZERO PUSH2 0x179 JUMPI PUSH1 0x0 DUP1 REVERT JUMPDEST POP PUSH1 0x8 SLOAD PUSH2 0x18D SWAP1 PUSH1 0x1 PUSH1 0x1 PUSH1 0xA0 SHL SUB AND DUP2 JUMP JUMPDEST PUSH1 0x40 MLOAD PUSH1 0x1 PUSH1 0x1 PUSH1 0xA0 SHL SUB SWAP1 SWAP2 AND DUP2 MSTORE PUSH1 0x20 ADD PUSH2 0x164 JUMP JUMPDEST CALLVALUE DUP1 ISZERO PUSH2 0x1B1 JUMPI PUSH1 0x0 DUP1 REVERT JUMPDEST POP PUSH1 0x7 SLOAD PUSH2 0x18D SWAP1 PUSH1 0x1 PUSH1 0x1 PUSH1 0xA0 SHL SUB AND DUP2 JUMP JUMPDEST CALLVALUE DUP1 ISZERO PUSH2 0x1D1 JUMPI PUSH1 0x0 DUP1 REVERT JUMPDEST POP PUSH2 0x1E5 PUSH2 0x1E0 CALLDATASIZE PUSH1 0x4 PUSH2 0x18AE JUMP JUMPDEST PUSH2 0x56C JUMP JUMPDEST STOP JUMPDEST CALLVALUE DUP1 ISZERO PUSH2 0x1F3 JUMPI PUSH1 0x0 DUP1 REVERT JUMPDEST POP PUSH2 0x15A PUSH1 0xA SLOAD DUP2 JUMP JUMPDEST CALLVALUE DUP1 ISZERO PUSH2 0x209 JUMPI PUSH1 0x0 DUP1 REVERT JUMPDEST POP PUSH1 0x6 SLOAD PUSH2 0x18D SWAP1 PUSH1 0x1 PUSH1 0x1 PUSH1 0xA0 SHL SUB AND DUP2 JUMP JUMPDEST CALLVALUE DUP1 ISZERO PUSH2 0x229 JUMPI PUSH1 0x0 DUP1 REVERT JUMPDEST POP PUSH2 0x1E5 PUSH2 0x238 CALLDATASIZE PUSH1 0x4 PUSH2 0x18D2 JUMP JUMPDEST PUSH2 0x5C1 JUMP JUMPDEST CALLVALUE DUP1 ISZERO PUSH2 0x249 JUMPI PUSH1 0x0 DUP1 REVERT JUMPDEST POP PUSH2 0x15A PUSH2 0x9FA JUMP JUMPDEST CALLVALUE DUP1 ISZERO PUSH2 0x25E JUMPI PUSH1 0x0 DUP1 REVERT JUMPDEST POP PUSH1 0x5 SLOAD PUSH2 0x18D SWAP1 PUSH1 0x1 PUSH1 0x1 PUSH1 0xA0 SHL SUB AND DUP2 JUMP JUMPDEST CALLVALUE DUP1 ISZERO PUSH2 0x27E JUMPI PUSH1 0x0 DUP1 REVERT JUMPDEST POP PUSH1 0x9 SLOAD PUSH2 0x18D SWAP1 PUSH1 0x1 PUSH1 0x1 PUSH1 0xA0 SHL SUB AND DUP2 JUMP JUMPDEST CALLVALUE DUP1 ISZERO PUSH2 0x29E JUMPI PUSH1 0x0 DUP1 REVERT JUMPDEST POP PUSH1 0x1 SLOAD PUSH2 0x18D SWAP1 PUSH1 0x1 PUSH1 0x1 PUSH1 0xA0 SHL SUB AND DUP2 JUMP JUMPDEST CALLVALUE DUP1 ISZERO PUSH2 0x2BE JUMPI PUSH1 0x0 DUP1 REVERT JUMPDEST POP PUSH2 0x2D2 PUSH2 0x2CD CALLDATASIZE PUSH1 0x4 PUSH2 0x18D2 JUMP JUMPDEST PUSH2 0xA41 JUMP JUMPDEST PUSH1 0x40 MLOAD SWAP1 ISZERO ISZERO DUP2 MSTORE PUSH1 0x20 ADD PUSH2 0x164 JUMP JUMPDEST CALLVALUE DUP1 ISZERO PUSH2 0x2EE JUMPI PUSH1 0x0 DUP1 REVERT JUMPDEST POP PUSH2 0x15A PUSH2 0x2FD CALLDATASIZE PUSH1 0x4 PUSH2 0x18EB JUMP JUMPDEST PUSH1 0xB PUSH1 0x20 SWAP1 DUP2 MSTORE PUSH1 0x0 SWAP3 DUP4 MSTORE PUSH1 0x40 DUP1 DUP5 KECCAK256 SWAP1 SWAP2 MSTORE SWAP1 DUP3 MSTORE SWAP1 KECCAK256 SLOAD DUP2 JUMP JUMPDEST CALLVALUE DUP1 ISZERO PUSH2 0x326 JUMPI PUSH1 0x0 DUP1 REVERT JUMPDEST POP PUSH2 0x1E5 PUSH2 0x335 CALLDATASIZE PUSH1 0x4 PUSH2 0x18AE JUMP JUMPDEST PUSH2 0xA83 JUMP JUMPDEST CALLVALUE DUP1 ISZERO PUSH2 0x346 JUMPI PUSH1 0x0 DUP1 REVERT JUMPDEST POP PUSH2 0x1E5 PUSH2 0x355 CALLDATASIZE PUSH1 0x4 PUSH2 0x191B JUMP JUMPDEST PUSH2 0xACF JUMP JUMPDEST CALLVALUE DUP1 ISZERO PUSH2 0x366 JUMPI PUSH1 0x0 DUP1 REVERT JUMPDEST POP PUSH2 0x1E5 PUSH2 0x375 CALLDATASIZE PUSH1 0x4 PUSH2 0x191B JUMP JUMPDEST PUSH2 0xB10 JUMP JUMPDEST CALLVALUE DUP1 ISZERO PUSH2 0x386 JUMPI PUSH1 0x0 DUP1 REVERT JUMPDEST POP PUSH2 0x3CA PUSH2 0x395 CALLDATASIZE PUSH1 0x4 PUSH2 0x1947 JUMP JUMPDEST PUSH1 0x3 PUSH1 0x20 DUP2 SWAP1 MSTORE PUSH1 0x0 SWAP2 DUP3 MSTORE PUSH1 0x40 SWAP1 SWAP2 KECCAK256 DUP1 SLOAD PUSH1 0x1 DUP3 ADD SLOAD PUSH1 0x2 DUP4 ADD SLOAD SWAP3 SWAP1 SWAP4 ADD SLOAD SWAP1 SWAP3 PUSH1 0x1 PUSH1 0x1 PUSH1 0xA0 SHL SUB SWAP1 DUP2 AND SWAP3 AND SWAP1 DUP5 JUMP JUMPDEST PUSH1 0x40 MLOAD PUSH2 0x164 SWAP5 SWAP4 SWAP3 SWAP2 SWAP1 SWAP4 DUP5 MSTORE PUSH1 0x1 PUSH1 0x1 PUSH1 0xA0 SHL SUB SWAP3 DUP4 AND PUSH1 0x20 DUP6 ADD MSTORE SWAP2 AND PUSH1 0x40 DUP4 ADD MSTORE PUSH1 0x60 DUP3 ADD MSTORE PUSH1 0x80 ADD SWAP1 JUMP JUMPDEST CALLVALUE DUP1 ISZERO PUSH2 0x406 JUMPI PUSH1 0x0 DUP1 REVERT JUMPDEST POP PUSH2 0x1E5 PUSH2 0x415 CALLDATASIZE PUSH1 0x4 PUSH2 0x1960 JUMP JUMPDEST PUSH2 0xB44 JUMP JUMPDEST CALLVALUE DUP1 ISZERO PUSH2 0x426 JUMPI PUSH1 0x0 DUP1 REVERT JUMPDEST POP PUSH2 0x1E5 PUSH2 0x435 CALLDATASIZE PUSH1 0x4 PUSH2 0x18AE JUMP JUMPDEST PUSH2 0xCE2 JUMP JUMPDEST CALLVALUE DUP1 ISZERO PUSH2 0x446 JUMPI PUSH1 0x0 DUP1 REVERT JUMPDEST POP PUSH32 0xB5F106453E92C83F8EF471E09A8097B99888030BEB671302E7C318E4D198C6E3 PUSH2 0x15A JUMP JUMPDEST CALLVALUE DUP1 ISZERO PUSH2 0x479 JUMPI PUSH1 0x0 DUP1 REVERT JUMPDEST POP PUSH1 0x0 SLOAD PUSH2 0x18D SWAP1 PUSH1 0x1 PUSH1 0x1 PUSH1 0xA0 SHL SUB AND DUP2 JUMP JUMPDEST CALLVALUE DUP1 ISZERO PUSH2 0x499 JUMPI PUSH1 0x0 DUP1 REVERT JUMPDEST POP PUSH1 0x4 SLOAD PUSH2 0x18D SWAP1 PUSH1 0x1 PUSH1 0x1 PUSH1 0xA0 SHL SUB AND DUP2 JUMP JUMPDEST PUSH1 0x0 DUP1 PUSH1 0x8 PUSH1 0x0 SWAP1 SLOAD SWAP1 PUSH2 0x100 EXP SWAP1 DIV PUSH1 0x1 PUSH1 0x1 PUSH1 0xA0 SHL SUB AND PUSH1 0x1 PUSH1 0x1 PUSH1 0xA0 SHL SUB AND PUSH4 0xAD5C4648 PUSH1 0x40 MLOAD DUP2 PUSH4 0xFFFFFFFF AND PUSH1 0xE0 SHL DUP2 MSTORE PUSH1 0x4 ADD PUSH1 0x20 PUSH1 0x40 MLOAD DUP1 DUP4 SUB DUP2 DUP7 GAS STATICCALL ISZERO DUP1 ISZERO PUSH2 0x503 JUMPI RETURNDATASIZE PUSH1 0x0 DUP1 RETURNDATACOPY RETURNDATASIZE PUSH1 0x0 REVERT JUMPDEST POP POP POP POP PUSH1 0x40 MLOAD RETURNDATASIZE PUSH1 0x1F NOT PUSH1 0x1F DUP3 ADD AND DUP3 ADD DUP1 PUSH1 0x40 MSTORE POP DUP2 ADD SWAP1 PUSH2 0x527 SWAP2 SWAP1 PUSH2 0x1989 JUMP JUMPDEST PUSH1 0x9 SLOAD PUSH1 0x7 SLOAD SWAP2 SWAP3 POP PUSH1 0x0 SWAP2 DUP3 SWAP2 PUSH2 0x54D SWAP2 PUSH1 0x1 PUSH1 0x1 PUSH1 0xA0 SHL SUB SWAP2 DUP3 AND SWAP2 DUP7 SWAP2 AND PUSH2 0xE6D JUMP JUMPDEST SWAP2 POP SWAP2 POP PUSH2 0x564 PUSH8 0xDE0B6B3A7640000 DUP4 DUP4 PUSH2 0xF37 JUMP JUMPDEST SWAP4 POP POP POP POP SWAP1 JUMP JUMPDEST PUSH1 0x0 SLOAD PUSH1 0x1 PUSH1 0x1 PUSH1 0xA0 SHL SUB AND CALLER EQ PUSH2 0x59F JUMPI PUSH1 0x40 MLOAD PUSH3 0x461BCD PUSH1 0xE5 SHL DUP2 MSTORE PUSH1 0x4 ADD PUSH2 0x596 SWAP1 PUSH2 0x19A6 JUMP JUMPDEST PUSH1 0x40 MLOAD DUP1 SWAP2 SUB SWAP1 REVERT JUMPDEST PUSH1 0x5 DUP1 SLOAD PUSH1 0x1 PUSH1 0x1 PUSH1 0xA0 SHL SUB NOT AND PUSH1 0x1 PUSH1 0x1 PUSH1 0xA0 SHL SUB SWAP3 SWAP1 SWAP3 AND SWAP2 SWAP1 SWAP2 OR SWAP1 SSTORE JUMP JUMPDEST TIMESTAMP DUP2 PUSH1 0x80 ADD CALLDATALOAD LT ISZERO PUSH2 0x61F JUMPI PUSH1 0x40 MLOAD PUSH3 0x461BCD PUSH1 0xE5 SHL DUP2 MSTORE PUSH1 0x20 PUSH1 0x4 DUP3 ADD MSTORE PUSH1 0x21 PUSH1 0x24 DUP3 ADD MSTORE PUSH32 0x506C65646167653A496E76616C6964207769746864726177206475726174696F PUSH1 0x44 DUP3 ADD MSTORE PUSH1 0x37 PUSH1 0xF9 SHL PUSH1 0x64 DUP3 ADD MSTORE PUSH1 0x84 ADD PUSH2 0x596 JUMP JUMPDEST PUSH2 0x628 DUP2 PUSH2 0xA41 JUMP JUMPDEST PUSH2 0x674 JUMPI PUSH1 0x40 MLOAD PUSH3 0x461BCD PUSH1 0xE5 SHL DUP2 MSTORE PUSH1 0x20 PUSH1 0x4 DUP3 ADD MSTORE PUSH1 0x1D PUSH1 0x24 DUP3 ADD MSTORE PUSH32 0x506C65646167653A496E76616C69642077697468647261772064617461000000 PUSH1 0x44 DUP3 ADD MSTORE PUSH1 0x64 ADD PUSH2 0x596 JUMP JUMPDEST PUSH1 0x0 PUSH2 0x686 PUSH1 0x40 DUP4 ADD PUSH1 0x20 DUP5 ADD PUSH2 0x18AE JUMP JUMPDEST PUSH1 0x1 PUSH1 0x1 PUSH1 0xA0 SHL SUB AND SUB PUSH2 0x6DC JUMPI PUSH1 0x40 MLOAD PUSH3 0x461BCD PUSH1 0xE5 SHL DUP2 MSTORE PUSH1 0x20 PUSH1 0x4 DUP3 ADD DUP2 SWAP1 MSTORE PUSH1 0x24 DUP3 ADD MSTORE PUSH32 0x506C65646167653A496E76616C69642077697468647261772061646472657373 PUSH1 0x44 DUP3 ADD MSTORE PUSH1 0x64 ADD PUSH2 0x596 JUMP JUMPDEST PUSH1 0x0 DUP2 PUSH1 0x40 ADD CALLDATALOAD GT PUSH2 0x730 JUMPI PUSH1 0x40 MLOAD PUSH3 0x461BCD PUSH1 0xE5 SHL DUP2 MSTORE PUSH1 0x20 PUSH1 0x4 DUP3 ADD MSTORE PUSH1 0x1F PUSH1 0x24 DUP3 ADD MSTORE PUSH32 0x506C65646167653A496E76616C696420776974686472617720616D6F756E7400 PUSH1 0x44 DUP3 ADD MSTORE PUSH1 0x64 ADD PUSH2 0x596 JUMP JUMPDEST PUSH1 0x60 DUP2 ADD CALLDATALOAD PUSH1 0x0 SWAP1 DUP2 MSTORE PUSH1 0x3 PUSH1 0x20 DUP2 DUP2 MSTORE PUSH1 0x40 DUP1 DUP5 KECCAK256 SWAP3 DUP4 ADD SLOAD DUP4 SLOAD DUP6 MSTORE PUSH1 0xB DUP4 MSTORE DUP2 DUP6 KECCAK256 PUSH1 0x1 DUP6 ADD SLOAD PUSH1 0x1 PUSH1 0x1 PUSH1 0xA0 SHL SUB AND DUP7 MSTORE SWAP1 SWAP3 MSTORE SWAP1 SWAP3 KECCAK256 SLOAD SWAP1 SWAP2 SWAP1 SUB PUSH2 0x7BC JUMPI PUSH1 0x40 MLOAD PUSH3 0x461BCD PUSH1 0xE5 SHL DUP2 MSTORE PUSH1 0x20 PUSH1 0x4 DUP3 ADD MSTORE PUSH1 0x1C PUSH1 0x24 DUP3 ADD MSTORE PUSH32 0x506C65646167653A5265706561746564207769746864726177616C7300000000 PUSH1 0x44 DUP3 ADD MSTORE PUSH1 0x64 ADD PUSH2 0x596 JUMP JUMPDEST DUP2 PUSH1 0x40 ADD CALLDATALOAD DUP2 PUSH1 0x3 ADD PUSH1 0x0 DUP3 DUP3 SLOAD PUSH2 0x7D4 SWAP2 SWAP1 PUSH2 0x19E9 JUMP JUMPDEST SWAP1 SWAP2 SSTORE POP PUSH2 0x7E7 SWAP1 POP PUSH1 0x20 DUP4 ADD DUP4 PUSH2 0x18AE JUMP JUMPDEST PUSH1 0x2 DUP3 ADD DUP1 SLOAD PUSH1 0x1 PUSH1 0x1 PUSH1 0xA0 SHL SUB NOT AND PUSH1 0x1 PUSH1 0x1 PUSH1 0xA0 SHL SUB SWAP3 SWAP1 SWAP3 AND SWAP2 SWAP1 SWAP2 OR SWAP1 SSTORE PUSH2 0x819 PUSH1 0x40 DUP4 ADD PUSH1 0x20 DUP5 ADD PUSH2 0x18AE JUMP JUMPDEST PUSH1 0x1 DUP3 ADD DUP1 SLOAD PUSH1 0x1 PUSH1 0x1 PUSH1 0xA0 SHL SUB NOT AND PUSH1 0x1 PUSH1 0x1 PUSH1 0xA0 SHL SUB SWAP3 DUP4 AND SWAP1 DUP2 OR SWAP1 SWAP2 SSTORE PUSH1 0x3 DUP4 ADD SLOAD DUP4 SLOAD PUSH1 0x0 SWAP1 DUP2 MSTORE PUSH1 0xB PUSH1 0x20 SWAP1 DUP2 MSTORE PUSH1 0x40 DUP1 DUP4 KECCAK256 SWAP5 DUP4 MSTORE SWAP4 SWAP1 MSTORE SWAP2 SWAP1 SWAP2 KECCAK256 SSTORE PUSH1 0x4 SLOAD PUSH1 0x2 DUP4 ADD SLOAD SWAP1 DUP3 AND SWAP2 AND SUB PUSH2 0x95A JUMPI PUSH1 0x4 SLOAD PUSH2 0x8AF SWAP1 PUSH1 0x1 PUSH1 0x1 PUSH1 0xA0 SHL SUB AND PUSH2 0x88F PUSH1 0x40 DUP6 ADD PUSH1 0x20 DUP7 ADD PUSH2 0x18AE JUMP JUMPDEST PUSH1 0x64 PUSH2 0x8A0 PUSH1 0x40 DUP8 ADD CALLDATALOAD PUSH1 0x63 PUSH2 0x19FC JUMP JUMPDEST PUSH2 0x8AA SWAP2 SWAP1 PUSH2 0x1A13 JUMP JUMPDEST PUSH2 0x1056 JUMP JUMPDEST PUSH1 0x4 SLOAD PUSH2 0x8E0 SWAP1 PUSH1 0x1 PUSH1 0x1 PUSH1 0xA0 SHL SUB AND PUSH2 0x8CF PUSH1 0x40 DUP6 ADD PUSH1 0x20 DUP7 ADD PUSH2 0x18AE JUMP JUMPDEST PUSH1 0x64 PUSH2 0x8A0 PUSH1 0x40 DUP8 ADD CALLDATALOAD PUSH1 0x1 PUSH2 0x19FC JUMP JUMPDEST PUSH32 0xFE7813E2866053D5C3938554E517B554FCE6666A6561BED9EAA7419B29FA9B68 PUSH1 0x60 DUP4 ADD CALLDATALOAD PUSH2 0x916 PUSH1 0x40 DUP6 ADD PUSH1 0x20 DUP7 ADD PUSH2 0x18AE JUMP JUMPDEST PUSH2 0x923 PUSH1 0x20 DUP7 ADD DUP7 PUSH2 0x18AE JUMP JUMPDEST PUSH1 0x40 DUP1 MLOAD SWAP4 DUP5 MSTORE PUSH1 0x1 PUSH1 0x1 PUSH1 0xA0 SHL SUB SWAP3 DUP4 AND PUSH1 0x20 DUP6 ADD MSTORE SWAP2 AND DUP3 DUP3 ADD MSTORE DUP5 ADD CALLDATALOAD PUSH1 0x60 DUP3 ADD MSTORE TIMESTAMP PUSH1 0x80 DUP3 ADD MSTORE PUSH1 0xA0 ADD PUSH1 0x40 MLOAD DUP1 SWAP2 SUB SWAP1 LOG1 JUMPDEST PUSH1 0x2 DUP2 ADD SLOAD PUSH1 0x1 PUSH1 0x1 PUSH1 0xA0 SHL SUB AND PUSH2 0x9F6 JUMPI PUSH2 0x989 PUSH2 0x97F PUSH1 0x40 DUP5 ADD PUSH1 0x20 DUP6 ADD PUSH2 0x18AE JUMP JUMPDEST DUP4 PUSH1 0x40 ADD CALLDATALOAD PUSH2 0x1171 JUMP JUMPDEST PUSH32 0xFE7813E2866053D5C3938554E517B554FCE6666A6561BED9EAA7419B29FA9B68 PUSH1 0x60 DUP4 ADD CALLDATALOAD PUSH2 0x9BF PUSH1 0x40 DUP6 ADD PUSH1 0x20 DUP7 ADD PUSH2 0x18AE JUMP JUMPDEST PUSH1 0x40 DUP1 MLOAD SWAP3 DUP4 MSTORE PUSH1 0x1 PUSH1 0x1 PUSH1 0xA0 SHL SUB SWAP1 SWAP2 AND PUSH1 0x20 DUP4 ADD MSTORE PUSH1 0x0 DUP3 DUP3 ADD MSTORE DUP5 ADD CALLDATALOAD PUSH1 0x60 DUP3 ADD MSTORE TIMESTAMP PUSH1 0x80 DUP3 ADD MSTORE PUSH1 0xA0 ADD PUSH1 0x40 MLOAD DUP1 SWAP2 SUB SWAP1 LOG1 JUMPDEST POP POP JUMP JUMPDEST PUSH1 0x9 SLOAD PUSH1 0x4 SLOAD PUSH1 0x7 SLOAD PUSH1 0x0 SWAP3 DUP4 SWAP3 DUP4 SWAP3 PUSH2 0xA23 SWAP3 PUSH1 0x1 PUSH1 0x1 PUSH1 0xA0 SHL SUB SWAP1 DUP2 AND SWAP3 DUP2 AND SWAP2 AND PUSH2 0xE6D JUMP JUMPDEST SWAP2 POP SWAP2 POP PUSH2 0xA3A PUSH8 0xDE0B6B3A7640000 DUP4 DUP4 PUSH2 0xF37 JUMP JUMPDEST SWAP3 POP POP POP SWAP1 JUMP JUMPDEST PUSH1 0x0 PUSH2 0xA7D PUSH2 0xA4F DUP4 PUSH2 0x123F JUMP JUMPDEST PUSH1 0x5 SLOAD PUSH1 0x1 PUSH1 0x1 PUSH1 0xA0 SHL SUB AND PUSH2 0xA6B PUSH1 0xC0 DUP7 ADD PUSH1 0xA0 DUP8 ADD PUSH2 0x1A35 JUMP JUMPDEST DUP6 PUSH1 0xC0 ADD CALLDATALOAD DUP7 PUSH1 0xE0 ADD CALLDATALOAD PUSH1 0xA SLOAD PUSH2 0x12E3 JUMP JUMPDEST SWAP3 SWAP2 POP POP JUMP JUMPDEST PUSH1 0x0 SLOAD PUSH1 0x1 PUSH1 0x1 PUSH1 0xA0 SHL SUB AND CALLER EQ PUSH2 0xAAD JUMPI PUSH1 0x40 MLOAD PUSH3 0x461BCD PUSH1 0xE5 SHL DUP2 MSTORE PUSH1 0x4 ADD PUSH2 0x596 SWAP1 PUSH2 0x19A6 JUMP JUMPDEST PUSH1 0x0 DUP1 SLOAD PUSH1 0x1 PUSH1 0x1 PUSH1 0xA0 SHL SUB NOT AND PUSH1 0x1 PUSH1 0x1 PUSH1 0xA0 SHL SUB SWAP3 SWAP1 SWAP3 AND SWAP2 SWAP1 SWAP2 OR SWAP1 SSTORE JUMP JUMPDEST PUSH1 0x0 SLOAD PUSH1 0x1 PUSH1 0x1 PUSH1 0xA0 SHL SUB AND CALLER EQ PUSH2 0xAF9 JUMPI PUSH1 0x40 MLOAD PUSH3 0x461BCD PUSH1 0xE5 SHL DUP2 MSTORE PUSH1 0x4 ADD PUSH2 0x596 SWAP1 PUSH2 0x19A6 JUMP JUMPDEST PUSH1 0x4 SLOAD PUSH2 0x9F6 SWAP1 PUSH1 0x1 PUSH1 0x1 PUSH1 0xA0 SHL SUB AND DUP4 DUP4 PUSH2 0x1056 JUMP JUMPDEST PUSH1 0x0 SLOAD PUSH1 0x1 PUSH1 0x1 PUSH1 0xA0 SHL SUB AND CALLER EQ PUSH2 0xB3A JUMPI PUSH1 0x40 MLOAD PUSH3 0x461BCD PUSH1 0xE5 SHL DUP2 MSTORE PUSH1 0x4 ADD PUSH2 0x596 SWAP1 PUSH2 0x19A6 JUMP JUMPDEST PUSH2 0x9F6 DUP3 DUP3 PUSH2 0x1171 JUMP JUMPDEST PUSH9 0x56BC75E2D63100000 DUP3 LT ISZERO PUSH2 0xB9D JUMPI PUSH1 0x40 MLOAD PUSH3 0x461BCD PUSH1 0xE5 SHL DUP2 MSTORE PUSH1 0x20 PUSH1 0x4 DUP3 ADD MSTORE PUSH1 0x1E PUSH1 0x24 DUP3 ADD MSTORE PUSH32 0x506C65646167653A496E76616C69642070726F7669646520616D6F756E740000 PUSH1 0x44 DUP3 ADD MSTORE PUSH1 0x64 ADD PUSH2 0x596 JUMP JUMPDEST PUSH1 0x0 DUP2 PUSH1 0x4 DUP2 GT ISZERO PUSH2 0xBB1 JUMPI PUSH2 0xBB1 PUSH2 0x1A58 JUMP JUMPDEST SUB PUSH2 0xC09 JUMPI PUSH1 0x40 MLOAD PUSH3 0x461BCD PUSH1 0xE5 SHL DUP2 MSTORE PUSH1 0x20 PUSH1 0x4 DUP3 ADD MSTORE PUSH1 0x22 PUSH1 0x24 DUP3 ADD MSTORE PUSH32 0x506C65646167653A496E76616C69642070726F76696465206578706972617469 PUSH1 0x44 DUP3 ADD MSTORE PUSH2 0x37B7 PUSH1 0xF1 SHL PUSH1 0x64 DUP3 ADD MSTORE PUSH1 0x84 ADD PUSH2 0x596 JUMP JUMPDEST PUSH1 0x4 SLOAD PUSH2 0xC21 SWAP1 PUSH1 0x1 PUSH1 0x1 PUSH1 0xA0 SHL SUB AND CALLER ADDRESS DUP6 PUSH2 0x134B JUMP JUMPDEST CALLER PUSH1 0x0 SWAP1 DUP2 MSTORE PUSH1 0x2 PUSH1 0x20 DUP2 DUP2 MSTORE PUSH1 0x40 DUP4 KECCAK256 DUP1 SLOAD PUSH1 0x1 DUP1 DUP3 ADD DUP4 SSTORE DUP3 DUP7 MSTORE DUP4 DUP7 KECCAK256 SWAP1 SWAP2 ADD DUP8 SWAP1 SSTORE SWAP3 DUP2 ADD DUP1 SLOAD SWAP4 DUP5 ADD DUP2 SSTORE DUP5 MSTORE SWAP3 DUP2 SWAP1 KECCAK256 SWAP1 DUP3 DIV ADD DUP1 SLOAD DUP5 SWAP3 PUSH1 0x1F AND PUSH2 0x100 EXP PUSH1 0xFF DUP2 MUL NOT SWAP1 SWAP2 AND SWAP1 DUP4 PUSH1 0x4 DUP2 GT ISZERO PUSH2 0xC81 JUMPI PUSH2 0xC81 PUSH2 0x1A58 JUMP JUMPDEST MUL OR SWAP1 SSTORE POP PUSH1 0x1 DUP1 DUP3 ADD DUP1 SLOAD SWAP2 DUP3 ADD DUP2 SSTORE PUSH1 0x0 SWAP1 DUP2 MSTORE PUSH1 0x20 SWAP1 KECCAK256 TIMESTAMP SWAP2 ADD DUP2 SWAP1 SSTORE PUSH1 0x40 MLOAD PUSH32 0x1AB2D7016A285CF7CA78BDD1C8A8E845F082FE124067D9137646150CED640816 SWAP2 PUSH2 0xCD5 SWAP2 CALLER SWAP2 DUP8 SWAP2 DUP8 SWAP1 PUSH2 0x1A6E JUMP JUMPDEST PUSH1 0x40 MLOAD DUP1 SWAP2 SUB SWAP1 LOG1 POP POP POP JUMP JUMPDEST PUSH1 0x0 SLOAD PUSH1 0x1 PUSH1 0x1 PUSH1 0xA0 SHL SUB AND CALLER EQ PUSH2 0xD0C JUMPI PUSH1 0x40 MLOAD PUSH3 0x461BCD PUSH1 0xE5 SHL DUP2 MSTORE PUSH1 0x4 ADD PUSH2 0x596 SWAP1 PUSH2 0x19A6 JUMP JUMPDEST PUSH1 0x8 DUP1 SLOAD PUSH1 0x1 PUSH1 0x1 PUSH1 0xA0 SHL SUB NOT SWAP1 DUP2 AND PUSH20 0x10ED43C718714EB63D5AA57B78B54704E256024E OR SWAP1 SWAP2 SSTORE PUSH1 0x9 DUP1 SLOAD DUP3 AND PUSH20 0xCA143CE32FE78F1F7019D7D551A6402FC5350C73 OR SWAP1 SSTORE PUSH1 0x7 DUP1 SLOAD DUP3 AND PUSH20 0x55D398326F99059FF775485246999027B3197955 OR SWAP1 SSTORE PUSH1 0x6 DUP1 SLOAD DUP3 AND PUSH2 0xDEAD OR SWAP1 SSTORE PUSH1 0x4 DUP1 SLOAD DUP3 AND PUSH20 0x33E0B24AAEA62500CA79D33E26EFE576BBF5BACF OR SWAP1 SSTORE PUSH1 0x5 DUP1 SLOAD PUSH1 0x1 PUSH1 0x1 PUSH1 0xA0 SHL SUB DUP5 AND SWAP3 AND SWAP2 SWAP1 SWAP2 OR SWAP1 SSTORE PUSH2 0xE6A PUSH1 0x40 DUP1 MLOAD DUP1 DUP3 ADD DUP3 MSTORE PUSH1 0x1 DUP2 MSTORE PUSH1 0x31 PUSH1 0xF8 SHL PUSH1 0x20 SWAP2 DUP3 ADD MSTORE DUP2 MLOAD PUSH32 0x8B73C3C69BB8FE3D512ECC4CF759CC79239F7B179B0FFACAA9A75D522B39400F DUP2 DUP4 ADD MSTORE PUSH32 0xED9E26FC34B201817108D14DB5E93FFF6700CFF6F5E90AC3B3DA395ABA756B5C DUP2 DUP5 ADD MSTORE PUSH32 0xC89EFDAA54C0F20C7ADF612882DF0950F5A951637E0307CDCB4C672F298B8BC6 PUSH1 0x60 DUP3 ADD MSTORE CHAINID PUSH1 0x80 DUP3 ADD MSTORE ADDRESS PUSH1 0xA0 DUP1 DUP4 ADD SWAP2 SWAP1 SWAP2 MSTORE DUP4 MLOAD DUP1 DUP4 SUB SWAP1 SWAP2 ADD DUP2 MSTORE PUSH1 0xC0 SWAP1 SWAP2 ADD SWAP1 SWAP3 MSTORE DUP2 MLOAD SWAP2 ADD KECCAK256 PUSH1 0xA SSTORE JUMP JUMPDEST POP JUMP JUMPDEST PUSH1 0x0 DUP1 PUSH1 0x0 PUSH2 0xE7C DUP6 DUP6 PUSH2 0x147B JUMP JUMPDEST POP SWAP1 POP PUSH1 0x0 DUP1 PUSH2 0xE8D DUP9 DUP9 DUP9 PUSH2 0x1572 JUMP JUMPDEST PUSH1 0x1 PUSH1 0x1 PUSH1 0xA0 SHL SUB AND PUSH4 0x902F1AC PUSH1 0x40 MLOAD DUP2 PUSH4 0xFFFFFFFF AND PUSH1 0xE0 SHL DUP2 MSTORE PUSH1 0x4 ADD PUSH1 0x60 PUSH1 0x40 MLOAD DUP1 DUP4 SUB DUP2 DUP7 GAS STATICCALL ISZERO DUP1 ISZERO PUSH2 0xECA JUMPI RETURNDATASIZE PUSH1 0x0 DUP1 RETURNDATACOPY RETURNDATASIZE PUSH1 0x0 REVERT JUMPDEST POP POP POP POP PUSH1 0x40 MLOAD RETURNDATASIZE PUSH1 0x1F NOT PUSH1 0x1F DUP3 ADD AND DUP3 ADD DUP1 PUSH1 0x40 MSTORE POP DUP2 ADD SWAP1 PUSH2 0xEEE SWAP2 SWAP1 PUSH2 0x1AD5 JUMP JUMPDEST POP PUSH1 0x1 PUSH1 0x1 PUSH1 0x70 SHL SUB AND SWAP2 POP PUSH1 0x1 PUSH1 0x1 PUSH1 0x70 SHL SUB AND SWAP2 POP DUP3 PUSH1 0x1 PUSH1 0x1 PUSH1 0xA0 SHL SUB AND DUP8 PUSH1 0x1 PUSH1 0x1 PUSH1 0xA0 SHL SUB AND EQ PUSH2 0xF25 JUMPI DUP1 DUP3 PUSH2 0xF28 JUMP JUMPDEST DUP2 DUP2 JUMPDEST SWAP1 SWAP10 SWAP1 SWAP9 POP SWAP7 POP POP POP POP POP POP POP JUMP JUMPDEST PUSH1 0x0 DUP1 DUP5 GT PUSH2 0xF9C JUMPI PUSH1 0x40 MLOAD PUSH3 0x461BCD PUSH1 0xE5 SHL DUP2 MSTORE PUSH1 0x20 PUSH1 0x4 DUP3 ADD MSTORE PUSH1 0x2B PUSH1 0x24 DUP3 ADD MSTORE PUSH32 0x556E697377617056324C6962726172793A20494E53554646494349454E545F49 PUSH1 0x44 DUP3 ADD MSTORE PUSH11 0x1394155517D05353D55395 PUSH1 0xAA SHL PUSH1 0x64 DUP3 ADD MSTORE PUSH1 0x84 ADD PUSH2 0x596 JUMP JUMPDEST PUSH1 0x0 DUP4 GT DUP1 ISZERO PUSH2 0xFAC JUMPI POP PUSH1 0x0 DUP3 GT JUMPDEST PUSH2 0x1009 JUMPI PUSH1 0x40 MLOAD PUSH3 0x461BCD PUSH1 0xE5 SHL DUP2 MSTORE PUSH1 0x20 PUSH1 0x4 DUP3 ADD MSTORE PUSH1 0x28 PUSH1 0x24 DUP3 ADD MSTORE PUSH32 0x556E697377617056324C6962726172793A20494E53554646494349454E545F4C PUSH1 0x44 DUP3 ADD MSTORE PUSH8 0x4951554944495459 PUSH1 0xC0 SHL PUSH1 0x64 DUP3 ADD MSTORE PUSH1 0x84 ADD PUSH2 0x596 JUMP JUMPDEST PUSH1 0x0 PUSH2 0x1017 DUP6 PUSH2 0x3E5 PUSH2 0x164A JUMP JUMPDEST SWAP1 POP PUSH1 0x0 PUSH2 0x1025 DUP3 DUP6 PUSH2 0x164A JUMP JUMPDEST SWAP1 POP PUSH1 0x0 PUSH2 0x103F DUP4 PUSH2 0x1039 DUP9 PUSH2 0x3E8 PUSH2 0x164A JUMP JUMPDEST SWAP1 PUSH2 0x16B1 JUMP JUMPDEST SWAP1 POP PUSH2 0x104B DUP2 DUP4 PUSH2 0x1A13 JUMP JUMPDEST SWAP8 SWAP7 POP POP POP POP POP POP POP JUMP JUMPDEST PUSH1 0x40 DUP1 MLOAD PUSH1 0x1 PUSH1 0x1 PUSH1 0xA0 SHL SUB DUP5 DUP2 AND PUSH1 0x24 DUP4 ADD MSTORE PUSH1 0x44 DUP1 DUP4 ADD DUP6 SWAP1 MSTORE DUP4 MLOAD DUP1 DUP5 SUB SWAP1 SWAP2 ADD DUP2 MSTORE PUSH1 0x64 SWAP1 SWAP3 ADD DUP4 MSTORE PUSH1 0x20 DUP3 ADD DUP1 MLOAD PUSH1 0x1 PUSH1 0x1 PUSH1 0xE0 SHL SUB AND PUSH4 0xA9059CBB PUSH1 0xE0 SHL OR SWAP1 MSTORE SWAP2 MLOAD PUSH1 0x0 SWAP3 DUP4 SWAP3 SWAP1 DUP8 AND SWAP2 PUSH2 0x10B2 SWAP2 SWAP1 PUSH2 0x1B25 JUMP JUMPDEST PUSH1 0x0 PUSH1 0x40 MLOAD DUP1 DUP4 SUB DUP2 PUSH1 0x0 DUP7 GAS CALL SWAP2 POP POP RETURNDATASIZE DUP1 PUSH1 0x0 DUP2 EQ PUSH2 0x10EF JUMPI PUSH1 0x40 MLOAD SWAP2 POP PUSH1 0x1F NOT PUSH1 0x3F RETURNDATASIZE ADD AND DUP3 ADD PUSH1 0x40 MSTORE RETURNDATASIZE DUP3 MSTORE RETURNDATASIZE PUSH1 0x0 PUSH1 0x20 DUP5 ADD RETURNDATACOPY PUSH2 0x10F4 JUMP JUMPDEST PUSH1 0x60 SWAP2 POP JUMPDEST POP SWAP2 POP SWAP2 POP DUP2 DUP1 ISZERO PUSH2 0x111E JUMPI POP DUP1 MLOAD ISZERO DUP1 PUSH2 0x111E JUMPI POP DUP1 DUP1 PUSH1 0x20 ADD SWAP1 MLOAD DUP2 ADD SWAP1 PUSH2 0x111E SWAP2 SWAP1 PUSH2 0x1B54 JUMP JUMPDEST PUSH2 0x116A JUMPI PUSH1 0x40 MLOAD PUSH3 0x461BCD PUSH1 0xE5 SHL DUP2 MSTORE PUSH1 0x20 PUSH1 0x4 DUP3 ADD MSTORE PUSH1 0x1F PUSH1 0x24 DUP3 ADD MSTORE PUSH32 0x5472616E7366657248656C7065723A205452414E534645525F4641494C454400 PUSH1 0x44 DUP3 ADD MSTORE PUSH1 0x64 ADD PUSH2 0x596 JUMP JUMPDEST POP POP POP POP POP JUMP JUMPDEST PUSH1 0x40 DUP1 MLOAD PUSH1 0x0 DUP1 DUP3 MSTORE PUSH1 0x20 DUP3 ADD SWAP1 SWAP3 MSTORE PUSH1 0x1 PUSH1 0x1 PUSH1 0xA0 SHL SUB DUP5 AND SWAP1 DUP4 SWAP1 PUSH1 0x40 MLOAD PUSH2 0x119B SWAP2 SWAP1 PUSH2 0x1B25 JUMP JUMPDEST PUSH1 0x0 PUSH1 0x40 MLOAD DUP1 DUP4 SUB DUP2 DUP6 DUP8 GAS CALL SWAP3 POP POP POP RETURNDATASIZE DUP1 PUSH1 0x0 DUP2 EQ PUSH2 0x11D8 JUMPI PUSH1 0x40 MLOAD SWAP2 POP PUSH1 0x1F NOT PUSH1 0x3F RETURNDATASIZE ADD AND DUP3 ADD PUSH1 0x40 MSTORE RETURNDATASIZE DUP3 MSTORE RETURNDATASIZE PUSH1 0x0 PUSH1 0x20 DUP5 ADD RETURNDATACOPY PUSH2 0x11DD JUMP JUMPDEST PUSH1 0x60 SWAP2 POP JUMPDEST POP POP SWAP1 POP DUP1 PUSH2 0x123A JUMPI PUSH1 0x40 MLOAD PUSH3 0x461BCD PUSH1 0xE5 SHL DUP2 MSTORE PUSH1 0x20 PUSH1 0x4 DUP3 ADD MSTORE PUSH1 0x23 PUSH1 0x24 DUP3 ADD MSTORE PUSH32 0x5472616E7366657248656C7065723A204554485F5452414E534645525F464149 PUSH1 0x44 DUP3 ADD MSTORE PUSH3 0x131151 PUSH1 0xEA SHL PUSH1 0x64 DUP3 ADD MSTORE PUSH1 0x84 ADD PUSH2 0x596 JUMP JUMPDEST POP POP POP JUMP JUMPDEST PUSH1 0x0 PUSH32 0xB5F106453E92C83F8EF471E09A8097B99888030BEB671302E7C318E4D198C6E3 PUSH2 0x126F PUSH1 0x20 DUP5 ADD DUP5 PUSH2 0x18AE JUMP JUMPDEST PUSH2 0x127F PUSH1 0x40 DUP6 ADD PUSH1 0x20 DUP7 ADD PUSH2 0x18AE JUMP JUMPDEST PUSH1 0x40 DUP1 MLOAD PUSH1 0x20 DUP2 ADD SWAP5 SWAP1 SWAP5 MSTORE PUSH1 0x1 PUSH1 0x1 PUSH1 0xA0 SHL SUB SWAP3 DUP4 AND DUP5 DUP3 ADD MSTORE SWAP2 AND PUSH1 0x60 DUP4 DUP2 ADD SWAP2 SWAP1 SWAP2 MSTORE SWAP1 DUP5 ADD CALLDATALOAD PUSH1 0x80 DUP4 DUP2 ADD SWAP2 SWAP1 SWAP2 MSTORE SWAP1 DUP5 ADD CALLDATALOAD PUSH1 0xA0 DUP4 ADD MSTORE DUP4 ADD CALLDATALOAD PUSH1 0xC0 DUP3 ADD MSTORE PUSH1 0xE0 ADD PUSH1 0x40 MLOAD PUSH1 0x20 DUP2 DUP4 SUB SUB DUP2 MSTORE SWAP1 PUSH1 0x40 MSTORE DUP1 MLOAD SWAP1 PUSH1 0x20 ADD KECCAK256 SWAP1 POP SWAP2 SWAP1 POP JUMP JUMPDEST PUSH1 0x40 MLOAD PUSH2 0x1901 PUSH1 0xF0 SHL PUSH1 0x20 DUP3 ADD MSTORE PUSH1 0x22 DUP2 ADD DUP3 SWAP1 MSTORE PUSH1 0x42 DUP2 ADD DUP8 SWAP1 MSTORE PUSH1 0x0 SWAP1 DUP2 SWAP1 PUSH1 0x62 ADD PUSH1 0x40 MLOAD PUSH1 0x20 DUP2 DUP4 SUB SUB DUP2 MSTORE SWAP1 PUSH1 0x40 MSTORE DUP1 MLOAD SWAP1 PUSH1 0x20 ADD KECCAK256 SWAP1 POP DUP7 PUSH1 0x1 PUSH1 0x1 PUSH1 0xA0 SHL SUB AND PUSH2 0x1335 DUP3 DUP9 DUP9 DUP9 PUSH2 0x1706 JUMP JUMPDEST PUSH1 0x1 PUSH1 0x1 PUSH1 0xA0 SHL SUB AND EQ SWAP9 SWAP8 POP POP POP POP POP POP POP POP JUMP JUMPDEST PUSH1 0x40 DUP1 MLOAD PUSH1 0x1 PUSH1 0x1 PUSH1 0xA0 SHL SUB DUP6 DUP2 AND PUSH1 0x24 DUP4 ADD MSTORE DUP5 DUP2 AND PUSH1 0x44 DUP4 ADD MSTORE PUSH1 0x64 DUP1 DUP4 ADD DUP6 SWAP1 MSTORE DUP4 MLOAD DUP1 DUP5 SUB SWAP1 SWAP2 ADD DUP2 MSTORE PUSH1 0x84 SWAP1 SWAP3 ADD DUP4 MSTORE PUSH1 0x20 DUP3 ADD DUP1 MLOAD PUSH1 0x1 PUSH1 0x1 PUSH1 0xE0 SHL SUB AND PUSH4 0x23B872DD PUSH1 0xE0 SHL OR SWAP1 MSTORE SWAP2 MLOAD PUSH1 0x0 SWAP3 DUP4 SWAP3 SWAP1 DUP9 AND SWAP2 PUSH2 0x13AF SWAP2 SWAP1 PUSH2 0x1B25 JUMP JUMPDEST PUSH1 0x0 PUSH1 0x40 MLOAD DUP1 DUP4 SUB DUP2 PUSH1 0x0 DUP7 GAS CALL SWAP2 POP POP RETURNDATASIZE DUP1 PUSH1 0x0 DUP2 EQ PUSH2 0x13EC JUMPI PUSH1 0x40 MLOAD SWAP2 POP PUSH1 0x1F NOT PUSH1 0x3F RETURNDATASIZE ADD AND DUP3 ADD PUSH1 0x40 MSTORE RETURNDATASIZE DUP3 MSTORE RETURNDATASIZE PUSH1 0x0 PUSH1 0x20 DUP5 ADD RETURNDATACOPY PUSH2 0x13F1 JUMP JUMPDEST PUSH1 0x60 SWAP2 POP JUMPDEST POP SWAP2 POP SWAP2 POP DUP2 DUP1 ISZERO PUSH2 0x141B JUMPI POP DUP1 MLOAD ISZERO DUP1 PUSH2 0x141B JUMPI POP DUP1 DUP1 PUSH1 0x20 ADD SWAP1 MLOAD DUP2 ADD SWAP1 PUSH2 0x141B SWAP2 SWAP1 PUSH2 0x1B54 JUMP JUMPDEST PUSH2 0x1473 JUMPI PUSH1 0x40 MLOAD PUSH3 0x461BCD PUSH1 0xE5 SHL DUP2 MSTORE PUSH1 0x20 PUSH1 0x4 DUP3 ADD MSTORE PUSH1 0x24 DUP1 DUP3 ADD MSTORE PUSH32 0x5472616E7366657248656C7065723A205452414E534645525F46524F4D5F4641 PUSH1 0x44 DUP3 ADD MSTORE PUSH4 0x12531151 PUSH1 0xE2 SHL PUSH1 0x64 DUP3 ADD MSTORE PUSH1 0x84 ADD PUSH2 0x596 JUMP JUMPDEST POP POP POP POP POP POP JUMP JUMPDEST PUSH1 0x0 DUP1 DUP3 PUSH1 0x1 PUSH1 0x1 PUSH1 0xA0 SHL SUB AND DUP5 PUSH1 0x1 PUSH1 0x1 PUSH1 0xA0 SHL SUB AND SUB PUSH2 0x14ED JUMPI PUSH1 0x40 MLOAD PUSH3 0x461BCD PUSH1 0xE5 SHL DUP2 MSTORE PUSH1 0x20 PUSH1 0x4 DUP3 ADD MSTORE PUSH1 0x25 PUSH1 0x24 DUP3 ADD MSTORE PUSH32 0x556E697377617056324C6962726172793A204944454E544943414C5F41444452 PUSH1 0x44 DUP3 ADD MSTORE PUSH5 0x4553534553 PUSH1 0xD8 SHL PUSH1 0x64 DUP3 ADD MSTORE PUSH1 0x84 ADD PUSH2 0x596 JUMP JUMPDEST DUP3 PUSH1 0x1 PUSH1 0x1 PUSH1 0xA0 SHL SUB AND DUP5 PUSH1 0x1 PUSH1 0x1 PUSH1 0xA0 SHL SUB AND LT PUSH2 0x150D JUMPI DUP3 DUP5 PUSH2 0x1510 JUMP JUMPDEST DUP4 DUP4 JUMPDEST SWAP1 SWAP3 POP SWAP1 POP PUSH1 0x1 PUSH1 0x1 PUSH1 0xA0 SHL SUB DUP3 AND PUSH2 0x156B JUMPI PUSH1 0x40 MLOAD PUSH3 0x461BCD PUSH1 0xE5 SHL DUP2 MSTORE PUSH1 0x20 PUSH1 0x4 DUP3 ADD MSTORE PUSH1 0x1E PUSH1 0x24 DUP3 ADD MSTORE PUSH32 0x556E697377617056324C6962726172793A205A45524F5F414444524553530000 PUSH1 0x44 DUP3 ADD MSTORE PUSH1 0x64 ADD PUSH2 0x596 JUMP JUMPDEST SWAP3 POP SWAP3 SWAP1 POP JUMP JUMPDEST PUSH1 0x0 DUP1 PUSH1 0x0 PUSH2 0x1581 DUP6 DUP6 PUSH2 0x147B JUMP JUMPDEST PUSH1 0x40 MLOAD PUSH12 0xFFFFFFFFFFFFFFFFFFFFFFFF NOT PUSH1 0x60 DUP5 DUP2 SHL DUP3 AND PUSH1 0x20 DUP5 ADD MSTORE DUP4 SWAP1 SHL AND PUSH1 0x34 DUP3 ADD MSTORE SWAP2 SWAP4 POP SWAP2 POP DUP7 SWAP1 PUSH1 0x48 ADD PUSH1 0x40 MLOAD PUSH1 0x20 DUP2 DUP4 SUB SUB DUP2 MSTORE SWAP1 PUSH1 0x40 MSTORE DUP1 MLOAD SWAP1 PUSH1 0x20 ADD KECCAK256 PUSH1 0x40 MLOAD PUSH1 0x20 ADD PUSH2 0x1628 SWAP3 SWAP2 SWAP1 PUSH1 0x1 PUSH1 0x1 PUSH1 0xF8 SHL SUB NOT DUP2 MSTORE PUSH1 0x60 SWAP3 SWAP1 SWAP3 SHL PUSH12 0xFFFFFFFFFFFFFFFFFFFFFFFF NOT AND PUSH1 0x1 DUP4 ADD MSTORE PUSH1 0x15 DUP3 ADD MSTORE PUSH31 0xFB7F630766E6A796048EA87D01ACD3068E8FF67D078148A3FA3F4A84F69BD5 PUSH1 0x35 DUP3 ADD MSTORE PUSH1 0x55 ADD SWAP1 JUMP JUMPDEST PUSH1 0x40 DUP1 MLOAD PUSH1 0x1F NOT DUP2 DUP5 SUB ADD DUP2 MSTORE SWAP2 SWAP1 MSTORE DUP1 MLOAD PUSH1 0x20 SWAP1 SWAP2 ADD KECCAK256 SWAP7 SWAP6 POP POP POP POP POP POP JUMP JUMPDEST PUSH1 0x0 DUP2 ISZERO DUP1 PUSH2 0x166E JUMPI POP DUP3 DUP3 PUSH2 0x1660 DUP2 DUP4 PUSH2 0x19FC JUMP JUMPDEST SWAP3 POP PUSH2 0x166C SWAP1 DUP4 PUSH2 0x1A13 JUMP JUMPDEST EQ JUMPDEST PUSH2 0xA7D JUMPI PUSH1 0x40 MLOAD PUSH3 0x461BCD PUSH1 0xE5 SHL DUP2 MSTORE PUSH1 0x20 PUSH1 0x4 DUP3 ADD MSTORE PUSH1 0x14 PUSH1 0x24 DUP3 ADD MSTORE PUSH20 0x64732D6D6174682D6D756C2D6F766572666C6F77 PUSH1 0x60 SHL PUSH1 0x44 DUP3 ADD MSTORE PUSH1 0x64 ADD PUSH2 0x596 JUMP JUMPDEST PUSH1 0x0 DUP3 PUSH2 0x16BE DUP4 DUP3 PUSH2 0x19E9 JUMP JUMPDEST SWAP2 POP DUP2 LT ISZERO PUSH2 0xA7D JUMPI PUSH1 0x40 MLOAD PUSH3 0x461BCD PUSH1 0xE5 SHL DUP2 MSTORE PUSH1 0x20 PUSH1 0x4 DUP3 ADD MSTORE PUSH1 0x14 PUSH1 0x24 DUP3 ADD MSTORE PUSH20 0x64732D6D6174682D6164642D6F766572666C6F77 PUSH1 0x60 SHL PUSH1 0x44 DUP3 ADD MSTORE PUSH1 0x64 ADD PUSH2 0x596 JUMP JUMPDEST PUSH1 0x0 PUSH32 0x7FFFFFFFFFFFFFFFFFFFFFFFFFFFFFFF5D576E7357A4501DDFE92F46681B20A0 DUP3 GT ISZERO PUSH2 0x1778 JUMPI PUSH1 0x40 MLOAD PUSH3 0x461BCD PUSH1 0xE5 SHL DUP2 MSTORE PUSH1 0x20 PUSH1 0x4 DUP3 ADD MSTORE PUSH1 0x1E PUSH1 0x24 DUP3 ADD MSTORE PUSH32 0x5369676E61747572653A20496E76616C6964207320706172616D657465720000 PUSH1 0x44 DUP3 ADD MSTORE PUSH1 0x64 ADD PUSH2 0x596 JUMP JUMPDEST DUP4 PUSH1 0xFF AND PUSH1 0x1B EQ DUP1 PUSH2 0x178D JUMPI POP DUP4 PUSH1 0xFF AND PUSH1 0x1C EQ JUMPDEST PUSH2 0x17D9 JUMPI PUSH1 0x40 MLOAD PUSH3 0x461BCD PUSH1 0xE5 SHL DUP2 MSTORE PUSH1 0x20 PUSH1 0x4 DUP3 ADD MSTORE PUSH1 0x1E PUSH1 0x24 DUP3 ADD MSTORE PUSH32 0x5369676E61747572653A20496E76616C6964207620706172616D657465720000 PUSH1 0x44 DUP3 ADD MSTORE PUSH1 0x64 ADD PUSH2 0x596 JUMP JUMPDEST PUSH1 0x40 DUP1 MLOAD PUSH1 0x0 DUP1 DUP3 MSTORE PUSH1 0x20 DUP3 ADD DUP1 DUP5 MSTORE DUP9 SWAP1 MSTORE PUSH1 0xFF DUP8 AND SWAP3 DUP3 ADD SWAP3 SWAP1 SWAP3 MSTORE PUSH1 0x60 DUP2 ADD DUP6 SWAP1 MSTORE PUSH1 0x80 DUP2 ADD DUP5 SWAP1 MSTORE PUSH1 0x1 SWAP1 PUSH1 0xA0 ADD PUSH1 0x20 PUSH1 0x40 MLOAD PUSH1 0x20 DUP2 SUB SWAP1 DUP1 DUP5 SUB SWAP1 DUP6 GAS STATICCALL ISZERO DUP1 ISZERO PUSH2 0x182D JUMPI RETURNDATASIZE PUSH1 0x0 DUP1 RETURNDATACOPY RETURNDATASIZE PUSH1 0x0 REVERT JUMPDEST POP POP PUSH1 0x40 MLOAD PUSH1 0x1F NOT ADD MLOAD SWAP2 POP POP PUSH1 0x1 PUSH1 0x1 PUSH1 0xA0 SHL SUB DUP2 AND PUSH2 0x1890 JUMPI PUSH1 0x40 MLOAD PUSH3 0x461BCD PUSH1 0xE5 SHL DUP2 MSTORE PUSH1 0x20 PUSH1 0x4 DUP3 ADD MSTORE PUSH1 0x19 PUSH1 0x24 DUP3 ADD MSTORE PUSH32 0x5369676E61747572653A20496E76616C6964207369676E657200000000000000 PUSH1 0x44 DUP3 ADD MSTORE PUSH1 0x64 ADD PUSH2 0x596 JUMP JUMPDEST SWAP6 SWAP5 POP POP POP POP POP JUMP JUMPDEST PUSH1 0x1 PUSH1 0x1 PUSH1 0xA0 SHL SUB DUP2 AND DUP2 EQ PUSH2 0xE6A JUMPI PUSH1 0x0 DUP1 REVERT JUMPDEST PUSH1 0x0 PUSH1 0x20 DUP3 DUP5 SUB SLT ISZERO PUSH2 0x18C0 JUMPI PUSH1 0x0 DUP1 REVERT JUMPDEST DUP2 CALLDATALOAD PUSH2 0x18CB DUP2 PUSH2 0x1899 JUMP JUMPDEST SWAP4 SWAP3 POP POP POP JUMP JUMPDEST PUSH1 0x0 PUSH2 0x100 DUP3 DUP5 SUB SLT ISZERO PUSH2 0x18E5 JUMPI PUSH1 0x0 DUP1 REVERT JUMPDEST POP SWAP2 SWAP1 POP JUMP JUMPDEST PUSH1 0x0 DUP1 PUSH1 0x40 DUP4 DUP6 SUB SLT ISZERO PUSH2 0x18FE JUMPI PUSH1 0x0 DUP1 REVERT JUMPDEST DUP3 CALLDATALOAD SWAP2 POP PUSH1 0x20 DUP4 ADD CALLDATALOAD PUSH2 0x1910 DUP2 PUSH2 0x1899 JUMP JUMPDEST DUP1 SWAP2 POP POP SWAP3 POP SWAP3 SWAP1 POP JUMP JUMPDEST PUSH1 0x0 DUP1 PUSH1 0x40 DUP4 DUP6 SUB SLT ISZERO PUSH2 0x192E JUMPI PUSH1 0x0 DUP1 REVERT JUMPDEST DUP3 CALLDATALOAD PUSH2 0x1939 DUP2 PUSH2 0x1899 JUMP JUMPDEST SWAP5 PUSH1 0x20 SWAP4 SWAP1 SWAP4 ADD CALLDATALOAD SWAP4 POP POP POP JUMP JUMPDEST PUSH1 0x0 PUSH1 0x20 DUP3 DUP5 SUB SLT ISZERO PUSH2 0x1959 JUMPI PUSH1 0x0 DUP1 REVERT JUMPDEST POP CALLDATALOAD SWAP2 SWAP1 POP JUMP JUMPDEST PUSH1 0x0 DUP1 PUSH1 0x40 DUP4 DUP6 SUB SLT ISZERO PUSH2 0x1973 JUMPI PUSH1 0x0 DUP1 REVERT JUMPDEST DUP3 CALLDATALOAD SWAP2 POP PUSH1 0x20 DUP4 ADD CALLDATALOAD PUSH1 0x5 DUP2 LT PUSH2 0x1910 JUMPI PUSH1 0x0 DUP1 REVERT JUMPDEST PUSH1 0x0 PUSH1 0x20 DUP3 DUP5 SUB SLT ISZERO PUSH2 0x199B JUMPI PUSH1 0x0 DUP1 REVERT JUMPDEST DUP2 MLOAD PUSH2 0x18CB DUP2 PUSH2 0x1899 JUMP JUMPDEST PUSH1 0x20 DUP1 DUP3 MSTORE PUSH1 0x13 SWAP1 DUP3 ADD MSTORE PUSH19 0x21B0B63632B91034B9903737BA1037BBB732B9 PUSH1 0x69 SHL PUSH1 0x40 DUP3 ADD MSTORE PUSH1 0x60 ADD SWAP1 JUMP JUMPDEST PUSH4 0x4E487B71 PUSH1 0xE0 SHL PUSH1 0x0 MSTORE PUSH1 0x11 PUSH1 0x4 MSTORE PUSH1 0x24 PUSH1 0x0 REVERT JUMPDEST DUP1 DUP3 ADD DUP1 DUP3 GT ISZERO PUSH2 0xA7D JUMPI PUSH2 0xA7D PUSH2 0x19D3 JUMP JUMPDEST DUP1 DUP3 MUL DUP2 ISZERO DUP3 DUP3 DIV DUP5 EQ OR PUSH2 0xA7D JUMPI PUSH2 0xA7D PUSH2 0x19D3 JUMP JUMPDEST PUSH1 0x0 DUP3 PUSH2 0x1A30 JUMPI PUSH4 0x4E487B71 PUSH1 0xE0 SHL PUSH1 0x0 MSTORE PUSH1 0x12 PUSH1 0x4 MSTORE PUSH1 0x24 PUSH1 0x0 REVERT JUMPDEST POP DIV SWAP1 JUMP JUMPDEST PUSH1 0x0 PUSH1 0x20 DUP3 DUP5 SUB SLT ISZERO PUSH2 0x1A47 JUMPI PUSH1 0x0 DUP1 REVERT JUMPDEST DUP2 CALLDATALOAD PUSH1 0xFF DUP2 AND DUP2 EQ PUSH2 0x18CB JUMPI PUSH1 0x0 DUP1 REVERT JUMPDEST PUSH4 0x4E487B71 PUSH1 0xE0 SHL PUSH1 0x0 MSTORE PUSH1 0x21 PUSH1 0x4 MSTORE PUSH1 0x24 PUSH1 0x0 REVERT JUMPDEST PUSH1 0x1 PUSH1 0x1 PUSH1 0xA0 SHL SUB DUP6 AND DUP2 MSTORE PUSH1 0x20 DUP2 ADD DUP5 SWAP1 MSTORE PUSH1 0x40 DUP2 ADD DUP4 SWAP1 MSTORE PUSH1 0x80 DUP2 ADD PUSH1 0x5 DUP4 LT PUSH2 0x1AAA JUMPI PUSH4 0x4E487B71 PUSH1 0xE0 SHL PUSH1 0x0 MSTORE PUSH1 0x21 PUSH1 0x4 MSTORE PUSH1 0x24 PUSH1 0x0 REVERT JUMPDEST DUP3 PUSH1 0x60 DUP4 ADD MSTORE SWAP6 SWAP5 POP POP POP POP POP JUMP JUMPDEST DUP1 MLOAD PUSH1 0x1 PUSH1 0x1 PUSH1 0x70 SHL SUB DUP2 AND DUP2 EQ PUSH2 0x1AD0 JUMPI PUSH1 0x0 DUP1 REVERT JUMPDEST SWAP2 SWAP1 POP JUMP JUMPDEST PUSH1 0x0 DUP1 PUSH1 0x0 PUSH1 0x60 DUP5 DUP7 SUB SLT ISZERO PUSH2 0x1AEA JUMPI PUSH1 0x0 DUP1 REVERT JUMPDEST PUSH2 0x1AF3 DUP5 PUSH2 0x1AB9 JUMP JUMPDEST SWAP3 POP PUSH2 0x1B01 PUSH1 0x20 DUP6 ADD PUSH2 0x1AB9 JUMP JUMPDEST SWAP2 POP PUSH1 0x40 DUP5 ADD MLOAD PUSH4 0xFFFFFFFF DUP2 AND DUP2 EQ PUSH2 0x1B1A JUMPI PUSH1 0x0 DUP1 REVERT JUMPDEST DUP1 SWAP2 POP POP SWAP3 POP SWAP3 POP SWAP3 JUMP JUMPDEST PUSH1 0x0 DUP3 MLOAD PUSH1 0x0 JUMPDEST DUP2 DUP2 LT ISZERO PUSH2 0x1B46 JUMPI PUSH1 0x20 DUP2 DUP7 ADD DUP2 ADD MLOAD DUP6 DUP4 ADD MSTORE ADD PUSH2 0x1B2C JUMP JUMPDEST POP PUSH1 0x0 SWAP3 ADD SWAP2 DUP3 MSTORE POP SWAP2 SWAP1 POP JUMP JUMPDEST PUSH1 0x0 PUSH1 0x20 DUP3 DUP5 SUB SLT ISZERO PUSH2 0x1B66 JUMPI PUSH1 0x0 DUP1 REVERT JUMPDEST DUP2 MLOAD DUP1 ISZERO ISZERO DUP2 EQ PUSH2 0x18CB JUMPI PUSH1 0x0 DUP1 REVERT INVALID LOG2 PUSH5 0x6970667358 0x22 SLT KECCAK256 RETURNDATASIZE 0xD0 LOG1 PUSH28 0x462BFF02CFD963BEEF0F89D3D369A633C074B3BA73A81DECB2295321 PUSH5 0x736F6C6343 STOP ADDMOD SLT STOP CALLER "
				},
				"gasEstimates": {
					"creation": {
						"codeDepositCost": "1416800",
						"executionCost": "25714",
						"totalCost": "1442514"
					},
					"external": {
						"DOMAIN_SEPARATOR()": "2396",
						"admin()": "2447",
						"dead()": "2360",
						"emergencyBNB(address,uint256)": "infinite",
						"emergencyToken(address,uint256)": "infinite",
						"getBnbPrice()": "infinite",
						"getHash()": "269",
						"getResult((address,address,uint256,uint256,uint256,uint8,bytes32,bytes32))": "infinite",
						"getTokenPrice()": "infinite",
						"implementation()": "2470",
						"initialize(address)": "infinite",
						"optionInfo(uint256)": "8934",
						"permit()": "2426",
						"provide(uint256,uint8)": "infinite",
						"reentrant(uint256,address)": "2650",
						"setAdmin(address)": "26772",
						"setPermit(address)": "26795",
						"token()": "2469",
						"uniswapV2Factory()": "2448",
						"uniswapV2Router()": "2383",
						"usdt()": "2405",
						"withdraw((address,address,uint256,uint256,uint256,uint8,bytes32,bytes32))": "infinite"
					},
					"internal": {
						"_updateDomainSeparator()": "infinite"
					}
				},
				"methodIdentifiers": {
					"DOMAIN_SEPARATOR()": "3644e515",
					"admin()": "f851a440",
					"dead()": "36cf7c87",
					"emergencyBNB(address,uint256)": "8fe7002c",
					"emergencyToken(address,uint256)": "88e3988f",
					"getBnbPrice()": "08760b0d",
					"getHash()": "d13319c4",
					"getResult((address,address,uint256,uint256,uint256,uint8,bytes32,bytes32))": "5e43cd68",
					"getTokenPrice()": "4b94f50e",
					"implementation()": "5c60da1b",
					"initialize(address)": "c4d66de8",
					"optionInfo(uint256)": "bc446708",
					"permit()": "5777e93d",
					"provide(uint256,uint8)": "bc7fb169",
					"reentrant(uint256,address)": "6d0000b7",
					"setAdmin(address)": "704b6c02",
					"setPermit(address)": "32105e46",
					"token()": "fc0c546a",
					"uniswapV2Factory()": "59d0f713",
					"uniswapV2Router()": "1694505e",
					"usdt()": "2f48ab7d",
					"withdraw((address,address,uint256,uint256,uint256,uint8,bytes32,bytes32))": "40003763"
				}
			},
			"storageLayout": {
				"storage": [
					{
						"astId": 3,
						"contract": "Pledage.sol:Pledage",
						"label": "admin",
						"offset": 0,
						"slot": "0",
						"type": "t_address"
					},
					{
						"astId": 5,
						"contract": "Pledage.sol:Pledage",
						"label": "implementation",
						"offset": 0,
						"slot": "1",
						"type": "t_address"
					},
					{
						"astId": 719,
						"contract": "Pledage.sol:Pledage",
						"label": "userInfo",
						"offset": 0,
						"slot": "2",
						"type": "t_mapping(t_address,t_struct(User)714_storage)"
					},
					{
						"astId": 733,
						"contract": "Pledage.sol:Pledage",
						"label": "optionInfo",
						"offset": 0,
						"slot": "3",
						"type": "t_mapping(t_uint256,t_struct(Option)728_storage)"
					},
					{
						"astId": 735,
						"contract": "Pledage.sol:Pledage",
						"label": "token",
						"offset": 0,
						"slot": "4",
						"type": "t_address"
					},
					{
						"astId": 737,
						"contract": "Pledage.sol:Pledage",
						"label": "permit",
						"offset": 0,
						"slot": "5",
						"type": "t_address"
					},
					{
						"astId": 739,
						"contract": "Pledage.sol:Pledage",
						"label": "dead",
						"offset": 0,
						"slot": "6",
						"type": "t_address"
					},
					{
						"astId": 741,
						"contract": "Pledage.sol:Pledage",
						"label": "usdt",
						"offset": 0,
						"slot": "7",
						"type": "t_address"
					},
					{
						"astId": 743,
						"contract": "Pledage.sol:Pledage",
						"label": "uniswapV2Router",
						"offset": 0,
						"slot": "8",
						"type": "t_address"
					},
					{
						"astId": 745,
						"contract": "Pledage.sol:Pledage",
						"label": "uniswapV2Factory",
						"offset": 0,
						"slot": "9",
						"type": "t_address"
					},
					{
						"astId": 747,
						"contract": "Pledage.sol:Pledage",
						"label": "DOMAIN_SEPARATOR",
						"offset": 0,
						"slot": "10",
						"type": "t_bytes32"
					},
					{
						"astId": 756,
						"contract": "Pledage.sol:Pledage",
						"label": "reentrant",
						"offset": 0,
						"slot": "11",
						"type": "t_mapping(t_uint256,t_mapping(t_address,t_uint256))"
					}
				],
				"types": {
					"t_address": {
						"encoding": "inplace",
						"label": "address",
						"numberOfBytes": "20"
					},
					"t_array(t_enum(Expiration)703)dyn_storage": {
						"base": "t_enum(Expiration)703",
						"encoding": "dynamic_array",
						"label": "enum PledageStorV1.Expiration[]",
						"numberOfBytes": "32"
					},
					"t_array(t_uint256)dyn_storage": {
						"base": "t_uint256",
						"encoding": "dynamic_array",
						"label": "uint256[]",
						"numberOfBytes": "32"
					},
					"t_bytes32": {
						"encoding": "inplace",
						"label": "bytes32",
						"numberOfBytes": "32"
					},
					"t_enum(Expiration)703": {
						"encoding": "inplace",
						"label": "enum PledageStorV1.Expiration",
						"numberOfBytes": "1"
					},
					"t_mapping(t_address,t_struct(User)714_storage)": {
						"encoding": "mapping",
						"key": "t_address",
						"label": "mapping(address => struct PledageStorV1.User)",
						"numberOfBytes": "32",
						"value": "t_struct(User)714_storage"
					},
					"t_mapping(t_address,t_uint256)": {
						"encoding": "mapping",
						"key": "t_address",
						"label": "mapping(address => uint256)",
						"numberOfBytes": "32",
						"value": "t_uint256"
					},
					"t_mapping(t_uint256,t_mapping(t_address,t_uint256))": {
						"encoding": "mapping",
						"key": "t_uint256",
						"label": "mapping(uint256 => mapping(address => uint256))",
						"numberOfBytes": "32",
						"value": "t_mapping(t_address,t_uint256)"
					},
					"t_mapping(t_uint256,t_struct(Option)728_storage)": {
						"encoding": "mapping",
						"key": "t_uint256",
						"label": "mapping(uint256 => struct PledageStorV1.Option)",
						"numberOfBytes": "32",
						"value": "t_struct(Option)728_storage"
					},
					"t_struct(Option)728_storage": {
						"encoding": "inplace",
						"label": "struct PledageStorV1.Option",
						"members": [
							{
								"astId": 721,
								"contract": "Pledage.sol:Pledage",
								"label": "optionId",
								"offset": 0,
								"slot": "0",
								"type": "t_uint256"
							},
							{
								"astId": 723,
								"contract": "Pledage.sol:Pledage",
								"label": "holder",
								"offset": 0,
								"slot": "1",
								"type": "t_address"
							},
							{
								"astId": 725,
								"contract": "Pledage.sol:Pledage",
								"label": "token",
								"offset": 0,
								"slot": "2",
								"type": "t_address"
							},
							{
								"astId": 727,
								"contract": "Pledage.sol:Pledage",
								"label": "amount",
								"offset": 0,
								"slot": "3",
								"type": "t_uint256"
							}
						],
						"numberOfBytes": "128"
					},
					"t_struct(User)714_storage": {
						"encoding": "inplace",
						"label": "struct PledageStorV1.User",
						"members": [
							{
								"astId": 706,
								"contract": "Pledage.sol:Pledage",
								"label": "amounts",
								"offset": 0,
								"slot": "0",
								"type": "t_array(t_uint256)dyn_storage"
							},
							{
								"astId": 709,
								"contract": "Pledage.sol:Pledage",
								"label": "times",
								"offset": 0,
								"slot": "1",
								"type": "t_array(t_uint256)dyn_storage"
							},
							{
								"astId": 713,
								"contract": "Pledage.sol:Pledage",
								"label": "expirations",
								"offset": 0,
								"slot": "2",
								"type": "t_array(t_enum(Expiration)703)dyn_storage"
							}
						],
						"numberOfBytes": "96"
					},
					"t_uint256": {
						"encoding": "inplace",
						"label": "uint256",
						"numberOfBytes": "32"
					}
				}
			},
			"userdoc": {
				"kind": "user",
				"methods": {},
				"version": 1
			}
		}
	}
}