{
	"Pledage.sol": {
		"PledageStorV1": {
			"abi": [
				{
					"inputs": [],
					"name": "DOMAIN_SEPARATOR",
					"outputs": [
						{
							"internalType": "bytes32",
							"name": "",
							"type": "bytes32"
						}
					],
					"stateMutability": "view",
					"type": "function"
				},
				{
					"inputs": [],
					"name": "admin",
					"outputs": [
						{
							"internalType": "address",
							"name": "",
							"type": "address"
						}
					],
					"stateMutability": "view",
					"type": "function"
				},
				{
					"inputs": [],
					"name": "dead",
					"outputs": [
						{
							"internalType": "address",
							"name": "",
							"type": "address"
						}
					],
					"stateMutability": "view",
					"type": "function"
				},
				{
					"inputs": [],
					"name": "implementation",
					"outputs": [
						{
							"internalType": "address",
							"name": "",
							"type": "address"
						}
					],
					"stateMutability": "view",
					"type": "function"
				},
				{
					"inputs": [
						{
							"internalType": "uint256",
							"name": "",
							"type": "uint256"
						}
					],
					"name": "optionInfo",
					"outputs": [
						{
							"internalType": "uint256",
							"name": "optionId",
							"type": "uint256"
						},
						{
							"internalType": "address",
							"name": "holder",
							"type": "address"
						},
						{
							"internalType": "address",
							"name": "token",
							"type": "address"
						},
						{
							"internalType": "uint256",
							"name": "amount",
							"type": "uint256"
						}
					],
					"stateMutability": "view",
					"type": "function"
				},
				{
					"inputs": [],
					"name": "permit",
					"outputs": [
						{
							"internalType": "address",
							"name": "",
							"type": "address"
						}
					],
					"stateMutability": "view",
					"type": "function"
				},
				{
					"inputs": [],
					"name": "token",
					"outputs": [
						{
							"internalType": "address",
							"name": "",
							"type": "address"
						}
					],
					"stateMutability": "view",
					"type": "function"
				},
				{
					"inputs": [],
					"name": "uniswapV2Factory",
					"outputs": [
						{
							"internalType": "address",
							"name": "",
							"type": "address"
						}
					],
					"stateMutability": "view",
					"type": "function"
				},
				{
					"inputs": [],
					"name": "uniswapV2Router",
					"outputs": [
						{
							"internalType": "address",
							"name": "",
							"type": "address"
						}
					],
					"stateMutability": "view",
					"type": "function"
				},
				{
					"inputs": [],
					"name": "usdt",
					"outputs": [
						{
							"internalType": "address",
							"name": "",
							"type": "address"
						}
					],
					"stateMutability": "view",
					"type": "function"
				}
			],
			"devdoc": {
				"kind": "dev",
				"methods": {},
				"version": 1
			},
			"evm": {
				"assembly": "    /* \"Pledage.sol\":7036:7712  contract PledageStorV1 is PledageStor{... */\n  mstore(0x40, 0x80)\n  callvalue\n  dup1\n  iszero\n  tag_1\n  jumpi\n  0x00\n  dup1\n  revert\ntag_1:\n  pop\n  dataSize(sub_0)\n  dup1\n  dataOffset(sub_0)\n  0x00\n  codecopy\n  0x00\n  return\nstop\n\nsub_0: assembly {\n        /* \"Pledage.sol\":7036:7712  contract PledageStorV1 is PledageStor{... */\n      mstore(0x40, 0x80)\n      callvalue\n      dup1\n      iszero\n      tag_1\n      jumpi\n      0x00\n      dup1\n      revert\n    tag_1:\n      pop\n      jumpi(tag_2, lt(calldatasize, 0x04))\n      shr(0xe0, calldataload(0x00))\n      dup1\n      0x59d0f713\n      gt\n      tag_13\n      jumpi\n      dup1\n      0x59d0f713\n      eq\n      tag_8\n      jumpi\n      dup1\n      0x5c60da1b\n      eq\n      tag_9\n      jumpi\n      dup1\n      0xbc446708\n      eq\n      tag_10\n      jumpi\n      dup1\n      0xf851a440\n      eq\n      tag_11\n      jumpi\n      dup1\n      0xfc0c546a\n      eq\n      tag_12\n      jumpi\n      0x00\n      dup1\n      revert\n    tag_13:\n      dup1\n      0x1694505e\n      eq\n      tag_3\n      jumpi\n      dup1\n      0x2f48ab7d\n      eq\n      tag_4\n      jumpi\n      dup1\n      0x3644e515\n      eq\n      tag_5\n      jumpi\n      dup1\n      0x36cf7c87\n      eq\n      tag_6\n      jumpi\n      dup1\n      0x5777e93d\n      eq\n      tag_7\n      jumpi\n    tag_2:\n      0x00\n      dup1\n      revert\n        /* \"Pledage.sol\":7604:7634  address public uniswapV2Router */\n    tag_3:\n      sload(0x08)\n      tag_14\n      swap1\n      sub(shl(0xa0, 0x01), 0x01)\n      and\n      dup2\n      jump\n    tag_14:\n      mload(0x40)\n      sub(shl(0xa0, 0x01), 0x01)\n        /* \"#utility.yul\":178:210   */\n      swap1\n      swap2\n      and\n        /* \"#utility.yul\":160:211   */\n      dup2\n      mstore\n        /* \"#utility.yul\":148:150   */\n      0x20\n        /* \"#utility.yul\":133:151   */\n      add\n        /* \"Pledage.sol\":7604:7634  address public uniswapV2Router */\n    tag_16:\n      mload(0x40)\n      dup1\n      swap2\n      sub\n      swap1\n      return\n        /* \"Pledage.sol\":7579:7598  address public usdt */\n    tag_4:\n      sload(0x07)\n      tag_14\n      swap1\n      sub(shl(0xa0, 0x01), 0x01)\n      and\n      dup2\n      jump\n        /* \"Pledage.sol\":7677:7708  bytes32 public DOMAIN_SEPARATOR */\n    tag_5:\n      tag_21\n      sload(0x0a)\n      dup2\n      jump\n    tag_21:\n      mload(0x40)\n        /* \"#utility.yul\":368:393   */\n      swap1\n      dup2\n      mstore\n        /* \"#utility.yul\":356:358   */\n      0x20\n        /* \"#utility.yul\":341:359   */\n      add\n        /* \"Pledage.sol\":7677:7708  bytes32 public DOMAIN_SEPARATOR */\n      tag_16\n        /* \"#utility.yul\":222:399   */\n      jump\n        /* \"Pledage.sol\":7554:7573  address public dead */\n    tag_6:\n      sload(0x06)\n      tag_14\n      swap1\n      sub(shl(0xa0, 0x01), 0x01)\n      and\n      dup2\n      jump\n        /* \"Pledage.sol\":7527:7548  address public permit */\n    tag_7:\n      sload(0x05)\n      tag_14\n      swap1\n      sub(shl(0xa0, 0x01), 0x01)\n      and\n      dup2\n      jump\n        /* \"Pledage.sol\":7640:7671  address public uniswapV2Factory */\n    tag_8:\n      sload(0x09)\n      tag_14\n      swap1\n      sub(shl(0xa0, 0x01), 0x01)\n      and\n      dup2\n      jump\n        /* \"Pledage.sol\":115:144  address public implementation */\n    tag_9:\n      sload(0x01)\n      tag_14\n      swap1\n      sub(shl(0xa0, 0x01), 0x01)\n      and\n      dup2\n      jump\n        /* \"Pledage.sol\":7450:7494  mapping(uint256 => Option) public optionInfo */\n    tag_10:\n      tag_37\n      tag_38\n      calldatasize\n      0x04\n      tag_39\n      jump\t// in\n    tag_38:\n      0x03\n      0x20\n      dup2\n      swap1\n      mstore\n      0x00\n      swap2\n      dup3\n      mstore\n      0x40\n      swap1\n      swap2\n      keccak256\n      dup1\n      sload\n      0x01\n      dup3\n      add\n      sload\n      0x02\n      dup4\n      add\n      sload\n      swap3\n      swap1\n      swap4\n      add\n      sload\n      swap1\n      swap3\n      sub(shl(0xa0, 0x01), 0x01)\n      swap1\n      dup2\n      and\n      swap3\n      and\n      swap1\n      dup5\n      jump\n    tag_37:\n      mload(0x40)\n      tag_16\n      swap5\n      swap4\n      swap3\n      swap2\n      swap1\n        /* \"#utility.yul\":820:845   */\n      swap4\n      dup5\n      mstore\n      sub(shl(0xa0, 0x01), 0x01)\n        /* \"#utility.yul\":919:934   */\n      swap3\n      dup4\n      and\n        /* \"#utility.yul\":914:916   */\n      0x20\n        /* \"#utility.yul\":899:917   */\n      dup6\n      add\n        /* \"#utility.yul\":892:935   */\n      mstore\n        /* \"#utility.yul\":971:986   */\n      swap2\n      and\n        /* \"#utility.yul\":966:968   */\n      0x40\n        /* \"#utility.yul\":951:969   */\n      dup4\n      add\n        /* \"#utility.yul\":944:987   */\n      mstore\n        /* \"#utility.yul\":1018:1020   */\n      0x60\n        /* \"#utility.yul\":1003:1021   */\n      dup3\n      add\n        /* \"#utility.yul\":996:1030   */\n      mstore\n        /* \"#utility.yul\":807:810   */\n      0x80\n        /* \"#utility.yul\":792:811   */\n      add\n      swap1\n        /* \"#utility.yul\":589:1036   */\n      jump\n        /* \"Pledage.sol\":89:109  address public admin */\n    tag_11:\n      sload(0x00)\n      tag_14\n      swap1\n      sub(shl(0xa0, 0x01), 0x01)\n      and\n      dup2\n      jump\n        /* \"Pledage.sol\":7501:7521  address public token */\n    tag_12:\n      sload(0x04)\n      tag_14\n      swap1\n      sub(shl(0xa0, 0x01), 0x01)\n      and\n      dup2\n      jump\n        /* \"#utility.yul\":404:584   */\n    tag_39:\n        /* \"#utility.yul\":463:469   */\n      0x00\n        /* \"#utility.yul\":516:518   */\n      0x20\n        /* \"#utility.yul\":504:513   */\n      dup3\n        /* \"#utility.yul\":495:502   */\n      dup5\n        /* \"#utility.yul\":491:514   */\n      sub\n        /* \"#utility.yul\":487:519   */\n      slt\n        /* \"#utility.yul\":484:536   */\n      iszero\n      tag_53\n      jumpi\n        /* \"#utility.yul\":532:533   */\n      0x00\n        /* \"#utility.yul\":529:530   */\n      dup1\n        /* \"#utility.yul\":522:534   */\n      revert\n        /* \"#utility.yul\":484:536   */\n    tag_53:\n      pop\n        /* \"#utility.yul\":555:578   */\n      calldataload\n      swap2\n        /* \"#utility.yul\":404:584   */\n      swap1\n      pop\n      jump\t// out\n\n    auxdata: 0xa26469706673582212205536bbdaeca4eba30df55f4ccd5ab34e5fa5fc19aaf420ac5781e60ca7f2a20564736f6c63430008120033\n}\n",
				"bytecode": {
					"linkReferences": {},
					"object": "608060405234801561001057600080fd5b50610231806100206000396000f3fe608060405234801561001057600080fd5b506004361061009e5760003560e01c806359d0f7131161006657806359d0f713146101235780635c60da1b14610136578063bc44670814610149578063f851a440146101bc578063fc0c546a146101cf57600080fd5b80631694505e146100a35780632f48ab7d146100d35780633644e515146100e657806336cf7c87146100fd5780635777e93d14610110575b600080fd5b6008546100b6906001600160a01b031681565b6040516001600160a01b0390911681526020015b60405180910390f35b6007546100b6906001600160a01b031681565b6100ef600a5481565b6040519081526020016100ca565b6006546100b6906001600160a01b031681565b6005546100b6906001600160a01b031681565b6009546100b6906001600160a01b031681565b6001546100b6906001600160a01b031681565b61018c6101573660046101e2565b6003602081905260009182526040909120805460018201546002830154929093015490926001600160a01b0390811692169084565b6040516100ca94939291909384526001600160a01b03928316602085015291166040830152606082015260800190565b6000546100b6906001600160a01b031681565b6004546100b6906001600160a01b031681565b6000602082840312156101f457600080fd5b503591905056fea26469706673582212205536bbdaeca4eba30df55f4ccd5ab34e5fa5fc19aaf420ac5781e60ca7f2a20564736f6c63430008120033",
					"opcodes": "PUSH1 0x80 PUSH1 0x40 MSTORE CALLVALUE DUP1 ISZERO PUSH2 0x10 JUMPI PUSH1 0x0 DUP1 REVERT JUMPDEST POP PUSH2 0x231 DUP1 PUSH2 0x20 PUSH1 0x0 CODECOPY PUSH1 0x0 RETURN INVALID PUSH1 0x80 PUSH1 0x40 MSTORE CALLVALUE DUP1 ISZERO PUSH2 0x10 JUMPI PUSH1 0x0 DUP1 REVERT JUMPDEST POP PUSH1 0x4 CALLDATASIZE LT PUSH2 0x9E JUMPI PUSH1 0x0 CALLDATALOAD PUSH1 0xE0 SHR DUP1 PUSH4 0x59D0F713 GT PUSH2 0x66 JUMPI DUP1 PUSH4 0x59D0F713 EQ PUSH2 0x123 JUMPI DUP1 PUSH4 0x5C60DA1B EQ PUSH2 0x136 JUMPI DUP1 PUSH4 0xBC446708 EQ PUSH2 0x149 JUMPI DUP1 PUSH4 0xF851A440 EQ PUSH2 0x1BC JUMPI DUP1 PUSH4 0xFC0C546A EQ PUSH2 0x1CF JUMPI PUSH1 0x0 DUP1 REVERT JUMPDEST DUP1 PUSH4 0x1694505E EQ PUSH2 0xA3 JUMPI DUP1 PUSH4 0x2F48AB7D EQ PUSH2 0xD3 JUMPI DUP1 PUSH4 0x3644E515 EQ PUSH2 0xE6 JUMPI DUP1 PUSH4 0x36CF7C87 EQ PUSH2 0xFD JUMPI DUP1 PUSH4 0x5777E93D EQ PUSH2 0x110 JUMPI JUMPDEST PUSH1 0x0 DUP1 REVERT JUMPDEST PUSH1 0x8 SLOAD PUSH2 0xB6 SWAP1 PUSH1 0x1 PUSH1 0x1 PUSH1 0xA0 SHL SUB AND DUP2 JUMP JUMPDEST PUSH1 0x40 MLOAD PUSH1 0x1 PUSH1 0x1 PUSH1 0xA0 SHL SUB SWAP1 SWAP2 AND DUP2 MSTORE PUSH1 0x20 ADD JUMPDEST PUSH1 0x40 MLOAD DUP1 SWAP2 SUB SWAP1 RETURN JUMPDEST PUSH1 0x7 SLOAD PUSH2 0xB6 SWAP1 PUSH1 0x1 PUSH1 0x1 PUSH1 0xA0 SHL SUB AND DUP2 JUMP JUMPDEST PUSH2 0xEF PUSH1 0xA SLOAD DUP2 JUMP JUMPDEST PUSH1 0x40 MLOAD SWAP1 DUP2 MSTORE PUSH1 0x20 ADD PUSH2 0xCA JUMP JUMPDEST PUSH1 0x6 SLOAD PUSH2 0xB6 SWAP1 PUSH1 0x1 PUSH1 0x1 PUSH1 0xA0 SHL SUB AND DUP2 JUMP JUMPDEST PUSH1 0x5 SLOAD PUSH2 0xB6 SWAP1 PUSH1 0x1 PUSH1 0x1 PUSH1 0xA0 SHL SUB AND DUP2 JUMP JUMPDEST PUSH1 0x9 SLOAD PUSH2 0xB6 SWAP1 PUSH1 0x1 PUSH1 0x1 PUSH1 0xA0 SHL SUB AND DUP2 JUMP JUMPDEST PUSH1 0x1 SLOAD PUSH2 0xB6 SWAP1 PUSH1 0x1 PUSH1 0x1 PUSH1 0xA0 SHL SUB AND DUP2 JUMP JUMPDEST PUSH2 0x18C PUSH2 0x157 CALLDATASIZE PUSH1 0x4 PUSH2 0x1E2 JUMP JUMPDEST PUSH1 0x3 PUSH1 0x20 DUP2 SWAP1 MSTORE PUSH1 0x0 SWAP2 DUP3 MSTORE PUSH1 0x40 SWAP1 SWAP2 KECCAK256 DUP1 SLOAD PUSH1 0x1 DUP3 ADD SLOAD PUSH1 0x2 DUP4 ADD SLOAD SWAP3 SWAP1 SWAP4 ADD SLOAD SWAP1 SWAP3 PUSH1 0x1 PUSH1 0x1 PUSH1 0xA0 SHL SUB SWAP1 DUP2 AND SWAP3 AND SWAP1 DUP5 JUMP JUMPDEST PUSH1 0x40 MLOAD PUSH2 0xCA SWAP5 SWAP4 SWAP3 SWAP2 SWAP1 SWAP4 DUP5 MSTORE PUSH1 0x1 PUSH1 0x1 PUSH1 0xA0 SHL SUB SWAP3 DUP4 AND PUSH1 0x20 DUP6 ADD MSTORE SWAP2 AND PUSH1 0x40 DUP4 ADD MSTORE PUSH1 0x60 DUP3 ADD MSTORE PUSH1 0x80 ADD SWAP1 JUMP JUMPDEST PUSH1 0x0 SLOAD PUSH2 0xB6 SWAP1 PUSH1 0x1 PUSH1 0x1 PUSH1 0xA0 SHL SUB AND DUP2 JUMP JUMPDEST PUSH1 0x4 SLOAD PUSH2 0xB6 SWAP1 PUSH1 0x1 PUSH1 0x1 PUSH1 0xA0 SHL SUB AND DUP2 JUMP JUMPDEST PUSH1 0x0 PUSH1 0x20 DUP3 DUP5 SUB SLT ISZERO PUSH2 0x1F4 JUMPI PUSH1 0x0 DUP1 REVERT JUMPDEST POP CALLDATALOAD SWAP2 SWAP1 POP JUMP INVALID LOG2 PUSH5 0x6970667358 0x22 SLT KECCAK256 SSTORE CALLDATASIZE 0xBB 0xDA 0xEC LOG4 0xEB LOG3 0xD CREATE2 0x5F 0x4C 0xCD GAS 0xB3 0x4E 0x5F 0xA5 0xFC NOT 0xAA DELEGATECALL KECCAK256 0xAC JUMPI DUP2 0xE6 0xC 0xA7 CALLCODE LOG2 SDIV PUSH5 0x736F6C6343 STOP ADDMOD SLT STOP CALLER "
				},
				"gasEstimates": {
					"creation": {
						"codeDepositCost": "112200",
						"executionCost": "159",
						"totalCost": "112359"
					},
					"external": {
						"DOMAIN_SEPARATOR()": "2340",
						"admin()": "2392",
						"dead()": "2393",
						"implementation()": "2348",
						"optionInfo(uint256)": "8956",
						"permit()": "2415",
						"token()": "2414",
						"uniswapV2Factory()": "2326",
						"uniswapV2Router()": "2327",
						"usdt()": "2349"
					}
				},
				"methodIdentifiers": {
					"DOMAIN_SEPARATOR()": "3644e515",
					"admin()": "f851a440",
					"dead()": "36cf7c87",
					"implementation()": "5c60da1b",
					"optionInfo(uint256)": "bc446708",
					"permit()": "5777e93d",
					"token()": "fc0c546a",
					"uniswapV2Factory()": "59d0f713",
					"uniswapV2Router()": "1694505e",
					"usdt()": "2f48ab7d"
				}
			},
			"storageLayout": {
				"storage": [
					{
						"astId": 3,
						"contract": "Pledage.sol:PledageStorV1",
						"label": "admin",
						"offset": 0,
						"slot": "0",
						"type": "t_address"
					},
					{
						"astId": 5,
						"contract": "Pledage.sol:PledageStorV1",
						"label": "implementation",
						"offset": 0,
						"slot": "1",
						"type": "t_address"
					},
					{
						"astId": 719,
						"contract": "Pledage.sol:PledageStorV1",
						"label": "userInfo",
						"offset": 0,
						"slot": "2",
						"type": "t_mapping(t_address,t_struct(User)714_storage)"
					},
					{
						"astId": 733,
						"contract": "Pledage.sol:PledageStorV1",
						"label": "optionInfo",
						"offset": 0,
						"slot": "3",
						"type": "t_mapping(t_uint256,t_struct(Option)728_storage)"
					},
					{
						"astId": 735,
						"contract": "Pledage.sol:PledageStorV1",
						"label": "token",
						"offset": 0,
						"slot": "4",
						"type": "t_address"
					},
					{
						"astId": 737,
						"contract": "Pledage.sol:PledageStorV1",
						"label": "permit",
						"offset": 0,
						"slot": "5",
						"type": "t_address"
					},
					{
						"astId": 739,
						"contract": "Pledage.sol:PledageStorV1",
						"label": "dead",
						"offset": 0,
						"slot": "6",
						"type": "t_address"
					},
					{
						"astId": 741,
						"contract": "Pledage.sol:PledageStorV1",
						"label": "usdt",
						"offset": 0,
						"slot": "7",
						"type": "t_address"
					},
					{
						"astId": 743,
						"contract": "Pledage.sol:PledageStorV1",
						"label": "uniswapV2Router",
						"offset": 0,
						"slot": "8",
						"type": "t_address"
					},
					{
						"astId": 745,
						"contract": "Pledage.sol:PledageStorV1",
						"label": "uniswapV2Factory",
						"offset": 0,
						"slot": "9",
						"type": "t_address"
					},
					{
						"astId": 747,
						"contract": "Pledage.sol:PledageStorV1",
						"label": "DOMAIN_SEPARATOR",
						"offset": 0,
						"slot": "10",
						"type": "t_bytes32"
					}
				],
				"types": {
					"t_address": {
						"encoding": "inplace",
						"label": "address",
						"numberOfBytes": "20"
					},
					"t_array(t_enum(Expiration)703)dyn_storage": {
						"base": "t_enum(Expiration)703",
						"encoding": "dynamic_array",
						"label": "enum PledageStorV1.Expiration[]",
						"numberOfBytes": "32"
					},
					"t_array(t_uint256)dyn_storage": {
						"base": "t_uint256",
						"encoding": "dynamic_array",
						"label": "uint256[]",
						"numberOfBytes": "32"
					},
					"t_bytes32": {
						"encoding": "inplace",
						"label": "bytes32",
						"numberOfBytes": "32"
					},
					"t_enum(Expiration)703": {
						"encoding": "inplace",
						"label": "enum PledageStorV1.Expiration",
						"numberOfBytes": "1"
					},
					"t_mapping(t_address,t_struct(User)714_storage)": {
						"encoding": "mapping",
						"key": "t_address",
						"label": "mapping(address => struct PledageStorV1.User)",
						"numberOfBytes": "32",
						"value": "t_struct(User)714_storage"
					},
					"t_mapping(t_uint256,t_struct(Option)728_storage)": {
						"encoding": "mapping",
						"key": "t_uint256",
						"label": "mapping(uint256 => struct PledageStorV1.Option)",
						"numberOfBytes": "32",
						"value": "t_struct(Option)728_storage"
					},
					"t_struct(Option)728_storage": {
						"encoding": "inplace",
						"label": "struct PledageStorV1.Option",
						"members": [
							{
								"astId": 721,
								"contract": "Pledage.sol:PledageStorV1",
								"label": "optionId",
								"offset": 0,
								"slot": "0",
								"type": "t_uint256"
							},
							{
								"astId": 723,
								"contract": "Pledage.sol:PledageStorV1",
								"label": "holder",
								"offset": 0,
								"slot": "1",
								"type": "t_address"
							},
							{
								"astId": 725,
								"contract": "Pledage.sol:PledageStorV1",
								"label": "token",
								"offset": 0,
								"slot": "2",
								"type": "t_address"
							},
							{
								"astId": 727,
								"contract": "Pledage.sol:PledageStorV1",
								"label": "amount",
								"offset": 0,
								"slot": "3",
								"type": "t_uint256"
							}
						],
						"numberOfBytes": "128"
					},
					"t_struct(User)714_storage": {
						"encoding": "inplace",
						"label": "struct PledageStorV1.User",
						"members": [
							{
								"astId": 706,
								"contract": "Pledage.sol:PledageStorV1",
								"label": "amounts",
								"offset": 0,
								"slot": "0",
								"type": "t_array(t_uint256)dyn_storage"
							},
							{
								"astId": 709,
								"contract": "Pledage.sol:PledageStorV1",
								"label": "times",
								"offset": 0,
								"slot": "1",
								"type": "t_array(t_uint256)dyn_storage"
							},
							{
								"astId": 713,
								"contract": "Pledage.sol:PledageStorV1",
								"label": "expirations",
								"offset": 0,
								"slot": "2",
								"type": "t_array(t_enum(Expiration)703)dyn_storage"
							}
						],
						"numberOfBytes": "96"
					},
					"t_uint256": {
						"encoding": "inplace",
						"label": "uint256",
						"numberOfBytes": "32"
					}
				}
			},
			"userdoc": {
				"kind": "user",
				"methods": {},
				"version": 1
			}
		}
	}
}