{
	"Deep.sol": {
		"Deep": {
			"abi": [
				{
					"inputs": [
						{
							"internalType": "address[]",
							"name": "addrs",
							"type": "address[]"
						},
						{
							"internalType": "address",
							"name": "_router",
							"type": "address"
						},
						{
							"internalType": "address",
							"name": "_usdt",
							"type": "address"
						},
						{
							"internalType": "address",
							"name": "_slippage",
							"type": "address"
						}
					],
					"stateMutability": "nonpayable",
					"type": "constructor"
				},
				{
					"anonymous": false,
					"inputs": [
						{
							"indexed": true,
							"internalType": "address",
							"name": "owner",
							"type": "address"
						},
						{
							"indexed": true,
							"internalType": "address",
							"name": "spender",
							"type": "address"
						},
						{
							"indexed": false,
							"internalType": "uint256",
							"name": "value",
							"type": "uint256"
						}
					],
					"name": "Approval",
					"type": "event"
				},
				{
					"anonymous": false,
					"inputs": [
						{
							"indexed": true,
							"internalType": "address",
							"name": "from",
							"type": "address"
						},
						{
							"indexed": true,
							"internalType": "address",
							"name": "to",
							"type": "address"
						},
						{
							"indexed": false,
							"internalType": "uint256",
							"name": "value",
							"type": "uint256"
						}
					],
					"name": "Transfer",
					"type": "event"
				},
				{
					"inputs": [
						{
							"internalType": "address",
							"name": "owner",
							"type": "address"
						},
						{
							"internalType": "address",
							"name": "spender",
							"type": "address"
						}
					],
					"name": "allowance",
					"outputs": [
						{
							"internalType": "uint256",
							"name": "",
							"type": "uint256"
						}
					],
					"stateMutability": "view",
					"type": "function"
				},
				{
					"inputs": [
						{
							"internalType": "address",
							"name": "spender",
							"type": "address"
						},
						{
							"internalType": "uint256",
							"name": "amount",
							"type": "uint256"
						}
					],
					"name": "approve",
					"outputs": [
						{
							"internalType": "bool",
							"name": "",
							"type": "bool"
						}
					],
					"stateMutability": "nonpayable",
					"type": "function"
				},
				{
					"inputs": [
						{
							"internalType": "address",
							"name": "account",
							"type": "address"
						}
					],
					"name": "balanceOf",
					"outputs": [
						{
							"internalType": "uint256",
							"name": "",
							"type": "uint256"
						}
					],
					"stateMutability": "view",
					"type": "function"
				},
				{
					"inputs": [],
					"name": "decimals",
					"outputs": [
						{
							"internalType": "uint8",
							"name": "",
							"type": "uint8"
						}
					],
					"stateMutability": "view",
					"type": "function"
				},
				{
					"inputs": [
						{
							"internalType": "address",
							"name": "spender",
							"type": "address"
						},
						{
							"internalType": "uint256",
							"name": "subtractedValue",
							"type": "uint256"
						}
					],
					"name": "decreaseAllowance",
					"outputs": [
						{
							"internalType": "bool",
							"name": "",
							"type": "bool"
						}
					],
					"stateMutability": "nonpayable",
					"type": "function"
				},
				{
					"inputs": [
						{
							"internalType": "address",
							"name": "spender",
							"type": "address"
						},
						{
							"internalType": "uint256",
							"name": "addedValue",
							"type": "uint256"
						}
					],
					"name": "increaseAllowance",
					"outputs": [
						{
							"internalType": "bool",
							"name": "",
							"type": "bool"
						}
					],
					"stateMutability": "nonpayable",
					"type": "function"
				},
				{
					"inputs": [],
					"name": "name",
					"outputs": [
						{
							"internalType": "string",
							"name": "",
							"type": "string"
						}
					],
					"stateMutability": "view",
					"type": "function"
				},
				{
					"inputs": [],
					"name": "owner",
					"outputs": [
						{
							"internalType": "address",
							"name": "",
							"type": "address"
						}
					],
					"stateMutability": "view",
					"type": "function"
				},
				{
					"inputs": [
						{
							"internalType": "address",
							"name": "_owner",
							"type": "address"
						}
					],
					"name": "setOwner",
					"outputs": [],
					"stateMutability": "nonpayable",
					"type": "function"
				},
				{
					"inputs": [
						{
							"internalType": "address",
							"name": "_slippage",
							"type": "address"
						}
					],
					"name": "setSlippage",
					"outputs": [],
					"stateMutability": "nonpayable",
					"type": "function"
				},
				{
					"inputs": [],
					"name": "slippage",
					"outputs": [
						{
							"internalType": "address",
							"name": "",
							"type": "address"
						}
					],
					"stateMutability": "view",
					"type": "function"
				},
				{
					"inputs": [],
					"name": "symbol",
					"outputs": [
						{
							"internalType": "string",
							"name": "",
							"type": "string"
						}
					],
					"stateMutability": "view",
					"type": "function"
				},
				{
					"inputs": [],
					"name": "totalSupply",
					"outputs": [
						{
							"internalType": "uint256",
							"name": "",
							"type": "uint256"
						}
					],
					"stateMutability": "view",
					"type": "function"
				},
				{
					"inputs": [
						{
							"internalType": "address",
							"name": "to",
							"type": "address"
						},
						{
							"internalType": "uint256",
							"name": "amount",
							"type": "uint256"
						}
					],
					"name": "transfer",
					"outputs": [
						{
							"internalType": "bool",
							"name": "",
							"type": "bool"
						}
					],
					"stateMutability": "nonpayable",
					"type": "function"
				},
				{
					"inputs": [
						{
							"internalType": "address",
							"name": "from",
							"type": "address"
						},
						{
							"internalType": "address",
							"name": "to",
							"type": "address"
						},
						{
							"internalType": "uint256",
							"name": "amount",
							"type": "uint256"
						}
					],
					"name": "transferFrom",
					"outputs": [
						{
							"internalType": "bool",
							"name": "",
							"type": "bool"
						}
					],
					"stateMutability": "nonpayable",
					"type": "function"
				},
				{
					"inputs": [],
					"name": "uniswapV2Pair",
					"outputs": [
						{
							"internalType": "address",
							"name": "",
							"type": "address"
						}
					],
					"stateMutability": "view",
					"type": "function"
				}
			],
			"devdoc": {
				"kind": "dev",
				"methods": {},
				"version": 1
			},
			"evm": {
				"assembly": "    /* \"Deep.sol\":6883:9273  contract Deep is ERC20{... */\n  mstore(0x40, 0x80)\n    /* \"Deep.sol\":7879:8548  constructor(... */\n  callvalue\n  dup1\n  iszero\n  tag_1\n  jumpi\n  0x00\n  dup1\n  revert\ntag_1:\n  pop\n  mload(0x40)\n  sub(codesize, bytecodeSize)\n  dup1\n  bytecodeSize\n  dup4\n  codecopy\n  dup2\n  add\n  0x40\n  dup2\n  swap1\n  mstore\n  tag_2\n  swap2\n  tag_3\n  jump\t// in\ntag_2:\n    /* \"Deep.sol\":1771:1884  constructor(string memory name_, string memory symbol_) {... */\n  mload(0x40)\n  dup1\n  0x40\n  add\n  0x40\n  mstore\n  dup1\n  0x04\n  dup2\n  mstore\n  0x20\n  add\n  shl(0xe4, 0x04465657)\n  dup2\n  mstore\n  pop\n  mload(0x40)\n  dup1\n  0x40\n  add\n  0x40\n  mstore\n  dup1\n  0x04\n  dup2\n  mstore\n  0x20\n  add\n  shl(0xe4, 0x04445455)\n  dup2\n  mstore\n  pop\n    /* \"Deep.sol\":1845:1850  name_ */\n  dup2\n    /* \"Deep.sol\":1837:1842  _name */\n  0x03\n    /* \"Deep.sol\":1837:1850  _name = name_ */\n  swap1\n  dup2\n  tag_7\n  swap2\n  swap1\n  tag_8\n  jump\t// in\ntag_7:\n  pop\n    /* \"Deep.sol\":1860:1867  _symbol */\n  0x04\n    /* \"Deep.sol\":1860:1877  _symbol = symbol_ */\n  tag_9\n    /* \"Deep.sol\":1870:1877  symbol_ */\n  dup3\n    /* \"Deep.sol\":1860:1867  _symbol */\n  dup3\n    /* \"Deep.sol\":1860:1877  _symbol = symbol_ */\n  tag_8\n  jump\t// in\ntag_9:\n  pop\n    /* \"Deep.sol\":1771:1884  constructor(string memory name_, string memory symbol_) {... */\n  pop\n  pop\n    /* \"Deep.sol\":8035:8049  uint256 amount */\n  0x00\n    /* \"Deep.sol\":8052:8068  1000000000000e18 */\n  0x0c9f2c9cd04674edea40000000\n    /* \"Deep.sol\":8035:8068  uint256 amount = 1000000000000e18 */\n  swap1\n  pop\n    /* \"Deep.sol\":8078:8112  _mint(addrs[0], amount * 30 / 100) */\n  tag_11\n    /* \"Deep.sol\":8084:8089  addrs */\n  dup6\n    /* \"Deep.sol\":8090:8091  0 */\n  0x00\n    /* \"Deep.sol\":8084:8092  addrs[0] */\n  dup2\n  mload\n  dup2\n  lt\n  tag_13\n  jumpi\n  tag_13\n  tag_14\n  jump\t// in\ntag_13:\n  0x20\n  mul\n  0x20\n  add\n  add\n  mload\n    /* \"Deep.sol\":8108:8111  100 */\n  0x64\n    /* \"Deep.sol\":8094:8100  amount */\n  dup4\n    /* \"Deep.sol\":8103:8105  30 */\n  0x1e\n    /* \"Deep.sol\":8094:8105  amount * 30 */\n  tag_15\n  swap2\n  swap1\n  tag_16\n  jump\t// in\ntag_15:\n    /* \"Deep.sol\":8094:8111  amount * 30 / 100 */\n  tag_17\n  swap2\n  swap1\n  tag_18\n  jump\t// in\ntag_17:\n    /* \"Deep.sol\":8078:8083  _mint */\n  tag_19\n    /* \"Deep.sol\":8078:8112  _mint(addrs[0], amount * 30 / 100) */\n  jump\t// in\ntag_11:\n    /* \"Deep.sol\":8122:8155  _mint(addrs[1], amount * 5 / 100) */\n  tag_20\n    /* \"Deep.sol\":8128:8133  addrs */\n  dup6\n    /* \"Deep.sol\":8134:8135  1 */\n  0x01\n    /* \"Deep.sol\":8128:8136  addrs[1] */\n  dup2\n  mload\n  dup2\n  lt\n  tag_22\n  jumpi\n  tag_22\n  tag_14\n  jump\t// in\ntag_22:\n  0x20\n  mul\n  0x20\n  add\n  add\n  mload\n    /* \"Deep.sol\":8151:8154  100 */\n  0x64\n    /* \"Deep.sol\":8138:8144  amount */\n  dup4\n    /* \"Deep.sol\":8147:8148  5 */\n  0x05\n    /* \"Deep.sol\":8138:8148  amount * 5 */\n  tag_15\n  swap2\n  swap1\n  tag_16\n  jump\t// in\n    /* \"Deep.sol\":8122:8155  _mint(addrs[1], amount * 5 / 100) */\ntag_20:\n    /* \"Deep.sol\":8165:8198  _mint(addrs[2], amount * 5 / 100) */\n  tag_25\n    /* \"Deep.sol\":8171:8176  addrs */\n  dup6\n    /* \"Deep.sol\":8177:8178  2 */\n  0x02\n    /* \"Deep.sol\":8171:8179  addrs[2] */\n  dup2\n  mload\n  dup2\n  lt\n  tag_22\n  jumpi\n  tag_22\n  tag_14\n  jump\t// in\n    /* \"Deep.sol\":8165:8198  _mint(addrs[2], amount * 5 / 100) */\ntag_25:\n    /* \"Deep.sol\":8208:8241  _mint(addrs[3], amount * 5 / 100) */\n  tag_30\n    /* \"Deep.sol\":8214:8219  addrs */\n  dup6\n    /* \"Deep.sol\":8220:8221  3 */\n  0x03\n    /* \"Deep.sol\":8214:8222  addrs[3] */\n  dup2\n  mload\n  dup2\n  lt\n  tag_22\n  jumpi\n  tag_22\n  tag_14\n  jump\t// in\n    /* \"Deep.sol\":8208:8241  _mint(addrs[3], amount * 5 / 100) */\ntag_30:\n    /* \"Deep.sol\":8251:8284  _mint(addrs[4], amount * 4 / 100) */\n  tag_35\n    /* \"Deep.sol\":8257:8262  addrs */\n  dup6\n    /* \"Deep.sol\":8263:8264  4 */\n  0x04\n    /* \"Deep.sol\":8257:8265  addrs[4] */\n  dup2\n  mload\n  dup2\n  lt\n  tag_37\n  jumpi\n  tag_37\n  tag_14\n  jump\t// in\ntag_37:\n  0x20\n  mul\n  0x20\n  add\n  add\n  mload\n    /* \"Deep.sol\":8280:8283  100 */\n  0x64\n    /* \"Deep.sol\":8267:8273  amount */\n  dup4\n    /* \"Deep.sol\":8276:8277  4 */\n  0x04\n    /* \"Deep.sol\":8267:8277  amount * 4 */\n  tag_15\n  swap2\n  swap1\n  tag_16\n  jump\t// in\n    /* \"Deep.sol\":8251:8284  _mint(addrs[4], amount * 4 / 100) */\ntag_35:\n    /* \"Deep.sol\":8294:8327  _mint(addrs[5], amount * 1 / 100) */\n  tag_40\n    /* \"Deep.sol\":8300:8305  addrs */\n  dup6\n    /* \"Deep.sol\":8306:8307  5 */\n  0x05\n    /* \"Deep.sol\":8300:8308  addrs[5] */\n  dup2\n  mload\n  dup2\n  lt\n  tag_42\n  jumpi\n  tag_42\n  tag_14\n  jump\t// in\ntag_42:\n  0x20\n  mul\n  0x20\n  add\n  add\n  mload\n    /* \"Deep.sol\":8323:8326  100 */\n  0x64\n    /* \"Deep.sol\":8310:8316  amount */\n  dup4\n    /* \"Deep.sol\":8319:8320  1 */\n  0x01\n    /* \"Deep.sol\":8310:8320  amount * 1 */\n  tag_15\n  swap2\n  swap1\n  tag_16\n  jump\t// in\n    /* \"Deep.sol\":8294:8327  _mint(addrs[5], amount * 1 / 100) */\ntag_40:\n    /* \"Deep.sol\":8337:8371  _mint(addrs[6], amount * 50 / 100) */\n  tag_45\n    /* \"Deep.sol\":8343:8348  addrs */\n  dup6\n    /* \"Deep.sol\":8349:8350  6 */\n  0x06\n    /* \"Deep.sol\":8343:8351  addrs[6] */\n  dup2\n  mload\n  dup2\n  lt\n  tag_47\n  jumpi\n  tag_47\n  tag_14\n  jump\t// in\ntag_47:\n  0x20\n  mul\n  0x20\n  add\n  add\n  mload\n    /* \"Deep.sol\":8367:8370  100 */\n  0x64\n    /* \"Deep.sol\":8353:8359  amount */\n  dup4\n    /* \"Deep.sol\":8362:8364  50 */\n  0x32\n    /* \"Deep.sol\":8353:8364  amount * 50 */\n  tag_15\n  swap2\n  swap1\n  tag_16\n  jump\t// in\n    /* \"Deep.sol\":8337:8371  _mint(addrs[6], amount * 50 / 100) */\ntag_45:\n    /* \"Deep.sol\":8432:8439  _router */\n  dup4\n  sub(shl(0xa0, 0x01), 0x01)\n    /* \"Deep.sol\":8415:8448  IUniswapV2Router(_router).factory */\n  and\n  0xc45a0155\n    /* \"Deep.sol\":8415:8450  IUniswapV2Router(_router).factory() */\n  mload(0x40)\n  dup2\n  0xffffffff\n  and\n  0xe0\n  shl\n  dup2\n  mstore\n  0x04\n  add\n  0x20\n  mload(0x40)\n  dup1\n  dup4\n  sub\n  dup2\n  dup7\n  gas\n  staticcall\n  iszero\n  dup1\n  iszero\n  tag_51\n  jumpi\n  returndatasize\n  0x00\n  dup1\n  returndatacopy\n  revert(0x00, returndatasize)\ntag_51:\n  pop\n  pop\n  pop\n  pop\n  mload(0x40)\n  returndatasize\n  not(0x1f)\n  0x1f\n  dup3\n  add\n  and\n  dup3\n  add\n  dup1\n  0x40\n  mstore\n  pop\n  dup2\n  add\n  swap1\n  tag_52\n  swap2\n  swap1\n  tag_53\n  jump\t// in\ntag_52:\n    /* \"Deep.sol\":8397:8483  IUniswapV2Factory(IUniswapV2Router(_router).factory()).createPair(_usdt,address(this)) */\n  mload(0x40)\n  shl(0xe1, 0x64e329cb)\n  dup2\n  mstore\n  sub(shl(0xa0, 0x01), 0x01)\n    /* \"#utility.yul\":5411:5426   */\n  dup6\n  dup2\n  and\n    /* \"Deep.sol\":8397:8483  IUniswapV2Factory(IUniswapV2Router(_router).factory()).createPair(_usdt,address(this)) */\n  0x04\n  dup4\n  add\n    /* \"#utility.yul\":5393:5427   */\n  mstore\n    /* \"Deep.sol\":8477:8481  this */\n  address\n    /* \"#utility.yul\":5443:5461   */\n  0x24\n  dup4\n  add\n    /* \"#utility.yul\":5436:5479   */\n  mstore\n    /* \"Deep.sol\":8397:8462  IUniswapV2Factory(IUniswapV2Router(_router).factory()).createPair */\n  swap2\n  swap1\n  swap2\n  and\n  swap1\n  0xc9c65396\n  swap1\n    /* \"#utility.yul\":5328:5346   */\n  0x44\n  add\n    /* \"Deep.sol\":8397:8483  IUniswapV2Factory(IUniswapV2Router(_router).factory()).createPair(_usdt,address(this)) */\n  0x20\n  mload(0x40)\n  dup1\n  dup4\n  sub\n  dup2\n  0x00\n  dup8\n  gas\n  call\n  iszero\n  dup1\n  iszero\n  tag_57\n  jumpi\n  returndatasize\n  0x00\n  dup1\n  returndatacopy\n  revert(0x00, returndatasize)\ntag_57:\n  pop\n  pop\n  pop\n  pop\n  mload(0x40)\n  returndatasize\n  not(0x1f)\n  0x1f\n  dup3\n  add\n  and\n  dup3\n  add\n  dup1\n  0x40\n  mstore\n  pop\n  dup2\n  add\n  swap1\n  tag_58\n  swap2\n  swap1\n  tag_53\n  jump\t// in\ntag_58:\n    /* \"Deep.sol\":8381:8394  uniswapV2Pair */\n  0x06\n    /* \"Deep.sol\":8381:8483  uniswapV2Pair = IUniswapV2Factory(IUniswapV2Router(_router).factory()).createPair(_usdt,address(this)) */\n  dup1\n  sload\n  sub(shl(0xa0, 0x01), 0x01)\n  swap3\n  dup4\n  and\n  not(sub(shl(0xa0, 0x01), 0x01))\n  swap2\n  dup3\n  and\n  or\n  swap1\n  swap2\n  sstore\n    /* \"Deep.sol\":8493:8501  slippage */\n  0x07\n    /* \"Deep.sol\":8493:8513  slippage = _slippage */\n  dup1\n  sload\n  swap5\n  swap1\n  swap3\n  and\n  swap4\n  dup2\n  and\n  swap4\n  swap1\n  swap4\n  or\n  swap1\n  sstore\n  pop\n    /* \"Deep.sol\":8523:8528  owner */\n  0x05\n    /* \"Deep.sol\":8523:8541  owner = msg.sender */\n  dup1\n  sload\n  swap1\n  swap2\n  and\n    /* \"Deep.sol\":8531:8541  msg.sender */\n  caller\n    /* \"Deep.sol\":8523:8541  owner = msg.sender */\n  or\n  swap1\n  sstore\n  pop\n    /* \"Deep.sol\":6883:9273  contract Deep is ERC20{... */\n  tag_81\n  swap2\n  pop\n  pop\n  jump\n    /* \"Deep.sol\":4724:5259  function _mint(address account, uint256 amount) internal virtual {... */\ntag_19:\n  sub(shl(0xa0, 0x01), 0x01)\n    /* \"Deep.sol\":4807:4828  account != address(0) */\n  dup3\n  and\n    /* \"Deep.sol\":4799:4864  require(account != address(0), \"ERC20: mint to the zero address\") */\n  tag_61\n  jumpi\n  mload(0x40)\n  shl(0xe5, 0x461bcd)\n  dup2\n  mstore\n    /* \"#utility.yul\":5692:5694   */\n  0x20\n    /* \"Deep.sol\":4799:4864  require(account != address(0), \"ERC20: mint to the zero address\") */\n  0x04\n  dup3\n  add\n    /* \"#utility.yul\":5674:5695   */\n  mstore\n    /* \"#utility.yul\":5731:5733   */\n  0x1f\n    /* \"#utility.yul\":5711:5729   */\n  0x24\n  dup3\n  add\n    /* \"#utility.yul\":5704:5734   */\n  mstore\n    /* \"#utility.yul\":5770:5803   */\n  0x45524332303a206d696e7420746f20746865207a65726f206164647265737300\n    /* \"#utility.yul\":5750:5768   */\n  0x44\n  dup3\n  add\n    /* \"#utility.yul\":5743:5804   */\n  mstore\n    /* \"#utility.yul\":5821:5839   */\n  0x64\n  add\n    /* \"Deep.sol\":4799:4864  require(account != address(0), \"ERC20: mint to the zero address\") */\n  mload(0x40)\n  dup1\n  swap2\n  sub\n  swap1\n  revert\ntag_61:\n    /* \"Deep.sol\":4951:4957  amount */\n  dup1\n    /* \"Deep.sol\":4935:4947  _totalSupply */\n  0x02\n  0x00\n    /* \"Deep.sol\":4935:4957  _totalSupply += amount */\n  dup3\n  dup3\n  sload\n  tag_66\n  swap2\n  swap1\n  tag_67\n  jump\t// in\ntag_66:\n  swap1\n  swap2\n  sstore\n  pop\n  pop\n  sub(shl(0xa0, 0x01), 0x01)\n    /* \"Deep.sol\":5103:5121  _balances[account] */\n  dup3\n  and\n    /* \"Deep.sol\":5103:5112  _balances */\n  0x00\n    /* \"Deep.sol\":5103:5121  _balances[account] */\n  dup2\n  dup2\n  mstore\n  0x20\n  dup2\n  dup2\n  mstore\n  0x40\n  dup1\n  dup4\n  keccak256\n    /* \"Deep.sol\":5103:5131  _balances[account] += amount */\n  dup1\n  sload\n  dup7\n  add\n  swap1\n  sstore\n    /* \"Deep.sol\":5156:5193  Transfer(address(0), account, amount) */\n  mload\n    /* \"#utility.yul\":6126:6151   */\n  dup5\n  dup2\n  mstore\n    /* \"Deep.sol\":5156:5193  Transfer(address(0), account, amount) */\n  0xddf252ad1be2c89b69c2b068fc378daa952ba7f163c4a11628f55a4df523b3ef\n  swap2\n    /* \"#utility.yul\":6099:6117   */\n  add\n    /* \"Deep.sol\":5156:5193  Transfer(address(0), account, amount) */\n  mload(0x40)\n  dup1\n  swap2\n  sub\n  swap1\n  log3\n    /* \"Deep.sol\":4724:5259  function _mint(address account, uint256 amount) internal virtual {... */\n  pop\n  pop\n  jump\t// out\n    /* \"Deep.sol\":6693:6784  function _beforeTokenTransfer(address from, address to, uint256 amount) internal virtual {} */\ntag_65:\n  pop\n  pop\n  pop\n  jump\t// out\n    /* \"#utility.yul\":14:141   */\ntag_74:\n    /* \"#utility.yul\":75:85   */\n  0x4e487b71\n    /* \"#utility.yul\":70:73   */\n  0xe0\n    /* \"#utility.yul\":66:86   */\n  shl\n    /* \"#utility.yul\":63:64   */\n  0x00\n    /* \"#utility.yul\":56:87   */\n  mstore\n    /* \"#utility.yul\":106:110   */\n  0x41\n    /* \"#utility.yul\":103:104   */\n  0x04\n    /* \"#utility.yul\":96:111   */\n  mstore\n    /* \"#utility.yul\":130:134   */\n  0x24\n    /* \"#utility.yul\":127:128   */\n  0x00\n    /* \"#utility.yul\":120:135   */\n  revert\n    /* \"#utility.yul\":146:323   */\ntag_75:\n    /* \"#utility.yul\":225:238   */\n  dup1\n  mload\n  sub(shl(0xa0, 0x01), 0x01)\n    /* \"#utility.yul\":267:298   */\n  dup2\n  and\n    /* \"#utility.yul\":257:299   */\n  dup2\n  eq\n    /* \"#utility.yul\":247:317   */\n  tag_84\n  jumpi\n    /* \"#utility.yul\":313:314   */\n  0x00\n    /* \"#utility.yul\":310:311   */\n  dup1\n    /* \"#utility.yul\":303:315   */\n  revert\n    /* \"#utility.yul\":247:317   */\ntag_84:\n    /* \"#utility.yul\":146:323   */\n  swap2\n  swap1\n  pop\n  jump\t// out\n    /* \"#utility.yul\":328:1715   */\ntag_3:\n    /* \"#utility.yul\":450:456   */\n  0x00\n    /* \"#utility.yul\":458:464   */\n  dup1\n    /* \"#utility.yul\":466:472   */\n  0x00\n    /* \"#utility.yul\":474:480   */\n  dup1\n    /* \"#utility.yul\":527:530   */\n  0x80\n    /* \"#utility.yul\":515:524   */\n  dup6\n    /* \"#utility.yul\":506:513   */\n  dup8\n    /* \"#utility.yul\":502:525   */\n  sub\n    /* \"#utility.yul\":498:531   */\n  slt\n    /* \"#utility.yul\":495:548   */\n  iszero\n  tag_86\n  jumpi\n    /* \"#utility.yul\":544:545   */\n  0x00\n    /* \"#utility.yul\":541:542   */\n  dup1\n    /* \"#utility.yul\":534:546   */\n  revert\n    /* \"#utility.yul\":495:548   */\ntag_86:\n    /* \"#utility.yul\":571:587   */\n  dup5\n  mload\n  sub(shl(0x40, 0x01), 0x01)\n    /* \"#utility.yul\":636:650   */\n  dup1\n  dup3\n  gt\n    /* \"#utility.yul\":633:667   */\n  iszero\n  tag_87\n  jumpi\n    /* \"#utility.yul\":663:664   */\n  0x00\n    /* \"#utility.yul\":660:661   */\n  dup1\n    /* \"#utility.yul\":653:665   */\n  revert\n    /* \"#utility.yul\":633:667   */\ntag_87:\n    /* \"#utility.yul\":701:707   */\n  dup2\n    /* \"#utility.yul\":690:699   */\n  dup8\n    /* \"#utility.yul\":686:708   */\n  add\n    /* \"#utility.yul\":676:708   */\n  swap2\n  pop\n    /* \"#utility.yul\":746:753   */\n  dup8\n    /* \"#utility.yul\":739:743   */\n  0x1f\n    /* \"#utility.yul\":735:737   */\n  dup4\n    /* \"#utility.yul\":731:744   */\n  add\n    /* \"#utility.yul\":727:754   */\n  slt\n    /* \"#utility.yul\":717:772   */\n  tag_88\n  jumpi\n    /* \"#utility.yul\":768:769   */\n  0x00\n    /* \"#utility.yul\":765:766   */\n  dup1\n    /* \"#utility.yul\":758:770   */\n  revert\n    /* \"#utility.yul\":717:772   */\ntag_88:\n    /* \"#utility.yul\":797:799   */\n  dup2\n    /* \"#utility.yul\":791:800   */\n  mload\n    /* \"#utility.yul\":819:823   */\n  0x20\n    /* \"#utility.yul\":842:844   */\n  dup3\n    /* \"#utility.yul\":838:840   */\n  dup3\n    /* \"#utility.yul\":835:845   */\n  gt\n    /* \"#utility.yul\":832:868   */\n  iszero\n  tag_90\n  jumpi\n    /* \"#utility.yul\":848:866   */\n  tag_90\n  tag_74\n  jump\t// in\ntag_90:\n    /* \"#utility.yul\":894:896   */\n  dup2\n    /* \"#utility.yul\":891:892   */\n  0x05\n    /* \"#utility.yul\":887:897   */\n  shl\n    /* \"#utility.yul\":926:928   */\n  0x40\n    /* \"#utility.yul\":920:929   */\n  mload\n    /* \"#utility.yul\":989:991   */\n  0x1f\n    /* \"#utility.yul\":985:992   */\n  not\n    /* \"#utility.yul\":980:982   */\n  0x3f\n    /* \"#utility.yul\":976:978   */\n  dup4\n    /* \"#utility.yul\":972:983   */\n  add\n    /* \"#utility.yul\":968:993   */\n  and\n    /* \"#utility.yul\":960:966   */\n  dup2\n    /* \"#utility.yul\":956:994   */\n  add\n    /* \"#utility.yul\":1044:1050   */\n  dup2\n    /* \"#utility.yul\":1032:1042   */\n  dup2\n    /* \"#utility.yul\":1029:1051   */\n  lt\n    /* \"#utility.yul\":1024:1026   */\n  dup7\n    /* \"#utility.yul\":1012:1022   */\n  dup3\n    /* \"#utility.yul\":1009:1027   */\n  gt\n    /* \"#utility.yul\":1006:1052   */\n  or\n    /* \"#utility.yul\":1003:1075   */\n  iszero\n  tag_92\n  jumpi\n    /* \"#utility.yul\":1055:1073   */\n  tag_92\n  tag_74\n  jump\t// in\ntag_92:\n    /* \"#utility.yul\":1091:1093   */\n  0x40\n    /* \"#utility.yul\":1084:1106   */\n  mstore\n    /* \"#utility.yul\":1141:1159   */\n  swap3\n  dup4\n  mstore\n    /* \"#utility.yul\":1175:1190   */\n  dup2\n  dup4\n  add\n  swap4\n  pop\n    /* \"#utility.yul\":1217:1228   */\n  dup5\n  dup2\n  add\n    /* \"#utility.yul\":1213:1233   */\n  dup3\n  add\n  swap3\n    /* \"#utility.yul\":1245:1264   */\n  dup12\n  dup5\n  gt\n    /* \"#utility.yul\":1242:1281   */\n  iszero\n  tag_93\n  jumpi\n    /* \"#utility.yul\":1277:1278   */\n  0x00\n    /* \"#utility.yul\":1274:1275   */\n  dup1\n    /* \"#utility.yul\":1267:1279   */\n  revert\n    /* \"#utility.yul\":1242:1281   */\ntag_93:\n    /* \"#utility.yul\":1301:1312   */\n  swap5\n  dup3\n  add\n  swap5\n    /* \"#utility.yul\":1321:1480   */\ntag_94:\n    /* \"#utility.yul\":1337:1343   */\n  dup4\n    /* \"#utility.yul\":1332:1335   */\n  dup7\n    /* \"#utility.yul\":1329:1344   */\n  lt\n    /* \"#utility.yul\":1321:1480   */\n  iszero\n  tag_96\n  jumpi\n    /* \"#utility.yul\":1403:1437   */\n  tag_97\n    /* \"#utility.yul\":1433:1436   */\n  dup7\n    /* \"#utility.yul\":1403:1437   */\n  tag_75\n  jump\t// in\ntag_97:\n    /* \"#utility.yul\":1391:1438   */\n  dup6\n  mstore\n    /* \"#utility.yul\":1354:1366   */\n  swap5\n  dup3\n  add\n  swap5\n    /* \"#utility.yul\":1458:1470   */\n  swap4\n  dup3\n  add\n  swap4\n    /* \"#utility.yul\":1321:1480   */\n  jump(tag_94)\ntag_96:\n    /* \"#utility.yul\":1499:1505   */\n  swap9\n  pop\n    /* \"#utility.yul\":1524:1573   */\n  tag_98\n  swap1\n  pop\n    /* \"#utility.yul\":1554:1572   */\n  dup10\n  dup3\n  add\n    /* \"#utility.yul\":1524:1573   */\n  tag_75\n  jump\t// in\ntag_98:\n    /* \"#utility.yul\":1514:1573   */\n  swap7\n  pop\n  pop\n  pop\n  pop\n  pop\n    /* \"#utility.yul\":1592:1641   */\n  tag_99\n    /* \"#utility.yul\":1637:1639   */\n  0x40\n    /* \"#utility.yul\":1626:1635   */\n  dup7\n    /* \"#utility.yul\":1622:1640   */\n  add\n    /* \"#utility.yul\":1592:1641   */\n  tag_75\n  jump\t// in\ntag_99:\n    /* \"#utility.yul\":1582:1641   */\n  swap2\n  pop\n    /* \"#utility.yul\":1660:1709   */\n  tag_100\n    /* \"#utility.yul\":1705:1707   */\n  0x60\n    /* \"#utility.yul\":1694:1703   */\n  dup7\n    /* \"#utility.yul\":1690:1708   */\n  add\n    /* \"#utility.yul\":1660:1709   */\n  tag_75\n  jump\t// in\ntag_100:\n    /* \"#utility.yul\":1650:1709   */\n  swap1\n  pop\n    /* \"#utility.yul\":328:1715   */\n  swap3\n  swap6\n  swap2\n  swap5\n  pop\n  swap3\n  pop\n  jump\t// out\n    /* \"#utility.yul\":1720:2100   */\ntag_76:\n    /* \"#utility.yul\":1799:1800   */\n  0x01\n    /* \"#utility.yul\":1795:1807   */\n  dup2\n  dup2\n  shr\n  swap1\n    /* \"#utility.yul\":1842:1854   */\n  dup3\n  and\n  dup1\n    /* \"#utility.yul\":1863:1924   */\n  tag_102\n  jumpi\n    /* \"#utility.yul\":1917:1921   */\n  0x7f\n    /* \"#utility.yul\":1909:1915   */\n  dup3\n    /* \"#utility.yul\":1905:1922   */\n  and\n    /* \"#utility.yul\":1895:1922   */\n  swap2\n  pop\n    /* \"#utility.yul\":1863:1924   */\ntag_102:\n    /* \"#utility.yul\":1970:1972   */\n  0x20\n    /* \"#utility.yul\":1962:1968   */\n  dup3\n    /* \"#utility.yul\":1959:1973   */\n  lt\n    /* \"#utility.yul\":1939:1957   */\n  dup2\n    /* \"#utility.yul\":1936:1974   */\n  sub\n    /* \"#utility.yul\":1933:2094   */\n  tag_103\n  jumpi\n    /* \"#utility.yul\":2016:2026   */\n  0x4e487b71\n    /* \"#utility.yul\":2011:2014   */\n  0xe0\n    /* \"#utility.yul\":2007:2027   */\n  shl\n    /* \"#utility.yul\":2004:2005   */\n  0x00\n    /* \"#utility.yul\":1997:2028   */\n  mstore\n    /* \"#utility.yul\":2051:2055   */\n  0x22\n    /* \"#utility.yul\":2048:2049   */\n  0x04\n    /* \"#utility.yul\":2041:2056   */\n  mstore\n    /* \"#utility.yul\":2079:2083   */\n  0x24\n    /* \"#utility.yul\":2076:2077   */\n  0x00\n    /* \"#utility.yul\":2069:2084   */\n  revert\n    /* \"#utility.yul\":1933:2094   */\ntag_103:\n  pop\n    /* \"#utility.yul\":1720:2100   */\n  swap2\n  swap1\n  pop\n  jump\t// out\n    /* \"#utility.yul\":2231:2776   */\ntag_78:\n    /* \"#utility.yul\":2333:2335   */\n  0x1f\n    /* \"#utility.yul\":2328:2331   */\n  dup3\n    /* \"#utility.yul\":2325:2336   */\n  gt\n    /* \"#utility.yul\":2322:2770   */\n  iszero\n  tag_65\n  jumpi\n    /* \"#utility.yul\":2369:2370   */\n  0x00\n    /* \"#utility.yul\":2394:2399   */\n  dup2\n    /* \"#utility.yul\":2390:2392   */\n  dup2\n    /* \"#utility.yul\":2383:2400   */\n  mstore\n    /* \"#utility.yul\":2439:2443   */\n  0x20\n    /* \"#utility.yul\":2435:2437   */\n  dup2\n    /* \"#utility.yul\":2425:2444   */\n  keccak256\n    /* \"#utility.yul\":2509:2511   */\n  0x1f\n    /* \"#utility.yul\":2497:2507   */\n  dup6\n    /* \"#utility.yul\":2493:2512   */\n  add\n    /* \"#utility.yul\":2490:2491   */\n  0x05\n    /* \"#utility.yul\":2486:2513   */\n  shr\n    /* \"#utility.yul\":2480:2484   */\n  dup2\n    /* \"#utility.yul\":2476:2514   */\n  add\n    /* \"#utility.yul\":2545:2549   */\n  0x20\n    /* \"#utility.yul\":2533:2543   */\n  dup7\n    /* \"#utility.yul\":2530:2550   */\n  lt\n    /* \"#utility.yul\":2527:2574   */\n  iszero\n  tag_107\n  jumpi\n  pop\n    /* \"#utility.yul\":2568:2572   */\n  dup1\n    /* \"#utility.yul\":2527:2574   */\ntag_107:\n    /* \"#utility.yul\":2623:2625   */\n  0x1f\n    /* \"#utility.yul\":2618:2621   */\n  dup6\n    /* \"#utility.yul\":2614:2626   */\n  add\n    /* \"#utility.yul\":2611:2612   */\n  0x05\n    /* \"#utility.yul\":2607:2627   */\n  shr\n    /* \"#utility.yul\":2601:2605   */\n  dup3\n    /* \"#utility.yul\":2597:2628   */\n  add\n    /* \"#utility.yul\":2587:2628   */\n  swap2\n  pop\n    /* \"#utility.yul\":2678:2760   */\ntag_108:\n    /* \"#utility.yul\":2696:2698   */\n  dup2\n    /* \"#utility.yul\":2689:2694   */\n  dup2\n    /* \"#utility.yul\":2686:2699   */\n  lt\n    /* \"#utility.yul\":2678:2760   */\n  iszero\n  tag_110\n  jumpi\n    /* \"#utility.yul\":2741:2758   */\n  dup3\n  dup2\n  sstore\n    /* \"#utility.yul\":2722:2723   */\n  0x01\n    /* \"#utility.yul\":2711:2724   */\n  add\n    /* \"#utility.yul\":2678:2760   */\n  jump(tag_108)\ntag_110:\n    /* \"#utility.yul\":2682:2685   */\n  pop\n  pop\n  pop\n    /* \"#utility.yul\":2231:2776   */\n  pop\n  pop\n  pop\n  jump\t// out\n    /* \"#utility.yul\":2952:4304   */\ntag_8:\n    /* \"#utility.yul\":3072:3082   */\n  dup2\n  mload\n  sub(shl(0x40, 0x01), 0x01)\n    /* \"#utility.yul\":3094:3124   */\n  dup2\n  gt\n    /* \"#utility.yul\":3091:3147   */\n  iszero\n  tag_114\n  jumpi\n    /* \"#utility.yul\":3127:3145   */\n  tag_114\n  tag_74\n  jump\t// in\ntag_114:\n    /* \"#utility.yul\":3156:3253   */\n  tag_115\n    /* \"#utility.yul\":3246:3252   */\n  dup2\n    /* \"#utility.yul\":3206:3244   */\n  tag_116\n    /* \"#utility.yul\":3238:3242   */\n  dup5\n    /* \"#utility.yul\":3232:3243   */\n  sload\n    /* \"#utility.yul\":3206:3244   */\n  tag_76\n  jump\t// in\ntag_116:\n    /* \"#utility.yul\":3200:3204   */\n  dup5\n    /* \"#utility.yul\":3156:3253   */\n  tag_78\n  jump\t// in\ntag_115:\n    /* \"#utility.yul\":3308:3312   */\n  0x20\n  dup1\n    /* \"#utility.yul\":3372:3374   */\n  0x1f\n    /* \"#utility.yul\":3361:3375   */\n  dup4\n  gt\n    /* \"#utility.yul\":3389:3390   */\n  0x01\n    /* \"#utility.yul\":3384:4047   */\n  dup2\n  eq\n  tag_118\n  jumpi\n    /* \"#utility.yul\":4091:4092   */\n  0x00\n    /* \"#utility.yul\":4108:4114   */\n  dup5\n    /* \"#utility.yul\":4105:4194   */\n  iszero\n  tag_119\n  jumpi\n  pop\n    /* \"#utility.yul\":4160:4179   */\n  dup6\n  dup4\n  add\n    /* \"#utility.yul\":4154:4180   */\n  mload\n    /* \"#utility.yul\":4105:4194   */\ntag_119:\n  not(0x00)\n    /* \"#utility.yul\":2909:2910   */\n  0x03\n    /* \"#utility.yul\":2905:2916   */\n  dup7\n  swap1\n  shl\n    /* \"#utility.yul\":2901:2925   */\n  shr\n    /* \"#utility.yul\":2897:2926   */\n  not\n    /* \"#utility.yul\":2887:2927   */\n  and\n    /* \"#utility.yul\":2933:2934   */\n  0x01\n    /* \"#utility.yul\":2929:2940   */\n  dup6\n  swap1\n  shl\n    /* \"#utility.yul\":2884:2941   */\n  or\n    /* \"#utility.yul\":4207:4288   */\n  dup6\n  sstore\n    /* \"#utility.yul\":3354:4298   */\n  jump(tag_110)\n    /* \"#utility.yul\":3384:4047   */\ntag_118:\n    /* \"#utility.yul\":2178:2179   */\n  0x00\n    /* \"#utility.yul\":2171:2185   */\n  dup6\n  dup2\n  mstore\n    /* \"#utility.yul\":2215:2219   */\n  0x20\n    /* \"#utility.yul\":2202:2220   */\n  dup2\n  keccak256\n  not(0x1f)\n    /* \"#utility.yul\":3420:3440   */\n  dup7\n  and\n  swap2\n    /* \"#utility.yul\":3538:3774   */\ntag_122:\n    /* \"#utility.yul\":3552:3559   */\n  dup3\n    /* \"#utility.yul\":3549:3550   */\n  dup2\n    /* \"#utility.yul\":3546:3560   */\n  lt\n    /* \"#utility.yul\":3538:3774   */\n  iszero\n  tag_124\n  jumpi\n    /* \"#utility.yul\":3641:3660   */\n  dup9\n  dup7\n  add\n    /* \"#utility.yul\":3635:3661   */\n  mload\n    /* \"#utility.yul\":3620:3662   */\n  dup3\n  sstore\n    /* \"#utility.yul\":3733:3760   */\n  swap5\n  dup5\n  add\n  swap5\n    /* \"#utility.yul\":3701:3702   */\n  0x01\n    /* \"#utility.yul\":3689:3703   */\n  swap1\n  swap2\n  add\n  swap1\n    /* \"#utility.yul\":3568:3587   */\n  dup5\n  add\n    /* \"#utility.yul\":3538:3774   */\n  jump(tag_122)\ntag_124:\n    /* \"#utility.yul\":3542:3545   */\n  pop\n    /* \"#utility.yul\":3802:3808   */\n  dup6\n    /* \"#utility.yul\":3793:3800   */\n  dup3\n    /* \"#utility.yul\":3790:3809   */\n  lt\n    /* \"#utility.yul\":3787:3988   */\n  iszero\n  tag_125\n  jumpi\n    /* \"#utility.yul\":3863:3882   */\n  dup8\n  dup6\n  add\n    /* \"#utility.yul\":3857:3883   */\n  mload\n  not(0x00)\n    /* \"#utility.yul\":3946:3947   */\n  0x03\n    /* \"#utility.yul\":3942:3956   */\n  dup9\n  swap1\n  shl\n    /* \"#utility.yul\":3958:3961   */\n  0xf8\n    /* \"#utility.yul\":3938:3962   */\n  and\n    /* \"#utility.yul\":3934:3971   */\n  shr\n    /* \"#utility.yul\":3930:3972   */\n  not\n    /* \"#utility.yul\":3915:3973   */\n  and\n    /* \"#utility.yul\":3900:3974   */\n  dup2\n  sstore\n    /* \"#utility.yul\":3787:3988   */\ntag_125:\n  pop\n  pop\n  pop\n  pop\n  pop\n    /* \"#utility.yul\":4034:4035   */\n  0x01\n    /* \"#utility.yul\":4018:4032   */\n  swap1\n  dup2\n  shl\n    /* \"#utility.yul\":4014:4036   */\n  add\n    /* \"#utility.yul\":4001:4037   */\n  swap1\n  sstore\n  pop\n    /* \"#utility.yul\":2952:4304   */\n  jump\t// out\n    /* \"#utility.yul\":4309:4436   */\ntag_14:\n    /* \"#utility.yul\":4370:4380   */\n  0x4e487b71\n    /* \"#utility.yul\":4365:4368   */\n  0xe0\n    /* \"#utility.yul\":4361:4381   */\n  shl\n    /* \"#utility.yul\":4358:4359   */\n  0x00\n    /* \"#utility.yul\":4351:4382   */\n  mstore\n    /* \"#utility.yul\":4401:4405   */\n  0x32\n    /* \"#utility.yul\":4398:4399   */\n  0x04\n    /* \"#utility.yul\":4391:4406   */\n  mstore\n    /* \"#utility.yul\":4425:4429   */\n  0x24\n    /* \"#utility.yul\":4422:4423   */\n  0x00\n    /* \"#utility.yul\":4415:4430   */\n  revert\n    /* \"#utility.yul\":4441:4568   */\ntag_80:\n    /* \"#utility.yul\":4502:4512   */\n  0x4e487b71\n    /* \"#utility.yul\":4497:4500   */\n  0xe0\n    /* \"#utility.yul\":4493:4513   */\n  shl\n    /* \"#utility.yul\":4490:4491   */\n  0x00\n    /* \"#utility.yul\":4483:4514   */\n  mstore\n    /* \"#utility.yul\":4533:4537   */\n  0x11\n    /* \"#utility.yul\":4530:4531   */\n  0x04\n    /* \"#utility.yul\":4523:4538   */\n  mstore\n    /* \"#utility.yul\":4557:4561   */\n  0x24\n    /* \"#utility.yul\":4554:4555   */\n  0x00\n    /* \"#utility.yul\":4547:4562   */\n  revert\n    /* \"#utility.yul\":4573:4741   */\ntag_16:\n    /* \"#utility.yul\":4646:4655   */\n  dup1\n  dup3\n  mul\n    /* \"#utility.yul\":4677:4686   */\n  dup2\n  iszero\n    /* \"#utility.yul\":4694:4709   */\n  dup3\n  dup3\n  div\n    /* \"#utility.yul\":4688:4710   */\n  dup5\n  eq\n    /* \"#utility.yul\":4674:4711   */\n  or\n    /* \"#utility.yul\":4664:4735   */\n  tag_130\n  jumpi\n    /* \"#utility.yul\":4715:4733   */\n  tag_130\n  tag_80\n  jump\t// in\ntag_130:\n    /* \"#utility.yul\":4573:4741   */\n  swap3\n  swap2\n  pop\n  pop\n  jump\t// out\n    /* \"#utility.yul\":4746:4963   */\ntag_18:\n    /* \"#utility.yul\":4786:4787   */\n  0x00\n    /* \"#utility.yul\":4812:4813   */\n  dup3\n    /* \"#utility.yul\":4802:4934   */\n  tag_132\n  jumpi\n    /* \"#utility.yul\":4856:4866   */\n  0x4e487b71\n    /* \"#utility.yul\":4851:4854   */\n  0xe0\n    /* \"#utility.yul\":4847:4867   */\n  shl\n    /* \"#utility.yul\":4844:4845   */\n  0x00\n    /* \"#utility.yul\":4837:4868   */\n  mstore\n    /* \"#utility.yul\":4891:4895   */\n  0x12\n    /* \"#utility.yul\":4888:4889   */\n  0x04\n    /* \"#utility.yul\":4881:4896   */\n  mstore\n    /* \"#utility.yul\":4919:4923   */\n  0x24\n    /* \"#utility.yul\":4916:4917   */\n  0x00\n    /* \"#utility.yul\":4909:4924   */\n  revert\n    /* \"#utility.yul\":4802:4934   */\ntag_132:\n  pop\n    /* \"#utility.yul\":4948:4957   */\n  div\n  swap1\n    /* \"#utility.yul\":4746:4963   */\n  jump\t// out\n    /* \"#utility.yul\":4968:5176   */\ntag_53:\n    /* \"#utility.yul\":5038:5044   */\n  0x00\n    /* \"#utility.yul\":5091:5093   */\n  0x20\n    /* \"#utility.yul\":5079:5088   */\n  dup3\n    /* \"#utility.yul\":5070:5077   */\n  dup5\n    /* \"#utility.yul\":5066:5089   */\n  sub\n    /* \"#utility.yul\":5062:5094   */\n  slt\n    /* \"#utility.yul\":5059:5111   */\n  iszero\n  tag_134\n  jumpi\n    /* \"#utility.yul\":5107:5108   */\n  0x00\n    /* \"#utility.yul\":5104:5105   */\n  dup1\n    /* \"#utility.yul\":5097:5109   */\n  revert\n    /* \"#utility.yul\":5059:5111   */\ntag_134:\n    /* \"#utility.yul\":5130:5170   */\n  tag_135\n    /* \"#utility.yul\":5160:5169   */\n  dup3\n    /* \"#utility.yul\":5130:5170   */\n  tag_75\n  jump\t// in\ntag_135:\n    /* \"#utility.yul\":5120:5170   */\n  swap4\n    /* \"#utility.yul\":4968:5176   */\n  swap3\n  pop\n  pop\n  pop\n  jump\t// out\n    /* \"#utility.yul\":5850:5975   */\ntag_67:\n    /* \"#utility.yul\":5915:5924   */\n  dup1\n  dup3\n  add\n    /* \"#utility.yul\":5936:5946   */\n  dup1\n  dup3\n  gt\n    /* \"#utility.yul\":5933:5969   */\n  iszero\n  tag_130\n  jumpi\n    /* \"#utility.yul\":5949:5967   */\n  tag_130\n  tag_80\n  jump\t// in\n    /* \"#utility.yul\":5980:6157   */\ntag_81:\n    /* \"Deep.sol\":6883:9273  contract Deep is ERC20{... */\n  dataSize(sub_0)\n  dup1\n  dataOffset(sub_0)\n  0x00\n  codecopy\n  0x00\n  return\nstop\n\nsub_0: assembly {\n        /* \"Deep.sol\":6883:9273  contract Deep is ERC20{... */\n      mstore(0x40, 0x80)\n      callvalue\n      dup1\n      iszero\n      tag_1\n      jumpi\n      0x00\n      dup1\n      revert\n    tag_1:\n      pop\n      jumpi(tag_2, lt(calldatasize, 0x04))\n      shr(0xe0, calldataload(0x00))\n      dup1\n      0x49bd5a5e\n      gt\n      tag_19\n      jumpi\n      dup1\n      0x95d89b41\n      gt\n      tag_20\n      jumpi\n      dup1\n      0x95d89b41\n      eq\n      tag_15\n      jumpi\n      dup1\n      0xa457c2d7\n      eq\n      tag_16\n      jumpi\n      dup1\n      0xa9059cbb\n      eq\n      tag_17\n      jumpi\n      dup1\n      0xdd62ed3e\n      eq\n      tag_18\n      jumpi\n      0x00\n      dup1\n      revert\n    tag_20:\n      dup1\n      0x49bd5a5e\n      eq\n      tag_11\n      jumpi\n      dup1\n      0x70a08231\n      eq\n      tag_12\n      jumpi\n      dup1\n      0x7abd21b8\n      eq\n      tag_13\n      jumpi\n      dup1\n      0x8da5cb5b\n      eq\n      tag_14\n      jumpi\n      0x00\n      dup1\n      revert\n    tag_19:\n      dup1\n      0x23b872dd\n      gt\n      tag_21\n      jumpi\n      dup1\n      0x23b872dd\n      eq\n      tag_7\n      jumpi\n      dup1\n      0x313ce567\n      eq\n      tag_8\n      jumpi\n      dup1\n      0x39509351\n      eq\n      tag_9\n      jumpi\n      dup1\n      0x3e032a3b\n      eq\n      tag_10\n      jumpi\n      0x00\n      dup1\n      revert\n    tag_21:\n      dup1\n      0x06fdde03\n      eq\n      tag_3\n      jumpi\n      dup1\n      0x095ea7b3\n      eq\n      tag_4\n      jumpi\n      dup1\n      0x13af4035\n      eq\n      tag_5\n      jumpi\n      dup1\n      0x18160ddd\n      eq\n      tag_6\n      jumpi\n    tag_2:\n      0x00\n      dup1\n      revert\n        /* \"Deep.sol\":1890:1988  function name() public view virtual override returns (string memory) {... */\n    tag_3:\n      tag_22\n      tag_23\n      jump\t// in\n    tag_22:\n      mload(0x40)\n      tag_24\n      swap2\n      swap1\n      tag_25\n      jump\t// in\n    tag_24:\n      mload(0x40)\n      dup1\n      swap2\n      sub\n      swap1\n      return\n        /* \"Deep.sol\":2792:2989  function approve(address spender, uint256 amount) public virtual override returns (bool) {... */\n    tag_4:\n      tag_26\n      tag_27\n      calldatasize\n      0x04\n      tag_28\n      jump\t// in\n    tag_27:\n      tag_29\n      jump\t// in\n    tag_26:\n      mload(0x40)\n        /* \"#utility.yul\":1169:1183   */\n      swap1\n      iszero\n        /* \"#utility.yul\":1162:1184   */\n      iszero\n        /* \"#utility.yul\":1144:1185   */\n      dup2\n      mstore\n        /* \"#utility.yul\":1132:1134   */\n      0x20\n        /* \"#utility.yul\":1117:1135   */\n      add\n        /* \"Deep.sol\":2792:2989  function approve(address spender, uint256 amount) public virtual override returns (bool) {... */\n      tag_24\n        /* \"#utility.yul\":1004:1191   */\n      jump\n        /* \"Deep.sol\":9187:9270  function setOwner(address _owner) external onlyOwner{... */\n    tag_5:\n      tag_32\n      tag_33\n      calldatasize\n      0x04\n      tag_34\n      jump\t// in\n    tag_33:\n      tag_35\n      jump\t// in\n    tag_32:\n      stop\n        /* \"Deep.sol\":2199:2305  function totalSupply() public view virtual override returns (uint256) {... */\n    tag_6:\n        /* \"Deep.sol\":2286:2298  _totalSupply */\n      sload(0x02)\n        /* \"Deep.sol\":2199:2305  function totalSupply() public view virtual override returns (uint256) {... */\n    tag_36:\n      mload(0x40)\n        /* \"#utility.yul\":1533:1558   */\n      swap1\n      dup2\n      mstore\n        /* \"#utility.yul\":1521:1523   */\n      0x20\n        /* \"#utility.yul\":1506:1524   */\n      add\n        /* \"Deep.sol\":2199:2305  function totalSupply() public view virtual override returns (uint256) {... */\n      tag_24\n        /* \"#utility.yul\":1387:1564   */\n      jump\n        /* \"Deep.sol\":2995:3251  function transferFrom(address from, address to, uint256 amount) public virtual override returns (bool) {... */\n    tag_7:\n      tag_26\n      tag_41\n      calldatasize\n      0x04\n      tag_42\n      jump\t// in\n    tag_41:\n      tag_43\n      jump\t// in\n        /* \"Deep.sol\":2102:2193  function decimals() public view virtual override returns (uint8) {... */\n    tag_8:\n      mload(0x40)\n        /* \"Deep.sol\":2184:2186  18 */\n      0x12\n        /* \"#utility.yul\":2044:2080   */\n      dup2\n      mstore\n        /* \"#utility.yul\":2032:2034   */\n      0x20\n        /* \"#utility.yul\":2017:2035   */\n      add\n        /* \"Deep.sol\":2102:2193  function decimals() public view virtual override returns (uint8) {... */\n      tag_24\n        /* \"#utility.yul\":1902:2086   */\n      jump\n        /* \"Deep.sol\":3257:3491  function increaseAllowance(address spender, uint256 addedValue) public virtual returns (bool) {... */\n    tag_9:\n      tag_26\n      tag_50\n      calldatasize\n      0x04\n      tag_28\n      jump\t// in\n    tag_50:\n      tag_51\n      jump\t// in\n        /* \"Deep.sol\":6971:6994  address public slippage */\n    tag_10:\n      sload(0x07)\n      tag_53\n      swap1\n      sub(shl(0xa0, 0x01), 0x01)\n      and\n      dup2\n      jump\n    tag_53:\n      mload(0x40)\n      sub(shl(0xa0, 0x01), 0x01)\n        /* \"#utility.yul\":2255:2287   */\n      swap1\n      swap2\n      and\n        /* \"#utility.yul\":2237:2288   */\n      dup2\n      mstore\n        /* \"#utility.yul\":2225:2227   */\n      0x20\n        /* \"#utility.yul\":2210:2228   */\n      add\n        /* \"Deep.sol\":6971:6994  address public slippage */\n      tag_24\n        /* \"#utility.yul\":2091:2294   */\n      jump\n        /* \"Deep.sol\":6937:6965  address public uniswapV2Pair */\n    tag_11:\n      sload(0x06)\n      tag_53\n      swap1\n      sub(shl(0xa0, 0x01), 0x01)\n      and\n      dup2\n      jump\n        /* \"Deep.sol\":2311:2436  function balanceOf(address account) public view virtual override returns (uint256) {... */\n    tag_12:\n      tag_36\n      tag_61\n      calldatasize\n      0x04\n      tag_34\n      jump\t// in\n    tag_61:\n      sub(shl(0xa0, 0x01), 0x01)\n        /* \"Deep.sol\":2411:2429  _balances[account] */\n      and\n        /* \"Deep.sol\":2385:2392  uint256 */\n      0x00\n        /* \"Deep.sol\":2411:2429  _balances[account] */\n      swap1\n      dup2\n      mstore\n      0x20\n      dup2\n      swap1\n      mstore\n      0x40\n      swap1\n      keccak256\n      sload\n      swap1\n        /* \"Deep.sol\":2311:2436  function balanceOf(address account) public view virtual override returns (uint256) {... */\n      jump\n        /* \"Deep.sol\":9087:9181  function setSlippage(address _slippage) public onlyOwner {... */\n    tag_13:\n      tag_32\n      tag_65\n      calldatasize\n      0x04\n      tag_34\n      jump\t// in\n    tag_65:\n      tag_66\n      jump\t// in\n        /* \"Deep.sol\":6911:6931  address public owner */\n    tag_14:\n      sload(0x05)\n      tag_53\n      swap1\n      sub(shl(0xa0, 0x01), 0x01)\n      and\n      dup2\n      jump\n        /* \"Deep.sol\":1994:2096  function symbol() public view virtual override returns (string memory) {... */\n    tag_15:\n      tag_22\n      tag_71\n      jump\t// in\n        /* \"Deep.sol\":3497:3924  function decreaseAllowance(address spender, uint256 subtractedValue) public virtual returns (bool) {... */\n    tag_16:\n      tag_26\n      tag_74\n      calldatasize\n      0x04\n      tag_28\n      jump\t// in\n    tag_74:\n      tag_75\n      jump\t// in\n        /* \"Deep.sol\":2442:2631  function transfer(address to, uint256 amount) public virtual override returns (bool) {... */\n    tag_17:\n      tag_26\n      tag_78\n      calldatasize\n      0x04\n      tag_28\n      jump\t// in\n    tag_78:\n      tag_79\n      jump\t// in\n        /* \"Deep.sol\":2637:2786  function allowance(address owner, address spender) public view virtual override returns (uint256) {... */\n    tag_18:\n      tag_36\n      tag_82\n      calldatasize\n      0x04\n      tag_83\n      jump\t// in\n    tag_82:\n      tag_84\n      jump\t// in\n        /* \"Deep.sol\":1890:1988  function name() public view virtual override returns (string memory) {... */\n    tag_23:\n        /* \"Deep.sol\":1944:1957  string memory */\n      0x60\n        /* \"Deep.sol\":1976:1981  _name */\n      0x03\n        /* \"Deep.sol\":1969:1981  return _name */\n      dup1\n      sload\n      tag_87\n      swap1\n      tag_88\n      jump\t// in\n    tag_87:\n      dup1\n      0x1f\n      add\n      0x20\n      dup1\n      swap2\n      div\n      mul\n      0x20\n      add\n      mload(0x40)\n      swap1\n      dup2\n      add\n      0x40\n      mstore\n      dup1\n      swap3\n      swap2\n      swap1\n      dup2\n      dup2\n      mstore\n      0x20\n      add\n      dup3\n      dup1\n      sload\n      tag_89\n      swap1\n      tag_88\n      jump\t// in\n    tag_89:\n      dup1\n      iszero\n      tag_90\n      jumpi\n      dup1\n      0x1f\n      lt\n      tag_91\n      jumpi\n      0x0100\n      dup1\n      dup4\n      sload\n      div\n      mul\n      dup4\n      mstore\n      swap2\n      0x20\n      add\n      swap2\n      jump(tag_90)\n    tag_91:\n      dup3\n      add\n      swap2\n      swap1\n      0x00\n      mstore\n      keccak256(0x00, 0x20)\n      swap1\n    tag_92:\n      dup2\n      sload\n      dup2\n      mstore\n      swap1\n      0x01\n      add\n      swap1\n      0x20\n      add\n      dup1\n      dup4\n      gt\n      tag_92\n      jumpi\n      dup3\n      swap1\n      sub\n      0x1f\n      and\n      dup3\n      add\n      swap2\n    tag_90:\n      pop\n      pop\n      pop\n      pop\n      pop\n      swap1\n      pop\n        /* \"Deep.sol\":1890:1988  function name() public view virtual override returns (string memory) {... */\n      swap1\n      jump\t// out\n        /* \"Deep.sol\":2792:2989  function approve(address spender, uint256 amount) public virtual override returns (bool) {... */\n    tag_29:\n        /* \"Deep.sol\":2875:2879  bool */\n      0x00\n        /* \"Deep.sol\":1372:1382  msg.sender */\n      caller\n        /* \"Deep.sol\":2929:2961  _approve(owner, spender, amount) */\n      tag_96\n        /* \"Deep.sol\":1372:1382  msg.sender */\n      dup2\n        /* \"Deep.sol\":2945:2952  spender */\n      dup6\n        /* \"Deep.sol\":2954:2960  amount */\n      dup6\n        /* \"Deep.sol\":2929:2937  _approve */\n      tag_97\n        /* \"Deep.sol\":2929:2961  _approve(owner, spender, amount) */\n      jump\t// in\n    tag_96:\n        /* \"Deep.sol\":2978:2982  true */\n      0x01\n        /* \"Deep.sol\":2971:2982  return true */\n      swap2\n      pop\n      pop\n        /* \"Deep.sol\":2792:2989  function approve(address spender, uint256 amount) public virtual override returns (bool) {... */\n    tag_93:\n      swap3\n      swap2\n      pop\n      pop\n      jump\t// out\n        /* \"Deep.sol\":9187:9270  function setOwner(address _owner) external onlyOwner{... */\n    tag_35:\n        /* \"Deep.sol\":8593:8598  owner */\n      and(sub(shl(0xa0, 0x01), 0x01), sload(0x05))\n        /* \"Deep.sol\":8602:8612  msg.sender */\n      caller\n        /* \"Deep.sol\":8593:8612  owner == msg.sender */\n      eq\n        /* \"Deep.sol\":8585:8635  require(owner == msg.sender,\"Caller is not owner\") */\n      tag_99\n      jumpi\n      mload(0x40)\n      shl(0xe5, 0x461bcd)\n      dup2\n      mstore\n        /* \"#utility.yul\":3151:3153   */\n      0x20\n        /* \"Deep.sol\":8585:8635  require(owner == msg.sender,\"Caller is not owner\") */\n      0x04\n      dup3\n      add\n        /* \"#utility.yul\":3133:3154   */\n      mstore\n        /* \"#utility.yul\":3190:3192   */\n      0x13\n        /* \"#utility.yul\":3170:3188   */\n      0x24\n      dup3\n      add\n        /* \"#utility.yul\":3163:3193   */\n      mstore\n      shl(0x69, 0x21b0b63632b91034b9903737ba1037bbb732b9)\n        /* \"#utility.yul\":3209:3227   */\n      0x44\n      dup3\n      add\n        /* \"#utility.yul\":3202:3251   */\n      mstore\n        /* \"#utility.yul\":3268:3286   */\n      0x64\n      add\n        /* \"Deep.sol\":8585:8635  require(owner == msg.sender,\"Caller is not owner\") */\n    tag_100:\n      mload(0x40)\n      dup1\n      swap2\n      sub\n      swap1\n      revert\n    tag_99:\n        /* \"Deep.sol\":9249:9254  owner */\n      0x05\n        /* \"Deep.sol\":9249:9263  owner = _owner */\n      dup1\n      sload\n      not(sub(shl(0xa0, 0x01), 0x01))\n      and\n      sub(shl(0xa0, 0x01), 0x01)\n      swap3\n      swap1\n      swap3\n      and\n      swap2\n      swap1\n      swap2\n      or\n      swap1\n      sstore\n        /* \"Deep.sol\":9187:9270  function setOwner(address _owner) external onlyOwner{... */\n      jump\t// out\n        /* \"Deep.sol\":2995:3251  function transferFrom(address from, address to, uint256 amount) public virtual override returns (bool) {... */\n    tag_43:\n        /* \"Deep.sol\":3092:3096  bool */\n      0x00\n        /* \"Deep.sol\":1372:1382  msg.sender */\n      caller\n        /* \"Deep.sol\":3148:3186  _spendAllowance(from, spender, amount) */\n      tag_106\n        /* \"Deep.sol\":3164:3168  from */\n      dup6\n        /* \"Deep.sol\":1372:1382  msg.sender */\n      dup3\n        /* \"Deep.sol\":3179:3185  amount */\n      dup6\n        /* \"Deep.sol\":3148:3163  _spendAllowance */\n      tag_107\n        /* \"Deep.sol\":3148:3186  _spendAllowance(from, spender, amount) */\n      jump\t// in\n    tag_106:\n        /* \"Deep.sol\":3196:3223  _transfer(from, to, amount) */\n      tag_108\n        /* \"Deep.sol\":3206:3210  from */\n      dup6\n        /* \"Deep.sol\":3212:3214  to */\n      dup6\n        /* \"Deep.sol\":3216:3222  amount */\n      dup6\n        /* \"Deep.sol\":3196:3205  _transfer */\n      tag_109\n        /* \"Deep.sol\":3196:3223  _transfer(from, to, amount) */\n      jump\t// in\n    tag_108:\n      pop\n        /* \"Deep.sol\":3240:3244  true */\n      0x01\n      swap5\n        /* \"Deep.sol\":2995:3251  function transferFrom(address from, address to, uint256 amount) public virtual override returns (bool) {... */\n      swap4\n      pop\n      pop\n      pop\n      pop\n      jump\t// out\n        /* \"Deep.sol\":3257:3491  function increaseAllowance(address spender, uint256 addedValue) public virtual returns (bool) {... */\n    tag_51:\n        /* \"Deep.sol\":3345:3349  bool */\n      0x00\n        /* \"Deep.sol\":1372:1382  msg.sender */\n      caller\n        /* \"Deep.sol\":3399:3463  _approve(owner, spender, allowance(owner, spender) + addedValue) */\n      tag_96\n        /* \"Deep.sol\":1372:1382  msg.sender */\n      dup2\n        /* \"Deep.sol\":3415:3422  spender */\n      dup6\n        /* \"Deep.sol\":3452:3462  addedValue */\n      dup6\n        /* \"Deep.sol\":3424:3449  allowance(owner, spender) */\n      tag_114\n        /* \"Deep.sol\":1372:1382  msg.sender */\n      dup4\n        /* \"Deep.sol\":3415:3422  spender */\n      dup4\n        /* \"Deep.sol\":3424:3433  allowance */\n      tag_84\n        /* \"Deep.sol\":3424:3449  allowance(owner, spender) */\n      jump\t// in\n    tag_114:\n        /* \"Deep.sol\":3424:3462  allowance(owner, spender) + addedValue */\n      tag_115\n      swap2\n      swap1\n      tag_116\n      jump\t// in\n    tag_115:\n        /* \"Deep.sol\":3399:3407  _approve */\n      tag_97\n        /* \"Deep.sol\":3399:3463  _approve(owner, spender, allowance(owner, spender) + addedValue) */\n      jump\t// in\n        /* \"Deep.sol\":9087:9181  function setSlippage(address _slippage) public onlyOwner {... */\n    tag_66:\n        /* \"Deep.sol\":8593:8598  owner */\n      and(sub(shl(0xa0, 0x01), 0x01), sload(0x05))\n        /* \"Deep.sol\":8602:8612  msg.sender */\n      caller\n        /* \"Deep.sol\":8593:8612  owner == msg.sender */\n      eq\n        /* \"Deep.sol\":8585:8635  require(owner == msg.sender,\"Caller is not owner\") */\n      tag_119\n      jumpi\n      mload(0x40)\n      shl(0xe5, 0x461bcd)\n      dup2\n      mstore\n        /* \"#utility.yul\":3151:3153   */\n      0x20\n        /* \"Deep.sol\":8585:8635  require(owner == msg.sender,\"Caller is not owner\") */\n      0x04\n      dup3\n      add\n        /* \"#utility.yul\":3133:3154   */\n      mstore\n        /* \"#utility.yul\":3190:3192   */\n      0x13\n        /* \"#utility.yul\":3170:3188   */\n      0x24\n      dup3\n      add\n        /* \"#utility.yul\":3163:3193   */\n      mstore\n      shl(0x69, 0x21b0b63632b91034b9903737ba1037bbb732b9)\n        /* \"#utility.yul\":3209:3227   */\n      0x44\n      dup3\n      add\n        /* \"#utility.yul\":3202:3251   */\n      mstore\n        /* \"#utility.yul\":3268:3286   */\n      0x64\n      add\n        /* \"Deep.sol\":8585:8635  require(owner == msg.sender,\"Caller is not owner\") */\n      tag_100\n        /* \"#utility.yul\":2949:3292   */\n      jump\n        /* \"Deep.sol\":8585:8635  require(owner == msg.sender,\"Caller is not owner\") */\n    tag_119:\n        /* \"Deep.sol\":9154:9162  slippage */\n      0x07\n        /* \"Deep.sol\":9154:9174  slippage = _slippage */\n      dup1\n      sload\n      not(sub(shl(0xa0, 0x01), 0x01))\n      and\n      sub(shl(0xa0, 0x01), 0x01)\n      swap3\n      swap1\n      swap3\n      and\n      swap2\n      swap1\n      swap2\n      or\n      swap1\n      sstore\n        /* \"Deep.sol\":9087:9181  function setSlippage(address _slippage) public onlyOwner {... */\n      jump\t// out\n        /* \"Deep.sol\":1994:2096  function symbol() public view virtual override returns (string memory) {... */\n    tag_71:\n        /* \"Deep.sol\":2050:2063  string memory */\n      0x60\n        /* \"Deep.sol\":2082:2089  _symbol */\n      0x04\n        /* \"Deep.sol\":2075:2089  return _symbol */\n      dup1\n      sload\n      tag_87\n      swap1\n      tag_88\n      jump\t// in\n        /* \"Deep.sol\":3497:3924  function decreaseAllowance(address spender, uint256 subtractedValue) public virtual returns (bool) {... */\n    tag_75:\n        /* \"Deep.sol\":3590:3594  bool */\n      0x00\n        /* \"Deep.sol\":1372:1382  msg.sender */\n      caller\n        /* \"Deep.sol\":3590:3594  bool */\n      dup2\n        /* \"Deep.sol\":3671:3696  allowance(owner, spender) */\n      tag_130\n        /* \"Deep.sol\":1372:1382  msg.sender */\n      dup3\n        /* \"Deep.sol\":3688:3695  spender */\n      dup7\n        /* \"Deep.sol\":3671:3680  allowance */\n      tag_84\n        /* \"Deep.sol\":3671:3696  allowance(owner, spender) */\n      jump\t// in\n    tag_130:\n        /* \"Deep.sol\":3644:3696  uint256 currentAllowance = allowance(owner, spender) */\n      swap1\n      pop\n        /* \"Deep.sol\":3734:3749  subtractedValue */\n      dup4\n        /* \"Deep.sol\":3714:3730  currentAllowance */\n      dup2\n        /* \"Deep.sol\":3714:3749  currentAllowance >= subtractedValue */\n      lt\n      iszero\n        /* \"Deep.sol\":3706:3791  require(currentAllowance >= subtractedValue, \"ERC20: decreased allowance below zero\") */\n      tag_131\n      jumpi\n      mload(0x40)\n      shl(0xe5, 0x461bcd)\n      dup2\n      mstore\n        /* \"#utility.yul\":3761:3763   */\n      0x20\n        /* \"Deep.sol\":3706:3791  require(currentAllowance >= subtractedValue, \"ERC20: decreased allowance below zero\") */\n      0x04\n      dup3\n      add\n        /* \"#utility.yul\":3743:3764   */\n      mstore\n        /* \"#utility.yul\":3800:3802   */\n      0x25\n        /* \"#utility.yul\":3780:3798   */\n      0x24\n      dup3\n      add\n        /* \"#utility.yul\":3773:3803   */\n      mstore\n        /* \"#utility.yul\":3839:3873   */\n      0x45524332303a2064656372656173656420616c6c6f77616e63652062656c6f77\n        /* \"#utility.yul\":3819:3837   */\n      0x44\n      dup3\n      add\n        /* \"#utility.yul\":3812:3874   */\n      mstore\n      shl(0xd8, 0x207a65726f)\n        /* \"#utility.yul\":3890:3908   */\n      0x64\n      dup3\n      add\n        /* \"#utility.yul\":3883:3918   */\n      mstore\n        /* \"#utility.yul\":3935:3954   */\n      0x84\n      add\n        /* \"Deep.sol\":3706:3791  require(currentAllowance >= subtractedValue, \"ERC20: decreased allowance below zero\") */\n      tag_100\n        /* \"#utility.yul\":3559:3960   */\n      jump\n        /* \"Deep.sol\":3706:3791  require(currentAllowance >= subtractedValue, \"ERC20: decreased allowance below zero\") */\n    tag_131:\n        /* \"Deep.sol\":3825:3885  _approve(owner, spender, currentAllowance - subtractedValue) */\n      tag_108\n        /* \"Deep.sol\":3834:3839  owner */\n      dup3\n        /* \"Deep.sol\":3841:3848  spender */\n      dup7\n        /* \"Deep.sol\":3869:3884  subtractedValue */\n      dup7\n        /* \"Deep.sol\":3850:3866  currentAllowance */\n      dup5\n        /* \"Deep.sol\":3850:3884  currentAllowance - subtractedValue */\n      sub\n        /* \"Deep.sol\":3825:3833  _approve */\n      tag_97\n        /* \"Deep.sol\":3825:3885  _approve(owner, spender, currentAllowance - subtractedValue) */\n      jump\t// in\n        /* \"Deep.sol\":2442:2631  function transfer(address to, uint256 amount) public virtual override returns (bool) {... */\n    tag_79:\n        /* \"Deep.sol\":2521:2525  bool */\n      0x00\n        /* \"Deep.sol\":1372:1382  msg.sender */\n      caller\n        /* \"Deep.sol\":2575:2603  _transfer(owner, to, amount) */\n      tag_96\n        /* \"Deep.sol\":1372:1382  msg.sender */\n      dup2\n        /* \"Deep.sol\":2592:2594  to */\n      dup6\n        /* \"Deep.sol\":2596:2602  amount */\n      dup6\n        /* \"Deep.sol\":2575:2584  _transfer */\n      tag_109\n        /* \"Deep.sol\":2575:2603  _transfer(owner, to, amount) */\n      jump\t// in\n        /* \"Deep.sol\":2637:2786  function allowance(address owner, address spender) public view virtual override returns (uint256) {... */\n    tag_84:\n      sub(shl(0xa0, 0x01), 0x01)\n        /* \"Deep.sol\":2752:2770  _allowances[owner] */\n      swap2\n      dup3\n      and\n        /* \"Deep.sol\":2726:2733  uint256 */\n      0x00\n        /* \"Deep.sol\":2752:2770  _allowances[owner] */\n      swap1\n      dup2\n      mstore\n        /* \"Deep.sol\":2752:2763  _allowances */\n      0x01\n        /* \"Deep.sol\":2752:2770  _allowances[owner] */\n      0x20\n      swap1\n      dup2\n      mstore\n      0x40\n      dup1\n      dup4\n      keccak256\n        /* \"Deep.sol\":2752:2779  _allowances[owner][spender] */\n      swap4\n      swap1\n      swap5\n      and\n      dup3\n      mstore\n      swap2\n      swap1\n      swap2\n      mstore\n      keccak256\n      sload\n      swap1\n        /* \"Deep.sol\":2637:2786  function allowance(address owner, address spender) public view virtual override returns (uint256) {... */\n      jump\t// out\n        /* \"Deep.sol\":5930:6270  function _approve(address owner, address spender, uint256 amount) internal virtual {... */\n    tag_97:\n      sub(shl(0xa0, 0x01), 0x01)\n        /* \"Deep.sol\":6031:6050  owner != address(0) */\n      dup4\n      and\n        /* \"Deep.sol\":6023:6091  require(owner != address(0), \"ERC20: approve from the zero address\") */\n      tag_141\n      jumpi\n      mload(0x40)\n      shl(0xe5, 0x461bcd)\n      dup2\n      mstore\n        /* \"#utility.yul\":4167:4169   */\n      0x20\n        /* \"Deep.sol\":6023:6091  require(owner != address(0), \"ERC20: approve from the zero address\") */\n      0x04\n      dup3\n      add\n        /* \"#utility.yul\":4149:4170   */\n      mstore\n        /* \"#utility.yul\":4206:4208   */\n      0x24\n        /* \"#utility.yul\":4186:4204   */\n      dup1\n      dup3\n      add\n        /* \"#utility.yul\":4179:4209   */\n      mstore\n        /* \"#utility.yul\":4245:4279   */\n      0x45524332303a20617070726f76652066726f6d20746865207a65726f20616464\n        /* \"#utility.yul\":4225:4243   */\n      0x44\n      dup3\n      add\n        /* \"#utility.yul\":4218:4280   */\n      mstore\n      shl(0xe0, 0x72657373)\n        /* \"#utility.yul\":4296:4314   */\n      0x64\n      dup3\n      add\n        /* \"#utility.yul\":4289:4323   */\n      mstore\n        /* \"#utility.yul\":4340:4359   */\n      0x84\n      add\n        /* \"Deep.sol\":6023:6091  require(owner != address(0), \"ERC20: approve from the zero address\") */\n      tag_100\n        /* \"#utility.yul\":3965:4365   */\n      jump\n        /* \"Deep.sol\":6023:6091  require(owner != address(0), \"ERC20: approve from the zero address\") */\n    tag_141:\n      sub(shl(0xa0, 0x01), 0x01)\n        /* \"Deep.sol\":6109:6130  spender != address(0) */\n      dup3\n      and\n        /* \"Deep.sol\":6101:6169  require(spender != address(0), \"ERC20: approve to the zero address\") */\n      tag_144\n      jumpi\n      mload(0x40)\n      shl(0xe5, 0x461bcd)\n      dup2\n      mstore\n        /* \"#utility.yul\":4572:4574   */\n      0x20\n        /* \"Deep.sol\":6101:6169  require(spender != address(0), \"ERC20: approve to the zero address\") */\n      0x04\n      dup3\n      add\n        /* \"#utility.yul\":4554:4575   */\n      mstore\n        /* \"#utility.yul\":4611:4613   */\n      0x22\n        /* \"#utility.yul\":4591:4609   */\n      0x24\n      dup3\n      add\n        /* \"#utility.yul\":4584:4614   */\n      mstore\n        /* \"#utility.yul\":4650:4684   */\n      0x45524332303a20617070726f766520746f20746865207a65726f206164647265\n        /* \"#utility.yul\":4630:4648   */\n      0x44\n      dup3\n      add\n        /* \"#utility.yul\":4623:4685   */\n      mstore\n      shl(0xf0, 0x7373)\n        /* \"#utility.yul\":4701:4719   */\n      0x64\n      dup3\n      add\n        /* \"#utility.yul\":4694:4726   */\n      mstore\n        /* \"#utility.yul\":4743:4762   */\n      0x84\n      add\n        /* \"Deep.sol\":6101:6169  require(spender != address(0), \"ERC20: approve to the zero address\") */\n      tag_100\n        /* \"#utility.yul\":4370:4768   */\n      jump\n        /* \"Deep.sol\":6101:6169  require(spender != address(0), \"ERC20: approve to the zero address\") */\n    tag_144:\n      sub(shl(0xa0, 0x01), 0x01)\n        /* \"Deep.sol\":6180:6198  _allowances[owner] */\n      dup4\n      dup2\n      and\n      0x00\n      dup2\n      dup2\n      mstore\n        /* \"Deep.sol\":6180:6191  _allowances */\n      0x01\n        /* \"Deep.sol\":6180:6198  _allowances[owner] */\n      0x20\n      swap1\n      dup2\n      mstore\n      0x40\n      dup1\n      dup4\n      keccak256\n        /* \"Deep.sol\":6180:6207  _allowances[owner][spender] */\n      swap5\n      dup8\n      and\n      dup1\n      dup5\n      mstore\n      swap5\n      dup3\n      mstore\n      swap2\n      dup3\n      swap1\n      keccak256\n        /* \"Deep.sol\":6180:6216  _allowances[owner][spender] = amount */\n      dup6\n      swap1\n      sstore\n        /* \"Deep.sol\":6231:6263  Approval(owner, spender, amount) */\n      swap1\n      mload\n        /* \"#utility.yul\":1533:1558   */\n      dup5\n      dup2\n      mstore\n        /* \"Deep.sol\":6231:6263  Approval(owner, spender, amount) */\n      0x8c5be1e5ebec7d5bd14f71427d1e84f3dd0314c0f7b2291e5b200ac8c7c3b925\n      swap2\n        /* \"#utility.yul\":1506:1524   */\n      add\n        /* \"Deep.sol\":6231:6263  Approval(owner, spender, amount) */\n      mload(0x40)\n      dup1\n      swap2\n      sub\n      swap1\n      log3\n        /* \"Deep.sol\":5930:6270  function _approve(address owner, address spender, uint256 amount) internal virtual {... */\n      pop\n      pop\n      pop\n      jump\t// out\n        /* \"Deep.sol\":6276:6687  function _spendAllowance(address owner, address spender, uint256 amount) internal virtual {... */\n    tag_107:\n        /* \"Deep.sol\":6376:6400  uint256 currentAllowance */\n      0x00\n        /* \"Deep.sol\":6403:6428  allowance(owner, spender) */\n      tag_149\n        /* \"Deep.sol\":6413:6418  owner */\n      dup5\n        /* \"Deep.sol\":6420:6427  spender */\n      dup5\n        /* \"Deep.sol\":6403:6412  allowance */\n      tag_84\n        /* \"Deep.sol\":6403:6428  allowance(owner, spender) */\n      jump\t// in\n    tag_149:\n        /* \"Deep.sol\":6376:6428  uint256 currentAllowance = allowance(owner, spender) */\n      swap1\n      pop\n      not(0x00)\n        /* \"Deep.sol\":6442:6458  currentAllowance */\n      dup2\n        /* \"Deep.sol\":6442:6479  currentAllowance != type(uint256).max */\n      eq\n        /* \"Deep.sol\":6438:6681  if (currentAllowance != type(uint256).max) {... */\n      tag_154\n      jumpi\n        /* \"Deep.sol\":6523:6529  amount */\n      dup2\n        /* \"Deep.sol\":6503:6519  currentAllowance */\n      dup2\n        /* \"Deep.sol\":6503:6529  currentAllowance >= amount */\n      lt\n      iszero\n        /* \"Deep.sol\":6495:6563  require(currentAllowance >= amount, \"ERC20: insufficient allowance\") */\n      tag_151\n      jumpi\n      mload(0x40)\n      shl(0xe5, 0x461bcd)\n      dup2\n      mstore\n        /* \"#utility.yul\":4975:4977   */\n      0x20\n        /* \"Deep.sol\":6495:6563  require(currentAllowance >= amount, \"ERC20: insufficient allowance\") */\n      0x04\n      dup3\n      add\n        /* \"#utility.yul\":4957:4978   */\n      mstore\n        /* \"#utility.yul\":5014:5016   */\n      0x1d\n        /* \"#utility.yul\":4994:5012   */\n      0x24\n      dup3\n      add\n        /* \"#utility.yul\":4987:5017   */\n      mstore\n        /* \"#utility.yul\":5053:5084   */\n      0x45524332303a20696e73756666696369656e7420616c6c6f77616e6365000000\n        /* \"#utility.yul\":5033:5051   */\n      0x44\n      dup3\n      add\n        /* \"#utility.yul\":5026:5085   */\n      mstore\n        /* \"#utility.yul\":5102:5120   */\n      0x64\n      add\n        /* \"Deep.sol\":6495:6563  require(currentAllowance >= amount, \"ERC20: insufficient allowance\") */\n      tag_100\n        /* \"#utility.yul\":4773:5126   */\n      jump\n        /* \"Deep.sol\":6495:6563  require(currentAllowance >= amount, \"ERC20: insufficient allowance\") */\n    tag_151:\n        /* \"Deep.sol\":6605:6656  _approve(owner, spender, currentAllowance - amount) */\n      tag_154\n        /* \"Deep.sol\":6614:6619  owner */\n      dup5\n        /* \"Deep.sol\":6621:6628  spender */\n      dup5\n        /* \"Deep.sol\":6649:6655  amount */\n      dup5\n        /* \"Deep.sol\":6630:6646  currentAllowance */\n      dup5\n        /* \"Deep.sol\":6630:6655  currentAllowance - amount */\n      sub\n        /* \"Deep.sol\":6605:6613  _approve */\n      tag_97\n        /* \"Deep.sol\":6605:6656  _approve(owner, spender, currentAllowance - amount) */\n      jump\t// in\n    tag_154:\n        /* \"Deep.sol\":6366:6687  {... */\n      pop\n        /* \"Deep.sol\":6276:6687  function _spendAllowance(address owner, address spender, uint256 amount) internal virtual {... */\n      pop\n      pop\n      pop\n      jump\t// out\n        /* \"Deep.sol\":8659:9081  function _transfer(address sender, address recipient, uint256 amount) internal virtual override {... */\n    tag_109:\n        /* \"Deep.sol\":8802:8815  uniswapV2Pair */\n      sload(0x06)\n        /* \"Deep.sol\":8765:8786  bool isSellOrPurchase */\n      0x00\n      swap1\n      sub(shl(0xa0, 0x01), 0x01)\n        /* \"Deep.sol\":8789:8815  recipient == uniswapV2Pair */\n      dup5\n      dup2\n      and\n        /* \"Deep.sol\":8802:8815  uniswapV2Pair */\n      swap2\n      and\n        /* \"Deep.sol\":8789:8815  recipient == uniswapV2Pair */\n      eq\n      dup1\n        /* \"Deep.sol\":8789:8842  recipient == uniswapV2Pair || sender == uniswapV2Pair */\n      tag_156\n      jumpi\n      pop\n        /* \"Deep.sol\":8829:8842  uniswapV2Pair */\n      sload(0x06)\n      sub(shl(0xa0, 0x01), 0x01)\n        /* \"Deep.sol\":8819:8842  sender == uniswapV2Pair */\n      dup6\n      dup2\n      and\n        /* \"Deep.sol\":8829:8842  uniswapV2Pair */\n      swap2\n      and\n        /* \"Deep.sol\":8819:8842  sender == uniswapV2Pair */\n      eq\n        /* \"Deep.sol\":8789:8842  recipient == uniswapV2Pair || sender == uniswapV2Pair */\n    tag_156:\n        /* \"Deep.sol\":8765:8842  bool isSellOrPurchase = recipient == uniswapV2Pair || sender == uniswapV2Pair */\n      swap1\n      pop\n        /* \"Deep.sol\":8853:8870  uint256 feeAmount */\n      0x00\n        /* \"Deep.sol\":8886:8889  100 */\n      0x64\n        /* \"Deep.sol\":8873:8883  amount * 3 */\n      tag_157\n        /* \"Deep.sol\":8873:8879  amount */\n      dup5\n        /* \"Deep.sol\":8882:8883  3 */\n      0x03\n        /* \"Deep.sol\":8873:8883  amount * 3 */\n      tag_158\n      jump\t// in\n    tag_157:\n        /* \"Deep.sol\":8873:8889  amount * 3 / 100 */\n      tag_159\n      swap2\n      swap1\n      tag_160\n      jump\t// in\n    tag_159:\n        /* \"Deep.sol\":8853:8889  uint256 feeAmount = amount * 3 / 100 */\n      swap1\n      pop\n        /* \"Deep.sol\":8903:8919  isSellOrPurchase */\n      dup2\n        /* \"Deep.sol\":8899:9023  if (isSellOrPurchase) {... */\n      iszero\n      tag_161\n      jumpi\n        /* \"Deep.sol\":8959:8967  slippage */\n      sload(0x07)\n        /* \"Deep.sol\":8935:8979  super._transfer(sender, slippage, feeAmount) */\n      tag_162\n      swap1\n        /* \"Deep.sol\":8951:8957  sender */\n      dup7\n      swap1\n      sub(shl(0xa0, 0x01), 0x01)\n        /* \"Deep.sol\":8959:8967  slippage */\n      and\n        /* \"Deep.sol\":8969:8978  feeAmount */\n      dup4\n        /* \"Deep.sol\":8935:8950  super._transfer */\n      tag_163\n        /* \"Deep.sol\":8935:8979  super._transfer(sender, slippage, feeAmount) */\n      jump\t// in\n    tag_162:\n        /* \"Deep.sol\":8993:9012  amount -= feeAmount */\n      tag_164\n        /* \"Deep.sol\":9003:9012  feeAmount */\n      dup2\n        /* \"Deep.sol\":8993:9012  amount -= feeAmount */\n      dup5\n      tag_165\n      jump\t// in\n    tag_164:\n      swap3\n      pop\n        /* \"Deep.sol\":8899:9023  if (isSellOrPurchase) {... */\n    tag_161:\n        /* \"Deep.sol\":9032:9074  super._transfer(sender, recipient, amount) */\n      tag_166\n        /* \"Deep.sol\":9048:9054  sender */\n      dup6\n        /* \"Deep.sol\":9056:9065  recipient */\n      dup6\n        /* \"Deep.sol\":9067:9073  amount */\n      dup6\n        /* \"Deep.sol\":9032:9047  super._transfer */\n      tag_163\n        /* \"Deep.sol\":9032:9074  super._transfer(sender, recipient, amount) */\n      jump\t// in\n    tag_166:\n        /* \"Deep.sol\":8755:9081  {... */\n      pop\n      pop\n        /* \"Deep.sol\":8659:9081  function _transfer(address sender, address recipient, uint256 amount) internal virtual override {... */\n      pop\n      pop\n      pop\n      jump\t// out\n        /* \"Deep.sol\":3930:4718  function _transfer(address from, address to, uint256 amount) internal virtual {... */\n    tag_163:\n      sub(shl(0xa0, 0x01), 0x01)\n        /* \"Deep.sol\":4026:4044  from != address(0) */\n      dup4\n      and\n        /* \"Deep.sol\":4018:4086  require(from != address(0), \"ERC20: transfer from the zero address\") */\n      tag_168\n      jumpi\n      mload(0x40)\n      shl(0xe5, 0x461bcd)\n      dup2\n      mstore\n        /* \"#utility.yul\":5861:5863   */\n      0x20\n        /* \"Deep.sol\":4018:4086  require(from != address(0), \"ERC20: transfer from the zero address\") */\n      0x04\n      dup3\n      add\n        /* \"#utility.yul\":5843:5864   */\n      mstore\n        /* \"#utility.yul\":5900:5902   */\n      0x25\n        /* \"#utility.yul\":5880:5898   */\n      0x24\n      dup3\n      add\n        /* \"#utility.yul\":5873:5903   */\n      mstore\n        /* \"#utility.yul\":5939:5973   */\n      0x45524332303a207472616e736665722066726f6d20746865207a65726f206164\n        /* \"#utility.yul\":5919:5937   */\n      0x44\n      dup3\n      add\n        /* \"#utility.yul\":5912:5974   */\n      mstore\n      shl(0xd8, 0x6472657373)\n        /* \"#utility.yul\":5990:6008   */\n      0x64\n      dup3\n      add\n        /* \"#utility.yul\":5983:6018   */\n      mstore\n        /* \"#utility.yul\":6035:6054   */\n      0x84\n      add\n        /* \"Deep.sol\":4018:4086  require(from != address(0), \"ERC20: transfer from the zero address\") */\n      tag_100\n        /* \"#utility.yul\":5659:6060   */\n      jump\n        /* \"Deep.sol\":4018:4086  require(from != address(0), \"ERC20: transfer from the zero address\") */\n    tag_168:\n      sub(shl(0xa0, 0x01), 0x01)\n        /* \"Deep.sol\":4104:4120  to != address(0) */\n      dup3\n      and\n        /* \"Deep.sol\":4096:4160  require(to != address(0), \"ERC20: transfer to the zero address\") */\n      tag_171\n      jumpi\n      mload(0x40)\n      shl(0xe5, 0x461bcd)\n      dup2\n      mstore\n        /* \"#utility.yul\":6267:6269   */\n      0x20\n        /* \"Deep.sol\":4096:4160  require(to != address(0), \"ERC20: transfer to the zero address\") */\n      0x04\n      dup3\n      add\n        /* \"#utility.yul\":6249:6270   */\n      mstore\n        /* \"#utility.yul\":6306:6308   */\n      0x23\n        /* \"#utility.yul\":6286:6304   */\n      0x24\n      dup3\n      add\n        /* \"#utility.yul\":6279:6309   */\n      mstore\n        /* \"#utility.yul\":6345:6379   */\n      0x45524332303a207472616e7366657220746f20746865207a65726f2061646472\n        /* \"#utility.yul\":6325:6343   */\n      0x44\n      dup3\n      add\n        /* \"#utility.yul\":6318:6380   */\n      mstore\n      shl(0xe8, 0x657373)\n        /* \"#utility.yul\":6396:6414   */\n      0x64\n      dup3\n      add\n        /* \"#utility.yul\":6389:6422   */\n      mstore\n        /* \"#utility.yul\":6439:6458   */\n      0x84\n      add\n        /* \"Deep.sol\":4096:4160  require(to != address(0), \"ERC20: transfer to the zero address\") */\n      tag_100\n        /* \"#utility.yul\":6065:6464   */\n      jump\n        /* \"Deep.sol\":4096:4160  require(to != address(0), \"ERC20: transfer to the zero address\") */\n    tag_171:\n      sub(shl(0xa0, 0x01), 0x01)\n        /* \"Deep.sol\":4242:4257  _balances[from] */\n      dup4\n      and\n        /* \"Deep.sol\":4220:4239  uint256 fromBalance */\n      0x00\n        /* \"Deep.sol\":4242:4257  _balances[from] */\n      swap1\n      dup2\n      mstore\n      0x20\n      dup2\n      swap1\n      mstore\n      0x40\n      swap1\n      keccak256\n      sload\n        /* \"Deep.sol\":4275:4296  fromBalance >= amount */\n      dup2\n      dup2\n      lt\n      iszero\n        /* \"Deep.sol\":4267:4339  require(fromBalance >= amount, \"ERC20: transfer amount exceeds balance\") */\n      tag_176\n      jumpi\n      mload(0x40)\n      shl(0xe5, 0x461bcd)\n      dup2\n      mstore\n        /* \"#utility.yul\":6671:6673   */\n      0x20\n        /* \"Deep.sol\":4267:4339  require(fromBalance >= amount, \"ERC20: transfer amount exceeds balance\") */\n      0x04\n      dup3\n      add\n        /* \"#utility.yul\":6653:6674   */\n      mstore\n        /* \"#utility.yul\":6710:6712   */\n      0x26\n        /* \"#utility.yul\":6690:6708   */\n      0x24\n      dup3\n      add\n        /* \"#utility.yul\":6683:6713   */\n      mstore\n        /* \"#utility.yul\":6749:6783   */\n      0x45524332303a207472616e7366657220616d6f756e7420657863656564732062\n        /* \"#utility.yul\":6729:6747   */\n      0x44\n      dup3\n      add\n        /* \"#utility.yul\":6722:6784   */\n      mstore\n      shl(0xd0, 0x616c616e6365)\n        /* \"#utility.yul\":6800:6818   */\n      0x64\n      dup3\n      add\n        /* \"#utility.yul\":6793:6829   */\n      mstore\n        /* \"#utility.yul\":6846:6865   */\n      0x84\n      add\n        /* \"Deep.sol\":4267:4339  require(fromBalance >= amount, \"ERC20: transfer amount exceeds balance\") */\n      tag_100\n        /* \"#utility.yul\":6469:6871   */\n      jump\n        /* \"Deep.sol\":4267:4339  require(fromBalance >= amount, \"ERC20: transfer amount exceeds balance\") */\n    tag_176:\n      sub(shl(0xa0, 0x01), 0x01)\n        /* \"Deep.sol\":4373:4388  _balances[from] */\n      dup5\n      dup2\n      and\n        /* \"Deep.sol\":4373:4382  _balances */\n      0x00\n        /* \"Deep.sol\":4373:4388  _balances[from] */\n      dup2\n      dup2\n      mstore\n      0x20\n      dup2\n      dup2\n      mstore\n      0x40\n      dup1\n      dup4\n      keccak256\n        /* \"Deep.sol\":4391:4411  fromBalance - amount */\n      dup8\n      dup8\n      sub\n        /* \"Deep.sol\":4373:4411  _balances[from] = fromBalance - amount */\n      swap1\n      sstore\n        /* \"Deep.sol\":4588:4601  _balances[to] */\n      swap4\n      dup8\n      and\n      dup1\n      dup4\n      mstore\n      swap2\n      dup5\n      swap1\n      keccak256\n        /* \"Deep.sol\":4588:4611  _balances[to] += amount */\n      dup1\n      sload\n      dup8\n      add\n      swap1\n      sstore\n        /* \"Deep.sol\":4637:4663  Transfer(from, to, amount) */\n      swap3\n      mload\n        /* \"#utility.yul\":1533:1558   */\n      dup6\n      dup2\n      mstore\n        /* \"Deep.sol\":4588:4601  _balances[to] */\n      swap1\n      swap3\n        /* \"Deep.sol\":4637:4663  Transfer(from, to, amount) */\n      0xddf252ad1be2c89b69c2b068fc378daa952ba7f163c4a11628f55a4df523b3ef\n      swap2\n        /* \"#utility.yul\":1506:1524   */\n      add\n        /* \"Deep.sol\":4637:4663  Transfer(from, to, amount) */\n      mload(0x40)\n      dup1\n      swap2\n      sub\n      swap1\n      log3\n        /* \"Deep.sol\":4674:4711  _afterTokenTransfer(from, to, amount) */\n      tag_154\n        /* \"Deep.sol\":6693:6784  function _beforeTokenTransfer(address from, address to, uint256 amount) internal virtual {} */\n      jump\n        /* \"#utility.yul\":14:562   */\n    tag_25:\n        /* \"#utility.yul\":126:130   */\n      0x00\n        /* \"#utility.yul\":155:157   */\n      0x20\n        /* \"#utility.yul\":184:186   */\n      dup1\n        /* \"#utility.yul\":173:182   */\n      dup4\n        /* \"#utility.yul\":166:187   */\n      mstore\n        /* \"#utility.yul\":216:222   */\n      dup4\n        /* \"#utility.yul\":210:223   */\n      mload\n        /* \"#utility.yul\":259:265   */\n      dup1\n        /* \"#utility.yul\":254:256   */\n      dup3\n        /* \"#utility.yul\":243:252   */\n      dup6\n        /* \"#utility.yul\":239:257   */\n      add\n        /* \"#utility.yul\":232:266   */\n      mstore\n        /* \"#utility.yul\":284:285   */\n      0x00\n        /* \"#utility.yul\":294:434   */\n    tag_188:\n        /* \"#utility.yul\":308:314   */\n      dup2\n        /* \"#utility.yul\":305:306   */\n      dup2\n        /* \"#utility.yul\":302:315   */\n      lt\n        /* \"#utility.yul\":294:434   */\n      iszero\n      tag_190\n      jumpi\n        /* \"#utility.yul\":403:417   */\n      dup6\n      dup2\n      add\n        /* \"#utility.yul\":399:422   */\n      dup4\n      add\n        /* \"#utility.yul\":393:423   */\n      mload\n        /* \"#utility.yul\":369:386   */\n      dup6\n      dup3\n      add\n        /* \"#utility.yul\":388:390   */\n      0x40\n        /* \"#utility.yul\":365:391   */\n      add\n        /* \"#utility.yul\":358:424   */\n      mstore\n        /* \"#utility.yul\":323:333   */\n      dup3\n      add\n        /* \"#utility.yul\":294:434   */\n      jump(tag_188)\n    tag_190:\n        /* \"#utility.yul\":298:301   */\n      pop\n        /* \"#utility.yul\":483:484   */\n      0x00\n        /* \"#utility.yul\":478:480   */\n      0x40\n        /* \"#utility.yul\":469:475   */\n      dup3\n        /* \"#utility.yul\":458:467   */\n      dup7\n        /* \"#utility.yul\":454:476   */\n      add\n        /* \"#utility.yul\":450:481   */\n      add\n        /* \"#utility.yul\":443:485   */\n      mstore\n        /* \"#utility.yul\":553:555   */\n      0x40\n        /* \"#utility.yul\":546:548   */\n      0x1f\n        /* \"#utility.yul\":542:549   */\n      not\n        /* \"#utility.yul\":537:539   */\n      0x1f\n        /* \"#utility.yul\":529:535   */\n      dup4\n        /* \"#utility.yul\":525:540   */\n      add\n        /* \"#utility.yul\":521:550   */\n      and\n        /* \"#utility.yul\":510:519   */\n      dup6\n        /* \"#utility.yul\":506:551   */\n      add\n        /* \"#utility.yul\":502:556   */\n      add\n        /* \"#utility.yul\":494:556   */\n      swap3\n      pop\n      pop\n      pop\n        /* \"#utility.yul\":14:562   */\n      swap3\n      swap2\n      pop\n      pop\n      jump\t// out\n        /* \"#utility.yul\":567:740   */\n    tag_184:\n        /* \"#utility.yul\":635:655   */\n      dup1\n      calldataload\n      sub(shl(0xa0, 0x01), 0x01)\n        /* \"#utility.yul\":684:715   */\n      dup2\n      and\n        /* \"#utility.yul\":674:716   */\n      dup2\n      eq\n        /* \"#utility.yul\":664:734   */\n      tag_192\n      jumpi\n        /* \"#utility.yul\":730:731   */\n      0x00\n        /* \"#utility.yul\":727:728   */\n      dup1\n        /* \"#utility.yul\":720:732   */\n      revert\n        /* \"#utility.yul\":664:734   */\n    tag_192:\n        /* \"#utility.yul\":567:740   */\n      swap2\n      swap1\n      pop\n      jump\t// out\n        /* \"#utility.yul\":745:999   */\n    tag_28:\n        /* \"#utility.yul\":813:819   */\n      0x00\n        /* \"#utility.yul\":821:827   */\n      dup1\n        /* \"#utility.yul\":874:876   */\n      0x40\n        /* \"#utility.yul\":862:871   */\n      dup4\n        /* \"#utility.yul\":853:860   */\n      dup6\n        /* \"#utility.yul\":849:872   */\n      sub\n        /* \"#utility.yul\":845:877   */\n      slt\n        /* \"#utility.yul\":842:894   */\n      iszero\n      tag_194\n      jumpi\n        /* \"#utility.yul\":890:891   */\n      0x00\n        /* \"#utility.yul\":887:888   */\n      dup1\n        /* \"#utility.yul\":880:892   */\n      revert\n        /* \"#utility.yul\":842:894   */\n    tag_194:\n        /* \"#utility.yul\":913:942   */\n      tag_195\n        /* \"#utility.yul\":932:941   */\n      dup4\n        /* \"#utility.yul\":913:942   */\n      tag_184\n      jump\t// in\n    tag_195:\n        /* \"#utility.yul\":903:942   */\n      swap5\n        /* \"#utility.yul\":989:991   */\n      0x20\n        /* \"#utility.yul\":974:992   */\n      swap4\n      swap1\n      swap4\n      add\n        /* \"#utility.yul\":961:993   */\n      calldataload\n      swap4\n      pop\n      pop\n      pop\n        /* \"#utility.yul\":745:999   */\n      jump\t// out\n        /* \"#utility.yul\":1196:1382   */\n    tag_34:\n        /* \"#utility.yul\":1255:1261   */\n      0x00\n        /* \"#utility.yul\":1308:1310   */\n      0x20\n        /* \"#utility.yul\":1296:1305   */\n      dup3\n        /* \"#utility.yul\":1287:1294   */\n      dup5\n        /* \"#utility.yul\":1283:1306   */\n      sub\n        /* \"#utility.yul\":1279:1311   */\n      slt\n        /* \"#utility.yul\":1276:1328   */\n      iszero\n      tag_198\n      jumpi\n        /* \"#utility.yul\":1324:1325   */\n      0x00\n        /* \"#utility.yul\":1321:1322   */\n      dup1\n        /* \"#utility.yul\":1314:1326   */\n      revert\n        /* \"#utility.yul\":1276:1328   */\n    tag_198:\n        /* \"#utility.yul\":1347:1376   */\n      tag_199\n        /* \"#utility.yul\":1366:1375   */\n      dup3\n        /* \"#utility.yul\":1347:1376   */\n      tag_184\n      jump\t// in\n    tag_199:\n        /* \"#utility.yul\":1337:1376   */\n      swap4\n        /* \"#utility.yul\":1196:1382   */\n      swap3\n      pop\n      pop\n      pop\n      jump\t// out\n        /* \"#utility.yul\":1569:1897   */\n    tag_42:\n        /* \"#utility.yul\":1646:1652   */\n      0x00\n        /* \"#utility.yul\":1654:1660   */\n      dup1\n        /* \"#utility.yul\":1662:1668   */\n      0x00\n        /* \"#utility.yul\":1715:1717   */\n      0x60\n        /* \"#utility.yul\":1703:1712   */\n      dup5\n        /* \"#utility.yul\":1694:1701   */\n      dup7\n        /* \"#utility.yul\":1690:1713   */\n      sub\n        /* \"#utility.yul\":1686:1718   */\n      slt\n        /* \"#utility.yul\":1683:1735   */\n      iszero\n      tag_202\n      jumpi\n        /* \"#utility.yul\":1731:1732   */\n      0x00\n        /* \"#utility.yul\":1728:1729   */\n      dup1\n        /* \"#utility.yul\":1721:1733   */\n      revert\n        /* \"#utility.yul\":1683:1735   */\n    tag_202:\n        /* \"#utility.yul\":1754:1783   */\n      tag_203\n        /* \"#utility.yul\":1773:1782   */\n      dup5\n        /* \"#utility.yul\":1754:1783   */\n      tag_184\n      jump\t// in\n    tag_203:\n        /* \"#utility.yul\":1744:1783   */\n      swap3\n      pop\n        /* \"#utility.yul\":1802:1840   */\n      tag_204\n        /* \"#utility.yul\":1836:1838   */\n      0x20\n        /* \"#utility.yul\":1825:1834   */\n      dup6\n        /* \"#utility.yul\":1821:1839   */\n      add\n        /* \"#utility.yul\":1802:1840   */\n      tag_184\n      jump\t// in\n    tag_204:\n        /* \"#utility.yul\":1792:1840   */\n      swap2\n      pop\n        /* \"#utility.yul\":1887:1889   */\n      0x40\n        /* \"#utility.yul\":1876:1885   */\n      dup5\n        /* \"#utility.yul\":1872:1890   */\n      add\n        /* \"#utility.yul\":1859:1891   */\n      calldataload\n        /* \"#utility.yul\":1849:1891   */\n      swap1\n      pop\n        /* \"#utility.yul\":1569:1897   */\n      swap3\n      pop\n      swap3\n      pop\n      swap3\n      jump\t// out\n        /* \"#utility.yul\":2299:2559   */\n    tag_83:\n        /* \"#utility.yul\":2367:2373   */\n      0x00\n        /* \"#utility.yul\":2375:2381   */\n      dup1\n        /* \"#utility.yul\":2428:2430   */\n      0x40\n        /* \"#utility.yul\":2416:2425   */\n      dup4\n        /* \"#utility.yul\":2407:2414   */\n      dup6\n        /* \"#utility.yul\":2403:2426   */\n      sub\n        /* \"#utility.yul\":2399:2431   */\n      slt\n        /* \"#utility.yul\":2396:2448   */\n      iszero\n      tag_208\n      jumpi\n        /* \"#utility.yul\":2444:2445   */\n      0x00\n        /* \"#utility.yul\":2441:2442   */\n      dup1\n        /* \"#utility.yul\":2434:2446   */\n      revert\n        /* \"#utility.yul\":2396:2448   */\n    tag_208:\n        /* \"#utility.yul\":2467:2496   */\n      tag_209\n        /* \"#utility.yul\":2486:2495   */\n      dup4\n        /* \"#utility.yul\":2467:2496   */\n      tag_184\n      jump\t// in\n    tag_209:\n        /* \"#utility.yul\":2457:2496   */\n      swap2\n      pop\n        /* \"#utility.yul\":2515:2553   */\n      tag_210\n        /* \"#utility.yul\":2549:2551   */\n      0x20\n        /* \"#utility.yul\":2538:2547   */\n      dup5\n        /* \"#utility.yul\":2534:2552   */\n      add\n        /* \"#utility.yul\":2515:2553   */\n      tag_184\n      jump\t// in\n    tag_210:\n        /* \"#utility.yul\":2505:2553   */\n      swap1\n      pop\n        /* \"#utility.yul\":2299:2559   */\n      swap3\n      pop\n      swap3\n      swap1\n      pop\n      jump\t// out\n        /* \"#utility.yul\":2564:2944   */\n    tag_88:\n        /* \"#utility.yul\":2643:2644   */\n      0x01\n        /* \"#utility.yul\":2639:2651   */\n      dup2\n      dup2\n      shr\n      swap1\n        /* \"#utility.yul\":2686:2698   */\n      dup3\n      and\n      dup1\n        /* \"#utility.yul\":2707:2768   */\n      tag_212\n      jumpi\n        /* \"#utility.yul\":2761:2765   */\n      0x7f\n        /* \"#utility.yul\":2753:2759   */\n      dup3\n        /* \"#utility.yul\":2749:2766   */\n      and\n        /* \"#utility.yul\":2739:2766   */\n      swap2\n      pop\n        /* \"#utility.yul\":2707:2768   */\n    tag_212:\n        /* \"#utility.yul\":2814:2816   */\n      0x20\n        /* \"#utility.yul\":2806:2812   */\n      dup3\n        /* \"#utility.yul\":2803:2817   */\n      lt\n        /* \"#utility.yul\":2783:2801   */\n      dup2\n        /* \"#utility.yul\":2780:2818   */\n      sub\n        /* \"#utility.yul\":2777:2938   */\n      tag_213\n      jumpi\n        /* \"#utility.yul\":2860:2870   */\n      0x4e487b71\n        /* \"#utility.yul\":2855:2858   */\n      0xe0\n        /* \"#utility.yul\":2851:2871   */\n      shl\n        /* \"#utility.yul\":2848:2849   */\n      0x00\n        /* \"#utility.yul\":2841:2872   */\n      mstore\n        /* \"#utility.yul\":2895:2899   */\n      0x22\n        /* \"#utility.yul\":2892:2893   */\n      0x04\n        /* \"#utility.yul\":2885:2900   */\n      mstore\n        /* \"#utility.yul\":2923:2927   */\n      0x24\n        /* \"#utility.yul\":2920:2921   */\n      0x00\n        /* \"#utility.yul\":2913:2928   */\n      revert\n        /* \"#utility.yul\":2777:2938   */\n    tag_213:\n      pop\n        /* \"#utility.yul\":2564:2944   */\n      swap2\n      swap1\n      pop\n      jump\t// out\n        /* \"#utility.yul\":3297:3424   */\n    tag_185:\n        /* \"#utility.yul\":3358:3368   */\n      0x4e487b71\n        /* \"#utility.yul\":3353:3356   */\n      0xe0\n        /* \"#utility.yul\":3349:3369   */\n      shl\n        /* \"#utility.yul\":3346:3347   */\n      0x00\n        /* \"#utility.yul\":3339:3370   */\n      mstore\n        /* \"#utility.yul\":3389:3393   */\n      0x11\n        /* \"#utility.yul\":3386:3387   */\n      0x04\n        /* \"#utility.yul\":3379:3394   */\n      mstore\n        /* \"#utility.yul\":3413:3417   */\n      0x24\n        /* \"#utility.yul\":3410:3411   */\n      0x00\n        /* \"#utility.yul\":3403:3418   */\n      revert\n        /* \"#utility.yul\":3429:3554   */\n    tag_116:\n        /* \"#utility.yul\":3494:3503   */\n      dup1\n      dup3\n      add\n        /* \"#utility.yul\":3515:3525   */\n      dup1\n      dup3\n      gt\n        /* \"#utility.yul\":3512:3548   */\n      iszero\n      tag_93\n      jumpi\n        /* \"#utility.yul\":3528:3546   */\n      tag_93\n      tag_185\n      jump\t// in\n        /* \"#utility.yul\":5131:5299   */\n    tag_158:\n        /* \"#utility.yul\":5204:5213   */\n      dup1\n      dup3\n      mul\n        /* \"#utility.yul\":5235:5244   */\n      dup2\n      iszero\n        /* \"#utility.yul\":5252:5267   */\n      dup3\n      dup3\n      div\n        /* \"#utility.yul\":5246:5268   */\n      dup5\n      eq\n        /* \"#utility.yul\":5232:5269   */\n      or\n        /* \"#utility.yul\":5222:5293   */\n      tag_93\n      jumpi\n        /* \"#utility.yul\":5273:5291   */\n      tag_93\n      tag_185\n      jump\t// in\n        /* \"#utility.yul\":5304:5521   */\n    tag_160:\n        /* \"#utility.yul\":5344:5345   */\n      0x00\n        /* \"#utility.yul\":5370:5371   */\n      dup3\n        /* \"#utility.yul\":5360:5492   */\n      tag_227\n      jumpi\n        /* \"#utility.yul\":5414:5424   */\n      0x4e487b71\n        /* \"#utility.yul\":5409:5412   */\n      0xe0\n        /* \"#utility.yul\":5405:5425   */\n      shl\n        /* \"#utility.yul\":5402:5403   */\n      0x00\n        /* \"#utility.yul\":5395:5426   */\n      mstore\n        /* \"#utility.yul\":5449:5453   */\n      0x12\n        /* \"#utility.yul\":5446:5447   */\n      0x04\n        /* \"#utility.yul\":5439:5454   */\n      mstore\n        /* \"#utility.yul\":5477:5481   */\n      0x24\n        /* \"#utility.yul\":5474:5475   */\n      0x00\n        /* \"#utility.yul\":5467:5482   */\n      revert\n        /* \"#utility.yul\":5360:5492   */\n    tag_227:\n      pop\n        /* \"#utility.yul\":5506:5515   */\n      div\n      swap1\n        /* \"#utility.yul\":5304:5521   */\n      jump\t// out\n        /* \"#utility.yul\":5526:5654   */\n    tag_165:\n        /* \"#utility.yul\":5593:5602   */\n      dup2\n      dup2\n      sub\n        /* \"#utility.yul\":5614:5625   */\n      dup2\n      dup2\n      gt\n        /* \"#utility.yul\":5611:5648   */\n      iszero\n      tag_93\n      jumpi\n        /* \"#utility.yul\":5628:5646   */\n      tag_93\n      tag_185\n      jump\t// in\n\n    auxdata: 0xa2646970667358221220fa514b27bb72ef904b28c9c2274014169774606cdcfae21d2c3889a871416b0664736f6c63430008120033\n}\n",
				"bytecode": {
					"linkReferences": {},
					"object": "60806040523480156200001157600080fd5b506040516200120738038062001207833981016040819052620000349162000408565b604051806040016040528060048152602001630446565760e41b815250604051806040016040528060048152602001630444545560e41b81525081600390816200007f9190620005a1565b5060046200008e8282620005a1565b50505060006c0c9f2c9cd04674edea400000009050620000e885600081518110620000bd57620000bd6200066d565b6020026020010151606483601e620000d6919062000699565b620000e29190620006b9565b6200030a565b6200011b856001815181106200010257620001026200066d565b60200260200101516064836005620000d6919062000699565b62000135856002815181106200010257620001026200066d565b6200014f856003815181106200010257620001026200066d565b62000182856004815181106200016957620001696200066d565b60200260200101516064836004620000d6919062000699565b620001b5856005815181106200019c576200019c6200066d565b60200260200101516064836001620000d6919062000699565b620001e885600681518110620001cf57620001cf6200066d565b60200260200101516064836032620000d6919062000699565b836001600160a01b031663c45a01556040518163ffffffff1660e01b8152600401602060405180830381865afa15801562000227573d6000803e3d6000fd5b505050506040513d601f19601f820116820180604052508101906200024d9190620006dc565b6040516364e329cb60e11b81526001600160a01b038581166004830152306024830152919091169063c9c65396906044016020604051808303816000875af11580156200029e573d6000803e3d6000fd5b505050506040513d601f19601f82011682018060405250810190620002c49190620006dc565b600680546001600160a01b039283166001600160a01b03199182161790915560078054949092169381169390931790555060058054909116331790555062000717915050565b6001600160a01b038216620003655760405162461bcd60e51b815260206004820152601f60248201527f45524332303a206d696e7420746f20746865207a65726f206164647265737300604482015260640160405180910390fd5b806002600082825462000379919062000701565b90915550506001600160a01b038216600081815260208181526040808320805486019055518481527fddf252ad1be2c89b69c2b068fc378daa952ba7f163c4a11628f55a4df523b3ef910160405180910390a35050565b505050565b634e487b7160e01b600052604160045260246000fd5b80516001600160a01b03811681146200040357600080fd5b919050565b600080600080608085870312156200041f57600080fd5b84516001600160401b03808211156200043757600080fd5b818701915087601f8301126200044c57600080fd5b8151602082821115620004635762000463620003d5565b8160051b604051601f19603f830116810181811086821117156200048b576200048b620003d5565b60405292835281830193508481018201928b841115620004aa57600080fd5b948201945b83861015620004d357620004c386620003eb565b85529482019493820193620004af565b9850620004e49050898201620003eb565b965050505050620004f860408601620003eb565b91506200050860608601620003eb565b905092959194509250565b600181811c908216806200052857607f821691505b6020821081036200054957634e487b7160e01b600052602260045260246000fd5b50919050565b601f821115620003d057600081815260208120601f850160051c81016020861015620005785750805b601f850160051c820191505b81811015620005995782815560010162000584565b505050505050565b81516001600160401b03811115620005bd57620005bd620003d5565b620005d581620005ce845462000513565b846200054f565b602080601f8311600181146200060d5760008415620005f45750858301515b600019600386901b1c1916600185901b17855562000599565b600085815260208120601f198616915b828110156200063e578886015182559484019460019091019084016200061d565b50858210156200065d5787850151600019600388901b60f8161c191681555b5050505050600190811b01905550565b634e487b7160e01b600052603260045260246000fd5b634e487b7160e01b600052601160045260246000fd5b8082028115828204841417620006b357620006b362000683565b92915050565b600082620006d757634e487b7160e01b600052601260045260246000fd5b500490565b600060208284031215620006ef57600080fd5b620006fa82620003eb565b9392505050565b80820180821115620006b357620006b362000683565b610ae080620007276000396000f3fe608060405234801561001057600080fd5b50600436106101005760003560e01c806349bd5a5e1161009757806395d89b411161006657806395d89b411461022f578063a457c2d714610237578063a9059cbb1461024a578063dd62ed3e1461025d57600080fd5b806349bd5a5e146101cd57806370a08231146101e05780637abd21b8146102095780638da5cb5b1461021c57600080fd5b806323b872dd116100d357806323b872dd1461016d578063313ce56714610180578063395093511461018f5780633e032a3b146101a257600080fd5b806306fdde0314610105578063095ea7b31461012357806313af40351461014657806318160ddd1461015b575b600080fd5b61010d610270565b60405161011a91906108d6565b60405180910390f35b610136610131366004610940565b610302565b604051901515815260200161011a565b61015961015436600461096a565b61031c565b005b6002545b60405190815260200161011a565b61013661017b36600461098c565b610393565b6040516012815260200161011a565b61013661019d366004610940565b6103b7565b6007546101b5906001600160a01b031681565b6040516001600160a01b03909116815260200161011a565b6006546101b5906001600160a01b031681565b61015f6101ee36600461096a565b6001600160a01b031660009081526020819052604090205490565b61015961021736600461096a565b6103d9565b6005546101b5906001600160a01b031681565b61010d61044b565b610136610245366004610940565b61045a565b610136610258366004610940565b6104d5565b61015f61026b3660046109c8565b6104e3565b60606003805461027f906109fb565b80601f01602080910402602001604051908101604052809291908181526020018280546102ab906109fb565b80156102f85780601f106102cd576101008083540402835291602001916102f8565b820191906000526020600020905b8154815290600101906020018083116102db57829003601f168201915b5050505050905090565b60003361031081858561050e565b60019150505b92915050565b6005546001600160a01b031633146103715760405162461bcd60e51b815260206004820152601360248201527221b0b63632b91034b9903737ba1037bbb732b960691b60448201526064015b60405180910390fd5b600580546001600160a01b0319166001600160a01b0392909216919091179055565b6000336103a1858285610632565b6103ac8585856106ac565b506001949350505050565b6000336103108185856103ca83836104e3565b6103d49190610a4b565b61050e565b6005546001600160a01b031633146104295760405162461bcd60e51b815260206004820152601360248201527221b0b63632b91034b9903737ba1037bbb732b960691b6044820152606401610368565b600780546001600160a01b0319166001600160a01b0392909216919091179055565b60606004805461027f906109fb565b6000338161046882866104e3565b9050838110156104c85760405162461bcd60e51b815260206004820152602560248201527f45524332303a2064656372656173656420616c6c6f77616e63652062656c6f77604482015264207a65726f60d81b6064820152608401610368565b6103ac828686840361050e565b6000336103108185856106ac565b6001600160a01b03918216600090815260016020908152604080832093909416825291909152205490565b6001600160a01b0383166105705760405162461bcd60e51b8152602060048201526024808201527f45524332303a20617070726f76652066726f6d20746865207a65726f206164646044820152637265737360e01b6064820152608401610368565b6001600160a01b0382166105d15760405162461bcd60e51b815260206004820152602260248201527f45524332303a20617070726f766520746f20746865207a65726f206164647265604482015261737360f01b6064820152608401610368565b6001600160a01b0383811660008181526001602090815260408083209487168084529482529182902085905590518481527f8c5be1e5ebec7d5bd14f71427d1e84f3dd0314c0f7b2291e5b200ac8c7c3b925910160405180910390a3505050565b600061063e84846104e3565b905060001981146106a657818110156106995760405162461bcd60e51b815260206004820152601d60248201527f45524332303a20696e73756666696369656e7420616c6c6f77616e63650000006044820152606401610368565b6106a6848484840361050e565b50505050565b6006546000906001600160a01b03848116911614806106d857506006546001600160a01b038581169116145b9050600060646106e9846003610a5e565b6106f39190610a75565b90508115610720576007546107139086906001600160a01b031683610732565b61071d8184610a97565b92505b61072b858585610732565b5050505050565b6001600160a01b0383166107965760405162461bcd60e51b815260206004820152602560248201527f45524332303a207472616e736665722066726f6d20746865207a65726f206164604482015264647265737360d81b6064820152608401610368565b6001600160a01b0382166107f85760405162461bcd60e51b815260206004820152602360248201527f45524332303a207472616e7366657220746f20746865207a65726f206164647260448201526265737360e81b6064820152608401610368565b6001600160a01b038316600090815260208190526040902054818110156108705760405162461bcd60e51b815260206004820152602660248201527f45524332303a207472616e7366657220616d6f756e7420657863656564732062604482015265616c616e636560d01b6064820152608401610368565b6001600160a01b03848116600081815260208181526040808320878703905593871680835291849020805487019055925185815290927fddf252ad1be2c89b69c2b068fc378daa952ba7f163c4a11628f55a4df523b3ef910160405180910390a36106a6565b600060208083528351808285015260005b81811015610903578581018301518582016040015282016108e7565b506000604082860101526040601f19601f8301168501019250505092915050565b80356001600160a01b038116811461093b57600080fd5b919050565b6000806040838503121561095357600080fd5b61095c83610924565b946020939093013593505050565b60006020828403121561097c57600080fd5b61098582610924565b9392505050565b6000806000606084860312156109a157600080fd5b6109aa84610924565b92506109b860208501610924565b9150604084013590509250925092565b600080604083850312156109db57600080fd5b6109e483610924565b91506109f260208401610924565b90509250929050565b600181811c90821680610a0f57607f821691505b602082108103610a2f57634e487b7160e01b600052602260045260246000fd5b50919050565b634e487b7160e01b600052601160045260246000fd5b8082018082111561031657610316610a35565b808202811582820484141761031657610316610a35565b600082610a9257634e487b7160e01b600052601260045260246000fd5b500490565b8181038181111561031657610316610a3556fea2646970667358221220fa514b27bb72ef904b28c9c2274014169774606cdcfae21d2c3889a871416b0664736f6c63430008120033",
					"opcodes": "PUSH1 0x80 PUSH1 0x40 MSTORE CALLVALUE DUP1 ISZERO PUSH3 0x11 JUMPI PUSH1 0x0 DUP1 REVERT JUMPDEST POP PUSH1 0x40 MLOAD PUSH3 0x1207 CODESIZE SUB DUP1 PUSH3 0x1207 DUP4 CODECOPY DUP2 ADD PUSH1 0x40 DUP2 SWAP1 MSTORE PUSH3 0x34 SWAP2 PUSH3 0x408 JUMP JUMPDEST PUSH1 0x40 MLOAD DUP1 PUSH1 0x40 ADD PUSH1 0x40 MSTORE DUP1 PUSH1 0x4 DUP2 MSTORE PUSH1 0x20 ADD PUSH4 0x4465657 PUSH1 0xE4 SHL DUP2 MSTORE POP PUSH1 0x40 MLOAD DUP1 PUSH1 0x40 ADD PUSH1 0x40 MSTORE DUP1 PUSH1 0x4 DUP2 MSTORE PUSH1 0x20 ADD PUSH4 0x4445455 PUSH1 0xE4 SHL DUP2 MSTORE POP DUP2 PUSH1 0x3 SWAP1 DUP2 PUSH3 0x7F SWAP2 SWAP1 PUSH3 0x5A1 JUMP JUMPDEST POP PUSH1 0x4 PUSH3 0x8E DUP3 DUP3 PUSH3 0x5A1 JUMP JUMPDEST POP POP POP PUSH1 0x0 PUSH13 0xC9F2C9CD04674EDEA40000000 SWAP1 POP PUSH3 0xE8 DUP6 PUSH1 0x0 DUP2 MLOAD DUP2 LT PUSH3 0xBD JUMPI PUSH3 0xBD PUSH3 0x66D JUMP JUMPDEST PUSH1 0x20 MUL PUSH1 0x20 ADD ADD MLOAD PUSH1 0x64 DUP4 PUSH1 0x1E PUSH3 0xD6 SWAP2 SWAP1 PUSH3 0x699 JUMP JUMPDEST PUSH3 0xE2 SWAP2 SWAP1 PUSH3 0x6B9 JUMP JUMPDEST PUSH3 0x30A JUMP JUMPDEST PUSH3 0x11B DUP6 PUSH1 0x1 DUP2 MLOAD DUP2 LT PUSH3 0x102 JUMPI PUSH3 0x102 PUSH3 0x66D JUMP JUMPDEST PUSH1 0x20 MUL PUSH1 0x20 ADD ADD MLOAD PUSH1 0x64 DUP4 PUSH1 0x5 PUSH3 0xD6 SWAP2 SWAP1 PUSH3 0x699 JUMP JUMPDEST PUSH3 0x135 DUP6 PUSH1 0x2 DUP2 MLOAD DUP2 LT PUSH3 0x102 JUMPI PUSH3 0x102 PUSH3 0x66D JUMP JUMPDEST PUSH3 0x14F DUP6 PUSH1 0x3 DUP2 MLOAD DUP2 LT PUSH3 0x102 JUMPI PUSH3 0x102 PUSH3 0x66D JUMP JUMPDEST PUSH3 0x182 DUP6 PUSH1 0x4 DUP2 MLOAD DUP2 LT PUSH3 0x169 JUMPI PUSH3 0x169 PUSH3 0x66D JUMP JUMPDEST PUSH1 0x20 MUL PUSH1 0x20 ADD ADD MLOAD PUSH1 0x64 DUP4 PUSH1 0x4 PUSH3 0xD6 SWAP2 SWAP1 PUSH3 0x699 JUMP JUMPDEST PUSH3 0x1B5 DUP6 PUSH1 0x5 DUP2 MLOAD DUP2 LT PUSH3 0x19C JUMPI PUSH3 0x19C PUSH3 0x66D JUMP JUMPDEST PUSH1 0x20 MUL PUSH1 0x20 ADD ADD MLOAD PUSH1 0x64 DUP4 PUSH1 0x1 PUSH3 0xD6 SWAP2 SWAP1 PUSH3 0x699 JUMP JUMPDEST PUSH3 0x1E8 DUP6 PUSH1 0x6 DUP2 MLOAD DUP2 LT PUSH3 0x1CF JUMPI PUSH3 0x1CF PUSH3 0x66D JUMP JUMPDEST PUSH1 0x20 MUL PUSH1 0x20 ADD ADD MLOAD PUSH1 0x64 DUP4 PUSH1 0x32 PUSH3 0xD6 SWAP2 SWAP1 PUSH3 0x699 JUMP JUMPDEST DUP4 PUSH1 0x1 PUSH1 0x1 PUSH1 0xA0 SHL SUB AND PUSH4 0xC45A0155 PUSH1 0x40 MLOAD DUP2 PUSH4 0xFFFFFFFF AND PUSH1 0xE0 SHL DUP2 MSTORE PUSH1 0x4 ADD PUSH1 0x20 PUSH1 0x40 MLOAD DUP1 DUP4 SUB DUP2 DUP7 GAS STATICCALL ISZERO DUP1 ISZERO PUSH3 0x227 JUMPI RETURNDATASIZE PUSH1 0x0 DUP1 RETURNDATACOPY RETURNDATASIZE PUSH1 0x0 REVERT JUMPDEST POP POP POP POP PUSH1 0x40 MLOAD RETURNDATASIZE PUSH1 0x1F NOT PUSH1 0x1F DUP3 ADD AND DUP3 ADD DUP1 PUSH1 0x40 MSTORE POP DUP2 ADD SWAP1 PUSH3 0x24D SWAP2 SWAP1 PUSH3 0x6DC JUMP JUMPDEST PUSH1 0x40 MLOAD PUSH4 0x64E329CB PUSH1 0xE1 SHL DUP2 MSTORE PUSH1 0x1 PUSH1 0x1 PUSH1 0xA0 SHL SUB DUP6 DUP2 AND PUSH1 0x4 DUP4 ADD MSTORE ADDRESS PUSH1 0x24 DUP4 ADD MSTORE SWAP2 SWAP1 SWAP2 AND SWAP1 PUSH4 0xC9C65396 SWAP1 PUSH1 0x44 ADD PUSH1 0x20 PUSH1 0x40 MLOAD DUP1 DUP4 SUB DUP2 PUSH1 0x0 DUP8 GAS CALL ISZERO DUP1 ISZERO PUSH3 0x29E JUMPI RETURNDATASIZE PUSH1 0x0 DUP1 RETURNDATACOPY RETURNDATASIZE PUSH1 0x0 REVERT JUMPDEST POP POP POP POP PUSH1 0x40 MLOAD RETURNDATASIZE PUSH1 0x1F NOT PUSH1 0x1F DUP3 ADD AND DUP3 ADD DUP1 PUSH1 0x40 MSTORE POP DUP2 ADD SWAP1 PUSH3 0x2C4 SWAP2 SWAP1 PUSH3 0x6DC JUMP JUMPDEST PUSH1 0x6 DUP1 SLOAD PUSH1 0x1 PUSH1 0x1 PUSH1 0xA0 SHL SUB SWAP3 DUP4 AND PUSH1 0x1 PUSH1 0x1 PUSH1 0xA0 SHL SUB NOT SWAP2 DUP3 AND OR SWAP1 SWAP2 SSTORE PUSH1 0x7 DUP1 SLOAD SWAP5 SWAP1 SWAP3 AND SWAP4 DUP2 AND SWAP4 SWAP1 SWAP4 OR SWAP1 SSTORE POP PUSH1 0x5 DUP1 SLOAD SWAP1 SWAP2 AND CALLER OR SWAP1 SSTORE POP PUSH3 0x717 SWAP2 POP POP JUMP JUMPDEST PUSH1 0x1 PUSH1 0x1 PUSH1 0xA0 SHL SUB DUP3 AND PUSH3 0x365 JUMPI PUSH1 0x40 MLOAD PUSH3 0x461BCD PUSH1 0xE5 SHL DUP2 MSTORE PUSH1 0x20 PUSH1 0x4 DUP3 ADD MSTORE PUSH1 0x1F PUSH1 0x24 DUP3 ADD MSTORE PUSH32 0x45524332303A206D696E7420746F20746865207A65726F206164647265737300 PUSH1 0x44 DUP3 ADD MSTORE PUSH1 0x64 ADD PUSH1 0x40 MLOAD DUP1 SWAP2 SUB SWAP1 REVERT JUMPDEST DUP1 PUSH1 0x2 PUSH1 0x0 DUP3 DUP3 SLOAD PUSH3 0x379 SWAP2 SWAP1 PUSH3 0x701 JUMP JUMPDEST SWAP1 SWAP2 SSTORE POP POP PUSH1 0x1 PUSH1 0x1 PUSH1 0xA0 SHL SUB DUP3 AND PUSH1 0x0 DUP2 DUP2 MSTORE PUSH1 0x20 DUP2 DUP2 MSTORE PUSH1 0x40 DUP1 DUP4 KECCAK256 DUP1 SLOAD DUP7 ADD SWAP1 SSTORE MLOAD DUP5 DUP2 MSTORE PUSH32 0xDDF252AD1BE2C89B69C2B068FC378DAA952BA7F163C4A11628F55A4DF523B3EF SWAP2 ADD PUSH1 0x40 MLOAD DUP1 SWAP2 SUB SWAP1 LOG3 POP POP JUMP JUMPDEST POP POP POP JUMP JUMPDEST PUSH4 0x4E487B71 PUSH1 0xE0 SHL PUSH1 0x0 MSTORE PUSH1 0x41 PUSH1 0x4 MSTORE PUSH1 0x24 PUSH1 0x0 REVERT JUMPDEST DUP1 MLOAD PUSH1 0x1 PUSH1 0x1 PUSH1 0xA0 SHL SUB DUP2 AND DUP2 EQ PUSH3 0x403 JUMPI PUSH1 0x0 DUP1 REVERT JUMPDEST SWAP2 SWAP1 POP JUMP JUMPDEST PUSH1 0x0 DUP1 PUSH1 0x0 DUP1 PUSH1 0x80 DUP6 DUP8 SUB SLT ISZERO PUSH3 0x41F JUMPI PUSH1 0x0 DUP1 REVERT JUMPDEST DUP5 MLOAD PUSH1 0x1 PUSH1 0x1 PUSH1 0x40 SHL SUB DUP1 DUP3 GT ISZERO PUSH3 0x437 JUMPI PUSH1 0x0 DUP1 REVERT JUMPDEST DUP2 DUP8 ADD SWAP2 POP DUP8 PUSH1 0x1F DUP4 ADD SLT PUSH3 0x44C JUMPI PUSH1 0x0 DUP1 REVERT JUMPDEST DUP2 MLOAD PUSH1 0x20 DUP3 DUP3 GT ISZERO PUSH3 0x463 JUMPI PUSH3 0x463 PUSH3 0x3D5 JUMP JUMPDEST DUP2 PUSH1 0x5 SHL PUSH1 0x40 MLOAD PUSH1 0x1F NOT PUSH1 0x3F DUP4 ADD AND DUP2 ADD DUP2 DUP2 LT DUP7 DUP3 GT OR ISZERO PUSH3 0x48B JUMPI PUSH3 0x48B PUSH3 0x3D5 JUMP JUMPDEST PUSH1 0x40 MSTORE SWAP3 DUP4 MSTORE DUP2 DUP4 ADD SWAP4 POP DUP5 DUP2 ADD DUP3 ADD SWAP3 DUP12 DUP5 GT ISZERO PUSH3 0x4AA JUMPI PUSH1 0x0 DUP1 REVERT JUMPDEST SWAP5 DUP3 ADD SWAP5 JUMPDEST DUP4 DUP7 LT ISZERO PUSH3 0x4D3 JUMPI PUSH3 0x4C3 DUP7 PUSH3 0x3EB JUMP JUMPDEST DUP6 MSTORE SWAP5 DUP3 ADD SWAP5 SWAP4 DUP3 ADD SWAP4 PUSH3 0x4AF JUMP JUMPDEST SWAP9 POP PUSH3 0x4E4 SWAP1 POP DUP10 DUP3 ADD PUSH3 0x3EB JUMP JUMPDEST SWAP7 POP POP POP POP POP PUSH3 0x4F8 PUSH1 0x40 DUP7 ADD PUSH3 0x3EB JUMP JUMPDEST SWAP2 POP PUSH3 0x508 PUSH1 0x60 DUP7 ADD PUSH3 0x3EB JUMP JUMPDEST SWAP1 POP SWAP3 SWAP6 SWAP2 SWAP5 POP SWAP3 POP JUMP JUMPDEST PUSH1 0x1 DUP2 DUP2 SHR SWAP1 DUP3 AND DUP1 PUSH3 0x528 JUMPI PUSH1 0x7F DUP3 AND SWAP2 POP JUMPDEST PUSH1 0x20 DUP3 LT DUP2 SUB PUSH3 0x549 JUMPI PUSH4 0x4E487B71 PUSH1 0xE0 SHL PUSH1 0x0 MSTORE PUSH1 0x22 PUSH1 0x4 MSTORE PUSH1 0x24 PUSH1 0x0 REVERT JUMPDEST POP SWAP2 SWAP1 POP JUMP JUMPDEST PUSH1 0x1F DUP3 GT ISZERO PUSH3 0x3D0 JUMPI PUSH1 0x0 DUP2 DUP2 MSTORE PUSH1 0x20 DUP2 KECCAK256 PUSH1 0x1F DUP6 ADD PUSH1 0x5 SHR DUP2 ADD PUSH1 0x20 DUP7 LT ISZERO PUSH3 0x578 JUMPI POP DUP1 JUMPDEST PUSH1 0x1F DUP6 ADD PUSH1 0x5 SHR DUP3 ADD SWAP2 POP JUMPDEST DUP2 DUP2 LT ISZERO PUSH3 0x599 JUMPI DUP3 DUP2 SSTORE PUSH1 0x1 ADD PUSH3 0x584 JUMP JUMPDEST POP POP POP POP POP POP JUMP JUMPDEST DUP2 MLOAD PUSH1 0x1 PUSH1 0x1 PUSH1 0x40 SHL SUB DUP2 GT ISZERO PUSH3 0x5BD JUMPI PUSH3 0x5BD PUSH3 0x3D5 JUMP JUMPDEST PUSH3 0x5D5 DUP2 PUSH3 0x5CE DUP5 SLOAD PUSH3 0x513 JUMP JUMPDEST DUP5 PUSH3 0x54F JUMP JUMPDEST PUSH1 0x20 DUP1 PUSH1 0x1F DUP4 GT PUSH1 0x1 DUP2 EQ PUSH3 0x60D JUMPI PUSH1 0x0 DUP5 ISZERO PUSH3 0x5F4 JUMPI POP DUP6 DUP4 ADD MLOAD JUMPDEST PUSH1 0x0 NOT PUSH1 0x3 DUP7 SWAP1 SHL SHR NOT AND PUSH1 0x1 DUP6 SWAP1 SHL OR DUP6 SSTORE PUSH3 0x599 JUMP JUMPDEST PUSH1 0x0 DUP6 DUP2 MSTORE PUSH1 0x20 DUP2 KECCAK256 PUSH1 0x1F NOT DUP7 AND SWAP2 JUMPDEST DUP3 DUP2 LT ISZERO PUSH3 0x63E JUMPI DUP9 DUP7 ADD MLOAD DUP3 SSTORE SWAP5 DUP5 ADD SWAP5 PUSH1 0x1 SWAP1 SWAP2 ADD SWAP1 DUP5 ADD PUSH3 0x61D JUMP JUMPDEST POP DUP6 DUP3 LT ISZERO PUSH3 0x65D JUMPI DUP8 DUP6 ADD MLOAD PUSH1 0x0 NOT PUSH1 0x3 DUP9 SWAP1 SHL PUSH1 0xF8 AND SHR NOT AND DUP2 SSTORE JUMPDEST POP POP POP POP POP PUSH1 0x1 SWAP1 DUP2 SHL ADD SWAP1 SSTORE POP JUMP JUMPDEST PUSH4 0x4E487B71 PUSH1 0xE0 SHL PUSH1 0x0 MSTORE PUSH1 0x32 PUSH1 0x4 MSTORE PUSH1 0x24 PUSH1 0x0 REVERT JUMPDEST PUSH4 0x4E487B71 PUSH1 0xE0 SHL PUSH1 0x0 MSTORE PUSH1 0x11 PUSH1 0x4 MSTORE PUSH1 0x24 PUSH1 0x0 REVERT JUMPDEST DUP1 DUP3 MUL DUP2 ISZERO DUP3 DUP3 DIV DUP5 EQ OR PUSH3 0x6B3 JUMPI PUSH3 0x6B3 PUSH3 0x683 JUMP JUMPDEST SWAP3 SWAP2 POP POP JUMP JUMPDEST PUSH1 0x0 DUP3 PUSH3 0x6D7 JUMPI PUSH4 0x4E487B71 PUSH1 0xE0 SHL PUSH1 0x0 MSTORE PUSH1 0x12 PUSH1 0x4 MSTORE PUSH1 0x24 PUSH1 0x0 REVERT JUMPDEST POP DIV SWAP1 JUMP JUMPDEST PUSH1 0x0 PUSH1 0x20 DUP3 DUP5 SUB SLT ISZERO PUSH3 0x6EF JUMPI PUSH1 0x0 DUP1 REVERT JUMPDEST PUSH3 0x6FA DUP3 PUSH3 0x3EB JUMP JUMPDEST SWAP4 SWAP3 POP POP POP JUMP JUMPDEST DUP1 DUP3 ADD DUP1 DUP3 GT ISZERO PUSH3 0x6B3 JUMPI PUSH3 0x6B3 PUSH3 0x683 JUMP JUMPDEST PUSH2 0xAE0 DUP1 PUSH3 0x727 PUSH1 0x0 CODECOPY PUSH1 0x0 RETURN INVALID PUSH1 0x80 PUSH1 0x40 MSTORE CALLVALUE DUP1 ISZERO PUSH2 0x10 JUMPI PUSH1 0x0 DUP1 REVERT JUMPDEST POP PUSH1 0x4 CALLDATASIZE LT PUSH2 0x100 JUMPI PUSH1 0x0 CALLDATALOAD PUSH1 0xE0 SHR DUP1 PUSH4 0x49BD5A5E GT PUSH2 0x97 JUMPI DUP1 PUSH4 0x95D89B41 GT PUSH2 0x66 JUMPI DUP1 PUSH4 0x95D89B41 EQ PUSH2 0x22F JUMPI DUP1 PUSH4 0xA457C2D7 EQ PUSH2 0x237 JUMPI DUP1 PUSH4 0xA9059CBB EQ PUSH2 0x24A JUMPI DUP1 PUSH4 0xDD62ED3E EQ PUSH2 0x25D JUMPI PUSH1 0x0 DUP1 REVERT JUMPDEST DUP1 PUSH4 0x49BD5A5E EQ PUSH2 0x1CD JUMPI DUP1 PUSH4 0x70A08231 EQ PUSH2 0x1E0 JUMPI DUP1 PUSH4 0x7ABD21B8 EQ PUSH2 0x209 JUMPI DUP1 PUSH4 0x8DA5CB5B EQ PUSH2 0x21C JUMPI PUSH1 0x0 DUP1 REVERT JUMPDEST DUP1 PUSH4 0x23B872DD GT PUSH2 0xD3 JUMPI DUP1 PUSH4 0x23B872DD EQ PUSH2 0x16D JUMPI DUP1 PUSH4 0x313CE567 EQ PUSH2 0x180 JUMPI DUP1 PUSH4 0x39509351 EQ PUSH2 0x18F JUMPI DUP1 PUSH4 0x3E032A3B EQ PUSH2 0x1A2 JUMPI PUSH1 0x0 DUP1 REVERT JUMPDEST DUP1 PUSH4 0x6FDDE03 EQ PUSH2 0x105 JUMPI DUP1 PUSH4 0x95EA7B3 EQ PUSH2 0x123 JUMPI DUP1 PUSH4 0x13AF4035 EQ PUSH2 0x146 JUMPI DUP1 PUSH4 0x18160DDD EQ PUSH2 0x15B JUMPI JUMPDEST PUSH1 0x0 DUP1 REVERT JUMPDEST PUSH2 0x10D PUSH2 0x270 JUMP JUMPDEST PUSH1 0x40 MLOAD PUSH2 0x11A SWAP2 SWAP1 PUSH2 0x8D6 JUMP JUMPDEST PUSH1 0x40 MLOAD DUP1 SWAP2 SUB SWAP1 RETURN JUMPDEST PUSH2 0x136 PUSH2 0x131 CALLDATASIZE PUSH1 0x4 PUSH2 0x940 JUMP JUMPDEST PUSH2 0x302 JUMP JUMPDEST PUSH1 0x40 MLOAD SWAP1 ISZERO ISZERO DUP2 MSTORE PUSH1 0x20 ADD PUSH2 0x11A JUMP JUMPDEST PUSH2 0x159 PUSH2 0x154 CALLDATASIZE PUSH1 0x4 PUSH2 0x96A JUMP JUMPDEST PUSH2 0x31C JUMP JUMPDEST STOP JUMPDEST PUSH1 0x2 SLOAD JUMPDEST PUSH1 0x40 MLOAD SWAP1 DUP2 MSTORE PUSH1 0x20 ADD PUSH2 0x11A JUMP JUMPDEST PUSH2 0x136 PUSH2 0x17B CALLDATASIZE PUSH1 0x4 PUSH2 0x98C JUMP JUMPDEST PUSH2 0x393 JUMP JUMPDEST PUSH1 0x40 MLOAD PUSH1 0x12 DUP2 MSTORE PUSH1 0x20 ADD PUSH2 0x11A JUMP JUMPDEST PUSH2 0x136 PUSH2 0x19D CALLDATASIZE PUSH1 0x4 PUSH2 0x940 JUMP JUMPDEST PUSH2 0x3B7 JUMP JUMPDEST PUSH1 0x7 SLOAD PUSH2 0x1B5 SWAP1 PUSH1 0x1 PUSH1 0x1 PUSH1 0xA0 SHL SUB AND DUP2 JUMP JUMPDEST PUSH1 0x40 MLOAD PUSH1 0x1 PUSH1 0x1 PUSH1 0xA0 SHL SUB SWAP1 SWAP2 AND DUP2 MSTORE PUSH1 0x20 ADD PUSH2 0x11A JUMP JUMPDEST PUSH1 0x6 SLOAD PUSH2 0x1B5 SWAP1 PUSH1 0x1 PUSH1 0x1 PUSH1 0xA0 SHL SUB AND DUP2 JUMP JUMPDEST PUSH2 0x15F PUSH2 0x1EE CALLDATASIZE PUSH1 0x4 PUSH2 0x96A JUMP JUMPDEST PUSH1 0x1 PUSH1 0x1 PUSH1 0xA0 SHL SUB AND PUSH1 0x0 SWAP1 DUP2 MSTORE PUSH1 0x20 DUP2 SWAP1 MSTORE PUSH1 0x40 SWAP1 KECCAK256 SLOAD SWAP1 JUMP JUMPDEST PUSH2 0x159 PUSH2 0x217 CALLDATASIZE PUSH1 0x4 PUSH2 0x96A JUMP JUMPDEST PUSH2 0x3D9 JUMP JUMPDEST PUSH1 0x5 SLOAD PUSH2 0x1B5 SWAP1 PUSH1 0x1 PUSH1 0x1 PUSH1 0xA0 SHL SUB AND DUP2 JUMP JUMPDEST PUSH2 0x10D PUSH2 0x44B JUMP JUMPDEST PUSH2 0x136 PUSH2 0x245 CALLDATASIZE PUSH1 0x4 PUSH2 0x940 JUMP JUMPDEST PUSH2 0x45A JUMP JUMPDEST PUSH2 0x136 PUSH2 0x258 CALLDATASIZE PUSH1 0x4 PUSH2 0x940 JUMP JUMPDEST PUSH2 0x4D5 JUMP JUMPDEST PUSH2 0x15F PUSH2 0x26B CALLDATASIZE PUSH1 0x4 PUSH2 0x9C8 JUMP JUMPDEST PUSH2 0x4E3 JUMP JUMPDEST PUSH1 0x60 PUSH1 0x3 DUP1 SLOAD PUSH2 0x27F SWAP1 PUSH2 0x9FB JUMP JUMPDEST DUP1 PUSH1 0x1F ADD PUSH1 0x20 DUP1 SWAP2 DIV MUL PUSH1 0x20 ADD PUSH1 0x40 MLOAD SWAP1 DUP2 ADD PUSH1 0x40 MSTORE DUP1 SWAP3 SWAP2 SWAP1 DUP2 DUP2 MSTORE PUSH1 0x20 ADD DUP3 DUP1 SLOAD PUSH2 0x2AB SWAP1 PUSH2 0x9FB JUMP JUMPDEST DUP1 ISZERO PUSH2 0x2F8 JUMPI DUP1 PUSH1 0x1F LT PUSH2 0x2CD JUMPI PUSH2 0x100 DUP1 DUP4 SLOAD DIV MUL DUP4 MSTORE SWAP2 PUSH1 0x20 ADD SWAP2 PUSH2 0x2F8 JUMP JUMPDEST DUP3 ADD SWAP2 SWAP1 PUSH1 0x0 MSTORE PUSH1 0x20 PUSH1 0x0 KECCAK256 SWAP1 JUMPDEST DUP2 SLOAD DUP2 MSTORE SWAP1 PUSH1 0x1 ADD SWAP1 PUSH1 0x20 ADD DUP1 DUP4 GT PUSH2 0x2DB JUMPI DUP3 SWAP1 SUB PUSH1 0x1F AND DUP3 ADD SWAP2 JUMPDEST POP POP POP POP POP SWAP1 POP SWAP1 JUMP JUMPDEST PUSH1 0x0 CALLER PUSH2 0x310 DUP2 DUP6 DUP6 PUSH2 0x50E JUMP JUMPDEST PUSH1 0x1 SWAP2 POP POP JUMPDEST SWAP3 SWAP2 POP POP JUMP JUMPDEST PUSH1 0x5 SLOAD PUSH1 0x1 PUSH1 0x1 PUSH1 0xA0 SHL SUB AND CALLER EQ PUSH2 0x371 JUMPI PUSH1 0x40 MLOAD PUSH3 0x461BCD PUSH1 0xE5 SHL DUP2 MSTORE PUSH1 0x20 PUSH1 0x4 DUP3 ADD MSTORE PUSH1 0x13 PUSH1 0x24 DUP3 ADD MSTORE PUSH19 0x21B0B63632B91034B9903737BA1037BBB732B9 PUSH1 0x69 SHL PUSH1 0x44 DUP3 ADD MSTORE PUSH1 0x64 ADD JUMPDEST PUSH1 0x40 MLOAD DUP1 SWAP2 SUB SWAP1 REVERT JUMPDEST PUSH1 0x5 DUP1 SLOAD PUSH1 0x1 PUSH1 0x1 PUSH1 0xA0 SHL SUB NOT AND PUSH1 0x1 PUSH1 0x1 PUSH1 0xA0 SHL SUB SWAP3 SWAP1 SWAP3 AND SWAP2 SWAP1 SWAP2 OR SWAP1 SSTORE JUMP JUMPDEST PUSH1 0x0 CALLER PUSH2 0x3A1 DUP6 DUP3 DUP6 PUSH2 0x632 JUMP JUMPDEST PUSH2 0x3AC DUP6 DUP6 DUP6 PUSH2 0x6AC JUMP JUMPDEST POP PUSH1 0x1 SWAP5 SWAP4 POP POP POP POP JUMP JUMPDEST PUSH1 0x0 CALLER PUSH2 0x310 DUP2 DUP6 DUP6 PUSH2 0x3CA DUP4 DUP4 PUSH2 0x4E3 JUMP JUMPDEST PUSH2 0x3D4 SWAP2 SWAP1 PUSH2 0xA4B JUMP JUMPDEST PUSH2 0x50E JUMP JUMPDEST PUSH1 0x5 SLOAD PUSH1 0x1 PUSH1 0x1 PUSH1 0xA0 SHL SUB AND CALLER EQ PUSH2 0x429 JUMPI PUSH1 0x40 MLOAD PUSH3 0x461BCD PUSH1 0xE5 SHL DUP2 MSTORE PUSH1 0x20 PUSH1 0x4 DUP3 ADD MSTORE PUSH1 0x13 PUSH1 0x24 DUP3 ADD MSTORE PUSH19 0x21B0B63632B91034B9903737BA1037BBB732B9 PUSH1 0x69 SHL PUSH1 0x44 DUP3 ADD MSTORE PUSH1 0x64 ADD PUSH2 0x368 JUMP JUMPDEST PUSH1 0x7 DUP1 SLOAD PUSH1 0x1 PUSH1 0x1 PUSH1 0xA0 SHL SUB NOT AND PUSH1 0x1 PUSH1 0x1 PUSH1 0xA0 SHL SUB SWAP3 SWAP1 SWAP3 AND SWAP2 SWAP1 SWAP2 OR SWAP1 SSTORE JUMP JUMPDEST PUSH1 0x60 PUSH1 0x4 DUP1 SLOAD PUSH2 0x27F SWAP1 PUSH2 0x9FB JUMP JUMPDEST PUSH1 0x0 CALLER DUP2 PUSH2 0x468 DUP3 DUP7 PUSH2 0x4E3 JUMP JUMPDEST SWAP1 POP DUP4 DUP2 LT ISZERO PUSH2 0x4C8 JUMPI PUSH1 0x40 MLOAD PUSH3 0x461BCD PUSH1 0xE5 SHL DUP2 MSTORE PUSH1 0x20 PUSH1 0x4 DUP3 ADD MSTORE PUSH1 0x25 PUSH1 0x24 DUP3 ADD MSTORE PUSH32 0x45524332303A2064656372656173656420616C6C6F77616E63652062656C6F77 PUSH1 0x44 DUP3 ADD MSTORE PUSH5 0x207A65726F PUSH1 0xD8 SHL PUSH1 0x64 DUP3 ADD MSTORE PUSH1 0x84 ADD PUSH2 0x368 JUMP JUMPDEST PUSH2 0x3AC DUP3 DUP7 DUP7 DUP5 SUB PUSH2 0x50E JUMP JUMPDEST PUSH1 0x0 CALLER PUSH2 0x310 DUP2 DUP6 DUP6 PUSH2 0x6AC JUMP JUMPDEST PUSH1 0x1 PUSH1 0x1 PUSH1 0xA0 SHL SUB SWAP2 DUP3 AND PUSH1 0x0 SWAP1 DUP2 MSTORE PUSH1 0x1 PUSH1 0x20 SWAP1 DUP2 MSTORE PUSH1 0x40 DUP1 DUP4 KECCAK256 SWAP4 SWAP1 SWAP5 AND DUP3 MSTORE SWAP2 SWAP1 SWAP2 MSTORE KECCAK256 SLOAD SWAP1 JUMP JUMPDEST PUSH1 0x1 PUSH1 0x1 PUSH1 0xA0 SHL SUB DUP4 AND PUSH2 0x570 JUMPI PUSH1 0x40 MLOAD PUSH3 0x461BCD PUSH1 0xE5 SHL DUP2 MSTORE PUSH1 0x20 PUSH1 0x4 DUP3 ADD MSTORE PUSH1 0x24 DUP1 DUP3 ADD MSTORE PUSH32 0x45524332303A20617070726F76652066726F6D20746865207A65726F20616464 PUSH1 0x44 DUP3 ADD MSTORE PUSH4 0x72657373 PUSH1 0xE0 SHL PUSH1 0x64 DUP3 ADD MSTORE PUSH1 0x84 ADD PUSH2 0x368 JUMP JUMPDEST PUSH1 0x1 PUSH1 0x1 PUSH1 0xA0 SHL SUB DUP3 AND PUSH2 0x5D1 JUMPI PUSH1 0x40 MLOAD PUSH3 0x461BCD PUSH1 0xE5 SHL DUP2 MSTORE PUSH1 0x20 PUSH1 0x4 DUP3 ADD MSTORE PUSH1 0x22 PUSH1 0x24 DUP3 ADD MSTORE PUSH32 0x45524332303A20617070726F766520746F20746865207A65726F206164647265 PUSH1 0x44 DUP3 ADD MSTORE PUSH2 0x7373 PUSH1 0xF0 SHL PUSH1 0x64 DUP3 ADD MSTORE PUSH1 0x84 ADD PUSH2 0x368 JUMP JUMPDEST PUSH1 0x1 PUSH1 0x1 PUSH1 0xA0 SHL SUB DUP4 DUP2 AND PUSH1 0x0 DUP2 DUP2 MSTORE PUSH1 0x1 PUSH1 0x20 SWAP1 DUP2 MSTORE PUSH1 0x40 DUP1 DUP4 KECCAK256 SWAP5 DUP8 AND DUP1 DUP5 MSTORE SWAP5 DUP3 MSTORE SWAP2 DUP3 SWAP1 KECCAK256 DUP6 SWAP1 SSTORE SWAP1 MLOAD DUP5 DUP2 MSTORE PUSH32 0x8C5BE1E5EBEC7D5BD14F71427D1E84F3DD0314C0F7B2291E5B200AC8C7C3B925 SWAP2 ADD PUSH1 0x40 MLOAD DUP1 SWAP2 SUB SWAP1 LOG3 POP POP POP JUMP JUMPDEST PUSH1 0x0 PUSH2 0x63E DUP5 DUP5 PUSH2 0x4E3 JUMP JUMPDEST SWAP1 POP PUSH1 0x0 NOT DUP2 EQ PUSH2 0x6A6 JUMPI DUP2 DUP2 LT ISZERO PUSH2 0x699 JUMPI PUSH1 0x40 MLOAD PUSH3 0x461BCD PUSH1 0xE5 SHL DUP2 MSTORE PUSH1 0x20 PUSH1 0x4 DUP3 ADD MSTORE PUSH1 0x1D PUSH1 0x24 DUP3 ADD MSTORE PUSH32 0x45524332303A20696E73756666696369656E7420616C6C6F77616E6365000000 PUSH1 0x44 DUP3 ADD MSTORE PUSH1 0x64 ADD PUSH2 0x368 JUMP JUMPDEST PUSH2 0x6A6 DUP5 DUP5 DUP5 DUP5 SUB PUSH2 0x50E JUMP JUMPDEST POP POP POP POP JUMP JUMPDEST PUSH1 0x6 SLOAD PUSH1 0x0 SWAP1 PUSH1 0x1 PUSH1 0x1 PUSH1 0xA0 SHL SUB DUP5 DUP2 AND SWAP2 AND EQ DUP1 PUSH2 0x6D8 JUMPI POP PUSH1 0x6 SLOAD PUSH1 0x1 PUSH1 0x1 PUSH1 0xA0 SHL SUB DUP6 DUP2 AND SWAP2 AND EQ JUMPDEST SWAP1 POP PUSH1 0x0 PUSH1 0x64 PUSH2 0x6E9 DUP5 PUSH1 0x3 PUSH2 0xA5E JUMP JUMPDEST PUSH2 0x6F3 SWAP2 SWAP1 PUSH2 0xA75 JUMP JUMPDEST SWAP1 POP DUP2 ISZERO PUSH2 0x720 JUMPI PUSH1 0x7 SLOAD PUSH2 0x713 SWAP1 DUP7 SWAP1 PUSH1 0x1 PUSH1 0x1 PUSH1 0xA0 SHL SUB AND DUP4 PUSH2 0x732 JUMP JUMPDEST PUSH2 0x71D DUP2 DUP5 PUSH2 0xA97 JUMP JUMPDEST SWAP3 POP JUMPDEST PUSH2 0x72B DUP6 DUP6 DUP6 PUSH2 0x732 JUMP JUMPDEST POP POP POP POP POP JUMP JUMPDEST PUSH1 0x1 PUSH1 0x1 PUSH1 0xA0 SHL SUB DUP4 AND PUSH2 0x796 JUMPI PUSH1 0x40 MLOAD PUSH3 0x461BCD PUSH1 0xE5 SHL DUP2 MSTORE PUSH1 0x20 PUSH1 0x4 DUP3 ADD MSTORE PUSH1 0x25 PUSH1 0x24 DUP3 ADD MSTORE PUSH32 0x45524332303A207472616E736665722066726F6D20746865207A65726F206164 PUSH1 0x44 DUP3 ADD MSTORE PUSH5 0x6472657373 PUSH1 0xD8 SHL PUSH1 0x64 DUP3 ADD MSTORE PUSH1 0x84 ADD PUSH2 0x368 JUMP JUMPDEST PUSH1 0x1 PUSH1 0x1 PUSH1 0xA0 SHL SUB DUP3 AND PUSH2 0x7F8 JUMPI PUSH1 0x40 MLOAD PUSH3 0x461BCD PUSH1 0xE5 SHL DUP2 MSTORE PUSH1 0x20 PUSH1 0x4 DUP3 ADD MSTORE PUSH1 0x23 PUSH1 0x24 DUP3 ADD MSTORE PUSH32 0x45524332303A207472616E7366657220746F20746865207A65726F2061646472 PUSH1 0x44 DUP3 ADD MSTORE PUSH3 0x657373 PUSH1 0xE8 SHL PUSH1 0x64 DUP3 ADD MSTORE PUSH1 0x84 ADD PUSH2 0x368 JUMP JUMPDEST PUSH1 0x1 PUSH1 0x1 PUSH1 0xA0 SHL SUB DUP4 AND PUSH1 0x0 SWAP1 DUP2 MSTORE PUSH1 0x20 DUP2 SWAP1 MSTORE PUSH1 0x40 SWAP1 KECCAK256 SLOAD DUP2 DUP2 LT ISZERO PUSH2 0x870 JUMPI PUSH1 0x40 MLOAD PUSH3 0x461BCD PUSH1 0xE5 SHL DUP2 MSTORE PUSH1 0x20 PUSH1 0x4 DUP3 ADD MSTORE PUSH1 0x26 PUSH1 0x24 DUP3 ADD MSTORE PUSH32 0x45524332303A207472616E7366657220616D6F756E7420657863656564732062 PUSH1 0x44 DUP3 ADD MSTORE PUSH6 0x616C616E6365 PUSH1 0xD0 SHL PUSH1 0x64 DUP3 ADD MSTORE PUSH1 0x84 ADD PUSH2 0x368 JUMP JUMPDEST PUSH1 0x1 PUSH1 0x1 PUSH1 0xA0 SHL SUB DUP5 DUP2 AND PUSH1 0x0 DUP2 DUP2 MSTORE PUSH1 0x20 DUP2 DUP2 MSTORE PUSH1 0x40 DUP1 DUP4 KECCAK256 DUP8 DUP8 SUB SWAP1 SSTORE SWAP4 DUP8 AND DUP1 DUP4 MSTORE SWAP2 DUP5 SWAP1 KECCAK256 DUP1 SLOAD DUP8 ADD SWAP1 SSTORE SWAP3 MLOAD DUP6 DUP2 MSTORE SWAP1 SWAP3 PUSH32 0xDDF252AD1BE2C89B69C2B068FC378DAA952BA7F163C4A11628F55A4DF523B3EF SWAP2 ADD PUSH1 0x40 MLOAD DUP1 SWAP2 SUB SWAP1 LOG3 PUSH2 0x6A6 JUMP JUMPDEST PUSH1 0x0 PUSH1 0x20 DUP1 DUP4 MSTORE DUP4 MLOAD DUP1 DUP3 DUP6 ADD MSTORE PUSH1 0x0 JUMPDEST DUP2 DUP2 LT ISZERO PUSH2 0x903 JUMPI DUP6 DUP2 ADD DUP4 ADD MLOAD DUP6 DUP3 ADD PUSH1 0x40 ADD MSTORE DUP3 ADD PUSH2 0x8E7 JUMP JUMPDEST POP PUSH1 0x0 PUSH1 0x40 DUP3 DUP7 ADD ADD MSTORE PUSH1 0x40 PUSH1 0x1F NOT PUSH1 0x1F DUP4 ADD AND DUP6 ADD ADD SWAP3 POP POP POP SWAP3 SWAP2 POP POP JUMP JUMPDEST DUP1 CALLDATALOAD PUSH1 0x1 PUSH1 0x1 PUSH1 0xA0 SHL SUB DUP2 AND DUP2 EQ PUSH2 0x93B JUMPI PUSH1 0x0 DUP1 REVERT JUMPDEST SWAP2 SWAP1 POP JUMP JUMPDEST PUSH1 0x0 DUP1 PUSH1 0x40 DUP4 DUP6 SUB SLT ISZERO PUSH2 0x953 JUMPI PUSH1 0x0 DUP1 REVERT JUMPDEST PUSH2 0x95C DUP4 PUSH2 0x924 JUMP JUMPDEST SWAP5 PUSH1 0x20 SWAP4 SWAP1 SWAP4 ADD CALLDATALOAD SWAP4 POP POP POP JUMP JUMPDEST PUSH1 0x0 PUSH1 0x20 DUP3 DUP5 SUB SLT ISZERO PUSH2 0x97C JUMPI PUSH1 0x0 DUP1 REVERT JUMPDEST PUSH2 0x985 DUP3 PUSH2 0x924 JUMP JUMPDEST SWAP4 SWAP3 POP POP POP JUMP JUMPDEST PUSH1 0x0 DUP1 PUSH1 0x0 PUSH1 0x60 DUP5 DUP7 SUB SLT ISZERO PUSH2 0x9A1 JUMPI PUSH1 0x0 DUP1 REVERT JUMPDEST PUSH2 0x9AA DUP5 PUSH2 0x924 JUMP JUMPDEST SWAP3 POP PUSH2 0x9B8 PUSH1 0x20 DUP6 ADD PUSH2 0x924 JUMP JUMPDEST SWAP2 POP PUSH1 0x40 DUP5 ADD CALLDATALOAD SWAP1 POP SWAP3 POP SWAP3 POP SWAP3 JUMP JUMPDEST PUSH1 0x0 DUP1 PUSH1 0x40 DUP4 DUP6 SUB SLT ISZERO PUSH2 0x9DB JUMPI PUSH1 0x0 DUP1 REVERT JUMPDEST PUSH2 0x9E4 DUP4 PUSH2 0x924 JUMP JUMPDEST SWAP2 POP PUSH2 0x9F2 PUSH1 0x20 DUP5 ADD PUSH2 0x924 JUMP JUMPDEST SWAP1 POP SWAP3 POP SWAP3 SWAP1 POP JUMP JUMPDEST PUSH1 0x1 DUP2 DUP2 SHR SWAP1 DUP3 AND DUP1 PUSH2 0xA0F JUMPI PUSH1 0x7F DUP3 AND SWAP2 POP JUMPDEST PUSH1 0x20 DUP3 LT DUP2 SUB PUSH2 0xA2F JUMPI PUSH4 0x4E487B71 PUSH1 0xE0 SHL PUSH1 0x0 MSTORE PUSH1 0x22 PUSH1 0x4 MSTORE PUSH1 0x24 PUSH1 0x0 REVERT JUMPDEST POP SWAP2 SWAP1 POP JUMP JUMPDEST PUSH4 0x4E487B71 PUSH1 0xE0 SHL PUSH1 0x0 MSTORE PUSH1 0x11 PUSH1 0x4 MSTORE PUSH1 0x24 PUSH1 0x0 REVERT JUMPDEST DUP1 DUP3 ADD DUP1 DUP3 GT ISZERO PUSH2 0x316 JUMPI PUSH2 0x316 PUSH2 0xA35 JUMP JUMPDEST DUP1 DUP3 MUL DUP2 ISZERO DUP3 DUP3 DIV DUP5 EQ OR PUSH2 0x316 JUMPI PUSH2 0x316 PUSH2 0xA35 JUMP JUMPDEST PUSH1 0x0 DUP3 PUSH2 0xA92 JUMPI PUSH4 0x4E487B71 PUSH1 0xE0 SHL PUSH1 0x0 MSTORE PUSH1 0x12 PUSH1 0x4 MSTORE PUSH1 0x24 PUSH1 0x0 REVERT JUMPDEST POP DIV SWAP1 JUMP JUMPDEST DUP2 DUP2 SUB DUP2 DUP2 GT ISZERO PUSH2 0x316 JUMPI PUSH2 0x316 PUSH2 0xA35 JUMP INVALID LOG2 PUSH5 0x6970667358 0x22 SLT KECCAK256 STATICCALL MLOAD 0x4B 0x27 0xBB PUSH19 0xEF904B28C9C2274014169774606CDCFAE21D2C CODESIZE DUP10 0xA8 PUSH18 0x416B0664736F6C6343000812003300000000 "
				},
				"gasEstimates": {
					"creation": {
						"codeDepositCost": "556800",
						"executionCost": "infinite",
						"totalCost": "infinite"
					},
					"external": {
						"allowance(address,address)": "infinite",
						"approve(address,uint256)": "24651",
						"balanceOf(address)": "2585",
						"decimals()": "222",
						"decreaseAllowance(address,uint256)": "26994",
						"increaseAllowance(address,uint256)": "infinite",
						"name()": "infinite",
						"owner()": "2426",
						"setOwner(address)": "26779",
						"setSlippage(address)": "26778",
						"slippage()": "2426",
						"symbol()": "infinite",
						"totalSupply()": "2371",
						"transfer(address,uint256)": "infinite",
						"transferFrom(address,address,uint256)": "infinite",
						"uniswapV2Pair()": "2360"
					},
					"internal": {
						"_transfer(address,address,uint256)": "infinite"
					}
				},
				"methodIdentifiers": {
					"allowance(address,address)": "dd62ed3e",
					"approve(address,uint256)": "095ea7b3",
					"balanceOf(address)": "70a08231",
					"decimals()": "313ce567",
					"decreaseAllowance(address,uint256)": "a457c2d7",
					"increaseAllowance(address,uint256)": "39509351",
					"name()": "06fdde03",
					"owner()": "8da5cb5b",
					"setOwner(address)": "13af4035",
					"setSlippage(address)": "7abd21b8",
					"slippage()": "3e032a3b",
					"symbol()": "95d89b41",
					"totalSupply()": "18160ddd",
					"transfer(address,uint256)": "a9059cbb",
					"transferFrom(address,address,uint256)": "23b872dd",
					"uniswapV2Pair()": "49bd5a5e"
				}
			},
			"storageLayout": {
				"storage": [
					{
						"astId": 136,
						"contract": "Deep.sol:Deep",
						"label": "_balances",
						"offset": 0,
						"slot": "0",
						"type": "t_mapping(t_address,t_uint256)"
					},
					{
						"astId": 142,
						"contract": "Deep.sol:Deep",
						"label": "_allowances",
						"offset": 0,
						"slot": "1",
						"type": "t_mapping(t_address,t_mapping(t_address,t_uint256))"
					},
					{
						"astId": 144,
						"contract": "Deep.sol:Deep",
						"label": "_totalSupply",
						"offset": 0,
						"slot": "2",
						"type": "t_uint256"
					},
					{
						"astId": 146,
						"contract": "Deep.sol:Deep",
						"label": "_name",
						"offset": 0,
						"slot": "3",
						"type": "t_string_storage"
					},
					{
						"astId": 148,
						"contract": "Deep.sol:Deep",
						"label": "_symbol",
						"offset": 0,
						"slot": "4",
						"type": "t_string_storage"
					},
					{
						"astId": 692,
						"contract": "Deep.sol:Deep",
						"label": "owner",
						"offset": 0,
						"slot": "5",
						"type": "t_address"
					},
					{
						"astId": 694,
						"contract": "Deep.sol:Deep",
						"label": "uniswapV2Pair",
						"offset": 0,
						"slot": "6",
						"type": "t_address"
					},
					{
						"astId": 696,
						"contract": "Deep.sol:Deep",
						"label": "slippage",
						"offset": 0,
						"slot": "7",
						"type": "t_address"
					}
				],
				"types": {
					"t_address": {
						"encoding": "inplace",
						"label": "address",
						"numberOfBytes": "20"
					},
					"t_mapping(t_address,t_mapping(t_address,t_uint256))": {
						"encoding": "mapping",
						"key": "t_address",
						"label": "mapping(address => mapping(address => uint256))",
						"numberOfBytes": "32",
						"value": "t_mapping(t_address,t_uint256)"
					},
					"t_mapping(t_address,t_uint256)": {
						"encoding": "mapping",
						"key": "t_address",
						"label": "mapping(address => uint256)",
						"numberOfBytes": "32",
						"value": "t_uint256"
					},
					"t_string_storage": {
						"encoding": "bytes",
						"label": "string",
						"numberOfBytes": "32"
					},
					"t_uint256": {
						"encoding": "inplace",
						"label": "uint256",
						"numberOfBytes": "32"
					}
				}
			},
			"userdoc": {
				"kind": "user",
				"methods": {},
				"version": 1
			}
		}
	}
}