{
	"MembershipV1.sol": {
		"MemberStorV1": {
			"abi": [
				{
					"inputs": [],
					"name": "admin",
					"outputs": [
						{
							"internalType": "address",
							"name": "",
							"type": "address"
						}
					],
					"stateMutability": "view",
					"type": "function"
				},
				{
					"inputs": [],
					"name": "fixedPrice",
					"outputs": [
						{
							"internalType": "uint256",
							"name": "",
							"type": "uint256"
						}
					],
					"stateMutability": "view",
					"type": "function"
				},
				{
					"inputs": [],
					"name": "fourPercent",
					"outputs": [
						{
							"internalType": "address",
							"name": "",
							"type": "address"
						}
					],
					"stateMutability": "view",
					"type": "function"
				},
				{
					"inputs": [],
					"name": "implementation",
					"outputs": [
						{
							"internalType": "address",
							"name": "",
							"type": "address"
						}
					],
					"stateMutability": "view",
					"type": "function"
				},
				{
					"inputs": [],
					"name": "initialInviter",
					"outputs": [
						{
							"internalType": "address",
							"name": "",
							"type": "address"
						}
					],
					"stateMutability": "view",
					"type": "function"
				},
				{
					"inputs": [
						{
							"internalType": "address",
							"name": "",
							"type": "address"
						}
					],
					"name": "inviter",
					"outputs": [
						{
							"internalType": "address",
							"name": "",
							"type": "address"
						}
					],
					"stateMutability": "view",
					"type": "function"
				},
				{
					"inputs": [
						{
							"internalType": "address",
							"name": "",
							"type": "address"
						}
					],
					"name": "invitesNum",
					"outputs": [
						{
							"internalType": "uint256",
							"name": "",
							"type": "uint256"
						}
					],
					"stateMutability": "view",
					"type": "function"
				},
				{
					"inputs": [
						{
							"internalType": "address",
							"name": "",
							"type": "address"
						}
					],
					"name": "isVip",
					"outputs": [
						{
							"internalType": "bool",
							"name": "",
							"type": "bool"
						}
					],
					"stateMutability": "view",
					"type": "function"
				},
				{
					"inputs": [
						{
							"internalType": "address",
							"name": "",
							"type": "address"
						}
					],
					"name": "isVips",
					"outputs": [
						{
							"internalType": "bool",
							"name": "",
							"type": "bool"
						}
					],
					"stateMutability": "view",
					"type": "function"
				},
				{
					"inputs": [],
					"name": "maxLooked",
					"outputs": [
						{
							"internalType": "uint8",
							"name": "",
							"type": "uint8"
						}
					],
					"stateMutability": "view",
					"type": "function"
				},
				{
					"inputs": [],
					"name": "tenPercent",
					"outputs": [
						{
							"internalType": "address",
							"name": "",
							"type": "address"
						}
					],
					"stateMutability": "view",
					"type": "function"
				},
				{
					"inputs": [],
					"name": "token",
					"outputs": [
						{
							"internalType": "address",
							"name": "",
							"type": "address"
						}
					],
					"stateMutability": "view",
					"type": "function"
				},
				{
					"inputs": [
						{
							"internalType": "address",
							"name": "",
							"type": "address"
						}
					],
					"name": "totalTeamReward",
					"outputs": [
						{
							"internalType": "uint256",
							"name": "",
							"type": "uint256"
						}
					],
					"stateMutability": "view",
					"type": "function"
				},
				{
					"inputs": [],
					"name": "twentyPercent",
					"outputs": [
						{
							"internalType": "address",
							"name": "",
							"type": "address"
						}
					],
					"stateMutability": "view",
					"type": "function"
				},
				{
					"inputs": [],
					"name": "uniswapV2Factory",
					"outputs": [
						{
							"internalType": "address",
							"name": "",
							"type": "address"
						}
					],
					"stateMutability": "view",
					"type": "function"
				},
				{
					"inputs": [],
					"name": "usdt",
					"outputs": [
						{
							"internalType": "address",
							"name": "",
							"type": "address"
						}
					],
					"stateMutability": "view",
					"type": "function"
				}
			],
			"devdoc": {
				"kind": "dev",
				"methods": {},
				"version": 1
			},
			"evm": {
				"assembly": "    /* \"MembershipV1.sol\":4283:5488  contract MemberStorV1 is MemberStor{... */\n  mstore(0x40, 0x80)\n  callvalue\n  dup1\n  iszero\n  tag_1\n  jumpi\n  0x00\n  dup1\n  revert\ntag_1:\n  pop\n  dataSize(sub_0)\n  dup1\n  dataOffset(sub_0)\n  0x00\n  codecopy\n  0x00\n  return\nstop\n\nsub_0: assembly {\n        /* \"MembershipV1.sol\":4283:5488  contract MemberStorV1 is MemberStor{... */\n      mstore(0x40, 0x80)\n      callvalue\n      dup1\n      iszero\n      tag_1\n      jumpi\n      0x00\n      dup1\n      revert\n    tag_1:\n      pop\n      jumpi(tag_2, lt(calldatasize, 0x04))\n      shr(0xe0, calldataload(0x00))\n      dup1\n      0x6a7f7477\n      gt\n      tag_19\n      jumpi\n      dup1\n      0xb13140ed\n      gt\n      tag_20\n      jumpi\n      dup1\n      0xb13140ed\n      eq\n      tag_15\n      jumpi\n      dup1\n      0xee8f0b7a\n      eq\n      tag_16\n      jumpi\n      dup1\n      0xf851a440\n      eq\n      tag_17\n      jumpi\n      dup1\n      0xfc0c546a\n      eq\n      tag_18\n      jumpi\n      0x00\n      dup1\n      revert\n    tag_20:\n      dup1\n      0x6a7f7477\n      eq\n      tag_11\n      jumpi\n      dup1\n      0x84203f4b\n      eq\n      tag_12\n      jumpi\n      dup1\n      0x9e0060aa\n      eq\n      tag_13\n      jumpi\n      dup1\n      0xac849501\n      eq\n      tag_14\n      jumpi\n      0x00\n      dup1\n      revert\n    tag_19:\n      dup1\n      0x4e377201\n      gt\n      tag_21\n      jumpi\n      dup1\n      0x4e377201\n      eq\n      tag_7\n      jumpi\n      dup1\n      0x5636f6ba\n      eq\n      tag_8\n      jumpi\n      dup1\n      0x59d0f713\n      eq\n      tag_9\n      jumpi\n      dup1\n      0x5c60da1b\n      eq\n      tag_10\n      jumpi\n      0x00\n      dup1\n      revert\n    tag_21:\n      dup1\n      0x1efba6c2\n      eq\n      tag_3\n      jumpi\n      dup1\n      0x2f48ab7d\n      eq\n      tag_4\n      jumpi\n      dup1\n      0x46e6dfe7\n      eq\n      tag_5\n      jumpi\n      dup1\n      0x4c3fbb66\n      eq\n      tag_6\n      jumpi\n    tag_2:\n      0x00\n      dup1\n      revert\n        /* \"MembershipV1.sol\":5270:5297  uint256   public fixedPrice */\n    tag_3:\n      tag_22\n      sload(0x10)\n      dup2\n      jump\n    tag_22:\n      mload(0x40)\n        /* \"#utility.yul\":160:185   */\n      swap1\n      dup2\n      mstore\n        /* \"#utility.yul\":148:150   */\n      0x20\n        /* \"#utility.yul\":133:151   */\n      add\n        /* \"MembershipV1.sol\":5270:5297  uint256   public fixedPrice */\n    tag_24:\n      mload(0x40)\n      dup1\n      swap2\n      sub\n      swap1\n      return\n        /* \"MembershipV1.sol\":5140:5161  address   public usdt */\n    tag_4:\n      sload(0x0c)\n      tag_26\n      swap1\n      sub(shl(0xa0, 0x01), 0x01)\n      and\n      dup2\n      jump\n    tag_26:\n      mload(0x40)\n      sub(shl(0xa0, 0x01), 0x01)\n        /* \"#utility.yul\":360:392   */\n      swap1\n      swap2\n      and\n        /* \"#utility.yul\":342:393   */\n      dup2\n      mstore\n        /* \"#utility.yul\":330:332   */\n      0x20\n        /* \"#utility.yul\":315:333   */\n      add\n        /* \"MembershipV1.sol\":5140:5161  address   public usdt */\n      tag_24\n        /* \"#utility.yul\":196:399   */\n      jump\n        /* \"MembershipV1.sol\":5303:5329  uint8     public maxLooked */\n    tag_5:\n      sload(0x11)\n      tag_30\n      swap1\n      0xff\n      and\n      dup2\n      jump\n    tag_30:\n      mload(0x40)\n        /* \"#utility.yul\":576:580   */\n      0xff\n        /* \"#utility.yul\":564:581   */\n      swap1\n      swap2\n      and\n        /* \"#utility.yul\":546:582   */\n      dup2\n      mstore\n        /* \"#utility.yul\":534:536   */\n      0x20\n        /* \"#utility.yul\":519:537   */\n      add\n        /* \"MembershipV1.sol\":5303:5329  uint8     public maxLooked */\n      tag_24\n        /* \"#utility.yul\":404:588   */\n      jump\n        /* \"MembershipV1.sol\":4801:4839  mapping(address => bool) public isVips */\n    tag_6:\n      tag_34\n      tag_35\n      calldatasize\n      0x04\n      tag_36\n      jump\t// in\n    tag_35:\n      mstore(0x20, 0x05)\n      0x00\n      swap1\n      dup2\n      mstore\n      0x40\n      swap1\n      keccak256\n      sload\n      0xff\n      and\n      dup2\n      jump\n    tag_34:\n      mload(0x40)\n        /* \"#utility.yul\":1049:1063   */\n      swap1\n      iszero\n        /* \"#utility.yul\":1042:1064   */\n      iszero\n        /* \"#utility.yul\":1024:1065   */\n      dup2\n      mstore\n        /* \"#utility.yul\":1012:1014   */\n      0x20\n        /* \"#utility.yul\":997:1015   */\n      add\n        /* \"MembershipV1.sol\":4801:4839  mapping(address => bool) public isVips */\n      tag_24\n        /* \"#utility.yul\":884:1071   */\n      jump\n        /* \"MembershipV1.sol\":5036:5067  address   public initialInviter */\n    tag_7:\n      sload(0x09)\n      tag_26\n      swap1\n      sub(shl(0xa0, 0x01), 0x01)\n      and\n      dup2\n      jump\n        /* \"MembershipV1.sol\":5203:5230  address   public tenPercent */\n    tag_8:\n      sload(0x0e)\n      tag_26\n      swap1\n      sub(shl(0xa0, 0x01), 0x01)\n      and\n      dup2\n      jump\n        /* \"MembershipV1.sol\":5073:5106  address   public uniswapV2Factory */\n    tag_9:\n      sload(0x0a)\n      tag_26\n      swap1\n      sub(shl(0xa0, 0x01), 0x01)\n      and\n      dup2\n      jump\n        /* \"MembershipV1.sol\":113:142  address public implementation */\n    tag_10:\n      sload(0x01)\n      tag_26\n      swap1\n      sub(shl(0xa0, 0x01), 0x01)\n      and\n      dup2\n      jump\n        /* \"MembershipV1.sol\":5167:5197  address   public twentyPercent */\n    tag_11:\n      sload(0x0d)\n      tag_26\n      swap1\n      sub(shl(0xa0, 0x01), 0x01)\n      and\n      dup2\n      jump\n        /* \"MembershipV1.sol\":4758:4795  mapping(address => bool) public isVip */\n    tag_12:\n      tag_34\n      tag_56\n      calldatasize\n      0x04\n      tag_36\n      jump\t// in\n    tag_56:\n      mstore(0x20, 0x04)\n      0x00\n      swap1\n      dup2\n      mstore\n      0x40\n      swap1\n      keccak256\n      sload\n      0xff\n      and\n      dup2\n      jump\n        /* \"MembershipV1.sol\":5236:5264  address   public fourPercent */\n    tag_13:\n      sload(0x0f)\n      tag_26\n      swap1\n      sub(shl(0xa0, 0x01), 0x01)\n      and\n      dup2\n      jump\n        /* \"MembershipV1.sol\":4944:4994  mapping(address => uint256) public totalTeamReward */\n    tag_14:\n      tag_22\n      tag_63\n      calldatasize\n      0x04\n      tag_36\n      jump\t// in\n    tag_63:\n      mstore(0x20, 0x08)\n      0x00\n      swap1\n      dup2\n      mstore\n      0x40\n      swap1\n      keccak256\n      sload\n      dup2\n      jump\n        /* \"MembershipV1.sol\":4893:4938  mapping(address => uint256) public invitesNum */\n    tag_15:\n      tag_22\n      tag_67\n      calldatasize\n      0x04\n      tag_36\n      jump\t// in\n    tag_67:\n      mstore(0x20, 0x07)\n      0x00\n      swap1\n      dup2\n      mstore\n      0x40\n      swap1\n      keccak256\n      sload\n      dup2\n      jump\n        /* \"MembershipV1.sol\":4845:4887  mapping(address => address) public inviter */\n    tag_16:\n      tag_26\n      tag_71\n      calldatasize\n      0x04\n      tag_36\n      jump\t// in\n    tag_71:\n      mstore(0x20, 0x06)\n      0x00\n      swap1\n      dup2\n      mstore\n      0x40\n      swap1\n      keccak256\n      sload\n      sub(shl(0xa0, 0x01), 0x01)\n      and\n      dup2\n      jump\n        /* \"MembershipV1.sol\":87:107  address public admin */\n    tag_17:\n      sload(0x00)\n      tag_26\n      swap1\n      sub(shl(0xa0, 0x01), 0x01)\n      and\n      dup2\n      jump\n        /* \"MembershipV1.sol\":5112:5134  address   public token */\n    tag_18:\n      sload(0x0b)\n      tag_26\n      swap1\n      sub(shl(0xa0, 0x01), 0x01)\n      and\n      dup2\n      jump\n        /* \"#utility.yul\":593:879   */\n    tag_36:\n        /* \"#utility.yul\":652:658   */\n      0x00\n        /* \"#utility.yul\":705:707   */\n      0x20\n        /* \"#utility.yul\":693:702   */\n      dup3\n        /* \"#utility.yul\":684:691   */\n      dup5\n        /* \"#utility.yul\":680:703   */\n      sub\n        /* \"#utility.yul\":676:708   */\n      slt\n        /* \"#utility.yul\":673:725   */\n      iszero\n      tag_85\n      jumpi\n        /* \"#utility.yul\":721:722   */\n      0x00\n        /* \"#utility.yul\":718:719   */\n      dup1\n        /* \"#utility.yul\":711:723   */\n      revert\n        /* \"#utility.yul\":673:725   */\n    tag_85:\n        /* \"#utility.yul\":747:770   */\n      dup2\n      calldataload\n      sub(shl(0xa0, 0x01), 0x01)\n        /* \"#utility.yul\":799:830   */\n      dup2\n      and\n        /* \"#utility.yul\":789:831   */\n      dup2\n      eq\n        /* \"#utility.yul\":779:849   */\n      tag_86\n      jumpi\n        /* \"#utility.yul\":845:846   */\n      0x00\n        /* \"#utility.yul\":842:843   */\n      dup1\n        /* \"#utility.yul\":835:847   */\n      revert\n        /* \"#utility.yul\":779:849   */\n    tag_86:\n        /* \"#utility.yul\":868:873   */\n      swap4\n        /* \"#utility.yul\":593:879   */\n      swap3\n      pop\n      pop\n      pop\n      jump\t// out\n\n    auxdata: 0xa26469706673582212209822641df77e06c27225c229c961bbe5468746a25324b665d921794e8a4d9aa164736f6c63430008120033\n}\n",
				"bytecode": {
					"linkReferences": {},
					"object": "608060405234801561001057600080fd5b50610328806100206000396000f3fe608060405234801561001057600080fd5b50600436106101005760003560e01c80636a7f747711610097578063b13140ed11610066578063b13140ed14610253578063ee8f0b7a14610273578063f851a4401461029c578063fc0c546a146102af57600080fd5b80636a7f7477146101ea57806384203f4b146101fd5780639e0060aa14610220578063ac8495011461023357600080fd5b80634e377201116100d35780634e3772011461019e5780635636f6ba146101b157806359d0f713146101c45780635c60da1b146101d757600080fd5b80631efba6c2146101055780632f48ab7d1461012157806346e6dfe71461014c5780634c3fbb661461016b575b600080fd5b61010e60105481565b6040519081526020015b60405180910390f35b600c54610134906001600160a01b031681565b6040516001600160a01b039091168152602001610118565b6011546101599060ff1681565b60405160ff9091168152602001610118565b61018e6101793660046102c2565b60056020526000908152604090205460ff1681565b6040519015158152602001610118565b600954610134906001600160a01b031681565b600e54610134906001600160a01b031681565b600a54610134906001600160a01b031681565b600154610134906001600160a01b031681565b600d54610134906001600160a01b031681565b61018e61020b3660046102c2565b60046020526000908152604090205460ff1681565b600f54610134906001600160a01b031681565b61010e6102413660046102c2565b60086020526000908152604090205481565b61010e6102613660046102c2565b60076020526000908152604090205481565b6101346102813660046102c2565b6006602052600090815260409020546001600160a01b031681565b600054610134906001600160a01b031681565b600b54610134906001600160a01b031681565b6000602082840312156102d457600080fd5b81356001600160a01b03811681146102eb57600080fd5b939250505056fea26469706673582212209822641df77e06c27225c229c961bbe5468746a25324b665d921794e8a4d9aa164736f6c63430008120033",
					"opcodes": "PUSH1 0x80 PUSH1 0x40 MSTORE CALLVALUE DUP1 ISZERO PUSH2 0x10 JUMPI PUSH1 0x0 DUP1 REVERT JUMPDEST POP PUSH2 0x328 DUP1 PUSH2 0x20 PUSH1 0x0 CODECOPY PUSH1 0x0 RETURN INVALID PUSH1 0x80 PUSH1 0x40 MSTORE CALLVALUE DUP1 ISZERO PUSH2 0x10 JUMPI PUSH1 0x0 DUP1 REVERT JUMPDEST POP PUSH1 0x4 CALLDATASIZE LT PUSH2 0x100 JUMPI PUSH1 0x0 CALLDATALOAD PUSH1 0xE0 SHR DUP1 PUSH4 0x6A7F7477 GT PUSH2 0x97 JUMPI DUP1 PUSH4 0xB13140ED GT PUSH2 0x66 JUMPI DUP1 PUSH4 0xB13140ED EQ PUSH2 0x253 JUMPI DUP1 PUSH4 0xEE8F0B7A EQ PUSH2 0x273 JUMPI DUP1 PUSH4 0xF851A440 EQ PUSH2 0x29C JUMPI DUP1 PUSH4 0xFC0C546A EQ PUSH2 0x2AF JUMPI PUSH1 0x0 DUP1 REVERT JUMPDEST DUP1 PUSH4 0x6A7F7477 EQ PUSH2 0x1EA JUMPI DUP1 PUSH4 0x84203F4B EQ PUSH2 0x1FD JUMPI DUP1 PUSH4 0x9E0060AA EQ PUSH2 0x220 JUMPI DUP1 PUSH4 0xAC849501 EQ PUSH2 0x233 JUMPI PUSH1 0x0 DUP1 REVERT JUMPDEST DUP1 PUSH4 0x4E377201 GT PUSH2 0xD3 JUMPI DUP1 PUSH4 0x4E377201 EQ PUSH2 0x19E JUMPI DUP1 PUSH4 0x5636F6BA EQ PUSH2 0x1B1 JUMPI DUP1 PUSH4 0x59D0F713 EQ PUSH2 0x1C4 JUMPI DUP1 PUSH4 0x5C60DA1B EQ PUSH2 0x1D7 JUMPI PUSH1 0x0 DUP1 REVERT JUMPDEST DUP1 PUSH4 0x1EFBA6C2 EQ PUSH2 0x105 JUMPI DUP1 PUSH4 0x2F48AB7D EQ PUSH2 0x121 JUMPI DUP1 PUSH4 0x46E6DFE7 EQ PUSH2 0x14C JUMPI DUP1 PUSH4 0x4C3FBB66 EQ PUSH2 0x16B JUMPI JUMPDEST PUSH1 0x0 DUP1 REVERT JUMPDEST PUSH2 0x10E PUSH1 0x10 SLOAD DUP2 JUMP JUMPDEST PUSH1 0x40 MLOAD SWAP1 DUP2 MSTORE PUSH1 0x20 ADD JUMPDEST PUSH1 0x40 MLOAD DUP1 SWAP2 SUB SWAP1 RETURN JUMPDEST PUSH1 0xC SLOAD PUSH2 0x134 SWAP1 PUSH1 0x1 PUSH1 0x1 PUSH1 0xA0 SHL SUB AND DUP2 JUMP JUMPDEST PUSH1 0x40 MLOAD PUSH1 0x1 PUSH1 0x1 PUSH1 0xA0 SHL SUB SWAP1 SWAP2 AND DUP2 MSTORE PUSH1 0x20 ADD PUSH2 0x118 JUMP JUMPDEST PUSH1 0x11 SLOAD PUSH2 0x159 SWAP1 PUSH1 0xFF AND DUP2 JUMP JUMPDEST PUSH1 0x40 MLOAD PUSH1 0xFF SWAP1 SWAP2 AND DUP2 MSTORE PUSH1 0x20 ADD PUSH2 0x118 JUMP JUMPDEST PUSH2 0x18E PUSH2 0x179 CALLDATASIZE PUSH1 0x4 PUSH2 0x2C2 JUMP JUMPDEST PUSH1 0x5 PUSH1 0x20 MSTORE PUSH1 0x0 SWAP1 DUP2 MSTORE PUSH1 0x40 SWAP1 KECCAK256 SLOAD PUSH1 0xFF AND DUP2 JUMP JUMPDEST PUSH1 0x40 MLOAD SWAP1 ISZERO ISZERO DUP2 MSTORE PUSH1 0x20 ADD PUSH2 0x118 JUMP JUMPDEST PUSH1 0x9 SLOAD PUSH2 0x134 SWAP1 PUSH1 0x1 PUSH1 0x1 PUSH1 0xA0 SHL SUB AND DUP2 JUMP JUMPDEST PUSH1 0xE SLOAD PUSH2 0x134 SWAP1 PUSH1 0x1 PUSH1 0x1 PUSH1 0xA0 SHL SUB AND DUP2 JUMP JUMPDEST PUSH1 0xA SLOAD PUSH2 0x134 SWAP1 PUSH1 0x1 PUSH1 0x1 PUSH1 0xA0 SHL SUB AND DUP2 JUMP JUMPDEST PUSH1 0x1 SLOAD PUSH2 0x134 SWAP1 PUSH1 0x1 PUSH1 0x1 PUSH1 0xA0 SHL SUB AND DUP2 JUMP JUMPDEST PUSH1 0xD SLOAD PUSH2 0x134 SWAP1 PUSH1 0x1 PUSH1 0x1 PUSH1 0xA0 SHL SUB AND DUP2 JUMP JUMPDEST PUSH2 0x18E PUSH2 0x20B CALLDATASIZE PUSH1 0x4 PUSH2 0x2C2 JUMP JUMPDEST PUSH1 0x4 PUSH1 0x20 MSTORE PUSH1 0x0 SWAP1 DUP2 MSTORE PUSH1 0x40 SWAP1 KECCAK256 SLOAD PUSH1 0xFF AND DUP2 JUMP JUMPDEST PUSH1 0xF SLOAD PUSH2 0x134 SWAP1 PUSH1 0x1 PUSH1 0x1 PUSH1 0xA0 SHL SUB AND DUP2 JUMP JUMPDEST PUSH2 0x10E PUSH2 0x241 CALLDATASIZE PUSH1 0x4 PUSH2 0x2C2 JUMP JUMPDEST PUSH1 0x8 PUSH1 0x20 MSTORE PUSH1 0x0 SWAP1 DUP2 MSTORE PUSH1 0x40 SWAP1 KECCAK256 SLOAD DUP2 JUMP JUMPDEST PUSH2 0x10E PUSH2 0x261 CALLDATASIZE PUSH1 0x4 PUSH2 0x2C2 JUMP JUMPDEST PUSH1 0x7 PUSH1 0x20 MSTORE PUSH1 0x0 SWAP1 DUP2 MSTORE PUSH1 0x40 SWAP1 KECCAK256 SLOAD DUP2 JUMP JUMPDEST PUSH2 0x134 PUSH2 0x281 CALLDATASIZE PUSH1 0x4 PUSH2 0x2C2 JUMP JUMPDEST PUSH1 0x6 PUSH1 0x20 MSTORE PUSH1 0x0 SWAP1 DUP2 MSTORE PUSH1 0x40 SWAP1 KECCAK256 SLOAD PUSH1 0x1 PUSH1 0x1 PUSH1 0xA0 SHL SUB AND DUP2 JUMP JUMPDEST PUSH1 0x0 SLOAD PUSH2 0x134 SWAP1 PUSH1 0x1 PUSH1 0x1 PUSH1 0xA0 SHL SUB AND DUP2 JUMP JUMPDEST PUSH1 0xB SLOAD PUSH2 0x134 SWAP1 PUSH1 0x1 PUSH1 0x1 PUSH1 0xA0 SHL SUB AND DUP2 JUMP JUMPDEST PUSH1 0x0 PUSH1 0x20 DUP3 DUP5 SUB SLT ISZERO PUSH2 0x2D4 JUMPI PUSH1 0x0 DUP1 REVERT JUMPDEST DUP2 CALLDATALOAD PUSH1 0x1 PUSH1 0x1 PUSH1 0xA0 SHL SUB DUP2 AND DUP2 EQ PUSH2 0x2EB JUMPI PUSH1 0x0 DUP1 REVERT JUMPDEST SWAP4 SWAP3 POP POP POP JUMP INVALID LOG2 PUSH5 0x6970667358 0x22 SLT KECCAK256 SWAP9 0x22 PUSH5 0x1DF77E06C2 PUSH19 0x25C229C961BBE5468746A25324B665D921794E DUP11 0x4D SWAP11 LOG1 PUSH5 0x736F6C6343 STOP ADDMOD SLT STOP CALLER "
				},
				"gasEstimates": {
					"creation": {
						"codeDepositCost": "161600",
						"executionCost": "208",
						"totalCost": "161808"
					},
					"external": {
						"admin()": "2403",
						"fixedPrice()": "2308",
						"fourPercent()": "2404",
						"implementation()": "2426",
						"initialInviter()": "2360",
						"inviter(address)": "2567",
						"invitesNum(address)": "2495",
						"isVip(address)": "2541",
						"isVips(address)": "2586",
						"maxLooked()": "2381",
						"tenPercent()": "2382",
						"token()": "2425",
						"totalTeamReward(address)": "2562",
						"twentyPercent()": "2360",
						"uniswapV2Factory()": "2404",
						"usdt()": "2383"
					}
				},
				"methodIdentifiers": {
					"admin()": "f851a440",
					"fixedPrice()": "1efba6c2",
					"fourPercent()": "9e0060aa",
					"implementation()": "5c60da1b",
					"initialInviter()": "4e377201",
					"inviter(address)": "ee8f0b7a",
					"invitesNum(address)": "b13140ed",
					"isVip(address)": "84203f4b",
					"isVips(address)": "4c3fbb66",
					"maxLooked()": "46e6dfe7",
					"tenPercent()": "5636f6ba",
					"token()": "fc0c546a",
					"totalTeamReward(address)": "ac849501",
					"twentyPercent()": "6a7f7477",
					"uniswapV2Factory()": "59d0f713",
					"usdt()": "2f48ab7d"
				}
			},
			"storageLayout": {
				"storage": [
					{
						"astId": 3,
						"contract": "MembershipV1.sol:MemberStorV1",
						"label": "admin",
						"offset": 0,
						"slot": "0",
						"type": "t_address"
					},
					{
						"astId": 5,
						"contract": "MembershipV1.sol:MemberStorV1",
						"label": "implementation",
						"offset": 0,
						"slot": "1",
						"type": "t_address"
					},
					{
						"astId": 479,
						"contract": "MembershipV1.sol:MemberStorV1",
						"label": "teamRewards",
						"offset": 0,
						"slot": "2",
						"type": "t_mapping(t_address,t_array(t_struct(TeamReward)466_storage)dyn_storage)"
					},
					{
						"astId": 485,
						"contract": "MembershipV1.sol:MemberStorV1",
						"label": "claimRecords",
						"offset": 0,
						"slot": "3",
						"type": "t_mapping(t_address,t_array(t_struct(ClaimRecords)473_storage)dyn_storage)"
					},
					{
						"astId": 489,
						"contract": "MembershipV1.sol:MemberStorV1",
						"label": "isVip",
						"offset": 0,
						"slot": "4",
						"type": "t_mapping(t_address,t_bool)"
					},
					{
						"astId": 493,
						"contract": "MembershipV1.sol:MemberStorV1",
						"label": "isVips",
						"offset": 0,
						"slot": "5",
						"type": "t_mapping(t_address,t_bool)"
					},
					{
						"astId": 497,
						"contract": "MembershipV1.sol:MemberStorV1",
						"label": "inviter",
						"offset": 0,
						"slot": "6",
						"type": "t_mapping(t_address,t_address)"
					},
					{
						"astId": 501,
						"contract": "MembershipV1.sol:MemberStorV1",
						"label": "invitesNum",
						"offset": 0,
						"slot": "7",
						"type": "t_mapping(t_address,t_uint256)"
					},
					{
						"astId": 505,
						"contract": "MembershipV1.sol:MemberStorV1",
						"label": "totalTeamReward",
						"offset": 0,
						"slot": "8",
						"type": "t_mapping(t_address,t_uint256)"
					},
					{
						"astId": 507,
						"contract": "MembershipV1.sol:MemberStorV1",
						"label": "initialInviter",
						"offset": 0,
						"slot": "9",
						"type": "t_address"
					},
					{
						"astId": 509,
						"contract": "MembershipV1.sol:MemberStorV1",
						"label": "uniswapV2Factory",
						"offset": 0,
						"slot": "10",
						"type": "t_address"
					},
					{
						"astId": 511,
						"contract": "MembershipV1.sol:MemberStorV1",
						"label": "token",
						"offset": 0,
						"slot": "11",
						"type": "t_address"
					},
					{
						"astId": 513,
						"contract": "MembershipV1.sol:MemberStorV1",
						"label": "usdt",
						"offset": 0,
						"slot": "12",
						"type": "t_address"
					},
					{
						"astId": 515,
						"contract": "MembershipV1.sol:MemberStorV1",
						"label": "twentyPercent",
						"offset": 0,
						"slot": "13",
						"type": "t_address"
					},
					{
						"astId": 517,
						"contract": "MembershipV1.sol:MemberStorV1",
						"label": "tenPercent",
						"offset": 0,
						"slot": "14",
						"type": "t_address"
					},
					{
						"astId": 519,
						"contract": "MembershipV1.sol:MemberStorV1",
						"label": "fourPercent",
						"offset": 0,
						"slot": "15",
						"type": "t_address"
					},
					{
						"astId": 521,
						"contract": "MembershipV1.sol:MemberStorV1",
						"label": "fixedPrice",
						"offset": 0,
						"slot": "16",
						"type": "t_uint256"
					},
					{
						"astId": 523,
						"contract": "MembershipV1.sol:MemberStorV1",
						"label": "maxLooked",
						"offset": 0,
						"slot": "17",
						"type": "t_uint8"
					}
				],
				"types": {
					"t_address": {
						"encoding": "inplace",
						"label": "address",
						"numberOfBytes": "20"
					},
					"t_array(t_struct(ClaimRecords)473_storage)dyn_storage": {
						"base": "t_struct(ClaimRecords)473_storage",
						"encoding": "dynamic_array",
						"label": "struct MemberStorV1.ClaimRecords[]",
						"numberOfBytes": "32"
					},
					"t_array(t_struct(TeamReward)466_storage)dyn_storage": {
						"base": "t_struct(TeamReward)466_storage",
						"encoding": "dynamic_array",
						"label": "struct MemberStorV1.TeamReward[]",
						"numberOfBytes": "32"
					},
					"t_bool": {
						"encoding": "inplace",
						"label": "bool",
						"numberOfBytes": "1"
					},
					"t_enum(Express)456": {
						"encoding": "inplace",
						"label": "enum MemberStorV1.Express",
						"numberOfBytes": "1"
					},
					"t_mapping(t_address,t_address)": {
						"encoding": "mapping",
						"key": "t_address",
						"label": "mapping(address => address)",
						"numberOfBytes": "32",
						"value": "t_address"
					},
					"t_mapping(t_address,t_array(t_struct(ClaimRecords)473_storage)dyn_storage)": {
						"encoding": "mapping",
						"key": "t_address",
						"label": "mapping(address => struct MemberStorV1.ClaimRecords[])",
						"numberOfBytes": "32",
						"value": "t_array(t_struct(ClaimRecords)473_storage)dyn_storage"
					},
					"t_mapping(t_address,t_array(t_struct(TeamReward)466_storage)dyn_storage)": {
						"encoding": "mapping",
						"key": "t_address",
						"label": "mapping(address => struct MemberStorV1.TeamReward[])",
						"numberOfBytes": "32",
						"value": "t_array(t_struct(TeamReward)466_storage)dyn_storage"
					},
					"t_mapping(t_address,t_bool)": {
						"encoding": "mapping",
						"key": "t_address",
						"label": "mapping(address => bool)",
						"numberOfBytes": "32",
						"value": "t_bool"
					},
					"t_mapping(t_address,t_uint256)": {
						"encoding": "mapping",
						"key": "t_address",
						"label": "mapping(address => uint256)",
						"numberOfBytes": "32",
						"value": "t_uint256"
					},
					"t_struct(ClaimRecords)473_storage": {
						"encoding": "inplace",
						"label": "struct MemberStorV1.ClaimRecords",
						"members": [
							{
								"astId": 468,
								"contract": "MembershipV1.sol:MemberStorV1",
								"label": "receiver",
								"offset": 0,
								"slot": "0",
								"type": "t_address"
							},
							{
								"astId": 470,
								"contract": "MembershipV1.sol:MemberStorV1",
								"label": "amount",
								"offset": 0,
								"slot": "1",
								"type": "t_uint256"
							},
							{
								"astId": 472,
								"contract": "MembershipV1.sol:MemberStorV1",
								"label": "claimTime",
								"offset": 0,
								"slot": "2",
								"type": "t_uint256"
							}
						],
						"numberOfBytes": "96"
					},
					"t_struct(TeamReward)466_storage": {
						"encoding": "inplace",
						"label": "struct MemberStorV1.TeamReward",
						"members": [
							{
								"astId": 458,
								"contract": "MembershipV1.sol:MemberStorV1",
								"label": "partner",
								"offset": 0,
								"slot": "0",
								"type": "t_address"
							},
							{
								"astId": 460,
								"contract": "MembershipV1.sol:MemberStorV1",
								"label": "rewardValue",
								"offset": 0,
								"slot": "1",
								"type": "t_uint256"
							},
							{
								"astId": 462,
								"contract": "MembershipV1.sol:MemberStorV1",
								"label": "rewardTime",
								"offset": 0,
								"slot": "2",
								"type": "t_uint256"
							},
							{
								"astId": 465,
								"contract": "MembershipV1.sol:MemberStorV1",
								"label": "express",
								"offset": 0,
								"slot": "3",
								"type": "t_enum(Express)456"
							}
						],
						"numberOfBytes": "128"
					},
					"t_uint256": {
						"encoding": "inplace",
						"label": "uint256",
						"numberOfBytes": "32"
					},
					"t_uint8": {
						"encoding": "inplace",
						"label": "uint8",
						"numberOfBytes": "1"
					}
				}
			},
			"userdoc": {
				"kind": "user",
				"methods": {},
				"version": 1
			}
		}
	}
}