{
	"MembershipV1.sol": {
		"MemberShip": {
			"abi": [
				{
					"inputs": [],
					"stateMutability": "nonpayable",
					"type": "constructor"
				},
				{
					"inputs": [],
					"name": "admin",
					"outputs": [
						{
							"internalType": "address",
							"name": "",
							"type": "address"
						}
					],
					"stateMutability": "view",
					"type": "function"
				},
				{
					"inputs": [
						{
							"internalType": "address",
							"name": "_inviter",
							"type": "address"
						}
					],
					"name": "bind",
					"outputs": [],
					"stateMutability": "nonpayable",
					"type": "function"
				},
				{
					"inputs": [
						{
							"internalType": "address",
							"name": "_user",
							"type": "address"
						},
						{
							"internalType": "uint256",
							"name": "_amount",
							"type": "uint256"
						}
					],
					"name": "claim",
					"outputs": [],
					"stateMutability": "nonpayable",
					"type": "function"
				},
				{
					"inputs": [],
					"name": "fixedPrice",
					"outputs": [
						{
							"internalType": "uint256",
							"name": "",
							"type": "uint256"
						}
					],
					"stateMutability": "view",
					"type": "function"
				},
				{
					"inputs": [],
					"name": "fourPercent",
					"outputs": [
						{
							"internalType": "address",
							"name": "",
							"type": "address"
						}
					],
					"stateMutability": "view",
					"type": "function"
				},
				{
					"inputs": [],
					"name": "getAmountOut",
					"outputs": [
						{
							"internalType": "uint256",
							"name": "amountOut",
							"type": "uint256"
						}
					],
					"stateMutability": "view",
					"type": "function"
				},
				{
					"inputs": [
						{
							"internalType": "address",
							"name": "_user",
							"type": "address"
						}
					],
					"name": "getClaimRecordsInfo",
					"outputs": [
						{
							"components": [
								{
									"internalType": "address",
									"name": "receiver",
									"type": "address"
								},
								{
									"internalType": "uint256",
									"name": "amount",
									"type": "uint256"
								},
								{
									"internalType": "uint256",
									"name": "claimTime",
									"type": "uint256"
								}
							],
							"internalType": "struct MemberStorV1.ClaimRecords[]",
							"name": "",
							"type": "tuple[]"
						}
					],
					"stateMutability": "view",
					"type": "function"
				},
				{
					"inputs": [
						{
							"internalType": "address",
							"name": "_user",
							"type": "address"
						}
					],
					"name": "getTeamRewardInfo",
					"outputs": [
						{
							"components": [
								{
									"internalType": "address",
									"name": "partner",
									"type": "address"
								},
								{
									"internalType": "uint256",
									"name": "rewardValue",
									"type": "uint256"
								},
								{
									"internalType": "uint256",
									"name": "rewardTime",
									"type": "uint256"
								},
								{
									"internalType": "enum MemberStorV1.Express",
									"name": "express",
									"type": "uint8"
								}
							],
							"internalType": "struct MemberStorV1.TeamReward[]",
							"name": "",
							"type": "tuple[]"
						}
					],
					"stateMutability": "view",
					"type": "function"
				},
				{
					"inputs": [
						{
							"internalType": "address",
							"name": "_user",
							"type": "address"
						}
					],
					"name": "getUserInfo",
					"outputs": [
						{
							"components": [
								{
									"internalType": "bool",
									"name": "isp",
									"type": "bool"
								},
								{
									"internalType": "bool",
									"name": "isps",
									"type": "bool"
								},
								{
									"internalType": "address",
									"name": "inv",
									"type": "address"
								},
								{
									"internalType": "uint256",
									"name": "invNum",
									"type": "uint256"
								},
								{
									"internalType": "uint256",
									"name": "totalTR",
									"type": "uint256"
								}
							],
							"internalType": "struct MemberStorV1.User",
							"name": "",
							"type": "tuple"
						}
					],
					"stateMutability": "view",
					"type": "function"
				},
				{
					"inputs": [],
					"name": "implementation",
					"outputs": [
						{
							"internalType": "address",
							"name": "",
							"type": "address"
						}
					],
					"stateMutability": "view",
					"type": "function"
				},
				{
					"inputs": [],
					"name": "initialInviter",
					"outputs": [
						{
							"internalType": "address",
							"name": "",
							"type": "address"
						}
					],
					"stateMutability": "view",
					"type": "function"
				},
				{
					"inputs": [
						{
							"internalType": "address",
							"name": "_token",
							"type": "address"
						},
						{
							"internalType": "address",
							"name": "_initialInviter",
							"type": "address"
						},
						{
							"internalType": "address",
							"name": "_fourPercent",
							"type": "address"
						},
						{
							"internalType": "address",
							"name": "_tenPercent",
							"type": "address"
						},
						{
							"internalType": "address",
							"name": "_twentyPercent",
							"type": "address"
						}
					],
					"name": "initialize",
					"outputs": [],
					"stateMutability": "nonpayable",
					"type": "function"
				},
				{
					"inputs": [
						{
							"internalType": "address",
							"name": "",
							"type": "address"
						}
					],
					"name": "inviter",
					"outputs": [
						{
							"internalType": "address",
							"name": "",
							"type": "address"
						}
					],
					"stateMutability": "view",
					"type": "function"
				},
				{
					"inputs": [
						{
							"internalType": "address",
							"name": "",
							"type": "address"
						}
					],
					"name": "invitesNum",
					"outputs": [
						{
							"internalType": "uint256",
							"name": "",
							"type": "uint256"
						}
					],
					"stateMutability": "view",
					"type": "function"
				},
				{
					"inputs": [
						{
							"internalType": "address",
							"name": "",
							"type": "address"
						}
					],
					"name": "isVip",
					"outputs": [
						{
							"internalType": "bool",
							"name": "",
							"type": "bool"
						}
					],
					"stateMutability": "view",
					"type": "function"
				},
				{
					"inputs": [
						{
							"internalType": "address",
							"name": "",
							"type": "address"
						}
					],
					"name": "isVips",
					"outputs": [
						{
							"internalType": "bool",
							"name": "",
							"type": "bool"
						}
					],
					"stateMutability": "view",
					"type": "function"
				},
				{
					"inputs": [
						{
							"internalType": "address",
							"name": "_user",
							"type": "address"
						}
					],
					"name": "lookFor",
					"outputs": [
						{
							"internalType": "address",
							"name": "",
							"type": "address"
						}
					],
					"stateMutability": "view",
					"type": "function"
				},
				{
					"inputs": [],
					"name": "maxLooked",
					"outputs": [
						{
							"internalType": "uint8",
							"name": "",
							"type": "uint8"
						}
					],
					"stateMutability": "view",
					"type": "function"
				},
				{
					"inputs": [
						{
							"internalType": "address",
							"name": "_user",
							"type": "address"
						}
					],
					"name": "purchasingVip",
					"outputs": [],
					"stateMutability": "nonpayable",
					"type": "function"
				},
				{
					"inputs": [
						{
							"internalType": "address",
							"name": "_admin",
							"type": "address"
						}
					],
					"name": "setAdmin",
					"outputs": [],
					"stateMutability": "nonpayable",
					"type": "function"
				},
				{
					"inputs": [
						{
							"internalType": "uint8",
							"name": "_looked",
							"type": "uint8"
						}
					],
					"name": "setMaxLooked",
					"outputs": [],
					"stateMutability": "nonpayable",
					"type": "function"
				},
				{
					"inputs": [],
					"name": "tenPercent",
					"outputs": [
						{
							"internalType": "address",
							"name": "",
							"type": "address"
						}
					],
					"stateMutability": "view",
					"type": "function"
				},
				{
					"inputs": [],
					"name": "token",
					"outputs": [
						{
							"internalType": "address",
							"name": "",
							"type": "address"
						}
					],
					"stateMutability": "view",
					"type": "function"
				},
				{
					"inputs": [
						{
							"internalType": "address",
							"name": "",
							"type": "address"
						}
					],
					"name": "totalTeamReward",
					"outputs": [
						{
							"internalType": "uint256",
							"name": "",
							"type": "uint256"
						}
					],
					"stateMutability": "view",
					"type": "function"
				},
				{
					"inputs": [],
					"name": "twentyPercent",
					"outputs": [
						{
							"internalType": "address",
							"name": "",
							"type": "address"
						}
					],
					"stateMutability": "view",
					"type": "function"
				},
				{
					"inputs": [],
					"name": "uniswapV2Factory",
					"outputs": [
						{
							"internalType": "address",
							"name": "",
							"type": "address"
						}
					],
					"stateMutability": "view",
					"type": "function"
				},
				{
					"inputs": [
						{
							"internalType": "uint256",
							"name": "_fixed",
							"type": "uint256"
						}
					],
					"name": "updateFixed",
					"outputs": [],
					"stateMutability": "nonpayable",
					"type": "function"
				},
				{
					"inputs": [
						{
							"internalType": "address",
							"name": "_twentyPercent",
							"type": "address"
						},
						{
							"internalType": "address",
							"name": "_tenPercent",
							"type": "address"
						},
						{
							"internalType": "address",
							"name": "_fourPercent",
							"type": "address"
						}
					],
					"name": "updatePercentReceiver",
					"outputs": [],
					"stateMutability": "nonpayable",
					"type": "function"
				},
				{
					"inputs": [],
					"name": "usdt",
					"outputs": [
						{
							"internalType": "address",
							"name": "",
							"type": "address"
						}
					],
					"stateMutability": "view",
					"type": "function"
				}
			],
			"devdoc": {
				"kind": "dev",
				"methods": {},
				"version": 1
			},
			"evm": {
				"assembly": "    /* \"MembershipV1.sol\":5490:11304  contract MemberShip is MemberStorV1{... */\n  mstore(0x40, 0x80)\n    /* \"MembershipV1.sol\":5536:5584  constructor(){... */\n  callvalue\n  dup1\n  iszero\n  tag_1\n  jumpi\n  0x00\n  dup1\n  revert\ntag_1:\n  pop\n    /* \"MembershipV1.sol\":5559:5564  admin */\n  0x00\n    /* \"MembershipV1.sol\":5559:5577  admin = msg.sender */\n  dup1\n  sload\n  not(sub(shl(0xa0, 0x01), 0x01))\n  and\n    /* \"MembershipV1.sol\":5567:5577  msg.sender */\n  caller\n    /* \"MembershipV1.sol\":5559:5577  admin = msg.sender */\n  or\n  swap1\n  sstore\n    /* \"MembershipV1.sol\":5490:11304  contract MemberShip is MemberStorV1{... */\n  dataSize(sub_0)\n  dup1\n  dataOffset(sub_0)\n  0x00\n  codecopy\n  0x00\n  return\nstop\n\nsub_0: assembly {\n        /* \"MembershipV1.sol\":5490:11304  contract MemberShip is MemberStorV1{... */\n      mstore(0x40, 0x80)\n      callvalue\n      dup1\n      iszero\n      tag_1\n      jumpi\n      0x00\n      dup1\n      revert\n    tag_1:\n      pop\n      jumpi(tag_2, lt(calldatasize, 0x04))\n      shr(0xe0, calldataload(0x00))\n      dup1\n      0x60fe4483\n      gt\n      tag_32\n      jumpi\n      dup1\n      0x9e0060aa\n      gt\n      tag_33\n      jumpi\n      dup1\n      0xee8f0b7a\n      gt\n      tag_34\n      jumpi\n      dup1\n      0xee8f0b7a\n      eq\n      tag_28\n      jumpi\n      dup1\n      0xf48aa84f\n      eq\n      tag_29\n      jumpi\n      dup1\n      0xf851a440\n      eq\n      tag_30\n      jumpi\n      dup1\n      0xfc0c546a\n      eq\n      tag_31\n      jumpi\n      0x00\n      dup1\n      revert\n    tag_34:\n      dup1\n      0x9e0060aa\n      eq\n      tag_24\n      jumpi\n      dup1\n      0xaad3ec96\n      eq\n      tag_25\n      jumpi\n      dup1\n      0xac849501\n      eq\n      tag_26\n      jumpi\n      dup1\n      0xb13140ed\n      eq\n      tag_27\n      jumpi\n      0x00\n      dup1\n      revert\n    tag_33:\n      dup1\n      0x704b6c02\n      gt\n      tag_35\n      jumpi\n      dup1\n      0x704b6c02\n      eq\n      tag_20\n      jumpi\n      dup1\n      0x7a8af562\n      eq\n      tag_21\n      jumpi\n      dup1\n      0x81bac14f\n      eq\n      tag_22\n      jumpi\n      dup1\n      0x84203f4b\n      eq\n      tag_23\n      jumpi\n      0x00\n      dup1\n      revert\n    tag_35:\n      dup1\n      0x60fe4483\n      eq\n      tag_17\n      jumpi\n      dup1\n      0x6386c1c7\n      eq\n      tag_18\n      jumpi\n      dup1\n      0x6a7f7477\n      eq\n      tag_19\n      jumpi\n      0x00\n      dup1\n      revert\n    tag_32:\n      dup1\n      0x46e6dfe7\n      gt\n      tag_36\n      jumpi\n      dup1\n      0x5636f6ba\n      gt\n      tag_37\n      jumpi\n      dup1\n      0x5636f6ba\n      eq\n      tag_13\n      jumpi\n      dup1\n      0x57b2351d\n      eq\n      tag_14\n      jumpi\n      dup1\n      0x59d0f713\n      eq\n      tag_15\n      jumpi\n      dup1\n      0x5c60da1b\n      eq\n      tag_16\n      jumpi\n      0x00\n      dup1\n      revert\n    tag_37:\n      dup1\n      0x46e6dfe7\n      eq\n      tag_10\n      jumpi\n      dup1\n      0x4c3fbb66\n      eq\n      tag_11\n      jumpi\n      dup1\n      0x4e377201\n      eq\n      tag_12\n      jumpi\n      0x00\n      dup1\n      revert\n    tag_36:\n      dup1\n      0x2f48ab7d\n      gt\n      tag_38\n      jumpi\n      dup1\n      0x2f48ab7d\n      eq\n      tag_6\n      jumpi\n      dup1\n      0x30be0cd9\n      eq\n      tag_7\n      jumpi\n      dup1\n      0x32870577\n      eq\n      tag_8\n      jumpi\n      dup1\n      0x35fc14d8\n      eq\n      tag_9\n      jumpi\n      0x00\n      dup1\n      revert\n    tag_38:\n      dup1\n      0x0667afe2\n      eq\n      tag_3\n      jumpi\n      dup1\n      0x1459457a\n      eq\n      tag_4\n      jumpi\n      dup1\n      0x1efba6c2\n      eq\n      tag_5\n      jumpi\n    tag_2:\n      0x00\n      dup1\n      revert\n        /* \"MembershipV1.sol\":11023:11114  function updateFixed(uint256 _fixed) external onlyOwner{... */\n    tag_3:\n      tag_39\n      tag_40\n      calldatasize\n      0x04\n      tag_41\n      jump\t// in\n    tag_40:\n      tag_42\n      jump\t// in\n    tag_39:\n      stop\n        /* \"MembershipV1.sol\":5709:6239  function initialize(... */\n    tag_4:\n      tag_39\n      tag_44\n      calldatasize\n      0x04\n      tag_45\n      jump\t// in\n    tag_44:\n      tag_46\n      jump\t// in\n        /* \"MembershipV1.sol\":5270:5297  uint256   public fixedPrice */\n    tag_5:\n      tag_47\n      sload(0x10)\n      dup2\n      jump\n    tag_47:\n      mload(0x40)\n        /* \"#utility.yul\":1012:1037   */\n      swap1\n      dup2\n      mstore\n        /* \"#utility.yul\":1000:1002   */\n      0x20\n        /* \"#utility.yul\":985:1003   */\n      add\n        /* \"MembershipV1.sol\":5270:5297  uint256   public fixedPrice */\n    tag_49:\n      mload(0x40)\n      dup1\n      swap2\n      sub\n      swap1\n      return\n        /* \"MembershipV1.sol\":5140:5161  address   public usdt */\n    tag_6:\n      sload(0x0c)\n      tag_51\n      swap1\n      sub(shl(0xa0, 0x01), 0x01)\n      and\n      dup2\n      jump\n    tag_51:\n      mload(0x40)\n      sub(shl(0xa0, 0x01), 0x01)\n        /* \"#utility.yul\":1212:1244   */\n      swap1\n      swap2\n      and\n        /* \"#utility.yul\":1194:1245   */\n      dup2\n      mstore\n        /* \"#utility.yul\":1182:1184   */\n      0x20\n        /* \"#utility.yul\":1167:1185   */\n      add\n        /* \"MembershipV1.sol\":5140:5161  address   public usdt */\n      tag_49\n        /* \"#utility.yul\":1048:1251   */\n      jump\n        /* \"MembershipV1.sol\":10649:10780  function getClaimRecordsInfo(address _user) external view returns(ClaimRecords[] memory){... */\n    tag_7:\n      tag_55\n      tag_56\n      calldatasize\n      0x04\n      tag_57\n      jump\t// in\n    tag_56:\n      tag_58\n      jump\t// in\n    tag_55:\n      mload(0x40)\n      tag_49\n      swap2\n      swap1\n      tag_60\n      jump\t// in\n        /* \"MembershipV1.sol\":11120:11211  function setMaxLooked(uint8 _looked) external onlyOwner{... */\n    tag_8:\n      tag_39\n      tag_62\n      calldatasize\n      0x04\n      tag_63\n      jump\t// in\n    tag_62:\n      tag_64\n      jump\t// in\n        /* \"MembershipV1.sol\":9544:9697  function lookFor(address _user) public view returns (address) {... */\n    tag_9:\n      tag_51\n      tag_66\n      calldatasize\n      0x04\n      tag_57\n      jump\t// in\n    tag_66:\n      tag_67\n      jump\t// in\n        /* \"MembershipV1.sol\":5303:5329  uint8     public maxLooked */\n    tag_10:\n      sload(0x11)\n      tag_69\n      swap1\n      0xff\n      and\n      dup2\n      jump\n    tag_69:\n      mload(0x40)\n        /* \"#utility.yul\":2775:2779   */\n      0xff\n        /* \"#utility.yul\":2763:2780   */\n      swap1\n      swap2\n      and\n        /* \"#utility.yul\":2745:2781   */\n      dup2\n      mstore\n        /* \"#utility.yul\":2733:2735   */\n      0x20\n        /* \"#utility.yul\":2718:2736   */\n      add\n        /* \"MembershipV1.sol\":5303:5329  uint8     public maxLooked */\n      tag_49\n        /* \"#utility.yul\":2603:2787   */\n      jump\n        /* \"MembershipV1.sol\":4801:4839  mapping(address => bool) public isVips */\n    tag_11:\n      tag_73\n      tag_74\n      calldatasize\n      0x04\n      tag_57\n      jump\t// in\n    tag_74:\n      mstore(0x20, 0x05)\n      0x00\n      swap1\n      dup2\n      mstore\n      0x40\n      swap1\n      keccak256\n      sload\n      0xff\n      and\n      dup2\n      jump\n    tag_73:\n      mload(0x40)\n        /* \"#utility.yul\":2957:2971   */\n      swap1\n      iszero\n        /* \"#utility.yul\":2950:2972   */\n      iszero\n        /* \"#utility.yul\":2932:2973   */\n      dup2\n      mstore\n        /* \"#utility.yul\":2920:2922   */\n      0x20\n        /* \"#utility.yul\":2905:2923   */\n      add\n        /* \"MembershipV1.sol\":4801:4839  mapping(address => bool) public isVips */\n      tag_49\n        /* \"#utility.yul\":2792:2979   */\n      jump\n        /* \"MembershipV1.sol\":5036:5067  address   public initialInviter */\n    tag_12:\n      sload(0x09)\n      tag_51\n      swap1\n      sub(shl(0xa0, 0x01), 0x01)\n      and\n      dup2\n      jump\n        /* \"MembershipV1.sol\":5203:5230  address   public tenPercent */\n    tag_13:\n      sload(0x0e)\n      tag_51\n      swap1\n      sub(shl(0xa0, 0x01), 0x01)\n      and\n      dup2\n      jump\n        /* \"MembershipV1.sol\":6602:6862  function getAmountOut() public view returns(uint256 amountOut){... */\n    tag_14:\n      tag_47\n      tag_85\n      jump\t// in\n        /* \"MembershipV1.sol\":5073:5106  address   public uniswapV2Factory */\n    tag_15:\n      sload(0x0a)\n      tag_51\n      swap1\n      sub(shl(0xa0, 0x01), 0x01)\n      and\n      dup2\n      jump\n        /* \"MembershipV1.sol\":113:142  address public implementation */\n    tag_16:\n      sload(0x01)\n      tag_51\n      swap1\n      sub(shl(0xa0, 0x01), 0x01)\n      and\n      dup2\n      jump\n        /* \"MembershipV1.sol\":10786:11017  function updatePercentReceiver(address _twentyPercent,address _tenPercent,address _fourPercent) external onlyOwner{... */\n    tag_17:\n      tag_39\n      tag_94\n      calldatasize\n      0x04\n      tag_95\n      jump\t// in\n    tag_94:\n      tag_96\n      jump\t// in\n        /* \"MembershipV1.sol\":10328:10510  function getUserInfo(address _user) external view returns(User memory){... */\n    tag_18:\n      tag_97\n      tag_98\n      calldatasize\n      0x04\n      tag_57\n      jump\t// in\n    tag_98:\n      0x40\n      dup1\n      mload\n      0xa0\n      dup2\n      add\n      dup3\n      mstore\n      0x00\n      dup1\n      dup3\n      mstore\n      0x20\n      dup3\n      add\n      dup2\n      swap1\n      mstore\n      swap2\n      dup2\n      add\n      dup3\n      swap1\n      mstore\n      0x60\n      dup2\n      add\n      dup3\n      swap1\n      mstore\n      0x80\n      dup2\n      add\n      swap2\n      swap1\n      swap2\n      mstore\n      pop\n        /* \"MembershipV1.sol\":10415:10503  User(isVip[_user],isVips[_user],inviter[_user],invitesNum[_user],totalTeamReward[_user]) */\n      0x40\n      dup1\n      mload\n      0xa0\n      dup2\n      add\n      dup3\n      mstore\n      sub(shl(0xa0, 0x01), 0x01)\n        /* \"MembershipV1.sol\":10420:10432  isVip[_user] */\n      swap3\n      dup4\n      and\n      0x00\n      dup2\n      dup2\n      mstore\n        /* \"MembershipV1.sol\":10420:10425  isVip */\n      0x04\n        /* \"MembershipV1.sol\":10420:10432  isVip[_user] */\n      0x20\n      swap1\n      dup2\n      mstore\n      dup5\n      dup3\n      keccak256\n      sload\n      0xff\n      swap1\n      dup2\n      and\n        /* \"MembershipV1.sol\":10415:10503  User(isVip[_user],isVips[_user],inviter[_user],invitesNum[_user],totalTeamReward[_user]) */\n      iszero\n      iszero\n      dup6\n      mstore\n        /* \"MembershipV1.sol\":10433:10446  isVips[_user] */\n      dup4\n      dup4\n      mstore\n        /* \"MembershipV1.sol\":10433:10439  isVips */\n      0x05\n        /* \"MembershipV1.sol\":10433:10446  isVips[_user] */\n      dup3\n      mstore\n      dup6\n      dup4\n      keccak256\n      sload\n      and\n        /* \"MembershipV1.sol\":10415:10503  User(isVip[_user],isVips[_user],inviter[_user],invitesNum[_user],totalTeamReward[_user]) */\n      iszero\n      iszero\n      dup2\n      dup6\n      add\n      mstore\n        /* \"MembershipV1.sol\":10447:10461  inviter[_user] */\n      dup3\n      dup3\n      mstore\n        /* \"MembershipV1.sol\":10447:10454  inviter */\n      0x06\n        /* \"MembershipV1.sol\":10447:10461  inviter[_user] */\n      dup2\n      mstore\n      dup5\n      dup3\n      keccak256\n      sload\n      swap1\n      swap6\n      and\n        /* \"MembershipV1.sol\":10415:10503  User(isVip[_user],isVips[_user],inviter[_user],invitesNum[_user],totalTeamReward[_user]) */\n      dup4\n      dup6\n      add\n      mstore\n        /* \"MembershipV1.sol\":10462:10479  invitesNum[_user] */\n      dup2\n      dup2\n      mstore\n        /* \"MembershipV1.sol\":10462:10472  invitesNum */\n      0x07\n        /* \"MembershipV1.sol\":10462:10479  invitesNum[_user] */\n      dup6\n      mstore\n      dup4\n      dup2\n      keccak256\n      sload\n        /* \"MembershipV1.sol\":10415:10503  User(isVip[_user],isVips[_user],inviter[_user],invitesNum[_user],totalTeamReward[_user]) */\n      0x60\n      dup5\n      add\n      mstore\n        /* \"MembershipV1.sol\":10480:10502  totalTeamReward[_user] */\n      swap1\n      dup2\n      mstore\n        /* \"MembershipV1.sol\":10480:10495  totalTeamReward */\n      0x08\n        /* \"MembershipV1.sol\":10480:10502  totalTeamReward[_user] */\n      swap1\n      swap4\n      mstore\n      swap2\n      keccak256\n      sload\n        /* \"MembershipV1.sol\":10415:10503  User(isVip[_user],isVips[_user],inviter[_user],invitesNum[_user],totalTeamReward[_user]) */\n      0x80\n      dup3\n      add\n      mstore\n      swap1\n        /* \"MembershipV1.sol\":10328:10510  function getUserInfo(address _user) external view returns(User memory){... */\n      jump\n    tag_97:\n      mload(0x40)\n      tag_49\n      swap2\n      swap1\n        /* \"#utility.yul\":3544:3557   */\n      dup2\n      mload\n        /* \"#utility.yul\":3537:3558   */\n      iszero\n        /* \"#utility.yul\":3530:3559   */\n      iszero\n        /* \"#utility.yul\":3512:3560   */\n      dup2\n      mstore\n        /* \"#utility.yul\":3630:3634   */\n      0x20\n        /* \"#utility.yul\":3618:3635   */\n      dup1\n      dup4\n      add\n        /* \"#utility.yul\":3612:3636   */\n      mload\n        /* \"#utility.yul\":3605:3637   */\n      iszero\n        /* \"#utility.yul\":3598:3638   */\n      iszero\n        /* \"#utility.yul\":3576:3596   */\n      swap1\n      dup3\n      add\n        /* \"#utility.yul\":3569:3639   */\n      mstore\n        /* \"#utility.yul\":3699:3703   */\n      0x40\n        /* \"#utility.yul\":3687:3704   */\n      dup1\n      dup4\n      add\n        /* \"#utility.yul\":3681:3705   */\n      mload\n      sub(shl(0xa0, 0x01), 0x01)\n        /* \"#utility.yul\":3677:3727   */\n      and\n        /* \"#utility.yul\":3655:3675   */\n      swap1\n      dup3\n      add\n        /* \"#utility.yul\":3648:3728   */\n      mstore\n        /* \"#utility.yul\":3784:3788   */\n      0x60\n        /* \"#utility.yul\":3772:3789   */\n      dup1\n      dup4\n      add\n        /* \"#utility.yul\":3766:3790   */\n      mload\n        /* \"#utility.yul\":3744:3764   */\n      swap1\n      dup3\n      add\n        /* \"#utility.yul\":3737:3791   */\n      mstore\n        /* \"#utility.yul\":3847:3851   */\n      0x80\n        /* \"#utility.yul\":3835:3852   */\n      swap2\n      dup3\n      add\n        /* \"#utility.yul\":3829:3853   */\n      mload\n        /* \"#utility.yul\":3807:3827   */\n      swap2\n      dup2\n      add\n        /* \"#utility.yul\":3800:3854   */\n      swap2\n      swap1\n      swap2\n      mstore\n        /* \"#utility.yul\":3499:3502   */\n      0xa0\n        /* \"#utility.yul\":3484:3503   */\n      add\n      swap1\n        /* \"#utility.yul\":3323:3860   */\n      jump\n        /* \"MembershipV1.sol\":5167:5197  address   public twentyPercent */\n    tag_19:\n      sload(0x0d)\n      tag_51\n      swap1\n      sub(shl(0xa0, 0x01), 0x01)\n      and\n      dup2\n      jump\n        /* \"MembershipV1.sol\":11217:11301  function setAdmin(address _admin) external  onlyOwner{... */\n    tag_20:\n      tag_39\n      tag_106\n      calldatasize\n      0x04\n      tag_57\n      jump\t// in\n    tag_106:\n      tag_107\n      jump\t// in\n        /* \"MembershipV1.sol\":6868:7788  function purchasingVip(address _user) external{... */\n    tag_21:\n      tag_39\n      tag_109\n      calldatasize\n      0x04\n      tag_57\n      jump\t// in\n    tag_109:\n      tag_110\n      jump\t// in\n        /* \"MembershipV1.sol\":6245:6596  function bind(address _inviter) external{... */\n    tag_22:\n      tag_39\n      tag_112\n      calldatasize\n      0x04\n      tag_57\n      jump\t// in\n    tag_112:\n      tag_113\n      jump\t// in\n        /* \"MembershipV1.sol\":4758:4795  mapping(address => bool) public isVip */\n    tag_23:\n      tag_73\n      tag_115\n      calldatasize\n      0x04\n      tag_57\n      jump\t// in\n    tag_115:\n      mstore(0x20, 0x04)\n      0x00\n      swap1\n      dup2\n      mstore\n      0x40\n      swap1\n      keccak256\n      sload\n      0xff\n      and\n      dup2\n      jump\n        /* \"MembershipV1.sol\":5236:5264  address   public fourPercent */\n    tag_24:\n      sload(0x0f)\n      tag_51\n      swap1\n      sub(shl(0xa0, 0x01), 0x01)\n      and\n      dup2\n      jump\n        /* \"MembershipV1.sol\":9989:10318  function claim(address _user,uint256 _amount) external{... */\n    tag_25:\n      tag_39\n      tag_122\n      calldatasize\n      0x04\n      tag_123\n      jump\t// in\n    tag_122:\n      tag_124\n      jump\t// in\n        /* \"MembershipV1.sol\":4944:4994  mapping(address => uint256) public totalTeamReward */\n    tag_26:\n      tag_47\n      tag_126\n      calldatasize\n      0x04\n      tag_57\n      jump\t// in\n    tag_126:\n      mstore(0x20, 0x08)\n      0x00\n      swap1\n      dup2\n      mstore\n      0x40\n      swap1\n      keccak256\n      sload\n      dup2\n      jump\n        /* \"MembershipV1.sol\":4893:4938  mapping(address => uint256) public invitesNum */\n    tag_27:\n      tag_47\n      tag_130\n      calldatasize\n      0x04\n      tag_57\n      jump\t// in\n    tag_130:\n      mstore(0x20, 0x07)\n      0x00\n      swap1\n      dup2\n      mstore\n      0x40\n      swap1\n      keccak256\n      sload\n      dup2\n      jump\n        /* \"MembershipV1.sol\":4845:4887  mapping(address => address) public inviter */\n    tag_28:\n      tag_51\n      tag_134\n      calldatasize\n      0x04\n      tag_57\n      jump\t// in\n    tag_134:\n      mstore(0x20, 0x06)\n      0x00\n      swap1\n      dup2\n      mstore\n      0x40\n      swap1\n      keccak256\n      sload\n      sub(shl(0xa0, 0x01), 0x01)\n      and\n      dup2\n      jump\n        /* \"MembershipV1.sol\":10516:10643  function getTeamRewardInfo(address _user) external view returns (TeamReward[] memory){... */\n    tag_29:\n      tag_137\n      tag_138\n      calldatasize\n      0x04\n      tag_57\n      jump\t// in\n    tag_138:\n      tag_139\n      jump\t// in\n    tag_137:\n      mload(0x40)\n      tag_49\n      swap2\n      swap1\n      tag_141\n      jump\t// in\n        /* \"MembershipV1.sol\":87:107  address public admin */\n    tag_30:\n      sload(0x00)\n      tag_51\n      swap1\n      sub(shl(0xa0, 0x01), 0x01)\n      and\n      dup2\n      jump\n        /* \"MembershipV1.sol\":5112:5134  address   public token */\n    tag_31:\n      sload(0x0b)\n      tag_51\n      swap1\n      sub(shl(0xa0, 0x01), 0x01)\n      and\n      dup2\n      jump\n        /* \"MembershipV1.sol\":11023:11114  function updateFixed(uint256 _fixed) external onlyOwner{... */\n    tag_42:\n        /* \"MembershipV1.sol\":5628:5633  admin */\n      and(sub(shl(0xa0, 0x01), 0x01), sload(0x00))\n        /* \"MembershipV1.sol\":5637:5647  msg.sender */\n      caller\n        /* \"MembershipV1.sol\":5628:5647  admin == msg.sender */\n      eq\n        /* \"MembershipV1.sol\":5620:5681  require(admin == msg.sender,\"Membership:Caller is not owner\") */\n      tag_149\n      jumpi\n      mload(0x40)\n      shl(0xe5, 0x461bcd)\n      dup2\n      mstore\n      0x04\n      add\n      tag_150\n      swap1\n      tag_151\n      jump\t// in\n    tag_150:\n      mload(0x40)\n      dup1\n      swap2\n      sub\n      swap1\n      revert\n    tag_149:\n        /* \"MembershipV1.sol\":11088:11098  fixedPrice */\n      0x10\n        /* \"MembershipV1.sol\":11088:11107  fixedPrice = _fixed */\n      sstore\n        /* \"MembershipV1.sol\":11023:11114  function updateFixed(uint256 _fixed) external onlyOwner{... */\n      jump\t// out\n        /* \"MembershipV1.sol\":5709:6239  function initialize(... */\n    tag_46:\n        /* \"MembershipV1.sol\":5628:5633  admin */\n      and(sub(shl(0xa0, 0x01), 0x01), sload(0x00))\n        /* \"MembershipV1.sol\":5637:5647  msg.sender */\n      caller\n        /* \"MembershipV1.sol\":5628:5647  admin == msg.sender */\n      eq\n        /* \"MembershipV1.sol\":5620:5681  require(admin == msg.sender,\"Membership:Caller is not owner\") */\n      tag_154\n      jumpi\n      mload(0x40)\n      shl(0xe5, 0x461bcd)\n      dup2\n      mstore\n      0x04\n      add\n      tag_150\n      swap1\n      tag_151\n      jump\t// in\n    tag_154:\n        /* \"MembershipV1.sol\":5884:5898  initialInviter */\n      0x09\n        /* \"MembershipV1.sol\":5884:5916  initialInviter = _initialInviter */\n      dup1\n      sload\n      not(sub(shl(0xa0, 0x01), 0x01))\n      swap1\n      dup2\n      and\n      sub(shl(0xa0, 0x01), 0x01)\n      swap7\n      dup8\n      and\n      or\n      swap1\n      swap2\n      sstore\n        /* \"MembershipV1.sol\":5926:5942  uniswapV2Factory */\n      0x0a\n        /* \"MembershipV1.sol\":5926:5987  uniswapV2Factory = 0xcA143Ce32Fe78f1f7019d7d551a6402fC5350c73 */\n      dup1\n      sload\n        /* \"MembershipV1.sol\":5945:5987  0xcA143Ce32Fe78f1f7019d7d551a6402fC5350c73 */\n      0xca143ce32fe78f1f7019d7d551a6402fc5350c73\n        /* \"MembershipV1.sol\":5926:5987  uniswapV2Factory = 0xcA143Ce32Fe78f1f7019d7d551a6402fC5350c73 */\n      swap1\n      dup4\n      and\n      or\n      swap1\n      sstore\n        /* \"MembershipV1.sol\":5997:6002  token */\n      0x0b\n        /* \"MembershipV1.sol\":5997:6011  token = _token */\n      dup1\n      sload\n      dup3\n      and\n      swap7\n      dup7\n      and\n      swap7\n      swap1\n      swap7\n      or\n      swap1\n      swap6\n      sstore\n        /* \"MembershipV1.sol\":6021:6025  usdt */\n      0x0c\n        /* \"MembershipV1.sol\":6021:6070  usdt = 0x55d398326f99059fF775485246999027B3197955 */\n      dup1\n      sload\n        /* \"MembershipV1.sol\":6028:6070  0x55d398326f99059fF775485246999027B3197955 */\n      0x55d398326f99059ff775485246999027b3197955\n        /* \"MembershipV1.sol\":6021:6070  usdt = 0x55d398326f99059fF775485246999027B3197955 */\n      swap1\n      dup8\n      and\n      or\n      swap1\n      sstore\n        /* \"MembershipV1.sol\":6080:6090  tenPercent */\n      0x0e\n        /* \"MembershipV1.sol\":6080:6104  tenPercent = _tenPercent */\n      dup1\n      sload\n      dup7\n      and\n      swap3\n      dup6\n      and\n      swap3\n      swap1\n      swap3\n      or\n      swap1\n      swap2\n      sstore\n        /* \"MembershipV1.sol\":6114:6125  fourPercent */\n      0x0f\n        /* \"MembershipV1.sol\":6114:6140  fourPercent = _fourPercent */\n      dup1\n      sload\n      dup6\n      and\n      swap3\n      dup5\n      and\n      swap3\n      swap1\n      swap3\n      or\n      swap1\n      swap2\n      sstore\n        /* \"MembershipV1.sol\":6150:6163  twentyPercent */\n      0x0d\n        /* \"MembershipV1.sol\":6150:6180  twentyPercent = _twentyPercent */\n      dup1\n      sload\n      swap1\n      swap4\n      and\n      swap2\n      and\n      or\n      swap1\n      sstore\n        /* \"MembershipV1.sol\":6203:6208  15e18 */\n      0xd02ab486cedc0000\n        /* \"MembershipV1.sol\":6190:6200  fixedPrice */\n      0x10\n        /* \"MembershipV1.sol\":6190:6208  fixedPrice = 15e18 */\n      sstore\n        /* \"MembershipV1.sol\":6218:6227  maxLooked */\n      0x11\n        /* \"MembershipV1.sol\":6218:6232  maxLooked = 30 */\n      dup1\n      sload\n        /* \"MembershipV1.sol\":6230:6232  30 */\n      0x1e\n      not(0xff)\n        /* \"MembershipV1.sol\":6218:6232  maxLooked = 30 */\n      swap1\n      swap2\n      and\n      or\n      swap1\n      sstore\n        /* \"MembershipV1.sol\":5709:6239  function initialize(... */\n      jump\t// out\n        /* \"MembershipV1.sol\":10649:10780  function getClaimRecordsInfo(address _user) external view returns(ClaimRecords[] memory){... */\n    tag_58:\n      sub(shl(0xa0, 0x01), 0x01)\n        /* \"MembershipV1.sol\":10754:10773  claimRecords[_user] */\n      dup2\n      and\n      0x00\n      swap1\n      dup2\n      mstore\n        /* \"MembershipV1.sol\":10754:10766  claimRecords */\n      0x03\n        /* \"MembershipV1.sol\":10754:10773  claimRecords[_user] */\n      0x20\n      swap1\n      dup2\n      mstore\n      0x40\n      dup1\n      dup4\n      keccak256\n        /* \"MembershipV1.sol\":10747:10773  return claimRecords[_user] */\n      dup1\n      sload\n      dup3\n      mload\n      dup2\n      dup6\n      mul\n      dup2\n      add\n      dup6\n      add\n      swap1\n      swap4\n      mstore\n      dup1\n      dup4\n      mstore\n        /* \"MembershipV1.sol\":10715:10736  ClaimRecords[] memory */\n      0x60\n      swap5\n        /* \"MembershipV1.sol\":10747:10773  return claimRecords[_user] */\n      swap3\n      swap4\n        /* \"MembershipV1.sol\":10754:10773  claimRecords[_user] */\n      swap2\n      swap3\n        /* \"MembershipV1.sol\":10747:10773  return claimRecords[_user] */\n      swap1\n      swap2\n      dup5\n      add\n    tag_158:\n      dup3\n      dup3\n      lt\n      iszero\n      tag_159\n      jumpi\n      0x00\n      dup5\n      dup2\n      mstore\n      0x20\n      swap1\n      dup2\n      swap1\n      keccak256\n      0x40\n      dup1\n      mload\n      0x60\n      dup2\n      add\n      dup3\n      mstore\n      0x03\n      dup7\n      mul\n      swap1\n      swap3\n      add\n      dup1\n      sload\n      sub(shl(0xa0, 0x01), 0x01)\n      and\n      dup4\n      mstore\n      0x01\n      dup1\n      dup3\n      add\n      sload\n      dup5\n      dup7\n      add\n      mstore\n      0x02\n      swap1\n      swap2\n      add\n      sload\n      swap2\n      dup4\n      add\n      swap2\n      swap1\n      swap2\n      mstore\n      swap1\n      dup4\n      mstore\n      swap1\n      swap3\n      add\n      swap2\n      add\n      jump(tag_158)\n    tag_159:\n      pop\n      pop\n      pop\n      pop\n      swap1\n      pop\n        /* \"MembershipV1.sol\":10649:10780  function getClaimRecordsInfo(address _user) external view returns(ClaimRecords[] memory){... */\n      swap2\n      swap1\n      pop\n      jump\t// out\n        /* \"MembershipV1.sol\":11120:11211  function setMaxLooked(uint8 _looked) external onlyOwner{... */\n    tag_64:\n        /* \"MembershipV1.sol\":5628:5633  admin */\n      and(sub(shl(0xa0, 0x01), 0x01), sload(0x00))\n        /* \"MembershipV1.sol\":5637:5647  msg.sender */\n      caller\n        /* \"MembershipV1.sol\":5628:5647  admin == msg.sender */\n      eq\n        /* \"MembershipV1.sol\":5620:5681  require(admin == msg.sender,\"Membership:Caller is not owner\") */\n      tag_162\n      jumpi\n      mload(0x40)\n      shl(0xe5, 0x461bcd)\n      dup2\n      mstore\n      0x04\n      add\n      tag_150\n      swap1\n      tag_151\n      jump\t// in\n    tag_162:\n        /* \"MembershipV1.sol\":11185:11194  maxLooked */\n      0x11\n        /* \"MembershipV1.sol\":11185:11204  maxLooked = _looked */\n      dup1\n      sload\n      not(0xff)\n      and\n      0xff\n      swap3\n      swap1\n      swap3\n      and\n      swap2\n      swap1\n      swap2\n      or\n      swap1\n      sstore\n        /* \"MembershipV1.sol\":11120:11211  function setMaxLooked(uint8 _looked) external onlyOwner{... */\n      jump\t// out\n        /* \"MembershipV1.sol\":9544:9697  function lookFor(address _user) public view returns (address) {... */\n    tag_67:\n      sub(shl(0xa0, 0x01), 0x01)\n        /* \"MembershipV1.sol\":9620:9633  isVips[_user] */\n      dup2\n      and\n        /* \"MembershipV1.sol\":9597:9604  address */\n      0x00\n        /* \"MembershipV1.sol\":9620:9633  isVips[_user] */\n      swap1\n      dup2\n      mstore\n        /* \"MembershipV1.sol\":9620:9626  isVips */\n      0x05\n        /* \"MembershipV1.sol\":9620:9633  isVips[_user] */\n      0x20\n      mstore\n      0x40\n      dup2\n      keccak256\n      sload\n      0xff\n      and\n        /* \"MembershipV1.sol\":9616:9667  if(!isVips[_user]) return findVip(_user, maxLooked) */\n      tag_166\n      jumpi\n        /* \"MembershipV1.sol\":9657:9666  maxLooked */\n      sload(0x11)\n        /* \"MembershipV1.sol\":9642:9667  findVip(_user, maxLooked) */\n      tag_167\n      swap1\n        /* \"MembershipV1.sol\":9650:9655  _user */\n      dup4\n      swap1\n        /* \"MembershipV1.sol\":9657:9666  maxLooked */\n      0xff\n      and\n        /* \"MembershipV1.sol\":9642:9649  findVip */\n      tag_168\n        /* \"MembershipV1.sol\":9642:9667  findVip(_user, maxLooked) */\n      jump\t// in\n    tag_167:\n        /* \"MembershipV1.sol\":9635:9667  return findVip(_user, maxLooked) */\n      swap3\n        /* \"MembershipV1.sol\":9544:9697  function lookFor(address _user) public view returns (address) {... */\n      swap2\n      pop\n      pop\n      jump\t// out\n        /* \"MembershipV1.sol\":9616:9667  if(!isVips[_user]) return findVip(_user, maxLooked) */\n    tag_166:\n      pop\n        /* \"MembershipV1.sol\":9685:9690  _user */\n      swap1\n        /* \"MembershipV1.sol\":9544:9697  function lookFor(address _user) public view returns (address) {... */\n      jump\t// out\n        /* \"MembershipV1.sol\":6602:6862  function getAmountOut() public view returns(uint256 amountOut){... */\n    tag_85:\n        /* \"MembershipV1.sol\":6739:6755  uniswapV2Factory */\n      sload(0x0a)\n        /* \"MembershipV1.sol\":6757:6761  usdt */\n      sload(0x0c)\n        /* \"MembershipV1.sol\":6763:6768  token */\n      sload(0x0b)\n        /* \"MembershipV1.sol\":6646:6663  uint256 amountOut */\n      0x00\n      swap3\n      dup4\n      swap3\n      dup4\n      swap3\n        /* \"MembershipV1.sol\":6710:6769  UniswapV2Library.getReserves(uniswapV2Factory, usdt, token) */\n      tag_170\n      swap3\n      sub(shl(0xa0, 0x01), 0x01)\n        /* \"MembershipV1.sol\":6739:6755  uniswapV2Factory */\n      swap1\n      dup2\n      and\n      swap3\n        /* \"MembershipV1.sol\":6757:6761  usdt */\n      dup2\n      and\n      swap2\n        /* \"MembershipV1.sol\":6763:6768  token */\n      and\n        /* \"MembershipV1.sol\":6710:6738  UniswapV2Library.getReserves */\n      tag_171\n        /* \"MembershipV1.sol\":6710:6769  UniswapV2Library.getReserves(uniswapV2Factory, usdt, token) */\n      jump\t// in\n    tag_170:\n        /* \"MembershipV1.sol\":6674:6769  (uint reserveIn, uint reserveOut) = UniswapV2Library.getReserves(uniswapV2Factory, usdt, token) */\n      swap2\n      pop\n      swap2\n      pop\n        /* \"MembershipV1.sol\":6791:6855  UniswapV2Library.getAmountOut(fixedPrice, reserveIn, reserveOut) */\n      tag_172\n        /* \"MembershipV1.sol\":6821:6831  fixedPrice */\n      sload(0x10)\n        /* \"MembershipV1.sol\":6833:6842  reserveIn */\n      dup4\n        /* \"MembershipV1.sol\":6844:6854  reserveOut */\n      dup4\n        /* \"MembershipV1.sol\":6791:6820  UniswapV2Library.getAmountOut */\n      tag_173\n        /* \"MembershipV1.sol\":6791:6855  UniswapV2Library.getAmountOut(fixedPrice, reserveIn, reserveOut) */\n      jump\t// in\n    tag_172:\n        /* \"MembershipV1.sol\":6779:6855  amountOut = UniswapV2Library.getAmountOut(fixedPrice, reserveIn, reserveOut) */\n      swap3\n      pop\n        /* \"MembershipV1.sol\":6664:6862  {... */\n      pop\n      pop\n        /* \"MembershipV1.sol\":6602:6862  function getAmountOut() public view returns(uint256 amountOut){... */\n      swap1\n      jump\t// out\n        /* \"MembershipV1.sol\":10786:11017  function updatePercentReceiver(address _twentyPercent,address _tenPercent,address _fourPercent) external onlyOwner{... */\n    tag_96:\n        /* \"MembershipV1.sol\":5628:5633  admin */\n      and(sub(shl(0xa0, 0x01), 0x01), sload(0x00))\n        /* \"MembershipV1.sol\":5637:5647  msg.sender */\n      caller\n        /* \"MembershipV1.sol\":5628:5647  admin == msg.sender */\n      eq\n        /* \"MembershipV1.sol\":5620:5681  require(admin == msg.sender,\"Membership:Caller is not owner\") */\n      tag_175\n      jumpi\n      mload(0x40)\n      shl(0xe5, 0x461bcd)\n      dup2\n      mstore\n      0x04\n      add\n      tag_150\n      swap1\n      tag_151\n      jump\t// in\n    tag_175:\n        /* \"MembershipV1.sol\":10910:10921  fourPercent */\n      0x0f\n        /* \"MembershipV1.sol\":10910:10936  fourPercent = _fourPercent */\n      dup1\n      sload\n      not(sub(shl(0xa0, 0x01), 0x01))\n      swap1\n      dup2\n      and\n      sub(shl(0xa0, 0x01), 0x01)\n      swap4\n      dup5\n      and\n      or\n      swap1\n      swap2\n      sstore\n        /* \"MembershipV1.sol\":10946:10959  twentyPercent */\n      0x0d\n        /* \"MembershipV1.sol\":10946:10976  twentyPercent = _twentyPercent */\n      dup1\n      sload\n      dup3\n      and\n      swap5\n      dup4\n      and\n      swap5\n      swap1\n      swap5\n      or\n      swap1\n      swap4\n      sstore\n        /* \"MembershipV1.sol\":10986:10996  tenPercent */\n      0x0e\n        /* \"MembershipV1.sol\":10986:11010  tenPercent = _tenPercent */\n      dup1\n      sload\n      swap1\n      swap4\n      and\n      swap2\n      and\n      or\n      swap1\n      sstore\n        /* \"MembershipV1.sol\":10786:11017  function updatePercentReceiver(address _twentyPercent,address _tenPercent,address _fourPercent) external onlyOwner{... */\n      jump\t// out\n        /* \"MembershipV1.sol\":11217:11301  function setAdmin(address _admin) external  onlyOwner{... */\n    tag_107:\n        /* \"MembershipV1.sol\":5628:5633  admin */\n      and(sub(shl(0xa0, 0x01), 0x01), sload(0x00))\n        /* \"MembershipV1.sol\":5637:5647  msg.sender */\n      caller\n        /* \"MembershipV1.sol\":5628:5647  admin == msg.sender */\n      eq\n        /* \"MembershipV1.sol\":5620:5681  require(admin == msg.sender,\"Membership:Caller is not owner\") */\n      tag_182\n      jumpi\n      mload(0x40)\n      shl(0xe5, 0x461bcd)\n      dup2\n      mstore\n      0x04\n      add\n      tag_150\n      swap1\n      tag_151\n      jump\t// in\n    tag_182:\n        /* \"MembershipV1.sol\":11280:11285  admin */\n      0x00\n        /* \"MembershipV1.sol\":11280:11294  admin = _admin */\n      dup1\n      sload\n      not(sub(shl(0xa0, 0x01), 0x01))\n      and\n      sub(shl(0xa0, 0x01), 0x01)\n      swap3\n      swap1\n      swap3\n      and\n      swap2\n      swap1\n      swap2\n      or\n      swap1\n      sstore\n        /* \"MembershipV1.sol\":11217:11301  function setAdmin(address _admin) external  onlyOwner{... */\n      jump\t// out\n        /* \"MembershipV1.sol\":6868:7788  function purchasingVip(address _user) external{... */\n    tag_110:\n      sub(shl(0xa0, 0x01), 0x01)\n        /* \"MembershipV1.sol\":6932:6946  inviter[_user] */\n      dup2\n      dup2\n      and\n        /* \"MembershipV1.sol\":6958:6959  0 */\n      0x00\n        /* \"MembershipV1.sol\":6932:6946  inviter[_user] */\n      swap1\n      dup2\n      mstore\n        /* \"MembershipV1.sol\":6932:6939  inviter */\n      0x06\n        /* \"MembershipV1.sol\":6932:6946  inviter[_user] */\n      0x20\n      mstore\n      0x40\n      swap1\n      keccak256\n      sload\n      and\n        /* \"MembershipV1.sol\":6924:7011  require(inviter[_user] != address(0),\"Membership:The invitation address must be bound\") */\n      tag_186\n      jumpi\n      mload(0x40)\n      shl(0xe5, 0x461bcd)\n      dup2\n      mstore\n        /* \"#utility.yul\":6030:6032   */\n      0x20\n        /* \"MembershipV1.sol\":6924:7011  require(inviter[_user] != address(0),\"Membership:The invitation address must be bound\") */\n      0x04\n      dup3\n      add\n        /* \"#utility.yul\":6012:6033   */\n      mstore\n        /* \"#utility.yul\":6069:6071   */\n      0x2f\n        /* \"#utility.yul\":6049:6067   */\n      0x24\n      dup3\n      add\n        /* \"#utility.yul\":6042:6072   */\n      mstore\n        /* \"#utility.yul\":6108:6142   */\n      0x4d656d626572736869703a54686520696e7669746174696f6e20616464726573\n        /* \"#utility.yul\":6088:6106   */\n      0x44\n      dup3\n      add\n        /* \"#utility.yul\":6081:6143   */\n      mstore\n      shl(0x8a, 0x1cc81b5d5cdd08189948189bdd5b99)\n        /* \"#utility.yul\":6159:6177   */\n      0x64\n      dup3\n      add\n        /* \"#utility.yul\":6152:6197   */\n      mstore\n        /* \"#utility.yul\":6214:6233   */\n      0x84\n      add\n        /* \"MembershipV1.sol\":6924:7011  require(inviter[_user] != address(0),\"Membership:The invitation address must be bound\") */\n      tag_150\n        /* \"#utility.yul\":5828:6239   */\n      jump\n        /* \"MembershipV1.sol\":6924:7011  require(inviter[_user] != address(0),\"Membership:The invitation address must be bound\") */\n    tag_186:\n      sub(shl(0xa0, 0x01), 0x01)\n        /* \"MembershipV1.sol\":7029:7048  _user == msg.sender */\n      dup2\n      and\n        /* \"MembershipV1.sol\":7038:7048  msg.sender */\n      caller\n        /* \"MembershipV1.sol\":7029:7048  _user == msg.sender */\n      eq\n        /* \"MembershipV1.sol\":7021:7079  require(_user == msg.sender,\"Membership:Invalid operator\") */\n      tag_189\n      jumpi\n      mload(0x40)\n      shl(0xe5, 0x461bcd)\n      dup2\n      mstore\n        /* \"#utility.yul\":6446:6448   */\n      0x20\n        /* \"MembershipV1.sol\":7021:7079  require(_user == msg.sender,\"Membership:Invalid operator\") */\n      0x04\n      dup3\n      add\n        /* \"#utility.yul\":6428:6449   */\n      mstore\n        /* \"#utility.yul\":6485:6487   */\n      0x1b\n        /* \"#utility.yul\":6465:6483   */\n      0x24\n      dup3\n      add\n        /* \"#utility.yul\":6458:6488   */\n      mstore\n        /* \"#utility.yul\":6524:6553   */\n      0x4d656d626572736869703a496e76616c6964206f70657261746f720000000000\n        /* \"#utility.yul\":6504:6522   */\n      0x44\n      dup3\n      add\n        /* \"#utility.yul\":6497:6554   */\n      mstore\n        /* \"#utility.yul\":6571:6589   */\n      0x64\n      add\n        /* \"MembershipV1.sol\":7021:7079  require(_user == msg.sender,\"Membership:Invalid operator\") */\n      tag_150\n        /* \"#utility.yul\":6244:6595   */\n      jump\n        /* \"MembershipV1.sol\":7021:7079  require(_user == msg.sender,\"Membership:Invalid operator\") */\n    tag_189:\n        /* \"MembershipV1.sol\":7090:7105  uint256 _amount */\n      0x00\n        /* \"MembershipV1.sol\":7108:7122  getAmountOut() */\n      tag_192\n        /* \"MembershipV1.sol\":7108:7120  getAmountOut */\n      tag_85\n        /* \"MembershipV1.sol\":7108:7122  getAmountOut() */\n      jump\t// in\n    tag_192:\n        /* \"MembershipV1.sol\":7090:7122  uint256 _amount = getAmountOut() */\n      swap1\n      pop\n        /* \"MembershipV1.sol\":7150:7151  0 */\n      0x00\n        /* \"MembershipV1.sol\":7140:7147  _amount */\n      dup2\n        /* \"MembershipV1.sol\":7140:7151  _amount > 0 */\n      gt\n        /* \"MembershipV1.sol\":7132:7191  require(_amount > 0,\"Membership:Invalid purchasing amount\") */\n      tag_193\n      jumpi\n      mload(0x40)\n      shl(0xe5, 0x461bcd)\n      dup2\n      mstore\n        /* \"#utility.yul\":6802:6804   */\n      0x20\n        /* \"MembershipV1.sol\":7132:7191  require(_amount > 0,\"Membership:Invalid purchasing amount\") */\n      0x04\n      dup3\n      add\n        /* \"#utility.yul\":6784:6805   */\n      mstore\n        /* \"#utility.yul\":6841:6843   */\n      0x24\n        /* \"#utility.yul\":6821:6839   */\n      dup1\n      dup3\n      add\n        /* \"#utility.yul\":6814:6844   */\n      mstore\n        /* \"#utility.yul\":6880:6914   */\n      0x4d656d626572736869703a496e76616c69642070757263686173696e6720616d\n        /* \"#utility.yul\":6860:6878   */\n      0x44\n      dup3\n      add\n        /* \"#utility.yul\":6853:6915   */\n      mstore\n      shl(0xe2, 0x1bdd5b9d)\n        /* \"#utility.yul\":6931:6949   */\n      0x64\n      dup3\n      add\n        /* \"#utility.yul\":6924:6958   */\n      mstore\n        /* \"#utility.yul\":6975:6994   */\n      0x84\n      add\n        /* \"MembershipV1.sol\":7132:7191  require(_amount > 0,\"Membership:Invalid purchasing amount\") */\n      tag_150\n        /* \"#utility.yul\":6600:7000   */\n      jump\n        /* \"MembershipV1.sol\":7132:7191  require(_amount > 0,\"Membership:Invalid purchasing amount\") */\n    tag_193:\n        /* \"MembershipV1.sol\":7202:7216  uint256 reward */\n      0x00\n        /* \"MembershipV1.sol\":7234:7237  100 */\n      0x64\n        /* \"MembershipV1.sol\":7219:7231  _amount * 66 */\n      tag_196\n        /* \"MembershipV1.sol\":7219:7226  _amount */\n      dup4\n        /* \"MembershipV1.sol\":7229:7231  66 */\n      0x42\n        /* \"MembershipV1.sol\":7219:7231  _amount * 66 */\n      tag_197\n      jump\t// in\n    tag_196:\n        /* \"MembershipV1.sol\":7219:7237  _amount * 66 / 100 */\n      tag_198\n      swap2\n      swap1\n      tag_199\n      jump\t// in\n    tag_198:\n        /* \"MembershipV1.sol\":7202:7237  uint256 reward = _amount * 66 / 100 */\n      swap1\n      pop\n        /* \"MembershipV1.sol\":7247:7263  uint256 toTwenty */\n      0x00\n        /* \"MembershipV1.sol\":7281:7284  100 */\n      0x64\n        /* \"MembershipV1.sol\":7266:7278  _amount * 20 */\n      tag_200\n        /* \"MembershipV1.sol\":7266:7273  _amount */\n      dup5\n        /* \"MembershipV1.sol\":7276:7278  20 */\n      0x14\n        /* \"MembershipV1.sol\":7266:7278  _amount * 20 */\n      tag_197\n      jump\t// in\n    tag_200:\n        /* \"MembershipV1.sol\":7266:7284  _amount * 20 / 100 */\n      tag_201\n      swap2\n      swap1\n      tag_199\n      jump\t// in\n    tag_201:\n        /* \"MembershipV1.sol\":7247:7284  uint256 toTwenty = _amount * 20 / 100 */\n      swap1\n      pop\n        /* \"MembershipV1.sol\":7294:7307  uint256 toTen */\n      0x00\n        /* \"MembershipV1.sol\":7325:7328  100 */\n      0x64\n        /* \"MembershipV1.sol\":7310:7322  _amount * 10 */\n      tag_202\n        /* \"MembershipV1.sol\":7310:7317  _amount */\n      dup6\n        /* \"MembershipV1.sol\":7320:7322  10 */\n      0x0a\n        /* \"MembershipV1.sol\":7310:7322  _amount * 10 */\n      tag_197\n      jump\t// in\n    tag_202:\n        /* \"MembershipV1.sol\":7310:7328  _amount * 10 / 100 */\n      tag_203\n      swap2\n      swap1\n      tag_199\n      jump\t// in\n    tag_203:\n        /* \"MembershipV1.sol\":7371:7376  token */\n      sload(0x0b)\n        /* \"MembershipV1.sol\":7294:7328  uint256 toTen = _amount * 10 / 100 */\n      swap1\n      swap2\n      pop\n        /* \"MembershipV1.sol\":7339:7407  TransferHelper.safeTransferFrom(token, _user, address(this), reward) */\n      tag_204\n      swap1\n      sub(shl(0xa0, 0x01), 0x01)\n        /* \"MembershipV1.sol\":7371:7376  token */\n      and\n        /* \"MembershipV1.sol\":7378:7383  _user */\n      dup7\n        /* \"MembershipV1.sol\":7393:7397  this */\n      address\n        /* \"MembershipV1.sol\":7400:7406  reward */\n      dup7\n        /* \"MembershipV1.sol\":7339:7370  TransferHelper.safeTransferFrom */\n      tag_205\n        /* \"MembershipV1.sol\":7339:7407  TransferHelper.safeTransferFrom(token, _user, address(this), reward) */\n      jump\t// in\n    tag_204:\n        /* \"MembershipV1.sol\":7449:7454  token */\n      sload(0x0b)\n        /* \"MembershipV1.sol\":7463:7476  twentyPercent */\n      sload(0x0d)\n        /* \"MembershipV1.sol\":7417:7487  TransferHelper.safeTransferFrom(token, _user, twentyPercent, toTwenty) */\n      tag_206\n      swap2\n      sub(shl(0xa0, 0x01), 0x01)\n        /* \"MembershipV1.sol\":7449:7454  token */\n      swap1\n      dup2\n      and\n      swap2\n        /* \"MembershipV1.sol\":7456:7461  _user */\n      dup9\n      swap2\n        /* \"MembershipV1.sol\":7463:7476  twentyPercent */\n      and\n        /* \"MembershipV1.sol\":7478:7486  toTwenty */\n      dup6\n        /* \"MembershipV1.sol\":7417:7448  TransferHelper.safeTransferFrom */\n      tag_205\n        /* \"MembershipV1.sol\":7417:7487  TransferHelper.safeTransferFrom(token, _user, twentyPercent, toTwenty) */\n      jump\t// in\n    tag_206:\n        /* \"MembershipV1.sol\":7529:7534  token */\n      sload(0x0b)\n        /* \"MembershipV1.sol\":7543:7553  tenPercent */\n      sload(0x0e)\n        /* \"MembershipV1.sol\":7497:7561  TransferHelper.safeTransferFrom(token, _user, tenPercent, toTen) */\n      tag_207\n      swap2\n      sub(shl(0xa0, 0x01), 0x01)\n        /* \"MembershipV1.sol\":7529:7534  token */\n      swap1\n      dup2\n      and\n      swap2\n        /* \"MembershipV1.sol\":7536:7541  _user */\n      dup9\n      swap2\n        /* \"MembershipV1.sol\":7543:7553  tenPercent */\n      and\n        /* \"MembershipV1.sol\":7555:7560  toTen */\n      dup5\n        /* \"MembershipV1.sol\":7497:7528  TransferHelper.safeTransferFrom */\n      tag_205\n        /* \"MembershipV1.sol\":7497:7561  TransferHelper.safeTransferFrom(token, _user, tenPercent, toTen) */\n      jump\t// in\n    tag_207:\n        /* \"MembershipV1.sol\":7603:7608  token */\n      sload(0x0b)\n        /* \"MembershipV1.sol\":7617:7628  fourPercent */\n      sload(0x0f)\n        /* \"MembershipV1.sol\":7571:7666  TransferHelper.safeTransferFrom(token, _user, fourPercent, _amount - reward - toTwenty - toTen) */\n      tag_208\n      swap2\n      sub(shl(0xa0, 0x01), 0x01)\n        /* \"MembershipV1.sol\":7603:7608  token */\n      swap1\n      dup2\n      and\n      swap2\n        /* \"MembershipV1.sol\":7610:7615  _user */\n      dup9\n      swap2\n        /* \"MembershipV1.sol\":7617:7628  fourPercent */\n      and\n        /* \"MembershipV1.sol\":7660:7665  toTen */\n      dup5\n        /* \"MembershipV1.sol\":7649:7657  toTwenty */\n      dup7\n        /* \"MembershipV1.sol\":7630:7646  _amount - reward */\n      tag_209\n        /* \"MembershipV1.sol\":7640:7646  reward */\n      dup10\n        /* \"MembershipV1.sol\":7630:7637  _amount */\n      dup12\n        /* \"MembershipV1.sol\":7630:7646  _amount - reward */\n      tag_210\n      jump\t// in\n    tag_209:\n        /* \"MembershipV1.sol\":7630:7657  _amount - reward - toTwenty */\n      tag_211\n      swap2\n      swap1\n      tag_210\n      jump\t// in\n    tag_211:\n        /* \"MembershipV1.sol\":7630:7665  _amount - reward - toTwenty - toTen */\n      tag_212\n      swap2\n      swap1\n      tag_210\n      jump\t// in\n    tag_212:\n        /* \"MembershipV1.sol\":7571:7602  TransferHelper.safeTransferFrom */\n      tag_205\n        /* \"MembershipV1.sol\":7571:7666  TransferHelper.safeTransferFrom(token, _user, fourPercent, _amount - reward - toTwenty - toTen) */\n      jump\t// in\n    tag_208:\n      sub(shl(0xa0, 0x01), 0x01)\n        /* \"MembershipV1.sol\":7683:7695  isVip[_user] */\n      dup6\n      and\n      0x00\n      swap1\n      dup2\n      mstore\n        /* \"MembershipV1.sol\":7683:7688  isVip */\n      0x04\n        /* \"MembershipV1.sol\":7683:7695  isVip[_user] */\n      0x20\n      mstore\n      0x40\n      swap1\n      keccak256\n      sload\n      0xff\n      and\n        /* \"MembershipV1.sol\":7679:7782  if(!isVip[_user]){... */\n      tag_213\n      jumpi\n        /* \"MembershipV1.sol\":7710:7738  updateInviter(_user,_amount) */\n      tag_214\n        /* \"MembershipV1.sol\":7724:7729  _user */\n      dup6\n        /* \"MembershipV1.sol\":7730:7737  _amount */\n      dup6\n        /* \"MembershipV1.sol\":7710:7723  updateInviter */\n      tag_215\n        /* \"MembershipV1.sol\":7710:7738  updateInviter(_user,_amount) */\n      jump\t// in\n    tag_214:\n      sub(shl(0xa0, 0x01), 0x01)\n        /* \"MembershipV1.sol\":7752:7764  isVip[_user] */\n      dup6\n      and\n      0x00\n      swap1\n      dup2\n      mstore\n        /* \"MembershipV1.sol\":7752:7757  isVip */\n      0x04\n        /* \"MembershipV1.sol\":7752:7764  isVip[_user] */\n      0x20\n      mstore\n      0x40\n      swap1\n      keccak256\n        /* \"MembershipV1.sol\":7752:7771  isVip[_user] = true */\n      dup1\n      sload\n      not(0xff)\n      and\n        /* \"MembershipV1.sol\":7767:7771  true */\n      0x01\n        /* \"MembershipV1.sol\":7752:7771  isVip[_user] = true */\n      or\n      swap1\n      sstore\n        /* \"MembershipV1.sol\":7679:7782  if(!isVip[_user]){... */\n    tag_213:\n        /* \"MembershipV1.sol\":6914:7788  {... */\n      pop\n      pop\n      pop\n      pop\n        /* \"MembershipV1.sol\":6868:7788  function purchasingVip(address _user) external{... */\n      pop\n      jump\t// out\n        /* \"MembershipV1.sol\":6245:6596  function bind(address _inviter) external{... */\n    tag_113:\n        /* \"MembershipV1.sol\":6303:6317  initialInviter */\n      and(sub(shl(0xa0, 0x01), 0x01), sload(0x09))\n        /* \"MembershipV1.sol\":6295:6367  require(initialInviter != address(0), \"Membership:Zero initial address\") */\n      tag_217\n      jumpi\n      mload(0x40)\n      shl(0xe5, 0x461bcd)\n      dup2\n      mstore\n        /* \"#utility.yul\":7867:7869   */\n      0x20\n        /* \"MembershipV1.sol\":6295:6367  require(initialInviter != address(0), \"Membership:Zero initial address\") */\n      0x04\n      dup3\n      add\n        /* \"#utility.yul\":7849:7870   */\n      mstore\n        /* \"#utility.yul\":7906:7908   */\n      0x1f\n        /* \"#utility.yul\":7886:7904   */\n      0x24\n      dup3\n      add\n        /* \"#utility.yul\":7879:7909   */\n      mstore\n        /* \"#utility.yul\":7945:7978   */\n      0x4d656d626572736869703a5a65726f20696e697469616c206164647265737300\n        /* \"#utility.yul\":7925:7943   */\n      0x44\n      dup3\n      add\n        /* \"#utility.yul\":7918:7979   */\n      mstore\n        /* \"#utility.yul\":7996:8014   */\n      0x64\n      add\n        /* \"MembershipV1.sol\":6295:6367  require(initialInviter != address(0), \"Membership:Zero initial address\") */\n      tag_150\n        /* \"#utility.yul\":7665:8020   */\n      jump\n        /* \"MembershipV1.sol\":6295:6367  require(initialInviter != address(0), \"Membership:Zero initial address\") */\n    tag_217:\n        /* \"MembershipV1.sol\":6380:6394  initialInviter */\n      sload(0x09)\n      sub(shl(0xa0, 0x01), 0x01)\n        /* \"MembershipV1.sol\":6380:6406  initialInviter != _inviter */\n      dup3\n      dup2\n      and\n        /* \"MembershipV1.sol\":6380:6394  initialInviter */\n      swap2\n      and\n        /* \"MembershipV1.sol\":6380:6406  initialInviter != _inviter */\n      eq\n        /* \"MembershipV1.sol\":6377:6550  if(initialInviter != _inviter){... */\n      tag_224\n      jumpi\n      sub(shl(0xa0, 0x01), 0x01)\n        /* \"MembershipV1.sol\":6429:6444  isVip[_inviter] */\n      dup2\n      and\n      0x00\n      swap1\n      dup2\n      mstore\n        /* \"MembershipV1.sol\":6429:6434  isVip */\n      0x04\n        /* \"MembershipV1.sol\":6429:6444  isVip[_inviter] */\n      0x20\n      mstore\n      0x40\n      swap1\n      keccak256\n      sload\n      0xff\n      and\n        /* \"MembershipV1.sol\":6421:6472  require(isVip[_inviter], \"Membership:Not eligible\") */\n      tag_221\n      jumpi\n      mload(0x40)\n      shl(0xe5, 0x461bcd)\n      dup2\n      mstore\n        /* \"#utility.yul\":8227:8229   */\n      0x20\n        /* \"MembershipV1.sol\":6421:6472  require(isVip[_inviter], \"Membership:Not eligible\") */\n      0x04\n      dup3\n      add\n        /* \"#utility.yul\":8209:8230   */\n      mstore\n        /* \"#utility.yul\":8266:8268   */\n      0x17\n        /* \"#utility.yul\":8246:8264   */\n      0x24\n      dup3\n      add\n        /* \"#utility.yul\":8239:8269   */\n      mstore\n        /* \"#utility.yul\":8305:8330   */\n      0x4d656d626572736869703a4e6f7420656c696769626c65000000000000000000\n        /* \"#utility.yul\":8285:8303   */\n      0x44\n      dup3\n      add\n        /* \"#utility.yul\":8278:8331   */\n      mstore\n        /* \"#utility.yul\":8348:8366   */\n      0x64\n      add\n        /* \"MembershipV1.sol\":6421:6472  require(isVip[_inviter], \"Membership:Not eligible\") */\n      tag_150\n        /* \"#utility.yul\":8025:8372   */\n      jump\n        /* \"MembershipV1.sol\":6421:6472  require(isVip[_inviter], \"Membership:Not eligible\") */\n    tag_221:\n        /* \"MembershipV1.sol\":6506:6516  msg.sender */\n      caller\n      sub(shl(0xa0, 0x01), 0x01)\n        /* \"MembershipV1.sol\":6494:6516  _inviter != msg.sender */\n      dup3\n      and\n      sub\n        /* \"MembershipV1.sol\":6486:6539  require(_inviter != msg.sender,\"Membership:Only vip\") */\n      tag_224\n      jumpi\n      mload(0x40)\n      shl(0xe5, 0x461bcd)\n      dup2\n      mstore\n        /* \"#utility.yul\":8579:8581   */\n      0x20\n        /* \"MembershipV1.sol\":6486:6539  require(_inviter != msg.sender,\"Membership:Only vip\") */\n      0x04\n      dup3\n      add\n        /* \"#utility.yul\":8561:8582   */\n      mstore\n        /* \"#utility.yul\":8618:8620   */\n      0x13\n        /* \"#utility.yul\":8598:8616   */\n      0x24\n      dup3\n      add\n        /* \"#utility.yul\":8591:8621   */\n      mstore\n      shl(0x6c, 0x04d656d626572736869703a4f6e6c792076697)\n        /* \"#utility.yul\":8637:8655   */\n      0x44\n      dup3\n      add\n        /* \"#utility.yul\":8630:8679   */\n      mstore\n        /* \"#utility.yul\":8696:8714   */\n      0x64\n      add\n        /* \"MembershipV1.sol\":6486:6539  require(_inviter != msg.sender,\"Membership:Only vip\") */\n      tag_150\n        /* \"#utility.yul\":8377:8720   */\n      jump\n        /* \"MembershipV1.sol\":6486:6539  require(_inviter != msg.sender,\"Membership:Only vip\") */\n    tag_224:\n        /* \"MembershipV1.sol\":6567:6577  msg.sender */\n      caller\n        /* \"MembershipV1.sol\":6559:6578  inviter[msg.sender] */\n      0x00\n      swap1\n      dup2\n      mstore\n        /* \"MembershipV1.sol\":6559:6566  inviter */\n      0x06\n        /* \"MembershipV1.sol\":6559:6578  inviter[msg.sender] */\n      0x20\n      mstore\n      0x40\n      swap1\n      keccak256\n        /* \"MembershipV1.sol\":6559:6589  inviter[msg.sender] = _inviter */\n      dup1\n      sload\n      not(sub(shl(0xa0, 0x01), 0x01))\n      and\n      sub(shl(0xa0, 0x01), 0x01)\n      swap3\n      swap1\n      swap3\n      and\n      swap2\n      swap1\n      swap2\n      or\n      swap1\n      sstore\n        /* \"MembershipV1.sol\":6245:6596  function bind(address _inviter) external{... */\n      jump\t// out\n        /* \"MembershipV1.sol\":9989:10318  function claim(address _user,uint256 _amount) external{... */\n    tag_124:\n      sub(shl(0xa0, 0x01), 0x01)\n        /* \"MembershipV1.sol\":10061:10083  totalTeamReward[_user] */\n      dup3\n      and\n      0x00\n      swap1\n      dup2\n      mstore\n        /* \"MembershipV1.sol\":10061:10076  totalTeamReward */\n      0x08\n        /* \"MembershipV1.sol\":10061:10083  totalTeamReward[_user] */\n      0x20\n      mstore\n      0x40\n      swap1\n      keccak256\n      sload\n        /* \"MembershipV1.sol\":10061:10094  totalTeamReward[_user] >= _amount */\n      dup2\n      gt\n      iszero\n        /* \"MembershipV1.sol\":10053:10129  require(totalTeamReward[_user] >= _amount,\"Membership:Invalid claim amount\") */\n      tag_228\n      jumpi\n      mload(0x40)\n      shl(0xe5, 0x461bcd)\n      dup2\n      mstore\n        /* \"#utility.yul\":8927:8929   */\n      0x20\n        /* \"MembershipV1.sol\":10053:10129  require(totalTeamReward[_user] >= _amount,\"Membership:Invalid claim amount\") */\n      0x04\n      dup3\n      add\n        /* \"#utility.yul\":8909:8930   */\n      mstore\n        /* \"#utility.yul\":8966:8968   */\n      0x1f\n        /* \"#utility.yul\":8946:8964   */\n      0x24\n      dup3\n      add\n        /* \"#utility.yul\":8939:8969   */\n      mstore\n        /* \"#utility.yul\":9005:9038   */\n      0x4d656d626572736869703a496e76616c696420636c61696d20616d6f756e7400\n        /* \"#utility.yul\":8985:9003   */\n      0x44\n      dup3\n      add\n        /* \"#utility.yul\":8978:9039   */\n      mstore\n        /* \"#utility.yul\":9056:9074   */\n      0x64\n      add\n        /* \"MembershipV1.sol\":10053:10129  require(totalTeamReward[_user] >= _amount,\"Membership:Invalid claim amount\") */\n      tag_150\n        /* \"#utility.yul\":8725:9080   */\n      jump\n        /* \"MembershipV1.sol\":10053:10129  require(totalTeamReward[_user] >= _amount,\"Membership:Invalid claim amount\") */\n    tag_228:\n        /* \"MembershipV1.sol\":10167:10172  token */\n      sload(0x0b)\n        /* \"MembershipV1.sol\":10139:10189  TransferHelper.safeTransfer(token, _user, _amount) */\n      tag_231\n      swap1\n      sub(shl(0xa0, 0x01), 0x01)\n        /* \"MembershipV1.sol\":10167:10172  token */\n      and\n        /* \"MembershipV1.sol\":10174:10179  _user */\n      dup4\n        /* \"MembershipV1.sol\":10181:10188  _amount */\n      dup4\n        /* \"MembershipV1.sol\":10139:10166  TransferHelper.safeTransfer */\n      tag_232\n        /* \"MembershipV1.sol\":10139:10189  TransferHelper.safeTransfer(token, _user, _amount) */\n      jump\t// in\n    tag_231:\n      sub(shl(0xa0, 0x01), 0x01)\n        /* \"MembershipV1.sol\":10199:10221  totalTeamReward[_user] */\n      dup3\n      and\n      0x00\n      swap1\n      dup2\n      mstore\n        /* \"MembershipV1.sol\":10199:10214  totalTeamReward */\n      0x08\n        /* \"MembershipV1.sol\":10199:10221  totalTeamReward[_user] */\n      0x20\n      mstore\n      0x40\n      dup2\n      keccak256\n        /* \"MembershipV1.sol\":10199:10232  totalTeamReward[_user] -= _amount */\n      dup1\n      sload\n        /* \"MembershipV1.sol\":10225:10232  _amount */\n      dup4\n      swap3\n        /* \"MembershipV1.sol\":10199:10221  totalTeamReward[_user] */\n      swap1\n        /* \"MembershipV1.sol\":10199:10232  totalTeamReward[_user] -= _amount */\n      tag_233\n      swap1\n        /* \"MembershipV1.sol\":10225:10232  _amount */\n      dup5\n      swap1\n        /* \"MembershipV1.sol\":10199:10232  totalTeamReward[_user] -= _amount */\n      tag_210\n      jump\t// in\n    tag_233:\n      swap1\n      swap2\n      sstore\n      pop\n      pop\n      sub(shl(0xa0, 0x01), 0x01)\n        /* \"MembershipV1.sol\":10242:10261  claimRecords[_user] */\n      swap2\n      dup3\n      and\n      0x00\n      dup2\n      dup2\n      mstore\n        /* \"MembershipV1.sol\":10242:10254  claimRecords */\n      0x03\n        /* \"MembershipV1.sol\":10242:10261  claimRecords[_user] */\n      0x20\n      dup2\n      dup2\n      mstore\n      0x40\n      dup1\n      dup5\n      keccak256\n        /* \"MembershipV1.sol\":10267:10310  ClaimRecords(_user,_amount,block.timestamp) */\n      dup2\n      mload\n      0x60\n      dup2\n      add\n      dup4\n      mstore\n      swap6\n      dup7\n      mstore\n      dup6\n      dup4\n      add\n      swap7\n      dup8\n      mstore\n        /* \"MembershipV1.sol\":10294:10309  block.timestamp */\n      timestamp\n        /* \"MembershipV1.sol\":10267:10310  ClaimRecords(_user,_amount,block.timestamp) */\n      swap2\n      dup7\n      add\n      swap2\n      dup3\n      mstore\n        /* \"MembershipV1.sol\":10242:10311  claimRecords[_user].push(ClaimRecords(_user,_amount,block.timestamp)) */\n      dup1\n      sload\n      0x01\n      dup1\n      dup3\n      add\n      dup4\n      sstore\n      swap2\n      dup7\n      mstore\n      swap3\n      swap1\n      swap5\n      keccak256\n      swap5\n      mload\n      swap2\n      swap1\n      swap3\n      mul\n      swap1\n      swap4\n      add\n      dup1\n      sload\n      not(sub(shl(0xa0, 0x01), 0x01))\n      and\n      swap4\n      swap1\n      swap6\n      and\n      swap3\n      swap1\n      swap3\n      or\n      dup5\n      sstore\n      swap2\n      mload\n      swap2\n      dup4\n      add\n      swap2\n      swap1\n      swap2\n      sstore\n      mload\n      0x02\n      swap1\n      swap2\n      add\n      sstore\n        /* \"MembershipV1.sol\":9989:10318  function claim(address _user,uint256 _amount) external{... */\n      jump\t// out\n        /* \"MembershipV1.sol\":10516:10643  function getTeamRewardInfo(address _user) external view returns (TeamReward[] memory){... */\n    tag_139:\n      sub(shl(0xa0, 0x01), 0x01)\n        /* \"MembershipV1.sol\":10618:10636  teamRewards[_user] */\n      dup2\n      and\n      0x00\n      swap1\n      dup2\n      mstore\n        /* \"MembershipV1.sol\":10618:10629  teamRewards */\n      0x02\n        /* \"MembershipV1.sol\":10618:10636  teamRewards[_user] */\n      0x20\n      swap1\n      dup2\n      mstore\n      0x40\n      dup1\n      dup4\n      keccak256\n        /* \"MembershipV1.sol\":10611:10636  return teamRewards[_user] */\n      dup1\n      sload\n      dup3\n      mload\n      dup2\n      dup6\n      mul\n      dup2\n      add\n      dup6\n      add\n      swap1\n      swap4\n      mstore\n      dup1\n      dup4\n      mstore\n        /* \"MembershipV1.sol\":10581:10600  TeamReward[] memory */\n      0x60\n      swap5\n        /* \"MembershipV1.sol\":10611:10636  return teamRewards[_user] */\n      swap3\n      swap4\n        /* \"MembershipV1.sol\":10618:10636  teamRewards[_user] */\n      swap2\n      swap3\n        /* \"MembershipV1.sol\":10611:10636  return teamRewards[_user] */\n      swap1\n      swap2\n      dup5\n      add\n    tag_236:\n      dup3\n      dup3\n      lt\n      iszero\n      tag_159\n      jumpi\n      0x00\n      dup5\n      dup2\n      mstore\n      0x20\n      swap1\n      dup2\n      swap1\n      keccak256\n      0x40\n      dup1\n      mload\n      0x80\n      dup2\n      add\n      dup3\n      mstore\n      0x04\n      dup7\n      mul\n      swap1\n      swap3\n      add\n      dup1\n      sload\n      sub(shl(0xa0, 0x01), 0x01)\n      and\n      dup4\n      mstore\n      0x01\n      dup2\n      add\n      sload\n      swap4\n      dup4\n      add\n      swap4\n      swap1\n      swap4\n      mstore\n      0x02\n      dup1\n      dup5\n      add\n      sload\n      swap2\n      dup4\n      add\n      swap2\n      swap1\n      swap2\n      mstore\n      0x03\n      dup4\n      add\n      sload\n      swap2\n      swap3\n      swap2\n      0x60\n      dup5\n      add\n      swap2\n      0xff\n      swap1\n      swap2\n      and\n      swap1\n      dup2\n      gt\n      iszero\n      tag_240\n      jumpi\n      tag_240\n      tag_241\n      jump\t// in\n    tag_240:\n      0x02\n      dup2\n      gt\n      iszero\n      tag_243\n      jumpi\n      tag_243\n      tag_241\n      jump\t// in\n    tag_243:\n      dup2\n      mstore\n      pop\n      pop\n      dup2\n      mstore\n      0x20\n      add\n      swap1\n      0x01\n      add\n      swap1\n      jump(tag_236)\n        /* \"MembershipV1.sol\":9703:9983  function findVip(address _user, uint8 maxDepth) private view returns (address) {... */\n    tag_168:\n        /* \"MembershipV1.sol\":9773:9780  address */\n      0x00\n        /* \"MembershipV1.sol\":9796:9809  maxDepth == 0 */\n      0xff\n      dup3\n      and\n      iszero\n      dup1\n        /* \"MembershipV1.sol\":9796:9832  maxDepth == 0 || _user == address(0) */\n      tag_245\n      jumpi\n      pop\n      sub(shl(0xa0, 0x01), 0x01)\n        /* \"MembershipV1.sol\":9813:9832  _user == address(0) */\n      dup4\n      and\n      iszero\n        /* \"MembershipV1.sol\":9796:9832  maxDepth == 0 || _user == address(0) */\n    tag_245:\n        /* \"MembershipV1.sol\":9796:9849  maxDepth == 0 || _user == address(0) || isVips[_user] */\n      dup1\n      tag_246\n      jumpi\n      pop\n      sub(shl(0xa0, 0x01), 0x01)\n        /* \"MembershipV1.sol\":9836:9849  isVips[_user] */\n      dup4\n      and\n      0x00\n      swap1\n      dup2\n      mstore\n        /* \"MembershipV1.sol\":9836:9842  isVips */\n      0x05\n        /* \"MembershipV1.sol\":9836:9849  isVips[_user] */\n      0x20\n      mstore\n      0x40\n      swap1\n      keccak256\n      sload\n      0xff\n      and\n        /* \"MembershipV1.sol\":9796:9849  maxDepth == 0 || _user == address(0) || isVips[_user] */\n    tag_246:\n        /* \"MembershipV1.sol\":9792:9888  if (maxDepth == 0 || _user == address(0) || isVips[_user]) {... */\n      iszero\n      tag_247\n      jumpi\n      pop\n        /* \"MembershipV1.sol\":9872:9877  _user */\n      dup2\n        /* \"MembershipV1.sol\":9865:9877  return _user */\n      jump(tag_167)\n        /* \"MembershipV1.sol\":9792:9888  if (maxDepth == 0 || _user == address(0) || isVips[_user]) {... */\n    tag_247:\n      sub(shl(0xa0, 0x01), 0x01)\n        /* \"MembershipV1.sol\":9915:9929  inviter[_user] */\n      dup1\n      dup5\n      and\n        /* \"MembershipV1.sol\":9897:9912  address invAddr */\n      0x00\n        /* \"MembershipV1.sol\":9915:9929  inviter[_user] */\n      swap1\n      dup2\n      mstore\n        /* \"MembershipV1.sol\":9915:9922  inviter */\n      0x06\n        /* \"MembershipV1.sol\":9915:9929  inviter[_user] */\n      0x20\n      mstore\n      0x40\n      swap1\n      keccak256\n      sload\n      and\n        /* \"MembershipV1.sol\":9946:9976  findVip(invAddr, maxDepth - 1) */\n      tag_248\n        /* \"MembershipV1.sol\":9915:9929  inviter[_user] */\n      dup2\n        /* \"MembershipV1.sol\":9963:9975  maxDepth - 1 */\n      tag_249\n        /* \"MembershipV1.sol\":9915:9929  inviter[_user] */\n      0x01\n        /* \"MembershipV1.sol\":9963:9971  maxDepth */\n      dup7\n        /* \"MembershipV1.sol\":9963:9975  maxDepth - 1 */\n      tag_250\n      jump\t// in\n    tag_249:\n        /* \"MembershipV1.sol\":9946:9953  findVip */\n      tag_168\n        /* \"MembershipV1.sol\":9946:9976  findVip(invAddr, maxDepth - 1) */\n      jump\t// in\n    tag_248:\n        /* \"MembershipV1.sol\":9939:9976  return findVip(invAddr, maxDepth - 1) */\n      swap5\n        /* \"MembershipV1.sol\":9703:9983  function findVip(address _user, uint8 maxDepth) private view returns (address) {... */\n      swap4\n      pop\n      pop\n      pop\n      pop\n      jump\t// out\n        /* \"MembershipV1.sol\":3374:3761  function getReserves(address factory, address tokenA, address tokenB) internal view returns (uint reserveA, uint reserveB) {... */\n    tag_171:\n        /* \"MembershipV1.sol\":3467:3480  uint reserveA */\n      0x00\n        /* \"MembershipV1.sol\":3482:3495  uint reserveB */\n      dup1\n        /* \"MembershipV1.sol\":3508:3522  address token0 */\n      0x00\n        /* \"MembershipV1.sol\":3527:3553  sortTokens(tokenA, tokenB) */\n      tag_252\n        /* \"MembershipV1.sol\":3538:3544  tokenA */\n      dup6\n        /* \"MembershipV1.sol\":3546:3552  tokenB */\n      dup6\n        /* \"MembershipV1.sol\":3527:3537  sortTokens */\n      tag_253\n        /* \"MembershipV1.sol\":3527:3553  sortTokens(tokenA, tokenB) */\n      jump\t// in\n    tag_252:\n        /* \"MembershipV1.sol\":3507:3553  (address token0,) = sortTokens(tokenA, tokenB) */\n      pop\n      swap1\n      pop\n        /* \"MembershipV1.sol\":3564:3577  uint reserve0 */\n      0x00\n        /* \"MembershipV1.sol\":3579:3592  uint reserve1 */\n      dup1\n        /* \"MembershipV1.sol\":3612:3644  pairFor(factory, tokenA, tokenB) */\n      tag_254\n        /* \"MembershipV1.sol\":3620:3627  factory */\n      dup9\n        /* \"MembershipV1.sol\":3629:3635  tokenA */\n      dup9\n        /* \"MembershipV1.sol\":3637:3643  tokenB */\n      dup9\n        /* \"MembershipV1.sol\":3612:3619  pairFor */\n      tag_255\n        /* \"MembershipV1.sol\":3612:3644  pairFor(factory, tokenA, tokenB) */\n      jump\t// in\n    tag_254:\n      sub(shl(0xa0, 0x01), 0x01)\n        /* \"MembershipV1.sol\":3597:3657  IUniswapV2Pair(pairFor(factory, tokenA, tokenB)).getReserves */\n      and\n      0x0902f1ac\n        /* \"MembershipV1.sol\":3597:3659  IUniswapV2Pair(pairFor(factory, tokenA, tokenB)).getReserves() */\n      mload(0x40)\n      dup2\n      0xffffffff\n      and\n      0xe0\n      shl\n      dup2\n      mstore\n      0x04\n      add\n      0x60\n      mload(0x40)\n      dup1\n      dup4\n      sub\n      dup2\n      dup7\n      gas\n      staticcall\n      iszero\n      dup1\n      iszero\n      tag_257\n      jumpi\n      returndatasize\n      0x00\n      dup1\n      returndatacopy\n      revert(0x00, returndatasize)\n    tag_257:\n      pop\n      pop\n      pop\n      pop\n      mload(0x40)\n      returndatasize\n      not(0x1f)\n      0x1f\n      dup3\n      add\n      and\n      dup3\n      add\n      dup1\n      0x40\n      mstore\n      pop\n      dup2\n      add\n      swap1\n      tag_258\n      swap2\n      swap1\n      tag_259\n      jump\t// in\n    tag_258:\n        /* \"MembershipV1.sol\":3563:3659  (uint reserve0, uint reserve1,) = IUniswapV2Pair(pairFor(factory, tokenA, tokenB)).getReserves() */\n      pop\n      sub(shl(0x70, 0x01), 0x01)\n      and\n      swap2\n      pop\n      sub(shl(0x70, 0x01), 0x01)\n      and\n      swap2\n      pop\n        /* \"MembershipV1.sol\":3702:3708  token0 */\n      dup3\n      sub(shl(0xa0, 0x01), 0x01)\n        /* \"MembershipV1.sol\":3692:3708  tokenA == token0 */\n      and\n        /* \"MembershipV1.sol\":3692:3698  tokenA */\n      dup8\n      sub(shl(0xa0, 0x01), 0x01)\n        /* \"MembershipV1.sol\":3692:3708  tokenA == token0 */\n      and\n      eq\n        /* \"MembershipV1.sol\":3692:3754  tokenA == token0 ? (reserve0, reserve1) : (reserve1, reserve0) */\n      tag_260\n      jumpi\n        /* \"MembershipV1.sol\":3735:3743  reserve1 */\n      dup1\n        /* \"MembershipV1.sol\":3745:3753  reserve0 */\n      dup3\n        /* \"MembershipV1.sol\":3692:3754  tokenA == token0 ? (reserve0, reserve1) : (reserve1, reserve0) */\n      jump(tag_261)\n    tag_260:\n        /* \"MembershipV1.sol\":3712:3720  reserve0 */\n      dup2\n        /* \"MembershipV1.sol\":3722:3730  reserve1 */\n      dup2\n        /* \"MembershipV1.sol\":3692:3754  tokenA == token0 ? (reserve0, reserve1) : (reserve1, reserve0) */\n    tag_261:\n        /* \"MembershipV1.sol\":3669:3754  (reserveA, reserveB) = tokenA == token0 ? (reserve0, reserve1) : (reserve1, reserve0) */\n      swap1\n      swap10\n      swap1\n      swap9\n      pop\n        /* \"MembershipV1.sol\":3374:3761  function getReserves(address factory, address tokenA, address tokenB) internal view returns (uint reserveA, uint reserveB) {... */\n      swap7\n      pop\n      pop\n      pop\n      pop\n      pop\n      pop\n      pop\n      jump\t// out\n        /* \"MembershipV1.sol\":3767:4277  function getAmountOut(uint amountIn, uint reserveIn, uint reserveOut) internal pure returns (uint amountOut) {... */\n    tag_173:\n        /* \"MembershipV1.sol\":3860:3874  uint amountOut */\n      0x00\n        /* \"MembershipV1.sol\":3905:3906  0 */\n      dup1\n        /* \"MembershipV1.sol\":3894:3902  amountIn */\n      dup5\n        /* \"MembershipV1.sol\":3894:3906  amountIn > 0 */\n      gt\n        /* \"MembershipV1.sol\":3886:3954  require(amountIn > 0, 'UniswapV2Library: INSUFFICIENT_INPUT_AMOUNT') */\n      tag_263\n      jumpi\n      mload(0x40)\n      shl(0xe5, 0x461bcd)\n      dup2\n      mstore\n        /* \"#utility.yul\":10091:10093   */\n      0x20\n        /* \"MembershipV1.sol\":3886:3954  require(amountIn > 0, 'UniswapV2Library: INSUFFICIENT_INPUT_AMOUNT') */\n      0x04\n      dup3\n      add\n        /* \"#utility.yul\":10073:10094   */\n      mstore\n        /* \"#utility.yul\":10130:10132   */\n      0x2b\n        /* \"#utility.yul\":10110:10128   */\n      0x24\n      dup3\n      add\n        /* \"#utility.yul\":10103:10133   */\n      mstore\n        /* \"#utility.yul\":10169:10203   */\n      0x556e697377617056324c6962726172793a20494e53554646494349454e545f49\n        /* \"#utility.yul\":10149:10167   */\n      0x44\n      dup3\n      add\n        /* \"#utility.yul\":10142:10204   */\n      mstore\n      shl(0xaa, 0x1394155517d05353d55395)\n        /* \"#utility.yul\":10220:10238   */\n      0x64\n      dup3\n      add\n        /* \"#utility.yul\":10213:10254   */\n      mstore\n        /* \"#utility.yul\":10271:10290   */\n      0x84\n      add\n        /* \"MembershipV1.sol\":3886:3954  require(amountIn > 0, 'UniswapV2Library: INSUFFICIENT_INPUT_AMOUNT') */\n      tag_150\n        /* \"#utility.yul\":9889:10296   */\n      jump\n        /* \"MembershipV1.sol\":3886:3954  require(amountIn > 0, 'UniswapV2Library: INSUFFICIENT_INPUT_AMOUNT') */\n    tag_263:\n        /* \"MembershipV1.sol\":3984:3985  0 */\n      0x00\n        /* \"MembershipV1.sol\":3972:3981  reserveIn */\n      dup4\n        /* \"MembershipV1.sol\":3972:3985  reserveIn > 0 */\n      gt\n        /* \"MembershipV1.sol\":3972:4003  reserveIn > 0 && reserveOut > 0 */\n      dup1\n      iszero\n      tag_266\n      jumpi\n      pop\n        /* \"MembershipV1.sol\":4002:4003  0 */\n      0x00\n        /* \"MembershipV1.sol\":3989:3999  reserveOut */\n      dup3\n        /* \"MembershipV1.sol\":3989:4003  reserveOut > 0 */\n      gt\n        /* \"MembershipV1.sol\":3972:4003  reserveIn > 0 && reserveOut > 0 */\n    tag_266:\n        /* \"MembershipV1.sol\":3964:4048  require(reserveIn > 0 && reserveOut > 0, 'UniswapV2Library: INSUFFICIENT_LIQUIDITY') */\n      tag_267\n      jumpi\n      mload(0x40)\n      shl(0xe5, 0x461bcd)\n      dup2\n      mstore\n        /* \"#utility.yul\":10503:10505   */\n      0x20\n        /* \"MembershipV1.sol\":3964:4048  require(reserveIn > 0 && reserveOut > 0, 'UniswapV2Library: INSUFFICIENT_LIQUIDITY') */\n      0x04\n      dup3\n      add\n        /* \"#utility.yul\":10485:10506   */\n      mstore\n        /* \"#utility.yul\":10542:10544   */\n      0x28\n        /* \"#utility.yul\":10522:10540   */\n      0x24\n      dup3\n      add\n        /* \"#utility.yul\":10515:10545   */\n      mstore\n        /* \"#utility.yul\":10581:10615   */\n      0x556e697377617056324c6962726172793a20494e53554646494349454e545f4c\n        /* \"#utility.yul\":10561:10579   */\n      0x44\n      dup3\n      add\n        /* \"#utility.yul\":10554:10616   */\n      mstore\n      shl(0xc0, 0x4951554944495459)\n        /* \"#utility.yul\":10632:10650   */\n      0x64\n      dup3\n      add\n        /* \"#utility.yul\":10625:10663   */\n      mstore\n        /* \"#utility.yul\":10680:10699   */\n      0x84\n      add\n        /* \"MembershipV1.sol\":3964:4048  require(reserveIn > 0 && reserveOut > 0, 'UniswapV2Library: INSUFFICIENT_LIQUIDITY') */\n      tag_150\n        /* \"#utility.yul\":10301:10705   */\n      jump\n        /* \"MembershipV1.sol\":3964:4048  require(reserveIn > 0 && reserveOut > 0, 'UniswapV2Library: INSUFFICIENT_LIQUIDITY') */\n    tag_267:\n        /* \"MembershipV1.sol\":4058:4078  uint amountInWithFee */\n      0x00\n        /* \"MembershipV1.sol\":4081:4098  amountIn.mul(997) */\n      tag_270\n        /* \"MembershipV1.sol\":4081:4089  amountIn */\n      dup6\n        /* \"MembershipV1.sol\":4094:4097  997 */\n      0x03e5\n        /* \"MembershipV1.sol\":4081:4093  amountIn.mul */\n      tag_271\n        /* \"MembershipV1.sol\":4081:4098  amountIn.mul(997) */\n      jump\t// in\n    tag_270:\n        /* \"MembershipV1.sol\":4058:4098  uint amountInWithFee = amountIn.mul(997) */\n      swap1\n      pop\n        /* \"MembershipV1.sol\":4108:4122  uint numerator */\n      0x00\n        /* \"MembershipV1.sol\":4125:4156  amountInWithFee.mul(reserveOut) */\n      tag_272\n        /* \"MembershipV1.sol\":4058:4098  uint amountInWithFee = amountIn.mul(997) */\n      dup3\n        /* \"MembershipV1.sol\":4145:4155  reserveOut */\n      dup6\n        /* \"MembershipV1.sol\":4125:4144  amountInWithFee.mul */\n      tag_271\n        /* \"MembershipV1.sol\":4125:4156  amountInWithFee.mul(reserveOut) */\n      jump\t// in\n    tag_272:\n        /* \"MembershipV1.sol\":4108:4156  uint numerator = amountInWithFee.mul(reserveOut) */\n      swap1\n      pop\n        /* \"MembershipV1.sol\":4166:4182  uint denominator */\n      0x00\n        /* \"MembershipV1.sol\":4185:4225  reserveIn.mul(1000).add(amountInWithFee) */\n      tag_273\n        /* \"MembershipV1.sol\":4209:4224  amountInWithFee */\n      dup4\n        /* \"MembershipV1.sol\":4185:4204  reserveIn.mul(1000) */\n      tag_274\n        /* \"MembershipV1.sol\":4185:4194  reserveIn */\n      dup9\n        /* \"MembershipV1.sol\":4199:4203  1000 */\n      0x03e8\n        /* \"MembershipV1.sol\":4185:4198  reserveIn.mul */\n      tag_271\n        /* \"MembershipV1.sol\":4185:4204  reserveIn.mul(1000) */\n      jump\t// in\n    tag_274:\n        /* \"MembershipV1.sol\":4185:4208  reserveIn.mul(1000).add */\n      swap1\n      tag_275\n        /* \"MembershipV1.sol\":4185:4225  reserveIn.mul(1000).add(amountInWithFee) */\n      jump\t// in\n    tag_273:\n        /* \"MembershipV1.sol\":4166:4225  uint denominator = reserveIn.mul(1000).add(amountInWithFee) */\n      swap1\n      pop\n        /* \"MembershipV1.sol\":4247:4270  numerator / denominator */\n      tag_276\n        /* \"MembershipV1.sol\":4166:4225  uint denominator = reserveIn.mul(1000).add(amountInWithFee) */\n      dup2\n        /* \"MembershipV1.sol\":4247:4256  numerator */\n      dup4\n        /* \"MembershipV1.sol\":4247:4270  numerator / denominator */\n      tag_199\n      jump\t// in\n    tag_276:\n        /* \"MembershipV1.sol\":4235:4270  amountOut = numerator / denominator */\n      swap8\n        /* \"MembershipV1.sol\":3767:4277  function getAmountOut(uint amountIn, uint reserveIn, uint reserveOut) internal pure returns (uint amountOut) {... */\n      swap7\n      pop\n      pop\n      pop\n      pop\n      pop\n      pop\n      pop\n      jump\t// out\n        /* \"MembershipV1.sol\":1540:1860  function safeTransferFrom(address token, address from, address to, uint value) internal {... */\n    tag_205:\n        /* \"MembershipV1.sol\":1685:1736  abi.encodeWithSelector(0x23b872dd, from, to, value) */\n      0x40\n      dup1\n      mload\n      sub(shl(0xa0, 0x01), 0x01)\n        /* \"#utility.yul\":10968:10983   */\n      dup6\n      dup2\n      and\n        /* \"MembershipV1.sol\":1685:1736  abi.encodeWithSelector(0x23b872dd, from, to, value) */\n      0x24\n      dup4\n      add\n        /* \"#utility.yul\":10950:10984   */\n      mstore\n        /* \"#utility.yul\":11020:11035   */\n      dup5\n      dup2\n      and\n        /* \"#utility.yul\":11000:11018   */\n      0x44\n      dup4\n      add\n        /* \"#utility.yul\":10993:11036   */\n      mstore\n        /* \"#utility.yul\":11052:11070   */\n      0x64\n      dup1\n      dup4\n      add\n        /* \"#utility.yul\":11045:11079   */\n      dup6\n      swap1\n      mstore\n        /* \"MembershipV1.sol\":1685:1736  abi.encodeWithSelector(0x23b872dd, from, to, value) */\n      dup4\n      mload\n      dup1\n      dup5\n      sub\n      swap1\n      swap2\n      add\n      dup2\n      mstore\n        /* \"#utility.yul\":10885:10903   */\n      0x84\n      swap1\n      swap3\n      add\n        /* \"MembershipV1.sol\":1685:1736  abi.encodeWithSelector(0x23b872dd, from, to, value) */\n      dup4\n      mstore\n      0x20\n      dup3\n      add\n      dup1\n      mload\n      sub(shl(0xe0, 0x01), 0x01)\n      and\n      shl(0xe0, 0x23b872dd)\n      or\n      swap1\n      mstore\n        /* \"MembershipV1.sol\":1674:1737  token.call(abi.encodeWithSelector(0x23b872dd, from, to, value)) */\n      swap2\n      mload\n      0x00\n      swap3\n      dup4\n      swap3\n        /* \"MembershipV1.sol\":1674:1684  token.call */\n      swap1\n      dup9\n      and\n      swap2\n        /* \"MembershipV1.sol\":1674:1737  token.call(abi.encodeWithSelector(0x23b872dd, from, to, value)) */\n      tag_280\n      swap2\n        /* \"MembershipV1.sol\":1685:1736  abi.encodeWithSelector(0x23b872dd, from, to, value) */\n      swap1\n        /* \"MembershipV1.sol\":1674:1737  token.call(abi.encodeWithSelector(0x23b872dd, from, to, value)) */\n      tag_281\n      jump\t// in\n    tag_280:\n      0x00\n      mload(0x40)\n      dup1\n      dup4\n      sub\n      dup2\n      0x00\n      dup7\n      gas\n      call\n      swap2\n      pop\n      pop\n      returndatasize\n      dup1\n      0x00\n      dup2\n      eq\n      tag_284\n      jumpi\n      mload(0x40)\n      swap2\n      pop\n      and(add(returndatasize, 0x3f), not(0x1f))\n      dup3\n      add\n      0x40\n      mstore\n      returndatasize\n      dup3\n      mstore\n      returndatasize\n      0x00\n      0x20\n      dup5\n      add\n      returndatacopy\n      jump(tag_283)\n    tag_284:\n      0x60\n      swap2\n      pop\n    tag_283:\n      pop\n        /* \"MembershipV1.sol\":1638:1737  (bool success, bytes memory data) = token.call(abi.encodeWithSelector(0x23b872dd, from, to, value)) */\n      swap2\n      pop\n      swap2\n      pop\n        /* \"MembershipV1.sol\":1755:1762  success */\n      dup2\n        /* \"MembershipV1.sol\":1755:1812  success && (data.length == 0 || abi.decode(data, (bool))) */\n      dup1\n      iszero\n      tag_287\n      jumpi\n      pop\n        /* \"MembershipV1.sol\":1767:1778  data.length */\n      dup1\n      mload\n        /* \"MembershipV1.sol\":1767:1783  data.length == 0 */\n      iszero\n      dup1\n        /* \"MembershipV1.sol\":1767:1811  data.length == 0 || abi.decode(data, (bool)) */\n      tag_287\n      jumpi\n      pop\n        /* \"MembershipV1.sol\":1798:1802  data */\n      dup1\n        /* \"MembershipV1.sol\":1787:1811  abi.decode(data, (bool)) */\n      dup1\n      0x20\n      add\n      swap1\n      mload\n      dup2\n      add\n      swap1\n      tag_287\n      swap2\n      swap1\n      tag_288\n      jump\t// in\n    tag_287:\n        /* \"MembershipV1.sol\":1747:1853  require(success && (data.length == 0 || abi.decode(data, (bool))), 'TransferHelper: TRANSFER_FROM_FAILED') */\n      tag_289\n      jumpi\n      mload(0x40)\n      shl(0xe5, 0x461bcd)\n      dup2\n      mstore\n        /* \"#utility.yul\":11991:11993   */\n      0x20\n        /* \"MembershipV1.sol\":1747:1853  require(success && (data.length == 0 || abi.decode(data, (bool))), 'TransferHelper: TRANSFER_FROM_FAILED') */\n      0x04\n      dup3\n      add\n        /* \"#utility.yul\":11973:11994   */\n      mstore\n        /* \"#utility.yul\":12030:12032   */\n      0x24\n        /* \"#utility.yul\":12010:12028   */\n      dup1\n      dup3\n      add\n        /* \"#utility.yul\":12003:12033   */\n      mstore\n        /* \"#utility.yul\":12069:12103   */\n      0x5472616e7366657248656c7065723a205452414e534645525f46524f4d5f4641\n        /* \"#utility.yul\":12049:12067   */\n      0x44\n      dup3\n      add\n        /* \"#utility.yul\":12042:12104   */\n      mstore\n      shl(0xe2, 0x12531151)\n        /* \"#utility.yul\":12120:12138   */\n      0x64\n      dup3\n      add\n        /* \"#utility.yul\":12113:12147   */\n      mstore\n        /* \"#utility.yul\":12164:12183   */\n      0x84\n      add\n        /* \"MembershipV1.sol\":1747:1853  require(success && (data.length == 0 || abi.decode(data, (bool))), 'TransferHelper: TRANSFER_FROM_FAILED') */\n      tag_150\n        /* \"#utility.yul\":11789:12189   */\n      jump\n        /* \"MembershipV1.sol\":1747:1853  require(success && (data.length == 0 || abi.decode(data, (bool))), 'TransferHelper: TRANSFER_FROM_FAILED') */\n    tag_289:\n        /* \"MembershipV1.sol\":1628:1860  {... */\n      pop\n      pop\n        /* \"MembershipV1.sol\":1540:1860  function safeTransferFrom(address token, address from, address to, uint value) internal {... */\n      pop\n      pop\n      pop\n      pop\n      jump\t// out\n        /* \"MembershipV1.sol\":7794:8815  function updateInviter(address _user,uint256 _amount)internal{... */\n    tag_215:\n      sub(shl(0xa0, 0x01), 0x01)\n        /* \"MembershipV1.sol\":7883:7897  inviter[_user] */\n      dup1\n      dup4\n      and\n        /* \"MembershipV1.sol\":7865:7880  address _direct */\n      0x00\n        /* \"MembershipV1.sol\":7883:7897  inviter[_user] */\n      swap1\n      dup2\n      mstore\n        /* \"MembershipV1.sol\":7883:7890  inviter */\n      0x06\n        /* \"MembershipV1.sol\":7883:7897  inviter[_user] */\n      0x20\n      swap1\n      dup2\n      mstore\n      0x40\n      dup1\n      dup4\n      keccak256\n      sload\n      swap1\n      swap4\n      and\n        /* \"MembershipV1.sol\":7907:7926  invitesNum[_direct] */\n      dup1\n      dup4\n      mstore\n        /* \"MembershipV1.sol\":7907:7917  invitesNum */\n      0x07\n        /* \"MembershipV1.sol\":7907:7926  invitesNum[_direct] */\n      swap1\n      swap2\n      mstore\n      swap2\n      dup2\n      keccak256\n        /* \"MembershipV1.sol\":7907:7931  invitesNum[_direct] += 1 */\n      dup1\n      sload\n        /* \"MembershipV1.sol\":7883:7897  inviter[_user] */\n      0x01\n      swap3\n        /* \"MembershipV1.sol\":7865:7880  address _direct */\n      swap1\n        /* \"MembershipV1.sol\":7907:7931  invitesNum[_direct] += 1 */\n      tag_293\n      swap1\n        /* \"MembershipV1.sol\":7883:7897  inviter[_user] */\n      dup5\n      swap1\n        /* \"MembershipV1.sol\":7907:7931  invitesNum[_direct] += 1 */\n      tag_294\n      jump\t// in\n    tag_293:\n      swap1\n      swap2\n      sstore\n      pop\n      pop\n      sub(shl(0xa0, 0x01), 0x01)\n        /* \"MembershipV1.sol\":7944:7963  invitesNum[_direct] */\n      dup2\n      and\n      0x00\n      swap1\n      dup2\n      mstore\n        /* \"MembershipV1.sol\":7944:7954  invitesNum */\n      0x07\n        /* \"MembershipV1.sol\":7944:7963  invitesNum[_direct] */\n      0x20\n      mstore\n      0x40\n      swap1\n      keccak256\n      sload\n        /* \"MembershipV1.sol\":7967:7968  3 */\n      0x03\n      gt\n        /* \"MembershipV1.sol\":7944:7968  invitesNum[_direct] >= 3 */\n      dup1\n      iszero\n      swap1\n        /* \"MembershipV1.sol\":7944:7988  invitesNum[_direct] >= 3 && !isVips[_direct] */\n      tag_295\n      jumpi\n      pop\n      sub(shl(0xa0, 0x01), 0x01)\n        /* \"MembershipV1.sol\":7973:7988  isVips[_direct] */\n      dup2\n      and\n      0x00\n      swap1\n      dup2\n      mstore\n        /* \"MembershipV1.sol\":7973:7979  isVips */\n      0x05\n        /* \"MembershipV1.sol\":7973:7988  isVips[_direct] */\n      0x20\n      mstore\n      0x40\n      swap1\n      keccak256\n      sload\n      0xff\n      and\n        /* \"MembershipV1.sol\":7972:7988  !isVips[_direct] */\n      iszero\n        /* \"MembershipV1.sol\":7944:7988  invitesNum[_direct] >= 3 && !isVips[_direct] */\n    tag_295:\n        /* \"MembershipV1.sol\":7941:8012  if(invitesNum[_direct] >= 3 && !isVips[_direct]) isVips[_direct] = true */\n      iszero\n      tag_296\n      jumpi\n      sub(shl(0xa0, 0x01), 0x01)\n        /* \"MembershipV1.sol\":7990:8005  isVips[_direct] */\n      dup2\n      and\n      0x00\n      swap1\n      dup2\n      mstore\n        /* \"MembershipV1.sol\":7990:7996  isVips */\n      0x05\n        /* \"MembershipV1.sol\":7990:8005  isVips[_direct] */\n      0x20\n      mstore\n      0x40\n      swap1\n      keccak256\n        /* \"MembershipV1.sol\":7990:8012  isVips[_direct] = true */\n      dup1\n      sload\n      not(0xff)\n      and\n        /* \"MembershipV1.sol\":8008:8012  true */\n      0x01\n        /* \"MembershipV1.sol\":7990:8012  isVips[_direct] = true */\n      or\n      swap1\n      sstore\n        /* \"MembershipV1.sol\":7941:8012  if(invitesNum[_direct] >= 3 && !isVips[_direct]) isVips[_direct] = true */\n    tag_296:\n        /* \"MembershipV1.sol\":8094:8097  100 */\n      0x64\n        /* \"MembershipV1.sol\":8079:8091  _amount * 20 */\n      tag_297\n        /* \"MembershipV1.sol\":8079:8086  _amount */\n      dup4\n        /* \"MembershipV1.sol\":8089:8091  20 */\n      0x14\n        /* \"MembershipV1.sol\":8079:8091  _amount * 20 */\n      tag_197\n      jump\t// in\n    tag_297:\n        /* \"MembershipV1.sol\":8079:8097  _amount * 20 / 100 */\n      tag_298\n      swap2\n      swap1\n      tag_199\n      jump\t// in\n    tag_298:\n      sub(shl(0xa0, 0x01), 0x01)\n        /* \"MembershipV1.sol\":8051:8075  totalTeamReward[_direct] */\n      dup3\n      and\n      0x00\n      swap1\n      dup2\n      mstore\n        /* \"MembershipV1.sol\":8051:8066  totalTeamReward */\n      0x08\n        /* \"MembershipV1.sol\":8051:8075  totalTeamReward[_direct] */\n      0x20\n      mstore\n      0x40\n      swap1\n      keccak256\n      sload\n        /* \"MembershipV1.sol\":8051:8098  totalTeamReward[_direct] + (_amount * 20 / 100) */\n      tag_299\n      swap2\n      swap1\n      tag_294\n      jump\t// in\n    tag_299:\n      sub(shl(0xa0, 0x01), 0x01)\n        /* \"MembershipV1.sol\":8024:8048  totalTeamReward[_direct] */\n      dup1\n      dup4\n      and\n      0x00\n      swap1\n      dup2\n      mstore\n        /* \"MembershipV1.sol\":8024:8039  totalTeamReward */\n      0x08\n        /* \"MembershipV1.sol\":8024:8048  totalTeamReward[_direct] */\n      0x20\n      swap1\n      dup2\n      mstore\n      0x40\n      dup1\n      dup4\n      keccak256\n        /* \"MembershipV1.sol\":8024:8098  totalTeamReward[_direct] = totalTeamReward[_direct] + (_amount * 20 / 100) */\n      swap5\n      swap1\n      swap5\n      sstore\n        /* \"MembershipV1.sol\":8108:8119  teamRewards */\n      0x02\n        /* \"MembershipV1.sol\":8108:8128  teamRewards[_direct] */\n      dup2\n      mstore\n      swap1\n      dup4\n      swap1\n      keccak256\n        /* \"MembershipV1.sol\":8134:8204  TeamReward(_user, _amount * 20 / 100, block.timestamp, Express.direct) */\n      dup4\n      mload\n      0x80\n      dup2\n      add\n      swap1\n      swap5\n      mstore\n      swap2\n      dup7\n      and\n      dup4\n      mstore\n        /* \"MembershipV1.sol\":8108:8128  teamRewards[_direct] */\n      swap1\n      swap2\n        /* \"MembershipV1.sol\":8134:8204  TeamReward(_user, _amount * 20 / 100, block.timestamp, Express.direct) */\n      swap1\n      dup2\n      add\n        /* \"MembershipV1.sol\":8167:8170  100 */\n      0x64\n        /* \"MembershipV1.sol\":8152:8164  _amount * 20 */\n      tag_300\n        /* \"MembershipV1.sol\":8152:8159  _amount */\n      dup7\n        /* \"MembershipV1.sol\":8162:8164  20 */\n      0x14\n        /* \"MembershipV1.sol\":8152:8164  _amount * 20 */\n      tag_197\n      jump\t// in\n    tag_300:\n        /* \"MembershipV1.sol\":8152:8170  _amount * 20 / 100 */\n      tag_301\n      swap2\n      swap1\n      tag_199\n      jump\t// in\n    tag_301:\n        /* \"MembershipV1.sol\":8134:8204  TeamReward(_user, _amount * 20 / 100, block.timestamp, Express.direct) */\n      dup2\n      mstore\n        /* \"MembershipV1.sol\":8172:8187  block.timestamp */\n      timestamp\n        /* \"MembershipV1.sol\":8134:8204  TeamReward(_user, _amount * 20 / 100, block.timestamp, Express.direct) */\n      0x20\n      dup3\n      add\n      mstore\n      0x40\n      add\n      0x00\n      swap1\n      mstore\n        /* \"MembershipV1.sol\":8108:8205  teamRewards[_direct].push(TeamReward(_user, _amount * 20 / 100, block.timestamp, Express.direct)) */\n      dup2\n      sload\n      0x01\n      dup1\n      dup3\n      add\n      dup5\n      sstore\n      0x00\n      swap4\n      dup5\n      mstore\n      0x20\n      swap4\n      dup5\n      swap1\n      keccak256\n      dup4\n      mload\n      0x04\n      swap1\n      swap4\n      mul\n      add\n      dup1\n      sload\n      not(sub(shl(0xa0, 0x01), 0x01))\n      and\n      sub(shl(0xa0, 0x01), 0x01)\n      swap1\n      swap4\n      and\n      swap3\n      swap1\n      swap3\n      or\n      dup3\n      sstore\n      swap3\n      dup3\n      add\n      mload\n      dup2\n      dup5\n      add\n      sstore\n      0x40\n      dup3\n      add\n      mload\n      0x02\n      dup1\n      dup4\n      add\n      swap2\n      swap1\n      swap2\n      sstore\n      0x60\n      dup4\n      add\n      mload\n      0x03\n      dup4\n      add\n      dup1\n      sload\n      swap5\n      swap6\n      swap4\n      swap5\n      swap2\n      swap4\n      swap1\n      swap3\n      not(0xff)\n      swap1\n      swap3\n      and\n      swap2\n      dup5\n      swap1\n      dup2\n      gt\n      iszero\n      tag_306\n      jumpi\n      tag_306\n      tag_241\n      jump\t// in\n    tag_306:\n      mul\n      or\n      swap1\n      sstore\n      pop\n      pop\n      pop\n      sub(shl(0xa0, 0x01), 0x01)\n        /* \"MembershipV1.sol\":8219:8234  isVips[_direct] */\n      dup2\n      and\n      0x00\n      swap1\n      dup2\n      mstore\n        /* \"MembershipV1.sol\":8219:8225  isVips */\n      0x05\n        /* \"MembershipV1.sol\":8219:8234  isVips[_direct] */\n      0x20\n      mstore\n      0x40\n      swap1\n      keccak256\n      sload\n      0xff\n      and\n        /* \"MembershipV1.sol\":8216:8809  if(isVips[_direct]){... */\n      iszero\n      tag_307\n      jumpi\n        /* \"MembershipV1.sol\":8319:8322  100 */\n      0x64\n        /* \"MembershipV1.sol\":8304:8316  _amount * 40 */\n      tag_308\n        /* \"MembershipV1.sol\":8304:8311  _amount */\n      dup4\n        /* \"MembershipV1.sol\":8314:8316  40 */\n      0x28\n        /* \"MembershipV1.sol\":8304:8316  _amount * 40 */\n      tag_197\n      jump\t// in\n    tag_308:\n        /* \"MembershipV1.sol\":8304:8322  _amount * 40 / 100 */\n      tag_309\n      swap2\n      swap1\n      tag_199\n      jump\t// in\n    tag_309:\n      sub(shl(0xa0, 0x01), 0x01)\n        /* \"MembershipV1.sol\":8276:8300  totalTeamReward[_direct] */\n      dup3\n      and\n      0x00\n      swap1\n      dup2\n      mstore\n        /* \"MembershipV1.sol\":8276:8291  totalTeamReward */\n      0x08\n        /* \"MembershipV1.sol\":8276:8300  totalTeamReward[_direct] */\n      0x20\n      mstore\n      0x40\n      swap1\n      keccak256\n      sload\n        /* \"MembershipV1.sol\":8276:8323  totalTeamReward[_direct] + (_amount * 40 / 100) */\n      tag_310\n      swap2\n      swap1\n      tag_294\n      jump\t// in\n    tag_310:\n      sub(shl(0xa0, 0x01), 0x01)\n        /* \"MembershipV1.sol\":8249:8273  totalTeamReward[_direct] */\n      dup1\n      dup4\n      and\n      0x00\n      swap1\n      dup2\n      mstore\n        /* \"MembershipV1.sol\":8249:8264  totalTeamReward */\n      0x08\n        /* \"MembershipV1.sol\":8249:8273  totalTeamReward[_direct] */\n      0x20\n      swap1\n      dup2\n      mstore\n      0x40\n      dup1\n      dup4\n      keccak256\n        /* \"MembershipV1.sol\":8249:8323  totalTeamReward[_direct] = totalTeamReward[_direct] + (_amount * 40 / 100) */\n      swap5\n      swap1\n      swap5\n      sstore\n        /* \"MembershipV1.sol\":8337:8348  teamRewards */\n      0x02\n        /* \"MembershipV1.sol\":8337:8357  teamRewards[_direct] */\n      dup2\n      mstore\n      swap1\n      dup4\n      swap1\n      keccak256\n        /* \"MembershipV1.sol\":8363:8428  TeamReward(_user,_amount * 40 / 100,block.timestamp,Express.vips) */\n      dup4\n      mload\n      0x80\n      dup2\n      add\n      swap1\n      swap5\n      mstore\n      swap2\n      dup7\n      and\n      dup4\n      mstore\n        /* \"MembershipV1.sol\":8337:8357  teamRewards[_direct] */\n      swap1\n      swap2\n        /* \"MembershipV1.sol\":8363:8428  TeamReward(_user,_amount * 40 / 100,block.timestamp,Express.vips) */\n      swap1\n      dup2\n      add\n        /* \"MembershipV1.sol\":8395:8398  100 */\n      0x64\n        /* \"MembershipV1.sol\":8380:8392  _amount * 40 */\n      tag_311\n        /* \"MembershipV1.sol\":8380:8387  _amount */\n      dup7\n        /* \"MembershipV1.sol\":8390:8392  40 */\n      0x28\n        /* \"MembershipV1.sol\":8380:8392  _amount * 40 */\n      tag_197\n      jump\t// in\n    tag_311:\n        /* \"MembershipV1.sol\":8380:8398  _amount * 40 / 100 */\n      tag_312\n      swap2\n      swap1\n      tag_199\n      jump\t// in\n    tag_312:\n        /* \"MembershipV1.sol\":8363:8428  TeamReward(_user,_amount * 40 / 100,block.timestamp,Express.vips) */\n      dup2\n      mstore\n        /* \"MembershipV1.sol\":8399:8414  block.timestamp */\n      timestamp\n        /* \"MembershipV1.sol\":8363:8428  TeamReward(_user,_amount * 40 / 100,block.timestamp,Express.vips) */\n      0x20\n      dup3\n      add\n      mstore\n      0x40\n      add\n        /* \"MembershipV1.sol\":8415:8427  Express.vips */\n      0x01\n        /* \"MembershipV1.sol\":8363:8428  TeamReward(_user,_amount * 40 / 100,block.timestamp,Express.vips) */\n      swap1\n      mstore\n        /* \"MembershipV1.sol\":8337:8429  teamRewards[_direct].push(TeamReward(_user,_amount * 40 / 100,block.timestamp,Express.vips)) */\n      dup2\n      sload\n      0x01\n      dup1\n      dup3\n      add\n      dup5\n      sstore\n      0x00\n      swap4\n      dup5\n      mstore\n      0x20\n      swap4\n      dup5\n      swap1\n      keccak256\n      dup4\n      mload\n      0x04\n      swap1\n      swap4\n      mul\n      add\n      dup1\n      sload\n      not(sub(shl(0xa0, 0x01), 0x01))\n      and\n      sub(shl(0xa0, 0x01), 0x01)\n      swap1\n      swap4\n      and\n      swap3\n      swap1\n      swap3\n      or\n      dup3\n      sstore\n      swap3\n      dup3\n      add\n      mload\n      dup2\n      dup5\n      add\n      sstore\n      0x40\n      dup3\n      add\n      mload\n      0x02\n      dup1\n      dup4\n      add\n      swap2\n      swap1\n      swap2\n      sstore\n      0x60\n      dup4\n      add\n      mload\n      0x03\n      dup4\n      add\n      dup1\n      sload\n      swap5\n      swap6\n      swap4\n      swap5\n      swap2\n      swap4\n      swap1\n      swap3\n      not(0xff)\n      swap1\n      swap3\n      and\n      swap2\n      dup5\n      swap1\n      dup2\n      gt\n      iszero\n      tag_317\n      jumpi\n      tag_317\n      tag_241\n      jump\t// in\n    tag_317:\n      mul\n      or\n      swap1\n      sstore\n      pop\n      pop\n      pop\n      sub(shl(0xa0, 0x01), 0x01)\n        /* \"MembershipV1.sol\":8462:8478  inviter[_direct] */\n      dup1\n      dup3\n      and\n        /* \"MembershipV1.sol\":8443:8459  address _degrees */\n      0x00\n        /* \"MembershipV1.sol\":8462:8478  inviter[_direct] */\n      swap1\n      dup2\n      mstore\n        /* \"MembershipV1.sol\":8462:8469  inviter */\n      0x06\n        /* \"MembershipV1.sol\":8462:8478  inviter[_direct] */\n      0x20\n      mstore\n      0x40\n      swap1\n      keccak256\n      sload\n      and\n        /* \"MembershipV1.sol\":8495:8517  _degrees != address(0) */\n      dup1\n      iszero\n        /* \"MembershipV1.sol\":8492:8744  if(_degrees != address(0)){... */\n      tag_318\n      jumpi\n        /* \"MembershipV1.sol\":8607:8610  100 */\n      0x64\n        /* \"MembershipV1.sol\":8593:8604  _amount * 6 */\n      tag_319\n        /* \"MembershipV1.sol\":8593:8600  _amount */\n      dup5\n        /* \"MembershipV1.sol\":8603:8604  6 */\n      0x06\n        /* \"MembershipV1.sol\":8593:8604  _amount * 6 */\n      tag_197\n      jump\t// in\n    tag_319:\n        /* \"MembershipV1.sol\":8593:8610  _amount * 6 / 100 */\n      tag_320\n      swap2\n      swap1\n      tag_199\n      jump\t// in\n    tag_320:\n      sub(shl(0xa0, 0x01), 0x01)\n        /* \"MembershipV1.sol\":8564:8589  totalTeamReward[_degrees] */\n      dup3\n      and\n      0x00\n      swap1\n      dup2\n      mstore\n        /* \"MembershipV1.sol\":8564:8579  totalTeamReward */\n      0x08\n        /* \"MembershipV1.sol\":8564:8589  totalTeamReward[_degrees] */\n      0x20\n      mstore\n      0x40\n      swap1\n      keccak256\n      sload\n        /* \"MembershipV1.sol\":8564:8611  totalTeamReward[_degrees] + (_amount * 6 / 100) */\n      tag_321\n      swap2\n      swap1\n      tag_294\n      jump\t// in\n    tag_321:\n      sub(shl(0xa0, 0x01), 0x01)\n        /* \"MembershipV1.sol\":8536:8561  totalTeamReward[_degrees] */\n      dup1\n      dup4\n      and\n      0x00\n      swap1\n      dup2\n      mstore\n        /* \"MembershipV1.sol\":8536:8551  totalTeamReward */\n      0x08\n        /* \"MembershipV1.sol\":8536:8561  totalTeamReward[_degrees] */\n      0x20\n      swap1\n      dup2\n      mstore\n      0x40\n      dup1\n      dup4\n      keccak256\n        /* \"MembershipV1.sol\":8536:8611  totalTeamReward[_degrees] = totalTeamReward[_degrees] + (_amount * 6 / 100) */\n      swap5\n      swap1\n      swap5\n      sstore\n        /* \"MembershipV1.sol\":8629:8640  teamRewards */\n      0x02\n        /* \"MembershipV1.sol\":8629:8650  teamRewards[_degrees] */\n      dup2\n      mstore\n      swap1\n      dup4\n      swap1\n      keccak256\n        /* \"MembershipV1.sol\":8656:8728  TeamReward(_user, _amount * 6 / 100, block.timestamp, Express.sameLevel) */\n      dup4\n      mload\n      0x80\n      dup2\n      add\n      swap1\n      swap5\n      mstore\n      swap2\n      dup8\n      and\n      dup4\n      mstore\n        /* \"MembershipV1.sol\":8629:8650  teamRewards[_degrees] */\n      swap1\n      swap2\n        /* \"MembershipV1.sol\":8656:8728  TeamReward(_user, _amount * 6 / 100, block.timestamp, Express.sameLevel) */\n      swap1\n      dup2\n      add\n        /* \"MembershipV1.sol\":8688:8691  100 */\n      0x64\n        /* \"MembershipV1.sol\":8674:8685  _amount * 6 */\n      tag_322\n        /* \"MembershipV1.sol\":8674:8681  _amount */\n      dup8\n        /* \"MembershipV1.sol\":8684:8685  6 */\n      0x06\n        /* \"MembershipV1.sol\":8674:8685  _amount * 6 */\n      tag_197\n      jump\t// in\n    tag_322:\n        /* \"MembershipV1.sol\":8674:8691  _amount * 6 / 100 */\n      tag_323\n      swap2\n      swap1\n      tag_199\n      jump\t// in\n    tag_323:\n        /* \"MembershipV1.sol\":8656:8728  TeamReward(_user, _amount * 6 / 100, block.timestamp, Express.sameLevel) */\n      dup2\n      mstore\n        /* \"MembershipV1.sol\":8693:8708  block.timestamp */\n      timestamp\n        /* \"MembershipV1.sol\":8656:8728  TeamReward(_user, _amount * 6 / 100, block.timestamp, Express.sameLevel) */\n      0x20\n      dup3\n      add\n      mstore\n      0x40\n      add\n        /* \"MembershipV1.sol\":8710:8727  Express.sameLevel */\n      0x02\n        /* \"MembershipV1.sol\":8656:8728  TeamReward(_user, _amount * 6 / 100, block.timestamp, Express.sameLevel) */\n      swap1\n      mstore\n        /* \"MembershipV1.sol\":8629:8729  teamRewards[_degrees].push(TeamReward(_user, _amount * 6 / 100, block.timestamp, Express.sameLevel)) */\n      dup2\n      sload\n      0x01\n      dup1\n      dup3\n      add\n      dup5\n      sstore\n      0x00\n      swap4\n      dup5\n      mstore\n      0x20\n      swap4\n      dup5\n      swap1\n      keccak256\n      dup4\n      mload\n      0x04\n      swap1\n      swap4\n      mul\n      add\n      dup1\n      sload\n      not(sub(shl(0xa0, 0x01), 0x01))\n      and\n      sub(shl(0xa0, 0x01), 0x01)\n      swap1\n      swap4\n      and\n      swap3\n      swap1\n      swap3\n      or\n      dup3\n      sstore\n      swap3\n      dup3\n      add\n      mload\n      dup2\n      dup5\n      add\n      sstore\n      0x40\n      dup3\n      add\n      mload\n      0x02\n      dup1\n      dup4\n      add\n      swap2\n      swap1\n      swap2\n      sstore\n      0x60\n      dup4\n      add\n      mload\n      0x03\n      dup4\n      add\n      dup1\n      sload\n      swap5\n      swap6\n      swap4\n      swap5\n      swap2\n      swap4\n      swap1\n      swap3\n      not(0xff)\n      swap1\n      swap3\n      and\n      swap2\n      dup5\n      swap1\n      dup2\n      gt\n      iszero\n      tag_328\n      jumpi\n      tag_328\n      tag_241\n      jump\t// in\n    tag_328:\n      mul\n      or\n      swap1\n      sstore\n      pop\n      pop\n      pop\n        /* \"MembershipV1.sol\":8492:8744  if(_degrees != address(0)){... */\n    tag_318:\n        /* \"MembershipV1.sol\":8235:8754  {... */\n      pop\n        /* \"MembershipV1.sol\":7855:8815  {... */\n      pop\n        /* \"MembershipV1.sol\":7794:8815  function updateInviter(address _user,uint256 _amount)internal{... */\n      pop\n      pop\n      jump\t// out\n        /* \"MembershipV1.sol\":8216:8809  if(isVips[_direct]){... */\n    tag_307:\n        /* \"MembershipV1.sol\":8772:8798  distribute(_user, _amount) */\n      tag_330\n        /* \"MembershipV1.sol\":8783:8788  _user */\n      dup4\n        /* \"MembershipV1.sol\":8790:8797  _amount */\n      dup4\n        /* \"MembershipV1.sol\":8772:8782  distribute */\n      tag_331\n        /* \"MembershipV1.sol\":8772:8798  distribute(_user, _amount) */\n      jump\t// in\n    tag_330:\n        /* \"MembershipV1.sol\":7855:8815  {... */\n      pop\n        /* \"MembershipV1.sol\":7794:8815  function updateInviter(address _user,uint256 _amount)internal{... */\n      pop\n      pop\n      jump\t// out\n        /* \"MembershipV1.sol\":1243:1534  function safeTransfer(address token, address to, uint value) internal {... */\n    tag_232:\n        /* \"MembershipV1.sol\":1370:1415  abi.encodeWithSelector(0xa9059cbb, to, value) */\n      0x40\n      dup1\n      mload\n      sub(shl(0xa0, 0x01), 0x01)\n        /* \"#utility.yul\":12516:12548   */\n      dup5\n      dup2\n      and\n        /* \"MembershipV1.sol\":1370:1415  abi.encodeWithSelector(0xa9059cbb, to, value) */\n      0x24\n      dup4\n      add\n        /* \"#utility.yul\":12498:12549   */\n      mstore\n        /* \"#utility.yul\":12565:12583   */\n      0x44\n      dup1\n      dup4\n      add\n        /* \"#utility.yul\":12558:12592   */\n      dup6\n      swap1\n      mstore\n        /* \"MembershipV1.sol\":1370:1415  abi.encodeWithSelector(0xa9059cbb, to, value) */\n      dup4\n      mload\n      dup1\n      dup5\n      sub\n      swap1\n      swap2\n      add\n      dup2\n      mstore\n        /* \"#utility.yul\":12471:12489   */\n      0x64\n      swap1\n      swap3\n      add\n        /* \"MembershipV1.sol\":1370:1415  abi.encodeWithSelector(0xa9059cbb, to, value) */\n      dup4\n      mstore\n      0x20\n      dup3\n      add\n      dup1\n      mload\n      sub(shl(0xe0, 0x01), 0x01)\n      and\n      shl(0xe0, 0xa9059cbb)\n      or\n      swap1\n      mstore\n        /* \"MembershipV1.sol\":1359:1416  token.call(abi.encodeWithSelector(0xa9059cbb, to, value)) */\n      swap2\n      mload\n      0x00\n      swap3\n      dup4\n      swap3\n        /* \"MembershipV1.sol\":1359:1369  token.call */\n      swap1\n      dup8\n      and\n      swap2\n        /* \"MembershipV1.sol\":1359:1416  token.call(abi.encodeWithSelector(0xa9059cbb, to, value)) */\n      tag_335\n      swap2\n        /* \"MembershipV1.sol\":1370:1415  abi.encodeWithSelector(0xa9059cbb, to, value) */\n      swap1\n        /* \"MembershipV1.sol\":1359:1416  token.call(abi.encodeWithSelector(0xa9059cbb, to, value)) */\n      tag_281\n      jump\t// in\n    tag_335:\n      0x00\n      mload(0x40)\n      dup1\n      dup4\n      sub\n      dup2\n      0x00\n      dup7\n      gas\n      call\n      swap2\n      pop\n      pop\n      returndatasize\n      dup1\n      0x00\n      dup2\n      eq\n      tag_338\n      jumpi\n      mload(0x40)\n      swap2\n      pop\n      and(add(returndatasize, 0x3f), not(0x1f))\n      dup3\n      add\n      0x40\n      mstore\n      returndatasize\n      dup3\n      mstore\n      returndatasize\n      0x00\n      0x20\n      dup5\n      add\n      returndatacopy\n      jump(tag_337)\n    tag_338:\n      0x60\n      swap2\n      pop\n    tag_337:\n      pop\n        /* \"MembershipV1.sol\":1323:1416  (bool success, bytes memory data) = token.call(abi.encodeWithSelector(0xa9059cbb, to, value)) */\n      swap2\n      pop\n      swap2\n      pop\n        /* \"MembershipV1.sol\":1434:1441  success */\n      dup2\n        /* \"MembershipV1.sol\":1434:1491  success && (data.length == 0 || abi.decode(data, (bool))) */\n      dup1\n      iszero\n      tag_341\n      jumpi\n      pop\n        /* \"MembershipV1.sol\":1446:1457  data.length */\n      dup1\n      mload\n        /* \"MembershipV1.sol\":1446:1462  data.length == 0 */\n      iszero\n      dup1\n        /* \"MembershipV1.sol\":1446:1490  data.length == 0 || abi.decode(data, (bool)) */\n      tag_341\n      jumpi\n      pop\n        /* \"MembershipV1.sol\":1477:1481  data */\n      dup1\n        /* \"MembershipV1.sol\":1466:1490  abi.decode(data, (bool)) */\n      dup1\n      0x20\n      add\n      swap1\n      mload\n      dup2\n      add\n      swap1\n      tag_341\n      swap2\n      swap1\n      tag_288\n      jump\t// in\n    tag_341:\n        /* \"MembershipV1.sol\":1426:1527  require(success && (data.length == 0 || abi.decode(data, (bool))), 'TransferHelper: TRANSFER_FAILED') */\n      tag_213\n      jumpi\n      mload(0x40)\n      shl(0xe5, 0x461bcd)\n      dup2\n      mstore\n        /* \"#utility.yul\":12805:12807   */\n      0x20\n        /* \"MembershipV1.sol\":1426:1527  require(success && (data.length == 0 || abi.decode(data, (bool))), 'TransferHelper: TRANSFER_FAILED') */\n      0x04\n      dup3\n      add\n        /* \"#utility.yul\":12787:12808   */\n      mstore\n        /* \"#utility.yul\":12844:12846   */\n      0x1f\n        /* \"#utility.yul\":12824:12842   */\n      0x24\n      dup3\n      add\n        /* \"#utility.yul\":12817:12847   */\n      mstore\n        /* \"#utility.yul\":12883:12916   */\n      0x5472616e7366657248656c7065723a205452414e534645525f4641494c454400\n        /* \"#utility.yul\":12863:12881   */\n      0x44\n      dup3\n      add\n        /* \"#utility.yul\":12856:12917   */\n      mstore\n        /* \"#utility.yul\":12934:12952   */\n      0x64\n      add\n        /* \"MembershipV1.sol\":1426:1527  require(success && (data.length == 0 || abi.decode(data, (bool))), 'TransferHelper: TRANSFER_FAILED') */\n      tag_150\n        /* \"#utility.yul\":12603:12958   */\n      jump\n        /* \"MembershipV1.sol\":2455:2800  function sortTokens(address tokenA, address tokenB) internal pure returns (address token0, address token1) {... */\n    tag_253:\n        /* \"MembershipV1.sol\":2530:2544  address token0 */\n      0x00\n        /* \"MembershipV1.sol\":2546:2560  address token1 */\n      dup1\n        /* \"MembershipV1.sol\":2590:2596  tokenB */\n      dup3\n      sub(shl(0xa0, 0x01), 0x01)\n        /* \"MembershipV1.sol\":2580:2596  tokenA != tokenB */\n      and\n        /* \"MembershipV1.sol\":2580:2586  tokenA */\n      dup5\n      sub(shl(0xa0, 0x01), 0x01)\n        /* \"MembershipV1.sol\":2580:2596  tokenA != tokenB */\n      and\n      sub\n        /* \"MembershipV1.sol\":2572:2638  require(tokenA != tokenB, 'UniswapV2Library: IDENTICAL_ADDRESSES') */\n      tag_346\n      jumpi\n      mload(0x40)\n      shl(0xe5, 0x461bcd)\n      dup2\n      mstore\n        /* \"#utility.yul\":13165:13167   */\n      0x20\n        /* \"MembershipV1.sol\":2572:2638  require(tokenA != tokenB, 'UniswapV2Library: IDENTICAL_ADDRESSES') */\n      0x04\n      dup3\n      add\n        /* \"#utility.yul\":13147:13168   */\n      mstore\n        /* \"#utility.yul\":13204:13206   */\n      0x25\n        /* \"#utility.yul\":13184:13202   */\n      0x24\n      dup3\n      add\n        /* \"#utility.yul\":13177:13207   */\n      mstore\n        /* \"#utility.yul\":13243:13277   */\n      0x556e697377617056324c6962726172793a204944454e544943414c5f41444452\n        /* \"#utility.yul\":13223:13241   */\n      0x44\n      dup3\n      add\n        /* \"#utility.yul\":13216:13278   */\n      mstore\n      shl(0xd8, 0x4553534553)\n        /* \"#utility.yul\":13294:13312   */\n      0x64\n      dup3\n      add\n        /* \"#utility.yul\":13287:13322   */\n      mstore\n        /* \"#utility.yul\":13339:13358   */\n      0x84\n      add\n        /* \"MembershipV1.sol\":2572:2638  require(tokenA != tokenB, 'UniswapV2Library: IDENTICAL_ADDRESSES') */\n      tag_150\n        /* \"#utility.yul\":12963:13364   */\n      jump\n        /* \"MembershipV1.sol\":2572:2638  require(tokenA != tokenB, 'UniswapV2Library: IDENTICAL_ADDRESSES') */\n    tag_346:\n        /* \"MembershipV1.sol\":2676:2682  tokenB */\n      dup3\n      sub(shl(0xa0, 0x01), 0x01)\n        /* \"MembershipV1.sol\":2667:2682  tokenA < tokenB */\n      and\n        /* \"MembershipV1.sol\":2667:2673  tokenA */\n      dup5\n      sub(shl(0xa0, 0x01), 0x01)\n        /* \"MembershipV1.sol\":2667:2682  tokenA < tokenB */\n      and\n      lt\n        /* \"MembershipV1.sol\":2667:2720  tokenA < tokenB ? (tokenA, tokenB) : (tokenB, tokenA) */\n      tag_349\n      jumpi\n        /* \"MembershipV1.sol\":2705:2711  tokenB */\n      dup3\n        /* \"MembershipV1.sol\":2713:2719  tokenA */\n      dup5\n        /* \"MembershipV1.sol\":2667:2720  tokenA < tokenB ? (tokenA, tokenB) : (tokenB, tokenA) */\n      jump(tag_350)\n    tag_349:\n        /* \"MembershipV1.sol\":2686:2692  tokenA */\n      dup4\n        /* \"MembershipV1.sol\":2694:2700  tokenB */\n      dup4\n        /* \"MembershipV1.sol\":2667:2720  tokenA < tokenB ? (tokenA, tokenB) : (tokenB, tokenA) */\n    tag_350:\n        /* \"MembershipV1.sol\":2648:2720  (token0, token1) = tokenA < tokenB ? (tokenA, tokenB) : (tokenB, tokenA) */\n      swap1\n      swap3\n      pop\n      swap1\n      pop\n      sub(shl(0xa0, 0x01), 0x01)\n        /* \"MembershipV1.sol\":2738:2758  token0 != address(0) */\n      dup3\n      and\n        /* \"MembershipV1.sol\":2730:2793  require(token0 != address(0), 'UniswapV2Library: ZERO_ADDRESS') */\n      tag_351\n      jumpi\n      mload(0x40)\n      shl(0xe5, 0x461bcd)\n      dup2\n      mstore\n        /* \"#utility.yul\":13571:13573   */\n      0x20\n        /* \"MembershipV1.sol\":2730:2793  require(token0 != address(0), 'UniswapV2Library: ZERO_ADDRESS') */\n      0x04\n      dup3\n      add\n        /* \"#utility.yul\":13553:13574   */\n      mstore\n        /* \"#utility.yul\":13610:13612   */\n      0x1e\n        /* \"#utility.yul\":13590:13608   */\n      0x24\n      dup3\n      add\n        /* \"#utility.yul\":13583:13613   */\n      mstore\n        /* \"#utility.yul\":13649:13681   */\n      0x556e697377617056324c6962726172793a205a45524f5f414444524553530000\n        /* \"#utility.yul\":13629:13647   */\n      0x44\n      dup3\n      add\n        /* \"#utility.yul\":13622:13682   */\n      mstore\n        /* \"#utility.yul\":13699:13717   */\n      0x64\n      add\n        /* \"MembershipV1.sol\":2730:2793  require(token0 != address(0), 'UniswapV2Library: ZERO_ADDRESS') */\n      tag_150\n        /* \"#utility.yul\":13369:13723   */\n      jump\n        /* \"MembershipV1.sol\":2730:2793  require(token0 != address(0), 'UniswapV2Library: ZERO_ADDRESS') */\n    tag_351:\n        /* \"MembershipV1.sol\":2455:2800  function sortTokens(address tokenA, address tokenB) internal pure returns (address token0, address token1) {... */\n      swap3\n      pop\n      swap3\n      swap1\n      pop\n      jump\t// out\n        /* \"MembershipV1.sol\":2889:3368  function pairFor(address factory, address tokenA, address tokenB) internal pure returns (address pair) {... */\n    tag_255:\n        /* \"MembershipV1.sol\":2978:2990  address pair */\n      0x00\n        /* \"MembershipV1.sol\":3003:3017  address token0 */\n      dup1\n        /* \"MembershipV1.sol\":3019:3033  address token1 */\n      0x00\n        /* \"MembershipV1.sol\":3037:3063  sortTokens(tokenA, tokenB) */\n      tag_355\n        /* \"MembershipV1.sol\":3048:3054  tokenA */\n      dup6\n        /* \"MembershipV1.sol\":3056:3062  tokenB */\n      dup6\n        /* \"MembershipV1.sol\":3037:3047  sortTokens */\n      tag_253\n        /* \"MembershipV1.sol\":3037:3063  sortTokens(tokenA, tokenB) */\n      jump\t// in\n    tag_355:\n        /* \"MembershipV1.sol\":3205:3237  abi.encodePacked(token0, token1) */\n      mload(0x40)\n      not(0xffffffffffffffffffffffff)\n        /* \"#utility.yul\":13955:13957   */\n      0x60\n        /* \"#utility.yul\":13951:13966   */\n      dup5\n      dup2\n      shl\n        /* \"#utility.yul\":13947:13971   */\n      dup3\n      and\n        /* \"MembershipV1.sol\":3205:3237  abi.encodePacked(token0, token1) */\n      0x20\n      dup5\n      add\n        /* \"#utility.yul\":13935:13972   */\n      mstore\n        /* \"#utility.yul\":14006:14021   */\n      dup4\n      swap1\n      shl\n        /* \"#utility.yul\":14002:14026   */\n      and\n        /* \"#utility.yul\":13988:14000   */\n      0x34\n      dup3\n      add\n        /* \"#utility.yul\":13981:14027   */\n      mstore\n        /* \"MembershipV1.sol\":3002:3063  (address token0, address token1) = sortTokens(tokenA, tokenB) */\n      swap2\n      swap4\n      pop\n      swap2\n      pop\n        /* \"MembershipV1.sol\":3170:3177  factory */\n      dup7\n      swap1\n        /* \"#utility.yul\":14043:14055   */\n      0x48\n      add\n        /* \"MembershipV1.sol\":3205:3237  abi.encodePacked(token0, token1) */\n      mload(0x40)\n      0x20\n      dup2\n      dup4\n      sub\n      sub\n      dup2\n      mstore\n      swap1\n      0x40\n      mstore\n        /* \"MembershipV1.sol\":3195:3238  keccak256(abi.encodePacked(token0, token1)) */\n      dup1\n      mload\n      swap1\n      0x20\n      add\n      keccak256\n        /* \"MembershipV1.sol\":3111:3357  abi.encodePacked(... */\n      add(0x20, mload(0x40))\n      tag_358\n      swap3\n      swap2\n      swap1\n      not(sub(shl(0xf8, 0x01), 0x01))\n        /* \"#utility.yul\":14425:14451   */\n      dup2\n      mstore\n        /* \"#utility.yul\":14488:14490   */\n      0x60\n        /* \"#utility.yul\":14484:14499   */\n      swap3\n      swap1\n      swap3\n      shl\n      not(0xffffffffffffffffffffffff)\n        /* \"#utility.yul\":14480:14533   */\n      and\n        /* \"#utility.yul\":14476:14477   */\n      0x01\n        /* \"#utility.yul\":14467:14478   */\n      dup4\n      add\n        /* \"#utility.yul\":14460:14534   */\n      mstore\n        /* \"#utility.yul\":14559:14561   */\n      0x15\n        /* \"#utility.yul\":14550:14562   */\n      dup3\n      add\n        /* \"#utility.yul\":14543:14571   */\n      mstore\n        /* \"#utility.yul\":14601:14667   */\n      0xfb7f630766e6a796048ea87d01acd3068e8ff67d078148a3fa3f4a84f69bd5\n        /* \"#utility.yul\":14596:14598   */\n      0x35\n        /* \"#utility.yul\":14587:14599   */\n      dup3\n      add\n        /* \"#utility.yul\":14580:14668   */\n      mstore\n        /* \"#utility.yul\":14693:14695   */\n      0x55\n        /* \"#utility.yul\":14684:14696   */\n      add\n      swap1\n        /* \"#utility.yul\":14066:14702   */\n      jump\n        /* \"MembershipV1.sol\":3111:3357  abi.encodePacked(... */\n    tag_358:\n      0x40\n      dup1\n      mload\n      not(0x1f)\n      dup2\n      dup5\n      sub\n      add\n      dup2\n      mstore\n      swap2\n      swap1\n      mstore\n        /* \"MembershipV1.sol\":3101:3358  keccak256(abi.encodePacked(... */\n      dup1\n      mload\n        /* \"MembershipV1.sol\":3111:3357  abi.encodePacked(... */\n      0x20\n        /* \"MembershipV1.sol\":3101:3358  keccak256(abi.encodePacked(... */\n      swap1\n      swap2\n      add\n      keccak256\n      swap7\n        /* \"MembershipV1.sol\":2889:3368  function pairFor(address factory, address tokenA, address tokenB) internal pure returns (address pair) {... */\n      swap6\n      pop\n      pop\n      pop\n      pop\n      pop\n      pop\n      jump\t// out\n        /* \"MembershipV1.sol\":2150:2290  function mul(uint x, uint y) internal pure returns (uint z) {... */\n    tag_271:\n        /* \"MembershipV1.sol\":2202:2208  uint z */\n      0x00\n        /* \"MembershipV1.sol\":2228:2234  y == 0 */\n      dup2\n      iszero\n      dup1\n        /* \"MembershipV1.sol\":2228:2258  y == 0 || (z = x * y) / y == x */\n      tag_361\n      jumpi\n      pop\n        /* \"MembershipV1.sol\":2257:2258  x */\n      dup3\n        /* \"MembershipV1.sol\":2252:2253  y */\n      dup3\n        /* \"MembershipV1.sol\":2243:2248  x * y */\n      tag_362\n        /* \"MembershipV1.sol\":2252:2253  y */\n      dup2\n        /* \"MembershipV1.sol\":2257:2258  x */\n      dup4\n        /* \"MembershipV1.sol\":2243:2248  x * y */\n      tag_197\n      jump\t// in\n    tag_362:\n        /* \"MembershipV1.sol\":2239:2248  z = x * y */\n      swap3\n      pop\n        /* \"MembershipV1.sol\":2238:2253  (z = x * y) / y */\n      tag_363\n      swap1\n        /* \"MembershipV1.sol\":2239:2248  z = x * y */\n      dup4\n        /* \"MembershipV1.sol\":2238:2253  (z = x * y) / y */\n      tag_199\n      jump\t// in\n    tag_363:\n        /* \"MembershipV1.sol\":2238:2258  (z = x * y) / y == x */\n      eq\n        /* \"MembershipV1.sol\":2228:2258  y == 0 || (z = x * y) / y == x */\n    tag_361:\n        /* \"MembershipV1.sol\":2220:2283  require(y == 0 || (z = x * y) / y == x, 'ds-math-mul-overflow') */\n      tag_167\n      jumpi\n      mload(0x40)\n      shl(0xe5, 0x461bcd)\n      dup2\n      mstore\n        /* \"#utility.yul\":14909:14911   */\n      0x20\n        /* \"MembershipV1.sol\":2220:2283  require(y == 0 || (z = x * y) / y == x, 'ds-math-mul-overflow') */\n      0x04\n      dup3\n      add\n        /* \"#utility.yul\":14891:14912   */\n      mstore\n        /* \"#utility.yul\":14948:14950   */\n      0x14\n        /* \"#utility.yul\":14928:14946   */\n      0x24\n      dup3\n      add\n        /* \"#utility.yul\":14921:14951   */\n      mstore\n      shl(0x60, 0x64732d6d6174682d6d756c2d6f766572666c6f77)\n        /* \"#utility.yul\":14967:14985   */\n      0x44\n      dup3\n      add\n        /* \"#utility.yul\":14960:15010   */\n      mstore\n        /* \"#utility.yul\":15027:15045   */\n      0x64\n      add\n        /* \"MembershipV1.sol\":2220:2283  require(y == 0 || (z = x * y) / y == x, 'ds-math-mul-overflow') */\n      tag_150\n        /* \"#utility.yul\":14707:15051   */\n      jump\n        /* \"MembershipV1.sol\":1887:2013  function add(uint x, uint y) internal pure returns (uint z) {... */\n    tag_275:\n        /* \"MembershipV1.sol\":1939:1945  uint z */\n      0x00\n        /* \"MembershipV1.sol\":1980:1981  x */\n      dup3\n        /* \"MembershipV1.sol\":1970:1975  x + y */\n      tag_368\n        /* \"MembershipV1.sol\":1974:1975  y */\n      dup4\n        /* \"MembershipV1.sol\":1980:1981  x */\n      dup3\n        /* \"MembershipV1.sol\":1970:1975  x + y */\n      tag_294\n      jump\t// in\n    tag_368:\n        /* \"MembershipV1.sol\":1966:1975  z = x + y */\n      swap2\n      pop\n      dup2\n        /* \"MembershipV1.sol\":1965:1981  (z = x + y) >= x */\n      lt\n      iszero\n        /* \"MembershipV1.sol\":1957:2006  require((z = x + y) >= x, 'ds-math-add-overflow') */\n      tag_167\n      jumpi\n      mload(0x40)\n      shl(0xe5, 0x461bcd)\n      dup2\n      mstore\n        /* \"#utility.yul\":15258:15260   */\n      0x20\n        /* \"MembershipV1.sol\":1957:2006  require((z = x + y) >= x, 'ds-math-add-overflow') */\n      0x04\n      dup3\n      add\n        /* \"#utility.yul\":15240:15261   */\n      mstore\n        /* \"#utility.yul\":15297:15299   */\n      0x14\n        /* \"#utility.yul\":15277:15295   */\n      0x24\n      dup3\n      add\n        /* \"#utility.yul\":15270:15300   */\n      mstore\n      shl(0x60, 0x64732d6d6174682d6164642d6f766572666c6f77)\n        /* \"#utility.yul\":15316:15334   */\n      0x44\n      dup3\n      add\n        /* \"#utility.yul\":15309:15359   */\n      mstore\n        /* \"#utility.yul\":15376:15394   */\n      0x64\n      add\n        /* \"MembershipV1.sol\":1957:2006  require((z = x + y) >= x, 'ds-math-add-overflow') */\n      tag_150\n        /* \"#utility.yul\":15056:15400   */\n      jump\n        /* \"MembershipV1.sol\":8821:9538  function distribute(address _user,uint256 _amount) internal{... */\n    tag_331:\n        /* \"MembershipV1.sol\":8890:8907  address firstVips */\n      0x00\n        /* \"MembershipV1.sol\":8910:8924  lookFor(_user) */\n      tag_373\n        /* \"MembershipV1.sol\":8918:8923  _user */\n      dup4\n        /* \"MembershipV1.sol\":8910:8917  lookFor */\n      tag_67\n        /* \"MembershipV1.sol\":8910:8924  lookFor(_user) */\n      jump\t// in\n    tag_373:\n      sub(shl(0xa0, 0x01), 0x01)\n        /* \"MembershipV1.sol\":8937:8954  isVips[firstVips] */\n      dup2\n      and\n      0x00\n      swap1\n      dup2\n      mstore\n        /* \"MembershipV1.sol\":8937:8943  isVips */\n      0x05\n        /* \"MembershipV1.sol\":8937:8954  isVips[firstVips] */\n      0x20\n      mstore\n      0x40\n      swap1\n      keccak256\n      sload\n        /* \"MembershipV1.sol\":8890:8924  address firstVips = lookFor(_user) */\n      swap1\n      swap2\n      pop\n        /* \"MembershipV1.sol\":8937:8954  isVips[firstVips] */\n      0xff\n      and\n        /* \"MembershipV1.sol\":8934:9532  if(isVips[firstVips]){... */\n      iszero\n      tag_330\n      jumpi\n        /* \"MembershipV1.sol\":9043:9046  100 */\n      0x64\n        /* \"MembershipV1.sol\":9028:9040  _amount * 40 */\n      tag_308\n        /* \"MembershipV1.sol\":9028:9035  _amount */\n      dup4\n        /* \"MembershipV1.sol\":9038:9040  40 */\n      0x28\n        /* \"MembershipV1.sol\":9028:9040  _amount * 40 */\n      tag_197\n      jump\t// in\n        /* \"#utility.yul\":14:194   */\n    tag_41:\n        /* \"#utility.yul\":73:79   */\n      0x00\n        /* \"#utility.yul\":126:128   */\n      0x20\n        /* \"#utility.yul\":114:123   */\n      dup3\n        /* \"#utility.yul\":105:112   */\n      dup5\n        /* \"#utility.yul\":101:124   */\n      sub\n        /* \"#utility.yul\":97:129   */\n      slt\n        /* \"#utility.yul\":94:146   */\n      iszero\n      tag_401\n      jumpi\n        /* \"#utility.yul\":142:143   */\n      0x00\n        /* \"#utility.yul\":139:140   */\n      dup1\n        /* \"#utility.yul\":132:144   */\n      revert\n        /* \"#utility.yul\":94:146   */\n    tag_401:\n      pop\n        /* \"#utility.yul\":165:188   */\n      calldataload\n      swap2\n        /* \"#utility.yul\":14:194   */\n      swap1\n      pop\n      jump\t// out\n        /* \"#utility.yul\":199:372   */\n    tag_396:\n        /* \"#utility.yul\":267:287   */\n      dup1\n      calldataload\n      sub(shl(0xa0, 0x01), 0x01)\n        /* \"#utility.yul\":316:347   */\n      dup2\n      and\n        /* \"#utility.yul\":306:348   */\n      dup2\n      eq\n        /* \"#utility.yul\":296:366   */\n      tag_403\n      jumpi\n        /* \"#utility.yul\":362:363   */\n      0x00\n        /* \"#utility.yul\":359:360   */\n      dup1\n        /* \"#utility.yul\":352:364   */\n      revert\n        /* \"#utility.yul\":296:366   */\n    tag_403:\n        /* \"#utility.yul\":199:372   */\n      swap2\n      swap1\n      pop\n      jump\t// out\n        /* \"#utility.yul\":377:861   */\n    tag_45:\n        /* \"#utility.yul\":472:478   */\n      0x00\n        /* \"#utility.yul\":480:486   */\n      dup1\n        /* \"#utility.yul\":488:494   */\n      0x00\n        /* \"#utility.yul\":496:502   */\n      dup1\n        /* \"#utility.yul\":504:510   */\n      0x00\n        /* \"#utility.yul\":557:560   */\n      0xa0\n        /* \"#utility.yul\":545:554   */\n      dup7\n        /* \"#utility.yul\":536:543   */\n      dup9\n        /* \"#utility.yul\":532:555   */\n      sub\n        /* \"#utility.yul\":528:561   */\n      slt\n        /* \"#utility.yul\":525:578   */\n      iszero\n      tag_405\n      jumpi\n        /* \"#utility.yul\":574:575   */\n      0x00\n        /* \"#utility.yul\":571:572   */\n      dup1\n        /* \"#utility.yul\":564:576   */\n      revert\n        /* \"#utility.yul\":525:578   */\n    tag_405:\n        /* \"#utility.yul\":597:626   */\n      tag_406\n        /* \"#utility.yul\":616:625   */\n      dup7\n        /* \"#utility.yul\":597:626   */\n      tag_396\n      jump\t// in\n    tag_406:\n        /* \"#utility.yul\":587:626   */\n      swap5\n      pop\n        /* \"#utility.yul\":645:683   */\n      tag_407\n        /* \"#utility.yul\":679:681   */\n      0x20\n        /* \"#utility.yul\":668:677   */\n      dup8\n        /* \"#utility.yul\":664:682   */\n      add\n        /* \"#utility.yul\":645:683   */\n      tag_396\n      jump\t// in\n    tag_407:\n        /* \"#utility.yul\":635:683   */\n      swap4\n      pop\n        /* \"#utility.yul\":702:740   */\n      tag_408\n        /* \"#utility.yul\":736:738   */\n      0x40\n        /* \"#utility.yul\":725:734   */\n      dup8\n        /* \"#utility.yul\":721:739   */\n      add\n        /* \"#utility.yul\":702:740   */\n      tag_396\n      jump\t// in\n    tag_408:\n        /* \"#utility.yul\":692:740   */\n      swap3\n      pop\n        /* \"#utility.yul\":759:797   */\n      tag_409\n        /* \"#utility.yul\":793:795   */\n      0x60\n        /* \"#utility.yul\":782:791   */\n      dup8\n        /* \"#utility.yul\":778:796   */\n      add\n        /* \"#utility.yul\":759:797   */\n      tag_396\n      jump\t// in\n    tag_409:\n        /* \"#utility.yul\":749:797   */\n      swap2\n      pop\n        /* \"#utility.yul\":816:855   */\n      tag_410\n        /* \"#utility.yul\":850:853   */\n      0x80\n        /* \"#utility.yul\":839:848   */\n      dup8\n        /* \"#utility.yul\":835:854   */\n      add\n        /* \"#utility.yul\":816:855   */\n      tag_396\n      jump\t// in\n    tag_410:\n        /* \"#utility.yul\":806:855   */\n      swap1\n      pop\n        /* \"#utility.yul\":377:861   */\n      swap3\n      swap6\n      pop\n      swap3\n      swap6\n      swap1\n      swap4\n      pop\n      jump\t// out\n        /* \"#utility.yul\":1256:1442   */\n    tag_57:\n        /* \"#utility.yul\":1315:1321   */\n      0x00\n        /* \"#utility.yul\":1368:1370   */\n      0x20\n        /* \"#utility.yul\":1356:1365   */\n      dup3\n        /* \"#utility.yul\":1347:1354   */\n      dup5\n        /* \"#utility.yul\":1343:1366   */\n      sub\n        /* \"#utility.yul\":1339:1371   */\n      slt\n        /* \"#utility.yul\":1336:1388   */\n      iszero\n      tag_414\n      jumpi\n        /* \"#utility.yul\":1384:1385   */\n      0x00\n        /* \"#utility.yul\":1381:1382   */\n      dup1\n        /* \"#utility.yul\":1374:1386   */\n      revert\n        /* \"#utility.yul\":1336:1388   */\n    tag_414:\n        /* \"#utility.yul\":1407:1436   */\n      tag_415\n        /* \"#utility.yul\":1426:1435   */\n      dup3\n        /* \"#utility.yul\":1407:1436   */\n      tag_396\n      jump\t// in\n    tag_415:\n        /* \"#utility.yul\":1397:1436   */\n      swap4\n        /* \"#utility.yul\":1256:1442   */\n      swap3\n      pop\n      pop\n      pop\n      jump\t// out\n        /* \"#utility.yul\":1447:2324   */\n    tag_60:\n        /* \"#utility.yul\":1676:1678   */\n      0x20\n        /* \"#utility.yul\":1728:1749   */\n      dup1\n      dup3\n      mstore\n        /* \"#utility.yul\":1798:1811   */\n      dup3\n      mload\n        /* \"#utility.yul\":1701:1719   */\n      dup3\n      dup3\n      add\n        /* \"#utility.yul\":1820:1842   */\n      dup2\n      swap1\n      mstore\n        /* \"#utility.yul\":1647:1651   */\n      0x00\n      swap2\n        /* \"#utility.yul\":1676:1678   */\n      swap1\n        /* \"#utility.yul\":1861:1863   */\n      0x40\n      swap1\n        /* \"#utility.yul\":1879:1897   */\n      dup2\n      dup6\n      add\n      swap1\n        /* \"#utility.yul\":1920:1935   */\n      dup7\n      dup5\n      add\n        /* \"#utility.yul\":1647:1651   */\n      dup6\n        /* \"#utility.yul\":1963:2298   */\n    tag_417:\n        /* \"#utility.yul\":1977:1983   */\n      dup3\n        /* \"#utility.yul\":1974:1975   */\n      dup2\n        /* \"#utility.yul\":1971:1984   */\n      lt\n        /* \"#utility.yul\":1963:2298   */\n      iszero\n      tag_419\n      jumpi\n        /* \"#utility.yul\":2036:2049   */\n      dup2\n      mload\n        /* \"#utility.yul\":2078:2087   */\n      dup1\n      mload\n      sub(shl(0xa0, 0x01), 0x01)\n        /* \"#utility.yul\":2074:2109   */\n      and\n        /* \"#utility.yul\":2062:2110   */\n      dup6\n      mstore\n        /* \"#utility.yul\":2150:2161   */\n      dup7\n      dup2\n      add\n        /* \"#utility.yul\":2144:2162   */\n      mload\n        /* \"#utility.yul\":2130:2142   */\n      dup8\n      dup7\n      add\n        /* \"#utility.yul\":2123:2163   */\n      mstore\n        /* \"#utility.yul\":2203:2214   */\n      dup6\n      add\n        /* \"#utility.yul\":2197:2215   */\n      mload\n        /* \"#utility.yul\":2183:2195   */\n      dup6\n      dup6\n      add\n        /* \"#utility.yul\":2176:2216   */\n      mstore\n        /* \"#utility.yul\":2245:2249   */\n      0x60\n        /* \"#utility.yul\":2236:2250   */\n      swap1\n      swap4\n      add\n      swap3\n        /* \"#utility.yul\":2273:2288   */\n      swap1\n      dup6\n      add\n      swap1\n        /* \"#utility.yul\":2106:2107   */\n      0x01\n        /* \"#utility.yul\":1992:2001   */\n      add\n        /* \"#utility.yul\":1963:2298   */\n      jump(tag_417)\n    tag_419:\n      pop\n        /* \"#utility.yul\":2315:2318   */\n      swap2\n      swap8\n        /* \"#utility.yul\":1447:2324   */\n      swap7\n      pop\n      pop\n      pop\n      pop\n      pop\n      pop\n      pop\n      jump\t// out\n        /* \"#utility.yul\":2329:2598   */\n    tag_63:\n        /* \"#utility.yul\":2386:2392   */\n      0x00\n        /* \"#utility.yul\":2439:2441   */\n      0x20\n        /* \"#utility.yul\":2427:2436   */\n      dup3\n        /* \"#utility.yul\":2418:2425   */\n      dup5\n        /* \"#utility.yul\":2414:2437   */\n      sub\n        /* \"#utility.yul\":2410:2442   */\n      slt\n        /* \"#utility.yul\":2407:2459   */\n      iszero\n      tag_421\n      jumpi\n        /* \"#utility.yul\":2455:2456   */\n      0x00\n        /* \"#utility.yul\":2452:2453   */\n      dup1\n        /* \"#utility.yul\":2445:2457   */\n      revert\n        /* \"#utility.yul\":2407:2459   */\n    tag_421:\n        /* \"#utility.yul\":2494:2503   */\n      dup2\n        /* \"#utility.yul\":2481:2504   */\n      calldataload\n        /* \"#utility.yul\":2544:2548   */\n      0xff\n        /* \"#utility.yul\":2537:2542   */\n      dup2\n        /* \"#utility.yul\":2533:2549   */\n      and\n        /* \"#utility.yul\":2526:2531   */\n      dup2\n        /* \"#utility.yul\":2523:2550   */\n      eq\n        /* \"#utility.yul\":2513:2568   */\n      tag_415\n      jumpi\n        /* \"#utility.yul\":2564:2565   */\n      0x00\n        /* \"#utility.yul\":2561:2562   */\n      dup1\n        /* \"#utility.yul\":2554:2566   */\n      revert\n        /* \"#utility.yul\":2984:3318   */\n    tag_95:\n        /* \"#utility.yul\":3061:3067   */\n      0x00\n        /* \"#utility.yul\":3069:3075   */\n      dup1\n        /* \"#utility.yul\":3077:3083   */\n      0x00\n        /* \"#utility.yul\":3130:3132   */\n      0x60\n        /* \"#utility.yul\":3118:3127   */\n      dup5\n        /* \"#utility.yul\":3109:3116   */\n      dup7\n        /* \"#utility.yul\":3105:3128   */\n      sub\n        /* \"#utility.yul\":3101:3133   */\n      slt\n        /* \"#utility.yul\":3098:3150   */\n      iszero\n      tag_426\n      jumpi\n        /* \"#utility.yul\":3146:3147   */\n      0x00\n        /* \"#utility.yul\":3143:3144   */\n      dup1\n        /* \"#utility.yul\":3136:3148   */\n      revert\n        /* \"#utility.yul\":3098:3150   */\n    tag_426:\n        /* \"#utility.yul\":3169:3198   */\n      tag_427\n        /* \"#utility.yul\":3188:3197   */\n      dup5\n        /* \"#utility.yul\":3169:3198   */\n      tag_396\n      jump\t// in\n    tag_427:\n        /* \"#utility.yul\":3159:3198   */\n      swap3\n      pop\n        /* \"#utility.yul\":3217:3255   */\n      tag_428\n        /* \"#utility.yul\":3251:3253   */\n      0x20\n        /* \"#utility.yul\":3240:3249   */\n      dup6\n        /* \"#utility.yul\":3236:3254   */\n      add\n        /* \"#utility.yul\":3217:3255   */\n      tag_396\n      jump\t// in\n    tag_428:\n        /* \"#utility.yul\":3207:3255   */\n      swap2\n      pop\n        /* \"#utility.yul\":3274:3312   */\n      tag_429\n        /* \"#utility.yul\":3308:3310   */\n      0x40\n        /* \"#utility.yul\":3297:3306   */\n      dup6\n        /* \"#utility.yul\":3293:3311   */\n      add\n        /* \"#utility.yul\":3274:3312   */\n      tag_396\n      jump\t// in\n    tag_429:\n        /* \"#utility.yul\":3264:3312   */\n      swap1\n      pop\n        /* \"#utility.yul\":2984:3318   */\n      swap3\n      pop\n      swap3\n      pop\n      swap3\n      jump\t// out\n        /* \"#utility.yul\":3865:4119   */\n    tag_123:\n        /* \"#utility.yul\":3933:3939   */\n      0x00\n        /* \"#utility.yul\":3941:3947   */\n      dup1\n        /* \"#utility.yul\":3994:3996   */\n      0x40\n        /* \"#utility.yul\":3982:3991   */\n      dup4\n        /* \"#utility.yul\":3973:3980   */\n      dup6\n        /* \"#utility.yul\":3969:3992   */\n      sub\n        /* \"#utility.yul\":3965:3997   */\n      slt\n        /* \"#utility.yul\":3962:4014   */\n      iszero\n      tag_432\n      jumpi\n        /* \"#utility.yul\":4010:4011   */\n      0x00\n        /* \"#utility.yul\":4007:4008   */\n      dup1\n        /* \"#utility.yul\":4000:4012   */\n      revert\n        /* \"#utility.yul\":3962:4014   */\n    tag_432:\n        /* \"#utility.yul\":4033:4062   */\n      tag_433\n        /* \"#utility.yul\":4052:4061   */\n      dup4\n        /* \"#utility.yul\":4033:4062   */\n      tag_396\n      jump\t// in\n    tag_433:\n        /* \"#utility.yul\":4023:4062   */\n      swap5\n        /* \"#utility.yul\":4109:4111   */\n      0x20\n        /* \"#utility.yul\":4094:4112   */\n      swap4\n      swap1\n      swap4\n      add\n        /* \"#utility.yul\":4081:4113   */\n      calldataload\n      swap4\n      pop\n      pop\n      pop\n        /* \"#utility.yul\":3865:4119   */\n      jump\t// out\n        /* \"#utility.yul\":4124:4251   */\n    tag_241:\n        /* \"#utility.yul\":4185:4195   */\n      0x4e487b71\n        /* \"#utility.yul\":4180:4183   */\n      0xe0\n        /* \"#utility.yul\":4176:4196   */\n      shl\n        /* \"#utility.yul\":4173:4174   */\n      0x00\n        /* \"#utility.yul\":4166:4197   */\n      mstore\n        /* \"#utility.yul\":4216:4220   */\n      0x21\n        /* \"#utility.yul\":4213:4214   */\n      0x04\n        /* \"#utility.yul\":4206:4221   */\n      mstore\n        /* \"#utility.yul\":4240:4244   */\n      0x24\n        /* \"#utility.yul\":4237:4238   */\n      0x00\n        /* \"#utility.yul\":4230:4245   */\n      revert\n        /* \"#utility.yul\":4256:5464   */\n    tag_141:\n        /* \"#utility.yul\":4481:4483   */\n      0x20\n        /* \"#utility.yul\":4533:4554   */\n      dup1\n      dup3\n      mstore\n        /* \"#utility.yul\":4603:4616   */\n      dup3\n      mload\n        /* \"#utility.yul\":4506:4524   */\n      dup3\n      dup3\n      add\n        /* \"#utility.yul\":4625:4647   */\n      dup2\n      swap1\n      mstore\n        /* \"#utility.yul\":4452:4456   */\n      0x00\n      swap2\n        /* \"#utility.yul\":4481:4483   */\n      swap1\n        /* \"#utility.yul\":4666:4668   */\n      0x40\n      swap1\n        /* \"#utility.yul\":4684:4702   */\n      dup2\n      dup6\n      add\n      swap1\n        /* \"#utility.yul\":4725:4740   */\n      dup7\n      dup5\n      add\n        /* \"#utility.yul\":4452:4456   */\n      dup6\n      dup1\n        /* \"#utility.yul\":4789:5438   */\n    tag_436:\n        /* \"#utility.yul\":4805:4811   */\n      dup4\n        /* \"#utility.yul\":4800:4803   */\n      dup2\n        /* \"#utility.yul\":4797:4812   */\n      lt\n        /* \"#utility.yul\":4789:5438   */\n      iszero\n      tag_438\n      jumpi\n        /* \"#utility.yul\":4868:4881   */\n      dup3\n      mload\n        /* \"#utility.yul\":4910:4919   */\n      dup1\n      mload\n      sub(shl(0xa0, 0x01), 0x01)\n        /* \"#utility.yul\":4906:4941   */\n      and\n        /* \"#utility.yul\":4894:4942   */\n      dup7\n      mstore\n        /* \"#utility.yul\":4982:4993   */\n      dup8\n      dup2\n      add\n        /* \"#utility.yul\":4976:4994   */\n      mload\n        /* \"#utility.yul\":4962:4974   */\n      dup9\n      dup8\n      add\n        /* \"#utility.yul\":4955:4995   */\n      mstore\n        /* \"#utility.yul\":5035:5046   */\n      dup7\n      dup2\n      add\n        /* \"#utility.yul\":5029:5047   */\n      mload\n        /* \"#utility.yul\":5015:5027   */\n      dup8\n      dup8\n      add\n        /* \"#utility.yul\":5008:5048   */\n      mstore\n        /* \"#utility.yul\":5071:5075   */\n      0x60\n        /* \"#utility.yul\":5114:5125   */\n      swap1\n      dup2\n      add\n        /* \"#utility.yul\":5108:5126   */\n      mload\n      swap1\n        /* \"#utility.yul\":5166:5167   */\n      0x03\n        /* \"#utility.yul\":5149:5168   */\n      dup3\n      lt\n        /* \"#utility.yul\":5139:5309   */\n      tag_439\n      jumpi\n      shl(0xe0, 0x4e487b71)\n        /* \"#utility.yul\":5200:5231   */\n      dup5\n      mstore\n        /* \"#utility.yul\":5258:5262   */\n      0x21\n        /* \"#utility.yul\":5255:5256   */\n      0x04\n        /* \"#utility.yul\":5248:5263   */\n      mstore\n        /* \"#utility.yul\":5290:5294   */\n      0x24\n        /* \"#utility.yul\":5207:5208   */\n      dup5\n        /* \"#utility.yul\":5280:5295   */\n      revert\n        /* \"#utility.yul\":5139:5309   */\n    tag_439:\n        /* \"#utility.yul\":5329:5341   */\n      dup7\n      add\n        /* \"#utility.yul\":5322:5356   */\n      mstore\n        /* \"#utility.yul\":5385:5389   */\n      0x80\n        /* \"#utility.yul\":5376:5390   */\n      swap1\n      swap5\n      add\n      swap4\n        /* \"#utility.yul\":5413:5428   */\n      swap2\n      dup7\n      add\n      swap2\n        /* \"#utility.yul\":4831:4832   */\n      0x01\n        /* \"#utility.yul\":4822:4833   */\n      add\n        /* \"#utility.yul\":4789:5438   */\n      jump(tag_436)\n    tag_438:\n      pop\n        /* \"#utility.yul\":5455:5458   */\n      swap3\n      swap9\n        /* \"#utility.yul\":4256:5464   */\n      swap8\n      pop\n      pop\n      pop\n      pop\n      pop\n      pop\n      pop\n      pop\n      jump\t// out\n        /* \"#utility.yul\":5469:5823   */\n    tag_151:\n        /* \"#utility.yul\":5671:5673   */\n      0x20\n        /* \"#utility.yul\":5653:5674   */\n      dup1\n      dup3\n      mstore\n        /* \"#utility.yul\":5710:5712   */\n      0x1e\n        /* \"#utility.yul\":5690:5708   */\n      swap1\n      dup3\n      add\n        /* \"#utility.yul\":5683:5713   */\n      mstore\n        /* \"#utility.yul\":5749:5781   */\n      0x4d656d626572736869703a43616c6c6572206973206e6f74206f776e65720000\n        /* \"#utility.yul\":5744:5746   */\n      0x40\n        /* \"#utility.yul\":5729:5747   */\n      dup3\n      add\n        /* \"#utility.yul\":5722:5782   */\n      mstore\n        /* \"#utility.yul\":5814:5816   */\n      0x60\n        /* \"#utility.yul\":5799:5817   */\n      add\n      swap1\n        /* \"#utility.yul\":5469:5823   */\n      jump\t// out\n        /* \"#utility.yul\":7005:7132   */\n    tag_397:\n        /* \"#utility.yul\":7066:7076   */\n      0x4e487b71\n        /* \"#utility.yul\":7061:7064   */\n      0xe0\n        /* \"#utility.yul\":7057:7077   */\n      shl\n        /* \"#utility.yul\":7054:7055   */\n      0x00\n        /* \"#utility.yul\":7047:7078   */\n      mstore\n        /* \"#utility.yul\":7097:7101   */\n      0x11\n        /* \"#utility.yul\":7094:7095   */\n      0x04\n        /* \"#utility.yul\":7087:7102   */\n      mstore\n        /* \"#utility.yul\":7121:7125   */\n      0x24\n        /* \"#utility.yul\":7118:7119   */\n      0x00\n        /* \"#utility.yul\":7111:7126   */\n      revert\n        /* \"#utility.yul\":7137:7305   */\n    tag_197:\n        /* \"#utility.yul\":7210:7219   */\n      dup1\n      dup3\n      mul\n        /* \"#utility.yul\":7241:7250   */\n      dup2\n      iszero\n        /* \"#utility.yul\":7258:7273   */\n      dup3\n      dup3\n      div\n        /* \"#utility.yul\":7252:7274   */\n      dup5\n      eq\n        /* \"#utility.yul\":7238:7275   */\n      or\n        /* \"#utility.yul\":7228:7299   */\n      tag_167\n      jumpi\n        /* \"#utility.yul\":7279:7297   */\n      tag_167\n      tag_397\n      jump\t// in\n        /* \"#utility.yul\":7310:7527   */\n    tag_199:\n        /* \"#utility.yul\":7350:7351   */\n      0x00\n        /* \"#utility.yul\":7376:7377   */\n      dup3\n        /* \"#utility.yul\":7366:7498   */\n      tag_449\n      jumpi\n        /* \"#utility.yul\":7420:7430   */\n      0x4e487b71\n        /* \"#utility.yul\":7415:7418   */\n      0xe0\n        /* \"#utility.yul\":7411:7431   */\n      shl\n        /* \"#utility.yul\":7408:7409   */\n      0x00\n        /* \"#utility.yul\":7401:7432   */\n      mstore\n        /* \"#utility.yul\":7455:7459   */\n      0x12\n        /* \"#utility.yul\":7452:7453   */\n      0x04\n        /* \"#utility.yul\":7445:7460   */\n      mstore\n        /* \"#utility.yul\":7483:7487   */\n      0x24\n        /* \"#utility.yul\":7480:7481   */\n      0x00\n        /* \"#utility.yul\":7473:7488   */\n      revert\n        /* \"#utility.yul\":7366:7498   */\n    tag_449:\n      pop\n        /* \"#utility.yul\":7512:7521   */\n      div\n      swap1\n        /* \"#utility.yul\":7310:7527   */\n      jump\t// out\n        /* \"#utility.yul\":7532:7660   */\n    tag_210:\n        /* \"#utility.yul\":7599:7608   */\n      dup2\n      dup2\n      sub\n        /* \"#utility.yul\":7620:7631   */\n      dup2\n      dup2\n      gt\n        /* \"#utility.yul\":7617:7654   */\n      iszero\n      tag_167\n      jumpi\n        /* \"#utility.yul\":7634:7652   */\n      tag_167\n      tag_397\n      jump\t// in\n        /* \"#utility.yul\":9085:9236   */\n    tag_250:\n        /* \"#utility.yul\":9175:9179   */\n      0xff\n        /* \"#utility.yul\":9168:9180   */\n      dup3\n      dup2\n      and\n        /* \"#utility.yul\":9154:9166   */\n      dup3\n      dup3\n      and\n        /* \"#utility.yul\":9150:9181   */\n      sub\n      swap1\n        /* \"#utility.yul\":9193:9207   */\n      dup2\n      gt\n        /* \"#utility.yul\":9190:9230   */\n      iszero\n      tag_167\n      jumpi\n        /* \"#utility.yul\":9210:9228   */\n      tag_167\n      tag_397\n      jump\t// in\n        /* \"#utility.yul\":9241:9429   */\n    tag_398:\n        /* \"#utility.yul\":9320:9333   */\n      dup1\n      mload\n      sub(shl(0x70, 0x01), 0x01)\n        /* \"#utility.yul\":9362:9404   */\n      dup2\n      and\n        /* \"#utility.yul\":9352:9405   */\n      dup2\n      eq\n        /* \"#utility.yul\":9342:9423   */\n      tag_403\n      jumpi\n        /* \"#utility.yul\":9419:9420   */\n      0x00\n        /* \"#utility.yul\":9416:9417   */\n      dup1\n        /* \"#utility.yul\":9409:9421   */\n      revert\n        /* \"#utility.yul\":9434:9884   */\n    tag_259:\n        /* \"#utility.yul\":9521:9527   */\n      0x00\n        /* \"#utility.yul\":9529:9535   */\n      dup1\n        /* \"#utility.yul\":9537:9543   */\n      0x00\n        /* \"#utility.yul\":9590:9592   */\n      0x60\n        /* \"#utility.yul\":9578:9587   */\n      dup5\n        /* \"#utility.yul\":9569:9576   */\n      dup7\n        /* \"#utility.yul\":9565:9588   */\n      sub\n        /* \"#utility.yul\":9561:9593   */\n      slt\n        /* \"#utility.yul\":9558:9610   */\n      iszero\n      tag_463\n      jumpi\n        /* \"#utility.yul\":9606:9607   */\n      0x00\n        /* \"#utility.yul\":9603:9604   */\n      dup1\n        /* \"#utility.yul\":9596:9608   */\n      revert\n        /* \"#utility.yul\":9558:9610   */\n    tag_463:\n        /* \"#utility.yul\":9629:9669   */\n      tag_464\n        /* \"#utility.yul\":9659:9668   */\n      dup5\n        /* \"#utility.yul\":9629:9669   */\n      tag_398\n      jump\t// in\n    tag_464:\n        /* \"#utility.yul\":9619:9669   */\n      swap3\n      pop\n        /* \"#utility.yul\":9688:9737   */\n      tag_465\n        /* \"#utility.yul\":9733:9735   */\n      0x20\n        /* \"#utility.yul\":9722:9731   */\n      dup6\n        /* \"#utility.yul\":9718:9736   */\n      add\n        /* \"#utility.yul\":9688:9737   */\n      tag_398\n      jump\t// in\n    tag_465:\n        /* \"#utility.yul\":9678:9737   */\n      swap2\n      pop\n        /* \"#utility.yul\":9780:9782   */\n      0x40\n        /* \"#utility.yul\":9769:9778   */\n      dup5\n        /* \"#utility.yul\":9765:9783   */\n      add\n        /* \"#utility.yul\":9759:9784   */\n      mload\n        /* \"#utility.yul\":9824:9834   */\n      0xffffffff\n        /* \"#utility.yul\":9817:9822   */\n      dup2\n        /* \"#utility.yul\":9813:9835   */\n      and\n        /* \"#utility.yul\":9806:9811   */\n      dup2\n        /* \"#utility.yul\":9803:9836   */\n      eq\n        /* \"#utility.yul\":9793:9854   */\n      tag_466\n      jumpi\n        /* \"#utility.yul\":9850:9851   */\n      0x00\n        /* \"#utility.yul\":9847:9848   */\n      dup1\n        /* \"#utility.yul\":9840:9852   */\n      revert\n        /* \"#utility.yul\":9793:9854   */\n    tag_466:\n        /* \"#utility.yul\":9873:9878   */\n      dup1\n        /* \"#utility.yul\":9863:9878   */\n      swap2\n      pop\n      pop\n        /* \"#utility.yul\":9434:9884   */\n      swap3\n      pop\n      swap3\n      pop\n      swap3\n      jump\t// out\n        /* \"#utility.yul\":11090:11502   */\n    tag_281:\n        /* \"#utility.yul\":11219:11222   */\n      0x00\n        /* \"#utility.yul\":11257:11263   */\n      dup3\n        /* \"#utility.yul\":11251:11264   */\n      mload\n        /* \"#utility.yul\":11282:11283   */\n      0x00\n        /* \"#utility.yul\":11292:11421   */\n    tag_471:\n        /* \"#utility.yul\":11306:11312   */\n      dup2\n        /* \"#utility.yul\":11303:11304   */\n      dup2\n        /* \"#utility.yul\":11300:11313   */\n      lt\n        /* \"#utility.yul\":11292:11421   */\n      iszero\n      tag_473\n      jumpi\n        /* \"#utility.yul\":11404:11408   */\n      0x20\n        /* \"#utility.yul\":11388:11402   */\n      dup2\n      dup7\n      add\n        /* \"#utility.yul\":11384:11409   */\n      dup2\n      add\n        /* \"#utility.yul\":11378:11410   */\n      mload\n        /* \"#utility.yul\":11365:11376   */\n      dup6\n      dup4\n      add\n        /* \"#utility.yul\":11358:11411   */\n      mstore\n        /* \"#utility.yul\":11321:11333   */\n      add\n        /* \"#utility.yul\":11292:11421   */\n      jump(tag_471)\n    tag_473:\n      pop\n        /* \"#utility.yul\":11476:11477   */\n      0x00\n        /* \"#utility.yul\":11440:11456   */\n      swap3\n      add\n        /* \"#utility.yul\":11465:11478   */\n      swap2\n      dup3\n      mstore\n      pop\n        /* \"#utility.yul\":11440:11456   */\n      swap2\n        /* \"#utility.yul\":11090:11502   */\n      swap1\n      pop\n      jump\t// out\n        /* \"#utility.yul\":11507:11784   */\n    tag_288:\n        /* \"#utility.yul\":11574:11580   */\n      0x00\n        /* \"#utility.yul\":11627:11629   */\n      0x20\n        /* \"#utility.yul\":11615:11624   */\n      dup3\n        /* \"#utility.yul\":11606:11613   */\n      dup5\n        /* \"#utility.yul\":11602:11625   */\n      sub\n        /* \"#utility.yul\":11598:11630   */\n      slt\n        /* \"#utility.yul\":11595:11647   */\n      iszero\n      tag_475\n      jumpi\n        /* \"#utility.yul\":11643:11644   */\n      0x00\n        /* \"#utility.yul\":11640:11641   */\n      dup1\n        /* \"#utility.yul\":11633:11645   */\n      revert\n        /* \"#utility.yul\":11595:11647   */\n    tag_475:\n        /* \"#utility.yul\":11675:11684   */\n      dup2\n        /* \"#utility.yul\":11669:11685   */\n      mload\n        /* \"#utility.yul\":11728:11733   */\n      dup1\n        /* \"#utility.yul\":11721:11734   */\n      iszero\n        /* \"#utility.yul\":11714:11735   */\n      iszero\n        /* \"#utility.yul\":11707:11712   */\n      dup2\n        /* \"#utility.yul\":11704:11736   */\n      eq\n        /* \"#utility.yul\":11694:11754   */\n      tag_415\n      jumpi\n        /* \"#utility.yul\":11750:11751   */\n      0x00\n        /* \"#utility.yul\":11747:11748   */\n      dup1\n        /* \"#utility.yul\":11740:11752   */\n      revert\n        /* \"#utility.yul\":12194:12319   */\n    tag_294:\n        /* \"#utility.yul\":12259:12268   */\n      dup1\n      dup3\n      add\n        /* \"#utility.yul\":12280:12290   */\n      dup1\n      dup3\n      gt\n        /* \"#utility.yul\":12277:12313   */\n      iszero\n      tag_167\n      jumpi\n        /* \"#utility.yul\":12293:12311   */\n      tag_167\n      tag_397\n      jump\t// in\n\n    auxdata: 0xa2646970667358221220bc7cc71a62df1b5719b96c705f084b6970540fb072c069cd2a50ba8499a2ea9a64736f6c63430008120033\n}\n",
				"bytecode": {
					"linkReferences": {},
					"object": "608060405234801561001057600080fd5b50600080546001600160a01b03191633179055611e20806100326000396000f3fe608060405234801561001057600080fd5b50600436106101cf5760003560e01c806360fe4483116101045780639e0060aa116100a2578063ee8f0b7a11610071578063ee8f0b7a14610510578063f48aa84f14610539578063f851a44014610559578063fc0c546a1461056c57600080fd5b80639e0060aa146104aa578063aad3ec96146104bd578063ac849501146104d0578063b13140ed146104f057600080fd5b8063704b6c02116100de578063704b6c021461044e5780637a8af5621461046157806381bac14f1461047457806384203f4b1461048757600080fd5b806360fe44831461032f5780636386c1c7146103425780636a7f74771461043b57600080fd5b806346e6dfe7116101715780635636f6ba1161014b5780635636f6ba146102ee57806357b2351d1461030157806359d0f713146103095780635c60da1b1461031c57600080fd5b806346e6dfe7146102895780634c3fbb66146102a85780634e377201146102db57600080fd5b80632f48ab7d116101ad5780632f48ab7d1461021857806330be0cd914610243578063328705771461026357806335fc14d81461027657600080fd5b80630667afe2146101d45780631459457a146101e95780631efba6c2146101fc575b600080fd5b6101e76101e2366004611a1e565b61057f565b005b6101e76101f7366004611a53565b6105b7565b61020560105481565b6040519081526020015b60405180910390f35b600c5461022b906001600160a01b031681565b6040516001600160a01b03909116815260200161020f565b610256610251366004611ab8565b610697565b60405161020f9190611ada565b6101e7610271366004611b3c565b61072f565b61022b610284366004611ab8565b61076f565b6011546102969060ff1681565b60405160ff909116815260200161020f565b6102cb6102b6366004611ab8565b60056020526000908152604090205460ff1681565b604051901515815260200161020f565b60095461022b906001600160a01b031681565b600e5461022b906001600160a01b031681565b6102056107aa565b600a5461022b906001600160a01b031681565b60015461022b906001600160a01b031681565b6101e761033d366004611b5f565b6107eb565b6103f1610350366004611ab8565b6040805160a081018252600080825260208201819052918101829052606081018290526080810191909152506040805160a0810182526001600160a01b039283166000818152600460209081528482205460ff90811615158552838352600582528583205416151581850152828252600681528482205490951683850152818152600785528381205460608401529081526008909352912054608082015290565b60405161020f91908151151581526020808301511515908201526040808301516001600160a01b031690820152606080830151908201526080918201519181019190915260a00190565b600d5461022b906001600160a01b031681565b6101e761045c366004611ab8565b610852565b6101e761046f366004611ab8565b61089e565b6101e7610482366004611ab8565b610b18565b6102cb610495366004611ab8565b60046020526000908152604090205460ff1681565b600f5461022b906001600160a01b031681565b6101e76104cb366004611ba2565b610c6a565b6102056104de366004611ab8565b60086020526000908152604090205481565b6102056104fe366004611ab8565b60076020526000908152604090205481565b61022b61051e366004611ab8565b6006602052600090815260409020546001600160a01b031681565b61054c610547366004611ab8565b610d8b565b60405161020f9190611be2565b60005461022b906001600160a01b031681565b600b5461022b906001600160a01b031681565b6000546001600160a01b031633146105b25760405162461bcd60e51b81526004016105a990611c6d565b60405180910390fd5b601055565b6000546001600160a01b031633146105e15760405162461bcd60e51b81526004016105a990611c6d565b600980546001600160a01b03199081166001600160a01b0396871617909155600a805473ca143ce32fe78f1f7019d7d551a6402fc5350c73908316179055600b8054821696861696909617909555600c80547355d398326f99059ff775485246999027b3197955908716179055600e8054861692851692909217909155600f8054851692841692909217909155600d8054909316911617905567d02ab486cedc000060105560118054601e60ff19909116179055565b6001600160a01b0381166000908152600360209081526040808320805482518185028101850190935280835260609492939192909184015b82821015610724576000848152602090819020604080516060810182526003860290920180546001600160a01b03168352600180820154848601526002909101549183019190915290835290920191016106cf565b505050509050919050565b6000546001600160a01b031633146107595760405162461bcd60e51b81526004016105a990611c6d565b6011805460ff191660ff92909216919091179055565b6001600160a01b03811660009081526005602052604081205460ff166107a6576011546107a090839060ff16610e53565b92915050565b5090565b600a54600c54600b54600092839283926107d3926001600160a01b039081169281169116610ed2565b915091506107e46010548383610f9c565b9250505090565b6000546001600160a01b031633146108155760405162461bcd60e51b81526004016105a990611c6d565b600f80546001600160a01b03199081166001600160a01b0393841617909155600d8054821694831694909417909355600e80549093169116179055565b6000546001600160a01b0316331461087c5760405162461bcd60e51b81526004016105a990611c6d565b600080546001600160a01b0319166001600160a01b0392909216919091179055565b6001600160a01b038181166000908152600660205260409020541661091d5760405162461bcd60e51b815260206004820152602f60248201527f4d656d626572736869703a54686520696e7669746174696f6e2061646472657360448201526e1cc81b5d5cdd08189948189bdd5b99608a1b60648201526084016105a9565b6001600160a01b03811633146109755760405162461bcd60e51b815260206004820152601b60248201527f4d656d626572736869703a496e76616c6964206f70657261746f72000000000060448201526064016105a9565b600061097f6107aa565b9050600081116109dd5760405162461bcd60e51b8152602060048201526024808201527f4d656d626572736869703a496e76616c69642070757263686173696e6720616d6044820152631bdd5b9d60e21b60648201526084016105a9565b600060646109ec836042611cba565b6109f69190611cd1565b905060006064610a07846014611cba565b610a119190611cd1565b905060006064610a2285600a611cba565b610a2c9190611cd1565b600b54909150610a47906001600160a01b03168630866110bb565b600b54600d54610a66916001600160a01b0390811691889116856110bb565b600b54600e54610a85916001600160a01b0390811691889116846110bb565b600b54600f54610ac3916001600160a01b03908116918891168486610aaa898b611cf3565b610ab49190611cf3565b610abe9190611cf3565b6110bb565b6001600160a01b03851660009081526004602052604090205460ff16610b1157610aed85856111eb565b6001600160a01b0385166000908152600460205260409020805460ff191660011790555b5050505050565b6009546001600160a01b0316610b705760405162461bcd60e51b815260206004820152601f60248201527f4d656d626572736869703a5a65726f20696e697469616c20616464726573730060448201526064016105a9565b6009546001600160a01b03828116911614610c3b576001600160a01b03811660009081526004602052604090205460ff16610bed5760405162461bcd60e51b815260206004820152601760248201527f4d656d626572736869703a4e6f7420656c696769626c6500000000000000000060448201526064016105a9565b336001600160a01b03821603610c3b5760405162461bcd60e51b815260206004820152601360248201527204d656d626572736869703a4f6e6c792076697606c1b60448201526064016105a9565b33600090815260066020526040902080546001600160a01b0319166001600160a01b0392909216919091179055565b6001600160a01b038216600090815260086020526040902054811115610cd25760405162461bcd60e51b815260206004820152601f60248201527f4d656d626572736869703a496e76616c696420636c61696d20616d6f756e740060448201526064016105a9565b600b54610ce9906001600160a01b03168383611643565b6001600160a01b03821660009081526008602052604081208054839290610d11908490611cf3565b90915550506001600160a01b0391821660008181526003602081815260408084208151606081018352958652858301968752429186019182528054600180820183559186529290942094519190920290930180546001600160a01b0319169390951692909217845591519183019190915551600290910155565b6001600160a01b0381166000908152600260209081526040808320805482518185028101850190935280835260609492939192909184015b82821015610724576000848152602090819020604080516080810182526004860290920180546001600160a01b03168352600181015493830193909352600280840154918301919091526003830154919291606084019160ff90911690811115610e2f57610e2f611bcc565b6002811115610e4057610e40611bcc565b8152505081526020019060010190610dc3565b600060ff82161580610e6c57506001600160a01b038316155b80610e8f57506001600160a01b03831660009081526005602052604090205460ff165b15610e9b5750816107a0565b6001600160a01b0380841660009081526006602052604090205416610eca81610ec5600186611d06565b610e53565b949350505050565b6000806000610ee18585611757565b509050600080610ef288888861184e565b6001600160a01b0316630902f1ac6040518163ffffffff1660e01b8152600401606060405180830381865afa158015610f2f573d6000803e3d6000fd5b505050506040513d601f19601f82011682018060405250810190610f539190611d36565b506001600160701b031691506001600160701b03169150826001600160a01b0316876001600160a01b031614610f8a578082610f8d565b81815b90999098509650505050505050565b60008084116110015760405162461bcd60e51b815260206004820152602b60248201527f556e697377617056324c6962726172793a20494e53554646494349454e545f4960448201526a1394155517d05353d5539560aa1b60648201526084016105a9565b6000831180156110115750600082115b61106e5760405162461bcd60e51b815260206004820152602860248201527f556e697377617056324c6962726172793a20494e53554646494349454e545f4c604482015267495155494449545960c01b60648201526084016105a9565b600061107c856103e5611926565b9050600061108a8285611926565b905060006110a48361109e886103e8611926565b9061198d565b90506110b08183611cd1565b979650505050505050565b604080516001600160a01b0385811660248301528481166044830152606480830185905283518084039091018152608490920183526020820180516001600160e01b03166323b872dd60e01b179052915160009283929088169161111f9190611d86565b6000604051808303816000865af19150503d806000811461115c576040519150601f19603f3d011682016040523d82523d6000602084013e611161565b606091505b509150915081801561118b57508051158061118b57508080602001905181019061118b9190611db5565b6111e35760405162461bcd60e51b8152602060048201526024808201527f5472616e7366657248656c7065723a205452414e534645525f46524f4d5f46416044820152631253115160e21b60648201526084016105a9565b505050505050565b6001600160a01b038083166000908152600660209081526040808320549093168083526007909152918120805460019290611227908490611dd7565b90915550506001600160a01b03811660009081526007602052604090205460031180159061126e57506001600160a01b03811660009081526005602052604090205460ff16155b15611297576001600160a01b0381166000908152600560205260409020805460ff191660011790555b60646112a4836014611cba565b6112ae9190611cd1565b6001600160a01b0382166000908152600860205260409020546112d19190611dd7565b6001600160a01b038083166000908152600860209081526040808320949094556002815290839020835160808101909452918616835290919081016064611319866014611cba565b6113239190611cd1565b8152426020820152604001600090528154600180820184556000938452602093849020835160049093020180546001600160a01b0319166001600160a01b03909316929092178255928201518184015560408201516002808301919091556060830151600383018054949593949193909260ff199092169184908111156113ac576113ac611bcc565b021790555050506001600160a01b03811660009081526005602052604090205460ff16156116345760646113e1836028611cba565b6113eb9190611cd1565b6001600160a01b03821660009081526008602052604090205461140e9190611dd7565b6001600160a01b038083166000908152600860209081526040808320949094556002815290839020835160808101909452918616835290919081016064611456866028611cba565b6114609190611cd1565b8152426020820152604001600190528154600180820184556000938452602093849020835160049093020180546001600160a01b0319166001600160a01b03909316929092178255928201518184015560408201516002808301919091556060830151600383018054949593949193909260ff199092169184908111156114e9576114e9611bcc565b021790555050506001600160a01b0380821660009081526006602052604090205416801561162e57606461151e846006611cba565b6115289190611cd1565b6001600160a01b03821660009081526008602052604090205461154b9190611dd7565b6001600160a01b038083166000908152600860209081526040808320949094556002815290839020835160808101909452918716835290919081016064611593876006611cba565b61159d9190611cd1565b8152426020820152604001600290528154600180820184556000938452602093849020835160049093020180546001600160a01b0319166001600160a01b03909316929092178255928201518184015560408201516002808301919091556060830151600383018054949593949193909260ff1990921691849081111561162657611626611bcc565b021790555050505b50505050565b61163e83836119e2565b505050565b604080516001600160a01b038481166024830152604480830185905283518084039091018152606490920183526020820180516001600160e01b031663a9059cbb60e01b179052915160009283929087169161169f9190611d86565b6000604051808303816000865af19150503d80600081146116dc576040519150601f19603f3d011682016040523d82523d6000602084013e6116e1565b606091505b509150915081801561170b57508051158061170b57508080602001905181019061170b9190611db5565b610b115760405162461bcd60e51b815260206004820152601f60248201527f5472616e7366657248656c7065723a205452414e534645525f4641494c45440060448201526064016105a9565b600080826001600160a01b0316846001600160a01b0316036117c95760405162461bcd60e51b815260206004820152602560248201527f556e697377617056324c6962726172793a204944454e544943414c5f41444452604482015264455353455360d81b60648201526084016105a9565b826001600160a01b0316846001600160a01b0316106117e95782846117ec565b83835b90925090506001600160a01b0382166118475760405162461bcd60e51b815260206004820152601e60248201527f556e697377617056324c6962726172793a205a45524f5f41444452455353000060448201526064016105a9565b9250929050565b600080600061185d8585611757565b6040516bffffffffffffffffffffffff19606084811b8216602084015283901b16603482015291935091508690604801604051602081830303815290604052805190602001206040516020016119049291906001600160f81b0319815260609290921b6bffffffffffffffffffffffff1916600183015260158201527efb7f630766e6a796048ea87d01acd3068e8ff67d078148a3fa3f4a84f69bd5603582015260550190565b60408051601f1981840301815291905280516020909101209695505050505050565b600081158061194a5750828261193c8183611cba565b92506119489083611cd1565b145b6107a05760405162461bcd60e51b815260206004820152601460248201527364732d6d6174682d6d756c2d6f766572666c6f7760601b60448201526064016105a9565b60008261199a8382611dd7565b91508110156107a05760405162461bcd60e51b815260206004820152601460248201527364732d6d6174682d6164642d6f766572666c6f7760601b60448201526064016105a9565b60006119ed8361076f565b6001600160a01b03811660009081526005602052604090205490915060ff161561163e5760646113e1836028611cba565b600060208284031215611a3057600080fd5b5035919050565b80356001600160a01b0381168114611a4e57600080fd5b919050565b600080600080600060a08688031215611a6b57600080fd5b611a7486611a37565b9450611a8260208701611a37565b9350611a9060408701611a37565b9250611a9e60608701611a37565b9150611aac60808701611a37565b90509295509295909350565b600060208284031215611aca57600080fd5b611ad382611a37565b9392505050565b602080825282518282018190526000919060409081850190868401855b82811015611b2f57815180516001600160a01b0316855286810151878601528501518585015260609093019290850190600101611af7565b5091979650505050505050565b600060208284031215611b4e57600080fd5b813560ff81168114611ad357600080fd5b600080600060608486031215611b7457600080fd5b611b7d84611a37565b9250611b8b60208501611a37565b9150611b9960408501611a37565b90509250925092565b60008060408385031215611bb557600080fd5b611bbe83611a37565b946020939093013593505050565b634e487b7160e01b600052602160045260246000fd5b60208082528251828201819052600091906040908185019086840185805b83811015611c5f57825180516001600160a01b03168652878101518887015286810151878701526060908101519060038210611c4a57634e487b7160e01b84526021600452602484fd5b86015260809094019391860191600101611c00565b509298975050505050505050565b6020808252601e908201527f4d656d626572736869703a43616c6c6572206973206e6f74206f776e65720000604082015260600190565b634e487b7160e01b600052601160045260246000fd5b80820281158282048414176107a0576107a0611ca4565b600082611cee57634e487b7160e01b600052601260045260246000fd5b500490565b818103818111156107a0576107a0611ca4565b60ff82811682821603908111156107a0576107a0611ca4565b80516001600160701b0381168114611a4e57600080fd5b600080600060608486031215611d4b57600080fd5b611d5484611d1f565b9250611d6260208501611d1f565b9150604084015163ffffffff81168114611d7b57600080fd5b809150509250925092565b6000825160005b81811015611da75760208186018101518583015201611d8d565b506000920191825250919050565b600060208284031215611dc757600080fd5b81518015158114611ad357600080fd5b808201808211156107a0576107a0611ca456fea2646970667358221220bc7cc71a62df1b5719b96c705f084b6970540fb072c069cd2a50ba8499a2ea9a64736f6c63430008120033",
					"opcodes": "PUSH1 0x80 PUSH1 0x40 MSTORE CALLVALUE DUP1 ISZERO PUSH2 0x10 JUMPI PUSH1 0x0 DUP1 REVERT JUMPDEST POP PUSH1 0x0 DUP1 SLOAD PUSH1 0x1 PUSH1 0x1 PUSH1 0xA0 SHL SUB NOT AND CALLER OR SWAP1 SSTORE PUSH2 0x1E20 DUP1 PUSH2 0x32 PUSH1 0x0 CODECOPY PUSH1 0x0 RETURN INVALID PUSH1 0x80 PUSH1 0x40 MSTORE CALLVALUE DUP1 ISZERO PUSH2 0x10 JUMPI PUSH1 0x0 DUP1 REVERT JUMPDEST POP PUSH1 0x4 CALLDATASIZE LT PUSH2 0x1CF JUMPI PUSH1 0x0 CALLDATALOAD PUSH1 0xE0 SHR DUP1 PUSH4 0x60FE4483 GT PUSH2 0x104 JUMPI DUP1 PUSH4 0x9E0060AA GT PUSH2 0xA2 JUMPI DUP1 PUSH4 0xEE8F0B7A GT PUSH2 0x71 JUMPI DUP1 PUSH4 0xEE8F0B7A EQ PUSH2 0x510 JUMPI DUP1 PUSH4 0xF48AA84F EQ PUSH2 0x539 JUMPI DUP1 PUSH4 0xF851A440 EQ PUSH2 0x559 JUMPI DUP1 PUSH4 0xFC0C546A EQ PUSH2 0x56C JUMPI PUSH1 0x0 DUP1 REVERT JUMPDEST DUP1 PUSH4 0x9E0060AA EQ PUSH2 0x4AA JUMPI DUP1 PUSH4 0xAAD3EC96 EQ PUSH2 0x4BD JUMPI DUP1 PUSH4 0xAC849501 EQ PUSH2 0x4D0 JUMPI DUP1 PUSH4 0xB13140ED EQ PUSH2 0x4F0 JUMPI PUSH1 0x0 DUP1 REVERT JUMPDEST DUP1 PUSH4 0x704B6C02 GT PUSH2 0xDE JUMPI DUP1 PUSH4 0x704B6C02 EQ PUSH2 0x44E JUMPI DUP1 PUSH4 0x7A8AF562 EQ PUSH2 0x461 JUMPI DUP1 PUSH4 0x81BAC14F EQ PUSH2 0x474 JUMPI DUP1 PUSH4 0x84203F4B EQ PUSH2 0x487 JUMPI PUSH1 0x0 DUP1 REVERT JUMPDEST DUP1 PUSH4 0x60FE4483 EQ PUSH2 0x32F JUMPI DUP1 PUSH4 0x6386C1C7 EQ PUSH2 0x342 JUMPI DUP1 PUSH4 0x6A7F7477 EQ PUSH2 0x43B JUMPI PUSH1 0x0 DUP1 REVERT JUMPDEST DUP1 PUSH4 0x46E6DFE7 GT PUSH2 0x171 JUMPI DUP1 PUSH4 0x5636F6BA GT PUSH2 0x14B JUMPI DUP1 PUSH4 0x5636F6BA EQ PUSH2 0x2EE JUMPI DUP1 PUSH4 0x57B2351D EQ PUSH2 0x301 JUMPI DUP1 PUSH4 0x59D0F713 EQ PUSH2 0x309 JUMPI DUP1 PUSH4 0x5C60DA1B EQ PUSH2 0x31C JUMPI PUSH1 0x0 DUP1 REVERT JUMPDEST DUP1 PUSH4 0x46E6DFE7 EQ PUSH2 0x289 JUMPI DUP1 PUSH4 0x4C3FBB66 EQ PUSH2 0x2A8 JUMPI DUP1 PUSH4 0x4E377201 EQ PUSH2 0x2DB JUMPI PUSH1 0x0 DUP1 REVERT JUMPDEST DUP1 PUSH4 0x2F48AB7D GT PUSH2 0x1AD JUMPI DUP1 PUSH4 0x2F48AB7D EQ PUSH2 0x218 JUMPI DUP1 PUSH4 0x30BE0CD9 EQ PUSH2 0x243 JUMPI DUP1 PUSH4 0x32870577 EQ PUSH2 0x263 JUMPI DUP1 PUSH4 0x35FC14D8 EQ PUSH2 0x276 JUMPI PUSH1 0x0 DUP1 REVERT JUMPDEST DUP1 PUSH4 0x667AFE2 EQ PUSH2 0x1D4 JUMPI DUP1 PUSH4 0x1459457A EQ PUSH2 0x1E9 JUMPI DUP1 PUSH4 0x1EFBA6C2 EQ PUSH2 0x1FC JUMPI JUMPDEST PUSH1 0x0 DUP1 REVERT JUMPDEST PUSH2 0x1E7 PUSH2 0x1E2 CALLDATASIZE PUSH1 0x4 PUSH2 0x1A1E JUMP JUMPDEST PUSH2 0x57F JUMP JUMPDEST STOP JUMPDEST PUSH2 0x1E7 PUSH2 0x1F7 CALLDATASIZE PUSH1 0x4 PUSH2 0x1A53 JUMP JUMPDEST PUSH2 0x5B7 JUMP JUMPDEST PUSH2 0x205 PUSH1 0x10 SLOAD DUP2 JUMP JUMPDEST PUSH1 0x40 MLOAD SWAP1 DUP2 MSTORE PUSH1 0x20 ADD JUMPDEST PUSH1 0x40 MLOAD DUP1 SWAP2 SUB SWAP1 RETURN JUMPDEST PUSH1 0xC SLOAD PUSH2 0x22B SWAP1 PUSH1 0x1 PUSH1 0x1 PUSH1 0xA0 SHL SUB AND DUP2 JUMP JUMPDEST PUSH1 0x40 MLOAD PUSH1 0x1 PUSH1 0x1 PUSH1 0xA0 SHL SUB SWAP1 SWAP2 AND DUP2 MSTORE PUSH1 0x20 ADD PUSH2 0x20F JUMP JUMPDEST PUSH2 0x256 PUSH2 0x251 CALLDATASIZE PUSH1 0x4 PUSH2 0x1AB8 JUMP JUMPDEST PUSH2 0x697 JUMP JUMPDEST PUSH1 0x40 MLOAD PUSH2 0x20F SWAP2 SWAP1 PUSH2 0x1ADA JUMP JUMPDEST PUSH2 0x1E7 PUSH2 0x271 CALLDATASIZE PUSH1 0x4 PUSH2 0x1B3C JUMP JUMPDEST PUSH2 0x72F JUMP JUMPDEST PUSH2 0x22B PUSH2 0x284 CALLDATASIZE PUSH1 0x4 PUSH2 0x1AB8 JUMP JUMPDEST PUSH2 0x76F JUMP JUMPDEST PUSH1 0x11 SLOAD PUSH2 0x296 SWAP1 PUSH1 0xFF AND DUP2 JUMP JUMPDEST PUSH1 0x40 MLOAD PUSH1 0xFF SWAP1 SWAP2 AND DUP2 MSTORE PUSH1 0x20 ADD PUSH2 0x20F JUMP JUMPDEST PUSH2 0x2CB PUSH2 0x2B6 CALLDATASIZE PUSH1 0x4 PUSH2 0x1AB8 JUMP JUMPDEST PUSH1 0x5 PUSH1 0x20 MSTORE PUSH1 0x0 SWAP1 DUP2 MSTORE PUSH1 0x40 SWAP1 KECCAK256 SLOAD PUSH1 0xFF AND DUP2 JUMP JUMPDEST PUSH1 0x40 MLOAD SWAP1 ISZERO ISZERO DUP2 MSTORE PUSH1 0x20 ADD PUSH2 0x20F JUMP JUMPDEST PUSH1 0x9 SLOAD PUSH2 0x22B SWAP1 PUSH1 0x1 PUSH1 0x1 PUSH1 0xA0 SHL SUB AND DUP2 JUMP JUMPDEST PUSH1 0xE SLOAD PUSH2 0x22B SWAP1 PUSH1 0x1 PUSH1 0x1 PUSH1 0xA0 SHL SUB AND DUP2 JUMP JUMPDEST PUSH2 0x205 PUSH2 0x7AA JUMP JUMPDEST PUSH1 0xA SLOAD PUSH2 0x22B SWAP1 PUSH1 0x1 PUSH1 0x1 PUSH1 0xA0 SHL SUB AND DUP2 JUMP JUMPDEST PUSH1 0x1 SLOAD PUSH2 0x22B SWAP1 PUSH1 0x1 PUSH1 0x1 PUSH1 0xA0 SHL SUB AND DUP2 JUMP JUMPDEST PUSH2 0x1E7 PUSH2 0x33D CALLDATASIZE PUSH1 0x4 PUSH2 0x1B5F JUMP JUMPDEST PUSH2 0x7EB JUMP JUMPDEST PUSH2 0x3F1 PUSH2 0x350 CALLDATASIZE PUSH1 0x4 PUSH2 0x1AB8 JUMP JUMPDEST PUSH1 0x40 DUP1 MLOAD PUSH1 0xA0 DUP2 ADD DUP3 MSTORE PUSH1 0x0 DUP1 DUP3 MSTORE PUSH1 0x20 DUP3 ADD DUP2 SWAP1 MSTORE SWAP2 DUP2 ADD DUP3 SWAP1 MSTORE PUSH1 0x60 DUP2 ADD DUP3 SWAP1 MSTORE PUSH1 0x80 DUP2 ADD SWAP2 SWAP1 SWAP2 MSTORE POP PUSH1 0x40 DUP1 MLOAD PUSH1 0xA0 DUP2 ADD DUP3 MSTORE PUSH1 0x1 PUSH1 0x1 PUSH1 0xA0 SHL SUB SWAP3 DUP4 AND PUSH1 0x0 DUP2 DUP2 MSTORE PUSH1 0x4 PUSH1 0x20 SWAP1 DUP2 MSTORE DUP5 DUP3 KECCAK256 SLOAD PUSH1 0xFF SWAP1 DUP2 AND ISZERO ISZERO DUP6 MSTORE DUP4 DUP4 MSTORE PUSH1 0x5 DUP3 MSTORE DUP6 DUP4 KECCAK256 SLOAD AND ISZERO ISZERO DUP2 DUP6 ADD MSTORE DUP3 DUP3 MSTORE PUSH1 0x6 DUP2 MSTORE DUP5 DUP3 KECCAK256 SLOAD SWAP1 SWAP6 AND DUP4 DUP6 ADD MSTORE DUP2 DUP2 MSTORE PUSH1 0x7 DUP6 MSTORE DUP4 DUP2 KECCAK256 SLOAD PUSH1 0x60 DUP5 ADD MSTORE SWAP1 DUP2 MSTORE PUSH1 0x8 SWAP1 SWAP4 MSTORE SWAP2 KECCAK256 SLOAD PUSH1 0x80 DUP3 ADD MSTORE SWAP1 JUMP JUMPDEST PUSH1 0x40 MLOAD PUSH2 0x20F SWAP2 SWAP1 DUP2 MLOAD ISZERO ISZERO DUP2 MSTORE PUSH1 0x20 DUP1 DUP4 ADD MLOAD ISZERO ISZERO SWAP1 DUP3 ADD MSTORE PUSH1 0x40 DUP1 DUP4 ADD MLOAD PUSH1 0x1 PUSH1 0x1 PUSH1 0xA0 SHL SUB AND SWAP1 DUP3 ADD MSTORE PUSH1 0x60 DUP1 DUP4 ADD MLOAD SWAP1 DUP3 ADD MSTORE PUSH1 0x80 SWAP2 DUP3 ADD MLOAD SWAP2 DUP2 ADD SWAP2 SWAP1 SWAP2 MSTORE PUSH1 0xA0 ADD SWAP1 JUMP JUMPDEST PUSH1 0xD SLOAD PUSH2 0x22B SWAP1 PUSH1 0x1 PUSH1 0x1 PUSH1 0xA0 SHL SUB AND DUP2 JUMP JUMPDEST PUSH2 0x1E7 PUSH2 0x45C CALLDATASIZE PUSH1 0x4 PUSH2 0x1AB8 JUMP JUMPDEST PUSH2 0x852 JUMP JUMPDEST PUSH2 0x1E7 PUSH2 0x46F CALLDATASIZE PUSH1 0x4 PUSH2 0x1AB8 JUMP JUMPDEST PUSH2 0x89E JUMP JUMPDEST PUSH2 0x1E7 PUSH2 0x482 CALLDATASIZE PUSH1 0x4 PUSH2 0x1AB8 JUMP JUMPDEST PUSH2 0xB18 JUMP JUMPDEST PUSH2 0x2CB PUSH2 0x495 CALLDATASIZE PUSH1 0x4 PUSH2 0x1AB8 JUMP JUMPDEST PUSH1 0x4 PUSH1 0x20 MSTORE PUSH1 0x0 SWAP1 DUP2 MSTORE PUSH1 0x40 SWAP1 KECCAK256 SLOAD PUSH1 0xFF AND DUP2 JUMP JUMPDEST PUSH1 0xF SLOAD PUSH2 0x22B SWAP1 PUSH1 0x1 PUSH1 0x1 PUSH1 0xA0 SHL SUB AND DUP2 JUMP JUMPDEST PUSH2 0x1E7 PUSH2 0x4CB CALLDATASIZE PUSH1 0x4 PUSH2 0x1BA2 JUMP JUMPDEST PUSH2 0xC6A JUMP JUMPDEST PUSH2 0x205 PUSH2 0x4DE CALLDATASIZE PUSH1 0x4 PUSH2 0x1AB8 JUMP JUMPDEST PUSH1 0x8 PUSH1 0x20 MSTORE PUSH1 0x0 SWAP1 DUP2 MSTORE PUSH1 0x40 SWAP1 KECCAK256 SLOAD DUP2 JUMP JUMPDEST PUSH2 0x205 PUSH2 0x4FE CALLDATASIZE PUSH1 0x4 PUSH2 0x1AB8 JUMP JUMPDEST PUSH1 0x7 PUSH1 0x20 MSTORE PUSH1 0x0 SWAP1 DUP2 MSTORE PUSH1 0x40 SWAP1 KECCAK256 SLOAD DUP2 JUMP JUMPDEST PUSH2 0x22B PUSH2 0x51E CALLDATASIZE PUSH1 0x4 PUSH2 0x1AB8 JUMP JUMPDEST PUSH1 0x6 PUSH1 0x20 MSTORE PUSH1 0x0 SWAP1 DUP2 MSTORE PUSH1 0x40 SWAP1 KECCAK256 SLOAD PUSH1 0x1 PUSH1 0x1 PUSH1 0xA0 SHL SUB AND DUP2 JUMP JUMPDEST PUSH2 0x54C PUSH2 0x547 CALLDATASIZE PUSH1 0x4 PUSH2 0x1AB8 JUMP JUMPDEST PUSH2 0xD8B JUMP JUMPDEST PUSH1 0x40 MLOAD PUSH2 0x20F SWAP2 SWAP1 PUSH2 0x1BE2 JUMP JUMPDEST PUSH1 0x0 SLOAD PUSH2 0x22B SWAP1 PUSH1 0x1 PUSH1 0x1 PUSH1 0xA0 SHL SUB AND DUP2 JUMP JUMPDEST PUSH1 0xB SLOAD PUSH2 0x22B SWAP1 PUSH1 0x1 PUSH1 0x1 PUSH1 0xA0 SHL SUB AND DUP2 JUMP JUMPDEST PUSH1 0x0 SLOAD PUSH1 0x1 PUSH1 0x1 PUSH1 0xA0 SHL SUB AND CALLER EQ PUSH2 0x5B2 JUMPI PUSH1 0x40 MLOAD PUSH3 0x461BCD PUSH1 0xE5 SHL DUP2 MSTORE PUSH1 0x4 ADD PUSH2 0x5A9 SWAP1 PUSH2 0x1C6D JUMP JUMPDEST PUSH1 0x40 MLOAD DUP1 SWAP2 SUB SWAP1 REVERT JUMPDEST PUSH1 0x10 SSTORE JUMP JUMPDEST PUSH1 0x0 SLOAD PUSH1 0x1 PUSH1 0x1 PUSH1 0xA0 SHL SUB AND CALLER EQ PUSH2 0x5E1 JUMPI PUSH1 0x40 MLOAD PUSH3 0x461BCD PUSH1 0xE5 SHL DUP2 MSTORE PUSH1 0x4 ADD PUSH2 0x5A9 SWAP1 PUSH2 0x1C6D JUMP JUMPDEST PUSH1 0x9 DUP1 SLOAD PUSH1 0x1 PUSH1 0x1 PUSH1 0xA0 SHL SUB NOT SWAP1 DUP2 AND PUSH1 0x1 PUSH1 0x1 PUSH1 0xA0 SHL SUB SWAP7 DUP8 AND OR SWAP1 SWAP2 SSTORE PUSH1 0xA DUP1 SLOAD PUSH20 0xCA143CE32FE78F1F7019D7D551A6402FC5350C73 SWAP1 DUP4 AND OR SWAP1 SSTORE PUSH1 0xB DUP1 SLOAD DUP3 AND SWAP7 DUP7 AND SWAP7 SWAP1 SWAP7 OR SWAP1 SWAP6 SSTORE PUSH1 0xC DUP1 SLOAD PUSH20 0x55D398326F99059FF775485246999027B3197955 SWAP1 DUP8 AND OR SWAP1 SSTORE PUSH1 0xE DUP1 SLOAD DUP7 AND SWAP3 DUP6 AND SWAP3 SWAP1 SWAP3 OR SWAP1 SWAP2 SSTORE PUSH1 0xF DUP1 SLOAD DUP6 AND SWAP3 DUP5 AND SWAP3 SWAP1 SWAP3 OR SWAP1 SWAP2 SSTORE PUSH1 0xD DUP1 SLOAD SWAP1 SWAP4 AND SWAP2 AND OR SWAP1 SSTORE PUSH8 0xD02AB486CEDC0000 PUSH1 0x10 SSTORE PUSH1 0x11 DUP1 SLOAD PUSH1 0x1E PUSH1 0xFF NOT SWAP1 SWAP2 AND OR SWAP1 SSTORE JUMP JUMPDEST PUSH1 0x1 PUSH1 0x1 PUSH1 0xA0 SHL SUB DUP2 AND PUSH1 0x0 SWAP1 DUP2 MSTORE PUSH1 0x3 PUSH1 0x20 SWAP1 DUP2 MSTORE PUSH1 0x40 DUP1 DUP4 KECCAK256 DUP1 SLOAD DUP3 MLOAD DUP2 DUP6 MUL DUP2 ADD DUP6 ADD SWAP1 SWAP4 MSTORE DUP1 DUP4 MSTORE PUSH1 0x60 SWAP5 SWAP3 SWAP4 SWAP2 SWAP3 SWAP1 SWAP2 DUP5 ADD JUMPDEST DUP3 DUP3 LT ISZERO PUSH2 0x724 JUMPI PUSH1 0x0 DUP5 DUP2 MSTORE PUSH1 0x20 SWAP1 DUP2 SWAP1 KECCAK256 PUSH1 0x40 DUP1 MLOAD PUSH1 0x60 DUP2 ADD DUP3 MSTORE PUSH1 0x3 DUP7 MUL SWAP1 SWAP3 ADD DUP1 SLOAD PUSH1 0x1 PUSH1 0x1 PUSH1 0xA0 SHL SUB AND DUP4 MSTORE PUSH1 0x1 DUP1 DUP3 ADD SLOAD DUP5 DUP7 ADD MSTORE PUSH1 0x2 SWAP1 SWAP2 ADD SLOAD SWAP2 DUP4 ADD SWAP2 SWAP1 SWAP2 MSTORE SWAP1 DUP4 MSTORE SWAP1 SWAP3 ADD SWAP2 ADD PUSH2 0x6CF JUMP JUMPDEST POP POP POP POP SWAP1 POP SWAP2 SWAP1 POP JUMP JUMPDEST PUSH1 0x0 SLOAD PUSH1 0x1 PUSH1 0x1 PUSH1 0xA0 SHL SUB AND CALLER EQ PUSH2 0x759 JUMPI PUSH1 0x40 MLOAD PUSH3 0x461BCD PUSH1 0xE5 SHL DUP2 MSTORE PUSH1 0x4 ADD PUSH2 0x5A9 SWAP1 PUSH2 0x1C6D JUMP JUMPDEST PUSH1 0x11 DUP1 SLOAD PUSH1 0xFF NOT AND PUSH1 0xFF SWAP3 SWAP1 SWAP3 AND SWAP2 SWAP1 SWAP2 OR SWAP1 SSTORE JUMP JUMPDEST PUSH1 0x1 PUSH1 0x1 PUSH1 0xA0 SHL SUB DUP2 AND PUSH1 0x0 SWAP1 DUP2 MSTORE PUSH1 0x5 PUSH1 0x20 MSTORE PUSH1 0x40 DUP2 KECCAK256 SLOAD PUSH1 0xFF AND PUSH2 0x7A6 JUMPI PUSH1 0x11 SLOAD PUSH2 0x7A0 SWAP1 DUP4 SWAP1 PUSH1 0xFF AND PUSH2 0xE53 JUMP JUMPDEST SWAP3 SWAP2 POP POP JUMP JUMPDEST POP SWAP1 JUMP JUMPDEST PUSH1 0xA SLOAD PUSH1 0xC SLOAD PUSH1 0xB SLOAD PUSH1 0x0 SWAP3 DUP4 SWAP3 DUP4 SWAP3 PUSH2 0x7D3 SWAP3 PUSH1 0x1 PUSH1 0x1 PUSH1 0xA0 SHL SUB SWAP1 DUP2 AND SWAP3 DUP2 AND SWAP2 AND PUSH2 0xED2 JUMP JUMPDEST SWAP2 POP SWAP2 POP PUSH2 0x7E4 PUSH1 0x10 SLOAD DUP4 DUP4 PUSH2 0xF9C JUMP JUMPDEST SWAP3 POP POP POP SWAP1 JUMP JUMPDEST PUSH1 0x0 SLOAD PUSH1 0x1 PUSH1 0x1 PUSH1 0xA0 SHL SUB AND CALLER EQ PUSH2 0x815 JUMPI PUSH1 0x40 MLOAD PUSH3 0x461BCD PUSH1 0xE5 SHL DUP2 MSTORE PUSH1 0x4 ADD PUSH2 0x5A9 SWAP1 PUSH2 0x1C6D JUMP JUMPDEST PUSH1 0xF DUP1 SLOAD PUSH1 0x1 PUSH1 0x1 PUSH1 0xA0 SHL SUB NOT SWAP1 DUP2 AND PUSH1 0x1 PUSH1 0x1 PUSH1 0xA0 SHL SUB SWAP4 DUP5 AND OR SWAP1 SWAP2 SSTORE PUSH1 0xD DUP1 SLOAD DUP3 AND SWAP5 DUP4 AND SWAP5 SWAP1 SWAP5 OR SWAP1 SWAP4 SSTORE PUSH1 0xE DUP1 SLOAD SWAP1 SWAP4 AND SWAP2 AND OR SWAP1 SSTORE JUMP JUMPDEST PUSH1 0x0 SLOAD PUSH1 0x1 PUSH1 0x1 PUSH1 0xA0 SHL SUB AND CALLER EQ PUSH2 0x87C JUMPI PUSH1 0x40 MLOAD PUSH3 0x461BCD PUSH1 0xE5 SHL DUP2 MSTORE PUSH1 0x4 ADD PUSH2 0x5A9 SWAP1 PUSH2 0x1C6D JUMP JUMPDEST PUSH1 0x0 DUP1 SLOAD PUSH1 0x1 PUSH1 0x1 PUSH1 0xA0 SHL SUB NOT AND PUSH1 0x1 PUSH1 0x1 PUSH1 0xA0 SHL SUB SWAP3 SWAP1 SWAP3 AND SWAP2 SWAP1 SWAP2 OR SWAP1 SSTORE JUMP JUMPDEST PUSH1 0x1 PUSH1 0x1 PUSH1 0xA0 SHL SUB DUP2 DUP2 AND PUSH1 0x0 SWAP1 DUP2 MSTORE PUSH1 0x6 PUSH1 0x20 MSTORE PUSH1 0x40 SWAP1 KECCAK256 SLOAD AND PUSH2 0x91D JUMPI PUSH1 0x40 MLOAD PUSH3 0x461BCD PUSH1 0xE5 SHL DUP2 MSTORE PUSH1 0x20 PUSH1 0x4 DUP3 ADD MSTORE PUSH1 0x2F PUSH1 0x24 DUP3 ADD MSTORE PUSH32 0x4D656D626572736869703A54686520696E7669746174696F6E20616464726573 PUSH1 0x44 DUP3 ADD MSTORE PUSH15 0x1CC81B5D5CDD08189948189BDD5B99 PUSH1 0x8A SHL PUSH1 0x64 DUP3 ADD MSTORE PUSH1 0x84 ADD PUSH2 0x5A9 JUMP JUMPDEST PUSH1 0x1 PUSH1 0x1 PUSH1 0xA0 SHL SUB DUP2 AND CALLER EQ PUSH2 0x975 JUMPI PUSH1 0x40 MLOAD PUSH3 0x461BCD PUSH1 0xE5 SHL DUP2 MSTORE PUSH1 0x20 PUSH1 0x4 DUP3 ADD MSTORE PUSH1 0x1B PUSH1 0x24 DUP3 ADD MSTORE PUSH32 0x4D656D626572736869703A496E76616C6964206F70657261746F720000000000 PUSH1 0x44 DUP3 ADD MSTORE PUSH1 0x64 ADD PUSH2 0x5A9 JUMP JUMPDEST PUSH1 0x0 PUSH2 0x97F PUSH2 0x7AA JUMP JUMPDEST SWAP1 POP PUSH1 0x0 DUP2 GT PUSH2 0x9DD JUMPI PUSH1 0x40 MLOAD PUSH3 0x461BCD PUSH1 0xE5 SHL DUP2 MSTORE PUSH1 0x20 PUSH1 0x4 DUP3 ADD MSTORE PUSH1 0x24 DUP1 DUP3 ADD MSTORE PUSH32 0x4D656D626572736869703A496E76616C69642070757263686173696E6720616D PUSH1 0x44 DUP3 ADD MSTORE PUSH4 0x1BDD5B9D PUSH1 0xE2 SHL PUSH1 0x64 DUP3 ADD MSTORE PUSH1 0x84 ADD PUSH2 0x5A9 JUMP JUMPDEST PUSH1 0x0 PUSH1 0x64 PUSH2 0x9EC DUP4 PUSH1 0x42 PUSH2 0x1CBA JUMP JUMPDEST PUSH2 0x9F6 SWAP2 SWAP1 PUSH2 0x1CD1 JUMP JUMPDEST SWAP1 POP PUSH1 0x0 PUSH1 0x64 PUSH2 0xA07 DUP5 PUSH1 0x14 PUSH2 0x1CBA JUMP JUMPDEST PUSH2 0xA11 SWAP2 SWAP1 PUSH2 0x1CD1 JUMP JUMPDEST SWAP1 POP PUSH1 0x0 PUSH1 0x64 PUSH2 0xA22 DUP6 PUSH1 0xA PUSH2 0x1CBA JUMP JUMPDEST PUSH2 0xA2C SWAP2 SWAP1 PUSH2 0x1CD1 JUMP JUMPDEST PUSH1 0xB SLOAD SWAP1 SWAP2 POP PUSH2 0xA47 SWAP1 PUSH1 0x1 PUSH1 0x1 PUSH1 0xA0 SHL SUB AND DUP7 ADDRESS DUP7 PUSH2 0x10BB JUMP JUMPDEST PUSH1 0xB SLOAD PUSH1 0xD SLOAD PUSH2 0xA66 SWAP2 PUSH1 0x1 PUSH1 0x1 PUSH1 0xA0 SHL SUB SWAP1 DUP2 AND SWAP2 DUP9 SWAP2 AND DUP6 PUSH2 0x10BB JUMP JUMPDEST PUSH1 0xB SLOAD PUSH1 0xE SLOAD PUSH2 0xA85 SWAP2 PUSH1 0x1 PUSH1 0x1 PUSH1 0xA0 SHL SUB SWAP1 DUP2 AND SWAP2 DUP9 SWAP2 AND DUP5 PUSH2 0x10BB JUMP JUMPDEST PUSH1 0xB SLOAD PUSH1 0xF SLOAD PUSH2 0xAC3 SWAP2 PUSH1 0x1 PUSH1 0x1 PUSH1 0xA0 SHL SUB SWAP1 DUP2 AND SWAP2 DUP9 SWAP2 AND DUP5 DUP7 PUSH2 0xAAA DUP10 DUP12 PUSH2 0x1CF3 JUMP JUMPDEST PUSH2 0xAB4 SWAP2 SWAP1 PUSH2 0x1CF3 JUMP JUMPDEST PUSH2 0xABE SWAP2 SWAP1 PUSH2 0x1CF3 JUMP JUMPDEST PUSH2 0x10BB JUMP JUMPDEST PUSH1 0x1 PUSH1 0x1 PUSH1 0xA0 SHL SUB DUP6 AND PUSH1 0x0 SWAP1 DUP2 MSTORE PUSH1 0x4 PUSH1 0x20 MSTORE PUSH1 0x40 SWAP1 KECCAK256 SLOAD PUSH1 0xFF AND PUSH2 0xB11 JUMPI PUSH2 0xAED DUP6 DUP6 PUSH2 0x11EB JUMP JUMPDEST PUSH1 0x1 PUSH1 0x1 PUSH1 0xA0 SHL SUB DUP6 AND PUSH1 0x0 SWAP1 DUP2 MSTORE PUSH1 0x4 PUSH1 0x20 MSTORE PUSH1 0x40 SWAP1 KECCAK256 DUP1 SLOAD PUSH1 0xFF NOT AND PUSH1 0x1 OR SWAP1 SSTORE JUMPDEST POP POP POP POP POP JUMP JUMPDEST PUSH1 0x9 SLOAD PUSH1 0x1 PUSH1 0x1 PUSH1 0xA0 SHL SUB AND PUSH2 0xB70 JUMPI PUSH1 0x40 MLOAD PUSH3 0x461BCD PUSH1 0xE5 SHL DUP2 MSTORE PUSH1 0x20 PUSH1 0x4 DUP3 ADD MSTORE PUSH1 0x1F PUSH1 0x24 DUP3 ADD MSTORE PUSH32 0x4D656D626572736869703A5A65726F20696E697469616C206164647265737300 PUSH1 0x44 DUP3 ADD MSTORE PUSH1 0x64 ADD PUSH2 0x5A9 JUMP JUMPDEST PUSH1 0x9 SLOAD PUSH1 0x1 PUSH1 0x1 PUSH1 0xA0 SHL SUB DUP3 DUP2 AND SWAP2 AND EQ PUSH2 0xC3B JUMPI PUSH1 0x1 PUSH1 0x1 PUSH1 0xA0 SHL SUB DUP2 AND PUSH1 0x0 SWAP1 DUP2 MSTORE PUSH1 0x4 PUSH1 0x20 MSTORE PUSH1 0x40 SWAP1 KECCAK256 SLOAD PUSH1 0xFF AND PUSH2 0xBED JUMPI PUSH1 0x40 MLOAD PUSH3 0x461BCD PUSH1 0xE5 SHL DUP2 MSTORE PUSH1 0x20 PUSH1 0x4 DUP3 ADD MSTORE PUSH1 0x17 PUSH1 0x24 DUP3 ADD MSTORE PUSH32 0x4D656D626572736869703A4E6F7420656C696769626C65000000000000000000 PUSH1 0x44 DUP3 ADD MSTORE PUSH1 0x64 ADD PUSH2 0x5A9 JUMP JUMPDEST CALLER PUSH1 0x1 PUSH1 0x1 PUSH1 0xA0 SHL SUB DUP3 AND SUB PUSH2 0xC3B JUMPI PUSH1 0x40 MLOAD PUSH3 0x461BCD PUSH1 0xE5 SHL DUP2 MSTORE PUSH1 0x20 PUSH1 0x4 DUP3 ADD MSTORE PUSH1 0x13 PUSH1 0x24 DUP3 ADD MSTORE PUSH19 0x4D656D626572736869703A4F6E6C792076697 PUSH1 0x6C SHL PUSH1 0x44 DUP3 ADD MSTORE PUSH1 0x64 ADD PUSH2 0x5A9 JUMP JUMPDEST CALLER PUSH1 0x0 SWAP1 DUP2 MSTORE PUSH1 0x6 PUSH1 0x20 MSTORE PUSH1 0x40 SWAP1 KECCAK256 DUP1 SLOAD PUSH1 0x1 PUSH1 0x1 PUSH1 0xA0 SHL SUB NOT AND PUSH1 0x1 PUSH1 0x1 PUSH1 0xA0 SHL SUB SWAP3 SWAP1 SWAP3 AND SWAP2 SWAP1 SWAP2 OR SWAP1 SSTORE JUMP JUMPDEST PUSH1 0x1 PUSH1 0x1 PUSH1 0xA0 SHL SUB DUP3 AND PUSH1 0x0 SWAP1 DUP2 MSTORE PUSH1 0x8 PUSH1 0x20 MSTORE PUSH1 0x40 SWAP1 KECCAK256 SLOAD DUP2 GT ISZERO PUSH2 0xCD2 JUMPI PUSH1 0x40 MLOAD PUSH3 0x461BCD PUSH1 0xE5 SHL DUP2 MSTORE PUSH1 0x20 PUSH1 0x4 DUP3 ADD MSTORE PUSH1 0x1F PUSH1 0x24 DUP3 ADD MSTORE PUSH32 0x4D656D626572736869703A496E76616C696420636C61696D20616D6F756E7400 PUSH1 0x44 DUP3 ADD MSTORE PUSH1 0x64 ADD PUSH2 0x5A9 JUMP JUMPDEST PUSH1 0xB SLOAD PUSH2 0xCE9 SWAP1 PUSH1 0x1 PUSH1 0x1 PUSH1 0xA0 SHL SUB AND DUP4 DUP4 PUSH2 0x1643 JUMP JUMPDEST PUSH1 0x1 PUSH1 0x1 PUSH1 0xA0 SHL SUB DUP3 AND PUSH1 0x0 SWAP1 DUP2 MSTORE PUSH1 0x8 PUSH1 0x20 MSTORE PUSH1 0x40 DUP2 KECCAK256 DUP1 SLOAD DUP4 SWAP3 SWAP1 PUSH2 0xD11 SWAP1 DUP5 SWAP1 PUSH2 0x1CF3 JUMP JUMPDEST SWAP1 SWAP2 SSTORE POP POP PUSH1 0x1 PUSH1 0x1 PUSH1 0xA0 SHL SUB SWAP2 DUP3 AND PUSH1 0x0 DUP2 DUP2 MSTORE PUSH1 0x3 PUSH1 0x20 DUP2 DUP2 MSTORE PUSH1 0x40 DUP1 DUP5 KECCAK256 DUP2 MLOAD PUSH1 0x60 DUP2 ADD DUP4 MSTORE SWAP6 DUP7 MSTORE DUP6 DUP4 ADD SWAP7 DUP8 MSTORE TIMESTAMP SWAP2 DUP7 ADD SWAP2 DUP3 MSTORE DUP1 SLOAD PUSH1 0x1 DUP1 DUP3 ADD DUP4 SSTORE SWAP2 DUP7 MSTORE SWAP3 SWAP1 SWAP5 KECCAK256 SWAP5 MLOAD SWAP2 SWAP1 SWAP3 MUL SWAP1 SWAP4 ADD DUP1 SLOAD PUSH1 0x1 PUSH1 0x1 PUSH1 0xA0 SHL SUB NOT AND SWAP4 SWAP1 SWAP6 AND SWAP3 SWAP1 SWAP3 OR DUP5 SSTORE SWAP2 MLOAD SWAP2 DUP4 ADD SWAP2 SWAP1 SWAP2 SSTORE MLOAD PUSH1 0x2 SWAP1 SWAP2 ADD SSTORE JUMP JUMPDEST PUSH1 0x1 PUSH1 0x1 PUSH1 0xA0 SHL SUB DUP2 AND PUSH1 0x0 SWAP1 DUP2 MSTORE PUSH1 0x2 PUSH1 0x20 SWAP1 DUP2 MSTORE PUSH1 0x40 DUP1 DUP4 KECCAK256 DUP1 SLOAD DUP3 MLOAD DUP2 DUP6 MUL DUP2 ADD DUP6 ADD SWAP1 SWAP4 MSTORE DUP1 DUP4 MSTORE PUSH1 0x60 SWAP5 SWAP3 SWAP4 SWAP2 SWAP3 SWAP1 SWAP2 DUP5 ADD JUMPDEST DUP3 DUP3 LT ISZERO PUSH2 0x724 JUMPI PUSH1 0x0 DUP5 DUP2 MSTORE PUSH1 0x20 SWAP1 DUP2 SWAP1 KECCAK256 PUSH1 0x40 DUP1 MLOAD PUSH1 0x80 DUP2 ADD DUP3 MSTORE PUSH1 0x4 DUP7 MUL SWAP1 SWAP3 ADD DUP1 SLOAD PUSH1 0x1 PUSH1 0x1 PUSH1 0xA0 SHL SUB AND DUP4 MSTORE PUSH1 0x1 DUP2 ADD SLOAD SWAP4 DUP4 ADD SWAP4 SWAP1 SWAP4 MSTORE PUSH1 0x2 DUP1 DUP5 ADD SLOAD SWAP2 DUP4 ADD SWAP2 SWAP1 SWAP2 MSTORE PUSH1 0x3 DUP4 ADD SLOAD SWAP2 SWAP3 SWAP2 PUSH1 0x60 DUP5 ADD SWAP2 PUSH1 0xFF SWAP1 SWAP2 AND SWAP1 DUP2 GT ISZERO PUSH2 0xE2F JUMPI PUSH2 0xE2F PUSH2 0x1BCC JUMP JUMPDEST PUSH1 0x2 DUP2 GT ISZERO PUSH2 0xE40 JUMPI PUSH2 0xE40 PUSH2 0x1BCC JUMP JUMPDEST DUP2 MSTORE POP POP DUP2 MSTORE PUSH1 0x20 ADD SWAP1 PUSH1 0x1 ADD SWAP1 PUSH2 0xDC3 JUMP JUMPDEST PUSH1 0x0 PUSH1 0xFF DUP3 AND ISZERO DUP1 PUSH2 0xE6C JUMPI POP PUSH1 0x1 PUSH1 0x1 PUSH1 0xA0 SHL SUB DUP4 AND ISZERO JUMPDEST DUP1 PUSH2 0xE8F JUMPI POP PUSH1 0x1 PUSH1 0x1 PUSH1 0xA0 SHL SUB DUP4 AND PUSH1 0x0 SWAP1 DUP2 MSTORE PUSH1 0x5 PUSH1 0x20 MSTORE PUSH1 0x40 SWAP1 KECCAK256 SLOAD PUSH1 0xFF AND JUMPDEST ISZERO PUSH2 0xE9B JUMPI POP DUP2 PUSH2 0x7A0 JUMP JUMPDEST PUSH1 0x1 PUSH1 0x1 PUSH1 0xA0 SHL SUB DUP1 DUP5 AND PUSH1 0x0 SWAP1 DUP2 MSTORE PUSH1 0x6 PUSH1 0x20 MSTORE PUSH1 0x40 SWAP1 KECCAK256 SLOAD AND PUSH2 0xECA DUP2 PUSH2 0xEC5 PUSH1 0x1 DUP7 PUSH2 0x1D06 JUMP JUMPDEST PUSH2 0xE53 JUMP JUMPDEST SWAP5 SWAP4 POP POP POP POP JUMP JUMPDEST PUSH1 0x0 DUP1 PUSH1 0x0 PUSH2 0xEE1 DUP6 DUP6 PUSH2 0x1757 JUMP JUMPDEST POP SWAP1 POP PUSH1 0x0 DUP1 PUSH2 0xEF2 DUP9 DUP9 DUP9 PUSH2 0x184E JUMP JUMPDEST PUSH1 0x1 PUSH1 0x1 PUSH1 0xA0 SHL SUB AND PUSH4 0x902F1AC PUSH1 0x40 MLOAD DUP2 PUSH4 0xFFFFFFFF AND PUSH1 0xE0 SHL DUP2 MSTORE PUSH1 0x4 ADD PUSH1 0x60 PUSH1 0x40 MLOAD DUP1 DUP4 SUB DUP2 DUP7 GAS STATICCALL ISZERO DUP1 ISZERO PUSH2 0xF2F JUMPI RETURNDATASIZE PUSH1 0x0 DUP1 RETURNDATACOPY RETURNDATASIZE PUSH1 0x0 REVERT JUMPDEST POP POP POP POP PUSH1 0x40 MLOAD RETURNDATASIZE PUSH1 0x1F NOT PUSH1 0x1F DUP3 ADD AND DUP3 ADD DUP1 PUSH1 0x40 MSTORE POP DUP2 ADD SWAP1 PUSH2 0xF53 SWAP2 SWAP1 PUSH2 0x1D36 JUMP JUMPDEST POP PUSH1 0x1 PUSH1 0x1 PUSH1 0x70 SHL SUB AND SWAP2 POP PUSH1 0x1 PUSH1 0x1 PUSH1 0x70 SHL SUB AND SWAP2 POP DUP3 PUSH1 0x1 PUSH1 0x1 PUSH1 0xA0 SHL SUB AND DUP8 PUSH1 0x1 PUSH1 0x1 PUSH1 0xA0 SHL SUB AND EQ PUSH2 0xF8A JUMPI DUP1 DUP3 PUSH2 0xF8D JUMP JUMPDEST DUP2 DUP2 JUMPDEST SWAP1 SWAP10 SWAP1 SWAP9 POP SWAP7 POP POP POP POP POP POP POP JUMP JUMPDEST PUSH1 0x0 DUP1 DUP5 GT PUSH2 0x1001 JUMPI PUSH1 0x40 MLOAD PUSH3 0x461BCD PUSH1 0xE5 SHL DUP2 MSTORE PUSH1 0x20 PUSH1 0x4 DUP3 ADD MSTORE PUSH1 0x2B PUSH1 0x24 DUP3 ADD MSTORE PUSH32 0x556E697377617056324C6962726172793A20494E53554646494349454E545F49 PUSH1 0x44 DUP3 ADD MSTORE PUSH11 0x1394155517D05353D55395 PUSH1 0xAA SHL PUSH1 0x64 DUP3 ADD MSTORE PUSH1 0x84 ADD PUSH2 0x5A9 JUMP JUMPDEST PUSH1 0x0 DUP4 GT DUP1 ISZERO PUSH2 0x1011 JUMPI POP PUSH1 0x0 DUP3 GT JUMPDEST PUSH2 0x106E JUMPI PUSH1 0x40 MLOAD PUSH3 0x461BCD PUSH1 0xE5 SHL DUP2 MSTORE PUSH1 0x20 PUSH1 0x4 DUP3 ADD MSTORE PUSH1 0x28 PUSH1 0x24 DUP3 ADD MSTORE PUSH32 0x556E697377617056324C6962726172793A20494E53554646494349454E545F4C PUSH1 0x44 DUP3 ADD MSTORE PUSH8 0x4951554944495459 PUSH1 0xC0 SHL PUSH1 0x64 DUP3 ADD MSTORE PUSH1 0x84 ADD PUSH2 0x5A9 JUMP JUMPDEST PUSH1 0x0 PUSH2 0x107C DUP6 PUSH2 0x3E5 PUSH2 0x1926 JUMP JUMPDEST SWAP1 POP PUSH1 0x0 PUSH2 0x108A DUP3 DUP6 PUSH2 0x1926 JUMP JUMPDEST SWAP1 POP PUSH1 0x0 PUSH2 0x10A4 DUP4 PUSH2 0x109E DUP9 PUSH2 0x3E8 PUSH2 0x1926 JUMP JUMPDEST SWAP1 PUSH2 0x198D JUMP JUMPDEST SWAP1 POP PUSH2 0x10B0 DUP2 DUP4 PUSH2 0x1CD1 JUMP JUMPDEST SWAP8 SWAP7 POP POP POP POP POP POP POP JUMP JUMPDEST PUSH1 0x40 DUP1 MLOAD PUSH1 0x1 PUSH1 0x1 PUSH1 0xA0 SHL SUB DUP6 DUP2 AND PUSH1 0x24 DUP4 ADD MSTORE DUP5 DUP2 AND PUSH1 0x44 DUP4 ADD MSTORE PUSH1 0x64 DUP1 DUP4 ADD DUP6 SWAP1 MSTORE DUP4 MLOAD DUP1 DUP5 SUB SWAP1 SWAP2 ADD DUP2 MSTORE PUSH1 0x84 SWAP1 SWAP3 ADD DUP4 MSTORE PUSH1 0x20 DUP3 ADD DUP1 MLOAD PUSH1 0x1 PUSH1 0x1 PUSH1 0xE0 SHL SUB AND PUSH4 0x23B872DD PUSH1 0xE0 SHL OR SWAP1 MSTORE SWAP2 MLOAD PUSH1 0x0 SWAP3 DUP4 SWAP3 SWAP1 DUP9 AND SWAP2 PUSH2 0x111F SWAP2 SWAP1 PUSH2 0x1D86 JUMP JUMPDEST PUSH1 0x0 PUSH1 0x40 MLOAD DUP1 DUP4 SUB DUP2 PUSH1 0x0 DUP7 GAS CALL SWAP2 POP POP RETURNDATASIZE DUP1 PUSH1 0x0 DUP2 EQ PUSH2 0x115C JUMPI PUSH1 0x40 MLOAD SWAP2 POP PUSH1 0x1F NOT PUSH1 0x3F RETURNDATASIZE ADD AND DUP3 ADD PUSH1 0x40 MSTORE RETURNDATASIZE DUP3 MSTORE RETURNDATASIZE PUSH1 0x0 PUSH1 0x20 DUP5 ADD RETURNDATACOPY PUSH2 0x1161 JUMP JUMPDEST PUSH1 0x60 SWAP2 POP JUMPDEST POP SWAP2 POP SWAP2 POP DUP2 DUP1 ISZERO PUSH2 0x118B JUMPI POP DUP1 MLOAD ISZERO DUP1 PUSH2 0x118B JUMPI POP DUP1 DUP1 PUSH1 0x20 ADD SWAP1 MLOAD DUP2 ADD SWAP1 PUSH2 0x118B SWAP2 SWAP1 PUSH2 0x1DB5 JUMP JUMPDEST PUSH2 0x11E3 JUMPI PUSH1 0x40 MLOAD PUSH3 0x461BCD PUSH1 0xE5 SHL DUP2 MSTORE PUSH1 0x20 PUSH1 0x4 DUP3 ADD MSTORE PUSH1 0x24 DUP1 DUP3 ADD MSTORE PUSH32 0x5472616E7366657248656C7065723A205452414E534645525F46524F4D5F4641 PUSH1 0x44 DUP3 ADD MSTORE PUSH4 0x12531151 PUSH1 0xE2 SHL PUSH1 0x64 DUP3 ADD MSTORE PUSH1 0x84 ADD PUSH2 0x5A9 JUMP JUMPDEST POP POP POP POP POP POP JUMP JUMPDEST PUSH1 0x1 PUSH1 0x1 PUSH1 0xA0 SHL SUB DUP1 DUP4 AND PUSH1 0x0 SWAP1 DUP2 MSTORE PUSH1 0x6 PUSH1 0x20 SWAP1 DUP2 MSTORE PUSH1 0x40 DUP1 DUP4 KECCAK256 SLOAD SWAP1 SWAP4 AND DUP1 DUP4 MSTORE PUSH1 0x7 SWAP1 SWAP2 MSTORE SWAP2 DUP2 KECCAK256 DUP1 SLOAD PUSH1 0x1 SWAP3 SWAP1 PUSH2 0x1227 SWAP1 DUP5 SWAP1 PUSH2 0x1DD7 JUMP JUMPDEST SWAP1 SWAP2 SSTORE POP POP PUSH1 0x1 PUSH1 0x1 PUSH1 0xA0 SHL SUB DUP2 AND PUSH1 0x0 SWAP1 DUP2 MSTORE PUSH1 0x7 PUSH1 0x20 MSTORE PUSH1 0x40 SWAP1 KECCAK256 SLOAD PUSH1 0x3 GT DUP1 ISZERO SWAP1 PUSH2 0x126E JUMPI POP PUSH1 0x1 PUSH1 0x1 PUSH1 0xA0 SHL SUB DUP2 AND PUSH1 0x0 SWAP1 DUP2 MSTORE PUSH1 0x5 PUSH1 0x20 MSTORE PUSH1 0x40 SWAP1 KECCAK256 SLOAD PUSH1 0xFF AND ISZERO JUMPDEST ISZERO PUSH2 0x1297 JUMPI PUSH1 0x1 PUSH1 0x1 PUSH1 0xA0 SHL SUB DUP2 AND PUSH1 0x0 SWAP1 DUP2 MSTORE PUSH1 0x5 PUSH1 0x20 MSTORE PUSH1 0x40 SWAP1 KECCAK256 DUP1 SLOAD PUSH1 0xFF NOT AND PUSH1 0x1 OR SWAP1 SSTORE JUMPDEST PUSH1 0x64 PUSH2 0x12A4 DUP4 PUSH1 0x14 PUSH2 0x1CBA JUMP JUMPDEST PUSH2 0x12AE SWAP2 SWAP1 PUSH2 0x1CD1 JUMP JUMPDEST PUSH1 0x1 PUSH1 0x1 PUSH1 0xA0 SHL SUB DUP3 AND PUSH1 0x0 SWAP1 DUP2 MSTORE PUSH1 0x8 PUSH1 0x20 MSTORE PUSH1 0x40 SWAP1 KECCAK256 SLOAD PUSH2 0x12D1 SWAP2 SWAP1 PUSH2 0x1DD7 JUMP JUMPDEST PUSH1 0x1 PUSH1 0x1 PUSH1 0xA0 SHL SUB DUP1 DUP4 AND PUSH1 0x0 SWAP1 DUP2 MSTORE PUSH1 0x8 PUSH1 0x20 SWAP1 DUP2 MSTORE PUSH1 0x40 DUP1 DUP4 KECCAK256 SWAP5 SWAP1 SWAP5 SSTORE PUSH1 0x2 DUP2 MSTORE SWAP1 DUP4 SWAP1 KECCAK256 DUP4 MLOAD PUSH1 0x80 DUP2 ADD SWAP1 SWAP5 MSTORE SWAP2 DUP7 AND DUP4 MSTORE SWAP1 SWAP2 SWAP1 DUP2 ADD PUSH1 0x64 PUSH2 0x1319 DUP7 PUSH1 0x14 PUSH2 0x1CBA JUMP JUMPDEST PUSH2 0x1323 SWAP2 SWAP1 PUSH2 0x1CD1 JUMP JUMPDEST DUP2 MSTORE TIMESTAMP PUSH1 0x20 DUP3 ADD MSTORE PUSH1 0x40 ADD PUSH1 0x0 SWAP1 MSTORE DUP2 SLOAD PUSH1 0x1 DUP1 DUP3 ADD DUP5 SSTORE PUSH1 0x0 SWAP4 DUP5 MSTORE PUSH1 0x20 SWAP4 DUP5 SWAP1 KECCAK256 DUP4 MLOAD PUSH1 0x4 SWAP1 SWAP4 MUL ADD DUP1 SLOAD PUSH1 0x1 PUSH1 0x1 PUSH1 0xA0 SHL SUB NOT AND PUSH1 0x1 PUSH1 0x1 PUSH1 0xA0 SHL SUB SWAP1 SWAP4 AND SWAP3 SWAP1 SWAP3 OR DUP3 SSTORE SWAP3 DUP3 ADD MLOAD DUP2 DUP5 ADD SSTORE PUSH1 0x40 DUP3 ADD MLOAD PUSH1 0x2 DUP1 DUP4 ADD SWAP2 SWAP1 SWAP2 SSTORE PUSH1 0x60 DUP4 ADD MLOAD PUSH1 0x3 DUP4 ADD DUP1 SLOAD SWAP5 SWAP6 SWAP4 SWAP5 SWAP2 SWAP4 SWAP1 SWAP3 PUSH1 0xFF NOT SWAP1 SWAP3 AND SWAP2 DUP5 SWAP1 DUP2 GT ISZERO PUSH2 0x13AC JUMPI PUSH2 0x13AC PUSH2 0x1BCC JUMP JUMPDEST MUL OR SWAP1 SSTORE POP POP POP PUSH1 0x1 PUSH1 0x1 PUSH1 0xA0 SHL SUB DUP2 AND PUSH1 0x0 SWAP1 DUP2 MSTORE PUSH1 0x5 PUSH1 0x20 MSTORE PUSH1 0x40 SWAP1 KECCAK256 SLOAD PUSH1 0xFF AND ISZERO PUSH2 0x1634 JUMPI PUSH1 0x64 PUSH2 0x13E1 DUP4 PUSH1 0x28 PUSH2 0x1CBA JUMP JUMPDEST PUSH2 0x13EB SWAP2 SWAP1 PUSH2 0x1CD1 JUMP JUMPDEST PUSH1 0x1 PUSH1 0x1 PUSH1 0xA0 SHL SUB DUP3 AND PUSH1 0x0 SWAP1 DUP2 MSTORE PUSH1 0x8 PUSH1 0x20 MSTORE PUSH1 0x40 SWAP1 KECCAK256 SLOAD PUSH2 0x140E SWAP2 SWAP1 PUSH2 0x1DD7 JUMP JUMPDEST PUSH1 0x1 PUSH1 0x1 PUSH1 0xA0 SHL SUB DUP1 DUP4 AND PUSH1 0x0 SWAP1 DUP2 MSTORE PUSH1 0x8 PUSH1 0x20 SWAP1 DUP2 MSTORE PUSH1 0x40 DUP1 DUP4 KECCAK256 SWAP5 SWAP1 SWAP5 SSTORE PUSH1 0x2 DUP2 MSTORE SWAP1 DUP4 SWAP1 KECCAK256 DUP4 MLOAD PUSH1 0x80 DUP2 ADD SWAP1 SWAP5 MSTORE SWAP2 DUP7 AND DUP4 MSTORE SWAP1 SWAP2 SWAP1 DUP2 ADD PUSH1 0x64 PUSH2 0x1456 DUP7 PUSH1 0x28 PUSH2 0x1CBA JUMP JUMPDEST PUSH2 0x1460 SWAP2 SWAP1 PUSH2 0x1CD1 JUMP JUMPDEST DUP2 MSTORE TIMESTAMP PUSH1 0x20 DUP3 ADD MSTORE PUSH1 0x40 ADD PUSH1 0x1 SWAP1 MSTORE DUP2 SLOAD PUSH1 0x1 DUP1 DUP3 ADD DUP5 SSTORE PUSH1 0x0 SWAP4 DUP5 MSTORE PUSH1 0x20 SWAP4 DUP5 SWAP1 KECCAK256 DUP4 MLOAD PUSH1 0x4 SWAP1 SWAP4 MUL ADD DUP1 SLOAD PUSH1 0x1 PUSH1 0x1 PUSH1 0xA0 SHL SUB NOT AND PUSH1 0x1 PUSH1 0x1 PUSH1 0xA0 SHL SUB SWAP1 SWAP4 AND SWAP3 SWAP1 SWAP3 OR DUP3 SSTORE SWAP3 DUP3 ADD MLOAD DUP2 DUP5 ADD SSTORE PUSH1 0x40 DUP3 ADD MLOAD PUSH1 0x2 DUP1 DUP4 ADD SWAP2 SWAP1 SWAP2 SSTORE PUSH1 0x60 DUP4 ADD MLOAD PUSH1 0x3 DUP4 ADD DUP1 SLOAD SWAP5 SWAP6 SWAP4 SWAP5 SWAP2 SWAP4 SWAP1 SWAP3 PUSH1 0xFF NOT SWAP1 SWAP3 AND SWAP2 DUP5 SWAP1 DUP2 GT ISZERO PUSH2 0x14E9 JUMPI PUSH2 0x14E9 PUSH2 0x1BCC JUMP JUMPDEST MUL OR SWAP1 SSTORE POP POP POP PUSH1 0x1 PUSH1 0x1 PUSH1 0xA0 SHL SUB DUP1 DUP3 AND PUSH1 0x0 SWAP1 DUP2 MSTORE PUSH1 0x6 PUSH1 0x20 MSTORE PUSH1 0x40 SWAP1 KECCAK256 SLOAD AND DUP1 ISZERO PUSH2 0x162E JUMPI PUSH1 0x64 PUSH2 0x151E DUP5 PUSH1 0x6 PUSH2 0x1CBA JUMP JUMPDEST PUSH2 0x1528 SWAP2 SWAP1 PUSH2 0x1CD1 JUMP JUMPDEST PUSH1 0x1 PUSH1 0x1 PUSH1 0xA0 SHL SUB DUP3 AND PUSH1 0x0 SWAP1 DUP2 MSTORE PUSH1 0x8 PUSH1 0x20 MSTORE PUSH1 0x40 SWAP1 KECCAK256 SLOAD PUSH2 0x154B SWAP2 SWAP1 PUSH2 0x1DD7 JUMP JUMPDEST PUSH1 0x1 PUSH1 0x1 PUSH1 0xA0 SHL SUB DUP1 DUP4 AND PUSH1 0x0 SWAP1 DUP2 MSTORE PUSH1 0x8 PUSH1 0x20 SWAP1 DUP2 MSTORE PUSH1 0x40 DUP1 DUP4 KECCAK256 SWAP5 SWAP1 SWAP5 SSTORE PUSH1 0x2 DUP2 MSTORE SWAP1 DUP4 SWAP1 KECCAK256 DUP4 MLOAD PUSH1 0x80 DUP2 ADD SWAP1 SWAP5 MSTORE SWAP2 DUP8 AND DUP4 MSTORE SWAP1 SWAP2 SWAP1 DUP2 ADD PUSH1 0x64 PUSH2 0x1593 DUP8 PUSH1 0x6 PUSH2 0x1CBA JUMP JUMPDEST PUSH2 0x159D SWAP2 SWAP1 PUSH2 0x1CD1 JUMP JUMPDEST DUP2 MSTORE TIMESTAMP PUSH1 0x20 DUP3 ADD MSTORE PUSH1 0x40 ADD PUSH1 0x2 SWAP1 MSTORE DUP2 SLOAD PUSH1 0x1 DUP1 DUP3 ADD DUP5 SSTORE PUSH1 0x0 SWAP4 DUP5 MSTORE PUSH1 0x20 SWAP4 DUP5 SWAP1 KECCAK256 DUP4 MLOAD PUSH1 0x4 SWAP1 SWAP4 MUL ADD DUP1 SLOAD PUSH1 0x1 PUSH1 0x1 PUSH1 0xA0 SHL SUB NOT AND PUSH1 0x1 PUSH1 0x1 PUSH1 0xA0 SHL SUB SWAP1 SWAP4 AND SWAP3 SWAP1 SWAP3 OR DUP3 SSTORE SWAP3 DUP3 ADD MLOAD DUP2 DUP5 ADD SSTORE PUSH1 0x40 DUP3 ADD MLOAD PUSH1 0x2 DUP1 DUP4 ADD SWAP2 SWAP1 SWAP2 SSTORE PUSH1 0x60 DUP4 ADD MLOAD PUSH1 0x3 DUP4 ADD DUP1 SLOAD SWAP5 SWAP6 SWAP4 SWAP5 SWAP2 SWAP4 SWAP1 SWAP3 PUSH1 0xFF NOT SWAP1 SWAP3 AND SWAP2 DUP5 SWAP1 DUP2 GT ISZERO PUSH2 0x1626 JUMPI PUSH2 0x1626 PUSH2 0x1BCC JUMP JUMPDEST MUL OR SWAP1 SSTORE POP POP POP JUMPDEST POP POP POP POP JUMP JUMPDEST PUSH2 0x163E DUP4 DUP4 PUSH2 0x19E2 JUMP JUMPDEST POP POP POP JUMP JUMPDEST PUSH1 0x40 DUP1 MLOAD PUSH1 0x1 PUSH1 0x1 PUSH1 0xA0 SHL SUB DUP5 DUP2 AND PUSH1 0x24 DUP4 ADD MSTORE PUSH1 0x44 DUP1 DUP4 ADD DUP6 SWAP1 MSTORE DUP4 MLOAD DUP1 DUP5 SUB SWAP1 SWAP2 ADD DUP2 MSTORE PUSH1 0x64 SWAP1 SWAP3 ADD DUP4 MSTORE PUSH1 0x20 DUP3 ADD DUP1 MLOAD PUSH1 0x1 PUSH1 0x1 PUSH1 0xE0 SHL SUB AND PUSH4 0xA9059CBB PUSH1 0xE0 SHL OR SWAP1 MSTORE SWAP2 MLOAD PUSH1 0x0 SWAP3 DUP4 SWAP3 SWAP1 DUP8 AND SWAP2 PUSH2 0x169F SWAP2 SWAP1 PUSH2 0x1D86 JUMP JUMPDEST PUSH1 0x0 PUSH1 0x40 MLOAD DUP1 DUP4 SUB DUP2 PUSH1 0x0 DUP7 GAS CALL SWAP2 POP POP RETURNDATASIZE DUP1 PUSH1 0x0 DUP2 EQ PUSH2 0x16DC JUMPI PUSH1 0x40 MLOAD SWAP2 POP PUSH1 0x1F NOT PUSH1 0x3F RETURNDATASIZE ADD AND DUP3 ADD PUSH1 0x40 MSTORE RETURNDATASIZE DUP3 MSTORE RETURNDATASIZE PUSH1 0x0 PUSH1 0x20 DUP5 ADD RETURNDATACOPY PUSH2 0x16E1 JUMP JUMPDEST PUSH1 0x60 SWAP2 POP JUMPDEST POP SWAP2 POP SWAP2 POP DUP2 DUP1 ISZERO PUSH2 0x170B JUMPI POP DUP1 MLOAD ISZERO DUP1 PUSH2 0x170B JUMPI POP DUP1 DUP1 PUSH1 0x20 ADD SWAP1 MLOAD DUP2 ADD SWAP1 PUSH2 0x170B SWAP2 SWAP1 PUSH2 0x1DB5 JUMP JUMPDEST PUSH2 0xB11 JUMPI PUSH1 0x40 MLOAD PUSH3 0x461BCD PUSH1 0xE5 SHL DUP2 MSTORE PUSH1 0x20 PUSH1 0x4 DUP3 ADD MSTORE PUSH1 0x1F PUSH1 0x24 DUP3 ADD MSTORE PUSH32 0x5472616E7366657248656C7065723A205452414E534645525F4641494C454400 PUSH1 0x44 DUP3 ADD MSTORE PUSH1 0x64 ADD PUSH2 0x5A9 JUMP JUMPDEST PUSH1 0x0 DUP1 DUP3 PUSH1 0x1 PUSH1 0x1 PUSH1 0xA0 SHL SUB AND DUP5 PUSH1 0x1 PUSH1 0x1 PUSH1 0xA0 SHL SUB AND SUB PUSH2 0x17C9 JUMPI PUSH1 0x40 MLOAD PUSH3 0x461BCD PUSH1 0xE5 SHL DUP2 MSTORE PUSH1 0x20 PUSH1 0x4 DUP3 ADD MSTORE PUSH1 0x25 PUSH1 0x24 DUP3 ADD MSTORE PUSH32 0x556E697377617056324C6962726172793A204944454E544943414C5F41444452 PUSH1 0x44 DUP3 ADD MSTORE PUSH5 0x4553534553 PUSH1 0xD8 SHL PUSH1 0x64 DUP3 ADD MSTORE PUSH1 0x84 ADD PUSH2 0x5A9 JUMP JUMPDEST DUP3 PUSH1 0x1 PUSH1 0x1 PUSH1 0xA0 SHL SUB AND DUP5 PUSH1 0x1 PUSH1 0x1 PUSH1 0xA0 SHL SUB AND LT PUSH2 0x17E9 JUMPI DUP3 DUP5 PUSH2 0x17EC JUMP JUMPDEST DUP4 DUP4 JUMPDEST SWAP1 SWAP3 POP SWAP1 POP PUSH1 0x1 PUSH1 0x1 PUSH1 0xA0 SHL SUB DUP3 AND PUSH2 0x1847 JUMPI PUSH1 0x40 MLOAD PUSH3 0x461BCD PUSH1 0xE5 SHL DUP2 MSTORE PUSH1 0x20 PUSH1 0x4 DUP3 ADD MSTORE PUSH1 0x1E PUSH1 0x24 DUP3 ADD MSTORE PUSH32 0x556E697377617056324C6962726172793A205A45524F5F414444524553530000 PUSH1 0x44 DUP3 ADD MSTORE PUSH1 0x64 ADD PUSH2 0x5A9 JUMP JUMPDEST SWAP3 POP SWAP3 SWAP1 POP JUMP JUMPDEST PUSH1 0x0 DUP1 PUSH1 0x0 PUSH2 0x185D DUP6 DUP6 PUSH2 0x1757 JUMP JUMPDEST PUSH1 0x40 MLOAD PUSH12 0xFFFFFFFFFFFFFFFFFFFFFFFF NOT PUSH1 0x60 DUP5 DUP2 SHL DUP3 AND PUSH1 0x20 DUP5 ADD MSTORE DUP4 SWAP1 SHL AND PUSH1 0x34 DUP3 ADD MSTORE SWAP2 SWAP4 POP SWAP2 POP DUP7 SWAP1 PUSH1 0x48 ADD PUSH1 0x40 MLOAD PUSH1 0x20 DUP2 DUP4 SUB SUB DUP2 MSTORE SWAP1 PUSH1 0x40 MSTORE DUP1 MLOAD SWAP1 PUSH1 0x20 ADD KECCAK256 PUSH1 0x40 MLOAD PUSH1 0x20 ADD PUSH2 0x1904 SWAP3 SWAP2 SWAP1 PUSH1 0x1 PUSH1 0x1 PUSH1 0xF8 SHL SUB NOT DUP2 MSTORE PUSH1 0x60 SWAP3 SWAP1 SWAP3 SHL PUSH12 0xFFFFFFFFFFFFFFFFFFFFFFFF NOT AND PUSH1 0x1 DUP4 ADD MSTORE PUSH1 0x15 DUP3 ADD MSTORE PUSH31 0xFB7F630766E6A796048EA87D01ACD3068E8FF67D078148A3FA3F4A84F69BD5 PUSH1 0x35 DUP3 ADD MSTORE PUSH1 0x55 ADD SWAP1 JUMP JUMPDEST PUSH1 0x40 DUP1 MLOAD PUSH1 0x1F NOT DUP2 DUP5 SUB ADD DUP2 MSTORE SWAP2 SWAP1 MSTORE DUP1 MLOAD PUSH1 0x20 SWAP1 SWAP2 ADD KECCAK256 SWAP7 SWAP6 POP POP POP POP POP POP JUMP JUMPDEST PUSH1 0x0 DUP2 ISZERO DUP1 PUSH2 0x194A JUMPI POP DUP3 DUP3 PUSH2 0x193C DUP2 DUP4 PUSH2 0x1CBA JUMP JUMPDEST SWAP3 POP PUSH2 0x1948 SWAP1 DUP4 PUSH2 0x1CD1 JUMP JUMPDEST EQ JUMPDEST PUSH2 0x7A0 JUMPI PUSH1 0x40 MLOAD PUSH3 0x461BCD PUSH1 0xE5 SHL DUP2 MSTORE PUSH1 0x20 PUSH1 0x4 DUP3 ADD MSTORE PUSH1 0x14 PUSH1 0x24 DUP3 ADD MSTORE PUSH20 0x64732D6D6174682D6D756C2D6F766572666C6F77 PUSH1 0x60 SHL PUSH1 0x44 DUP3 ADD MSTORE PUSH1 0x64 ADD PUSH2 0x5A9 JUMP JUMPDEST PUSH1 0x0 DUP3 PUSH2 0x199A DUP4 DUP3 PUSH2 0x1DD7 JUMP JUMPDEST SWAP2 POP DUP2 LT ISZERO PUSH2 0x7A0 JUMPI PUSH1 0x40 MLOAD PUSH3 0x461BCD PUSH1 0xE5 SHL DUP2 MSTORE PUSH1 0x20 PUSH1 0x4 DUP3 ADD MSTORE PUSH1 0x14 PUSH1 0x24 DUP3 ADD MSTORE PUSH20 0x64732D6D6174682D6164642D6F766572666C6F77 PUSH1 0x60 SHL PUSH1 0x44 DUP3 ADD MSTORE PUSH1 0x64 ADD PUSH2 0x5A9 JUMP JUMPDEST PUSH1 0x0 PUSH2 0x19ED DUP4 PUSH2 0x76F JUMP JUMPDEST PUSH1 0x1 PUSH1 0x1 PUSH1 0xA0 SHL SUB DUP2 AND PUSH1 0x0 SWAP1 DUP2 MSTORE PUSH1 0x5 PUSH1 0x20 MSTORE PUSH1 0x40 SWAP1 KECCAK256 SLOAD SWAP1 SWAP2 POP PUSH1 0xFF AND ISZERO PUSH2 0x163E JUMPI PUSH1 0x64 PUSH2 0x13E1 DUP4 PUSH1 0x28 PUSH2 0x1CBA JUMP JUMPDEST PUSH1 0x0 PUSH1 0x20 DUP3 DUP5 SUB SLT ISZERO PUSH2 0x1A30 JUMPI PUSH1 0x0 DUP1 REVERT JUMPDEST POP CALLDATALOAD SWAP2 SWAP1 POP JUMP JUMPDEST DUP1 CALLDATALOAD PUSH1 0x1 PUSH1 0x1 PUSH1 0xA0 SHL SUB DUP2 AND DUP2 EQ PUSH2 0x1A4E JUMPI PUSH1 0x0 DUP1 REVERT JUMPDEST SWAP2 SWAP1 POP JUMP JUMPDEST PUSH1 0x0 DUP1 PUSH1 0x0 DUP1 PUSH1 0x0 PUSH1 0xA0 DUP7 DUP9 SUB SLT ISZERO PUSH2 0x1A6B JUMPI PUSH1 0x0 DUP1 REVERT JUMPDEST PUSH2 0x1A74 DUP7 PUSH2 0x1A37 JUMP JUMPDEST SWAP5 POP PUSH2 0x1A82 PUSH1 0x20 DUP8 ADD PUSH2 0x1A37 JUMP JUMPDEST SWAP4 POP PUSH2 0x1A90 PUSH1 0x40 DUP8 ADD PUSH2 0x1A37 JUMP JUMPDEST SWAP3 POP PUSH2 0x1A9E PUSH1 0x60 DUP8 ADD PUSH2 0x1A37 JUMP JUMPDEST SWAP2 POP PUSH2 0x1AAC PUSH1 0x80 DUP8 ADD PUSH2 0x1A37 JUMP JUMPDEST SWAP1 POP SWAP3 SWAP6 POP SWAP3 SWAP6 SWAP1 SWAP4 POP JUMP JUMPDEST PUSH1 0x0 PUSH1 0x20 DUP3 DUP5 SUB SLT ISZERO PUSH2 0x1ACA JUMPI PUSH1 0x0 DUP1 REVERT JUMPDEST PUSH2 0x1AD3 DUP3 PUSH2 0x1A37 JUMP JUMPDEST SWAP4 SWAP3 POP POP POP JUMP JUMPDEST PUSH1 0x20 DUP1 DUP3 MSTORE DUP3 MLOAD DUP3 DUP3 ADD DUP2 SWAP1 MSTORE PUSH1 0x0 SWAP2 SWAP1 PUSH1 0x40 SWAP1 DUP2 DUP6 ADD SWAP1 DUP7 DUP5 ADD DUP6 JUMPDEST DUP3 DUP2 LT ISZERO PUSH2 0x1B2F JUMPI DUP2 MLOAD DUP1 MLOAD PUSH1 0x1 PUSH1 0x1 PUSH1 0xA0 SHL SUB AND DUP6 MSTORE DUP7 DUP2 ADD MLOAD DUP8 DUP7 ADD MSTORE DUP6 ADD MLOAD DUP6 DUP6 ADD MSTORE PUSH1 0x60 SWAP1 SWAP4 ADD SWAP3 SWAP1 DUP6 ADD SWAP1 PUSH1 0x1 ADD PUSH2 0x1AF7 JUMP JUMPDEST POP SWAP2 SWAP8 SWAP7 POP POP POP POP POP POP POP JUMP JUMPDEST PUSH1 0x0 PUSH1 0x20 DUP3 DUP5 SUB SLT ISZERO PUSH2 0x1B4E JUMPI PUSH1 0x0 DUP1 REVERT JUMPDEST DUP2 CALLDATALOAD PUSH1 0xFF DUP2 AND DUP2 EQ PUSH2 0x1AD3 JUMPI PUSH1 0x0 DUP1 REVERT JUMPDEST PUSH1 0x0 DUP1 PUSH1 0x0 PUSH1 0x60 DUP5 DUP7 SUB SLT ISZERO PUSH2 0x1B74 JUMPI PUSH1 0x0 DUP1 REVERT JUMPDEST PUSH2 0x1B7D DUP5 PUSH2 0x1A37 JUMP JUMPDEST SWAP3 POP PUSH2 0x1B8B PUSH1 0x20 DUP6 ADD PUSH2 0x1A37 JUMP JUMPDEST SWAP2 POP PUSH2 0x1B99 PUSH1 0x40 DUP6 ADD PUSH2 0x1A37 JUMP JUMPDEST SWAP1 POP SWAP3 POP SWAP3 POP SWAP3 JUMP JUMPDEST PUSH1 0x0 DUP1 PUSH1 0x40 DUP4 DUP6 SUB SLT ISZERO PUSH2 0x1BB5 JUMPI PUSH1 0x0 DUP1 REVERT JUMPDEST PUSH2 0x1BBE DUP4 PUSH2 0x1A37 JUMP JUMPDEST SWAP5 PUSH1 0x20 SWAP4 SWAP1 SWAP4 ADD CALLDATALOAD SWAP4 POP POP POP JUMP JUMPDEST PUSH4 0x4E487B71 PUSH1 0xE0 SHL PUSH1 0x0 MSTORE PUSH1 0x21 PUSH1 0x4 MSTORE PUSH1 0x24 PUSH1 0x0 REVERT JUMPDEST PUSH1 0x20 DUP1 DUP3 MSTORE DUP3 MLOAD DUP3 DUP3 ADD DUP2 SWAP1 MSTORE PUSH1 0x0 SWAP2 SWAP1 PUSH1 0x40 SWAP1 DUP2 DUP6 ADD SWAP1 DUP7 DUP5 ADD DUP6 DUP1 JUMPDEST DUP4 DUP2 LT ISZERO PUSH2 0x1C5F JUMPI DUP3 MLOAD DUP1 MLOAD PUSH1 0x1 PUSH1 0x1 PUSH1 0xA0 SHL SUB AND DUP7 MSTORE DUP8 DUP2 ADD MLOAD DUP9 DUP8 ADD MSTORE DUP7 DUP2 ADD MLOAD DUP8 DUP8 ADD MSTORE PUSH1 0x60 SWAP1 DUP2 ADD MLOAD SWAP1 PUSH1 0x3 DUP3 LT PUSH2 0x1C4A JUMPI PUSH4 0x4E487B71 PUSH1 0xE0 SHL DUP5 MSTORE PUSH1 0x21 PUSH1 0x4 MSTORE PUSH1 0x24 DUP5 REVERT JUMPDEST DUP7 ADD MSTORE PUSH1 0x80 SWAP1 SWAP5 ADD SWAP4 SWAP2 DUP7 ADD SWAP2 PUSH1 0x1 ADD PUSH2 0x1C00 JUMP JUMPDEST POP SWAP3 SWAP9 SWAP8 POP POP POP POP POP POP POP POP JUMP JUMPDEST PUSH1 0x20 DUP1 DUP3 MSTORE PUSH1 0x1E SWAP1 DUP3 ADD MSTORE PUSH32 0x4D656D626572736869703A43616C6C6572206973206E6F74206F776E65720000 PUSH1 0x40 DUP3 ADD MSTORE PUSH1 0x60 ADD SWAP1 JUMP JUMPDEST PUSH4 0x4E487B71 PUSH1 0xE0 SHL PUSH1 0x0 MSTORE PUSH1 0x11 PUSH1 0x4 MSTORE PUSH1 0x24 PUSH1 0x0 REVERT JUMPDEST DUP1 DUP3 MUL DUP2 ISZERO DUP3 DUP3 DIV DUP5 EQ OR PUSH2 0x7A0 JUMPI PUSH2 0x7A0 PUSH2 0x1CA4 JUMP JUMPDEST PUSH1 0x0 DUP3 PUSH2 0x1CEE JUMPI PUSH4 0x4E487B71 PUSH1 0xE0 SHL PUSH1 0x0 MSTORE PUSH1 0x12 PUSH1 0x4 MSTORE PUSH1 0x24 PUSH1 0x0 REVERT JUMPDEST POP DIV SWAP1 JUMP JUMPDEST DUP2 DUP2 SUB DUP2 DUP2 GT ISZERO PUSH2 0x7A0 JUMPI PUSH2 0x7A0 PUSH2 0x1CA4 JUMP JUMPDEST PUSH1 0xFF DUP3 DUP2 AND DUP3 DUP3 AND SUB SWAP1 DUP2 GT ISZERO PUSH2 0x7A0 JUMPI PUSH2 0x7A0 PUSH2 0x1CA4 JUMP JUMPDEST DUP1 MLOAD PUSH1 0x1 PUSH1 0x1 PUSH1 0x70 SHL SUB DUP2 AND DUP2 EQ PUSH2 0x1A4E JUMPI PUSH1 0x0 DUP1 REVERT JUMPDEST PUSH1 0x0 DUP1 PUSH1 0x0 PUSH1 0x60 DUP5 DUP7 SUB SLT ISZERO PUSH2 0x1D4B JUMPI PUSH1 0x0 DUP1 REVERT JUMPDEST PUSH2 0x1D54 DUP5 PUSH2 0x1D1F JUMP JUMPDEST SWAP3 POP PUSH2 0x1D62 PUSH1 0x20 DUP6 ADD PUSH2 0x1D1F JUMP JUMPDEST SWAP2 POP PUSH1 0x40 DUP5 ADD MLOAD PUSH4 0xFFFFFFFF DUP2 AND DUP2 EQ PUSH2 0x1D7B JUMPI PUSH1 0x0 DUP1 REVERT JUMPDEST DUP1 SWAP2 POP POP SWAP3 POP SWAP3 POP SWAP3 JUMP JUMPDEST PUSH1 0x0 DUP3 MLOAD PUSH1 0x0 JUMPDEST DUP2 DUP2 LT ISZERO PUSH2 0x1DA7 JUMPI PUSH1 0x20 DUP2 DUP7 ADD DUP2 ADD MLOAD DUP6 DUP4 ADD MSTORE ADD PUSH2 0x1D8D JUMP JUMPDEST POP PUSH1 0x0 SWAP3 ADD SWAP2 DUP3 MSTORE POP SWAP2 SWAP1 POP JUMP JUMPDEST PUSH1 0x0 PUSH1 0x20 DUP3 DUP5 SUB SLT ISZERO PUSH2 0x1DC7 JUMPI PUSH1 0x0 DUP1 REVERT JUMPDEST DUP2 MLOAD DUP1 ISZERO ISZERO DUP2 EQ PUSH2 0x1AD3 JUMPI PUSH1 0x0 DUP1 REVERT JUMPDEST DUP1 DUP3 ADD DUP1 DUP3 GT ISZERO PUSH2 0x7A0 JUMPI PUSH2 0x7A0 PUSH2 0x1CA4 JUMP INVALID LOG2 PUSH5 0x6970667358 0x22 SLT KECCAK256 0xBC PUSH29 0xC71A62DF1B5719B96C705F084B6970540FB072C069CD2A50BA8499A2EA SWAP11 PUSH5 0x736F6C6343 STOP ADDMOD SLT STOP CALLER "
				},
				"gasEstimates": {
					"creation": {
						"codeDepositCost": "1542400",
						"executionCost": "25845",
						"totalCost": "1568245"
					},
					"external": {
						"admin()": "2425",
						"bind(address)": "31262",
						"claim(address,uint256)": "infinite",
						"fixedPrice()": "2375",
						"fourPercent()": "2382",
						"getAmountOut()": "infinite",
						"getClaimRecordsInfo(address)": "infinite",
						"getTeamRewardInfo(address)": "infinite",
						"getUserInfo(address)": "11709",
						"implementation()": "2448",
						"initialInviter()": "2427",
						"initialize(address,address,address,address,address)": "infinite",
						"inviter(address)": "2602",
						"invitesNum(address)": "2619",
						"isVip(address)": "2642",
						"isVips(address)": "2599",
						"lookFor(address)": "infinite",
						"maxLooked()": "2359",
						"purchasingVip(address)": "infinite",
						"setAdmin(address)": "26756",
						"setMaxLooked(uint8)": "26730",
						"tenPercent()": "2382",
						"token()": "2447",
						"totalTeamReward(address)": "2597",
						"twentyPercent()": "2427",
						"uniswapV2Factory()": "2426",
						"updateFixed(uint256)": "24511",
						"updatePercentReceiver(address,address,address)": "infinite",
						"usdt()": "2383"
					},
					"internal": {
						"distribute(address,uint256)": "infinite",
						"findVip(address,uint8)": "infinite",
						"updateInviter(address,uint256)": "infinite"
					}
				},
				"methodIdentifiers": {
					"admin()": "f851a440",
					"bind(address)": "81bac14f",
					"claim(address,uint256)": "aad3ec96",
					"fixedPrice()": "1efba6c2",
					"fourPercent()": "9e0060aa",
					"getAmountOut()": "57b2351d",
					"getClaimRecordsInfo(address)": "30be0cd9",
					"getTeamRewardInfo(address)": "f48aa84f",
					"getUserInfo(address)": "6386c1c7",
					"implementation()": "5c60da1b",
					"initialInviter()": "4e377201",
					"initialize(address,address,address,address,address)": "1459457a",
					"inviter(address)": "ee8f0b7a",
					"invitesNum(address)": "b13140ed",
					"isVip(address)": "84203f4b",
					"isVips(address)": "4c3fbb66",
					"lookFor(address)": "35fc14d8",
					"maxLooked()": "46e6dfe7",
					"purchasingVip(address)": "7a8af562",
					"setAdmin(address)": "704b6c02",
					"setMaxLooked(uint8)": "32870577",
					"tenPercent()": "5636f6ba",
					"token()": "fc0c546a",
					"totalTeamReward(address)": "ac849501",
					"twentyPercent()": "6a7f7477",
					"uniswapV2Factory()": "59d0f713",
					"updateFixed(uint256)": "0667afe2",
					"updatePercentReceiver(address,address,address)": "60fe4483",
					"usdt()": "2f48ab7d"
				}
			},
			"storageLayout": {
				"storage": [
					{
						"astId": 3,
						"contract": "MembershipV1.sol:MemberShip",
						"label": "admin",
						"offset": 0,
						"slot": "0",
						"type": "t_address"
					},
					{
						"astId": 5,
						"contract": "MembershipV1.sol:MemberShip",
						"label": "implementation",
						"offset": 0,
						"slot": "1",
						"type": "t_address"
					},
					{
						"astId": 479,
						"contract": "MembershipV1.sol:MemberShip",
						"label": "teamRewards",
						"offset": 0,
						"slot": "2",
						"type": "t_mapping(t_address,t_array(t_struct(TeamReward)466_storage)dyn_storage)"
					},
					{
						"astId": 485,
						"contract": "MembershipV1.sol:MemberShip",
						"label": "claimRecords",
						"offset": 0,
						"slot": "3",
						"type": "t_mapping(t_address,t_array(t_struct(ClaimRecords)473_storage)dyn_storage)"
					},
					{
						"astId": 489,
						"contract": "MembershipV1.sol:MemberShip",
						"label": "isVip",
						"offset": 0,
						"slot": "4",
						"type": "t_mapping(t_address,t_bool)"
					},
					{
						"astId": 493,
						"contract": "MembershipV1.sol:MemberShip",
						"label": "isVips",
						"offset": 0,
						"slot": "5",
						"type": "t_mapping(t_address,t_bool)"
					},
					{
						"astId": 497,
						"contract": "MembershipV1.sol:MemberShip",
						"label": "inviter",
						"offset": 0,
						"slot": "6",
						"type": "t_mapping(t_address,t_address)"
					},
					{
						"astId": 501,
						"contract": "MembershipV1.sol:MemberShip",
						"label": "invitesNum",
						"offset": 0,
						"slot": "7",
						"type": "t_mapping(t_address,t_uint256)"
					},
					{
						"astId": 505,
						"contract": "MembershipV1.sol:MemberShip",
						"label": "totalTeamReward",
						"offset": 0,
						"slot": "8",
						"type": "t_mapping(t_address,t_uint256)"
					},
					{
						"astId": 507,
						"contract": "MembershipV1.sol:MemberShip",
						"label": "initialInviter",
						"offset": 0,
						"slot": "9",
						"type": "t_address"
					},
					{
						"astId": 509,
						"contract": "MembershipV1.sol:MemberShip",
						"label": "uniswapV2Factory",
						"offset": 0,
						"slot": "10",
						"type": "t_address"
					},
					{
						"astId": 511,
						"contract": "MembershipV1.sol:MemberShip",
						"label": "token",
						"offset": 0,
						"slot": "11",
						"type": "t_address"
					},
					{
						"astId": 513,
						"contract": "MembershipV1.sol:MemberShip",
						"label": "usdt",
						"offset": 0,
						"slot": "12",
						"type": "t_address"
					},
					{
						"astId": 515,
						"contract": "MembershipV1.sol:MemberShip",
						"label": "twentyPercent",
						"offset": 0,
						"slot": "13",
						"type": "t_address"
					},
					{
						"astId": 517,
						"contract": "MembershipV1.sol:MemberShip",
						"label": "tenPercent",
						"offset": 0,
						"slot": "14",
						"type": "t_address"
					},
					{
						"astId": 519,
						"contract": "MembershipV1.sol:MemberShip",
						"label": "fourPercent",
						"offset": 0,
						"slot": "15",
						"type": "t_address"
					},
					{
						"astId": 521,
						"contract": "MembershipV1.sol:MemberShip",
						"label": "fixedPrice",
						"offset": 0,
						"slot": "16",
						"type": "t_uint256"
					},
					{
						"astId": 523,
						"contract": "MembershipV1.sol:MemberShip",
						"label": "maxLooked",
						"offset": 0,
						"slot": "17",
						"type": "t_uint8"
					}
				],
				"types": {
					"t_address": {
						"encoding": "inplace",
						"label": "address",
						"numberOfBytes": "20"
					},
					"t_array(t_struct(ClaimRecords)473_storage)dyn_storage": {
						"base": "t_struct(ClaimRecords)473_storage",
						"encoding": "dynamic_array",
						"label": "struct MemberStorV1.ClaimRecords[]",
						"numberOfBytes": "32"
					},
					"t_array(t_struct(TeamReward)466_storage)dyn_storage": {
						"base": "t_struct(TeamReward)466_storage",
						"encoding": "dynamic_array",
						"label": "struct MemberStorV1.TeamReward[]",
						"numberOfBytes": "32"
					},
					"t_bool": {
						"encoding": "inplace",
						"label": "bool",
						"numberOfBytes": "1"
					},
					"t_enum(Express)456": {
						"encoding": "inplace",
						"label": "enum MemberStorV1.Express",
						"numberOfBytes": "1"
					},
					"t_mapping(t_address,t_address)": {
						"encoding": "mapping",
						"key": "t_address",
						"label": "mapping(address => address)",
						"numberOfBytes": "32",
						"value": "t_address"
					},
					"t_mapping(t_address,t_array(t_struct(ClaimRecords)473_storage)dyn_storage)": {
						"encoding": "mapping",
						"key": "t_address",
						"label": "mapping(address => struct MemberStorV1.ClaimRecords[])",
						"numberOfBytes": "32",
						"value": "t_array(t_struct(ClaimRecords)473_storage)dyn_storage"
					},
					"t_mapping(t_address,t_array(t_struct(TeamReward)466_storage)dyn_storage)": {
						"encoding": "mapping",
						"key": "t_address",
						"label": "mapping(address => struct MemberStorV1.TeamReward[])",
						"numberOfBytes": "32",
						"value": "t_array(t_struct(TeamReward)466_storage)dyn_storage"
					},
					"t_mapping(t_address,t_bool)": {
						"encoding": "mapping",
						"key": "t_address",
						"label": "mapping(address => bool)",
						"numberOfBytes": "32",
						"value": "t_bool"
					},
					"t_mapping(t_address,t_uint256)": {
						"encoding": "mapping",
						"key": "t_address",
						"label": "mapping(address => uint256)",
						"numberOfBytes": "32",
						"value": "t_uint256"
					},
					"t_struct(ClaimRecords)473_storage": {
						"encoding": "inplace",
						"label": "struct MemberStorV1.ClaimRecords",
						"members": [
							{
								"astId": 468,
								"contract": "MembershipV1.sol:MemberShip",
								"label": "receiver",
								"offset": 0,
								"slot": "0",
								"type": "t_address"
							},
							{
								"astId": 470,
								"contract": "MembershipV1.sol:MemberShip",
								"label": "amount",
								"offset": 0,
								"slot": "1",
								"type": "t_uint256"
							},
							{
								"astId": 472,
								"contract": "MembershipV1.sol:MemberShip",
								"label": "claimTime",
								"offset": 0,
								"slot": "2",
								"type": "t_uint256"
							}
						],
						"numberOfBytes": "96"
					},
					"t_struct(TeamReward)466_storage": {
						"encoding": "inplace",
						"label": "struct MemberStorV1.TeamReward",
						"members": [
							{
								"astId": 458,
								"contract": "MembershipV1.sol:MemberShip",
								"label": "partner",
								"offset": 0,
								"slot": "0",
								"type": "t_address"
							},
							{
								"astId": 460,
								"contract": "MembershipV1.sol:MemberShip",
								"label": "rewardValue",
								"offset": 0,
								"slot": "1",
								"type": "t_uint256"
							},
							{
								"astId": 462,
								"contract": "MembershipV1.sol:MemberShip",
								"label": "rewardTime",
								"offset": 0,
								"slot": "2",
								"type": "t_uint256"
							},
							{
								"astId": 465,
								"contract": "MembershipV1.sol:MemberShip",
								"label": "express",
								"offset": 0,
								"slot": "3",
								"type": "t_enum(Express)456"
							}
						],
						"numberOfBytes": "128"
					},
					"t_uint256": {
						"encoding": "inplace",
						"label": "uint256",
						"numberOfBytes": "32"
					},
					"t_uint8": {
						"encoding": "inplace",
						"label": "uint8",
						"numberOfBytes": "1"
					}
				}
			},
			"userdoc": {
				"kind": "user",
				"methods": {},
				"version": 1
			}
		}
	}
}