{
	"Membership.sol": {
		"MemberShip": {
			"abi": [
				{
					"inputs": [],
					"stateMutability": "nonpayable",
					"type": "constructor"
				},
				{
					"inputs": [],
					"name": "admin",
					"outputs": [
						{
							"internalType": "address",
							"name": "",
							"type": "address"
						}
					],
					"stateMutability": "view",
					"type": "function"
				},
				{
					"inputs": [
						{
							"internalType": "address",
							"name": "_inviter",
							"type": "address"
						}
					],
					"name": "bind",
					"outputs": [],
					"stateMutability": "nonpayable",
					"type": "function"
				},
				{
					"inputs": [
						{
							"internalType": "address",
							"name": "_user",
							"type": "address"
						},
						{
							"internalType": "uint256",
							"name": "_amount",
							"type": "uint256"
						}
					],
					"name": "claim",
					"outputs": [],
					"stateMutability": "nonpayable",
					"type": "function"
				},
				{
					"inputs": [
						{
							"internalType": "address",
							"name": "receiver",
							"type": "address"
						},
						{
							"internalType": "uint256",
							"name": "amount",
							"type": "uint256"
						}
					],
					"name": "emergency",
					"outputs": [],
					"stateMutability": "nonpayable",
					"type": "function"
				},
				{
					"inputs": [],
					"name": "fixedPrice",
					"outputs": [
						{
							"internalType": "uint256",
							"name": "",
							"type": "uint256"
						}
					],
					"stateMutability": "view",
					"type": "function"
				},
				{
					"inputs": [],
					"name": "fourPercent",
					"outputs": [
						{
							"internalType": "address",
							"name": "",
							"type": "address"
						}
					],
					"stateMutability": "view",
					"type": "function"
				},
				{
					"inputs": [],
					"name": "getAmountOut",
					"outputs": [
						{
							"internalType": "uint256",
							"name": "amountOut",
							"type": "uint256"
						}
					],
					"stateMutability": "view",
					"type": "function"
				},
				{
					"inputs": [
						{
							"internalType": "address",
							"name": "_user",
							"type": "address"
						}
					],
					"name": "getClaimRecordsInfo",
					"outputs": [
						{
							"components": [
								{
									"internalType": "address",
									"name": "receiver",
									"type": "address"
								},
								{
									"internalType": "uint256",
									"name": "amount",
									"type": "uint256"
								},
								{
									"internalType": "uint256",
									"name": "claimTime",
									"type": "uint256"
								}
							],
							"internalType": "struct MemberStorV1.ClaimRecords[]",
							"name": "",
							"type": "tuple[]"
						}
					],
					"stateMutability": "view",
					"type": "function"
				},
				{
					"inputs": [
						{
							"internalType": "address",
							"name": "_user",
							"type": "address"
						}
					],
					"name": "getTeamRewardInfo",
					"outputs": [
						{
							"components": [
								{
									"internalType": "address",
									"name": "partner",
									"type": "address"
								},
								{
									"internalType": "uint256",
									"name": "rewardValue",
									"type": "uint256"
								},
								{
									"internalType": "uint256",
									"name": "rewardTime",
									"type": "uint256"
								},
								{
									"internalType": "enum MemberStorV1.Express",
									"name": "express",
									"type": "uint8"
								}
							],
							"internalType": "struct MemberStorV1.TeamReward[]",
							"name": "",
							"type": "tuple[]"
						}
					],
					"stateMutability": "view",
					"type": "function"
				},
				{
					"inputs": [
						{
							"internalType": "address",
							"name": "_user",
							"type": "address"
						}
					],
					"name": "getUserInfo",
					"outputs": [
						{
							"components": [
								{
									"internalType": "bool",
									"name": "isVip",
									"type": "bool"
								},
								{
									"internalType": "bool",
									"name": "isVips",
									"type": "bool"
								},
								{
									"internalType": "address",
									"name": "inviter",
									"type": "address"
								},
								{
									"internalType": "address",
									"name": "additionalInviter",
									"type": "address"
								},
								{
									"internalType": "uint256",
									"name": "invitesNum",
									"type": "uint256"
								},
								{
									"internalType": "uint256",
									"name": "totalTeamReward",
									"type": "uint256"
								},
								{
									"internalType": "address[]",
									"name": "members",
									"type": "address[]"
								}
							],
							"internalType": "struct MemberStorV1.User",
							"name": "",
							"type": "tuple"
						}
					],
					"stateMutability": "view",
					"type": "function"
				},
				{
					"inputs": [],
					"name": "implementation",
					"outputs": [
						{
							"internalType": "address",
							"name": "",
							"type": "address"
						}
					],
					"stateMutability": "view",
					"type": "function"
				},
				{
					"inputs": [],
					"name": "initialInviter",
					"outputs": [
						{
							"internalType": "address",
							"name": "",
							"type": "address"
						}
					],
					"stateMutability": "view",
					"type": "function"
				},
				{
					"inputs": [
						{
							"internalType": "address",
							"name": "_token",
							"type": "address"
						},
						{
							"internalType": "address",
							"name": "_initialInviter",
							"type": "address"
						},
						{
							"internalType": "address",
							"name": "_fourPercent",
							"type": "address"
						},
						{
							"internalType": "address",
							"name": "_tenPercent",
							"type": "address"
						},
						{
							"internalType": "address",
							"name": "_twentyPercent",
							"type": "address"
						}
					],
					"name": "initialize",
					"outputs": [],
					"stateMutability": "nonpayable",
					"type": "function"
				},
				{
					"inputs": [],
					"name": "maxLooked",
					"outputs": [
						{
							"internalType": "uint8",
							"name": "",
							"type": "uint8"
						}
					],
					"stateMutability": "view",
					"type": "function"
				},
				{
					"inputs": [
						{
							"internalType": "address",
							"name": "_user",
							"type": "address"
						}
					],
					"name": "purchasingVip",
					"outputs": [],
					"stateMutability": "nonpayable",
					"type": "function"
				},
				{
					"inputs": [
						{
							"internalType": "address",
							"name": "_admin",
							"type": "address"
						}
					],
					"name": "setAdmin",
					"outputs": [],
					"stateMutability": "nonpayable",
					"type": "function"
				},
				{
					"inputs": [
						{
							"internalType": "uint8",
							"name": "_looked",
							"type": "uint8"
						}
					],
					"name": "setMaxLooked",
					"outputs": [],
					"stateMutability": "nonpayable",
					"type": "function"
				},
				{
					"inputs": [],
					"name": "tenPercent",
					"outputs": [
						{
							"internalType": "address",
							"name": "",
							"type": "address"
						}
					],
					"stateMutability": "view",
					"type": "function"
				},
				{
					"inputs": [],
					"name": "token",
					"outputs": [
						{
							"internalType": "address",
							"name": "",
							"type": "address"
						}
					],
					"stateMutability": "view",
					"type": "function"
				},
				{
					"inputs": [],
					"name": "twentyPercent",
					"outputs": [
						{
							"internalType": "address",
							"name": "",
							"type": "address"
						}
					],
					"stateMutability": "view",
					"type": "function"
				},
				{
					"inputs": [],
					"name": "uniswapV2Factory",
					"outputs": [
						{
							"internalType": "address",
							"name": "",
							"type": "address"
						}
					],
					"stateMutability": "view",
					"type": "function"
				},
				{
					"inputs": [
						{
							"internalType": "uint256",
							"name": "_fixed",
							"type": "uint256"
						}
					],
					"name": "updateFixed",
					"outputs": [],
					"stateMutability": "nonpayable",
					"type": "function"
				},
				{
					"inputs": [
						{
							"internalType": "address",
							"name": "_twentyPercent",
							"type": "address"
						},
						{
							"internalType": "address",
							"name": "_tenPercent",
							"type": "address"
						},
						{
							"internalType": "address",
							"name": "_fourPercent",
							"type": "address"
						}
					],
					"name": "updatePercentReceiver",
					"outputs": [],
					"stateMutability": "nonpayable",
					"type": "function"
				},
				{
					"inputs": [],
					"name": "usdt",
					"outputs": [
						{
							"internalType": "address",
							"name": "",
							"type": "address"
						}
					],
					"stateMutability": "view",
					"type": "function"
				},
				{
					"inputs": [
						{
							"internalType": "address",
							"name": "",
							"type": "address"
						}
					],
					"name": "userInfo",
					"outputs": [
						{
							"internalType": "bool",
							"name": "isVip",
							"type": "bool"
						},
						{
							"internalType": "bool",
							"name": "isVips",
							"type": "bool"
						},
						{
							"internalType": "address",
							"name": "inviter",
							"type": "address"
						},
						{
							"internalType": "address",
							"name": "additionalInviter",
							"type": "address"
						},
						{
							"internalType": "uint256",
							"name": "invitesNum",
							"type": "uint256"
						},
						{
							"internalType": "uint256",
							"name": "totalTeamReward",
							"type": "uint256"
						}
					],
					"stateMutability": "view",
					"type": "function"
				}
			],
			"devdoc": {
				"kind": "dev",
				"methods": {},
				"version": 1
			},
			"evm": {
				"assembly": "    /* \"Membership.sol\":5327:12159  contract MemberShip is MemberStorV1{... */\n  mstore(0x40, 0x80)\n    /* \"Membership.sol\":5368:5416  constructor(){... */\n  callvalue\n  dup1\n  iszero\n  tag_1\n  jumpi\n  0x00\n  dup1\n  revert\ntag_1:\n  pop\n    /* \"Membership.sol\":5399:5409  msg.sender */\n  caller\n    /* \"Membership.sol\":5391:5396  admin */\n  0x00\n  dup1\n    /* \"Membership.sol\":5391:5409  admin = msg.sender */\n  0x0100\n  exp\n  dup2\n  sload\n  dup2\n  0xffffffffffffffffffffffffffffffffffffffff\n  mul\n  not\n  and\n  swap1\n  dup4\n  0xffffffffffffffffffffffffffffffffffffffff\n  and\n  mul\n  or\n  swap1\n  sstore\n  pop\n    /* \"Membership.sol\":5327:12159  contract MemberShip is MemberStorV1{... */\n  dataSize(sub_0)\n  dup1\n  dataOffset(sub_0)\n  0x00\n  codecopy\n  0x00\n  return\nstop\n\nsub_0: assembly {\n        /* \"Membership.sol\":5327:12159  contract MemberShip is MemberStorV1{... */\n      mstore(0x40, 0x80)\n      callvalue\n      dup1\n      iszero\n      tag_1\n      jumpi\n      0x00\n      dup1\n      revert\n    tag_1:\n      pop\n      jumpi(tag_2, lt(calldatasize, 0x04))\n      shr(0xe0, calldataload(0x00))\n      dup1\n      0x59d0f713\n      gt\n      tag_28\n      jumpi\n      dup1\n      0x7a8af562\n      gt\n      tag_29\n      jumpi\n      dup1\n      0xaad3ec96\n      gt\n      tag_30\n      jumpi\n      dup1\n      0xaad3ec96\n      eq\n      tag_24\n      jumpi\n      dup1\n      0xf48aa84f\n      eq\n      tag_25\n      jumpi\n      dup1\n      0xf851a440\n      eq\n      tag_26\n      jumpi\n      dup1\n      0xfc0c546a\n      eq\n      tag_27\n      jumpi\n      jump(tag_2)\n    tag_30:\n      dup1\n      0x7a8af562\n      eq\n      tag_21\n      jumpi\n      dup1\n      0x81bac14f\n      eq\n      tag_22\n      jumpi\n      dup1\n      0x9e0060aa\n      eq\n      tag_23\n      jumpi\n      jump(tag_2)\n    tag_29:\n      dup1\n      0x59d0f713\n      eq\n      tag_15\n      jumpi\n      dup1\n      0x5c60da1b\n      eq\n      tag_16\n      jumpi\n      dup1\n      0x60fe4483\n      eq\n      tag_17\n      jumpi\n      dup1\n      0x6386c1c7\n      eq\n      tag_18\n      jumpi\n      dup1\n      0x6a7f7477\n      eq\n      tag_19\n      jumpi\n      dup1\n      0x704b6c02\n      eq\n      tag_20\n      jumpi\n      jump(tag_2)\n    tag_28:\n      dup1\n      0x32870577\n      gt\n      tag_31\n      jumpi\n      dup1\n      0x32870577\n      eq\n      tag_9\n      jumpi\n      dup1\n      0x3ec9ef2e\n      eq\n      tag_10\n      jumpi\n      dup1\n      0x46e6dfe7\n      eq\n      tag_11\n      jumpi\n      dup1\n      0x4e377201\n      eq\n      tag_12\n      jumpi\n      dup1\n      0x5636f6ba\n      eq\n      tag_13\n      jumpi\n      dup1\n      0x57b2351d\n      eq\n      tag_14\n      jumpi\n      jump(tag_2)\n    tag_31:\n      dup1\n      0x0667afe2\n      eq\n      tag_3\n      jumpi\n      dup1\n      0x1459457a\n      eq\n      tag_4\n      jumpi\n      dup1\n      0x1959a002\n      eq\n      tag_5\n      jumpi\n      dup1\n      0x1efba6c2\n      eq\n      tag_6\n      jumpi\n      dup1\n      0x2f48ab7d\n      eq\n      tag_7\n      jumpi\n      dup1\n      0x30be0cd9\n      eq\n      tag_8\n      jumpi\n    tag_2:\n      0x00\n      dup1\n      revert\n        /* \"Membership.sol\":11877:11968  function updateFixed(uint256 _fixed) external onlyOwner{... */\n    tag_3:\n      tag_32\n      0x04\n      dup1\n      calldatasize\n      sub\n      dup2\n      add\n      swap1\n      tag_33\n      swap2\n      swap1\n      tag_34\n      jump\t// in\n    tag_33:\n      tag_35\n      jump\t// in\n    tag_32:\n      stop\n        /* \"Membership.sol\":5541:6072  function initialize(... */\n    tag_4:\n      tag_36\n      0x04\n      dup1\n      calldatasize\n      sub\n      dup2\n      add\n      swap1\n      tag_37\n      swap2\n      swap1\n      tag_38\n      jump\t// in\n    tag_37:\n      tag_39\n      jump\t// in\n    tag_36:\n      stop\n        /* \"Membership.sol\":4843:4883  mapping(address => User) public userInfo */\n    tag_5:\n      tag_40\n      0x04\n      dup1\n      calldatasize\n      sub\n      dup2\n      add\n      swap1\n      tag_41\n      swap2\n      swap1\n      tag_42\n      jump\t// in\n    tag_41:\n      tag_43\n      jump\t// in\n    tag_40:\n      mload(0x40)\n      tag_44\n      swap7\n      swap6\n      swap5\n      swap4\n      swap3\n      swap2\n      swap1\n      tag_45\n      jump\t// in\n    tag_44:\n      mload(0x40)\n      dup1\n      swap2\n      sub\n      swap1\n      return\n        /* \"Membership.sol\":5262:5289  uint256   public fixedPrice */\n    tag_6:\n      tag_46\n      tag_47\n      jump\t// in\n    tag_46:\n      mload(0x40)\n      tag_48\n      swap2\n      swap1\n      tag_49\n      jump\t// in\n    tag_48:\n      mload(0x40)\n      dup1\n      swap2\n      sub\n      swap1\n      return\n        /* \"Membership.sol\":5132:5153  address   public usdt */\n    tag_7:\n      tag_50\n      tag_51\n      jump\t// in\n    tag_50:\n      mload(0x40)\n      tag_52\n      swap2\n      swap1\n      tag_53\n      jump\t// in\n    tag_52:\n      mload(0x40)\n      dup1\n      swap2\n      sub\n      swap1\n      return\n        /* \"Membership.sol\":11356:11487  function getClaimRecordsInfo(address _user) external view returns(ClaimRecords[] memory){... */\n    tag_8:\n      tag_54\n      0x04\n      dup1\n      calldatasize\n      sub\n      dup2\n      add\n      swap1\n      tag_55\n      swap2\n      swap1\n      tag_42\n      jump\t// in\n    tag_55:\n      tag_56\n      jump\t// in\n    tag_54:\n      mload(0x40)\n      tag_57\n      swap2\n      swap1\n      tag_58\n      jump\t// in\n    tag_57:\n      mload(0x40)\n      dup1\n      swap2\n      sub\n      swap1\n      return\n        /* \"Membership.sol\":11974:12065  function setMaxLooked(uint8 _looked) external onlyOwner{... */\n    tag_9:\n      tag_59\n      0x04\n      dup1\n      calldatasize\n      sub\n      dup2\n      add\n      swap1\n      tag_60\n      swap2\n      swap1\n      tag_61\n      jump\t// in\n    tag_60:\n      tag_62\n      jump\t// in\n    tag_59:\n      stop\n        /* \"Membership.sol\":11730:11871  function emergency(address receiver,uint256 amount) external onlyOwner(){... */\n    tag_10:\n      tag_63\n      0x04\n      dup1\n      calldatasize\n      sub\n      dup2\n      add\n      swap1\n      tag_64\n      swap2\n      swap1\n      tag_65\n      jump\t// in\n    tag_64:\n      tag_66\n      jump\t// in\n    tag_63:\n      stop\n        /* \"Membership.sol\":5295:5321  uint8     public maxLooked */\n    tag_11:\n      tag_67\n      tag_68\n      jump\t// in\n    tag_67:\n      mload(0x40)\n      tag_69\n      swap2\n      swap1\n      tag_70\n      jump\t// in\n    tag_69:\n      mload(0x40)\n      dup1\n      swap2\n      sub\n      swap1\n      return\n        /* \"Membership.sol\":5028:5059  address   public initialInviter */\n    tag_12:\n      tag_71\n      tag_72\n      jump\t// in\n    tag_71:\n      mload(0x40)\n      tag_73\n      swap2\n      swap1\n      tag_53\n      jump\t// in\n    tag_73:\n      mload(0x40)\n      dup1\n      swap2\n      sub\n      swap1\n      return\n        /* \"Membership.sol\":5195:5222  address   public tenPercent */\n    tag_13:\n      tag_74\n      tag_75\n      jump\t// in\n    tag_74:\n      mload(0x40)\n      tag_76\n      swap2\n      swap1\n      tag_53\n      jump\t// in\n    tag_76:\n      mload(0x40)\n      dup1\n      swap2\n      sub\n      swap1\n      return\n        /* \"Membership.sol\":6591:6851  function getAmountOut() public view returns(uint256 amountOut){... */\n    tag_14:\n      tag_77\n      tag_78\n      jump\t// in\n    tag_77:\n      mload(0x40)\n      tag_79\n      swap2\n      swap1\n      tag_49\n      jump\t// in\n    tag_79:\n      mload(0x40)\n      dup1\n      swap2\n      sub\n      swap1\n      return\n        /* \"Membership.sol\":5065:5098  address   public uniswapV2Factory */\n    tag_15:\n      tag_80\n      tag_81\n      jump\t// in\n    tag_80:\n      mload(0x40)\n      tag_82\n      swap2\n      swap1\n      tag_53\n      jump\t// in\n    tag_82:\n      mload(0x40)\n      dup1\n      swap2\n      sub\n      swap1\n      return\n        /* \"Membership.sol\":113:142  address public implementation */\n    tag_16:\n      tag_83\n      tag_84\n      jump\t// in\n    tag_83:\n      mload(0x40)\n      tag_85\n      swap2\n      swap1\n      tag_53\n      jump\t// in\n    tag_85:\n      mload(0x40)\n      dup1\n      swap2\n      sub\n      swap1\n      return\n        /* \"Membership.sol\":11493:11724  function updatePercentReceiver(address _twentyPercent,address _tenPercent,address _fourPercent) external onlyOwner{... */\n    tag_17:\n      tag_86\n      0x04\n      dup1\n      calldatasize\n      sub\n      dup2\n      add\n      swap1\n      tag_87\n      swap2\n      swap1\n      tag_88\n      jump\t// in\n    tag_87:\n      tag_89\n      jump\t// in\n    tag_86:\n      stop\n        /* \"Membership.sol\":11108:11217  function getUserInfo(address _user) external view returns(User memory){... */\n    tag_18:\n      tag_90\n      0x04\n      dup1\n      calldatasize\n      sub\n      dup2\n      add\n      swap1\n      tag_91\n      swap2\n      swap1\n      tag_42\n      jump\t// in\n    tag_91:\n      tag_92\n      jump\t// in\n    tag_90:\n      mload(0x40)\n      tag_93\n      swap2\n      swap1\n      tag_94\n      jump\t// in\n    tag_93:\n      mload(0x40)\n      dup1\n      swap2\n      sub\n      swap1\n      return\n        /* \"Membership.sol\":5159:5189  address   public twentyPercent */\n    tag_19:\n      tag_95\n      tag_96\n      jump\t// in\n    tag_95:\n      mload(0x40)\n      tag_97\n      swap2\n      swap1\n      tag_53\n      jump\t// in\n    tag_97:\n      mload(0x40)\n      dup1\n      swap2\n      sub\n      swap1\n      return\n        /* \"Membership.sol\":12071:12155  function setAdmin(address _admin) external  onlyOwner{... */\n    tag_20:\n      tag_98\n      0x04\n      dup1\n      calldatasize\n      sub\n      dup2\n      add\n      swap1\n      tag_99\n      swap2\n      swap1\n      tag_42\n      jump\t// in\n    tag_99:\n      tag_100\n      jump\t// in\n    tag_98:\n      stop\n        /* \"Membership.sol\":6857:7853  function purchasingVip(address _user) public{... */\n    tag_21:\n      tag_101\n      0x04\n      dup1\n      calldatasize\n      sub\n      dup2\n      add\n      swap1\n      tag_102\n      swap2\n      swap1\n      tag_42\n      jump\t// in\n    tag_102:\n      tag_103\n      jump\t// in\n    tag_101:\n      stop\n        /* \"Membership.sol\":6078:6584  function bind(address _inviter) external{... */\n    tag_22:\n      tag_104\n      0x04\n      dup1\n      calldatasize\n      sub\n      dup2\n      add\n      swap1\n      tag_105\n      swap2\n      swap1\n      tag_42\n      jump\t// in\n    tag_105:\n      tag_106\n      jump\t// in\n    tag_104:\n      stop\n        /* \"Membership.sol\":5228:5256  address   public fourPercent */\n    tag_23:\n      tag_107\n      tag_108\n      jump\t// in\n    tag_107:\n      mload(0x40)\n      tag_109\n      swap2\n      swap1\n      tag_53\n      jump\t// in\n    tag_109:\n      mload(0x40)\n      dup1\n      swap2\n      sub\n      swap1\n      return\n        /* \"Membership.sol\":10755:11102  function claim(address _user,uint256 _amount) external{... */\n    tag_24:\n      tag_110\n      0x04\n      dup1\n      calldatasize\n      sub\n      dup2\n      add\n      swap1\n      tag_111\n      swap2\n      swap1\n      tag_65\n      jump\t// in\n    tag_111:\n      tag_112\n      jump\t// in\n    tag_110:\n      stop\n        /* \"Membership.sol\":11223:11350  function getTeamRewardInfo(address _user) external view returns (TeamReward[] memory){... */\n    tag_25:\n      tag_113\n      0x04\n      dup1\n      calldatasize\n      sub\n      dup2\n      add\n      swap1\n      tag_114\n      swap2\n      swap1\n      tag_42\n      jump\t// in\n    tag_114:\n      tag_115\n      jump\t// in\n    tag_113:\n      mload(0x40)\n      tag_116\n      swap2\n      swap1\n      tag_117\n      jump\t// in\n    tag_116:\n      mload(0x40)\n      dup1\n      swap2\n      sub\n      swap1\n      return\n        /* \"Membership.sol\":87:107  address public admin */\n    tag_26:\n      tag_118\n      tag_119\n      jump\t// in\n    tag_118:\n      mload(0x40)\n      tag_120\n      swap2\n      swap1\n      tag_53\n      jump\t// in\n    tag_120:\n      mload(0x40)\n      dup1\n      swap2\n      sub\n      swap1\n      return\n        /* \"Membership.sol\":5104:5126  address   public token */\n    tag_27:\n      tag_121\n      tag_122\n      jump\t// in\n    tag_121:\n      mload(0x40)\n      tag_123\n      swap2\n      swap1\n      tag_53\n      jump\t// in\n    tag_123:\n      mload(0x40)\n      dup1\n      swap2\n      sub\n      swap1\n      return\n        /* \"Membership.sol\":11877:11968  function updateFixed(uint256 _fixed) external onlyOwner{... */\n    tag_35:\n        /* \"Membership.sol\":5469:5479  msg.sender */\n      caller\n        /* \"Membership.sol\":5460:5479  admin == msg.sender */\n      0xffffffffffffffffffffffffffffffffffffffff\n      and\n        /* \"Membership.sol\":5460:5465  admin */\n      0x00\n      dup1\n      sload\n      swap1\n      0x0100\n      exp\n      swap1\n      div\n      0xffffffffffffffffffffffffffffffffffffffff\n      and\n        /* \"Membership.sol\":5460:5479  admin == msg.sender */\n      0xffffffffffffffffffffffffffffffffffffffff\n      and\n      eq\n        /* \"Membership.sol\":5452:5513  require(admin == msg.sender,\"Membership:Caller is not owner\") */\n      tag_125\n      jumpi\n      mload(0x40)\n      0x08c379a000000000000000000000000000000000000000000000000000000000\n      dup2\n      mstore\n      0x04\n      add\n      tag_126\n      swap1\n      tag_127\n      jump\t// in\n    tag_126:\n      mload(0x40)\n      dup1\n      swap2\n      sub\n      swap1\n      revert\n    tag_125:\n        /* \"Membership.sol\":11955:11961  _fixed */\n      dup1\n        /* \"Membership.sol\":11942:11952  fixedPrice */\n      0x0c\n        /* \"Membership.sol\":11942:11961  fixedPrice = _fixed */\n      dup2\n      swap1\n      sstore\n      pop\n        /* \"Membership.sol\":11877:11968  function updateFixed(uint256 _fixed) external onlyOwner{... */\n      pop\n      jump\t// out\n        /* \"Membership.sol\":5541:6072  function initialize(... */\n    tag_39:\n        /* \"Membership.sol\":5469:5479  msg.sender */\n      caller\n        /* \"Membership.sol\":5460:5479  admin == msg.sender */\n      0xffffffffffffffffffffffffffffffffffffffff\n      and\n        /* \"Membership.sol\":5460:5465  admin */\n      0x00\n      dup1\n      sload\n      swap1\n      0x0100\n      exp\n      swap1\n      div\n      0xffffffffffffffffffffffffffffffffffffffff\n      and\n        /* \"Membership.sol\":5460:5479  admin == msg.sender */\n      0xffffffffffffffffffffffffffffffffffffffff\n      and\n      eq\n        /* \"Membership.sol\":5452:5513  require(admin == msg.sender,\"Membership:Caller is not owner\") */\n      tag_130\n      jumpi\n      mload(0x40)\n      0x08c379a000000000000000000000000000000000000000000000000000000000\n      dup2\n      mstore\n      0x04\n      add\n      tag_131\n      swap1\n      tag_127\n      jump\t// in\n    tag_131:\n      mload(0x40)\n      dup1\n      swap2\n      sub\n      swap1\n      revert\n    tag_130:\n        /* \"Membership.sol\":5733:5748  _initialInviter */\n      dup4\n        /* \"Membership.sol\":5716:5730  initialInviter */\n      0x05\n      0x00\n        /* \"Membership.sol\":5716:5748  initialInviter = _initialInviter */\n      0x0100\n      exp\n      dup2\n      sload\n      dup2\n      0xffffffffffffffffffffffffffffffffffffffff\n      mul\n      not\n      and\n      swap1\n      dup4\n      0xffffffffffffffffffffffffffffffffffffffff\n      and\n      mul\n      or\n      swap1\n      sstore\n      pop\n        /* \"Membership.sol\":5777:5819  0xcA143Ce32Fe78f1f7019d7d551a6402fC5350c73 */\n      0xca143ce32fe78f1f7019d7d551a6402fc5350c73\n        /* \"Membership.sol\":5758:5774  uniswapV2Factory */\n      0x06\n      0x00\n        /* \"Membership.sol\":5758:5819  uniswapV2Factory = 0xcA143Ce32Fe78f1f7019d7d551a6402fC5350c73 */\n      0x0100\n      exp\n      dup2\n      sload\n      dup2\n      0xffffffffffffffffffffffffffffffffffffffff\n      mul\n      not\n      and\n      swap1\n      dup4\n      0xffffffffffffffffffffffffffffffffffffffff\n      and\n      mul\n      or\n      swap1\n      sstore\n      pop\n        /* \"Membership.sol\":5837:5843  _token */\n      dup5\n        /* \"Membership.sol\":5829:5834  token */\n      0x07\n      0x00\n        /* \"Membership.sol\":5829:5843  token = _token */\n      0x0100\n      exp\n      dup2\n      sload\n      dup2\n      0xffffffffffffffffffffffffffffffffffffffff\n      mul\n      not\n      and\n      swap1\n      dup4\n      0xffffffffffffffffffffffffffffffffffffffff\n      and\n      mul\n      or\n      swap1\n      sstore\n      pop\n        /* \"Membership.sol\":5860:5902  0x55d398326f99059fF775485246999027B3197955 */\n      0x55d398326f99059ff775485246999027b3197955\n        /* \"Membership.sol\":5853:5857  usdt */\n      0x08\n      0x00\n        /* \"Membership.sol\":5853:5902  usdt = 0x55d398326f99059fF775485246999027B3197955 */\n      0x0100\n      exp\n      dup2\n      sload\n      dup2\n      0xffffffffffffffffffffffffffffffffffffffff\n      mul\n      not\n      and\n      swap1\n      dup4\n      0xffffffffffffffffffffffffffffffffffffffff\n      and\n      mul\n      or\n      swap1\n      sstore\n      pop\n        /* \"Membership.sol\":5925:5936  _tenPercent */\n      dup2\n        /* \"Membership.sol\":5912:5922  tenPercent */\n      0x0a\n      0x00\n        /* \"Membership.sol\":5912:5936  tenPercent = _tenPercent */\n      0x0100\n      exp\n      dup2\n      sload\n      dup2\n      0xffffffffffffffffffffffffffffffffffffffff\n      mul\n      not\n      and\n      swap1\n      dup4\n      0xffffffffffffffffffffffffffffffffffffffff\n      and\n      mul\n      or\n      swap1\n      sstore\n      pop\n        /* \"Membership.sol\":5960:5972  _fourPercent */\n      dup3\n        /* \"Membership.sol\":5946:5957  fourPercent */\n      0x0b\n      0x00\n        /* \"Membership.sol\":5946:5972  fourPercent = _fourPercent */\n      0x0100\n      exp\n      dup2\n      sload\n      dup2\n      0xffffffffffffffffffffffffffffffffffffffff\n      mul\n      not\n      and\n      swap1\n      dup4\n      0xffffffffffffffffffffffffffffffffffffffff\n      and\n      mul\n      or\n      swap1\n      sstore\n      pop\n        /* \"Membership.sol\":5998:6012  _twentyPercent */\n      dup1\n        /* \"Membership.sol\":5982:5995  twentyPercent */\n      0x09\n      0x00\n        /* \"Membership.sol\":5982:6012  twentyPercent = _twentyPercent */\n      0x0100\n      exp\n      dup2\n      sload\n      dup2\n      0xffffffffffffffffffffffffffffffffffffffff\n      mul\n      not\n      and\n      swap1\n      dup4\n      0xffffffffffffffffffffffffffffffffffffffff\n      and\n      mul\n      or\n      swap1\n      sstore\n      pop\n        /* \"Membership.sol\":6035:6041  500e18 */\n      0x1b1ae4d6e2ef500000\n        /* \"Membership.sol\":6022:6032  fixedPrice */\n      0x0c\n        /* \"Membership.sol\":6022:6041  fixedPrice = 500e18 */\n      dup2\n      swap1\n      sstore\n      pop\n        /* \"Membership.sol\":6063:6065  30 */\n      0x1e\n        /* \"Membership.sol\":6051:6060  maxLooked */\n      0x0d\n      0x00\n        /* \"Membership.sol\":6051:6065  maxLooked = 30 */\n      0x0100\n      exp\n      dup2\n      sload\n      dup2\n      0xff\n      mul\n      not\n      and\n      swap1\n      dup4\n      0xff\n      and\n      mul\n      or\n      swap1\n      sstore\n      pop\n        /* \"Membership.sol\":5541:6072  function initialize(... */\n      pop\n      pop\n      pop\n      pop\n      pop\n      jump\t// out\n        /* \"Membership.sol\":4843:4883  mapping(address => User) public userInfo */\n    tag_43:\n      mstore(0x20, 0x02)\n      dup1\n      0x00\n      mstore\n      keccak256(0x00, 0x40)\n      0x00\n      swap2\n      pop\n      swap1\n      pop\n      dup1\n      0x00\n      add\n      0x00\n      swap1\n      sload\n      swap1\n      0x0100\n      exp\n      swap1\n      div\n      0xff\n      and\n      swap1\n      dup1\n      0x00\n      add\n      0x01\n      swap1\n      sload\n      swap1\n      0x0100\n      exp\n      swap1\n      div\n      0xff\n      and\n      swap1\n      dup1\n      0x00\n      add\n      0x02\n      swap1\n      sload\n      swap1\n      0x0100\n      exp\n      swap1\n      div\n      0xffffffffffffffffffffffffffffffffffffffff\n      and\n      swap1\n      dup1\n      0x01\n      add\n      0x00\n      swap1\n      sload\n      swap1\n      0x0100\n      exp\n      swap1\n      div\n      0xffffffffffffffffffffffffffffffffffffffff\n      and\n      swap1\n      dup1\n      0x02\n      add\n      sload\n      swap1\n      dup1\n      0x03\n      add\n      sload\n      swap1\n      pop\n      dup7\n      jump\t// out\n        /* \"Membership.sol\":5262:5289  uint256   public fixedPrice */\n    tag_47:\n      sload(0x0c)\n      dup2\n      jump\t// out\n        /* \"Membership.sol\":5132:5153  address   public usdt */\n    tag_51:\n      0x08\n      0x00\n      swap1\n      sload\n      swap1\n      0x0100\n      exp\n      swap1\n      div\n      0xffffffffffffffffffffffffffffffffffffffff\n      and\n      dup2\n      jump\t// out\n        /* \"Membership.sol\":11356:11487  function getClaimRecordsInfo(address _user) external view returns(ClaimRecords[] memory){... */\n    tag_56:\n        /* \"Membership.sol\":11422:11443  ClaimRecords[] memory */\n      0x60\n        /* \"Membership.sol\":11461:11473  claimRecords */\n      0x04\n        /* \"Membership.sol\":11461:11480  claimRecords[_user] */\n      0x00\n        /* \"Membership.sol\":11474:11479  _user */\n      dup4\n        /* \"Membership.sol\":11461:11480  claimRecords[_user] */\n      0xffffffffffffffffffffffffffffffffffffffff\n      and\n      0xffffffffffffffffffffffffffffffffffffffff\n      and\n      dup2\n      mstore\n      0x20\n      add\n      swap1\n      dup2\n      mstore\n      0x20\n      add\n      0x00\n      keccak256\n        /* \"Membership.sol\":11454:11480  return claimRecords[_user] */\n      dup1\n      sload\n      dup1\n      0x20\n      mul\n      0x20\n      add\n      mload(0x40)\n      swap1\n      dup2\n      add\n      0x40\n      mstore\n      dup1\n      swap3\n      swap2\n      swap1\n      dup2\n      dup2\n      mstore\n      0x20\n      add\n      0x00\n      swap1\n    tag_134:\n      dup3\n      dup3\n      lt\n      iszero\n      tag_135\n      jumpi\n      dup4\n      dup3\n      swap1\n      0x00\n      mstore\n      keccak256(0x00, 0x20)\n      swap1\n      0x03\n      mul\n      add\n      mload(0x40)\n      dup1\n      0x60\n      add\n      0x40\n      mstore\n      swap1\n      dup2\n      0x00\n      dup3\n      add\n      0x00\n      swap1\n      sload\n      swap1\n      0x0100\n      exp\n      swap1\n      div\n      0xffffffffffffffffffffffffffffffffffffffff\n      and\n      0xffffffffffffffffffffffffffffffffffffffff\n      and\n      0xffffffffffffffffffffffffffffffffffffffff\n      and\n      dup2\n      mstore\n      0x20\n      add\n      0x01\n      dup3\n      add\n      sload\n      dup2\n      mstore\n      0x20\n      add\n      0x02\n      dup3\n      add\n      sload\n      dup2\n      mstore\n      pop\n      pop\n      dup2\n      mstore\n      0x20\n      add\n      swap1\n      0x01\n      add\n      swap1\n      jump(tag_134)\n    tag_135:\n      pop\n      pop\n      pop\n      pop\n      swap1\n      pop\n        /* \"Membership.sol\":11356:11487  function getClaimRecordsInfo(address _user) external view returns(ClaimRecords[] memory){... */\n      swap2\n      swap1\n      pop\n      jump\t// out\n        /* \"Membership.sol\":11974:12065  function setMaxLooked(uint8 _looked) external onlyOwner{... */\n    tag_62:\n        /* \"Membership.sol\":5469:5479  msg.sender */\n      caller\n        /* \"Membership.sol\":5460:5479  admin == msg.sender */\n      0xffffffffffffffffffffffffffffffffffffffff\n      and\n        /* \"Membership.sol\":5460:5465  admin */\n      0x00\n      dup1\n      sload\n      swap1\n      0x0100\n      exp\n      swap1\n      div\n      0xffffffffffffffffffffffffffffffffffffffff\n      and\n        /* \"Membership.sol\":5460:5479  admin == msg.sender */\n      0xffffffffffffffffffffffffffffffffffffffff\n      and\n      eq\n        /* \"Membership.sol\":5452:5513  require(admin == msg.sender,\"Membership:Caller is not owner\") */\n      tag_138\n      jumpi\n      mload(0x40)\n      0x08c379a000000000000000000000000000000000000000000000000000000000\n      dup2\n      mstore\n      0x04\n      add\n      tag_139\n      swap1\n      tag_127\n      jump\t// in\n    tag_139:\n      mload(0x40)\n      dup1\n      swap2\n      sub\n      swap1\n      revert\n    tag_138:\n        /* \"Membership.sol\":12051:12058  _looked */\n      dup1\n        /* \"Membership.sol\":12039:12048  maxLooked */\n      0x0d\n      0x00\n        /* \"Membership.sol\":12039:12058  maxLooked = _looked */\n      0x0100\n      exp\n      dup2\n      sload\n      dup2\n      0xff\n      mul\n      not\n      and\n      swap1\n      dup4\n      0xff\n      and\n      mul\n      or\n      swap1\n      sstore\n      pop\n        /* \"Membership.sol\":11974:12065  function setMaxLooked(uint8 _looked) external onlyOwner{... */\n      pop\n      jump\t// out\n        /* \"Membership.sol\":11730:11871  function emergency(address receiver,uint256 amount) external onlyOwner(){... */\n    tag_66:\n        /* \"Membership.sol\":5469:5479  msg.sender */\n      caller\n        /* \"Membership.sol\":5460:5479  admin == msg.sender */\n      0xffffffffffffffffffffffffffffffffffffffff\n      and\n        /* \"Membership.sol\":5460:5465  admin */\n      0x00\n      dup1\n      sload\n      swap1\n      0x0100\n      exp\n      swap1\n      div\n      0xffffffffffffffffffffffffffffffffffffffff\n      and\n        /* \"Membership.sol\":5460:5479  admin == msg.sender */\n      0xffffffffffffffffffffffffffffffffffffffff\n      and\n      eq\n        /* \"Membership.sol\":5452:5513  require(admin == msg.sender,\"Membership:Caller is not owner\") */\n      tag_142\n      jumpi\n      mload(0x40)\n      0x08c379a000000000000000000000000000000000000000000000000000000000\n      dup2\n      mstore\n      0x04\n      add\n      tag_143\n      swap1\n      tag_127\n      jump\t// in\n    tag_143:\n      mload(0x40)\n      dup1\n      swap2\n      sub\n      swap1\n      revert\n    tag_142:\n        /* \"Membership.sol\":11812:11864  TransferHelper.safeTransfer(token, receiver, amount) */\n      tag_145\n        /* \"Membership.sol\":11840:11845  token */\n      0x07\n      0x00\n      swap1\n      sload\n      swap1\n      0x0100\n      exp\n      swap1\n      div\n      0xffffffffffffffffffffffffffffffffffffffff\n      and\n        /* \"Membership.sol\":11847:11855  receiver */\n      dup4\n        /* \"Membership.sol\":11857:11863  amount */\n      dup4\n        /* \"Membership.sol\":11812:11839  TransferHelper.safeTransfer */\n      tag_146\n        /* \"Membership.sol\":11812:11864  TransferHelper.safeTransfer(token, receiver, amount) */\n      jump\t// in\n    tag_145:\n        /* \"Membership.sol\":11730:11871  function emergency(address receiver,uint256 amount) external onlyOwner(){... */\n      pop\n      pop\n      jump\t// out\n        /* \"Membership.sol\":5295:5321  uint8     public maxLooked */\n    tag_68:\n      0x0d\n      0x00\n      swap1\n      sload\n      swap1\n      0x0100\n      exp\n      swap1\n      div\n      0xff\n      and\n      dup2\n      jump\t// out\n        /* \"Membership.sol\":5028:5059  address   public initialInviter */\n    tag_72:\n      0x05\n      0x00\n      swap1\n      sload\n      swap1\n      0x0100\n      exp\n      swap1\n      div\n      0xffffffffffffffffffffffffffffffffffffffff\n      and\n      dup2\n      jump\t// out\n        /* \"Membership.sol\":5195:5222  address   public tenPercent */\n    tag_75:\n      0x0a\n      0x00\n      swap1\n      sload\n      swap1\n      0x0100\n      exp\n      swap1\n      div\n      0xffffffffffffffffffffffffffffffffffffffff\n      and\n      dup2\n      jump\t// out\n        /* \"Membership.sol\":6591:6851  function getAmountOut() public view returns(uint256 amountOut){... */\n    tag_78:\n        /* \"Membership.sol\":6635:6652  uint256 amountOut */\n      0x00\n        /* \"Membership.sol\":6664:6678  uint reserveIn */\n      dup1\n        /* \"Membership.sol\":6680:6695  uint reserveOut */\n      0x00\n        /* \"Membership.sol\":6699:6758  UniswapV2Library.getReserves(uniswapV2Factory, usdt, token) */\n      tag_148\n        /* \"Membership.sol\":6728:6744  uniswapV2Factory */\n      0x06\n      0x00\n      swap1\n      sload\n      swap1\n      0x0100\n      exp\n      swap1\n      div\n      0xffffffffffffffffffffffffffffffffffffffff\n      and\n        /* \"Membership.sol\":6746:6750  usdt */\n      0x08\n      0x00\n      swap1\n      sload\n      swap1\n      0x0100\n      exp\n      swap1\n      div\n      0xffffffffffffffffffffffffffffffffffffffff\n      and\n        /* \"Membership.sol\":6752:6757  token */\n      0x07\n      0x00\n      swap1\n      sload\n      swap1\n      0x0100\n      exp\n      swap1\n      div\n      0xffffffffffffffffffffffffffffffffffffffff\n      and\n        /* \"Membership.sol\":6699:6727  UniswapV2Library.getReserves */\n      tag_149\n        /* \"Membership.sol\":6699:6758  UniswapV2Library.getReserves(uniswapV2Factory, usdt, token) */\n      jump\t// in\n    tag_148:\n        /* \"Membership.sol\":6663:6758  (uint reserveIn, uint reserveOut) = UniswapV2Library.getReserves(uniswapV2Factory, usdt, token) */\n      swap2\n      pop\n      swap2\n      pop\n        /* \"Membership.sol\":6780:6844  UniswapV2Library.getAmountOut(fixedPrice, reserveIn, reserveOut) */\n      tag_150\n        /* \"Membership.sol\":6810:6820  fixedPrice */\n      sload(0x0c)\n        /* \"Membership.sol\":6822:6831  reserveIn */\n      dup4\n        /* \"Membership.sol\":6833:6843  reserveOut */\n      dup4\n        /* \"Membership.sol\":6780:6809  UniswapV2Library.getAmountOut */\n      tag_151\n        /* \"Membership.sol\":6780:6844  UniswapV2Library.getAmountOut(fixedPrice, reserveIn, reserveOut) */\n      jump\t// in\n    tag_150:\n        /* \"Membership.sol\":6768:6844  amountOut = UniswapV2Library.getAmountOut(fixedPrice, reserveIn, reserveOut) */\n      swap3\n      pop\n        /* \"Membership.sol\":6653:6851  {... */\n      pop\n      pop\n        /* \"Membership.sol\":6591:6851  function getAmountOut() public view returns(uint256 amountOut){... */\n      swap1\n      jump\t// out\n        /* \"Membership.sol\":5065:5098  address   public uniswapV2Factory */\n    tag_81:\n      0x06\n      0x00\n      swap1\n      sload\n      swap1\n      0x0100\n      exp\n      swap1\n      div\n      0xffffffffffffffffffffffffffffffffffffffff\n      and\n      dup2\n      jump\t// out\n        /* \"Membership.sol\":113:142  address public implementation */\n    tag_84:\n      0x01\n      0x00\n      swap1\n      sload\n      swap1\n      0x0100\n      exp\n      swap1\n      div\n      0xffffffffffffffffffffffffffffffffffffffff\n      and\n      dup2\n      jump\t// out\n        /* \"Membership.sol\":11493:11724  function updatePercentReceiver(address _twentyPercent,address _tenPercent,address _fourPercent) external onlyOwner{... */\n    tag_89:\n        /* \"Membership.sol\":5469:5479  msg.sender */\n      caller\n        /* \"Membership.sol\":5460:5479  admin == msg.sender */\n      0xffffffffffffffffffffffffffffffffffffffff\n      and\n        /* \"Membership.sol\":5460:5465  admin */\n      0x00\n      dup1\n      sload\n      swap1\n      0x0100\n      exp\n      swap1\n      div\n      0xffffffffffffffffffffffffffffffffffffffff\n      and\n        /* \"Membership.sol\":5460:5479  admin == msg.sender */\n      0xffffffffffffffffffffffffffffffffffffffff\n      and\n      eq\n        /* \"Membership.sol\":5452:5513  require(admin == msg.sender,\"Membership:Caller is not owner\") */\n      tag_153\n      jumpi\n      mload(0x40)\n      0x08c379a000000000000000000000000000000000000000000000000000000000\n      dup2\n      mstore\n      0x04\n      add\n      tag_154\n      swap1\n      tag_127\n      jump\t// in\n    tag_154:\n      mload(0x40)\n      dup1\n      swap2\n      sub\n      swap1\n      revert\n    tag_153:\n        /* \"Membership.sol\":11631:11643  _fourPercent */\n      dup1\n        /* \"Membership.sol\":11617:11628  fourPercent */\n      0x0b\n      0x00\n        /* \"Membership.sol\":11617:11643  fourPercent = _fourPercent */\n      0x0100\n      exp\n      dup2\n      sload\n      dup2\n      0xffffffffffffffffffffffffffffffffffffffff\n      mul\n      not\n      and\n      swap1\n      dup4\n      0xffffffffffffffffffffffffffffffffffffffff\n      and\n      mul\n      or\n      swap1\n      sstore\n      pop\n        /* \"Membership.sol\":11669:11683  _twentyPercent */\n      dup3\n        /* \"Membership.sol\":11653:11666  twentyPercent */\n      0x09\n      0x00\n        /* \"Membership.sol\":11653:11683  twentyPercent = _twentyPercent */\n      0x0100\n      exp\n      dup2\n      sload\n      dup2\n      0xffffffffffffffffffffffffffffffffffffffff\n      mul\n      not\n      and\n      swap1\n      dup4\n      0xffffffffffffffffffffffffffffffffffffffff\n      and\n      mul\n      or\n      swap1\n      sstore\n      pop\n        /* \"Membership.sol\":11706:11717  _tenPercent */\n      dup2\n        /* \"Membership.sol\":11693:11703  tenPercent */\n      0x0a\n      0x00\n        /* \"Membership.sol\":11693:11717  tenPercent = _tenPercent */\n      0x0100\n      exp\n      dup2\n      sload\n      dup2\n      0xffffffffffffffffffffffffffffffffffffffff\n      mul\n      not\n      and\n      swap1\n      dup4\n      0xffffffffffffffffffffffffffffffffffffffff\n      and\n      mul\n      or\n      swap1\n      sstore\n      pop\n        /* \"Membership.sol\":11493:11724  function updatePercentReceiver(address _twentyPercent,address _tenPercent,address _fourPercent) external onlyOwner{... */\n      pop\n      pop\n      pop\n      jump\t// out\n        /* \"Membership.sol\":11108:11217  function getUserInfo(address _user) external view returns(User memory){... */\n    tag_92:\n        /* \"Membership.sol\":11166:11177  User memory */\n      tag_156\n      tag_157\n      jump\t// in\n    tag_156:\n        /* \"Membership.sol\":11195:11203  userInfo */\n      0x02\n        /* \"Membership.sol\":11195:11210  userInfo[_user] */\n      0x00\n        /* \"Membership.sol\":11204:11209  _user */\n      dup4\n        /* \"Membership.sol\":11195:11210  userInfo[_user] */\n      0xffffffffffffffffffffffffffffffffffffffff\n      and\n      0xffffffffffffffffffffffffffffffffffffffff\n      and\n      dup2\n      mstore\n      0x20\n      add\n      swap1\n      dup2\n      mstore\n      0x20\n      add\n      0x00\n      keccak256\n        /* \"Membership.sol\":11188:11210  return userInfo[_user] */\n      mload(0x40)\n      dup1\n      0xe0\n      add\n      0x40\n      mstore\n      swap1\n      dup2\n      0x00\n      dup3\n      add\n      0x00\n      swap1\n      sload\n      swap1\n      0x0100\n      exp\n      swap1\n      div\n      0xff\n      and\n      iszero\n      iszero\n      iszero\n      iszero\n      dup2\n      mstore\n      0x20\n      add\n      0x00\n      dup3\n      add\n      0x01\n      swap1\n      sload\n      swap1\n      0x0100\n      exp\n      swap1\n      div\n      0xff\n      and\n      iszero\n      iszero\n      iszero\n      iszero\n      dup2\n      mstore\n      0x20\n      add\n      0x00\n      dup3\n      add\n      0x02\n      swap1\n      sload\n      swap1\n      0x0100\n      exp\n      swap1\n      div\n      0xffffffffffffffffffffffffffffffffffffffff\n      and\n      0xffffffffffffffffffffffffffffffffffffffff\n      and\n      0xffffffffffffffffffffffffffffffffffffffff\n      and\n      dup2\n      mstore\n      0x20\n      add\n      0x01\n      dup3\n      add\n      0x00\n      swap1\n      sload\n      swap1\n      0x0100\n      exp\n      swap1\n      div\n      0xffffffffffffffffffffffffffffffffffffffff\n      and\n      0xffffffffffffffffffffffffffffffffffffffff\n      and\n      0xffffffffffffffffffffffffffffffffffffffff\n      and\n      dup2\n      mstore\n      0x20\n      add\n      0x02\n      dup3\n      add\n      sload\n      dup2\n      mstore\n      0x20\n      add\n      0x03\n      dup3\n      add\n      sload\n      dup2\n      mstore\n      0x20\n      add\n      0x04\n      dup3\n      add\n      dup1\n      sload\n      dup1\n      0x20\n      mul\n      0x20\n      add\n      mload(0x40)\n      swap1\n      dup2\n      add\n      0x40\n      mstore\n      dup1\n      swap3\n      swap2\n      swap1\n      dup2\n      dup2\n      mstore\n      0x20\n      add\n      dup3\n      dup1\n      sload\n      dup1\n      iszero\n      tag_159\n      jumpi\n      0x20\n      mul\n      dup3\n      add\n      swap2\n      swap1\n      0x00\n      mstore\n      keccak256(0x00, 0x20)\n      swap1\n    tag_160:\n      dup2\n      0x00\n      swap1\n      sload\n      swap1\n      0x0100\n      exp\n      swap1\n      div\n      0xffffffffffffffffffffffffffffffffffffffff\n      and\n      0xffffffffffffffffffffffffffffffffffffffff\n      and\n      dup2\n      mstore\n      0x20\n      add\n      swap1\n      0x01\n      add\n      swap1\n      dup1\n      dup4\n      gt\n      tag_160\n      jumpi\n    tag_159:\n      pop\n      pop\n      pop\n      pop\n      pop\n      dup2\n      mstore\n      pop\n      pop\n      swap1\n      pop\n        /* \"Membership.sol\":11108:11217  function getUserInfo(address _user) external view returns(User memory){... */\n      swap2\n      swap1\n      pop\n      jump\t// out\n        /* \"Membership.sol\":5159:5189  address   public twentyPercent */\n    tag_96:\n      0x09\n      0x00\n      swap1\n      sload\n      swap1\n      0x0100\n      exp\n      swap1\n      div\n      0xffffffffffffffffffffffffffffffffffffffff\n      and\n      dup2\n      jump\t// out\n        /* \"Membership.sol\":12071:12155  function setAdmin(address _admin) external  onlyOwner{... */\n    tag_100:\n        /* \"Membership.sol\":5469:5479  msg.sender */\n      caller\n        /* \"Membership.sol\":5460:5479  admin == msg.sender */\n      0xffffffffffffffffffffffffffffffffffffffff\n      and\n        /* \"Membership.sol\":5460:5465  admin */\n      0x00\n      dup1\n      sload\n      swap1\n      0x0100\n      exp\n      swap1\n      div\n      0xffffffffffffffffffffffffffffffffffffffff\n      and\n        /* \"Membership.sol\":5460:5479  admin == msg.sender */\n      0xffffffffffffffffffffffffffffffffffffffff\n      and\n      eq\n        /* \"Membership.sol\":5452:5513  require(admin == msg.sender,\"Membership:Caller is not owner\") */\n      tag_162\n      jumpi\n      mload(0x40)\n      0x08c379a000000000000000000000000000000000000000000000000000000000\n      dup2\n      mstore\n      0x04\n      add\n      tag_163\n      swap1\n      tag_127\n      jump\t// in\n    tag_163:\n      mload(0x40)\n      dup1\n      swap2\n      sub\n      swap1\n      revert\n    tag_162:\n        /* \"Membership.sol\":12142:12148  _admin */\n      dup1\n        /* \"Membership.sol\":12134:12139  admin */\n      0x00\n      dup1\n        /* \"Membership.sol\":12134:12148  admin = _admin */\n      0x0100\n      exp\n      dup2\n      sload\n      dup2\n      0xffffffffffffffffffffffffffffffffffffffff\n      mul\n      not\n      and\n      swap1\n      dup4\n      0xffffffffffffffffffffffffffffffffffffffff\n      and\n      mul\n      or\n      swap1\n      sstore\n      pop\n        /* \"Membership.sol\":12071:12155  function setAdmin(address _admin) external  onlyOwner{... */\n      pop\n      jump\t// out\n        /* \"Membership.sol\":6857:7853  function purchasingVip(address _user) public{... */\n    tag_103:\n        /* \"Membership.sol\":6911:6928  User storage user */\n      0x00\n        /* \"Membership.sol\":6931:6939  userInfo */\n      0x02\n        /* \"Membership.sol\":6931:6946  userInfo[_user] */\n      0x00\n        /* \"Membership.sol\":6940:6945  _user */\n      dup4\n        /* \"Membership.sol\":6931:6946  userInfo[_user] */\n      0xffffffffffffffffffffffffffffffffffffffff\n      and\n      0xffffffffffffffffffffffffffffffffffffffff\n      and\n      dup2\n      mstore\n      0x20\n      add\n      swap1\n      dup2\n      mstore\n      0x20\n      add\n      0x00\n      keccak256\n        /* \"Membership.sol\":6911:6946  User storage user = userInfo[_user] */\n      swap1\n      pop\n        /* \"Membership.sol\":6988:6989  0 */\n      0x00\n        /* \"Membership.sol\":6964:6990  user.inviter != address(0) */\n      0xffffffffffffffffffffffffffffffffffffffff\n      and\n        /* \"Membership.sol\":6964:6968  user */\n      dup2\n        /* \"Membership.sol\":6964:6976  user.inviter */\n      0x00\n      add\n      0x02\n      swap1\n      sload\n      swap1\n      0x0100\n      exp\n      swap1\n      div\n      0xffffffffffffffffffffffffffffffffffffffff\n      and\n        /* \"Membership.sol\":6964:6990  user.inviter != address(0) */\n      0xffffffffffffffffffffffffffffffffffffffff\n      and\n      sub\n        /* \"Membership.sol\":6956:7041  require(user.inviter != address(0),\"Membership:The invitation address must be bound\") */\n      tag_166\n      jumpi\n      mload(0x40)\n      0x08c379a000000000000000000000000000000000000000000000000000000000\n      dup2\n      mstore\n      0x04\n      add\n      tag_167\n      swap1\n      tag_168\n      jump\t// in\n    tag_167:\n      mload(0x40)\n      dup1\n      swap2\n      sub\n      swap1\n      revert\n    tag_166:\n        /* \"Membership.sol\":7060:7064  user */\n      dup1\n        /* \"Membership.sol\":7060:7070  user.isVip */\n      0x00\n      add\n      0x00\n      swap1\n      sload\n      swap1\n      0x0100\n      exp\n      swap1\n      div\n      0xff\n      and\n        /* \"Membership.sol\":7059:7070  !user.isVip */\n      iszero\n        /* \"Membership.sol\":7051:7124  require(!user.isVip, \"Membership:Duplicate participation is not allowed\") */\n      tag_169\n      jumpi\n      mload(0x40)\n      0x08c379a000000000000000000000000000000000000000000000000000000000\n      dup2\n      mstore\n      0x04\n      add\n      tag_170\n      swap1\n      tag_171\n      jump\t// in\n    tag_170:\n      mload(0x40)\n      dup1\n      swap2\n      sub\n      swap1\n      revert\n    tag_169:\n        /* \"Membership.sol\":7151:7161  msg.sender */\n      caller\n        /* \"Membership.sol\":7142:7161  _user == msg.sender */\n      0xffffffffffffffffffffffffffffffffffffffff\n      and\n        /* \"Membership.sol\":7142:7147  _user */\n      dup3\n        /* \"Membership.sol\":7142:7161  _user == msg.sender */\n      0xffffffffffffffffffffffffffffffffffffffff\n      and\n      eq\n        /* \"Membership.sol\":7134:7192  require(_user == msg.sender,\"Membership:Invalid operator\") */\n      tag_172\n      jumpi\n      mload(0x40)\n      0x08c379a000000000000000000000000000000000000000000000000000000000\n      dup2\n      mstore\n      0x04\n      add\n      tag_173\n      swap1\n      tag_174\n      jump\t// in\n    tag_173:\n      mload(0x40)\n      dup1\n      swap2\n      sub\n      swap1\n      revert\n    tag_172:\n        /* \"Membership.sol\":7203:7218  uint256 _amount */\n      0x00\n        /* \"Membership.sol\":7221:7235  getAmountOut() */\n      tag_175\n        /* \"Membership.sol\":7221:7233  getAmountOut */\n      tag_78\n        /* \"Membership.sol\":7221:7235  getAmountOut() */\n      jump\t// in\n    tag_175:\n        /* \"Membership.sol\":7203:7235  uint256 _amount = getAmountOut() */\n      swap1\n      pop\n        /* \"Membership.sol\":7263:7264  0 */\n      0x00\n        /* \"Membership.sol\":7253:7260  _amount */\n      dup2\n        /* \"Membership.sol\":7253:7264  _amount > 0 */\n      gt\n        /* \"Membership.sol\":7245:7304  require(_amount > 0,\"Membership:Invalid purchasing amount\") */\n      tag_176\n      jumpi\n      mload(0x40)\n      0x08c379a000000000000000000000000000000000000000000000000000000000\n      dup2\n      mstore\n      0x04\n      add\n      tag_177\n      swap1\n      tag_178\n      jump\t// in\n    tag_177:\n      mload(0x40)\n      dup1\n      swap2\n      sub\n      swap1\n      revert\n    tag_176:\n        /* \"Membership.sol\":7315:7329  uint256 reward */\n      0x00\n        /* \"Membership.sol\":7347:7350  100 */\n      0x64\n        /* \"Membership.sol\":7342:7344  66 */\n      0x42\n        /* \"Membership.sol\":7332:7339  _amount */\n      dup4\n        /* \"Membership.sol\":7332:7344  _amount * 66 */\n      tag_179\n      swap2\n      swap1\n      tag_180\n      jump\t// in\n    tag_179:\n        /* \"Membership.sol\":7332:7350  _amount * 66 / 100 */\n      tag_181\n      swap2\n      swap1\n      tag_182\n      jump\t// in\n    tag_181:\n        /* \"Membership.sol\":7315:7350  uint256 reward = _amount * 66 / 100 */\n      swap1\n      pop\n        /* \"Membership.sol\":7360:7376  uint256 toTwenty */\n      0x00\n        /* \"Membership.sol\":7394:7397  100 */\n      0x64\n        /* \"Membership.sol\":7389:7391  20 */\n      0x14\n        /* \"Membership.sol\":7379:7386  _amount */\n      dup5\n        /* \"Membership.sol\":7379:7391  _amount * 20 */\n      tag_183\n      swap2\n      swap1\n      tag_180\n      jump\t// in\n    tag_183:\n        /* \"Membership.sol\":7379:7397  _amount * 20 / 100 */\n      tag_184\n      swap2\n      swap1\n      tag_182\n      jump\t// in\n    tag_184:\n        /* \"Membership.sol\":7360:7397  uint256 toTwenty = _amount * 20 / 100 */\n      swap1\n      pop\n        /* \"Membership.sol\":7407:7420  uint256 toTen */\n      0x00\n        /* \"Membership.sol\":7438:7441  100 */\n      0x64\n        /* \"Membership.sol\":7433:7435  10 */\n      0x0a\n        /* \"Membership.sol\":7423:7430  _amount */\n      dup6\n        /* \"Membership.sol\":7423:7435  _amount * 10 */\n      tag_185\n      swap2\n      swap1\n      tag_180\n      jump\t// in\n    tag_185:\n        /* \"Membership.sol\":7423:7441  _amount * 10 / 100 */\n      tag_186\n      swap2\n      swap1\n      tag_182\n      jump\t// in\n    tag_186:\n        /* \"Membership.sol\":7407:7441  uint256 toTen = _amount * 10 / 100 */\n      swap1\n      pop\n        /* \"Membership.sol\":7452:7520  TransferHelper.safeTransferFrom(token, _user, address(this), reward) */\n      tag_187\n        /* \"Membership.sol\":7484:7489  token */\n      0x07\n      0x00\n      swap1\n      sload\n      swap1\n      0x0100\n      exp\n      swap1\n      div\n      0xffffffffffffffffffffffffffffffffffffffff\n      and\n        /* \"Membership.sol\":7491:7496  _user */\n      dup8\n        /* \"Membership.sol\":7506:7510  this */\n      address\n        /* \"Membership.sol\":7513:7519  reward */\n      dup7\n        /* \"Membership.sol\":7452:7483  TransferHelper.safeTransferFrom */\n      tag_188\n        /* \"Membership.sol\":7452:7520  TransferHelper.safeTransferFrom(token, _user, address(this), reward) */\n      jump\t// in\n    tag_187:\n        /* \"Membership.sol\":7530:7600  TransferHelper.safeTransferFrom(token, _user, twentyPercent, toTwenty) */\n      tag_189\n        /* \"Membership.sol\":7562:7567  token */\n      0x07\n      0x00\n      swap1\n      sload\n      swap1\n      0x0100\n      exp\n      swap1\n      div\n      0xffffffffffffffffffffffffffffffffffffffff\n      and\n        /* \"Membership.sol\":7569:7574  _user */\n      dup8\n        /* \"Membership.sol\":7576:7589  twentyPercent */\n      0x09\n      0x00\n      swap1\n      sload\n      swap1\n      0x0100\n      exp\n      swap1\n      div\n      0xffffffffffffffffffffffffffffffffffffffff\n      and\n        /* \"Membership.sol\":7591:7599  toTwenty */\n      dup6\n        /* \"Membership.sol\":7530:7561  TransferHelper.safeTransferFrom */\n      tag_188\n        /* \"Membership.sol\":7530:7600  TransferHelper.safeTransferFrom(token, _user, twentyPercent, toTwenty) */\n      jump\t// in\n    tag_189:\n        /* \"Membership.sol\":7610:7674  TransferHelper.safeTransferFrom(token, _user, tenPercent, toTen) */\n      tag_190\n        /* \"Membership.sol\":7642:7647  token */\n      0x07\n      0x00\n      swap1\n      sload\n      swap1\n      0x0100\n      exp\n      swap1\n      div\n      0xffffffffffffffffffffffffffffffffffffffff\n      and\n        /* \"Membership.sol\":7649:7654  _user */\n      dup8\n        /* \"Membership.sol\":7656:7666  tenPercent */\n      0x0a\n      0x00\n      swap1\n      sload\n      swap1\n      0x0100\n      exp\n      swap1\n      div\n      0xffffffffffffffffffffffffffffffffffffffff\n      and\n        /* \"Membership.sol\":7668:7673  toTen */\n      dup5\n        /* \"Membership.sol\":7610:7641  TransferHelper.safeTransferFrom */\n      tag_188\n        /* \"Membership.sol\":7610:7674  TransferHelper.safeTransferFrom(token, _user, tenPercent, toTen) */\n      jump\t// in\n    tag_190:\n        /* \"Membership.sol\":7684:7779  TransferHelper.safeTransferFrom(token, _user, fourPercent, _amount - reward - toTwenty - toTen) */\n      tag_191\n        /* \"Membership.sol\":7716:7721  token */\n      0x07\n      0x00\n      swap1\n      sload\n      swap1\n      0x0100\n      exp\n      swap1\n      div\n      0xffffffffffffffffffffffffffffffffffffffff\n      and\n        /* \"Membership.sol\":7723:7728  _user */\n      dup8\n        /* \"Membership.sol\":7730:7741  fourPercent */\n      0x0b\n      0x00\n      swap1\n      sload\n      swap1\n      0x0100\n      exp\n      swap1\n      div\n      0xffffffffffffffffffffffffffffffffffffffff\n      and\n        /* \"Membership.sol\":7773:7778  toTen */\n      dup5\n        /* \"Membership.sol\":7762:7770  toTwenty */\n      dup7\n        /* \"Membership.sol\":7753:7759  reward */\n      dup9\n        /* \"Membership.sol\":7743:7750  _amount */\n      dup11\n        /* \"Membership.sol\":7743:7759  _amount - reward */\n      tag_192\n      swap2\n      swap1\n      tag_193\n      jump\t// in\n    tag_192:\n        /* \"Membership.sol\":7743:7770  _amount - reward - toTwenty */\n      tag_194\n      swap2\n      swap1\n      tag_193\n      jump\t// in\n    tag_194:\n        /* \"Membership.sol\":7743:7778  _amount - reward - toTwenty - toTen */\n      tag_195\n      swap2\n      swap1\n      tag_193\n      jump\t// in\n    tag_195:\n        /* \"Membership.sol\":7684:7715  TransferHelper.safeTransferFrom */\n      tag_188\n        /* \"Membership.sol\":7684:7779  TransferHelper.safeTransferFrom(token, _user, fourPercent, _amount - reward - toTwenty - toTen) */\n      jump\t// in\n    tag_191:\n        /* \"Membership.sol\":7791:7819  updateInviter(_user,_amount) */\n      tag_196\n        /* \"Membership.sol\":7805:7810  _user */\n      dup7\n        /* \"Membership.sol\":7811:7818  _amount */\n      dup6\n        /* \"Membership.sol\":7791:7804  updateInviter */\n      tag_197\n        /* \"Membership.sol\":7791:7819  updateInviter(_user,_amount) */\n      jump\t// in\n    tag_196:\n        /* \"Membership.sol\":7842:7846  true */\n      0x01\n        /* \"Membership.sol\":7829:7833  user */\n      dup6\n        /* \"Membership.sol\":7829:7839  user.isVip */\n      0x00\n      add\n      0x00\n        /* \"Membership.sol\":7829:7846  user.isVip = true */\n      0x0100\n      exp\n      dup2\n      sload\n      dup2\n      0xff\n      mul\n      not\n      and\n      swap1\n      dup4\n      iszero\n      iszero\n      mul\n      or\n      swap1\n      sstore\n      pop\n        /* \"Membership.sol\":6901:7853  {... */\n      pop\n      pop\n      pop\n      pop\n      pop\n        /* \"Membership.sol\":6857:7853  function purchasingVip(address _user) public{... */\n      pop\n      jump\t// out\n        /* \"Membership.sol\":6078:6584  function bind(address _inviter) external{... */\n    tag_106:\n        /* \"Membership.sol\":6162:6163  0 */\n      0x00\n        /* \"Membership.sol\":6136:6164  initialInviter != address(0) */\n      0xffffffffffffffffffffffffffffffffffffffff\n      and\n        /* \"Membership.sol\":6136:6150  initialInviter */\n      0x05\n      0x00\n      swap1\n      sload\n      swap1\n      0x0100\n      exp\n      swap1\n      div\n      0xffffffffffffffffffffffffffffffffffffffff\n      and\n        /* \"Membership.sol\":6136:6164  initialInviter != address(0) */\n      0xffffffffffffffffffffffffffffffffffffffff\n      and\n      sub\n        /* \"Membership.sol\":6128:6200  require(initialInviter != address(0), \"Membership:Zero initial address\") */\n      tag_199\n      jumpi\n      mload(0x40)\n      0x08c379a000000000000000000000000000000000000000000000000000000000\n      dup2\n      mstore\n      0x04\n      add\n      tag_200\n      swap1\n      tag_201\n      jump\t// in\n    tag_200:\n      mload(0x40)\n      dup1\n      swap2\n      sub\n      swap1\n      revert\n    tag_199:\n        /* \"Membership.sol\":6231:6239  _inviter */\n      dup1\n        /* \"Membership.sol\":6213:6239  initialInviter != _inviter */\n      0xffffffffffffffffffffffffffffffffffffffff\n      and\n        /* \"Membership.sol\":6213:6227  initialInviter */\n      0x05\n      0x00\n      swap1\n      sload\n      swap1\n      0x0100\n      exp\n      swap1\n      div\n      0xffffffffffffffffffffffffffffffffffffffff\n      and\n        /* \"Membership.sol\":6213:6239  initialInviter != _inviter */\n      0xffffffffffffffffffffffffffffffffffffffff\n      and\n      eq\n        /* \"Membership.sol\":6210:6427  if(initialInviter != _inviter){... */\n      tag_202\n      jumpi\n        /* \"Membership.sol\":6254:6269  User memory inv */\n      0x00\n        /* \"Membership.sol\":6272:6280  userInfo */\n      0x02\n        /* \"Membership.sol\":6272:6290  userInfo[_inviter] */\n      0x00\n        /* \"Membership.sol\":6281:6289  _inviter */\n      dup4\n        /* \"Membership.sol\":6272:6290  userInfo[_inviter] */\n      0xffffffffffffffffffffffffffffffffffffffff\n      and\n      0xffffffffffffffffffffffffffffffffffffffff\n      and\n      dup2\n      mstore\n      0x20\n      add\n      swap1\n      dup2\n      mstore\n      0x20\n      add\n      0x00\n      keccak256\n        /* \"Membership.sol\":6254:6290  User memory inv = userInfo[_inviter] */\n      mload(0x40)\n      dup1\n      0xe0\n      add\n      0x40\n      mstore\n      swap1\n      dup2\n      0x00\n      dup3\n      add\n      0x00\n      swap1\n      sload\n      swap1\n      0x0100\n      exp\n      swap1\n      div\n      0xff\n      and\n      iszero\n      iszero\n      iszero\n      iszero\n      dup2\n      mstore\n      0x20\n      add\n      0x00\n      dup3\n      add\n      0x01\n      swap1\n      sload\n      swap1\n      0x0100\n      exp\n      swap1\n      div\n      0xff\n      and\n      iszero\n      iszero\n      iszero\n      iszero\n      dup2\n      mstore\n      0x20\n      add\n      0x00\n      dup3\n      add\n      0x02\n      swap1\n      sload\n      swap1\n      0x0100\n      exp\n      swap1\n      div\n      0xffffffffffffffffffffffffffffffffffffffff\n      and\n      0xffffffffffffffffffffffffffffffffffffffff\n      and\n      0xffffffffffffffffffffffffffffffffffffffff\n      and\n      dup2\n      mstore\n      0x20\n      add\n      0x01\n      dup3\n      add\n      0x00\n      swap1\n      sload\n      swap1\n      0x0100\n      exp\n      swap1\n      div\n      0xffffffffffffffffffffffffffffffffffffffff\n      and\n      0xffffffffffffffffffffffffffffffffffffffff\n      and\n      0xffffffffffffffffffffffffffffffffffffffff\n      and\n      dup2\n      mstore\n      0x20\n      add\n      0x02\n      dup3\n      add\n      sload\n      dup2\n      mstore\n      0x20\n      add\n      0x03\n      dup3\n      add\n      sload\n      dup2\n      mstore\n      0x20\n      add\n      0x04\n      dup3\n      add\n      dup1\n      sload\n      dup1\n      0x20\n      mul\n      0x20\n      add\n      mload(0x40)\n      swap1\n      dup2\n      add\n      0x40\n      mstore\n      dup1\n      swap3\n      swap2\n      swap1\n      dup2\n      dup2\n      mstore\n      0x20\n      add\n      dup3\n      dup1\n      sload\n      dup1\n      iszero\n      tag_203\n      jumpi\n      0x20\n      mul\n      dup3\n      add\n      swap2\n      swap1\n      0x00\n      mstore\n      keccak256(0x00, 0x20)\n      swap1\n    tag_204:\n      dup2\n      0x00\n      swap1\n      sload\n      swap1\n      0x0100\n      exp\n      swap1\n      div\n      0xffffffffffffffffffffffffffffffffffffffff\n      and\n      0xffffffffffffffffffffffffffffffffffffffff\n      and\n      dup2\n      mstore\n      0x20\n      add\n      swap1\n      0x01\n      add\n      swap1\n      dup1\n      dup4\n      gt\n      tag_204\n      jumpi\n    tag_203:\n      pop\n      pop\n      pop\n      pop\n      pop\n      dup2\n      mstore\n      pop\n      pop\n      swap1\n      pop\n        /* \"Membership.sol\":6312:6315  inv */\n      dup1\n        /* \"Membership.sol\":6312:6321  inv.isVip */\n      0x00\n      add\n      mload\n        /* \"Membership.sol\":6304:6349  require(inv.isVip, \"Membership:Not eligible\") */\n      tag_205\n      jumpi\n      mload(0x40)\n      0x08c379a000000000000000000000000000000000000000000000000000000000\n      dup2\n      mstore\n      0x04\n      add\n      tag_206\n      swap1\n      tag_207\n      jump\t// in\n    tag_206:\n      mload(0x40)\n      dup1\n      swap2\n      sub\n      swap1\n      revert\n    tag_205:\n        /* \"Membership.sol\":6383:6393  msg.sender */\n      caller\n        /* \"Membership.sol\":6371:6393  _inviter != msg.sender */\n      0xffffffffffffffffffffffffffffffffffffffff\n      and\n        /* \"Membership.sol\":6371:6379  _inviter */\n      dup3\n        /* \"Membership.sol\":6371:6393  _inviter != msg.sender */\n      0xffffffffffffffffffffffffffffffffffffffff\n      and\n      sub\n        /* \"Membership.sol\":6363:6416  require(_inviter != msg.sender,\"Membership:Only vip\") */\n      tag_208\n      jumpi\n      mload(0x40)\n      0x08c379a000000000000000000000000000000000000000000000000000000000\n      dup2\n      mstore\n      0x04\n      add\n      tag_209\n      swap1\n      tag_210\n      jump\t// in\n    tag_209:\n      mload(0x40)\n      dup1\n      swap2\n      sub\n      swap1\n      revert\n    tag_208:\n        /* \"Membership.sol\":6240:6427  {... */\n      pop\n        /* \"Membership.sol\":6210:6427  if(initialInviter != _inviter){... */\n    tag_202:\n        /* \"Membership.sol\":6436:6453  User storage user */\n      0x00\n        /* \"Membership.sol\":6456:6464  userInfo */\n      0x02\n        /* \"Membership.sol\":6456:6476  userInfo[msg.sender] */\n      0x00\n        /* \"Membership.sol\":6465:6475  msg.sender */\n      caller\n        /* \"Membership.sol\":6456:6476  userInfo[msg.sender] */\n      0xffffffffffffffffffffffffffffffffffffffff\n      and\n      0xffffffffffffffffffffffffffffffffffffffff\n      and\n      dup2\n      mstore\n      0x20\n      add\n      swap1\n      dup2\n      mstore\n      0x20\n      add\n      0x00\n      keccak256\n        /* \"Membership.sol\":6436:6476  User storage user = userInfo[msg.sender] */\n      swap1\n      pop\n        /* \"Membership.sol\":6518:6519  0 */\n      0x00\n        /* \"Membership.sol\":6494:6520  user.inviter == address(0) */\n      0xffffffffffffffffffffffffffffffffffffffff\n      and\n        /* \"Membership.sol\":6494:6498  user */\n      dup2\n        /* \"Membership.sol\":6494:6506  user.inviter */\n      0x00\n      add\n      0x02\n      swap1\n      sload\n      swap1\n      0x0100\n      exp\n      swap1\n      div\n      0xffffffffffffffffffffffffffffffffffffffff\n      and\n        /* \"Membership.sol\":6494:6520  user.inviter == address(0) */\n      0xffffffffffffffffffffffffffffffffffffffff\n      and\n      eq\n        /* \"Membership.sol\":6486:6544  require(user.inviter == address(0),\"Membership:Only once\") */\n      tag_211\n      jumpi\n      mload(0x40)\n      0x08c379a000000000000000000000000000000000000000000000000000000000\n      dup2\n      mstore\n      0x04\n      add\n      tag_212\n      swap1\n      tag_213\n      jump\t// in\n    tag_212:\n      mload(0x40)\n      dup1\n      swap2\n      sub\n      swap1\n      revert\n    tag_211:\n        /* \"Membership.sol\":6569:6577  _inviter */\n      dup2\n        /* \"Membership.sol\":6554:6558  user */\n      dup2\n        /* \"Membership.sol\":6554:6566  user.inviter */\n      0x00\n      add\n      0x02\n        /* \"Membership.sol\":6554:6577  user.inviter = _inviter */\n      0x0100\n      exp\n      dup2\n      sload\n      dup2\n      0xffffffffffffffffffffffffffffffffffffffff\n      mul\n      not\n      and\n      swap1\n      dup4\n      0xffffffffffffffffffffffffffffffffffffffff\n      and\n      mul\n      or\n      swap1\n      sstore\n      pop\n        /* \"Membership.sol\":6118:6584  {... */\n      pop\n        /* \"Membership.sol\":6078:6584  function bind(address _inviter) external{... */\n      pop\n      jump\t// out\n        /* \"Membership.sol\":5228:5256  address   public fourPercent */\n    tag_108:\n      0x0b\n      0x00\n      swap1\n      sload\n      swap1\n      0x0100\n      exp\n      swap1\n      div\n      0xffffffffffffffffffffffffffffffffffffffff\n      and\n      dup2\n      jump\t// out\n        /* \"Membership.sol\":10755:11102  function claim(address _user,uint256 _amount) external{... */\n    tag_112:\n        /* \"Membership.sol\":10862:10869  _amount */\n      dup1\n        /* \"Membership.sol\":10827:10835  userInfo */\n      0x02\n        /* \"Membership.sol\":10827:10842  userInfo[_user] */\n      0x00\n        /* \"Membership.sol\":10836:10841  _user */\n      dup5\n        /* \"Membership.sol\":10827:10842  userInfo[_user] */\n      0xffffffffffffffffffffffffffffffffffffffff\n      and\n      0xffffffffffffffffffffffffffffffffffffffff\n      and\n      dup2\n      mstore\n      0x20\n      add\n      swap1\n      dup2\n      mstore\n      0x20\n      add\n      0x00\n      keccak256\n        /* \"Membership.sol\":10827:10858  userInfo[_user].totalTeamReward */\n      0x03\n      add\n      sload\n        /* \"Membership.sol\":10827:10869  userInfo[_user].totalTeamReward >= _amount */\n      lt\n      iszero\n        /* \"Membership.sol\":10819:10904  require(userInfo[_user].totalTeamReward >= _amount,\"Membership:Invalid claim amount\") */\n      tag_215\n      jumpi\n      mload(0x40)\n      0x08c379a000000000000000000000000000000000000000000000000000000000\n      dup2\n      mstore\n      0x04\n      add\n      tag_216\n      swap1\n      tag_217\n      jump\t// in\n    tag_216:\n      mload(0x40)\n      dup1\n      swap2\n      sub\n      swap1\n      revert\n    tag_215:\n        /* \"Membership.sol\":10914:10964  TransferHelper.safeTransfer(token, _user, _amount) */\n      tag_218\n        /* \"Membership.sol\":10942:10947  token */\n      0x07\n      0x00\n      swap1\n      sload\n      swap1\n      0x0100\n      exp\n      swap1\n      div\n      0xffffffffffffffffffffffffffffffffffffffff\n      and\n        /* \"Membership.sol\":10949:10954  _user */\n      dup4\n        /* \"Membership.sol\":10956:10963  _amount */\n      dup4\n        /* \"Membership.sol\":10914:10941  TransferHelper.safeTransfer */\n      tag_146\n        /* \"Membership.sol\":10914:10964  TransferHelper.safeTransfer(token, _user, _amount) */\n      jump\t// in\n    tag_218:\n        /* \"Membership.sol\":11009:11016  _amount */\n      dup1\n        /* \"Membership.sol\":10974:10982  userInfo */\n      0x02\n        /* \"Membership.sol\":10974:10989  userInfo[_user] */\n      0x00\n        /* \"Membership.sol\":10983:10988  _user */\n      dup5\n        /* \"Membership.sol\":10974:10989  userInfo[_user] */\n      0xffffffffffffffffffffffffffffffffffffffff\n      and\n      0xffffffffffffffffffffffffffffffffffffffff\n      and\n      dup2\n      mstore\n      0x20\n      add\n      swap1\n      dup2\n      mstore\n      0x20\n      add\n      0x00\n      keccak256\n        /* \"Membership.sol\":10974:11005  userInfo[_user].totalTeamReward */\n      0x03\n      add\n      0x00\n        /* \"Membership.sol\":10974:11016  userInfo[_user].totalTeamReward -= _amount */\n      dup3\n      dup3\n      sload\n      tag_219\n      swap2\n      swap1\n      tag_193\n      jump\t// in\n    tag_219:\n      swap3\n      pop\n      pop\n      dup2\n      swap1\n      sstore\n      pop\n        /* \"Membership.sol\":11026:11038  claimRecords */\n      0x04\n        /* \"Membership.sol\":11026:11045  claimRecords[_user] */\n      0x00\n        /* \"Membership.sol\":11039:11044  _user */\n      dup4\n        /* \"Membership.sol\":11026:11045  claimRecords[_user] */\n      0xffffffffffffffffffffffffffffffffffffffff\n      and\n      0xffffffffffffffffffffffffffffffffffffffff\n      and\n      dup2\n      mstore\n      0x20\n      add\n      swap1\n      dup2\n      mstore\n      0x20\n      add\n      0x00\n      keccak256\n        /* \"Membership.sol\":11051:11094  ClaimRecords(_user,_amount,block.timestamp) */\n      mload(0x40)\n      dup1\n      0x60\n      add\n      0x40\n      mstore\n      dup1\n        /* \"Membership.sol\":11064:11069  _user */\n      dup5\n        /* \"Membership.sol\":11051:11094  ClaimRecords(_user,_amount,block.timestamp) */\n      0xffffffffffffffffffffffffffffffffffffffff\n      and\n      dup2\n      mstore\n      0x20\n      add\n        /* \"Membership.sol\":11070:11077  _amount */\n      dup4\n        /* \"Membership.sol\":11051:11094  ClaimRecords(_user,_amount,block.timestamp) */\n      dup2\n      mstore\n      0x20\n      add\n        /* \"Membership.sol\":11078:11093  block.timestamp */\n      timestamp\n        /* \"Membership.sol\":11051:11094  ClaimRecords(_user,_amount,block.timestamp) */\n      dup2\n      mstore\n      pop\n        /* \"Membership.sol\":11026:11095  claimRecords[_user].push(ClaimRecords(_user,_amount,block.timestamp)) */\n      swap1\n      dup1\n      0x01\n      dup2\n      sload\n      add\n      dup1\n      dup3\n      sstore\n      dup1\n      swap2\n      pop\n      pop\n      0x01\n      swap1\n      sub\n      swap1\n      0x00\n      mstore\n      keccak256(0x00, 0x20)\n      swap1\n      0x03\n      mul\n      add\n      0x00\n      swap1\n      swap2\n      swap1\n      swap2\n      swap1\n      swap2\n      pop\n      0x00\n      dup3\n      add\n      mload\n      dup2\n      0x00\n      add\n      exp(0x0100, 0x00)\n      dup2\n      sload\n      dup2\n      0xffffffffffffffffffffffffffffffffffffffff\n      mul\n      not\n      and\n      swap1\n      dup4\n      0xffffffffffffffffffffffffffffffffffffffff\n      and\n      mul\n      or\n      swap1\n      sstore\n      pop\n      0x20\n      dup3\n      add\n      mload\n      dup2\n      0x01\n      add\n      sstore\n      0x40\n      dup3\n      add\n      mload\n      dup2\n      0x02\n      add\n      sstore\n      pop\n      pop\n        /* \"Membership.sol\":10755:11102  function claim(address _user,uint256 _amount) external{... */\n      pop\n      pop\n      jump\t// out\n        /* \"Membership.sol\":11223:11350  function getTeamRewardInfo(address _user) external view returns (TeamReward[] memory){... */\n    tag_115:\n        /* \"Membership.sol\":11288:11307  TeamReward[] memory */\n      0x60\n        /* \"Membership.sol\":11325:11336  teamRewards */\n      0x03\n        /* \"Membership.sol\":11325:11343  teamRewards[_user] */\n      0x00\n        /* \"Membership.sol\":11337:11342  _user */\n      dup4\n        /* \"Membership.sol\":11325:11343  teamRewards[_user] */\n      0xffffffffffffffffffffffffffffffffffffffff\n      and\n      0xffffffffffffffffffffffffffffffffffffffff\n      and\n      dup2\n      mstore\n      0x20\n      add\n      swap1\n      dup2\n      mstore\n      0x20\n      add\n      0x00\n      keccak256\n        /* \"Membership.sol\":11318:11343  return teamRewards[_user] */\n      dup1\n      sload\n      dup1\n      0x20\n      mul\n      0x20\n      add\n      mload(0x40)\n      swap1\n      dup2\n      add\n      0x40\n      mstore\n      dup1\n      swap3\n      swap2\n      swap1\n      dup2\n      dup2\n      mstore\n      0x20\n      add\n      0x00\n      swap1\n    tag_222:\n      dup3\n      dup3\n      lt\n      iszero\n      tag_223\n      jumpi\n      dup4\n      dup3\n      swap1\n      0x00\n      mstore\n      keccak256(0x00, 0x20)\n      swap1\n      0x04\n      mul\n      add\n      mload(0x40)\n      dup1\n      0x80\n      add\n      0x40\n      mstore\n      swap1\n      dup2\n      0x00\n      dup3\n      add\n      0x00\n      swap1\n      sload\n      swap1\n      0x0100\n      exp\n      swap1\n      div\n      0xffffffffffffffffffffffffffffffffffffffff\n      and\n      0xffffffffffffffffffffffffffffffffffffffff\n      and\n      0xffffffffffffffffffffffffffffffffffffffff\n      and\n      dup2\n      mstore\n      0x20\n      add\n      0x01\n      dup3\n      add\n      sload\n      dup2\n      mstore\n      0x20\n      add\n      0x02\n      dup3\n      add\n      sload\n      dup2\n      mstore\n      0x20\n      add\n      0x03\n      dup3\n      add\n      0x00\n      swap1\n      sload\n      swap1\n      0x0100\n      exp\n      swap1\n      div\n      0xff\n      and\n      0x02\n      dup2\n      gt\n      iszero\n      tag_225\n      jumpi\n      tag_226\n      tag_227\n      jump\t// in\n    tag_226:\n    tag_225:\n      0x02\n      dup2\n      gt\n      iszero\n      tag_228\n      jumpi\n      tag_229\n      tag_227\n      jump\t// in\n    tag_229:\n    tag_228:\n      dup2\n      mstore\n      pop\n      pop\n      dup2\n      mstore\n      0x20\n      add\n      swap1\n      0x01\n      add\n      swap1\n      jump(tag_222)\n    tag_223:\n      pop\n      pop\n      pop\n      pop\n      swap1\n      pop\n        /* \"Membership.sol\":11223:11350  function getTeamRewardInfo(address _user) external view returns (TeamReward[] memory){... */\n      swap2\n      swap1\n      pop\n      jump\t// out\n        /* \"Membership.sol\":87:107  address public admin */\n    tag_119:\n      0x00\n      dup1\n      sload\n      swap1\n      0x0100\n      exp\n      swap1\n      div\n      0xffffffffffffffffffffffffffffffffffffffff\n      and\n      dup2\n      jump\t// out\n        /* \"Membership.sol\":5104:5126  address   public token */\n    tag_122:\n      0x07\n      0x00\n      swap1\n      sload\n      swap1\n      0x0100\n      exp\n      swap1\n      div\n      0xffffffffffffffffffffffffffffffffffffffff\n      and\n      dup2\n      jump\t// out\n        /* \"Membership.sol\":1243:1534  function safeTransfer(address token, address to, uint value) internal {... */\n    tag_146:\n        /* \"Membership.sol\":1324:1336  bool success */\n      0x00\n        /* \"Membership.sol\":1338:1355  bytes memory data */\n      dup1\n        /* \"Membership.sol\":1359:1364  token */\n      dup5\n        /* \"Membership.sol\":1359:1369  token.call */\n      0xffffffffffffffffffffffffffffffffffffffff\n      and\n        /* \"Membership.sol\":1393:1403  0xa9059cbb */\n      0xa9059cbb\n        /* \"Membership.sol\":1405:1407  to */\n      dup6\n        /* \"Membership.sol\":1409:1414  value */\n      dup6\n        /* \"Membership.sol\":1370:1415  abi.encodeWithSelector(0xa9059cbb, to, value) */\n      add(0x24, mload(0x40))\n      tag_231\n      swap3\n      swap2\n      swap1\n      tag_232\n      jump\t// in\n    tag_231:\n      mload(0x40)\n      0x20\n      dup2\n      dup4\n      sub\n      sub\n      dup2\n      mstore\n      swap1\n      0x40\n      mstore\n      swap1\n      0xe0\n      shl\n      0x20\n      dup3\n      add\n      dup1\n      mload\n      0xffffffffffffffffffffffffffffffffffffffffffffffffffffffff\n      dup4\n      dup2\n      dup4\n      and\n      or\n      dup4\n      mstore\n      pop\n      pop\n      pop\n      pop\n        /* \"Membership.sol\":1359:1416  token.call(abi.encodeWithSelector(0xa9059cbb, to, value)) */\n      mload(0x40)\n      tag_233\n      swap2\n      swap1\n      tag_234\n      jump\t// in\n    tag_233:\n      0x00\n      mload(0x40)\n      dup1\n      dup4\n      sub\n      dup2\n      0x00\n      dup7\n      gas\n      call\n      swap2\n      pop\n      pop\n      returndatasize\n      dup1\n      0x00\n      dup2\n      eq\n      tag_237\n      jumpi\n      mload(0x40)\n      swap2\n      pop\n      and(add(returndatasize, 0x3f), not(0x1f))\n      dup3\n      add\n      0x40\n      mstore\n      returndatasize\n      dup3\n      mstore\n      returndatasize\n      0x00\n      0x20\n      dup5\n      add\n      returndatacopy\n      jump(tag_236)\n    tag_237:\n      0x60\n      swap2\n      pop\n    tag_236:\n      pop\n        /* \"Membership.sol\":1323:1416  (bool success, bytes memory data) = token.call(abi.encodeWithSelector(0xa9059cbb, to, value)) */\n      swap2\n      pop\n      swap2\n      pop\n        /* \"Membership.sol\":1434:1441  success */\n      dup2\n        /* \"Membership.sol\":1434:1491  success && (data.length == 0 || abi.decode(data, (bool))) */\n      dup1\n      iszero\n      tag_238\n      jumpi\n      pop\n        /* \"Membership.sol\":1461:1462  0 */\n      0x00\n        /* \"Membership.sol\":1446:1450  data */\n      dup2\n        /* \"Membership.sol\":1446:1457  data.length */\n      mload\n        /* \"Membership.sol\":1446:1462  data.length == 0 */\n      eq\n        /* \"Membership.sol\":1446:1490  data.length == 0 || abi.decode(data, (bool)) */\n      dup1\n      tag_239\n      jumpi\n      pop\n        /* \"Membership.sol\":1477:1481  data */\n      dup1\n        /* \"Membership.sol\":1466:1490  abi.decode(data, (bool)) */\n      dup1\n      0x20\n      add\n      swap1\n      mload\n      dup2\n      add\n      swap1\n      tag_240\n      swap2\n      swap1\n      tag_241\n      jump\t// in\n    tag_240:\n        /* \"Membership.sol\":1446:1490  data.length == 0 || abi.decode(data, (bool)) */\n    tag_239:\n        /* \"Membership.sol\":1434:1491  success && (data.length == 0 || abi.decode(data, (bool))) */\n    tag_238:\n        /* \"Membership.sol\":1426:1527  require(success && (data.length == 0 || abi.decode(data, (bool))), 'TransferHelper: TRANSFER_FAILED') */\n      tag_242\n      jumpi\n      mload(0x40)\n      0x08c379a000000000000000000000000000000000000000000000000000000000\n      dup2\n      mstore\n      0x04\n      add\n      tag_243\n      swap1\n      tag_244\n      jump\t// in\n    tag_243:\n      mload(0x40)\n      dup1\n      swap2\n      sub\n      swap1\n      revert\n    tag_242:\n        /* \"Membership.sol\":1313:1534  {... */\n      pop\n      pop\n        /* \"Membership.sol\":1243:1534  function safeTransfer(address token, address to, uint value) internal {... */\n      pop\n      pop\n      pop\n      jump\t// out\n        /* \"Membership.sol\":3374:3761  function getReserves(address factory, address tokenA, address tokenB) internal view returns (uint reserveA, uint reserveB) {... */\n    tag_149:\n        /* \"Membership.sol\":3467:3480  uint reserveA */\n      0x00\n        /* \"Membership.sol\":3482:3495  uint reserveB */\n      dup1\n        /* \"Membership.sol\":3508:3522  address token0 */\n      0x00\n        /* \"Membership.sol\":3527:3553  sortTokens(tokenA, tokenB) */\n      tag_246\n        /* \"Membership.sol\":3538:3544  tokenA */\n      dup6\n        /* \"Membership.sol\":3546:3552  tokenB */\n      dup6\n        /* \"Membership.sol\":3527:3537  sortTokens */\n      tag_247\n        /* \"Membership.sol\":3527:3553  sortTokens(tokenA, tokenB) */\n      jump\t// in\n    tag_246:\n        /* \"Membership.sol\":3507:3553  (address token0,) = sortTokens(tokenA, tokenB) */\n      pop\n      swap1\n      pop\n        /* \"Membership.sol\":3564:3577  uint reserve0 */\n      0x00\n        /* \"Membership.sol\":3579:3592  uint reserve1 */\n      dup1\n        /* \"Membership.sol\":3612:3644  pairFor(factory, tokenA, tokenB) */\n      tag_248\n        /* \"Membership.sol\":3620:3627  factory */\n      dup9\n        /* \"Membership.sol\":3629:3635  tokenA */\n      dup9\n        /* \"Membership.sol\":3637:3643  tokenB */\n      dup9\n        /* \"Membership.sol\":3612:3619  pairFor */\n      tag_249\n        /* \"Membership.sol\":3612:3644  pairFor(factory, tokenA, tokenB) */\n      jump\t// in\n    tag_248:\n        /* \"Membership.sol\":3597:3657  IUniswapV2Pair(pairFor(factory, tokenA, tokenB)).getReserves */\n      0xffffffffffffffffffffffffffffffffffffffff\n      and\n      0x0902f1ac\n        /* \"Membership.sol\":3597:3659  IUniswapV2Pair(pairFor(factory, tokenA, tokenB)).getReserves() */\n      mload(0x40)\n      dup2\n      0xffffffff\n      and\n      0xe0\n      shl\n      dup2\n      mstore\n      0x04\n      add\n      0x60\n      mload(0x40)\n      dup1\n      dup4\n      sub\n      dup2\n      dup7\n      gas\n      staticcall\n      iszero\n      dup1\n      iszero\n      tag_251\n      jumpi\n      returndatasize\n      0x00\n      dup1\n      returndatacopy\n      revert(0x00, returndatasize)\n    tag_251:\n      pop\n      pop\n      pop\n      pop\n      mload(0x40)\n      returndatasize\n      not(0x1f)\n      0x1f\n      dup3\n      add\n      and\n      dup3\n      add\n      dup1\n      0x40\n      mstore\n      pop\n      dup2\n      add\n      swap1\n      tag_252\n      swap2\n      swap1\n      tag_253\n      jump\t// in\n    tag_252:\n        /* \"Membership.sol\":3563:3659  (uint reserve0, uint reserve1,) = IUniswapV2Pair(pairFor(factory, tokenA, tokenB)).getReserves() */\n      pop\n      0xffffffffffffffffffffffffffff\n      and\n      swap2\n      pop\n      0xffffffffffffffffffffffffffff\n      and\n      swap2\n      pop\n        /* \"Membership.sol\":3702:3708  token0 */\n      dup3\n        /* \"Membership.sol\":3692:3708  tokenA == token0 */\n      0xffffffffffffffffffffffffffffffffffffffff\n      and\n        /* \"Membership.sol\":3692:3698  tokenA */\n      dup8\n        /* \"Membership.sol\":3692:3708  tokenA == token0 */\n      0xffffffffffffffffffffffffffffffffffffffff\n      and\n      eq\n        /* \"Membership.sol\":3692:3754  tokenA == token0 ? (reserve0, reserve1) : (reserve1, reserve0) */\n      tag_254\n      jumpi\n        /* \"Membership.sol\":3735:3743  reserve1 */\n      dup1\n        /* \"Membership.sol\":3745:3753  reserve0 */\n      dup3\n        /* \"Membership.sol\":3692:3754  tokenA == token0 ? (reserve0, reserve1) : (reserve1, reserve0) */\n      jump(tag_255)\n    tag_254:\n        /* \"Membership.sol\":3712:3720  reserve0 */\n      dup2\n        /* \"Membership.sol\":3722:3730  reserve1 */\n      dup2\n        /* \"Membership.sol\":3692:3754  tokenA == token0 ? (reserve0, reserve1) : (reserve1, reserve0) */\n    tag_255:\n        /* \"Membership.sol\":3669:3754  (reserveA, reserveB) = tokenA == token0 ? (reserve0, reserve1) : (reserve1, reserve0) */\n      dup1\n      swap6\n      pop\n      dup2\n      swap7\n      pop\n      pop\n      pop\n        /* \"Membership.sol\":3497:3761  {... */\n      pop\n      pop\n      pop\n        /* \"Membership.sol\":3374:3761  function getReserves(address factory, address tokenA, address tokenB) internal view returns (uint reserveA, uint reserveB) {... */\n      swap4\n      pop\n      swap4\n      swap2\n      pop\n      pop\n      jump\t// out\n        /* \"Membership.sol\":3767:4277  function getAmountOut(uint amountIn, uint reserveIn, uint reserveOut) internal pure returns (uint amountOut) {... */\n    tag_151:\n        /* \"Membership.sol\":3860:3874  uint amountOut */\n      0x00\n        /* \"Membership.sol\":3905:3906  0 */\n      dup1\n        /* \"Membership.sol\":3894:3902  amountIn */\n      dup5\n        /* \"Membership.sol\":3894:3906  amountIn > 0 */\n      gt\n        /* \"Membership.sol\":3886:3954  require(amountIn > 0, 'UniswapV2Library: INSUFFICIENT_INPUT_AMOUNT') */\n      tag_257\n      jumpi\n      mload(0x40)\n      0x08c379a000000000000000000000000000000000000000000000000000000000\n      dup2\n      mstore\n      0x04\n      add\n      tag_258\n      swap1\n      tag_259\n      jump\t// in\n    tag_258:\n      mload(0x40)\n      dup1\n      swap2\n      sub\n      swap1\n      revert\n    tag_257:\n        /* \"Membership.sol\":3984:3985  0 */\n      0x00\n        /* \"Membership.sol\":3972:3981  reserveIn */\n      dup4\n        /* \"Membership.sol\":3972:3985  reserveIn > 0 */\n      gt\n        /* \"Membership.sol\":3972:4003  reserveIn > 0 && reserveOut > 0 */\n      dup1\n      iszero\n      tag_260\n      jumpi\n      pop\n        /* \"Membership.sol\":4002:4003  0 */\n      0x00\n        /* \"Membership.sol\":3989:3999  reserveOut */\n      dup3\n        /* \"Membership.sol\":3989:4003  reserveOut > 0 */\n      gt\n        /* \"Membership.sol\":3972:4003  reserveIn > 0 && reserveOut > 0 */\n    tag_260:\n        /* \"Membership.sol\":3964:4048  require(reserveIn > 0 && reserveOut > 0, 'UniswapV2Library: INSUFFICIENT_LIQUIDITY') */\n      tag_261\n      jumpi\n      mload(0x40)\n      0x08c379a000000000000000000000000000000000000000000000000000000000\n      dup2\n      mstore\n      0x04\n      add\n      tag_262\n      swap1\n      tag_263\n      jump\t// in\n    tag_262:\n      mload(0x40)\n      dup1\n      swap2\n      sub\n      swap1\n      revert\n    tag_261:\n        /* \"Membership.sol\":4058:4078  uint amountInWithFee */\n      0x00\n        /* \"Membership.sol\":4081:4098  amountIn.mul(997) */\n      tag_264\n        /* \"Membership.sol\":4094:4097  997 */\n      0x03e5\n        /* \"Membership.sol\":4081:4089  amountIn */\n      dup7\n        /* \"Membership.sol\":4081:4093  amountIn.mul */\n      tag_265\n      swap1\n        /* \"Membership.sol\":4081:4098  amountIn.mul(997) */\n      swap2\n      swap1\n      0xffffffff\n      and\n      jump\t// in\n    tag_264:\n        /* \"Membership.sol\":4058:4098  uint amountInWithFee = amountIn.mul(997) */\n      swap1\n      pop\n        /* \"Membership.sol\":4108:4122  uint numerator */\n      0x00\n        /* \"Membership.sol\":4125:4156  amountInWithFee.mul(reserveOut) */\n      tag_266\n        /* \"Membership.sol\":4145:4155  reserveOut */\n      dup5\n        /* \"Membership.sol\":4125:4140  amountInWithFee */\n      dup4\n        /* \"Membership.sol\":4125:4144  amountInWithFee.mul */\n      tag_265\n      swap1\n        /* \"Membership.sol\":4125:4156  amountInWithFee.mul(reserveOut) */\n      swap2\n      swap1\n      0xffffffff\n      and\n      jump\t// in\n    tag_266:\n        /* \"Membership.sol\":4108:4156  uint numerator = amountInWithFee.mul(reserveOut) */\n      swap1\n      pop\n        /* \"Membership.sol\":4166:4182  uint denominator */\n      0x00\n        /* \"Membership.sol\":4185:4225  reserveIn.mul(1000).add(amountInWithFee) */\n      tag_267\n        /* \"Membership.sol\":4209:4224  amountInWithFee */\n      dup4\n        /* \"Membership.sol\":4185:4204  reserveIn.mul(1000) */\n      tag_268\n        /* \"Membership.sol\":4199:4203  1000 */\n      0x03e8\n        /* \"Membership.sol\":4185:4194  reserveIn */\n      dup10\n        /* \"Membership.sol\":4185:4198  reserveIn.mul */\n      tag_265\n      swap1\n        /* \"Membership.sol\":4185:4204  reserveIn.mul(1000) */\n      swap2\n      swap1\n      0xffffffff\n      and\n      jump\t// in\n    tag_268:\n        /* \"Membership.sol\":4185:4208  reserveIn.mul(1000).add */\n      tag_269\n      swap1\n        /* \"Membership.sol\":4185:4225  reserveIn.mul(1000).add(amountInWithFee) */\n      swap2\n      swap1\n      0xffffffff\n      and\n      jump\t// in\n    tag_267:\n        /* \"Membership.sol\":4166:4225  uint denominator = reserveIn.mul(1000).add(amountInWithFee) */\n      swap1\n      pop\n        /* \"Membership.sol\":4259:4270  denominator */\n      dup1\n        /* \"Membership.sol\":4247:4256  numerator */\n      dup3\n        /* \"Membership.sol\":4247:4270  numerator / denominator */\n      tag_270\n      swap2\n      swap1\n      tag_182\n      jump\t// in\n    tag_270:\n        /* \"Membership.sol\":4235:4270  amountOut = numerator / denominator */\n      swap4\n      pop\n        /* \"Membership.sol\":3876:4277  {... */\n      pop\n      pop\n      pop\n        /* \"Membership.sol\":3767:4277  function getAmountOut(uint amountIn, uint reserveIn, uint reserveOut) internal pure returns (uint amountOut) {... */\n      swap4\n      swap3\n      pop\n      pop\n      pop\n      jump\t// out\n        /* \"Membership.sol\":1540:1860  function safeTransferFrom(address token, address from, address to, uint value) internal {... */\n    tag_188:\n        /* \"Membership.sol\":1639:1651  bool success */\n      0x00\n        /* \"Membership.sol\":1653:1670  bytes memory data */\n      dup1\n        /* \"Membership.sol\":1674:1679  token */\n      dup6\n        /* \"Membership.sol\":1674:1684  token.call */\n      0xffffffffffffffffffffffffffffffffffffffff\n      and\n        /* \"Membership.sol\":1708:1718  0x23b872dd */\n      0x23b872dd\n        /* \"Membership.sol\":1720:1724  from */\n      dup7\n        /* \"Membership.sol\":1726:1728  to */\n      dup7\n        /* \"Membership.sol\":1730:1735  value */\n      dup7\n        /* \"Membership.sol\":1685:1736  abi.encodeWithSelector(0x23b872dd, from, to, value) */\n      add(0x24, mload(0x40))\n      tag_272\n      swap4\n      swap3\n      swap2\n      swap1\n      tag_273\n      jump\t// in\n    tag_272:\n      mload(0x40)\n      0x20\n      dup2\n      dup4\n      sub\n      sub\n      dup2\n      mstore\n      swap1\n      0x40\n      mstore\n      swap1\n      0xe0\n      shl\n      0x20\n      dup3\n      add\n      dup1\n      mload\n      0xffffffffffffffffffffffffffffffffffffffffffffffffffffffff\n      dup4\n      dup2\n      dup4\n      and\n      or\n      dup4\n      mstore\n      pop\n      pop\n      pop\n      pop\n        /* \"Membership.sol\":1674:1737  token.call(abi.encodeWithSelector(0x23b872dd, from, to, value)) */\n      mload(0x40)\n      tag_274\n      swap2\n      swap1\n      tag_234\n      jump\t// in\n    tag_274:\n      0x00\n      mload(0x40)\n      dup1\n      dup4\n      sub\n      dup2\n      0x00\n      dup7\n      gas\n      call\n      swap2\n      pop\n      pop\n      returndatasize\n      dup1\n      0x00\n      dup2\n      eq\n      tag_277\n      jumpi\n      mload(0x40)\n      swap2\n      pop\n      and(add(returndatasize, 0x3f), not(0x1f))\n      dup3\n      add\n      0x40\n      mstore\n      returndatasize\n      dup3\n      mstore\n      returndatasize\n      0x00\n      0x20\n      dup5\n      add\n      returndatacopy\n      jump(tag_276)\n    tag_277:\n      0x60\n      swap2\n      pop\n    tag_276:\n      pop\n        /* \"Membership.sol\":1638:1737  (bool success, bytes memory data) = token.call(abi.encodeWithSelector(0x23b872dd, from, to, value)) */\n      swap2\n      pop\n      swap2\n      pop\n        /* \"Membership.sol\":1755:1762  success */\n      dup2\n        /* \"Membership.sol\":1755:1812  success && (data.length == 0 || abi.decode(data, (bool))) */\n      dup1\n      iszero\n      tag_278\n      jumpi\n      pop\n        /* \"Membership.sol\":1782:1783  0 */\n      0x00\n        /* \"Membership.sol\":1767:1771  data */\n      dup2\n        /* \"Membership.sol\":1767:1778  data.length */\n      mload\n        /* \"Membership.sol\":1767:1783  data.length == 0 */\n      eq\n        /* \"Membership.sol\":1767:1811  data.length == 0 || abi.decode(data, (bool)) */\n      dup1\n      tag_279\n      jumpi\n      pop\n        /* \"Membership.sol\":1798:1802  data */\n      dup1\n        /* \"Membership.sol\":1787:1811  abi.decode(data, (bool)) */\n      dup1\n      0x20\n      add\n      swap1\n      mload\n      dup2\n      add\n      swap1\n      tag_280\n      swap2\n      swap1\n      tag_241\n      jump\t// in\n    tag_280:\n        /* \"Membership.sol\":1767:1811  data.length == 0 || abi.decode(data, (bool)) */\n    tag_279:\n        /* \"Membership.sol\":1755:1812  success && (data.length == 0 || abi.decode(data, (bool))) */\n    tag_278:\n        /* \"Membership.sol\":1747:1853  require(success && (data.length == 0 || abi.decode(data, (bool))), 'TransferHelper: TRANSFER_FROM_FAILED') */\n      tag_281\n      jumpi\n      mload(0x40)\n      0x08c379a000000000000000000000000000000000000000000000000000000000\n      dup2\n      mstore\n      0x04\n      add\n      tag_282\n      swap1\n      tag_283\n      jump\t// in\n    tag_282:\n      mload(0x40)\n      dup1\n      swap2\n      sub\n      swap1\n      revert\n    tag_281:\n        /* \"Membership.sol\":1628:1860  {... */\n      pop\n      pop\n        /* \"Membership.sol\":1540:1860  function safeTransferFrom(address token, address from, address to, uint value) internal {... */\n      pop\n      pop\n      pop\n      pop\n      jump\t// out\n        /* \"Membership.sol\":7859:9292  function updateInviter(address _user,uint256 _amount) internal {... */\n    tag_197:\n        /* \"Membership.sol\":7932:7947  address _direct */\n      0x00\n        /* \"Membership.sol\":7950:7958  userInfo */\n      0x02\n        /* \"Membership.sol\":7950:7965  userInfo[_user] */\n      0x00\n        /* \"Membership.sol\":7959:7964  _user */\n      dup5\n        /* \"Membership.sol\":7950:7965  userInfo[_user] */\n      0xffffffffffffffffffffffffffffffffffffffff\n      and\n      0xffffffffffffffffffffffffffffffffffffffff\n      and\n      dup2\n      mstore\n      0x20\n      add\n      swap1\n      dup2\n      mstore\n      0x20\n      add\n      0x00\n      keccak256\n        /* \"Membership.sol\":7950:7973  userInfo[_user].inviter */\n      0x00\n      add\n      0x02\n      swap1\n      sload\n      swap1\n      0x0100\n      exp\n      swap1\n      div\n      0xffffffffffffffffffffffffffffffffffffffff\n      and\n        /* \"Membership.sol\":7932:7973  address _direct = userInfo[_user].inviter */\n      swap1\n      pop\n        /* \"Membership.sol\":7983:8002  User storage direct */\n      0x00\n        /* \"Membership.sol\":8005:8013  userInfo */\n      0x02\n        /* \"Membership.sol\":8005:8022  userInfo[_direct] */\n      0x00\n        /* \"Membership.sol\":8014:8021  _direct */\n      dup4\n        /* \"Membership.sol\":8005:8022  userInfo[_direct] */\n      0xffffffffffffffffffffffffffffffffffffffff\n      and\n      0xffffffffffffffffffffffffffffffffffffffff\n      and\n      dup2\n      mstore\n      0x20\n      add\n      swap1\n      dup2\n      mstore\n      0x20\n      add\n      0x00\n      keccak256\n        /* \"Membership.sol\":7983:8022  User storage direct = userInfo[_direct] */\n      swap1\n      pop\n        /* \"Membership.sol\":8053:8054  1 */\n      0x01\n        /* \"Membership.sol\":8032:8038  direct */\n      dup2\n        /* \"Membership.sol\":8032:8049  direct.invitesNum */\n      0x02\n      add\n      0x00\n        /* \"Membership.sol\":8032:8054  direct.invitesNum += 1 */\n      dup3\n      dup3\n      sload\n      tag_285\n      swap2\n      swap1\n      tag_286\n      jump\t// in\n    tag_285:\n      swap3\n      pop\n      pop\n      dup2\n      swap1\n      sstore\n      pop\n        /* \"Membership.sol\":8064:8070  direct */\n      dup1\n        /* \"Membership.sol\":8064:8078  direct.members */\n      0x04\n      add\n        /* \"Membership.sol\":8084:8089  _user */\n      dup5\n        /* \"Membership.sol\":8064:8090  direct.members.push(_user) */\n      swap1\n      dup1\n      0x01\n      dup2\n      sload\n      add\n      dup1\n      dup3\n      sstore\n      dup1\n      swap2\n      pop\n      pop\n      0x01\n      swap1\n      sub\n      swap1\n      0x00\n      mstore\n      keccak256(0x00, 0x20)\n      add\n      0x00\n      swap1\n      swap2\n      swap1\n      swap2\n      swap1\n      swap2\n      0x0100\n      exp\n      dup2\n      sload\n      dup2\n      0xffffffffffffffffffffffffffffffffffffffff\n      mul\n      not\n      and\n      swap1\n      dup4\n      0xffffffffffffffffffffffffffffffffffffffff\n      and\n      mul\n      or\n      swap1\n      sstore\n      pop\n        /* \"Membership.sol\":8124:8125  3 */\n      0x03\n        /* \"Membership.sol\":8103:8109  direct */\n      dup2\n        /* \"Membership.sol\":8103:8120  direct.invitesNum */\n      0x02\n      add\n      sload\n        /* \"Membership.sol\":8103:8125  direct.invitesNum >= 3 */\n      lt\n      iszero\n        /* \"Membership.sol\":8103:8143  direct.invitesNum >= 3 && !direct.isVips */\n      dup1\n      iszero\n      tag_288\n      jumpi\n      pop\n        /* \"Membership.sol\":8130:8136  direct */\n      dup1\n        /* \"Membership.sol\":8130:8143  direct.isVips */\n      0x00\n      add\n      0x01\n      swap1\n      sload\n      swap1\n      0x0100\n      exp\n      swap1\n      div\n      0xff\n      and\n        /* \"Membership.sol\":8129:8143  !direct.isVips */\n      iszero\n        /* \"Membership.sol\":8103:8143  direct.invitesNum >= 3 && !direct.isVips */\n    tag_288:\n        /* \"Membership.sol\":8100:8165  if(direct.invitesNum >= 3 && !direct.isVips) direct.isVips = true */\n      iszero\n      tag_289\n      jumpi\n        /* \"Membership.sol\":8161:8165  true */\n      0x01\n        /* \"Membership.sol\":8145:8151  direct */\n      dup2\n        /* \"Membership.sol\":8145:8158  direct.isVips */\n      0x00\n      add\n      0x01\n        /* \"Membership.sol\":8145:8165  direct.isVips = true */\n      0x0100\n      exp\n      dup2\n      sload\n      dup2\n      0xff\n      mul\n      not\n      and\n      swap1\n      dup4\n      iszero\n      iszero\n      mul\n      or\n      swap1\n      sstore\n      pop\n        /* \"Membership.sol\":8100:8165  if(direct.invitesNum >= 3 && !direct.isVips) direct.isVips = true */\n    tag_289:\n        /* \"Membership.sol\":8242:8245  100 */\n      0x64\n        /* \"Membership.sol\":8237:8239  20 */\n      0x14\n        /* \"Membership.sol\":8227:8234  _amount */\n      dup5\n        /* \"Membership.sol\":8227:8239  _amount * 20 */\n      tag_290\n      swap2\n      swap1\n      tag_180\n      jump\t// in\n    tag_290:\n        /* \"Membership.sol\":8227:8245  _amount * 20 / 100 */\n      tag_291\n      swap2\n      swap1\n      tag_182\n      jump\t// in\n    tag_291:\n        /* \"Membership.sol\":8201:8207  direct */\n      dup2\n        /* \"Membership.sol\":8201:8223  direct.totalTeamReward */\n      0x03\n      add\n      sload\n        /* \"Membership.sol\":8201:8246  direct.totalTeamReward + (_amount * 20 / 100) */\n      tag_292\n      swap2\n      swap1\n      tag_286\n      jump\t// in\n    tag_292:\n        /* \"Membership.sol\":8177:8183  direct */\n      dup2\n        /* \"Membership.sol\":8177:8199  direct.totalTeamReward */\n      0x03\n      add\n        /* \"Membership.sol\":8177:8246  direct.totalTeamReward= direct.totalTeamReward + (_amount * 20 / 100) */\n      dup2\n      swap1\n      sstore\n      pop\n        /* \"Membership.sol\":8256:8267  teamRewards */\n      0x03\n        /* \"Membership.sol\":8256:8276  teamRewards[_direct] */\n      0x00\n        /* \"Membership.sol\":8268:8275  _direct */\n      dup4\n        /* \"Membership.sol\":8256:8276  teamRewards[_direct] */\n      0xffffffffffffffffffffffffffffffffffffffff\n      and\n      0xffffffffffffffffffffffffffffffffffffffff\n      and\n      dup2\n      mstore\n      0x20\n      add\n      swap1\n      dup2\n      mstore\n      0x20\n      add\n      0x00\n      keccak256\n        /* \"Membership.sol\":8282:8352  TeamReward(_user, _amount * 20 / 100, block.timestamp, Express.direct) */\n      mload(0x40)\n      dup1\n      0x80\n      add\n      0x40\n      mstore\n      dup1\n        /* \"Membership.sol\":8293:8298  _user */\n      dup7\n        /* \"Membership.sol\":8282:8352  TeamReward(_user, _amount * 20 / 100, block.timestamp, Express.direct) */\n      0xffffffffffffffffffffffffffffffffffffffff\n      and\n      dup2\n      mstore\n      0x20\n      add\n        /* \"Membership.sol\":8315:8318  100 */\n      0x64\n        /* \"Membership.sol\":8310:8312  20 */\n      0x14\n        /* \"Membership.sol\":8300:8307  _amount */\n      dup8\n        /* \"Membership.sol\":8300:8312  _amount * 20 */\n      tag_293\n      swap2\n      swap1\n      tag_180\n      jump\t// in\n    tag_293:\n        /* \"Membership.sol\":8300:8318  _amount * 20 / 100 */\n      tag_294\n      swap2\n      swap1\n      tag_182\n      jump\t// in\n    tag_294:\n        /* \"Membership.sol\":8282:8352  TeamReward(_user, _amount * 20 / 100, block.timestamp, Express.direct) */\n      dup2\n      mstore\n      0x20\n      add\n        /* \"Membership.sol\":8320:8335  block.timestamp */\n      timestamp\n        /* \"Membership.sol\":8282:8352  TeamReward(_user, _amount * 20 / 100, block.timestamp, Express.direct) */\n      dup2\n      mstore\n      0x20\n      add\n        /* \"Membership.sol\":8337:8351  Express.direct */\n      0x00\n        /* \"Membership.sol\":8282:8352  TeamReward(_user, _amount * 20 / 100, block.timestamp, Express.direct) */\n      0x02\n      dup2\n      gt\n      iszero\n      tag_295\n      jumpi\n      tag_296\n      tag_227\n      jump\t// in\n    tag_296:\n    tag_295:\n      dup2\n      mstore\n      pop\n        /* \"Membership.sol\":8256:8353  teamRewards[_direct].push(TeamReward(_user, _amount * 20 / 100, block.timestamp, Express.direct)) */\n      swap1\n      dup1\n      0x01\n      dup2\n      sload\n      add\n      dup1\n      dup3\n      sstore\n      dup1\n      swap2\n      pop\n      pop\n      0x01\n      swap1\n      sub\n      swap1\n      0x00\n      mstore\n      keccak256(0x00, 0x20)\n      swap1\n      0x04\n      mul\n      add\n      0x00\n      swap1\n      swap2\n      swap1\n      swap2\n      swap1\n      swap2\n      pop\n      0x00\n      dup3\n      add\n      mload\n      dup2\n      0x00\n      add\n      exp(0x0100, 0x00)\n      dup2\n      sload\n      dup2\n      0xffffffffffffffffffffffffffffffffffffffff\n      mul\n      not\n      and\n      swap1\n      dup4\n      0xffffffffffffffffffffffffffffffffffffffff\n      and\n      mul\n      or\n      swap1\n      sstore\n      pop\n      0x20\n      dup3\n      add\n      mload\n      dup2\n      0x01\n      add\n      sstore\n      0x40\n      dup3\n      add\n      mload\n      dup2\n      0x02\n      add\n      sstore\n      0x60\n      dup3\n      add\n      mload\n      dup2\n      0x03\n      add\n      exp(0x0100, 0x00)\n      dup2\n      sload\n      dup2\n      0xff\n      mul\n      not\n      and\n      swap1\n      dup4\n      0x02\n      dup2\n      gt\n      iszero\n      tag_298\n      jumpi\n      tag_299\n      tag_227\n      jump\t// in\n    tag_299:\n    tag_298:\n      mul\n      or\n      swap1\n      sstore\n      pop\n      pop\n      pop\n        /* \"Membership.sol\":8367:8373  direct */\n      dup1\n        /* \"Membership.sol\":8367:8380  direct.isVips */\n      0x00\n      add\n      0x01\n      swap1\n      sload\n      swap1\n      0x0100\n      exp\n      swap1\n      div\n      0xff\n      and\n        /* \"Membership.sol\":8364:9286  if(direct.isVips){... */\n      iszero\n      tag_300\n      jumpi\n        /* \"Membership.sol\":8461:8464  100 */\n      0x64\n        /* \"Membership.sol\":8456:8458  40 */\n      0x28\n        /* \"Membership.sol\":8446:8453  _amount */\n      dup5\n        /* \"Membership.sol\":8446:8458  _amount * 40 */\n      tag_301\n      swap2\n      swap1\n      tag_180\n      jump\t// in\n    tag_301:\n        /* \"Membership.sol\":8446:8464  _amount * 40 / 100 */\n      tag_302\n      swap2\n      swap1\n      tag_182\n      jump\t// in\n    tag_302:\n        /* \"Membership.sol\":8420:8426  direct */\n      dup2\n        /* \"Membership.sol\":8420:8442  direct.totalTeamReward */\n      0x03\n      add\n      sload\n        /* \"Membership.sol\":8420:8465  direct.totalTeamReward + (_amount * 40 / 100) */\n      tag_303\n      swap2\n      swap1\n      tag_286\n      jump\t// in\n    tag_303:\n        /* \"Membership.sol\":8395:8401  direct */\n      dup2\n        /* \"Membership.sol\":8395:8417  direct.totalTeamReward */\n      0x03\n      add\n        /* \"Membership.sol\":8395:8465  direct.totalTeamReward = direct.totalTeamReward + (_amount * 40 / 100) */\n      dup2\n      swap1\n      sstore\n      pop\n        /* \"Membership.sol\":8479:8490  teamRewards */\n      0x03\n        /* \"Membership.sol\":8479:8499  teamRewards[_direct] */\n      0x00\n        /* \"Membership.sol\":8491:8498  _direct */\n      dup4\n        /* \"Membership.sol\":8479:8499  teamRewards[_direct] */\n      0xffffffffffffffffffffffffffffffffffffffff\n      and\n      0xffffffffffffffffffffffffffffffffffffffff\n      and\n      dup2\n      mstore\n      0x20\n      add\n      swap1\n      dup2\n      mstore\n      0x20\n      add\n      0x00\n      keccak256\n        /* \"Membership.sol\":8505:8573  TeamReward(_user, _amount * 40 / 100, block.timestamp, Express.vips) */\n      mload(0x40)\n      dup1\n      0x80\n      add\n      0x40\n      mstore\n      dup1\n        /* \"Membership.sol\":8516:8521  _user */\n      dup7\n        /* \"Membership.sol\":8505:8573  TeamReward(_user, _amount * 40 / 100, block.timestamp, Express.vips) */\n      0xffffffffffffffffffffffffffffffffffffffff\n      and\n      dup2\n      mstore\n      0x20\n      add\n        /* \"Membership.sol\":8538:8541  100 */\n      0x64\n        /* \"Membership.sol\":8533:8535  40 */\n      0x28\n        /* \"Membership.sol\":8523:8530  _amount */\n      dup8\n        /* \"Membership.sol\":8523:8535  _amount * 40 */\n      tag_304\n      swap2\n      swap1\n      tag_180\n      jump\t// in\n    tag_304:\n        /* \"Membership.sol\":8523:8541  _amount * 40 / 100 */\n      tag_305\n      swap2\n      swap1\n      tag_182\n      jump\t// in\n    tag_305:\n        /* \"Membership.sol\":8505:8573  TeamReward(_user, _amount * 40 / 100, block.timestamp, Express.vips) */\n      dup2\n      mstore\n      0x20\n      add\n        /* \"Membership.sol\":8543:8558  block.timestamp */\n      timestamp\n        /* \"Membership.sol\":8505:8573  TeamReward(_user, _amount * 40 / 100, block.timestamp, Express.vips) */\n      dup2\n      mstore\n      0x20\n      add\n        /* \"Membership.sol\":8560:8572  Express.vips */\n      0x01\n        /* \"Membership.sol\":8505:8573  TeamReward(_user, _amount * 40 / 100, block.timestamp, Express.vips) */\n      0x02\n      dup2\n      gt\n      iszero\n      tag_306\n      jumpi\n      tag_307\n      tag_227\n      jump\t// in\n    tag_307:\n    tag_306:\n      dup2\n      mstore\n      pop\n        /* \"Membership.sol\":8479:8574  teamRewards[_direct].push(TeamReward(_user, _amount * 40 / 100, block.timestamp, Express.vips)) */\n      swap1\n      dup1\n      0x01\n      dup2\n      sload\n      add\n      dup1\n      dup3\n      sstore\n      dup1\n      swap2\n      pop\n      pop\n      0x01\n      swap1\n      sub\n      swap1\n      0x00\n      mstore\n      keccak256(0x00, 0x20)\n      swap1\n      0x04\n      mul\n      add\n      0x00\n      swap1\n      swap2\n      swap1\n      swap2\n      swap1\n      swap2\n      pop\n      0x00\n      dup3\n      add\n      mload\n      dup2\n      0x00\n      add\n      exp(0x0100, 0x00)\n      dup2\n      sload\n      dup2\n      0xffffffffffffffffffffffffffffffffffffffff\n      mul\n      not\n      and\n      swap1\n      dup4\n      0xffffffffffffffffffffffffffffffffffffffff\n      and\n      mul\n      or\n      swap1\n      sstore\n      pop\n      0x20\n      dup3\n      add\n      mload\n      dup2\n      0x01\n      add\n      sstore\n      0x40\n      dup3\n      add\n      mload\n      dup2\n      0x02\n      add\n      sstore\n      0x60\n      dup3\n      add\n      mload\n      dup2\n      0x03\n      add\n      exp(0x0100, 0x00)\n      dup2\n      sload\n      dup2\n      0xff\n      mul\n      not\n      and\n      swap1\n      dup4\n      0x02\n      dup2\n      gt\n      iszero\n      tag_309\n      jumpi\n      tag_310\n      tag_227\n      jump\t// in\n    tag_310:\n    tag_309:\n      mul\n      or\n      swap1\n      sstore\n      pop\n      pop\n      pop\n        /* \"Membership.sol\":8589:8605  address _degrees */\n      0x00\n        /* \"Membership.sol\":8608:8614  direct */\n      dup2\n        /* \"Membership.sol\":8608:8622  direct.inviter */\n      0x00\n      add\n      0x02\n      swap1\n      sload\n      swap1\n      0x0100\n      exp\n      swap1\n      div\n      0xffffffffffffffffffffffffffffffffffffffff\n      and\n        /* \"Membership.sol\":8589:8622  address _degrees = direct.inviter */\n      swap1\n      pop\n        /* \"Membership.sol\":8659:8660  0 */\n      0x00\n        /* \"Membership.sol\":8639:8661  _degrees != address(0) */\n      0xffffffffffffffffffffffffffffffffffffffff\n      and\n        /* \"Membership.sol\":8639:8647  _degrees */\n      dup2\n        /* \"Membership.sol\":8639:8661  _degrees != address(0) */\n      0xffffffffffffffffffffffffffffffffffffffff\n      and\n      eq\n        /* \"Membership.sol\":8636:9221  if(_degrees != address(0)){... */\n      tag_311\n      jumpi\n        /* \"Membership.sol\":8769:8772  100 */\n      0x64\n        /* \"Membership.sol\":8765:8766  6 */\n      0x06\n        /* \"Membership.sol\":8755:8762  _amount */\n      dup6\n        /* \"Membership.sol\":8755:8766  _amount * 6 */\n      tag_312\n      swap2\n      swap1\n      tag_180\n      jump\t// in\n    tag_312:\n        /* \"Membership.sol\":8755:8772  _amount * 6 / 100 */\n      tag_313\n      swap2\n      swap1\n      tag_182\n      jump\t// in\n    tag_313:\n        /* \"Membership.sol\":8717:8725  userInfo */\n      0x02\n        /* \"Membership.sol\":8717:8735  userInfo[_degrees] */\n      0x00\n        /* \"Membership.sol\":8726:8734  _degrees */\n      dup4\n        /* \"Membership.sol\":8717:8735  userInfo[_degrees] */\n      0xffffffffffffffffffffffffffffffffffffffff\n      and\n      0xffffffffffffffffffffffffffffffffffffffff\n      and\n      dup2\n      mstore\n      0x20\n      add\n      swap1\n      dup2\n      mstore\n      0x20\n      add\n      0x00\n      keccak256\n        /* \"Membership.sol\":8717:8751  userInfo[_degrees].totalTeamReward */\n      0x03\n      add\n      sload\n        /* \"Membership.sol\":8717:8773  userInfo[_degrees].totalTeamReward + (_amount * 6 / 100) */\n      tag_314\n      swap2\n      swap1\n      tag_286\n      jump\t// in\n    tag_314:\n        /* \"Membership.sol\":8680:8688  userInfo */\n      0x02\n        /* \"Membership.sol\":8680:8698  userInfo[_degrees] */\n      0x00\n        /* \"Membership.sol\":8689:8697  _degrees */\n      dup4\n        /* \"Membership.sol\":8680:8698  userInfo[_degrees] */\n      0xffffffffffffffffffffffffffffffffffffffff\n      and\n      0xffffffffffffffffffffffffffffffffffffffff\n      and\n      dup2\n      mstore\n      0x20\n      add\n      swap1\n      dup2\n      mstore\n      0x20\n      add\n      0x00\n      keccak256\n        /* \"Membership.sol\":8680:8714  userInfo[_degrees].totalTeamReward */\n      0x03\n      add\n        /* \"Membership.sol\":8680:8773  userInfo[_degrees].totalTeamReward = userInfo[_degrees].totalTeamReward + (_amount * 6 / 100) */\n      dup2\n      swap1\n      sstore\n      pop\n        /* \"Membership.sol\":8791:8802  teamRewards */\n      0x03\n        /* \"Membership.sol\":8791:8812  teamRewards[_degrees] */\n      0x00\n        /* \"Membership.sol\":8803:8811  _degrees */\n      dup3\n        /* \"Membership.sol\":8791:8812  teamRewards[_degrees] */\n      0xffffffffffffffffffffffffffffffffffffffff\n      and\n      0xffffffffffffffffffffffffffffffffffffffff\n      and\n      dup2\n      mstore\n      0x20\n      add\n      swap1\n      dup2\n      mstore\n      0x20\n      add\n      0x00\n      keccak256\n        /* \"Membership.sol\":8818:8890  TeamReward(_user, _amount * 6 / 100, block.timestamp, Express.sameLevel) */\n      mload(0x40)\n      dup1\n      0x80\n      add\n      0x40\n      mstore\n      dup1\n        /* \"Membership.sol\":8829:8834  _user */\n      dup8\n        /* \"Membership.sol\":8818:8890  TeamReward(_user, _amount * 6 / 100, block.timestamp, Express.sameLevel) */\n      0xffffffffffffffffffffffffffffffffffffffff\n      and\n      dup2\n      mstore\n      0x20\n      add\n        /* \"Membership.sol\":8850:8853  100 */\n      0x64\n        /* \"Membership.sol\":8846:8847  6 */\n      0x06\n        /* \"Membership.sol\":8836:8843  _amount */\n      dup9\n        /* \"Membership.sol\":8836:8847  _amount * 6 */\n      tag_315\n      swap2\n      swap1\n      tag_180\n      jump\t// in\n    tag_315:\n        /* \"Membership.sol\":8836:8853  _amount * 6 / 100 */\n      tag_316\n      swap2\n      swap1\n      tag_182\n      jump\t// in\n    tag_316:\n        /* \"Membership.sol\":8818:8890  TeamReward(_user, _amount * 6 / 100, block.timestamp, Express.sameLevel) */\n      dup2\n      mstore\n      0x20\n      add\n        /* \"Membership.sol\":8855:8870  block.timestamp */\n      timestamp\n        /* \"Membership.sol\":8818:8890  TeamReward(_user, _amount * 6 / 100, block.timestamp, Express.sameLevel) */\n      dup2\n      mstore\n      0x20\n      add\n        /* \"Membership.sol\":8872:8889  Express.sameLevel */\n      0x02\n        /* \"Membership.sol\":8818:8890  TeamReward(_user, _amount * 6 / 100, block.timestamp, Express.sameLevel) */\n      dup1\n      dup2\n      gt\n      iszero\n      tag_317\n      jumpi\n      tag_318\n      tag_227\n      jump\t// in\n    tag_318:\n    tag_317:\n      dup2\n      mstore\n      pop\n        /* \"Membership.sol\":8791:8891  teamRewards[_degrees].push(TeamReward(_user, _amount * 6 / 100, block.timestamp, Express.sameLevel)) */\n      swap1\n      dup1\n      0x01\n      dup2\n      sload\n      add\n      dup1\n      dup3\n      sstore\n      dup1\n      swap2\n      pop\n      pop\n      0x01\n      swap1\n      sub\n      swap1\n      0x00\n      mstore\n      keccak256(0x00, 0x20)\n      swap1\n      0x04\n      mul\n      add\n      0x00\n      swap1\n      swap2\n      swap1\n      swap2\n      swap1\n      swap2\n      pop\n      0x00\n      dup3\n      add\n      mload\n      dup2\n      0x00\n      add\n      exp(0x0100, 0x00)\n      dup2\n      sload\n      dup2\n      0xffffffffffffffffffffffffffffffffffffffff\n      mul\n      not\n      and\n      swap1\n      dup4\n      0xffffffffffffffffffffffffffffffffffffffff\n      and\n      mul\n      or\n      swap1\n      sstore\n      pop\n      0x20\n      dup3\n      add\n      mload\n      dup2\n      0x01\n      add\n      sstore\n      0x40\n      dup3\n      add\n      mload\n      dup2\n      0x02\n      add\n      sstore\n      0x60\n      dup3\n      add\n      mload\n      dup2\n      0x03\n      add\n      exp(0x0100, 0x00)\n      dup2\n      sload\n      dup2\n      0xff\n      mul\n      not\n      and\n      swap1\n      dup4\n      0x02\n      dup2\n      gt\n      iszero\n      tag_320\n      jumpi\n      tag_321\n      tag_227\n      jump\t// in\n    tag_321:\n    tag_320:\n      mul\n      or\n      swap1\n      sstore\n      pop\n      pop\n      pop\n        /* \"Membership.sol\":8926:8944  address additional */\n      0x00\n        /* \"Membership.sol\":8947:8955  _degrees */\n      dup2\n        /* \"Membership.sol\":8926:8955  address additional = _degrees */\n      swap1\n      pop\n        /* \"Membership.sol\":9013:9014  0 */\n      0x00\n        /* \"Membership.sol\":8977:9015  direct.additionalInviter != address(0) */\n      0xffffffffffffffffffffffffffffffffffffffff\n      and\n        /* \"Membership.sol\":8977:8983  direct */\n      dup4\n        /* \"Membership.sol\":8977:9001  direct.additionalInviter */\n      0x01\n      add\n      0x00\n      swap1\n      sload\n      swap1\n      0x0100\n      exp\n      swap1\n      div\n      0xffffffffffffffffffffffffffffffffffffffff\n      and\n        /* \"Membership.sol\":8977:9015  direct.additionalInviter != address(0) */\n      0xffffffffffffffffffffffffffffffffffffffff\n      and\n      eq\n        /* \"Membership.sol\":8973:9054  if (direct.additionalInviter != address(0)) additional = direct.additionalInviter */\n      tag_322\n      jumpi\n        /* \"Membership.sol\":9030:9036  direct */\n      dup3\n        /* \"Membership.sol\":9030:9054  direct.additionalInviter */\n      0x01\n      add\n      0x00\n      swap1\n      sload\n      swap1\n      0x0100\n      exp\n      swap1\n      div\n      0xffffffffffffffffffffffffffffffffffffffff\n      and\n        /* \"Membership.sol\":9017:9054  additional = direct.additionalInviter */\n      swap1\n      pop\n        /* \"Membership.sol\":8973:9054  if (direct.additionalInviter != address(0)) additional = direct.additionalInviter */\n    tag_322:\n        /* \"Membership.sol\":9120:9130  additional */\n      dup1\n        /* \"Membership.sol\":9072:9080  userInfo */\n      0x02\n        /* \"Membership.sol\":9072:9099  userInfo[direct.members[0]] */\n      0x00\n        /* \"Membership.sol\":9081:9087  direct */\n      dup6\n        /* \"Membership.sol\":9081:9095  direct.members */\n      0x04\n      add\n        /* \"Membership.sol\":9096:9097  0 */\n      0x00\n        /* \"Membership.sol\":9081:9098  direct.members[0] */\n      dup2\n      sload\n      dup2\n      lt\n      tag_323\n      jumpi\n      tag_324\n      tag_325\n      jump\t// in\n    tag_324:\n    tag_323:\n      swap1\n      0x00\n      mstore\n      keccak256(0x00, 0x20)\n      add\n      0x00\n      swap1\n      sload\n      swap1\n      0x0100\n      exp\n      swap1\n      div\n      0xffffffffffffffffffffffffffffffffffffffff\n      and\n        /* \"Membership.sol\":9072:9099  userInfo[direct.members[0]] */\n      0xffffffffffffffffffffffffffffffffffffffff\n      and\n      0xffffffffffffffffffffffffffffffffffffffff\n      and\n      dup2\n      mstore\n      0x20\n      add\n      swap1\n      dup2\n      mstore\n      0x20\n      add\n      0x00\n      keccak256\n        /* \"Membership.sol\":9072:9117  userInfo[direct.members[0]].additionalInviter */\n      0x01\n      add\n      0x00\n        /* \"Membership.sol\":9072:9130  userInfo[direct.members[0]].additionalInviter = additional */\n      0x0100\n      exp\n      dup2\n      sload\n      dup2\n      0xffffffffffffffffffffffffffffffffffffffff\n      mul\n      not\n      and\n      swap1\n      dup4\n      0xffffffffffffffffffffffffffffffffffffffff\n      and\n      mul\n      or\n      swap1\n      sstore\n      pop\n        /* \"Membership.sol\":9196:9206  additional */\n      dup1\n        /* \"Membership.sol\":9148:9156  userInfo */\n      0x02\n        /* \"Membership.sol\":9148:9175  userInfo[direct.members[1]] */\n      0x00\n        /* \"Membership.sol\":9157:9163  direct */\n      dup6\n        /* \"Membership.sol\":9157:9171  direct.members */\n      0x04\n      add\n        /* \"Membership.sol\":9172:9173  1 */\n      0x01\n        /* \"Membership.sol\":9157:9174  direct.members[1] */\n      dup2\n      sload\n      dup2\n      lt\n      tag_327\n      jumpi\n      tag_328\n      tag_325\n      jump\t// in\n    tag_328:\n    tag_327:\n      swap1\n      0x00\n      mstore\n      keccak256(0x00, 0x20)\n      add\n      0x00\n      swap1\n      sload\n      swap1\n      0x0100\n      exp\n      swap1\n      div\n      0xffffffffffffffffffffffffffffffffffffffff\n      and\n        /* \"Membership.sol\":9148:9175  userInfo[direct.members[1]] */\n      0xffffffffffffffffffffffffffffffffffffffff\n      and\n      0xffffffffffffffffffffffffffffffffffffffff\n      and\n      dup2\n      mstore\n      0x20\n      add\n      swap1\n      dup2\n      mstore\n      0x20\n      add\n      0x00\n      keccak256\n        /* \"Membership.sol\":9148:9193  userInfo[direct.members[1]].additionalInviter */\n      0x01\n      add\n      0x00\n        /* \"Membership.sol\":9148:9206  userInfo[direct.members[1]].additionalInviter = additional */\n      0x0100\n      exp\n      dup2\n      sload\n      dup2\n      0xffffffffffffffffffffffffffffffffffffffff\n      mul\n      not\n      and\n      swap1\n      dup4\n      0xffffffffffffffffffffffffffffffffffffffff\n      and\n      mul\n      or\n      swap1\n      sstore\n      pop\n        /* \"Membership.sol\":8662:9221  {... */\n      pop\n        /* \"Membership.sol\":8636:9221  if(_degrees != address(0)){... */\n    tag_311:\n        /* \"Membership.sol\":8381:9231  {... */\n      pop\n        /* \"Membership.sol\":8364:9286  if(direct.isVips){... */\n      jump(tag_330)\n    tag_300:\n        /* \"Membership.sol\":9249:9275  distribute(_user, _amount) */\n      tag_331\n        /* \"Membership.sol\":9260:9265  _user */\n      dup5\n        /* \"Membership.sol\":9267:9274  _amount */\n      dup5\n        /* \"Membership.sol\":9249:9259  distribute */\n      tag_332\n        /* \"Membership.sol\":9249:9275  distribute(_user, _amount) */\n      jump\t// in\n    tag_331:\n        /* \"Membership.sol\":8364:9286  if(direct.isVips){... */\n    tag_330:\n        /* \"Membership.sol\":7922:9292  {... */\n      pop\n      pop\n        /* \"Membership.sol\":7859:9292  function updateInviter(address _user,uint256 _amount) internal {... */\n      pop\n      pop\n      jump\t// out\n        /* \"Membership.sol\":2455:2800  function sortTokens(address tokenA, address tokenB) internal pure returns (address token0, address token1) {... */\n    tag_247:\n        /* \"Membership.sol\":2530:2544  address token0 */\n      0x00\n        /* \"Membership.sol\":2546:2560  address token1 */\n      dup1\n        /* \"Membership.sol\":2590:2596  tokenB */\n      dup3\n        /* \"Membership.sol\":2580:2596  tokenA != tokenB */\n      0xffffffffffffffffffffffffffffffffffffffff\n      and\n        /* \"Membership.sol\":2580:2586  tokenA */\n      dup5\n        /* \"Membership.sol\":2580:2596  tokenA != tokenB */\n      0xffffffffffffffffffffffffffffffffffffffff\n      and\n      sub\n        /* \"Membership.sol\":2572:2638  require(tokenA != tokenB, 'UniswapV2Library: IDENTICAL_ADDRESSES') */\n      tag_334\n      jumpi\n      mload(0x40)\n      0x08c379a000000000000000000000000000000000000000000000000000000000\n      dup2\n      mstore\n      0x04\n      add\n      tag_335\n      swap1\n      tag_336\n      jump\t// in\n    tag_335:\n      mload(0x40)\n      dup1\n      swap2\n      sub\n      swap1\n      revert\n    tag_334:\n        /* \"Membership.sol\":2676:2682  tokenB */\n      dup3\n        /* \"Membership.sol\":2667:2682  tokenA < tokenB */\n      0xffffffffffffffffffffffffffffffffffffffff\n      and\n        /* \"Membership.sol\":2667:2673  tokenA */\n      dup5\n        /* \"Membership.sol\":2667:2682  tokenA < tokenB */\n      0xffffffffffffffffffffffffffffffffffffffff\n      and\n      lt\n        /* \"Membership.sol\":2667:2720  tokenA < tokenB ? (tokenA, tokenB) : (tokenB, tokenA) */\n      tag_337\n      jumpi\n        /* \"Membership.sol\":2705:2711  tokenB */\n      dup3\n        /* \"Membership.sol\":2713:2719  tokenA */\n      dup5\n        /* \"Membership.sol\":2667:2720  tokenA < tokenB ? (tokenA, tokenB) : (tokenB, tokenA) */\n      jump(tag_338)\n    tag_337:\n        /* \"Membership.sol\":2686:2692  tokenA */\n      dup4\n        /* \"Membership.sol\":2694:2700  tokenB */\n      dup4\n        /* \"Membership.sol\":2667:2720  tokenA < tokenB ? (tokenA, tokenB) : (tokenB, tokenA) */\n    tag_338:\n        /* \"Membership.sol\":2648:2720  (token0, token1) = tokenA < tokenB ? (tokenA, tokenB) : (tokenB, tokenA) */\n      dup1\n      swap3\n      pop\n      dup2\n      swap4\n      pop\n      pop\n      pop\n        /* \"Membership.sol\":2756:2757  0 */\n      0x00\n        /* \"Membership.sol\":2738:2758  token0 != address(0) */\n      0xffffffffffffffffffffffffffffffffffffffff\n      and\n        /* \"Membership.sol\":2738:2744  token0 */\n      dup3\n        /* \"Membership.sol\":2738:2758  token0 != address(0) */\n      0xffffffffffffffffffffffffffffffffffffffff\n      and\n      sub\n        /* \"Membership.sol\":2730:2793  require(token0 != address(0), 'UniswapV2Library: ZERO_ADDRESS') */\n      tag_339\n      jumpi\n      mload(0x40)\n      0x08c379a000000000000000000000000000000000000000000000000000000000\n      dup2\n      mstore\n      0x04\n      add\n      tag_340\n      swap1\n      tag_341\n      jump\t// in\n    tag_340:\n      mload(0x40)\n      dup1\n      swap2\n      sub\n      swap1\n      revert\n    tag_339:\n        /* \"Membership.sol\":2455:2800  function sortTokens(address tokenA, address tokenB) internal pure returns (address token0, address token1) {... */\n      swap3\n      pop\n      swap3\n      swap1\n      pop\n      jump\t// out\n        /* \"Membership.sol\":2889:3368  function pairFor(address factory, address tokenA, address tokenB) internal pure returns (address pair) {... */\n    tag_249:\n        /* \"Membership.sol\":2978:2990  address pair */\n      0x00\n        /* \"Membership.sol\":3003:3017  address token0 */\n      dup1\n        /* \"Membership.sol\":3019:3033  address token1 */\n      0x00\n        /* \"Membership.sol\":3037:3063  sortTokens(tokenA, tokenB) */\n      tag_343\n        /* \"Membership.sol\":3048:3054  tokenA */\n      dup6\n        /* \"Membership.sol\":3056:3062  tokenB */\n      dup6\n        /* \"Membership.sol\":3037:3047  sortTokens */\n      tag_247\n        /* \"Membership.sol\":3037:3063  sortTokens(tokenA, tokenB) */\n      jump\t// in\n    tag_343:\n        /* \"Membership.sol\":3002:3063  (address token0, address token1) = sortTokens(tokenA, tokenB) */\n      swap2\n      pop\n      swap2\n      pop\n        /* \"Membership.sol\":3170:3177  factory */\n      dup6\n        /* \"Membership.sol\":3222:3228  token0 */\n      dup3\n        /* \"Membership.sol\":3230:3236  token1 */\n      dup3\n        /* \"Membership.sol\":3205:3237  abi.encodePacked(token0, token1) */\n      add(0x20, mload(0x40))\n      tag_344\n      swap3\n      swap2\n      swap1\n      tag_345\n      jump\t// in\n    tag_344:\n      mload(0x40)\n      0x20\n      dup2\n      dup4\n      sub\n      sub\n      dup2\n      mstore\n      swap1\n      0x40\n      mstore\n        /* \"Membership.sol\":3195:3238  keccak256(abi.encodePacked(token0, token1)) */\n      dup1\n      mload\n      swap1\n      0x20\n      add\n      keccak256\n        /* \"Membership.sol\":3111:3357  abi.encodePacked(... */\n      add(0x20, mload(0x40))\n      tag_346\n      swap3\n      swap2\n      swap1\n      tag_347\n      jump\t// in\n    tag_346:\n      mload(0x40)\n      0x20\n      dup2\n      dup4\n      sub\n      sub\n      dup2\n      mstore\n      swap1\n      0x40\n      mstore\n        /* \"Membership.sol\":3101:3358  keccak256(abi.encodePacked(... */\n      dup1\n      mload\n      swap1\n      0x20\n      add\n      keccak256\n        /* \"Membership.sol\":3096:3359  uint(keccak256(abi.encodePacked(... */\n      0x00\n      shr\n        /* \"Membership.sol\":3073:3361  pair = address(uint160(uint(keccak256(abi.encodePacked(... */\n      swap3\n      pop\n        /* \"Membership.sol\":2992:3368  {... */\n      pop\n      pop\n        /* \"Membership.sol\":2889:3368  function pairFor(address factory, address tokenA, address tokenB) internal pure returns (address pair) {... */\n      swap4\n      swap3\n      pop\n      pop\n      pop\n      jump\t// out\n        /* \"Membership.sol\":2150:2290  function mul(uint x, uint y) internal pure returns (uint z) {... */\n    tag_265:\n        /* \"Membership.sol\":2202:2208  uint z */\n      0x00\n        /* \"Membership.sol\":2233:2234  0 */\n      dup1\n        /* \"Membership.sol\":2228:2229  y */\n      dup3\n        /* \"Membership.sol\":2228:2234  y == 0 */\n      eq\n        /* \"Membership.sol\":2228:2258  y == 0 || (z = x * y) / y == x */\n      dup1\n      tag_349\n      jumpi\n      pop\n        /* \"Membership.sol\":2257:2258  x */\n      dup3\n        /* \"Membership.sol\":2252:2253  y */\n      dup3\n        /* \"Membership.sol\":2247:2248  y */\n      dup4\n        /* \"Membership.sol\":2243:2244  x */\n      dup6\n        /* \"Membership.sol\":2243:2248  x * y */\n      tag_350\n      swap2\n      swap1\n      tag_180\n      jump\t// in\n    tag_350:\n        /* \"Membership.sol\":2239:2248  z = x * y */\n      swap3\n      pop\n      dup3\n        /* \"Membership.sol\":2238:2253  (z = x * y) / y */\n      tag_351\n      swap2\n      swap1\n      tag_182\n      jump\t// in\n    tag_351:\n        /* \"Membership.sol\":2238:2258  (z = x * y) / y == x */\n      eq\n        /* \"Membership.sol\":2228:2258  y == 0 || (z = x * y) / y == x */\n    tag_349:\n        /* \"Membership.sol\":2220:2283  require(y == 0 || (z = x * y) / y == x, 'ds-math-mul-overflow') */\n      tag_352\n      jumpi\n      mload(0x40)\n      0x08c379a000000000000000000000000000000000000000000000000000000000\n      dup2\n      mstore\n      0x04\n      add\n      tag_353\n      swap1\n      tag_354\n      jump\t// in\n    tag_353:\n      mload(0x40)\n      dup1\n      swap2\n      sub\n      swap1\n      revert\n    tag_352:\n        /* \"Membership.sol\":2150:2290  function mul(uint x, uint y) internal pure returns (uint z) {... */\n      swap3\n      swap2\n      pop\n      pop\n      jump\t// out\n        /* \"Membership.sol\":1887:2013  function add(uint x, uint y) internal pure returns (uint z) {... */\n    tag_269:\n        /* \"Membership.sol\":1939:1945  uint z */\n      0x00\n        /* \"Membership.sol\":1980:1981  x */\n      dup3\n        /* \"Membership.sol\":1974:1975  y */\n      dup3\n        /* \"Membership.sol\":1970:1971  x */\n      dup5\n        /* \"Membership.sol\":1970:1975  x + y */\n      tag_356\n      swap2\n      swap1\n      tag_286\n      jump\t// in\n    tag_356:\n        /* \"Membership.sol\":1966:1975  z = x + y */\n      swap2\n      pop\n      dup2\n        /* \"Membership.sol\":1965:1981  (z = x + y) >= x */\n      lt\n      iszero\n        /* \"Membership.sol\":1957:2006  require((z = x + y) >= x, 'ds-math-add-overflow') */\n      tag_357\n      jumpi\n      mload(0x40)\n      0x08c379a000000000000000000000000000000000000000000000000000000000\n      dup2\n      mstore\n      0x04\n      add\n      tag_358\n      swap1\n      tag_359\n      jump\t// in\n    tag_358:\n      mload(0x40)\n      dup1\n      swap2\n      sub\n      swap1\n      revert\n    tag_357:\n        /* \"Membership.sol\":1887:2013  function add(uint x, uint y) internal pure returns (uint z) {... */\n      swap3\n      swap2\n      pop\n      pop\n      jump\t// out\n        /* \"Membership.sol\":9298:10170  function distribute(address _user,uint256 _amount) internal{... */\n    tag_332:\n        /* \"Membership.sol\":9367:9385  address _firstVips */\n      0x00\n        /* \"Membership.sol\":9388:9402  lookFor(_user) */\n      tag_361\n        /* \"Membership.sol\":9396:9401  _user */\n      dup4\n        /* \"Membership.sol\":9388:9395  lookFor */\n      tag_362\n        /* \"Membership.sol\":9388:9402  lookFor(_user) */\n      jump\t// in\n    tag_361:\n        /* \"Membership.sol\":9367:9402  address _firstVips = lookFor(_user) */\n      swap1\n      pop\n        /* \"Membership.sol\":9415:9423  userInfo */\n      0x02\n        /* \"Membership.sol\":9415:9435  userInfo[_firstVips] */\n      0x00\n        /* \"Membership.sol\":9424:9434  _firstVips */\n      dup3\n        /* \"Membership.sol\":9415:9435  userInfo[_firstVips] */\n      0xffffffffffffffffffffffffffffffffffffffff\n      and\n      0xffffffffffffffffffffffffffffffffffffffff\n      and\n      dup2\n      mstore\n      0x20\n      add\n      swap1\n      dup2\n      mstore\n      0x20\n      add\n      0x00\n      keccak256\n        /* \"Membership.sol\":9415:9442  userInfo[_firstVips].isVips */\n      0x00\n      add\n      0x01\n      swap1\n      sload\n      swap1\n      0x0100\n      exp\n      swap1\n      div\n      0xff\n      and\n        /* \"Membership.sol\":9412:10164  if(userInfo[_firstVips].isVips){... */\n      iszero\n      tag_363\n      jumpi\n        /* \"Membership.sol\":9457:9479  User storage firstVips */\n      0x00\n        /* \"Membership.sol\":9482:9490  userInfo */\n      0x02\n        /* \"Membership.sol\":9482:9502  userInfo[_firstVips] */\n      0x00\n        /* \"Membership.sol\":9491:9501  _firstVips */\n      dup4\n        /* \"Membership.sol\":9482:9502  userInfo[_firstVips] */\n      0xffffffffffffffffffffffffffffffffffffffff\n      and\n      0xffffffffffffffffffffffffffffffffffffffff\n      and\n      dup2\n      mstore\n      0x20\n      add\n      swap1\n      dup2\n      mstore\n      0x20\n      add\n      0x00\n      keccak256\n        /* \"Membership.sol\":9457:9502  User storage firstVips = userInfo[_firstVips] */\n      swap1\n      pop\n        /* \"Membership.sol\":9588:9591  100 */\n      0x64\n        /* \"Membership.sol\":9583:9585  40 */\n      0x28\n        /* \"Membership.sol\":9573:9580  _amount */\n      dup5\n        /* \"Membership.sol\":9573:9585  _amount * 40 */\n      tag_364\n      swap2\n      swap1\n      tag_180\n      jump\t// in\n    tag_364:\n        /* \"Membership.sol\":9573:9591  _amount * 40 / 100 */\n      tag_365\n      swap2\n      swap1\n      tag_182\n      jump\t// in\n    tag_365:\n        /* \"Membership.sol\":9544:9553  firstVips */\n      dup2\n        /* \"Membership.sol\":9544:9569  firstVips.totalTeamReward */\n      0x03\n      add\n      sload\n        /* \"Membership.sol\":9544:9592  firstVips.totalTeamReward + (_amount * 40 / 100) */\n      tag_366\n      swap2\n      swap1\n      tag_286\n      jump\t// in\n    tag_366:\n        /* \"Membership.sol\":9516:9525  firstVips */\n      dup2\n        /* \"Membership.sol\":9516:9541  firstVips.totalTeamReward */\n      0x03\n      add\n        /* \"Membership.sol\":9516:9592  firstVips.totalTeamReward = firstVips.totalTeamReward + (_amount * 40 / 100) */\n      dup2\n      swap1\n      sstore\n      pop\n        /* \"Membership.sol\":9606:9617  teamRewards */\n      0x03\n        /* \"Membership.sol\":9606:9629  teamRewards[_firstVips] */\n      0x00\n        /* \"Membership.sol\":9618:9628  _firstVips */\n      dup4\n        /* \"Membership.sol\":9606:9629  teamRewards[_firstVips] */\n      0xffffffffffffffffffffffffffffffffffffffff\n      and\n      0xffffffffffffffffffffffffffffffffffffffff\n      and\n      dup2\n      mstore\n      0x20\n      add\n      swap1\n      dup2\n      mstore\n      0x20\n      add\n      0x00\n      keccak256\n        /* \"Membership.sol\":9635:9703  TeamReward(_user, _amount * 40 / 100, block.timestamp, Express.vips) */\n      mload(0x40)\n      dup1\n      0x80\n      add\n      0x40\n      mstore\n      dup1\n        /* \"Membership.sol\":9646:9651  _user */\n      dup7\n        /* \"Membership.sol\":9635:9703  TeamReward(_user, _amount * 40 / 100, block.timestamp, Express.vips) */\n      0xffffffffffffffffffffffffffffffffffffffff\n      and\n      dup2\n      mstore\n      0x20\n      add\n        /* \"Membership.sol\":9668:9671  100 */\n      0x64\n        /* \"Membership.sol\":9663:9665  40 */\n      0x28\n        /* \"Membership.sol\":9653:9660  _amount */\n      dup8\n        /* \"Membership.sol\":9653:9665  _amount * 40 */\n      tag_367\n      swap2\n      swap1\n      tag_180\n      jump\t// in\n    tag_367:\n        /* \"Membership.sol\":9653:9671  _amount * 40 / 100 */\n      tag_368\n      swap2\n      swap1\n      tag_182\n      jump\t// in\n    tag_368:\n        /* \"Membership.sol\":9635:9703  TeamReward(_user, _amount * 40 / 100, block.timestamp, Express.vips) */\n      dup2\n      mstore\n      0x20\n      add\n        /* \"Membership.sol\":9673:9688  block.timestamp */\n      timestamp\n        /* \"Membership.sol\":9635:9703  TeamReward(_user, _amount * 40 / 100, block.timestamp, Express.vips) */\n      dup2\n      mstore\n      0x20\n      add\n        /* \"Membership.sol\":9690:9702  Express.vips */\n      0x01\n        /* \"Membership.sol\":9635:9703  TeamReward(_user, _amount * 40 / 100, block.timestamp, Express.vips) */\n      0x02\n      dup2\n      gt\n      iszero\n      tag_369\n      jumpi\n      tag_370\n      tag_227\n      jump\t// in\n    tag_370:\n    tag_369:\n      dup2\n      mstore\n      pop\n        /* \"Membership.sol\":9606:9704  teamRewards[_firstVips].push(TeamReward(_user, _amount * 40 / 100, block.timestamp, Express.vips)) */\n      swap1\n      dup1\n      0x01\n      dup2\n      sload\n      add\n      dup1\n      dup3\n      sstore\n      dup1\n      swap2\n      pop\n      pop\n      0x01\n      swap1\n      sub\n      swap1\n      0x00\n      mstore\n      keccak256(0x00, 0x20)\n      swap1\n      0x04\n      mul\n      add\n      0x00\n      swap1\n      swap2\n      swap1\n      swap2\n      swap1\n      swap2\n      pop\n      0x00\n      dup3\n      add\n      mload\n      dup2\n      0x00\n      add\n      exp(0x0100, 0x00)\n      dup2\n      sload\n      dup2\n      0xffffffffffffffffffffffffffffffffffffffff\n      mul\n      not\n      and\n      swap1\n      dup4\n      0xffffffffffffffffffffffffffffffffffffffff\n      and\n      mul\n      or\n      swap1\n      sstore\n      pop\n      0x20\n      dup3\n      add\n      mload\n      dup2\n      0x01\n      add\n      sstore\n      0x40\n      dup3\n      add\n      mload\n      dup2\n      0x02\n      add\n      sstore\n      0x60\n      dup3\n      add\n      mload\n      dup2\n      0x03\n      add\n      exp(0x0100, 0x00)\n      dup2\n      sload\n      dup2\n      0xff\n      mul\n      not\n      and\n      swap1\n      dup4\n      0x02\n      dup2\n      gt\n      iszero\n      tag_372\n      jumpi\n      tag_373\n      tag_227\n      jump\t// in\n    tag_373:\n    tag_372:\n      mul\n      or\n      swap1\n      sstore\n      pop\n      pop\n      pop\n        /* \"Membership.sol\":9719:9746  address _inviterOfFirstVips */\n      0x00\n        /* \"Membership.sol\":9749:9758  firstVips */\n      dup2\n        /* \"Membership.sol\":9749:9766  firstVips.inviter */\n      0x00\n      add\n      0x02\n      swap1\n      sload\n      swap1\n      0x0100\n      exp\n      swap1\n      div\n      0xffffffffffffffffffffffffffffffffffffffff\n      and\n        /* \"Membership.sol\":9719:9766  address _inviterOfFirstVips = firstVips.inviter */\n      swap1\n      pop\n        /* \"Membership.sol\":9814:9815  0 */\n      0x00\n        /* \"Membership.sol\":9783:9816  _inviterOfFirstVips != address(0) */\n      0xffffffffffffffffffffffffffffffffffffffff\n      and\n        /* \"Membership.sol\":9783:9802  _inviterOfFirstVips */\n      dup2\n        /* \"Membership.sol\":9783:9816  _inviterOfFirstVips != address(0) */\n      0xffffffffffffffffffffffffffffffffffffffff\n      and\n      eq\n        /* \"Membership.sol\":9780:10154  if(_inviterOfFirstVips != address(0)){... */\n      tag_374\n      jumpi\n        /* \"Membership.sol\":9835:9866  User storage inviterOfFirstVips */\n      0x00\n        /* \"Membership.sol\":9869:9877  userInfo */\n      0x02\n        /* \"Membership.sol\":9869:9898  userInfo[_inviterOfFirstVips] */\n      0x00\n        /* \"Membership.sol\":9878:9897  _inviterOfFirstVips */\n      dup4\n        /* \"Membership.sol\":9869:9898  userInfo[_inviterOfFirstVips] */\n      0xffffffffffffffffffffffffffffffffffffffff\n      and\n      0xffffffffffffffffffffffffffffffffffffffff\n      and\n      dup2\n      mstore\n      0x20\n      add\n      swap1\n      dup2\n      mstore\n      0x20\n      add\n      0x00\n      keccak256\n        /* \"Membership.sol\":9835:9898  User storage inviterOfFirstVips = userInfo[_inviterOfFirstVips] */\n      swap1\n      pop\n        /* \"Membership.sol\":10006:10009  100 */\n      0x64\n        /* \"Membership.sol\":10002:10003  6 */\n      0x06\n        /* \"Membership.sol\":9992:9999  _amount */\n      dup7\n        /* \"Membership.sol\":9992:10003  _amount * 6 */\n      tag_375\n      swap2\n      swap1\n      tag_180\n      jump\t// in\n    tag_375:\n        /* \"Membership.sol\":9992:10009  _amount * 6 / 100 */\n      tag_376\n      swap2\n      swap1\n      tag_182\n      jump\t// in\n    tag_376:\n        /* \"Membership.sol\":9954:9972  inviterOfFirstVips */\n      dup2\n        /* \"Membership.sol\":9954:9988  inviterOfFirstVips.totalTeamReward */\n      0x03\n      add\n      sload\n        /* \"Membership.sol\":9954:10010  inviterOfFirstVips.totalTeamReward + (_amount * 6 / 100) */\n      tag_377\n      swap2\n      swap1\n      tag_286\n      jump\t// in\n    tag_377:\n        /* \"Membership.sol\":9917:9935  inviterOfFirstVips */\n      dup2\n        /* \"Membership.sol\":9917:9951  inviterOfFirstVips.totalTeamReward */\n      0x03\n      add\n        /* \"Membership.sol\":9917:10010  inviterOfFirstVips.totalTeamReward = inviterOfFirstVips.totalTeamReward + (_amount * 6 / 100) */\n      dup2\n      swap1\n      sstore\n      pop\n        /* \"Membership.sol\":10028:10039  teamRewards */\n      0x03\n        /* \"Membership.sol\":10028:10060  teamRewards[_inviterOfFirstVips] */\n      0x00\n        /* \"Membership.sol\":10040:10059  _inviterOfFirstVips */\n      dup4\n        /* \"Membership.sol\":10028:10060  teamRewards[_inviterOfFirstVips] */\n      0xffffffffffffffffffffffffffffffffffffffff\n      and\n      0xffffffffffffffffffffffffffffffffffffffff\n      and\n      dup2\n      mstore\n      0x20\n      add\n      swap1\n      dup2\n      mstore\n      0x20\n      add\n      0x00\n      keccak256\n        /* \"Membership.sol\":10066:10138  TeamReward(_user, _amount * 6 / 100, block.timestamp, Express.sameLevel) */\n      mload(0x40)\n      dup1\n      0x80\n      add\n      0x40\n      mstore\n      dup1\n        /* \"Membership.sol\":10077:10082  _user */\n      dup9\n        /* \"Membership.sol\":10066:10138  TeamReward(_user, _amount * 6 / 100, block.timestamp, Express.sameLevel) */\n      0xffffffffffffffffffffffffffffffffffffffff\n      and\n      dup2\n      mstore\n      0x20\n      add\n        /* \"Membership.sol\":10098:10101  100 */\n      0x64\n        /* \"Membership.sol\":10094:10095  6 */\n      0x06\n        /* \"Membership.sol\":10084:10091  _amount */\n      dup10\n        /* \"Membership.sol\":10084:10095  _amount * 6 */\n      tag_378\n      swap2\n      swap1\n      tag_180\n      jump\t// in\n    tag_378:\n        /* \"Membership.sol\":10084:10101  _amount * 6 / 100 */\n      tag_379\n      swap2\n      swap1\n      tag_182\n      jump\t// in\n    tag_379:\n        /* \"Membership.sol\":10066:10138  TeamReward(_user, _amount * 6 / 100, block.timestamp, Express.sameLevel) */\n      dup2\n      mstore\n      0x20\n      add\n        /* \"Membership.sol\":10103:10118  block.timestamp */\n      timestamp\n        /* \"Membership.sol\":10066:10138  TeamReward(_user, _amount * 6 / 100, block.timestamp, Express.sameLevel) */\n      dup2\n      mstore\n      0x20\n      add\n        /* \"Membership.sol\":10120:10137  Express.sameLevel */\n      0x02\n        /* \"Membership.sol\":10066:10138  TeamReward(_user, _amount * 6 / 100, block.timestamp, Express.sameLevel) */\n      dup1\n      dup2\n      gt\n      iszero\n      tag_380\n      jumpi\n      tag_381\n      tag_227\n      jump\t// in\n    tag_381:\n    tag_380:\n      dup2\n      mstore\n      pop\n        /* \"Membership.sol\":10028:10139  teamRewards[_inviterOfFirstVips].push(TeamReward(_user, _amount * 6 / 100, block.timestamp, Express.sameLevel)) */\n      swap1\n      dup1\n      0x01\n      dup2\n      sload\n      add\n      dup1\n      dup3\n      sstore\n      dup1\n      swap2\n      pop\n      pop\n      0x01\n      swap1\n      sub\n      swap1\n      0x00\n      mstore\n      keccak256(0x00, 0x20)\n      swap1\n      0x04\n      mul\n      add\n      0x00\n      swap1\n      swap2\n      swap1\n      swap2\n      swap1\n      swap2\n      pop\n      0x00\n      dup3\n      add\n      mload\n      dup2\n      0x00\n      add\n      exp(0x0100, 0x00)\n      dup2\n      sload\n      dup2\n      0xffffffffffffffffffffffffffffffffffffffff\n      mul\n      not\n      and\n      swap1\n      dup4\n      0xffffffffffffffffffffffffffffffffffffffff\n      and\n      mul\n      or\n      swap1\n      sstore\n      pop\n      0x20\n      dup3\n      add\n      mload\n      dup2\n      0x01\n      add\n      sstore\n      0x40\n      dup3\n      add\n      mload\n      dup2\n      0x02\n      add\n      sstore\n      0x60\n      dup3\n      add\n      mload\n      dup2\n      0x03\n      add\n      exp(0x0100, 0x00)\n      dup2\n      sload\n      dup2\n      0xff\n      mul\n      not\n      and\n      swap1\n      dup4\n      0x02\n      dup2\n      gt\n      iszero\n      tag_383\n      jumpi\n      tag_384\n      tag_227\n      jump\t// in\n    tag_384:\n    tag_383:\n      mul\n      or\n      swap1\n      sstore\n      pop\n      pop\n      pop\n        /* \"Membership.sol\":9817:10154  {... */\n      pop\n        /* \"Membership.sol\":9780:10154  if(_inviterOfFirstVips != address(0)){... */\n    tag_374:\n        /* \"Membership.sol\":9443:10164  {... */\n      pop\n      pop\n        /* \"Membership.sol\":9412:10164  if(userInfo[_firstVips].isVips){... */\n    tag_363:\n        /* \"Membership.sol\":9357:10170  {... */\n      pop\n        /* \"Membership.sol\":9298:10170  function distribute(address _user,uint256 _amount) internal{... */\n      pop\n      pop\n      jump\t// out\n        /* \"Membership.sol\":10176:10340  function lookFor(address _user) internal view returns (address) {... */\n    tag_362:\n        /* \"Membership.sol\":10231:10238  address */\n      0x00\n        /* \"Membership.sol\":10254:10262  userInfo */\n      0x02\n        /* \"Membership.sol\":10254:10269  userInfo[_user] */\n      0x00\n        /* \"Membership.sol\":10263:10268  _user */\n      dup4\n        /* \"Membership.sol\":10254:10269  userInfo[_user] */\n      0xffffffffffffffffffffffffffffffffffffffff\n      and\n      0xffffffffffffffffffffffffffffffffffffffff\n      and\n      dup2\n      mstore\n      0x20\n      add\n      swap1\n      dup2\n      mstore\n      0x20\n      add\n      0x00\n      keccak256\n        /* \"Membership.sol\":10254:10276  userInfo[_user].isVips */\n      0x00\n      add\n      0x01\n      swap1\n      sload\n      swap1\n      0x0100\n      exp\n      swap1\n      div\n      0xff\n      and\n        /* \"Membership.sol\":10250:10310  if(!userInfo[_user].isVips) return findVip(_user, maxLooked) */\n      tag_386\n      jumpi\n        /* \"Membership.sol\":10285:10310  findVip(_user, maxLooked) */\n      tag_387\n        /* \"Membership.sol\":10293:10298  _user */\n      dup3\n        /* \"Membership.sol\":10300:10309  maxLooked */\n      0x0d\n      0x00\n      swap1\n      sload\n      swap1\n      0x0100\n      exp\n      swap1\n      div\n      0xff\n      and\n        /* \"Membership.sol\":10285:10292  findVip */\n      tag_388\n        /* \"Membership.sol\":10285:10310  findVip(_user, maxLooked) */\n      jump\t// in\n    tag_387:\n        /* \"Membership.sol\":10278:10310  return findVip(_user, maxLooked) */\n      swap1\n      pop\n      jump(tag_385)\n        /* \"Membership.sol\":10250:10310  if(!userInfo[_user].isVips) return findVip(_user, maxLooked) */\n    tag_386:\n        /* \"Membership.sol\":10328:10333  _user */\n      dup2\n        /* \"Membership.sol\":10321:10333  return _user */\n      swap1\n      pop\n        /* \"Membership.sol\":10176:10340  function lookFor(address _user) internal view returns (address) {... */\n    tag_385:\n      swap2\n      swap1\n      pop\n      jump\t// out\n        /* \"Membership.sol\":10346:10749  function findVip(address _user, uint8 maxDepth) private view returns (address) {... */\n    tag_388:\n        /* \"Membership.sol\":10416:10423  address */\n      0x00\n        /* \"Membership.sol\":10451:10452  0 */\n      dup1\n        /* \"Membership.sol\":10439:10447  maxDepth */\n      dup3\n        /* \"Membership.sol\":10439:10452  maxDepth == 0 */\n      0xff\n      and\n      eq\n        /* \"Membership.sol\":10439:10475  maxDepth == 0 || _user == address(0) */\n      dup1\n      tag_390\n      jumpi\n      pop\n        /* \"Membership.sol\":10473:10474  0 */\n      0x00\n        /* \"Membership.sol\":10456:10475  _user == address(0) */\n      0xffffffffffffffffffffffffffffffffffffffff\n      and\n        /* \"Membership.sol\":10456:10461  _user */\n      dup4\n        /* \"Membership.sol\":10456:10475  _user == address(0) */\n      0xffffffffffffffffffffffffffffffffffffffff\n      and\n      eq\n        /* \"Membership.sol\":10439:10475  maxDepth == 0 || _user == address(0) */\n    tag_390:\n        /* \"Membership.sol\":10439:10501  maxDepth == 0 || _user == address(0) || userInfo[_user].isVips */\n      dup1\n      tag_391\n      jumpi\n      pop\n        /* \"Membership.sol\":10479:10487  userInfo */\n      0x02\n        /* \"Membership.sol\":10479:10494  userInfo[_user] */\n      0x00\n        /* \"Membership.sol\":10488:10493  _user */\n      dup5\n        /* \"Membership.sol\":10479:10494  userInfo[_user] */\n      0xffffffffffffffffffffffffffffffffffffffff\n      and\n      0xffffffffffffffffffffffffffffffffffffffff\n      and\n      dup2\n      mstore\n      0x20\n      add\n      swap1\n      dup2\n      mstore\n      0x20\n      add\n      0x00\n      keccak256\n        /* \"Membership.sol\":10479:10501  userInfo[_user].isVips */\n      0x00\n      add\n      0x01\n      swap1\n      sload\n      swap1\n      0x0100\n      exp\n      swap1\n      div\n      0xff\n      and\n        /* \"Membership.sol\":10439:10501  maxDepth == 0 || _user == address(0) || userInfo[_user].isVips */\n    tag_391:\n        /* \"Membership.sol\":10435:10540  if (maxDepth == 0 || _user == address(0) || userInfo[_user].isVips) {... */\n      iszero\n      tag_392\n      jumpi\n        /* \"Membership.sol\":10524:10529  _user */\n      dup3\n        /* \"Membership.sol\":10517:10529  return _user */\n      swap1\n      pop\n      jump(tag_389)\n        /* \"Membership.sol\":10435:10540  if (maxDepth == 0 || _user == address(0) || userInfo[_user].isVips) {... */\n    tag_392:\n        /* \"Membership.sol\":10549:10564  address invAddr */\n      0x00\n        /* \"Membership.sol\":10567:10575  userInfo */\n      0x02\n        /* \"Membership.sol\":10567:10582  userInfo[_user] */\n      0x00\n        /* \"Membership.sol\":10576:10581  _user */\n      dup6\n        /* \"Membership.sol\":10567:10582  userInfo[_user] */\n      0xffffffffffffffffffffffffffffffffffffffff\n      and\n      0xffffffffffffffffffffffffffffffffffffffff\n      and\n      dup2\n      mstore\n      0x20\n      add\n      swap1\n      dup2\n      mstore\n      0x20\n      add\n      0x00\n      keccak256\n        /* \"Membership.sol\":10567:10590  userInfo[_user].inviter */\n      0x00\n      add\n      0x02\n      swap1\n      sload\n      swap1\n      0x0100\n      exp\n      swap1\n      div\n      0xffffffffffffffffffffffffffffffffffffffff\n      and\n        /* \"Membership.sol\":10549:10590  address invAddr = userInfo[_user].inviter */\n      swap1\n      pop\n        /* \"Membership.sol\":10648:10649  0 */\n      0x00\n        /* \"Membership.sol\":10603:10650  userInfo[_user].additionalInviter != address(0) */\n      0xffffffffffffffffffffffffffffffffffffffff\n      and\n        /* \"Membership.sol\":10603:10611  userInfo */\n      0x02\n        /* \"Membership.sol\":10603:10618  userInfo[_user] */\n      0x00\n        /* \"Membership.sol\":10612:10617  _user */\n      dup7\n        /* \"Membership.sol\":10603:10618  userInfo[_user] */\n      0xffffffffffffffffffffffffffffffffffffffff\n      and\n      0xffffffffffffffffffffffffffffffffffffffff\n      and\n      dup2\n      mstore\n      0x20\n      add\n      swap1\n      dup2\n      mstore\n      0x20\n      add\n      0x00\n      keccak256\n        /* \"Membership.sol\":10603:10636  userInfo[_user].additionalInviter */\n      0x01\n      add\n      0x00\n      swap1\n      sload\n      swap1\n      0x0100\n      exp\n      swap1\n      div\n      0xffffffffffffffffffffffffffffffffffffffff\n      and\n        /* \"Membership.sol\":10603:10650  userInfo[_user].additionalInviter != address(0) */\n      0xffffffffffffffffffffffffffffffffffffffff\n      and\n      eq\n        /* \"Membership.sol\":10600:10695  if(userInfo[_user].additionalInviter != address(0)) invAddr = userInfo[_user].additionalInviter */\n      tag_393\n      jumpi\n        /* \"Membership.sol\":10662:10670  userInfo */\n      0x02\n        /* \"Membership.sol\":10662:10677  userInfo[_user] */\n      0x00\n        /* \"Membership.sol\":10671:10676  _user */\n      dup6\n        /* \"Membership.sol\":10662:10677  userInfo[_user] */\n      0xffffffffffffffffffffffffffffffffffffffff\n      and\n      0xffffffffffffffffffffffffffffffffffffffff\n      and\n      dup2\n      mstore\n      0x20\n      add\n      swap1\n      dup2\n      mstore\n      0x20\n      add\n      0x00\n      keccak256\n        /* \"Membership.sol\":10662:10695  userInfo[_user].additionalInviter */\n      0x01\n      add\n      0x00\n      swap1\n      sload\n      swap1\n      0x0100\n      exp\n      swap1\n      div\n      0xffffffffffffffffffffffffffffffffffffffff\n      and\n        /* \"Membership.sol\":10652:10695  invAddr = userInfo[_user].additionalInviter */\n      swap1\n      pop\n        /* \"Membership.sol\":10600:10695  if(userInfo[_user].additionalInviter != address(0)) invAddr = userInfo[_user].additionalInviter */\n    tag_393:\n        /* \"Membership.sol\":10712:10742  findVip(invAddr, maxDepth - 1) */\n      tag_394\n        /* \"Membership.sol\":10720:10727  invAddr */\n      dup2\n        /* \"Membership.sol\":10740:10741  1 */\n      0x01\n        /* \"Membership.sol\":10729:10737  maxDepth */\n      dup6\n        /* \"Membership.sol\":10729:10741  maxDepth - 1 */\n      tag_395\n      swap2\n      swap1\n      tag_396\n      jump\t// in\n    tag_395:\n        /* \"Membership.sol\":10712:10719  findVip */\n      tag_388\n        /* \"Membership.sol\":10712:10742  findVip(invAddr, maxDepth - 1) */\n      jump\t// in\n    tag_394:\n        /* \"Membership.sol\":10705:10742  return findVip(invAddr, maxDepth - 1) */\n      swap2\n      pop\n      pop\n        /* \"Membership.sol\":10346:10749  function findVip(address _user, uint8 maxDepth) private view returns (address) {... */\n    tag_389:\n      swap3\n      swap2\n      pop\n      pop\n      jump\t// out\n    tag_157:\n      mload(0x40)\n      dup1\n      0xe0\n      add\n      0x40\n      mstore\n      dup1\n      iszero(iszero(0x00))\n      dup2\n      mstore\n      0x20\n      add\n      iszero(iszero(0x00))\n      dup2\n      mstore\n      0x20\n      add\n      and(0xffffffffffffffffffffffffffffffffffffffff, 0x00)\n      dup2\n      mstore\n      0x20\n      add\n      and(0xffffffffffffffffffffffffffffffffffffffff, 0x00)\n      dup2\n      mstore\n      0x20\n      add\n      0x00\n      dup2\n      mstore\n      0x20\n      add\n      0x00\n      dup2\n      mstore\n      0x20\n      add\n      0x60\n      dup2\n      mstore\n      pop\n      swap1\n      jump\t// out\n        /* \"#utility.yul\":88:205   */\n    tag_398:\n        /* \"#utility.yul\":197:198   */\n      0x00\n        /* \"#utility.yul\":194:195   */\n      dup1\n        /* \"#utility.yul\":187:199   */\n      revert\n        /* \"#utility.yul\":334:411   */\n    tag_400:\n        /* \"#utility.yul\":371:378   */\n      0x00\n        /* \"#utility.yul\":400:405   */\n      dup2\n        /* \"#utility.yul\":389:405   */\n      swap1\n      pop\n        /* \"#utility.yul\":334:411   */\n      swap2\n      swap1\n      pop\n      jump\t// out\n        /* \"#utility.yul\":417:539   */\n    tag_401:\n        /* \"#utility.yul\":490:514   */\n      tag_512\n        /* \"#utility.yul\":508:513   */\n      dup2\n        /* \"#utility.yul\":490:514   */\n      tag_400\n      jump\t// in\n    tag_512:\n        /* \"#utility.yul\":483:488   */\n      dup2\n        /* \"#utility.yul\":480:515   */\n      eq\n        /* \"#utility.yul\":470:533   */\n      tag_513\n      jumpi\n        /* \"#utility.yul\":529:530   */\n      0x00\n        /* \"#utility.yul\":526:527   */\n      dup1\n        /* \"#utility.yul\":519:531   */\n      revert\n        /* \"#utility.yul\":470:533   */\n    tag_513:\n        /* \"#utility.yul\":417:539   */\n      pop\n      jump\t// out\n        /* \"#utility.yul\":545:684   */\n    tag_402:\n        /* \"#utility.yul\":591:596   */\n      0x00\n        /* \"#utility.yul\":629:635   */\n      dup2\n        /* \"#utility.yul\":616:636   */\n      calldataload\n        /* \"#utility.yul\":607:636   */\n      swap1\n      pop\n        /* \"#utility.yul\":645:678   */\n      tag_515\n        /* \"#utility.yul\":672:677   */\n      dup2\n        /* \"#utility.yul\":645:678   */\n      tag_401\n      jump\t// in\n    tag_515:\n        /* \"#utility.yul\":545:684   */\n      swap3\n      swap2\n      pop\n      pop\n      jump\t// out\n        /* \"#utility.yul\":690:1019   */\n    tag_34:\n        /* \"#utility.yul\":749:755   */\n      0x00\n        /* \"#utility.yul\":798:800   */\n      0x20\n        /* \"#utility.yul\":786:795   */\n      dup3\n        /* \"#utility.yul\":777:784   */\n      dup5\n        /* \"#utility.yul\":773:796   */\n      sub\n        /* \"#utility.yul\":769:801   */\n      slt\n        /* \"#utility.yul\":766:885   */\n      iszero\n      tag_517\n      jumpi\n        /* \"#utility.yul\":804:883   */\n      tag_518\n      tag_398\n      jump\t// in\n    tag_518:\n        /* \"#utility.yul\":766:885   */\n    tag_517:\n        /* \"#utility.yul\":924:925   */\n      0x00\n        /* \"#utility.yul\":949:1002   */\n      tag_519\n        /* \"#utility.yul\":994:1001   */\n      dup5\n        /* \"#utility.yul\":985:991   */\n      dup3\n        /* \"#utility.yul\":974:983   */\n      dup6\n        /* \"#utility.yul\":970:992   */\n      add\n        /* \"#utility.yul\":949:1002   */\n      tag_402\n      jump\t// in\n    tag_519:\n        /* \"#utility.yul\":939:1002   */\n      swap2\n      pop\n        /* \"#utility.yul\":895:1012   */\n      pop\n        /* \"#utility.yul\":690:1019   */\n      swap3\n      swap2\n      pop\n      pop\n      jump\t// out\n        /* \"#utility.yul\":1025:1151   */\n    tag_403:\n        /* \"#utility.yul\":1062:1069   */\n      0x00\n        /* \"#utility.yul\":1102:1144   */\n      0xffffffffffffffffffffffffffffffffffffffff\n        /* \"#utility.yul\":1095:1100   */\n      dup3\n        /* \"#utility.yul\":1091:1145   */\n      and\n        /* \"#utility.yul\":1080:1145   */\n      swap1\n      pop\n        /* \"#utility.yul\":1025:1151   */\n      swap2\n      swap1\n      pop\n      jump\t// out\n        /* \"#utility.yul\":1157:1253   */\n    tag_404:\n        /* \"#utility.yul\":1194:1201   */\n      0x00\n        /* \"#utility.yul\":1223:1247   */\n      tag_522\n        /* \"#utility.yul\":1241:1246   */\n      dup3\n        /* \"#utility.yul\":1223:1247   */\n      tag_403\n      jump\t// in\n    tag_522:\n        /* \"#utility.yul\":1212:1247   */\n      swap1\n      pop\n        /* \"#utility.yul\":1157:1253   */\n      swap2\n      swap1\n      pop\n      jump\t// out\n        /* \"#utility.yul\":1259:1381   */\n    tag_405:\n        /* \"#utility.yul\":1332:1356   */\n      tag_524\n        /* \"#utility.yul\":1350:1355   */\n      dup2\n        /* \"#utility.yul\":1332:1356   */\n      tag_404\n      jump\t// in\n    tag_524:\n        /* \"#utility.yul\":1325:1330   */\n      dup2\n        /* \"#utility.yul\":1322:1357   */\n      eq\n        /* \"#utility.yul\":1312:1375   */\n      tag_525\n      jumpi\n        /* \"#utility.yul\":1371:1372   */\n      0x00\n        /* \"#utility.yul\":1368:1369   */\n      dup1\n        /* \"#utility.yul\":1361:1373   */\n      revert\n        /* \"#utility.yul\":1312:1375   */\n    tag_525:\n        /* \"#utility.yul\":1259:1381   */\n      pop\n      jump\t// out\n        /* \"#utility.yul\":1387:1526   */\n    tag_406:\n        /* \"#utility.yul\":1433:1438   */\n      0x00\n        /* \"#utility.yul\":1471:1477   */\n      dup2\n        /* \"#utility.yul\":1458:1478   */\n      calldataload\n        /* \"#utility.yul\":1449:1478   */\n      swap1\n      pop\n        /* \"#utility.yul\":1487:1520   */\n      tag_527\n        /* \"#utility.yul\":1514:1519   */\n      dup2\n        /* \"#utility.yul\":1487:1520   */\n      tag_405\n      jump\t// in\n    tag_527:\n        /* \"#utility.yul\":1387:1526   */\n      swap3\n      swap2\n      pop\n      pop\n      jump\t// out\n        /* \"#utility.yul\":1532:2443   */\n    tag_38:\n        /* \"#utility.yul\":1627:1633   */\n      0x00\n        /* \"#utility.yul\":1635:1641   */\n      dup1\n        /* \"#utility.yul\":1643:1649   */\n      0x00\n        /* \"#utility.yul\":1651:1657   */\n      dup1\n        /* \"#utility.yul\":1659:1665   */\n      0x00\n        /* \"#utility.yul\":1708:1711   */\n      0xa0\n        /* \"#utility.yul\":1696:1705   */\n      dup7\n        /* \"#utility.yul\":1687:1694   */\n      dup9\n        /* \"#utility.yul\":1683:1706   */\n      sub\n        /* \"#utility.yul\":1679:1712   */\n      slt\n        /* \"#utility.yul\":1676:1796   */\n      iszero\n      tag_529\n      jumpi\n        /* \"#utility.yul\":1715:1794   */\n      tag_530\n      tag_398\n      jump\t// in\n    tag_530:\n        /* \"#utility.yul\":1676:1796   */\n    tag_529:\n        /* \"#utility.yul\":1835:1836   */\n      0x00\n        /* \"#utility.yul\":1860:1913   */\n      tag_531\n        /* \"#utility.yul\":1905:1912   */\n      dup9\n        /* \"#utility.yul\":1896:1902   */\n      dup3\n        /* \"#utility.yul\":1885:1894   */\n      dup10\n        /* \"#utility.yul\":1881:1903   */\n      add\n        /* \"#utility.yul\":1860:1913   */\n      tag_406\n      jump\t// in\n    tag_531:\n        /* \"#utility.yul\":1850:1913   */\n      swap6\n      pop\n        /* \"#utility.yul\":1806:1923   */\n      pop\n        /* \"#utility.yul\":1962:1964   */\n      0x20\n        /* \"#utility.yul\":1988:2041   */\n      tag_532\n        /* \"#utility.yul\":2033:2040   */\n      dup9\n        /* \"#utility.yul\":2024:2030   */\n      dup3\n        /* \"#utility.yul\":2013:2022   */\n      dup10\n        /* \"#utility.yul\":2009:2031   */\n      add\n        /* \"#utility.yul\":1988:2041   */\n      tag_406\n      jump\t// in\n    tag_532:\n        /* \"#utility.yul\":1978:2041   */\n      swap5\n      pop\n        /* \"#utility.yul\":1933:2051   */\n      pop\n        /* \"#utility.yul\":2090:2092   */\n      0x40\n        /* \"#utility.yul\":2116:2169   */\n      tag_533\n        /* \"#utility.yul\":2161:2168   */\n      dup9\n        /* \"#utility.yul\":2152:2158   */\n      dup3\n        /* \"#utility.yul\":2141:2150   */\n      dup10\n        /* \"#utility.yul\":2137:2159   */\n      add\n        /* \"#utility.yul\":2116:2169   */\n      tag_406\n      jump\t// in\n    tag_533:\n        /* \"#utility.yul\":2106:2169   */\n      swap4\n      pop\n        /* \"#utility.yul\":2061:2179   */\n      pop\n        /* \"#utility.yul\":2218:2220   */\n      0x60\n        /* \"#utility.yul\":2244:2297   */\n      tag_534\n        /* \"#utility.yul\":2289:2296   */\n      dup9\n        /* \"#utility.yul\":2280:2286   */\n      dup3\n        /* \"#utility.yul\":2269:2278   */\n      dup10\n        /* \"#utility.yul\":2265:2287   */\n      add\n        /* \"#utility.yul\":2244:2297   */\n      tag_406\n      jump\t// in\n    tag_534:\n        /* \"#utility.yul\":2234:2297   */\n      swap3\n      pop\n        /* \"#utility.yul\":2189:2307   */\n      pop\n        /* \"#utility.yul\":2346:2349   */\n      0x80\n        /* \"#utility.yul\":2373:2426   */\n      tag_535\n        /* \"#utility.yul\":2418:2425   */\n      dup9\n        /* \"#utility.yul\":2409:2415   */\n      dup3\n        /* \"#utility.yul\":2398:2407   */\n      dup10\n        /* \"#utility.yul\":2394:2416   */\n      add\n        /* \"#utility.yul\":2373:2426   */\n      tag_406\n      jump\t// in\n    tag_535:\n        /* \"#utility.yul\":2363:2426   */\n      swap2\n      pop\n        /* \"#utility.yul\":2317:2436   */\n      pop\n        /* \"#utility.yul\":1532:2443   */\n      swap3\n      swap6\n      pop\n      swap3\n      swap6\n      swap1\n      swap4\n      pop\n      jump\t// out\n        /* \"#utility.yul\":2449:2778   */\n    tag_42:\n        /* \"#utility.yul\":2508:2514   */\n      0x00\n        /* \"#utility.yul\":2557:2559   */\n      0x20\n        /* \"#utility.yul\":2545:2554   */\n      dup3\n        /* \"#utility.yul\":2536:2543   */\n      dup5\n        /* \"#utility.yul\":2532:2555   */\n      sub\n        /* \"#utility.yul\":2528:2560   */\n      slt\n        /* \"#utility.yul\":2525:2644   */\n      iszero\n      tag_537\n      jumpi\n        /* \"#utility.yul\":2563:2642   */\n      tag_538\n      tag_398\n      jump\t// in\n    tag_538:\n        /* \"#utility.yul\":2525:2644   */\n    tag_537:\n        /* \"#utility.yul\":2683:2684   */\n      0x00\n        /* \"#utility.yul\":2708:2761   */\n      tag_539\n        /* \"#utility.yul\":2753:2760   */\n      dup5\n        /* \"#utility.yul\":2744:2750   */\n      dup3\n        /* \"#utility.yul\":2733:2742   */\n      dup6\n        /* \"#utility.yul\":2729:2751   */\n      add\n        /* \"#utility.yul\":2708:2761   */\n      tag_406\n      jump\t// in\n    tag_539:\n        /* \"#utility.yul\":2698:2761   */\n      swap2\n      pop\n        /* \"#utility.yul\":2654:2771   */\n      pop\n        /* \"#utility.yul\":2449:2778   */\n      swap3\n      swap2\n      pop\n      pop\n      jump\t// out\n        /* \"#utility.yul\":2784:2874   */\n    tag_407:\n        /* \"#utility.yul\":2818:2825   */\n      0x00\n        /* \"#utility.yul\":2861:2866   */\n      dup2\n        /* \"#utility.yul\":2854:2867   */\n      iszero\n        /* \"#utility.yul\":2847:2868   */\n      iszero\n        /* \"#utility.yul\":2836:2868   */\n      swap1\n      pop\n        /* \"#utility.yul\":2784:2874   */\n      swap2\n      swap1\n      pop\n      jump\t// out\n        /* \"#utility.yul\":2880:2989   */\n    tag_408:\n        /* \"#utility.yul\":2961:2982   */\n      tag_542\n        /* \"#utility.yul\":2976:2981   */\n      dup2\n        /* \"#utility.yul\":2961:2982   */\n      tag_407\n      jump\t// in\n    tag_542:\n        /* \"#utility.yul\":2956:2959   */\n      dup3\n        /* \"#utility.yul\":2949:2983   */\n      mstore\n        /* \"#utility.yul\":2880:2989   */\n      pop\n      pop\n      jump\t// out\n        /* \"#utility.yul\":2995:3113   */\n    tag_409:\n        /* \"#utility.yul\":3082:3106   */\n      tag_544\n        /* \"#utility.yul\":3100:3105   */\n      dup2\n        /* \"#utility.yul\":3082:3106   */\n      tag_404\n      jump\t// in\n    tag_544:\n        /* \"#utility.yul\":3077:3080   */\n      dup3\n        /* \"#utility.yul\":3070:3107   */\n      mstore\n        /* \"#utility.yul\":2995:3113   */\n      pop\n      pop\n      jump\t// out\n        /* \"#utility.yul\":3119:3237   */\n    tag_410:\n        /* \"#utility.yul\":3206:3230   */\n      tag_546\n        /* \"#utility.yul\":3224:3229   */\n      dup2\n        /* \"#utility.yul\":3206:3230   */\n      tag_400\n      jump\t// in\n    tag_546:\n        /* \"#utility.yul\":3201:3204   */\n      dup3\n        /* \"#utility.yul\":3194:3231   */\n      mstore\n        /* \"#utility.yul\":3119:3237   */\n      pop\n      pop\n      jump\t// out\n        /* \"#utility.yul\":3243:3994   */\n    tag_45:\n        /* \"#utility.yul\":3464:3468   */\n      0x00\n        /* \"#utility.yul\":3502:3505   */\n      0xc0\n        /* \"#utility.yul\":3491:3500   */\n      dup3\n        /* \"#utility.yul\":3487:3506   */\n      add\n        /* \"#utility.yul\":3479:3506   */\n      swap1\n      pop\n        /* \"#utility.yul\":3516:3581   */\n      tag_548\n        /* \"#utility.yul\":3578:3579   */\n      0x00\n        /* \"#utility.yul\":3567:3576   */\n      dup4\n        /* \"#utility.yul\":3563:3580   */\n      add\n        /* \"#utility.yul\":3554:3560   */\n      dup10\n        /* \"#utility.yul\":3516:3581   */\n      tag_408\n      jump\t// in\n    tag_548:\n        /* \"#utility.yul\":3591:3657   */\n      tag_549\n        /* \"#utility.yul\":3653:3655   */\n      0x20\n        /* \"#utility.yul\":3642:3651   */\n      dup4\n        /* \"#utility.yul\":3638:3656   */\n      add\n        /* \"#utility.yul\":3629:3635   */\n      dup9\n        /* \"#utility.yul\":3591:3657   */\n      tag_408\n      jump\t// in\n    tag_549:\n        /* \"#utility.yul\":3667:3739   */\n      tag_550\n        /* \"#utility.yul\":3735:3737   */\n      0x40\n        /* \"#utility.yul\":3724:3733   */\n      dup4\n        /* \"#utility.yul\":3720:3738   */\n      add\n        /* \"#utility.yul\":3711:3717   */\n      dup8\n        /* \"#utility.yul\":3667:3739   */\n      tag_409\n      jump\t// in\n    tag_550:\n        /* \"#utility.yul\":3749:3821   */\n      tag_551\n        /* \"#utility.yul\":3817:3819   */\n      0x60\n        /* \"#utility.yul\":3806:3815   */\n      dup4\n        /* \"#utility.yul\":3802:3820   */\n      add\n        /* \"#utility.yul\":3793:3799   */\n      dup7\n        /* \"#utility.yul\":3749:3821   */\n      tag_409\n      jump\t// in\n    tag_551:\n        /* \"#utility.yul\":3831:3904   */\n      tag_552\n        /* \"#utility.yul\":3899:3902   */\n      0x80\n        /* \"#utility.yul\":3888:3897   */\n      dup4\n        /* \"#utility.yul\":3884:3903   */\n      add\n        /* \"#utility.yul\":3875:3881   */\n      dup6\n        /* \"#utility.yul\":3831:3904   */\n      tag_410\n      jump\t// in\n    tag_552:\n        /* \"#utility.yul\":3914:3987   */\n      tag_553\n        /* \"#utility.yul\":3982:3985   */\n      0xa0\n        /* \"#utility.yul\":3971:3980   */\n      dup4\n        /* \"#utility.yul\":3967:3986   */\n      add\n        /* \"#utility.yul\":3958:3964   */\n      dup5\n        /* \"#utility.yul\":3914:3987   */\n      tag_410\n      jump\t// in\n    tag_553:\n        /* \"#utility.yul\":3243:3994   */\n      swap8\n      swap7\n      pop\n      pop\n      pop\n      pop\n      pop\n      pop\n      pop\n      jump\t// out\n        /* \"#utility.yul\":4000:4222   */\n    tag_49:\n        /* \"#utility.yul\":4093:4097   */\n      0x00\n        /* \"#utility.yul\":4131:4133   */\n      0x20\n        /* \"#utility.yul\":4120:4129   */\n      dup3\n        /* \"#utility.yul\":4116:4134   */\n      add\n        /* \"#utility.yul\":4108:4134   */\n      swap1\n      pop\n        /* \"#utility.yul\":4144:4215   */\n      tag_555\n        /* \"#utility.yul\":4212:4213   */\n      0x00\n        /* \"#utility.yul\":4201:4210   */\n      dup4\n        /* \"#utility.yul\":4197:4214   */\n      add\n        /* \"#utility.yul\":4188:4194   */\n      dup5\n        /* \"#utility.yul\":4144:4215   */\n      tag_410\n      jump\t// in\n    tag_555:\n        /* \"#utility.yul\":4000:4222   */\n      swap3\n      swap2\n      pop\n      pop\n      jump\t// out\n        /* \"#utility.yul\":4228:4450   */\n    tag_53:\n        /* \"#utility.yul\":4321:4325   */\n      0x00\n        /* \"#utility.yul\":4359:4361   */\n      0x20\n        /* \"#utility.yul\":4348:4357   */\n      dup3\n        /* \"#utility.yul\":4344:4362   */\n      add\n        /* \"#utility.yul\":4336:4362   */\n      swap1\n      pop\n        /* \"#utility.yul\":4372:4443   */\n      tag_557\n        /* \"#utility.yul\":4440:4441   */\n      0x00\n        /* \"#utility.yul\":4429:4438   */\n      dup4\n        /* \"#utility.yul\":4425:4442   */\n      add\n        /* \"#utility.yul\":4416:4422   */\n      dup5\n        /* \"#utility.yul\":4372:4443   */\n      tag_409\n      jump\t// in\n    tag_557:\n        /* \"#utility.yul\":4228:4450   */\n      swap3\n      swap2\n      pop\n      pop\n      jump\t// out\n        /* \"#utility.yul\":4456:4599   */\n    tag_411:\n        /* \"#utility.yul\":4552:4558   */\n      0x00\n        /* \"#utility.yul\":4586:4591   */\n      dup2\n        /* \"#utility.yul\":4580:4592   */\n      mload\n        /* \"#utility.yul\":4570:4592   */\n      swap1\n      pop\n        /* \"#utility.yul\":4456:4599   */\n      swap2\n      swap1\n      pop\n      jump\t// out\n        /* \"#utility.yul\":4605:4818   */\n    tag_412:\n        /* \"#utility.yul\":4733:4744   */\n      0x00\n        /* \"#utility.yul\":4767:4773   */\n      dup3\n        /* \"#utility.yul\":4762:4765   */\n      dup3\n        /* \"#utility.yul\":4755:4774   */\n      mstore\n        /* \"#utility.yul\":4807:4811   */\n      0x20\n        /* \"#utility.yul\":4802:4805   */\n      dup3\n        /* \"#utility.yul\":4798:4812   */\n      add\n        /* \"#utility.yul\":4783:4812   */\n      swap1\n      pop\n        /* \"#utility.yul\":4605:4818   */\n      swap3\n      swap2\n      pop\n      pop\n      jump\t// out\n        /* \"#utility.yul\":4824:4985   */\n    tag_413:\n        /* \"#utility.yul\":4920:4924   */\n      0x00\n        /* \"#utility.yul\":4943:4946   */\n      dup2\n        /* \"#utility.yul\":4935:4946   */\n      swap1\n      pop\n        /* \"#utility.yul\":4973:4977   */\n      0x20\n        /* \"#utility.yul\":4968:4971   */\n      dup3\n        /* \"#utility.yul\":4964:4978   */\n      add\n        /* \"#utility.yul\":4956:4978   */\n      swap1\n      pop\n        /* \"#utility.yul\":4824:4985   */\n      swap2\n      swap1\n      pop\n      jump\t// out\n        /* \"#utility.yul\":4991:5099   */\n    tag_414:\n        /* \"#utility.yul\":5068:5092   */\n      tag_562\n        /* \"#utility.yul\":5086:5091   */\n      dup2\n        /* \"#utility.yul\":5068:5092   */\n      tag_404\n      jump\t// in\n    tag_562:\n        /* \"#utility.yul\":5063:5066   */\n      dup3\n        /* \"#utility.yul\":5056:5093   */\n      mstore\n        /* \"#utility.yul\":4991:5099   */\n      pop\n      pop\n      jump\t// out\n        /* \"#utility.yul\":5105:5213   */\n    tag_415:\n        /* \"#utility.yul\":5182:5206   */\n      tag_564\n        /* \"#utility.yul\":5200:5205   */\n      dup2\n        /* \"#utility.yul\":5182:5206   */\n      tag_400\n      jump\t// in\n    tag_564:\n        /* \"#utility.yul\":5177:5180   */\n      dup3\n        /* \"#utility.yul\":5170:5207   */\n      mstore\n        /* \"#utility.yul\":5105:5213   */\n      pop\n      pop\n      jump\t// out\n        /* \"#utility.yul\":5295:5985   */\n    tag_416:\n        /* \"#utility.yul\":5440:5444   */\n      0x60\n        /* \"#utility.yul\":5435:5438   */\n      dup3\n        /* \"#utility.yul\":5431:5445   */\n      add\n        /* \"#utility.yul\":5531:5535   */\n      0x00\n        /* \"#utility.yul\":5524:5529   */\n      dup3\n        /* \"#utility.yul\":5520:5536   */\n      add\n        /* \"#utility.yul\":5514:5537   */\n      mload\n        /* \"#utility.yul\":5550:5613   */\n      tag_566\n        /* \"#utility.yul\":5607:5611   */\n      0x00\n        /* \"#utility.yul\":5602:5605   */\n      dup6\n        /* \"#utility.yul\":5598:5612   */\n      add\n        /* \"#utility.yul\":5584:5596   */\n      dup3\n        /* \"#utility.yul\":5550:5613   */\n      tag_414\n      jump\t// in\n    tag_566:\n        /* \"#utility.yul\":5455:5623   */\n      pop\n        /* \"#utility.yul\":5707:5711   */\n      0x20\n        /* \"#utility.yul\":5700:5705   */\n      dup3\n        /* \"#utility.yul\":5696:5712   */\n      add\n        /* \"#utility.yul\":5690:5713   */\n      mload\n        /* \"#utility.yul\":5726:5789   */\n      tag_567\n        /* \"#utility.yul\":5783:5787   */\n      0x20\n        /* \"#utility.yul\":5778:5781   */\n      dup6\n        /* \"#utility.yul\":5774:5788   */\n      add\n        /* \"#utility.yul\":5760:5772   */\n      dup3\n        /* \"#utility.yul\":5726:5789   */\n      tag_415\n      jump\t// in\n    tag_567:\n        /* \"#utility.yul\":5633:5799   */\n      pop\n        /* \"#utility.yul\":5886:5890   */\n      0x40\n        /* \"#utility.yul\":5879:5884   */\n      dup3\n        /* \"#utility.yul\":5875:5891   */\n      add\n        /* \"#utility.yul\":5869:5892   */\n      mload\n        /* \"#utility.yul\":5905:5968   */\n      tag_568\n        /* \"#utility.yul\":5962:5966   */\n      0x40\n        /* \"#utility.yul\":5957:5960   */\n      dup6\n        /* \"#utility.yul\":5953:5967   */\n      add\n        /* \"#utility.yul\":5939:5951   */\n      dup3\n        /* \"#utility.yul\":5905:5968   */\n      tag_415\n      jump\t// in\n    tag_568:\n        /* \"#utility.yul\":5809:5978   */\n      pop\n        /* \"#utility.yul\":5409:5985   */\n      pop\n        /* \"#utility.yul\":5295:5985   */\n      pop\n      pop\n      jump\t// out\n        /* \"#utility.yul\":5991:6286   */\n    tag_417:\n        /* \"#utility.yul\":6118:6128   */\n      0x00\n        /* \"#utility.yul\":6139:6243   */\n      tag_570\n        /* \"#utility.yul\":6239:6242   */\n      dup4\n        /* \"#utility.yul\":6231:6237   */\n      dup4\n        /* \"#utility.yul\":6139:6243   */\n      tag_416\n      jump\t// in\n    tag_570:\n        /* \"#utility.yul\":6275:6279   */\n      0x60\n        /* \"#utility.yul\":6270:6273   */\n      dup4\n        /* \"#utility.yul\":6266:6280   */\n      add\n        /* \"#utility.yul\":6252:6280   */\n      swap1\n      pop\n        /* \"#utility.yul\":5991:6286   */\n      swap3\n      swap2\n      pop\n      pop\n      jump\t// out\n        /* \"#utility.yul\":6292:6434   */\n    tag_418:\n        /* \"#utility.yul\":6391:6395   */\n      0x00\n        /* \"#utility.yul\":6423:6427   */\n      0x20\n        /* \"#utility.yul\":6418:6421   */\n      dup3\n        /* \"#utility.yul\":6414:6428   */\n      add\n        /* \"#utility.yul\":6406:6428   */\n      swap1\n      pop\n        /* \"#utility.yul\":6292:6434   */\n      swap2\n      swap1\n      pop\n      jump\t// out\n        /* \"#utility.yul\":6520:7484   */\n    tag_419:\n        /* \"#utility.yul\":6697:6700   */\n      0x00\n        /* \"#utility.yul\":6726:6809   */\n      tag_573\n        /* \"#utility.yul\":6803:6808   */\n      dup3\n        /* \"#utility.yul\":6726:6809   */\n      tag_411\n      jump\t// in\n    tag_573:\n        /* \"#utility.yul\":6825:6940   */\n      tag_574\n        /* \"#utility.yul\":6933:6939   */\n      dup2\n        /* \"#utility.yul\":6928:6931   */\n      dup6\n        /* \"#utility.yul\":6825:6940   */\n      tag_412\n      jump\t// in\n    tag_574:\n        /* \"#utility.yul\":6818:6940   */\n      swap4\n      pop\n        /* \"#utility.yul\":6964:7049   */\n      tag_575\n        /* \"#utility.yul\":7043:7048   */\n      dup4\n        /* \"#utility.yul\":6964:7049   */\n      tag_413\n      jump\t// in\n    tag_575:\n        /* \"#utility.yul\":7072:7079   */\n      dup1\n        /* \"#utility.yul\":7103:7104   */\n      0x00\n        /* \"#utility.yul\":7088:7459   */\n    tag_576:\n        /* \"#utility.yul\":7113:7119   */\n      dup4\n        /* \"#utility.yul\":7110:7111   */\n      dup2\n        /* \"#utility.yul\":7107:7120   */\n      lt\n        /* \"#utility.yul\":7088:7459   */\n      iszero\n      tag_578\n      jumpi\n        /* \"#utility.yul\":7189:7195   */\n      dup2\n        /* \"#utility.yul\":7183:7196   */\n      mload\n        /* \"#utility.yul\":7216:7337   */\n      tag_579\n        /* \"#utility.yul\":7333:7336   */\n      dup9\n        /* \"#utility.yul\":7318:7331   */\n      dup3\n        /* \"#utility.yul\":7216:7337   */\n      tag_417\n      jump\t// in\n    tag_579:\n        /* \"#utility.yul\":7209:7337   */\n      swap8\n      pop\n        /* \"#utility.yul\":7360:7449   */\n      tag_580\n        /* \"#utility.yul\":7442:7448   */\n      dup4\n        /* \"#utility.yul\":7360:7449   */\n      tag_418\n      jump\t// in\n    tag_580:\n        /* \"#utility.yul\":7350:7449   */\n      swap3\n      pop\n        /* \"#utility.yul\":7148:7459   */\n      pop\n        /* \"#utility.yul\":7135:7136   */\n      0x01\n        /* \"#utility.yul\":7132:7133   */\n      dup2\n        /* \"#utility.yul\":7128:7137   */\n      add\n        /* \"#utility.yul\":7123:7137   */\n      swap1\n      pop\n        /* \"#utility.yul\":7088:7459   */\n      jump(tag_576)\n    tag_578:\n        /* \"#utility.yul\":7092:7106   */\n      pop\n        /* \"#utility.yul\":7475:7478   */\n      dup6\n        /* \"#utility.yul\":7468:7478   */\n      swap4\n      pop\n        /* \"#utility.yul\":6702:7484   */\n      pop\n      pop\n      pop\n        /* \"#utility.yul\":6520:7484   */\n      swap3\n      swap2\n      pop\n      pop\n      jump\t// out\n        /* \"#utility.yul\":7490:7979   */\n    tag_58:\n        /* \"#utility.yul\":7691:7695   */\n      0x00\n        /* \"#utility.yul\":7729:7731   */\n      0x20\n        /* \"#utility.yul\":7718:7727   */\n      dup3\n        /* \"#utility.yul\":7714:7732   */\n      add\n        /* \"#utility.yul\":7706:7732   */\n      swap1\n      pop\n        /* \"#utility.yul\":7778:7787   */\n      dup2\n        /* \"#utility.yul\":7772:7776   */\n      dup2\n        /* \"#utility.yul\":7768:7788   */\n      sub\n        /* \"#utility.yul\":7764:7765   */\n      0x00\n        /* \"#utility.yul\":7753:7762   */\n      dup4\n        /* \"#utility.yul\":7749:7766   */\n      add\n        /* \"#utility.yul\":7742:7789   */\n      mstore\n        /* \"#utility.yul\":7806:7972   */\n      tag_582\n        /* \"#utility.yul\":7967:7971   */\n      dup2\n        /* \"#utility.yul\":7958:7964   */\n      dup5\n        /* \"#utility.yul\":7806:7972   */\n      tag_419\n      jump\t// in\n    tag_582:\n        /* \"#utility.yul\":7798:7972   */\n      swap1\n      pop\n        /* \"#utility.yul\":7490:7979   */\n      swap3\n      swap2\n      pop\n      pop\n      jump\t// out\n        /* \"#utility.yul\":7985:8071   */\n    tag_420:\n        /* \"#utility.yul\":8020:8027   */\n      0x00\n        /* \"#utility.yul\":8060:8064   */\n      0xff\n        /* \"#utility.yul\":8053:8058   */\n      dup3\n        /* \"#utility.yul\":8049:8065   */\n      and\n        /* \"#utility.yul\":8038:8065   */\n      swap1\n      pop\n        /* \"#utility.yul\":7985:8071   */\n      swap2\n      swap1\n      pop\n      jump\t// out\n        /* \"#utility.yul\":8077:8195   */\n    tag_421:\n        /* \"#utility.yul\":8148:8170   */\n      tag_585\n        /* \"#utility.yul\":8164:8169   */\n      dup2\n        /* \"#utility.yul\":8148:8170   */\n      tag_420\n      jump\t// in\n    tag_585:\n        /* \"#utility.yul\":8141:8146   */\n      dup2\n        /* \"#utility.yul\":8138:8171   */\n      eq\n        /* \"#utility.yul\":8128:8189   */\n      tag_586\n      jumpi\n        /* \"#utility.yul\":8185:8186   */\n      0x00\n        /* \"#utility.yul\":8182:8183   */\n      dup1\n        /* \"#utility.yul\":8175:8187   */\n      revert\n        /* \"#utility.yul\":8128:8189   */\n    tag_586:\n        /* \"#utility.yul\":8077:8195   */\n      pop\n      jump\t// out\n        /* \"#utility.yul\":8201:8336   */\n    tag_422:\n        /* \"#utility.yul\":8245:8250   */\n      0x00\n        /* \"#utility.yul\":8283:8289   */\n      dup2\n        /* \"#utility.yul\":8270:8290   */\n      calldataload\n        /* \"#utility.yul\":8261:8290   */\n      swap1\n      pop\n        /* \"#utility.yul\":8299:8330   */\n      tag_588\n        /* \"#utility.yul\":8324:8329   */\n      dup2\n        /* \"#utility.yul\":8299:8330   */\n      tag_421\n      jump\t// in\n    tag_588:\n        /* \"#utility.yul\":8201:8336   */\n      swap3\n      swap2\n      pop\n      pop\n      jump\t// out\n        /* \"#utility.yul\":8342:8667   */\n    tag_61:\n        /* \"#utility.yul\":8399:8405   */\n      0x00\n        /* \"#utility.yul\":8448:8450   */\n      0x20\n        /* \"#utility.yul\":8436:8445   */\n      dup3\n        /* \"#utility.yul\":8427:8434   */\n      dup5\n        /* \"#utility.yul\":8423:8446   */\n      sub\n        /* \"#utility.yul\":8419:8451   */\n      slt\n        /* \"#utility.yul\":8416:8535   */\n      iszero\n      tag_590\n      jumpi\n        /* \"#utility.yul\":8454:8533   */\n      tag_591\n      tag_398\n      jump\t// in\n    tag_591:\n        /* \"#utility.yul\":8416:8535   */\n    tag_590:\n        /* \"#utility.yul\":8574:8575   */\n      0x00\n        /* \"#utility.yul\":8599:8650   */\n      tag_592\n        /* \"#utility.yul\":8642:8649   */\n      dup5\n        /* \"#utility.yul\":8633:8639   */\n      dup3\n        /* \"#utility.yul\":8622:8631   */\n      dup6\n        /* \"#utility.yul\":8618:8640   */\n      add\n        /* \"#utility.yul\":8599:8650   */\n      tag_422\n      jump\t// in\n    tag_592:\n        /* \"#utility.yul\":8589:8650   */\n      swap2\n      pop\n        /* \"#utility.yul\":8545:8660   */\n      pop\n        /* \"#utility.yul\":8342:8667   */\n      swap3\n      swap2\n      pop\n      pop\n      jump\t// out\n        /* \"#utility.yul\":8673:9147   */\n    tag_65:\n        /* \"#utility.yul\":8741:8747   */\n      0x00\n        /* \"#utility.yul\":8749:8755   */\n      dup1\n        /* \"#utility.yul\":8798:8800   */\n      0x40\n        /* \"#utility.yul\":8786:8795   */\n      dup4\n        /* \"#utility.yul\":8777:8784   */\n      dup6\n        /* \"#utility.yul\":8773:8796   */\n      sub\n        /* \"#utility.yul\":8769:8801   */\n      slt\n        /* \"#utility.yul\":8766:8885   */\n      iszero\n      tag_594\n      jumpi\n        /* \"#utility.yul\":8804:8883   */\n      tag_595\n      tag_398\n      jump\t// in\n    tag_595:\n        /* \"#utility.yul\":8766:8885   */\n    tag_594:\n        /* \"#utility.yul\":8924:8925   */\n      0x00\n        /* \"#utility.yul\":8949:9002   */\n      tag_596\n        /* \"#utility.yul\":8994:9001   */\n      dup6\n        /* \"#utility.yul\":8985:8991   */\n      dup3\n        /* \"#utility.yul\":8974:8983   */\n      dup7\n        /* \"#utility.yul\":8970:8992   */\n      add\n        /* \"#utility.yul\":8949:9002   */\n      tag_406\n      jump\t// in\n    tag_596:\n        /* \"#utility.yul\":8939:9002   */\n      swap3\n      pop\n        /* \"#utility.yul\":8895:9012   */\n      pop\n        /* \"#utility.yul\":9051:9053   */\n      0x20\n        /* \"#utility.yul\":9077:9130   */\n      tag_597\n        /* \"#utility.yul\":9122:9129   */\n      dup6\n        /* \"#utility.yul\":9113:9119   */\n      dup3\n        /* \"#utility.yul\":9102:9111   */\n      dup7\n        /* \"#utility.yul\":9098:9120   */\n      add\n        /* \"#utility.yul\":9077:9130   */\n      tag_402\n      jump\t// in\n    tag_597:\n        /* \"#utility.yul\":9067:9130   */\n      swap2\n      pop\n        /* \"#utility.yul\":9022:9140   */\n      pop\n        /* \"#utility.yul\":8673:9147   */\n      swap3\n      pop\n      swap3\n      swap1\n      pop\n      jump\t// out\n        /* \"#utility.yul\":9153:9265   */\n    tag_423:\n        /* \"#utility.yul\":9236:9258   */\n      tag_599\n        /* \"#utility.yul\":9252:9257   */\n      dup2\n        /* \"#utility.yul\":9236:9258   */\n      tag_420\n      jump\t// in\n    tag_599:\n        /* \"#utility.yul\":9231:9234   */\n      dup3\n        /* \"#utility.yul\":9224:9259   */\n      mstore\n        /* \"#utility.yul\":9153:9265   */\n      pop\n      pop\n      jump\t// out\n        /* \"#utility.yul\":9271:9485   */\n    tag_70:\n        /* \"#utility.yul\":9360:9364   */\n      0x00\n        /* \"#utility.yul\":9398:9400   */\n      0x20\n        /* \"#utility.yul\":9387:9396   */\n      dup3\n        /* \"#utility.yul\":9383:9401   */\n      add\n        /* \"#utility.yul\":9375:9401   */\n      swap1\n      pop\n        /* \"#utility.yul\":9411:9478   */\n      tag_601\n        /* \"#utility.yul\":9475:9476   */\n      0x00\n        /* \"#utility.yul\":9464:9473   */\n      dup4\n        /* \"#utility.yul\":9460:9477   */\n      add\n        /* \"#utility.yul\":9451:9457   */\n      dup5\n        /* \"#utility.yul\":9411:9478   */\n      tag_423\n      jump\t// in\n    tag_601:\n        /* \"#utility.yul\":9271:9485   */\n      swap3\n      swap2\n      pop\n      pop\n      jump\t// out\n        /* \"#utility.yul\":9491:10110   */\n    tag_88:\n        /* \"#utility.yul\":9568:9574   */\n      0x00\n        /* \"#utility.yul\":9576:9582   */\n      dup1\n        /* \"#utility.yul\":9584:9590   */\n      0x00\n        /* \"#utility.yul\":9633:9635   */\n      0x60\n        /* \"#utility.yul\":9621:9630   */\n      dup5\n        /* \"#utility.yul\":9612:9619   */\n      dup7\n        /* \"#utility.yul\":9608:9631   */\n      sub\n        /* \"#utility.yul\":9604:9636   */\n      slt\n        /* \"#utility.yul\":9601:9720   */\n      iszero\n      tag_603\n      jumpi\n        /* \"#utility.yul\":9639:9718   */\n      tag_604\n      tag_398\n      jump\t// in\n    tag_604:\n        /* \"#utility.yul\":9601:9720   */\n    tag_603:\n        /* \"#utility.yul\":9759:9760   */\n      0x00\n        /* \"#utility.yul\":9784:9837   */\n      tag_605\n        /* \"#utility.yul\":9829:9836   */\n      dup7\n        /* \"#utility.yul\":9820:9826   */\n      dup3\n        /* \"#utility.yul\":9809:9818   */\n      dup8\n        /* \"#utility.yul\":9805:9827   */\n      add\n        /* \"#utility.yul\":9784:9837   */\n      tag_406\n      jump\t// in\n    tag_605:\n        /* \"#utility.yul\":9774:9837   */\n      swap4\n      pop\n        /* \"#utility.yul\":9730:9847   */\n      pop\n        /* \"#utility.yul\":9886:9888   */\n      0x20\n        /* \"#utility.yul\":9912:9965   */\n      tag_606\n        /* \"#utility.yul\":9957:9964   */\n      dup7\n        /* \"#utility.yul\":9948:9954   */\n      dup3\n        /* \"#utility.yul\":9937:9946   */\n      dup8\n        /* \"#utility.yul\":9933:9955   */\n      add\n        /* \"#utility.yul\":9912:9965   */\n      tag_406\n      jump\t// in\n    tag_606:\n        /* \"#utility.yul\":9902:9965   */\n      swap3\n      pop\n        /* \"#utility.yul\":9857:9975   */\n      pop\n        /* \"#utility.yul\":10014:10016   */\n      0x40\n        /* \"#utility.yul\":10040:10093   */\n      tag_607\n        /* \"#utility.yul\":10085:10092   */\n      dup7\n        /* \"#utility.yul\":10076:10082   */\n      dup3\n        /* \"#utility.yul\":10065:10074   */\n      dup8\n        /* \"#utility.yul\":10061:10083   */\n      add\n        /* \"#utility.yul\":10040:10093   */\n      tag_406\n      jump\t// in\n    tag_607:\n        /* \"#utility.yul\":10030:10093   */\n      swap2\n      pop\n        /* \"#utility.yul\":9985:10103   */\n      pop\n        /* \"#utility.yul\":9491:10110   */\n      swap3\n      pop\n      swap3\n      pop\n      swap3\n      jump\t// out\n        /* \"#utility.yul\":10116:10215   */\n    tag_424:\n        /* \"#utility.yul\":10187:10208   */\n      tag_609\n        /* \"#utility.yul\":10202:10207   */\n      dup2\n        /* \"#utility.yul\":10187:10208   */\n      tag_407\n      jump\t// in\n    tag_609:\n        /* \"#utility.yul\":10182:10185   */\n      dup3\n        /* \"#utility.yul\":10175:10209   */\n      mstore\n        /* \"#utility.yul\":10116:10215   */\n      pop\n      pop\n      jump\t// out\n        /* \"#utility.yul\":10221:10335   */\n    tag_425:\n        /* \"#utility.yul\":10288:10294   */\n      0x00\n        /* \"#utility.yul\":10322:10327   */\n      dup2\n        /* \"#utility.yul\":10316:10328   */\n      mload\n        /* \"#utility.yul\":10306:10328   */\n      swap1\n      pop\n        /* \"#utility.yul\":10221:10335   */\n      swap2\n      swap1\n      pop\n      jump\t// out\n        /* \"#utility.yul\":10341:10515   */\n    tag_426:\n        /* \"#utility.yul\":10430:10441   */\n      0x00\n        /* \"#utility.yul\":10464:10470   */\n      dup3\n        /* \"#utility.yul\":10459:10462   */\n      dup3\n        /* \"#utility.yul\":10452:10471   */\n      mstore\n        /* \"#utility.yul\":10504:10508   */\n      0x20\n        /* \"#utility.yul\":10499:10502   */\n      dup3\n        /* \"#utility.yul\":10495:10509   */\n      add\n        /* \"#utility.yul\":10480:10509   */\n      swap1\n      pop\n        /* \"#utility.yul\":10341:10515   */\n      swap3\n      swap2\n      pop\n      pop\n      jump\t// out\n        /* \"#utility.yul\":10521:10653   */\n    tag_427:\n        /* \"#utility.yul\":10588:10592   */\n      0x00\n        /* \"#utility.yul\":10611:10614   */\n      dup2\n        /* \"#utility.yul\":10603:10614   */\n      swap1\n      pop\n        /* \"#utility.yul\":10641:10645   */\n      0x20\n        /* \"#utility.yul\":10636:10639   */\n      dup3\n        /* \"#utility.yul\":10632:10646   */\n      add\n        /* \"#utility.yul\":10624:10646   */\n      swap1\n      pop\n        /* \"#utility.yul\":10521:10653   */\n      swap2\n      swap1\n      pop\n      jump\t// out\n        /* \"#utility.yul\":10659:10838   */\n    tag_428:\n        /* \"#utility.yul\":10728:10738   */\n      0x00\n        /* \"#utility.yul\":10749:10795   */\n      tag_614\n        /* \"#utility.yul\":10791:10794   */\n      dup4\n        /* \"#utility.yul\":10783:10789   */\n      dup4\n        /* \"#utility.yul\":10749:10795   */\n      tag_414\n      jump\t// in\n    tag_614:\n        /* \"#utility.yul\":10827:10831   */\n      0x20\n        /* \"#utility.yul\":10822:10825   */\n      dup4\n        /* \"#utility.yul\":10818:10832   */\n      add\n        /* \"#utility.yul\":10804:10832   */\n      swap1\n      pop\n        /* \"#utility.yul\":10659:10838   */\n      swap3\n      swap2\n      pop\n      pop\n      jump\t// out\n        /* \"#utility.yul\":10844:10957   */\n    tag_429:\n        /* \"#utility.yul\":10914:10918   */\n      0x00\n        /* \"#utility.yul\":10946:10950   */\n      0x20\n        /* \"#utility.yul\":10941:10944   */\n      dup3\n        /* \"#utility.yul\":10937:10951   */\n      add\n        /* \"#utility.yul\":10929:10951   */\n      swap1\n      pop\n        /* \"#utility.yul\":10844:10957   */\n      swap2\n      swap1\n      pop\n      jump\t// out\n        /* \"#utility.yul\":10993:11705   */\n    tag_430:\n        /* \"#utility.yul\":11102:11105   */\n      0x00\n        /* \"#utility.yul\":11131:11185   */\n      tag_617\n        /* \"#utility.yul\":11179:11184   */\n      dup3\n        /* \"#utility.yul\":11131:11185   */\n      tag_425\n      jump\t// in\n    tag_617:\n        /* \"#utility.yul\":11201:11277   */\n      tag_618\n        /* \"#utility.yul\":11270:11276   */\n      dup2\n        /* \"#utility.yul\":11265:11268   */\n      dup6\n        /* \"#utility.yul\":11201:11277   */\n      tag_426\n      jump\t// in\n    tag_618:\n        /* \"#utility.yul\":11194:11277   */\n      swap4\n      pop\n        /* \"#utility.yul\":11301:11357   */\n      tag_619\n        /* \"#utility.yul\":11351:11356   */\n      dup4\n        /* \"#utility.yul\":11301:11357   */\n      tag_427\n      jump\t// in\n    tag_619:\n        /* \"#utility.yul\":11380:11387   */\n      dup1\n        /* \"#utility.yul\":11411:11412   */\n      0x00\n        /* \"#utility.yul\":11396:11680   */\n    tag_620:\n        /* \"#utility.yul\":11421:11427   */\n      dup4\n        /* \"#utility.yul\":11418:11419   */\n      dup2\n        /* \"#utility.yul\":11415:11428   */\n      lt\n        /* \"#utility.yul\":11396:11680   */\n      iszero\n      tag_622\n      jumpi\n        /* \"#utility.yul\":11497:11503   */\n      dup2\n        /* \"#utility.yul\":11491:11504   */\n      mload\n        /* \"#utility.yul\":11524:11587   */\n      tag_623\n        /* \"#utility.yul\":11583:11586   */\n      dup9\n        /* \"#utility.yul\":11568:11581   */\n      dup3\n        /* \"#utility.yul\":11524:11587   */\n      tag_428\n      jump\t// in\n    tag_623:\n        /* \"#utility.yul\":11517:11587   */\n      swap8\n      pop\n        /* \"#utility.yul\":11610:11670   */\n      tag_624\n        /* \"#utility.yul\":11663:11669   */\n      dup4\n        /* \"#utility.yul\":11610:11670   */\n      tag_429\n      jump\t// in\n    tag_624:\n        /* \"#utility.yul\":11600:11670   */\n      swap3\n      pop\n        /* \"#utility.yul\":11456:11680   */\n      pop\n        /* \"#utility.yul\":11443:11444   */\n      0x01\n        /* \"#utility.yul\":11440:11441   */\n      dup2\n        /* \"#utility.yul\":11436:11445   */\n      add\n        /* \"#utility.yul\":11431:11445   */\n      swap1\n      pop\n        /* \"#utility.yul\":11396:11680   */\n      jump(tag_620)\n    tag_622:\n        /* \"#utility.yul\":11400:11414   */\n      pop\n        /* \"#utility.yul\":11696:11699   */\n      dup6\n        /* \"#utility.yul\":11689:11699   */\n      swap4\n      pop\n        /* \"#utility.yul\":11107:11705   */\n      pop\n      pop\n      pop\n        /* \"#utility.yul\":10993:11705   */\n      swap3\n      swap2\n      pop\n      pop\n      jump\t// out\n        /* \"#utility.yul\":11771:13296   */\n    tag_431:\n        /* \"#utility.yul\":11882:11885   */\n      0x00\n        /* \"#utility.yul\":11918:11922   */\n      0xe0\n        /* \"#utility.yul\":11913:11916   */\n      dup4\n        /* \"#utility.yul\":11909:11923   */\n      add\n        /* \"#utility.yul\":12006:12010   */\n      0x00\n        /* \"#utility.yul\":11999:12004   */\n      dup4\n        /* \"#utility.yul\":11995:12011   */\n      add\n        /* \"#utility.yul\":11989:12012   */\n      mload\n        /* \"#utility.yul\":12025:12082   */\n      tag_626\n        /* \"#utility.yul\":12076:12080   */\n      0x00\n        /* \"#utility.yul\":12071:12074   */\n      dup7\n        /* \"#utility.yul\":12067:12081   */\n      add\n        /* \"#utility.yul\":12053:12065   */\n      dup3\n        /* \"#utility.yul\":12025:12082   */\n      tag_424\n      jump\t// in\n    tag_626:\n        /* \"#utility.yul\":11933:12092   */\n      pop\n        /* \"#utility.yul\":12176:12180   */\n      0x20\n        /* \"#utility.yul\":12169:12174   */\n      dup4\n        /* \"#utility.yul\":12165:12181   */\n      add\n        /* \"#utility.yul\":12159:12182   */\n      mload\n        /* \"#utility.yul\":12195:12252   */\n      tag_627\n        /* \"#utility.yul\":12246:12250   */\n      0x20\n        /* \"#utility.yul\":12241:12244   */\n      dup7\n        /* \"#utility.yul\":12237:12251   */\n      add\n        /* \"#utility.yul\":12223:12235   */\n      dup3\n        /* \"#utility.yul\":12195:12252   */\n      tag_424\n      jump\t// in\n    tag_627:\n        /* \"#utility.yul\":12102:12262   */\n      pop\n        /* \"#utility.yul\":12347:12351   */\n      0x40\n        /* \"#utility.yul\":12340:12345   */\n      dup4\n        /* \"#utility.yul\":12336:12352   */\n      add\n        /* \"#utility.yul\":12330:12353   */\n      mload\n        /* \"#utility.yul\":12366:12429   */\n      tag_628\n        /* \"#utility.yul\":12423:12427   */\n      0x40\n        /* \"#utility.yul\":12418:12421   */\n      dup7\n        /* \"#utility.yul\":12414:12428   */\n      add\n        /* \"#utility.yul\":12400:12412   */\n      dup3\n        /* \"#utility.yul\":12366:12429   */\n      tag_414\n      jump\t// in\n    tag_628:\n        /* \"#utility.yul\":12272:12439   */\n      pop\n        /* \"#utility.yul\":12534:12538   */\n      0x60\n        /* \"#utility.yul\":12527:12532   */\n      dup4\n        /* \"#utility.yul\":12523:12539   */\n      add\n        /* \"#utility.yul\":12517:12540   */\n      mload\n        /* \"#utility.yul\":12553:12616   */\n      tag_629\n        /* \"#utility.yul\":12610:12614   */\n      0x60\n        /* \"#utility.yul\":12605:12608   */\n      dup7\n        /* \"#utility.yul\":12601:12615   */\n      add\n        /* \"#utility.yul\":12587:12599   */\n      dup3\n        /* \"#utility.yul\":12553:12616   */\n      tag_414\n      jump\t// in\n    tag_629:\n        /* \"#utility.yul\":12449:12626   */\n      pop\n        /* \"#utility.yul\":12714:12718   */\n      0x80\n        /* \"#utility.yul\":12707:12712   */\n      dup4\n        /* \"#utility.yul\":12703:12719   */\n      add\n        /* \"#utility.yul\":12697:12720   */\n      mload\n        /* \"#utility.yul\":12733:12796   */\n      tag_630\n        /* \"#utility.yul\":12790:12794   */\n      0x80\n        /* \"#utility.yul\":12785:12788   */\n      dup7\n        /* \"#utility.yul\":12781:12795   */\n      add\n        /* \"#utility.yul\":12767:12779   */\n      dup3\n        /* \"#utility.yul\":12733:12796   */\n      tag_415\n      jump\t// in\n    tag_630:\n        /* \"#utility.yul\":12636:12806   */\n      pop\n        /* \"#utility.yul\":12899:12903   */\n      0xa0\n        /* \"#utility.yul\":12892:12897   */\n      dup4\n        /* \"#utility.yul\":12888:12904   */\n      add\n        /* \"#utility.yul\":12882:12905   */\n      mload\n        /* \"#utility.yul\":12918:12981   */\n      tag_631\n        /* \"#utility.yul\":12975:12979   */\n      0xa0\n        /* \"#utility.yul\":12970:12973   */\n      dup7\n        /* \"#utility.yul\":12966:12980   */\n      add\n        /* \"#utility.yul\":12952:12964   */\n      dup3\n        /* \"#utility.yul\":12918:12981   */\n      tag_415\n      jump\t// in\n    tag_631:\n        /* \"#utility.yul\":12816:12991   */\n      pop\n        /* \"#utility.yul\":13076:13080   */\n      0xc0\n        /* \"#utility.yul\":13069:13074   */\n      dup4\n        /* \"#utility.yul\":13065:13081   */\n      add\n        /* \"#utility.yul\":13059:13082   */\n      mload\n        /* \"#utility.yul\":13129:13132   */\n      dup5\n        /* \"#utility.yul\":13123:13127   */\n      dup3\n        /* \"#utility.yul\":13119:13133   */\n      sub\n        /* \"#utility.yul\":13112:13116   */\n      0xc0\n        /* \"#utility.yul\":13107:13110   */\n      dup7\n        /* \"#utility.yul\":13103:13117   */\n      add\n        /* \"#utility.yul\":13096:13134   */\n      mstore\n        /* \"#utility.yul\":13155:13258   */\n      tag_632\n        /* \"#utility.yul\":13253:13257   */\n      dup3\n        /* \"#utility.yul\":13239:13251   */\n      dup3\n        /* \"#utility.yul\":13155:13258   */\n      tag_430\n      jump\t// in\n    tag_632:\n        /* \"#utility.yul\":13147:13258   */\n      swap2\n      pop\n        /* \"#utility.yul\":13001:13269   */\n      pop\n        /* \"#utility.yul\":13286:13290   */\n      dup1\n        /* \"#utility.yul\":13279:13290   */\n      swap2\n      pop\n        /* \"#utility.yul\":11887:13296   */\n      pop\n        /* \"#utility.yul\":11771:13296   */\n      swap3\n      swap2\n      pop\n      pop\n      jump\t// out\n        /* \"#utility.yul\":13302:13659   */\n    tag_94:\n        /* \"#utility.yul\":13437:13441   */\n      0x00\n        /* \"#utility.yul\":13475:13477   */\n      0x20\n        /* \"#utility.yul\":13464:13473   */\n      dup3\n        /* \"#utility.yul\":13460:13478   */\n      add\n        /* \"#utility.yul\":13452:13478   */\n      swap1\n      pop\n        /* \"#utility.yul\":13524:13533   */\n      dup2\n        /* \"#utility.yul\":13518:13522   */\n      dup2\n        /* \"#utility.yul\":13514:13534   */\n      sub\n        /* \"#utility.yul\":13510:13511   */\n      0x00\n        /* \"#utility.yul\":13499:13508   */\n      dup4\n        /* \"#utility.yul\":13495:13512   */\n      add\n        /* \"#utility.yul\":13488:13535   */\n      mstore\n        /* \"#utility.yul\":13552:13652   */\n      tag_634\n        /* \"#utility.yul\":13647:13651   */\n      dup2\n        /* \"#utility.yul\":13638:13644   */\n      dup5\n        /* \"#utility.yul\":13552:13652   */\n      tag_431\n      jump\t// in\n    tag_634:\n        /* \"#utility.yul\":13544:13652   */\n      swap1\n      pop\n        /* \"#utility.yul\":13302:13659   */\n      swap3\n      swap2\n      pop\n      pop\n      jump\t// out\n        /* \"#utility.yul\":13665:13806   */\n    tag_432:\n        /* \"#utility.yul\":13759:13765   */\n      0x00\n        /* \"#utility.yul\":13793:13798   */\n      dup2\n        /* \"#utility.yul\":13787:13799   */\n      mload\n        /* \"#utility.yul\":13777:13799   */\n      swap1\n      pop\n        /* \"#utility.yul\":13665:13806   */\n      swap2\n      swap1\n      pop\n      jump\t// out\n        /* \"#utility.yul\":13812:14023   */\n    tag_433:\n        /* \"#utility.yul\":13938:13949   */\n      0x00\n        /* \"#utility.yul\":13972:13978   */\n      dup3\n        /* \"#utility.yul\":13967:13970   */\n      dup3\n        /* \"#utility.yul\":13960:13979   */\n      mstore\n        /* \"#utility.yul\":14012:14016   */\n      0x20\n        /* \"#utility.yul\":14007:14010   */\n      dup3\n        /* \"#utility.yul\":14003:14017   */\n      add\n        /* \"#utility.yul\":13988:14017   */\n      swap1\n      pop\n        /* \"#utility.yul\":13812:14023   */\n      swap3\n      swap2\n      pop\n      pop\n      jump\t// out\n        /* \"#utility.yul\":14029:14188   */\n    tag_434:\n        /* \"#utility.yul\":14123:14127   */\n      0x00\n        /* \"#utility.yul\":14146:14149   */\n      dup2\n        /* \"#utility.yul\":14138:14149   */\n      swap1\n      pop\n        /* \"#utility.yul\":14176:14180   */\n      0x20\n        /* \"#utility.yul\":14171:14174   */\n      dup3\n        /* \"#utility.yul\":14167:14181   */\n      add\n        /* \"#utility.yul\":14159:14181   */\n      swap1\n      pop\n        /* \"#utility.yul\":14029:14188   */\n      swap2\n      swap1\n      pop\n      jump\t// out\n        /* \"#utility.yul\":14194:14374   */\n    tag_227:\n        /* \"#utility.yul\":14242:14319   */\n      0x4e487b7100000000000000000000000000000000000000000000000000000000\n        /* \"#utility.yul\":14239:14240   */\n      0x00\n        /* \"#utility.yul\":14232:14320   */\n      mstore\n        /* \"#utility.yul\":14339:14343   */\n      0x21\n        /* \"#utility.yul\":14336:14337   */\n      0x04\n        /* \"#utility.yul\":14329:14344   */\n      mstore\n        /* \"#utility.yul\":14363:14367   */\n      0x24\n        /* \"#utility.yul\":14360:14361   */\n      0x00\n        /* \"#utility.yul\":14353:14368   */\n      revert\n        /* \"#utility.yul\":14380:14496   */\n    tag_435:\n        /* \"#utility.yul\":14464:14465   */\n      0x03\n        /* \"#utility.yul\":14457:14462   */\n      dup2\n        /* \"#utility.yul\":14454:14466   */\n      lt\n        /* \"#utility.yul\":14444:14490   */\n      tag_640\n      jumpi\n        /* \"#utility.yul\":14470:14488   */\n      tag_641\n      tag_227\n      jump\t// in\n    tag_641:\n        /* \"#utility.yul\":14444:14490   */\n    tag_640:\n        /* \"#utility.yul\":14380:14496   */\n      pop\n      jump\t// out\n        /* \"#utility.yul\":14502:14635   */\n    tag_436:\n        /* \"#utility.yul\":14550:14557   */\n      0x00\n        /* \"#utility.yul\":14579:14584   */\n      dup2\n        /* \"#utility.yul\":14568:14584   */\n      swap1\n      pop\n        /* \"#utility.yul\":14585:14629   */\n      tag_643\n        /* \"#utility.yul\":14623:14628   */\n      dup3\n        /* \"#utility.yul\":14585:14629   */\n      tag_435\n      jump\t// in\n    tag_643:\n        /* \"#utility.yul\":14502:14635   */\n      swap2\n      swap1\n      pop\n      jump\t// out\n        /* \"#utility.yul\":14641:14774   */\n    tag_437:\n        /* \"#utility.yul\":14700:14709   */\n      0x00\n        /* \"#utility.yul\":14733:14768   */\n      tag_645\n        /* \"#utility.yul\":14762:14767   */\n      dup3\n        /* \"#utility.yul\":14733:14768   */\n      tag_436\n      jump\t// in\n    tag_645:\n        /* \"#utility.yul\":14720:14768   */\n      swap1\n      pop\n        /* \"#utility.yul\":14641:14774   */\n      swap2\n      swap1\n      pop\n      jump\t// out\n        /* \"#utility.yul\":14780:14919   */\n    tag_438:\n        /* \"#utility.yul\":14866:14912   */\n      tag_647\n        /* \"#utility.yul\":14906:14911   */\n      dup2\n        /* \"#utility.yul\":14866:14912   */\n      tag_437\n      jump\t// in\n    tag_647:\n        /* \"#utility.yul\":14861:14864   */\n      dup3\n        /* \"#utility.yul\":14854:14913   */\n      mstore\n        /* \"#utility.yul\":14780:14919   */\n      pop\n      pop\n      jump\t// out\n        /* \"#utility.yul\":14997:15874   */\n    tag_439:\n        /* \"#utility.yul\":15138:15142   */\n      0x80\n        /* \"#utility.yul\":15133:15136   */\n      dup3\n        /* \"#utility.yul\":15129:15143   */\n      add\n        /* \"#utility.yul\":15228:15232   */\n      0x00\n        /* \"#utility.yul\":15221:15226   */\n      dup3\n        /* \"#utility.yul\":15217:15233   */\n      add\n        /* \"#utility.yul\":15211:15234   */\n      mload\n        /* \"#utility.yul\":15247:15310   */\n      tag_649\n        /* \"#utility.yul\":15304:15308   */\n      0x00\n        /* \"#utility.yul\":15299:15302   */\n      dup6\n        /* \"#utility.yul\":15295:15309   */\n      add\n        /* \"#utility.yul\":15281:15293   */\n      dup3\n        /* \"#utility.yul\":15247:15310   */\n      tag_414\n      jump\t// in\n    tag_649:\n        /* \"#utility.yul\":15153:15320   */\n      pop\n        /* \"#utility.yul\":15409:15413   */\n      0x20\n        /* \"#utility.yul\":15402:15407   */\n      dup3\n        /* \"#utility.yul\":15398:15414   */\n      add\n        /* \"#utility.yul\":15392:15415   */\n      mload\n        /* \"#utility.yul\":15428:15491   */\n      tag_650\n        /* \"#utility.yul\":15485:15489   */\n      0x20\n        /* \"#utility.yul\":15480:15483   */\n      dup6\n        /* \"#utility.yul\":15476:15490   */\n      add\n        /* \"#utility.yul\":15462:15474   */\n      dup3\n        /* \"#utility.yul\":15428:15491   */\n      tag_415\n      jump\t// in\n    tag_650:\n        /* \"#utility.yul\":15330:15501   */\n      pop\n        /* \"#utility.yul\":15589:15593   */\n      0x40\n        /* \"#utility.yul\":15582:15587   */\n      dup3\n        /* \"#utility.yul\":15578:15594   */\n      add\n        /* \"#utility.yul\":15572:15595   */\n      mload\n        /* \"#utility.yul\":15608:15671   */\n      tag_651\n        /* \"#utility.yul\":15665:15669   */\n      0x40\n        /* \"#utility.yul\":15660:15663   */\n      dup6\n        /* \"#utility.yul\":15656:15670   */\n      add\n        /* \"#utility.yul\":15642:15654   */\n      dup3\n        /* \"#utility.yul\":15608:15671   */\n      tag_415\n      jump\t// in\n    tag_651:\n        /* \"#utility.yul\":15511:15681   */\n      pop\n        /* \"#utility.yul\":15766:15770   */\n      0x60\n        /* \"#utility.yul\":15759:15764   */\n      dup3\n        /* \"#utility.yul\":15755:15771   */\n      add\n        /* \"#utility.yul\":15749:15772   */\n      mload\n        /* \"#utility.yul\":15785:15857   */\n      tag_652\n        /* \"#utility.yul\":15851:15855   */\n      0x60\n        /* \"#utility.yul\":15846:15849   */\n      dup6\n        /* \"#utility.yul\":15842:15856   */\n      add\n        /* \"#utility.yul\":15828:15840   */\n      dup3\n        /* \"#utility.yul\":15785:15857   */\n      tag_438\n      jump\t// in\n    tag_652:\n        /* \"#utility.yul\":15691:15867   */\n      pop\n        /* \"#utility.yul\":15107:15874   */\n      pop\n        /* \"#utility.yul\":14997:15874   */\n      pop\n      pop\n      jump\t// out\n        /* \"#utility.yul\":15880:16167   */\n    tag_440:\n        /* \"#utility.yul\":16003:16013   */\n      0x00\n        /* \"#utility.yul\":16024:16124   */\n      tag_654\n        /* \"#utility.yul\":16120:16123   */\n      dup4\n        /* \"#utility.yul\":16112:16118   */\n      dup4\n        /* \"#utility.yul\":16024:16124   */\n      tag_439\n      jump\t// in\n    tag_654:\n        /* \"#utility.yul\":16156:16160   */\n      0x80\n        /* \"#utility.yul\":16151:16154   */\n      dup4\n        /* \"#utility.yul\":16147:16161   */\n      add\n        /* \"#utility.yul\":16133:16161   */\n      swap1\n      pop\n        /* \"#utility.yul\":15880:16167   */\n      swap3\n      swap2\n      pop\n      pop\n      jump\t// out\n        /* \"#utility.yul\":16173:16313   */\n    tag_441:\n        /* \"#utility.yul\":16270:16274   */\n      0x00\n        /* \"#utility.yul\":16302:16306   */\n      0x20\n        /* \"#utility.yul\":16297:16300   */\n      dup3\n        /* \"#utility.yul\":16293:16307   */\n      add\n        /* \"#utility.yul\":16285:16307   */\n      swap1\n      pop\n        /* \"#utility.yul\":16173:16313   */\n      swap2\n      swap1\n      pop\n      jump\t// out\n        /* \"#utility.yul\":16395:17343   */\n    tag_442:\n        /* \"#utility.yul\":16568:16571   */\n      0x00\n        /* \"#utility.yul\":16597:16678   */\n      tag_657\n        /* \"#utility.yul\":16672:16677   */\n      dup3\n        /* \"#utility.yul\":16597:16678   */\n      tag_432\n      jump\t// in\n    tag_657:\n        /* \"#utility.yul\":16694:16807   */\n      tag_658\n        /* \"#utility.yul\":16800:16806   */\n      dup2\n        /* \"#utility.yul\":16795:16798   */\n      dup6\n        /* \"#utility.yul\":16694:16807   */\n      tag_433\n      jump\t// in\n    tag_658:\n        /* \"#utility.yul\":16687:16807   */\n      swap4\n      pop\n        /* \"#utility.yul\":16831:16914   */\n      tag_659\n        /* \"#utility.yul\":16908:16913   */\n      dup4\n        /* \"#utility.yul\":16831:16914   */\n      tag_434\n      jump\t// in\n    tag_659:\n        /* \"#utility.yul\":16937:16944   */\n      dup1\n        /* \"#utility.yul\":16968:16969   */\n      0x00\n        /* \"#utility.yul\":16953:17318   */\n    tag_660:\n        /* \"#utility.yul\":16978:16984   */\n      dup4\n        /* \"#utility.yul\":16975:16976   */\n      dup2\n        /* \"#utility.yul\":16972:16985   */\n      lt\n        /* \"#utility.yul\":16953:17318   */\n      iszero\n      tag_662\n      jumpi\n        /* \"#utility.yul\":17054:17060   */\n      dup2\n        /* \"#utility.yul\":17048:17061   */\n      mload\n        /* \"#utility.yul\":17081:17198   */\n      tag_663\n        /* \"#utility.yul\":17194:17197   */\n      dup9\n        /* \"#utility.yul\":17179:17192   */\n      dup3\n        /* \"#utility.yul\":17081:17198   */\n      tag_440\n      jump\t// in\n    tag_663:\n        /* \"#utility.yul\":17074:17198   */\n      swap8\n      pop\n        /* \"#utility.yul\":17221:17308   */\n      tag_664\n        /* \"#utility.yul\":17301:17307   */\n      dup4\n        /* \"#utility.yul\":17221:17308   */\n      tag_441\n      jump\t// in\n    tag_664:\n        /* \"#utility.yul\":17211:17308   */\n      swap3\n      pop\n        /* \"#utility.yul\":17013:17318   */\n      pop\n        /* \"#utility.yul\":17000:17001   */\n      0x01\n        /* \"#utility.yul\":16997:16998   */\n      dup2\n        /* \"#utility.yul\":16993:17002   */\n      add\n        /* \"#utility.yul\":16988:17002   */\n      swap1\n      pop\n        /* \"#utility.yul\":16953:17318   */\n      jump(tag_660)\n    tag_662:\n        /* \"#utility.yul\":16957:16971   */\n      pop\n        /* \"#utility.yul\":17334:17337   */\n      dup6\n        /* \"#utility.yul\":17327:17337   */\n      swap4\n      pop\n        /* \"#utility.yul\":16573:17343   */\n      pop\n      pop\n      pop\n        /* \"#utility.yul\":16395:17343   */\n      swap3\n      swap2\n      pop\n      pop\n      jump\t// out\n        /* \"#utility.yul\":17349:17830   */\n    tag_117:\n        /* \"#utility.yul\":17546:17550   */\n      0x00\n        /* \"#utility.yul\":17584:17586   */\n      0x20\n        /* \"#utility.yul\":17573:17582   */\n      dup3\n        /* \"#utility.yul\":17569:17587   */\n      add\n        /* \"#utility.yul\":17561:17587   */\n      swap1\n      pop\n        /* \"#utility.yul\":17633:17642   */\n      dup2\n        /* \"#utility.yul\":17627:17631   */\n      dup2\n        /* \"#utility.yul\":17623:17643   */\n      sub\n        /* \"#utility.yul\":17619:17620   */\n      0x00\n        /* \"#utility.yul\":17608:17617   */\n      dup4\n        /* \"#utility.yul\":17604:17621   */\n      add\n        /* \"#utility.yul\":17597:17644   */\n      mstore\n        /* \"#utility.yul\":17661:17823   */\n      tag_666\n        /* \"#utility.yul\":17818:17822   */\n      dup2\n        /* \"#utility.yul\":17809:17815   */\n      dup5\n        /* \"#utility.yul\":17661:17823   */\n      tag_442\n      jump\t// in\n    tag_666:\n        /* \"#utility.yul\":17653:17823   */\n      swap1\n      pop\n        /* \"#utility.yul\":17349:17830   */\n      swap3\n      swap2\n      pop\n      pop\n      jump\t// out\n        /* \"#utility.yul\":17836:18005   */\n    tag_443:\n        /* \"#utility.yul\":17920:17931   */\n      0x00\n        /* \"#utility.yul\":17954:17960   */\n      dup3\n        /* \"#utility.yul\":17949:17952   */\n      dup3\n        /* \"#utility.yul\":17942:17961   */\n      mstore\n        /* \"#utility.yul\":17994:17998   */\n      0x20\n        /* \"#utility.yul\":17989:17992   */\n      dup3\n        /* \"#utility.yul\":17985:17999   */\n      add\n        /* \"#utility.yul\":17970:17999   */\n      swap1\n      pop\n        /* \"#utility.yul\":17836:18005   */\n      swap3\n      swap2\n      pop\n      pop\n      jump\t// out\n        /* \"#utility.yul\":18011:18191   */\n    tag_444:\n        /* \"#utility.yul\":18151:18183   */\n      0x4d656d626572736869703a43616c6c6572206973206e6f74206f776e65720000\n        /* \"#utility.yul\":18147:18148   */\n      0x00\n        /* \"#utility.yul\":18139:18145   */\n      dup3\n        /* \"#utility.yul\":18135:18149   */\n      add\n        /* \"#utility.yul\":18128:18184   */\n      mstore\n        /* \"#utility.yul\":18011:18191   */\n      pop\n      jump\t// out\n        /* \"#utility.yul\":18197:18563   */\n    tag_445:\n        /* \"#utility.yul\":18339:18342   */\n      0x00\n        /* \"#utility.yul\":18360:18427   */\n      tag_670\n        /* \"#utility.yul\":18424:18426   */\n      0x1e\n        /* \"#utility.yul\":18419:18422   */\n      dup4\n        /* \"#utility.yul\":18360:18427   */\n      tag_443\n      jump\t// in\n    tag_670:\n        /* \"#utility.yul\":18353:18427   */\n      swap2\n      pop\n        /* \"#utility.yul\":18436:18529   */\n      tag_671\n        /* \"#utility.yul\":18525:18528   */\n      dup3\n        /* \"#utility.yul\":18436:18529   */\n      tag_444\n      jump\t// in\n    tag_671:\n        /* \"#utility.yul\":18554:18556   */\n      0x20\n        /* \"#utility.yul\":18549:18552   */\n      dup3\n        /* \"#utility.yul\":18545:18557   */\n      add\n        /* \"#utility.yul\":18538:18557   */\n      swap1\n      pop\n        /* \"#utility.yul\":18197:18563   */\n      swap2\n      swap1\n      pop\n      jump\t// out\n        /* \"#utility.yul\":18569:18988   */\n    tag_127:\n        /* \"#utility.yul\":18735:18739   */\n      0x00\n        /* \"#utility.yul\":18773:18775   */\n      0x20\n        /* \"#utility.yul\":18762:18771   */\n      dup3\n        /* \"#utility.yul\":18758:18776   */\n      add\n        /* \"#utility.yul\":18750:18776   */\n      swap1\n      pop\n        /* \"#utility.yul\":18822:18831   */\n      dup2\n        /* \"#utility.yul\":18816:18820   */\n      dup2\n        /* \"#utility.yul\":18812:18832   */\n      sub\n        /* \"#utility.yul\":18808:18809   */\n      0x00\n        /* \"#utility.yul\":18797:18806   */\n      dup4\n        /* \"#utility.yul\":18793:18810   */\n      add\n        /* \"#utility.yul\":18786:18833   */\n      mstore\n        /* \"#utility.yul\":18850:18981   */\n      tag_673\n        /* \"#utility.yul\":18976:18980   */\n      dup2\n        /* \"#utility.yul\":18850:18981   */\n      tag_445\n      jump\t// in\n    tag_673:\n        /* \"#utility.yul\":18842:18981   */\n      swap1\n      pop\n        /* \"#utility.yul\":18569:18988   */\n      swap2\n      swap1\n      pop\n      jump\t// out\n        /* \"#utility.yul\":18994:19228   */\n    tag_446:\n        /* \"#utility.yul\":19134:19168   */\n      0x4d656d626572736869703a54686520696e7669746174696f6e20616464726573\n        /* \"#utility.yul\":19130:19131   */\n      0x00\n        /* \"#utility.yul\":19122:19128   */\n      dup3\n        /* \"#utility.yul\":19118:19132   */\n      add\n        /* \"#utility.yul\":19111:19169   */\n      mstore\n        /* \"#utility.yul\":19203:19220   */\n      0x73206d75737420626520626f756e640000000000000000000000000000000000\n        /* \"#utility.yul\":19198:19200   */\n      0x20\n        /* \"#utility.yul\":19190:19196   */\n      dup3\n        /* \"#utility.yul\":19186:19201   */\n      add\n        /* \"#utility.yul\":19179:19221   */\n      mstore\n        /* \"#utility.yul\":18994:19228   */\n      pop\n      jump\t// out\n        /* \"#utility.yul\":19234:19600   */\n    tag_447:\n        /* \"#utility.yul\":19376:19379   */\n      0x00\n        /* \"#utility.yul\":19397:19464   */\n      tag_676\n        /* \"#utility.yul\":19461:19463   */\n      0x2f\n        /* \"#utility.yul\":19456:19459   */\n      dup4\n        /* \"#utility.yul\":19397:19464   */\n      tag_443\n      jump\t// in\n    tag_676:\n        /* \"#utility.yul\":19390:19464   */\n      swap2\n      pop\n        /* \"#utility.yul\":19473:19566   */\n      tag_677\n        /* \"#utility.yul\":19562:19565   */\n      dup3\n        /* \"#utility.yul\":19473:19566   */\n      tag_446\n      jump\t// in\n    tag_677:\n        /* \"#utility.yul\":19591:19593   */\n      0x40\n        /* \"#utility.yul\":19586:19589   */\n      dup3\n        /* \"#utility.yul\":19582:19594   */\n      add\n        /* \"#utility.yul\":19575:19594   */\n      swap1\n      pop\n        /* \"#utility.yul\":19234:19600   */\n      swap2\n      swap1\n      pop\n      jump\t// out\n        /* \"#utility.yul\":19606:20025   */\n    tag_168:\n        /* \"#utility.yul\":19772:19776   */\n      0x00\n        /* \"#utility.yul\":19810:19812   */\n      0x20\n        /* \"#utility.yul\":19799:19808   */\n      dup3\n        /* \"#utility.yul\":19795:19813   */\n      add\n        /* \"#utility.yul\":19787:19813   */\n      swap1\n      pop\n        /* \"#utility.yul\":19859:19868   */\n      dup2\n        /* \"#utility.yul\":19853:19857   */\n      dup2\n        /* \"#utility.yul\":19849:19869   */\n      sub\n        /* \"#utility.yul\":19845:19846   */\n      0x00\n        /* \"#utility.yul\":19834:19843   */\n      dup4\n        /* \"#utility.yul\":19830:19847   */\n      add\n        /* \"#utility.yul\":19823:19870   */\n      mstore\n        /* \"#utility.yul\":19887:20018   */\n      tag_679\n        /* \"#utility.yul\":20013:20017   */\n      dup2\n        /* \"#utility.yul\":19887:20018   */\n      tag_447\n      jump\t// in\n    tag_679:\n        /* \"#utility.yul\":19879:20018   */\n      swap1\n      pop\n        /* \"#utility.yul\":19606:20025   */\n      swap2\n      swap1\n      pop\n      jump\t// out\n        /* \"#utility.yul\":20031:20267   */\n    tag_448:\n        /* \"#utility.yul\":20171:20205   */\n      0x4d656d626572736869703a4475706c6963617465207061727469636970617469\n        /* \"#utility.yul\":20167:20168   */\n      0x00\n        /* \"#utility.yul\":20159:20165   */\n      dup3\n        /* \"#utility.yul\":20155:20169   */\n      add\n        /* \"#utility.yul\":20148:20206   */\n      mstore\n        /* \"#utility.yul\":20240:20259   */\n      0x6f6e206973206e6f7420616c6c6f776564000000000000000000000000000000\n        /* \"#utility.yul\":20235:20237   */\n      0x20\n        /* \"#utility.yul\":20227:20233   */\n      dup3\n        /* \"#utility.yul\":20223:20238   */\n      add\n        /* \"#utility.yul\":20216:20260   */\n      mstore\n        /* \"#utility.yul\":20031:20267   */\n      pop\n      jump\t// out\n        /* \"#utility.yul\":20273:20639   */\n    tag_449:\n        /* \"#utility.yul\":20415:20418   */\n      0x00\n        /* \"#utility.yul\":20436:20503   */\n      tag_682\n        /* \"#utility.yul\":20500:20502   */\n      0x31\n        /* \"#utility.yul\":20495:20498   */\n      dup4\n        /* \"#utility.yul\":20436:20503   */\n      tag_443\n      jump\t// in\n    tag_682:\n        /* \"#utility.yul\":20429:20503   */\n      swap2\n      pop\n        /* \"#utility.yul\":20512:20605   */\n      tag_683\n        /* \"#utility.yul\":20601:20604   */\n      dup3\n        /* \"#utility.yul\":20512:20605   */\n      tag_448\n      jump\t// in\n    tag_683:\n        /* \"#utility.yul\":20630:20632   */\n      0x40\n        /* \"#utility.yul\":20625:20628   */\n      dup3\n        /* \"#utility.yul\":20621:20633   */\n      add\n        /* \"#utility.yul\":20614:20633   */\n      swap1\n      pop\n        /* \"#utility.yul\":20273:20639   */\n      swap2\n      swap1\n      pop\n      jump\t// out\n        /* \"#utility.yul\":20645:21064   */\n    tag_171:\n        /* \"#utility.yul\":20811:20815   */\n      0x00\n        /* \"#utility.yul\":20849:20851   */\n      0x20\n        /* \"#utility.yul\":20838:20847   */\n      dup3\n        /* \"#utility.yul\":20834:20852   */\n      add\n        /* \"#utility.yul\":20826:20852   */\n      swap1\n      pop\n        /* \"#utility.yul\":20898:20907   */\n      dup2\n        /* \"#utility.yul\":20892:20896   */\n      dup2\n        /* \"#utility.yul\":20888:20908   */\n      sub\n        /* \"#utility.yul\":20884:20885   */\n      0x00\n        /* \"#utility.yul\":20873:20882   */\n      dup4\n        /* \"#utility.yul\":20869:20886   */\n      add\n        /* \"#utility.yul\":20862:20909   */\n      mstore\n        /* \"#utility.yul\":20926:21057   */\n      tag_685\n        /* \"#utility.yul\":21052:21056   */\n      dup2\n        /* \"#utility.yul\":20926:21057   */\n      tag_449\n      jump\t// in\n    tag_685:\n        /* \"#utility.yul\":20918:21057   */\n      swap1\n      pop\n        /* \"#utility.yul\":20645:21064   */\n      swap2\n      swap1\n      pop\n      jump\t// out\n        /* \"#utility.yul\":21070:21247   */\n    tag_450:\n        /* \"#utility.yul\":21210:21239   */\n      0x4d656d626572736869703a496e76616c6964206f70657261746f720000000000\n        /* \"#utility.yul\":21206:21207   */\n      0x00\n        /* \"#utility.yul\":21198:21204   */\n      dup3\n        /* \"#utility.yul\":21194:21208   */\n      add\n        /* \"#utility.yul\":21187:21240   */\n      mstore\n        /* \"#utility.yul\":21070:21247   */\n      pop\n      jump\t// out\n        /* \"#utility.yul\":21253:21619   */\n    tag_451:\n        /* \"#utility.yul\":21395:21398   */\n      0x00\n        /* \"#utility.yul\":21416:21483   */\n      tag_688\n        /* \"#utility.yul\":21480:21482   */\n      0x1b\n        /* \"#utility.yul\":21475:21478   */\n      dup4\n        /* \"#utility.yul\":21416:21483   */\n      tag_443\n      jump\t// in\n    tag_688:\n        /* \"#utility.yul\":21409:21483   */\n      swap2\n      pop\n        /* \"#utility.yul\":21492:21585   */\n      tag_689\n        /* \"#utility.yul\":21581:21584   */\n      dup3\n        /* \"#utility.yul\":21492:21585   */\n      tag_450\n      jump\t// in\n    tag_689:\n        /* \"#utility.yul\":21610:21612   */\n      0x20\n        /* \"#utility.yul\":21605:21608   */\n      dup3\n        /* \"#utility.yul\":21601:21613   */\n      add\n        /* \"#utility.yul\":21594:21613   */\n      swap1\n      pop\n        /* \"#utility.yul\":21253:21619   */\n      swap2\n      swap1\n      pop\n      jump\t// out\n        /* \"#utility.yul\":21625:22044   */\n    tag_174:\n        /* \"#utility.yul\":21791:21795   */\n      0x00\n        /* \"#utility.yul\":21829:21831   */\n      0x20\n        /* \"#utility.yul\":21818:21827   */\n      dup3\n        /* \"#utility.yul\":21814:21832   */\n      add\n        /* \"#utility.yul\":21806:21832   */\n      swap1\n      pop\n        /* \"#utility.yul\":21878:21887   */\n      dup2\n        /* \"#utility.yul\":21872:21876   */\n      dup2\n        /* \"#utility.yul\":21868:21888   */\n      sub\n        /* \"#utility.yul\":21864:21865   */\n      0x00\n        /* \"#utility.yul\":21853:21862   */\n      dup4\n        /* \"#utility.yul\":21849:21866   */\n      add\n        /* \"#utility.yul\":21842:21889   */\n      mstore\n        /* \"#utility.yul\":21906:22037   */\n      tag_691\n        /* \"#utility.yul\":22032:22036   */\n      dup2\n        /* \"#utility.yul\":21906:22037   */\n      tag_451\n      jump\t// in\n    tag_691:\n        /* \"#utility.yul\":21898:22037   */\n      swap1\n      pop\n        /* \"#utility.yul\":21625:22044   */\n      swap2\n      swap1\n      pop\n      jump\t// out\n        /* \"#utility.yul\":22050:22273   */\n    tag_452:\n        /* \"#utility.yul\":22190:22224   */\n      0x4d656d626572736869703a496e76616c69642070757263686173696e6720616d\n        /* \"#utility.yul\":22186:22187   */\n      0x00\n        /* \"#utility.yul\":22178:22184   */\n      dup3\n        /* \"#utility.yul\":22174:22188   */\n      add\n        /* \"#utility.yul\":22167:22225   */\n      mstore\n        /* \"#utility.yul\":22259:22265   */\n      0x6f756e7400000000000000000000000000000000000000000000000000000000\n        /* \"#utility.yul\":22254:22256   */\n      0x20\n        /* \"#utility.yul\":22246:22252   */\n      dup3\n        /* \"#utility.yul\":22242:22257   */\n      add\n        /* \"#utility.yul\":22235:22266   */\n      mstore\n        /* \"#utility.yul\":22050:22273   */\n      pop\n      jump\t// out\n        /* \"#utility.yul\":22279:22645   */\n    tag_453:\n        /* \"#utility.yul\":22421:22424   */\n      0x00\n        /* \"#utility.yul\":22442:22509   */\n      tag_694\n        /* \"#utility.yul\":22506:22508   */\n      0x24\n        /* \"#utility.yul\":22501:22504   */\n      dup4\n        /* \"#utility.yul\":22442:22509   */\n      tag_443\n      jump\t// in\n    tag_694:\n        /* \"#utility.yul\":22435:22509   */\n      swap2\n      pop\n        /* \"#utility.yul\":22518:22611   */\n      tag_695\n        /* \"#utility.yul\":22607:22610   */\n      dup3\n        /* \"#utility.yul\":22518:22611   */\n      tag_452\n      jump\t// in\n    tag_695:\n        /* \"#utility.yul\":22636:22638   */\n      0x40\n        /* \"#utility.yul\":22631:22634   */\n      dup3\n        /* \"#utility.yul\":22627:22639   */\n      add\n        /* \"#utility.yul\":22620:22639   */\n      swap1\n      pop\n        /* \"#utility.yul\":22279:22645   */\n      swap2\n      swap1\n      pop\n      jump\t// out\n        /* \"#utility.yul\":22651:23070   */\n    tag_178:\n        /* \"#utility.yul\":22817:22821   */\n      0x00\n        /* \"#utility.yul\":22855:22857   */\n      0x20\n        /* \"#utility.yul\":22844:22853   */\n      dup3\n        /* \"#utility.yul\":22840:22858   */\n      add\n        /* \"#utility.yul\":22832:22858   */\n      swap1\n      pop\n        /* \"#utility.yul\":22904:22913   */\n      dup2\n        /* \"#utility.yul\":22898:22902   */\n      dup2\n        /* \"#utility.yul\":22894:22914   */\n      sub\n        /* \"#utility.yul\":22890:22891   */\n      0x00\n        /* \"#utility.yul\":22879:22888   */\n      dup4\n        /* \"#utility.yul\":22875:22892   */\n      add\n        /* \"#utility.yul\":22868:22915   */\n      mstore\n        /* \"#utility.yul\":22932:23063   */\n      tag_697\n        /* \"#utility.yul\":23058:23062   */\n      dup2\n        /* \"#utility.yul\":22932:23063   */\n      tag_453\n      jump\t// in\n    tag_697:\n        /* \"#utility.yul\":22924:23063   */\n      swap1\n      pop\n        /* \"#utility.yul\":22651:23070   */\n      swap2\n      swap1\n      pop\n      jump\t// out\n        /* \"#utility.yul\":23076:23256   */\n    tag_454:\n        /* \"#utility.yul\":23124:23201   */\n      0x4e487b7100000000000000000000000000000000000000000000000000000000\n        /* \"#utility.yul\":23121:23122   */\n      0x00\n        /* \"#utility.yul\":23114:23202   */\n      mstore\n        /* \"#utility.yul\":23221:23225   */\n      0x11\n        /* \"#utility.yul\":23218:23219   */\n      0x04\n        /* \"#utility.yul\":23211:23226   */\n      mstore\n        /* \"#utility.yul\":23245:23249   */\n      0x24\n        /* \"#utility.yul\":23242:23243   */\n      0x00\n        /* \"#utility.yul\":23235:23250   */\n      revert\n        /* \"#utility.yul\":23262:23672   */\n    tag_180:\n        /* \"#utility.yul\":23302:23309   */\n      0x00\n        /* \"#utility.yul\":23325:23345   */\n      tag_700\n        /* \"#utility.yul\":23343:23344   */\n      dup3\n        /* \"#utility.yul\":23325:23345   */\n      tag_400\n      jump\t// in\n    tag_700:\n        /* \"#utility.yul\":23320:23345   */\n      swap2\n      pop\n        /* \"#utility.yul\":23359:23379   */\n      tag_701\n        /* \"#utility.yul\":23377:23378   */\n      dup4\n        /* \"#utility.yul\":23359:23379   */\n      tag_400\n      jump\t// in\n    tag_701:\n        /* \"#utility.yul\":23354:23379   */\n      swap3\n      pop\n        /* \"#utility.yul\":23414:23415   */\n      dup3\n        /* \"#utility.yul\":23411:23412   */\n      dup3\n        /* \"#utility.yul\":23407:23416   */\n      mul\n        /* \"#utility.yul\":23436:23466   */\n      tag_702\n        /* \"#utility.yul\":23454:23465   */\n      dup2\n        /* \"#utility.yul\":23436:23466   */\n      tag_400\n      jump\t// in\n    tag_702:\n        /* \"#utility.yul\":23425:23466   */\n      swap2\n      pop\n        /* \"#utility.yul\":23615:23616   */\n      dup3\n        /* \"#utility.yul\":23606:23613   */\n      dup3\n        /* \"#utility.yul\":23602:23617   */\n      div\n        /* \"#utility.yul\":23599:23600   */\n      dup5\n        /* \"#utility.yul\":23596:23618   */\n      eq\n        /* \"#utility.yul\":23576:23577   */\n      dup4\n        /* \"#utility.yul\":23569:23578   */\n      iszero\n        /* \"#utility.yul\":23549:23632   */\n      or\n        /* \"#utility.yul\":23526:23665   */\n      tag_703\n      jumpi\n        /* \"#utility.yul\":23645:23663   */\n      tag_704\n      tag_454\n      jump\t// in\n    tag_704:\n        /* \"#utility.yul\":23526:23665   */\n    tag_703:\n        /* \"#utility.yul\":23310:23672   */\n      pop\n        /* \"#utility.yul\":23262:23672   */\n      swap3\n      swap2\n      pop\n      pop\n      jump\t// out\n        /* \"#utility.yul\":23678:23858   */\n    tag_455:\n        /* \"#utility.yul\":23726:23803   */\n      0x4e487b7100000000000000000000000000000000000000000000000000000000\n        /* \"#utility.yul\":23723:23724   */\n      0x00\n        /* \"#utility.yul\":23716:23804   */\n      mstore\n        /* \"#utility.yul\":23823:23827   */\n      0x12\n        /* \"#utility.yul\":23820:23821   */\n      0x04\n        /* \"#utility.yul\":23813:23828   */\n      mstore\n        /* \"#utility.yul\":23847:23851   */\n      0x24\n        /* \"#utility.yul\":23844:23845   */\n      0x00\n        /* \"#utility.yul\":23837:23852   */\n      revert\n        /* \"#utility.yul\":23864:24049   */\n    tag_182:\n        /* \"#utility.yul\":23904:23905   */\n      0x00\n        /* \"#utility.yul\":23921:23941   */\n      tag_707\n        /* \"#utility.yul\":23939:23940   */\n      dup3\n        /* \"#utility.yul\":23921:23941   */\n      tag_400\n      jump\t// in\n    tag_707:\n        /* \"#utility.yul\":23916:23941   */\n      swap2\n      pop\n        /* \"#utility.yul\":23955:23975   */\n      tag_708\n        /* \"#utility.yul\":23973:23974   */\n      dup4\n        /* \"#utility.yul\":23955:23975   */\n      tag_400\n      jump\t// in\n    tag_708:\n        /* \"#utility.yul\":23950:23975   */\n      swap3\n      pop\n        /* \"#utility.yul\":23994:23995   */\n      dup3\n        /* \"#utility.yul\":23984:24019   */\n      tag_709\n      jumpi\n        /* \"#utility.yul\":23999:24017   */\n      tag_710\n      tag_455\n      jump\t// in\n    tag_710:\n        /* \"#utility.yul\":23984:24019   */\n    tag_709:\n        /* \"#utility.yul\":24041:24042   */\n      dup3\n        /* \"#utility.yul\":24038:24039   */\n      dup3\n        /* \"#utility.yul\":24034:24043   */\n      div\n        /* \"#utility.yul\":24029:24043   */\n      swap1\n      pop\n        /* \"#utility.yul\":23864:24049   */\n      swap3\n      swap2\n      pop\n      pop\n      jump\t// out\n        /* \"#utility.yul\":24055:24249   */\n    tag_193:\n        /* \"#utility.yul\":24095:24099   */\n      0x00\n        /* \"#utility.yul\":24115:24135   */\n      tag_712\n        /* \"#utility.yul\":24133:24134   */\n      dup3\n        /* \"#utility.yul\":24115:24135   */\n      tag_400\n      jump\t// in\n    tag_712:\n        /* \"#utility.yul\":24110:24135   */\n      swap2\n      pop\n        /* \"#utility.yul\":24149:24169   */\n      tag_713\n        /* \"#utility.yul\":24167:24168   */\n      dup4\n        /* \"#utility.yul\":24149:24169   */\n      tag_400\n      jump\t// in\n    tag_713:\n        /* \"#utility.yul\":24144:24169   */\n      swap3\n      pop\n        /* \"#utility.yul\":24193:24194   */\n      dup3\n        /* \"#utility.yul\":24190:24191   */\n      dup3\n        /* \"#utility.yul\":24186:24195   */\n      sub\n        /* \"#utility.yul\":24178:24195   */\n      swap1\n      pop\n        /* \"#utility.yul\":24217:24218   */\n      dup2\n        /* \"#utility.yul\":24211:24215   */\n      dup2\n        /* \"#utility.yul\":24208:24219   */\n      gt\n        /* \"#utility.yul\":24205:24242   */\n      iszero\n      tag_714\n      jumpi\n        /* \"#utility.yul\":24222:24240   */\n      tag_715\n      tag_454\n      jump\t// in\n    tag_715:\n        /* \"#utility.yul\":24205:24242   */\n    tag_714:\n        /* \"#utility.yul\":24055:24249   */\n      swap3\n      swap2\n      pop\n      pop\n      jump\t// out\n        /* \"#utility.yul\":24255:24436   */\n    tag_456:\n        /* \"#utility.yul\":24395:24428   */\n      0x4d656d626572736869703a5a65726f20696e697469616c206164647265737300\n        /* \"#utility.yul\":24391:24392   */\n      0x00\n        /* \"#utility.yul\":24383:24389   */\n      dup3\n        /* \"#utility.yul\":24379:24393   */\n      add\n        /* \"#utility.yul\":24372:24429   */\n      mstore\n        /* \"#utility.yul\":24255:24436   */\n      pop\n      jump\t// out\n        /* \"#utility.yul\":24442:24808   */\n    tag_457:\n        /* \"#utility.yul\":24584:24587   */\n      0x00\n        /* \"#utility.yul\":24605:24672   */\n      tag_718\n        /* \"#utility.yul\":24669:24671   */\n      0x1f\n        /* \"#utility.yul\":24664:24667   */\n      dup4\n        /* \"#utility.yul\":24605:24672   */\n      tag_443\n      jump\t// in\n    tag_718:\n        /* \"#utility.yul\":24598:24672   */\n      swap2\n      pop\n        /* \"#utility.yul\":24681:24774   */\n      tag_719\n        /* \"#utility.yul\":24770:24773   */\n      dup3\n        /* \"#utility.yul\":24681:24774   */\n      tag_456\n      jump\t// in\n    tag_719:\n        /* \"#utility.yul\":24799:24801   */\n      0x20\n        /* \"#utility.yul\":24794:24797   */\n      dup3\n        /* \"#utility.yul\":24790:24802   */\n      add\n        /* \"#utility.yul\":24783:24802   */\n      swap1\n      pop\n        /* \"#utility.yul\":24442:24808   */\n      swap2\n      swap1\n      pop\n      jump\t// out\n        /* \"#utility.yul\":24814:25233   */\n    tag_201:\n        /* \"#utility.yul\":24980:24984   */\n      0x00\n        /* \"#utility.yul\":25018:25020   */\n      0x20\n        /* \"#utility.yul\":25007:25016   */\n      dup3\n        /* \"#utility.yul\":25003:25021   */\n      add\n        /* \"#utility.yul\":24995:25021   */\n      swap1\n      pop\n        /* \"#utility.yul\":25067:25076   */\n      dup2\n        /* \"#utility.yul\":25061:25065   */\n      dup2\n        /* \"#utility.yul\":25057:25077   */\n      sub\n        /* \"#utility.yul\":25053:25054   */\n      0x00\n        /* \"#utility.yul\":25042:25051   */\n      dup4\n        /* \"#utility.yul\":25038:25055   */\n      add\n        /* \"#utility.yul\":25031:25078   */\n      mstore\n        /* \"#utility.yul\":25095:25226   */\n      tag_721\n        /* \"#utility.yul\":25221:25225   */\n      dup2\n        /* \"#utility.yul\":25095:25226   */\n      tag_457\n      jump\t// in\n    tag_721:\n        /* \"#utility.yul\":25087:25226   */\n      swap1\n      pop\n        /* \"#utility.yul\":24814:25233   */\n      swap2\n      swap1\n      pop\n      jump\t// out\n        /* \"#utility.yul\":25239:25412   */\n    tag_458:\n        /* \"#utility.yul\":25379:25404   */\n      0x4d656d626572736869703a4e6f7420656c696769626c65000000000000000000\n        /* \"#utility.yul\":25375:25376   */\n      0x00\n        /* \"#utility.yul\":25367:25373   */\n      dup3\n        /* \"#utility.yul\":25363:25377   */\n      add\n        /* \"#utility.yul\":25356:25405   */\n      mstore\n        /* \"#utility.yul\":25239:25412   */\n      pop\n      jump\t// out\n        /* \"#utility.yul\":25418:25784   */\n    tag_459:\n        /* \"#utility.yul\":25560:25563   */\n      0x00\n        /* \"#utility.yul\":25581:25648   */\n      tag_724\n        /* \"#utility.yul\":25645:25647   */\n      0x17\n        /* \"#utility.yul\":25640:25643   */\n      dup4\n        /* \"#utility.yul\":25581:25648   */\n      tag_443\n      jump\t// in\n    tag_724:\n        /* \"#utility.yul\":25574:25648   */\n      swap2\n      pop\n        /* \"#utility.yul\":25657:25750   */\n      tag_725\n        /* \"#utility.yul\":25746:25749   */\n      dup3\n        /* \"#utility.yul\":25657:25750   */\n      tag_458\n      jump\t// in\n    tag_725:\n        /* \"#utility.yul\":25775:25777   */\n      0x20\n        /* \"#utility.yul\":25770:25773   */\n      dup3\n        /* \"#utility.yul\":25766:25778   */\n      add\n        /* \"#utility.yul\":25759:25778   */\n      swap1\n      pop\n        /* \"#utility.yul\":25418:25784   */\n      swap2\n      swap1\n      pop\n      jump\t// out\n        /* \"#utility.yul\":25790:26209   */\n    tag_207:\n        /* \"#utility.yul\":25956:25960   */\n      0x00\n        /* \"#utility.yul\":25994:25996   */\n      0x20\n        /* \"#utility.yul\":25983:25992   */\n      dup3\n        /* \"#utility.yul\":25979:25997   */\n      add\n        /* \"#utility.yul\":25971:25997   */\n      swap1\n      pop\n        /* \"#utility.yul\":26043:26052   */\n      dup2\n        /* \"#utility.yul\":26037:26041   */\n      dup2\n        /* \"#utility.yul\":26033:26053   */\n      sub\n        /* \"#utility.yul\":26029:26030   */\n      0x00\n        /* \"#utility.yul\":26018:26027   */\n      dup4\n        /* \"#utility.yul\":26014:26031   */\n      add\n        /* \"#utility.yul\":26007:26054   */\n      mstore\n        /* \"#utility.yul\":26071:26202   */\n      tag_727\n        /* \"#utility.yul\":26197:26201   */\n      dup2\n        /* \"#utility.yul\":26071:26202   */\n      tag_459\n      jump\t// in\n    tag_727:\n        /* \"#utility.yul\":26063:26202   */\n      swap1\n      pop\n        /* \"#utility.yul\":25790:26209   */\n      swap2\n      swap1\n      pop\n      jump\t// out\n        /* \"#utility.yul\":26215:26384   */\n    tag_460:\n        /* \"#utility.yul\":26355:26376   */\n      0x4d656d626572736869703a4f6e6c792076697000000000000000000000000000\n        /* \"#utility.yul\":26351:26352   */\n      0x00\n        /* \"#utility.yul\":26343:26349   */\n      dup3\n        /* \"#utility.yul\":26339:26353   */\n      add\n        /* \"#utility.yul\":26332:26377   */\n      mstore\n        /* \"#utility.yul\":26215:26384   */\n      pop\n      jump\t// out\n        /* \"#utility.yul\":26390:26756   */\n    tag_461:\n        /* \"#utility.yul\":26532:26535   */\n      0x00\n        /* \"#utility.yul\":26553:26620   */\n      tag_730\n        /* \"#utility.yul\":26617:26619   */\n      0x13\n        /* \"#utility.yul\":26612:26615   */\n      dup4\n        /* \"#utility.yul\":26553:26620   */\n      tag_443\n      jump\t// in\n    tag_730:\n        /* \"#utility.yul\":26546:26620   */\n      swap2\n      pop\n        /* \"#utility.yul\":26629:26722   */\n      tag_731\n        /* \"#utility.yul\":26718:26721   */\n      dup3\n        /* \"#utility.yul\":26629:26722   */\n      tag_460\n      jump\t// in\n    tag_731:\n        /* \"#utility.yul\":26747:26749   */\n      0x20\n        /* \"#utility.yul\":26742:26745   */\n      dup3\n        /* \"#utility.yul\":26738:26750   */\n      add\n        /* \"#utility.yul\":26731:26750   */\n      swap1\n      pop\n        /* \"#utility.yul\":26390:26756   */\n      swap2\n      swap1\n      pop\n      jump\t// out\n        /* \"#utility.yul\":26762:27181   */\n    tag_210:\n        /* \"#utility.yul\":26928:26932   */\n      0x00\n        /* \"#utility.yul\":26966:26968   */\n      0x20\n        /* \"#utility.yul\":26955:26964   */\n      dup3\n        /* \"#utility.yul\":26951:26969   */\n      add\n        /* \"#utility.yul\":26943:26969   */\n      swap1\n      pop\n        /* \"#utility.yul\":27015:27024   */\n      dup2\n        /* \"#utility.yul\":27009:27013   */\n      dup2\n        /* \"#utility.yul\":27005:27025   */\n      sub\n        /* \"#utility.yul\":27001:27002   */\n      0x00\n        /* \"#utility.yul\":26990:26999   */\n      dup4\n        /* \"#utility.yul\":26986:27003   */\n      add\n        /* \"#utility.yul\":26979:27026   */\n      mstore\n        /* \"#utility.yul\":27043:27174   */\n      tag_733\n        /* \"#utility.yul\":27169:27173   */\n      dup2\n        /* \"#utility.yul\":27043:27174   */\n      tag_461\n      jump\t// in\n    tag_733:\n        /* \"#utility.yul\":27035:27174   */\n      swap1\n      pop\n        /* \"#utility.yul\":26762:27181   */\n      swap2\n      swap1\n      pop\n      jump\t// out\n        /* \"#utility.yul\":27187:27357   */\n    tag_462:\n        /* \"#utility.yul\":27327:27349   */\n      0x4d656d626572736869703a4f6e6c79206f6e6365000000000000000000000000\n        /* \"#utility.yul\":27323:27324   */\n      0x00\n        /* \"#utility.yul\":27315:27321   */\n      dup3\n        /* \"#utility.yul\":27311:27325   */\n      add\n        /* \"#utility.yul\":27304:27350   */\n      mstore\n        /* \"#utility.yul\":27187:27357   */\n      pop\n      jump\t// out\n        /* \"#utility.yul\":27363:27729   */\n    tag_463:\n        /* \"#utility.yul\":27505:27508   */\n      0x00\n        /* \"#utility.yul\":27526:27593   */\n      tag_736\n        /* \"#utility.yul\":27590:27592   */\n      0x14\n        /* \"#utility.yul\":27585:27588   */\n      dup4\n        /* \"#utility.yul\":27526:27593   */\n      tag_443\n      jump\t// in\n    tag_736:\n        /* \"#utility.yul\":27519:27593   */\n      swap2\n      pop\n        /* \"#utility.yul\":27602:27695   */\n      tag_737\n        /* \"#utility.yul\":27691:27694   */\n      dup3\n        /* \"#utility.yul\":27602:27695   */\n      tag_462\n      jump\t// in\n    tag_737:\n        /* \"#utility.yul\":27720:27722   */\n      0x20\n        /* \"#utility.yul\":27715:27718   */\n      dup3\n        /* \"#utility.yul\":27711:27723   */\n      add\n        /* \"#utility.yul\":27704:27723   */\n      swap1\n      pop\n        /* \"#utility.yul\":27363:27729   */\n      swap2\n      swap1\n      pop\n      jump\t// out\n        /* \"#utility.yul\":27735:28154   */\n    tag_213:\n        /* \"#utility.yul\":27901:27905   */\n      0x00\n        /* \"#utility.yul\":27939:27941   */\n      0x20\n        /* \"#utility.yul\":27928:27937   */\n      dup3\n        /* \"#utility.yul\":27924:27942   */\n      add\n        /* \"#utility.yul\":27916:27942   */\n      swap1\n      pop\n        /* \"#utility.yul\":27988:27997   */\n      dup2\n        /* \"#utility.yul\":27982:27986   */\n      dup2\n        /* \"#utility.yul\":27978:27998   */\n      sub\n        /* \"#utility.yul\":27974:27975   */\n      0x00\n        /* \"#utility.yul\":27963:27972   */\n      dup4\n        /* \"#utility.yul\":27959:27976   */\n      add\n        /* \"#utility.yul\":27952:27999   */\n      mstore\n        /* \"#utility.yul\":28016:28147   */\n      tag_739\n        /* \"#utility.yul\":28142:28146   */\n      dup2\n        /* \"#utility.yul\":28016:28147   */\n      tag_463\n      jump\t// in\n    tag_739:\n        /* \"#utility.yul\":28008:28147   */\n      swap1\n      pop\n        /* \"#utility.yul\":27735:28154   */\n      swap2\n      swap1\n      pop\n      jump\t// out\n        /* \"#utility.yul\":28160:28341   */\n    tag_464:\n        /* \"#utility.yul\":28300:28333   */\n      0x4d656d626572736869703a496e76616c696420636c61696d20616d6f756e7400\n        /* \"#utility.yul\":28296:28297   */\n      0x00\n        /* \"#utility.yul\":28288:28294   */\n      dup3\n        /* \"#utility.yul\":28284:28298   */\n      add\n        /* \"#utility.yul\":28277:28334   */\n      mstore\n        /* \"#utility.yul\":28160:28341   */\n      pop\n      jump\t// out\n        /* \"#utility.yul\":28347:28713   */\n    tag_465:\n        /* \"#utility.yul\":28489:28492   */\n      0x00\n        /* \"#utility.yul\":28510:28577   */\n      tag_742\n        /* \"#utility.yul\":28574:28576   */\n      0x1f\n        /* \"#utility.yul\":28569:28572   */\n      dup4\n        /* \"#utility.yul\":28510:28577   */\n      tag_443\n      jump\t// in\n    tag_742:\n        /* \"#utility.yul\":28503:28577   */\n      swap2\n      pop\n        /* \"#utility.yul\":28586:28679   */\n      tag_743\n        /* \"#utility.yul\":28675:28678   */\n      dup3\n        /* \"#utility.yul\":28586:28679   */\n      tag_464\n      jump\t// in\n    tag_743:\n        /* \"#utility.yul\":28704:28706   */\n      0x20\n        /* \"#utility.yul\":28699:28702   */\n      dup3\n        /* \"#utility.yul\":28695:28707   */\n      add\n        /* \"#utility.yul\":28688:28707   */\n      swap1\n      pop\n        /* \"#utility.yul\":28347:28713   */\n      swap2\n      swap1\n      pop\n      jump\t// out\n        /* \"#utility.yul\":28719:29138   */\n    tag_217:\n        /* \"#utility.yul\":28885:28889   */\n      0x00\n        /* \"#utility.yul\":28923:28925   */\n      0x20\n        /* \"#utility.yul\":28912:28921   */\n      dup3\n        /* \"#utility.yul\":28908:28926   */\n      add\n        /* \"#utility.yul\":28900:28926   */\n      swap1\n      pop\n        /* \"#utility.yul\":28972:28981   */\n      dup2\n        /* \"#utility.yul\":28966:28970   */\n      dup2\n        /* \"#utility.yul\":28962:28982   */\n      sub\n        /* \"#utility.yul\":28958:28959   */\n      0x00\n        /* \"#utility.yul\":28947:28956   */\n      dup4\n        /* \"#utility.yul\":28943:28960   */\n      add\n        /* \"#utility.yul\":28936:28983   */\n      mstore\n        /* \"#utility.yul\":29000:29131   */\n      tag_745\n        /* \"#utility.yul\":29126:29130   */\n      dup2\n        /* \"#utility.yul\":29000:29131   */\n      tag_465\n      jump\t// in\n    tag_745:\n        /* \"#utility.yul\":28992:29131   */\n      swap1\n      pop\n        /* \"#utility.yul\":28719:29138   */\n      swap2\n      swap1\n      pop\n      jump\t// out\n        /* \"#utility.yul\":29144:29476   */\n    tag_232:\n        /* \"#utility.yul\":29265:29269   */\n      0x00\n        /* \"#utility.yul\":29303:29305   */\n      0x40\n        /* \"#utility.yul\":29292:29301   */\n      dup3\n        /* \"#utility.yul\":29288:29306   */\n      add\n        /* \"#utility.yul\":29280:29306   */\n      swap1\n      pop\n        /* \"#utility.yul\":29316:29387   */\n      tag_747\n        /* \"#utility.yul\":29384:29385   */\n      0x00\n        /* \"#utility.yul\":29373:29382   */\n      dup4\n        /* \"#utility.yul\":29369:29386   */\n      add\n        /* \"#utility.yul\":29360:29366   */\n      dup6\n        /* \"#utility.yul\":29316:29387   */\n      tag_409\n      jump\t// in\n    tag_747:\n        /* \"#utility.yul\":29397:29469   */\n      tag_748\n        /* \"#utility.yul\":29465:29467   */\n      0x20\n        /* \"#utility.yul\":29454:29463   */\n      dup4\n        /* \"#utility.yul\":29450:29468   */\n      add\n        /* \"#utility.yul\":29441:29447   */\n      dup5\n        /* \"#utility.yul\":29397:29469   */\n      tag_410\n      jump\t// in\n    tag_748:\n        /* \"#utility.yul\":29144:29476   */\n      swap4\n      swap3\n      pop\n      pop\n      pop\n      jump\t// out\n        /* \"#utility.yul\":29482:29580   */\n    tag_466:\n        /* \"#utility.yul\":29533:29539   */\n      0x00\n        /* \"#utility.yul\":29567:29572   */\n      dup2\n        /* \"#utility.yul\":29561:29573   */\n      mload\n        /* \"#utility.yul\":29551:29573   */\n      swap1\n      pop\n        /* \"#utility.yul\":29482:29580   */\n      swap2\n      swap1\n      pop\n      jump\t// out\n        /* \"#utility.yul\":29586:29733   */\n    tag_467:\n        /* \"#utility.yul\":29687:29698   */\n      0x00\n        /* \"#utility.yul\":29724:29727   */\n      dup2\n        /* \"#utility.yul\":29709:29727   */\n      swap1\n      pop\n        /* \"#utility.yul\":29586:29733   */\n      swap3\n      swap2\n      pop\n      pop\n      jump\t// out\n        /* \"#utility.yul\":29739:29985   */\n    tag_468:\n        /* \"#utility.yul\":29820:29821   */\n      0x00\n        /* \"#utility.yul\":29830:29943   */\n    tag_752:\n        /* \"#utility.yul\":29844:29850   */\n      dup4\n        /* \"#utility.yul\":29841:29842   */\n      dup2\n        /* \"#utility.yul\":29838:29851   */\n      lt\n        /* \"#utility.yul\":29830:29943   */\n      iszero\n      tag_754\n      jumpi\n        /* \"#utility.yul\":29929:29930   */\n      dup1\n        /* \"#utility.yul\":29924:29927   */\n      dup3\n        /* \"#utility.yul\":29920:29931   */\n      add\n        /* \"#utility.yul\":29914:29932   */\n      mload\n        /* \"#utility.yul\":29910:29911   */\n      dup2\n        /* \"#utility.yul\":29905:29908   */\n      dup5\n        /* \"#utility.yul\":29901:29912   */\n      add\n        /* \"#utility.yul\":29894:29933   */\n      mstore\n        /* \"#utility.yul\":29866:29868   */\n      0x20\n        /* \"#utility.yul\":29863:29864   */\n      dup2\n        /* \"#utility.yul\":29859:29869   */\n      add\n        /* \"#utility.yul\":29854:29869   */\n      swap1\n      pop\n        /* \"#utility.yul\":29830:29943   */\n      jump(tag_752)\n    tag_754:\n        /* \"#utility.yul\":29977:29978   */\n      0x00\n        /* \"#utility.yul\":29968:29974   */\n      dup5\n        /* \"#utility.yul\":29963:29966   */\n      dup5\n        /* \"#utility.yul\":29959:29975   */\n      add\n        /* \"#utility.yul\":29952:29979   */\n      mstore\n        /* \"#utility.yul\":29801:29985   */\n      pop\n        /* \"#utility.yul\":29739:29985   */\n      pop\n      pop\n      pop\n      jump\t// out\n        /* \"#utility.yul\":29991:30377   */\n    tag_469:\n        /* \"#utility.yul\":30095:30098   */\n      0x00\n        /* \"#utility.yul\":30123:30161   */\n      tag_756\n        /* \"#utility.yul\":30155:30160   */\n      dup3\n        /* \"#utility.yul\":30123:30161   */\n      tag_466\n      jump\t// in\n    tag_756:\n        /* \"#utility.yul\":30177:30265   */\n      tag_757\n        /* \"#utility.yul\":30258:30264   */\n      dup2\n        /* \"#utility.yul\":30253:30256   */\n      dup6\n        /* \"#utility.yul\":30177:30265   */\n      tag_467\n      jump\t// in\n    tag_757:\n        /* \"#utility.yul\":30170:30265   */\n      swap4\n      pop\n        /* \"#utility.yul\":30274:30339   */\n      tag_758\n        /* \"#utility.yul\":30332:30338   */\n      dup2\n        /* \"#utility.yul\":30327:30330   */\n      dup6\n        /* \"#utility.yul\":30320:30324   */\n      0x20\n        /* \"#utility.yul\":30313:30318   */\n      dup7\n        /* \"#utility.yul\":30309:30325   */\n      add\n        /* \"#utility.yul\":30274:30339   */\n      tag_468\n      jump\t// in\n    tag_758:\n        /* \"#utility.yul\":30364:30370   */\n      dup1\n        /* \"#utility.yul\":30359:30362   */\n      dup5\n        /* \"#utility.yul\":30355:30371   */\n      add\n        /* \"#utility.yul\":30348:30371   */\n      swap2\n      pop\n        /* \"#utility.yul\":30099:30377   */\n      pop\n        /* \"#utility.yul\":29991:30377   */\n      swap3\n      swap2\n      pop\n      pop\n      jump\t// out\n        /* \"#utility.yul\":30383:30654   */\n    tag_234:\n        /* \"#utility.yul\":30513:30516   */\n      0x00\n        /* \"#utility.yul\":30535:30628   */\n      tag_760\n        /* \"#utility.yul\":30624:30627   */\n      dup3\n        /* \"#utility.yul\":30615:30621   */\n      dup5\n        /* \"#utility.yul\":30535:30628   */\n      tag_469\n      jump\t// in\n    tag_760:\n        /* \"#utility.yul\":30528:30628   */\n      swap2\n      pop\n        /* \"#utility.yul\":30645:30648   */\n      dup2\n        /* \"#utility.yul\":30638:30648   */\n      swap1\n      pop\n        /* \"#utility.yul\":30383:30654   */\n      swap3\n      swap2\n      pop\n      pop\n      jump\t// out\n        /* \"#utility.yul\":30660:30776   */\n    tag_470:\n        /* \"#utility.yul\":30730:30751   */\n      tag_762\n        /* \"#utility.yul\":30745:30750   */\n      dup2\n        /* \"#utility.yul\":30730:30751   */\n      tag_407\n      jump\t// in\n    tag_762:\n        /* \"#utility.yul\":30723:30728   */\n      dup2\n        /* \"#utility.yul\":30720:30752   */\n      eq\n        /* \"#utility.yul\":30710:30770   */\n      tag_763\n      jumpi\n        /* \"#utility.yul\":30766:30767   */\n      0x00\n        /* \"#utility.yul\":30763:30764   */\n      dup1\n        /* \"#utility.yul\":30756:30768   */\n      revert\n        /* \"#utility.yul\":30710:30770   */\n    tag_763:\n        /* \"#utility.yul\":30660:30776   */\n      pop\n      jump\t// out\n        /* \"#utility.yul\":30782:30919   */\n    tag_471:\n        /* \"#utility.yul\":30836:30841   */\n      0x00\n        /* \"#utility.yul\":30867:30873   */\n      dup2\n        /* \"#utility.yul\":30861:30874   */\n      mload\n        /* \"#utility.yul\":30852:30874   */\n      swap1\n      pop\n        /* \"#utility.yul\":30883:30913   */\n      tag_765\n        /* \"#utility.yul\":30907:30912   */\n      dup2\n        /* \"#utility.yul\":30883:30913   */\n      tag_470\n      jump\t// in\n    tag_765:\n        /* \"#utility.yul\":30782:30919   */\n      swap3\n      swap2\n      pop\n      pop\n      jump\t// out\n        /* \"#utility.yul\":30925:31270   */\n    tag_241:\n        /* \"#utility.yul\":30992:30998   */\n      0x00\n        /* \"#utility.yul\":31041:31043   */\n      0x20\n        /* \"#utility.yul\":31029:31038   */\n      dup3\n        /* \"#utility.yul\":31020:31027   */\n      dup5\n        /* \"#utility.yul\":31016:31039   */\n      sub\n        /* \"#utility.yul\":31012:31044   */\n      slt\n        /* \"#utility.yul\":31009:31128   */\n      iszero\n      tag_767\n      jumpi\n        /* \"#utility.yul\":31047:31126   */\n      tag_768\n      tag_398\n      jump\t// in\n    tag_768:\n        /* \"#utility.yul\":31009:31128   */\n    tag_767:\n        /* \"#utility.yul\":31167:31168   */\n      0x00\n        /* \"#utility.yul\":31192:31253   */\n      tag_769\n        /* \"#utility.yul\":31245:31252   */\n      dup5\n        /* \"#utility.yul\":31236:31242   */\n      dup3\n        /* \"#utility.yul\":31225:31234   */\n      dup6\n        /* \"#utility.yul\":31221:31243   */\n      add\n        /* \"#utility.yul\":31192:31253   */\n      tag_471\n      jump\t// in\n    tag_769:\n        /* \"#utility.yul\":31182:31253   */\n      swap2\n      pop\n        /* \"#utility.yul\":31138:31263   */\n      pop\n        /* \"#utility.yul\":30925:31270   */\n      swap3\n      swap2\n      pop\n      pop\n      jump\t// out\n        /* \"#utility.yul\":31276:31457   */\n    tag_472:\n        /* \"#utility.yul\":31416:31449   */\n      0x5472616e7366657248656c7065723a205452414e534645525f4641494c454400\n        /* \"#utility.yul\":31412:31413   */\n      0x00\n        /* \"#utility.yul\":31404:31410   */\n      dup3\n        /* \"#utility.yul\":31400:31414   */\n      add\n        /* \"#utility.yul\":31393:31450   */\n      mstore\n        /* \"#utility.yul\":31276:31457   */\n      pop\n      jump\t// out\n        /* \"#utility.yul\":31463:31829   */\n    tag_473:\n        /* \"#utility.yul\":31605:31608   */\n      0x00\n        /* \"#utility.yul\":31626:31693   */\n      tag_772\n        /* \"#utility.yul\":31690:31692   */\n      0x1f\n        /* \"#utility.yul\":31685:31688   */\n      dup4\n        /* \"#utility.yul\":31626:31693   */\n      tag_443\n      jump\t// in\n    tag_772:\n        /* \"#utility.yul\":31619:31693   */\n      swap2\n      pop\n        /* \"#utility.yul\":31702:31795   */\n      tag_773\n        /* \"#utility.yul\":31791:31794   */\n      dup3\n        /* \"#utility.yul\":31702:31795   */\n      tag_472\n      jump\t// in\n    tag_773:\n        /* \"#utility.yul\":31820:31822   */\n      0x20\n        /* \"#utility.yul\":31815:31818   */\n      dup3\n        /* \"#utility.yul\":31811:31823   */\n      add\n        /* \"#utility.yul\":31804:31823   */\n      swap1\n      pop\n        /* \"#utility.yul\":31463:31829   */\n      swap2\n      swap1\n      pop\n      jump\t// out\n        /* \"#utility.yul\":31835:32254   */\n    tag_244:\n        /* \"#utility.yul\":32001:32005   */\n      0x00\n        /* \"#utility.yul\":32039:32041   */\n      0x20\n        /* \"#utility.yul\":32028:32037   */\n      dup3\n        /* \"#utility.yul\":32024:32042   */\n      add\n        /* \"#utility.yul\":32016:32042   */\n      swap1\n      pop\n        /* \"#utility.yul\":32088:32097   */\n      dup2\n        /* \"#utility.yul\":32082:32086   */\n      dup2\n        /* \"#utility.yul\":32078:32098   */\n      sub\n        /* \"#utility.yul\":32074:32075   */\n      0x00\n        /* \"#utility.yul\":32063:32072   */\n      dup4\n        /* \"#utility.yul\":32059:32076   */\n      add\n        /* \"#utility.yul\":32052:32099   */\n      mstore\n        /* \"#utility.yul\":32116:32247   */\n      tag_775\n        /* \"#utility.yul\":32242:32246   */\n      dup2\n        /* \"#utility.yul\":32116:32247   */\n      tag_473\n      jump\t// in\n    tag_775:\n        /* \"#utility.yul\":32108:32247   */\n      swap1\n      pop\n        /* \"#utility.yul\":31835:32254   */\n      swap2\n      swap1\n      pop\n      jump\t// out\n        /* \"#utility.yul\":32260:32374   */\n    tag_474:\n        /* \"#utility.yul\":32297:32304   */\n      0x00\n        /* \"#utility.yul\":32337:32367   */\n      0xffffffffffffffffffffffffffff\n        /* \"#utility.yul\":32330:32335   */\n      dup3\n        /* \"#utility.yul\":32326:32368   */\n      and\n        /* \"#utility.yul\":32315:32368   */\n      swap1\n      pop\n        /* \"#utility.yul\":32260:32374   */\n      swap2\n      swap1\n      pop\n      jump\t// out\n        /* \"#utility.yul\":32380:32502   */\n    tag_475:\n        /* \"#utility.yul\":32453:32477   */\n      tag_778\n        /* \"#utility.yul\":32471:32476   */\n      dup2\n        /* \"#utility.yul\":32453:32477   */\n      tag_474\n      jump\t// in\n    tag_778:\n        /* \"#utility.yul\":32446:32451   */\n      dup2\n        /* \"#utility.yul\":32443:32478   */\n      eq\n        /* \"#utility.yul\":32433:32496   */\n      tag_779\n      jumpi\n        /* \"#utility.yul\":32492:32493   */\n      0x00\n        /* \"#utility.yul\":32489:32490   */\n      dup1\n        /* \"#utility.yul\":32482:32494   */\n      revert\n        /* \"#utility.yul\":32433:32496   */\n    tag_779:\n        /* \"#utility.yul\":32380:32502   */\n      pop\n      jump\t// out\n        /* \"#utility.yul\":32508:32651   */\n    tag_476:\n        /* \"#utility.yul\":32565:32570   */\n      0x00\n        /* \"#utility.yul\":32596:32602   */\n      dup2\n        /* \"#utility.yul\":32590:32603   */\n      mload\n        /* \"#utility.yul\":32581:32603   */\n      swap1\n      pop\n        /* \"#utility.yul\":32612:32645   */\n      tag_781\n        /* \"#utility.yul\":32639:32644   */\n      dup2\n        /* \"#utility.yul\":32612:32645   */\n      tag_475\n      jump\t// in\n    tag_781:\n        /* \"#utility.yul\":32508:32651   */\n      swap3\n      swap2\n      pop\n      pop\n      jump\t// out\n        /* \"#utility.yul\":32657:32750   */\n    tag_477:\n        /* \"#utility.yul\":32693:32700   */\n      0x00\n        /* \"#utility.yul\":32733:32743   */\n      0xffffffff\n        /* \"#utility.yul\":32726:32731   */\n      dup3\n        /* \"#utility.yul\":32722:32744   */\n      and\n        /* \"#utility.yul\":32711:32744   */\n      swap1\n      pop\n        /* \"#utility.yul\":32657:32750   */\n      swap2\n      swap1\n      pop\n      jump\t// out\n        /* \"#utility.yul\":32756:32876   */\n    tag_478:\n        /* \"#utility.yul\":32828:32851   */\n      tag_784\n        /* \"#utility.yul\":32845:32850   */\n      dup2\n        /* \"#utility.yul\":32828:32851   */\n      tag_477\n      jump\t// in\n    tag_784:\n        /* \"#utility.yul\":32821:32826   */\n      dup2\n        /* \"#utility.yul\":32818:32852   */\n      eq\n        /* \"#utility.yul\":32808:32870   */\n      tag_785\n      jumpi\n        /* \"#utility.yul\":32866:32867   */\n      0x00\n        /* \"#utility.yul\":32863:32864   */\n      dup1\n        /* \"#utility.yul\":32856:32868   */\n      revert\n        /* \"#utility.yul\":32808:32870   */\n    tag_785:\n        /* \"#utility.yul\":32756:32876   */\n      pop\n      jump\t// out\n        /* \"#utility.yul\":32882:33023   */\n    tag_479:\n        /* \"#utility.yul\":32938:32943   */\n      0x00\n        /* \"#utility.yul\":32969:32975   */\n      dup2\n        /* \"#utility.yul\":32963:32976   */\n      mload\n        /* \"#utility.yul\":32954:32976   */\n      swap1\n      pop\n        /* \"#utility.yul\":32985:33017   */\n      tag_787\n        /* \"#utility.yul\":33011:33016   */\n      dup2\n        /* \"#utility.yul\":32985:33017   */\n      tag_478\n      jump\t// in\n    tag_787:\n        /* \"#utility.yul\":32882:33023   */\n      swap3\n      swap2\n      pop\n      pop\n      jump\t// out\n        /* \"#utility.yul\":33029:33690   */\n    tag_253:\n        /* \"#utility.yul\":33116:33122   */\n      0x00\n        /* \"#utility.yul\":33124:33130   */\n      dup1\n        /* \"#utility.yul\":33132:33138   */\n      0x00\n        /* \"#utility.yul\":33181:33183   */\n      0x60\n        /* \"#utility.yul\":33169:33178   */\n      dup5\n        /* \"#utility.yul\":33160:33167   */\n      dup7\n        /* \"#utility.yul\":33156:33179   */\n      sub\n        /* \"#utility.yul\":33152:33184   */\n      slt\n        /* \"#utility.yul\":33149:33268   */\n      iszero\n      tag_789\n      jumpi\n        /* \"#utility.yul\":33187:33266   */\n      tag_790\n      tag_398\n      jump\t// in\n    tag_790:\n        /* \"#utility.yul\":33149:33268   */\n    tag_789:\n        /* \"#utility.yul\":33307:33308   */\n      0x00\n        /* \"#utility.yul\":33332:33396   */\n      tag_791\n        /* \"#utility.yul\":33388:33395   */\n      dup7\n        /* \"#utility.yul\":33379:33385   */\n      dup3\n        /* \"#utility.yul\":33368:33377   */\n      dup8\n        /* \"#utility.yul\":33364:33386   */\n      add\n        /* \"#utility.yul\":33332:33396   */\n      tag_476\n      jump\t// in\n    tag_791:\n        /* \"#utility.yul\":33322:33396   */\n      swap4\n      pop\n        /* \"#utility.yul\":33278:33406   */\n      pop\n        /* \"#utility.yul\":33445:33447   */\n      0x20\n        /* \"#utility.yul\":33471:33535   */\n      tag_792\n        /* \"#utility.yul\":33527:33534   */\n      dup7\n        /* \"#utility.yul\":33518:33524   */\n      dup3\n        /* \"#utility.yul\":33507:33516   */\n      dup8\n        /* \"#utility.yul\":33503:33525   */\n      add\n        /* \"#utility.yul\":33471:33535   */\n      tag_476\n      jump\t// in\n    tag_792:\n        /* \"#utility.yul\":33461:33535   */\n      swap3\n      pop\n        /* \"#utility.yul\":33416:33545   */\n      pop\n        /* \"#utility.yul\":33584:33586   */\n      0x40\n        /* \"#utility.yul\":33610:33673   */\n      tag_793\n        /* \"#utility.yul\":33665:33672   */\n      dup7\n        /* \"#utility.yul\":33656:33662   */\n      dup3\n        /* \"#utility.yul\":33645:33654   */\n      dup8\n        /* \"#utility.yul\":33641:33663   */\n      add\n        /* \"#utility.yul\":33610:33673   */\n      tag_479\n      jump\t// in\n    tag_793:\n        /* \"#utility.yul\":33600:33673   */\n      swap2\n      pop\n        /* \"#utility.yul\":33555:33683   */\n      pop\n        /* \"#utility.yul\":33029:33690   */\n      swap3\n      pop\n      swap3\n      pop\n      swap3\n      jump\t// out\n        /* \"#utility.yul\":33696:33926   */\n    tag_480:\n        /* \"#utility.yul\":33836:33870   */\n      0x556e697377617056324c6962726172793a20494e53554646494349454e545f49\n        /* \"#utility.yul\":33832:33833   */\n      0x00\n        /* \"#utility.yul\":33824:33830   */\n      dup3\n        /* \"#utility.yul\":33820:33834   */\n      add\n        /* \"#utility.yul\":33813:33871   */\n      mstore\n        /* \"#utility.yul\":33905:33918   */\n      0x4e5055545f414d4f554e54000000000000000000000000000000000000000000\n        /* \"#utility.yul\":33900:33902   */\n      0x20\n        /* \"#utility.yul\":33892:33898   */\n      dup3\n        /* \"#utility.yul\":33888:33903   */\n      add\n        /* \"#utility.yul\":33881:33919   */\n      mstore\n        /* \"#utility.yul\":33696:33926   */\n      pop\n      jump\t// out\n        /* \"#utility.yul\":33932:34298   */\n    tag_481:\n        /* \"#utility.yul\":34074:34077   */\n      0x00\n        /* \"#utility.yul\":34095:34162   */\n      tag_796\n        /* \"#utility.yul\":34159:34161   */\n      0x2b\n        /* \"#utility.yul\":34154:34157   */\n      dup4\n        /* \"#utility.yul\":34095:34162   */\n      tag_443\n      jump\t// in\n    tag_796:\n        /* \"#utility.yul\":34088:34162   */\n      swap2\n      pop\n        /* \"#utility.yul\":34171:34264   */\n      tag_797\n        /* \"#utility.yul\":34260:34263   */\n      dup3\n        /* \"#utility.yul\":34171:34264   */\n      tag_480\n      jump\t// in\n    tag_797:\n        /* \"#utility.yul\":34289:34291   */\n      0x40\n        /* \"#utility.yul\":34284:34287   */\n      dup3\n        /* \"#utility.yul\":34280:34292   */\n      add\n        /* \"#utility.yul\":34273:34292   */\n      swap1\n      pop\n        /* \"#utility.yul\":33932:34298   */\n      swap2\n      swap1\n      pop\n      jump\t// out\n        /* \"#utility.yul\":34304:34723   */\n    tag_259:\n        /* \"#utility.yul\":34470:34474   */\n      0x00\n        /* \"#utility.yul\":34508:34510   */\n      0x20\n        /* \"#utility.yul\":34497:34506   */\n      dup3\n        /* \"#utility.yul\":34493:34511   */\n      add\n        /* \"#utility.yul\":34485:34511   */\n      swap1\n      pop\n        /* \"#utility.yul\":34557:34566   */\n      dup2\n        /* \"#utility.yul\":34551:34555   */\n      dup2\n        /* \"#utility.yul\":34547:34567   */\n      sub\n        /* \"#utility.yul\":34543:34544   */\n      0x00\n        /* \"#utility.yul\":34532:34541   */\n      dup4\n        /* \"#utility.yul\":34528:34545   */\n      add\n        /* \"#utility.yul\":34521:34568   */\n      mstore\n        /* \"#utility.yul\":34585:34716   */\n      tag_799\n        /* \"#utility.yul\":34711:34715   */\n      dup2\n        /* \"#utility.yul\":34585:34716   */\n      tag_481\n      jump\t// in\n    tag_799:\n        /* \"#utility.yul\":34577:34716   */\n      swap1\n      pop\n        /* \"#utility.yul\":34304:34723   */\n      swap2\n      swap1\n      pop\n      jump\t// out\n        /* \"#utility.yul\":34729:34956   */\n    tag_482:\n        /* \"#utility.yul\":34869:34903   */\n      0x556e697377617056324c6962726172793a20494e53554646494349454e545f4c\n        /* \"#utility.yul\":34865:34866   */\n      0x00\n        /* \"#utility.yul\":34857:34863   */\n      dup3\n        /* \"#utility.yul\":34853:34867   */\n      add\n        /* \"#utility.yul\":34846:34904   */\n      mstore\n        /* \"#utility.yul\":34938:34948   */\n      0x4951554944495459000000000000000000000000000000000000000000000000\n        /* \"#utility.yul\":34933:34935   */\n      0x20\n        /* \"#utility.yul\":34925:34931   */\n      dup3\n        /* \"#utility.yul\":34921:34936   */\n      add\n        /* \"#utility.yul\":34914:34949   */\n      mstore\n        /* \"#utility.yul\":34729:34956   */\n      pop\n      jump\t// out\n        /* \"#utility.yul\":34962:35328   */\n    tag_483:\n        /* \"#utility.yul\":35104:35107   */\n      0x00\n        /* \"#utility.yul\":35125:35192   */\n      tag_802\n        /* \"#utility.yul\":35189:35191   */\n      0x28\n        /* \"#utility.yul\":35184:35187   */\n      dup4\n        /* \"#utility.yul\":35125:35192   */\n      tag_443\n      jump\t// in\n    tag_802:\n        /* \"#utility.yul\":35118:35192   */\n      swap2\n      pop\n        /* \"#utility.yul\":35201:35294   */\n      tag_803\n        /* \"#utility.yul\":35290:35293   */\n      dup3\n        /* \"#utility.yul\":35201:35294   */\n      tag_482\n      jump\t// in\n    tag_803:\n        /* \"#utility.yul\":35319:35321   */\n      0x40\n        /* \"#utility.yul\":35314:35317   */\n      dup3\n        /* \"#utility.yul\":35310:35322   */\n      add\n        /* \"#utility.yul\":35303:35322   */\n      swap1\n      pop\n        /* \"#utility.yul\":34962:35328   */\n      swap2\n      swap1\n      pop\n      jump\t// out\n        /* \"#utility.yul\":35334:35753   */\n    tag_263:\n        /* \"#utility.yul\":35500:35504   */\n      0x00\n        /* \"#utility.yul\":35538:35540   */\n      0x20\n        /* \"#utility.yul\":35527:35536   */\n      dup3\n        /* \"#utility.yul\":35523:35541   */\n      add\n        /* \"#utility.yul\":35515:35541   */\n      swap1\n      pop\n        /* \"#utility.yul\":35587:35596   */\n      dup2\n        /* \"#utility.yul\":35581:35585   */\n      dup2\n        /* \"#utility.yul\":35577:35597   */\n      sub\n        /* \"#utility.yul\":35573:35574   */\n      0x00\n        /* \"#utility.yul\":35562:35571   */\n      dup4\n        /* \"#utility.yul\":35558:35575   */\n      add\n        /* \"#utility.yul\":35551:35598   */\n      mstore\n        /* \"#utility.yul\":35615:35746   */\n      tag_805\n        /* \"#utility.yul\":35741:35745   */\n      dup2\n        /* \"#utility.yul\":35615:35746   */\n      tag_483\n      jump\t// in\n    tag_805:\n        /* \"#utility.yul\":35607:35746   */\n      swap1\n      pop\n        /* \"#utility.yul\":35334:35753   */\n      swap2\n      swap1\n      pop\n      jump\t// out\n        /* \"#utility.yul\":35759:36201   */\n    tag_273:\n        /* \"#utility.yul\":35908:35912   */\n      0x00\n        /* \"#utility.yul\":35946:35948   */\n      0x60\n        /* \"#utility.yul\":35935:35944   */\n      dup3\n        /* \"#utility.yul\":35931:35949   */\n      add\n        /* \"#utility.yul\":35923:35949   */\n      swap1\n      pop\n        /* \"#utility.yul\":35959:36030   */\n      tag_807\n        /* \"#utility.yul\":36027:36028   */\n      0x00\n        /* \"#utility.yul\":36016:36025   */\n      dup4\n        /* \"#utility.yul\":36012:36029   */\n      add\n        /* \"#utility.yul\":36003:36009   */\n      dup7\n        /* \"#utility.yul\":35959:36030   */\n      tag_409\n      jump\t// in\n    tag_807:\n        /* \"#utility.yul\":36040:36112   */\n      tag_808\n        /* \"#utility.yul\":36108:36110   */\n      0x20\n        /* \"#utility.yul\":36097:36106   */\n      dup4\n        /* \"#utility.yul\":36093:36111   */\n      add\n        /* \"#utility.yul\":36084:36090   */\n      dup6\n        /* \"#utility.yul\":36040:36112   */\n      tag_409\n      jump\t// in\n    tag_808:\n        /* \"#utility.yul\":36122:36194   */\n      tag_809\n        /* \"#utility.yul\":36190:36192   */\n      0x40\n        /* \"#utility.yul\":36179:36188   */\n      dup4\n        /* \"#utility.yul\":36175:36193   */\n      add\n        /* \"#utility.yul\":36166:36172   */\n      dup5\n        /* \"#utility.yul\":36122:36194   */\n      tag_410\n      jump\t// in\n    tag_809:\n        /* \"#utility.yul\":35759:36201   */\n      swap5\n      swap4\n      pop\n      pop\n      pop\n      pop\n      jump\t// out\n        /* \"#utility.yul\":36207:36430   */\n    tag_484:\n        /* \"#utility.yul\":36347:36381   */\n      0x5472616e7366657248656c7065723a205452414e534645525f46524f4d5f4641\n        /* \"#utility.yul\":36343:36344   */\n      0x00\n        /* \"#utility.yul\":36335:36341   */\n      dup3\n        /* \"#utility.yul\":36331:36345   */\n      add\n        /* \"#utility.yul\":36324:36382   */\n      mstore\n        /* \"#utility.yul\":36416:36422   */\n      0x494c454400000000000000000000000000000000000000000000000000000000\n        /* \"#utility.yul\":36411:36413   */\n      0x20\n        /* \"#utility.yul\":36403:36409   */\n      dup3\n        /* \"#utility.yul\":36399:36414   */\n      add\n        /* \"#utility.yul\":36392:36423   */\n      mstore\n        /* \"#utility.yul\":36207:36430   */\n      pop\n      jump\t// out\n        /* \"#utility.yul\":36436:36802   */\n    tag_485:\n        /* \"#utility.yul\":36578:36581   */\n      0x00\n        /* \"#utility.yul\":36599:36666   */\n      tag_812\n        /* \"#utility.yul\":36663:36665   */\n      0x24\n        /* \"#utility.yul\":36658:36661   */\n      dup4\n        /* \"#utility.yul\":36599:36666   */\n      tag_443\n      jump\t// in\n    tag_812:\n        /* \"#utility.yul\":36592:36666   */\n      swap2\n      pop\n        /* \"#utility.yul\":36675:36768   */\n      tag_813\n        /* \"#utility.yul\":36764:36767   */\n      dup3\n        /* \"#utility.yul\":36675:36768   */\n      tag_484\n      jump\t// in\n    tag_813:\n        /* \"#utility.yul\":36793:36795   */\n      0x40\n        /* \"#utility.yul\":36788:36791   */\n      dup3\n        /* \"#utility.yul\":36784:36796   */\n      add\n        /* \"#utility.yul\":36777:36796   */\n      swap1\n      pop\n        /* \"#utility.yul\":36436:36802   */\n      swap2\n      swap1\n      pop\n      jump\t// out\n        /* \"#utility.yul\":36808:37227   */\n    tag_283:\n        /* \"#utility.yul\":36974:36978   */\n      0x00\n        /* \"#utility.yul\":37012:37014   */\n      0x20\n        /* \"#utility.yul\":37001:37010   */\n      dup3\n        /* \"#utility.yul\":36997:37015   */\n      add\n        /* \"#utility.yul\":36989:37015   */\n      swap1\n      pop\n        /* \"#utility.yul\":37061:37070   */\n      dup2\n        /* \"#utility.yul\":37055:37059   */\n      dup2\n        /* \"#utility.yul\":37051:37071   */\n      sub\n        /* \"#utility.yul\":37047:37048   */\n      0x00\n        /* \"#utility.yul\":37036:37045   */\n      dup4\n        /* \"#utility.yul\":37032:37049   */\n      add\n        /* \"#utility.yul\":37025:37072   */\n      mstore\n        /* \"#utility.yul\":37089:37220   */\n      tag_815\n        /* \"#utility.yul\":37215:37219   */\n      dup2\n        /* \"#utility.yul\":37089:37220   */\n      tag_485\n      jump\t// in\n    tag_815:\n        /* \"#utility.yul\":37081:37220   */\n      swap1\n      pop\n        /* \"#utility.yul\":36808:37227   */\n      swap2\n      swap1\n      pop\n      jump\t// out\n        /* \"#utility.yul\":37233:37424   */\n    tag_286:\n        /* \"#utility.yul\":37273:37276   */\n      0x00\n        /* \"#utility.yul\":37292:37312   */\n      tag_817\n        /* \"#utility.yul\":37310:37311   */\n      dup3\n        /* \"#utility.yul\":37292:37312   */\n      tag_400\n      jump\t// in\n    tag_817:\n        /* \"#utility.yul\":37287:37312   */\n      swap2\n      pop\n        /* \"#utility.yul\":37326:37346   */\n      tag_818\n        /* \"#utility.yul\":37344:37345   */\n      dup4\n        /* \"#utility.yul\":37326:37346   */\n      tag_400\n      jump\t// in\n    tag_818:\n        /* \"#utility.yul\":37321:37346   */\n      swap3\n      pop\n        /* \"#utility.yul\":37369:37370   */\n      dup3\n        /* \"#utility.yul\":37366:37367   */\n      dup3\n        /* \"#utility.yul\":37362:37371   */\n      add\n        /* \"#utility.yul\":37355:37371   */\n      swap1\n      pop\n        /* \"#utility.yul\":37390:37393   */\n      dup1\n        /* \"#utility.yul\":37387:37388   */\n      dup3\n        /* \"#utility.yul\":37384:37394   */\n      gt\n        /* \"#utility.yul\":37381:37417   */\n      iszero\n      tag_819\n      jumpi\n        /* \"#utility.yul\":37397:37415   */\n      tag_820\n      tag_454\n      jump\t// in\n    tag_820:\n        /* \"#utility.yul\":37381:37417   */\n    tag_819:\n        /* \"#utility.yul\":37233:37424   */\n      swap3\n      swap2\n      pop\n      pop\n      jump\t// out\n        /* \"#utility.yul\":37430:37610   */\n    tag_325:\n        /* \"#utility.yul\":37478:37555   */\n      0x4e487b7100000000000000000000000000000000000000000000000000000000\n        /* \"#utility.yul\":37475:37476   */\n      0x00\n        /* \"#utility.yul\":37468:37556   */\n      mstore\n        /* \"#utility.yul\":37575:37579   */\n      0x32\n        /* \"#utility.yul\":37572:37573   */\n      0x04\n        /* \"#utility.yul\":37565:37580   */\n      mstore\n        /* \"#utility.yul\":37599:37603   */\n      0x24\n        /* \"#utility.yul\":37596:37597   */\n      0x00\n        /* \"#utility.yul\":37589:37604   */\n      revert\n        /* \"#utility.yul\":37616:37840   */\n    tag_486:\n        /* \"#utility.yul\":37756:37790   */\n      0x556e697377617056324c6962726172793a204944454e544943414c5f41444452\n        /* \"#utility.yul\":37752:37753   */\n      0x00\n        /* \"#utility.yul\":37744:37750   */\n      dup3\n        /* \"#utility.yul\":37740:37754   */\n      add\n        /* \"#utility.yul\":37733:37791   */\n      mstore\n        /* \"#utility.yul\":37825:37832   */\n      0x4553534553000000000000000000000000000000000000000000000000000000\n        /* \"#utility.yul\":37820:37822   */\n      0x20\n        /* \"#utility.yul\":37812:37818   */\n      dup3\n        /* \"#utility.yul\":37808:37823   */\n      add\n        /* \"#utility.yul\":37801:37833   */\n      mstore\n        /* \"#utility.yul\":37616:37840   */\n      pop\n      jump\t// out\n        /* \"#utility.yul\":37846:38212   */\n    tag_487:\n        /* \"#utility.yul\":37988:37991   */\n      0x00\n        /* \"#utility.yul\":38009:38076   */\n      tag_824\n        /* \"#utility.yul\":38073:38075   */\n      0x25\n        /* \"#utility.yul\":38068:38071   */\n      dup4\n        /* \"#utility.yul\":38009:38076   */\n      tag_443\n      jump\t// in\n    tag_824:\n        /* \"#utility.yul\":38002:38076   */\n      swap2\n      pop\n        /* \"#utility.yul\":38085:38178   */\n      tag_825\n        /* \"#utility.yul\":38174:38177   */\n      dup3\n        /* \"#utility.yul\":38085:38178   */\n      tag_486\n      jump\t// in\n    tag_825:\n        /* \"#utility.yul\":38203:38205   */\n      0x40\n        /* \"#utility.yul\":38198:38201   */\n      dup3\n        /* \"#utility.yul\":38194:38206   */\n      add\n        /* \"#utility.yul\":38187:38206   */\n      swap1\n      pop\n        /* \"#utility.yul\":37846:38212   */\n      swap2\n      swap1\n      pop\n      jump\t// out\n        /* \"#utility.yul\":38218:38637   */\n    tag_336:\n        /* \"#utility.yul\":38384:38388   */\n      0x00\n        /* \"#utility.yul\":38422:38424   */\n      0x20\n        /* \"#utility.yul\":38411:38420   */\n      dup3\n        /* \"#utility.yul\":38407:38425   */\n      add\n        /* \"#utility.yul\":38399:38425   */\n      swap1\n      pop\n        /* \"#utility.yul\":38471:38480   */\n      dup2\n        /* \"#utility.yul\":38465:38469   */\n      dup2\n        /* \"#utility.yul\":38461:38481   */\n      sub\n        /* \"#utility.yul\":38457:38458   */\n      0x00\n        /* \"#utility.yul\":38446:38455   */\n      dup4\n        /* \"#utility.yul\":38442:38459   */\n      add\n        /* \"#utility.yul\":38435:38482   */\n      mstore\n        /* \"#utility.yul\":38499:38630   */\n      tag_827\n        /* \"#utility.yul\":38625:38629   */\n      dup2\n        /* \"#utility.yul\":38499:38630   */\n      tag_487\n      jump\t// in\n    tag_827:\n        /* \"#utility.yul\":38491:38630   */\n      swap1\n      pop\n        /* \"#utility.yul\":38218:38637   */\n      swap2\n      swap1\n      pop\n      jump\t// out\n        /* \"#utility.yul\":38643:38823   */\n    tag_488:\n        /* \"#utility.yul\":38783:38815   */\n      0x556e697377617056324c6962726172793a205a45524f5f414444524553530000\n        /* \"#utility.yul\":38779:38780   */\n      0x00\n        /* \"#utility.yul\":38771:38777   */\n      dup3\n        /* \"#utility.yul\":38767:38781   */\n      add\n        /* \"#utility.yul\":38760:38816   */\n      mstore\n        /* \"#utility.yul\":38643:38823   */\n      pop\n      jump\t// out\n        /* \"#utility.yul\":38829:39195   */\n    tag_489:\n        /* \"#utility.yul\":38971:38974   */\n      0x00\n        /* \"#utility.yul\":38992:39059   */\n      tag_830\n        /* \"#utility.yul\":39056:39058   */\n      0x1e\n        /* \"#utility.yul\":39051:39054   */\n      dup4\n        /* \"#utility.yul\":38992:39059   */\n      tag_443\n      jump\t// in\n    tag_830:\n        /* \"#utility.yul\":38985:39059   */\n      swap2\n      pop\n        /* \"#utility.yul\":39068:39161   */\n      tag_831\n        /* \"#utility.yul\":39157:39160   */\n      dup3\n        /* \"#utility.yul\":39068:39161   */\n      tag_488\n      jump\t// in\n    tag_831:\n        /* \"#utility.yul\":39186:39188   */\n      0x20\n        /* \"#utility.yul\":39181:39184   */\n      dup3\n        /* \"#utility.yul\":39177:39189   */\n      add\n        /* \"#utility.yul\":39170:39189   */\n      swap1\n      pop\n        /* \"#utility.yul\":38829:39195   */\n      swap2\n      swap1\n      pop\n      jump\t// out\n        /* \"#utility.yul\":39201:39620   */\n    tag_341:\n        /* \"#utility.yul\":39367:39371   */\n      0x00\n        /* \"#utility.yul\":39405:39407   */\n      0x20\n        /* \"#utility.yul\":39394:39403   */\n      dup3\n        /* \"#utility.yul\":39390:39408   */\n      add\n        /* \"#utility.yul\":39382:39408   */\n      swap1\n      pop\n        /* \"#utility.yul\":39454:39463   */\n      dup2\n        /* \"#utility.yul\":39448:39452   */\n      dup2\n        /* \"#utility.yul\":39444:39464   */\n      sub\n        /* \"#utility.yul\":39440:39441   */\n      0x00\n        /* \"#utility.yul\":39429:39438   */\n      dup4\n        /* \"#utility.yul\":39425:39442   */\n      add\n        /* \"#utility.yul\":39418:39465   */\n      mstore\n        /* \"#utility.yul\":39482:39613   */\n      tag_833\n        /* \"#utility.yul\":39608:39612   */\n      dup2\n        /* \"#utility.yul\":39482:39613   */\n      tag_489\n      jump\t// in\n    tag_833:\n        /* \"#utility.yul\":39474:39613   */\n      swap1\n      pop\n        /* \"#utility.yul\":39201:39620   */\n      swap2\n      swap1\n      pop\n      jump\t// out\n        /* \"#utility.yul\":39626:39720   */\n    tag_490:\n        /* \"#utility.yul\":39659:39667   */\n      0x00\n        /* \"#utility.yul\":39707:39712   */\n      dup2\n        /* \"#utility.yul\":39703:39705   */\n      0x60\n        /* \"#utility.yul\":39699:39713   */\n      shl\n        /* \"#utility.yul\":39678:39713   */\n      swap1\n      pop\n        /* \"#utility.yul\":39626:39720   */\n      swap2\n      swap1\n      pop\n      jump\t// out\n        /* \"#utility.yul\":39726:39820   */\n    tag_491:\n        /* \"#utility.yul\":39765:39772   */\n      0x00\n        /* \"#utility.yul\":39794:39814   */\n      tag_836\n        /* \"#utility.yul\":39808:39813   */\n      dup3\n        /* \"#utility.yul\":39794:39814   */\n      tag_490\n      jump\t// in\n    tag_836:\n        /* \"#utility.yul\":39783:39814   */\n      swap1\n      pop\n        /* \"#utility.yul\":39726:39820   */\n      swap2\n      swap1\n      pop\n      jump\t// out\n        /* \"#utility.yul\":39826:39926   */\n    tag_492:\n        /* \"#utility.yul\":39865:39872   */\n      0x00\n        /* \"#utility.yul\":39894:39920   */\n      tag_838\n        /* \"#utility.yul\":39914:39919   */\n      dup3\n        /* \"#utility.yul\":39894:39920   */\n      tag_491\n      jump\t// in\n    tag_838:\n        /* \"#utility.yul\":39883:39920   */\n      swap1\n      pop\n        /* \"#utility.yul\":39826:39926   */\n      swap2\n      swap1\n      pop\n      jump\t// out\n        /* \"#utility.yul\":39932:40089   */\n    tag_493:\n        /* \"#utility.yul\":40037:40082   */\n      tag_840\n        /* \"#utility.yul\":40057:40081   */\n      tag_841\n        /* \"#utility.yul\":40075:40080   */\n      dup3\n        /* \"#utility.yul\":40057:40081   */\n      tag_404\n      jump\t// in\n    tag_841:\n        /* \"#utility.yul\":40037:40082   */\n      tag_492\n      jump\t// in\n    tag_840:\n        /* \"#utility.yul\":40032:40035   */\n      dup3\n        /* \"#utility.yul\":40025:40083   */\n      mstore\n        /* \"#utility.yul\":39932:40089   */\n      pop\n      pop\n      jump\t// out\n        /* \"#utility.yul\":40095:40492   */\n    tag_345:\n        /* \"#utility.yul\":40235:40238   */\n      0x00\n        /* \"#utility.yul\":40250:40325   */\n      tag_843\n        /* \"#utility.yul\":40321:40324   */\n      dup3\n        /* \"#utility.yul\":40312:40318   */\n      dup6\n        /* \"#utility.yul\":40250:40325   */\n      tag_493\n      jump\t// in\n    tag_843:\n        /* \"#utility.yul\":40350:40352   */\n      0x14\n        /* \"#utility.yul\":40345:40348   */\n      dup3\n        /* \"#utility.yul\":40341:40353   */\n      add\n        /* \"#utility.yul\":40334:40353   */\n      swap2\n      pop\n        /* \"#utility.yul\":40363:40438   */\n      tag_844\n        /* \"#utility.yul\":40434:40437   */\n      dup3\n        /* \"#utility.yul\":40425:40431   */\n      dup5\n        /* \"#utility.yul\":40363:40438   */\n      tag_493\n      jump\t// in\n    tag_844:\n        /* \"#utility.yul\":40463:40465   */\n      0x14\n        /* \"#utility.yul\":40458:40461   */\n      dup3\n        /* \"#utility.yul\":40454:40466   */\n      add\n        /* \"#utility.yul\":40447:40466   */\n      swap2\n      pop\n        /* \"#utility.yul\":40483:40486   */\n      dup2\n        /* \"#utility.yul\":40476:40486   */\n      swap1\n      pop\n        /* \"#utility.yul\":40095:40492   */\n      swap4\n      swap3\n      pop\n      pop\n      pop\n      jump\t// out\n        /* \"#utility.yul\":40498:40646   */\n    tag_494:\n        /* \"#utility.yul\":40600:40611   */\n      0x00\n        /* \"#utility.yul\":40637:40640   */\n      dup2\n        /* \"#utility.yul\":40622:40640   */\n      swap1\n      pop\n        /* \"#utility.yul\":40498:40646   */\n      swap3\n      swap2\n      pop\n      pop\n      jump\t// out\n        /* \"#utility.yul\":40652:40866   */\n    tag_495:\n        /* \"#utility.yul\":40792:40858   */\n      0xff00000000000000000000000000000000000000000000000000000000000000\n        /* \"#utility.yul\":40788:40789   */\n      0x00\n        /* \"#utility.yul\":40780:40786   */\n      dup3\n        /* \"#utility.yul\":40776:40790   */\n      add\n        /* \"#utility.yul\":40769:40859   */\n      mstore\n        /* \"#utility.yul\":40652:40866   */\n      pop\n      jump\t// out\n        /* \"#utility.yul\":40872:41272   */\n    tag_496:\n        /* \"#utility.yul\":41032:41035   */\n      0x00\n        /* \"#utility.yul\":41053:41137   */\n      tag_848\n        /* \"#utility.yul\":41135:41136   */\n      0x01\n        /* \"#utility.yul\":41130:41133   */\n      dup4\n        /* \"#utility.yul\":41053:41137   */\n      tag_494\n      jump\t// in\n    tag_848:\n        /* \"#utility.yul\":41046:41137   */\n      swap2\n      pop\n        /* \"#utility.yul\":41146:41239   */\n      tag_849\n        /* \"#utility.yul\":41235:41238   */\n      dup3\n        /* \"#utility.yul\":41146:41239   */\n      tag_495\n      jump\t// in\n    tag_849:\n        /* \"#utility.yul\":41264:41265   */\n      0x01\n        /* \"#utility.yul\":41259:41262   */\n      dup3\n        /* \"#utility.yul\":41255:41266   */\n      add\n        /* \"#utility.yul\":41248:41266   */\n      swap1\n      pop\n        /* \"#utility.yul\":40872:41272   */\n      swap2\n      swap1\n      pop\n      jump\t// out\n        /* \"#utility.yul\":41278:41355   */\n    tag_497:\n        /* \"#utility.yul\":41315:41322   */\n      0x00\n        /* \"#utility.yul\":41344:41349   */\n      dup2\n        /* \"#utility.yul\":41333:41349   */\n      swap1\n      pop\n        /* \"#utility.yul\":41278:41355   */\n      swap2\n      swap1\n      pop\n      jump\t// out\n        /* \"#utility.yul\":41361:41440   */\n    tag_498:\n        /* \"#utility.yul\":41400:41407   */\n      0x00\n        /* \"#utility.yul\":41429:41434   */\n      dup2\n        /* \"#utility.yul\":41418:41434   */\n      swap1\n      pop\n        /* \"#utility.yul\":41361:41440   */\n      swap2\n      swap1\n      pop\n      jump\t// out\n        /* \"#utility.yul\":41446:41603   */\n    tag_499:\n        /* \"#utility.yul\":41551:41596   */\n      tag_853\n        /* \"#utility.yul\":41571:41595   */\n      tag_854\n        /* \"#utility.yul\":41589:41594   */\n      dup3\n        /* \"#utility.yul\":41571:41595   */\n      tag_497\n      jump\t// in\n    tag_854:\n        /* \"#utility.yul\":41551:41596   */\n      tag_498\n      jump\t// in\n    tag_853:\n        /* \"#utility.yul\":41546:41549   */\n      dup3\n        /* \"#utility.yul\":41539:41597   */\n      mstore\n        /* \"#utility.yul\":41446:41603   */\n      pop\n      pop\n      jump\t// out\n        /* \"#utility.yul\":41609:41823   */\n    tag_500:\n        /* \"#utility.yul\":41749:41815   */\n      0xfb7f630766e6a796048ea87d01acd3068e8ff67d078148a3fa3f4a84f69bd5\n        /* \"#utility.yul\":41745:41746   */\n      0x00\n        /* \"#utility.yul\":41737:41743   */\n      dup3\n        /* \"#utility.yul\":41733:41747   */\n      add\n        /* \"#utility.yul\":41726:41816   */\n      mstore\n        /* \"#utility.yul\":41609:41823   */\n      pop\n      jump\t// out\n        /* \"#utility.yul\":41829:42231   */\n    tag_501:\n        /* \"#utility.yul\":41989:41992   */\n      0x00\n        /* \"#utility.yul\":42010:42095   */\n      tag_857\n        /* \"#utility.yul\":42092:42094   */\n      0x20\n        /* \"#utility.yul\":42087:42090   */\n      dup4\n        /* \"#utility.yul\":42010:42095   */\n      tag_494\n      jump\t// in\n    tag_857:\n        /* \"#utility.yul\":42003:42095   */\n      swap2\n      pop\n        /* \"#utility.yul\":42104:42197   */\n      tag_858\n        /* \"#utility.yul\":42193:42196   */\n      dup3\n        /* \"#utility.yul\":42104:42197   */\n      tag_500\n      jump\t// in\n    tag_858:\n        /* \"#utility.yul\":42222:42224   */\n      0x20\n        /* \"#utility.yul\":42217:42220   */\n      dup3\n        /* \"#utility.yul\":42213:42225   */\n      add\n        /* \"#utility.yul\":42206:42225   */\n      swap1\n      pop\n        /* \"#utility.yul\":41829:42231   */\n      swap2\n      swap1\n      pop\n      jump\t// out\n        /* \"#utility.yul\":42237:43166   */\n    tag_347:\n        /* \"#utility.yul\":42579:42582   */\n      0x00\n        /* \"#utility.yul\":42601:42749   */\n      tag_860\n        /* \"#utility.yul\":42745:42748   */\n      dup3\n        /* \"#utility.yul\":42601:42749   */\n      tag_496\n      jump\t// in\n    tag_860:\n        /* \"#utility.yul\":42594:42749   */\n      swap2\n      pop\n        /* \"#utility.yul\":42759:42834   */\n      tag_861\n        /* \"#utility.yul\":42830:42833   */\n      dup3\n        /* \"#utility.yul\":42821:42827   */\n      dup6\n        /* \"#utility.yul\":42759:42834   */\n      tag_493\n      jump\t// in\n    tag_861:\n        /* \"#utility.yul\":42859:42861   */\n      0x14\n        /* \"#utility.yul\":42854:42857   */\n      dup3\n        /* \"#utility.yul\":42850:42862   */\n      add\n        /* \"#utility.yul\":42843:42862   */\n      swap2\n      pop\n        /* \"#utility.yul\":42872:42947   */\n      tag_862\n        /* \"#utility.yul\":42943:42946   */\n      dup3\n        /* \"#utility.yul\":42934:42940   */\n      dup5\n        /* \"#utility.yul\":42872:42947   */\n      tag_499\n      jump\t// in\n    tag_862:\n        /* \"#utility.yul\":42972:42974   */\n      0x20\n        /* \"#utility.yul\":42967:42970   */\n      dup3\n        /* \"#utility.yul\":42963:42975   */\n      add\n        /* \"#utility.yul\":42956:42975   */\n      swap2\n      pop\n        /* \"#utility.yul\":42992:43140   */\n      tag_863\n        /* \"#utility.yul\":43136:43139   */\n      dup3\n        /* \"#utility.yul\":42992:43140   */\n      tag_501\n      jump\t// in\n    tag_863:\n        /* \"#utility.yul\":42985:43140   */\n      swap2\n      pop\n        /* \"#utility.yul\":43157:43160   */\n      dup2\n        /* \"#utility.yul\":43150:43160   */\n      swap1\n      pop\n        /* \"#utility.yul\":42237:43166   */\n      swap4\n      swap3\n      pop\n      pop\n      pop\n      jump\t// out\n        /* \"#utility.yul\":43172:43342   */\n    tag_502:\n        /* \"#utility.yul\":43312:43334   */\n      0x64732d6d6174682d6d756c2d6f766572666c6f77000000000000000000000000\n        /* \"#utility.yul\":43308:43309   */\n      0x00\n        /* \"#utility.yul\":43300:43306   */\n      dup3\n        /* \"#utility.yul\":43296:43310   */\n      add\n        /* \"#utility.yul\":43289:43335   */\n      mstore\n        /* \"#utility.yul\":43172:43342   */\n      pop\n      jump\t// out\n        /* \"#utility.yul\":43348:43714   */\n    tag_503:\n        /* \"#utility.yul\":43490:43493   */\n      0x00\n        /* \"#utility.yul\":43511:43578   */\n      tag_866\n        /* \"#utility.yul\":43575:43577   */\n      0x14\n        /* \"#utility.yul\":43570:43573   */\n      dup4\n        /* \"#utility.yul\":43511:43578   */\n      tag_443\n      jump\t// in\n    tag_866:\n        /* \"#utility.yul\":43504:43578   */\n      swap2\n      pop\n        /* \"#utility.yul\":43587:43680   */\n      tag_867\n        /* \"#utility.yul\":43676:43679   */\n      dup3\n        /* \"#utility.yul\":43587:43680   */\n      tag_502\n      jump\t// in\n    tag_867:\n        /* \"#utility.yul\":43705:43707   */\n      0x20\n        /* \"#utility.yul\":43700:43703   */\n      dup3\n        /* \"#utility.yul\":43696:43708   */\n      add\n        /* \"#utility.yul\":43689:43708   */\n      swap1\n      pop\n        /* \"#utility.yul\":43348:43714   */\n      swap2\n      swap1\n      pop\n      jump\t// out\n        /* \"#utility.yul\":43720:44139   */\n    tag_354:\n        /* \"#utility.yul\":43886:43890   */\n      0x00\n        /* \"#utility.yul\":43924:43926   */\n      0x20\n        /* \"#utility.yul\":43913:43922   */\n      dup3\n        /* \"#utility.yul\":43909:43927   */\n      add\n        /* \"#utility.yul\":43901:43927   */\n      swap1\n      pop\n        /* \"#utility.yul\":43973:43982   */\n      dup2\n        /* \"#utility.yul\":43967:43971   */\n      dup2\n        /* \"#utility.yul\":43963:43983   */\n      sub\n        /* \"#utility.yul\":43959:43960   */\n      0x00\n        /* \"#utility.yul\":43948:43957   */\n      dup4\n        /* \"#utility.yul\":43944:43961   */\n      add\n        /* \"#utility.yul\":43937:43984   */\n      mstore\n        /* \"#utility.yul\":44001:44132   */\n      tag_869\n        /* \"#utility.yul\":44127:44131   */\n      dup2\n        /* \"#utility.yul\":44001:44132   */\n      tag_503\n      jump\t// in\n    tag_869:\n        /* \"#utility.yul\":43993:44132   */\n      swap1\n      pop\n        /* \"#utility.yul\":43720:44139   */\n      swap2\n      swap1\n      pop\n      jump\t// out\n        /* \"#utility.yul\":44145:44315   */\n    tag_504:\n        /* \"#utility.yul\":44285:44307   */\n      0x64732d6d6174682d6164642d6f766572666c6f77000000000000000000000000\n        /* \"#utility.yul\":44281:44282   */\n      0x00\n        /* \"#utility.yul\":44273:44279   */\n      dup3\n        /* \"#utility.yul\":44269:44283   */\n      add\n        /* \"#utility.yul\":44262:44308   */\n      mstore\n        /* \"#utility.yul\":44145:44315   */\n      pop\n      jump\t// out\n        /* \"#utility.yul\":44321:44687   */\n    tag_505:\n        /* \"#utility.yul\":44463:44466   */\n      0x00\n        /* \"#utility.yul\":44484:44551   */\n      tag_872\n        /* \"#utility.yul\":44548:44550   */\n      0x14\n        /* \"#utility.yul\":44543:44546   */\n      dup4\n        /* \"#utility.yul\":44484:44551   */\n      tag_443\n      jump\t// in\n    tag_872:\n        /* \"#utility.yul\":44477:44551   */\n      swap2\n      pop\n        /* \"#utility.yul\":44560:44653   */\n      tag_873\n        /* \"#utility.yul\":44649:44652   */\n      dup3\n        /* \"#utility.yul\":44560:44653   */\n      tag_504\n      jump\t// in\n    tag_873:\n        /* \"#utility.yul\":44678:44680   */\n      0x20\n        /* \"#utility.yul\":44673:44676   */\n      dup3\n        /* \"#utility.yul\":44669:44681   */\n      add\n        /* \"#utility.yul\":44662:44681   */\n      swap1\n      pop\n        /* \"#utility.yul\":44321:44687   */\n      swap2\n      swap1\n      pop\n      jump\t// out\n        /* \"#utility.yul\":44693:45112   */\n    tag_359:\n        /* \"#utility.yul\":44859:44863   */\n      0x00\n        /* \"#utility.yul\":44897:44899   */\n      0x20\n        /* \"#utility.yul\":44886:44895   */\n      dup3\n        /* \"#utility.yul\":44882:44900   */\n      add\n        /* \"#utility.yul\":44874:44900   */\n      swap1\n      pop\n        /* \"#utility.yul\":44946:44955   */\n      dup2\n        /* \"#utility.yul\":44940:44944   */\n      dup2\n        /* \"#utility.yul\":44936:44956   */\n      sub\n        /* \"#utility.yul\":44932:44933   */\n      0x00\n        /* \"#utility.yul\":44921:44930   */\n      dup4\n        /* \"#utility.yul\":44917:44934   */\n      add\n        /* \"#utility.yul\":44910:44957   */\n      mstore\n        /* \"#utility.yul\":44974:45105   */\n      tag_875\n        /* \"#utility.yul\":45100:45104   */\n      dup2\n        /* \"#utility.yul\":44974:45105   */\n      tag_505\n      jump\t// in\n    tag_875:\n        /* \"#utility.yul\":44966:45105   */\n      swap1\n      pop\n        /* \"#utility.yul\":44693:45112   */\n      swap2\n      swap1\n      pop\n      jump\t// out\n        /* \"#utility.yul\":45118:45309   */\n    tag_396:\n        /* \"#utility.yul\":45156:45160   */\n      0x00\n        /* \"#utility.yul\":45176:45194   */\n      tag_877\n        /* \"#utility.yul\":45192:45193   */\n      dup3\n        /* \"#utility.yul\":45176:45194   */\n      tag_420\n      jump\t// in\n    tag_877:\n        /* \"#utility.yul\":45171:45194   */\n      swap2\n      pop\n        /* \"#utility.yul\":45208:45226   */\n      tag_878\n        /* \"#utility.yul\":45224:45225   */\n      dup4\n        /* \"#utility.yul\":45208:45226   */\n      tag_420\n      jump\t// in\n    tag_878:\n        /* \"#utility.yul\":45203:45226   */\n      swap3\n      pop\n        /* \"#utility.yul\":45250:45251   */\n      dup3\n        /* \"#utility.yul\":45247:45248   */\n      dup3\n        /* \"#utility.yul\":45243:45252   */\n      sub\n        /* \"#utility.yul\":45235:45252   */\n      swap1\n      pop\n        /* \"#utility.yul\":45274:45278   */\n      0xff\n        /* \"#utility.yul\":45268:45272   */\n      dup2\n        /* \"#utility.yul\":45265:45279   */\n      gt\n        /* \"#utility.yul\":45262:45302   */\n      iszero\n      tag_879\n      jumpi\n        /* \"#utility.yul\":45282:45300   */\n      tag_880\n      tag_454\n      jump\t// in\n    tag_880:\n        /* \"#utility.yul\":45262:45302   */\n    tag_879:\n        /* \"#utility.yul\":45118:45309   */\n      swap3\n      swap2\n      pop\n      pop\n      jump\t// out\n\n    auxdata: 0xa264697066735822122097fd5dbecedd82b7f14a2c25679cc54a3981345f8bd0578b071b3b473b64b11764736f6c63430008120033\n}\n",
				"bytecode": {
					"linkReferences": {},
					"object": "608060405234801561001057600080fd5b50336000806101000a81548173ffffffffffffffffffffffffffffffffffffffff021916908373ffffffffffffffffffffffffffffffffffffffff160217905550614998806100606000396000f3fe608060405234801561001057600080fd5b50600436106101735760003560e01c806359d0f713116100de5780637a8af56211610097578063aad3ec9611610071578063aad3ec9614610419578063f48aa84f14610435578063f851a44014610465578063fc0c546a1461048357610173565b80637a8af562146103c357806381bac14f146103df5780639e0060aa146103fb57610173565b806359d0f713146103015780635c60da1b1461031f57806360fe44831461033d5780636386c1c7146103595780636a7f747714610389578063704b6c02146103a757610173565b8063328705771161013057806332870577146102515780633ec9ef2e1461026d57806346e6dfe7146102895780634e377201146102a75780635636f6ba146102c557806357b2351d146102e357610173565b80630667afe2146101785780631459457a146101945780631959a002146101b05780631efba6c2146101e55780632f48ab7d1461020357806330be0cd914610221575b600080fd5b610192600480360381019061018d9190613409565b6104a1565b005b6101ae60048036038101906101a99190613494565b610539565b005b6101ca60048036038101906101c5919061350f565b6107e9565b6040516101dc96959493929190613575565b60405180910390f35b6101ed61087f565b6040516101fa91906135d6565b60405180910390f35b61020b610885565b60405161021891906135f1565b60405180910390f35b61023b6004803603810190610236919061350f565b6108ab565b604051610248919061371b565b60405180910390f35b61026b60048036038101906102669190613776565b6109b3565b005b610287600480360381019061028291906137a3565b610a5f565b005b610291610b1e565b60405161029e91906137f2565b60405180910390f35b6102af610b31565b6040516102bc91906135f1565b60405180910390f35b6102cd610b57565b6040516102da91906135f1565b60405180910390f35b6102eb610b7d565b6040516102f891906135d6565b60405180910390f35b610309610c0b565b60405161031691906135f1565b60405180910390f35b610327610c31565b60405161033491906135f1565b60405180910390f35b6103576004803603810190610352919061380d565b610c57565b005b610373600480360381019061036e919061350f565b610dad565b60405161038091906139ba565b60405180910390f35b610391610f8a565b60405161039e91906135f1565b60405180910390f35b6103c160048036038101906103bc919061350f565b610fb0565b005b6103dd60048036038101906103d8919061350f565b611081565b005b6103f960048036038101906103f4919061350f565b61142b565b005b6104036118b4565b60405161041091906135f1565b60405180910390f35b610433600480360381019061042e91906137a3565b6118da565b005b61044f600480360381019061044a919061350f565b611adf565b60405161045c9190613b57565b60405180910390f35b61046d611c22565b60405161047a91906135f1565b60405180910390f35b61048b611c46565b60405161049891906135f1565b60405180910390f35b3373ffffffffffffffffffffffffffffffffffffffff1660008054906101000a900473ffffffffffffffffffffffffffffffffffffffff1673ffffffffffffffffffffffffffffffffffffffff161461052f576040517f08c379a000000000000000000000000000000000000000000000000000000000815260040161052690613bd6565b60405180910390fd5b80600c8190555050565b3373ffffffffffffffffffffffffffffffffffffffff1660008054906101000a900473ffffffffffffffffffffffffffffffffffffffff1673ffffffffffffffffffffffffffffffffffffffff16146105c7576040517f08c379a00000000000000000000000000000000000000000000000000000000081526004016105be90613bd6565b60405180910390fd5b83600560006101000a81548173ffffffffffffffffffffffffffffffffffffffff021916908373ffffffffffffffffffffffffffffffffffffffff16021790555073ca143ce32fe78f1f7019d7d551a6402fc5350c73600660006101000a81548173ffffffffffffffffffffffffffffffffffffffff021916908373ffffffffffffffffffffffffffffffffffffffff16021790555084600760006101000a81548173ffffffffffffffffffffffffffffffffffffffff021916908373ffffffffffffffffffffffffffffffffffffffff1602179055507355d398326f99059ff775485246999027b3197955600860006101000a81548173ffffffffffffffffffffffffffffffffffffffff021916908373ffffffffffffffffffffffffffffffffffffffff16021790555081600a60006101000a81548173ffffffffffffffffffffffffffffffffffffffff021916908373ffffffffffffffffffffffffffffffffffffffff16021790555082600b60006101000a81548173ffffffffffffffffffffffffffffffffffffffff021916908373ffffffffffffffffffffffffffffffffffffffff16021790555080600960006101000a81548173ffffffffffffffffffffffffffffffffffffffff021916908373ffffffffffffffffffffffffffffffffffffffff160217905550681b1ae4d6e2ef500000600c81905550601e600d60006101000a81548160ff021916908360ff1602179055505050505050565b60026020528060005260406000206000915090508060000160009054906101000a900460ff16908060000160019054906101000a900460ff16908060000160029054906101000a900473ffffffffffffffffffffffffffffffffffffffff16908060010160009054906101000a900473ffffffffffffffffffffffffffffffffffffffff16908060020154908060030154905086565b600c5481565b600860009054906101000a900473ffffffffffffffffffffffffffffffffffffffff1681565b6060600460008373ffffffffffffffffffffffffffffffffffffffff1673ffffffffffffffffffffffffffffffffffffffff168152602001908152602001600020805480602002602001604051908101604052809291908181526020016000905b828210156109a857838290600052602060002090600302016040518060600160405290816000820160009054906101000a900473ffffffffffffffffffffffffffffffffffffffff1673ffffffffffffffffffffffffffffffffffffffff1673ffffffffffffffffffffffffffffffffffffffff168152602001600182015481526020016002820154815250508152602001906001019061090c565b505050509050919050565b3373ffffffffffffffffffffffffffffffffffffffff1660008054906101000a900473ffffffffffffffffffffffffffffffffffffffff1673ffffffffffffffffffffffffffffffffffffffff1614610a41576040517f08c379a0000000000000000000000000000000000000000000000000000000008152600401610a3890613bd6565b60405180910390fd5b80600d60006101000a81548160ff021916908360ff16021790555050565b3373ffffffffffffffffffffffffffffffffffffffff1660008054906101000a900473ffffffffffffffffffffffffffffffffffffffff1673ffffffffffffffffffffffffffffffffffffffff1614610aed576040517f08c379a0000000000000000000000000000000000000000000000000000000008152600401610ae490613bd6565b60405180910390fd5b610b1a600760009054906101000a900473ffffffffffffffffffffffffffffffffffffffff168383611c6c565b5050565b600d60009054906101000a900460ff1681565b600560009054906101000a900473ffffffffffffffffffffffffffffffffffffffff1681565b600a60009054906101000a900473ffffffffffffffffffffffffffffffffffffffff1681565b6000806000610bf3600660009054906101000a900473ffffffffffffffffffffffffffffffffffffffff16600860009054906101000a900473ffffffffffffffffffffffffffffffffffffffff16600760009054906101000a900473ffffffffffffffffffffffffffffffffffffffff16611da2565b91509150610c04600c548383611ea5565b9250505090565b600660009054906101000a900473ffffffffffffffffffffffffffffffffffffffff1681565b600160009054906101000a900473ffffffffffffffffffffffffffffffffffffffff1681565b3373ffffffffffffffffffffffffffffffffffffffff1660008054906101000a900473ffffffffffffffffffffffffffffffffffffffff1673ffffffffffffffffffffffffffffffffffffffff1614610ce5576040517f08c379a0000000000000000000000000000000000000000000000000000000008152600401610cdc90613bd6565b60405180910390fd5b80600b60006101000a81548173ffffffffffffffffffffffffffffffffffffffff021916908373ffffffffffffffffffffffffffffffffffffffff16021790555082600960006101000a81548173ffffffffffffffffffffffffffffffffffffffff021916908373ffffffffffffffffffffffffffffffffffffffff16021790555081600a60006101000a81548173ffffffffffffffffffffffffffffffffffffffff021916908373ffffffffffffffffffffffffffffffffffffffff160217905550505050565b610db5613361565b600260008373ffffffffffffffffffffffffffffffffffffffff1673ffffffffffffffffffffffffffffffffffffffff1681526020019081526020016000206040518060e00160405290816000820160009054906101000a900460ff161515151581526020016000820160019054906101000a900460ff161515151581526020016000820160029054906101000a900473ffffffffffffffffffffffffffffffffffffffff1673ffffffffffffffffffffffffffffffffffffffff1673ffffffffffffffffffffffffffffffffffffffff1681526020016001820160009054906101000a900473ffffffffffffffffffffffffffffffffffffffff1673ffffffffffffffffffffffffffffffffffffffff1673ffffffffffffffffffffffffffffffffffffffff168152602001600282015481526020016003820154815260200160048201805480602002602001604051908101604052809291908181526020018280548015610f7a57602002820191906000526020600020905b8160009054906101000a900473ffffffffffffffffffffffffffffffffffffffff1673ffffffffffffffffffffffffffffffffffffffff1681526020019060010190808311610f30575b5050505050815250509050919050565b600960009054906101000a900473ffffffffffffffffffffffffffffffffffffffff1681565b3373ffffffffffffffffffffffffffffffffffffffff1660008054906101000a900473ffffffffffffffffffffffffffffffffffffffff1673ffffffffffffffffffffffffffffffffffffffff161461103e576040517f08c379a000000000000000000000000000000000000000000000000000000000815260040161103590613bd6565b60405180910390fd5b806000806101000a81548173ffffffffffffffffffffffffffffffffffffffff021916908373ffffffffffffffffffffffffffffffffffffffff16021790555050565b6000600260008373ffffffffffffffffffffffffffffffffffffffff1673ffffffffffffffffffffffffffffffffffffffff1681526020019081526020016000209050600073ffffffffffffffffffffffffffffffffffffffff168160000160029054906101000a900473ffffffffffffffffffffffffffffffffffffffff1673ffffffffffffffffffffffffffffffffffffffff1603611157576040517f08c379a000000000000000000000000000000000000000000000000000000000815260040161114e90613c68565b60405180910390fd5b8060000160009054906101000a900460ff16156111a9576040517f08c379a00000000000000000000000000000000000000000000000000000000081526004016111a090613cfa565b60405180910390fd5b3373ffffffffffffffffffffffffffffffffffffffff168273ffffffffffffffffffffffffffffffffffffffff1614611217576040517f08c379a000000000000000000000000000000000000000000000000000000000815260040161120e90613d66565b60405180910390fd5b6000611221610b7d565b905060008111611266576040517f08c379a000000000000000000000000000000000000000000000000000000000815260040161125d90613df8565b60405180910390fd5b600060646042836112779190613e47565b6112819190613eb8565b9050600060646014846112949190613e47565b61129e9190613eb8565b905060006064600a856112b19190613e47565b6112bb9190613eb8565b90506112eb600760009054906101000a900473ffffffffffffffffffffffffffffffffffffffff16873086611fab565b61133b600760009054906101000a900473ffffffffffffffffffffffffffffffffffffffff1687600960009054906101000a900473ffffffffffffffffffffffffffffffffffffffff1685611fab565b61138b600760009054906101000a900473ffffffffffffffffffffffffffffffffffffffff1687600a60009054906101000a900473ffffffffffffffffffffffffffffffffffffffff1684611fab565b6113fc600760009054906101000a900473ffffffffffffffffffffffffffffffffffffffff1687600b60009054906101000a900473ffffffffffffffffffffffffffffffffffffffff168486888a6113e39190613ee9565b6113ed9190613ee9565b6113f79190613ee9565b611fab565b61140686856120e4565b60018560000160006101000a81548160ff021916908315150217905550505050505050565b600073ffffffffffffffffffffffffffffffffffffffff16600560009054906101000a900473ffffffffffffffffffffffffffffffffffffffff1673ffffffffffffffffffffffffffffffffffffffff16036114bc576040517f08c379a00000000000000000000000000000000000000000000000000000000081526004016114b390613f69565b60405180910390fd5b8073ffffffffffffffffffffffffffffffffffffffff16600560009054906101000a900473ffffffffffffffffffffffffffffffffffffffff1673ffffffffffffffffffffffffffffffffffffffff1614611797576000600260008373ffffffffffffffffffffffffffffffffffffffff1673ffffffffffffffffffffffffffffffffffffffff1681526020019081526020016000206040518060e00160405290816000820160009054906101000a900460ff161515151581526020016000820160019054906101000a900460ff161515151581526020016000820160029054906101000a900473ffffffffffffffffffffffffffffffffffffffff1673ffffffffffffffffffffffffffffffffffffffff1673ffffffffffffffffffffffffffffffffffffffff1681526020016001820160009054906101000a900473ffffffffffffffffffffffffffffffffffffffff1673ffffffffffffffffffffffffffffffffffffffff1673ffffffffffffffffffffffffffffffffffffffff1681526020016002820154815260200160038201548152602001600482018054806020026020016040519081016040528092919081815260200182805480156116d857602002820191906000526020600020905b8160009054906101000a900473ffffffffffffffffffffffffffffffffffffffff1673ffffffffffffffffffffffffffffffffffffffff168152602001906001019080831161168e575b50505050508152505090508060000151611727576040517f08c379a000000000000000000000000000000000000000000000000000000000815260040161171e90613fd5565b60405180910390fd5b3373ffffffffffffffffffffffffffffffffffffffff168273ffffffffffffffffffffffffffffffffffffffff1603611795576040517f08c379a000000000000000000000000000000000000000000000000000000000815260040161178c90614041565b60405180910390fd5b505b6000600260003373ffffffffffffffffffffffffffffffffffffffff1673ffffffffffffffffffffffffffffffffffffffff1681526020019081526020016000209050600073ffffffffffffffffffffffffffffffffffffffff168160000160029054906101000a900473ffffffffffffffffffffffffffffffffffffffff1673ffffffffffffffffffffffffffffffffffffffff161461186d576040517f08c379a0000000000000000000000000000000000000000000000000000000008152600401611864906140ad565b60405180910390fd5b818160000160026101000a81548173ffffffffffffffffffffffffffffffffffffffff021916908373ffffffffffffffffffffffffffffffffffffffff1602179055505050565b600b60009054906101000a900473ffffffffffffffffffffffffffffffffffffffff1681565b80600260008473ffffffffffffffffffffffffffffffffffffffff1673ffffffffffffffffffffffffffffffffffffffff16815260200190815260200160002060030154101561195f576040517f08c379a000000000000000000000000000000000000000000000000000000000815260040161195690614119565b60405180910390fd5b61198c600760009054906101000a900473ffffffffffffffffffffffffffffffffffffffff168383611c6c565b80600260008473ffffffffffffffffffffffffffffffffffffffff1673ffffffffffffffffffffffffffffffffffffffff16815260200190815260200160002060030160008282546119de9190613ee9565b92505081905550600460008373ffffffffffffffffffffffffffffffffffffffff1673ffffffffffffffffffffffffffffffffffffffff16815260200190815260200160002060405180606001604052808473ffffffffffffffffffffffffffffffffffffffff16815260200183815260200142815250908060018154018082558091505060019003906000526020600020906003020160009091909190915060008201518160000160006101000a81548173ffffffffffffffffffffffffffffffffffffffff021916908373ffffffffffffffffffffffffffffffffffffffff160217905550602082015181600101556040820151816002015550505050565b6060600360008373ffffffffffffffffffffffffffffffffffffffff1673ffffffffffffffffffffffffffffffffffffffff168152602001908152602001600020805480602002602001604051908101604052809291908181526020016000905b82821015611c1757838290600052602060002090600402016040518060800160405290816000820160009054906101000a900473ffffffffffffffffffffffffffffffffffffffff1673ffffffffffffffffffffffffffffffffffffffff1673ffffffffffffffffffffffffffffffffffffffff16815260200160018201548152602001600282015481526020016003820160009054906101000a900460ff166002811115611bf257611bf1613a08565b5b6002811115611c0457611c03613a08565b5b8152505081526020019060010190611b40565b505050509050919050565b60008054906101000a900473ffffffffffffffffffffffffffffffffffffffff1681565b600760009054906101000a900473ffffffffffffffffffffffffffffffffffffffff1681565b6000808473ffffffffffffffffffffffffffffffffffffffff1663a9059cbb8585604051602401611c9e929190614139565b6040516020818303038152906040529060e01b6020820180517bffffffffffffffffffffffffffffffffffffffffffffffffffffffff8381831617835250505050604051611cec91906141d3565b6000604051808303816000865af19150503d8060008114611d29576040519150601f19603f3d011682016040523d82523d6000602084013e611d2e565b606091505b5091509150818015611d5c5750600081511480611d5b575080806020019051810190611d5a9190614216565b5b5b611d9b576040517f08c379a0000000000000000000000000000000000000000000000000000000008152600401611d929061428f565b60405180910390fd5b5050505050565b6000806000611db185856129fc565b509050600080611dc2888888612b28565b73ffffffffffffffffffffffffffffffffffffffff16630902f1ac6040518163ffffffff1660e01b8152600401606060405180830381865afa158015611e0c573d6000803e3d6000fd5b505050506040513d601f19601f82011682018060405250810190611e309190614331565b506dffffffffffffffffffffffffffff1691506dffffffffffffffffffffffffffff1691508273ffffffffffffffffffffffffffffffffffffffff168773ffffffffffffffffffffffffffffffffffffffff1614611e8f578082611e92565b81815b8095508196505050505050935093915050565b6000808411611ee9576040517f08c379a0000000000000000000000000000000000000000000000000000000008152600401611ee0906143f6565b60405180910390fd5b600083118015611ef95750600082115b611f38576040517f08c379a0000000000000000000000000000000000000000000000000000000008152600401611f2f90614488565b60405180910390fd5b6000611f4f6103e586612b9a90919063ffffffff16565b90506000611f668483612b9a90919063ffffffff16565b90506000611f9183611f836103e889612b9a90919063ffffffff16565b612c0790919063ffffffff16565b90508082611f9f9190613eb8565b93505050509392505050565b6000808573ffffffffffffffffffffffffffffffffffffffff166323b872dd868686604051602401611fdf939291906144a8565b6040516020818303038152906040529060e01b6020820180517bffffffffffffffffffffffffffffffffffffffffffffffffffffffff838183161783525050505060405161202d91906141d3565b6000604051808303816000865af19150503d806000811461206a576040519150601f19603f3d011682016040523d82523d6000602084013e61206f565b606091505b509150915081801561209d575060008151148061209c57508080602001905181019061209b9190614216565b5b5b6120dc576040517f08c379a00000000000000000000000000000000000000000000000000000000081526004016120d390614551565b60405180910390fd5b505050505050565b6000600260008473ffffffffffffffffffffffffffffffffffffffff1673ffffffffffffffffffffffffffffffffffffffff16815260200190815260200160002060000160029054906101000a900473ffffffffffffffffffffffffffffffffffffffff1690506000600260008373ffffffffffffffffffffffffffffffffffffffff1673ffffffffffffffffffffffffffffffffffffffff168152602001908152602001600020905060018160020160008282546121a39190614571565b9250508190555080600401849080600181540180825580915050600190039060005260206000200160009091909190916101000a81548173ffffffffffffffffffffffffffffffffffffffff021916908373ffffffffffffffffffffffffffffffffffffffff160217905550600381600201541015801561223357508060000160019054906101000a900460ff16155b156122565760018160000160016101000a81548160ff0219169083151502179055505b60646014846122659190613e47565b61226f9190613eb8565b816003015461227e9190614571565b8160030181905550600360008373ffffffffffffffffffffffffffffffffffffffff1673ffffffffffffffffffffffffffffffffffffffff16815260200190815260200160002060405180608001604052808673ffffffffffffffffffffffffffffffffffffffff16815260200160646014876122fb9190613e47565b6123059190613eb8565b81526020014281526020016000600281111561232457612323613a08565b5b815250908060018154018082558091505060019003906000526020600020906004020160009091909190915060008201518160000160006101000a81548173ffffffffffffffffffffffffffffffffffffffff021916908373ffffffffffffffffffffffffffffffffffffffff160217905550602082015181600101556040820151816002015560608201518160030160006101000a81548160ff021916908360028111156123d6576123d5613a08565b5b021790555050508060000160019054906101000a900460ff16156129eb5760646028846124039190613e47565b61240d9190613eb8565b816003015461241c9190614571565b8160030181905550600360008373ffffffffffffffffffffffffffffffffffffffff1673ffffffffffffffffffffffffffffffffffffffff16815260200190815260200160002060405180608001604052808673ffffffffffffffffffffffffffffffffffffffff16815260200160646028876124999190613e47565b6124a39190613eb8565b8152602001428152602001600160028111156124c2576124c1613a08565b5b815250908060018154018082558091505060019003906000526020600020906004020160009091909190915060008201518160000160006101000a81548173ffffffffffffffffffffffffffffffffffffffff021916908373ffffffffffffffffffffffffffffffffffffffff160217905550602082015181600101556040820151816002015560608201518160030160006101000a81548160ff0219169083600281111561257457612573613a08565b5b0217905550505060008160000160029054906101000a900473ffffffffffffffffffffffffffffffffffffffff169050600073ffffffffffffffffffffffffffffffffffffffff168173ffffffffffffffffffffffffffffffffffffffff16146129e55760646006856125e79190613e47565b6125f19190613eb8565b600260008373ffffffffffffffffffffffffffffffffffffffff1673ffffffffffffffffffffffffffffffffffffffff1681526020019081526020016000206003015461263e9190614571565b600260008373ffffffffffffffffffffffffffffffffffffffff1673ffffffffffffffffffffffffffffffffffffffff16815260200190815260200160002060030181905550600360008273ffffffffffffffffffffffffffffffffffffffff1673ffffffffffffffffffffffffffffffffffffffff16815260200190815260200160002060405180608001604052808773ffffffffffffffffffffffffffffffffffffffff16815260200160646006886126f99190613e47565b6127039190613eb8565b815260200142815260200160028081111561272157612720613a08565b5b815250908060018154018082558091505060019003906000526020600020906004020160009091909190915060008201518160000160006101000a81548173ffffffffffffffffffffffffffffffffffffffff021916908373ffffffffffffffffffffffffffffffffffffffff160217905550602082015181600101556040820151816002015560608201518160030160006101000a81548160ff021916908360028111156127d3576127d2613a08565b5b021790555050506000819050600073ffffffffffffffffffffffffffffffffffffffff168360010160009054906101000a900473ffffffffffffffffffffffffffffffffffffffff1673ffffffffffffffffffffffffffffffffffffffff161461285f578260010160009054906101000a900473ffffffffffffffffffffffffffffffffffffffff1690505b80600260008560040160008154811061287b5761287a6145a5565b5b9060005260206000200160009054906101000a900473ffffffffffffffffffffffffffffffffffffffff1673ffffffffffffffffffffffffffffffffffffffff1673ffffffffffffffffffffffffffffffffffffffff16815260200190815260200160002060010160006101000a81548173ffffffffffffffffffffffffffffffffffffffff021916908373ffffffffffffffffffffffffffffffffffffffff16021790555080600260008560040160018154811061293d5761293c6145a5565b5b9060005260206000200160009054906101000a900473ffffffffffffffffffffffffffffffffffffffff1673ffffffffffffffffffffffffffffffffffffffff1673ffffffffffffffffffffffffffffffffffffffff16815260200190815260200160002060010160006101000a81548173ffffffffffffffffffffffffffffffffffffffff021916908373ffffffffffffffffffffffffffffffffffffffff160217905550505b506129f6565b6129f58484612c60565b5b50505050565b6000808273ffffffffffffffffffffffffffffffffffffffff168473ffffffffffffffffffffffffffffffffffffffff1603612a6d576040517f08c379a0000000000000000000000000000000000000000000000000000000008152600401612a6490614646565b60405180910390fd5b8273ffffffffffffffffffffffffffffffffffffffff168473ffffffffffffffffffffffffffffffffffffffff1610612aa7578284612aaa565b83835b8092508193505050600073ffffffffffffffffffffffffffffffffffffffff168273ffffffffffffffffffffffffffffffffffffffff1603612b21576040517f08c379a0000000000000000000000000000000000000000000000000000000008152600401612b18906146b2565b60405180910390fd5b9250929050565b6000806000612b3785856129fc565b91509150858282604051602001612b4f92919061471a565b60405160208183030381529060405280519060200120604051602001612b76929190614813565b6040516020818303038152906040528051906020012060001c925050509392505050565b600080821480612bc2575082828385612bb39190613e47565b925082612bc09190613eb8565b145b612c01576040517f08c379a0000000000000000000000000000000000000000000000000000000008152600401612bf8906148a1565b60405180910390fd5b92915050565b6000828284612c169190614571565b9150811015612c5a576040517f08c379a0000000000000000000000000000000000000000000000000000000008152600401612c519061490d565b60405180910390fd5b92915050565b6000612c6b836130bc565b9050600260008273ffffffffffffffffffffffffffffffffffffffff1673ffffffffffffffffffffffffffffffffffffffff16815260200190815260200160002060000160019054906101000a900460ff16156130b7576000600260008373ffffffffffffffffffffffffffffffffffffffff1673ffffffffffffffffffffffffffffffffffffffff16815260200190815260200160002090506064602884612d149190613e47565b612d1e9190613eb8565b8160030154612d2d9190614571565b8160030181905550600360008373ffffffffffffffffffffffffffffffffffffffff1673ffffffffffffffffffffffffffffffffffffffff16815260200190815260200160002060405180608001604052808673ffffffffffffffffffffffffffffffffffffffff1681526020016064602887612daa9190613e47565b612db49190613eb8565b815260200142815260200160016002811115612dd357612dd2613a08565b5b815250908060018154018082558091505060019003906000526020600020906004020160009091909190915060008201518160000160006101000a81548173ffffffffffffffffffffffffffffffffffffffff021916908373ffffffffffffffffffffffffffffffffffffffff160217905550602082015181600101556040820151816002015560608201518160030160006101000a81548160ff02191690836002811115612e8557612e84613a08565b5b0217905550505060008160000160029054906101000a900473ffffffffffffffffffffffffffffffffffffffff169050600073ffffffffffffffffffffffffffffffffffffffff168173ffffffffffffffffffffffffffffffffffffffff16146130b4576000600260008373ffffffffffffffffffffffffffffffffffffffff1673ffffffffffffffffffffffffffffffffffffffff16815260200190815260200160002090506064600686612f3b9190613e47565b612f459190613eb8565b8160030154612f549190614571565b8160030181905550600360008373ffffffffffffffffffffffffffffffffffffffff1673ffffffffffffffffffffffffffffffffffffffff16815260200190815260200160002060405180608001604052808873ffffffffffffffffffffffffffffffffffffffff1681526020016064600689612fd19190613e47565b612fdb9190613eb8565b8152602001428152602001600280811115612ff957612ff8613a08565b5b815250908060018154018082558091505060019003906000526020600020906004020160009091909190915060008201518160000160006101000a81548173ffffffffffffffffffffffffffffffffffffffff021916908373ffffffffffffffffffffffffffffffffffffffff160217905550602082015181600101556040820151816002015560608201518160030160006101000a81548160ff021916908360028111156130ab576130aa613a08565b5b02179055505050505b50505b505050565b6000600260008373ffffffffffffffffffffffffffffffffffffffff1673ffffffffffffffffffffffffffffffffffffffff16815260200190815260200160002060000160019054906101000a900460ff166131325761312b82600d60009054906101000a900460ff1661313b565b9050613136565b8190505b919050565b6000808260ff16148061317a5750600073ffffffffffffffffffffffffffffffffffffffff168373ffffffffffffffffffffffffffffffffffffffff16145b806131d15750600260008473ffffffffffffffffffffffffffffffffffffffff1673ffffffffffffffffffffffffffffffffffffffff16815260200190815260200160002060000160019054906101000a900460ff165b156131de5782905061335b565b6000600260008573ffffffffffffffffffffffffffffffffffffffff1673ffffffffffffffffffffffffffffffffffffffff16815260200190815260200160002060000160029054906101000a900473ffffffffffffffffffffffffffffffffffffffff169050600073ffffffffffffffffffffffffffffffffffffffff16600260008673ffffffffffffffffffffffffffffffffffffffff1673ffffffffffffffffffffffffffffffffffffffff16815260200190815260200160002060010160009054906101000a900473ffffffffffffffffffffffffffffffffffffffff1673ffffffffffffffffffffffffffffffffffffffff161461334157600260008573ffffffffffffffffffffffffffffffffffffffff1673ffffffffffffffffffffffffffffffffffffffff16815260200190815260200160002060010160009054906101000a900473ffffffffffffffffffffffffffffffffffffffff1690505b61335781600185613352919061492d565b61313b565b9150505b92915050565b6040518060e00160405280600015158152602001600015158152602001600073ffffffffffffffffffffffffffffffffffffffff168152602001600073ffffffffffffffffffffffffffffffffffffffff1681526020016000815260200160008152602001606081525090565b600080fd5b6000819050919050565b6133e6816133d3565b81146133f157600080fd5b50565b600081359050613403816133dd565b92915050565b60006020828403121561341f5761341e6133ce565b5b600061342d848285016133f4565b91505092915050565b600073ffffffffffffffffffffffffffffffffffffffff82169050919050565b600061346182613436565b9050919050565b61347181613456565b811461347c57600080fd5b50565b60008135905061348e81613468565b92915050565b600080600080600060a086880312156134b0576134af6133ce565b5b60006134be8882890161347f565b95505060206134cf8882890161347f565b94505060406134e08882890161347f565b93505060606134f18882890161347f565b92505060806135028882890161347f565b9150509295509295909350565b600060208284031215613525576135246133ce565b5b60006135338482850161347f565b91505092915050565b60008115159050919050565b6135518161353c565b82525050565b61356081613456565b82525050565b61356f816133d3565b82525050565b600060c08201905061358a6000830189613548565b6135976020830188613548565b6135a46040830187613557565b6135b16060830186613557565b6135be6080830185613566565b6135cb60a0830184613566565b979650505050505050565b60006020820190506135eb6000830184613566565b92915050565b60006020820190506136066000830184613557565b92915050565b600081519050919050565b600082825260208201905092915050565b6000819050602082019050919050565b61364181613456565b82525050565b613650816133d3565b82525050565b60608201600082015161366c6000850182613638565b50602082015161367f6020850182613647565b5060408201516136926040850182613647565b50505050565b60006136a48383613656565b60608301905092915050565b6000602082019050919050565b60006136c88261360c565b6136d28185613617565b93506136dd83613628565b8060005b8381101561370e5781516136f58882613698565b9750613700836136b0565b9250506001810190506136e1565b5085935050505092915050565b6000602082019050818103600083015261373581846136bd565b905092915050565b600060ff82169050919050565b6137538161373d565b811461375e57600080fd5b50565b6000813590506137708161374a565b92915050565b60006020828403121561378c5761378b6133ce565b5b600061379a84828501613761565b91505092915050565b600080604083850312156137ba576137b96133ce565b5b60006137c88582860161347f565b92505060206137d9858286016133f4565b9150509250929050565b6137ec8161373d565b82525050565b600060208201905061380760008301846137e3565b92915050565b600080600060608486031215613826576138256133ce565b5b60006138348682870161347f565b93505060206138458682870161347f565b92505060406138568682870161347f565b9150509250925092565b6138698161353c565b82525050565b600081519050919050565b600082825260208201905092915050565b6000819050602082019050919050565b60006138a78383613638565b60208301905092915050565b6000602082019050919050565b60006138cb8261386f565b6138d5818561387a565b93506138e08361388b565b8060005b838110156139115781516138f8888261389b565b9750613903836138b3565b9250506001810190506138e4565b5085935050505092915050565b600060e0830160008301516139366000860182613860565b5060208301516139496020860182613860565b50604083015161395c6040860182613638565b50606083015161396f6060860182613638565b5060808301516139826080860182613647565b5060a083015161399560a0860182613647565b5060c083015184820360c08601526139ad82826138c0565b9150508091505092915050565b600060208201905081810360008301526139d4818461391e565b905092915050565b600081519050919050565b600082825260208201905092915050565b6000819050602082019050919050565b7f4e487b7100000000000000000000000000000000000000000000000000000000600052602160045260246000fd5b60038110613a4857613a47613a08565b5b50565b6000819050613a5982613a37565b919050565b6000613a6982613a4b565b9050919050565b613a7981613a5e565b82525050565b608082016000820151613a956000850182613638565b506020820151613aa86020850182613647565b506040820151613abb6040850182613647565b506060820151613ace6060850182613a70565b50505050565b6000613ae08383613a7f565b60808301905092915050565b6000602082019050919050565b6000613b04826139dc565b613b0e81856139e7565b9350613b19836139f8565b8060005b83811015613b4a578151613b318882613ad4565b9750613b3c83613aec565b925050600181019050613b1d565b5085935050505092915050565b60006020820190508181036000830152613b718184613af9565b905092915050565b600082825260208201905092915050565b7f4d656d626572736869703a43616c6c6572206973206e6f74206f776e65720000600082015250565b6000613bc0601e83613b79565b9150613bcb82613b8a565b602082019050919050565b60006020820190508181036000830152613bef81613bb3565b9050919050565b7f4d656d626572736869703a54686520696e7669746174696f6e2061646472657360008201527f73206d75737420626520626f756e640000000000000000000000000000000000602082015250565b6000613c52602f83613b79565b9150613c5d82613bf6565b604082019050919050565b60006020820190508181036000830152613c8181613c45565b9050919050565b7f4d656d626572736869703a4475706c696361746520706172746963697061746960008201527f6f6e206973206e6f7420616c6c6f776564000000000000000000000000000000602082015250565b6000613ce4603183613b79565b9150613cef82613c88565b604082019050919050565b60006020820190508181036000830152613d1381613cd7565b9050919050565b7f4d656d626572736869703a496e76616c6964206f70657261746f720000000000600082015250565b6000613d50601b83613b79565b9150613d5b82613d1a565b602082019050919050565b60006020820190508181036000830152613d7f81613d43565b9050919050565b7f4d656d626572736869703a496e76616c69642070757263686173696e6720616d60008201527f6f756e7400000000000000000000000000000000000000000000000000000000602082015250565b6000613de2602483613b79565b9150613ded82613d86565b604082019050919050565b60006020820190508181036000830152613e1181613dd5565b9050919050565b7f4e487b7100000000000000000000000000000000000000000000000000000000600052601160045260246000fd5b6000613e52826133d3565b9150613e5d836133d3565b9250828202613e6b816133d3565b91508282048414831517613e8257613e81613e18565b5b5092915050565b7f4e487b7100000000000000000000000000000000000000000000000000000000600052601260045260246000fd5b6000613ec3826133d3565b9150613ece836133d3565b925082613ede57613edd613e89565b5b828204905092915050565b6000613ef4826133d3565b9150613eff836133d3565b9250828203905081811115613f1757613f16613e18565b5b92915050565b7f4d656d626572736869703a5a65726f20696e697469616c206164647265737300600082015250565b6000613f53601f83613b79565b9150613f5e82613f1d565b602082019050919050565b60006020820190508181036000830152613f8281613f46565b9050919050565b7f4d656d626572736869703a4e6f7420656c696769626c65000000000000000000600082015250565b6000613fbf601783613b79565b9150613fca82613f89565b602082019050919050565b60006020820190508181036000830152613fee81613fb2565b9050919050565b7f4d656d626572736869703a4f6e6c792076697000000000000000000000000000600082015250565b600061402b601383613b79565b915061403682613ff5565b602082019050919050565b6000602082019050818103600083015261405a8161401e565b9050919050565b7f4d656d626572736869703a4f6e6c79206f6e6365000000000000000000000000600082015250565b6000614097601483613b79565b91506140a282614061565b602082019050919050565b600060208201905081810360008301526140c68161408a565b9050919050565b7f4d656d626572736869703a496e76616c696420636c61696d20616d6f756e7400600082015250565b6000614103601f83613b79565b915061410e826140cd565b602082019050919050565b60006020820190508181036000830152614132816140f6565b9050919050565b600060408201905061414e6000830185613557565b61415b6020830184613566565b9392505050565b600081519050919050565b600081905092915050565b60005b8381101561419657808201518184015260208101905061417b565b60008484015250505050565b60006141ad82614162565b6141b7818561416d565b93506141c7818560208601614178565b80840191505092915050565b60006141df82846141a2565b915081905092915050565b6141f38161353c565b81146141fe57600080fd5b50565b600081519050614210816141ea565b92915050565b60006020828403121561422c5761422b6133ce565b5b600061423a84828501614201565b91505092915050565b7f5472616e7366657248656c7065723a205452414e534645525f4641494c454400600082015250565b6000614279601f83613b79565b915061428482614243565b602082019050919050565b600060208201905081810360008301526142a88161426c565b9050919050565b60006dffffffffffffffffffffffffffff82169050919050565b6142d2816142af565b81146142dd57600080fd5b50565b6000815190506142ef816142c9565b92915050565b600063ffffffff82169050919050565b61430e816142f5565b811461431957600080fd5b50565b60008151905061432b81614305565b92915050565b60008060006060848603121561434a576143496133ce565b5b6000614358868287016142e0565b9350506020614369868287016142e0565b925050604061437a8682870161431c565b9150509250925092565b7f556e697377617056324c6962726172793a20494e53554646494349454e545f4960008201527f4e5055545f414d4f554e54000000000000000000000000000000000000000000602082015250565b60006143e0602b83613b79565b91506143eb82614384565b604082019050919050565b6000602082019050818103600083015261440f816143d3565b9050919050565b7f556e697377617056324c6962726172793a20494e53554646494349454e545f4c60008201527f4951554944495459000000000000000000000000000000000000000000000000602082015250565b6000614472602883613b79565b915061447d82614416565b604082019050919050565b600060208201905081810360008301526144a181614465565b9050919050565b60006060820190506144bd6000830186613557565b6144ca6020830185613557565b6144d76040830184613566565b949350505050565b7f5472616e7366657248656c7065723a205452414e534645525f46524f4d5f464160008201527f494c454400000000000000000000000000000000000000000000000000000000602082015250565b600061453b602483613b79565b9150614546826144df565b604082019050919050565b6000602082019050818103600083015261456a8161452e565b9050919050565b600061457c826133d3565b9150614587836133d3565b925082820190508082111561459f5761459e613e18565b5b92915050565b7f4e487b7100000000000000000000000000000000000000000000000000000000600052603260045260246000fd5b7f556e697377617056324c6962726172793a204944454e544943414c5f4144445260008201527f4553534553000000000000000000000000000000000000000000000000000000602082015250565b6000614630602583613b79565b915061463b826145d4565b604082019050919050565b6000602082019050818103600083015261465f81614623565b9050919050565b7f556e697377617056324c6962726172793a205a45524f5f414444524553530000600082015250565b600061469c601e83613b79565b91506146a782614666565b602082019050919050565b600060208201905081810360008301526146cb8161468f565b9050919050565b60008160601b9050919050565b60006146ea826146d2565b9050919050565b60006146fc826146df565b9050919050565b61471461470f82613456565b6146f1565b82525050565b60006147268285614703565b6014820191506147368284614703565b6014820191508190509392505050565b600081905092915050565b7fff00000000000000000000000000000000000000000000000000000000000000600082015250565b6000614787600183614746565b915061479282614751565b600182019050919050565b6000819050919050565b6000819050919050565b6147c26147bd8261479d565b6147a7565b82525050565b7efb7f630766e6a796048ea87d01acd3068e8ff67d078148a3fa3f4a84f69bd5600082015250565b60006147fd602083614746565b9150614808826147c8565b602082019050919050565b600061481e8261477a565b915061482a8285614703565b60148201915061483a82846147b1565b602082019150614849826147f0565b91508190509392505050565b7f64732d6d6174682d6d756c2d6f766572666c6f77000000000000000000000000600082015250565b600061488b601483613b79565b915061489682614855565b602082019050919050565b600060208201905081810360008301526148ba8161487e565b9050919050565b7f64732d6d6174682d6164642d6f766572666c6f77000000000000000000000000600082015250565b60006148f7601483613b79565b9150614902826148c1565b602082019050919050565b60006020820190508181036000830152614926816148ea565b9050919050565b60006149388261373d565b91506149438361373d565b9250828203905060ff81111561495c5761495b613e18565b5b9291505056fea264697066735822122097fd5dbecedd82b7f14a2c25679cc54a3981345f8bd0578b071b3b473b64b11764736f6c63430008120033",
					"opcodes": "PUSH1 0x80 PUSH1 0x40 MSTORE CALLVALUE DUP1 ISZERO PUSH2 0x10 JUMPI PUSH1 0x0 DUP1 REVERT JUMPDEST POP CALLER PUSH1 0x0 DUP1 PUSH2 0x100 EXP DUP2 SLOAD DUP2 PUSH20 0xFFFFFFFFFFFFFFFFFFFFFFFFFFFFFFFFFFFFFFFF MUL NOT AND SWAP1 DUP4 PUSH20 0xFFFFFFFFFFFFFFFFFFFFFFFFFFFFFFFFFFFFFFFF AND MUL OR SWAP1 SSTORE POP PUSH2 0x4998 DUP1 PUSH2 0x60 PUSH1 0x0 CODECOPY PUSH1 0x0 RETURN INVALID PUSH1 0x80 PUSH1 0x40 MSTORE CALLVALUE DUP1 ISZERO PUSH2 0x10 JUMPI PUSH1 0x0 DUP1 REVERT JUMPDEST POP PUSH1 0x4 CALLDATASIZE LT PUSH2 0x173 JUMPI PUSH1 0x0 CALLDATALOAD PUSH1 0xE0 SHR DUP1 PUSH4 0x59D0F713 GT PUSH2 0xDE JUMPI DUP1 PUSH4 0x7A8AF562 GT PUSH2 0x97 JUMPI DUP1 PUSH4 0xAAD3EC96 GT PUSH2 0x71 JUMPI DUP1 PUSH4 0xAAD3EC96 EQ PUSH2 0x419 JUMPI DUP1 PUSH4 0xF48AA84F EQ PUSH2 0x435 JUMPI DUP1 PUSH4 0xF851A440 EQ PUSH2 0x465 JUMPI DUP1 PUSH4 0xFC0C546A EQ PUSH2 0x483 JUMPI PUSH2 0x173 JUMP JUMPDEST DUP1 PUSH4 0x7A8AF562 EQ PUSH2 0x3C3 JUMPI DUP1 PUSH4 0x81BAC14F EQ PUSH2 0x3DF JUMPI DUP1 PUSH4 0x9E0060AA EQ PUSH2 0x3FB JUMPI PUSH2 0x173 JUMP JUMPDEST DUP1 PUSH4 0x59D0F713 EQ PUSH2 0x301 JUMPI DUP1 PUSH4 0x5C60DA1B EQ PUSH2 0x31F JUMPI DUP1 PUSH4 0x60FE4483 EQ PUSH2 0x33D JUMPI DUP1 PUSH4 0x6386C1C7 EQ PUSH2 0x359 JUMPI DUP1 PUSH4 0x6A7F7477 EQ PUSH2 0x389 JUMPI DUP1 PUSH4 0x704B6C02 EQ PUSH2 0x3A7 JUMPI PUSH2 0x173 JUMP JUMPDEST DUP1 PUSH4 0x32870577 GT PUSH2 0x130 JUMPI DUP1 PUSH4 0x32870577 EQ PUSH2 0x251 JUMPI DUP1 PUSH4 0x3EC9EF2E EQ PUSH2 0x26D JUMPI DUP1 PUSH4 0x46E6DFE7 EQ PUSH2 0x289 JUMPI DUP1 PUSH4 0x4E377201 EQ PUSH2 0x2A7 JUMPI DUP1 PUSH4 0x5636F6BA EQ PUSH2 0x2C5 JUMPI DUP1 PUSH4 0x57B2351D EQ PUSH2 0x2E3 JUMPI PUSH2 0x173 JUMP JUMPDEST DUP1 PUSH4 0x667AFE2 EQ PUSH2 0x178 JUMPI DUP1 PUSH4 0x1459457A EQ PUSH2 0x194 JUMPI DUP1 PUSH4 0x1959A002 EQ PUSH2 0x1B0 JUMPI DUP1 PUSH4 0x1EFBA6C2 EQ PUSH2 0x1E5 JUMPI DUP1 PUSH4 0x2F48AB7D EQ PUSH2 0x203 JUMPI DUP1 PUSH4 0x30BE0CD9 EQ PUSH2 0x221 JUMPI JUMPDEST PUSH1 0x0 DUP1 REVERT JUMPDEST PUSH2 0x192 PUSH1 0x4 DUP1 CALLDATASIZE SUB DUP2 ADD SWAP1 PUSH2 0x18D SWAP2 SWAP1 PUSH2 0x3409 JUMP JUMPDEST PUSH2 0x4A1 JUMP JUMPDEST STOP JUMPDEST PUSH2 0x1AE PUSH1 0x4 DUP1 CALLDATASIZE SUB DUP2 ADD SWAP1 PUSH2 0x1A9 SWAP2 SWAP1 PUSH2 0x3494 JUMP JUMPDEST PUSH2 0x539 JUMP JUMPDEST STOP JUMPDEST PUSH2 0x1CA PUSH1 0x4 DUP1 CALLDATASIZE SUB DUP2 ADD SWAP1 PUSH2 0x1C5 SWAP2 SWAP1 PUSH2 0x350F JUMP JUMPDEST PUSH2 0x7E9 JUMP JUMPDEST PUSH1 0x40 MLOAD PUSH2 0x1DC SWAP7 SWAP6 SWAP5 SWAP4 SWAP3 SWAP2 SWAP1 PUSH2 0x3575 JUMP JUMPDEST PUSH1 0x40 MLOAD DUP1 SWAP2 SUB SWAP1 RETURN JUMPDEST PUSH2 0x1ED PUSH2 0x87F JUMP JUMPDEST PUSH1 0x40 MLOAD PUSH2 0x1FA SWAP2 SWAP1 PUSH2 0x35D6 JUMP JUMPDEST PUSH1 0x40 MLOAD DUP1 SWAP2 SUB SWAP1 RETURN JUMPDEST PUSH2 0x20B PUSH2 0x885 JUMP JUMPDEST PUSH1 0x40 MLOAD PUSH2 0x218 SWAP2 SWAP1 PUSH2 0x35F1 JUMP JUMPDEST PUSH1 0x40 MLOAD DUP1 SWAP2 SUB SWAP1 RETURN JUMPDEST PUSH2 0x23B PUSH1 0x4 DUP1 CALLDATASIZE SUB DUP2 ADD SWAP1 PUSH2 0x236 SWAP2 SWAP1 PUSH2 0x350F JUMP JUMPDEST PUSH2 0x8AB JUMP JUMPDEST PUSH1 0x40 MLOAD PUSH2 0x248 SWAP2 SWAP1 PUSH2 0x371B JUMP JUMPDEST PUSH1 0x40 MLOAD DUP1 SWAP2 SUB SWAP1 RETURN JUMPDEST PUSH2 0x26B PUSH1 0x4 DUP1 CALLDATASIZE SUB DUP2 ADD SWAP1 PUSH2 0x266 SWAP2 SWAP1 PUSH2 0x3776 JUMP JUMPDEST PUSH2 0x9B3 JUMP JUMPDEST STOP JUMPDEST PUSH2 0x287 PUSH1 0x4 DUP1 CALLDATASIZE SUB DUP2 ADD SWAP1 PUSH2 0x282 SWAP2 SWAP1 PUSH2 0x37A3 JUMP JUMPDEST PUSH2 0xA5F JUMP JUMPDEST STOP JUMPDEST PUSH2 0x291 PUSH2 0xB1E JUMP JUMPDEST PUSH1 0x40 MLOAD PUSH2 0x29E SWAP2 SWAP1 PUSH2 0x37F2 JUMP JUMPDEST PUSH1 0x40 MLOAD DUP1 SWAP2 SUB SWAP1 RETURN JUMPDEST PUSH2 0x2AF PUSH2 0xB31 JUMP JUMPDEST PUSH1 0x40 MLOAD PUSH2 0x2BC SWAP2 SWAP1 PUSH2 0x35F1 JUMP JUMPDEST PUSH1 0x40 MLOAD DUP1 SWAP2 SUB SWAP1 RETURN JUMPDEST PUSH2 0x2CD PUSH2 0xB57 JUMP JUMPDEST PUSH1 0x40 MLOAD PUSH2 0x2DA SWAP2 SWAP1 PUSH2 0x35F1 JUMP JUMPDEST PUSH1 0x40 MLOAD DUP1 SWAP2 SUB SWAP1 RETURN JUMPDEST PUSH2 0x2EB PUSH2 0xB7D JUMP JUMPDEST PUSH1 0x40 MLOAD PUSH2 0x2F8 SWAP2 SWAP1 PUSH2 0x35D6 JUMP JUMPDEST PUSH1 0x40 MLOAD DUP1 SWAP2 SUB SWAP1 RETURN JUMPDEST PUSH2 0x309 PUSH2 0xC0B JUMP JUMPDEST PUSH1 0x40 MLOAD PUSH2 0x316 SWAP2 SWAP1 PUSH2 0x35F1 JUMP JUMPDEST PUSH1 0x40 MLOAD DUP1 SWAP2 SUB SWAP1 RETURN JUMPDEST PUSH2 0x327 PUSH2 0xC31 JUMP JUMPDEST PUSH1 0x40 MLOAD PUSH2 0x334 SWAP2 SWAP1 PUSH2 0x35F1 JUMP JUMPDEST PUSH1 0x40 MLOAD DUP1 SWAP2 SUB SWAP1 RETURN JUMPDEST PUSH2 0x357 PUSH1 0x4 DUP1 CALLDATASIZE SUB DUP2 ADD SWAP1 PUSH2 0x352 SWAP2 SWAP1 PUSH2 0x380D JUMP JUMPDEST PUSH2 0xC57 JUMP JUMPDEST STOP JUMPDEST PUSH2 0x373 PUSH1 0x4 DUP1 CALLDATASIZE SUB DUP2 ADD SWAP1 PUSH2 0x36E SWAP2 SWAP1 PUSH2 0x350F JUMP JUMPDEST PUSH2 0xDAD JUMP JUMPDEST PUSH1 0x40 MLOAD PUSH2 0x380 SWAP2 SWAP1 PUSH2 0x39BA JUMP JUMPDEST PUSH1 0x40 MLOAD DUP1 SWAP2 SUB SWAP1 RETURN JUMPDEST PUSH2 0x391 PUSH2 0xF8A JUMP JUMPDEST PUSH1 0x40 MLOAD PUSH2 0x39E SWAP2 SWAP1 PUSH2 0x35F1 JUMP JUMPDEST PUSH1 0x40 MLOAD DUP1 SWAP2 SUB SWAP1 RETURN JUMPDEST PUSH2 0x3C1 PUSH1 0x4 DUP1 CALLDATASIZE SUB DUP2 ADD SWAP1 PUSH2 0x3BC SWAP2 SWAP1 PUSH2 0x350F JUMP JUMPDEST PUSH2 0xFB0 JUMP JUMPDEST STOP JUMPDEST PUSH2 0x3DD PUSH1 0x4 DUP1 CALLDATASIZE SUB DUP2 ADD SWAP1 PUSH2 0x3D8 SWAP2 SWAP1 PUSH2 0x350F JUMP JUMPDEST PUSH2 0x1081 JUMP JUMPDEST STOP JUMPDEST PUSH2 0x3F9 PUSH1 0x4 DUP1 CALLDATASIZE SUB DUP2 ADD SWAP1 PUSH2 0x3F4 SWAP2 SWAP1 PUSH2 0x350F JUMP JUMPDEST PUSH2 0x142B JUMP JUMPDEST STOP JUMPDEST PUSH2 0x403 PUSH2 0x18B4 JUMP JUMPDEST PUSH1 0x40 MLOAD PUSH2 0x410 SWAP2 SWAP1 PUSH2 0x35F1 JUMP JUMPDEST PUSH1 0x40 MLOAD DUP1 SWAP2 SUB SWAP1 RETURN JUMPDEST PUSH2 0x433 PUSH1 0x4 DUP1 CALLDATASIZE SUB DUP2 ADD SWAP1 PUSH2 0x42E SWAP2 SWAP1 PUSH2 0x37A3 JUMP JUMPDEST PUSH2 0x18DA JUMP JUMPDEST STOP JUMPDEST PUSH2 0x44F PUSH1 0x4 DUP1 CALLDATASIZE SUB DUP2 ADD SWAP1 PUSH2 0x44A SWAP2 SWAP1 PUSH2 0x350F JUMP JUMPDEST PUSH2 0x1ADF JUMP JUMPDEST PUSH1 0x40 MLOAD PUSH2 0x45C SWAP2 SWAP1 PUSH2 0x3B57 JUMP JUMPDEST PUSH1 0x40 MLOAD DUP1 SWAP2 SUB SWAP1 RETURN JUMPDEST PUSH2 0x46D PUSH2 0x1C22 JUMP JUMPDEST PUSH1 0x40 MLOAD PUSH2 0x47A SWAP2 SWAP1 PUSH2 0x35F1 JUMP JUMPDEST PUSH1 0x40 MLOAD DUP1 SWAP2 SUB SWAP1 RETURN JUMPDEST PUSH2 0x48B PUSH2 0x1C46 JUMP JUMPDEST PUSH1 0x40 MLOAD PUSH2 0x498 SWAP2 SWAP1 PUSH2 0x35F1 JUMP JUMPDEST PUSH1 0x40 MLOAD DUP1 SWAP2 SUB SWAP1 RETURN JUMPDEST CALLER PUSH20 0xFFFFFFFFFFFFFFFFFFFFFFFFFFFFFFFFFFFFFFFF AND PUSH1 0x0 DUP1 SLOAD SWAP1 PUSH2 0x100 EXP SWAP1 DIV PUSH20 0xFFFFFFFFFFFFFFFFFFFFFFFFFFFFFFFFFFFFFFFF AND PUSH20 0xFFFFFFFFFFFFFFFFFFFFFFFFFFFFFFFFFFFFFFFF AND EQ PUSH2 0x52F JUMPI PUSH1 0x40 MLOAD PUSH32 0x8C379A000000000000000000000000000000000000000000000000000000000 DUP2 MSTORE PUSH1 0x4 ADD PUSH2 0x526 SWAP1 PUSH2 0x3BD6 JUMP JUMPDEST PUSH1 0x40 MLOAD DUP1 SWAP2 SUB SWAP1 REVERT JUMPDEST DUP1 PUSH1 0xC DUP2 SWAP1 SSTORE POP POP JUMP JUMPDEST CALLER PUSH20 0xFFFFFFFFFFFFFFFFFFFFFFFFFFFFFFFFFFFFFFFF AND PUSH1 0x0 DUP1 SLOAD SWAP1 PUSH2 0x100 EXP SWAP1 DIV PUSH20 0xFFFFFFFFFFFFFFFFFFFFFFFFFFFFFFFFFFFFFFFF AND PUSH20 0xFFFFFFFFFFFFFFFFFFFFFFFFFFFFFFFFFFFFFFFF AND EQ PUSH2 0x5C7 JUMPI PUSH1 0x40 MLOAD PUSH32 0x8C379A000000000000000000000000000000000000000000000000000000000 DUP2 MSTORE PUSH1 0x4 ADD PUSH2 0x5BE SWAP1 PUSH2 0x3BD6 JUMP JUMPDEST PUSH1 0x40 MLOAD DUP1 SWAP2 SUB SWAP1 REVERT JUMPDEST DUP4 PUSH1 0x5 PUSH1 0x0 PUSH2 0x100 EXP DUP2 SLOAD DUP2 PUSH20 0xFFFFFFFFFFFFFFFFFFFFFFFFFFFFFFFFFFFFFFFF MUL NOT AND SWAP1 DUP4 PUSH20 0xFFFFFFFFFFFFFFFFFFFFFFFFFFFFFFFFFFFFFFFF AND MUL OR SWAP1 SSTORE POP PUSH20 0xCA143CE32FE78F1F7019D7D551A6402FC5350C73 PUSH1 0x6 PUSH1 0x0 PUSH2 0x100 EXP DUP2 SLOAD DUP2 PUSH20 0xFFFFFFFFFFFFFFFFFFFFFFFFFFFFFFFFFFFFFFFF MUL NOT AND SWAP1 DUP4 PUSH20 0xFFFFFFFFFFFFFFFFFFFFFFFFFFFFFFFFFFFFFFFF AND MUL OR SWAP1 SSTORE POP DUP5 PUSH1 0x7 PUSH1 0x0 PUSH2 0x100 EXP DUP2 SLOAD DUP2 PUSH20 0xFFFFFFFFFFFFFFFFFFFFFFFFFFFFFFFFFFFFFFFF MUL NOT AND SWAP1 DUP4 PUSH20 0xFFFFFFFFFFFFFFFFFFFFFFFFFFFFFFFFFFFFFFFF AND MUL OR SWAP1 SSTORE POP PUSH20 0x55D398326F99059FF775485246999027B3197955 PUSH1 0x8 PUSH1 0x0 PUSH2 0x100 EXP DUP2 SLOAD DUP2 PUSH20 0xFFFFFFFFFFFFFFFFFFFFFFFFFFFFFFFFFFFFFFFF MUL NOT AND SWAP1 DUP4 PUSH20 0xFFFFFFFFFFFFFFFFFFFFFFFFFFFFFFFFFFFFFFFF AND MUL OR SWAP1 SSTORE POP DUP2 PUSH1 0xA PUSH1 0x0 PUSH2 0x100 EXP DUP2 SLOAD DUP2 PUSH20 0xFFFFFFFFFFFFFFFFFFFFFFFFFFFFFFFFFFFFFFFF MUL NOT AND SWAP1 DUP4 PUSH20 0xFFFFFFFFFFFFFFFFFFFFFFFFFFFFFFFFFFFFFFFF AND MUL OR SWAP1 SSTORE POP DUP3 PUSH1 0xB PUSH1 0x0 PUSH2 0x100 EXP DUP2 SLOAD DUP2 PUSH20 0xFFFFFFFFFFFFFFFFFFFFFFFFFFFFFFFFFFFFFFFF MUL NOT AND SWAP1 DUP4 PUSH20 0xFFFFFFFFFFFFFFFFFFFFFFFFFFFFFFFFFFFFFFFF AND MUL OR SWAP1 SSTORE POP DUP1 PUSH1 0x9 PUSH1 0x0 PUSH2 0x100 EXP DUP2 SLOAD DUP2 PUSH20 0xFFFFFFFFFFFFFFFFFFFFFFFFFFFFFFFFFFFFFFFF MUL NOT AND SWAP1 DUP4 PUSH20 0xFFFFFFFFFFFFFFFFFFFFFFFFFFFFFFFFFFFFFFFF AND MUL OR SWAP1 SSTORE POP PUSH9 0x1B1AE4D6E2EF500000 PUSH1 0xC DUP2 SWAP1 SSTORE POP PUSH1 0x1E PUSH1 0xD PUSH1 0x0 PUSH2 0x100 EXP DUP2 SLOAD DUP2 PUSH1 0xFF MUL NOT AND SWAP1 DUP4 PUSH1 0xFF AND MUL OR SWAP1 SSTORE POP POP POP POP POP POP JUMP JUMPDEST PUSH1 0x2 PUSH1 0x20 MSTORE DUP1 PUSH1 0x0 MSTORE PUSH1 0x40 PUSH1 0x0 KECCAK256 PUSH1 0x0 SWAP2 POP SWAP1 POP DUP1 PUSH1 0x0 ADD PUSH1 0x0 SWAP1 SLOAD SWAP1 PUSH2 0x100 EXP SWAP1 DIV PUSH1 0xFF AND SWAP1 DUP1 PUSH1 0x0 ADD PUSH1 0x1 SWAP1 SLOAD SWAP1 PUSH2 0x100 EXP SWAP1 DIV PUSH1 0xFF AND SWAP1 DUP1 PUSH1 0x0 ADD PUSH1 0x2 SWAP1 SLOAD SWAP1 PUSH2 0x100 EXP SWAP1 DIV PUSH20 0xFFFFFFFFFFFFFFFFFFFFFFFFFFFFFFFFFFFFFFFF AND SWAP1 DUP1 PUSH1 0x1 ADD PUSH1 0x0 SWAP1 SLOAD SWAP1 PUSH2 0x100 EXP SWAP1 DIV PUSH20 0xFFFFFFFFFFFFFFFFFFFFFFFFFFFFFFFFFFFFFFFF AND SWAP1 DUP1 PUSH1 0x2 ADD SLOAD SWAP1 DUP1 PUSH1 0x3 ADD SLOAD SWAP1 POP DUP7 JUMP JUMPDEST PUSH1 0xC SLOAD DUP2 JUMP JUMPDEST PUSH1 0x8 PUSH1 0x0 SWAP1 SLOAD SWAP1 PUSH2 0x100 EXP SWAP1 DIV PUSH20 0xFFFFFFFFFFFFFFFFFFFFFFFFFFFFFFFFFFFFFFFF AND DUP2 JUMP JUMPDEST PUSH1 0x60 PUSH1 0x4 PUSH1 0x0 DUP4 PUSH20 0xFFFFFFFFFFFFFFFFFFFFFFFFFFFFFFFFFFFFFFFF AND PUSH20 0xFFFFFFFFFFFFFFFFFFFFFFFFFFFFFFFFFFFFFFFF AND DUP2 MSTORE PUSH1 0x20 ADD SWAP1 DUP2 MSTORE PUSH1 0x20 ADD PUSH1 0x0 KECCAK256 DUP1 SLOAD DUP1 PUSH1 0x20 MUL PUSH1 0x20 ADD PUSH1 0x40 MLOAD SWAP1 DUP2 ADD PUSH1 0x40 MSTORE DUP1 SWAP3 SWAP2 SWAP1 DUP2 DUP2 MSTORE PUSH1 0x20 ADD PUSH1 0x0 SWAP1 JUMPDEST DUP3 DUP3 LT ISZERO PUSH2 0x9A8 JUMPI DUP4 DUP3 SWAP1 PUSH1 0x0 MSTORE PUSH1 0x20 PUSH1 0x0 KECCAK256 SWAP1 PUSH1 0x3 MUL ADD PUSH1 0x40 MLOAD DUP1 PUSH1 0x60 ADD PUSH1 0x40 MSTORE SWAP1 DUP2 PUSH1 0x0 DUP3 ADD PUSH1 0x0 SWAP1 SLOAD SWAP1 PUSH2 0x100 EXP SWAP1 DIV PUSH20 0xFFFFFFFFFFFFFFFFFFFFFFFFFFFFFFFFFFFFFFFF AND PUSH20 0xFFFFFFFFFFFFFFFFFFFFFFFFFFFFFFFFFFFFFFFF AND PUSH20 0xFFFFFFFFFFFFFFFFFFFFFFFFFFFFFFFFFFFFFFFF AND DUP2 MSTORE PUSH1 0x20 ADD PUSH1 0x1 DUP3 ADD SLOAD DUP2 MSTORE PUSH1 0x20 ADD PUSH1 0x2 DUP3 ADD SLOAD DUP2 MSTORE POP POP DUP2 MSTORE PUSH1 0x20 ADD SWAP1 PUSH1 0x1 ADD SWAP1 PUSH2 0x90C JUMP JUMPDEST POP POP POP POP SWAP1 POP SWAP2 SWAP1 POP JUMP JUMPDEST CALLER PUSH20 0xFFFFFFFFFFFFFFFFFFFFFFFFFFFFFFFFFFFFFFFF AND PUSH1 0x0 DUP1 SLOAD SWAP1 PUSH2 0x100 EXP SWAP1 DIV PUSH20 0xFFFFFFFFFFFFFFFFFFFFFFFFFFFFFFFFFFFFFFFF AND PUSH20 0xFFFFFFFFFFFFFFFFFFFFFFFFFFFFFFFFFFFFFFFF AND EQ PUSH2 0xA41 JUMPI PUSH1 0x40 MLOAD PUSH32 0x8C379A000000000000000000000000000000000000000000000000000000000 DUP2 MSTORE PUSH1 0x4 ADD PUSH2 0xA38 SWAP1 PUSH2 0x3BD6 JUMP JUMPDEST PUSH1 0x40 MLOAD DUP1 SWAP2 SUB SWAP1 REVERT JUMPDEST DUP1 PUSH1 0xD PUSH1 0x0 PUSH2 0x100 EXP DUP2 SLOAD DUP2 PUSH1 0xFF MUL NOT AND SWAP1 DUP4 PUSH1 0xFF AND MUL OR SWAP1 SSTORE POP POP JUMP JUMPDEST CALLER PUSH20 0xFFFFFFFFFFFFFFFFFFFFFFFFFFFFFFFFFFFFFFFF AND PUSH1 0x0 DUP1 SLOAD SWAP1 PUSH2 0x100 EXP SWAP1 DIV PUSH20 0xFFFFFFFFFFFFFFFFFFFFFFFFFFFFFFFFFFFFFFFF AND PUSH20 0xFFFFFFFFFFFFFFFFFFFFFFFFFFFFFFFFFFFFFFFF AND EQ PUSH2 0xAED JUMPI PUSH1 0x40 MLOAD PUSH32 0x8C379A000000000000000000000000000000000000000000000000000000000 DUP2 MSTORE PUSH1 0x4 ADD PUSH2 0xAE4 SWAP1 PUSH2 0x3BD6 JUMP JUMPDEST PUSH1 0x40 MLOAD DUP1 SWAP2 SUB SWAP1 REVERT JUMPDEST PUSH2 0xB1A PUSH1 0x7 PUSH1 0x0 SWAP1 SLOAD SWAP1 PUSH2 0x100 EXP SWAP1 DIV PUSH20 0xFFFFFFFFFFFFFFFFFFFFFFFFFFFFFFFFFFFFFFFF AND DUP4 DUP4 PUSH2 0x1C6C JUMP JUMPDEST POP POP JUMP JUMPDEST PUSH1 0xD PUSH1 0x0 SWAP1 SLOAD SWAP1 PUSH2 0x100 EXP SWAP1 DIV PUSH1 0xFF AND DUP2 JUMP JUMPDEST PUSH1 0x5 PUSH1 0x0 SWAP1 SLOAD SWAP1 PUSH2 0x100 EXP SWAP1 DIV PUSH20 0xFFFFFFFFFFFFFFFFFFFFFFFFFFFFFFFFFFFFFFFF AND DUP2 JUMP JUMPDEST PUSH1 0xA PUSH1 0x0 SWAP1 SLOAD SWAP1 PUSH2 0x100 EXP SWAP1 DIV PUSH20 0xFFFFFFFFFFFFFFFFFFFFFFFFFFFFFFFFFFFFFFFF AND DUP2 JUMP JUMPDEST PUSH1 0x0 DUP1 PUSH1 0x0 PUSH2 0xBF3 PUSH1 0x6 PUSH1 0x0 SWAP1 SLOAD SWAP1 PUSH2 0x100 EXP SWAP1 DIV PUSH20 0xFFFFFFFFFFFFFFFFFFFFFFFFFFFFFFFFFFFFFFFF AND PUSH1 0x8 PUSH1 0x0 SWAP1 SLOAD SWAP1 PUSH2 0x100 EXP SWAP1 DIV PUSH20 0xFFFFFFFFFFFFFFFFFFFFFFFFFFFFFFFFFFFFFFFF AND PUSH1 0x7 PUSH1 0x0 SWAP1 SLOAD SWAP1 PUSH2 0x100 EXP SWAP1 DIV PUSH20 0xFFFFFFFFFFFFFFFFFFFFFFFFFFFFFFFFFFFFFFFF AND PUSH2 0x1DA2 JUMP JUMPDEST SWAP2 POP SWAP2 POP PUSH2 0xC04 PUSH1 0xC SLOAD DUP4 DUP4 PUSH2 0x1EA5 JUMP JUMPDEST SWAP3 POP POP POP SWAP1 JUMP JUMPDEST PUSH1 0x6 PUSH1 0x0 SWAP1 SLOAD SWAP1 PUSH2 0x100 EXP SWAP1 DIV PUSH20 0xFFFFFFFFFFFFFFFFFFFFFFFFFFFFFFFFFFFFFFFF AND DUP2 JUMP JUMPDEST PUSH1 0x1 PUSH1 0x0 SWAP1 SLOAD SWAP1 PUSH2 0x100 EXP SWAP1 DIV PUSH20 0xFFFFFFFFFFFFFFFFFFFFFFFFFFFFFFFFFFFFFFFF AND DUP2 JUMP JUMPDEST CALLER PUSH20 0xFFFFFFFFFFFFFFFFFFFFFFFFFFFFFFFFFFFFFFFF AND PUSH1 0x0 DUP1 SLOAD SWAP1 PUSH2 0x100 EXP SWAP1 DIV PUSH20 0xFFFFFFFFFFFFFFFFFFFFFFFFFFFFFFFFFFFFFFFF AND PUSH20 0xFFFFFFFFFFFFFFFFFFFFFFFFFFFFFFFFFFFFFFFF AND EQ PUSH2 0xCE5 JUMPI PUSH1 0x40 MLOAD PUSH32 0x8C379A000000000000000000000000000000000000000000000000000000000 DUP2 MSTORE PUSH1 0x4 ADD PUSH2 0xCDC SWAP1 PUSH2 0x3BD6 JUMP JUMPDEST PUSH1 0x40 MLOAD DUP1 SWAP2 SUB SWAP1 REVERT JUMPDEST DUP1 PUSH1 0xB PUSH1 0x0 PUSH2 0x100 EXP DUP2 SLOAD DUP2 PUSH20 0xFFFFFFFFFFFFFFFFFFFFFFFFFFFFFFFFFFFFFFFF MUL NOT AND SWAP1 DUP4 PUSH20 0xFFFFFFFFFFFFFFFFFFFFFFFFFFFFFFFFFFFFFFFF AND MUL OR SWAP1 SSTORE POP DUP3 PUSH1 0x9 PUSH1 0x0 PUSH2 0x100 EXP DUP2 SLOAD DUP2 PUSH20 0xFFFFFFFFFFFFFFFFFFFFFFFFFFFFFFFFFFFFFFFF MUL NOT AND SWAP1 DUP4 PUSH20 0xFFFFFFFFFFFFFFFFFFFFFFFFFFFFFFFFFFFFFFFF AND MUL OR SWAP1 SSTORE POP DUP2 PUSH1 0xA PUSH1 0x0 PUSH2 0x100 EXP DUP2 SLOAD DUP2 PUSH20 0xFFFFFFFFFFFFFFFFFFFFFFFFFFFFFFFFFFFFFFFF MUL NOT AND SWAP1 DUP4 PUSH20 0xFFFFFFFFFFFFFFFFFFFFFFFFFFFFFFFFFFFFFFFF AND MUL OR SWAP1 SSTORE POP POP POP POP JUMP JUMPDEST PUSH2 0xDB5 PUSH2 0x3361 JUMP JUMPDEST PUSH1 0x2 PUSH1 0x0 DUP4 PUSH20 0xFFFFFFFFFFFFFFFFFFFFFFFFFFFFFFFFFFFFFFFF AND PUSH20 0xFFFFFFFFFFFFFFFFFFFFFFFFFFFFFFFFFFFFFFFF AND DUP2 MSTORE PUSH1 0x20 ADD SWAP1 DUP2 MSTORE PUSH1 0x20 ADD PUSH1 0x0 KECCAK256 PUSH1 0x40 MLOAD DUP1 PUSH1 0xE0 ADD PUSH1 0x40 MSTORE SWAP1 DUP2 PUSH1 0x0 DUP3 ADD PUSH1 0x0 SWAP1 SLOAD SWAP1 PUSH2 0x100 EXP SWAP1 DIV PUSH1 0xFF AND ISZERO ISZERO ISZERO ISZERO DUP2 MSTORE PUSH1 0x20 ADD PUSH1 0x0 DUP3 ADD PUSH1 0x1 SWAP1 SLOAD SWAP1 PUSH2 0x100 EXP SWAP1 DIV PUSH1 0xFF AND ISZERO ISZERO ISZERO ISZERO DUP2 MSTORE PUSH1 0x20 ADD PUSH1 0x0 DUP3 ADD PUSH1 0x2 SWAP1 SLOAD SWAP1 PUSH2 0x100 EXP SWAP1 DIV PUSH20 0xFFFFFFFFFFFFFFFFFFFFFFFFFFFFFFFFFFFFFFFF AND PUSH20 0xFFFFFFFFFFFFFFFFFFFFFFFFFFFFFFFFFFFFFFFF AND PUSH20 0xFFFFFFFFFFFFFFFFFFFFFFFFFFFFFFFFFFFFFFFF AND DUP2 MSTORE PUSH1 0x20 ADD PUSH1 0x1 DUP3 ADD PUSH1 0x0 SWAP1 SLOAD SWAP1 PUSH2 0x100 EXP SWAP1 DIV PUSH20 0xFFFFFFFFFFFFFFFFFFFFFFFFFFFFFFFFFFFFFFFF AND PUSH20 0xFFFFFFFFFFFFFFFFFFFFFFFFFFFFFFFFFFFFFFFF AND PUSH20 0xFFFFFFFFFFFFFFFFFFFFFFFFFFFFFFFFFFFFFFFF AND DUP2 MSTORE PUSH1 0x20 ADD PUSH1 0x2 DUP3 ADD SLOAD DUP2 MSTORE PUSH1 0x20 ADD PUSH1 0x3 DUP3 ADD SLOAD DUP2 MSTORE PUSH1 0x20 ADD PUSH1 0x4 DUP3 ADD DUP1 SLOAD DUP1 PUSH1 0x20 MUL PUSH1 0x20 ADD PUSH1 0x40 MLOAD SWAP1 DUP2 ADD PUSH1 0x40 MSTORE DUP1 SWAP3 SWAP2 SWAP1 DUP2 DUP2 MSTORE PUSH1 0x20 ADD DUP3 DUP1 SLOAD DUP1 ISZERO PUSH2 0xF7A JUMPI PUSH1 0x20 MUL DUP3 ADD SWAP2 SWAP1 PUSH1 0x0 MSTORE PUSH1 0x20 PUSH1 0x0 KECCAK256 SWAP1 JUMPDEST DUP2 PUSH1 0x0 SWAP1 SLOAD SWAP1 PUSH2 0x100 EXP SWAP1 DIV PUSH20 0xFFFFFFFFFFFFFFFFFFFFFFFFFFFFFFFFFFFFFFFF AND PUSH20 0xFFFFFFFFFFFFFFFFFFFFFFFFFFFFFFFFFFFFFFFF AND DUP2 MSTORE PUSH1 0x20 ADD SWAP1 PUSH1 0x1 ADD SWAP1 DUP1 DUP4 GT PUSH2 0xF30 JUMPI JUMPDEST POP POP POP POP POP DUP2 MSTORE POP POP SWAP1 POP SWAP2 SWAP1 POP JUMP JUMPDEST PUSH1 0x9 PUSH1 0x0 SWAP1 SLOAD SWAP1 PUSH2 0x100 EXP SWAP1 DIV PUSH20 0xFFFFFFFFFFFFFFFFFFFFFFFFFFFFFFFFFFFFFFFF AND DUP2 JUMP JUMPDEST CALLER PUSH20 0xFFFFFFFFFFFFFFFFFFFFFFFFFFFFFFFFFFFFFFFF AND PUSH1 0x0 DUP1 SLOAD SWAP1 PUSH2 0x100 EXP SWAP1 DIV PUSH20 0xFFFFFFFFFFFFFFFFFFFFFFFFFFFFFFFFFFFFFFFF AND PUSH20 0xFFFFFFFFFFFFFFFFFFFFFFFFFFFFFFFFFFFFFFFF AND EQ PUSH2 0x103E JUMPI PUSH1 0x40 MLOAD PUSH32 0x8C379A000000000000000000000000000000000000000000000000000000000 DUP2 MSTORE PUSH1 0x4 ADD PUSH2 0x1035 SWAP1 PUSH2 0x3BD6 JUMP JUMPDEST PUSH1 0x40 MLOAD DUP1 SWAP2 SUB SWAP1 REVERT JUMPDEST DUP1 PUSH1 0x0 DUP1 PUSH2 0x100 EXP DUP2 SLOAD DUP2 PUSH20 0xFFFFFFFFFFFFFFFFFFFFFFFFFFFFFFFFFFFFFFFF MUL NOT AND SWAP1 DUP4 PUSH20 0xFFFFFFFFFFFFFFFFFFFFFFFFFFFFFFFFFFFFFFFF AND MUL OR SWAP1 SSTORE POP POP JUMP JUMPDEST PUSH1 0x0 PUSH1 0x2 PUSH1 0x0 DUP4 PUSH20 0xFFFFFFFFFFFFFFFFFFFFFFFFFFFFFFFFFFFFFFFF AND PUSH20 0xFFFFFFFFFFFFFFFFFFFFFFFFFFFFFFFFFFFFFFFF AND DUP2 MSTORE PUSH1 0x20 ADD SWAP1 DUP2 MSTORE PUSH1 0x20 ADD PUSH1 0x0 KECCAK256 SWAP1 POP PUSH1 0x0 PUSH20 0xFFFFFFFFFFFFFFFFFFFFFFFFFFFFFFFFFFFFFFFF AND DUP2 PUSH1 0x0 ADD PUSH1 0x2 SWAP1 SLOAD SWAP1 PUSH2 0x100 EXP SWAP1 DIV PUSH20 0xFFFFFFFFFFFFFFFFFFFFFFFFFFFFFFFFFFFFFFFF AND PUSH20 0xFFFFFFFFFFFFFFFFFFFFFFFFFFFFFFFFFFFFFFFF AND SUB PUSH2 0x1157 JUMPI PUSH1 0x40 MLOAD PUSH32 0x8C379A000000000000000000000000000000000000000000000000000000000 DUP2 MSTORE PUSH1 0x4 ADD PUSH2 0x114E SWAP1 PUSH2 0x3C68 JUMP JUMPDEST PUSH1 0x40 MLOAD DUP1 SWAP2 SUB SWAP1 REVERT JUMPDEST DUP1 PUSH1 0x0 ADD PUSH1 0x0 SWAP1 SLOAD SWAP1 PUSH2 0x100 EXP SWAP1 DIV PUSH1 0xFF AND ISZERO PUSH2 0x11A9 JUMPI PUSH1 0x40 MLOAD PUSH32 0x8C379A000000000000000000000000000000000000000000000000000000000 DUP2 MSTORE PUSH1 0x4 ADD PUSH2 0x11A0 SWAP1 PUSH2 0x3CFA JUMP JUMPDEST PUSH1 0x40 MLOAD DUP1 SWAP2 SUB SWAP1 REVERT JUMPDEST CALLER PUSH20 0xFFFFFFFFFFFFFFFFFFFFFFFFFFFFFFFFFFFFFFFF AND DUP3 PUSH20 0xFFFFFFFFFFFFFFFFFFFFFFFFFFFFFFFFFFFFFFFF AND EQ PUSH2 0x1217 JUMPI PUSH1 0x40 MLOAD PUSH32 0x8C379A000000000000000000000000000000000000000000000000000000000 DUP2 MSTORE PUSH1 0x4 ADD PUSH2 0x120E SWAP1 PUSH2 0x3D66 JUMP JUMPDEST PUSH1 0x40 MLOAD DUP1 SWAP2 SUB SWAP1 REVERT JUMPDEST PUSH1 0x0 PUSH2 0x1221 PUSH2 0xB7D JUMP JUMPDEST SWAP1 POP PUSH1 0x0 DUP2 GT PUSH2 0x1266 JUMPI PUSH1 0x40 MLOAD PUSH32 0x8C379A000000000000000000000000000000000000000000000000000000000 DUP2 MSTORE PUSH1 0x4 ADD PUSH2 0x125D SWAP1 PUSH2 0x3DF8 JUMP JUMPDEST PUSH1 0x40 MLOAD DUP1 SWAP2 SUB SWAP1 REVERT JUMPDEST PUSH1 0x0 PUSH1 0x64 PUSH1 0x42 DUP4 PUSH2 0x1277 SWAP2 SWAP1 PUSH2 0x3E47 JUMP JUMPDEST PUSH2 0x1281 SWAP2 SWAP1 PUSH2 0x3EB8 JUMP JUMPDEST SWAP1 POP PUSH1 0x0 PUSH1 0x64 PUSH1 0x14 DUP5 PUSH2 0x1294 SWAP2 SWAP1 PUSH2 0x3E47 JUMP JUMPDEST PUSH2 0x129E SWAP2 SWAP1 PUSH2 0x3EB8 JUMP JUMPDEST SWAP1 POP PUSH1 0x0 PUSH1 0x64 PUSH1 0xA DUP6 PUSH2 0x12B1 SWAP2 SWAP1 PUSH2 0x3E47 JUMP JUMPDEST PUSH2 0x12BB SWAP2 SWAP1 PUSH2 0x3EB8 JUMP JUMPDEST SWAP1 POP PUSH2 0x12EB PUSH1 0x7 PUSH1 0x0 SWAP1 SLOAD SWAP1 PUSH2 0x100 EXP SWAP1 DIV PUSH20 0xFFFFFFFFFFFFFFFFFFFFFFFFFFFFFFFFFFFFFFFF AND DUP8 ADDRESS DUP7 PUSH2 0x1FAB JUMP JUMPDEST PUSH2 0x133B PUSH1 0x7 PUSH1 0x0 SWAP1 SLOAD SWAP1 PUSH2 0x100 EXP SWAP1 DIV PUSH20 0xFFFFFFFFFFFFFFFFFFFFFFFFFFFFFFFFFFFFFFFF AND DUP8 PUSH1 0x9 PUSH1 0x0 SWAP1 SLOAD SWAP1 PUSH2 0x100 EXP SWAP1 DIV PUSH20 0xFFFFFFFFFFFFFFFFFFFFFFFFFFFFFFFFFFFFFFFF AND DUP6 PUSH2 0x1FAB JUMP JUMPDEST PUSH2 0x138B PUSH1 0x7 PUSH1 0x0 SWAP1 SLOAD SWAP1 PUSH2 0x100 EXP SWAP1 DIV PUSH20 0xFFFFFFFFFFFFFFFFFFFFFFFFFFFFFFFFFFFFFFFF AND DUP8 PUSH1 0xA PUSH1 0x0 SWAP1 SLOAD SWAP1 PUSH2 0x100 EXP SWAP1 DIV PUSH20 0xFFFFFFFFFFFFFFFFFFFFFFFFFFFFFFFFFFFFFFFF AND DUP5 PUSH2 0x1FAB JUMP JUMPDEST PUSH2 0x13FC PUSH1 0x7 PUSH1 0x0 SWAP1 SLOAD SWAP1 PUSH2 0x100 EXP SWAP1 DIV PUSH20 0xFFFFFFFFFFFFFFFFFFFFFFFFFFFFFFFFFFFFFFFF AND DUP8 PUSH1 0xB PUSH1 0x0 SWAP1 SLOAD SWAP1 PUSH2 0x100 EXP SWAP1 DIV PUSH20 0xFFFFFFFFFFFFFFFFFFFFFFFFFFFFFFFFFFFFFFFF AND DUP5 DUP7 DUP9 DUP11 PUSH2 0x13E3 SWAP2 SWAP1 PUSH2 0x3EE9 JUMP JUMPDEST PUSH2 0x13ED SWAP2 SWAP1 PUSH2 0x3EE9 JUMP JUMPDEST PUSH2 0x13F7 SWAP2 SWAP1 PUSH2 0x3EE9 JUMP JUMPDEST PUSH2 0x1FAB JUMP JUMPDEST PUSH2 0x1406 DUP7 DUP6 PUSH2 0x20E4 JUMP JUMPDEST PUSH1 0x1 DUP6 PUSH1 0x0 ADD PUSH1 0x0 PUSH2 0x100 EXP DUP2 SLOAD DUP2 PUSH1 0xFF MUL NOT AND SWAP1 DUP4 ISZERO ISZERO MUL OR SWAP1 SSTORE POP POP POP POP POP POP POP JUMP JUMPDEST PUSH1 0x0 PUSH20 0xFFFFFFFFFFFFFFFFFFFFFFFFFFFFFFFFFFFFFFFF AND PUSH1 0x5 PUSH1 0x0 SWAP1 SLOAD SWAP1 PUSH2 0x100 EXP SWAP1 DIV PUSH20 0xFFFFFFFFFFFFFFFFFFFFFFFFFFFFFFFFFFFFFFFF AND PUSH20 0xFFFFFFFFFFFFFFFFFFFFFFFFFFFFFFFFFFFFFFFF AND SUB PUSH2 0x14BC JUMPI PUSH1 0x40 MLOAD PUSH32 0x8C379A000000000000000000000000000000000000000000000000000000000 DUP2 MSTORE PUSH1 0x4 ADD PUSH2 0x14B3 SWAP1 PUSH2 0x3F69 JUMP JUMPDEST PUSH1 0x40 MLOAD DUP1 SWAP2 SUB SWAP1 REVERT JUMPDEST DUP1 PUSH20 0xFFFFFFFFFFFFFFFFFFFFFFFFFFFFFFFFFFFFFFFF AND PUSH1 0x5 PUSH1 0x0 SWAP1 SLOAD SWAP1 PUSH2 0x100 EXP SWAP1 DIV PUSH20 0xFFFFFFFFFFFFFFFFFFFFFFFFFFFFFFFFFFFFFFFF AND PUSH20 0xFFFFFFFFFFFFFFFFFFFFFFFFFFFFFFFFFFFFFFFF AND EQ PUSH2 0x1797 JUMPI PUSH1 0x0 PUSH1 0x2 PUSH1 0x0 DUP4 PUSH20 0xFFFFFFFFFFFFFFFFFFFFFFFFFFFFFFFFFFFFFFFF AND PUSH20 0xFFFFFFFFFFFFFFFFFFFFFFFFFFFFFFFFFFFFFFFF AND DUP2 MSTORE PUSH1 0x20 ADD SWAP1 DUP2 MSTORE PUSH1 0x20 ADD PUSH1 0x0 KECCAK256 PUSH1 0x40 MLOAD DUP1 PUSH1 0xE0 ADD PUSH1 0x40 MSTORE SWAP1 DUP2 PUSH1 0x0 DUP3 ADD PUSH1 0x0 SWAP1 SLOAD SWAP1 PUSH2 0x100 EXP SWAP1 DIV PUSH1 0xFF AND ISZERO ISZERO ISZERO ISZERO DUP2 MSTORE PUSH1 0x20 ADD PUSH1 0x0 DUP3 ADD PUSH1 0x1 SWAP1 SLOAD SWAP1 PUSH2 0x100 EXP SWAP1 DIV PUSH1 0xFF AND ISZERO ISZERO ISZERO ISZERO DUP2 MSTORE PUSH1 0x20 ADD PUSH1 0x0 DUP3 ADD PUSH1 0x2 SWAP1 SLOAD SWAP1 PUSH2 0x100 EXP SWAP1 DIV PUSH20 0xFFFFFFFFFFFFFFFFFFFFFFFFFFFFFFFFFFFFFFFF AND PUSH20 0xFFFFFFFFFFFFFFFFFFFFFFFFFFFFFFFFFFFFFFFF AND PUSH20 0xFFFFFFFFFFFFFFFFFFFFFFFFFFFFFFFFFFFFFFFF AND DUP2 MSTORE PUSH1 0x20 ADD PUSH1 0x1 DUP3 ADD PUSH1 0x0 SWAP1 SLOAD SWAP1 PUSH2 0x100 EXP SWAP1 DIV PUSH20 0xFFFFFFFFFFFFFFFFFFFFFFFFFFFFFFFFFFFFFFFF AND PUSH20 0xFFFFFFFFFFFFFFFFFFFFFFFFFFFFFFFFFFFFFFFF AND PUSH20 0xFFFFFFFFFFFFFFFFFFFFFFFFFFFFFFFFFFFFFFFF AND DUP2 MSTORE PUSH1 0x20 ADD PUSH1 0x2 DUP3 ADD SLOAD DUP2 MSTORE PUSH1 0x20 ADD PUSH1 0x3 DUP3 ADD SLOAD DUP2 MSTORE PUSH1 0x20 ADD PUSH1 0x4 DUP3 ADD DUP1 SLOAD DUP1 PUSH1 0x20 MUL PUSH1 0x20 ADD PUSH1 0x40 MLOAD SWAP1 DUP2 ADD PUSH1 0x40 MSTORE DUP1 SWAP3 SWAP2 SWAP1 DUP2 DUP2 MSTORE PUSH1 0x20 ADD DUP3 DUP1 SLOAD DUP1 ISZERO PUSH2 0x16D8 JUMPI PUSH1 0x20 MUL DUP3 ADD SWAP2 SWAP1 PUSH1 0x0 MSTORE PUSH1 0x20 PUSH1 0x0 KECCAK256 SWAP1 JUMPDEST DUP2 PUSH1 0x0 SWAP1 SLOAD SWAP1 PUSH2 0x100 EXP SWAP1 DIV PUSH20 0xFFFFFFFFFFFFFFFFFFFFFFFFFFFFFFFFFFFFFFFF AND PUSH20 0xFFFFFFFFFFFFFFFFFFFFFFFFFFFFFFFFFFFFFFFF AND DUP2 MSTORE PUSH1 0x20 ADD SWAP1 PUSH1 0x1 ADD SWAP1 DUP1 DUP4 GT PUSH2 0x168E JUMPI JUMPDEST POP POP POP POP POP DUP2 MSTORE POP POP SWAP1 POP DUP1 PUSH1 0x0 ADD MLOAD PUSH2 0x1727 JUMPI PUSH1 0x40 MLOAD PUSH32 0x8C379A000000000000000000000000000000000000000000000000000000000 DUP2 MSTORE PUSH1 0x4 ADD PUSH2 0x171E SWAP1 PUSH2 0x3FD5 JUMP JUMPDEST PUSH1 0x40 MLOAD DUP1 SWAP2 SUB SWAP1 REVERT JUMPDEST CALLER PUSH20 0xFFFFFFFFFFFFFFFFFFFFFFFFFFFFFFFFFFFFFFFF AND DUP3 PUSH20 0xFFFFFFFFFFFFFFFFFFFFFFFFFFFFFFFFFFFFFFFF AND SUB PUSH2 0x1795 JUMPI PUSH1 0x40 MLOAD PUSH32 0x8C379A000000000000000000000000000000000000000000000000000000000 DUP2 MSTORE PUSH1 0x4 ADD PUSH2 0x178C SWAP1 PUSH2 0x4041 JUMP JUMPDEST PUSH1 0x40 MLOAD DUP1 SWAP2 SUB SWAP1 REVERT JUMPDEST POP JUMPDEST PUSH1 0x0 PUSH1 0x2 PUSH1 0x0 CALLER PUSH20 0xFFFFFFFFFFFFFFFFFFFFFFFFFFFFFFFFFFFFFFFF AND PUSH20 0xFFFFFFFFFFFFFFFFFFFFFFFFFFFFFFFFFFFFFFFF AND DUP2 MSTORE PUSH1 0x20 ADD SWAP1 DUP2 MSTORE PUSH1 0x20 ADD PUSH1 0x0 KECCAK256 SWAP1 POP PUSH1 0x0 PUSH20 0xFFFFFFFFFFFFFFFFFFFFFFFFFFFFFFFFFFFFFFFF AND DUP2 PUSH1 0x0 ADD PUSH1 0x2 SWAP1 SLOAD SWAP1 PUSH2 0x100 EXP SWAP1 DIV PUSH20 0xFFFFFFFFFFFFFFFFFFFFFFFFFFFFFFFFFFFFFFFF AND PUSH20 0xFFFFFFFFFFFFFFFFFFFFFFFFFFFFFFFFFFFFFFFF AND EQ PUSH2 0x186D JUMPI PUSH1 0x40 MLOAD PUSH32 0x8C379A000000000000000000000000000000000000000000000000000000000 DUP2 MSTORE PUSH1 0x4 ADD PUSH2 0x1864 SWAP1 PUSH2 0x40AD JUMP JUMPDEST PUSH1 0x40 MLOAD DUP1 SWAP2 SUB SWAP1 REVERT JUMPDEST DUP2 DUP2 PUSH1 0x0 ADD PUSH1 0x2 PUSH2 0x100 EXP DUP2 SLOAD DUP2 PUSH20 0xFFFFFFFFFFFFFFFFFFFFFFFFFFFFFFFFFFFFFFFF MUL NOT AND SWAP1 DUP4 PUSH20 0xFFFFFFFFFFFFFFFFFFFFFFFFFFFFFFFFFFFFFFFF AND MUL OR SWAP1 SSTORE POP POP POP JUMP JUMPDEST PUSH1 0xB PUSH1 0x0 SWAP1 SLOAD SWAP1 PUSH2 0x100 EXP SWAP1 DIV PUSH20 0xFFFFFFFFFFFFFFFFFFFFFFFFFFFFFFFFFFFFFFFF AND DUP2 JUMP JUMPDEST DUP1 PUSH1 0x2 PUSH1 0x0 DUP5 PUSH20 0xFFFFFFFFFFFFFFFFFFFFFFFFFFFFFFFFFFFFFFFF AND PUSH20 0xFFFFFFFFFFFFFFFFFFFFFFFFFFFFFFFFFFFFFFFF AND DUP2 MSTORE PUSH1 0x20 ADD SWAP1 DUP2 MSTORE PUSH1 0x20 ADD PUSH1 0x0 KECCAK256 PUSH1 0x3 ADD SLOAD LT ISZERO PUSH2 0x195F JUMPI PUSH1 0x40 MLOAD PUSH32 0x8C379A000000000000000000000000000000000000000000000000000000000 DUP2 MSTORE PUSH1 0x4 ADD PUSH2 0x1956 SWAP1 PUSH2 0x4119 JUMP JUMPDEST PUSH1 0x40 MLOAD DUP1 SWAP2 SUB SWAP1 REVERT JUMPDEST PUSH2 0x198C PUSH1 0x7 PUSH1 0x0 SWAP1 SLOAD SWAP1 PUSH2 0x100 EXP SWAP1 DIV PUSH20 0xFFFFFFFFFFFFFFFFFFFFFFFFFFFFFFFFFFFFFFFF AND DUP4 DUP4 PUSH2 0x1C6C JUMP JUMPDEST DUP1 PUSH1 0x2 PUSH1 0x0 DUP5 PUSH20 0xFFFFFFFFFFFFFFFFFFFFFFFFFFFFFFFFFFFFFFFF AND PUSH20 0xFFFFFFFFFFFFFFFFFFFFFFFFFFFFFFFFFFFFFFFF AND DUP2 MSTORE PUSH1 0x20 ADD SWAP1 DUP2 MSTORE PUSH1 0x20 ADD PUSH1 0x0 KECCAK256 PUSH1 0x3 ADD PUSH1 0x0 DUP3 DUP3 SLOAD PUSH2 0x19DE SWAP2 SWAP1 PUSH2 0x3EE9 JUMP JUMPDEST SWAP3 POP POP DUP2 SWAP1 SSTORE POP PUSH1 0x4 PUSH1 0x0 DUP4 PUSH20 0xFFFFFFFFFFFFFFFFFFFFFFFFFFFFFFFFFFFFFFFF AND PUSH20 0xFFFFFFFFFFFFFFFFFFFFFFFFFFFFFFFFFFFFFFFF AND DUP2 MSTORE PUSH1 0x20 ADD SWAP1 DUP2 MSTORE PUSH1 0x20 ADD PUSH1 0x0 KECCAK256 PUSH1 0x40 MLOAD DUP1 PUSH1 0x60 ADD PUSH1 0x40 MSTORE DUP1 DUP5 PUSH20 0xFFFFFFFFFFFFFFFFFFFFFFFFFFFFFFFFFFFFFFFF AND DUP2 MSTORE PUSH1 0x20 ADD DUP4 DUP2 MSTORE PUSH1 0x20 ADD TIMESTAMP DUP2 MSTORE POP SWAP1 DUP1 PUSH1 0x1 DUP2 SLOAD ADD DUP1 DUP3 SSTORE DUP1 SWAP2 POP POP PUSH1 0x1 SWAP1 SUB SWAP1 PUSH1 0x0 MSTORE PUSH1 0x20 PUSH1 0x0 KECCAK256 SWAP1 PUSH1 0x3 MUL ADD PUSH1 0x0 SWAP1 SWAP2 SWAP1 SWAP2 SWAP1 SWAP2 POP PUSH1 0x0 DUP3 ADD MLOAD DUP2 PUSH1 0x0 ADD PUSH1 0x0 PUSH2 0x100 EXP DUP2 SLOAD DUP2 PUSH20 0xFFFFFFFFFFFFFFFFFFFFFFFFFFFFFFFFFFFFFFFF MUL NOT AND SWAP1 DUP4 PUSH20 0xFFFFFFFFFFFFFFFFFFFFFFFFFFFFFFFFFFFFFFFF AND MUL OR SWAP1 SSTORE POP PUSH1 0x20 DUP3 ADD MLOAD DUP2 PUSH1 0x1 ADD SSTORE PUSH1 0x40 DUP3 ADD MLOAD DUP2 PUSH1 0x2 ADD SSTORE POP POP POP POP JUMP JUMPDEST PUSH1 0x60 PUSH1 0x3 PUSH1 0x0 DUP4 PUSH20 0xFFFFFFFFFFFFFFFFFFFFFFFFFFFFFFFFFFFFFFFF AND PUSH20 0xFFFFFFFFFFFFFFFFFFFFFFFFFFFFFFFFFFFFFFFF AND DUP2 MSTORE PUSH1 0x20 ADD SWAP1 DUP2 MSTORE PUSH1 0x20 ADD PUSH1 0x0 KECCAK256 DUP1 SLOAD DUP1 PUSH1 0x20 MUL PUSH1 0x20 ADD PUSH1 0x40 MLOAD SWAP1 DUP2 ADD PUSH1 0x40 MSTORE DUP1 SWAP3 SWAP2 SWAP1 DUP2 DUP2 MSTORE PUSH1 0x20 ADD PUSH1 0x0 SWAP1 JUMPDEST DUP3 DUP3 LT ISZERO PUSH2 0x1C17 JUMPI DUP4 DUP3 SWAP1 PUSH1 0x0 MSTORE PUSH1 0x20 PUSH1 0x0 KECCAK256 SWAP1 PUSH1 0x4 MUL ADD PUSH1 0x40 MLOAD DUP1 PUSH1 0x80 ADD PUSH1 0x40 MSTORE SWAP1 DUP2 PUSH1 0x0 DUP3 ADD PUSH1 0x0 SWAP1 SLOAD SWAP1 PUSH2 0x100 EXP SWAP1 DIV PUSH20 0xFFFFFFFFFFFFFFFFFFFFFFFFFFFFFFFFFFFFFFFF AND PUSH20 0xFFFFFFFFFFFFFFFFFFFFFFFFFFFFFFFFFFFFFFFF AND PUSH20 0xFFFFFFFFFFFFFFFFFFFFFFFFFFFFFFFFFFFFFFFF AND DUP2 MSTORE PUSH1 0x20 ADD PUSH1 0x1 DUP3 ADD SLOAD DUP2 MSTORE PUSH1 0x20 ADD PUSH1 0x2 DUP3 ADD SLOAD DUP2 MSTORE PUSH1 0x20 ADD PUSH1 0x3 DUP3 ADD PUSH1 0x0 SWAP1 SLOAD SWAP1 PUSH2 0x100 EXP SWAP1 DIV PUSH1 0xFF AND PUSH1 0x2 DUP2 GT ISZERO PUSH2 0x1BF2 JUMPI PUSH2 0x1BF1 PUSH2 0x3A08 JUMP JUMPDEST JUMPDEST PUSH1 0x2 DUP2 GT ISZERO PUSH2 0x1C04 JUMPI PUSH2 0x1C03 PUSH2 0x3A08 JUMP JUMPDEST JUMPDEST DUP2 MSTORE POP POP DUP2 MSTORE PUSH1 0x20 ADD SWAP1 PUSH1 0x1 ADD SWAP1 PUSH2 0x1B40 JUMP JUMPDEST POP POP POP POP SWAP1 POP SWAP2 SWAP1 POP JUMP JUMPDEST PUSH1 0x0 DUP1 SLOAD SWAP1 PUSH2 0x100 EXP SWAP1 DIV PUSH20 0xFFFFFFFFFFFFFFFFFFFFFFFFFFFFFFFFFFFFFFFF AND DUP2 JUMP JUMPDEST PUSH1 0x7 PUSH1 0x0 SWAP1 SLOAD SWAP1 PUSH2 0x100 EXP SWAP1 DIV PUSH20 0xFFFFFFFFFFFFFFFFFFFFFFFFFFFFFFFFFFFFFFFF AND DUP2 JUMP JUMPDEST PUSH1 0x0 DUP1 DUP5 PUSH20 0xFFFFFFFFFFFFFFFFFFFFFFFFFFFFFFFFFFFFFFFF AND PUSH4 0xA9059CBB DUP6 DUP6 PUSH1 0x40 MLOAD PUSH1 0x24 ADD PUSH2 0x1C9E SWAP3 SWAP2 SWAP1 PUSH2 0x4139 JUMP JUMPDEST PUSH1 0x40 MLOAD PUSH1 0x20 DUP2 DUP4 SUB SUB DUP2 MSTORE SWAP1 PUSH1 0x40 MSTORE SWAP1 PUSH1 0xE0 SHL PUSH1 0x20 DUP3 ADD DUP1 MLOAD PUSH28 0xFFFFFFFFFFFFFFFFFFFFFFFFFFFFFFFFFFFFFFFFFFFFFFFFFFFFFFFF DUP4 DUP2 DUP4 AND OR DUP4 MSTORE POP POP POP POP PUSH1 0x40 MLOAD PUSH2 0x1CEC SWAP2 SWAP1 PUSH2 0x41D3 JUMP JUMPDEST PUSH1 0x0 PUSH1 0x40 MLOAD DUP1 DUP4 SUB DUP2 PUSH1 0x0 DUP7 GAS CALL SWAP2 POP POP RETURNDATASIZE DUP1 PUSH1 0x0 DUP2 EQ PUSH2 0x1D29 JUMPI PUSH1 0x40 MLOAD SWAP2 POP PUSH1 0x1F NOT PUSH1 0x3F RETURNDATASIZE ADD AND DUP3 ADD PUSH1 0x40 MSTORE RETURNDATASIZE DUP3 MSTORE RETURNDATASIZE PUSH1 0x0 PUSH1 0x20 DUP5 ADD RETURNDATACOPY PUSH2 0x1D2E JUMP JUMPDEST PUSH1 0x60 SWAP2 POP JUMPDEST POP SWAP2 POP SWAP2 POP DUP2 DUP1 ISZERO PUSH2 0x1D5C JUMPI POP PUSH1 0x0 DUP2 MLOAD EQ DUP1 PUSH2 0x1D5B JUMPI POP DUP1 DUP1 PUSH1 0x20 ADD SWAP1 MLOAD DUP2 ADD SWAP1 PUSH2 0x1D5A SWAP2 SWAP1 PUSH2 0x4216 JUMP JUMPDEST JUMPDEST JUMPDEST PUSH2 0x1D9B JUMPI PUSH1 0x40 MLOAD PUSH32 0x8C379A000000000000000000000000000000000000000000000000000000000 DUP2 MSTORE PUSH1 0x4 ADD PUSH2 0x1D92 SWAP1 PUSH2 0x428F JUMP JUMPDEST PUSH1 0x40 MLOAD DUP1 SWAP2 SUB SWAP1 REVERT JUMPDEST POP POP POP POP POP JUMP JUMPDEST PUSH1 0x0 DUP1 PUSH1 0x0 PUSH2 0x1DB1 DUP6 DUP6 PUSH2 0x29FC JUMP JUMPDEST POP SWAP1 POP PUSH1 0x0 DUP1 PUSH2 0x1DC2 DUP9 DUP9 DUP9 PUSH2 0x2B28 JUMP JUMPDEST PUSH20 0xFFFFFFFFFFFFFFFFFFFFFFFFFFFFFFFFFFFFFFFF AND PUSH4 0x902F1AC PUSH1 0x40 MLOAD DUP2 PUSH4 0xFFFFFFFF AND PUSH1 0xE0 SHL DUP2 MSTORE PUSH1 0x4 ADD PUSH1 0x60 PUSH1 0x40 MLOAD DUP1 DUP4 SUB DUP2 DUP7 GAS STATICCALL ISZERO DUP1 ISZERO PUSH2 0x1E0C JUMPI RETURNDATASIZE PUSH1 0x0 DUP1 RETURNDATACOPY RETURNDATASIZE PUSH1 0x0 REVERT JUMPDEST POP POP POP POP PUSH1 0x40 MLOAD RETURNDATASIZE PUSH1 0x1F NOT PUSH1 0x1F DUP3 ADD AND DUP3 ADD DUP1 PUSH1 0x40 MSTORE POP DUP2 ADD SWAP1 PUSH2 0x1E30 SWAP2 SWAP1 PUSH2 0x4331 JUMP JUMPDEST POP PUSH14 0xFFFFFFFFFFFFFFFFFFFFFFFFFFFF AND SWAP2 POP PUSH14 0xFFFFFFFFFFFFFFFFFFFFFFFFFFFF AND SWAP2 POP DUP3 PUSH20 0xFFFFFFFFFFFFFFFFFFFFFFFFFFFFFFFFFFFFFFFF AND DUP8 PUSH20 0xFFFFFFFFFFFFFFFFFFFFFFFFFFFFFFFFFFFFFFFF AND EQ PUSH2 0x1E8F JUMPI DUP1 DUP3 PUSH2 0x1E92 JUMP JUMPDEST DUP2 DUP2 JUMPDEST DUP1 SWAP6 POP DUP2 SWAP7 POP POP POP POP POP POP SWAP4 POP SWAP4 SWAP2 POP POP JUMP JUMPDEST PUSH1 0x0 DUP1 DUP5 GT PUSH2 0x1EE9 JUMPI PUSH1 0x40 MLOAD PUSH32 0x8C379A000000000000000000000000000000000000000000000000000000000 DUP2 MSTORE PUSH1 0x4 ADD PUSH2 0x1EE0 SWAP1 PUSH2 0x43F6 JUMP JUMPDEST PUSH1 0x40 MLOAD DUP1 SWAP2 SUB SWAP1 REVERT JUMPDEST PUSH1 0x0 DUP4 GT DUP1 ISZERO PUSH2 0x1EF9 JUMPI POP PUSH1 0x0 DUP3 GT JUMPDEST PUSH2 0x1F38 JUMPI PUSH1 0x40 MLOAD PUSH32 0x8C379A000000000000000000000000000000000000000000000000000000000 DUP2 MSTORE PUSH1 0x4 ADD PUSH2 0x1F2F SWAP1 PUSH2 0x4488 JUMP JUMPDEST PUSH1 0x40 MLOAD DUP1 SWAP2 SUB SWAP1 REVERT JUMPDEST PUSH1 0x0 PUSH2 0x1F4F PUSH2 0x3E5 DUP7 PUSH2 0x2B9A SWAP1 SWAP2 SWAP1 PUSH4 0xFFFFFFFF AND JUMP JUMPDEST SWAP1 POP PUSH1 0x0 PUSH2 0x1F66 DUP5 DUP4 PUSH2 0x2B9A SWAP1 SWAP2 SWAP1 PUSH4 0xFFFFFFFF AND JUMP JUMPDEST SWAP1 POP PUSH1 0x0 PUSH2 0x1F91 DUP4 PUSH2 0x1F83 PUSH2 0x3E8 DUP10 PUSH2 0x2B9A SWAP1 SWAP2 SWAP1 PUSH4 0xFFFFFFFF AND JUMP JUMPDEST PUSH2 0x2C07 SWAP1 SWAP2 SWAP1 PUSH4 0xFFFFFFFF AND JUMP JUMPDEST SWAP1 POP DUP1 DUP3 PUSH2 0x1F9F SWAP2 SWAP1 PUSH2 0x3EB8 JUMP JUMPDEST SWAP4 POP POP POP POP SWAP4 SWAP3 POP POP POP JUMP JUMPDEST PUSH1 0x0 DUP1 DUP6 PUSH20 0xFFFFFFFFFFFFFFFFFFFFFFFFFFFFFFFFFFFFFFFF AND PUSH4 0x23B872DD DUP7 DUP7 DUP7 PUSH1 0x40 MLOAD PUSH1 0x24 ADD PUSH2 0x1FDF SWAP4 SWAP3 SWAP2 SWAP1 PUSH2 0x44A8 JUMP JUMPDEST PUSH1 0x40 MLOAD PUSH1 0x20 DUP2 DUP4 SUB SUB DUP2 MSTORE SWAP1 PUSH1 0x40 MSTORE SWAP1 PUSH1 0xE0 SHL PUSH1 0x20 DUP3 ADD DUP1 MLOAD PUSH28 0xFFFFFFFFFFFFFFFFFFFFFFFFFFFFFFFFFFFFFFFFFFFFFFFFFFFFFFFF DUP4 DUP2 DUP4 AND OR DUP4 MSTORE POP POP POP POP PUSH1 0x40 MLOAD PUSH2 0x202D SWAP2 SWAP1 PUSH2 0x41D3 JUMP JUMPDEST PUSH1 0x0 PUSH1 0x40 MLOAD DUP1 DUP4 SUB DUP2 PUSH1 0x0 DUP7 GAS CALL SWAP2 POP POP RETURNDATASIZE DUP1 PUSH1 0x0 DUP2 EQ PUSH2 0x206A JUMPI PUSH1 0x40 MLOAD SWAP2 POP PUSH1 0x1F NOT PUSH1 0x3F RETURNDATASIZE ADD AND DUP3 ADD PUSH1 0x40 MSTORE RETURNDATASIZE DUP3 MSTORE RETURNDATASIZE PUSH1 0x0 PUSH1 0x20 DUP5 ADD RETURNDATACOPY PUSH2 0x206F JUMP JUMPDEST PUSH1 0x60 SWAP2 POP JUMPDEST POP SWAP2 POP SWAP2 POP DUP2 DUP1 ISZERO PUSH2 0x209D JUMPI POP PUSH1 0x0 DUP2 MLOAD EQ DUP1 PUSH2 0x209C JUMPI POP DUP1 DUP1 PUSH1 0x20 ADD SWAP1 MLOAD DUP2 ADD SWAP1 PUSH2 0x209B SWAP2 SWAP1 PUSH2 0x4216 JUMP JUMPDEST JUMPDEST JUMPDEST PUSH2 0x20DC JUMPI PUSH1 0x40 MLOAD PUSH32 0x8C379A000000000000000000000000000000000000000000000000000000000 DUP2 MSTORE PUSH1 0x4 ADD PUSH2 0x20D3 SWAP1 PUSH2 0x4551 JUMP JUMPDEST PUSH1 0x40 MLOAD DUP1 SWAP2 SUB SWAP1 REVERT JUMPDEST POP POP POP POP POP POP JUMP JUMPDEST PUSH1 0x0 PUSH1 0x2 PUSH1 0x0 DUP5 PUSH20 0xFFFFFFFFFFFFFFFFFFFFFFFFFFFFFFFFFFFFFFFF AND PUSH20 0xFFFFFFFFFFFFFFFFFFFFFFFFFFFFFFFFFFFFFFFF AND DUP2 MSTORE PUSH1 0x20 ADD SWAP1 DUP2 MSTORE PUSH1 0x20 ADD PUSH1 0x0 KECCAK256 PUSH1 0x0 ADD PUSH1 0x2 SWAP1 SLOAD SWAP1 PUSH2 0x100 EXP SWAP1 DIV PUSH20 0xFFFFFFFFFFFFFFFFFFFFFFFFFFFFFFFFFFFFFFFF AND SWAP1 POP PUSH1 0x0 PUSH1 0x2 PUSH1 0x0 DUP4 PUSH20 0xFFFFFFFFFFFFFFFFFFFFFFFFFFFFFFFFFFFFFFFF AND PUSH20 0xFFFFFFFFFFFFFFFFFFFFFFFFFFFFFFFFFFFFFFFF AND DUP2 MSTORE PUSH1 0x20 ADD SWAP1 DUP2 MSTORE PUSH1 0x20 ADD PUSH1 0x0 KECCAK256 SWAP1 POP PUSH1 0x1 DUP2 PUSH1 0x2 ADD PUSH1 0x0 DUP3 DUP3 SLOAD PUSH2 0x21A3 SWAP2 SWAP1 PUSH2 0x4571 JUMP JUMPDEST SWAP3 POP POP DUP2 SWAP1 SSTORE POP DUP1 PUSH1 0x4 ADD DUP5 SWAP1 DUP1 PUSH1 0x1 DUP2 SLOAD ADD DUP1 DUP3 SSTORE DUP1 SWAP2 POP POP PUSH1 0x1 SWAP1 SUB SWAP1 PUSH1 0x0 MSTORE PUSH1 0x20 PUSH1 0x0 KECCAK256 ADD PUSH1 0x0 SWAP1 SWAP2 SWAP1 SWAP2 SWAP1 SWAP2 PUSH2 0x100 EXP DUP2 SLOAD DUP2 PUSH20 0xFFFFFFFFFFFFFFFFFFFFFFFFFFFFFFFFFFFFFFFF MUL NOT AND SWAP1 DUP4 PUSH20 0xFFFFFFFFFFFFFFFFFFFFFFFFFFFFFFFFFFFFFFFF AND MUL OR SWAP1 SSTORE POP PUSH1 0x3 DUP2 PUSH1 0x2 ADD SLOAD LT ISZERO DUP1 ISZERO PUSH2 0x2233 JUMPI POP DUP1 PUSH1 0x0 ADD PUSH1 0x1 SWAP1 SLOAD SWAP1 PUSH2 0x100 EXP SWAP1 DIV PUSH1 0xFF AND ISZERO JUMPDEST ISZERO PUSH2 0x2256 JUMPI PUSH1 0x1 DUP2 PUSH1 0x0 ADD PUSH1 0x1 PUSH2 0x100 EXP DUP2 SLOAD DUP2 PUSH1 0xFF MUL NOT AND SWAP1 DUP4 ISZERO ISZERO MUL OR SWAP1 SSTORE POP JUMPDEST PUSH1 0x64 PUSH1 0x14 DUP5 PUSH2 0x2265 SWAP2 SWAP1 PUSH2 0x3E47 JUMP JUMPDEST PUSH2 0x226F SWAP2 SWAP1 PUSH2 0x3EB8 JUMP JUMPDEST DUP2 PUSH1 0x3 ADD SLOAD PUSH2 0x227E SWAP2 SWAP1 PUSH2 0x4571 JUMP JUMPDEST DUP2 PUSH1 0x3 ADD DUP2 SWAP1 SSTORE POP PUSH1 0x3 PUSH1 0x0 DUP4 PUSH20 0xFFFFFFFFFFFFFFFFFFFFFFFFFFFFFFFFFFFFFFFF AND PUSH20 0xFFFFFFFFFFFFFFFFFFFFFFFFFFFFFFFFFFFFFFFF AND DUP2 MSTORE PUSH1 0x20 ADD SWAP1 DUP2 MSTORE PUSH1 0x20 ADD PUSH1 0x0 KECCAK256 PUSH1 0x40 MLOAD DUP1 PUSH1 0x80 ADD PUSH1 0x40 MSTORE DUP1 DUP7 PUSH20 0xFFFFFFFFFFFFFFFFFFFFFFFFFFFFFFFFFFFFFFFF AND DUP2 MSTORE PUSH1 0x20 ADD PUSH1 0x64 PUSH1 0x14 DUP8 PUSH2 0x22FB SWAP2 SWAP1 PUSH2 0x3E47 JUMP JUMPDEST PUSH2 0x2305 SWAP2 SWAP1 PUSH2 0x3EB8 JUMP JUMPDEST DUP2 MSTORE PUSH1 0x20 ADD TIMESTAMP DUP2 MSTORE PUSH1 0x20 ADD PUSH1 0x0 PUSH1 0x2 DUP2 GT ISZERO PUSH2 0x2324 JUMPI PUSH2 0x2323 PUSH2 0x3A08 JUMP JUMPDEST JUMPDEST DUP2 MSTORE POP SWAP1 DUP1 PUSH1 0x1 DUP2 SLOAD ADD DUP1 DUP3 SSTORE DUP1 SWAP2 POP POP PUSH1 0x1 SWAP1 SUB SWAP1 PUSH1 0x0 MSTORE PUSH1 0x20 PUSH1 0x0 KECCAK256 SWAP1 PUSH1 0x4 MUL ADD PUSH1 0x0 SWAP1 SWAP2 SWAP1 SWAP2 SWAP1 SWAP2 POP PUSH1 0x0 DUP3 ADD MLOAD DUP2 PUSH1 0x0 ADD PUSH1 0x0 PUSH2 0x100 EXP DUP2 SLOAD DUP2 PUSH20 0xFFFFFFFFFFFFFFFFFFFFFFFFFFFFFFFFFFFFFFFF MUL NOT AND SWAP1 DUP4 PUSH20 0xFFFFFFFFFFFFFFFFFFFFFFFFFFFFFFFFFFFFFFFF AND MUL OR SWAP1 SSTORE POP PUSH1 0x20 DUP3 ADD MLOAD DUP2 PUSH1 0x1 ADD SSTORE PUSH1 0x40 DUP3 ADD MLOAD DUP2 PUSH1 0x2 ADD SSTORE PUSH1 0x60 DUP3 ADD MLOAD DUP2 PUSH1 0x3 ADD PUSH1 0x0 PUSH2 0x100 EXP DUP2 SLOAD DUP2 PUSH1 0xFF MUL NOT AND SWAP1 DUP4 PUSH1 0x2 DUP2 GT ISZERO PUSH2 0x23D6 JUMPI PUSH2 0x23D5 PUSH2 0x3A08 JUMP JUMPDEST JUMPDEST MUL OR SWAP1 SSTORE POP POP POP DUP1 PUSH1 0x0 ADD PUSH1 0x1 SWAP1 SLOAD SWAP1 PUSH2 0x100 EXP SWAP1 DIV PUSH1 0xFF AND ISZERO PUSH2 0x29EB JUMPI PUSH1 0x64 PUSH1 0x28 DUP5 PUSH2 0x2403 SWAP2 SWAP1 PUSH2 0x3E47 JUMP JUMPDEST PUSH2 0x240D SWAP2 SWAP1 PUSH2 0x3EB8 JUMP JUMPDEST DUP2 PUSH1 0x3 ADD SLOAD PUSH2 0x241C SWAP2 SWAP1 PUSH2 0x4571 JUMP JUMPDEST DUP2 PUSH1 0x3 ADD DUP2 SWAP1 SSTORE POP PUSH1 0x3 PUSH1 0x0 DUP4 PUSH20 0xFFFFFFFFFFFFFFFFFFFFFFFFFFFFFFFFFFFFFFFF AND PUSH20 0xFFFFFFFFFFFFFFFFFFFFFFFFFFFFFFFFFFFFFFFF AND DUP2 MSTORE PUSH1 0x20 ADD SWAP1 DUP2 MSTORE PUSH1 0x20 ADD PUSH1 0x0 KECCAK256 PUSH1 0x40 MLOAD DUP1 PUSH1 0x80 ADD PUSH1 0x40 MSTORE DUP1 DUP7 PUSH20 0xFFFFFFFFFFFFFFFFFFFFFFFFFFFFFFFFFFFFFFFF AND DUP2 MSTORE PUSH1 0x20 ADD PUSH1 0x64 PUSH1 0x28 DUP8 PUSH2 0x2499 SWAP2 SWAP1 PUSH2 0x3E47 JUMP JUMPDEST PUSH2 0x24A3 SWAP2 SWAP1 PUSH2 0x3EB8 JUMP JUMPDEST DUP2 MSTORE PUSH1 0x20 ADD TIMESTAMP DUP2 MSTORE PUSH1 0x20 ADD PUSH1 0x1 PUSH1 0x2 DUP2 GT ISZERO PUSH2 0x24C2 JUMPI PUSH2 0x24C1 PUSH2 0x3A08 JUMP JUMPDEST JUMPDEST DUP2 MSTORE POP SWAP1 DUP1 PUSH1 0x1 DUP2 SLOAD ADD DUP1 DUP3 SSTORE DUP1 SWAP2 POP POP PUSH1 0x1 SWAP1 SUB SWAP1 PUSH1 0x0 MSTORE PUSH1 0x20 PUSH1 0x0 KECCAK256 SWAP1 PUSH1 0x4 MUL ADD PUSH1 0x0 SWAP1 SWAP2 SWAP1 SWAP2 SWAP1 SWAP2 POP PUSH1 0x0 DUP3 ADD MLOAD DUP2 PUSH1 0x0 ADD PUSH1 0x0 PUSH2 0x100 EXP DUP2 SLOAD DUP2 PUSH20 0xFFFFFFFFFFFFFFFFFFFFFFFFFFFFFFFFFFFFFFFF MUL NOT AND SWAP1 DUP4 PUSH20 0xFFFFFFFFFFFFFFFFFFFFFFFFFFFFFFFFFFFFFFFF AND MUL OR SWAP1 SSTORE POP PUSH1 0x20 DUP3 ADD MLOAD DUP2 PUSH1 0x1 ADD SSTORE PUSH1 0x40 DUP3 ADD MLOAD DUP2 PUSH1 0x2 ADD SSTORE PUSH1 0x60 DUP3 ADD MLOAD DUP2 PUSH1 0x3 ADD PUSH1 0x0 PUSH2 0x100 EXP DUP2 SLOAD DUP2 PUSH1 0xFF MUL NOT AND SWAP1 DUP4 PUSH1 0x2 DUP2 GT ISZERO PUSH2 0x2574 JUMPI PUSH2 0x2573 PUSH2 0x3A08 JUMP JUMPDEST JUMPDEST MUL OR SWAP1 SSTORE POP POP POP PUSH1 0x0 DUP2 PUSH1 0x0 ADD PUSH1 0x2 SWAP1 SLOAD SWAP1 PUSH2 0x100 EXP SWAP1 DIV PUSH20 0xFFFFFFFFFFFFFFFFFFFFFFFFFFFFFFFFFFFFFFFF AND SWAP1 POP PUSH1 0x0 PUSH20 0xFFFFFFFFFFFFFFFFFFFFFFFFFFFFFFFFFFFFFFFF AND DUP2 PUSH20 0xFFFFFFFFFFFFFFFFFFFFFFFFFFFFFFFFFFFFFFFF AND EQ PUSH2 0x29E5 JUMPI PUSH1 0x64 PUSH1 0x6 DUP6 PUSH2 0x25E7 SWAP2 SWAP1 PUSH2 0x3E47 JUMP JUMPDEST PUSH2 0x25F1 SWAP2 SWAP1 PUSH2 0x3EB8 JUMP JUMPDEST PUSH1 0x2 PUSH1 0x0 DUP4 PUSH20 0xFFFFFFFFFFFFFFFFFFFFFFFFFFFFFFFFFFFFFFFF AND PUSH20 0xFFFFFFFFFFFFFFFFFFFFFFFFFFFFFFFFFFFFFFFF AND DUP2 MSTORE PUSH1 0x20 ADD SWAP1 DUP2 MSTORE PUSH1 0x20 ADD PUSH1 0x0 KECCAK256 PUSH1 0x3 ADD SLOAD PUSH2 0x263E SWAP2 SWAP1 PUSH2 0x4571 JUMP JUMPDEST PUSH1 0x2 PUSH1 0x0 DUP4 PUSH20 0xFFFFFFFFFFFFFFFFFFFFFFFFFFFFFFFFFFFFFFFF AND PUSH20 0xFFFFFFFFFFFFFFFFFFFFFFFFFFFFFFFFFFFFFFFF AND DUP2 MSTORE PUSH1 0x20 ADD SWAP1 DUP2 MSTORE PUSH1 0x20 ADD PUSH1 0x0 KECCAK256 PUSH1 0x3 ADD DUP2 SWAP1 SSTORE POP PUSH1 0x3 PUSH1 0x0 DUP3 PUSH20 0xFFFFFFFFFFFFFFFFFFFFFFFFFFFFFFFFFFFFFFFF AND PUSH20 0xFFFFFFFFFFFFFFFFFFFFFFFFFFFFFFFFFFFFFFFF AND DUP2 MSTORE PUSH1 0x20 ADD SWAP1 DUP2 MSTORE PUSH1 0x20 ADD PUSH1 0x0 KECCAK256 PUSH1 0x40 MLOAD DUP1 PUSH1 0x80 ADD PUSH1 0x40 MSTORE DUP1 DUP8 PUSH20 0xFFFFFFFFFFFFFFFFFFFFFFFFFFFFFFFFFFFFFFFF AND DUP2 MSTORE PUSH1 0x20 ADD PUSH1 0x64 PUSH1 0x6 DUP9 PUSH2 0x26F9 SWAP2 SWAP1 PUSH2 0x3E47 JUMP JUMPDEST PUSH2 0x2703 SWAP2 SWAP1 PUSH2 0x3EB8 JUMP JUMPDEST DUP2 MSTORE PUSH1 0x20 ADD TIMESTAMP DUP2 MSTORE PUSH1 0x20 ADD PUSH1 0x2 DUP1 DUP2 GT ISZERO PUSH2 0x2721 JUMPI PUSH2 0x2720 PUSH2 0x3A08 JUMP JUMPDEST JUMPDEST DUP2 MSTORE POP SWAP1 DUP1 PUSH1 0x1 DUP2 SLOAD ADD DUP1 DUP3 SSTORE DUP1 SWAP2 POP POP PUSH1 0x1 SWAP1 SUB SWAP1 PUSH1 0x0 MSTORE PUSH1 0x20 PUSH1 0x0 KECCAK256 SWAP1 PUSH1 0x4 MUL ADD PUSH1 0x0 SWAP1 SWAP2 SWAP1 SWAP2 SWAP1 SWAP2 POP PUSH1 0x0 DUP3 ADD MLOAD DUP2 PUSH1 0x0 ADD PUSH1 0x0 PUSH2 0x100 EXP DUP2 SLOAD DUP2 PUSH20 0xFFFFFFFFFFFFFFFFFFFFFFFFFFFFFFFFFFFFFFFF MUL NOT AND SWAP1 DUP4 PUSH20 0xFFFFFFFFFFFFFFFFFFFFFFFFFFFFFFFFFFFFFFFF AND MUL OR SWAP1 SSTORE POP PUSH1 0x20 DUP3 ADD MLOAD DUP2 PUSH1 0x1 ADD SSTORE PUSH1 0x40 DUP3 ADD MLOAD DUP2 PUSH1 0x2 ADD SSTORE PUSH1 0x60 DUP3 ADD MLOAD DUP2 PUSH1 0x3 ADD PUSH1 0x0 PUSH2 0x100 EXP DUP2 SLOAD DUP2 PUSH1 0xFF MUL NOT AND SWAP1 DUP4 PUSH1 0x2 DUP2 GT ISZERO PUSH2 0x27D3 JUMPI PUSH2 0x27D2 PUSH2 0x3A08 JUMP JUMPDEST JUMPDEST MUL OR SWAP1 SSTORE POP POP POP PUSH1 0x0 DUP2 SWAP1 POP PUSH1 0x0 PUSH20 0xFFFFFFFFFFFFFFFFFFFFFFFFFFFFFFFFFFFFFFFF AND DUP4 PUSH1 0x1 ADD PUSH1 0x0 SWAP1 SLOAD SWAP1 PUSH2 0x100 EXP SWAP1 DIV PUSH20 0xFFFFFFFFFFFFFFFFFFFFFFFFFFFFFFFFFFFFFFFF AND PUSH20 0xFFFFFFFFFFFFFFFFFFFFFFFFFFFFFFFFFFFFFFFF AND EQ PUSH2 0x285F JUMPI DUP3 PUSH1 0x1 ADD PUSH1 0x0 SWAP1 SLOAD SWAP1 PUSH2 0x100 EXP SWAP1 DIV PUSH20 0xFFFFFFFFFFFFFFFFFFFFFFFFFFFFFFFFFFFFFFFF AND SWAP1 POP JUMPDEST DUP1 PUSH1 0x2 PUSH1 0x0 DUP6 PUSH1 0x4 ADD PUSH1 0x0 DUP2 SLOAD DUP2 LT PUSH2 0x287B JUMPI PUSH2 0x287A PUSH2 0x45A5 JUMP JUMPDEST JUMPDEST SWAP1 PUSH1 0x0 MSTORE PUSH1 0x20 PUSH1 0x0 KECCAK256 ADD PUSH1 0x0 SWAP1 SLOAD SWAP1 PUSH2 0x100 EXP SWAP1 DIV PUSH20 0xFFFFFFFFFFFFFFFFFFFFFFFFFFFFFFFFFFFFFFFF AND PUSH20 0xFFFFFFFFFFFFFFFFFFFFFFFFFFFFFFFFFFFFFFFF AND PUSH20 0xFFFFFFFFFFFFFFFFFFFFFFFFFFFFFFFFFFFFFFFF AND DUP2 MSTORE PUSH1 0x20 ADD SWAP1 DUP2 MSTORE PUSH1 0x20 ADD PUSH1 0x0 KECCAK256 PUSH1 0x1 ADD PUSH1 0x0 PUSH2 0x100 EXP DUP2 SLOAD DUP2 PUSH20 0xFFFFFFFFFFFFFFFFFFFFFFFFFFFFFFFFFFFFFFFF MUL NOT AND SWAP1 DUP4 PUSH20 0xFFFFFFFFFFFFFFFFFFFFFFFFFFFFFFFFFFFFFFFF AND MUL OR SWAP1 SSTORE POP DUP1 PUSH1 0x2 PUSH1 0x0 DUP6 PUSH1 0x4 ADD PUSH1 0x1 DUP2 SLOAD DUP2 LT PUSH2 0x293D JUMPI PUSH2 0x293C PUSH2 0x45A5 JUMP JUMPDEST JUMPDEST SWAP1 PUSH1 0x0 MSTORE PUSH1 0x20 PUSH1 0x0 KECCAK256 ADD PUSH1 0x0 SWAP1 SLOAD SWAP1 PUSH2 0x100 EXP SWAP1 DIV PUSH20 0xFFFFFFFFFFFFFFFFFFFFFFFFFFFFFFFFFFFFFFFF AND PUSH20 0xFFFFFFFFFFFFFFFFFFFFFFFFFFFFFFFFFFFFFFFF AND PUSH20 0xFFFFFFFFFFFFFFFFFFFFFFFFFFFFFFFFFFFFFFFF AND DUP2 MSTORE PUSH1 0x20 ADD SWAP1 DUP2 MSTORE PUSH1 0x20 ADD PUSH1 0x0 KECCAK256 PUSH1 0x1 ADD PUSH1 0x0 PUSH2 0x100 EXP DUP2 SLOAD DUP2 PUSH20 0xFFFFFFFFFFFFFFFFFFFFFFFFFFFFFFFFFFFFFFFF MUL NOT AND SWAP1 DUP4 PUSH20 0xFFFFFFFFFFFFFFFFFFFFFFFFFFFFFFFFFFFFFFFF AND MUL OR SWAP1 SSTORE POP POP JUMPDEST POP PUSH2 0x29F6 JUMP JUMPDEST PUSH2 0x29F5 DUP5 DUP5 PUSH2 0x2C60 JUMP JUMPDEST JUMPDEST POP POP POP POP JUMP JUMPDEST PUSH1 0x0 DUP1 DUP3 PUSH20 0xFFFFFFFFFFFFFFFFFFFFFFFFFFFFFFFFFFFFFFFF AND DUP5 PUSH20 0xFFFFFFFFFFFFFFFFFFFFFFFFFFFFFFFFFFFFFFFF AND SUB PUSH2 0x2A6D JUMPI PUSH1 0x40 MLOAD PUSH32 0x8C379A000000000000000000000000000000000000000000000000000000000 DUP2 MSTORE PUSH1 0x4 ADD PUSH2 0x2A64 SWAP1 PUSH2 0x4646 JUMP JUMPDEST PUSH1 0x40 MLOAD DUP1 SWAP2 SUB SWAP1 REVERT JUMPDEST DUP3 PUSH20 0xFFFFFFFFFFFFFFFFFFFFFFFFFFFFFFFFFFFFFFFF AND DUP5 PUSH20 0xFFFFFFFFFFFFFFFFFFFFFFFFFFFFFFFFFFFFFFFF AND LT PUSH2 0x2AA7 JUMPI DUP3 DUP5 PUSH2 0x2AAA JUMP JUMPDEST DUP4 DUP4 JUMPDEST DUP1 SWAP3 POP DUP2 SWAP4 POP POP POP PUSH1 0x0 PUSH20 0xFFFFFFFFFFFFFFFFFFFFFFFFFFFFFFFFFFFFFFFF AND DUP3 PUSH20 0xFFFFFFFFFFFFFFFFFFFFFFFFFFFFFFFFFFFFFFFF AND SUB PUSH2 0x2B21 JUMPI PUSH1 0x40 MLOAD PUSH32 0x8C379A000000000000000000000000000000000000000000000000000000000 DUP2 MSTORE PUSH1 0x4 ADD PUSH2 0x2B18 SWAP1 PUSH2 0x46B2 JUMP JUMPDEST PUSH1 0x40 MLOAD DUP1 SWAP2 SUB SWAP1 REVERT JUMPDEST SWAP3 POP SWAP3 SWAP1 POP JUMP JUMPDEST PUSH1 0x0 DUP1 PUSH1 0x0 PUSH2 0x2B37 DUP6 DUP6 PUSH2 0x29FC JUMP JUMPDEST SWAP2 POP SWAP2 POP DUP6 DUP3 DUP3 PUSH1 0x40 MLOAD PUSH1 0x20 ADD PUSH2 0x2B4F SWAP3 SWAP2 SWAP1 PUSH2 0x471A JUMP JUMPDEST PUSH1 0x40 MLOAD PUSH1 0x20 DUP2 DUP4 SUB SUB DUP2 MSTORE SWAP1 PUSH1 0x40 MSTORE DUP1 MLOAD SWAP1 PUSH1 0x20 ADD KECCAK256 PUSH1 0x40 MLOAD PUSH1 0x20 ADD PUSH2 0x2B76 SWAP3 SWAP2 SWAP1 PUSH2 0x4813 JUMP JUMPDEST PUSH1 0x40 MLOAD PUSH1 0x20 DUP2 DUP4 SUB SUB DUP2 MSTORE SWAP1 PUSH1 0x40 MSTORE DUP1 MLOAD SWAP1 PUSH1 0x20 ADD KECCAK256 PUSH1 0x0 SHR SWAP3 POP POP POP SWAP4 SWAP3 POP POP POP JUMP JUMPDEST PUSH1 0x0 DUP1 DUP3 EQ DUP1 PUSH2 0x2BC2 JUMPI POP DUP3 DUP3 DUP4 DUP6 PUSH2 0x2BB3 SWAP2 SWAP1 PUSH2 0x3E47 JUMP JUMPDEST SWAP3 POP DUP3 PUSH2 0x2BC0 SWAP2 SWAP1 PUSH2 0x3EB8 JUMP JUMPDEST EQ JUMPDEST PUSH2 0x2C01 JUMPI PUSH1 0x40 MLOAD PUSH32 0x8C379A000000000000000000000000000000000000000000000000000000000 DUP2 MSTORE PUSH1 0x4 ADD PUSH2 0x2BF8 SWAP1 PUSH2 0x48A1 JUMP JUMPDEST PUSH1 0x40 MLOAD DUP1 SWAP2 SUB SWAP1 REVERT JUMPDEST SWAP3 SWAP2 POP POP JUMP JUMPDEST PUSH1 0x0 DUP3 DUP3 DUP5 PUSH2 0x2C16 SWAP2 SWAP1 PUSH2 0x4571 JUMP JUMPDEST SWAP2 POP DUP2 LT ISZERO PUSH2 0x2C5A JUMPI PUSH1 0x40 MLOAD PUSH32 0x8C379A000000000000000000000000000000000000000000000000000000000 DUP2 MSTORE PUSH1 0x4 ADD PUSH2 0x2C51 SWAP1 PUSH2 0x490D JUMP JUMPDEST PUSH1 0x40 MLOAD DUP1 SWAP2 SUB SWAP1 REVERT JUMPDEST SWAP3 SWAP2 POP POP JUMP JUMPDEST PUSH1 0x0 PUSH2 0x2C6B DUP4 PUSH2 0x30BC JUMP JUMPDEST SWAP1 POP PUSH1 0x2 PUSH1 0x0 DUP3 PUSH20 0xFFFFFFFFFFFFFFFFFFFFFFFFFFFFFFFFFFFFFFFF AND PUSH20 0xFFFFFFFFFFFFFFFFFFFFFFFFFFFFFFFFFFFFFFFF AND DUP2 MSTORE PUSH1 0x20 ADD SWAP1 DUP2 MSTORE PUSH1 0x20 ADD PUSH1 0x0 KECCAK256 PUSH1 0x0 ADD PUSH1 0x1 SWAP1 SLOAD SWAP1 PUSH2 0x100 EXP SWAP1 DIV PUSH1 0xFF AND ISZERO PUSH2 0x30B7 JUMPI PUSH1 0x0 PUSH1 0x2 PUSH1 0x0 DUP4 PUSH20 0xFFFFFFFFFFFFFFFFFFFFFFFFFFFFFFFFFFFFFFFF AND PUSH20 0xFFFFFFFFFFFFFFFFFFFFFFFFFFFFFFFFFFFFFFFF AND DUP2 MSTORE PUSH1 0x20 ADD SWAP1 DUP2 MSTORE PUSH1 0x20 ADD PUSH1 0x0 KECCAK256 SWAP1 POP PUSH1 0x64 PUSH1 0x28 DUP5 PUSH2 0x2D14 SWAP2 SWAP1 PUSH2 0x3E47 JUMP JUMPDEST PUSH2 0x2D1E SWAP2 SWAP1 PUSH2 0x3EB8 JUMP JUMPDEST DUP2 PUSH1 0x3 ADD SLOAD PUSH2 0x2D2D SWAP2 SWAP1 PUSH2 0x4571 JUMP JUMPDEST DUP2 PUSH1 0x3 ADD DUP2 SWAP1 SSTORE POP PUSH1 0x3 PUSH1 0x0 DUP4 PUSH20 0xFFFFFFFFFFFFFFFFFFFFFFFFFFFFFFFFFFFFFFFF AND PUSH20 0xFFFFFFFFFFFFFFFFFFFFFFFFFFFFFFFFFFFFFFFF AND DUP2 MSTORE PUSH1 0x20 ADD SWAP1 DUP2 MSTORE PUSH1 0x20 ADD PUSH1 0x0 KECCAK256 PUSH1 0x40 MLOAD DUP1 PUSH1 0x80 ADD PUSH1 0x40 MSTORE DUP1 DUP7 PUSH20 0xFFFFFFFFFFFFFFFFFFFFFFFFFFFFFFFFFFFFFFFF AND DUP2 MSTORE PUSH1 0x20 ADD PUSH1 0x64 PUSH1 0x28 DUP8 PUSH2 0x2DAA SWAP2 SWAP1 PUSH2 0x3E47 JUMP JUMPDEST PUSH2 0x2DB4 SWAP2 SWAP1 PUSH2 0x3EB8 JUMP JUMPDEST DUP2 MSTORE PUSH1 0x20 ADD TIMESTAMP DUP2 MSTORE PUSH1 0x20 ADD PUSH1 0x1 PUSH1 0x2 DUP2 GT ISZERO PUSH2 0x2DD3 JUMPI PUSH2 0x2DD2 PUSH2 0x3A08 JUMP JUMPDEST JUMPDEST DUP2 MSTORE POP SWAP1 DUP1 PUSH1 0x1 DUP2 SLOAD ADD DUP1 DUP3 SSTORE DUP1 SWAP2 POP POP PUSH1 0x1 SWAP1 SUB SWAP1 PUSH1 0x0 MSTORE PUSH1 0x20 PUSH1 0x0 KECCAK256 SWAP1 PUSH1 0x4 MUL ADD PUSH1 0x0 SWAP1 SWAP2 SWAP1 SWAP2 SWAP1 SWAP2 POP PUSH1 0x0 DUP3 ADD MLOAD DUP2 PUSH1 0x0 ADD PUSH1 0x0 PUSH2 0x100 EXP DUP2 SLOAD DUP2 PUSH20 0xFFFFFFFFFFFFFFFFFFFFFFFFFFFFFFFFFFFFFFFF MUL NOT AND SWAP1 DUP4 PUSH20 0xFFFFFFFFFFFFFFFFFFFFFFFFFFFFFFFFFFFFFFFF AND MUL OR SWAP1 SSTORE POP PUSH1 0x20 DUP3 ADD MLOAD DUP2 PUSH1 0x1 ADD SSTORE PUSH1 0x40 DUP3 ADD MLOAD DUP2 PUSH1 0x2 ADD SSTORE PUSH1 0x60 DUP3 ADD MLOAD DUP2 PUSH1 0x3 ADD PUSH1 0x0 PUSH2 0x100 EXP DUP2 SLOAD DUP2 PUSH1 0xFF MUL NOT AND SWAP1 DUP4 PUSH1 0x2 DUP2 GT ISZERO PUSH2 0x2E85 JUMPI PUSH2 0x2E84 PUSH2 0x3A08 JUMP JUMPDEST JUMPDEST MUL OR SWAP1 SSTORE POP POP POP PUSH1 0x0 DUP2 PUSH1 0x0 ADD PUSH1 0x2 SWAP1 SLOAD SWAP1 PUSH2 0x100 EXP SWAP1 DIV PUSH20 0xFFFFFFFFFFFFFFFFFFFFFFFFFFFFFFFFFFFFFFFF AND SWAP1 POP PUSH1 0x0 PUSH20 0xFFFFFFFFFFFFFFFFFFFFFFFFFFFFFFFFFFFFFFFF AND DUP2 PUSH20 0xFFFFFFFFFFFFFFFFFFFFFFFFFFFFFFFFFFFFFFFF AND EQ PUSH2 0x30B4 JUMPI PUSH1 0x0 PUSH1 0x2 PUSH1 0x0 DUP4 PUSH20 0xFFFFFFFFFFFFFFFFFFFFFFFFFFFFFFFFFFFFFFFF AND PUSH20 0xFFFFFFFFFFFFFFFFFFFFFFFFFFFFFFFFFFFFFFFF AND DUP2 MSTORE PUSH1 0x20 ADD SWAP1 DUP2 MSTORE PUSH1 0x20 ADD PUSH1 0x0 KECCAK256 SWAP1 POP PUSH1 0x64 PUSH1 0x6 DUP7 PUSH2 0x2F3B SWAP2 SWAP1 PUSH2 0x3E47 JUMP JUMPDEST PUSH2 0x2F45 SWAP2 SWAP1 PUSH2 0x3EB8 JUMP JUMPDEST DUP2 PUSH1 0x3 ADD SLOAD PUSH2 0x2F54 SWAP2 SWAP1 PUSH2 0x4571 JUMP JUMPDEST DUP2 PUSH1 0x3 ADD DUP2 SWAP1 SSTORE POP PUSH1 0x3 PUSH1 0x0 DUP4 PUSH20 0xFFFFFFFFFFFFFFFFFFFFFFFFFFFFFFFFFFFFFFFF AND PUSH20 0xFFFFFFFFFFFFFFFFFFFFFFFFFFFFFFFFFFFFFFFF AND DUP2 MSTORE PUSH1 0x20 ADD SWAP1 DUP2 MSTORE PUSH1 0x20 ADD PUSH1 0x0 KECCAK256 PUSH1 0x40 MLOAD DUP1 PUSH1 0x80 ADD PUSH1 0x40 MSTORE DUP1 DUP9 PUSH20 0xFFFFFFFFFFFFFFFFFFFFFFFFFFFFFFFFFFFFFFFF AND DUP2 MSTORE PUSH1 0x20 ADD PUSH1 0x64 PUSH1 0x6 DUP10 PUSH2 0x2FD1 SWAP2 SWAP1 PUSH2 0x3E47 JUMP JUMPDEST PUSH2 0x2FDB SWAP2 SWAP1 PUSH2 0x3EB8 JUMP JUMPDEST DUP2 MSTORE PUSH1 0x20 ADD TIMESTAMP DUP2 MSTORE PUSH1 0x20 ADD PUSH1 0x2 DUP1 DUP2 GT ISZERO PUSH2 0x2FF9 JUMPI PUSH2 0x2FF8 PUSH2 0x3A08 JUMP JUMPDEST JUMPDEST DUP2 MSTORE POP SWAP1 DUP1 PUSH1 0x1 DUP2 SLOAD ADD DUP1 DUP3 SSTORE DUP1 SWAP2 POP POP PUSH1 0x1 SWAP1 SUB SWAP1 PUSH1 0x0 MSTORE PUSH1 0x20 PUSH1 0x0 KECCAK256 SWAP1 PUSH1 0x4 MUL ADD PUSH1 0x0 SWAP1 SWAP2 SWAP1 SWAP2 SWAP1 SWAP2 POP PUSH1 0x0 DUP3 ADD MLOAD DUP2 PUSH1 0x0 ADD PUSH1 0x0 PUSH2 0x100 EXP DUP2 SLOAD DUP2 PUSH20 0xFFFFFFFFFFFFFFFFFFFFFFFFFFFFFFFFFFFFFFFF MUL NOT AND SWAP1 DUP4 PUSH20 0xFFFFFFFFFFFFFFFFFFFFFFFFFFFFFFFFFFFFFFFF AND MUL OR SWAP1 SSTORE POP PUSH1 0x20 DUP3 ADD MLOAD DUP2 PUSH1 0x1 ADD SSTORE PUSH1 0x40 DUP3 ADD MLOAD DUP2 PUSH1 0x2 ADD SSTORE PUSH1 0x60 DUP3 ADD MLOAD DUP2 PUSH1 0x3 ADD PUSH1 0x0 PUSH2 0x100 EXP DUP2 SLOAD DUP2 PUSH1 0xFF MUL NOT AND SWAP1 DUP4 PUSH1 0x2 DUP2 GT ISZERO PUSH2 0x30AB JUMPI PUSH2 0x30AA PUSH2 0x3A08 JUMP JUMPDEST JUMPDEST MUL OR SWAP1 SSTORE POP POP POP POP JUMPDEST POP POP JUMPDEST POP POP POP JUMP JUMPDEST PUSH1 0x0 PUSH1 0x2 PUSH1 0x0 DUP4 PUSH20 0xFFFFFFFFFFFFFFFFFFFFFFFFFFFFFFFFFFFFFFFF AND PUSH20 0xFFFFFFFFFFFFFFFFFFFFFFFFFFFFFFFFFFFFFFFF AND DUP2 MSTORE PUSH1 0x20 ADD SWAP1 DUP2 MSTORE PUSH1 0x20 ADD PUSH1 0x0 KECCAK256 PUSH1 0x0 ADD PUSH1 0x1 SWAP1 SLOAD SWAP1 PUSH2 0x100 EXP SWAP1 DIV PUSH1 0xFF AND PUSH2 0x3132 JUMPI PUSH2 0x312B DUP3 PUSH1 0xD PUSH1 0x0 SWAP1 SLOAD SWAP1 PUSH2 0x100 EXP SWAP1 DIV PUSH1 0xFF AND PUSH2 0x313B JUMP JUMPDEST SWAP1 POP PUSH2 0x3136 JUMP JUMPDEST DUP2 SWAP1 POP JUMPDEST SWAP2 SWAP1 POP JUMP JUMPDEST PUSH1 0x0 DUP1 DUP3 PUSH1 0xFF AND EQ DUP1 PUSH2 0x317A JUMPI POP PUSH1 0x0 PUSH20 0xFFFFFFFFFFFFFFFFFFFFFFFFFFFFFFFFFFFFFFFF AND DUP4 PUSH20 0xFFFFFFFFFFFFFFFFFFFFFFFFFFFFFFFFFFFFFFFF AND EQ JUMPDEST DUP1 PUSH2 0x31D1 JUMPI POP PUSH1 0x2 PUSH1 0x0 DUP5 PUSH20 0xFFFFFFFFFFFFFFFFFFFFFFFFFFFFFFFFFFFFFFFF AND PUSH20 0xFFFFFFFFFFFFFFFFFFFFFFFFFFFFFFFFFFFFFFFF AND DUP2 MSTORE PUSH1 0x20 ADD SWAP1 DUP2 MSTORE PUSH1 0x20 ADD PUSH1 0x0 KECCAK256 PUSH1 0x0 ADD PUSH1 0x1 SWAP1 SLOAD SWAP1 PUSH2 0x100 EXP SWAP1 DIV PUSH1 0xFF AND JUMPDEST ISZERO PUSH2 0x31DE JUMPI DUP3 SWAP1 POP PUSH2 0x335B JUMP JUMPDEST PUSH1 0x0 PUSH1 0x2 PUSH1 0x0 DUP6 PUSH20 0xFFFFFFFFFFFFFFFFFFFFFFFFFFFFFFFFFFFFFFFF AND PUSH20 0xFFFFFFFFFFFFFFFFFFFFFFFFFFFFFFFFFFFFFFFF AND DUP2 MSTORE PUSH1 0x20 ADD SWAP1 DUP2 MSTORE PUSH1 0x20 ADD PUSH1 0x0 KECCAK256 PUSH1 0x0 ADD PUSH1 0x2 SWAP1 SLOAD SWAP1 PUSH2 0x100 EXP SWAP1 DIV PUSH20 0xFFFFFFFFFFFFFFFFFFFFFFFFFFFFFFFFFFFFFFFF AND SWAP1 POP PUSH1 0x0 PUSH20 0xFFFFFFFFFFFFFFFFFFFFFFFFFFFFFFFFFFFFFFFF AND PUSH1 0x2 PUSH1 0x0 DUP7 PUSH20 0xFFFFFFFFFFFFFFFFFFFFFFFFFFFFFFFFFFFFFFFF AND PUSH20 0xFFFFFFFFFFFFFFFFFFFFFFFFFFFFFFFFFFFFFFFF AND DUP2 MSTORE PUSH1 0x20 ADD SWAP1 DUP2 MSTORE PUSH1 0x20 ADD PUSH1 0x0 KECCAK256 PUSH1 0x1 ADD PUSH1 0x0 SWAP1 SLOAD SWAP1 PUSH2 0x100 EXP SWAP1 DIV PUSH20 0xFFFFFFFFFFFFFFFFFFFFFFFFFFFFFFFFFFFFFFFF AND PUSH20 0xFFFFFFFFFFFFFFFFFFFFFFFFFFFFFFFFFFFFFFFF AND EQ PUSH2 0x3341 JUMPI PUSH1 0x2 PUSH1 0x0 DUP6 PUSH20 0xFFFFFFFFFFFFFFFFFFFFFFFFFFFFFFFFFFFFFFFF AND PUSH20 0xFFFFFFFFFFFFFFFFFFFFFFFFFFFFFFFFFFFFFFFF AND DUP2 MSTORE PUSH1 0x20 ADD SWAP1 DUP2 MSTORE PUSH1 0x20 ADD PUSH1 0x0 KECCAK256 PUSH1 0x1 ADD PUSH1 0x0 SWAP1 SLOAD SWAP1 PUSH2 0x100 EXP SWAP1 DIV PUSH20 0xFFFFFFFFFFFFFFFFFFFFFFFFFFFFFFFFFFFFFFFF AND SWAP1 POP JUMPDEST PUSH2 0x3357 DUP2 PUSH1 0x1 DUP6 PUSH2 0x3352 SWAP2 SWAP1 PUSH2 0x492D JUMP JUMPDEST PUSH2 0x313B JUMP JUMPDEST SWAP2 POP POP JUMPDEST SWAP3 SWAP2 POP POP JUMP JUMPDEST PUSH1 0x40 MLOAD DUP1 PUSH1 0xE0 ADD PUSH1 0x40 MSTORE DUP1 PUSH1 0x0 ISZERO ISZERO DUP2 MSTORE PUSH1 0x20 ADD PUSH1 0x0 ISZERO ISZERO DUP2 MSTORE PUSH1 0x20 ADD PUSH1 0x0 PUSH20 0xFFFFFFFFFFFFFFFFFFFFFFFFFFFFFFFFFFFFFFFF AND DUP2 MSTORE PUSH1 0x20 ADD PUSH1 0x0 PUSH20 0xFFFFFFFFFFFFFFFFFFFFFFFFFFFFFFFFFFFFFFFF AND DUP2 MSTORE PUSH1 0x20 ADD PUSH1 0x0 DUP2 MSTORE PUSH1 0x20 ADD PUSH1 0x0 DUP2 MSTORE PUSH1 0x20 ADD PUSH1 0x60 DUP2 MSTORE POP SWAP1 JUMP JUMPDEST PUSH1 0x0 DUP1 REVERT JUMPDEST PUSH1 0x0 DUP2 SWAP1 POP SWAP2 SWAP1 POP JUMP JUMPDEST PUSH2 0x33E6 DUP2 PUSH2 0x33D3 JUMP JUMPDEST DUP2 EQ PUSH2 0x33F1 JUMPI PUSH1 0x0 DUP1 REVERT JUMPDEST POP JUMP JUMPDEST PUSH1 0x0 DUP2 CALLDATALOAD SWAP1 POP PUSH2 0x3403 DUP2 PUSH2 0x33DD JUMP JUMPDEST SWAP3 SWAP2 POP POP JUMP JUMPDEST PUSH1 0x0 PUSH1 0x20 DUP3 DUP5 SUB SLT ISZERO PUSH2 0x341F JUMPI PUSH2 0x341E PUSH2 0x33CE JUMP JUMPDEST JUMPDEST PUSH1 0x0 PUSH2 0x342D DUP5 DUP3 DUP6 ADD PUSH2 0x33F4 JUMP JUMPDEST SWAP2 POP POP SWAP3 SWAP2 POP POP JUMP JUMPDEST PUSH1 0x0 PUSH20 0xFFFFFFFFFFFFFFFFFFFFFFFFFFFFFFFFFFFFFFFF DUP3 AND SWAP1 POP SWAP2 SWAP1 POP JUMP JUMPDEST PUSH1 0x0 PUSH2 0x3461 DUP3 PUSH2 0x3436 JUMP JUMPDEST SWAP1 POP SWAP2 SWAP1 POP JUMP JUMPDEST PUSH2 0x3471 DUP2 PUSH2 0x3456 JUMP JUMPDEST DUP2 EQ PUSH2 0x347C JUMPI PUSH1 0x0 DUP1 REVERT JUMPDEST POP JUMP JUMPDEST PUSH1 0x0 DUP2 CALLDATALOAD SWAP1 POP PUSH2 0x348E DUP2 PUSH2 0x3468 JUMP JUMPDEST SWAP3 SWAP2 POP POP JUMP JUMPDEST PUSH1 0x0 DUP1 PUSH1 0x0 DUP1 PUSH1 0x0 PUSH1 0xA0 DUP7 DUP9 SUB SLT ISZERO PUSH2 0x34B0 JUMPI PUSH2 0x34AF PUSH2 0x33CE JUMP JUMPDEST JUMPDEST PUSH1 0x0 PUSH2 0x34BE DUP9 DUP3 DUP10 ADD PUSH2 0x347F JUMP JUMPDEST SWAP6 POP POP PUSH1 0x20 PUSH2 0x34CF DUP9 DUP3 DUP10 ADD PUSH2 0x347F JUMP JUMPDEST SWAP5 POP POP PUSH1 0x40 PUSH2 0x34E0 DUP9 DUP3 DUP10 ADD PUSH2 0x347F JUMP JUMPDEST SWAP4 POP POP PUSH1 0x60 PUSH2 0x34F1 DUP9 DUP3 DUP10 ADD PUSH2 0x347F JUMP JUMPDEST SWAP3 POP POP PUSH1 0x80 PUSH2 0x3502 DUP9 DUP3 DUP10 ADD PUSH2 0x347F JUMP JUMPDEST SWAP2 POP POP SWAP3 SWAP6 POP SWAP3 SWAP6 SWAP1 SWAP4 POP JUMP JUMPDEST PUSH1 0x0 PUSH1 0x20 DUP3 DUP5 SUB SLT ISZERO PUSH2 0x3525 JUMPI PUSH2 0x3524 PUSH2 0x33CE JUMP JUMPDEST JUMPDEST PUSH1 0x0 PUSH2 0x3533 DUP5 DUP3 DUP6 ADD PUSH2 0x347F JUMP JUMPDEST SWAP2 POP POP SWAP3 SWAP2 POP POP JUMP JUMPDEST PUSH1 0x0 DUP2 ISZERO ISZERO SWAP1 POP SWAP2 SWAP1 POP JUMP JUMPDEST PUSH2 0x3551 DUP2 PUSH2 0x353C JUMP JUMPDEST DUP3 MSTORE POP POP JUMP JUMPDEST PUSH2 0x3560 DUP2 PUSH2 0x3456 JUMP JUMPDEST DUP3 MSTORE POP POP JUMP JUMPDEST PUSH2 0x356F DUP2 PUSH2 0x33D3 JUMP JUMPDEST DUP3 MSTORE POP POP JUMP JUMPDEST PUSH1 0x0 PUSH1 0xC0 DUP3 ADD SWAP1 POP PUSH2 0x358A PUSH1 0x0 DUP4 ADD DUP10 PUSH2 0x3548 JUMP JUMPDEST PUSH2 0x3597 PUSH1 0x20 DUP4 ADD DUP9 PUSH2 0x3548 JUMP JUMPDEST PUSH2 0x35A4 PUSH1 0x40 DUP4 ADD DUP8 PUSH2 0x3557 JUMP JUMPDEST PUSH2 0x35B1 PUSH1 0x60 DUP4 ADD DUP7 PUSH2 0x3557 JUMP JUMPDEST PUSH2 0x35BE PUSH1 0x80 DUP4 ADD DUP6 PUSH2 0x3566 JUMP JUMPDEST PUSH2 0x35CB PUSH1 0xA0 DUP4 ADD DUP5 PUSH2 0x3566 JUMP JUMPDEST SWAP8 SWAP7 POP POP POP POP POP POP POP JUMP JUMPDEST PUSH1 0x0 PUSH1 0x20 DUP3 ADD SWAP1 POP PUSH2 0x35EB PUSH1 0x0 DUP4 ADD DUP5 PUSH2 0x3566 JUMP JUMPDEST SWAP3 SWAP2 POP POP JUMP JUMPDEST PUSH1 0x0 PUSH1 0x20 DUP3 ADD SWAP1 POP PUSH2 0x3606 PUSH1 0x0 DUP4 ADD DUP5 PUSH2 0x3557 JUMP JUMPDEST SWAP3 SWAP2 POP POP JUMP JUMPDEST PUSH1 0x0 DUP2 MLOAD SWAP1 POP SWAP2 SWAP1 POP JUMP JUMPDEST PUSH1 0x0 DUP3 DUP3 MSTORE PUSH1 0x20 DUP3 ADD SWAP1 POP SWAP3 SWAP2 POP POP JUMP JUMPDEST PUSH1 0x0 DUP2 SWAP1 POP PUSH1 0x20 DUP3 ADD SWAP1 POP SWAP2 SWAP1 POP JUMP JUMPDEST PUSH2 0x3641 DUP2 PUSH2 0x3456 JUMP JUMPDEST DUP3 MSTORE POP POP JUMP JUMPDEST PUSH2 0x3650 DUP2 PUSH2 0x33D3 JUMP JUMPDEST DUP3 MSTORE POP POP JUMP JUMPDEST PUSH1 0x60 DUP3 ADD PUSH1 0x0 DUP3 ADD MLOAD PUSH2 0x366C PUSH1 0x0 DUP6 ADD DUP3 PUSH2 0x3638 JUMP JUMPDEST POP PUSH1 0x20 DUP3 ADD MLOAD PUSH2 0x367F PUSH1 0x20 DUP6 ADD DUP3 PUSH2 0x3647 JUMP JUMPDEST POP PUSH1 0x40 DUP3 ADD MLOAD PUSH2 0x3692 PUSH1 0x40 DUP6 ADD DUP3 PUSH2 0x3647 JUMP JUMPDEST POP POP POP POP JUMP JUMPDEST PUSH1 0x0 PUSH2 0x36A4 DUP4 DUP4 PUSH2 0x3656 JUMP JUMPDEST PUSH1 0x60 DUP4 ADD SWAP1 POP SWAP3 SWAP2 POP POP JUMP JUMPDEST PUSH1 0x0 PUSH1 0x20 DUP3 ADD SWAP1 POP SWAP2 SWAP1 POP JUMP JUMPDEST PUSH1 0x0 PUSH2 0x36C8 DUP3 PUSH2 0x360C JUMP JUMPDEST PUSH2 0x36D2 DUP2 DUP6 PUSH2 0x3617 JUMP JUMPDEST SWAP4 POP PUSH2 0x36DD DUP4 PUSH2 0x3628 JUMP JUMPDEST DUP1 PUSH1 0x0 JUMPDEST DUP4 DUP2 LT ISZERO PUSH2 0x370E JUMPI DUP2 MLOAD PUSH2 0x36F5 DUP9 DUP3 PUSH2 0x3698 JUMP JUMPDEST SWAP8 POP PUSH2 0x3700 DUP4 PUSH2 0x36B0 JUMP JUMPDEST SWAP3 POP POP PUSH1 0x1 DUP2 ADD SWAP1 POP PUSH2 0x36E1 JUMP JUMPDEST POP DUP6 SWAP4 POP POP POP POP SWAP3 SWAP2 POP POP JUMP JUMPDEST PUSH1 0x0 PUSH1 0x20 DUP3 ADD SWAP1 POP DUP2 DUP2 SUB PUSH1 0x0 DUP4 ADD MSTORE PUSH2 0x3735 DUP2 DUP5 PUSH2 0x36BD JUMP JUMPDEST SWAP1 POP SWAP3 SWAP2 POP POP JUMP JUMPDEST PUSH1 0x0 PUSH1 0xFF DUP3 AND SWAP1 POP SWAP2 SWAP1 POP JUMP JUMPDEST PUSH2 0x3753 DUP2 PUSH2 0x373D JUMP JUMPDEST DUP2 EQ PUSH2 0x375E JUMPI PUSH1 0x0 DUP1 REVERT JUMPDEST POP JUMP JUMPDEST PUSH1 0x0 DUP2 CALLDATALOAD SWAP1 POP PUSH2 0x3770 DUP2 PUSH2 0x374A JUMP JUMPDEST SWAP3 SWAP2 POP POP JUMP JUMPDEST PUSH1 0x0 PUSH1 0x20 DUP3 DUP5 SUB SLT ISZERO PUSH2 0x378C JUMPI PUSH2 0x378B PUSH2 0x33CE JUMP JUMPDEST JUMPDEST PUSH1 0x0 PUSH2 0x379A DUP5 DUP3 DUP6 ADD PUSH2 0x3761 JUMP JUMPDEST SWAP2 POP POP SWAP3 SWAP2 POP POP JUMP JUMPDEST PUSH1 0x0 DUP1 PUSH1 0x40 DUP4 DUP6 SUB SLT ISZERO PUSH2 0x37BA JUMPI PUSH2 0x37B9 PUSH2 0x33CE JUMP JUMPDEST JUMPDEST PUSH1 0x0 PUSH2 0x37C8 DUP6 DUP3 DUP7 ADD PUSH2 0x347F JUMP JUMPDEST SWAP3 POP POP PUSH1 0x20 PUSH2 0x37D9 DUP6 DUP3 DUP7 ADD PUSH2 0x33F4 JUMP JUMPDEST SWAP2 POP POP SWAP3 POP SWAP3 SWAP1 POP JUMP JUMPDEST PUSH2 0x37EC DUP2 PUSH2 0x373D JUMP JUMPDEST DUP3 MSTORE POP POP JUMP JUMPDEST PUSH1 0x0 PUSH1 0x20 DUP3 ADD SWAP1 POP PUSH2 0x3807 PUSH1 0x0 DUP4 ADD DUP5 PUSH2 0x37E3 JUMP JUMPDEST SWAP3 SWAP2 POP POP JUMP JUMPDEST PUSH1 0x0 DUP1 PUSH1 0x0 PUSH1 0x60 DUP5 DUP7 SUB SLT ISZERO PUSH2 0x3826 JUMPI PUSH2 0x3825 PUSH2 0x33CE JUMP JUMPDEST JUMPDEST PUSH1 0x0 PUSH2 0x3834 DUP7 DUP3 DUP8 ADD PUSH2 0x347F JUMP JUMPDEST SWAP4 POP POP PUSH1 0x20 PUSH2 0x3845 DUP7 DUP3 DUP8 ADD PUSH2 0x347F JUMP JUMPDEST SWAP3 POP POP PUSH1 0x40 PUSH2 0x3856 DUP7 DUP3 DUP8 ADD PUSH2 0x347F JUMP JUMPDEST SWAP2 POP POP SWAP3 POP SWAP3 POP SWAP3 JUMP JUMPDEST PUSH2 0x3869 DUP2 PUSH2 0x353C JUMP JUMPDEST DUP3 MSTORE POP POP JUMP JUMPDEST PUSH1 0x0 DUP2 MLOAD SWAP1 POP SWAP2 SWAP1 POP JUMP JUMPDEST PUSH1 0x0 DUP3 DUP3 MSTORE PUSH1 0x20 DUP3 ADD SWAP1 POP SWAP3 SWAP2 POP POP JUMP JUMPDEST PUSH1 0x0 DUP2 SWAP1 POP PUSH1 0x20 DUP3 ADD SWAP1 POP SWAP2 SWAP1 POP JUMP JUMPDEST PUSH1 0x0 PUSH2 0x38A7 DUP4 DUP4 PUSH2 0x3638 JUMP JUMPDEST PUSH1 0x20 DUP4 ADD SWAP1 POP SWAP3 SWAP2 POP POP JUMP JUMPDEST PUSH1 0x0 PUSH1 0x20 DUP3 ADD SWAP1 POP SWAP2 SWAP1 POP JUMP JUMPDEST PUSH1 0x0 PUSH2 0x38CB DUP3 PUSH2 0x386F JUMP JUMPDEST PUSH2 0x38D5 DUP2 DUP6 PUSH2 0x387A JUMP JUMPDEST SWAP4 POP PUSH2 0x38E0 DUP4 PUSH2 0x388B JUMP JUMPDEST DUP1 PUSH1 0x0 JUMPDEST DUP4 DUP2 LT ISZERO PUSH2 0x3911 JUMPI DUP2 MLOAD PUSH2 0x38F8 DUP9 DUP3 PUSH2 0x389B JUMP JUMPDEST SWAP8 POP PUSH2 0x3903 DUP4 PUSH2 0x38B3 JUMP JUMPDEST SWAP3 POP POP PUSH1 0x1 DUP2 ADD SWAP1 POP PUSH2 0x38E4 JUMP JUMPDEST POP DUP6 SWAP4 POP POP POP POP SWAP3 SWAP2 POP POP JUMP JUMPDEST PUSH1 0x0 PUSH1 0xE0 DUP4 ADD PUSH1 0x0 DUP4 ADD MLOAD PUSH2 0x3936 PUSH1 0x0 DUP7 ADD DUP3 PUSH2 0x3860 JUMP JUMPDEST POP PUSH1 0x20 DUP4 ADD MLOAD PUSH2 0x3949 PUSH1 0x20 DUP7 ADD DUP3 PUSH2 0x3860 JUMP JUMPDEST POP PUSH1 0x40 DUP4 ADD MLOAD PUSH2 0x395C PUSH1 0x40 DUP7 ADD DUP3 PUSH2 0x3638 JUMP JUMPDEST POP PUSH1 0x60 DUP4 ADD MLOAD PUSH2 0x396F PUSH1 0x60 DUP7 ADD DUP3 PUSH2 0x3638 JUMP JUMPDEST POP PUSH1 0x80 DUP4 ADD MLOAD PUSH2 0x3982 PUSH1 0x80 DUP7 ADD DUP3 PUSH2 0x3647 JUMP JUMPDEST POP PUSH1 0xA0 DUP4 ADD MLOAD PUSH2 0x3995 PUSH1 0xA0 DUP7 ADD DUP3 PUSH2 0x3647 JUMP JUMPDEST POP PUSH1 0xC0 DUP4 ADD MLOAD DUP5 DUP3 SUB PUSH1 0xC0 DUP7 ADD MSTORE PUSH2 0x39AD DUP3 DUP3 PUSH2 0x38C0 JUMP JUMPDEST SWAP2 POP POP DUP1 SWAP2 POP POP SWAP3 SWAP2 POP POP JUMP JUMPDEST PUSH1 0x0 PUSH1 0x20 DUP3 ADD SWAP1 POP DUP2 DUP2 SUB PUSH1 0x0 DUP4 ADD MSTORE PUSH2 0x39D4 DUP2 DUP5 PUSH2 0x391E JUMP JUMPDEST SWAP1 POP SWAP3 SWAP2 POP POP JUMP JUMPDEST PUSH1 0x0 DUP2 MLOAD SWAP1 POP SWAP2 SWAP1 POP JUMP JUMPDEST PUSH1 0x0 DUP3 DUP3 MSTORE PUSH1 0x20 DUP3 ADD SWAP1 POP SWAP3 SWAP2 POP POP JUMP JUMPDEST PUSH1 0x0 DUP2 SWAP1 POP PUSH1 0x20 DUP3 ADD SWAP1 POP SWAP2 SWAP1 POP JUMP JUMPDEST PUSH32 0x4E487B7100000000000000000000000000000000000000000000000000000000 PUSH1 0x0 MSTORE PUSH1 0x21 PUSH1 0x4 MSTORE PUSH1 0x24 PUSH1 0x0 REVERT JUMPDEST PUSH1 0x3 DUP2 LT PUSH2 0x3A48 JUMPI PUSH2 0x3A47 PUSH2 0x3A08 JUMP JUMPDEST JUMPDEST POP JUMP JUMPDEST PUSH1 0x0 DUP2 SWAP1 POP PUSH2 0x3A59 DUP3 PUSH2 0x3A37 JUMP JUMPDEST SWAP2 SWAP1 POP JUMP JUMPDEST PUSH1 0x0 PUSH2 0x3A69 DUP3 PUSH2 0x3A4B JUMP JUMPDEST SWAP1 POP SWAP2 SWAP1 POP JUMP JUMPDEST PUSH2 0x3A79 DUP2 PUSH2 0x3A5E JUMP JUMPDEST DUP3 MSTORE POP POP JUMP JUMPDEST PUSH1 0x80 DUP3 ADD PUSH1 0x0 DUP3 ADD MLOAD PUSH2 0x3A95 PUSH1 0x0 DUP6 ADD DUP3 PUSH2 0x3638 JUMP JUMPDEST POP PUSH1 0x20 DUP3 ADD MLOAD PUSH2 0x3AA8 PUSH1 0x20 DUP6 ADD DUP3 PUSH2 0x3647 JUMP JUMPDEST POP PUSH1 0x40 DUP3 ADD MLOAD PUSH2 0x3ABB PUSH1 0x40 DUP6 ADD DUP3 PUSH2 0x3647 JUMP JUMPDEST POP PUSH1 0x60 DUP3 ADD MLOAD PUSH2 0x3ACE PUSH1 0x60 DUP6 ADD DUP3 PUSH2 0x3A70 JUMP JUMPDEST POP POP POP POP JUMP JUMPDEST PUSH1 0x0 PUSH2 0x3AE0 DUP4 DUP4 PUSH2 0x3A7F JUMP JUMPDEST PUSH1 0x80 DUP4 ADD SWAP1 POP SWAP3 SWAP2 POP POP JUMP JUMPDEST PUSH1 0x0 PUSH1 0x20 DUP3 ADD SWAP1 POP SWAP2 SWAP1 POP JUMP JUMPDEST PUSH1 0x0 PUSH2 0x3B04 DUP3 PUSH2 0x39DC JUMP JUMPDEST PUSH2 0x3B0E DUP2 DUP6 PUSH2 0x39E7 JUMP JUMPDEST SWAP4 POP PUSH2 0x3B19 DUP4 PUSH2 0x39F8 JUMP JUMPDEST DUP1 PUSH1 0x0 JUMPDEST DUP4 DUP2 LT ISZERO PUSH2 0x3B4A JUMPI DUP2 MLOAD PUSH2 0x3B31 DUP9 DUP3 PUSH2 0x3AD4 JUMP JUMPDEST SWAP8 POP PUSH2 0x3B3C DUP4 PUSH2 0x3AEC JUMP JUMPDEST SWAP3 POP POP PUSH1 0x1 DUP2 ADD SWAP1 POP PUSH2 0x3B1D JUMP JUMPDEST POP DUP6 SWAP4 POP POP POP POP SWAP3 SWAP2 POP POP JUMP JUMPDEST PUSH1 0x0 PUSH1 0x20 DUP3 ADD SWAP1 POP DUP2 DUP2 SUB PUSH1 0x0 DUP4 ADD MSTORE PUSH2 0x3B71 DUP2 DUP5 PUSH2 0x3AF9 JUMP JUMPDEST SWAP1 POP SWAP3 SWAP2 POP POP JUMP JUMPDEST PUSH1 0x0 DUP3 DUP3 MSTORE PUSH1 0x20 DUP3 ADD SWAP1 POP SWAP3 SWAP2 POP POP JUMP JUMPDEST PUSH32 0x4D656D626572736869703A43616C6C6572206973206E6F74206F776E65720000 PUSH1 0x0 DUP3 ADD MSTORE POP JUMP JUMPDEST PUSH1 0x0 PUSH2 0x3BC0 PUSH1 0x1E DUP4 PUSH2 0x3B79 JUMP JUMPDEST SWAP2 POP PUSH2 0x3BCB DUP3 PUSH2 0x3B8A JUMP JUMPDEST PUSH1 0x20 DUP3 ADD SWAP1 POP SWAP2 SWAP1 POP JUMP JUMPDEST PUSH1 0x0 PUSH1 0x20 DUP3 ADD SWAP1 POP DUP2 DUP2 SUB PUSH1 0x0 DUP4 ADD MSTORE PUSH2 0x3BEF DUP2 PUSH2 0x3BB3 JUMP JUMPDEST SWAP1 POP SWAP2 SWAP1 POP JUMP JUMPDEST PUSH32 0x4D656D626572736869703A54686520696E7669746174696F6E20616464726573 PUSH1 0x0 DUP3 ADD MSTORE PUSH32 0x73206D75737420626520626F756E640000000000000000000000000000000000 PUSH1 0x20 DUP3 ADD MSTORE POP JUMP JUMPDEST PUSH1 0x0 PUSH2 0x3C52 PUSH1 0x2F DUP4 PUSH2 0x3B79 JUMP JUMPDEST SWAP2 POP PUSH2 0x3C5D DUP3 PUSH2 0x3BF6 JUMP JUMPDEST PUSH1 0x40 DUP3 ADD SWAP1 POP SWAP2 SWAP1 POP JUMP JUMPDEST PUSH1 0x0 PUSH1 0x20 DUP3 ADD SWAP1 POP DUP2 DUP2 SUB PUSH1 0x0 DUP4 ADD MSTORE PUSH2 0x3C81 DUP2 PUSH2 0x3C45 JUMP JUMPDEST SWAP1 POP SWAP2 SWAP1 POP JUMP JUMPDEST PUSH32 0x4D656D626572736869703A4475706C6963617465207061727469636970617469 PUSH1 0x0 DUP3 ADD MSTORE PUSH32 0x6F6E206973206E6F7420616C6C6F776564000000000000000000000000000000 PUSH1 0x20 DUP3 ADD MSTORE POP JUMP JUMPDEST PUSH1 0x0 PUSH2 0x3CE4 PUSH1 0x31 DUP4 PUSH2 0x3B79 JUMP JUMPDEST SWAP2 POP PUSH2 0x3CEF DUP3 PUSH2 0x3C88 JUMP JUMPDEST PUSH1 0x40 DUP3 ADD SWAP1 POP SWAP2 SWAP1 POP JUMP JUMPDEST PUSH1 0x0 PUSH1 0x20 DUP3 ADD SWAP1 POP DUP2 DUP2 SUB PUSH1 0x0 DUP4 ADD MSTORE PUSH2 0x3D13 DUP2 PUSH2 0x3CD7 JUMP JUMPDEST SWAP1 POP SWAP2 SWAP1 POP JUMP JUMPDEST PUSH32 0x4D656D626572736869703A496E76616C6964206F70657261746F720000000000 PUSH1 0x0 DUP3 ADD MSTORE POP JUMP JUMPDEST PUSH1 0x0 PUSH2 0x3D50 PUSH1 0x1B DUP4 PUSH2 0x3B79 JUMP JUMPDEST SWAP2 POP PUSH2 0x3D5B DUP3 PUSH2 0x3D1A JUMP JUMPDEST PUSH1 0x20 DUP3 ADD SWAP1 POP SWAP2 SWAP1 POP JUMP JUMPDEST PUSH1 0x0 PUSH1 0x20 DUP3 ADD SWAP1 POP DUP2 DUP2 SUB PUSH1 0x0 DUP4 ADD MSTORE PUSH2 0x3D7F DUP2 PUSH2 0x3D43 JUMP JUMPDEST SWAP1 POP SWAP2 SWAP1 POP JUMP JUMPDEST PUSH32 0x4D656D626572736869703A496E76616C69642070757263686173696E6720616D PUSH1 0x0 DUP3 ADD MSTORE PUSH32 0x6F756E7400000000000000000000000000000000000000000000000000000000 PUSH1 0x20 DUP3 ADD MSTORE POP JUMP JUMPDEST PUSH1 0x0 PUSH2 0x3DE2 PUSH1 0x24 DUP4 PUSH2 0x3B79 JUMP JUMPDEST SWAP2 POP PUSH2 0x3DED DUP3 PUSH2 0x3D86 JUMP JUMPDEST PUSH1 0x40 DUP3 ADD SWAP1 POP SWAP2 SWAP1 POP JUMP JUMPDEST PUSH1 0x0 PUSH1 0x20 DUP3 ADD SWAP1 POP DUP2 DUP2 SUB PUSH1 0x0 DUP4 ADD MSTORE PUSH2 0x3E11 DUP2 PUSH2 0x3DD5 JUMP JUMPDEST SWAP1 POP SWAP2 SWAP1 POP JUMP JUMPDEST PUSH32 0x4E487B7100000000000000000000000000000000000000000000000000000000 PUSH1 0x0 MSTORE PUSH1 0x11 PUSH1 0x4 MSTORE PUSH1 0x24 PUSH1 0x0 REVERT JUMPDEST PUSH1 0x0 PUSH2 0x3E52 DUP3 PUSH2 0x33D3 JUMP JUMPDEST SWAP2 POP PUSH2 0x3E5D DUP4 PUSH2 0x33D3 JUMP JUMPDEST SWAP3 POP DUP3 DUP3 MUL PUSH2 0x3E6B DUP2 PUSH2 0x33D3 JUMP JUMPDEST SWAP2 POP DUP3 DUP3 DIV DUP5 EQ DUP4 ISZERO OR PUSH2 0x3E82 JUMPI PUSH2 0x3E81 PUSH2 0x3E18 JUMP JUMPDEST JUMPDEST POP SWAP3 SWAP2 POP POP JUMP JUMPDEST PUSH32 0x4E487B7100000000000000000000000000000000000000000000000000000000 PUSH1 0x0 MSTORE PUSH1 0x12 PUSH1 0x4 MSTORE PUSH1 0x24 PUSH1 0x0 REVERT JUMPDEST PUSH1 0x0 PUSH2 0x3EC3 DUP3 PUSH2 0x33D3 JUMP JUMPDEST SWAP2 POP PUSH2 0x3ECE DUP4 PUSH2 0x33D3 JUMP JUMPDEST SWAP3 POP DUP3 PUSH2 0x3EDE JUMPI PUSH2 0x3EDD PUSH2 0x3E89 JUMP JUMPDEST JUMPDEST DUP3 DUP3 DIV SWAP1 POP SWAP3 SWAP2 POP POP JUMP JUMPDEST PUSH1 0x0 PUSH2 0x3EF4 DUP3 PUSH2 0x33D3 JUMP JUMPDEST SWAP2 POP PUSH2 0x3EFF DUP4 PUSH2 0x33D3 JUMP JUMPDEST SWAP3 POP DUP3 DUP3 SUB SWAP1 POP DUP2 DUP2 GT ISZERO PUSH2 0x3F17 JUMPI PUSH2 0x3F16 PUSH2 0x3E18 JUMP JUMPDEST JUMPDEST SWAP3 SWAP2 POP POP JUMP JUMPDEST PUSH32 0x4D656D626572736869703A5A65726F20696E697469616C206164647265737300 PUSH1 0x0 DUP3 ADD MSTORE POP JUMP JUMPDEST PUSH1 0x0 PUSH2 0x3F53 PUSH1 0x1F DUP4 PUSH2 0x3B79 JUMP JUMPDEST SWAP2 POP PUSH2 0x3F5E DUP3 PUSH2 0x3F1D JUMP JUMPDEST PUSH1 0x20 DUP3 ADD SWAP1 POP SWAP2 SWAP1 POP JUMP JUMPDEST PUSH1 0x0 PUSH1 0x20 DUP3 ADD SWAP1 POP DUP2 DUP2 SUB PUSH1 0x0 DUP4 ADD MSTORE PUSH2 0x3F82 DUP2 PUSH2 0x3F46 JUMP JUMPDEST SWAP1 POP SWAP2 SWAP1 POP JUMP JUMPDEST PUSH32 0x4D656D626572736869703A4E6F7420656C696769626C65000000000000000000 PUSH1 0x0 DUP3 ADD MSTORE POP JUMP JUMPDEST PUSH1 0x0 PUSH2 0x3FBF PUSH1 0x17 DUP4 PUSH2 0x3B79 JUMP JUMPDEST SWAP2 POP PUSH2 0x3FCA DUP3 PUSH2 0x3F89 JUMP JUMPDEST PUSH1 0x20 DUP3 ADD SWAP1 POP SWAP2 SWAP1 POP JUMP JUMPDEST PUSH1 0x0 PUSH1 0x20 DUP3 ADD SWAP1 POP DUP2 DUP2 SUB PUSH1 0x0 DUP4 ADD MSTORE PUSH2 0x3FEE DUP2 PUSH2 0x3FB2 JUMP JUMPDEST SWAP1 POP SWAP2 SWAP1 POP JUMP JUMPDEST PUSH32 0x4D656D626572736869703A4F6E6C792076697000000000000000000000000000 PUSH1 0x0 DUP3 ADD MSTORE POP JUMP JUMPDEST PUSH1 0x0 PUSH2 0x402B PUSH1 0x13 DUP4 PUSH2 0x3B79 JUMP JUMPDEST SWAP2 POP PUSH2 0x4036 DUP3 PUSH2 0x3FF5 JUMP JUMPDEST PUSH1 0x20 DUP3 ADD SWAP1 POP SWAP2 SWAP1 POP JUMP JUMPDEST PUSH1 0x0 PUSH1 0x20 DUP3 ADD SWAP1 POP DUP2 DUP2 SUB PUSH1 0x0 DUP4 ADD MSTORE PUSH2 0x405A DUP2 PUSH2 0x401E JUMP JUMPDEST SWAP1 POP SWAP2 SWAP1 POP JUMP JUMPDEST PUSH32 0x4D656D626572736869703A4F6E6C79206F6E6365000000000000000000000000 PUSH1 0x0 DUP3 ADD MSTORE POP JUMP JUMPDEST PUSH1 0x0 PUSH2 0x4097 PUSH1 0x14 DUP4 PUSH2 0x3B79 JUMP JUMPDEST SWAP2 POP PUSH2 0x40A2 DUP3 PUSH2 0x4061 JUMP JUMPDEST PUSH1 0x20 DUP3 ADD SWAP1 POP SWAP2 SWAP1 POP JUMP JUMPDEST PUSH1 0x0 PUSH1 0x20 DUP3 ADD SWAP1 POP DUP2 DUP2 SUB PUSH1 0x0 DUP4 ADD MSTORE PUSH2 0x40C6 DUP2 PUSH2 0x408A JUMP JUMPDEST SWAP1 POP SWAP2 SWAP1 POP JUMP JUMPDEST PUSH32 0x4D656D626572736869703A496E76616C696420636C61696D20616D6F756E7400 PUSH1 0x0 DUP3 ADD MSTORE POP JUMP JUMPDEST PUSH1 0x0 PUSH2 0x4103 PUSH1 0x1F DUP4 PUSH2 0x3B79 JUMP JUMPDEST SWAP2 POP PUSH2 0x410E DUP3 PUSH2 0x40CD JUMP JUMPDEST PUSH1 0x20 DUP3 ADD SWAP1 POP SWAP2 SWAP1 POP JUMP JUMPDEST PUSH1 0x0 PUSH1 0x20 DUP3 ADD SWAP1 POP DUP2 DUP2 SUB PUSH1 0x0 DUP4 ADD MSTORE PUSH2 0x4132 DUP2 PUSH2 0x40F6 JUMP JUMPDEST SWAP1 POP SWAP2 SWAP1 POP JUMP JUMPDEST PUSH1 0x0 PUSH1 0x40 DUP3 ADD SWAP1 POP PUSH2 0x414E PUSH1 0x0 DUP4 ADD DUP6 PUSH2 0x3557 JUMP JUMPDEST PUSH2 0x415B PUSH1 0x20 DUP4 ADD DUP5 PUSH2 0x3566 JUMP JUMPDEST SWAP4 SWAP3 POP POP POP JUMP JUMPDEST PUSH1 0x0 DUP2 MLOAD SWAP1 POP SWAP2 SWAP1 POP JUMP JUMPDEST PUSH1 0x0 DUP2 SWAP1 POP SWAP3 SWAP2 POP POP JUMP JUMPDEST PUSH1 0x0 JUMPDEST DUP4 DUP2 LT ISZERO PUSH2 0x4196 JUMPI DUP1 DUP3 ADD MLOAD DUP2 DUP5 ADD MSTORE PUSH1 0x20 DUP2 ADD SWAP1 POP PUSH2 0x417B JUMP JUMPDEST PUSH1 0x0 DUP5 DUP5 ADD MSTORE POP POP POP POP JUMP JUMPDEST PUSH1 0x0 PUSH2 0x41AD DUP3 PUSH2 0x4162 JUMP JUMPDEST PUSH2 0x41B7 DUP2 DUP6 PUSH2 0x416D JUMP JUMPDEST SWAP4 POP PUSH2 0x41C7 DUP2 DUP6 PUSH1 0x20 DUP7 ADD PUSH2 0x4178 JUMP JUMPDEST DUP1 DUP5 ADD SWAP2 POP POP SWAP3 SWAP2 POP POP JUMP JUMPDEST PUSH1 0x0 PUSH2 0x41DF DUP3 DUP5 PUSH2 0x41A2 JUMP JUMPDEST SWAP2 POP DUP2 SWAP1 POP SWAP3 SWAP2 POP POP JUMP JUMPDEST PUSH2 0x41F3 DUP2 PUSH2 0x353C JUMP JUMPDEST DUP2 EQ PUSH2 0x41FE JUMPI PUSH1 0x0 DUP1 REVERT JUMPDEST POP JUMP JUMPDEST PUSH1 0x0 DUP2 MLOAD SWAP1 POP PUSH2 0x4210 DUP2 PUSH2 0x41EA JUMP JUMPDEST SWAP3 SWAP2 POP POP JUMP JUMPDEST PUSH1 0x0 PUSH1 0x20 DUP3 DUP5 SUB SLT ISZERO PUSH2 0x422C JUMPI PUSH2 0x422B PUSH2 0x33CE JUMP JUMPDEST JUMPDEST PUSH1 0x0 PUSH2 0x423A DUP5 DUP3 DUP6 ADD PUSH2 0x4201 JUMP JUMPDEST SWAP2 POP POP SWAP3 SWAP2 POP POP JUMP JUMPDEST PUSH32 0x5472616E7366657248656C7065723A205452414E534645525F4641494C454400 PUSH1 0x0 DUP3 ADD MSTORE POP JUMP JUMPDEST PUSH1 0x0 PUSH2 0x4279 PUSH1 0x1F DUP4 PUSH2 0x3B79 JUMP JUMPDEST SWAP2 POP PUSH2 0x4284 DUP3 PUSH2 0x4243 JUMP JUMPDEST PUSH1 0x20 DUP3 ADD SWAP1 POP SWAP2 SWAP1 POP JUMP JUMPDEST PUSH1 0x0 PUSH1 0x20 DUP3 ADD SWAP1 POP DUP2 DUP2 SUB PUSH1 0x0 DUP4 ADD MSTORE PUSH2 0x42A8 DUP2 PUSH2 0x426C JUMP JUMPDEST SWAP1 POP SWAP2 SWAP1 POP JUMP JUMPDEST PUSH1 0x0 PUSH14 0xFFFFFFFFFFFFFFFFFFFFFFFFFFFF DUP3 AND SWAP1 POP SWAP2 SWAP1 POP JUMP JUMPDEST PUSH2 0x42D2 DUP2 PUSH2 0x42AF JUMP JUMPDEST DUP2 EQ PUSH2 0x42DD JUMPI PUSH1 0x0 DUP1 REVERT JUMPDEST POP JUMP JUMPDEST PUSH1 0x0 DUP2 MLOAD SWAP1 POP PUSH2 0x42EF DUP2 PUSH2 0x42C9 JUMP JUMPDEST SWAP3 SWAP2 POP POP JUMP JUMPDEST PUSH1 0x0 PUSH4 0xFFFFFFFF DUP3 AND SWAP1 POP SWAP2 SWAP1 POP JUMP JUMPDEST PUSH2 0x430E DUP2 PUSH2 0x42F5 JUMP JUMPDEST DUP2 EQ PUSH2 0x4319 JUMPI PUSH1 0x0 DUP1 REVERT JUMPDEST POP JUMP JUMPDEST PUSH1 0x0 DUP2 MLOAD SWAP1 POP PUSH2 0x432B DUP2 PUSH2 0x4305 JUMP JUMPDEST SWAP3 SWAP2 POP POP JUMP JUMPDEST PUSH1 0x0 DUP1 PUSH1 0x0 PUSH1 0x60 DUP5 DUP7 SUB SLT ISZERO PUSH2 0x434A JUMPI PUSH2 0x4349 PUSH2 0x33CE JUMP JUMPDEST JUMPDEST PUSH1 0x0 PUSH2 0x4358 DUP7 DUP3 DUP8 ADD PUSH2 0x42E0 JUMP JUMPDEST SWAP4 POP POP PUSH1 0x20 PUSH2 0x4369 DUP7 DUP3 DUP8 ADD PUSH2 0x42E0 JUMP JUMPDEST SWAP3 POP POP PUSH1 0x40 PUSH2 0x437A DUP7 DUP3 DUP8 ADD PUSH2 0x431C JUMP JUMPDEST SWAP2 POP POP SWAP3 POP SWAP3 POP SWAP3 JUMP JUMPDEST PUSH32 0x556E697377617056324C6962726172793A20494E53554646494349454E545F49 PUSH1 0x0 DUP3 ADD MSTORE PUSH32 0x4E5055545F414D4F554E54000000000000000000000000000000000000000000 PUSH1 0x20 DUP3 ADD MSTORE POP JUMP JUMPDEST PUSH1 0x0 PUSH2 0x43E0 PUSH1 0x2B DUP4 PUSH2 0x3B79 JUMP JUMPDEST SWAP2 POP PUSH2 0x43EB DUP3 PUSH2 0x4384 JUMP JUMPDEST PUSH1 0x40 DUP3 ADD SWAP1 POP SWAP2 SWAP1 POP JUMP JUMPDEST PUSH1 0x0 PUSH1 0x20 DUP3 ADD SWAP1 POP DUP2 DUP2 SUB PUSH1 0x0 DUP4 ADD MSTORE PUSH2 0x440F DUP2 PUSH2 0x43D3 JUMP JUMPDEST SWAP1 POP SWAP2 SWAP1 POP JUMP JUMPDEST PUSH32 0x556E697377617056324C6962726172793A20494E53554646494349454E545F4C PUSH1 0x0 DUP3 ADD MSTORE PUSH32 0x4951554944495459000000000000000000000000000000000000000000000000 PUSH1 0x20 DUP3 ADD MSTORE POP JUMP JUMPDEST PUSH1 0x0 PUSH2 0x4472 PUSH1 0x28 DUP4 PUSH2 0x3B79 JUMP JUMPDEST SWAP2 POP PUSH2 0x447D DUP3 PUSH2 0x4416 JUMP JUMPDEST PUSH1 0x40 DUP3 ADD SWAP1 POP SWAP2 SWAP1 POP JUMP JUMPDEST PUSH1 0x0 PUSH1 0x20 DUP3 ADD SWAP1 POP DUP2 DUP2 SUB PUSH1 0x0 DUP4 ADD MSTORE PUSH2 0x44A1 DUP2 PUSH2 0x4465 JUMP JUMPDEST SWAP1 POP SWAP2 SWAP1 POP JUMP JUMPDEST PUSH1 0x0 PUSH1 0x60 DUP3 ADD SWAP1 POP PUSH2 0x44BD PUSH1 0x0 DUP4 ADD DUP7 PUSH2 0x3557 JUMP JUMPDEST PUSH2 0x44CA PUSH1 0x20 DUP4 ADD DUP6 PUSH2 0x3557 JUMP JUMPDEST PUSH2 0x44D7 PUSH1 0x40 DUP4 ADD DUP5 PUSH2 0x3566 JUMP JUMPDEST SWAP5 SWAP4 POP POP POP POP JUMP JUMPDEST PUSH32 0x5472616E7366657248656C7065723A205452414E534645525F46524F4D5F4641 PUSH1 0x0 DUP3 ADD MSTORE PUSH32 0x494C454400000000000000000000000000000000000000000000000000000000 PUSH1 0x20 DUP3 ADD MSTORE POP JUMP JUMPDEST PUSH1 0x0 PUSH2 0x453B PUSH1 0x24 DUP4 PUSH2 0x3B79 JUMP JUMPDEST SWAP2 POP PUSH2 0x4546 DUP3 PUSH2 0x44DF JUMP JUMPDEST PUSH1 0x40 DUP3 ADD SWAP1 POP SWAP2 SWAP1 POP JUMP JUMPDEST PUSH1 0x0 PUSH1 0x20 DUP3 ADD SWAP1 POP DUP2 DUP2 SUB PUSH1 0x0 DUP4 ADD MSTORE PUSH2 0x456A DUP2 PUSH2 0x452E JUMP JUMPDEST SWAP1 POP SWAP2 SWAP1 POP JUMP JUMPDEST PUSH1 0x0 PUSH2 0x457C DUP3 PUSH2 0x33D3 JUMP JUMPDEST SWAP2 POP PUSH2 0x4587 DUP4 PUSH2 0x33D3 JUMP JUMPDEST SWAP3 POP DUP3 DUP3 ADD SWAP1 POP DUP1 DUP3 GT ISZERO PUSH2 0x459F JUMPI PUSH2 0x459E PUSH2 0x3E18 JUMP JUMPDEST JUMPDEST SWAP3 SWAP2 POP POP JUMP JUMPDEST PUSH32 0x4E487B7100000000000000000000000000000000000000000000000000000000 PUSH1 0x0 MSTORE PUSH1 0x32 PUSH1 0x4 MSTORE PUSH1 0x24 PUSH1 0x0 REVERT JUMPDEST PUSH32 0x556E697377617056324C6962726172793A204944454E544943414C5F41444452 PUSH1 0x0 DUP3 ADD MSTORE PUSH32 0x4553534553000000000000000000000000000000000000000000000000000000 PUSH1 0x20 DUP3 ADD MSTORE POP JUMP JUMPDEST PUSH1 0x0 PUSH2 0x4630 PUSH1 0x25 DUP4 PUSH2 0x3B79 JUMP JUMPDEST SWAP2 POP PUSH2 0x463B DUP3 PUSH2 0x45D4 JUMP JUMPDEST PUSH1 0x40 DUP3 ADD SWAP1 POP SWAP2 SWAP1 POP JUMP JUMPDEST PUSH1 0x0 PUSH1 0x20 DUP3 ADD SWAP1 POP DUP2 DUP2 SUB PUSH1 0x0 DUP4 ADD MSTORE PUSH2 0x465F DUP2 PUSH2 0x4623 JUMP JUMPDEST SWAP1 POP SWAP2 SWAP1 POP JUMP JUMPDEST PUSH32 0x556E697377617056324C6962726172793A205A45524F5F414444524553530000 PUSH1 0x0 DUP3 ADD MSTORE POP JUMP JUMPDEST PUSH1 0x0 PUSH2 0x469C PUSH1 0x1E DUP4 PUSH2 0x3B79 JUMP JUMPDEST SWAP2 POP PUSH2 0x46A7 DUP3 PUSH2 0x4666 JUMP JUMPDEST PUSH1 0x20 DUP3 ADD SWAP1 POP SWAP2 SWAP1 POP JUMP JUMPDEST PUSH1 0x0 PUSH1 0x20 DUP3 ADD SWAP1 POP DUP2 DUP2 SUB PUSH1 0x0 DUP4 ADD MSTORE PUSH2 0x46CB DUP2 PUSH2 0x468F JUMP JUMPDEST SWAP1 POP SWAP2 SWAP1 POP JUMP JUMPDEST PUSH1 0x0 DUP2 PUSH1 0x60 SHL SWAP1 POP SWAP2 SWAP1 POP JUMP JUMPDEST PUSH1 0x0 PUSH2 0x46EA DUP3 PUSH2 0x46D2 JUMP JUMPDEST SWAP1 POP SWAP2 SWAP1 POP JUMP JUMPDEST PUSH1 0x0 PUSH2 0x46FC DUP3 PUSH2 0x46DF JUMP JUMPDEST SWAP1 POP SWAP2 SWAP1 POP JUMP JUMPDEST PUSH2 0x4714 PUSH2 0x470F DUP3 PUSH2 0x3456 JUMP JUMPDEST PUSH2 0x46F1 JUMP JUMPDEST DUP3 MSTORE POP POP JUMP JUMPDEST PUSH1 0x0 PUSH2 0x4726 DUP3 DUP6 PUSH2 0x4703 JUMP JUMPDEST PUSH1 0x14 DUP3 ADD SWAP2 POP PUSH2 0x4736 DUP3 DUP5 PUSH2 0x4703 JUMP JUMPDEST PUSH1 0x14 DUP3 ADD SWAP2 POP DUP2 SWAP1 POP SWAP4 SWAP3 POP POP POP JUMP JUMPDEST PUSH1 0x0 DUP2 SWAP1 POP SWAP3 SWAP2 POP POP JUMP JUMPDEST PUSH32 0xFF00000000000000000000000000000000000000000000000000000000000000 PUSH1 0x0 DUP3 ADD MSTORE POP JUMP JUMPDEST PUSH1 0x0 PUSH2 0x4787 PUSH1 0x1 DUP4 PUSH2 0x4746 JUMP JUMPDEST SWAP2 POP PUSH2 0x4792 DUP3 PUSH2 0x4751 JUMP JUMPDEST PUSH1 0x1 DUP3 ADD SWAP1 POP SWAP2 SWAP1 POP JUMP JUMPDEST PUSH1 0x0 DUP2 SWAP1 POP SWAP2 SWAP1 POP JUMP JUMPDEST PUSH1 0x0 DUP2 SWAP1 POP SWAP2 SWAP1 POP JUMP JUMPDEST PUSH2 0x47C2 PUSH2 0x47BD DUP3 PUSH2 0x479D JUMP JUMPDEST PUSH2 0x47A7 JUMP JUMPDEST DUP3 MSTORE POP POP JUMP JUMPDEST PUSH31 0xFB7F630766E6A796048EA87D01ACD3068E8FF67D078148A3FA3F4A84F69BD5 PUSH1 0x0 DUP3 ADD MSTORE POP JUMP JUMPDEST PUSH1 0x0 PUSH2 0x47FD PUSH1 0x20 DUP4 PUSH2 0x4746 JUMP JUMPDEST SWAP2 POP PUSH2 0x4808 DUP3 PUSH2 0x47C8 JUMP JUMPDEST PUSH1 0x20 DUP3 ADD SWAP1 POP SWAP2 SWAP1 POP JUMP JUMPDEST PUSH1 0x0 PUSH2 0x481E DUP3 PUSH2 0x477A JUMP JUMPDEST SWAP2 POP PUSH2 0x482A DUP3 DUP6 PUSH2 0x4703 JUMP JUMPDEST PUSH1 0x14 DUP3 ADD SWAP2 POP PUSH2 0x483A DUP3 DUP5 PUSH2 0x47B1 JUMP JUMPDEST PUSH1 0x20 DUP3 ADD SWAP2 POP PUSH2 0x4849 DUP3 PUSH2 0x47F0 JUMP JUMPDEST SWAP2 POP DUP2 SWAP1 POP SWAP4 SWAP3 POP POP POP JUMP JUMPDEST PUSH32 0x64732D6D6174682D6D756C2D6F766572666C6F77000000000000000000000000 PUSH1 0x0 DUP3 ADD MSTORE POP JUMP JUMPDEST PUSH1 0x0 PUSH2 0x488B PUSH1 0x14 DUP4 PUSH2 0x3B79 JUMP JUMPDEST SWAP2 POP PUSH2 0x4896 DUP3 PUSH2 0x4855 JUMP JUMPDEST PUSH1 0x20 DUP3 ADD SWAP1 POP SWAP2 SWAP1 POP JUMP JUMPDEST PUSH1 0x0 PUSH1 0x20 DUP3 ADD SWAP1 POP DUP2 DUP2 SUB PUSH1 0x0 DUP4 ADD MSTORE PUSH2 0x48BA DUP2 PUSH2 0x487E JUMP JUMPDEST SWAP1 POP SWAP2 SWAP1 POP JUMP JUMPDEST PUSH32 0x64732D6D6174682D6164642D6F766572666C6F77000000000000000000000000 PUSH1 0x0 DUP3 ADD MSTORE POP JUMP JUMPDEST PUSH1 0x0 PUSH2 0x48F7 PUSH1 0x14 DUP4 PUSH2 0x3B79 JUMP JUMPDEST SWAP2 POP PUSH2 0x4902 DUP3 PUSH2 0x48C1 JUMP JUMPDEST PUSH1 0x20 DUP3 ADD SWAP1 POP SWAP2 SWAP1 POP JUMP JUMPDEST PUSH1 0x0 PUSH1 0x20 DUP3 ADD SWAP1 POP DUP2 DUP2 SUB PUSH1 0x0 DUP4 ADD MSTORE PUSH2 0x4926 DUP2 PUSH2 0x48EA JUMP JUMPDEST SWAP1 POP SWAP2 SWAP1 POP JUMP JUMPDEST PUSH1 0x0 PUSH2 0x4938 DUP3 PUSH2 0x373D JUMP JUMPDEST SWAP2 POP PUSH2 0x4943 DUP4 PUSH2 0x373D JUMP JUMPDEST SWAP3 POP DUP3 DUP3 SUB SWAP1 POP PUSH1 0xFF DUP2 GT ISZERO PUSH2 0x495C JUMPI PUSH2 0x495B PUSH2 0x3E18 JUMP JUMPDEST JUMPDEST SWAP3 SWAP2 POP POP JUMP INVALID LOG2 PUSH5 0x6970667358 0x22 SLT KECCAK256 SWAP8 REVERT 0x5D 0xBE 0xCE 0xDD DUP3 0xB7 CALL 0x4A 0x2C 0x25 PUSH8 0x9CC54A3981345F8B 0xD0 JUMPI DUP12 SMOD SHL EXTCODESIZE SELFBALANCE EXTCODESIZE PUSH5 0xB11764736F PUSH13 0x63430008120033000000000000 "
				},
				"gasEstimates": {
					"creation": {
						"codeDepositCost": "3768000",
						"executionCost": "28528",
						"totalCost": "3796528"
					},
					"external": {
						"admin()": "2599",
						"bind(address)": "infinite",
						"claim(address,uint256)": "infinite",
						"emergency(address,uint256)": "infinite",
						"fixedPrice()": "2519",
						"fourPercent()": "2603",
						"getAmountOut()": "infinite",
						"getClaimRecordsInfo(address)": "infinite",
						"getTeamRewardInfo(address)": "infinite",
						"getUserInfo(address)": "infinite",
						"implementation()": "2559",
						"initialInviter()": "2603",
						"initialize(address,address,address,address,address)": "infinite",
						"maxLooked()": "2538",
						"purchasingVip(address)": "infinite",
						"setAdmin(address)": "27022",
						"setMaxLooked(uint8)": "26869",
						"tenPercent()": "2625",
						"token()": "2624",
						"twentyPercent()": "2625",
						"uniswapV2Factory()": "2537",
						"updateFixed(uint256)": "24711",
						"updatePercentReceiver(address,address,address)": "infinite",
						"usdt()": "2626",
						"userInfo(address)": "infinite"
					},
					"internal": {
						"distribute(address,uint256)": "infinite",
						"findVip(address,uint8)": "infinite",
						"lookFor(address)": "infinite",
						"updateInviter(address,uint256)": "infinite"
					}
				},
				"methodIdentifiers": {
					"admin()": "f851a440",
					"bind(address)": "81bac14f",
					"claim(address,uint256)": "aad3ec96",
					"emergency(address,uint256)": "3ec9ef2e",
					"fixedPrice()": "1efba6c2",
					"fourPercent()": "9e0060aa",
					"getAmountOut()": "57b2351d",
					"getClaimRecordsInfo(address)": "30be0cd9",
					"getTeamRewardInfo(address)": "f48aa84f",
					"getUserInfo(address)": "6386c1c7",
					"implementation()": "5c60da1b",
					"initialInviter()": "4e377201",
					"initialize(address,address,address,address,address)": "1459457a",
					"maxLooked()": "46e6dfe7",
					"purchasingVip(address)": "7a8af562",
					"setAdmin(address)": "704b6c02",
					"setMaxLooked(uint8)": "32870577",
					"tenPercent()": "5636f6ba",
					"token()": "fc0c546a",
					"twentyPercent()": "6a7f7477",
					"uniswapV2Factory()": "59d0f713",
					"updateFixed(uint256)": "0667afe2",
					"updatePercentReceiver(address,address,address)": "60fe4483",
					"usdt()": "2f48ab7d",
					"userInfo(address)": "1959a002"
				}
			},
			"storageLayout": {
				"storage": [
					{
						"astId": 3,
						"contract": "Membership.sol:MemberShip",
						"label": "admin",
						"offset": 0,
						"slot": "0",
						"type": "t_address"
					},
					{
						"astId": 5,
						"contract": "Membership.sol:MemberShip",
						"label": "implementation",
						"offset": 0,
						"slot": "1",
						"type": "t_address"
					},
					{
						"astId": 494,
						"contract": "Membership.sol:MemberShip",
						"label": "userInfo",
						"offset": 0,
						"slot": "2",
						"type": "t_mapping(t_address,t_struct(User)489_storage)"
					},
					{
						"astId": 500,
						"contract": "Membership.sol:MemberShip",
						"label": "teamRewards",
						"offset": 0,
						"slot": "3",
						"type": "t_mapping(t_address,t_array(t_struct(TeamReward)466_storage)dyn_storage)"
					},
					{
						"astId": 506,
						"contract": "Membership.sol:MemberShip",
						"label": "claimRecords",
						"offset": 0,
						"slot": "4",
						"type": "t_mapping(t_address,t_array(t_struct(ClaimRecords)473_storage)dyn_storage)"
					},
					{
						"astId": 508,
						"contract": "Membership.sol:MemberShip",
						"label": "initialInviter",
						"offset": 0,
						"slot": "5",
						"type": "t_address"
					},
					{
						"astId": 510,
						"contract": "Membership.sol:MemberShip",
						"label": "uniswapV2Factory",
						"offset": 0,
						"slot": "6",
						"type": "t_address"
					},
					{
						"astId": 512,
						"contract": "Membership.sol:MemberShip",
						"label": "token",
						"offset": 0,
						"slot": "7",
						"type": "t_address"
					},
					{
						"astId": 514,
						"contract": "Membership.sol:MemberShip",
						"label": "usdt",
						"offset": 0,
						"slot": "8",
						"type": "t_address"
					},
					{
						"astId": 516,
						"contract": "Membership.sol:MemberShip",
						"label": "twentyPercent",
						"offset": 0,
						"slot": "9",
						"type": "t_address"
					},
					{
						"astId": 518,
						"contract": "Membership.sol:MemberShip",
						"label": "tenPercent",
						"offset": 0,
						"slot": "10",
						"type": "t_address"
					},
					{
						"astId": 520,
						"contract": "Membership.sol:MemberShip",
						"label": "fourPercent",
						"offset": 0,
						"slot": "11",
						"type": "t_address"
					},
					{
						"astId": 522,
						"contract": "Membership.sol:MemberShip",
						"label": "fixedPrice",
						"offset": 0,
						"slot": "12",
						"type": "t_uint256"
					},
					{
						"astId": 524,
						"contract": "Membership.sol:MemberShip",
						"label": "maxLooked",
						"offset": 0,
						"slot": "13",
						"type": "t_uint8"
					}
				],
				"types": {
					"t_address": {
						"encoding": "inplace",
						"label": "address",
						"numberOfBytes": "20"
					},
					"t_array(t_address)dyn_storage": {
						"base": "t_address",
						"encoding": "dynamic_array",
						"label": "address[]",
						"numberOfBytes": "32"
					},
					"t_array(t_struct(ClaimRecords)473_storage)dyn_storage": {
						"base": "t_struct(ClaimRecords)473_storage",
						"encoding": "dynamic_array",
						"label": "struct MemberStorV1.ClaimRecords[]",
						"numberOfBytes": "32"
					},
					"t_array(t_struct(TeamReward)466_storage)dyn_storage": {
						"base": "t_struct(TeamReward)466_storage",
						"encoding": "dynamic_array",
						"label": "struct MemberStorV1.TeamReward[]",
						"numberOfBytes": "32"
					},
					"t_bool": {
						"encoding": "inplace",
						"label": "bool",
						"numberOfBytes": "1"
					},
					"t_enum(Express)456": {
						"encoding": "inplace",
						"label": "enum MemberStorV1.Express",
						"numberOfBytes": "1"
					},
					"t_mapping(t_address,t_array(t_struct(ClaimRecords)473_storage)dyn_storage)": {
						"encoding": "mapping",
						"key": "t_address",
						"label": "mapping(address => struct MemberStorV1.ClaimRecords[])",
						"numberOfBytes": "32",
						"value": "t_array(t_struct(ClaimRecords)473_storage)dyn_storage"
					},
					"t_mapping(t_address,t_array(t_struct(TeamReward)466_storage)dyn_storage)": {
						"encoding": "mapping",
						"key": "t_address",
						"label": "mapping(address => struct MemberStorV1.TeamReward[])",
						"numberOfBytes": "32",
						"value": "t_array(t_struct(TeamReward)466_storage)dyn_storage"
					},
					"t_mapping(t_address,t_struct(User)489_storage)": {
						"encoding": "mapping",
						"key": "t_address",
						"label": "mapping(address => struct MemberStorV1.User)",
						"numberOfBytes": "32",
						"value": "t_struct(User)489_storage"
					},
					"t_struct(ClaimRecords)473_storage": {
						"encoding": "inplace",
						"label": "struct MemberStorV1.ClaimRecords",
						"members": [
							{
								"astId": 468,
								"contract": "Membership.sol:MemberShip",
								"label": "receiver",
								"offset": 0,
								"slot": "0",
								"type": "t_address"
							},
							{
								"astId": 470,
								"contract": "Membership.sol:MemberShip",
								"label": "amount",
								"offset": 0,
								"slot": "1",
								"type": "t_uint256"
							},
							{
								"astId": 472,
								"contract": "Membership.sol:MemberShip",
								"label": "claimTime",
								"offset": 0,
								"slot": "2",
								"type": "t_uint256"
							}
						],
						"numberOfBytes": "96"
					},
					"t_struct(TeamReward)466_storage": {
						"encoding": "inplace",
						"label": "struct MemberStorV1.TeamReward",
						"members": [
							{
								"astId": 458,
								"contract": "Membership.sol:MemberShip",
								"label": "partner",
								"offset": 0,
								"slot": "0",
								"type": "t_address"
							},
							{
								"astId": 460,
								"contract": "Membership.sol:MemberShip",
								"label": "rewardValue",
								"offset": 0,
								"slot": "1",
								"type": "t_uint256"
							},
							{
								"astId": 462,
								"contract": "Membership.sol:MemberShip",
								"label": "rewardTime",
								"offset": 0,
								"slot": "2",
								"type": "t_uint256"
							},
							{
								"astId": 465,
								"contract": "Membership.sol:MemberShip",
								"label": "express",
								"offset": 0,
								"slot": "3",
								"type": "t_enum(Express)456"
							}
						],
						"numberOfBytes": "128"
					},
					"t_struct(User)489_storage": {
						"encoding": "inplace",
						"label": "struct MemberStorV1.User",
						"members": [
							{
								"astId": 475,
								"contract": "Membership.sol:MemberShip",
								"label": "isVip",
								"offset": 0,
								"slot": "0",
								"type": "t_bool"
							},
							{
								"astId": 477,
								"contract": "Membership.sol:MemberShip",
								"label": "isVips",
								"offset": 1,
								"slot": "0",
								"type": "t_bool"
							},
							{
								"astId": 479,
								"contract": "Membership.sol:MemberShip",
								"label": "inviter",
								"offset": 2,
								"slot": "0",
								"type": "t_address"
							},
							{
								"astId": 481,
								"contract": "Membership.sol:MemberShip",
								"label": "additionalInviter",
								"offset": 0,
								"slot": "1",
								"type": "t_address"
							},
							{
								"astId": 483,
								"contract": "Membership.sol:MemberShip",
								"label": "invitesNum",
								"offset": 0,
								"slot": "2",
								"type": "t_uint256"
							},
							{
								"astId": 485,
								"contract": "Membership.sol:MemberShip",
								"label": "totalTeamReward",
								"offset": 0,
								"slot": "3",
								"type": "t_uint256"
							},
							{
								"astId": 488,
								"contract": "Membership.sol:MemberShip",
								"label": "members",
								"offset": 0,
								"slot": "4",
								"type": "t_array(t_address)dyn_storage"
							}
						],
						"numberOfBytes": "160"
					},
					"t_uint256": {
						"encoding": "inplace",
						"label": "uint256",
						"numberOfBytes": "32"
					},
					"t_uint8": {
						"encoding": "inplace",
						"label": "uint8",
						"numberOfBytes": "1"
					}
				}
			},
			"userdoc": {
				"kind": "user",
				"methods": {},
				"version": 1
			}
		}
	}
}