{"abi":[{"type":"receive","stateMutability":"payable"},{"type":"function","name":"UPGRADE_INTERFACE_VERSION","inputs":[],"outputs":[{"name":"","type":"string","internalType":"string"}],"stateMutability":"view"},{"type":"function","name":"WETH","inputs":[],"outputs":[{"name":"","type":"address","internalType":"address"}],"stateMutability":"view"},{"type":"function","name":"_getUserIncome","inputs":[{"name":"_member","type":"address","internalType":"address"}],"outputs":[{"name":"","type":"uint256","internalType":"uint256"}],"stateMutability":"view"},{"type":"function","name":"claim","inputs":[],"outputs":[],"stateMutability":"nonpayable"},{"type":"function","name":"emergencyWithdraw","inputs":[{"name":"_to","type":"address","internalType":"address"}],"outputs":[],"stateMutability":"nonpayable"},{"type":"function","name":"fee","inputs":[],"outputs":[{"name":"","type":"uint256","internalType":"uint256"}],"stateMutability":"view"},{"type":"function","name":"getAmountOut","inputs":[{"name":"tokenIn","type":"address","internalType":"address"},{"name":"tokenOut","type":"address","internalType":"address"},{"name":"amountIn","type":"uint256","internalType":"uint256"}],"outputs":[{"name":"amountOut","type":"uint256","internalType":"uint256"}],"stateMutability":"view"},{"type":"function","name":"getUserIncome","inputs":[{"name":"_member","type":"address","internalType":"address"}],"outputs":[{"name":"amountBNB","type":"uint256","internalType":"uint256"}],"stateMutability":"view"},{"type":"function","name":"getUserInfo","inputs":[{"name":"member","type":"address","internalType":"address"}],"outputs":[{"name":"_inviter","type":"address","internalType":"address"},{"name":"_staking","type":"uint256","internalType":"uint256"},{"name":"_dynamic","type":"uint256","internalType":"uint256"},{"name":"_income","type":"uint256","internalType":"uint256"},{"name":"_members","type":"address[]","internalType":"address[]"},{"name":"_records","type":"tuple[]","internalType":"struct Staking.Record[]","components":[{"name":"operate","type":"uint8","internalType":"enum Staking.Operate"},{"name":"mark","type":"uint8","internalType":"enum Staking.Mark"},{"name":"members","type":"address","internalType":"address"},{"name":"amount","type":"uint256","internalType":"uint256"},{"name":"time","type":"uint256","internalType":"uint256"}]}],"stateMutability":"view"},{"type":"function","name":"initialize","inputs":[{"name":"_token","type":"address","internalType":"address"},{"name":"_prefixCode","type":"address","internalType":"address"},{"name":"_uniswapV2Factory","type":"address","internalType":"address"},{"name":"_recipient","type":"address","internalType":"address"},{"name":"_WETH","type":"address","internalType":"address"},{"name":"_rate","type":"uint256","internalType":"uint256"},{"name":"_fee","type":"uint256","internalType":"uint256"}],"outputs":[],"stateMutability":"nonpayable"},{"type":"function","name":"invite","inputs":[{"name":"_inviter","type":"address","internalType":"address"}],"outputs":[],"stateMutability":"nonpayable"},{"type":"function","name":"owner","inputs":[],"outputs":[{"name":"","type":"address","internalType":"address"}],"stateMutability":"view"},{"type":"function","name":"prefixCode","inputs":[],"outputs":[{"name":"","type":"address","internalType":"address"}],"stateMutability":"view"},{"type":"function","name":"provide","inputs":[{"name":"_amount","type":"uint256","internalType":"uint256"}],"outputs":[],"stateMutability":"nonpayable"},{"type":"function","name":"proxiableUUID","inputs":[],"outputs":[{"name":"","type":"bytes32","internalType":"bytes32"}],"stateMutability":"view"},{"type":"function","name":"rate","inputs":[],"outputs":[{"name":"","type":"uint256","internalType":"uint256"}],"stateMutability":"view"},{"type":"function","name":"recipient","inputs":[],"outputs":[{"name":"","type":"address","internalType":"address"}],"stateMutability":"view"},{"type":"function","name":"renounceOwnership","inputs":[],"outputs":[],"stateMutability":"nonpayable"},{"type":"function","name":"setConfig","inputs":[{"name":"_rate","type":"uint256","internalType":"uint256"},{"name":"_fee","type":"uint256","internalType":"uint256"}],"outputs":[],"stateMutability":"nonpayable"},{"type":"function","name":"token","inputs":[],"outputs":[{"name":"","type":"address","internalType":"address"}],"stateMutability":"view"},{"type":"function","name":"transferOwnership","inputs":[{"name":"newOwner","type":"address","internalType":"address"}],"outputs":[],"stateMutability":"nonpayable"},{"type":"function","name":"uniswapV2Factory","inputs":[],"outputs":[{"name":"","type":"address","internalType":"address"}],"stateMutability":"view"},{"type":"function","name":"upgradeToAndCall","inputs":[{"name":"newImplementation","type":"address","internalType":"address"},{"name":"data","type":"bytes","internalType":"bytes"}],"outputs":[],"stateMutability":"payable"},{"type":"function","name":"withdraw","inputs":[],"outputs":[],"stateMutability":"nonpayable"},{"type":"event","name":"Initialized","inputs":[{"name":"version","type":"uint64","indexed":false,"internalType":"uint64"}],"anonymous":false},{"type":"event","name":"OwnershipTransferred","inputs":[{"name":"previousOwner","type":"address","indexed":true,"internalType":"address"},{"name":"newOwner","type":"address","indexed":true,"internalType":"address"}],"anonymous":false},{"type":"event","name":"Upgraded","inputs":[{"name":"implementation","type":"address","indexed":true,"internalType":"address"}],"anonymous":false},{"type":"error","name":"AddressEmptyCode","inputs":[{"name":"target","type":"address","internalType":"address"}]},{"type":"error","name":"ERC1967InvalidImplementation","inputs":[{"name":"implementation","type":"address","internalType":"address"}]},{"type":"error","name":"ERC1967NonPayable","inputs":[]},{"type":"error","name":"FailedInnerCall","inputs":[]},{"type":"error","name":"InvalidInitialization","inputs":[]},{"type":"error","name":"NotInitializing","inputs":[]},{"type":"error","name":"OwnableInvalidOwner","inputs":[{"name":"owner","type":"address","internalType":"address"}]},{"type":"error","name":"OwnableUnauthorizedAccount","inputs":[{"name":"account","type":"address","internalType":"address"}]},{"type":"error","name":"UUPSUnauthorizedCallContext","inputs":[]},{"type":"error","name":"UUPSUnsupportedProxiableUUID","inputs":[{"name":"slot","type":"bytes32","internalType":"bytes32"}]}],"bytecode":{"object":"0x60a06040523060805234801561001457600080fd5b506080516121e161003e600039600081816116050152818161162e015261176f01526121e16000f3fe60806040526004361061014f5760003560e01c80636ff1c9bc116100b6578063ad5c46481161006f578063ad5c4648146103d2578063b22fe567146103f2578063b33f952714610412578063ddca3f4314610432578063f2fde38b14610448578063fc0c546a1461046857600080fd5b80636ff1c9bc146102e2578063715018a6146103025780637f081b16146103175780638da5cb5b14610337578063a99e393e14610374578063ad3cb1cc1461039457600080fd5b80634e71d92d116101085780634e71d92d1461021b5780634f1ef2861461023057806352d1902d1461024357806359d0f713146102585780636386c1c71461029057806366d003ac146102c257600080fd5b80631e34c5851461015b5780632c4e722e1461017d5780632e2ebe06146101a65780633ccfd60b146101c65780634aa06652146101db5780634b77c468146101fb57600080fd5b3661015657005b600080fd5b34801561016757600080fd5b5061017b610176366004611cdd565b610488565b005b34801561018957600080fd5b5061019360045481565b6040519081526020015b60405180910390f35b3480156101b257600080fd5b5061017b6101c1366004611cff565b61049b565b3480156101d257600080fd5b5061017b610582565b3480156101e757600080fd5b506101936101f6366004611d2f565b61065d565b34801561020757600080fd5b5061017b610216366004611d6b565b610694565b34801561022757600080fd5b5061017b6107d3565b61017b61023e366004611d9c565b610899565b34801561024f57600080fd5b506101936108b4565b34801561026457600080fd5b50600354610278906001600160a01b031681565b6040516001600160a01b03909116815260200161019d565b34801561029c57600080fd5b506102b06102ab366004611d6b565b6108d1565b60405161019d96959493929190611e74565b3480156102ce57600080fd5b50600754610278906001600160a01b031681565b3480156102ee57600080fd5b5061017b6102fd366004611d6b565b610a97565b34801561030e57600080fd5b5061017b610aac565b34801561032357600080fd5b50610193610332366004611d6b565b610ac0565b34801561034357600080fd5b507f9016d09d72d40fdae2fd8ceac6b6234c7706214fd39c1cd1e609a0528c199300546001600160a01b0316610278565b34801561038057600080fd5b50600254610278906001600160a01b031681565b3480156103a057600080fd5b506103c5604051806040016040528060058152602001640352e302e360dc1b81525081565b60405161019d9190611f94565b3480156103de57600080fd5b50600654610278906001600160a01b031681565b3480156103fe57600080fd5b5061019361040d366004611d6b565b610b0d565b34801561041e57600080fd5b5061017b61042d366004611fc7565b610b75565b34801561043e57600080fd5b5061019360055481565b34801561045457600080fd5b5061017b610463366004611d6b565b610cf3565b34801561047457600080fd5b50600154610278906001600160a01b031681565b610490610d2e565b600491909155600555565b33600090815260208190526040902080546001600160a01b0316158015906104cb575067016345785d8a00008210155b6105125760405162461bcd60e51b81526020600482015260136024820152722727aa2fa82927ab24a222afa822a926a4aa1760691b60448201526064015b60405180910390fd5b600154600754610531916001600160a01b039081169133911685610d89565b60015460075461054f916001600160a01b0390811691163085610d89565b61055833610eb9565b8181600101600082825461056c9190612055565b9091555061057e905060003384610eec565b5050565b33600090815260208190526040902060018101546105d25760405162461bcd60e51b815260206004820152600d60248201526c22a92927a92fa0a6a7aaa72a1760991b6044820152606401610509565b6105db33610eb9565b60018054600754918301546105fd926001600160a01b0392831692169061122f565b600180546007546005549284015461063c936001600160a01b039384169390921691339160649161062d91612068565b610637919061207f565b610d89565b61064c6001338360010154610eec565b600060018201819055600290910155565b6003546000908190819061067b906001600160a01b03168787611343565b9150915061068a84838361140d565b9695505050505050565b60006001600160a01b038216331415806106c45750336000908152602081905260409020546001600160a01b0316155b9050806107045760405162461bcd60e51b815260206004820152600e60248201526d22a92927a92fa4a72b24aa22a91760911b6044820152606401610509565b6002546001600160a01b03838116911614610785576001600160a01b03821660009081526020819052604090206001015467016345785d8a000011156107855760405162461bcd60e51b81526020600482015260166024820152752727aa2fa420a9afa4a72b24aa22afa822a926a4aa1760511b6044820152606401610509565b503360008181526020818152604080832080546001600160a01b039096166001600160a01b031996871681179091558352822060050180546001810182559083529120018054909216179055565b333b63ffffffff161561081b5760405162461bcd60e51b815260206004820152601060248201526f22a92927a92fa922a1a4a824a2a72a1760811b6044820152606401610509565b600061082633610ac0565b116108635760405162461bcd60e51b815260206004820152600d60248201526c22a92927a92fa0a6a7aaa72a1760991b6044820152606401610509565b61086c33610eb9565b600061087733610ac0565b9050610883338261152c565b5033600090815260208190526040812060030155565b6108a16115fa565b6108aa8261169f565b61057e82826116a7565b60006108be611764565b5060008051602061218c83398151915290565b6001600160a01b03808216600090815260208190526040812080546001820154600290920154931692909160608061090887610ac0565b6001600160a01b03881660009081526020818152604091829020600501805483518184028101840190945280845293965091929083018282801561097557602002820191906000526020600020905b81546001600160a01b03168152600190910190602001808311610957575b5050506001600160a01b038a1660009081526020818152604080832060060180548251818502810185019093528083529698509095909450925084015b82821015610a88576000848152602090206040805160a08101909152600384029091018054829060ff1660018111156109ed576109ed611e5e565b60018111156109fe576109fe611e5e565b81528154602090910190610100900460ff166002811115610a2157610a21611e5e565b6002811115610a3257610a32611e5e565b81526020016000820160029054906101000a90046001600160a01b03166001600160a01b03166001600160a01b0316815260200160018201548152602001600282015481525050815260200190600101906109b2565b50505050905091939550919395565b610a9f610d2e565b610aa9814761152c565b50565b610ab4610d2e565b610abe60006117ad565b565b600080610acc83610b0d565b1115610b0857600154600654610b05916001600160a01b039081169116670de0b6b3a7640000610afb86610b0d565b6101f6919061207f565b90505b919050565b6001600160a01b0381166000908152602081905260408120600381015460045460028301546001840154610b419190612055565b6004840154610b5090426120a1565b610b5a9190612068565b610b649190612068565b610b6e9190612055565b9392505050565b7ff0c57e16840df040f15088dc2f81fe391c3923bec73e23a9662efc9c229c6a008054600160401b810460ff16159067ffffffffffffffff16600081158015610bbb5750825b905060008267ffffffffffffffff166001148015610bd85750303b155b905081158015610be6575080155b15610c045760405163f92ee8a960e01b815260040160405180910390fd5b845467ffffffffffffffff191660011785558315610c2e57845460ff60401b1916600160401b1785555b610c373361181e565b610c3f611826565b600180546001600160a01b03199081166001600160a01b038f8116919091179092556002805482168e84161790556003805482168d84161790556007805482168c841617905560068054909116918a16919091179055600487905560058690558315610ce557845460ff60401b19168555604051600181527fc7f505b2f371ae2175ee4913f4499e1f2633a7b5936321eed1cdaeb6115181d29060200160405180910390a15b505050505050505050505050565b610cfb610d2e565b6001600160a01b038116610d2557604051631e4fbdf760e01b815260006004820152602401610509565b610aa9816117ad565b33610d607f9016d09d72d40fdae2fd8ceac6b6234c7706214fd39c1cd1e609a0528c199300546001600160a01b031690565b6001600160a01b031614610abe5760405163118cdaa760e01b8152336004820152602401610509565b604080516001600160a01b0385811660248301528481166044830152606480830185905283518084039091018152608490920183526020820180516001600160e01b03166323b872dd60e01b1790529151600092839290881691610ded91906120b4565b6000604051808303816000865af19150503d8060008114610e2a576040519150601f19603f3d011682016040523d82523d6000602084013e610e2f565b606091505b5091509150818015610e59575080511580610e59575080806020019051810190610e5991906120d0565b610eb15760405162461bcd60e51b8152602060048201526024808201527f5472616e7366657248656c7065723a205452414e534645525f46524f4d5f46416044820152631253115160e21b6064820152608401610509565b505050505050565b610ec281610b0d565b6001600160a01b039091166000908152602081905260409020600381019190915542600490910155565b6001600160a01b03808316600090815260208190526040812054909116905b600281108015610f2357506001600160a01b03821615155b1561122857610f3182610eb9565b6001600160a01b03821660009081526020819052604081209082810361105f57816006016040518060a00160405280896001811115610f7257610f72611e5e565b8152600160208083018290526001600160a01b038b166040840152606083018a905242608090930192909252835480820185556000948552919093208251600390920201805492939092839160ff19909116908381811115610fd657610fd6611e5e565b021790555060208201518154829061ff001916610100836002811115610ffe57610ffe611e5e565b0217905550604082015181546001600160a01b03909116620100000262010000600160b01b031990911617815560608201516001820155608090910151600290910155606461104e86600a612068565b611058919061207f565b905061116c565b816006016040518060a0016040528089600181111561108057611080611e5e565b8152602001600281526001600160a01b038916602080830191909152604082018990524260609092019190915282546001818101855560009485529190932082516003909402018054929390929091839160ff19169083818111156110e7576110e7611e5e565b021790555060208201518154829061ff00191661010083600281111561110f5761110f611e5e565b0217905550604082015181546001600160a01b03909116620100000262010000600160b01b031990911617815560608201516001820155608090910151600290910155606461115f866005612068565b611169919061207f565b90505b600087600181111561118057611180611e5e565b0361119f57808260020160008282546111999190612055565b90915550505b60018760018111156111b3576111b3611e5e565b1480156111c4575080826002015410155b156111f657808260020160008282546111dd91906120a1565b909155505060028201548111156111f657600060028301555b50506001600160a01b039182166000908152602081905260409020549091169080611220816120f2565b915050610f0b565b5050505050565b604080516001600160a01b038481166024830152604480830185905283518084039091018152606490920183526020820180516001600160e01b031663a9059cbb60e01b179052915160009283929087169161128b91906120b4565b6000604051808303816000865af19150503d80600081146112c8576040519150601f19603f3d011682016040523d82523d6000602084013e6112cd565b606091505b50915091508180156112f75750805115806112f75750808060200190518101906112f791906120d0565b6112285760405162461bcd60e51b815260206004820152601f60248201527f5472616e7366657248656c7065723a205452414e534645525f4641494c4544006044820152606401610509565b6000806000611352858561182e565b509050600080611363888888611925565b6001600160a01b0316630902f1ac6040518163ffffffff1660e01b8152600401606060405180830381865afa1580156113a0573d6000803e3d6000fd5b505050506040513d601f19601f820116820180604052508101906113c49190612122565b506001600160701b031691506001600160701b03169150826001600160a01b0316876001600160a01b0316146113fb5780826113fe565b81815b90999098509650505050505050565b60008084116114725760405162461bcd60e51b815260206004820152602b60248201527f556e697377617056324c6962726172793a20494e53554646494349454e545f4960448201526a1394155517d05353d5539560aa1b6064820152608401610509565b6000831180156114825750600082115b6114df5760405162461bcd60e51b815260206004820152602860248201527f556e697377617056324c6962726172793a20494e53554646494349454e545f4c604482015267495155494449545960c01b6064820152608401610509565b60006114ed856103e56119fd565b905060006114fb82856119fd565b905060006115158361150f886103e86119fd565b90611a6a565b9050611521818361207f565b979650505050505050565b604080516000808252602082019092526001600160a01b03841690839060405161155691906120b4565b60006040518083038185875af1925050503d8060008114611593576040519150601f19603f3d011682016040523d82523d6000602084013e611598565b606091505b50509050806115f55760405162461bcd60e51b815260206004820152602360248201527f5472616e7366657248656c7065723a204554485f5452414e534645525f46414960448201526213115160ea1b6064820152608401610509565b505050565b306001600160a01b037f000000000000000000000000000000000000000000000000000000000000000016148061168157507f00000000000000000000000000000000000000000000000000000000000000006001600160a01b031661167560008051602061218c833981519152546001600160a01b031690565b6001600160a01b031614155b15610abe5760405163703e46dd60e11b815260040160405180910390fd5b610aa9610d2e565b816001600160a01b03166352d1902d6040518163ffffffff1660e01b8152600401602060405180830381865afa925050508015611701575060408051601f3d908101601f191682019092526116fe91810190612172565b60015b61172957604051634c9c8ce360e01b81526001600160a01b0383166004820152602401610509565b60008051602061218c833981519152811461175a57604051632a87526960e21b815260048101829052602401610509565b6115f58383611abf565b306001600160a01b037f00000000000000000000000000000000000000000000000000000000000000001614610abe5760405163703e46dd60e11b815260040160405180910390fd5b7f9016d09d72d40fdae2fd8ceac6b6234c7706214fd39c1cd1e609a0528c19930080546001600160a01b031981166001600160a01b03848116918217845560405192169182907f8be0079c531659141344cd1fd0a4f28419497f9722a3daafe3b4186f6b6457e090600090a3505050565b610cfb611b15565b610abe611b15565b600080826001600160a01b0316846001600160a01b0316036118a05760405162461bcd60e51b815260206004820152602560248201527f556e697377617056324c6962726172793a204944454e544943414c5f41444452604482015264455353455360d81b6064820152608401610509565b826001600160a01b0316846001600160a01b0316106118c05782846118c3565b83835b90925090506001600160a01b03821661191e5760405162461bcd60e51b815260206004820152601e60248201527f556e697377617056324c6962726172793a205a45524f5f4144445245535300006044820152606401610509565b9250929050565b6000806000611934858561182e565b6040516bffffffffffffffffffffffff19606084811b8216602084015283901b16603482015291935091508690604801604051602081830303815290604052805190602001206040516020016119db9291906001600160f81b0319815260609290921b6bffffffffffffffffffffffff1916600183015260158201527efb7f630766e6a796048ea87d01acd3068e8ff67d078148a3fa3f4a84f69bd5603582015260550190565b60408051601f1981840301815291905280516020909101209695505050505050565b6000811580611a2157508282611a138183612068565b9250611a1f908361207f565b145b611a645760405162461bcd60e51b815260206004820152601460248201527364732d6d6174682d6d756c2d6f766572666c6f7760601b6044820152606401610509565b92915050565b600082611a778382612055565b9150811015611a645760405162461bcd60e51b815260206004820152601460248201527364732d6d6174682d6164642d6f766572666c6f7760601b6044820152606401610509565b611ac882611b5e565b6040516001600160a01b038316907fbc7cd75a20ee27fd9adebab32041f755214dbc6bffa90cc0225b39da2e5c2d3b90600090a2805115611b0d576115f58282611bc3565b61057e611c39565b7ff0c57e16840df040f15088dc2f81fe391c3923bec73e23a9662efc9c229c6a0054600160401b900460ff16610abe57604051631afcd79f60e31b815260040160405180910390fd5b806001600160a01b03163b600003611b9457604051634c9c8ce360e01b81526001600160a01b0382166004820152602401610509565b60008051602061218c83398151915280546001600160a01b0319166001600160a01b0392909216919091179055565b6060600080846001600160a01b031684604051611be091906120b4565b600060405180830381855af49150503d8060008114611c1b576040519150601f19603f3d011682016040523d82523d6000602084013e611c20565b606091505b5091509150611c30858383611c58565b95945050505050565b3415610abe5760405163b398979f60e01b815260040160405180910390fd5b606082611c6d57611c6882611cb4565b610b6e565b8151158015611c8457506001600160a01b0384163b155b15611cad57604051639996b31560e01b81526001600160a01b0385166004820152602401610509565b5092915050565b805115611cc45780518082602001fd5b604051630a12f52160e11b815260040160405180910390fd5b60008060408385031215611cf057600080fd5b50508035926020909101359150565b600060208284031215611d1157600080fd5b5035919050565b80356001600160a01b0381168114610b0857600080fd5b600080600060608486031215611d4457600080fd5b611d4d84611d18565b9250611d5b60208501611d18565b9150604084013590509250925092565b600060208284031215611d7d57600080fd5b610b6e82611d18565b634e487b7160e01b600052604160045260246000fd5b60008060408385031215611daf57600080fd5b611db883611d18565b9150602083013567ffffffffffffffff80821115611dd557600080fd5b818501915085601f830112611de957600080fd5b813581811115611dfb57611dfb611d86565b604051601f8201601f19908116603f01168101908382118183101715611e2357611e23611d86565b81604052828152886020848701011115611e3c57600080fd5b8260208601602083013760006020848301015280955050505050509250929050565b634e487b7160e01b600052602160045260246000fd5b600060c0820160018060a01b03808a1684526020898186015260408960408701526060896060880152608060c06080890152858a5180885260e08a019150858c01975060005b81811015611ed8578851881683529786019791860191600101611eba565b505060a0965088810360a08a0152808a518083528683019150868c01925060005b81811015611f58578351805160028110611f1557611f15611e5e565b84528089015160038110611f2b57611f2b611e5e565b848a0152808801518a16888501528681015187850152850151858401529287019291890191600101611ef9565b50508098505050505050505050979650505050505050565b60005b83811015611f8b578181015183820152602001611f73565b50506000910152565b6020815260008251806020840152611fb3816040850160208701611f70565b601f01601f19169190910160400192915050565b600080600080600080600060e0888a031215611fe257600080fd5b611feb88611d18565b9650611ff960208901611d18565b955061200760408901611d18565b945061201560608901611d18565b935061202360808901611d18565b925060a0880135915060c0880135905092959891949750929550565b634e487b7160e01b600052601160045260246000fd5b80820180821115611a6457611a6461203f565b8082028115828204841417611a6457611a6461203f565b60008261209c57634e487b7160e01b600052601260045260246000fd5b500490565b81810381811115611a6457611a6461203f565b600082516120c6818460208701611f70565b9190910192915050565b6000602082840312156120e257600080fd5b81518015158114610b6e57600080fd5b6000600182016121045761210461203f565b5060010190565b80516001600160701b0381168114610b0857600080fd5b60008060006060848603121561213757600080fd5b6121408461210b565b925061214e6020850161210b565b9150604084015163ffffffff8116811461216757600080fd5b809150509250925092565b60006020828403121561218457600080fd5b505191905056fe360894a13ba1a3210667c828492db98dca3e2076cc3735a920a3ca505d382bbca2646970667358221220618c0ceb3a17cf0baa4c75a5b5147e742f6cbb2d19d903c2689a059633ab797064736f6c63430008180033","linkReferences":{}},"methodIdentifiers":{"UPGRADE_INTERFACE_VERSION()":"ad3cb1cc","WETH()":"ad5c4648","_getUserIncome(address)":"b22fe567","claim()":"4e71d92d","emergencyWithdraw(address)":"6ff1c9bc","fee()":"ddca3f43","getAmountOut(address,address,uint256)":"4aa06652","getUserIncome(address)":"7f081b16","getUserInfo(address)":"6386c1c7","initialize(address,address,address,address,address,uint256,uint256)":"b33f9527","invite(address)":"4b77c468","owner()":"8da5cb5b","prefixCode()":"a99e393e","provide(uint256)":"2e2ebe06","proxiableUUID()":"52d1902d","rate()":"2c4e722e","recipient()":"66d003ac","renounceOwnership()":"715018a6","setConfig(uint256,uint256)":"1e34c585","token()":"fc0c546a","transferOwnership(address)":"f2fde38b","uniswapV2Factory()":"59d0f713","upgradeToAndCall(address,bytes)":"4f1ef286","withdraw()":"3ccfd60b"},"id":51}