{"abi":[{"type":"receive","stateMutability":"payable"},{"type":"function","name":"UPGRADE_INTERFACE_VERSION","inputs":[],"outputs":[{"name":"","type":"string","internalType":"string"}],"stateMutability":"view"},{"type":"function","name":"WETH","inputs":[],"outputs":[{"name":"","type":"address","internalType":"address"}],"stateMutability":"view"},{"type":"function","name":"_getUserIncome","inputs":[{"name":"_member","type":"address","internalType":"address"}],"outputs":[{"name":"","type":"uint256","internalType":"uint256"}],"stateMutability":"view"},{"type":"function","name":"claim","inputs":[],"outputs":[],"stateMutability":"nonpayable"},{"type":"function","name":"emergencyWithdraw","inputs":[{"name":"_to","type":"address","internalType":"address"}],"outputs":[],"stateMutability":"nonpayable"},{"type":"function","name":"fee","inputs":[],"outputs":[{"name":"","type":"uint256","internalType":"uint256"}],"stateMutability":"view"},{"type":"function","name":"getAmountOut","inputs":[{"name":"tokenIn","type":"address","internalType":"address"},{"name":"tokenOut","type":"address","internalType":"address"},{"name":"amountIn","type":"uint256","internalType":"uint256"}],"outputs":[{"name":"amountOut","type":"uint256","internalType":"uint256"}],"stateMutability":"view"},{"type":"function","name":"getUserIncome","inputs":[{"name":"_member","type":"address","internalType":"address"}],"outputs":[{"name":"amountBNB","type":"uint256","internalType":"uint256"}],"stateMutability":"view"},{"type":"function","name":"getUserInfo","inputs":[{"name":"member","type":"address","internalType":"address"}],"outputs":[{"name":"_inviter","type":"address","internalType":"address"},{"name":"_staking","type":"uint256","internalType":"uint256"},{"name":"_dynamic","type":"uint256","internalType":"uint256"},{"name":"_income","type":"uint256","internalType":"uint256"},{"name":"_members","type":"address[]","internalType":"address[]"},{"name":"_records","type":"tuple[]","internalType":"struct Staking.Record[]","components":[{"name":"operate","type":"uint8","internalType":"enum Staking.Operate"},{"name":"mark","type":"uint8","internalType":"enum Staking.Mark"},{"name":"members","type":"address","internalType":"address"},{"name":"amount","type":"uint256","internalType":"uint256"},{"name":"time","type":"uint256","internalType":"uint256"}]}],"stateMutability":"view"},{"type":"function","name":"initialize","inputs":[{"name":"_token","type":"address","internalType":"address"},{"name":"_prefixCode","type":"address","internalType":"address"},{"name":"_uniswapV2Factory","type":"address","internalType":"address"},{"name":"_recipient","type":"address","internalType":"address"},{"name":"_WETH","type":"address","internalType":"address"},{"name":"_rate","type":"uint256","internalType":"uint256"},{"name":"_fee","type":"uint256","internalType":"uint256"}],"outputs":[],"stateMutability":"nonpayable"},{"type":"function","name":"invite","inputs":[{"name":"_inviter","type":"address","internalType":"address"}],"outputs":[],"stateMutability":"nonpayable"},{"type":"function","name":"owner","inputs":[],"outputs":[{"name":"","type":"address","internalType":"address"}],"stateMutability":"view"},{"type":"function","name":"prefixCode","inputs":[],"outputs":[{"name":"","type":"address","internalType":"address"}],"stateMutability":"view"},{"type":"function","name":"provide","inputs":[{"name":"_amount","type":"uint256","internalType":"uint256"}],"outputs":[],"stateMutability":"nonpayable"},{"type":"function","name":"proxiableUUID","inputs":[],"outputs":[{"name":"","type":"bytes32","internalType":"bytes32"}],"stateMutability":"view"},{"type":"function","name":"rate","inputs":[],"outputs":[{"name":"","type":"uint256","internalType":"uint256"}],"stateMutability":"view"},{"type":"function","name":"recipient","inputs":[],"outputs":[{"name":"","type":"address","internalType":"address"}],"stateMutability":"view"},{"type":"function","name":"renounceOwnership","inputs":[],"outputs":[],"stateMutability":"nonpayable"},{"type":"function","name":"setConfig","inputs":[{"name":"_rate","type":"uint256","internalType":"uint256"},{"name":"_fee","type":"uint256","internalType":"uint256"}],"outputs":[],"stateMutability":"nonpayable"},{"type":"function","name":"token","inputs":[],"outputs":[{"name":"","type":"address","internalType":"address"}],"stateMutability":"view"},{"type":"function","name":"transferOwnership","inputs":[{"name":"newOwner","type":"address","internalType":"address"}],"outputs":[],"stateMutability":"nonpayable"},{"type":"function","name":"uniswapV2Factory","inputs":[],"outputs":[{"name":"","type":"address","internalType":"address"}],"stateMutability":"view"},{"type":"function","name":"upgradeToAndCall","inputs":[{"name":"newImplementation","type":"address","internalType":"address"},{"name":"data","type":"bytes","internalType":"bytes"}],"outputs":[],"stateMutability":"payable"},{"type":"function","name":"withdraw","inputs":[],"outputs":[],"stateMutability":"nonpayable"},{"type":"event","name":"Initialized","inputs":[{"name":"version","type":"uint64","indexed":false,"internalType":"uint64"}],"anonymous":false},{"type":"event","name":"OwnershipTransferred","inputs":[{"name":"previousOwner","type":"address","indexed":true,"internalType":"address"},{"name":"newOwner","type":"address","indexed":true,"internalType":"address"}],"anonymous":false},{"type":"event","name":"Upgraded","inputs":[{"name":"implementation","type":"address","indexed":true,"internalType":"address"}],"anonymous":false},{"type":"error","name":"AddressEmptyCode","inputs":[{"name":"target","type":"address","internalType":"address"}]},{"type":"error","name":"ERC1967InvalidImplementation","inputs":[{"name":"implementation","type":"address","internalType":"address"}]},{"type":"error","name":"ERC1967NonPayable","inputs":[]},{"type":"error","name":"FailedInnerCall","inputs":[]},{"type":"error","name":"InvalidInitialization","inputs":[]},{"type":"error","name":"NotInitializing","inputs":[]},{"type":"error","name":"OwnableInvalidOwner","inputs":[{"name":"owner","type":"address","internalType":"address"}]},{"type":"error","name":"OwnableUnauthorizedAccount","inputs":[{"name":"account","type":"address","internalType":"address"}]},{"type":"error","name":"UUPSUnauthorizedCallContext","inputs":[]},{"type":"error","name":"UUPSUnsupportedProxiableUUID","inputs":[{"name":"slot","type":"bytes32","internalType":"bytes32"}]}],"bytecode":{"object":"0x60a06040523060805234801561001457600080fd5b5060805161203f61003e600039600081816114630152818161148c01526115cd015261203f6000f3fe60806040526004361061014f5760003560e01c80636ff1c9bc116100b6578063ad5c46481161006f578063ad5c4648146103d2578063b22fe567146103f2578063b33f952714610412578063ddca3f4314610432578063f2fde38b14610448578063fc0c546a1461046857600080fd5b80636ff1c9bc146102e2578063715018a6146103025780637f081b16146103175780638da5cb5b14610337578063a99e393e14610374578063ad3cb1cc1461039457600080fd5b80634e71d92d116101085780634e71d92d1461021b5780634f1ef2861461023057806352d1902d1461024357806359d0f713146102585780636386c1c71461029057806366d003ac146102c257600080fd5b80631e34c5851461015b5780632c4e722e1461017d5780632e2ebe06146101a65780633ccfd60b146101c65780634aa06652146101db5780634b77c468146101fb57600080fd5b3661015657005b600080fd5b34801561016757600080fd5b5061017b610176366004611b3b565b610488565b005b34801561018957600080fd5b5061019360045481565b6040519081526020015b60405180910390f35b3480156101b257600080fd5b5061017b6101c1366004611b5d565b61049b565b3480156101d257600080fd5b5061017b610564565b3480156101e757600080fd5b506101936101f6366004611b8d565b61061d565b34801561020757600080fd5b5061017b610216366004611bc9565b610654565b34801561022757600080fd5b5061017b610793565b61017b61023e366004611bfa565b61080b565b34801561024f57600080fd5b50610193610826565b34801561026457600080fd5b50600354610278906001600160a01b031681565b6040516001600160a01b03909116815260200161019d565b34801561029c57600080fd5b506102b06102ab366004611bc9565b610843565b60405161019d96959493929190611cd2565b3480156102ce57600080fd5b50600754610278906001600160a01b031681565b3480156102ee57600080fd5b5061017b6102fd366004611bc9565b610a09565b34801561030e57600080fd5b5061017b610a1e565b34801561032357600080fd5b50610193610332366004611bc9565b610a32565b34801561034357600080fd5b507f9016d09d72d40fdae2fd8ceac6b6234c7706214fd39c1cd1e609a0528c199300546001600160a01b0316610278565b34801561038057600080fd5b50600254610278906001600160a01b031681565b3480156103a057600080fd5b506103c5604051806040016040528060058152602001640352e302e360dc1b81525081565b60405161019d9190611df2565b3480156103de57600080fd5b50600654610278906001600160a01b031681565b3480156103fe57600080fd5b5061019361040d366004611bc9565b610a7f565b34801561041e57600080fd5b5061017b61042d366004611e25565b610ae7565b34801561043e57600080fd5b5061019360055481565b34801561045457600080fd5b5061017b610463366004611bc9565b610c65565b34801561047457600080fd5b50600154610278906001600160a01b031681565b610490610ca0565b600491909155600555565b33600090815260208190526040902080546001600160a01b0316158015906104cb575067016345785d8a00008210155b6105125760405162461bcd60e51b81526020600482015260136024820152722727aa2fa82927ab24a222afa822a926a4aa1760691b60448201526064015b60405180910390fd5b600154600754610531916001600160a01b039081169133911685610cfb565b61053a33610e2b565b8181600101600082825461054e9190611eb3565b90915550610560905060003384610e5e565b5050565b33600090815260208190526040902060018101546105b45760405162461bcd60e51b815260206004820152600d60248201526c22a92927a92fa0a6a7aaa72a1760991b6044820152606401610509565b6105bd33610e2b565b60018054600754600554928401546105fc936001600160a01b03938416939092169133916064916105ed91611ec6565b6105f79190611edd565b610cfb565b61060c6001338360010154610e5e565b600060018201819055600290910155565b6003546000908190819061063b906001600160a01b031687876111a1565b9150915061064a84838361126b565b9695505050505050565b60006001600160a01b038216331415806106845750336000908152602081905260409020546001600160a01b0316155b9050806106c45760405162461bcd60e51b815260206004820152600e60248201526d22a92927a92fa4a72b24aa22a91760911b6044820152606401610509565b6002546001600160a01b03838116911614610745576001600160a01b03821660009081526020819052604090206001015467016345785d8a000011156107455760405162461bcd60e51b81526020600482015260166024820152752727aa2fa420a9afa4a72b24aa22afa822a926a4aa1760511b6044820152606401610509565b503360008181526020818152604080832080546001600160a01b039096166001600160a01b031996871681179091558352822060050180546001810182559083529120018054909216179055565b600061079e33610a32565b116107db5760405162461bcd60e51b815260206004820152600d60248201526c22a92927a92fa0a6a7aaa72a1760991b6044820152606401610509565b6107e433610e2b565b6107f6336107f133610a32565b61138a565b33600090815260208190526040812060030155565b610813611458565b61081c826114fd565b6105608282611505565b60006108306115c2565b50600080516020611fea83398151915290565b6001600160a01b03808216600090815260208190526040812080546001820154600290920154931692909160608061087a87610a32565b6001600160a01b0388166000908152602081815260409182902060050180548351818402810184019094528084529396509192908301828280156108e757602002820191906000526020600020905b81546001600160a01b031681526001909101906020018083116108c9575b5050506001600160a01b038a1660009081526020818152604080832060060180548251818502810185019093528083529698509095909450925084015b828210156109fa576000848152602090206040805160a08101909152600384029091018054829060ff16600181111561095f5761095f611cbc565b600181111561097057610970611cbc565b81528154602090910190610100900460ff16600281111561099357610993611cbc565b60028111156109a4576109a4611cbc565b81526020016000820160029054906101000a90046001600160a01b03166001600160a01b03166001600160a01b031681526020016001820154815260200160028201548152505081526020019060010190610924565b50505050905091939550919395565b610a11610ca0565b610a1b814761138a565b50565b610a26610ca0565b610a30600061160b565b565b600080610a3e83610a7f565b1115610a7a57600154600654610a77916001600160a01b039081169116670de0b6b3a7640000610a6d86610a7f565b6101f69190611edd565b90505b919050565b6001600160a01b0381166000908152602081905260408120600381015460045460028301546001840154610ab39190611eb3565b6004840154610ac29042611eff565b610acc9190611ec6565b610ad69190611ec6565b610ae09190611eb3565b9392505050565b7ff0c57e16840df040f15088dc2f81fe391c3923bec73e23a9662efc9c229c6a008054600160401b810460ff16159067ffffffffffffffff16600081158015610b2d5750825b905060008267ffffffffffffffff166001148015610b4a5750303b155b905081158015610b58575080155b15610b765760405163f92ee8a960e01b815260040160405180910390fd5b845467ffffffffffffffff191660011785558315610ba057845460ff60401b1916600160401b1785555b610ba93361167c565b610bb1611684565b600180546001600160a01b03199081166001600160a01b038f8116919091179092556002805482168e84161790556003805482168d84161790556007805482168c841617905560068054909116918a16919091179055600487905560058690558315610c5757845460ff60401b19168555604051600181527fc7f505b2f371ae2175ee4913f4499e1f2633a7b5936321eed1cdaeb6115181d29060200160405180910390a15b505050505050505050505050565b610c6d610ca0565b6001600160a01b038116610c9757604051631e4fbdf760e01b815260006004820152602401610509565b610a1b8161160b565b33610cd27f9016d09d72d40fdae2fd8ceac6b6234c7706214fd39c1cd1e609a0528c199300546001600160a01b031690565b6001600160a01b031614610a305760405163118cdaa760e01b8152336004820152602401610509565b604080516001600160a01b0385811660248301528481166044830152606480830185905283518084039091018152608490920183526020820180516001600160e01b03166323b872dd60e01b1790529151600092839290881691610d5f9190611f12565b6000604051808303816000865af19150503d8060008114610d9c576040519150601f19603f3d011682016040523d82523d6000602084013e610da1565b606091505b5091509150818015610dcb575080511580610dcb575080806020019051810190610dcb9190611f2e565b610e235760405162461bcd60e51b8152602060048201526024808201527f5472616e7366657248656c7065723a205452414e534645525f46524f4d5f46416044820152631253115160e21b6064820152608401610509565b505050505050565b610e3481610a7f565b6001600160a01b039091166000908152602081905260409020600381019190915542600490910155565b6001600160a01b03808316600090815260208190526040812054909116905b600281108015610e9557506001600160a01b03821615155b1561119a57610ea382610e2b565b6001600160a01b038216600090815260208190526040812090828103610fd157816006016040518060a00160405280896001811115610ee457610ee4611cbc565b8152600160208083018290526001600160a01b038b166040840152606083018a905242608090930192909252835480820185556000948552919093208251600390920201805492939092839160ff19909116908381811115610f4857610f48611cbc565b021790555060208201518154829061ff001916610100836002811115610f7057610f70611cbc565b0217905550604082015181546001600160a01b03909116620100000262010000600160b01b0319909116178155606082015160018201556080909101516002909101556064610fc086600a611ec6565b610fca9190611edd565b90506110de565b816006016040518060a00160405280896001811115610ff257610ff2611cbc565b8152602001600281526001600160a01b038916602080830191909152604082018990524260609092019190915282546001818101855560009485529190932082516003909402018054929390929091839160ff191690838181111561105957611059611cbc565b021790555060208201518154829061ff00191661010083600281111561108157611081611cbc565b0217905550604082015181546001600160a01b03909116620100000262010000600160b01b03199091161781556060820151600182015560809091015160029091015560646110d1866005611ec6565b6110db9190611edd565b90505b60008760018111156110f2576110f2611cbc565b03611111578082600201600082825461110b9190611eb3565b90915550505b600187600181111561112557611125611cbc565b148015611136575080826002015410155b15611168578082600201600082825461114f9190611eff565b9091555050600282015481111561116857600060028301555b50506001600160a01b03918216600090815260208190526040902054909116908061119281611f50565b915050610e7d565b5050505050565b60008060006111b0858561168c565b5090506000806111c1888888611783565b6001600160a01b0316630902f1ac6040518163ffffffff1660e01b8152600401606060405180830381865afa1580156111fe573d6000803e3d6000fd5b505050506040513d601f19601f820116820180604052508101906112229190611f80565b506001600160701b031691506001600160701b03169150826001600160a01b0316876001600160a01b03161461125957808261125c565b81815b90999098509650505050505050565b60008084116112d05760405162461bcd60e51b815260206004820152602b60248201527f556e697377617056324c6962726172793a20494e53554646494349454e545f4960448201526a1394155517d05353d5539560aa1b6064820152608401610509565b6000831180156112e05750600082115b61133d5760405162461bcd60e51b815260206004820152602860248201527f556e697377617056324c6962726172793a20494e53554646494349454e545f4c604482015267495155494449545960c01b6064820152608401610509565b600061134b856103e561185b565b90506000611359828561185b565b905060006113738361136d886103e861185b565b906118c8565b905061137f8183611edd565b979650505050505050565b604080516000808252602082019092526001600160a01b0384169083906040516113b49190611f12565b60006040518083038185875af1925050503d80600081146113f1576040519150601f19603f3d011682016040523d82523d6000602084013e6113f6565b606091505b50509050806114535760405162461bcd60e51b815260206004820152602360248201527f5472616e7366657248656c7065723a204554485f5452414e534645525f46414960448201526213115160ea1b6064820152608401610509565b505050565b306001600160a01b037f00000000000000000000000000000000000000000000000000000000000000001614806114df57507f00000000000000000000000000000000000000000000000000000000000000006001600160a01b03166114d3600080516020611fea833981519152546001600160a01b031690565b6001600160a01b031614155b15610a305760405163703e46dd60e11b815260040160405180910390fd5b610a1b610ca0565b816001600160a01b03166352d1902d6040518163ffffffff1660e01b8152600401602060405180830381865afa92505050801561155f575060408051601f3d908101601f1916820190925261155c91810190611fd0565b60015b61158757604051634c9c8ce360e01b81526001600160a01b0383166004820152602401610509565b600080516020611fea83398151915281146115b857604051632a87526960e21b815260048101829052602401610509565b611453838361191d565b306001600160a01b037f00000000000000000000000000000000000000000000000000000000000000001614610a305760405163703e46dd60e11b815260040160405180910390fd5b7f9016d09d72d40fdae2fd8ceac6b6234c7706214fd39c1cd1e609a0528c19930080546001600160a01b031981166001600160a01b03848116918217845560405192169182907f8be0079c531659141344cd1fd0a4f28419497f9722a3daafe3b4186f6b6457e090600090a3505050565b610c6d611973565b610a30611973565b600080826001600160a01b0316846001600160a01b0316036116fe5760405162461bcd60e51b815260206004820152602560248201527f556e697377617056324c6962726172793a204944454e544943414c5f41444452604482015264455353455360d81b6064820152608401610509565b826001600160a01b0316846001600160a01b03161061171e578284611721565b83835b90925090506001600160a01b03821661177c5760405162461bcd60e51b815260206004820152601e60248201527f556e697377617056324c6962726172793a205a45524f5f4144445245535300006044820152606401610509565b9250929050565b6000806000611792858561168c565b6040516bffffffffffffffffffffffff19606084811b8216602084015283901b16603482015291935091508690604801604051602081830303815290604052805190602001206040516020016118399291906001600160f81b0319815260609290921b6bffffffffffffffffffffffff1916600183015260158201527efb7f630766e6a796048ea87d01acd3068e8ff67d078148a3fa3f4a84f69bd5603582015260550190565b60408051601f1981840301815291905280516020909101209695505050505050565b600081158061187f575082826118718183611ec6565b925061187d9083611edd565b145b6118c25760405162461bcd60e51b815260206004820152601460248201527364732d6d6174682d6d756c2d6f766572666c6f7760601b6044820152606401610509565b92915050565b6000826118d58382611eb3565b91508110156118c25760405162461bcd60e51b815260206004820152601460248201527364732d6d6174682d6164642d6f766572666c6f7760601b6044820152606401610509565b611926826119bc565b6040516001600160a01b038316907fbc7cd75a20ee27fd9adebab32041f755214dbc6bffa90cc0225b39da2e5c2d3b90600090a280511561196b576114538282611a21565b610560611a97565b7ff0c57e16840df040f15088dc2f81fe391c3923bec73e23a9662efc9c229c6a0054600160401b900460ff16610a3057604051631afcd79f60e31b815260040160405180910390fd5b806001600160a01b03163b6000036119f257604051634c9c8ce360e01b81526001600160a01b0382166004820152602401610509565b600080516020611fea83398151915280546001600160a01b0319166001600160a01b0392909216919091179055565b6060600080846001600160a01b031684604051611a3e9190611f12565b600060405180830381855af49150503d8060008114611a79576040519150601f19603f3d011682016040523d82523d6000602084013e611a7e565b606091505b5091509150611a8e858383611ab6565b95945050505050565b3415610a305760405163b398979f60e01b815260040160405180910390fd5b606082611acb57611ac682611b12565b610ae0565b8151158015611ae257506001600160a01b0384163b155b15611b0b57604051639996b31560e01b81526001600160a01b0385166004820152602401610509565b5092915050565b805115611b225780518082602001fd5b604051630a12f52160e11b815260040160405180910390fd5b60008060408385031215611b4e57600080fd5b50508035926020909101359150565b600060208284031215611b6f57600080fd5b5035919050565b80356001600160a01b0381168114610a7a57600080fd5b600080600060608486031215611ba257600080fd5b611bab84611b76565b9250611bb960208501611b76565b9150604084013590509250925092565b600060208284031215611bdb57600080fd5b610ae082611b76565b634e487b7160e01b600052604160045260246000fd5b60008060408385031215611c0d57600080fd5b611c1683611b76565b9150602083013567ffffffffffffffff80821115611c3357600080fd5b818501915085601f830112611c4757600080fd5b813581811115611c5957611c59611be4565b604051601f8201601f19908116603f01168101908382118183101715611c8157611c81611be4565b81604052828152886020848701011115611c9a57600080fd5b8260208601602083013760006020848301015280955050505050509250929050565b634e487b7160e01b600052602160045260246000fd5b600060c0820160018060a01b03808a1684526020898186015260408960408701526060896060880152608060c06080890152858a5180885260e08a019150858c01975060005b81811015611d36578851881683529786019791860191600101611d18565b505060a0965088810360a08a0152808a518083528683019150868c01925060005b81811015611db6578351805160028110611d7357611d73611cbc565b84528089015160038110611d8957611d89611cbc565b848a0152808801518a16888501528681015187850152850151858401529287019291890191600101611d57565b50508098505050505050505050979650505050505050565b60005b83811015611de9578181015183820152602001611dd1565b50506000910152565b6020815260008251806020840152611e11816040850160208701611dce565b601f01601f19169190910160400192915050565b600080600080600080600060e0888a031215611e4057600080fd5b611e4988611b76565b9650611e5760208901611b76565b9550611e6560408901611b76565b9450611e7360608901611b76565b9350611e8160808901611b76565b925060a0880135915060c0880135905092959891949750929550565b634e487b7160e01b600052601160045260246000fd5b808201808211156118c2576118c2611e9d565b80820281158282048414176118c2576118c2611e9d565b600082611efa57634e487b7160e01b600052601260045260246000fd5b500490565b818103818111156118c2576118c2611e9d565b60008251611f24818460208701611dce565b9190910192915050565b600060208284031215611f4057600080fd5b81518015158114610ae057600080fd5b600060018201611f6257611f62611e9d565b5060010190565b80516001600160701b0381168114610a7a57600080fd5b600080600060608486031215611f9557600080fd5b611f9e84611f69565b9250611fac60208501611f69565b9150604084015163ffffffff81168114611fc557600080fd5b809150509250925092565b600060208284031215611fe257600080fd5b505191905056fe360894a13ba1a3210667c828492db98dca3e2076cc3735a920a3ca505d382bbca2646970667358221220ee6491a12ae6987567ba2f4f3cdb81a622eb01e5cb0cbe73e38e53d9236ab9f664736f6c63430008180033","linkReferences":{}},"methodIdentifiers":{"UPGRADE_INTERFACE_VERSION()":"ad3cb1cc","WETH()":"ad5c4648","_getUserIncome(address)":"b22fe567","claim()":"4e71d92d","emergencyWithdraw(address)":"6ff1c9bc","fee()":"ddca3f43","getAmountOut(address,address,uint256)":"4aa06652","getUserIncome(address)":"7f081b16","getUserInfo(address)":"6386c1c7","initialize(address,address,address,address,address,uint256,uint256)":"b33f9527","invite(address)":"4b77c468","owner()":"8da5cb5b","prefixCode()":"a99e393e","provide(uint256)":"2e2ebe06","proxiableUUID()":"52d1902d","rate()":"2c4e722e","recipient()":"66d003ac","renounceOwnership()":"715018a6","setConfig(uint256,uint256)":"1e34c585","token()":"fc0c546a","transferOwnership(address)":"f2fde38b","uniswapV2Factory()":"59d0f713","upgradeToAndCall(address,bytes)":"4f1ef286","withdraw()":"3ccfd60b"},"id":37}