{"abi":[{"type":"receive","stateMutability":"payable"},{"type":"function","name":"UPGRADE_INTERFACE_VERSION","inputs":[],"outputs":[{"name":"","type":"string","internalType":"string"}],"stateMutability":"view"},{"type":"function","name":"WETH","inputs":[],"outputs":[{"name":"","type":"address","internalType":"address"}],"stateMutability":"view"},{"type":"function","name":"claim","inputs":[],"outputs":[],"stateMutability":"nonpayable"},{"type":"function","name":"emergencyWithdraw","inputs":[{"name":"_to","type":"address","internalType":"address"}],"outputs":[],"stateMutability":"nonpayable"},{"type":"function","name":"fee","inputs":[],"outputs":[{"name":"","type":"uint256","internalType":"uint256"}],"stateMutability":"view"},{"type":"function","name":"getAmountOut","inputs":[{"name":"tokenIn","type":"address","internalType":"address"},{"name":"tokenOut","type":"address","internalType":"address"},{"name":"amountIn","type":"uint256","internalType":"uint256"}],"outputs":[{"name":"amountOut","type":"uint256","internalType":"uint256"}],"stateMutability":"view"},{"type":"function","name":"getUserIncome","inputs":[{"name":"_member","type":"address","internalType":"address"}],"outputs":[{"name":"","type":"uint256","internalType":"uint256"}],"stateMutability":"view"},{"type":"function","name":"getUserInfo","inputs":[{"name":"member","type":"address","internalType":"address"}],"outputs":[{"name":"_inviter","type":"address","internalType":"address"},{"name":"_staking","type":"uint256","internalType":"uint256"},{"name":"_dynamic","type":"uint256","internalType":"uint256"},{"name":"_income","type":"uint256","internalType":"uint256"},{"name":"_members","type":"address[]","internalType":"address[]"},{"name":"_records","type":"tuple[]","internalType":"struct StakingV2.Record[]","components":[{"name":"operate","type":"uint8","internalType":"enum StakingV2.Operate"},{"name":"mark","type":"uint8","internalType":"enum StakingV2.Mark"},{"name":"members","type":"address","internalType":"address"},{"name":"amount","type":"uint256","internalType":"uint256"},{"name":"time","type":"uint256","internalType":"uint256"}]}],"stateMutability":"view"},{"type":"function","name":"initialize","inputs":[{"name":"_token","type":"address","internalType":"address"},{"name":"_prefixCode","type":"address","internalType":"address"},{"name":"_uniswapV2Factory","type":"address","internalType":"address"},{"name":"_recipient","type":"address","internalType":"address"},{"name":"_WETH","type":"address","internalType":"address"},{"name":"_rate","type":"uint256","internalType":"uint256"},{"name":"_fee","type":"uint256","internalType":"uint256"}],"outputs":[],"stateMutability":"nonpayable"},{"type":"function","name":"invite","inputs":[{"name":"_inviter","type":"address","internalType":"address"}],"outputs":[],"stateMutability":"nonpayable"},{"type":"function","name":"owner","inputs":[],"outputs":[{"name":"","type":"address","internalType":"address"}],"stateMutability":"view"},{"type":"function","name":"prefixCode","inputs":[],"outputs":[{"name":"","type":"address","internalType":"address"}],"stateMutability":"view"},{"type":"function","name":"provide","inputs":[{"name":"_amount","type":"uint256","internalType":"uint256"}],"outputs":[],"stateMutability":"nonpayable"},{"type":"function","name":"proxiableUUID","inputs":[],"outputs":[{"name":"","type":"bytes32","internalType":"bytes32"}],"stateMutability":"view"},{"type":"function","name":"rate","inputs":[],"outputs":[{"name":"","type":"uint256","internalType":"uint256"}],"stateMutability":"view"},{"type":"function","name":"recipient","inputs":[],"outputs":[{"name":"","type":"address","internalType":"address"}],"stateMutability":"view"},{"type":"function","name":"renounceOwnership","inputs":[],"outputs":[],"stateMutability":"nonpayable"},{"type":"function","name":"setConfig","inputs":[{"name":"_rate","type":"uint256","internalType":"uint256"},{"name":"_fee","type":"uint256","internalType":"uint256"}],"outputs":[],"stateMutability":"nonpayable"},{"type":"function","name":"setSubToken","inputs":[{"name":"_subToken","type":"address","internalType":"address"}],"outputs":[],"stateMutability":"nonpayable"},{"type":"function","name":"subToken","inputs":[],"outputs":[{"name":"","type":"address","internalType":"address"}],"stateMutability":"view"},{"type":"function","name":"token","inputs":[],"outputs":[{"name":"","type":"address","internalType":"address"}],"stateMutability":"view"},{"type":"function","name":"transferOwnership","inputs":[{"name":"newOwner","type":"address","internalType":"address"}],"outputs":[],"stateMutability":"nonpayable"},{"type":"function","name":"uniswapV2Factory","inputs":[],"outputs":[{"name":"","type":"address","internalType":"address"}],"stateMutability":"view"},{"type":"function","name":"upgradeToAndCall","inputs":[{"name":"newImplementation","type":"address","internalType":"address"},{"name":"data","type":"bytes","internalType":"bytes"}],"outputs":[],"stateMutability":"payable"},{"type":"function","name":"withdraw","inputs":[],"outputs":[],"stateMutability":"nonpayable"},{"type":"event","name":"Initialized","inputs":[{"name":"version","type":"uint64","indexed":false,"internalType":"uint64"}],"anonymous":false},{"type":"event","name":"OwnershipTransferred","inputs":[{"name":"previousOwner","type":"address","indexed":true,"internalType":"address"},{"name":"newOwner","type":"address","indexed":true,"internalType":"address"}],"anonymous":false},{"type":"event","name":"Upgraded","inputs":[{"name":"implementation","type":"address","indexed":true,"internalType":"address"}],"anonymous":false},{"type":"error","name":"AddressEmptyCode","inputs":[{"name":"target","type":"address","internalType":"address"}]},{"type":"error","name":"ERC1967InvalidImplementation","inputs":[{"name":"implementation","type":"address","internalType":"address"}]},{"type":"error","name":"ERC1967NonPayable","inputs":[]},{"type":"error","name":"FailedInnerCall","inputs":[]},{"type":"error","name":"InvalidInitialization","inputs":[]},{"type":"error","name":"NotInitializing","inputs":[]},{"type":"error","name":"OwnableInvalidOwner","inputs":[{"name":"owner","type":"address","internalType":"address"}]},{"type":"error","name":"OwnableUnauthorizedAccount","inputs":[{"name":"account","type":"address","internalType":"address"}]},{"type":"error","name":"UUPSUnauthorizedCallContext","inputs":[]},{"type":"error","name":"UUPSUnsupportedProxiableUUID","inputs":[{"name":"slot","type":"bytes32","internalType":"bytes32"}]}],"bytecode":{"object":"0x60a06040523060805234801561001457600080fd5b5060805161223b61003e6000396000818161158c015281816115b501526116fb015261223b6000f3fe60806040526004361061016a5760003560e01c80636ff1c9bc116100d1578063ad3cb1cc1161008a578063ddca3f4311610064578063ddca3f431461044d578063e9ffa9f414610463578063f2fde38b14610483578063fc0c546a146104a357600080fd5b8063ad3cb1cc146103cf578063ad5c46481461040d578063b33f95271461042d57600080fd5b80636ff1c9bc146102fd578063715018a61461031d5780637d52ec37146103325780637f081b16146103525780638da5cb5b14610372578063a99e393e146103af57600080fd5b80634e71d92d116101235780634e71d92d146102365780634f1ef2861461024b57806352d1902d1461025e57806359d0f713146102735780636386c1c7146102ab57806366d003ac146102dd57600080fd5b80631e34c585146101765780632c4e722e146101985780632e2ebe06146101c15780633ccfd60b146101e15780634aa06652146101f65780634b77c4681461021657600080fd5b3661017157005b600080fd5b34801561018257600080fd5b50610196610191366004611d32565b6104c3565b005b3480156101a457600080fd5b506101ae60045481565b6040519081526020015b60405180910390f35b3480156101cd57600080fd5b506101966101dc366004611d54565b6104d6565b3480156101ed57600080fd5b506101966105d1565b34801561020257600080fd5b506101ae610211366004611d89565b6106ac565b34801561022257600080fd5b50610196610231366004611dc5565b6106e3565b34801561024257600080fd5b50610196610822565b610196610259366004611df6565b6108f6565b34801561026a57600080fd5b506101ae610911565b34801561027f57600080fd5b50600354610293906001600160a01b031681565b6040516001600160a01b0390911681526020016101b8565b3480156102b757600080fd5b506102cb6102c6366004611dc5565b61092e565b6040516101b896959493929190611ece565b3480156102e957600080fd5b50600754610293906001600160a01b031681565b34801561030957600080fd5b50610196610318366004611dc5565b610af4565b34801561032957600080fd5b50610196610b09565b34801561033e57600080fd5b5061019661034d366004611dc5565b610b1d565b34801561035e57600080fd5b506101ae61036d366004611dc5565b610b47565b34801561037e57600080fd5b507f9016d09d72d40fdae2fd8ceac6b6234c7706214fd39c1cd1e609a0528c199300546001600160a01b0316610293565b3480156103bb57600080fd5b50600254610293906001600160a01b031681565b3480156103db57600080fd5b50610400604051806040016040528060058152602001640352e302e360dc1b81525081565b6040516101b89190611fee565b34801561041957600080fd5b50600654610293906001600160a01b031681565b34801561043957600080fd5b50610196610448366004612021565b610bc4565b34801561045957600080fd5b506101ae60055481565b34801561046f57600080fd5b50600854610293906001600160a01b031681565b34801561048f57600080fd5b5061019661049e366004611dc5565b610d42565b3480156104af57600080fd5b50600154610293906001600160a01b031681565b6104cb610d7d565b600491909155600555565b33600090815260208190526040902080546001600160a01b031615801590610506575067016345785d8a00008210155b801561051a5750670de0b6b3a76400008211155b6105615760405162461bcd60e51b81526020600482015260136024820152722727aa2fa82927ab24a222afa822a926a4aa1760691b60448201526064015b60405180910390fd5b600154600754610580916001600160a01b039081169133911685610dd8565b60015460075461059e916001600160a01b0390811691163085610dd8565b6105a733610f08565b818160010160008282546105bb91906120af565b909155506105cd905060003384610f4d565b5050565b33600090815260208190526040902060018101546106215760405162461bcd60e51b815260206004820152600d60248201526c22a92927a92fa0a6a7aaa72a1760991b6044820152606401610558565b61062a33610f08565b600180546007549183015461064c926001600160a01b03928316921690611284565b600180546007546005549284015461068b936001600160a01b039384169390921691339160649161067c916120c2565b61068691906120d9565b610dd8565b61069b6001338360010154610f4d565b600060018201819055600290910155565b600354600090819081906106ca906001600160a01b03168787611398565b915091506106d9848383611462565b9695505050505050565b60006001600160a01b038216331415806107135750336000908152602081905260409020546001600160a01b0316155b9050806107535760405162461bcd60e51b815260206004820152600e60248201526d22a92927a92fa4a72b24aa22a91760911b6044820152606401610558565b6002546001600160a01b038381169116146107d4576001600160a01b03821660009081526020819052604090206001015467016345785d8a000011156107d45760405162461bcd60e51b81526020600482015260166024820152752727aa2fa420a9afa4a72b24aa22afa822a926a4aa1760511b6044820152606401610558565b503360008181526020818152604080832080546001600160a01b039096166001600160a01b031996871681179091558352822060050180546001810182559083529120018054909216179055565b333b63ffffffff161561086a5760405162461bcd60e51b815260206004820152601060248201526f22a92927a92fa922a1a4a824a2a72a1760811b6044820152606401610558565b600061087533610b47565b116108b25760405162461bcd60e51b815260206004820152600d60248201526c22a92927a92fa0a6a7aaa72a1760991b6044820152606401610558565b6108bb33610f08565b60006108c633610b47565b6008549091506108e0906001600160a01b03163383611284565b5033600090815260208190526040812060030155565b6108fe611581565b61090782611626565b6105cd828261162e565b600061091b6116f0565b506000805160206121e683398151915290565b6001600160a01b03808216600090815260208190526040812080546001820154600290920154931692909160608061096587610b47565b6001600160a01b0388166000908152602081815260409182902060050180548351818402810184019094528084529396509192908301828280156109d257602002820191906000526020600020905b81546001600160a01b031681526001909101906020018083116109b4575b5050506001600160a01b038a1660009081526020818152604080832060060180548251818502810185019093528083529698509095909450925084015b82821015610ae5576000848152602090206040805160a08101909152600384029091018054829060ff166001811115610a4a57610a4a611eb8565b6001811115610a5b57610a5b611eb8565b81528154602090910190610100900460ff166002811115610a7e57610a7e611eb8565b6002811115610a8f57610a8f611eb8565b81526020016000820160029054906101000a90046001600160a01b03166001600160a01b03166001600160a01b031681526020016001820154815260200160028201548152505081526020019060010190610a0f565b50505050905091939550919395565b610afc610d7d565b610b068147611739565b50565b610b11610d7d565b610b1b6000611802565b565b610b25610d7d565b600880546001600160a01b0319166001600160a01b0392909216919091179055565b6001600160a01b0381166000908152602081905260408120600381015460045460028301546001840154670de0b6b3a7640000939291610b86916120af565b6004850154610b9590426120fb565b610b9f91906120c2565b610ba991906120c2565b610bb391906120af565b610bbd91906120d9565b9392505050565b7ff0c57e16840df040f15088dc2f81fe391c3923bec73e23a9662efc9c229c6a008054600160401b810460ff16159067ffffffffffffffff16600081158015610c0a5750825b905060008267ffffffffffffffff166001148015610c275750303b155b905081158015610c35575080155b15610c535760405163f92ee8a960e01b815260040160405180910390fd5b845467ffffffffffffffff191660011785558315610c7d57845460ff60401b1916600160401b1785555b610c8633611873565b610c8e61187b565b600180546001600160a01b03199081166001600160a01b038f8116919091179092556002805482168e84161790556003805482168d84161790556007805482168c841617905560068054909116918a16919091179055600487905560058690558315610d3457845460ff60401b19168555604051600181527fc7f505b2f371ae2175ee4913f4499e1f2633a7b5936321eed1cdaeb6115181d29060200160405180910390a15b505050505050505050505050565b610d4a610d7d565b6001600160a01b038116610d7457604051631e4fbdf760e01b815260006004820152602401610558565b610b0681611802565b33610daf7f9016d09d72d40fdae2fd8ceac6b6234c7706214fd39c1cd1e609a0528c199300546001600160a01b031690565b6001600160a01b031614610b1b5760405163118cdaa760e01b8152336004820152602401610558565b604080516001600160a01b0385811660248301528481166044830152606480830185905283518084039091018152608490920183526020820180516001600160e01b03166323b872dd60e01b1790529151600092839290881691610e3c919061210e565b6000604051808303816000865af19150503d8060008114610e79576040519150601f19603f3d011682016040523d82523d6000602084013e610e7e565b606091505b5091509150818015610ea8575080511580610ea8575080806020019051810190610ea8919061212a565b610f005760405162461bcd60e51b8152602060048201526024808201527f5472616e7366657248656c7065723a205452414e534645525f46524f4d5f46416044820152631253115160e21b6064820152608401610558565b505050505050565b610f1181610b47565b610f2390670de0b6b3a76400006120c2565b6001600160a01b039091166000908152602081905260409020600381019190915542600490910155565b6001600160a01b03808316600090815260208190526040812054909116905b600281108015610f8457506001600160a01b03821615155b1561127d57610f9282610f08565b6001600160a01b0382166000908152602081905260408120908281036110c057816006016040518060a00160405280896001811115610fd357610fd3611eb8565b8152600160208083018290526001600160a01b038b166040840152606083018a905242608090930192909252835480820185556000948552919093208251600390920201805492939092839160ff1990911690838181111561103757611037611eb8565b021790555060208201518154829061ff00191661010083600281111561105f5761105f611eb8565b0217905550604082015181546001600160a01b03909116620100000262010000600160b01b03199091161781556060820151600182015560809091015160029091015560646110af8660146120c2565b6110b991906120d9565b90506111cd565b816006016040518060a001604052808960018111156110e1576110e1611eb8565b8152602001600281526001600160a01b038916602080830191909152604082018990524260609092019190915282546001818101855560009485529190932082516003909402018054929390929091839160ff191690838181111561114857611148611eb8565b021790555060208201518154829061ff00191661010083600281111561117057611170611eb8565b0217905550604082015181546001600160a01b03909116620100000262010000600160b01b03199091161781556060820151600182015560809091015160029091015560646111c086600a6120c2565b6111ca91906120d9565b90505b60008760018111156111e1576111e1611eb8565b0361120057808260020160008282546111fa91906120af565b90915550505b600187600181111561121457611214611eb8565b0361124b5780826002015410611243578082600201600082825461123891906120fb565b9091555061124b9050565b600060028301555b50506001600160a01b0391821660009081526020819052604090205490911690806112758161214c565b915050610f6c565b5050505050565b604080516001600160a01b038481166024830152604480830185905283518084039091018152606490920183526020820180516001600160e01b031663a9059cbb60e01b17905291516000928392908716916112e0919061210e565b6000604051808303816000865af19150503d806000811461131d576040519150601f19603f3d011682016040523d82523d6000602084013e611322565b606091505b509150915081801561134c57508051158061134c57508080602001905181019061134c919061212a565b61127d5760405162461bcd60e51b815260206004820152601f60248201527f5472616e7366657248656c7065723a205452414e534645525f4641494c4544006044820152606401610558565b60008060006113a78585611883565b5090506000806113b888888861197a565b6001600160a01b0316630902f1ac6040518163ffffffff1660e01b8152600401606060405180830381865afa1580156113f5573d6000803e3d6000fd5b505050506040513d601f19601f82011682018060405250810190611419919061217c565b506001600160701b031691506001600160701b03169150826001600160a01b0316876001600160a01b031614611450578082611453565b81815b90999098509650505050505050565b60008084116114c75760405162461bcd60e51b815260206004820152602b60248201527f556e697377617056324c6962726172793a20494e53554646494349454e545f4960448201526a1394155517d05353d5539560aa1b6064820152608401610558565b6000831180156114d75750600082115b6115345760405162461bcd60e51b815260206004820152602860248201527f556e697377617056324c6962726172793a20494e53554646494349454e545f4c604482015267495155494449545960c01b6064820152608401610558565b6000611542856103e5611a52565b905060006115508285611a52565b9050600061156a83611564886103e8611a52565b90611abf565b905061157681836120d9565b979650505050505050565b306001600160a01b037f000000000000000000000000000000000000000000000000000000000000000016148061160857507f00000000000000000000000000000000000000000000000000000000000000006001600160a01b03166115fc6000805160206121e6833981519152546001600160a01b031690565b6001600160a01b031614155b15610b1b5760405163703e46dd60e11b815260040160405180910390fd5b610b06610d7d565b816001600160a01b03166352d1902d6040518163ffffffff1660e01b8152600401602060405180830381865afa925050508015611688575060408051601f3d908101601f19168201909252611685918101906121cc565b60015b6116b057604051634c9c8ce360e01b81526001600160a01b0383166004820152602401610558565b6000805160206121e683398151915281146116e157604051632a87526960e21b815260048101829052602401610558565b6116eb8383611b14565b505050565b306001600160a01b037f00000000000000000000000000000000000000000000000000000000000000001614610b1b5760405163703e46dd60e11b815260040160405180910390fd5b604080516000808252602082019092526001600160a01b038416908390604051611763919061210e565b60006040518083038185875af1925050503d80600081146117a0576040519150601f19603f3d011682016040523d82523d6000602084013e6117a5565b606091505b50509050806116eb5760405162461bcd60e51b815260206004820152602360248201527f5472616e7366657248656c7065723a204554485f5452414e534645525f46414960448201526213115160ea1b6064820152608401610558565b7f9016d09d72d40fdae2fd8ceac6b6234c7706214fd39c1cd1e609a0528c19930080546001600160a01b031981166001600160a01b03848116918217845560405192169182907f8be0079c531659141344cd1fd0a4f28419497f9722a3daafe3b4186f6b6457e090600090a3505050565b610d4a611b6a565b610b1b611b6a565b600080826001600160a01b0316846001600160a01b0316036118f55760405162461bcd60e51b815260206004820152602560248201527f556e697377617056324c6962726172793a204944454e544943414c5f41444452604482015264455353455360d81b6064820152608401610558565b826001600160a01b0316846001600160a01b031610611915578284611918565b83835b90925090506001600160a01b0382166119735760405162461bcd60e51b815260206004820152601e60248201527f556e697377617056324c6962726172793a205a45524f5f4144445245535300006044820152606401610558565b9250929050565b60008060006119898585611883565b6040516bffffffffffffffffffffffff19606084811b8216602084015283901b1660348201529193509150869060480160405160208183030381529060405280519060200120604051602001611a309291906001600160f81b0319815260609290921b6bffffffffffffffffffffffff1916600183015260158201527efb7f630766e6a796048ea87d01acd3068e8ff67d078148a3fa3f4a84f69bd5603582015260550190565b60408051601f1981840301815291905280516020909101209695505050505050565b6000811580611a7657508282611a6881836120c2565b9250611a7490836120d9565b145b611ab95760405162461bcd60e51b815260206004820152601460248201527364732d6d6174682d6d756c2d6f766572666c6f7760601b6044820152606401610558565b92915050565b600082611acc83826120af565b9150811015611ab95760405162461bcd60e51b815260206004820152601460248201527364732d6d6174682d6164642d6f766572666c6f7760601b6044820152606401610558565b611b1d82611bb3565b6040516001600160a01b038316907fbc7cd75a20ee27fd9adebab32041f755214dbc6bffa90cc0225b39da2e5c2d3b90600090a2805115611b62576116eb8282611c18565b6105cd611c8e565b7ff0c57e16840df040f15088dc2f81fe391c3923bec73e23a9662efc9c229c6a0054600160401b900460ff16610b1b57604051631afcd79f60e31b815260040160405180910390fd5b806001600160a01b03163b600003611be957604051634c9c8ce360e01b81526001600160a01b0382166004820152602401610558565b6000805160206121e683398151915280546001600160a01b0319166001600160a01b0392909216919091179055565b6060600080846001600160a01b031684604051611c35919061210e565b600060405180830381855af49150503d8060008114611c70576040519150601f19603f3d011682016040523d82523d6000602084013e611c75565b606091505b5091509150611c85858383611cad565b95945050505050565b3415610b1b5760405163b398979f60e01b815260040160405180910390fd5b606082611cc257611cbd82611d09565b610bbd565b8151158015611cd957506001600160a01b0384163b155b15611d0257604051639996b31560e01b81526001600160a01b0385166004820152602401610558565b5092915050565b805115611d195780518082602001fd5b604051630a12f52160e11b815260040160405180910390fd5b60008060408385031215611d4557600080fd5b50508035926020909101359150565b600060208284031215611d6657600080fd5b5035919050565b80356001600160a01b0381168114611d8457600080fd5b919050565b600080600060608486031215611d9e57600080fd5b611da784611d6d565b9250611db560208501611d6d565b9150604084013590509250925092565b600060208284031215611dd757600080fd5b610bbd82611d6d565b634e487b7160e01b600052604160045260246000fd5b60008060408385031215611e0957600080fd5b611e1283611d6d565b9150602083013567ffffffffffffffff80821115611e2f57600080fd5b818501915085601f830112611e4357600080fd5b813581811115611e5557611e55611de0565b604051601f8201601f19908116603f01168101908382118183101715611e7d57611e7d611de0565b81604052828152886020848701011115611e9657600080fd5b8260208601602083013760006020848301015280955050505050509250929050565b634e487b7160e01b600052602160045260246000fd5b600060c0820160018060a01b03808a1684526020898186015260408960408701526060896060880152608060c06080890152858a5180885260e08a019150858c01975060005b81811015611f32578851881683529786019791860191600101611f14565b505060a0965088810360a08a0152808a518083528683019150868c01925060005b81811015611fb2578351805160028110611f6f57611f6f611eb8565b84528089015160038110611f8557611f85611eb8565b848a0152808801518a16888501528681015187850152850151858401529287019291890191600101611f53565b50508098505050505050505050979650505050505050565b60005b83811015611fe5578181015183820152602001611fcd565b50506000910152565b602081526000825180602084015261200d816040850160208701611fca565b601f01601f19169190910160400192915050565b600080600080600080600060e0888a03121561203c57600080fd5b61204588611d6d565b965061205360208901611d6d565b955061206160408901611d6d565b945061206f60608901611d6d565b935061207d60808901611d6d565b925060a0880135915060c0880135905092959891949750929550565b634e487b7160e01b600052601160045260246000fd5b80820180821115611ab957611ab9612099565b8082028115828204841417611ab957611ab9612099565b6000826120f657634e487b7160e01b600052601260045260246000fd5b500490565b81810381811115611ab957611ab9612099565b60008251612120818460208701611fca565b9190910192915050565b60006020828403121561213c57600080fd5b81518015158114610bbd57600080fd5b60006001820161215e5761215e612099565b5060010190565b80516001600160701b0381168114611d8457600080fd5b60008060006060848603121561219157600080fd5b61219a84612165565b92506121a860208501612165565b9150604084015163ffffffff811681146121c157600080fd5b809150509250925092565b6000602082840312156121de57600080fd5b505191905056fe360894a13ba1a3210667c828492db98dca3e2076cc3735a920a3ca505d382bbca2646970667358221220e04e719e51fb6f95ecd90099d3cf1e8a749bd3747fbd691422e1f08ab9c5a19b64736f6c63430008180033","linkReferences":{}},"methodIdentifiers":{"UPGRADE_INTERFACE_VERSION()":"ad3cb1cc","WETH()":"ad5c4648","claim()":"4e71d92d","emergencyWithdraw(address)":"6ff1c9bc","fee()":"ddca3f43","getAmountOut(address,address,uint256)":"4aa06652","getUserIncome(address)":"7f081b16","getUserInfo(address)":"6386c1c7","initialize(address,address,address,address,address,uint256,uint256)":"b33f9527","invite(address)":"4b77c468","owner()":"8da5cb5b","prefixCode()":"a99e393e","provide(uint256)":"2e2ebe06","proxiableUUID()":"52d1902d","rate()":"2c4e722e","recipient()":"66d003ac","renounceOwnership()":"715018a6","setConfig(uint256,uint256)":"1e34c585","setSubToken(address)":"7d52ec37","subToken()":"e9ffa9f4","token()":"fc0c546a","transferOwnership(address)":"f2fde38b","uniswapV2Factory()":"59d0f713","upgradeToAndCall(address,bytes)":"4f1ef286","withdraw()":"3ccfd60b"},"id":51}