{"abi":[{"type":"constructor","inputs":[],"stateMutability":"nonpayable"},{"type":"function","name":"approve","inputs":[{"name":"to","type":"address","internalType":"address"},{"name":"tokenId","type":"uint256","internalType":"uint256"}],"outputs":[],"stateMutability":"nonpayable"},{"type":"function","name":"balanceOf","inputs":[{"name":"owner","type":"address","internalType":"address"}],"outputs":[{"name":"","type":"uint256","internalType":"uint256"}],"stateMutability":"view"},{"type":"function","name":"batchMint","inputs":[{"name":"addr","type":"address","internalType":"address"},{"name":"amount","type":"uint256","internalType":"uint256"}],"outputs":[],"stateMutability":"nonpayable"},{"type":"function","name":"batchMintForUser","inputs":[{"name":"addrs","type":"address[]","internalType":"address[]"}],"outputs":[],"stateMutability":"nonpayable"},{"type":"function","name":"getApproved","inputs":[{"name":"tokenId","type":"uint256","internalType":"uint256"}],"outputs":[{"name":"","type":"address","internalType":"address"}],"stateMutability":"view"},{"type":"function","name":"index","inputs":[],"outputs":[{"name":"","type":"uint256","internalType":"uint256"}],"stateMutability":"view"},{"type":"function","name":"isApprovedForAll","inputs":[{"name":"owner","type":"address","internalType":"address"},{"name":"operator","type":"address","internalType":"address"}],"outputs":[{"name":"","type":"bool","internalType":"bool"}],"stateMutability":"view"},{"type":"function","name":"name","inputs":[],"outputs":[{"name":"","type":"string","internalType":"string"}],"stateMutability":"view"},{"type":"function","name":"owner","inputs":[],"outputs":[{"name":"","type":"address","internalType":"address"}],"stateMutability":"view"},{"type":"function","name":"ownerOf","inputs":[{"name":"tokenId","type":"uint256","internalType":"uint256"}],"outputs":[{"name":"","type":"address","internalType":"address"}],"stateMutability":"view"},{"type":"function","name":"renounceOwnership","inputs":[],"outputs":[],"stateMutability":"nonpayable"},{"type":"function","name":"safeTransferFrom","inputs":[{"name":"from","type":"address","internalType":"address"},{"name":"to","type":"address","internalType":"address"},{"name":"tokenId","type":"uint256","internalType":"uint256"}],"outputs":[],"stateMutability":"nonpayable"},{"type":"function","name":"safeTransferFrom","inputs":[{"name":"from","type":"address","internalType":"address"},{"name":"to","type":"address","internalType":"address"},{"name":"tokenId","type":"uint256","internalType":"uint256"},{"name":"data","type":"bytes","internalType":"bytes"}],"outputs":[],"stateMutability":"nonpayable"},{"type":"function","name":"setApprovalForAll","inputs":[{"name":"operator","type":"address","internalType":"address"},{"name":"approved","type":"bool","internalType":"bool"}],"outputs":[],"stateMutability":"nonpayable"},{"type":"function","name":"setUrl","inputs":[{"name":"_url","type":"string","internalType":"string"}],"outputs":[],"stateMutability":"nonpayable"},{"type":"function","name":"supportsInterface","inputs":[{"name":"interfaceId","type":"bytes4","internalType":"bytes4"}],"outputs":[{"name":"","type":"bool","internalType":"bool"}],"stateMutability":"view"},{"type":"function","name":"symbol","inputs":[],"outputs":[{"name":"","type":"string","internalType":"string"}],"stateMutability":"view"},{"type":"function","name":"tokenURI","inputs":[{"name":"tokenId","type":"uint256","internalType":"uint256"}],"outputs":[{"name":"","type":"string","internalType":"string"}],"stateMutability":"view"},{"type":"function","name":"transferFrom","inputs":[{"name":"from","type":"address","internalType":"address"},{"name":"to","type":"address","internalType":"address"},{"name":"tokenId","type":"uint256","internalType":"uint256"}],"outputs":[],"stateMutability":"nonpayable"},{"type":"function","name":"transferOwnership","inputs":[{"name":"newOwner","type":"address","internalType":"address"}],"outputs":[],"stateMutability":"nonpayable"},{"type":"event","name":"Approval","inputs":[{"name":"owner","type":"address","indexed":true,"internalType":"address"},{"name":"approved","type":"address","indexed":true,"internalType":"address"},{"name":"tokenId","type":"uint256","indexed":true,"internalType":"uint256"}],"anonymous":false},{"type":"event","name":"ApprovalForAll","inputs":[{"name":"owner","type":"address","indexed":true,"internalType":"address"},{"name":"operator","type":"address","indexed":true,"internalType":"address"},{"name":"approved","type":"bool","indexed":false,"internalType":"bool"}],"anonymous":false},{"type":"event","name":"OwnershipTransferred","inputs":[{"name":"previousOwner","type":"address","indexed":true,"internalType":"address"},{"name":"newOwner","type":"address","indexed":true,"internalType":"address"}],"anonymous":false},{"type":"event","name":"Transfer","inputs":[{"name":"from","type":"address","indexed":true,"internalType":"address"},{"name":"to","type":"address","indexed":true,"internalType":"address"},{"name":"tokenId","type":"uint256","indexed":true,"internalType":"uint256"}],"anonymous":false},{"type":"error","name":"ERC721IncorrectOwner","inputs":[{"name":"sender","type":"address","internalType":"address"},{"name":"tokenId","type":"uint256","internalType":"uint256"},{"name":"owner","type":"address","internalType":"address"}]},{"type":"error","name":"ERC721InsufficientApproval","inputs":[{"name":"operator","type":"address","internalType":"address"},{"name":"tokenId","type":"uint256","internalType":"uint256"}]},{"type":"error","name":"ERC721InvalidApprover","inputs":[{"name":"approver","type":"address","internalType":"address"}]},{"type":"error","name":"ERC721InvalidOperator","inputs":[{"name":"operator","type":"address","internalType":"address"}]},{"type":"error","name":"ERC721InvalidOwner","inputs":[{"name":"owner","type":"address","internalType":"address"}]},{"type":"error","name":"ERC721InvalidReceiver","inputs":[{"name":"receiver","type":"address","internalType":"address"}]},{"type":"error","name":"ERC721InvalidSender","inputs":[{"name":"sender","type":"address","internalType":"address"}]},{"type":"error","name":"ERC721NonexistentToken","inputs":[{"name":"tokenId","type":"uint256","internalType":"uint256"}]},{"type":"error","name":"OwnableInvalidOwner","inputs":[{"name":"owner","type":"address","internalType":"address"}]},{"type":"error","name":"OwnableUnauthorizedAccount","inputs":[{"name":"account","type":"address","internalType":"address"}]}],"bytecode":{"object":"0x608060405260016007553480156200001657600080fd5b5060408051808201825260068082526557756b6f6e6760d01b602080840182905284518086019095529184529083015233916000620000568382620001a2565b506001620000658282620001a2565b5050506001600160a01b0381166200009757604051631e4fbdf760e01b81526000600482015260240160405180910390fd5b620000a281620000a9565b506200026e565b600680546001600160a01b038381166001600160a01b0319831681179093556040519116919082907f8be0079c531659141344cd1fd0a4f28419497f9722a3daafe3b4186f6b6457e090600090a35050565b634e487b7160e01b600052604160045260246000fd5b600181811c908216806200012657607f821691505b6020821081036200014757634e487b7160e01b600052602260045260246000fd5b50919050565b601f8211156200019d576000816000526020600020601f850160051c81016020861015620001785750805b601f850160051c820191505b81811015620001995782815560010162000184565b5050505b505050565b81516001600160401b03811115620001be57620001be620000fb565b620001d681620001cf845462000111565b846200014d565b602080601f8311600181146200020e5760008415620001f55750858301515b600019600386901b1c1916600185901b17855562000199565b600085815260208120601f198616915b828110156200023f578886015182559484019460019091019084016200021e565b50858210156200025e5787850151600019600388901b60f8161c191681555b5050505050600190811b01905550565b6113ef806200027e6000396000f3fe608060405234801561001057600080fd5b506004361061012c5760003560e01c806370a08231116100ad578063a22cb46511610071578063a22cb4651461026b578063b88d4fde1461027e578063c87b56dd14610291578063e985e9c5146102a4578063f2fde38b146102b757600080fd5b806370a0823114610224578063715018a61461023757806373ca7f571461023f5780638da5cb5b1461025257806395d89b411461026357600080fd5b8063252498a2116100f4578063252498a2146101c15780632986c0e5146101d457806342842e0e146101eb57806343508b05146101fe5780636352211e1461021157600080fd5b806301ffc9a71461013157806306fdde0314610159578063081812fc1461016e578063095ea7b31461019957806323b872dd146101ae575b600080fd5b61014461013f366004610df3565b6102ca565b60405190151581526020015b60405180910390f35b61016161031c565b6040516101509190610e60565b61018161017c366004610e73565b6103ae565b6040516001600160a01b039091168152602001610150565b6101ac6101a7366004610ea8565b6103d7565b005b6101ac6101bc366004610ed2565b6103e6565b6101ac6101cf366004610fad565b610476565b6101dd60075481565b604051908152602001610150565b6101ac6101f9366004610ed2565b61048a565b6101ac61020c366004610ea8565b6104aa565b61018161021f366004610e73565b6104e6565b6101dd610232366004610ff6565b6104f1565b6101ac610539565b6101ac61024d366004611011565b61054d565b6006546001600160a01b0316610181565b6101616105a3565b6101ac6102793660046110be565b6105b2565b6101ac61028c3660046110fa565b6105bd565b61016161029f366004610e73565b6105d4565b6101446102b2366004611176565b61063c565b6101ac6102c5366004610ff6565b61066a565b60006001600160e01b031982166380ac58cd60e01b14806102fb57506001600160e01b03198216635b5e139f60e01b145b8061031657506301ffc9a760e01b6001600160e01b03198316145b92915050565b60606000805461032b906111a9565b80601f0160208091040260200160405190810160405280929190818152602001828054610357906111a9565b80156103a45780601f10610379576101008083540402835291602001916103a4565b820191906000526020600020905b81548152906001019060200180831161038757829003601f168201915b5050505050905090565b60006103b9826106a8565b506000828152600460205260409020546001600160a01b0316610316565b6103e28282336106e1565b5050565b6001600160a01b03821661041557604051633250574960e11b8152600060048201526024015b60405180910390fd5b60006104228383336106ee565b9050836001600160a01b0316816001600160a01b031614610470576040516364283d7b60e01b81526001600160a01b038086166004830152602482018490528216604482015260640161040c565b50505050565b61047e6107e7565b60086103e28282611233565b6104a5838383604051806020016040528060008152506105bd565b505050565b6104b26107e7565b60005b818110156104a5576104c983600754610814565b600780549060006104d9836112f3565b90915550506001016104b5565b6000610316826106a8565b60006001600160a01b03821661051d576040516322718ad960e21b81526000600482015260240161040c565b506001600160a01b031660009081526003602052604090205490565b6105416107e7565b61054b6000610879565b565b6105556107e7565b60005b81518110156103e2576105868282815181106105765761057661131a565b6020026020010151600754610814565b60078054906000610596836112f3565b9091555050600101610558565b60606001805461032b906111a9565b6103e23383836108cb565b6105c88484846103e6565b6104708484848461096a565b60606105df826106a8565b5060006105ea610a93565b9050600081511161060a5760405180602001604052806000815250610635565b8061061484610aa2565b604051602001610625929190611330565b6040516020818303038152906040525b9392505050565b6001600160a01b03918216600090815260056020908152604080832093909416825291909152205460ff1690565b6106726107e7565b6001600160a01b03811661069c57604051631e4fbdf760e01b81526000600482015260240161040c565b6106a581610879565b50565b6000818152600260205260408120546001600160a01b03168061031657604051637e27328960e01b81526004810184905260240161040c565b6104a58383836001610b35565b6000828152600260205260408120546001600160a01b039081169083161561071b5761071b818486610c3b565b6001600160a01b0381161561075957610738600085600080610b35565b6001600160a01b038116600090815260036020526040902080546000190190555b6001600160a01b03851615610788576001600160a01b0385166000908152600360205260409020805460010190555b60008481526002602052604080822080546001600160a01b0319166001600160a01b0389811691821790925591518793918516917fddf252ad1be2c89b69c2b068fc378daa952ba7f163c4a11628f55a4df523b3ef91a4949350505050565b6006546001600160a01b0316331461054b5760405163118cdaa760e01b815233600482015260240161040c565b6001600160a01b03821661083e57604051633250574960e11b81526000600482015260240161040c565b600061084c838360006106ee565b90506001600160a01b038116156104a5576040516339e3563760e11b81526000600482015260240161040c565b600680546001600160a01b038381166001600160a01b0319831681179093556040519116919082907f8be0079c531659141344cd1fd0a4f28419497f9722a3daafe3b4186f6b6457e090600090a35050565b6001600160a01b0382166108fd57604051630b61174360e31b81526001600160a01b038316600482015260240161040c565b6001600160a01b03838116600081815260056020908152604080832094871680845294825291829020805460ff191686151590811790915591519182527f17307eab39ab6107e8899845ad3d59bd9653f200f220920489ca2b5937696c31910160405180910390a3505050565b6001600160a01b0383163b1561047057604051630a85bd0160e11b81526001600160a01b0384169063150b7a02906109ac90339088908790879060040161135f565b6020604051808303816000875af19250505080156109e7575060408051601f3d908101601f191682019092526109e49181019061139c565b60015b610a50573d808015610a15576040519150601f19603f3d011682016040523d82523d6000602084013e610a1a565b606091505b508051600003610a4857604051633250574960e11b81526001600160a01b038516600482015260240161040c565b805181602001fd5b6001600160e01b03198116630a85bd0160e11b14610a8c57604051633250574960e11b81526001600160a01b038516600482015260240161040c565b5050505050565b60606008805461032b906111a9565b60606000610aaf83610c9f565b600101905060008167ffffffffffffffff811115610acf57610acf610f0e565b6040519080825280601f01601f191660200182016040528015610af9576020820181803683370190505b5090508181016020015b600019016f181899199a1a9b1b9c1cb0b131b232b360811b600a86061a8153600a8504945084610b0357509392505050565b8080610b4957506001600160a01b03821615155b15610c0b576000610b59846106a8565b90506001600160a01b03831615801590610b855750826001600160a01b0316816001600160a01b031614155b8015610b985750610b96818461063c565b155b15610bc15760405163a9fbf51f60e01b81526001600160a01b038416600482015260240161040c565b8115610c095783856001600160a01b0316826001600160a01b03167f8c5be1e5ebec7d5bd14f71427d1e84f3dd0314c0f7b2291e5b200ac8c7c3b92560405160405180910390a45b505b5050600090815260046020526040902080546001600160a01b0319166001600160a01b0392909216919091179055565b610c46838383610d77565b6104a5576001600160a01b038316610c7457604051637e27328960e01b81526004810182905260240161040c565b60405163177e802f60e01b81526001600160a01b03831660048201526024810182905260440161040c565b60008072184f03e93ff9f4daa797ed6e38ed64bf6a1f0160401b8310610cde5772184f03e93ff9f4daa797ed6e38ed64bf6a1f0160401b830492506040015b6d04ee2d6d415b85acef81000000008310610d0a576d04ee2d6d415b85acef8100000000830492506020015b662386f26fc100008310610d2857662386f26fc10000830492506010015b6305f5e1008310610d40576305f5e100830492506008015b6127108310610d5457612710830492506004015b60648310610d66576064830492506002015b600a83106103165760010192915050565b60006001600160a01b03831615801590610dd55750826001600160a01b0316846001600160a01b03161480610db15750610db1848461063c565b80610dd557506000828152600460205260409020546001600160a01b038481169116145b949350505050565b6001600160e01b0319811681146106a557600080fd5b600060208284031215610e0557600080fd5b813561063581610ddd565b60005b83811015610e2b578181015183820152602001610e13565b50506000910152565b60008151808452610e4c816020860160208601610e10565b601f01601f19169290920160200192915050565b6020815260006106356020830184610e34565b600060208284031215610e8557600080fd5b5035919050565b80356001600160a01b0381168114610ea357600080fd5b919050565b60008060408385031215610ebb57600080fd5b610ec483610e8c565b946020939093013593505050565b600080600060608486031215610ee757600080fd5b610ef084610e8c565b9250610efe60208501610e8c565b9150604084013590509250925092565b634e487b7160e01b600052604160045260246000fd5b604051601f8201601f1916810167ffffffffffffffff81118282101715610f4d57610f4d610f0e565b604052919050565b600067ffffffffffffffff831115610f6f57610f6f610f0e565b610f82601f8401601f1916602001610f24565b9050828152838383011115610f9657600080fd5b828260208301376000602084830101529392505050565b600060208284031215610fbf57600080fd5b813567ffffffffffffffff811115610fd657600080fd5b8201601f81018413610fe757600080fd5b610dd584823560208401610f55565b60006020828403121561100857600080fd5b61063582610e8c565b6000602080838503121561102457600080fd5b823567ffffffffffffffff8082111561103c57600080fd5b818501915085601f83011261105057600080fd5b81358181111561106257611062610f0e565b8060051b9150611073848301610f24565b818152918301840191848101908884111561108d57600080fd5b938501935b838510156110b2576110a385610e8c565b82529385019390850190611092565b98975050505050505050565b600080604083850312156110d157600080fd5b6110da83610e8c565b9150602083013580151581146110ef57600080fd5b809150509250929050565b6000806000806080858703121561111057600080fd5b61111985610e8c565b935061112760208601610e8c565b925060408501359150606085013567ffffffffffffffff81111561114a57600080fd5b8501601f8101871361115b57600080fd5b61116a87823560208401610f55565b91505092959194509250565b6000806040838503121561118957600080fd5b61119283610e8c565b91506111a060208401610e8c565b90509250929050565b600181811c908216806111bd57607f821691505b6020821081036111dd57634e487b7160e01b600052602260045260246000fd5b50919050565b601f8211156104a5576000816000526020600020601f850160051c8101602086101561120c5750805b601f850160051c820191505b8181101561122b57828155600101611218565b505050505050565b815167ffffffffffffffff81111561124d5761124d610f0e565b6112618161125b84546111a9565b846111e3565b602080601f831160018114611296576000841561127e5750858301515b600019600386901b1c1916600185901b17855561122b565b600085815260208120601f198616915b828110156112c5578886015182559484019460019091019084016112a6565b50858210156112e35787850151600019600388901b60f8161c191681555b5050505050600190811b01905550565b60006001820161131357634e487b7160e01b600052601160045260246000fd5b5060010190565b634e487b7160e01b600052603260045260246000fd5b60008351611342818460208801610e10565b835190830190611356818360208801610e10565b01949350505050565b6001600160a01b038581168252841660208201526040810183905260806060820181905260009061139290830184610e34565b9695505050505050565b6000602082840312156113ae57600080fd5b815161063581610ddd56fea26469706673582212207e6aa20db8e1fc0d2bd7843ab8f2f5bab07a74540d0c388fbcac1079d3794deb64736f6c63430008180033","linkReferences":{}},"methodIdentifiers":{"approve(address,uint256)":"095ea7b3","balanceOf(address)":"70a08231","batchMint(address,uint256)":"43508b05","batchMintForUser(address[])":"73ca7f57","getApproved(uint256)":"081812fc","index()":"2986c0e5","isApprovedForAll(address,address)":"e985e9c5","name()":"06fdde03","owner()":"8da5cb5b","ownerOf(uint256)":"6352211e","renounceOwnership()":"715018a6","safeTransferFrom(address,address,uint256)":"42842e0e","safeTransferFrom(address,address,uint256,bytes)":"b88d4fde","setApprovalForAll(address,bool)":"a22cb465","setUrl(string)":"252498a2","supportsInterface(bytes4)":"01ffc9a7","symbol()":"95d89b41","tokenURI(uint256)":"c87b56dd","transferFrom(address,address,uint256)":"23b872dd","transferOwnership(address)":"f2fde38b"},"id":52}