{"abi":[{"type":"receive","stateMutability":"payable"},{"type":"function","name":"UPGRADE_INTERFACE_VERSION","inputs":[],"outputs":[{"name":"","type":"string","internalType":"string"}],"stateMutability":"view"},{"type":"function","name":"claim","inputs":[],"outputs":[],"stateMutability":"nonpayable"},{"type":"function","name":"emergencyWithdraw","inputs":[{"name":"_token","type":"address","internalType":"address"},{"name":"_to","type":"address","internalType":"address"}],"outputs":[],"stateMutability":"nonpayable"},{"type":"function","name":"fee","inputs":[],"outputs":[{"name":"","type":"uint256","internalType":"uint256"}],"stateMutability":"view"},{"type":"function","name":"getUserIncome","inputs":[{"name":"_member","type":"address","internalType":"address"}],"outputs":[{"name":"","type":"uint256","internalType":"uint256"}],"stateMutability":"view"},{"type":"function","name":"getUserInfo","inputs":[{"name":"member","type":"address","internalType":"address"}],"outputs":[{"name":"_inviter","type":"address","internalType":"address"},{"name":"_staking","type":"uint256","internalType":"uint256"},{"name":"_dynamic","type":"uint256","internalType":"uint256"},{"name":"_income","type":"uint256","internalType":"uint256"},{"name":"_members","type":"address[]","internalType":"address[]"},{"name":"_records","type":"tuple[]","internalType":"struct Staking.Record[]","components":[{"name":"operate","type":"uint8","internalType":"enum Staking.Operate"},{"name":"mark","type":"uint8","internalType":"enum Staking.Mark"},{"name":"members","type":"address","internalType":"address"},{"name":"amount","type":"uint256","internalType":"uint256"},{"name":"time","type":"uint256","internalType":"uint256"}]}],"stateMutability":"view"},{"type":"function","name":"initialize","inputs":[{"name":"_token","type":"address","internalType":"address"},{"name":"_prefixCode","type":"address","internalType":"address"},{"name":"_recipient","type":"address","internalType":"address"},{"name":"_subToken","type":"address","internalType":"address"},{"name":"_usdt","type":"address","internalType":"address"},{"name":"_rate","type":"uint256","internalType":"uint256"},{"name":"_fee","type":"uint256","internalType":"uint256"},{"name":"_swapRate","type":"uint256","internalType":"uint256"}],"outputs":[],"stateMutability":"nonpayable"},{"type":"function","name":"invite","inputs":[{"name":"_inviter","type":"address","internalType":"address"}],"outputs":[],"stateMutability":"nonpayable"},{"type":"function","name":"owner","inputs":[],"outputs":[{"name":"","type":"address","internalType":"address"}],"stateMutability":"view"},{"type":"function","name":"prefixCode","inputs":[],"outputs":[{"name":"","type":"address","internalType":"address"}],"stateMutability":"view"},{"type":"function","name":"provide","inputs":[{"name":"_amount","type":"uint256","internalType":"uint256"}],"outputs":[],"stateMutability":"nonpayable"},{"type":"function","name":"proxiableUUID","inputs":[],"outputs":[{"name":"","type":"bytes32","internalType":"bytes32"}],"stateMutability":"view"},{"type":"function","name":"rate","inputs":[],"outputs":[{"name":"","type":"uint256","internalType":"uint256"}],"stateMutability":"view"},{"type":"function","name":"recipient","inputs":[],"outputs":[{"name":"","type":"address","internalType":"address"}],"stateMutability":"view"},{"type":"function","name":"renounceOwnership","inputs":[],"outputs":[],"stateMutability":"nonpayable"},{"type":"function","name":"setConfig","inputs":[{"name":"_rate","type":"uint256","internalType":"uint256"},{"name":"_fee","type":"uint256","internalType":"uint256"}],"outputs":[],"stateMutability":"nonpayable"},{"type":"function","name":"setSubToken","inputs":[{"name":"_subToken","type":"address","internalType":"address"}],"outputs":[],"stateMutability":"nonpayable"},{"type":"function","name":"setSwapRate","inputs":[{"name":"_swapRate","type":"uint256","internalType":"uint256"}],"outputs":[],"stateMutability":"nonpayable"},{"type":"function","name":"subToken","inputs":[],"outputs":[{"name":"","type":"address","internalType":"address"}],"stateMutability":"view"},{"type":"function","name":"swap","inputs":[{"name":"_amount","type":"uint256","internalType":"uint256"}],"outputs":[],"stateMutability":"nonpayable"},{"type":"function","name":"swapRate","inputs":[],"outputs":[{"name":"","type":"uint256","internalType":"uint256"}],"stateMutability":"view"},{"type":"function","name":"token","inputs":[],"outputs":[{"name":"","type":"address","internalType":"address"}],"stateMutability":"view"},{"type":"function","name":"transferOwnership","inputs":[{"name":"newOwner","type":"address","internalType":"address"}],"outputs":[],"stateMutability":"nonpayable"},{"type":"function","name":"upgradeToAndCall","inputs":[{"name":"newImplementation","type":"address","internalType":"address"},{"name":"data","type":"bytes","internalType":"bytes"}],"outputs":[],"stateMutability":"payable"},{"type":"function","name":"usdt","inputs":[],"outputs":[{"name":"","type":"address","internalType":"address"}],"stateMutability":"view"},{"type":"function","name":"withdraw","inputs":[],"outputs":[],"stateMutability":"nonpayable"},{"type":"event","name":"Initialized","inputs":[{"name":"version","type":"uint64","indexed":false,"internalType":"uint64"}],"anonymous":false},{"type":"event","name":"OwnershipTransferred","inputs":[{"name":"previousOwner","type":"address","indexed":true,"internalType":"address"},{"name":"newOwner","type":"address","indexed":true,"internalType":"address"}],"anonymous":false},{"type":"event","name":"Upgraded","inputs":[{"name":"implementation","type":"address","indexed":true,"internalType":"address"}],"anonymous":false},{"type":"error","name":"AddressEmptyCode","inputs":[{"name":"target","type":"address","internalType":"address"}]},{"type":"error","name":"ERC1967InvalidImplementation","inputs":[{"name":"implementation","type":"address","internalType":"address"}]},{"type":"error","name":"ERC1967NonPayable","inputs":[]},{"type":"error","name":"FailedInnerCall","inputs":[]},{"type":"error","name":"InvalidInitialization","inputs":[]},{"type":"error","name":"NotInitializing","inputs":[]},{"type":"error","name":"OwnableInvalidOwner","inputs":[{"name":"owner","type":"address","internalType":"address"}]},{"type":"error","name":"OwnableUnauthorizedAccount","inputs":[{"name":"account","type":"address","internalType":"address"}]},{"type":"error","name":"UUPSUnauthorizedCallContext","inputs":[]},{"type":"error","name":"UUPSUnsupportedProxiableUUID","inputs":[{"name":"slot","type":"bytes32","internalType":"bytes32"}]}],"bytecode":{"object":"0x60a06040523060805234801561001457600080fd5b50608051611eb961003e600039600081816115010152818161152a01526116700152611eb96000f3fe6080604052600436106101855760003560e01c8063715018a6116100d1578063a99e393e1161008a578063e9ffa9f411610064578063e9ffa9f414610474578063f2fde38b14610494578063f4cde469146104b4578063fc0c546a146104d457600080fd5b8063a99e393e14610400578063ad3cb1cc14610420578063ddca3f431461045e57600080fd5b8063715018a61461032e5780637403c6cd146103435780637d52ec37146103635780637f081b16146103835780638da5cb5b146103a357806394b918de146103e057600080fd5b80634e71d92d1161013e5780636382d9ad116101185780636382d9ad146102a65780636386c1c7146102c657806366d003ac146102f8578063698518e51461031857600080fd5b80634e71d92d146102695780634f1ef2861461027e57806352d1902d1461029157600080fd5b80631e34c585146101915780632c4e722e146101b35780632e2ebe06146101dc5780632f48ab7d146101fc5780633ccfd60b146102345780634b77c4681461024957600080fd5b3661018c57005b600080fd5b34801561019d57600080fd5b506101b16101ac366004611a18565b6104f4565b005b3480156101bf57600080fd5b506101c960035481565b6040519081526020015b60405180910390f35b3480156101e857600080fd5b506101b16101f7366004611a3a565b610507565b34801561020857600080fd5b5060075461021c906001600160a01b031681565b6040516001600160a01b0390911681526020016101d3565b34801561024057600080fd5b506101b1610602565b34801561025557600080fd5b506101b1610264366004611a6f565b6106dd565b34801561027557600080fd5b506101b161081c565b6101b161028c366004611aa0565b6108f0565b34801561029d57600080fd5b506101c961090b565b3480156102b257600080fd5b506101b16102c1366004611b62565b610928565b3480156102d257600080fd5b506102e66102e1366004611a6f565b6109bd565b6040516101d396959493929190611bab565b34801561030457600080fd5b5060065461021c906001600160a01b031681565b34801561032457600080fd5b506101c960055481565b34801561033a57600080fd5b506101b1610b83565b34801561034f57600080fd5b506101b161035e366004611ca7565b610b97565b34801561036f57600080fd5b506101b161037e366004611a6f565b610d8e565b34801561038f57600080fd5b506101c961039e366004611a6f565b610db8565b3480156103af57600080fd5b507f9016d09d72d40fdae2fd8ceac6b6234c7706214fd39c1cd1e609a0528c199300546001600160a01b031661021c565b3480156103ec57600080fd5b506101b16103fb366004611a3a565b610e35565b34801561040c57600080fd5b5060025461021c906001600160a01b031681565b34801561042c57600080fd5b50610451604051806040016040528060058152602001640352e302e360dc1b81525081565b6040516101d39190611d4b565b34801561046a57600080fd5b506101c960045481565b34801561048057600080fd5b5060085461021c906001600160a01b031681565b3480156104a057600080fd5b506101b16104af366004611a6f565b610e84565b3480156104c057600080fd5b506101b16104cf366004611a3a565b610ec2565b3480156104e057600080fd5b5060015461021c906001600160a01b031681565b6104fc610ecf565b600391909155600455565b33600090815260208190526040902080546001600160a01b031615801590610537575067016345785d8a00008210155b801561054b5750670de0b6b3a76400008211155b6105925760405162461bcd60e51b81526020600482015260136024820152722727aa2fa82927ab24a222afa822a926a4aa1760691b60448201526064015b60405180910390fd5b6001546006546105b1916001600160a01b039081169133911685610f2a565b6001546006546105cf916001600160a01b0390811691163085610f2a565b6105d83361105a565b818160010160008282546105ec9190611d94565b909155506105fe90506000338461109f565b5050565b33600090815260208190526040902060018101546106525760405162461bcd60e51b815260206004820152600d60248201526c22a92927a92fa0a6a7aaa72a1760991b6044820152606401610589565b61065b3361105a565b600180546006549183015461067d926001600160a01b039283169216906113e2565b60018054600654600454928401546106bc936001600160a01b03938416939092169133916064916106ad91611da7565b6106b79190611dbe565b610f2a565b6106cc600133836001015461109f565b600060018201819055600290910155565b60006001600160a01b0382163314158061070d5750336000908152602081905260409020546001600160a01b0316155b90508061074d5760405162461bcd60e51b815260206004820152600e60248201526d22a92927a92fa4a72b24aa22a91760911b6044820152606401610589565b6002546001600160a01b038381169116146107ce576001600160a01b03821660009081526020819052604090206001015467016345785d8a000011156107ce5760405162461bcd60e51b81526020600482015260166024820152752727aa2fa420a9afa4a72b24aa22afa822a926a4aa1760511b6044820152606401610589565b503360008181526020818152604080832080546001600160a01b039096166001600160a01b031996871681179091558352822060050180546001810182559083529120018054909216179055565b333b63ffffffff16156108645760405162461bcd60e51b815260206004820152601060248201526f22a92927a92fa922a1a4a824a2a72a1760811b6044820152606401610589565b600061086f33610db8565b116108ac5760405162461bcd60e51b815260206004820152600d60248201526c22a92927a92fa0a6a7aaa72a1760991b6044820152606401610589565b6108b53361105a565b60006108c033610db8565b6008549091506108da906001600160a01b031633836113e2565b5033600090815260208190526040812060030155565b6108f86114f6565b6109018261159b565b6105fe82826115a3565b6000610915611665565b50600080516020611e6483398151915290565b610930610ecf565b6001600160a01b038216610948576105fe81476116ae565b6040516370a0823160e01b81523060048201526105fe90839083906001600160a01b038316906370a0823190602401602060405180830381865afa158015610994573d6000803e3d6000fd5b505050506040513d601f19601f820116820180604052508101906109b89190611de0565b6113e2565b6001600160a01b0380821660009081526020819052604081208054600182015460029092015493169290916060806109f487610db8565b6001600160a01b038816600090815260208181526040918290206005018054835181840281018401909452808452939650919290830182828015610a6157602002820191906000526020600020905b81546001600160a01b03168152600190910190602001808311610a43575b5050506001600160a01b038a1660009081526020818152604080832060060180548251818502810185019093528083529698509095909450925084015b82821015610b74576000848152602090206040805160a08101909152600384029091018054829060ff166001811115610ad957610ad9611b95565b6001811115610aea57610aea611b95565b81528154602090910190610100900460ff166002811115610b0d57610b0d611b95565b6002811115610b1e57610b1e611b95565b81526020016000820160029054906101000a90046001600160a01b03166001600160a01b03166001600160a01b031681526020016001820154815260200160028201548152505081526020019060010190610a9e565b50505050905091939550919395565b610b8b610ecf565b610b956000611777565b565b7ff0c57e16840df040f15088dc2f81fe391c3923bec73e23a9662efc9c229c6a008054600160401b810460ff16159067ffffffffffffffff16600081158015610bdd5750825b905060008267ffffffffffffffff166001148015610bfa5750303b155b905081158015610c08575080155b15610c265760405163f92ee8a960e01b815260040160405180910390fd5b845467ffffffffffffffff191660011785558315610c5057845460ff60401b1916600160401b1785555b610c59336117e8565b610c616117f0565b8c600160006101000a8154816001600160a01b0302191690836001600160a01b031602179055508b600260006101000a8154816001600160a01b0302191690836001600160a01b031602179055508a600660006101000a8154816001600160a01b0302191690836001600160a01b0316021790555089600860006101000a8154816001600160a01b0302191690836001600160a01b0316021790555088600760006101000a8154816001600160a01b0302191690836001600160a01b031602179055508760038190555086600481905550856005819055508315610d7f57845460ff60401b19168555604051600181527fc7f505b2f371ae2175ee4913f4499e1f2633a7b5936321eed1cdaeb6115181d29060200160405180910390a15b50505050505050505050505050565b610d96610ecf565b600880546001600160a01b0319166001600160a01b0392909216919091179055565b6001600160a01b0381166000908152602081905260408120600380820154905460028301546001840154670de0b6b3a7640000939291610df791611d94565b6004850154610e069042611df9565b610e109190611da7565b610e1a9190611da7565b610e249190611d94565b610e2e9190611dbe565b9392505050565b600854610e4d906001600160a01b0316333084610f2a565b600061271060055483610e609190611da7565b610e6a9190611dbe565b6007549091506105fe906001600160a01b031633836113e2565b610e8c610ecf565b6001600160a01b038116610eb657604051631e4fbdf760e01b815260006004820152602401610589565b610ebf81611777565b50565b610eca610ecf565b600555565b33610f017f9016d09d72d40fdae2fd8ceac6b6234c7706214fd39c1cd1e609a0528c199300546001600160a01b031690565b6001600160a01b031614610b955760405163118cdaa760e01b8152336004820152602401610589565b604080516001600160a01b0385811660248301528481166044830152606480830185905283518084039091018152608490920183526020820180516001600160e01b03166323b872dd60e01b1790529151600092839290881691610f8e9190611e0c565b6000604051808303816000865af19150503d8060008114610fcb576040519150601f19603f3d011682016040523d82523d6000602084013e610fd0565b606091505b5091509150818015610ffa575080511580610ffa575080806020019051810190610ffa9190611e28565b6110525760405162461bcd60e51b8152602060048201526024808201527f5472616e7366657248656c7065723a205452414e534645525f46524f4d5f46416044820152631253115160e21b6064820152608401610589565b505050505050565b61106381610db8565b61107590670de0b6b3a7640000611da7565b6001600160a01b039091166000908152602081905260409020600381019190915542600490910155565b6001600160a01b03808316600090815260208190526040812054909116905b6002811080156110d657506001600160a01b03821615155b156113db576110e48261105a565b6001600160a01b03821660009081526020819052604081209082810361121257816006016040518060a0016040528089600181111561112557611125611b95565b8152600160208083018290526001600160a01b038b166040840152606083018a905242608090930192909252835480820185556000948552919093208251600390920201805492939092839160ff1990911690838181111561118957611189611b95565b021790555060208201518154829061ff0019166101008360028111156111b1576111b1611b95565b0217905550604082015181546001600160a01b03909116620100000262010000600160b01b031990911617815560608201516001820155608090910151600290910155606461120186600a611da7565b61120b9190611dbe565b905061131f565b816006016040518060a0016040528089600181111561123357611233611b95565b8152602001600281526001600160a01b038916602080830191909152604082018990524260609092019190915282546001818101855560009485529190932082516003909402018054929390929091839160ff191690838181111561129a5761129a611b95565b021790555060208201518154829061ff0019166101008360028111156112c2576112c2611b95565b0217905550604082015181546001600160a01b03909116620100000262010000600160b01b0319909116178155606082015160018201556080909101516002909101556064611312866005611da7565b61131c9190611dbe565b90505b600087600181111561133357611333611b95565b03611352578082600201600082825461134c9190611d94565b90915550505b600187600181111561136657611366611b95565b148015611377575080826002015410155b156113a957808260020160008282546113909190611df9565b909155505060028201548111156113a957600060028301555b50506001600160a01b0391821660009081526020819052604090205490911690806113d381611e4a565b9150506110be565b5050505050565b604080516001600160a01b038481166024830152604480830185905283518084039091018152606490920183526020820180516001600160e01b031663a9059cbb60e01b179052915160009283929087169161143e9190611e0c565b6000604051808303816000865af19150503d806000811461147b576040519150601f19603f3d011682016040523d82523d6000602084013e611480565b606091505b50915091508180156114aa5750805115806114aa5750808060200190518101906114aa9190611e28565b6113db5760405162461bcd60e51b815260206004820152601f60248201527f5472616e7366657248656c7065723a205452414e534645525f4641494c4544006044820152606401610589565b306001600160a01b037f000000000000000000000000000000000000000000000000000000000000000016148061157d57507f00000000000000000000000000000000000000000000000000000000000000006001600160a01b0316611571600080516020611e64833981519152546001600160a01b031690565b6001600160a01b031614155b15610b955760405163703e46dd60e11b815260040160405180910390fd5b610ebf610ecf565b816001600160a01b03166352d1902d6040518163ffffffff1660e01b8152600401602060405180830381865afa9250505080156115fd575060408051601f3d908101601f191682019092526115fa91810190611de0565b60015b61162557604051634c9c8ce360e01b81526001600160a01b0383166004820152602401610589565b600080516020611e64833981519152811461165657604051632a87526960e21b815260048101829052602401610589565b61166083836117f8565b505050565b306001600160a01b037f00000000000000000000000000000000000000000000000000000000000000001614610b955760405163703e46dd60e11b815260040160405180910390fd5b604080516000808252602082019092526001600160a01b0384169083906040516116d89190611e0c565b60006040518083038185875af1925050503d8060008114611715576040519150601f19603f3d011682016040523d82523d6000602084013e61171a565b606091505b50509050806116605760405162461bcd60e51b815260206004820152602360248201527f5472616e7366657248656c7065723a204554485f5452414e534645525f46414960448201526213115160ea1b6064820152608401610589565b7f9016d09d72d40fdae2fd8ceac6b6234c7706214fd39c1cd1e609a0528c19930080546001600160a01b031981166001600160a01b03848116918217845560405192169182907f8be0079c531659141344cd1fd0a4f28419497f9722a3daafe3b4186f6b6457e090600090a3505050565b610e8c61184e565b610b9561184e565b61180182611897565b6040516001600160a01b038316907fbc7cd75a20ee27fd9adebab32041f755214dbc6bffa90cc0225b39da2e5c2d3b90600090a28051156118465761166082826118fc565b6105fe611974565b7ff0c57e16840df040f15088dc2f81fe391c3923bec73e23a9662efc9c229c6a0054600160401b900460ff16610b9557604051631afcd79f60e31b815260040160405180910390fd5b806001600160a01b03163b6000036118cd57604051634c9c8ce360e01b81526001600160a01b0382166004820152602401610589565b600080516020611e6483398151915280546001600160a01b0319166001600160a01b0392909216919091179055565b6060600080846001600160a01b0316846040516119199190611e0c565b600060405180830381855af49150503d8060008114611954576040519150601f19603f3d011682016040523d82523d6000602084013e611959565b606091505b5091509150611969858383611993565b925050505b92915050565b3415610b955760405163b398979f60e01b815260040160405180910390fd5b6060826119a8576119a3826119ef565b610e2e565b81511580156119bf57506001600160a01b0384163b155b156119e857604051639996b31560e01b81526001600160a01b0385166004820152602401610589565b5092915050565b8051156119ff5780518082602001fd5b604051630a12f52160e11b815260040160405180910390fd5b60008060408385031215611a2b57600080fd5b50508035926020909101359150565b600060208284031215611a4c57600080fd5b5035919050565b80356001600160a01b0381168114611a6a57600080fd5b919050565b600060208284031215611a8157600080fd5b610e2e82611a53565b634e487b7160e01b600052604160045260246000fd5b60008060408385031215611ab357600080fd5b611abc83611a53565b9150602083013567ffffffffffffffff80821115611ad957600080fd5b818501915085601f830112611aed57600080fd5b813581811115611aff57611aff611a8a565b604051601f8201601f19908116603f01168101908382118183101715611b2757611b27611a8a565b81604052828152886020848701011115611b4057600080fd5b8260208601602083013760006020848301015280955050505050509250929050565b60008060408385031215611b7557600080fd5b611b7e83611a53565b9150611b8c60208401611a53565b90509250929050565b634e487b7160e01b600052602160045260246000fd5b600060c0820160018060a01b03808a1684526020898186015260408960408701526060896060880152608060c06080890152858a5180885260e08a019150858c01975060005b81811015611c0f578851881683529786019791860191600101611bf1565b505060a0965088810360a08a0152808a518083528683019150868c01925060005b81811015611c8f578351805160028110611c4c57611c4c611b95565b84528089015160038110611c6257611c62611b95565b848a0152808801518a16888501528681015187850152850151858401529287019291890191600101611c30565b50508098505050505050505050979650505050505050565b600080600080600080600080610100898b031215611cc457600080fd5b611ccd89611a53565b9750611cdb60208a01611a53565b9650611ce960408a01611a53565b9550611cf760608a01611a53565b9450611d0560808a01611a53565b979a969950949793969560a0850135955060c08501359460e001359350915050565b60005b83811015611d42578181015183820152602001611d2a565b50506000910152565b6020815260008251806020840152611d6a816040850160208701611d27565b601f01601f19169190910160400192915050565b634e487b7160e01b600052601160045260246000fd5b8082018082111561196e5761196e611d7e565b808202811582820484141761196e5761196e611d7e565b600082611ddb57634e487b7160e01b600052601260045260246000fd5b500490565b600060208284031215611df257600080fd5b5051919050565b8181038181111561196e5761196e611d7e565b60008251611e1e818460208701611d27565b9190910192915050565b600060208284031215611e3a57600080fd5b81518015158114610e2e57600080fd5b600060018201611e5c57611e5c611d7e565b506001019056fe360894a13ba1a3210667c828492db98dca3e2076cc3735a920a3ca505d382bbca2646970667358221220a3d294529c71419d7d6003412ce8374631a34bdfda22d4b42484120314385db864736f6c63430008180033","linkReferences":{}},"methodIdentifiers":{"UPGRADE_INTERFACE_VERSION()":"ad3cb1cc","claim()":"4e71d92d","emergencyWithdraw(address,address)":"6382d9ad","fee()":"ddca3f43","getUserIncome(address)":"7f081b16","getUserInfo(address)":"6386c1c7","initialize(address,address,address,address,address,uint256,uint256,uint256)":"7403c6cd","invite(address)":"4b77c468","owner()":"8da5cb5b","prefixCode()":"a99e393e","provide(uint256)":"2e2ebe06","proxiableUUID()":"52d1902d","rate()":"2c4e722e","recipient()":"66d003ac","renounceOwnership()":"715018a6","setConfig(uint256,uint256)":"1e34c585","setSubToken(address)":"7d52ec37","setSwapRate(uint256)":"f4cde469","subToken()":"e9ffa9f4","swap(uint256)":"94b918de","swapRate()":"698518e5","token()":"fc0c546a","transferOwnership(address)":"f2fde38b","upgradeToAndCall(address,bytes)":"4f1ef286","usdt()":"2f48ab7d","withdraw()":"3ccfd60b"},"id":31}