{"abi":[{"type":"receive","stateMutability":"payable"},{"type":"function","name":"UPGRADE_INTERFACE_VERSION","inputs":[],"outputs":[{"name":"","type":"string","internalType":"string"}],"stateMutability":"view"},{"type":"function","name":"claim","inputs":[],"outputs":[],"stateMutability":"nonpayable"},{"type":"function","name":"emergencyWithdraw","inputs":[{"name":"_to","type":"address","internalType":"address"}],"outputs":[],"stateMutability":"nonpayable"},{"type":"function","name":"fee","inputs":[],"outputs":[{"name":"","type":"uint256","internalType":"uint256"}],"stateMutability":"view"},{"type":"function","name":"getUserIncome","inputs":[{"name":"_member","type":"address","internalType":"address"}],"outputs":[{"name":"","type":"uint256","internalType":"uint256"}],"stateMutability":"view"},{"type":"function","name":"getUserInfo","inputs":[{"name":"member","type":"address","internalType":"address"}],"outputs":[{"name":"_inviter","type":"address","internalType":"address"},{"name":"_staking","type":"uint256","internalType":"uint256"},{"name":"_dynamic","type":"uint256","internalType":"uint256"},{"name":"_income","type":"uint256","internalType":"uint256"},{"name":"_members","type":"address[]","internalType":"address[]"},{"name":"_records","type":"tuple[]","internalType":"struct Staking.Record[]","components":[{"name":"operate","type":"uint8","internalType":"enum Staking.Operate"},{"name":"mark","type":"uint8","internalType":"enum Staking.Mark"},{"name":"members","type":"address","internalType":"address"},{"name":"amount","type":"uint256","internalType":"uint256"},{"name":"time","type":"uint256","internalType":"uint256"}]}],"stateMutability":"view"},{"type":"function","name":"initialize","inputs":[{"name":"_token","type":"address","internalType":"address"},{"name":"_prefixCode","type":"address","internalType":"address"},{"name":"_recipient","type":"address","internalType":"address"},{"name":"_subToken","type":"address","internalType":"address"},{"name":"_usdt","type":"address","internalType":"address"},{"name":"_rate","type":"uint256","internalType":"uint256"},{"name":"_fee","type":"uint256","internalType":"uint256"},{"name":"_swapRate","type":"uint256","internalType":"uint256"}],"outputs":[],"stateMutability":"nonpayable"},{"type":"function","name":"invite","inputs":[{"name":"_inviter","type":"address","internalType":"address"}],"outputs":[],"stateMutability":"nonpayable"},{"type":"function","name":"owner","inputs":[],"outputs":[{"name":"","type":"address","internalType":"address"}],"stateMutability":"view"},{"type":"function","name":"prefixCode","inputs":[],"outputs":[{"name":"","type":"address","internalType":"address"}],"stateMutability":"view"},{"type":"function","name":"provide","inputs":[{"name":"_amount","type":"uint256","internalType":"uint256"}],"outputs":[],"stateMutability":"nonpayable"},{"type":"function","name":"proxiableUUID","inputs":[],"outputs":[{"name":"","type":"bytes32","internalType":"bytes32"}],"stateMutability":"view"},{"type":"function","name":"rate","inputs":[],"outputs":[{"name":"","type":"uint256","internalType":"uint256"}],"stateMutability":"view"},{"type":"function","name":"recipient","inputs":[],"outputs":[{"name":"","type":"address","internalType":"address"}],"stateMutability":"view"},{"type":"function","name":"renounceOwnership","inputs":[],"outputs":[],"stateMutability":"nonpayable"},{"type":"function","name":"setConfig","inputs":[{"name":"_rate","type":"uint256","internalType":"uint256"},{"name":"_fee","type":"uint256","internalType":"uint256"}],"outputs":[],"stateMutability":"nonpayable"},{"type":"function","name":"setSubToken","inputs":[{"name":"_subToken","type":"address","internalType":"address"}],"outputs":[],"stateMutability":"nonpayable"},{"type":"function","name":"setSwapRate","inputs":[{"name":"_swapRate","type":"uint256","internalType":"uint256"}],"outputs":[],"stateMutability":"nonpayable"},{"type":"function","name":"subToken","inputs":[],"outputs":[{"name":"","type":"address","internalType":"address"}],"stateMutability":"view"},{"type":"function","name":"swap","inputs":[{"name":"_amount","type":"uint256","internalType":"uint256"}],"outputs":[],"stateMutability":"nonpayable"},{"type":"function","name":"swapRate","inputs":[],"outputs":[{"name":"","type":"uint256","internalType":"uint256"}],"stateMutability":"view"},{"type":"function","name":"token","inputs":[],"outputs":[{"name":"","type":"address","internalType":"address"}],"stateMutability":"view"},{"type":"function","name":"transferOwnership","inputs":[{"name":"newOwner","type":"address","internalType":"address"}],"outputs":[],"stateMutability":"nonpayable"},{"type":"function","name":"upgradeToAndCall","inputs":[{"name":"newImplementation","type":"address","internalType":"address"},{"name":"data","type":"bytes","internalType":"bytes"}],"outputs":[],"stateMutability":"payable"},{"type":"function","name":"usdt","inputs":[],"outputs":[{"name":"","type":"address","internalType":"address"}],"stateMutability":"view"},{"type":"function","name":"withdraw","inputs":[],"outputs":[],"stateMutability":"nonpayable"},{"type":"event","name":"Initialized","inputs":[{"name":"version","type":"uint64","indexed":false,"internalType":"uint64"}],"anonymous":false},{"type":"event","name":"OwnershipTransferred","inputs":[{"name":"previousOwner","type":"address","indexed":true,"internalType":"address"},{"name":"newOwner","type":"address","indexed":true,"internalType":"address"}],"anonymous":false},{"type":"event","name":"Upgraded","inputs":[{"name":"implementation","type":"address","indexed":true,"internalType":"address"}],"anonymous":false},{"type":"error","name":"AddressEmptyCode","inputs":[{"name":"target","type":"address","internalType":"address"}]},{"type":"error","name":"ERC1967InvalidImplementation","inputs":[{"name":"implementation","type":"address","internalType":"address"}]},{"type":"error","name":"ERC1967NonPayable","inputs":[]},{"type":"error","name":"FailedInnerCall","inputs":[]},{"type":"error","name":"InvalidInitialization","inputs":[]},{"type":"error","name":"NotInitializing","inputs":[]},{"type":"error","name":"OwnableInvalidOwner","inputs":[{"name":"owner","type":"address","internalType":"address"}]},{"type":"error","name":"OwnableUnauthorizedAccount","inputs":[{"name":"account","type":"address","internalType":"address"}]},{"type":"error","name":"UUPSUnauthorizedCallContext","inputs":[]},{"type":"error","name":"UUPSUnsupportedProxiableUUID","inputs":[{"name":"slot","type":"bytes32","internalType":"bytes32"}]}],"bytecode":{"object":"0x60a06040523060805234801561001457600080fd5b50608051611e0361003e6000396000818161147e015281816114a701526115ed0152611e036000f3fe6080604052600436106101855760003560e01c8063715018a6116100d1578063a99e393e1161008a578063e9ffa9f411610064578063e9ffa9f414610474578063f2fde38b14610494578063f4cde469146104b4578063fc0c546a146104d457600080fd5b8063a99e393e14610400578063ad3cb1cc14610420578063ddca3f431461045e57600080fd5b8063715018a61461032e5780637403c6cd146103435780637d52ec37146103635780637f081b16146103835780638da5cb5b146103a357806394b918de146103e057600080fd5b80634e71d92d1161013e5780636386c1c7116101185780636386c1c7146102a657806366d003ac146102d8578063698518e5146102f85780636ff1c9bc1461030e57600080fd5b80634e71d92d146102695780634f1ef2861461027e57806352d1902d1461029157600080fd5b80631e34c585146101915780632c4e722e146101b35780632e2ebe06146101dc5780632f48ab7d146101fc5780633ccfd60b146102345780634b77c4681461024957600080fd5b3661018c57005b600080fd5b34801561019d57600080fd5b506101b16101ac366004611995565b6104f4565b005b3480156101bf57600080fd5b506101c960035481565b6040519081526020015b60405180910390f35b3480156101e857600080fd5b506101b16101f73660046119b7565b610507565b34801561020857600080fd5b5060075461021c906001600160a01b031681565b6040516001600160a01b0390911681526020016101d3565b34801561024057600080fd5b506101b1610602565b34801561025557600080fd5b506101b16102643660046119ec565b6106dd565b34801561027557600080fd5b506101b161081c565b6101b161028c366004611a1d565b6108f0565b34801561029d57600080fd5b506101c961090b565b3480156102b257600080fd5b506102c66102c13660046119ec565b610928565b6040516101d396959493929190611af5565b3480156102e457600080fd5b5060065461021c906001600160a01b031681565b34801561030457600080fd5b506101c960055481565b34801561031a57600080fd5b506101b16103293660046119ec565b610aee565b34801561033a57600080fd5b506101b1610b03565b34801561034f57600080fd5b506101b161035e366004611bf1565b610b17565b34801561036f57600080fd5b506101b161037e3660046119ec565b610d0e565b34801561038f57600080fd5b506101c961039e3660046119ec565b610d38565b3480156103af57600080fd5b507f9016d09d72d40fdae2fd8ceac6b6234c7706214fd39c1cd1e609a0528c199300546001600160a01b031661021c565b3480156103ec57600080fd5b506101b16103fb3660046119b7565b610db5565b34801561040c57600080fd5b5060025461021c906001600160a01b031681565b34801561042c57600080fd5b50610451604051806040016040528060058152602001640352e302e360dc1b81525081565b6040516101d39190611c95565b34801561046a57600080fd5b506101c960045481565b34801561048057600080fd5b5060085461021c906001600160a01b031681565b3480156104a057600080fd5b506101b16104af3660046119ec565b610e04565b3480156104c057600080fd5b506101b16104cf3660046119b7565b610e3f565b3480156104e057600080fd5b5060015461021c906001600160a01b031681565b6104fc610e4c565b600391909155600455565b33600090815260208190526040902080546001600160a01b031615801590610537575067016345785d8a00008210155b801561054b5750670de0b6b3a76400008211155b6105925760405162461bcd60e51b81526020600482015260136024820152722727aa2fa82927ab24a222afa822a926a4aa1760691b60448201526064015b60405180910390fd5b6001546006546105b1916001600160a01b039081169133911685610ea7565b6001546006546105cf916001600160a01b0390811691163085610ea7565b6105d833610fd7565b818160010160008282546105ec9190611cde565b909155506105fe90506000338461101c565b5050565b33600090815260208190526040902060018101546106525760405162461bcd60e51b815260206004820152600d60248201526c22a92927a92fa0a6a7aaa72a1760991b6044820152606401610589565b61065b33610fd7565b600180546006549183015461067d926001600160a01b0392831692169061135f565b60018054600654600454928401546106bc936001600160a01b03938416939092169133916064916106ad91611cf1565b6106b79190611d08565b610ea7565b6106cc600133836001015461101c565b600060018201819055600290910155565b60006001600160a01b0382163314158061070d5750336000908152602081905260409020546001600160a01b0316155b90508061074d5760405162461bcd60e51b815260206004820152600e60248201526d22a92927a92fa4a72b24aa22a91760911b6044820152606401610589565b6002546001600160a01b038381169116146107ce576001600160a01b03821660009081526020819052604090206001015467016345785d8a000011156107ce5760405162461bcd60e51b81526020600482015260166024820152752727aa2fa420a9afa4a72b24aa22afa822a926a4aa1760511b6044820152606401610589565b503360008181526020818152604080832080546001600160a01b039096166001600160a01b031996871681179091558352822060050180546001810182559083529120018054909216179055565b333b63ffffffff16156108645760405162461bcd60e51b815260206004820152601060248201526f22a92927a92fa922a1a4a824a2a72a1760811b6044820152606401610589565b600061086f33610d38565b116108ac5760405162461bcd60e51b815260206004820152600d60248201526c22a92927a92fa0a6a7aaa72a1760991b6044820152606401610589565b6108b533610fd7565b60006108c033610d38565b6008549091506108da906001600160a01b0316338361135f565b5033600090815260208190526040812060030155565b6108f8611473565b61090182611518565b6105fe8282611520565b60006109156115e2565b50600080516020611dae83398151915290565b6001600160a01b03808216600090815260208190526040812080546001820154600290920154931692909160608061095f87610d38565b6001600160a01b0388166000908152602081815260409182902060050180548351818402810184019094528084529396509192908301828280156109cc57602002820191906000526020600020905b81546001600160a01b031681526001909101906020018083116109ae575b5050506001600160a01b038a1660009081526020818152604080832060060180548251818502810185019093528083529698509095909450925084015b82821015610adf576000848152602090206040805160a08101909152600384029091018054829060ff166001811115610a4457610a44611adf565b6001811115610a5557610a55611adf565b81528154602090910190610100900460ff166002811115610a7857610a78611adf565b6002811115610a8957610a89611adf565b81526020016000820160029054906101000a90046001600160a01b03166001600160a01b03166001600160a01b031681526020016001820154815260200160028201548152505081526020019060010190610a09565b50505050905091939550919395565b610af6610e4c565b610b00814761162b565b50565b610b0b610e4c565b610b1560006116f4565b565b7ff0c57e16840df040f15088dc2f81fe391c3923bec73e23a9662efc9c229c6a008054600160401b810460ff16159067ffffffffffffffff16600081158015610b5d5750825b905060008267ffffffffffffffff166001148015610b7a5750303b155b905081158015610b88575080155b15610ba65760405163f92ee8a960e01b815260040160405180910390fd5b845467ffffffffffffffff191660011785558315610bd057845460ff60401b1916600160401b1785555b610bd933611765565b610be161176d565b8c600160006101000a8154816001600160a01b0302191690836001600160a01b031602179055508b600260006101000a8154816001600160a01b0302191690836001600160a01b031602179055508a600660006101000a8154816001600160a01b0302191690836001600160a01b0316021790555089600860006101000a8154816001600160a01b0302191690836001600160a01b0316021790555088600760006101000a8154816001600160a01b0302191690836001600160a01b031602179055508760038190555086600481905550856005819055508315610cff57845460ff60401b19168555604051600181527fc7f505b2f371ae2175ee4913f4499e1f2633a7b5936321eed1cdaeb6115181d29060200160405180910390a15b50505050505050505050505050565b610d16610e4c565b600880546001600160a01b0319166001600160a01b0392909216919091179055565b6001600160a01b0381166000908152602081905260408120600380820154905460028301546001840154670de0b6b3a7640000939291610d7791611cde565b6004850154610d869042611d2a565b610d909190611cf1565b610d9a9190611cf1565b610da49190611cde565b610dae9190611d08565b9392505050565b600854610dcd906001600160a01b0316333084610ea7565b600061271060055483610de09190611cf1565b610dea9190611d08565b6007549091506105fe906001600160a01b0316338361135f565b610e0c610e4c565b6001600160a01b038116610e3657604051631e4fbdf760e01b815260006004820152602401610589565b610b00816116f4565b610e47610e4c565b600555565b33610e7e7f9016d09d72d40fdae2fd8ceac6b6234c7706214fd39c1cd1e609a0528c199300546001600160a01b031690565b6001600160a01b031614610b155760405163118cdaa760e01b8152336004820152602401610589565b604080516001600160a01b0385811660248301528481166044830152606480830185905283518084039091018152608490920183526020820180516001600160e01b03166323b872dd60e01b1790529151600092839290881691610f0b9190611d3d565b6000604051808303816000865af19150503d8060008114610f48576040519150601f19603f3d011682016040523d82523d6000602084013e610f4d565b606091505b5091509150818015610f77575080511580610f77575080806020019051810190610f779190611d59565b610fcf5760405162461bcd60e51b8152602060048201526024808201527f5472616e7366657248656c7065723a205452414e534645525f46524f4d5f46416044820152631253115160e21b6064820152608401610589565b505050505050565b610fe081610d38565b610ff290670de0b6b3a7640000611cf1565b6001600160a01b039091166000908152602081905260409020600381019190915542600490910155565b6001600160a01b03808316600090815260208190526040812054909116905b60028110801561105357506001600160a01b03821615155b156113585761106182610fd7565b6001600160a01b03821660009081526020819052604081209082810361118f57816006016040518060a001604052808960018111156110a2576110a2611adf565b8152600160208083018290526001600160a01b038b166040840152606083018a905242608090930192909252835480820185556000948552919093208251600390920201805492939092839160ff1990911690838181111561110657611106611adf565b021790555060208201518154829061ff00191661010083600281111561112e5761112e611adf565b0217905550604082015181546001600160a01b03909116620100000262010000600160b01b031990911617815560608201516001820155608090910151600290910155606461117e86600a611cf1565b6111889190611d08565b905061129c565b816006016040518060a001604052808960018111156111b0576111b0611adf565b8152602001600281526001600160a01b038916602080830191909152604082018990524260609092019190915282546001818101855560009485529190932082516003909402018054929390929091839160ff191690838181111561121757611217611adf565b021790555060208201518154829061ff00191661010083600281111561123f5761123f611adf565b0217905550604082015181546001600160a01b03909116620100000262010000600160b01b031990911617815560608201516001820155608090910151600290910155606461128f866005611cf1565b6112999190611d08565b90505b60008760018111156112b0576112b0611adf565b036112cf57808260020160008282546112c99190611cde565b90915550505b60018760018111156112e3576112e3611adf565b1480156112f4575080826002015410155b15611326578082600201600082825461130d9190611d2a565b9091555050600282015481111561132657600060028301555b50506001600160a01b03918216600090815260208190526040902054909116908061135081611d7b565b91505061103b565b5050505050565b604080516001600160a01b038481166024830152604480830185905283518084039091018152606490920183526020820180516001600160e01b031663a9059cbb60e01b17905291516000928392908716916113bb9190611d3d565b6000604051808303816000865af19150503d80600081146113f8576040519150601f19603f3d011682016040523d82523d6000602084013e6113fd565b606091505b50915091508180156114275750805115806114275750808060200190518101906114279190611d59565b6113585760405162461bcd60e51b815260206004820152601f60248201527f5472616e7366657248656c7065723a205452414e534645525f4641494c4544006044820152606401610589565b306001600160a01b037f00000000000000000000000000000000000000000000000000000000000000001614806114fa57507f00000000000000000000000000000000000000000000000000000000000000006001600160a01b03166114ee600080516020611dae833981519152546001600160a01b031690565b6001600160a01b031614155b15610b155760405163703e46dd60e11b815260040160405180910390fd5b610b00610e4c565b816001600160a01b03166352d1902d6040518163ffffffff1660e01b8152600401602060405180830381865afa92505050801561157a575060408051601f3d908101601f1916820190925261157791810190611d94565b60015b6115a257604051634c9c8ce360e01b81526001600160a01b0383166004820152602401610589565b600080516020611dae83398151915281146115d357604051632a87526960e21b815260048101829052602401610589565b6115dd8383611775565b505050565b306001600160a01b037f00000000000000000000000000000000000000000000000000000000000000001614610b155760405163703e46dd60e11b815260040160405180910390fd5b604080516000808252602082019092526001600160a01b0384169083906040516116559190611d3d565b60006040518083038185875af1925050503d8060008114611692576040519150601f19603f3d011682016040523d82523d6000602084013e611697565b606091505b50509050806115dd5760405162461bcd60e51b815260206004820152602360248201527f5472616e7366657248656c7065723a204554485f5452414e534645525f46414960448201526213115160ea1b6064820152608401610589565b7f9016d09d72d40fdae2fd8ceac6b6234c7706214fd39c1cd1e609a0528c19930080546001600160a01b031981166001600160a01b03848116918217845560405192169182907f8be0079c531659141344cd1fd0a4f28419497f9722a3daafe3b4186f6b6457e090600090a3505050565b610e0c6117cb565b610b156117cb565b61177e82611814565b6040516001600160a01b038316907fbc7cd75a20ee27fd9adebab32041f755214dbc6bffa90cc0225b39da2e5c2d3b90600090a28051156117c3576115dd8282611879565b6105fe6118f1565b7ff0c57e16840df040f15088dc2f81fe391c3923bec73e23a9662efc9c229c6a0054600160401b900460ff16610b1557604051631afcd79f60e31b815260040160405180910390fd5b806001600160a01b03163b60000361184a57604051634c9c8ce360e01b81526001600160a01b0382166004820152602401610589565b600080516020611dae83398151915280546001600160a01b0319166001600160a01b0392909216919091179055565b6060600080846001600160a01b0316846040516118969190611d3d565b600060405180830381855af49150503d80600081146118d1576040519150601f19603f3d011682016040523d82523d6000602084013e6118d6565b606091505b50915091506118e6858383611910565b925050505b92915050565b3415610b155760405163b398979f60e01b815260040160405180910390fd5b606082611925576119208261196c565b610dae565b815115801561193c57506001600160a01b0384163b155b1561196557604051639996b31560e01b81526001600160a01b0385166004820152602401610589565b5092915050565b80511561197c5780518082602001fd5b604051630a12f52160e11b815260040160405180910390fd5b600080604083850312156119a857600080fd5b50508035926020909101359150565b6000602082840312156119c957600080fd5b5035919050565b80356001600160a01b03811681146119e757600080fd5b919050565b6000602082840312156119fe57600080fd5b610dae826119d0565b634e487b7160e01b600052604160045260246000fd5b60008060408385031215611a3057600080fd5b611a39836119d0565b9150602083013567ffffffffffffffff80821115611a5657600080fd5b818501915085601f830112611a6a57600080fd5b813581811115611a7c57611a7c611a07565b604051601f8201601f19908116603f01168101908382118183101715611aa457611aa4611a07565b81604052828152886020848701011115611abd57600080fd5b8260208601602083013760006020848301015280955050505050509250929050565b634e487b7160e01b600052602160045260246000fd5b600060c0820160018060a01b03808a1684526020898186015260408960408701526060896060880152608060c06080890152858a5180885260e08a019150858c01975060005b81811015611b59578851881683529786019791860191600101611b3b565b505060a0965088810360a08a0152808a518083528683019150868c01925060005b81811015611bd9578351805160028110611b9657611b96611adf565b84528089015160038110611bac57611bac611adf565b848a0152808801518a16888501528681015187850152850151858401529287019291890191600101611b7a565b50508098505050505050505050979650505050505050565b600080600080600080600080610100898b031215611c0e57600080fd5b611c17896119d0565b9750611c2560208a016119d0565b9650611c3360408a016119d0565b9550611c4160608a016119d0565b9450611c4f60808a016119d0565b979a969950949793969560a0850135955060c08501359460e001359350915050565b60005b83811015611c8c578181015183820152602001611c74565b50506000910152565b6020815260008251806020840152611cb4816040850160208701611c71565b601f01601f19169190910160400192915050565b634e487b7160e01b600052601160045260246000fd5b808201808211156118eb576118eb611cc8565b80820281158282048414176118eb576118eb611cc8565b600082611d2557634e487b7160e01b600052601260045260246000fd5b500490565b818103818111156118eb576118eb611cc8565b60008251611d4f818460208701611c71565b9190910192915050565b600060208284031215611d6b57600080fd5b81518015158114610dae57600080fd5b600060018201611d8d57611d8d611cc8565b5060010190565b600060208284031215611da657600080fd5b505191905056fe360894a13ba1a3210667c828492db98dca3e2076cc3735a920a3ca505d382bbca26469706673582212200cbbbe54a0cc8eb2f618b5744887079e644a379a4acefa12d3f25dc47d5eecdd64736f6c63430008180033","linkReferences":{}},"methodIdentifiers":{"UPGRADE_INTERFACE_VERSION()":"ad3cb1cc","claim()":"4e71d92d","emergencyWithdraw(address)":"6ff1c9bc","fee()":"ddca3f43","getUserIncome(address)":"7f081b16","getUserInfo(address)":"6386c1c7","initialize(address,address,address,address,address,uint256,uint256,uint256)":"7403c6cd","invite(address)":"4b77c468","owner()":"8da5cb5b","prefixCode()":"a99e393e","provide(uint256)":"2e2ebe06","proxiableUUID()":"52d1902d","rate()":"2c4e722e","recipient()":"66d003ac","renounceOwnership()":"715018a6","setConfig(uint256,uint256)":"1e34c585","setSubToken(address)":"7d52ec37","setSwapRate(uint256)":"f4cde469","subToken()":"e9ffa9f4","swap(uint256)":"94b918de","swapRate()":"698518e5","token()":"fc0c546a","transferOwnership(address)":"f2fde38b","upgradeToAndCall(address,bytes)":"4f1ef286","usdt()":"2f48ab7d","withdraw()":"3ccfd60b"},"id":32}