{
	"data": {
		"bytecode": {
			"linkReferences": {},
			"object": "60806040523480156200001157600080fd5b506040516200196038038062001960833981016040819052620000349162000379565b604051806040016040528060098152602001685375626a656374203360b81b8152506040518060400160405280600781526020016614dd589a9958dd60ca1b815250816003908162000087919062000467565b50600462000096828262000467565b505050620000b6336a7c13bc4b2c133c560000006200029160201b60201c565b600680546001600160a01b038086166001600160a01b03199283168117909355600880548683169084161790556009805491851691831691909117905560078054821633179055600a805490911661dead1790556040805163c45a015560e01b8152905163c45a0155916004808201926020929091908290030181865afa15801562000146573d6000803e3d6000fd5b505050506040513d601f19601f820116820180604052508101906200016c919062000533565b6001600160a01b031663c9c65396600660009054906101000a90046001600160a01b03166001600160a01b031663ad5c46486040518163ffffffff1660e01b8152600401602060405180830381865afa158015620001ce573d6000803e3d6000fd5b505050506040513d601f19601f82011682018060405250810190620001f4919062000533565b6040516001600160e01b031960e084901b1681526001600160a01b0390911660048201523060248201526044016020604051808303816000875af115801562000241573d6000803e3d6000fd5b505050506040513d601f19601f8201168201806040525081019062000267919062000533565b600580546001600160a01b0319166001600160a01b03929092169190911790555062000580915050565b6001600160a01b038216620002ec5760405162461bcd60e51b815260206004820152601f60248201527f45524332303a206d696e7420746f20746865207a65726f206164647265737300604482015260640160405180910390fd5b806002600082825462000300919062000558565b90915550506001600160a01b038216600081815260208181526040808320805486019055518481527fddf252ad1be2c89b69c2b068fc378daa952ba7f163c4a11628f55a4df523b3ef910160405180910390a35050565b505050565b80516001600160a01b03811681146200037457600080fd5b919050565b6000806000606084860312156200038f57600080fd5b6200039a846200035c565b9250620003aa602085016200035c565b9150620003ba604085016200035c565b90509250925092565b634e487b7160e01b600052604160045260246000fd5b600181811c90821680620003ee57607f821691505b6020821081036200040f57634e487b7160e01b600052602260045260246000fd5b50919050565b601f8211156200035757600081815260208120601f850160051c810160208610156200043e5750805b601f850160051c820191505b818110156200045f578281556001016200044a565b505050505050565b81516001600160401b03811115620004835762000483620003c3565b6200049b81620004948454620003d9565b8462000415565b602080601f831160018114620004d35760008415620004ba5750858301515b600019600386901b1c1916600185901b1785556200045f565b600085815260208120601f198616915b828110156200050457888601518255948401946001909101908401620004e3565b5085821015620005235787850151600019600388901b60f8161c191681555b5050505050600190811b01905550565b6000602082840312156200054657600080fd5b62000551826200035c565b9392505050565b808201808211156200057a57634e487b7160e01b600052601160045260246000fd5b92915050565b6113d080620005906000396000f3fe60806040526004361061016a5760003560e01c80637126b427116100d1578063a9059cbb1161008a578063dd62ed3e11610064578063dd62ed3e14610442578063f08d55d514610462578063f264901e14610482578063fb606f921461049857600080fd5b8063a9059cbb146103e2578063c112304414610402578063cbb732971461042257600080fd5b80637126b427146103425780638da5cb5b146103575780639024d3e31461037757806395d89b411461038d5780639bb9e5e4146103a2578063a457c2d7146103c257600080fd5b8063313ce56711610123578063313ce5671461026a578063395093511461028657806348a745b8146102a657806349bd5a5e146102bc57806356b5998a146102dc57806370a082311461030c57600080fd5b806306fdde0314610176578063095ea7b3146101a157806313af4035146101d15780631694505e146101f357806318160ddd1461022b57806323b872dd1461024a57600080fd5b3661017157005b600080fd5b34801561018257600080fd5b5061018b6104b8565b6040516101989190611075565b60405180910390f35b3480156101ad57600080fd5b506101c16101bc3660046110d8565b61054a565b6040519015158152602001610198565b3480156101dd57600080fd5b506101f16101ec366004611104565b610564565b005b3480156101ff57600080fd5b50600654610213906001600160a01b031681565b6040516001600160a01b039091168152602001610198565b34801561023757600080fd5b506002545b604051908152602001610198565b34801561025657600080fd5b506101c1610265366004611128565b6105e5565b34801561027657600080fd5b5060405160128152602001610198565b34801561029257600080fd5b506101c16102a13660046110d8565b610609565b3480156102b257600080fd5b5061023c600c5481565b3480156102c857600080fd5b50600554610213906001600160a01b031681565b3480156102e857600080fd5b506101c16102f7366004611104565b600b6020526000908152604090205460ff1681565b34801561031857600080fd5b5061023c610327366004611104565b6001600160a01b031660009081526020819052604090205490565b34801561034e57600080fd5b506101f161062b565b34801561036357600080fd5b50600754610213906001600160a01b031681565b34801561038357600080fd5b5061023c600d5481565b34801561039957600080fd5b5061018b61072d565b3480156103ae57600080fd5b506101f16103bd366004611169565b61073c565b3480156103ce57600080fd5b506101c16103dd3660046110d8565b610895565b3480156103ee57600080fd5b506101c16103fd3660046110d8565b610910565b34801561040e57600080fd5b50600954610213906001600160a01b031681565b34801561042e57600080fd5b506101f161043d366004611199565b61091e565b34801561044e57600080fd5b5061023c61045d3660046111d2565b6109d0565b34801561046e57600080fd5b50600854610213906001600160a01b031681565b34801561048e57600080fd5b5061023c600e5481565b3480156104a457600080fd5b506101f16104b33660046111d2565b6109fb565b6060600380546104c790611200565b80601f01602080910402602001604051908101604052809291908181526020018280546104f390611200565b80156105405780601f1061051557610100808354040283529160200191610540565b820191906000526020600020905b81548152906001019060200180831161052357829003601f168201915b5050505050905090565b600033610558818585610a83565b60019150505b92915050565b6007546001600160a01b031633146105c35760405162461bcd60e51b815260206004820152601a60248201527f45524332303a43616c6c6572206973206e6f74206f776e65722100000000000060448201526064015b60405180910390fd5b600780546001600160a01b0319166001600160a01b0392909216919091179055565b6000336105f3858285610ba7565b6105fe858585610c21565b506001949350505050565b60003361055881858561061c83836109d0565b6106269190611250565b610a83565b600554604080516318160ddd60e01b815290516000926001600160a01b0316916318160ddd9160048083019260209291908290030181865afa158015610675573d6000803e3d6000fd5b505050506040513d601f19601f820116820180604052508101906106999190611263565b111561072b5760006002600e546106b0919061127c565b600d549091506106c0823061073c565b6009546106d990839047906001600160a01b031661091e565b6106e482600261129e565b600e60008282546106f591906112b5565b90915550506008546107119082906001600160a01b031661073c565b80600d600082825461072391906112b5565b909155505050505b565b6060600480546104c790611200565b600654610752906001600160a01b03168361054a565b506040805160028082526060820183526000926020830190803683370190505090503081600081518110610788576107886112c8565b6001600160a01b03928316602091820292909201810191909152600654604080516315ab88c960e31b81529051919093169263ad5c46489260048083019391928290030181865afa1580156107e1573d6000803e3d6000fd5b505050506040513d601f19601f8201168201806040525081019061080591906112de565b81600181518110610818576108186112c8565b6001600160a01b03928316602091820292909201015260065460405163791ac94760e01b815291169063791ac9479061085e9086906000908690889042906004016112fb565b600060405180830381600087803b15801561087857600080fd5b505af115801561088c573d6000803e3d6000fd5b50505050505050565b600033816108a382866109d0565b9050838110156109035760405162461bcd60e51b815260206004820152602560248201527f45524332303a2064656372656173656420616c6c6f77616e63652062656c6f77604482015264207a65726f60d81b60648201526084016105ba565b6105fe8286868403610a83565b600033610558818585610c21565b600654610934906001600160a01b03168461054a565b5060065460405163f305d71960e01b81523060048201526024810185905260006044820181905260648201526001600160a01b0383811660848301524260a48301529091169063f305d71990849060c40160606040518083038185885af11580156109a3573d6000803e3d6000fd5b50505050506040513d601f19601f820116820180604052508101906109c8919061136c565b505050505050565b6001600160a01b03918216600090815260016020908152604080832093909416825291909152205490565b6007546001600160a01b03163314610a555760405162461bcd60e51b815260206004820152601a60248201527f45524332303a43616c6c6572206973206e6f74206f776e65722100000000000060448201526064016105ba565b600880546001600160a01b039384166001600160a01b03199182161790915560098054929093169116179055565b6001600160a01b038316610ae55760405162461bcd60e51b8152602060048201526024808201527f45524332303a20617070726f76652066726f6d20746865207a65726f206164646044820152637265737360e01b60648201526084016105ba565b6001600160a01b038216610b465760405162461bcd60e51b815260206004820152602260248201527f45524332303a20617070726f766520746f20746865207a65726f206164647265604482015261737360f01b60648201526084016105ba565b6001600160a01b0383811660008181526001602090815260408083209487168084529482529182902085905590518481527f8c5be1e5ebec7d5bd14f71427d1e84f3dd0314c0f7b2291e5b200ac8c7c3b925910160405180910390a3505050565b6000610bb384846109d0565b90506000198114610c1b5781811015610c0e5760405162461bcd60e51b815260206004820152601d60248201527f45524332303a20696e73756666696369656e7420616c6c6f77616e636500000060448201526064016105ba565b610c1b8484848403610a83565b50505050565b6001600160a01b0383166000908152600b602052604090205460ff1615610c7d5760405162461bcd60e51b815260206004820152601060248201526f45524332303a4e6f207065726d69742160801b60448201526064016105ba565b60055481906001600160a01b0385811691161480610ca857506005546001600160a01b038481169116145b15610d6c57610cce84306064610cbf85600461129e565b610cc9919061127c565b610ded565b600a54610ced9085906001600160a01b03166064610cbf85600261129e565b6064610cfa82600661129e565b610d04919061127c565b610d0e90826112b5565b90506064610d1d83600261129e565b610d27919061127c565b600e6000828254610d389190611250565b9091555060649050610d4b83600261129e565b610d55919061127c565b600d6000828254610d669190611250565b90915550505b610d77848483610ded565b610d8083610f91565b6005546001600160a01b03858116911614801590610dac57506006546001600160a01b03858116911614155b8015610dc657506005546001600160a01b03848116911614155b8015610de057506006546001600160a01b03848116911614155b15610c1b57610c1b61062b565b6001600160a01b038316610e515760405162461bcd60e51b815260206004820152602560248201527f45524332303a207472616e736665722066726f6d20746865207a65726f206164604482015264647265737360d81b60648201526084016105ba565b6001600160a01b038216610eb35760405162461bcd60e51b815260206004820152602360248201527f45524332303a207472616e7366657220746f20746865207a65726f206164647260448201526265737360e81b60648201526084016105ba565b6001600160a01b03831660009081526020819052604090205481811015610f2b5760405162461bcd60e51b815260206004820152602660248201527f45524332303a207472616e7366657220616d6f756e7420657863656564732062604482015265616c616e636560d01b60648201526084016105ba565b6001600160a01b03848116600081815260208181526040808320878703905593871680835291849020805487019055925185815290927fddf252ad1be2c89b69c2b068fc378daa952ba7f163c4a11628f55a4df523b3ef910160405180910390a3610c1b565b600c5415801561100c5750600554604080516318160ddd60e01b815290516000926001600160a01b0316916318160ddd9160048083019260209291908290030181865afa158015610fe6573d6000803e3d6000fd5b505050506040513d601f19601f8201168201806040525081019061100a9190611263565b115b156110165742600c555b600c5461102490603c611250565b4210801561103457506000600c54115b801561104957506001600160a01b0381163014155b15611072576001600160a01b0381166000908152600b60205260409020805460ff191660011790555b50565b600060208083528351808285015260005b818110156110a257858101830151858201604001528201611086565b506000604082860101526040601f19601f8301168501019250505092915050565b6001600160a01b038116811461107257600080fd5b600080604083850312156110eb57600080fd5b82356110f6816110c3565b946020939093013593505050565b60006020828403121561111657600080fd5b8135611121816110c3565b9392505050565b60008060006060848603121561113d57600080fd5b8335611148816110c3565b92506020840135611158816110c3565b929592945050506040919091013590565b6000806040838503121561117c57600080fd5b82359150602083013561118e816110c3565b809150509250929050565b6000806000606084860312156111ae57600080fd5b833592506020840135915060408401356111c7816110c3565b809150509250925092565b600080604083850312156111e557600080fd5b82356111f0816110c3565b9150602083013561118e816110c3565b600181811c9082168061121457607f821691505b60208210810361123457634e487b7160e01b600052602260045260246000fd5b50919050565b634e487b7160e01b600052601160045260246000fd5b8082018082111561055e5761055e61123a565b60006020828403121561127557600080fd5b5051919050565b60008261129957634e487b7160e01b600052601260045260246000fd5b500490565b808202811582820484141761055e5761055e61123a565b8181038181111561055e5761055e61123a565b634e487b7160e01b600052603260045260246000fd5b6000602082840312156112f057600080fd5b8151611121816110c3565b600060a082018783526020878185015260a0604085015281875180845260c086019150828901935060005b8181101561134b5784516001600160a01b031683529383019391830191600101611326565b50506001600160a01b03969096166060850152505050608001529392505050565b60008060006060848603121561138157600080fd5b835192506020840151915060408401519050925092509256fea2646970667358221220dc619be63b8d5b89137c3cc2b3465cad1e40a34ebc5e3547da89437d12f32ddc64736f6c63430008120033",
			"opcodes": "PUSH1 0x80 PUSH1 0x40 MSTORE CALLVALUE DUP1 ISZERO PUSH3 0x11 JUMPI PUSH1 0x0 DUP1 REVERT JUMPDEST POP PUSH1 0x40 MLOAD PUSH3 0x1960 CODESIZE SUB DUP1 PUSH3 0x1960 DUP4 CODECOPY DUP2 ADD PUSH1 0x40 DUP2 SWAP1 MSTORE PUSH3 0x34 SWAP2 PUSH3 0x379 JUMP JUMPDEST PUSH1 0x40 MLOAD DUP1 PUSH1 0x40 ADD PUSH1 0x40 MSTORE DUP1 PUSH1 0x9 DUP2 MSTORE PUSH1 0x20 ADD PUSH9 0x5375626A6563742033 PUSH1 0xB8 SHL DUP2 MSTORE POP PUSH1 0x40 MLOAD DUP1 PUSH1 0x40 ADD PUSH1 0x40 MSTORE DUP1 PUSH1 0x7 DUP2 MSTORE PUSH1 0x20 ADD PUSH7 0x14DD589A9958DD PUSH1 0xCA SHL DUP2 MSTORE POP DUP2 PUSH1 0x3 SWAP1 DUP2 PUSH3 0x87 SWAP2 SWAP1 PUSH3 0x467 JUMP JUMPDEST POP PUSH1 0x4 PUSH3 0x96 DUP3 DUP3 PUSH3 0x467 JUMP JUMPDEST POP POP POP PUSH3 0xB6 CALLER PUSH11 0x7C13BC4B2C133C56000000 PUSH3 0x291 PUSH1 0x20 SHL PUSH1 0x20 SHR JUMP JUMPDEST PUSH1 0x6 DUP1 SLOAD PUSH1 0x1 PUSH1 0x1 PUSH1 0xA0 SHL SUB DUP1 DUP7 AND PUSH1 0x1 PUSH1 0x1 PUSH1 0xA0 SHL SUB NOT SWAP3 DUP4 AND DUP2 OR SWAP1 SWAP4 SSTORE PUSH1 0x8 DUP1 SLOAD DUP7 DUP4 AND SWAP1 DUP5 AND OR SWAP1 SSTORE PUSH1 0x9 DUP1 SLOAD SWAP2 DUP6 AND SWAP2 DUP4 AND SWAP2 SWAP1 SWAP2 OR SWAP1 SSTORE PUSH1 0x7 DUP1 SLOAD DUP3 AND CALLER OR SWAP1 SSTORE PUSH1 0xA DUP1 SLOAD SWAP1 SWAP2 AND PUSH2 0xDEAD OR SWAP1 SSTORE PUSH1 0x40 DUP1 MLOAD PUSH4 0xC45A0155 PUSH1 0xE0 SHL DUP2 MSTORE SWAP1 MLOAD PUSH4 0xC45A0155 SWAP2 PUSH1 0x4 DUP1 DUP3 ADD SWAP3 PUSH1 0x20 SWAP3 SWAP1 SWAP2 SWAP1 DUP3 SWAP1 SUB ADD DUP2 DUP7 GAS STATICCALL ISZERO DUP1 ISZERO PUSH3 0x146 JUMPI RETURNDATASIZE PUSH1 0x0 DUP1 RETURNDATACOPY RETURNDATASIZE PUSH1 0x0 REVERT JUMPDEST POP POP POP POP PUSH1 0x40 MLOAD RETURNDATASIZE PUSH1 0x1F NOT PUSH1 0x1F DUP3 ADD AND DUP3 ADD DUP1 PUSH1 0x40 MSTORE POP DUP2 ADD SWAP1 PUSH3 0x16C SWAP2 SWAP1 PUSH3 0x533 JUMP JUMPDEST PUSH1 0x1 PUSH1 0x1 PUSH1 0xA0 SHL SUB AND PUSH4 0xC9C65396 PUSH1 0x6 PUSH1 0x0 SWAP1 SLOAD SWAP1 PUSH2 0x100 EXP SWAP1 DIV PUSH1 0x1 PUSH1 0x1 PUSH1 0xA0 SHL SUB AND PUSH1 0x1 PUSH1 0x1 PUSH1 0xA0 SHL SUB AND PUSH4 0xAD5C4648 PUSH1 0x40 MLOAD DUP2 PUSH4 0xFFFFFFFF AND PUSH1 0xE0 SHL DUP2 MSTORE PUSH1 0x4 ADD PUSH1 0x20 PUSH1 0x40 MLOAD DUP1 DUP4 SUB DUP2 DUP7 GAS STATICCALL ISZERO DUP1 ISZERO PUSH3 0x1CE JUMPI RETURNDATASIZE PUSH1 0x0 DUP1 RETURNDATACOPY RETURNDATASIZE PUSH1 0x0 REVERT JUMPDEST POP POP POP POP PUSH1 0x40 MLOAD RETURNDATASIZE PUSH1 0x1F NOT PUSH1 0x1F DUP3 ADD AND DUP3 ADD DUP1 PUSH1 0x40 MSTORE POP DUP2 ADD SWAP1 PUSH3 0x1F4 SWAP2 SWAP1 PUSH3 0x533 JUMP JUMPDEST PUSH1 0x40 MLOAD PUSH1 0x1 PUSH1 0x1 PUSH1 0xE0 SHL SUB NOT PUSH1 0xE0 DUP5 SWAP1 SHL AND DUP2 MSTORE PUSH1 0x1 PUSH1 0x1 PUSH1 0xA0 SHL SUB SWAP1 SWAP2 AND PUSH1 0x4 DUP3 ADD MSTORE ADDRESS PUSH1 0x24 DUP3 ADD MSTORE PUSH1 0x44 ADD PUSH1 0x20 PUSH1 0x40 MLOAD DUP1 DUP4 SUB DUP2 PUSH1 0x0 DUP8 GAS CALL ISZERO DUP1 ISZERO PUSH3 0x241 JUMPI RETURNDATASIZE PUSH1 0x0 DUP1 RETURNDATACOPY RETURNDATASIZE PUSH1 0x0 REVERT JUMPDEST POP POP POP POP PUSH1 0x40 MLOAD RETURNDATASIZE PUSH1 0x1F NOT PUSH1 0x1F DUP3 ADD AND DUP3 ADD DUP1 PUSH1 0x40 MSTORE POP DUP2 ADD SWAP1 PUSH3 0x267 SWAP2 SWAP1 PUSH3 0x533 JUMP JUMPDEST PUSH1 0x5 DUP1 SLOAD PUSH1 0x1 PUSH1 0x1 PUSH1 0xA0 SHL SUB NOT AND PUSH1 0x1 PUSH1 0x1 PUSH1 0xA0 SHL SUB SWAP3 SWAP1 SWAP3 AND SWAP2 SWAP1 SWAP2 OR SWAP1 SSTORE POP PUSH3 0x580 SWAP2 POP POP JUMP JUMPDEST PUSH1 0x1 PUSH1 0x1 PUSH1 0xA0 SHL SUB DUP3 AND PUSH3 0x2EC JUMPI PUSH1 0x40 MLOAD PUSH3 0x461BCD PUSH1 0xE5 SHL DUP2 MSTORE PUSH1 0x20 PUSH1 0x4 DUP3 ADD MSTORE PUSH1 0x1F PUSH1 0x24 DUP3 ADD MSTORE PUSH32 0x45524332303A206D696E7420746F20746865207A65726F206164647265737300 PUSH1 0x44 DUP3 ADD MSTORE PUSH1 0x64 ADD PUSH1 0x40 MLOAD DUP1 SWAP2 SUB SWAP1 REVERT JUMPDEST DUP1 PUSH1 0x2 PUSH1 0x0 DUP3 DUP3 SLOAD PUSH3 0x300 SWAP2 SWAP1 PUSH3 0x558 JUMP JUMPDEST SWAP1 SWAP2 SSTORE POP POP PUSH1 0x1 PUSH1 0x1 PUSH1 0xA0 SHL SUB DUP3 AND PUSH1 0x0 DUP2 DUP2 MSTORE PUSH1 0x20 DUP2 DUP2 MSTORE PUSH1 0x40 DUP1 DUP4 KECCAK256 DUP1 SLOAD DUP7 ADD SWAP1 SSTORE MLOAD DUP5 DUP2 MSTORE PUSH32 0xDDF252AD1BE2C89B69C2B068FC378DAA952BA7F163C4A11628F55A4DF523B3EF SWAP2 ADD PUSH1 0x40 MLOAD DUP1 SWAP2 SUB SWAP1 LOG3 POP POP JUMP JUMPDEST POP POP POP JUMP JUMPDEST DUP1 MLOAD PUSH1 0x1 PUSH1 0x1 PUSH1 0xA0 SHL SUB DUP2 AND DUP2 EQ PUSH3 0x374 JUMPI PUSH1 0x0 DUP1 REVERT JUMPDEST SWAP2 SWAP1 POP JUMP JUMPDEST PUSH1 0x0 DUP1 PUSH1 0x0 PUSH1 0x60 DUP5 DUP7 SUB SLT ISZERO PUSH3 0x38F JUMPI PUSH1 0x0 DUP1 REVERT JUMPDEST PUSH3 0x39A DUP5 PUSH3 0x35C JUMP JUMPDEST SWAP3 POP PUSH3 0x3AA PUSH1 0x20 DUP6 ADD PUSH3 0x35C JUMP JUMPDEST SWAP2 POP PUSH3 0x3BA PUSH1 0x40 DUP6 ADD PUSH3 0x35C JUMP JUMPDEST SWAP1 POP SWAP3 POP SWAP3 POP SWAP3 JUMP JUMPDEST PUSH4 0x4E487B71 PUSH1 0xE0 SHL PUSH1 0x0 MSTORE PUSH1 0x41 PUSH1 0x4 MSTORE PUSH1 0x24 PUSH1 0x0 REVERT JUMPDEST PUSH1 0x1 DUP2 DUP2 SHR SWAP1 DUP3 AND DUP1 PUSH3 0x3EE JUMPI PUSH1 0x7F DUP3 AND SWAP2 POP JUMPDEST PUSH1 0x20 DUP3 LT DUP2 SUB PUSH3 0x40F JUMPI PUSH4 0x4E487B71 PUSH1 0xE0 SHL PUSH1 0x0 MSTORE PUSH1 0x22 PUSH1 0x4 MSTORE PUSH1 0x24 PUSH1 0x0 REVERT JUMPDEST POP SWAP2 SWAP1 POP JUMP JUMPDEST PUSH1 0x1F DUP3 GT ISZERO PUSH3 0x357 JUMPI PUSH1 0x0 DUP2 DUP2 MSTORE PUSH1 0x20 DUP2 KECCAK256 PUSH1 0x1F DUP6 ADD PUSH1 0x5 SHR DUP2 ADD PUSH1 0x20 DUP7 LT ISZERO PUSH3 0x43E JUMPI POP DUP1 JUMPDEST PUSH1 0x1F DUP6 ADD PUSH1 0x5 SHR DUP3 ADD SWAP2 POP JUMPDEST DUP2 DUP2 LT ISZERO PUSH3 0x45F JUMPI DUP3 DUP2 SSTORE PUSH1 0x1 ADD PUSH3 0x44A JUMP JUMPDEST POP POP POP POP POP POP JUMP JUMPDEST DUP2 MLOAD PUSH1 0x1 PUSH1 0x1 PUSH1 0x40 SHL SUB DUP2 GT ISZERO PUSH3 0x483 JUMPI PUSH3 0x483 PUSH3 0x3C3 JUMP JUMPDEST PUSH3 0x49B DUP2 PUSH3 0x494 DUP5 SLOAD PUSH3 0x3D9 JUMP JUMPDEST DUP5 PUSH3 0x415 JUMP JUMPDEST PUSH1 0x20 DUP1 PUSH1 0x1F DUP4 GT PUSH1 0x1 DUP2 EQ PUSH3 0x4D3 JUMPI PUSH1 0x0 DUP5 ISZERO PUSH3 0x4BA JUMPI POP DUP6 DUP4 ADD MLOAD JUMPDEST PUSH1 0x0 NOT PUSH1 0x3 DUP7 SWAP1 SHL SHR NOT AND PUSH1 0x1 DUP6 SWAP1 SHL OR DUP6 SSTORE PUSH3 0x45F JUMP JUMPDEST PUSH1 0x0 DUP6 DUP2 MSTORE PUSH1 0x20 DUP2 KECCAK256 PUSH1 0x1F NOT DUP7 AND SWAP2 JUMPDEST DUP3 DUP2 LT ISZERO PUSH3 0x504 JUMPI DUP9 DUP7 ADD MLOAD DUP3 SSTORE SWAP5 DUP5 ADD SWAP5 PUSH1 0x1 SWAP1 SWAP2 ADD SWAP1 DUP5 ADD PUSH3 0x4E3 JUMP JUMPDEST POP DUP6 DUP3 LT ISZERO PUSH3 0x523 JUMPI DUP8 DUP6 ADD MLOAD PUSH1 0x0 NOT PUSH1 0x3 DUP9 SWAP1 SHL PUSH1 0xF8 AND SHR NOT AND DUP2 SSTORE JUMPDEST POP POP POP POP POP PUSH1 0x1 SWAP1 DUP2 SHL ADD SWAP1 SSTORE POP JUMP JUMPDEST PUSH1 0x0 PUSH1 0x20 DUP3 DUP5 SUB SLT ISZERO PUSH3 0x546 JUMPI PUSH1 0x0 DUP1 REVERT JUMPDEST PUSH3 0x551 DUP3 PUSH3 0x35C JUMP JUMPDEST SWAP4 SWAP3 POP POP POP JUMP JUMPDEST DUP1 DUP3 ADD DUP1 DUP3 GT ISZERO PUSH3 0x57A JUMPI PUSH4 0x4E487B71 PUSH1 0xE0 SHL PUSH1 0x0 MSTORE PUSH1 0x11 PUSH1 0x4 MSTORE PUSH1 0x24 PUSH1 0x0 REVERT JUMPDEST SWAP3 SWAP2 POP POP JUMP JUMPDEST PUSH2 0x13D0 DUP1 PUSH3 0x590 PUSH1 0x0 CODECOPY PUSH1 0x0 RETURN INVALID PUSH1 0x80 PUSH1 0x40 MSTORE PUSH1 0x4 CALLDATASIZE LT PUSH2 0x16A JUMPI PUSH1 0x0 CALLDATALOAD PUSH1 0xE0 SHR DUP1 PUSH4 0x7126B427 GT PUSH2 0xD1 JUMPI DUP1 PUSH4 0xA9059CBB GT PUSH2 0x8A JUMPI DUP1 PUSH4 0xDD62ED3E GT PUSH2 0x64 JUMPI DUP1 PUSH4 0xDD62ED3E EQ PUSH2 0x442 JUMPI DUP1 PUSH4 0xF08D55D5 EQ PUSH2 0x462 JUMPI DUP1 PUSH4 0xF264901E EQ PUSH2 0x482 JUMPI DUP1 PUSH4 0xFB606F92 EQ PUSH2 0x498 JUMPI PUSH1 0x0 DUP1 REVERT JUMPDEST DUP1 PUSH4 0xA9059CBB EQ PUSH2 0x3E2 JUMPI DUP1 PUSH4 0xC1123044 EQ PUSH2 0x402 JUMPI DUP1 PUSH4 0xCBB73297 EQ PUSH2 0x422 JUMPI PUSH1 0x0 DUP1 REVERT JUMPDEST DUP1 PUSH4 0x7126B427 EQ PUSH2 0x342 JUMPI DUP1 PUSH4 0x8DA5CB5B EQ PUSH2 0x357 JUMPI DUP1 PUSH4 0x9024D3E3 EQ PUSH2 0x377 JUMPI DUP1 PUSH4 0x95D89B41 EQ PUSH2 0x38D JUMPI DUP1 PUSH4 0x9BB9E5E4 EQ PUSH2 0x3A2 JUMPI DUP1 PUSH4 0xA457C2D7 EQ PUSH2 0x3C2 JUMPI PUSH1 0x0 DUP1 REVERT JUMPDEST DUP1 PUSH4 0x313CE567 GT PUSH2 0x123 JUMPI DUP1 PUSH4 0x313CE567 EQ PUSH2 0x26A JUMPI DUP1 PUSH4 0x39509351 EQ PUSH2 0x286 JUMPI DUP1 PUSH4 0x48A745B8 EQ PUSH2 0x2A6 JUMPI DUP1 PUSH4 0x49BD5A5E EQ PUSH2 0x2BC JUMPI DUP1 PUSH4 0x56B5998A EQ PUSH2 0x2DC JUMPI DUP1 PUSH4 0x70A08231 EQ PUSH2 0x30C JUMPI PUSH1 0x0 DUP1 REVERT JUMPDEST DUP1 PUSH4 0x6FDDE03 EQ PUSH2 0x176 JUMPI DUP1 PUSH4 0x95EA7B3 EQ PUSH2 0x1A1 JUMPI DUP1 PUSH4 0x13AF4035 EQ PUSH2 0x1D1 JUMPI DUP1 PUSH4 0x1694505E EQ PUSH2 0x1F3 JUMPI DUP1 PUSH4 0x18160DDD EQ PUSH2 0x22B JUMPI DUP1 PUSH4 0x23B872DD EQ PUSH2 0x24A JUMPI PUSH1 0x0 DUP1 REVERT JUMPDEST CALLDATASIZE PUSH2 0x171 JUMPI STOP JUMPDEST PUSH1 0x0 DUP1 REVERT JUMPDEST CALLVALUE DUP1 ISZERO PUSH2 0x182 JUMPI PUSH1 0x0 DUP1 REVERT JUMPDEST POP PUSH2 0x18B PUSH2 0x4B8 JUMP JUMPDEST PUSH1 0x40 MLOAD PUSH2 0x198 SWAP2 SWAP1 PUSH2 0x1075 JUMP JUMPDEST PUSH1 0x40 MLOAD DUP1 SWAP2 SUB SWAP1 RETURN JUMPDEST CALLVALUE DUP1 ISZERO PUSH2 0x1AD JUMPI PUSH1 0x0 DUP1 REVERT JUMPDEST POP PUSH2 0x1C1 PUSH2 0x1BC CALLDATASIZE PUSH1 0x4 PUSH2 0x10D8 JUMP JUMPDEST PUSH2 0x54A JUMP JUMPDEST PUSH1 0x40 MLOAD SWAP1 ISZERO ISZERO DUP2 MSTORE PUSH1 0x20 ADD PUSH2 0x198 JUMP JUMPDEST CALLVALUE DUP1 ISZERO PUSH2 0x1DD JUMPI PUSH1 0x0 DUP1 REVERT JUMPDEST POP PUSH2 0x1F1 PUSH2 0x1EC CALLDATASIZE PUSH1 0x4 PUSH2 0x1104 JUMP JUMPDEST PUSH2 0x564 JUMP JUMPDEST STOP JUMPDEST CALLVALUE DUP1 ISZERO PUSH2 0x1FF JUMPI PUSH1 0x0 DUP1 REVERT JUMPDEST POP PUSH1 0x6 SLOAD PUSH2 0x213 SWAP1 PUSH1 0x1 PUSH1 0x1 PUSH1 0xA0 SHL SUB AND DUP2 JUMP JUMPDEST PUSH1 0x40 MLOAD PUSH1 0x1 PUSH1 0x1 PUSH1 0xA0 SHL SUB SWAP1 SWAP2 AND DUP2 MSTORE PUSH1 0x20 ADD PUSH2 0x198 JUMP JUMPDEST CALLVALUE DUP1 ISZERO PUSH2 0x237 JUMPI PUSH1 0x0 DUP1 REVERT JUMPDEST POP PUSH1 0x2 SLOAD JUMPDEST PUSH1 0x40 MLOAD SWAP1 DUP2 MSTORE PUSH1 0x20 ADD PUSH2 0x198 JUMP JUMPDEST CALLVALUE DUP1 ISZERO PUSH2 0x256 JUMPI PUSH1 0x0 DUP1 REVERT JUMPDEST POP PUSH2 0x1C1 PUSH2 0x265 CALLDATASIZE PUSH1 0x4 PUSH2 0x1128 JUMP JUMPDEST PUSH2 0x5E5 JUMP JUMPDEST CALLVALUE DUP1 ISZERO PUSH2 0x276 JUMPI PUSH1 0x0 DUP1 REVERT JUMPDEST POP PUSH1 0x40 MLOAD PUSH1 0x12 DUP2 MSTORE PUSH1 0x20 ADD PUSH2 0x198 JUMP JUMPDEST CALLVALUE DUP1 ISZERO PUSH2 0x292 JUMPI PUSH1 0x0 DUP1 REVERT JUMPDEST POP PUSH2 0x1C1 PUSH2 0x2A1 CALLDATASIZE PUSH1 0x4 PUSH2 0x10D8 JUMP JUMPDEST PUSH2 0x609 JUMP JUMPDEST CALLVALUE DUP1 ISZERO PUSH2 0x2B2 JUMPI PUSH1 0x0 DUP1 REVERT JUMPDEST POP PUSH2 0x23C PUSH1 0xC SLOAD DUP2 JUMP JUMPDEST CALLVALUE DUP1 ISZERO PUSH2 0x2C8 JUMPI PUSH1 0x0 DUP1 REVERT JUMPDEST POP PUSH1 0x5 SLOAD PUSH2 0x213 SWAP1 PUSH1 0x1 PUSH1 0x1 PUSH1 0xA0 SHL SUB AND DUP2 JUMP JUMPDEST CALLVALUE DUP1 ISZERO PUSH2 0x2E8 JUMPI PUSH1 0x0 DUP1 REVERT JUMPDEST POP PUSH2 0x1C1 PUSH2 0x2F7 CALLDATASIZE PUSH1 0x4 PUSH2 0x1104 JUMP JUMPDEST PUSH1 0xB PUSH1 0x20 MSTORE PUSH1 0x0 SWAP1 DUP2 MSTORE PUSH1 0x40 SWAP1 KECCAK256 SLOAD PUSH1 0xFF AND DUP2 JUMP JUMPDEST CALLVALUE DUP1 ISZERO PUSH2 0x318 JUMPI PUSH1 0x0 DUP1 REVERT JUMPDEST POP PUSH2 0x23C PUSH2 0x327 CALLDATASIZE PUSH1 0x4 PUSH2 0x1104 JUMP JUMPDEST PUSH1 0x1 PUSH1 0x1 PUSH1 0xA0 SHL SUB AND PUSH1 0x0 SWAP1 DUP2 MSTORE PUSH1 0x20 DUP2 SWAP1 MSTORE PUSH1 0x40 SWAP1 KECCAK256 SLOAD SWAP1 JUMP JUMPDEST CALLVALUE DUP1 ISZERO PUSH2 0x34E JUMPI PUSH1 0x0 DUP1 REVERT JUMPDEST POP PUSH2 0x1F1 PUSH2 0x62B JUMP JUMPDEST CALLVALUE DUP1 ISZERO PUSH2 0x363 JUMPI PUSH1 0x0 DUP1 REVERT JUMPDEST POP PUSH1 0x7 SLOAD PUSH2 0x213 SWAP1 PUSH1 0x1 PUSH1 0x1 PUSH1 0xA0 SHL SUB AND DUP2 JUMP JUMPDEST CALLVALUE DUP1 ISZERO PUSH2 0x383 JUMPI PUSH1 0x0 DUP1 REVERT JUMPDEST POP PUSH2 0x23C PUSH1 0xD SLOAD DUP2 JUMP JUMPDEST CALLVALUE DUP1 ISZERO PUSH2 0x399 JUMPI PUSH1 0x0 DUP1 REVERT JUMPDEST POP PUSH2 0x18B PUSH2 0x72D JUMP JUMPDEST CALLVALUE DUP1 ISZERO PUSH2 0x3AE JUMPI PUSH1 0x0 DUP1 REVERT JUMPDEST POP PUSH2 0x1F1 PUSH2 0x3BD CALLDATASIZE PUSH1 0x4 PUSH2 0x1169 JUMP JUMPDEST PUSH2 0x73C JUMP JUMPDEST CALLVALUE DUP1 ISZERO PUSH2 0x3CE JUMPI PUSH1 0x0 DUP1 REVERT JUMPDEST POP PUSH2 0x1C1 PUSH2 0x3DD CALLDATASIZE PUSH1 0x4 PUSH2 0x10D8 JUMP JUMPDEST PUSH2 0x895 JUMP JUMPDEST CALLVALUE DUP1 ISZERO PUSH2 0x3EE JUMPI PUSH1 0x0 DUP1 REVERT JUMPDEST POP PUSH2 0x1C1 PUSH2 0x3FD CALLDATASIZE PUSH1 0x4 PUSH2 0x10D8 JUMP JUMPDEST PUSH2 0x910 JUMP JUMPDEST CALLVALUE DUP1 ISZERO PUSH2 0x40E JUMPI PUSH1 0x0 DUP1 REVERT JUMPDEST POP PUSH1 0x9 SLOAD PUSH2 0x213 SWAP1 PUSH1 0x1 PUSH1 0x1 PUSH1 0xA0 SHL SUB AND DUP2 JUMP JUMPDEST CALLVALUE DUP1 ISZERO PUSH2 0x42E JUMPI PUSH1 0x0 DUP1 REVERT JUMPDEST POP PUSH2 0x1F1 PUSH2 0x43D CALLDATASIZE PUSH1 0x4 PUSH2 0x1199 JUMP JUMPDEST PUSH2 0x91E JUMP JUMPDEST CALLVALUE DUP1 ISZERO PUSH2 0x44E JUMPI PUSH1 0x0 DUP1 REVERT JUMPDEST POP PUSH2 0x23C PUSH2 0x45D CALLDATASIZE PUSH1 0x4 PUSH2 0x11D2 JUMP JUMPDEST PUSH2 0x9D0 JUMP JUMPDEST CALLVALUE DUP1 ISZERO PUSH2 0x46E JUMPI PUSH1 0x0 DUP1 REVERT JUMPDEST POP PUSH1 0x8 SLOAD PUSH2 0x213 SWAP1 PUSH1 0x1 PUSH1 0x1 PUSH1 0xA0 SHL SUB AND DUP2 JUMP JUMPDEST CALLVALUE DUP1 ISZERO PUSH2 0x48E JUMPI PUSH1 0x0 DUP1 REVERT JUMPDEST POP PUSH2 0x23C PUSH1 0xE SLOAD DUP2 JUMP JUMPDEST CALLVALUE DUP1 ISZERO PUSH2 0x4A4 JUMPI PUSH1 0x0 DUP1 REVERT JUMPDEST POP PUSH2 0x1F1 PUSH2 0x4B3 CALLDATASIZE PUSH1 0x4 PUSH2 0x11D2 JUMP JUMPDEST PUSH2 0x9FB JUMP JUMPDEST PUSH1 0x60 PUSH1 0x3 DUP1 SLOAD PUSH2 0x4C7 SWAP1 PUSH2 0x1200 JUMP JUMPDEST DUP1 PUSH1 0x1F ADD PUSH1 0x20 DUP1 SWAP2 DIV MUL PUSH1 0x20 ADD PUSH1 0x40 MLOAD SWAP1 DUP2 ADD PUSH1 0x40 MSTORE DUP1 SWAP3 SWAP2 SWAP1 DUP2 DUP2 MSTORE PUSH1 0x20 ADD DUP3 DUP1 SLOAD PUSH2 0x4F3 SWAP1 PUSH2 0x1200 JUMP JUMPDEST DUP1 ISZERO PUSH2 0x540 JUMPI DUP1 PUSH1 0x1F LT PUSH2 0x515 JUMPI PUSH2 0x100 DUP1 DUP4 SLOAD DIV MUL DUP4 MSTORE SWAP2 PUSH1 0x20 ADD SWAP2 PUSH2 0x540 JUMP JUMPDEST DUP3 ADD SWAP2 SWAP1 PUSH1 0x0 MSTORE PUSH1 0x20 PUSH1 0x0 KECCAK256 SWAP1 JUMPDEST DUP2 SLOAD DUP2 MSTORE SWAP1 PUSH1 0x1 ADD SWAP1 PUSH1 0x20 ADD DUP1 DUP4 GT PUSH2 0x523 JUMPI DUP3 SWAP1 SUB PUSH1 0x1F AND DUP3 ADD SWAP2 JUMPDEST POP POP POP POP POP SWAP1 POP SWAP1 JUMP JUMPDEST PUSH1 0x0 CALLER PUSH2 0x558 DUP2 DUP6 DUP6 PUSH2 0xA83 JUMP JUMPDEST PUSH1 0x1 SWAP2 POP POP JUMPDEST SWAP3 SWAP2 POP POP JUMP JUMPDEST PUSH1 0x7 SLOAD PUSH1 0x1 PUSH1 0x1 PUSH1 0xA0 SHL SUB AND CALLER EQ PUSH2 0x5C3 JUMPI PUSH1 0x40 MLOAD PUSH3 0x461BCD PUSH1 0xE5 SHL DUP2 MSTORE PUSH1 0x20 PUSH1 0x4 DUP3 ADD MSTORE PUSH1 0x1A PUSH1 0x24 DUP3 ADD MSTORE PUSH32 0x45524332303A43616C6C6572206973206E6F74206F776E657221000000000000 PUSH1 0x44 DUP3 ADD MSTORE PUSH1 0x64 ADD JUMPDEST PUSH1 0x40 MLOAD DUP1 SWAP2 SUB SWAP1 REVERT JUMPDEST PUSH1 0x7 DUP1 SLOAD PUSH1 0x1 PUSH1 0x1 PUSH1 0xA0 SHL SUB NOT AND PUSH1 0x1 PUSH1 0x1 PUSH1 0xA0 SHL SUB SWAP3 SWAP1 SWAP3 AND SWAP2 SWAP1 SWAP2 OR SWAP1 SSTORE JUMP JUMPDEST PUSH1 0x0 CALLER PUSH2 0x5F3 DUP6 DUP3 DUP6 PUSH2 0xBA7 JUMP JUMPDEST PUSH2 0x5FE DUP6 DUP6 DUP6 PUSH2 0xC21 JUMP JUMPDEST POP PUSH1 0x1 SWAP5 SWAP4 POP POP POP POP JUMP JUMPDEST PUSH1 0x0 CALLER PUSH2 0x558 DUP2 DUP6 DUP6 PUSH2 0x61C DUP4 DUP4 PUSH2 0x9D0 JUMP JUMPDEST PUSH2 0x626 SWAP2 SWAP1 PUSH2 0x1250 JUMP JUMPDEST PUSH2 0xA83 JUMP JUMPDEST PUSH1 0x5 SLOAD PUSH1 0x40 DUP1 MLOAD PUSH4 0x18160DDD PUSH1 0xE0 SHL DUP2 MSTORE SWAP1 MLOAD PUSH1 0x0 SWAP3 PUSH1 0x1 PUSH1 0x1 PUSH1 0xA0 SHL SUB AND SWAP2 PUSH4 0x18160DDD SWAP2 PUSH1 0x4 DUP1 DUP4 ADD SWAP3 PUSH1 0x20 SWAP3 SWAP2 SWAP1 DUP3 SWAP1 SUB ADD DUP2 DUP7 GAS STATICCALL ISZERO DUP1 ISZERO PUSH2 0x675 JUMPI RETURNDATASIZE PUSH1 0x0 DUP1 RETURNDATACOPY RETURNDATASIZE PUSH1 0x0 REVERT JUMPDEST POP POP POP POP PUSH1 0x40 MLOAD RETURNDATASIZE PUSH1 0x1F NOT PUSH1 0x1F DUP3 ADD AND DUP3 ADD DUP1 PUSH1 0x40 MSTORE POP DUP2 ADD SWAP1 PUSH2 0x699 SWAP2 SWAP1 PUSH2 0x1263 JUMP JUMPDEST GT ISZERO PUSH2 0x72B JUMPI PUSH1 0x0 PUSH1 0x2 PUSH1 0xE SLOAD PUSH2 0x6B0 SWAP2 SWAP1 PUSH2 0x127C JUMP JUMPDEST PUSH1 0xD SLOAD SWAP1 SWAP2 POP PUSH2 0x6C0 DUP3 ADDRESS PUSH2 0x73C JUMP JUMPDEST PUSH1 0x9 SLOAD PUSH2 0x6D9 SWAP1 DUP4 SWAP1 SELFBALANCE SWAP1 PUSH1 0x1 PUSH1 0x1 PUSH1 0xA0 SHL SUB AND PUSH2 0x91E JUMP JUMPDEST PUSH2 0x6E4 DUP3 PUSH1 0x2 PUSH2 0x129E JUMP JUMPDEST PUSH1 0xE PUSH1 0x0 DUP3 DUP3 SLOAD PUSH2 0x6F5 SWAP2 SWAP1 PUSH2 0x12B5 JUMP JUMPDEST SWAP1 SWAP2 SSTORE POP POP PUSH1 0x8 SLOAD PUSH2 0x711 SWAP1 DUP3 SWAP1 PUSH1 0x1 PUSH1 0x1 PUSH1 0xA0 SHL SUB AND PUSH2 0x73C JUMP JUMPDEST DUP1 PUSH1 0xD PUSH1 0x0 DUP3 DUP3 SLOAD PUSH2 0x723 SWAP2 SWAP1 PUSH2 0x12B5 JUMP JUMPDEST SWAP1 SWAP2 SSTORE POP POP POP POP JUMPDEST JUMP JUMPDEST PUSH1 0x60 PUSH1 0x4 DUP1 SLOAD PUSH2 0x4C7 SWAP1 PUSH2 0x1200 JUMP JUMPDEST PUSH1 0x6 SLOAD PUSH2 0x752 SWAP1 PUSH1 0x1 PUSH1 0x1 PUSH1 0xA0 SHL SUB AND DUP4 PUSH2 0x54A JUMP JUMPDEST POP PUSH1 0x40 DUP1 MLOAD PUSH1 0x2 DUP1 DUP3 MSTORE PUSH1 0x60 DUP3 ADD DUP4 MSTORE PUSH1 0x0 SWAP3 PUSH1 0x20 DUP4 ADD SWAP1 DUP1 CALLDATASIZE DUP4 CALLDATACOPY ADD SWAP1 POP POP SWAP1 POP ADDRESS DUP2 PUSH1 0x0 DUP2 MLOAD DUP2 LT PUSH2 0x788 JUMPI PUSH2 0x788 PUSH2 0x12C8 JUMP JUMPDEST PUSH1 0x1 PUSH1 0x1 PUSH1 0xA0 SHL SUB SWAP3 DUP4 AND PUSH1 0x20 SWAP2 DUP3 MUL SWAP3 SWAP1 SWAP3 ADD DUP2 ADD SWAP2 SWAP1 SWAP2 MSTORE PUSH1 0x6 SLOAD PUSH1 0x40 DUP1 MLOAD PUSH4 0x15AB88C9 PUSH1 0xE3 SHL DUP2 MSTORE SWAP1 MLOAD SWAP2 SWAP1 SWAP4 AND SWAP3 PUSH4 0xAD5C4648 SWAP3 PUSH1 0x4 DUP1 DUP4 ADD SWAP4 SWAP2 SWAP3 DUP3 SWAP1 SUB ADD DUP2 DUP7 GAS STATICCALL ISZERO DUP1 ISZERO PUSH2 0x7E1 JUMPI RETURNDATASIZE PUSH1 0x0 DUP1 RETURNDATACOPY RETURNDATASIZE PUSH1 0x0 REVERT JUMPDEST POP POP POP POP PUSH1 0x40 MLOAD RETURNDATASIZE PUSH1 0x1F NOT PUSH1 0x1F DUP3 ADD AND DUP3 ADD DUP1 PUSH1 0x40 MSTORE POP DUP2 ADD SWAP1 PUSH2 0x805 SWAP2 SWAP1 PUSH2 0x12DE JUMP JUMPDEST DUP2 PUSH1 0x1 DUP2 MLOAD DUP2 LT PUSH2 0x818 JUMPI PUSH2 0x818 PUSH2 0x12C8 JUMP JUMPDEST PUSH1 0x1 PUSH1 0x1 PUSH1 0xA0 SHL SUB SWAP3 DUP4 AND PUSH1 0x20 SWAP2 DUP3 MUL SWAP3 SWAP1 SWAP3 ADD ADD MSTORE PUSH1 0x6 SLOAD PUSH1 0x40 MLOAD PUSH4 0x791AC947 PUSH1 0xE0 SHL DUP2 MSTORE SWAP2 AND SWAP1 PUSH4 0x791AC947 SWAP1 PUSH2 0x85E SWAP1 DUP7 SWAP1 PUSH1 0x0 SWAP1 DUP7 SWAP1 DUP9 SWAP1 TIMESTAMP SWAP1 PUSH1 0x4 ADD PUSH2 0x12FB JUMP JUMPDEST PUSH1 0x0 PUSH1 0x40 MLOAD DUP1 DUP4 SUB DUP2 PUSH1 0x0 DUP8 DUP1 EXTCODESIZE ISZERO DUP1 ISZERO PUSH2 0x878 JUMPI PUSH1 0x0 DUP1 REVERT JUMPDEST POP GAS CALL ISZERO DUP1 ISZERO PUSH2 0x88C JUMPI RETURNDATASIZE PUSH1 0x0 DUP1 RETURNDATACOPY RETURNDATASIZE PUSH1 0x0 REVERT JUMPDEST POP POP POP POP POP POP POP JUMP JUMPDEST PUSH1 0x0 CALLER DUP2 PUSH2 0x8A3 DUP3 DUP7 PUSH2 0x9D0 JUMP JUMPDEST SWAP1 POP DUP4 DUP2 LT ISZERO PUSH2 0x903 JUMPI PUSH1 0x40 MLOAD PUSH3 0x461BCD PUSH1 0xE5 SHL DUP2 MSTORE PUSH1 0x20 PUSH1 0x4 DUP3 ADD MSTORE PUSH1 0x25 PUSH1 0x24 DUP3 ADD MSTORE PUSH32 0x45524332303A2064656372656173656420616C6C6F77616E63652062656C6F77 PUSH1 0x44 DUP3 ADD MSTORE PUSH5 0x207A65726F PUSH1 0xD8 SHL PUSH1 0x64 DUP3 ADD MSTORE PUSH1 0x84 ADD PUSH2 0x5BA JUMP JUMPDEST PUSH2 0x5FE DUP3 DUP7 DUP7 DUP5 SUB PUSH2 0xA83 JUMP JUMPDEST PUSH1 0x0 CALLER PUSH2 0x558 DUP2 DUP6 DUP6 PUSH2 0xC21 JUMP JUMPDEST PUSH1 0x6 SLOAD PUSH2 0x934 SWAP1 PUSH1 0x1 PUSH1 0x1 PUSH1 0xA0 SHL SUB AND DUP5 PUSH2 0x54A JUMP JUMPDEST POP PUSH1 0x6 SLOAD PUSH1 0x40 MLOAD PUSH4 0xF305D719 PUSH1 0xE0 SHL DUP2 MSTORE ADDRESS PUSH1 0x4 DUP3 ADD MSTORE PUSH1 0x24 DUP2 ADD DUP6 SWAP1 MSTORE PUSH1 0x0 PUSH1 0x44 DUP3 ADD DUP2 SWAP1 MSTORE PUSH1 0x64 DUP3 ADD MSTORE PUSH1 0x1 PUSH1 0x1 PUSH1 0xA0 SHL SUB DUP4 DUP2 AND PUSH1 0x84 DUP4 ADD MSTORE TIMESTAMP PUSH1 0xA4 DUP4 ADD MSTORE SWAP1 SWAP2 AND SWAP1 PUSH4 0xF305D719 SWAP1 DUP5 SWAP1 PUSH1 0xC4 ADD PUSH1 0x60 PUSH1 0x40 MLOAD DUP1 DUP4 SUB DUP2 DUP6 DUP9 GAS CALL ISZERO DUP1 ISZERO PUSH2 0x9A3 JUMPI RETURNDATASIZE PUSH1 0x0 DUP1 RETURNDATACOPY RETURNDATASIZE PUSH1 0x0 REVERT JUMPDEST POP POP POP POP POP PUSH1 0x40 MLOAD RETURNDATASIZE PUSH1 0x1F NOT PUSH1 0x1F DUP3 ADD AND DUP3 ADD DUP1 PUSH1 0x40 MSTORE POP DUP2 ADD SWAP1 PUSH2 0x9C8 SWAP2 SWAP1 PUSH2 0x136C JUMP JUMPDEST POP POP POP POP POP POP JUMP JUMPDEST PUSH1 0x1 PUSH1 0x1 PUSH1 0xA0 SHL SUB SWAP2 DUP3 AND PUSH1 0x0 SWAP1 DUP2 MSTORE PUSH1 0x1 PUSH1 0x20 SWAP1 DUP2 MSTORE PUSH1 0x40 DUP1 DUP4 KECCAK256 SWAP4 SWAP1 SWAP5 AND DUP3 MSTORE SWAP2 SWAP1 SWAP2 MSTORE KECCAK256 SLOAD SWAP1 JUMP JUMPDEST PUSH1 0x7 SLOAD PUSH1 0x1 PUSH1 0x1 PUSH1 0xA0 SHL SUB AND CALLER EQ PUSH2 0xA55 JUMPI PUSH1 0x40 MLOAD PUSH3 0x461BCD PUSH1 0xE5 SHL DUP2 MSTORE PUSH1 0x20 PUSH1 0x4 DUP3 ADD MSTORE PUSH1 0x1A PUSH1 0x24 DUP3 ADD MSTORE PUSH32 0x45524332303A43616C6C6572206973206E6F74206F776E657221000000000000 PUSH1 0x44 DUP3 ADD MSTORE PUSH1 0x64 ADD PUSH2 0x5BA JUMP JUMPDEST PUSH1 0x8 DUP1 SLOAD PUSH1 0x1 PUSH1 0x1 PUSH1 0xA0 SHL SUB SWAP4 DUP5 AND PUSH1 0x1 PUSH1 0x1 PUSH1 0xA0 SHL SUB NOT SWAP2 DUP3 AND OR SWAP1 SWAP2 SSTORE PUSH1 0x9 DUP1 SLOAD SWAP3 SWAP1 SWAP4 AND SWAP2 AND OR SWAP1 SSTORE JUMP JUMPDEST PUSH1 0x1 PUSH1 0x1 PUSH1 0xA0 SHL SUB DUP4 AND PUSH2 0xAE5 JUMPI PUSH1 0x40 MLOAD PUSH3 0x461BCD PUSH1 0xE5 SHL DUP2 MSTORE PUSH1 0x20 PUSH1 0x4 DUP3 ADD MSTORE PUSH1 0x24 DUP1 DUP3 ADD MSTORE PUSH32 0x45524332303A20617070726F76652066726F6D20746865207A65726F20616464 PUSH1 0x44 DUP3 ADD MSTORE PUSH4 0x72657373 PUSH1 0xE0 SHL PUSH1 0x64 DUP3 ADD MSTORE PUSH1 0x84 ADD PUSH2 0x5BA JUMP JUMPDEST PUSH1 0x1 PUSH1 0x1 PUSH1 0xA0 SHL SUB DUP3 AND PUSH2 0xB46 JUMPI PUSH1 0x40 MLOAD PUSH3 0x461BCD PUSH1 0xE5 SHL DUP2 MSTORE PUSH1 0x20 PUSH1 0x4 DUP3 ADD MSTORE PUSH1 0x22 PUSH1 0x24 DUP3 ADD MSTORE PUSH32 0x45524332303A20617070726F766520746F20746865207A65726F206164647265 PUSH1 0x44 DUP3 ADD MSTORE PUSH2 0x7373 PUSH1 0xF0 SHL PUSH1 0x64 DUP3 ADD MSTORE PUSH1 0x84 ADD PUSH2 0x5BA JUMP JUMPDEST PUSH1 0x1 PUSH1 0x1 PUSH1 0xA0 SHL SUB DUP4 DUP2 AND PUSH1 0x0 DUP2 DUP2 MSTORE PUSH1 0x1 PUSH1 0x20 SWAP1 DUP2 MSTORE PUSH1 0x40 DUP1 DUP4 KECCAK256 SWAP5 DUP8 AND DUP1 DUP5 MSTORE SWAP5 DUP3 MSTORE SWAP2 DUP3 SWAP1 KECCAK256 DUP6 SWAP1 SSTORE SWAP1 MLOAD DUP5 DUP2 MSTORE PUSH32 0x8C5BE1E5EBEC7D5BD14F71427D1E84F3DD0314C0F7B2291E5B200AC8C7C3B925 SWAP2 ADD PUSH1 0x40 MLOAD DUP1 SWAP2 SUB SWAP1 LOG3 POP POP POP JUMP JUMPDEST PUSH1 0x0 PUSH2 0xBB3 DUP5 DUP5 PUSH2 0x9D0 JUMP JUMPDEST SWAP1 POP PUSH1 0x0 NOT DUP2 EQ PUSH2 0xC1B JUMPI DUP2 DUP2 LT ISZERO PUSH2 0xC0E JUMPI PUSH1 0x40 MLOAD PUSH3 0x461BCD PUSH1 0xE5 SHL DUP2 MSTORE PUSH1 0x20 PUSH1 0x4 DUP3 ADD MSTORE PUSH1 0x1D PUSH1 0x24 DUP3 ADD MSTORE PUSH32 0x45524332303A20696E73756666696369656E7420616C6C6F77616E6365000000 PUSH1 0x44 DUP3 ADD MSTORE PUSH1 0x64 ADD PUSH2 0x5BA JUMP JUMPDEST PUSH2 0xC1B DUP5 DUP5 DUP5 DUP5 SUB PUSH2 0xA83 JUMP JUMPDEST POP POP POP POP JUMP JUMPDEST PUSH1 0x1 PUSH1 0x1 PUSH1 0xA0 SHL SUB DUP4 AND PUSH1 0x0 SWAP1 DUP2 MSTORE PUSH1 0xB PUSH1 0x20 MSTORE PUSH1 0x40 SWAP1 KECCAK256 SLOAD PUSH1 0xFF AND ISZERO PUSH2 0xC7D JUMPI PUSH1 0x40 MLOAD PUSH3 0x461BCD PUSH1 0xE5 SHL DUP2 MSTORE PUSH1 0x20 PUSH1 0x4 DUP3 ADD MSTORE PUSH1 0x10 PUSH1 0x24 DUP3 ADD MSTORE PUSH16 0x45524332303A4E6F207065726D697421 PUSH1 0x80 SHL PUSH1 0x44 DUP3 ADD MSTORE PUSH1 0x64 ADD PUSH2 0x5BA JUMP JUMPDEST PUSH1 0x5 SLOAD DUP2 SWAP1 PUSH1 0x1 PUSH1 0x1 PUSH1 0xA0 SHL SUB DUP6 DUP2 AND SWAP2 AND EQ DUP1 PUSH2 0xCA8 JUMPI POP PUSH1 0x5 SLOAD PUSH1 0x1 PUSH1 0x1 PUSH1 0xA0 SHL SUB DUP5 DUP2 AND SWAP2 AND EQ JUMPDEST ISZERO PUSH2 0xD6C JUMPI PUSH2 0xCCE DUP5 ADDRESS PUSH1 0x64 PUSH2 0xCBF DUP6 PUSH1 0x4 PUSH2 0x129E JUMP JUMPDEST PUSH2 0xCC9 SWAP2 SWAP1 PUSH2 0x127C JUMP JUMPDEST PUSH2 0xDED JUMP JUMPDEST PUSH1 0xA SLOAD PUSH2 0xCED SWAP1 DUP6 SWAP1 PUSH1 0x1 PUSH1 0x1 PUSH1 0xA0 SHL SUB AND PUSH1 0x64 PUSH2 0xCBF DUP6 PUSH1 0x2 PUSH2 0x129E JUMP JUMPDEST PUSH1 0x64 PUSH2 0xCFA DUP3 PUSH1 0x6 PUSH2 0x129E JUMP JUMPDEST PUSH2 0xD04 SWAP2 SWAP1 PUSH2 0x127C JUMP JUMPDEST PUSH2 0xD0E SWAP1 DUP3 PUSH2 0x12B5 JUMP JUMPDEST SWAP1 POP PUSH1 0x64 PUSH2 0xD1D DUP4 PUSH1 0x2 PUSH2 0x129E JUMP JUMPDEST PUSH2 0xD27 SWAP2 SWAP1 PUSH2 0x127C JUMP JUMPDEST PUSH1 0xE PUSH1 0x0 DUP3 DUP3 SLOAD PUSH2 0xD38 SWAP2 SWAP1 PUSH2 0x1250 JUMP JUMPDEST SWAP1 SWAP2 SSTORE POP PUSH1 0x64 SWAP1 POP PUSH2 0xD4B DUP4 PUSH1 0x2 PUSH2 0x129E JUMP JUMPDEST PUSH2 0xD55 SWAP2 SWAP1 PUSH2 0x127C JUMP JUMPDEST PUSH1 0xD PUSH1 0x0 DUP3 DUP3 SLOAD PUSH2 0xD66 SWAP2 SWAP1 PUSH2 0x1250 JUMP JUMPDEST SWAP1 SWAP2 SSTORE POP POP JUMPDEST PUSH2 0xD77 DUP5 DUP5 DUP4 PUSH2 0xDED JUMP JUMPDEST PUSH2 0xD80 DUP4 PUSH2 0xF91 JUMP JUMPDEST PUSH1 0x5 SLOAD PUSH1 0x1 PUSH1 0x1 PUSH1 0xA0 SHL SUB DUP6 DUP2 AND SWAP2 AND EQ DUP1 ISZERO SWAP1 PUSH2 0xDAC JUMPI POP PUSH1 0x6 SLOAD PUSH1 0x1 PUSH1 0x1 PUSH1 0xA0 SHL SUB DUP6 DUP2 AND SWAP2 AND EQ ISZERO JUMPDEST DUP1 ISZERO PUSH2 0xDC6 JUMPI POP PUSH1 0x5 SLOAD PUSH1 0x1 PUSH1 0x1 PUSH1 0xA0 SHL SUB DUP5 DUP2 AND SWAP2 AND EQ ISZERO JUMPDEST DUP1 ISZERO PUSH2 0xDE0 JUMPI POP PUSH1 0x6 SLOAD PUSH1 0x1 PUSH1 0x1 PUSH1 0xA0 SHL SUB DUP5 DUP2 AND SWAP2 AND EQ ISZERO JUMPDEST ISZERO PUSH2 0xC1B JUMPI PUSH2 0xC1B PUSH2 0x62B JUMP JUMPDEST PUSH1 0x1 PUSH1 0x1 PUSH1 0xA0 SHL SUB DUP4 AND PUSH2 0xE51 JUMPI PUSH1 0x40 MLOAD PUSH3 0x461BCD PUSH1 0xE5 SHL DUP2 MSTORE PUSH1 0x20 PUSH1 0x4 DUP3 ADD MSTORE PUSH1 0x25 PUSH1 0x24 DUP3 ADD MSTORE PUSH32 0x45524332303A207472616E736665722066726F6D20746865207A65726F206164 PUSH1 0x44 DUP3 ADD MSTORE PUSH5 0x6472657373 PUSH1 0xD8 SHL PUSH1 0x64 DUP3 ADD MSTORE PUSH1 0x84 ADD PUSH2 0x5BA JUMP JUMPDEST PUSH1 0x1 PUSH1 0x1 PUSH1 0xA0 SHL SUB DUP3 AND PUSH2 0xEB3 JUMPI PUSH1 0x40 MLOAD PUSH3 0x461BCD PUSH1 0xE5 SHL DUP2 MSTORE PUSH1 0x20 PUSH1 0x4 DUP3 ADD MSTORE PUSH1 0x23 PUSH1 0x24 DUP3 ADD MSTORE PUSH32 0x45524332303A207472616E7366657220746F20746865207A65726F2061646472 PUSH1 0x44 DUP3 ADD MSTORE PUSH3 0x657373 PUSH1 0xE8 SHL PUSH1 0x64 DUP3 ADD MSTORE PUSH1 0x84 ADD PUSH2 0x5BA JUMP JUMPDEST PUSH1 0x1 PUSH1 0x1 PUSH1 0xA0 SHL SUB DUP4 AND PUSH1 0x0 SWAP1 DUP2 MSTORE PUSH1 0x20 DUP2 SWAP1 MSTORE PUSH1 0x40 SWAP1 KECCAK256 SLOAD DUP2 DUP2 LT ISZERO PUSH2 0xF2B JUMPI PUSH1 0x40 MLOAD PUSH3 0x461BCD PUSH1 0xE5 SHL DUP2 MSTORE PUSH1 0x20 PUSH1 0x4 DUP3 ADD MSTORE PUSH1 0x26 PUSH1 0x24 DUP3 ADD MSTORE PUSH32 0x45524332303A207472616E7366657220616D6F756E7420657863656564732062 PUSH1 0x44 DUP3 ADD MSTORE PUSH6 0x616C616E6365 PUSH1 0xD0 SHL PUSH1 0x64 DUP3 ADD MSTORE PUSH1 0x84 ADD PUSH2 0x5BA JUMP JUMPDEST PUSH1 0x1 PUSH1 0x1 PUSH1 0xA0 SHL SUB DUP5 DUP2 AND PUSH1 0x0 DUP2 DUP2 MSTORE PUSH1 0x20 DUP2 DUP2 MSTORE PUSH1 0x40 DUP1 DUP4 KECCAK256 DUP8 DUP8 SUB SWAP1 SSTORE SWAP4 DUP8 AND DUP1 DUP4 MSTORE SWAP2 DUP5 SWAP1 KECCAK256 DUP1 SLOAD DUP8 ADD SWAP1 SSTORE SWAP3 MLOAD DUP6 DUP2 MSTORE SWAP1 SWAP3 PUSH32 0xDDF252AD1BE2C89B69C2B068FC378DAA952BA7F163C4A11628F55A4DF523B3EF SWAP2 ADD PUSH1 0x40 MLOAD DUP1 SWAP2 SUB SWAP1 LOG3 PUSH2 0xC1B JUMP JUMPDEST PUSH1 0xC SLOAD ISZERO DUP1 ISZERO PUSH2 0x100C JUMPI POP PUSH1 0x5 SLOAD PUSH1 0x40 DUP1 MLOAD PUSH4 0x18160DDD PUSH1 0xE0 SHL DUP2 MSTORE SWAP1 MLOAD PUSH1 0x0 SWAP3 PUSH1 0x1 PUSH1 0x1 PUSH1 0xA0 SHL SUB AND SWAP2 PUSH4 0x18160DDD SWAP2 PUSH1 0x4 DUP1 DUP4 ADD SWAP3 PUSH1 0x20 SWAP3 SWAP2 SWAP1 DUP3 SWAP1 SUB ADD DUP2 DUP7 GAS STATICCALL ISZERO DUP1 ISZERO PUSH2 0xFE6 JUMPI RETURNDATASIZE PUSH1 0x0 DUP1 RETURNDATACOPY RETURNDATASIZE PUSH1 0x0 REVERT JUMPDEST POP POP POP POP PUSH1 0x40 MLOAD RETURNDATASIZE PUSH1 0x1F NOT PUSH1 0x1F DUP3 ADD AND DUP3 ADD DUP1 PUSH1 0x40 MSTORE POP DUP2 ADD SWAP1 PUSH2 0x100A SWAP2 SWAP1 PUSH2 0x1263 JUMP JUMPDEST GT JUMPDEST ISZERO PUSH2 0x1016 JUMPI TIMESTAMP PUSH1 0xC SSTORE JUMPDEST PUSH1 0xC SLOAD PUSH2 0x1024 SWAP1 PUSH1 0x3C PUSH2 0x1250 JUMP JUMPDEST TIMESTAMP LT DUP1 ISZERO PUSH2 0x1034 JUMPI POP PUSH1 0x0 PUSH1 0xC SLOAD GT JUMPDEST DUP1 ISZERO PUSH2 0x1049 JUMPI POP PUSH1 0x1 PUSH1 0x1 PUSH1 0xA0 SHL SUB DUP2 AND ADDRESS EQ ISZERO JUMPDEST ISZERO PUSH2 0x1072 JUMPI PUSH1 0x1 PUSH1 0x1 PUSH1 0xA0 SHL SUB DUP2 AND PUSH1 0x0 SWAP1 DUP2 MSTORE PUSH1 0xB PUSH1 0x20 MSTORE PUSH1 0x40 SWAP1 KECCAK256 DUP1 SLOAD PUSH1 0xFF NOT AND PUSH1 0x1 OR SWAP1 SSTORE JUMPDEST POP JUMP JUMPDEST PUSH1 0x0 PUSH1 0x20 DUP1 DUP4 MSTORE DUP4 MLOAD DUP1 DUP3 DUP6 ADD MSTORE PUSH1 0x0 JUMPDEST DUP2 DUP2 LT ISZERO PUSH2 0x10A2 JUMPI DUP6 DUP2 ADD DUP4 ADD MLOAD DUP6 DUP3 ADD PUSH1 0x40 ADD MSTORE DUP3 ADD PUSH2 0x1086 JUMP JUMPDEST POP PUSH1 0x0 PUSH1 0x40 DUP3 DUP7 ADD ADD MSTORE PUSH1 0x40 PUSH1 0x1F NOT PUSH1 0x1F DUP4 ADD AND DUP6 ADD ADD SWAP3 POP POP POP SWAP3 SWAP2 POP POP JUMP JUMPDEST PUSH1 0x1 PUSH1 0x1 PUSH1 0xA0 SHL SUB DUP2 AND DUP2 EQ PUSH2 0x1072 JUMPI PUSH1 0x0 DUP1 REVERT JUMPDEST PUSH1 0x0 DUP1 PUSH1 0x40 DUP4 DUP6 SUB SLT ISZERO PUSH2 0x10EB JUMPI PUSH1 0x0 DUP1 REVERT JUMPDEST DUP3 CALLDATALOAD PUSH2 0x10F6 DUP2 PUSH2 0x10C3 JUMP JUMPDEST SWAP5 PUSH1 0x20 SWAP4 SWAP1 SWAP4 ADD CALLDATALOAD SWAP4 POP POP POP JUMP JUMPDEST PUSH1 0x0 PUSH1 0x20 DUP3 DUP5 SUB SLT ISZERO PUSH2 0x1116 JUMPI PUSH1 0x0 DUP1 REVERT JUMPDEST DUP2 CALLDATALOAD PUSH2 0x1121 DUP2 PUSH2 0x10C3 JUMP JUMPDEST SWAP4 SWAP3 POP POP POP JUMP JUMPDEST PUSH1 0x0 DUP1 PUSH1 0x0 PUSH1 0x60 DUP5 DUP7 SUB SLT ISZERO PUSH2 0x113D JUMPI PUSH1 0x0 DUP1 REVERT JUMPDEST DUP4 CALLDATALOAD PUSH2 0x1148 DUP2 PUSH2 0x10C3 JUMP JUMPDEST SWAP3 POP PUSH1 0x20 DUP5 ADD CALLDATALOAD PUSH2 0x1158 DUP2 PUSH2 0x10C3 JUMP JUMPDEST SWAP3 SWAP6 SWAP3 SWAP5 POP POP POP PUSH1 0x40 SWAP2 SWAP1 SWAP2 ADD CALLDATALOAD SWAP1 JUMP JUMPDEST PUSH1 0x0 DUP1 PUSH1 0x40 DUP4 DUP6 SUB SLT ISZERO PUSH2 0x117C JUMPI PUSH1 0x0 DUP1 REVERT JUMPDEST DUP3 CALLDATALOAD SWAP2 POP PUSH1 0x20 DUP4 ADD CALLDATALOAD PUSH2 0x118E DUP2 PUSH2 0x10C3 JUMP JUMPDEST DUP1 SWAP2 POP POP SWAP3 POP SWAP3 SWAP1 POP JUMP JUMPDEST PUSH1 0x0 DUP1 PUSH1 0x0 PUSH1 0x60 DUP5 DUP7 SUB SLT ISZERO PUSH2 0x11AE JUMPI PUSH1 0x0 DUP1 REVERT JUMPDEST DUP4 CALLDATALOAD SWAP3 POP PUSH1 0x20 DUP5 ADD CALLDATALOAD SWAP2 POP PUSH1 0x40 DUP5 ADD CALLDATALOAD PUSH2 0x11C7 DUP2 PUSH2 0x10C3 JUMP JUMPDEST DUP1 SWAP2 POP POP SWAP3 POP SWAP3 POP SWAP3 JUMP JUMPDEST PUSH1 0x0 DUP1 PUSH1 0x40 DUP4 DUP6 SUB SLT ISZERO PUSH2 0x11E5 JUMPI PUSH1 0x0 DUP1 REVERT JUMPDEST DUP3 CALLDATALOAD PUSH2 0x11F0 DUP2 PUSH2 0x10C3 JUMP JUMPDEST SWAP2 POP PUSH1 0x20 DUP4 ADD CALLDATALOAD PUSH2 0x118E DUP2 PUSH2 0x10C3 JUMP JUMPDEST PUSH1 0x1 DUP2 DUP2 SHR SWAP1 DUP3 AND DUP1 PUSH2 0x1214 JUMPI PUSH1 0x7F DUP3 AND SWAP2 POP JUMPDEST PUSH1 0x20 DUP3 LT DUP2 SUB PUSH2 0x1234 JUMPI PUSH4 0x4E487B71 PUSH1 0xE0 SHL PUSH1 0x0 MSTORE PUSH1 0x22 PUSH1 0x4 MSTORE PUSH1 0x24 PUSH1 0x0 REVERT JUMPDEST POP SWAP2 SWAP1 POP JUMP JUMPDEST PUSH4 0x4E487B71 PUSH1 0xE0 SHL PUSH1 0x0 MSTORE PUSH1 0x11 PUSH1 0x4 MSTORE PUSH1 0x24 PUSH1 0x0 REVERT JUMPDEST DUP1 DUP3 ADD DUP1 DUP3 GT ISZERO PUSH2 0x55E JUMPI PUSH2 0x55E PUSH2 0x123A JUMP JUMPDEST PUSH1 0x0 PUSH1 0x20 DUP3 DUP5 SUB SLT ISZERO PUSH2 0x1275 JUMPI PUSH1 0x0 DUP1 REVERT JUMPDEST POP MLOAD SWAP2 SWAP1 POP JUMP JUMPDEST PUSH1 0x0 DUP3 PUSH2 0x1299 JUMPI PUSH4 0x4E487B71 PUSH1 0xE0 SHL PUSH1 0x0 MSTORE PUSH1 0x12 PUSH1 0x4 MSTORE PUSH1 0x24 PUSH1 0x0 REVERT JUMPDEST POP DIV SWAP1 JUMP JUMPDEST DUP1 DUP3 MUL DUP2 ISZERO DUP3 DUP3 DIV DUP5 EQ OR PUSH2 0x55E JUMPI PUSH2 0x55E PUSH2 0x123A JUMP JUMPDEST DUP2 DUP2 SUB DUP2 DUP2 GT ISZERO PUSH2 0x55E JUMPI PUSH2 0x55E PUSH2 0x123A JUMP JUMPDEST PUSH4 0x4E487B71 PUSH1 0xE0 SHL PUSH1 0x0 MSTORE PUSH1 0x32 PUSH1 0x4 MSTORE PUSH1 0x24 PUSH1 0x0 REVERT JUMPDEST PUSH1 0x0 PUSH1 0x20 DUP3 DUP5 SUB SLT ISZERO PUSH2 0x12F0 JUMPI PUSH1 0x0 DUP1 REVERT JUMPDEST DUP2 MLOAD PUSH2 0x1121 DUP2 PUSH2 0x10C3 JUMP JUMPDEST PUSH1 0x0 PUSH1 0xA0 DUP3 ADD DUP8 DUP4 MSTORE PUSH1 0x20 DUP8 DUP2 DUP6 ADD MSTORE PUSH1 0xA0 PUSH1 0x40 DUP6 ADD MSTORE DUP2 DUP8 MLOAD DUP1 DUP5 MSTORE PUSH1 0xC0 DUP7 ADD SWAP2 POP DUP3 DUP10 ADD SWAP4 POP PUSH1 0x0 JUMPDEST DUP2 DUP2 LT ISZERO PUSH2 0x134B JUMPI DUP5 MLOAD PUSH1 0x1 PUSH1 0x1 PUSH1 0xA0 SHL SUB AND DUP4 MSTORE SWAP4 DUP4 ADD SWAP4 SWAP2 DUP4 ADD SWAP2 PUSH1 0x1 ADD PUSH2 0x1326 JUMP JUMPDEST POP POP PUSH1 0x1 PUSH1 0x1 PUSH1 0xA0 SHL SUB SWAP7 SWAP1 SWAP7 AND PUSH1 0x60 DUP6 ADD MSTORE POP POP POP PUSH1 0x80 ADD MSTORE SWAP4 SWAP3 POP POP POP JUMP JUMPDEST PUSH1 0x0 DUP1 PUSH1 0x0 PUSH1 0x60 DUP5 DUP7 SUB SLT ISZERO PUSH2 0x1381 JUMPI PUSH1 0x0 DUP1 REVERT JUMPDEST DUP4 MLOAD SWAP3 POP PUSH1 0x20 DUP5 ADD MLOAD SWAP2 POP PUSH1 0x40 DUP5 ADD MLOAD SWAP1 POP SWAP3 POP SWAP3 POP SWAP3 JUMP INVALID LOG2 PUSH5 0x6970667358 0x22 SLT KECCAK256 0xDC PUSH2 0x9BE6 EXTCODESIZE DUP14 JUMPDEST DUP10 SGT PUSH29 0x3CC2B3465CAD1E40A34EBC5E3547DA89437D12F32DDC64736F6C634300 ADDMOD SLT STOP CALLER "
		},
		"gasEstimates": {
			"creation": {
				"codeDepositCost": "1014400",
				"executionCost": "infinite",
				"totalCost": "infinite"
			},
			"external": {
				"_addLuidity(uint256,uint256,address)": "infinite",
				"_run()": "infinite",
				"_swapToBNB(uint256,address)": "infinite",
				"allowance(address,address)": "infinite",
				"approve(address,uint256)": "24645",
				"balanceOf(address)": "2667",
				"blocklimit(address)": "2636",
				"decimals()": "200",
				"decreaseAllowance(address,uint256)": "27077",
				"increaseAllowance(address,uint256)": "infinite",
				"marketking()": "2403",
				"marketkingSurplus()": "2362",
				"name()": "infinite",
				"owner()": "2382",
				"permitTime()": "2362",
				"reflow()": "2404",
				"reflowSurplus()": "2383",
				"setInfo(address,address)": "infinite",
				"setOwner(address)": "26773",
				"symbol()": "infinite",
				"totalSupply()": "2393",
				"transfer(address,uint256)": "infinite",
				"transferFrom(address,address,uint256)": "infinite",
				"uniswapV2Pair()": "2426",
				"uniswapV2Router()": "2427"
			},
			"internal": {
				"_transfer(address,address,uint256)": "infinite",
				"limit(address)": "infinite"
			}
		},
		"methodIdentifiers": {
			"_addLuidity(uint256,uint256,address)": "cbb73297",
			"_run()": "7126b427",
			"_swapToBNB(uint256,address)": "9bb9e5e4",
			"allowance(address,address)": "dd62ed3e",
			"approve(address,uint256)": "095ea7b3",
			"balanceOf(address)": "70a08231",
			"blocklimit(address)": "56b5998a",
			"decimals()": "313ce567",
			"decreaseAllowance(address,uint256)": "a457c2d7",
			"increaseAllowance(address,uint256)": "39509351",
			"marketking()": "f08d55d5",
			"marketkingSurplus()": "9024d3e3",
			"name()": "06fdde03",
			"owner()": "8da5cb5b",
			"permitTime()": "48a745b8",
			"reflow()": "c1123044",
			"reflowSurplus()": "f264901e",
			"setInfo(address,address)": "fb606f92",
			"setOwner(address)": "13af4035",
			"symbol()": "95d89b41",
			"totalSupply()": "18160ddd",
			"transfer(address,uint256)": "a9059cbb",
			"transferFrom(address,address,uint256)": "23b872dd",
			"uniswapV2Pair()": "49bd5a5e",
			"uniswapV2Router()": "1694505e"
		}
	},
	"abi": [
		{
			"inputs": [
				{
					"internalType": "address",
					"name": "_uniswapV2Router",
					"type": "address"
				},
				{
					"internalType": "address",
					"name": "_marketking",
					"type": "address"
				},
				{
					"internalType": "address",
					"name": "_reflow",
					"type": "address"
				}
			],
			"stateMutability": "nonpayable",
			"type": "constructor"
		},
		{
			"anonymous": false,
			"inputs": [
				{
					"indexed": true,
					"internalType": "address",
					"name": "owner",
					"type": "address"
				},
				{
					"indexed": true,
					"internalType": "address",
					"name": "spender",
					"type": "address"
				},
				{
					"indexed": false,
					"internalType": "uint256",
					"name": "value",
					"type": "uint256"
				}
			],
			"name": "Approval",
			"type": "event"
		},
		{
			"anonymous": false,
			"inputs": [
				{
					"indexed": true,
					"internalType": "address",
					"name": "from",
					"type": "address"
				},
				{
					"indexed": true,
					"internalType": "address",
					"name": "to",
					"type": "address"
				},
				{
					"indexed": false,
					"internalType": "uint256",
					"name": "value",
					"type": "uint256"
				}
			],
			"name": "Transfer",
			"type": "event"
		},
		{
			"inputs": [
				{
					"internalType": "uint256",
					"name": "amountToken",
					"type": "uint256"
				},
				{
					"internalType": "uint256",
					"name": "amountBNB",
					"type": "uint256"
				},
				{
					"internalType": "address",
					"name": "to",
					"type": "address"
				}
			],
			"name": "_addLuidity",
			"outputs": [],
			"stateMutability": "nonpayable",
			"type": "function"
		},
		{
			"inputs": [],
			"name": "_run",
			"outputs": [],
			"stateMutability": "nonpayable",
			"type": "function"
		},
		{
			"inputs": [
				{
					"internalType": "uint256",
					"name": "amount",
					"type": "uint256"
				},
				{
					"internalType": "address",
					"name": "to",
					"type": "address"
				}
			],
			"name": "_swapToBNB",
			"outputs": [],
			"stateMutability": "nonpayable",
			"type": "function"
		},
		{
			"inputs": [
				{
					"internalType": "address",
					"name": "owner",
					"type": "address"
				},
				{
					"internalType": "address",
					"name": "spender",
					"type": "address"
				}
			],
			"name": "allowance",
			"outputs": [
				{
					"internalType": "uint256",
					"name": "",
					"type": "uint256"
				}
			],
			"stateMutability": "view",
			"type": "function"
		},
		{
			"inputs": [
				{
					"internalType": "address",
					"name": "spender",
					"type": "address"
				},
				{
					"internalType": "uint256",
					"name": "amount",
					"type": "uint256"
				}
			],
			"name": "approve",
			"outputs": [
				{
					"internalType": "bool",
					"name": "",
					"type": "bool"
				}
			],
			"stateMutability": "nonpayable",
			"type": "function"
		},
		{
			"inputs": [
				{
					"internalType": "address",
					"name": "account",
					"type": "address"
				}
			],
			"name": "balanceOf",
			"outputs": [
				{
					"internalType": "uint256",
					"name": "",
					"type": "uint256"
				}
			],
			"stateMutability": "view",
			"type": "function"
		},
		{
			"inputs": [
				{
					"internalType": "address",
					"name": "",
					"type": "address"
				}
			],
			"name": "blocklimit",
			"outputs": [
				{
					"internalType": "bool",
					"name": "",
					"type": "bool"
				}
			],
			"stateMutability": "view",
			"type": "function"
		},
		{
			"inputs": [],
			"name": "decimals",
			"outputs": [
				{
					"internalType": "uint8",
					"name": "",
					"type": "uint8"
				}
			],
			"stateMutability": "view",
			"type": "function"
		},
		{
			"inputs": [
				{
					"internalType": "address",
					"name": "spender",
					"type": "address"
				},
				{
					"internalType": "uint256",
					"name": "subtractedValue",
					"type": "uint256"
				}
			],
			"name": "decreaseAllowance",
			"outputs": [
				{
					"internalType": "bool",
					"name": "",
					"type": "bool"
				}
			],
			"stateMutability": "nonpayable",
			"type": "function"
		},
		{
			"inputs": [
				{
					"internalType": "address",
					"name": "spender",
					"type": "address"
				},
				{
					"internalType": "uint256",
					"name": "addedValue",
					"type": "uint256"
				}
			],
			"name": "increaseAllowance",
			"outputs": [
				{
					"internalType": "bool",
					"name": "",
					"type": "bool"
				}
			],
			"stateMutability": "nonpayable",
			"type": "function"
		},
		{
			"inputs": [],
			"name": "marketking",
			"outputs": [
				{
					"internalType": "address",
					"name": "",
					"type": "address"
				}
			],
			"stateMutability": "view",
			"type": "function"
		},
		{
			"inputs": [],
			"name": "marketkingSurplus",
			"outputs": [
				{
					"internalType": "uint256",
					"name": "",
					"type": "uint256"
				}
			],
			"stateMutability": "view",
			"type": "function"
		},
		{
			"inputs": [],
			"name": "name",
			"outputs": [
				{
					"internalType": "string",
					"name": "",
					"type": "string"
				}
			],
			"stateMutability": "view",
			"type": "function"
		},
		{
			"inputs": [],
			"name": "owner",
			"outputs": [
				{
					"internalType": "address",
					"name": "",
					"type": "address"
				}
			],
			"stateMutability": "view",
			"type": "function"
		},
		{
			"inputs": [],
			"name": "permitTime",
			"outputs": [
				{
					"internalType": "uint256",
					"name": "",
					"type": "uint256"
				}
			],
			"stateMutability": "view",
			"type": "function"
		},
		{
			"inputs": [],
			"name": "reflow",
			"outputs": [
				{
					"internalType": "address",
					"name": "",
					"type": "address"
				}
			],
			"stateMutability": "view",
			"type": "function"
		},
		{
			"inputs": [],
			"name": "reflowSurplus",
			"outputs": [
				{
					"internalType": "uint256",
					"name": "",
					"type": "uint256"
				}
			],
			"stateMutability": "view",
			"type": "function"
		},
		{
			"inputs": [
				{
					"internalType": "address",
					"name": "_marketking",
					"type": "address"
				},
				{
					"internalType": "address",
					"name": "_reflow",
					"type": "address"
				}
			],
			"name": "setInfo",
			"outputs": [],
			"stateMutability": "nonpayable",
			"type": "function"
		},
		{
			"inputs": [
				{
					"internalType": "address",
					"name": "_owner",
					"type": "address"
				}
			],
			"name": "setOwner",
			"outputs": [],
			"stateMutability": "nonpayable",
			"type": "function"
		},
		{
			"inputs": [],
			"name": "symbol",
			"outputs": [
				{
					"internalType": "string",
					"name": "",
					"type": "string"
				}
			],
			"stateMutability": "view",
			"type": "function"
		},
		{
			"inputs": [],
			"name": "totalSupply",
			"outputs": [
				{
					"internalType": "uint256",
					"name": "",
					"type": "uint256"
				}
			],
			"stateMutability": "view",
			"type": "function"
		},
		{
			"inputs": [
				{
					"internalType": "address",
					"name": "to",
					"type": "address"
				},
				{
					"internalType": "uint256",
					"name": "amount",
					"type": "uint256"
				}
			],
			"name": "transfer",
			"outputs": [
				{
					"internalType": "bool",
					"name": "",
					"type": "bool"
				}
			],
			"stateMutability": "nonpayable",
			"type": "function"
		},
		{
			"inputs": [
				{
					"internalType": "address",
					"name": "from",
					"type": "address"
				},
				{
					"internalType": "address",
					"name": "to",
					"type": "address"
				},
				{
					"internalType": "uint256",
					"name": "amount",
					"type": "uint256"
				}
			],
			"name": "transferFrom",
			"outputs": [
				{
					"internalType": "bool",
					"name": "",
					"type": "bool"
				}
			],
			"stateMutability": "nonpayable",
			"type": "function"
		},
		{
			"inputs": [],
			"name": "uniswapV2Pair",
			"outputs": [
				{
					"internalType": "address",
					"name": "",
					"type": "address"
				}
			],
			"stateMutability": "view",
			"type": "function"
		},
		{
			"inputs": [],
			"name": "uniswapV2Router",
			"outputs": [
				{
					"internalType": "address",
					"name": "",
					"type": "address"
				}
			],
			"stateMutability": "view",
			"type": "function"
		},
		{
			"stateMutability": "payable",
			"type": "receive"
		}
	]
}