{"abi":[{"type":"function","name":"MAX","inputs":[],"outputs":[{"name":"","type":"uint256","internalType":"uint256"}],"stateMutability":"view"},{"type":"function","name":"_allowances","inputs":[{"name":"","type":"address","internalType":"address"},{"name":"","type":"address","internalType":"address"}],"outputs":[{"name":"","type":"uint256","internalType":"uint256"}],"stateMutability":"view"},{"type":"function","name":"_balances","inputs":[{"name":"","type":"address","internalType":"address"}],"outputs":[{"name":"","type":"uint256","internalType":"uint256"}],"stateMutability":"view"},{"type":"function","name":"_buyBurnFee","inputs":[],"outputs":[{"name":"","type":"uint256","internalType":"uint256"}],"stateMutability":"view"},{"type":"function","name":"_buyFundFee","inputs":[],"outputs":[{"name":"","type":"uint256","internalType":"uint256"}],"stateMutability":"view"},{"type":"function","name":"_buyLPFee","inputs":[],"outputs":[{"name":"","type":"uint256","internalType":"uint256"}],"stateMutability":"view"},{"type":"function","name":"_feeWhiteList","inputs":[{"name":"","type":"address","internalType":"address"}],"outputs":[{"name":"","type":"bool","internalType":"bool"}],"stateMutability":"view"},{"type":"function","name":"_mainPair","inputs":[],"outputs":[{"name":"","type":"address","internalType":"address"}],"stateMutability":"view"},{"type":"function","name":"_rewardList","inputs":[{"name":"","type":"address","internalType":"address"}],"outputs":[{"name":"","type":"bool","internalType":"bool"}],"stateMutability":"view"},{"type":"function","name":"_sellBurnFee","inputs":[],"outputs":[{"name":"","type":"uint256","internalType":"uint256"}],"stateMutability":"view"},{"type":"function","name":"_sellFundFee","inputs":[],"outputs":[{"name":"","type":"uint256","internalType":"uint256"}],"stateMutability":"view"},{"type":"function","name":"_sellLPFee","inputs":[],"outputs":[{"name":"","type":"uint256","internalType":"uint256"}],"stateMutability":"view"},{"type":"function","name":"_swapPairList","inputs":[{"name":"","type":"address","internalType":"address"}],"outputs":[{"name":"","type":"bool","internalType":"bool"}],"stateMutability":"view"},{"type":"function","name":"_swapRouter","inputs":[],"outputs":[{"name":"","type":"address","internalType":"contract IPancakeRouter02"}],"stateMutability":"view"},{"type":"function","name":"allowance","inputs":[{"name":"owner","type":"address","internalType":"address"},{"name":"spender","type":"address","internalType":"address"}],"outputs":[{"name":"","type":"uint256","internalType":"uint256"}],"stateMutability":"view"},{"type":"function","name":"antiSYNC","inputs":[],"outputs":[{"name":"","type":"bool","internalType":"bool"}],"stateMutability":"view"},{"type":"function","name":"approve","inputs":[{"name":"spender","type":"address","internalType":"address"},{"name":"amount","type":"uint256","internalType":"uint256"}],"outputs":[{"name":"","type":"bool","internalType":"bool"}],"stateMutability":"nonpayable"},{"type":"function","name":"balanceOf","inputs":[{"name":"account","type":"address","internalType":"address"}],"outputs":[{"name":"","type":"uint256","internalType":"uint256"}],"stateMutability":"view"},{"type":"function","name":"changeSwapLimit","inputs":[{"name":"_maxBuyAmount","type":"uint256","internalType":"uint256"}],"outputs":[],"stateMutability":"nonpayable"},{"type":"function","name":"changeWalletLimit","inputs":[{"name":"_amount","type":"uint256","internalType":"uint256"}],"outputs":[],"stateMutability":"nonpayable"},{"type":"function","name":"completeCustoms","inputs":[{"name":"customs","type":"uint256[]","internalType":"uint256[]"}],"outputs":[],"stateMutability":"nonpayable"},{"type":"function","name":"currency","inputs":[],"outputs":[{"name":"","type":"address","internalType":"address"}],"stateMutability":"view"},{"type":"function","name":"currencyIsEth","inputs":[],"outputs":[{"name":"","type":"bool","internalType":"bool"}],"stateMutability":"view"},{"type":"function","name":"decimals","inputs":[],"outputs":[{"name":"","type":"uint256","internalType":"uint256"}],"stateMutability":"view"},{"type":"function","name":"disableChangeTax","inputs":[],"outputs":[],"stateMutability":"nonpayable"},{"type":"function","name":"disableSwapLimit","inputs":[],"outputs":[],"stateMutability":"nonpayable"},{"type":"function","name":"disableWalletLimit","inputs":[],"outputs":[],"stateMutability":"nonpayable"},{"type":"function","name":"enableChangeTax","inputs":[],"outputs":[{"name":"","type":"bool","internalType":"bool"}],"stateMutability":"view"},{"type":"function","name":"enableKillBlock","inputs":[],"outputs":[{"name":"","type":"bool","internalType":"bool"}],"stateMutability":"view"},{"type":"function","name":"enableOffTrade","inputs":[],"outputs":[{"name":"","type":"bool","internalType":"bool"}],"stateMutability":"view"},{"type":"function","name":"enableRewardList","inputs":[],"outputs":[{"name":"","type":"bool","internalType":"bool"}],"stateMutability":"view"},{"type":"function","name":"enableSwapLimit","inputs":[],"outputs":[{"name":"","type":"bool","internalType":"bool"}],"stateMutability":"view"},{"type":"function","name":"enableWalletLimit","inputs":[],"outputs":[{"name":"","type":"bool","internalType":"bool"}],"stateMutability":"view"},{"type":"function","name":"fundAddress","inputs":[],"outputs":[{"name":"","type":"address","internalType":"address payable"}],"stateMutability":"view"},{"type":"function","name":"kb","inputs":[],"outputs":[{"name":"","type":"uint256","internalType":"uint256"}],"stateMutability":"view"},{"type":"function","name":"launch","inputs":[],"outputs":[],"stateMutability":"nonpayable"},{"type":"function","name":"maxBuyAmount","inputs":[],"outputs":[{"name":"","type":"uint256","internalType":"uint256"}],"stateMutability":"view"},{"type":"function","name":"maxWalletAmount","inputs":[],"outputs":[{"name":"","type":"uint256","internalType":"uint256"}],"stateMutability":"view"},{"type":"function","name":"multi_bclist","inputs":[{"name":"addresses","type":"address[]","internalType":"address[]"},{"name":"value","type":"bool","internalType":"bool"}],"outputs":[],"stateMutability":"nonpayable"},{"type":"function","name":"name","inputs":[],"outputs":[{"name":"","type":"string","internalType":"string"}],"stateMutability":"view"},{"type":"function","name":"owner","inputs":[],"outputs":[{"name":"","type":"address","internalType":"address"}],"stateMutability":"view"},{"type":"function","name":"renounceOwnership","inputs":[],"outputs":[],"stateMutability":"nonpayable"},{"type":"function","name":"setAntiSYNCEnable","inputs":[{"name":"s","type":"bool","internalType":"bool"}],"outputs":[],"stateMutability":"nonpayable"},{"type":"function","name":"setFeeWhiteList","inputs":[{"name":"addr","type":"address[]","internalType":"address[]"},{"name":"enable","type":"bool","internalType":"bool"}],"outputs":[],"stateMutability":"nonpayable"},{"type":"function","name":"startTradeBlock","inputs":[],"outputs":[{"name":"","type":"uint256","internalType":"uint256"}],"stateMutability":"view"},{"type":"function","name":"symbol","inputs":[],"outputs":[{"name":"","type":"string","internalType":"string"}],"stateMutability":"view"},{"type":"function","name":"totalSupply","inputs":[],"outputs":[{"name":"","type":"uint256","internalType":"uint256"}],"stateMutability":"view"},{"type":"function","name":"transfer","inputs":[{"name":"recipient","type":"address","internalType":"address"},{"name":"amount","type":"uint256","internalType":"uint256"}],"outputs":[{"name":"","type":"bool","internalType":"bool"}],"stateMutability":"nonpayable"},{"type":"function","name":"transferFrom","inputs":[{"name":"sender","type":"address","internalType":"address"},{"name":"recipient","type":"address","internalType":"address"},{"name":"amount","type":"uint256","internalType":"uint256"}],"outputs":[{"name":"","type":"bool","internalType":"bool"}],"stateMutability":"nonpayable"},{"type":"function","name":"transferOwnership","inputs":[{"name":"newOwner","type":"address","internalType":"address"}],"outputs":[],"stateMutability":"nonpayable"},{"type":"event","name":"Approval","inputs":[{"name":"owner","type":"address","indexed":true,"internalType":"address"},{"name":"spender","type":"address","indexed":true,"internalType":"address"},{"name":"value","type":"uint256","indexed":false,"internalType":"uint256"}],"anonymous":false},{"type":"event","name":"OwnershipTransferred","inputs":[{"name":"previousOwner","type":"address","indexed":true,"internalType":"address"},{"name":"newOwner","type":"address","indexed":true,"internalType":"address"}],"anonymous":false},{"type":"event","name":"Transfer","inputs":[{"name":"from","type":"address","indexed":true,"internalType":"address"},{"name":"to","type":"address","indexed":true,"internalType":"address"},{"name":"value","type":"uint256","indexed":false,"internalType":"uint256"}],"anonymous":false}],"bytecode":{"object":"0x608060405260006003819055600481905560058190556101f460065560078190556008819055600955601180546001600160a01b03191661dead17905534801561004857600080fd5b50600080546001600160a01b031916339081178255604051909182917f8be0079c531659141344cd1fd0a4f28419497f9722a3daafe3b4186f6b6457e0908290a350611223806100996000396000f3fe608060405234801561001057600080fd5b50600436106102d65760003560e01c806370a0823111610182578063b02d757f116100e9578063d49d5181116100a2578063e5a6b10f1161007c578063e5a6b10f14610648578063e82bef291461065b578063ea10510e1461066e578063f2fde38b1461068157600080fd5b8063d49d5181146105f2578063d5986433146105fb578063dd62ed3e1461060f57600080fd5b8063b02d757f14610582578063b9fbc49d14610596578063bd25bf291461059f578063c0aa931e146105c2578063c92d567e146105d5578063ce0192f9146105e957600080fd5b806395d89b411161013b57806395d89b411461052b578063a23270d714610533578063a9059cbb14610547578063aa4bde281461055d578063aa582b4214610566578063adc7955d1461057957600080fd5b806370a08231146104da578063715018a6146104ed5780637abdc1ca146104f55780637db1342c146104fe57806388e765ff146105115780638da5cb5b1461051a57600080fd5b8063206c17bb116102415780633c11100d116101fa5780635a7ba73c116101d45780635a7ba73c1461048b5780636108a3db1461049f578063697cfc19146104b25780636ebcf607146104ba57600080fd5b80633c11100d1461044c5780634188bf5a1461046f578063553193ca1461048257600080fd5b8063206c17bb146103db57806323b872dd146104065780632dab693f1461041d578063313ce5671461042657806335c960891461042f5780633bfe62ca1461044357600080fd5b8063095ea7b311610293578063095ea7b3146103875780630f890b861461039a578063150e4c47146103a257806315d07d82146103b557806316f2f1a8146103c957806318160ddd146103d257600080fd5b806301339c21146102db57806301986fad146102e5578063024c2ddd1461031d57806303da2b2314610356578063063be69e1461036a57806306fdde0314610372575b600080fd5b6102e3610694565b005b6103086102f3366004610f17565b60176020526000908152604090205460ff1681565b60405190151581526020015b60405180910390f35b61034861032b366004610f39565b601360209081526000928352604080842090915290825290205481565b604051908152602001610314565b60005461030890600160c81b900460ff1681565b6102e361070f565b61037a610748565b6040516103149190610f6c565b610308610395366004610fbb565b6107d6565b6102e36107ed565b6102e36103b0366004611041565b610826565b60005461030890600160a01b900460ff1681565b61034860055481565b61034860105481565b6015546103ee906001600160a01b031681565b6040516001600160a01b039091168152602001610314565b610308610414366004611095565b60009392505050565b61034860095481565b610348600f5481565b60005461030890600160d81b900460ff1681565b61034860065481565b61030861045a366004610f17565b60166020526000908152604090205460ff1681565b6018546103ee906001600160a01b031681565b610348600c5481565b60005461030890600160b01b900460ff1681565b6102e36104ad366004611041565b6108bd565b6102e36109aa565b6103486104c8366004610f17565b60126020526000908152604090205481565b6103486104e8366004610f17565b6109e3565b6102e3610a92565b61034860085481565b6102e361050c3660046110d1565b610b0c565b610348600a5481565b6000546001600160a01b03166103ee565b61037a610b3b565b60005461030890600160c01b900460ff1681565b610308610555366004610fbb565b600092915050565b610348600b5481565b6102e36105743660046110ea565b610b48565b61034860075481565b60005461030890600160b81b900460ff1681565b61034860045481565b6103086105ad366004610f17565b60146020526000908152604090205460ff1681565b6102e36105d03660046110d1565b610d39565b60005461030890600160a81b900460ff1681565b61034860035481565b61034860001981565b60005461030890600160d01b900460ff1681565b61034861061d366004610f39565b6001600160a01b03918216600090815260136020908152604080832093909416825291909152205490565b6001546103ee906001600160a01b031681565b6002546103ee906001600160a01b031681565b6102e361067c36600461112c565b610d68565b6102e361068f366004610f17565b610db0565b6000546001600160a01b031633146106c75760405162461bcd60e51b81526004016106be90611147565b60405180910390fd5b600c54156107095760405162461bcd60e51b815260206004820152600f60248201526e185b1c9958591e481cdd185c9d1959608a1b60448201526064016106be565b43600c55565b6000546001600160a01b031633146107395760405162461bcd60e51b81526004016106be90611147565b6000805460ff60c01b19169055565b600d80546107559061117c565b80601f01602080910402602001604051908101604052809291908181526020018280546107819061117c565b80156107ce5780601f106107a3576101008083540402835291602001916107ce565b820191906000526020600020905b8154815290600101906020018083116107b157829003601f168201915b505050505081565b60006107e3338484610e9a565b5060015b92915050565b6000546001600160a01b031633146108175760405162461bcd60e51b81526004016106be90611147565b6000805460ff60d01b19169055565b6000546001600160a01b031633146108505760405162461bcd60e51b81526004016106be90611147565b60005b828110156108b7578160176000868685818110610872576108726111b6565b90506020020160208101906108879190610f17565b6001600160a01b031681526020810191909152604001600020805460ff1916911515919091179055600101610853565b50505050565b6000546001600160a01b031633146108e75760405162461bcd60e51b81526004016106be90611147565b600054600160b81b900460ff166109365760405162461bcd60e51b81526020600482015260136024820152721c995dd85c99131a5cdd08191a5cd8589b1959606a1b60448201526064016106be565b60c9821061094357600080fd5b60005b828110156108b7578160146000868685818110610965576109656111b6565b905060200201602081019061097a9190610f17565b6001600160a01b031681526020810191909152604001600020805460ff1916911515919091179055600101610946565b6000546001600160a01b031633146109d45760405162461bcd60e51b81526004016106be90611147565b6000805460ff60c81b19169055565b6018546000906001600160a01b038381169116148015610a0d57506018546001600160a01b031633145b8015610a225750600054600160d81b900460ff165b15610a76576018546001600160a01b0316600090815260126020526040902054610a765760405162461bcd60e51b81526020600482015260056024820152642173796e6360d81b60448201526064016106be565b506001600160a01b031660009081526012602052604090205490565b6000546001600160a01b03163314610abc5760405162461bcd60e51b81526004016106be90611147565b6000805460405161dead926001600160a01b03909216917f8be0079c531659141344cd1fd0a4f28419497f9722a3daafe3b4186f6b6457e091a3600080546001600160a01b03191661dead179055565b6000546001600160a01b03163314610b365760405162461bcd60e51b81526004016106be90611147565b600b55565b600e80546107559061117c565b6000546001600160a01b03163314610b725760405162461bcd60e51b81526004016106be90611147565b600054600160d01b900460ff16610bc15760405162461bcd60e51b81526020600482015260136024820152721d185e0818da185b99d948191a5cd8589b1959606a1b60448201526064016106be565b81816000818110610bd457610bd46111b6565b60200291909101356004555081816001818110610bf357610bf36111b6565b60200291909101356005555081816002818110610c1257610c126111b6565b9050602002013560038190555081816003818110610c3257610c326111b6565b60200291909101356007555081816004818110610c5157610c516111b6565b60200291909101356008555081816005818110610c7057610c706111b6565b905060200201356006819055506109c4600354600454600554610c9391906111cc565b610c9d91906111cc565b10610cd95760405162461bcd60e51b815260206004820152600c60248201526b0cccaca40e8dede40d0d2ced60a31b60448201526064016106be565b6109c4600654600754600854610cef91906111cc565b610cf991906111cc565b10610d355760405162461bcd60e51b815260206004820152600c60248201526b0cccaca40e8dede40d0d2ced60a31b60448201526064016106be565b5050565b6000546001600160a01b03163314610d635760405162461bcd60e51b81526004016106be90611147565b600a55565b6000546001600160a01b03163314610d925760405162461bcd60e51b81526004016106be90611147565b60008054911515600160d81b0260ff60d81b19909216919091179055565b6000546001600160a01b03163314610dda5760405162461bcd60e51b81526004016106be90611147565b6001600160a01b038116610e3f5760405162461bcd60e51b815260206004820152602660248201527f4f776e61626c653a206e6577206f776e657220697320746865207a65726f206160448201526564647265737360d01b60648201526084016106be565b600080546040516001600160a01b03808516939216917f8be0079c531659141344cd1fd0a4f28419497f9722a3daafe3b4186f6b6457e091a3600080546001600160a01b0319166001600160a01b0392909216919091179055565b6001600160a01b0383811660008181526013602090815260408083209487168084529482529182902085905590518481527f8c5be1e5ebec7d5bd14f71427d1e84f3dd0314c0f7b2291e5b200ac8c7c3b925910160405180910390a3505050565b80356001600160a01b0381168114610f1257600080fd5b919050565b600060208284031215610f2957600080fd5b610f3282610efb565b9392505050565b60008060408385031215610f4c57600080fd5b610f5583610efb565b9150610f6360208401610efb565b90509250929050565b60006020808352835180602085015260005b81811015610f9a57858101830151858201604001528201610f7e565b506000604082860101526040601f19601f8301168501019250505092915050565b60008060408385031215610fce57600080fd5b610fd783610efb565b946020939093013593505050565b60008083601f840112610ff757600080fd5b50813567ffffffffffffffff81111561100f57600080fd5b6020830191508360208260051b850101111561102a57600080fd5b9250929050565b80358015158114610f1257600080fd5b60008060006040848603121561105657600080fd5b833567ffffffffffffffff81111561106d57600080fd5b61107986828701610fe5565b909450925061108c905060208501611031565b90509250925092565b6000806000606084860312156110aa57600080fd5b6110b384610efb565b92506110c160208501610efb565b9150604084013590509250925092565b6000602082840312156110e357600080fd5b5035919050565b600080602083850312156110fd57600080fd5b823567ffffffffffffffff81111561111457600080fd5b61112085828601610fe5565b90969095509350505050565b60006020828403121561113e57600080fd5b610f3282611031565b6020808252818101527f4f776e61626c653a2063616c6c6572206973206e6f7420746865206f776e6572604082015260600190565b600181811c9082168061119057607f821691505b6020821081036111b057634e487b7160e01b600052602260045260246000fd5b50919050565b634e487b7160e01b600052603260045260246000fd5b808201808211156107e757634e487b7160e01b600052601160045260246000fdfea26469706673582212202cc29a22b45f2dd42a45374d2592bc21ed524d5375fc9f97c89cc836d8e10ec964736f6c63430008180033","linkReferences":{}},"methodIdentifiers":{"MAX()":"d49d5181","_allowances(address,address)":"024c2ddd","_balances(address)":"6ebcf607","_buyBurnFee()":"16f2f1a8","_buyFundFee()":"ce0192f9","_buyLPFee()":"b9fbc49d","_feeWhiteList(address)":"01986fad","_mainPair()":"4188bf5a","_rewardList(address)":"bd25bf29","_sellBurnFee()":"7abdc1ca","_sellFundFee()":"3bfe62ca","_sellLPFee()":"adc7955d","_swapPairList(address)":"3c11100d","_swapRouter()":"206c17bb","allowance(address,address)":"dd62ed3e","antiSYNC()":"35c96089","approve(address,uint256)":"095ea7b3","balanceOf(address)":"70a08231","changeSwapLimit(uint256)":"c0aa931e","changeWalletLimit(uint256)":"7db1342c","completeCustoms(uint256[])":"aa582b42","currency()":"e5a6b10f","currencyIsEth()":"15d07d82","decimals()":"313ce567","disableChangeTax()":"0f890b86","disableSwapLimit()":"063be69e","disableWalletLimit()":"697cfc19","enableChangeTax()":"d5986433","enableKillBlock()":"5a7ba73c","enableOffTrade()":"c92d567e","enableRewardList()":"b02d757f","enableSwapLimit()":"a23270d7","enableWalletLimit()":"03da2b23","fundAddress()":"e82bef29","kb()":"2dab693f","launch()":"01339c21","maxBuyAmount()":"88e765ff","maxWalletAmount()":"aa4bde28","multi_bclist(address[],bool)":"6108a3db","name()":"06fdde03","owner()":"8da5cb5b","renounceOwnership()":"715018a6","setAntiSYNCEnable(bool)":"ea10510e","setFeeWhiteList(address[],bool)":"150e4c47","startTradeBlock()":"553193ca","symbol()":"95d89b41","totalSupply()":"18160ddd","transfer(address,uint256)":"a9059cbb","transferFrom(address,address,uint256)":"23b872dd","transferOwnership(address)":"f2fde38b"},"id":47}