{"abi":[{"type":"constructor","inputs":[{"name":"stringParams","type":"string[]","internalType":"string[]"},{"name":"addressParams","type":"address[]","internalType":"address[]"},{"name":"numberParams","type":"uint256[]","internalType":"uint256[]"},{"name":"boolParams","type":"bool[]","internalType":"bool[]"}],"stateMutability":"nonpayable"},{"type":"receive","stateMutability":"payable"},{"type":"function","name":"MAX","inputs":[],"outputs":[{"name":"","type":"uint256","internalType":"uint256"}],"stateMutability":"view"},{"type":"function","name":"_allowances","inputs":[{"name":"","type":"address","internalType":"address"},{"name":"","type":"address","internalType":"address"}],"outputs":[{"name":"","type":"uint256","internalType":"uint256"}],"stateMutability":"view"},{"type":"function","name":"_balances","inputs":[{"name":"","type":"address","internalType":"address"}],"outputs":[{"name":"","type":"uint256","internalType":"uint256"}],"stateMutability":"view"},{"type":"function","name":"_buyBurnFee","inputs":[],"outputs":[{"name":"","type":"uint256","internalType":"uint256"}],"stateMutability":"view"},{"type":"function","name":"_buyFundFee","inputs":[],"outputs":[{"name":"","type":"uint256","internalType":"uint256"}],"stateMutability":"view"},{"type":"function","name":"_buyLPFee","inputs":[],"outputs":[{"name":"","type":"uint256","internalType":"uint256"}],"stateMutability":"view"},{"type":"function","name":"_feeWhiteList","inputs":[{"name":"","type":"address","internalType":"address"}],"outputs":[{"name":"","type":"bool","internalType":"bool"}],"stateMutability":"view"},{"type":"function","name":"_mainPair","inputs":[],"outputs":[{"name":"","type":"address","internalType":"address"}],"stateMutability":"view"},{"type":"function","name":"_rewardList","inputs":[{"name":"","type":"address","internalType":"address"}],"outputs":[{"name":"","type":"bool","internalType":"bool"}],"stateMutability":"view"},{"type":"function","name":"_sellBurnFee","inputs":[],"outputs":[{"name":"","type":"uint256","internalType":"uint256"}],"stateMutability":"view"},{"type":"function","name":"_sellFundFee","inputs":[],"outputs":[{"name":"","type":"uint256","internalType":"uint256"}],"stateMutability":"view"},{"type":"function","name":"_sellLPFee","inputs":[],"outputs":[{"name":"","type":"uint256","internalType":"uint256"}],"stateMutability":"view"},{"type":"function","name":"_swapPairList","inputs":[{"name":"","type":"address","internalType":"address"}],"outputs":[{"name":"","type":"bool","internalType":"bool"}],"stateMutability":"view"},{"type":"function","name":"_swapRouter","inputs":[],"outputs":[{"name":"","type":"address","internalType":"contract IPancakeRouter02"}],"stateMutability":"view"},{"type":"function","name":"_tokenDistributor","inputs":[],"outputs":[{"name":"","type":"address","internalType":"contract TokenDistributor"}],"stateMutability":"view"},{"type":"function","name":"airdropEnable","inputs":[],"outputs":[{"name":"","type":"bool","internalType":"bool"}],"stateMutability":"view"},{"type":"function","name":"airdropNumbs","inputs":[],"outputs":[{"name":"","type":"uint256","internalType":"uint256"}],"stateMutability":"view"},{"type":"function","name":"allowance","inputs":[{"name":"owner","type":"address","internalType":"address"},{"name":"spender","type":"address","internalType":"address"}],"outputs":[{"name":"","type":"uint256","internalType":"uint256"}],"stateMutability":"view"},{"type":"function","name":"antiSYNC","inputs":[],"outputs":[{"name":"","type":"bool","internalType":"bool"}],"stateMutability":"view"},{"type":"function","name":"approve","inputs":[{"name":"spender","type":"address","internalType":"address"},{"name":"amount","type":"uint256","internalType":"uint256"}],"outputs":[{"name":"","type":"bool","internalType":"bool"}],"stateMutability":"nonpayable"},{"type":"function","name":"balanceOf","inputs":[{"name":"account","type":"address","internalType":"address"}],"outputs":[{"name":"","type":"uint256","internalType":"uint256"}],"stateMutability":"view"},{"type":"function","name":"changeSwapLimit","inputs":[{"name":"_maxBuyAmount","type":"uint256","internalType":"uint256"}],"outputs":[],"stateMutability":"nonpayable"},{"type":"function","name":"changeWalletLimit","inputs":[{"name":"_amount","type":"uint256","internalType":"uint256"}],"outputs":[],"stateMutability":"nonpayable"},{"type":"function","name":"completeCustoms","inputs":[{"name":"customs","type":"uint256[]","internalType":"uint256[]"}],"outputs":[],"stateMutability":"nonpayable"},{"type":"function","name":"currency","inputs":[],"outputs":[{"name":"","type":"address","internalType":"address"}],"stateMutability":"view"},{"type":"function","name":"currencyIsEth","inputs":[],"outputs":[{"name":"","type":"bool","internalType":"bool"}],"stateMutability":"view"},{"type":"function","name":"decimals","inputs":[],"outputs":[{"name":"","type":"uint256","internalType":"uint256"}],"stateMutability":"view"},{"type":"function","name":"disableChangeTax","inputs":[],"outputs":[],"stateMutability":"nonpayable"},{"type":"function","name":"disableSwapLimit","inputs":[],"outputs":[],"stateMutability":"nonpayable"},{"type":"function","name":"disableWalletLimit","inputs":[],"outputs":[],"stateMutability":"nonpayable"},{"type":"function","name":"enableChangeTax","inputs":[],"outputs":[{"name":"","type":"bool","internalType":"bool"}],"stateMutability":"view"},{"type":"function","name":"enableKillBlock","inputs":[],"outputs":[{"name":"","type":"bool","internalType":"bool"}],"stateMutability":"view"},{"type":"function","name":"enableOffTrade","inputs":[],"outputs":[{"name":"","type":"bool","internalType":"bool"}],"stateMutability":"view"},{"type":"function","name":"enableRewardList","inputs":[],"outputs":[{"name":"","type":"bool","internalType":"bool"}],"stateMutability":"view"},{"type":"function","name":"enableSwapLimit","inputs":[],"outputs":[{"name":"","type":"bool","internalType":"bool"}],"stateMutability":"view"},{"type":"function","name":"enableTransferFee","inputs":[],"outputs":[{"name":"","type":"bool","internalType":"bool"}],"stateMutability":"view"},{"type":"function","name":"enableWalletLimit","inputs":[],"outputs":[{"name":"","type":"bool","internalType":"bool"}],"stateMutability":"view"},{"type":"function","name":"fundAddress","inputs":[],"outputs":[{"name":"","type":"address","internalType":"address payable"}],"stateMutability":"view"},{"type":"function","name":"generateLpReceiverAddr","inputs":[],"outputs":[{"name":"","type":"address","internalType":"address"}],"stateMutability":"view"},{"type":"function","name":"isReward","inputs":[{"name":"account","type":"address","internalType":"address"}],"outputs":[{"name":"","type":"uint256","internalType":"uint256"}],"stateMutability":"view"},{"type":"function","name":"kb","inputs":[],"outputs":[{"name":"","type":"uint256","internalType":"uint256"}],"stateMutability":"view"},{"type":"function","name":"launch","inputs":[],"outputs":[],"stateMutability":"nonpayable"},{"type":"function","name":"maxBuyAmount","inputs":[],"outputs":[{"name":"","type":"uint256","internalType":"uint256"}],"stateMutability":"view"},{"type":"function","name":"maxWalletAmount","inputs":[],"outputs":[{"name":"","type":"uint256","internalType":"uint256"}],"stateMutability":"view"},{"type":"function","name":"multi_bclist","inputs":[{"name":"addresses","type":"address[]","internalType":"address[]"},{"name":"value","type":"bool","internalType":"bool"}],"outputs":[],"stateMutability":"nonpayable"},{"type":"function","name":"name","inputs":[],"outputs":[{"name":"","type":"string","internalType":"string"}],"stateMutability":"view"},{"type":"function","name":"numTokensSellRate","inputs":[],"outputs":[{"name":"","type":"uint256","internalType":"uint256"}],"stateMutability":"view"},{"type":"function","name":"owner","inputs":[],"outputs":[{"name":"","type":"address","internalType":"address"}],"stateMutability":"view"},{"type":"function","name":"renounceOwnership","inputs":[],"outputs":[],"stateMutability":"nonpayable"},{"type":"function","name":"setAirDropEnable","inputs":[{"name":"status","type":"bool","internalType":"bool"}],"outputs":[],"stateMutability":"nonpayable"},{"type":"function","name":"setAirdropNumbs","inputs":[{"name":"newValue","type":"uint256","internalType":"uint256"}],"outputs":[],"stateMutability":"nonpayable"},{"type":"function","name":"setAntiSYNCEnable","inputs":[{"name":"s","type":"bool","internalType":"bool"}],"outputs":[],"stateMutability":"nonpayable"},{"type":"function","name":"setEnableTransferFee","inputs":[{"name":"status","type":"bool","internalType":"bool"}],"outputs":[],"stateMutability":"nonpayable"},{"type":"function","name":"setFeeWhiteList","inputs":[{"name":"addr","type":"address[]","internalType":"address[]"},{"name":"enable","type":"bool","internalType":"bool"}],"outputs":[],"stateMutability":"nonpayable"},{"type":"function","name":"setFundAddress","inputs":[{"name":"addr","type":"address","internalType":"address payable"}],"outputs":[],"stateMutability":"nonpayable"},{"type":"function","name":"setGenerateLpReceiverAddr","inputs":[{"name":"newAddr","type":"address","internalType":"address"}],"outputs":[],"stateMutability":"nonpayable"},{"type":"function","name":"setNumTokensSellRate","inputs":[{"name":"newValue","type":"uint256","internalType":"uint256"}],"outputs":[],"stateMutability":"nonpayable"},{"type":"function","name":"setSwapAtAmount","inputs":[{"name":"newValue","type":"uint256","internalType":"uint256"}],"outputs":[],"stateMutability":"nonpayable"},{"type":"function","name":"setSwapPairList","inputs":[{"name":"addr","type":"address","internalType":"address"},{"name":"enable","type":"bool","internalType":"bool"}],"outputs":[],"stateMutability":"nonpayable"},{"type":"function","name":"setTransferFee","inputs":[{"name":"newValue","type":"uint256","internalType":"uint256"}],"outputs":[],"stateMutability":"nonpayable"},{"type":"function","name":"setkb","inputs":[{"name":"a","type":"uint256","internalType":"uint256"}],"outputs":[],"stateMutability":"nonpayable"},{"type":"function","name":"startTradeBlock","inputs":[],"outputs":[{"name":"","type":"uint256","internalType":"uint256"}],"stateMutability":"view"},{"type":"function","name":"swapAtAmount","inputs":[],"outputs":[{"name":"","type":"uint256","internalType":"uint256"}],"stateMutability":"view"},{"type":"function","name":"symbol","inputs":[],"outputs":[{"name":"","type":"string","internalType":"string"}],"stateMutability":"view"},{"type":"function","name":"totalFundAmountReceive","inputs":[],"outputs":[{"name":"","type":"uint256","internalType":"uint256"}],"stateMutability":"view"},{"type":"function","name":"totalSupply","inputs":[],"outputs":[{"name":"","type":"uint256","internalType":"uint256"}],"stateMutability":"view"},{"type":"function","name":"transfer","inputs":[{"name":"recipient","type":"address","internalType":"address"},{"name":"amount","type":"uint256","internalType":"uint256"}],"outputs":[{"name":"","type":"bool","internalType":"bool"}],"stateMutability":"nonpayable"},{"type":"function","name":"transferFee","inputs":[],"outputs":[{"name":"","type":"uint256","internalType":"uint256"}],"stateMutability":"view"},{"type":"function","name":"transferFrom","inputs":[{"name":"sender","type":"address","internalType":"address"},{"name":"recipient","type":"address","internalType":"address"},{"name":"amount","type":"uint256","internalType":"uint256"}],"outputs":[{"name":"","type":"bool","internalType":"bool"}],"stateMutability":"nonpayable"},{"type":"function","name":"transferOwnership","inputs":[{"name":"newOwner","type":"address","internalType":"address"}],"outputs":[],"stateMutability":"nonpayable"},{"type":"event","name":"Approval","inputs":[{"name":"owner","type":"address","indexed":true,"internalType":"address"},{"name":"spender","type":"address","indexed":true,"internalType":"address"},{"name":"value","type":"uint256","indexed":false,"internalType":"uint256"}],"anonymous":false},{"type":"event","name":"Failed_AddLiquidity","inputs":[],"anonymous":false},{"type":"event","name":"Failed_AddLiquidityETH","inputs":[],"anonymous":false},{"type":"event","name":"Failed_swapExactTokensForTokensSupportingFeeOnTransferTokens","inputs":[],"anonymous":false},{"type":"event","name":"OwnershipTransferred","inputs":[{"name":"previousOwner","type":"address","indexed":true,"internalType":"address"},{"name":"newOwner","type":"address","indexed":true,"internalType":"address"}],"anonymous":false},{"type":"event","name":"Transfer","inputs":[{"name":"from","type":"address","indexed":true,"internalType":"address"},{"name":"to","type":"address","indexed":true,"internalType":"address"},{"name":"value","type":"uint256","indexed":false,"internalType":"uint256"}],"anonymous":false}],"bytecode":{"object":"0x608060405260006003819055600481905560058190556101f4600655600781905560088190556009819055601180546001600160a01b03191661dead1790556019805460ff60a01b1916600160a01b179055601a819055601b805460ff191690556064601c55601d553480156200007557600080fd5b5060405162003eed38038062003eed833981016040819052620000989162000d06565b600080546001600160a01b031916339081178255604051909182917f8be0079c531659141344cd1fd0a4f28419497f9722a3daafe3b4186f6b6457e0908290a35083600081518110620000ef57620000ef62000eaa565b6020026020010151600d908162000107919062000f51565b50836001815181106200011e576200011e62000eaa565b6020026020010151600e908162000136919062000f51565b50816000815181106200014d576200014d62000eaa565b6020026020010151600f819055508160018151811062000171576200017162000eaa565b60200260200101516010819055508260008151811062000195576200019562000eaa565b6020026020010151600160006101000a8154816001600160a01b0302191690836001600160a01b0316021790555081600281518110620001d957620001d962000eaa565b602002602001015160038190555081600381518110620001fd57620001fd62000eaa565b60200260200101516005819055508160048151811062000221576200022162000eaa565b60200260200101516004819055508160058151811062000245576200024562000eaa565b60200260200101516006819055508160068151811062000269576200026962000eaa565b6020026020010151600881905550816007815181106200028d576200028d62000eaa565b602002602001015160078190555081600881518110620002b157620002b162000eaa565b602002602001015160098190555081600981518110620002d557620002d562000eaa565b6020026020010151600a8190555081600b81518110620002f957620002f962000eaa565b6020026020010151600b8190555081600c815181106200031d576200031d62000eaa565b6020026020010151601a819055506003601a541115620003845760405162461bcd60e51b815260206004820152601b60248201527f61697264726f704e756d62732073686f756c64206265203c3d2033000000000060448201526064015b60405180910390fd5b6109c46003546004546005546200039c91906200101d565b620003a891906200101d565b10620003e65760405162461bcd60e51b815260206004820152600c60248201526b0cccaca40e8dede40d0d2ced60a31b60448201526064016200037b565b6109c4600654600754600854620003fe91906200101d565b6200040a91906200101d565b10620004485760405162461bcd60e51b815260206004820152600c60248201526b0cccaca40e8dede40d0d2ced60a31b60448201526064016200037b565b806000815181106200045e576200045e62000eaa565b6020026020010151600060146101000a81548160ff0219169083151502179055508060018151811062000495576200049562000eaa565b6020026020010151600060156101000a81548160ff02191690831515021790555080600281518110620004cc57620004cc62000eaa565b6020026020010151600060166101000a81548160ff0219169083151502179055508060038151811062000503576200050362000eaa565b6020026020010151600060176101000a81548160ff021916908315150217905550806004815181106200053a576200053a62000eaa565b6020026020010151600060186101000a81548160ff0219169083151502179055508060058151811062000571576200057162000eaa565b6020026020010151600060196101000a81548160ff02191690831515021790555080600681518110620005a857620005a862000eaa565b60200260200101516000601a6101000a81548160ff02191690831515021790555080600781518110620005df57620005df62000eaa565b6020026020010151601b60006101000a81548160ff0219169083151502179055508060088151811062000616576200061662000eaa565b602090810291909101015160008054911515600160d81b0260ff60d81b19909216919091179055601b5460ff16156200066e576008546007546006546200065e91906200101d565b6200066a91906200101d565b601e555b60008360018151811062000686576200068662000eaa565b60200260200101519050600060149054906101000a900460ff16156200072c57806001600160a01b031663ad5c46486040518163ffffffff1660e01b8152600401602060405180830381865afa158015620006e5573d6000803e3d6000fd5b505050506040513d601f19601f820116820180604052508101906200070b919062001045565b600180546001600160a01b0319166001600160a01b03929092169190911790555b60015460405163095ea7b360e01b81526001600160a01b03838116600483015260001960248301529091169063095ea7b3906044016020604051808303816000875af115801562000781573d6000803e3d6000fd5b505050506040513d601f19601f82011682018060405250810190620007a791906200106a565b50601580546001600160a01b0319166001600160a01b03831690811790915530600090815260136020908152604080832084845282528083206000199055805163c45a015560e01b8152905192939263c45a0155926004808401939192918290030181865afa1580156200081f573d6000803e3d6000fd5b505050506040513d601f19601f8201168201806040525081019062000845919062001045565b6001546040516364e329cb60e11b81523060048201526001600160a01b0391821660248201529192506000919083169063c9c65396906044016020604051808303816000875af11580156200089e573d6000803e3d6000fd5b505050506040513d601f19601f82011682018060405250810190620008c4919062001045565b601880546001600160a01b0319166001600160a01b0383811691821790925560009081526016602052604090819020805460ff191660019081179091555490519293501690620009149062000b06565b6001600160a01b039091168152602001604051809103906000f08015801562000941573d6000803e3d6000fd5b50601960006101000a8154816001600160a01b0302191690836001600160a01b0316021790555060008660028151811062000980576200098062000eaa565b6020908102919091018101516010546001600160a01b038216600081815260128552604080822084905551928352929450927fddf252ad1be2c89b69c2b068fc378daa952ba7f163c4a11628f55a4df523b3ef910160405180910390a386600381518110620009f357620009f362000eaa565b6020908102919091010151600280546001600160a01b039092166001600160a01b03199283168117909155601f805490921681179091553b63ffffffff161562000a805760405162461bcd60e51b815260206004820152601a60248201527f66756e6461646472657373206973206120636f6e74726163742000000000000060448201526064016200037b565b6002546001600160a01b039081166000908152601760205260408082208054600160ff19918216811790925594841683528183208054861682179055308352818320805486168217905533835281832080548616821790553283528183208054861682179055601154909316825290208054909216179055506200108895505050505050565b6101478062003da683390190565b634e487b7160e01b600052604160045260246000fd5b604051601f8201601f191681016001600160401b038111828210171562000b555762000b5562000b14565b604052919050565b60006001600160401b0382111562000b795762000b7962000b14565b5060051b60200190565b80516001600160a01b038116811462000b9b57600080fd5b919050565b600082601f83011262000bb257600080fd5b8151602062000bcb62000bc58362000b5d565b62000b2a565b8083825260208201915060208460051b87010193508684111562000bee57600080fd5b602086015b8481101562000c155762000c078162000b83565b835291830191830162000bf3565b509695505050505050565b600082601f83011262000c3257600080fd5b8151602062000c4562000bc58362000b5d565b8083825260208201915060208460051b87010193508684111562000c6857600080fd5b602086015b8481101562000c15578051835291830191830162000c6d565b8051801515811462000b9b57600080fd5b600082601f83011262000ca957600080fd5b8151602062000cbc62000bc58362000b5d565b8083825260208201915060208460051b87010193508684111562000cdf57600080fd5b602086015b8481101562000c155762000cf88162000c86565b835291830191830162000ce4565b6000806000806080858703121562000d1d57600080fd5b84516001600160401b038082111562000d3557600080fd5b818701915087601f83011262000d4a57600080fd5b8151602062000d5d62000bc58362000b5d565b82815260059290921b8401810191818101908b84111562000d7d57600080fd5b8286015b8481101562000e2a5780518681111562000d9a57600080fd5b8701603f81018e1362000dac57600080fd5b848101518781111562000dc35762000dc362000b14565b62000dd7601f8201601f1916870162000b2a565b8181528f604083850101111562000dee5760008081fd5b60005b8281101562000e0f5783810160400151828201890152870162000df1565b50600091810187019190915284525091830191830162000d81565b50918a015191985090935050508082111562000e4557600080fd5b62000e538883890162000ba0565b9450604087015191508082111562000e6a57600080fd5b62000e788883890162000c20565b9350606087015191508082111562000e8f57600080fd5b5062000e9e8782880162000c97565b91505092959194509250565b634e487b7160e01b600052603260045260246000fd5b600181811c9082168062000ed557607f821691505b60208210810362000ef657634e487b7160e01b600052602260045260246000fd5b50919050565b601f82111562000f4c576000816000526020600020601f850160051c8101602086101562000f275750805b601f850160051c820191505b8181101562000f485782815560010162000f33565b5050505b505050565b81516001600160401b0381111562000f6d5762000f6d62000b14565b62000f858162000f7e845462000ec0565b8462000efc565b602080601f83116001811462000fbd576000841562000fa45750858301515b600019600386901b1c1916600185901b17855562000f48565b600085815260208120601f198616915b8281101562000fee5788860151825594840194600190910190840162000fcd565b50858210156200100d5787850151600019600388901b60f8161c191681555b5050505050600190811b01905550565b808201808211156200103f57634e487b7160e01b600052601160045260246000fd5b92915050565b6000602082840312156200105857600080fd5b620010638262000b83565b9392505050565b6000602082840312156200107d57600080fd5b620010638262000c86565b612d0e80620010986000396000f3fe6080604052600436106104095760003560e01c80637db1342c11610213578063b02d757f11610123578063dac1dcfe116100ab578063e5c2b0a61161007a578063e5c2b0a614610c04578063e82bef2914610c24578063ea10510e14610c44578063ef6e4f1714610c64578063f2fde38b14610c7a57600080fd5b8063dac1dcfe14610b6e578063dd62ed3e14610b88578063e32759cf14610bce578063e5a6b10f14610be457600080fd5b8063c92d567e116100f2578063c92d567e14610ae0578063ce0192f914610b01578063d49d518114610b17578063d598643314610b2d578063d710569b14610b4e57600080fd5b8063b02d757f14610a59578063b9fbc49d14610a7a578063bd25bf2914610a90578063c0aa931e14610ac057600080fd5b80638f6cd17d116101a6578063a9059cbb11610175578063a9059cbb146109d7578063aa4bde28146109f7578063aa582b4214610a0d578063acb2ad6f14610a2d578063adc7955d14610a4357600080fd5b80638f6cd17d1461096b57806395d89b4114610981578063a23270d714610996578063a8424861146109b757600080fd5b806388e765ff116101e257806388e765ff146108f75780638da5cb5b1461090d5780638e1e08381461092b5780638f02bb5b1461094b57600080fd5b80637db1342c1461088157806385dc3004146108a157806386917524146108c15780638718b24f146108d757600080fd5b806323b872dd116103195780635a7ba73c116102a15780636ebcf607116102705780636ebcf607146107e957806370a0823114610816578063715018a614610836578063795947361461084b5780637abdc1ca1461086b57600080fd5b80635a7ba73c146107735780636108a3db146107945780636402511e146107b4578063697cfc19146107d457600080fd5b80633bfe62ca116102e85780633bfe62ca146106d75780633c11100d146106ed5780634188bf5a1461071d5780634d5ce0381461073d578063553193ca1461075d57600080fd5b806323b872dd1461066a5780632dab693f1461068a578063313ce567146106a057806335c96089146106b657600080fd5b8063095ea7b31161039c57806315d07d821161036b57806315d07d82146105c457806316f2f1a8146105e557806318160ddd146105fb5780631846a5a414610611578063206c17bb1461063257600080fd5b8063095ea7b31461054f5780630f890b861461056f57806314a432c914610584578063150e4c47146105a457600080fd5b8063060e304e116103d8578063060e304e146104d8578063063be69e146104f857806306fdde031461050d57806307313d8d1461052f57600080fd5b806301339c211461041557806301986fad1461042c578063024c2ddd1461047157806303da2b23146104b757600080fd5b3661041057005b600080fd5b34801561042157600080fd5b5061042a610c9a565b005b34801561043857600080fd5b5061045c610447366004612897565b60176020526000908152604090205460ff1681565b60405190151581526020015b60405180910390f35b34801561047d57600080fd5b506104a961048c3660046128bb565b601360209081526000928352604080842090915290825290205481565b604051908152602001610468565b3480156104c357600080fd5b5060005461045c90600160c81b900460ff1681565b3480156104e457600080fd5b5061042a6104f33660046128f4565b610d15565b34801561050457600080fd5b5061042a610d85565b34801561051957600080fd5b50610522610dbe565b604051610468919061290d565b34801561053b57600080fd5b5061042a61054a36600461296a565b610e4c565b34801561055b57600080fd5b5061045c61056a366004612987565b610e94565b34801561057b57600080fd5b5061042a610eab565b34801561059057600080fd5b5061042a61059f3660046128f4565b610ee4565b3480156105b057600080fd5b5061042a6105bf3660046129ff565b610f13565b3480156105d057600080fd5b5060005461045c90600160a01b900460ff1681565b3480156105f157600080fd5b506104a960055481565b34801561060757600080fd5b506104a960105481565b34801561061d57600080fd5b5060195461045c90600160a01b900460ff1681565b34801561063e57600080fd5b50601554610652906001600160a01b031681565b6040516001600160a01b039091168152602001610468565b34801561067657600080fd5b5061045c610685366004612a56565b610faa565b34801561069657600080fd5b506104a960095481565b3480156106ac57600080fd5b506104a9600f5481565b3480156106c257600080fd5b5060005461045c90600160d81b900460ff1681565b3480156106e357600080fd5b506104a960065481565b3480156106f957600080fd5b5061045c610708366004612897565b60166020526000908152604090205460ff1681565b34801561072957600080fd5b50601854610652906001600160a01b031681565b34801561074957600080fd5b506104a9610758366004612897565b611041565b34801561076957600080fd5b506104a9600c5481565b34801561077f57600080fd5b5060005461045c90600160b01b900460ff1681565b3480156107a057600080fd5b5061042a6107af3660046129ff565b611097565b3480156107c057600080fd5b5061042a6107cf3660046128f4565b611184565b3480156107e057600080fd5b5061042a6111b3565b3480156107f557600080fd5b506104a9610804366004612897565b60126020526000908152604090205481565b34801561082257600080fd5b506104a9610831366004612897565b6111ec565b34801561084257600080fd5b5061042a61129b565b34801561085757600080fd5b5061042a61086636600461296a565b611315565b34801561087757600080fd5b506104a960085481565b34801561088d57600080fd5b5061042a61089c3660046128f4565b611371565b3480156108ad57600080fd5b5061042a6108bc366004612897565b6113a0565b3480156108cd57600080fd5b506104a9601d5481565b3480156108e357600080fd5b50601954610652906001600160a01b031681565b34801561090357600080fd5b506104a9600a5481565b34801561091957600080fd5b506000546001600160a01b0316610652565b34801561093757600080fd5b50601f54610652906001600160a01b031681565b34801561095757600080fd5b5061042a6109663660046128f4565b611459565b34801561097757600080fd5b506104a9601c5481565b34801561098d57600080fd5b506105226114cc565b3480156109a257600080fd5b5060005461045c90600160c01b900460ff1681565b3480156109c357600080fd5b5061042a6109d2366004612a97565b6114d9565b3480156109e357600080fd5b5061045c6109f2366004612987565b61152e565b348015610a0357600080fd5b506104a9600b5481565b348015610a1957600080fd5b5061042a610a28366004612ac5565b61153b565b348015610a3957600080fd5b506104a9601e5481565b348015610a4f57600080fd5b506104a960075481565b348015610a6557600080fd5b5060005461045c90600160b81b900460ff1681565b348015610a8657600080fd5b506104a960045481565b348015610a9c57600080fd5b5061045c610aab366004612897565b60146020526000908152604090205460ff1681565b348015610acc57600080fd5b5061042a610adb3660046128f4565b61172c565b348015610aec57600080fd5b5060005461045c90600160a81b900460ff1681565b348015610b0d57600080fd5b506104a960035481565b348015610b2357600080fd5b506104a960001981565b348015610b3957600080fd5b5060005461045c90600160d01b900460ff1681565b348015610b5a57600080fd5b5061042a610b69366004612897565b61175b565b348015610b7a57600080fd5b50601b5461045c9060ff1681565b348015610b9457600080fd5b506104a9610ba33660046128bb565b6001600160a01b03918216600090815260136020908152604080832093909416825291909152205490565b348015610bda57600080fd5b506104a9601a5481565b348015610bf057600080fd5b50600154610652906001600160a01b031681565b348015610c1057600080fd5b5061042a610c1f3660046128f4565b6117a7565b348015610c3057600080fd5b50600254610652906001600160a01b031681565b348015610c5057600080fd5b5061042a610c5f36600461296a565b61181c565b348015610c7057600080fd5b506104a960205481565b348015610c8657600080fd5b5061042a610c95366004612897565b611864565b6000546001600160a01b03163314610ccd5760405162461bcd60e51b8152600401610cc490612b07565b60405180910390fd5b600c5415610d0f5760405162461bcd60e51b815260206004820152600f60248201526e185b1c9958591e481cdd185c9d1959608a1b6044820152606401610cc4565b43600c55565b6000546001600160a01b03163314610d3f5760405162461bcd60e51b8152600401610cc490612b07565b80600003610d805760405162461bcd60e51b815260206004820152600e60248201526d067726561746572207468616e20360941b6044820152606401610cc4565b601c55565b6000546001600160a01b03163314610daf5760405162461bcd60e51b8152600401610cc490612b07565b6000805460ff60c01b19169055565b600d8054610dcb90612b3c565b80601f0160208091040260200160405190810160405280929190818152602001828054610df790612b3c565b8015610e445780601f10610e1957610100808354040283529160200191610e44565b820191906000526020600020905b815481529060010190602001808311610e2757829003601f168201915b505050505081565b6000546001600160a01b03163314610e765760405162461bcd60e51b8152600401610cc490612b07565b60198054911515600160a01b0260ff60a01b19909216919091179055565b6000610ea133848461194e565b5060015b92915050565b6000546001600160a01b03163314610ed55760405162461bcd60e51b8152600401610cc490612b07565b6000805460ff60d01b19169055565b6000546001600160a01b03163314610f0e5760405162461bcd60e51b8152600401610cc490612b07565b600955565b6000546001600160a01b03163314610f3d5760405162461bcd60e51b8152600401610cc490612b07565b60005b82811015610fa4578160176000868685818110610f5f57610f5f612b76565b9050602002016020810190610f749190612897565b6001600160a01b031681526020810191909152604001600020805460ff1916911515919091179055600101610f40565b50505050565b6000610fb78484846119b0565b6001600160a01b038416600090815260136020908152604080832033845290915290205460001914611037576001600160a01b0384166000908152601360209081526040808320338452909152902054611012908390612ba2565b6001600160a01b03851660009081526013602090815260408083203384529091529020555b5060019392505050565b6001600160a01b03811660009081526014602052604081205460ff16801561108257506001600160a01b03821660009081526016602052604090205460ff16155b1561108f57506001919050565b506000919050565b6000546001600160a01b031633146110c15760405162461bcd60e51b8152600401610cc490612b07565b600054600160b81b900460ff166111105760405162461bcd60e51b81526020600482015260136024820152721c995dd85c99131a5cdd08191a5cd8589b1959606a1b6044820152606401610cc4565b60c9821061111d57600080fd5b60005b82811015610fa457816014600086868581811061113f5761113f612b76565b90506020020160208101906111549190612897565b6001600160a01b031681526020810191909152604001600020805460ff1916911515919091179055600101611120565b6000546001600160a01b031633146111ae5760405162461bcd60e51b8152600401610cc490612b07565b601d55565b6000546001600160a01b031633146111dd5760405162461bcd60e51b8152600401610cc490612b07565b6000805460ff60c81b19169055565b6018546000906001600160a01b03838116911614801561121657506018546001600160a01b031633145b801561122b5750600054600160d81b900460ff165b1561127f576018546001600160a01b031660009081526012602052604090205461127f5760405162461bcd60e51b81526020600482015260056024820152642173796e6360d81b6044820152606401610cc4565b506001600160a01b031660009081526012602052604090205490565b6000546001600160a01b031633146112c55760405162461bcd60e51b8152600401610cc490612b07565b6000805460405161dead926001600160a01b03909216917f8be0079c531659141344cd1fd0a4f28419497f9722a3daafe3b4186f6b6457e091a3600080546001600160a01b03191661dead179055565b6000546001600160a01b0316331461133f5760405162461bcd60e51b8152600401610cc490612b07565b8015611368576008546007546006546113589190612bb5565b6113629190612bb5565b601e5550565b6000601e555b50565b6000546001600160a01b0316331461139b5760405162461bcd60e51b8152600401610cc490612b07565b600b55565b6000546001600160a01b031633146113ca5760405162461bcd60e51b8152600401610cc490612b07565b803b63ffffffff161561141f5760405162461bcd60e51b815260206004820152601a60248201527f66756e6461646472657373206973206120636f6e7472616374200000000000006044820152606401610cc4565b600280546001600160a01b039092166001600160a01b0319909216821790556000908152601760205260409020805460ff19166001179055565b6000546001600160a01b031633146114835760405162461bcd60e51b8152600401610cc490612b07565b6109c48111156114c75760405162461bcd60e51b815260206004820152600f60248201526e7472616e73666572203e203235202160881b6044820152606401610cc4565b601e55565b600e8054610dcb90612b3c565b6000546001600160a01b031633146115035760405162461bcd60e51b8152600401610cc490612b07565b6001600160a01b03919091166000908152601660205260409020805460ff1916911515919091179055565b6000610ea13384846119b0565b6000546001600160a01b031633146115655760405162461bcd60e51b8152600401610cc490612b07565b600054600160d01b900460ff166115b45760405162461bcd60e51b81526020600482015260136024820152721d185e0818da185b99d948191a5cd8589b1959606a1b6044820152606401610cc4565b818160008181106115c7576115c7612b76565b602002919091013560045550818160018181106115e6576115e6612b76565b6020029190910135600555508181600281811061160557611605612b76565b905060200201356003819055508181600381811061162557611625612b76565b6020029190910135600755508181600481811061164457611644612b76565b6020029190910135600855508181600581811061166357611663612b76565b905060200201356006819055506109c46003546004546005546116869190612bb5565b6116909190612bb5565b106116cc5760405162461bcd60e51b815260206004820152600c60248201526b0cccaca40e8dede40d0d2ced60a31b6044820152606401610cc4565b6109c46006546007546008546116e29190612bb5565b6116ec9190612bb5565b106117285760405162461bcd60e51b815260206004820152600c60248201526b0cccaca40e8dede40d0d2ced60a31b6044820152606401610cc4565b5050565b6000546001600160a01b031633146117565760405162461bcd60e51b8152600401610cc490612b07565b600a55565b6000546001600160a01b031633146117855760405162461bcd60e51b8152600401610cc490612b07565b601f80546001600160a01b0319166001600160a01b0392909216919091179055565b6000546001600160a01b031633146117d15760405162461bcd60e51b8152600401610cc490612b07565b60038111156118175760405162461bcd60e51b81526020600482015260126024820152716e657756616c7565206d757374203c3d203360701b6044820152606401610cc4565b601a55565b6000546001600160a01b031633146118465760405162461bcd60e51b8152600401610cc490612b07565b60008054911515600160d81b0260ff60d81b19909216919091179055565b6000546001600160a01b0316331461188e5760405162461bcd60e51b8152600401610cc490612b07565b6001600160a01b0381166118f35760405162461bcd60e51b815260206004820152602660248201527f4f776e61626c653a206e6577206f776e657220697320746865207a65726f206160448201526564647265737360d01b6064820152608401610cc4565b600080546040516001600160a01b03808516939216917f8be0079c531659141344cd1fd0a4f28419497f9722a3daafe3b4186f6b6457e091a3600080546001600160a01b0319166001600160a01b0392909216919091179055565b6001600160a01b0383811660008181526013602090815260408083209487168084529482529182902085905590518481527f8c5be1e5ebec7d5bd14f71427d1e84f3dd0314c0f7b2291e5b200ac8c7c3b92591015b60405180910390a3505050565b60006119bb84611041565b11156119fa5760405162461bcd60e51b815260206004820152600e60248201526d6973526577617264203e2030202160901b6044820152606401610cc4565b601854600160a01b900460ff1615611a1757610fa4838383612043565b6001600160a01b03831660009081526012602052604090205481811015611a735760405162461bcd60e51b815260206004820152601060248201526f0c4c2d8c2dcc6ca9cdee88adcdeeaced60831b6044820152606401610cc4565b6001600160a01b03841660009081526017602052604090205460ff16158015611ab557506001600160a01b03831660009081526017602052604090205460ff16155b8015611aca5750601954600160a01b900460ff165b8015611ad857506000601a54115b8015611b1e57506001600160a01b03841660009081526016602052604090205460ff1680611b1e57506001600160a01b03831660009081526016602052604090205460ff165b15611b98576000805b601a54811015611b7b5760408051602081018390529081018590524260608201526080016040516020818303038152906040528051906020012060001c9150611b7286836001612043565b50600101611b27565b50601a54611b8a906001612bc8565b611b949084612ba2565b9250505b600080600c546000148015611bb65750600054600160a81b900460ff165b15611c95576001600160a01b03861660009081526017602052604090205460ff16158015611bfd57506001600160a01b03851660009081526017602052604090205460ff16155b8015611c2257506001600160a01b03861660009081526016602052604090205460ff16155b8015611c4757506001600160a01b03851660009081526016602052604090205460ff16155b15611c9557843b63ffffffff1615611c955760405162461bcd60e51b8152602060048201526011602482015270063616e7420616464206f74686572206c7607c1b6044820152606401610cc4565b6001600160a01b03861660009081526016602052604090205460ff1680611cd457506001600160a01b03851660009081526016602052604090205460ff165b15611fe1576001600160a01b03861660009081526017602052604090205460ff16158015611d1b57506001600160a01b03851660009081526017602052604090205460ff16155b15611fbc57600054600160a81b900460ff168015611d395750600c54155b15611d4357600080fd5b600054600160a81b900460ff168015611d655750600054600160b01b900460ff165b8015611d7f5750600954600c54611d7c9190612bb5565b43105b15611dc8576001600160a01b03851660009081526016602052604090205460ff16611dc8576001600160a01b0385166000908152601460205260409020805460ff191660011790555b600054600160c01b900460ff1615611e59576001600160a01b03861660009081526016602052604090205460ff1615611e5957600a54841115611e595760405162461bcd60e51b815260206004820152602360248201527f4578636565646564206d6178696d756d207472616e73616374696f6e20766f6c604482015262756d6560e81b6064820152608401610cc4565b600054600160c81b900460ff168015611e8a57506001600160a01b03861660009081526016602052604090205460ff165b15611f05576001600160a01b038516600090815260126020526040902054600b54611eb58683612bb5565b1115611f035760405162461bcd60e51b815260206004820152601f60248201527f4578636565646564206d6178696d756d2077616c6c65742062616c616e6365006044820152606401610cc4565b505b6001600160a01b03851660009081526016602052604090205460ff1615611fb757601854600160a01b900460ff16611fb75730600090815260126020526040902054601d54811115611fb5576000600754600654600454600354611f699190612bb5565b611f739190612bb5565b611f7d9190612bb5565b905060006064601c5488611f919190612bc8565b611f9b9190612bdf565b905082811115611fa85750815b611fb281836120f8565b50505b505b600191505b6001600160a01b03851660009081526016602052604090205460ff1615611fe1575060015b6001600160a01b03861660009081526016602052604081205460ff1615801561202357506001600160a01b03861660009081526016602052604090205460ff16155b1561202c575060015b61203a878787868686612653565b50505050505050565b6001600160a01b03831660009081526012602052604081208054839190839061206d908490612ba2565b90915550506001600160a01b0383166000908152601260205260408120805484929061209a908490612bb5565b92505081905550826001600160a01b0316846001600160a01b03167fddf252ad1be2c89b69c2b068fc378daa952ba7f163c4a11628f55a4df523b3ef846040516120e691815260200190565b60405180910390a35060019392505050565b6018805460ff60a01b1916600160a01b179055801580612116575081155b612642576121248180612bb5565b905060006004546007546121389190612bb5565b90506000826121478386612bc8565b6121519190612bdf565b6040805160028082526060820183529293506000929091602083019080368337019050509050308160008151811061218b5761218b612b76565b6001600160a01b03928316602091820292909201015260018054835192169183919081106121bb576121bb612b76565b6001600160a01b03928316602091820292909201015260155416635c11d7956121e48488612ba2565b6019546040516001600160e01b031960e085901b168152612219929160009187916001600160a01b0316904290600401612c01565b600060405180830381600087803b15801561223357600080fd5b505af1925050508015612244575060015b612272576040517ffa4626fc78df02cb8fdea85a8af60ad29e2c95f22e2a91c79d99631c288a8b6c90600090a15b61227c8385612ba2565b6001546019546040516370a0823160e01b81526001600160a01b039182166004820152929650169060009082906370a0823190602401602060405180830381865afa1580156122cf573d6000803e3d6000fd5b505050506040513d601f19601f820116820180604052508101906122f39190612c74565b9050801561237a576019546040516323b872dd60e01b81526001600160a01b03918216600482015230602482015260448101839052908316906323b872dd906064016020604051808303816000875af1158015612354573d6000803e3d6000fd5b505050506040513d601f19601f820116820180604052508101906123789190612c8d565b505b6040516370a0823160e01b81523060048201526001600160a01b038316906370a0823190602401602060405180830381865afa1580156123be573d6000803e3d6000fd5b505050506040513d601f19601f820116820180604052508101906123e29190612c74565b90506000866123f18784612bc8565b6123fb9190612bdf565b905060006124098284612ba2565b9050801561255257600054600160a01b900460ff16156124c157600154604051632e1a7d4d60e01b8152600481018390526001600160a01b0390911690632e1a7d4d90602401600060405180830381600087803b15801561246957600080fd5b505af115801561247d573d6000803e3d6000fd5b50506002546040516001600160a01b03909116925083156108fc02915083906000818181858888f193505050501580156124bb573d6000803e3d6000fd5b5061253a565b60025460405163a9059cbb60e01b81526001600160a01b039182166004820152602481018390529085169063a9059cbb906044016020604051808303816000875af1158015612514573d6000803e3d6000fd5b505050506040513d601f19601f820116820180604052508101906125389190612c8d565b505b806020600082825461254c9190612bb5565b90915550505b6000861180156125625750600082115b1561263a57601554600154601f5460405162e8e33760e81b81523060048201526001600160a01b039283166024820152604481018a90526064810186905260006084820181905260a482015290821660c48201524260e482015291169063e8e3370090610104016060604051808303816000875af1925050508015612604575060408051601f3d908101601f1916820190925261260191810190612caa565b60015b612636576040517f0e944a8ae3ee1160b2678930fb103c5ceadb14ecbb4c16e311d7402f7011322c90600090a161263a565b5050505b505050505050505b50506018805460ff60a01b19169055565b6001600160a01b038616600090815260126020526040902054612677908590612ba2565b6001600160a01b038716600090815260126020526040812091909155831561276d57600083156126b8576007546006546126b19190612bb5565b90506126cb565b6004546003546126c89190612bb5565b90505b60006127106126da8389612bc8565b6126e49190612bdf565b90508015612703576126f68184612bb5565b925061270389308361280a565b60008561272c576127106005548961271b9190612bc8565b6127259190612bdf565b905061274a565b6127106008548961273d9190612bc8565b6127479190612bdf565b90505b80156127695761275a8185612bb5565b93506127698a61dead8361280a565b5050505b81801561279357506001600160a01b03871660009081526017602052604090205460ff16155b80156127b857506001600160a01b03861660009081526017602052604090205460ff16155b156127fb576000612710601e54876127d09190612bc8565b6127da9190612bdf565b905080156127f9576127ec8183612bb5565b91506127f988308361280a565b505b61203a878761280a8489612ba2565b6001600160a01b03821660009081526012602052604090205461282e908290612bb5565b6001600160a01b0380841660008181526012602052604090819020939093559151908516907fddf252ad1be2c89b69c2b068fc378daa952ba7f163c4a11628f55a4df523b3ef906119a39085815260200190565b6001600160a01b038116811461136e57600080fd5b6000602082840312156128a957600080fd5b81356128b481612882565b9392505050565b600080604083850312156128ce57600080fd5b82356128d981612882565b915060208301356128e981612882565b809150509250929050565b60006020828403121561290657600080fd5b5035919050565b60006020808352835180602085015260005b8181101561293b5785810183015185820160400152820161291f565b506000604082860101526040601f19601f8301168501019250505092915050565b801515811461136e57600080fd5b60006020828403121561297c57600080fd5b81356128b48161295c565b6000806040838503121561299a57600080fd5b82356129a581612882565b946020939093013593505050565b60008083601f8401126129c557600080fd5b50813567ffffffffffffffff8111156129dd57600080fd5b6020830191508360208260051b85010111156129f857600080fd5b9250929050565b600080600060408486031215612a1457600080fd5b833567ffffffffffffffff811115612a2b57600080fd5b612a37868287016129b3565b9094509250506020840135612a4b8161295c565b809150509250925092565b600080600060608486031215612a6b57600080fd5b8335612a7681612882565b92506020840135612a8681612882565b929592945050506040919091013590565b60008060408385031215612aaa57600080fd5b8235612ab581612882565b915060208301356128e98161295c565b60008060208385031215612ad857600080fd5b823567ffffffffffffffff811115612aef57600080fd5b612afb858286016129b3565b90969095509350505050565b6020808252818101527f4f776e61626c653a2063616c6c6572206973206e6f7420746865206f776e6572604082015260600190565b600181811c90821680612b5057607f821691505b602082108103612b7057634e487b7160e01b600052602260045260246000fd5b50919050565b634e487b7160e01b600052603260045260246000fd5b634e487b7160e01b600052601160045260246000fd5b81810381811115610ea557610ea5612b8c565b80820180821115610ea557610ea5612b8c565b8082028115828204841417610ea557610ea5612b8c565b600082612bfc57634e487b7160e01b600052601260045260246000fd5b500490565b600060a08201878352602087602085015260a0604085015281875180845260c08601915060208901935060005b81811015612c535784516001600160a01b031683529383019391830191600101612c2e565b50506001600160a01b03969096166060850152505050608001529392505050565b600060208284031215612c8657600080fd5b5051919050565b600060208284031215612c9f57600080fd5b81516128b48161295c565b600080600060608486031215612cbf57600080fd5b835192506020840151915060408401519050925092509256fea2646970667358221220539c7fea89fb7b3b6f260722169ecd89cd47cd83591282b557dc2c150aa020b564736f6c63430008180033608060405234801561001057600080fd5b5060405161014738038061014783398101604081905261002f916100a8565b60405163095ea7b360e01b815233600482015260001960248201526001600160a01b0382169063095ea7b3906044016020604051808303816000875af115801561007d573d6000803e3d6000fd5b505050506040513d601f19601f820116820180604052508101906100a191906100d8565b50506100fa565b6000602082840312156100ba57600080fd5b81516001600160a01b03811681146100d157600080fd5b9392505050565b6000602082840312156100ea57600080fd5b815180151581146100d157600080fd5b603f806101086000396000f3fe6080604052600080fdfea264697066735822122057b09c00657151ee17ec638e2fb61dfb0e2f4b53dc7c181ab8b8fd5fca5c508f64736f6c63430008180033","linkReferences":{}},"methodIdentifiers":{"MAX()":"d49d5181","_allowances(address,address)":"024c2ddd","_balances(address)":"6ebcf607","_buyBurnFee()":"16f2f1a8","_buyFundFee()":"ce0192f9","_buyLPFee()":"b9fbc49d","_feeWhiteList(address)":"01986fad","_mainPair()":"4188bf5a","_rewardList(address)":"bd25bf29","_sellBurnFee()":"7abdc1ca","_sellFundFee()":"3bfe62ca","_sellLPFee()":"adc7955d","_swapPairList(address)":"3c11100d","_swapRouter()":"206c17bb","_tokenDistributor()":"8718b24f","airdropEnable()":"1846a5a4","airdropNumbs()":"e32759cf","allowance(address,address)":"dd62ed3e","antiSYNC()":"35c96089","approve(address,uint256)":"095ea7b3","balanceOf(address)":"70a08231","changeSwapLimit(uint256)":"c0aa931e","changeWalletLimit(uint256)":"7db1342c","completeCustoms(uint256[])":"aa582b42","currency()":"e5a6b10f","currencyIsEth()":"15d07d82","decimals()":"313ce567","disableChangeTax()":"0f890b86","disableSwapLimit()":"063be69e","disableWalletLimit()":"697cfc19","enableChangeTax()":"d5986433","enableKillBlock()":"5a7ba73c","enableOffTrade()":"c92d567e","enableRewardList()":"b02d757f","enableSwapLimit()":"a23270d7","enableTransferFee()":"dac1dcfe","enableWalletLimit()":"03da2b23","fundAddress()":"e82bef29","generateLpReceiverAddr()":"8e1e0838","isReward(address)":"4d5ce038","kb()":"2dab693f","launch()":"01339c21","maxBuyAmount()":"88e765ff","maxWalletAmount()":"aa4bde28","multi_bclist(address[],bool)":"6108a3db","name()":"06fdde03","numTokensSellRate()":"8f6cd17d","owner()":"8da5cb5b","renounceOwnership()":"715018a6","setAirDropEnable(bool)":"07313d8d","setAirdropNumbs(uint256)":"e5c2b0a6","setAntiSYNCEnable(bool)":"ea10510e","setEnableTransferFee(bool)":"79594736","setFeeWhiteList(address[],bool)":"150e4c47","setFundAddress(address)":"85dc3004","setGenerateLpReceiverAddr(address)":"d710569b","setNumTokensSellRate(uint256)":"060e304e","setSwapAtAmount(uint256)":"6402511e","setSwapPairList(address,bool)":"a8424861","setTransferFee(uint256)":"8f02bb5b","setkb(uint256)":"14a432c9","startTradeBlock()":"553193ca","swapAtAmount()":"86917524","symbol()":"95d89b41","totalFundAmountReceive()":"ef6e4f17","totalSupply()":"18160ddd","transfer(address,uint256)":"a9059cbb","transferFee()":"acb2ad6f","transferFrom(address,address,uint256)":"23b872dd","transferOwnership(address)":"f2fde38b"},"id":47}