{
	"data": {
		"bytecode": {
			"linkReferences": {},
			"object": "608060405234801561001057600080fd5b50600080546001600160a01b03191633179055611bac806100326000396000f3fe6080604052600436106101395760003560e01c80635e43cd68116100ab578063bc4467081161006f578063bc4467081461037a578063bc7fb169146103fa578063c4d66de81461041a578063d13319c41461043a578063f851a4401461046d578063fc0c546a1461048d57600080fd5b80635e43cd68146102b25780636d0000b7146102e2578063704b6c021461031a57806388e3988f1461033a5780638fe7002c1461035a57600080fd5b806336cf7c87116100fd57806336cf7c87146101fd578063400037631461021d5780634b94f50e1461023d5780635777e93d1461025257806359d0f713146102725780635c60da1b1461029257600080fd5b806308760b0d146101455780631694505e1461016d5780632f48ab7d146101a557806332105e46146101c55780633644e515146101e757600080fd5b3661014057005b600080fd5b34801561015157600080fd5b5061015a6104ad565b6040519081526020015b60405180910390f35b34801561017957600080fd5b5060085461018d906001600160a01b031681565b6040516001600160a01b039091168152602001610164565b3480156101b157600080fd5b5060075461018d906001600160a01b031681565b3480156101d157600080fd5b506101e56101e03660046118ae565b61056c565b005b3480156101f357600080fd5b5061015a600a5481565b34801561020957600080fd5b5060065461018d906001600160a01b031681565b34801561022957600080fd5b506101e56102383660046118d2565b6105c1565b34801561024957600080fd5b5061015a6109fa565b34801561025e57600080fd5b5060055461018d906001600160a01b031681565b34801561027e57600080fd5b5060095461018d906001600160a01b031681565b34801561029e57600080fd5b5060015461018d906001600160a01b031681565b3480156102be57600080fd5b506102d26102cd3660046118d2565b610a41565b6040519015158152602001610164565b3480156102ee57600080fd5b5061015a6102fd3660046118eb565b600b60209081526000928352604080842090915290825290205481565b34801561032657600080fd5b506101e56103353660046118ae565b610a83565b34801561034657600080fd5b506101e561035536600461191b565b610acf565b34801561036657600080fd5b506101e561037536600461191b565b610b10565b34801561038657600080fd5b506103ca610395366004611947565b6003602081905260009182526040909120805460018201546002830154929093015490926001600160a01b0390811692169084565b60405161016494939291909384526001600160a01b03928316602085015291166040830152606082015260800190565b34801561040657600080fd5b506101e5610415366004611960565b610b44565b34801561042657600080fd5b506101e56104353660046118ae565b610ce2565b34801561044657600080fd5b507fb5f106453e92c83f8ef471e09a8097b99888030beb671302e7c318e4d198c6e361015a565b34801561047957600080fd5b5060005461018d906001600160a01b031681565b34801561049957600080fd5b5060045461018d906001600160a01b031681565b600080600860009054906101000a90046001600160a01b03166001600160a01b031663ad5c46486040518163ffffffff1660e01b8152600401602060405180830381865afa158015610503573d6000803e3d6000fd5b505050506040513d601f19601f820116820180604052508101906105279190611989565b600954600754919250600091829161054d916001600160a01b0391821691869116610e6d565b91509150610564670de0b6b3a76400008383610f37565b935050505090565b6000546001600160a01b0316331461059f5760405162461bcd60e51b8152600401610596906119a6565b60405180910390fd5b600580546001600160a01b0319166001600160a01b0392909216919091179055565b428160800135101561061f5760405162461bcd60e51b815260206004820152602160248201527f506c65646167653a496e76616c6964207769746864726177206475726174696f6044820152603760f91b6064820152608401610596565b61062881610a41565b6106745760405162461bcd60e51b815260206004820152601d60248201527f506c65646167653a496e76616c696420776974686472617720646174610000006044820152606401610596565b600061068660408301602084016118ae565b6001600160a01b0316036106dc5760405162461bcd60e51b815260206004820181905260248201527f506c65646167653a496e76616c696420776974686472617720616464726573736044820152606401610596565b60008160400135116107305760405162461bcd60e51b815260206004820152601f60248201527f506c65646167653a496e76616c696420776974686472617720616d6f756e74006044820152606401610596565b606081013560009081526003602081815260408084209283015483548552600b835281852060018501546001600160a01b0316865290925290922054909190036107bc5760405162461bcd60e51b815260206004820152601c60248201527f506c65646167653a5265706561746564207769746864726177616c73000000006044820152606401610596565b81604001358160030160008282546107d491906119e9565b909155506107e7905060208301836118ae565b6002820180546001600160a01b0319166001600160a01b039290921691909117905561081960408301602084016118ae565b6001820180546001600160a01b0319166001600160a01b03928316908117909155600383015483546000908152600b602090815260408083209483529390529190912055600454600283015490821691160361095a576004546108af906001600160a01b031661088f60408501602086016118ae565b60646108a0604087013560636119fc565b6108aa9190611a13565b611056565b6004546108e0906001600160a01b03166108cf60408501602086016118ae565b60646108a0604087013560016119fc565b7ffe7813e2866053d5c3938554e517b554fce6666a6561bed9eaa7419b29fa9b68606083013561091660408501602086016118ae565b61092360208601866118ae565b604080519384526001600160a01b039283166020850152911682820152840135606082015242608082015260a00160405180910390a15b60028101546001600160a01b03166109f65761098961097f60408401602085016118ae565b8360400135611171565b7ffe7813e2866053d5c3938554e517b554fce6666a6561bed9eaa7419b29fa9b6860608301356109bf60408501602086016118ae565b604080519283526001600160a01b039091166020830152600082820152840135606082015242608082015260a00160405180910390a15b5050565b60095460045460075460009283928392610a23926001600160a01b039081169281169116610e6d565b91509150610a3a670de0b6b3a76400008383610f37565b9250505090565b6000610a7d610a4f8361123f565b6005546001600160a01b0316610a6b60c0860160a08701611a35565b8560c001358660e00135600a546112e3565b92915050565b6000546001600160a01b03163314610aad5760405162461bcd60e51b8152600401610596906119a6565b600080546001600160a01b0319166001600160a01b0392909216919091179055565b6000546001600160a01b03163314610af95760405162461bcd60e51b8152600401610596906119a6565b6004546109f6906001600160a01b03168383611056565b6000546001600160a01b03163314610b3a5760405162461bcd60e51b8152600401610596906119a6565b6109f68282611171565b68056bc75e2d63100000821015610b9d5760405162461bcd60e51b815260206004820152601e60248201527f506c65646167653a496e76616c69642070726f7669646520616d6f756e7400006044820152606401610596565b6000816004811115610bb157610bb1611a58565b03610c095760405162461bcd60e51b815260206004820152602260248201527f506c65646167653a496e76616c69642070726f7669646520657870697261746960448201526137b760f11b6064820152608401610596565b600454610c21906001600160a01b031633308561134b565b3360009081526002602081815260408320805460018082018355828652838620909101879055928101805493840181558452928190209082040180548492601f166101000a60ff81021990911690836004811115610c8157610c81611a58565b02179055506001808201805491820181556000908152602090204291018190556040517f1ab2d7016a285cf7ca78bdd1c8a8e845f082fe124067d9137646150ced64081691610cd591339187918790611a6e565b60405180910390a1505050565b6000546001600160a01b03163314610d0c5760405162461bcd60e51b8152600401610596906119a6565b600880546001600160a01b03199081167310ed43c718714eb63d5aa57b78b54704e256024e1790915560098054821673ca143ce32fe78f1f7019d7d551a6402fc5350c731790556007805482167355d398326f99059ff775485246999027b319795517905560068054821661dead1790556004805482167333e0b24aaea62500ca79d33e26efe576bbf5bacf179055600580546001600160a01b0384169216919091179055610e6a60408051808201825260018152603160f81b60209182015281517f8b73c3c69bb8fe3d512ecc4cf759cc79239f7b179b0ffacaa9a75d522b39400f818301527fed9e26fc34b201817108d14db5e93fff6700cff6f5e90ac3b3da395aba756b5c818401527fc89efdaa54c0f20c7adf612882df0950f5a951637e0307cdcb4c672f298b8bc660608201524660808201523060a0808301919091528351808303909101815260c09091019092528151910120600a55565b50565b6000806000610e7c858561147b565b509050600080610e8d888888611572565b6001600160a01b0316630902f1ac6040518163ffffffff1660e01b8152600401606060405180830381865afa158015610eca573d6000803e3d6000fd5b505050506040513d601f19601f82011682018060405250810190610eee9190611ad5565b506001600160701b031691506001600160701b03169150826001600160a01b0316876001600160a01b031614610f25578082610f28565b81815b90999098509650505050505050565b6000808411610f9c5760405162461bcd60e51b815260206004820152602b60248201527f556e697377617056324c6962726172793a20494e53554646494349454e545f4960448201526a1394155517d05353d5539560aa1b6064820152608401610596565b600083118015610fac5750600082115b6110095760405162461bcd60e51b815260206004820152602860248201527f556e697377617056324c6962726172793a20494e53554646494349454e545f4c604482015267495155494449545960c01b6064820152608401610596565b6000611017856103e561164a565b90506000611025828561164a565b9050600061103f83611039886103e861164a565b906116b1565b905061104b8183611a13565b979650505050505050565b604080516001600160a01b038481166024830152604480830185905283518084039091018152606490920183526020820180516001600160e01b031663a9059cbb60e01b17905291516000928392908716916110b29190611b25565b6000604051808303816000865af19150503d80600081146110ef576040519150601f19603f3d011682016040523d82523d6000602084013e6110f4565b606091505b509150915081801561111e57508051158061111e57508080602001905181019061111e9190611b54565b61116a5760405162461bcd60e51b815260206004820152601f60248201527f5472616e7366657248656c7065723a205452414e534645525f4641494c4544006044820152606401610596565b5050505050565b604080516000808252602082019092526001600160a01b03841690839060405161119b9190611b25565b60006040518083038185875af1925050503d80600081146111d8576040519150601f19603f3d011682016040523d82523d6000602084013e6111dd565b606091505b505090508061123a5760405162461bcd60e51b815260206004820152602360248201527f5472616e7366657248656c7065723a204554485f5452414e534645525f46414960448201526213115160ea1b6064820152608401610596565b505050565b60007fb5f106453e92c83f8ef471e09a8097b99888030beb671302e7c318e4d198c6e361126f60208401846118ae565b61127f60408501602086016118ae565b6040805160208101949094526001600160a01b03928316848201529116606083810191909152908401356080838101919091529084013560a083015283013560c082015260e001604051602081830303815290604052805190602001209050919050565b60405161190160f01b602082015260228101829052604281018790526000908190606201604051602081830303815290604052805190602001209050866001600160a01b031661133582888888611706565b6001600160a01b03161498975050505050505050565b604080516001600160a01b0385811660248301528481166044830152606480830185905283518084039091018152608490920183526020820180516001600160e01b03166323b872dd60e01b17905291516000928392908816916113af9190611b25565b6000604051808303816000865af19150503d80600081146113ec576040519150601f19603f3d011682016040523d82523d6000602084013e6113f1565b606091505b509150915081801561141b57508051158061141b57508080602001905181019061141b9190611b54565b6114735760405162461bcd60e51b8152602060048201526024808201527f5472616e7366657248656c7065723a205452414e534645525f46524f4d5f46416044820152631253115160e21b6064820152608401610596565b505050505050565b600080826001600160a01b0316846001600160a01b0316036114ed5760405162461bcd60e51b815260206004820152602560248201527f556e697377617056324c6962726172793a204944454e544943414c5f41444452604482015264455353455360d81b6064820152608401610596565b826001600160a01b0316846001600160a01b03161061150d578284611510565b83835b90925090506001600160a01b03821661156b5760405162461bcd60e51b815260206004820152601e60248201527f556e697377617056324c6962726172793a205a45524f5f4144445245535300006044820152606401610596565b9250929050565b6000806000611581858561147b565b6040516bffffffffffffffffffffffff19606084811b8216602084015283901b16603482015291935091508690604801604051602081830303815290604052805190602001206040516020016116289291906001600160f81b0319815260609290921b6bffffffffffffffffffffffff1916600183015260158201527efb7f630766e6a796048ea87d01acd3068e8ff67d078148a3fa3f4a84f69bd5603582015260550190565b60408051601f1981840301815291905280516020909101209695505050505050565b600081158061166e5750828261166081836119fc565b925061166c9083611a13565b145b610a7d5760405162461bcd60e51b815260206004820152601460248201527364732d6d6174682d6d756c2d6f766572666c6f7760601b6044820152606401610596565b6000826116be83826119e9565b9150811015610a7d5760405162461bcd60e51b815260206004820152601460248201527364732d6d6174682d6164642d6f766572666c6f7760601b6044820152606401610596565b60007f7fffffffffffffffffffffffffffffff5d576e7357a4501ddfe92f46681b20a08211156117785760405162461bcd60e51b815260206004820152601e60248201527f5369676e61747572653a20496e76616c6964207320706172616d6574657200006044820152606401610596565b8360ff16601b148061178d57508360ff16601c145b6117d95760405162461bcd60e51b815260206004820152601e60248201527f5369676e61747572653a20496e76616c6964207620706172616d6574657200006044820152606401610596565b6040805160008082526020820180845288905260ff871692820192909252606081018590526080810184905260019060a0016020604051602081039080840390855afa15801561182d573d6000803e3d6000fd5b5050604051601f1901519150506001600160a01b0381166118905760405162461bcd60e51b815260206004820152601960248201527f5369676e61747572653a20496e76616c6964207369676e6572000000000000006044820152606401610596565b95945050505050565b6001600160a01b0381168114610e6a57600080fd5b6000602082840312156118c057600080fd5b81356118cb81611899565b9392505050565b600061010082840312156118e557600080fd5b50919050565b600080604083850312156118fe57600080fd5b82359150602083013561191081611899565b809150509250929050565b6000806040838503121561192e57600080fd5b823561193981611899565b946020939093013593505050565b60006020828403121561195957600080fd5b5035919050565b6000806040838503121561197357600080fd5b8235915060208301356005811061191057600080fd5b60006020828403121561199b57600080fd5b81516118cb81611899565b60208082526013908201527221b0b63632b91034b9903737ba1037bbb732b960691b604082015260600190565b634e487b7160e01b600052601160045260246000fd5b80820180821115610a7d57610a7d6119d3565b8082028115828204841417610a7d57610a7d6119d3565b600082611a3057634e487b7160e01b600052601260045260246000fd5b500490565b600060208284031215611a4757600080fd5b813560ff811681146118cb57600080fd5b634e487b7160e01b600052602160045260246000fd5b6001600160a01b038516815260208101849052604081018390526080810160058310611aaa57634e487b7160e01b600052602160045260246000fd5b82606083015295945050505050565b80516001600160701b0381168114611ad057600080fd5b919050565b600080600060608486031215611aea57600080fd5b611af384611ab9565b9250611b0160208501611ab9565b9150604084015163ffffffff81168114611b1a57600080fd5b809150509250925092565b6000825160005b81811015611b465760208186018101518583015201611b2c565b506000920191825250919050565b600060208284031215611b6657600080fd5b815180151581146118cb57600080fdfea26469706673582212203dd0a17b462bff02cfd963beef0f89d3d369a633c074b3ba73a81decb229532164736f6c63430008120033",
			"opcodes": "PUSH1 0x80 PUSH1 0x40 MSTORE CALLVALUE DUP1 ISZERO PUSH2 0x10 JUMPI PUSH1 0x0 DUP1 REVERT JUMPDEST POP PUSH1 0x0 DUP1 SLOAD PUSH1 0x1 PUSH1 0x1 PUSH1 0xA0 SHL SUB NOT AND CALLER OR SWAP1 SSTORE PUSH2 0x1BAC DUP1 PUSH2 0x32 PUSH1 0x0 CODECOPY PUSH1 0x0 RETURN INVALID PUSH1 0x80 PUSH1 0x40 MSTORE PUSH1 0x4 CALLDATASIZE LT PUSH2 0x139 JUMPI PUSH1 0x0 CALLDATALOAD PUSH1 0xE0 SHR DUP1 PUSH4 0x5E43CD68 GT PUSH2 0xAB JUMPI DUP1 PUSH4 0xBC446708 GT PUSH2 0x6F JUMPI DUP1 PUSH4 0xBC446708 EQ PUSH2 0x37A JUMPI DUP1 PUSH4 0xBC7FB169 EQ PUSH2 0x3FA JUMPI DUP1 PUSH4 0xC4D66DE8 EQ PUSH2 0x41A JUMPI DUP1 PUSH4 0xD13319C4 EQ PUSH2 0x43A JUMPI DUP1 PUSH4 0xF851A440 EQ PUSH2 0x46D JUMPI DUP1 PUSH4 0xFC0C546A EQ PUSH2 0x48D JUMPI PUSH1 0x0 DUP1 REVERT JUMPDEST DUP1 PUSH4 0x5E43CD68 EQ PUSH2 0x2B2 JUMPI DUP1 PUSH4 0x6D0000B7 EQ PUSH2 0x2E2 JUMPI DUP1 PUSH4 0x704B6C02 EQ PUSH2 0x31A JUMPI DUP1 PUSH4 0x88E3988F EQ PUSH2 0x33A JUMPI DUP1 PUSH4 0x8FE7002C EQ PUSH2 0x35A JUMPI PUSH1 0x0 DUP1 REVERT JUMPDEST DUP1 PUSH4 0x36CF7C87 GT PUSH2 0xFD JUMPI DUP1 PUSH4 0x36CF7C87 EQ PUSH2 0x1FD JUMPI DUP1 PUSH4 0x40003763 EQ PUSH2 0x21D JUMPI DUP1 PUSH4 0x4B94F50E EQ PUSH2 0x23D JUMPI DUP1 PUSH4 0x5777E93D EQ PUSH2 0x252 JUMPI DUP1 PUSH4 0x59D0F713 EQ PUSH2 0x272 JUMPI DUP1 PUSH4 0x5C60DA1B EQ PUSH2 0x292 JUMPI PUSH1 0x0 DUP1 REVERT JUMPDEST DUP1 PUSH4 0x8760B0D EQ PUSH2 0x145 JUMPI DUP1 PUSH4 0x1694505E EQ PUSH2 0x16D JUMPI DUP1 PUSH4 0x2F48AB7D EQ PUSH2 0x1A5 JUMPI DUP1 PUSH4 0x32105E46 EQ PUSH2 0x1C5 JUMPI DUP1 PUSH4 0x3644E515 EQ PUSH2 0x1E7 JUMPI PUSH1 0x0 DUP1 REVERT JUMPDEST CALLDATASIZE PUSH2 0x140 JUMPI STOP JUMPDEST PUSH1 0x0 DUP1 REVERT JUMPDEST CALLVALUE DUP1 ISZERO PUSH2 0x151 JUMPI PUSH1 0x0 DUP1 REVERT JUMPDEST POP PUSH2 0x15A PUSH2 0x4AD JUMP JUMPDEST PUSH1 0x40 MLOAD SWAP1 DUP2 MSTORE PUSH1 0x20 ADD JUMPDEST PUSH1 0x40 MLOAD DUP1 SWAP2 SUB SWAP1 RETURN JUMPDEST CALLVALUE DUP1 ISZERO PUSH2 0x179 JUMPI PUSH1 0x0 DUP1 REVERT JUMPDEST POP PUSH1 0x8 SLOAD PUSH2 0x18D SWAP1 PUSH1 0x1 PUSH1 0x1 PUSH1 0xA0 SHL SUB AND DUP2 JUMP JUMPDEST PUSH1 0x40 MLOAD PUSH1 0x1 PUSH1 0x1 PUSH1 0xA0 SHL SUB SWAP1 SWAP2 AND DUP2 MSTORE PUSH1 0x20 ADD PUSH2 0x164 JUMP JUMPDEST CALLVALUE DUP1 ISZERO PUSH2 0x1B1 JUMPI PUSH1 0x0 DUP1 REVERT JUMPDEST POP PUSH1 0x7 SLOAD PUSH2 0x18D SWAP1 PUSH1 0x1 PUSH1 0x1 PUSH1 0xA0 SHL SUB AND DUP2 JUMP JUMPDEST CALLVALUE DUP1 ISZERO PUSH2 0x1D1 JUMPI PUSH1 0x0 DUP1 REVERT JUMPDEST POP PUSH2 0x1E5 PUSH2 0x1E0 CALLDATASIZE PUSH1 0x4 PUSH2 0x18AE JUMP JUMPDEST PUSH2 0x56C JUMP JUMPDEST STOP JUMPDEST CALLVALUE DUP1 ISZERO PUSH2 0x1F3 JUMPI PUSH1 0x0 DUP1 REVERT JUMPDEST POP PUSH2 0x15A PUSH1 0xA SLOAD DUP2 JUMP JUMPDEST CALLVALUE DUP1 ISZERO PUSH2 0x209 JUMPI PUSH1 0x0 DUP1 REVERT JUMPDEST POP PUSH1 0x6 SLOAD PUSH2 0x18D SWAP1 PUSH1 0x1 PUSH1 0x1 PUSH1 0xA0 SHL SUB AND DUP2 JUMP JUMPDEST CALLVALUE DUP1 ISZERO PUSH2 0x229 JUMPI PUSH1 0x0 DUP1 REVERT JUMPDEST POP PUSH2 0x1E5 PUSH2 0x238 CALLDATASIZE PUSH1 0x4 PUSH2 0x18D2 JUMP JUMPDEST PUSH2 0x5C1 JUMP JUMPDEST CALLVALUE DUP1 ISZERO PUSH2 0x249 JUMPI PUSH1 0x0 DUP1 REVERT JUMPDEST POP PUSH2 0x15A PUSH2 0x9FA JUMP JUMPDEST CALLVALUE DUP1 ISZERO PUSH2 0x25E JUMPI PUSH1 0x0 DUP1 REVERT JUMPDEST POP PUSH1 0x5 SLOAD PUSH2 0x18D SWAP1 PUSH1 0x1 PUSH1 0x1 PUSH1 0xA0 SHL SUB AND DUP2 JUMP JUMPDEST CALLVALUE DUP1 ISZERO PUSH2 0x27E JUMPI PUSH1 0x0 DUP1 REVERT JUMPDEST POP PUSH1 0x9 SLOAD PUSH2 0x18D SWAP1 PUSH1 0x1 PUSH1 0x1 PUSH1 0xA0 SHL SUB AND DUP2 JUMP JUMPDEST CALLVALUE DUP1 ISZERO PUSH2 0x29E JUMPI PUSH1 0x0 DUP1 REVERT JUMPDEST POP PUSH1 0x1 SLOAD PUSH2 0x18D SWAP1 PUSH1 0x1 PUSH1 0x1 PUSH1 0xA0 SHL SUB AND DUP2 JUMP JUMPDEST CALLVALUE DUP1 ISZERO PUSH2 0x2BE JUMPI PUSH1 0x0 DUP1 REVERT JUMPDEST POP PUSH2 0x2D2 PUSH2 0x2CD CALLDATASIZE PUSH1 0x4 PUSH2 0x18D2 JUMP JUMPDEST PUSH2 0xA41 JUMP JUMPDEST PUSH1 0x40 MLOAD SWAP1 ISZERO ISZERO DUP2 MSTORE PUSH1 0x20 ADD PUSH2 0x164 JUMP JUMPDEST CALLVALUE DUP1 ISZERO PUSH2 0x2EE JUMPI PUSH1 0x0 DUP1 REVERT JUMPDEST POP PUSH2 0x15A PUSH2 0x2FD CALLDATASIZE PUSH1 0x4 PUSH2 0x18EB JUMP JUMPDEST PUSH1 0xB PUSH1 0x20 SWAP1 DUP2 MSTORE PUSH1 0x0 SWAP3 DUP4 MSTORE PUSH1 0x40 DUP1 DUP5 KECCAK256 SWAP1 SWAP2 MSTORE SWAP1 DUP3 MSTORE SWAP1 KECCAK256 SLOAD DUP2 JUMP JUMPDEST CALLVALUE DUP1 ISZERO PUSH2 0x326 JUMPI PUSH1 0x0 DUP1 REVERT JUMPDEST POP PUSH2 0x1E5 PUSH2 0x335 CALLDATASIZE PUSH1 0x4 PUSH2 0x18AE JUMP JUMPDEST PUSH2 0xA83 JUMP JUMPDEST CALLVALUE DUP1 ISZERO PUSH2 0x346 JUMPI PUSH1 0x0 DUP1 REVERT JUMPDEST POP PUSH2 0x1E5 PUSH2 0x355 CALLDATASIZE PUSH1 0x4 PUSH2 0x191B JUMP JUMPDEST PUSH2 0xACF JUMP JUMPDEST CALLVALUE DUP1 ISZERO PUSH2 0x366 JUMPI PUSH1 0x0 DUP1 REVERT JUMPDEST POP PUSH2 0x1E5 PUSH2 0x375 CALLDATASIZE PUSH1 0x4 PUSH2 0x191B JUMP JUMPDEST PUSH2 0xB10 JUMP JUMPDEST CALLVALUE DUP1 ISZERO PUSH2 0x386 JUMPI PUSH1 0x0 DUP1 REVERT JUMPDEST POP PUSH2 0x3CA PUSH2 0x395 CALLDATASIZE PUSH1 0x4 PUSH2 0x1947 JUMP JUMPDEST PUSH1 0x3 PUSH1 0x20 DUP2 SWAP1 MSTORE PUSH1 0x0 SWAP2 DUP3 MSTORE PUSH1 0x40 SWAP1 SWAP2 KECCAK256 DUP1 SLOAD PUSH1 0x1 DUP3 ADD SLOAD PUSH1 0x2 DUP4 ADD SLOAD SWAP3 SWAP1 SWAP4 ADD SLOAD SWAP1 SWAP3 PUSH1 0x1 PUSH1 0x1 PUSH1 0xA0 SHL SUB SWAP1 DUP2 AND SWAP3 AND SWAP1 DUP5 JUMP JUMPDEST PUSH1 0x40 MLOAD PUSH2 0x164 SWAP5 SWAP4 SWAP3 SWAP2 SWAP1 SWAP4 DUP5 MSTORE PUSH1 0x1 PUSH1 0x1 PUSH1 0xA0 SHL SUB SWAP3 DUP4 AND PUSH1 0x20 DUP6 ADD MSTORE SWAP2 AND PUSH1 0x40 DUP4 ADD MSTORE PUSH1 0x60 DUP3 ADD MSTORE PUSH1 0x80 ADD SWAP1 JUMP JUMPDEST CALLVALUE DUP1 ISZERO PUSH2 0x406 JUMPI PUSH1 0x0 DUP1 REVERT JUMPDEST POP PUSH2 0x1E5 PUSH2 0x415 CALLDATASIZE PUSH1 0x4 PUSH2 0x1960 JUMP JUMPDEST PUSH2 0xB44 JUMP JUMPDEST CALLVALUE DUP1 ISZERO PUSH2 0x426 JUMPI PUSH1 0x0 DUP1 REVERT JUMPDEST POP PUSH2 0x1E5 PUSH2 0x435 CALLDATASIZE PUSH1 0x4 PUSH2 0x18AE JUMP JUMPDEST PUSH2 0xCE2 JUMP JUMPDEST CALLVALUE DUP1 ISZERO PUSH2 0x446 JUMPI PUSH1 0x0 DUP1 REVERT JUMPDEST POP PUSH32 0xB5F106453E92C83F8EF471E09A8097B99888030BEB671302E7C318E4D198C6E3 PUSH2 0x15A JUMP JUMPDEST CALLVALUE DUP1 ISZERO PUSH2 0x479 JUMPI PUSH1 0x0 DUP1 REVERT JUMPDEST POP PUSH1 0x0 SLOAD PUSH2 0x18D SWAP1 PUSH1 0x1 PUSH1 0x1 PUSH1 0xA0 SHL SUB AND DUP2 JUMP JUMPDEST CALLVALUE DUP1 ISZERO PUSH2 0x499 JUMPI PUSH1 0x0 DUP1 REVERT JUMPDEST POP PUSH1 0x4 SLOAD PUSH2 0x18D SWAP1 PUSH1 0x1 PUSH1 0x1 PUSH1 0xA0 SHL SUB AND DUP2 JUMP JUMPDEST PUSH1 0x0 DUP1 PUSH1 0x8 PUSH1 0x0 SWAP1 SLOAD SWAP1 PUSH2 0x100 EXP SWAP1 DIV PUSH1 0x1 PUSH1 0x1 PUSH1 0xA0 SHL SUB AND PUSH1 0x1 PUSH1 0x1 PUSH1 0xA0 SHL SUB AND PUSH4 0xAD5C4648 PUSH1 0x40 MLOAD DUP2 PUSH4 0xFFFFFFFF AND PUSH1 0xE0 SHL DUP2 MSTORE PUSH1 0x4 ADD PUSH1 0x20 PUSH1 0x40 MLOAD DUP1 DUP4 SUB DUP2 DUP7 GAS STATICCALL ISZERO DUP1 ISZERO PUSH2 0x503 JUMPI RETURNDATASIZE PUSH1 0x0 DUP1 RETURNDATACOPY RETURNDATASIZE PUSH1 0x0 REVERT JUMPDEST POP POP POP POP PUSH1 0x40 MLOAD RETURNDATASIZE PUSH1 0x1F NOT PUSH1 0x1F DUP3 ADD AND DUP3 ADD DUP1 PUSH1 0x40 MSTORE POP DUP2 ADD SWAP1 PUSH2 0x527 SWAP2 SWAP1 PUSH2 0x1989 JUMP JUMPDEST PUSH1 0x9 SLOAD PUSH1 0x7 SLOAD SWAP2 SWAP3 POP PUSH1 0x0 SWAP2 DUP3 SWAP2 PUSH2 0x54D SWAP2 PUSH1 0x1 PUSH1 0x1 PUSH1 0xA0 SHL SUB SWAP2 DUP3 AND SWAP2 DUP7 SWAP2 AND PUSH2 0xE6D JUMP JUMPDEST SWAP2 POP SWAP2 POP PUSH2 0x564 PUSH8 0xDE0B6B3A7640000 DUP4 DUP4 PUSH2 0xF37 JUMP JUMPDEST SWAP4 POP POP POP POP SWAP1 JUMP JUMPDEST PUSH1 0x0 SLOAD PUSH1 0x1 PUSH1 0x1 PUSH1 0xA0 SHL SUB AND CALLER EQ PUSH2 0x59F JUMPI PUSH1 0x40 MLOAD PUSH3 0x461BCD PUSH1 0xE5 SHL DUP2 MSTORE PUSH1 0x4 ADD PUSH2 0x596 SWAP1 PUSH2 0x19A6 JUMP JUMPDEST PUSH1 0x40 MLOAD DUP1 SWAP2 SUB SWAP1 REVERT JUMPDEST PUSH1 0x5 DUP1 SLOAD PUSH1 0x1 PUSH1 0x1 PUSH1 0xA0 SHL SUB NOT AND PUSH1 0x1 PUSH1 0x1 PUSH1 0xA0 SHL SUB SWAP3 SWAP1 SWAP3 AND SWAP2 SWAP1 SWAP2 OR SWAP1 SSTORE JUMP JUMPDEST TIMESTAMP DUP2 PUSH1 0x80 ADD CALLDATALOAD LT ISZERO PUSH2 0x61F JUMPI PUSH1 0x40 MLOAD PUSH3 0x461BCD PUSH1 0xE5 SHL DUP2 MSTORE PUSH1 0x20 PUSH1 0x4 DUP3 ADD MSTORE PUSH1 0x21 PUSH1 0x24 DUP3 ADD MSTORE PUSH32 0x506C65646167653A496E76616C6964207769746864726177206475726174696F PUSH1 0x44 DUP3 ADD MSTORE PUSH1 0x37 PUSH1 0xF9 SHL PUSH1 0x64 DUP3 ADD MSTORE PUSH1 0x84 ADD PUSH2 0x596 JUMP JUMPDEST PUSH2 0x628 DUP2 PUSH2 0xA41 JUMP JUMPDEST PUSH2 0x674 JUMPI PUSH1 0x40 MLOAD PUSH3 0x461BCD PUSH1 0xE5 SHL DUP2 MSTORE PUSH1 0x20 PUSH1 0x4 DUP3 ADD MSTORE PUSH1 0x1D PUSH1 0x24 DUP3 ADD MSTORE PUSH32 0x506C65646167653A496E76616C69642077697468647261772064617461000000 PUSH1 0x44 DUP3 ADD MSTORE PUSH1 0x64 ADD PUSH2 0x596 JUMP JUMPDEST PUSH1 0x0 PUSH2 0x686 PUSH1 0x40 DUP4 ADD PUSH1 0x20 DUP5 ADD PUSH2 0x18AE JUMP JUMPDEST PUSH1 0x1 PUSH1 0x1 PUSH1 0xA0 SHL SUB AND SUB PUSH2 0x6DC JUMPI PUSH1 0x40 MLOAD PUSH3 0x461BCD PUSH1 0xE5 SHL DUP2 MSTORE PUSH1 0x20 PUSH1 0x4 DUP3 ADD DUP2 SWAP1 MSTORE PUSH1 0x24 DUP3 ADD MSTORE PUSH32 0x506C65646167653A496E76616C69642077697468647261772061646472657373 PUSH1 0x44 DUP3 ADD MSTORE PUSH1 0x64 ADD PUSH2 0x596 JUMP JUMPDEST PUSH1 0x0 DUP2 PUSH1 0x40 ADD CALLDATALOAD GT PUSH2 0x730 JUMPI PUSH1 0x40 MLOAD PUSH3 0x461BCD PUSH1 0xE5 SHL DUP2 MSTORE PUSH1 0x20 PUSH1 0x4 DUP3 ADD MSTORE PUSH1 0x1F PUSH1 0x24 DUP3 ADD MSTORE PUSH32 0x506C65646167653A496E76616C696420776974686472617720616D6F756E7400 PUSH1 0x44 DUP3 ADD MSTORE PUSH1 0x64 ADD PUSH2 0x596 JUMP JUMPDEST PUSH1 0x60 DUP2 ADD CALLDATALOAD PUSH1 0x0 SWAP1 DUP2 MSTORE PUSH1 0x3 PUSH1 0x20 DUP2 DUP2 MSTORE PUSH1 0x40 DUP1 DUP5 KECCAK256 SWAP3 DUP4 ADD SLOAD DUP4 SLOAD DUP6 MSTORE PUSH1 0xB DUP4 MSTORE DUP2 DUP6 KECCAK256 PUSH1 0x1 DUP6 ADD SLOAD PUSH1 0x1 PUSH1 0x1 PUSH1 0xA0 SHL SUB AND DUP7 MSTORE SWAP1 SWAP3 MSTORE SWAP1 SWAP3 KECCAK256 SLOAD SWAP1 SWAP2 SWAP1 SUB PUSH2 0x7BC JUMPI PUSH1 0x40 MLOAD PUSH3 0x461BCD PUSH1 0xE5 SHL DUP2 MSTORE PUSH1 0x20 PUSH1 0x4 DUP3 ADD MSTORE PUSH1 0x1C PUSH1 0x24 DUP3 ADD MSTORE PUSH32 0x506C65646167653A5265706561746564207769746864726177616C7300000000 PUSH1 0x44 DUP3 ADD MSTORE PUSH1 0x64 ADD PUSH2 0x596 JUMP JUMPDEST DUP2 PUSH1 0x40 ADD CALLDATALOAD DUP2 PUSH1 0x3 ADD PUSH1 0x0 DUP3 DUP3 SLOAD PUSH2 0x7D4 SWAP2 SWAP1 PUSH2 0x19E9 JUMP JUMPDEST SWAP1 SWAP2 SSTORE POP PUSH2 0x7E7 SWAP1 POP PUSH1 0x20 DUP4 ADD DUP4 PUSH2 0x18AE JUMP JUMPDEST PUSH1 0x2 DUP3 ADD DUP1 SLOAD PUSH1 0x1 PUSH1 0x1 PUSH1 0xA0 SHL SUB NOT AND PUSH1 0x1 PUSH1 0x1 PUSH1 0xA0 SHL SUB SWAP3 SWAP1 SWAP3 AND SWAP2 SWAP1 SWAP2 OR SWAP1 SSTORE PUSH2 0x819 PUSH1 0x40 DUP4 ADD PUSH1 0x20 DUP5 ADD PUSH2 0x18AE JUMP JUMPDEST PUSH1 0x1 DUP3 ADD DUP1 SLOAD PUSH1 0x1 PUSH1 0x1 PUSH1 0xA0 SHL SUB NOT AND PUSH1 0x1 PUSH1 0x1 PUSH1 0xA0 SHL SUB SWAP3 DUP4 AND SWAP1 DUP2 OR SWAP1 SWAP2 SSTORE PUSH1 0x3 DUP4 ADD SLOAD DUP4 SLOAD PUSH1 0x0 SWAP1 DUP2 MSTORE PUSH1 0xB PUSH1 0x20 SWAP1 DUP2 MSTORE PUSH1 0x40 DUP1 DUP4 KECCAK256 SWAP5 DUP4 MSTORE SWAP4 SWAP1 MSTORE SWAP2 SWAP1 SWAP2 KECCAK256 SSTORE PUSH1 0x4 SLOAD PUSH1 0x2 DUP4 ADD SLOAD SWAP1 DUP3 AND SWAP2 AND SUB PUSH2 0x95A JUMPI PUSH1 0x4 SLOAD PUSH2 0x8AF SWAP1 PUSH1 0x1 PUSH1 0x1 PUSH1 0xA0 SHL SUB AND PUSH2 0x88F PUSH1 0x40 DUP6 ADD PUSH1 0x20 DUP7 ADD PUSH2 0x18AE JUMP JUMPDEST PUSH1 0x64 PUSH2 0x8A0 PUSH1 0x40 DUP8 ADD CALLDATALOAD PUSH1 0x63 PUSH2 0x19FC JUMP JUMPDEST PUSH2 0x8AA SWAP2 SWAP1 PUSH2 0x1A13 JUMP JUMPDEST PUSH2 0x1056 JUMP JUMPDEST PUSH1 0x4 SLOAD PUSH2 0x8E0 SWAP1 PUSH1 0x1 PUSH1 0x1 PUSH1 0xA0 SHL SUB AND PUSH2 0x8CF PUSH1 0x40 DUP6 ADD PUSH1 0x20 DUP7 ADD PUSH2 0x18AE JUMP JUMPDEST PUSH1 0x64 PUSH2 0x8A0 PUSH1 0x40 DUP8 ADD CALLDATALOAD PUSH1 0x1 PUSH2 0x19FC JUMP JUMPDEST PUSH32 0xFE7813E2866053D5C3938554E517B554FCE6666A6561BED9EAA7419B29FA9B68 PUSH1 0x60 DUP4 ADD CALLDATALOAD PUSH2 0x916 PUSH1 0x40 DUP6 ADD PUSH1 0x20 DUP7 ADD PUSH2 0x18AE JUMP JUMPDEST PUSH2 0x923 PUSH1 0x20 DUP7 ADD DUP7 PUSH2 0x18AE JUMP JUMPDEST PUSH1 0x40 DUP1 MLOAD SWAP4 DUP5 MSTORE PUSH1 0x1 PUSH1 0x1 PUSH1 0xA0 SHL SUB SWAP3 DUP4 AND PUSH1 0x20 DUP6 ADD MSTORE SWAP2 AND DUP3 DUP3 ADD MSTORE DUP5 ADD CALLDATALOAD PUSH1 0x60 DUP3 ADD MSTORE TIMESTAMP PUSH1 0x80 DUP3 ADD MSTORE PUSH1 0xA0 ADD PUSH1 0x40 MLOAD DUP1 SWAP2 SUB SWAP1 LOG1 JUMPDEST PUSH1 0x2 DUP2 ADD SLOAD PUSH1 0x1 PUSH1 0x1 PUSH1 0xA0 SHL SUB AND PUSH2 0x9F6 JUMPI PUSH2 0x989 PUSH2 0x97F PUSH1 0x40 DUP5 ADD PUSH1 0x20 DUP6 ADD PUSH2 0x18AE JUMP JUMPDEST DUP4 PUSH1 0x40 ADD CALLDATALOAD PUSH2 0x1171 JUMP JUMPDEST PUSH32 0xFE7813E2866053D5C3938554E517B554FCE6666A6561BED9EAA7419B29FA9B68 PUSH1 0x60 DUP4 ADD CALLDATALOAD PUSH2 0x9BF PUSH1 0x40 DUP6 ADD PUSH1 0x20 DUP7 ADD PUSH2 0x18AE JUMP JUMPDEST PUSH1 0x40 DUP1 MLOAD SWAP3 DUP4 MSTORE PUSH1 0x1 PUSH1 0x1 PUSH1 0xA0 SHL SUB SWAP1 SWAP2 AND PUSH1 0x20 DUP4 ADD MSTORE PUSH1 0x0 DUP3 DUP3 ADD MSTORE DUP5 ADD CALLDATALOAD PUSH1 0x60 DUP3 ADD MSTORE TIMESTAMP PUSH1 0x80 DUP3 ADD MSTORE PUSH1 0xA0 ADD PUSH1 0x40 MLOAD DUP1 SWAP2 SUB SWAP1 LOG1 JUMPDEST POP POP JUMP JUMPDEST PUSH1 0x9 SLOAD PUSH1 0x4 SLOAD PUSH1 0x7 SLOAD PUSH1 0x0 SWAP3 DUP4 SWAP3 DUP4 SWAP3 PUSH2 0xA23 SWAP3 PUSH1 0x1 PUSH1 0x1 PUSH1 0xA0 SHL SUB SWAP1 DUP2 AND SWAP3 DUP2 AND SWAP2 AND PUSH2 0xE6D JUMP JUMPDEST SWAP2 POP SWAP2 POP PUSH2 0xA3A PUSH8 0xDE0B6B3A7640000 DUP4 DUP4 PUSH2 0xF37 JUMP JUMPDEST SWAP3 POP POP POP SWAP1 JUMP JUMPDEST PUSH1 0x0 PUSH2 0xA7D PUSH2 0xA4F DUP4 PUSH2 0x123F JUMP JUMPDEST PUSH1 0x5 SLOAD PUSH1 0x1 PUSH1 0x1 PUSH1 0xA0 SHL SUB AND PUSH2 0xA6B PUSH1 0xC0 DUP7 ADD PUSH1 0xA0 DUP8 ADD PUSH2 0x1A35 JUMP JUMPDEST DUP6 PUSH1 0xC0 ADD CALLDATALOAD DUP7 PUSH1 0xE0 ADD CALLDATALOAD PUSH1 0xA SLOAD PUSH2 0x12E3 JUMP JUMPDEST SWAP3 SWAP2 POP POP JUMP JUMPDEST PUSH1 0x0 SLOAD PUSH1 0x1 PUSH1 0x1 PUSH1 0xA0 SHL SUB AND CALLER EQ PUSH2 0xAAD JUMPI PUSH1 0x40 MLOAD PUSH3 0x461BCD PUSH1 0xE5 SHL DUP2 MSTORE PUSH1 0x4 ADD PUSH2 0x596 SWAP1 PUSH2 0x19A6 JUMP JUMPDEST PUSH1 0x0 DUP1 SLOAD PUSH1 0x1 PUSH1 0x1 PUSH1 0xA0 SHL SUB NOT AND PUSH1 0x1 PUSH1 0x1 PUSH1 0xA0 SHL SUB SWAP3 SWAP1 SWAP3 AND SWAP2 SWAP1 SWAP2 OR SWAP1 SSTORE JUMP JUMPDEST PUSH1 0x0 SLOAD PUSH1 0x1 PUSH1 0x1 PUSH1 0xA0 SHL SUB AND CALLER EQ PUSH2 0xAF9 JUMPI PUSH1 0x40 MLOAD PUSH3 0x461BCD PUSH1 0xE5 SHL DUP2 MSTORE PUSH1 0x4 ADD PUSH2 0x596 SWAP1 PUSH2 0x19A6 JUMP JUMPDEST PUSH1 0x4 SLOAD PUSH2 0x9F6 SWAP1 PUSH1 0x1 PUSH1 0x1 PUSH1 0xA0 SHL SUB AND DUP4 DUP4 PUSH2 0x1056 JUMP JUMPDEST PUSH1 0x0 SLOAD PUSH1 0x1 PUSH1 0x1 PUSH1 0xA0 SHL SUB AND CALLER EQ PUSH2 0xB3A JUMPI PUSH1 0x40 MLOAD PUSH3 0x461BCD PUSH1 0xE5 SHL DUP2 MSTORE PUSH1 0x4 ADD PUSH2 0x596 SWAP1 PUSH2 0x19A6 JUMP JUMPDEST PUSH2 0x9F6 DUP3 DUP3 PUSH2 0x1171 JUMP JUMPDEST PUSH9 0x56BC75E2D63100000 DUP3 LT ISZERO PUSH2 0xB9D JUMPI PUSH1 0x40 MLOAD PUSH3 0x461BCD PUSH1 0xE5 SHL DUP2 MSTORE PUSH1 0x20 PUSH1 0x4 DUP3 ADD MSTORE PUSH1 0x1E PUSH1 0x24 DUP3 ADD MSTORE PUSH32 0x506C65646167653A496E76616C69642070726F7669646520616D6F756E740000 PUSH1 0x44 DUP3 ADD MSTORE PUSH1 0x64 ADD PUSH2 0x596 JUMP JUMPDEST PUSH1 0x0 DUP2 PUSH1 0x4 DUP2 GT ISZERO PUSH2 0xBB1 JUMPI PUSH2 0xBB1 PUSH2 0x1A58 JUMP JUMPDEST SUB PUSH2 0xC09 JUMPI PUSH1 0x40 MLOAD PUSH3 0x461BCD PUSH1 0xE5 SHL DUP2 MSTORE PUSH1 0x20 PUSH1 0x4 DUP3 ADD MSTORE PUSH1 0x22 PUSH1 0x24 DUP3 ADD MSTORE PUSH32 0x506C65646167653A496E76616C69642070726F76696465206578706972617469 PUSH1 0x44 DUP3 ADD MSTORE PUSH2 0x37B7 PUSH1 0xF1 SHL PUSH1 0x64 DUP3 ADD MSTORE PUSH1 0x84 ADD PUSH2 0x596 JUMP JUMPDEST PUSH1 0x4 SLOAD PUSH2 0xC21 SWAP1 PUSH1 0x1 PUSH1 0x1 PUSH1 0xA0 SHL SUB AND CALLER ADDRESS DUP6 PUSH2 0x134B JUMP JUMPDEST CALLER PUSH1 0x0 SWAP1 DUP2 MSTORE PUSH1 0x2 PUSH1 0x20 DUP2 DUP2 MSTORE PUSH1 0x40 DUP4 KECCAK256 DUP1 SLOAD PUSH1 0x1 DUP1 DUP3 ADD DUP4 SSTORE DUP3 DUP7 MSTORE DUP4 DUP7 KECCAK256 SWAP1 SWAP2 ADD DUP8 SWAP1 SSTORE SWAP3 DUP2 ADD DUP1 SLOAD SWAP4 DUP5 ADD DUP2 SSTORE DUP5 MSTORE SWAP3 DUP2 SWAP1 KECCAK256 SWAP1 DUP3 DIV ADD DUP1 SLOAD DUP5 SWAP3 PUSH1 0x1F AND PUSH2 0x100 EXP PUSH1 0xFF DUP2 MUL NOT SWAP1 SWAP2 AND SWAP1 DUP4 PUSH1 0x4 DUP2 GT ISZERO PUSH2 0xC81 JUMPI PUSH2 0xC81 PUSH2 0x1A58 JUMP JUMPDEST MUL OR SWAP1 SSTORE POP PUSH1 0x1 DUP1 DUP3 ADD DUP1 SLOAD SWAP2 DUP3 ADD DUP2 SSTORE PUSH1 0x0 SWAP1 DUP2 MSTORE PUSH1 0x20 SWAP1 KECCAK256 TIMESTAMP SWAP2 ADD DUP2 SWAP1 SSTORE PUSH1 0x40 MLOAD PUSH32 0x1AB2D7016A285CF7CA78BDD1C8A8E845F082FE124067D9137646150CED640816 SWAP2 PUSH2 0xCD5 SWAP2 CALLER SWAP2 DUP8 SWAP2 DUP8 SWAP1 PUSH2 0x1A6E JUMP JUMPDEST PUSH1 0x40 MLOAD DUP1 SWAP2 SUB SWAP1 LOG1 POP POP POP JUMP JUMPDEST PUSH1 0x0 SLOAD PUSH1 0x1 PUSH1 0x1 PUSH1 0xA0 SHL SUB AND CALLER EQ PUSH2 0xD0C JUMPI PUSH1 0x40 MLOAD PUSH3 0x461BCD PUSH1 0xE5 SHL DUP2 MSTORE PUSH1 0x4 ADD PUSH2 0x596 SWAP1 PUSH2 0x19A6 JUMP JUMPDEST PUSH1 0x8 DUP1 SLOAD PUSH1 0x1 PUSH1 0x1 PUSH1 0xA0 SHL SUB NOT SWAP1 DUP2 AND PUSH20 0x10ED43C718714EB63D5AA57B78B54704E256024E OR SWAP1 SWAP2 SSTORE PUSH1 0x9 DUP1 SLOAD DUP3 AND PUSH20 0xCA143CE32FE78F1F7019D7D551A6402FC5350C73 OR SWAP1 SSTORE PUSH1 0x7 DUP1 SLOAD DUP3 AND PUSH20 0x55D398326F99059FF775485246999027B3197955 OR SWAP1 SSTORE PUSH1 0x6 DUP1 SLOAD DUP3 AND PUSH2 0xDEAD OR SWAP1 SSTORE PUSH1 0x4 DUP1 SLOAD DUP3 AND PUSH20 0x33E0B24AAEA62500CA79D33E26EFE576BBF5BACF OR SWAP1 SSTORE PUSH1 0x5 DUP1 SLOAD PUSH1 0x1 PUSH1 0x1 PUSH1 0xA0 SHL SUB DUP5 AND SWAP3 AND SWAP2 SWAP1 SWAP2 OR SWAP1 SSTORE PUSH2 0xE6A PUSH1 0x40 DUP1 MLOAD DUP1 DUP3 ADD DUP3 MSTORE PUSH1 0x1 DUP2 MSTORE PUSH1 0x31 PUSH1 0xF8 SHL PUSH1 0x20 SWAP2 DUP3 ADD MSTORE DUP2 MLOAD PUSH32 0x8B73C3C69BB8FE3D512ECC4CF759CC79239F7B179B0FFACAA9A75D522B39400F DUP2 DUP4 ADD MSTORE PUSH32 0xED9E26FC34B201817108D14DB5E93FFF6700CFF6F5E90AC3B3DA395ABA756B5C DUP2 DUP5 ADD MSTORE PUSH32 0xC89EFDAA54C0F20C7ADF612882DF0950F5A951637E0307CDCB4C672F298B8BC6 PUSH1 0x60 DUP3 ADD MSTORE CHAINID PUSH1 0x80 DUP3 ADD MSTORE ADDRESS PUSH1 0xA0 DUP1 DUP4 ADD SWAP2 SWAP1 SWAP2 MSTORE DUP4 MLOAD DUP1 DUP4 SUB SWAP1 SWAP2 ADD DUP2 MSTORE PUSH1 0xC0 SWAP1 SWAP2 ADD SWAP1 SWAP3 MSTORE DUP2 MLOAD SWAP2 ADD KECCAK256 PUSH1 0xA SSTORE JUMP JUMPDEST POP JUMP JUMPDEST PUSH1 0x0 DUP1 PUSH1 0x0 PUSH2 0xE7C DUP6 DUP6 PUSH2 0x147B JUMP JUMPDEST POP SWAP1 POP PUSH1 0x0 DUP1 PUSH2 0xE8D DUP9 DUP9 DUP9 PUSH2 0x1572 JUMP JUMPDEST PUSH1 0x1 PUSH1 0x1 PUSH1 0xA0 SHL SUB AND PUSH4 0x902F1AC PUSH1 0x40 MLOAD DUP2 PUSH4 0xFFFFFFFF AND PUSH1 0xE0 SHL DUP2 MSTORE PUSH1 0x4 ADD PUSH1 0x60 PUSH1 0x40 MLOAD DUP1 DUP4 SUB DUP2 DUP7 GAS STATICCALL ISZERO DUP1 ISZERO PUSH2 0xECA JUMPI RETURNDATASIZE PUSH1 0x0 DUP1 RETURNDATACOPY RETURNDATASIZE PUSH1 0x0 REVERT JUMPDEST POP POP POP POP PUSH1 0x40 MLOAD RETURNDATASIZE PUSH1 0x1F NOT PUSH1 0x1F DUP3 ADD AND DUP3 ADD DUP1 PUSH1 0x40 MSTORE POP DUP2 ADD SWAP1 PUSH2 0xEEE SWAP2 SWAP1 PUSH2 0x1AD5 JUMP JUMPDEST POP PUSH1 0x1 PUSH1 0x1 PUSH1 0x70 SHL SUB AND SWAP2 POP PUSH1 0x1 PUSH1 0x1 PUSH1 0x70 SHL SUB AND SWAP2 POP DUP3 PUSH1 0x1 PUSH1 0x1 PUSH1 0xA0 SHL SUB AND DUP8 PUSH1 0x1 PUSH1 0x1 PUSH1 0xA0 SHL SUB AND EQ PUSH2 0xF25 JUMPI DUP1 DUP3 PUSH2 0xF28 JUMP JUMPDEST DUP2 DUP2 JUMPDEST SWAP1 SWAP10 SWAP1 SWAP9 POP SWAP7 POP POP POP POP POP POP POP JUMP JUMPDEST PUSH1 0x0 DUP1 DUP5 GT PUSH2 0xF9C JUMPI PUSH1 0x40 MLOAD PUSH3 0x461BCD PUSH1 0xE5 SHL DUP2 MSTORE PUSH1 0x20 PUSH1 0x4 DUP3 ADD MSTORE PUSH1 0x2B PUSH1 0x24 DUP3 ADD MSTORE PUSH32 0x556E697377617056324C6962726172793A20494E53554646494349454E545F49 PUSH1 0x44 DUP3 ADD MSTORE PUSH11 0x1394155517D05353D55395 PUSH1 0xAA SHL PUSH1 0x64 DUP3 ADD MSTORE PUSH1 0x84 ADD PUSH2 0x596 JUMP JUMPDEST PUSH1 0x0 DUP4 GT DUP1 ISZERO PUSH2 0xFAC JUMPI POP PUSH1 0x0 DUP3 GT JUMPDEST PUSH2 0x1009 JUMPI PUSH1 0x40 MLOAD PUSH3 0x461BCD PUSH1 0xE5 SHL DUP2 MSTORE PUSH1 0x20 PUSH1 0x4 DUP3 ADD MSTORE PUSH1 0x28 PUSH1 0x24 DUP3 ADD MSTORE PUSH32 0x556E697377617056324C6962726172793A20494E53554646494349454E545F4C PUSH1 0x44 DUP3 ADD MSTORE PUSH8 0x4951554944495459 PUSH1 0xC0 SHL PUSH1 0x64 DUP3 ADD MSTORE PUSH1 0x84 ADD PUSH2 0x596 JUMP JUMPDEST PUSH1 0x0 PUSH2 0x1017 DUP6 PUSH2 0x3E5 PUSH2 0x164A JUMP JUMPDEST SWAP1 POP PUSH1 0x0 PUSH2 0x1025 DUP3 DUP6 PUSH2 0x164A JUMP JUMPDEST SWAP1 POP PUSH1 0x0 PUSH2 0x103F DUP4 PUSH2 0x1039 DUP9 PUSH2 0x3E8 PUSH2 0x164A JUMP JUMPDEST SWAP1 PUSH2 0x16B1 JUMP JUMPDEST SWAP1 POP PUSH2 0x104B DUP2 DUP4 PUSH2 0x1A13 JUMP JUMPDEST SWAP8 SWAP7 POP POP POP POP POP POP POP JUMP JUMPDEST PUSH1 0x40 DUP1 MLOAD PUSH1 0x1 PUSH1 0x1 PUSH1 0xA0 SHL SUB DUP5 DUP2 AND PUSH1 0x24 DUP4 ADD MSTORE PUSH1 0x44 DUP1 DUP4 ADD DUP6 SWAP1 MSTORE DUP4 MLOAD DUP1 DUP5 SUB SWAP1 SWAP2 ADD DUP2 MSTORE PUSH1 0x64 SWAP1 SWAP3 ADD DUP4 MSTORE PUSH1 0x20 DUP3 ADD DUP1 MLOAD PUSH1 0x1 PUSH1 0x1 PUSH1 0xE0 SHL SUB AND PUSH4 0xA9059CBB PUSH1 0xE0 SHL OR SWAP1 MSTORE SWAP2 MLOAD PUSH1 0x0 SWAP3 DUP4 SWAP3 SWAP1 DUP8 AND SWAP2 PUSH2 0x10B2 SWAP2 SWAP1 PUSH2 0x1B25 JUMP JUMPDEST PUSH1 0x0 PUSH1 0x40 MLOAD DUP1 DUP4 SUB DUP2 PUSH1 0x0 DUP7 GAS CALL SWAP2 POP POP RETURNDATASIZE DUP1 PUSH1 0x0 DUP2 EQ PUSH2 0x10EF JUMPI PUSH1 0x40 MLOAD SWAP2 POP PUSH1 0x1F NOT PUSH1 0x3F RETURNDATASIZE ADD AND DUP3 ADD PUSH1 0x40 MSTORE RETURNDATASIZE DUP3 MSTORE RETURNDATASIZE PUSH1 0x0 PUSH1 0x20 DUP5 ADD RETURNDATACOPY PUSH2 0x10F4 JUMP JUMPDEST PUSH1 0x60 SWAP2 POP JUMPDEST POP SWAP2 POP SWAP2 POP DUP2 DUP1 ISZERO PUSH2 0x111E JUMPI POP DUP1 MLOAD ISZERO DUP1 PUSH2 0x111E JUMPI POP DUP1 DUP1 PUSH1 0x20 ADD SWAP1 MLOAD DUP2 ADD SWAP1 PUSH2 0x111E SWAP2 SWAP1 PUSH2 0x1B54 JUMP JUMPDEST PUSH2 0x116A JUMPI PUSH1 0x40 MLOAD PUSH3 0x461BCD PUSH1 0xE5 SHL DUP2 MSTORE PUSH1 0x20 PUSH1 0x4 DUP3 ADD MSTORE PUSH1 0x1F PUSH1 0x24 DUP3 ADD MSTORE PUSH32 0x5472616E7366657248656C7065723A205452414E534645525F4641494C454400 PUSH1 0x44 DUP3 ADD MSTORE PUSH1 0x64 ADD PUSH2 0x596 JUMP JUMPDEST POP POP POP POP POP JUMP JUMPDEST PUSH1 0x40 DUP1 MLOAD PUSH1 0x0 DUP1 DUP3 MSTORE PUSH1 0x20 DUP3 ADD SWAP1 SWAP3 MSTORE PUSH1 0x1 PUSH1 0x1 PUSH1 0xA0 SHL SUB DUP5 AND SWAP1 DUP4 SWAP1 PUSH1 0x40 MLOAD PUSH2 0x119B SWAP2 SWAP1 PUSH2 0x1B25 JUMP JUMPDEST PUSH1 0x0 PUSH1 0x40 MLOAD DUP1 DUP4 SUB DUP2 DUP6 DUP8 GAS CALL SWAP3 POP POP POP RETURNDATASIZE DUP1 PUSH1 0x0 DUP2 EQ PUSH2 0x11D8 JUMPI PUSH1 0x40 MLOAD SWAP2 POP PUSH1 0x1F NOT PUSH1 0x3F RETURNDATASIZE ADD AND DUP3 ADD PUSH1 0x40 MSTORE RETURNDATASIZE DUP3 MSTORE RETURNDATASIZE PUSH1 0x0 PUSH1 0x20 DUP5 ADD RETURNDATACOPY PUSH2 0x11DD JUMP JUMPDEST PUSH1 0x60 SWAP2 POP JUMPDEST POP POP SWAP1 POP DUP1 PUSH2 0x123A JUMPI PUSH1 0x40 MLOAD PUSH3 0x461BCD PUSH1 0xE5 SHL DUP2 MSTORE PUSH1 0x20 PUSH1 0x4 DUP3 ADD MSTORE PUSH1 0x23 PUSH1 0x24 DUP3 ADD MSTORE PUSH32 0x5472616E7366657248656C7065723A204554485F5452414E534645525F464149 PUSH1 0x44 DUP3 ADD MSTORE PUSH3 0x131151 PUSH1 0xEA SHL PUSH1 0x64 DUP3 ADD MSTORE PUSH1 0x84 ADD PUSH2 0x596 JUMP JUMPDEST POP POP POP JUMP JUMPDEST PUSH1 0x0 PUSH32 0xB5F106453E92C83F8EF471E09A8097B99888030BEB671302E7C318E4D198C6E3 PUSH2 0x126F PUSH1 0x20 DUP5 ADD DUP5 PUSH2 0x18AE JUMP JUMPDEST PUSH2 0x127F PUSH1 0x40 DUP6 ADD PUSH1 0x20 DUP7 ADD PUSH2 0x18AE JUMP JUMPDEST PUSH1 0x40 DUP1 MLOAD PUSH1 0x20 DUP2 ADD SWAP5 SWAP1 SWAP5 MSTORE PUSH1 0x1 PUSH1 0x1 PUSH1 0xA0 SHL SUB SWAP3 DUP4 AND DUP5 DUP3 ADD MSTORE SWAP2 AND PUSH1 0x60 DUP4 DUP2 ADD SWAP2 SWAP1 SWAP2 MSTORE SWAP1 DUP5 ADD CALLDATALOAD PUSH1 0x80 DUP4 DUP2 ADD SWAP2 SWAP1 SWAP2 MSTORE SWAP1 DUP5 ADD CALLDATALOAD PUSH1 0xA0 DUP4 ADD MSTORE DUP4 ADD CALLDATALOAD PUSH1 0xC0 DUP3 ADD MSTORE PUSH1 0xE0 ADD PUSH1 0x40 MLOAD PUSH1 0x20 DUP2 DUP4 SUB SUB DUP2 MSTORE SWAP1 PUSH1 0x40 MSTORE DUP1 MLOAD SWAP1 PUSH1 0x20 ADD KECCAK256 SWAP1 POP SWAP2 SWAP1 POP JUMP JUMPDEST PUSH1 0x40 MLOAD PUSH2 0x1901 PUSH1 0xF0 SHL PUSH1 0x20 DUP3 ADD MSTORE PUSH1 0x22 DUP2 ADD DUP3 SWAP1 MSTORE PUSH1 0x42 DUP2 ADD DUP8 SWAP1 MSTORE PUSH1 0x0 SWAP1 DUP2 SWAP1 PUSH1 0x62 ADD PUSH1 0x40 MLOAD PUSH1 0x20 DUP2 DUP4 SUB SUB DUP2 MSTORE SWAP1 PUSH1 0x40 MSTORE DUP1 MLOAD SWAP1 PUSH1 0x20 ADD KECCAK256 SWAP1 POP DUP7 PUSH1 0x1 PUSH1 0x1 PUSH1 0xA0 SHL SUB AND PUSH2 0x1335 DUP3 DUP9 DUP9 DUP9 PUSH2 0x1706 JUMP JUMPDEST PUSH1 0x1 PUSH1 0x1 PUSH1 0xA0 SHL SUB AND EQ SWAP9 SWAP8 POP POP POP POP POP POP POP POP JUMP JUMPDEST PUSH1 0x40 DUP1 MLOAD PUSH1 0x1 PUSH1 0x1 PUSH1 0xA0 SHL SUB DUP6 DUP2 AND PUSH1 0x24 DUP4 ADD MSTORE DUP5 DUP2 AND PUSH1 0x44 DUP4 ADD MSTORE PUSH1 0x64 DUP1 DUP4 ADD DUP6 SWAP1 MSTORE DUP4 MLOAD DUP1 DUP5 SUB SWAP1 SWAP2 ADD DUP2 MSTORE PUSH1 0x84 SWAP1 SWAP3 ADD DUP4 MSTORE PUSH1 0x20 DUP3 ADD DUP1 MLOAD PUSH1 0x1 PUSH1 0x1 PUSH1 0xE0 SHL SUB AND PUSH4 0x23B872DD PUSH1 0xE0 SHL OR SWAP1 MSTORE SWAP2 MLOAD PUSH1 0x0 SWAP3 DUP4 SWAP3 SWAP1 DUP9 AND SWAP2 PUSH2 0x13AF SWAP2 SWAP1 PUSH2 0x1B25 JUMP JUMPDEST PUSH1 0x0 PUSH1 0x40 MLOAD DUP1 DUP4 SUB DUP2 PUSH1 0x0 DUP7 GAS CALL SWAP2 POP POP RETURNDATASIZE DUP1 PUSH1 0x0 DUP2 EQ PUSH2 0x13EC JUMPI PUSH1 0x40 MLOAD SWAP2 POP PUSH1 0x1F NOT PUSH1 0x3F RETURNDATASIZE ADD AND DUP3 ADD PUSH1 0x40 MSTORE RETURNDATASIZE DUP3 MSTORE RETURNDATASIZE PUSH1 0x0 PUSH1 0x20 DUP5 ADD RETURNDATACOPY PUSH2 0x13F1 JUMP JUMPDEST PUSH1 0x60 SWAP2 POP JUMPDEST POP SWAP2 POP SWAP2 POP DUP2 DUP1 ISZERO PUSH2 0x141B JUMPI POP DUP1 MLOAD ISZERO DUP1 PUSH2 0x141B JUMPI POP DUP1 DUP1 PUSH1 0x20 ADD SWAP1 MLOAD DUP2 ADD SWAP1 PUSH2 0x141B SWAP2 SWAP1 PUSH2 0x1B54 JUMP JUMPDEST PUSH2 0x1473 JUMPI PUSH1 0x40 MLOAD PUSH3 0x461BCD PUSH1 0xE5 SHL DUP2 MSTORE PUSH1 0x20 PUSH1 0x4 DUP3 ADD MSTORE PUSH1 0x24 DUP1 DUP3 ADD MSTORE PUSH32 0x5472616E7366657248656C7065723A205452414E534645525F46524F4D5F4641 PUSH1 0x44 DUP3 ADD MSTORE PUSH4 0x12531151 PUSH1 0xE2 SHL PUSH1 0x64 DUP3 ADD MSTORE PUSH1 0x84 ADD PUSH2 0x596 JUMP JUMPDEST POP POP POP POP POP POP JUMP JUMPDEST PUSH1 0x0 DUP1 DUP3 PUSH1 0x1 PUSH1 0x1 PUSH1 0xA0 SHL SUB AND DUP5 PUSH1 0x1 PUSH1 0x1 PUSH1 0xA0 SHL SUB AND SUB PUSH2 0x14ED JUMPI PUSH1 0x40 MLOAD PUSH3 0x461BCD PUSH1 0xE5 SHL DUP2 MSTORE PUSH1 0x20 PUSH1 0x4 DUP3 ADD MSTORE PUSH1 0x25 PUSH1 0x24 DUP3 ADD MSTORE PUSH32 0x556E697377617056324C6962726172793A204944454E544943414C5F41444452 PUSH1 0x44 DUP3 ADD MSTORE PUSH5 0x4553534553 PUSH1 0xD8 SHL PUSH1 0x64 DUP3 ADD MSTORE PUSH1 0x84 ADD PUSH2 0x596 JUMP JUMPDEST DUP3 PUSH1 0x1 PUSH1 0x1 PUSH1 0xA0 SHL SUB AND DUP5 PUSH1 0x1 PUSH1 0x1 PUSH1 0xA0 SHL SUB AND LT PUSH2 0x150D JUMPI DUP3 DUP5 PUSH2 0x1510 JUMP JUMPDEST DUP4 DUP4 JUMPDEST SWAP1 SWAP3 POP SWAP1 POP PUSH1 0x1 PUSH1 0x1 PUSH1 0xA0 SHL SUB DUP3 AND PUSH2 0x156B JUMPI PUSH1 0x40 MLOAD PUSH3 0x461BCD PUSH1 0xE5 SHL DUP2 MSTORE PUSH1 0x20 PUSH1 0x4 DUP3 ADD MSTORE PUSH1 0x1E PUSH1 0x24 DUP3 ADD MSTORE PUSH32 0x556E697377617056324C6962726172793A205A45524F5F414444524553530000 PUSH1 0x44 DUP3 ADD MSTORE PUSH1 0x64 ADD PUSH2 0x596 JUMP JUMPDEST SWAP3 POP SWAP3 SWAP1 POP JUMP JUMPDEST PUSH1 0x0 DUP1 PUSH1 0x0 PUSH2 0x1581 DUP6 DUP6 PUSH2 0x147B JUMP JUMPDEST PUSH1 0x40 MLOAD PUSH12 0xFFFFFFFFFFFFFFFFFFFFFFFF NOT PUSH1 0x60 DUP5 DUP2 SHL DUP3 AND PUSH1 0x20 DUP5 ADD MSTORE DUP4 SWAP1 SHL AND PUSH1 0x34 DUP3 ADD MSTORE SWAP2 SWAP4 POP SWAP2 POP DUP7 SWAP1 PUSH1 0x48 ADD PUSH1 0x40 MLOAD PUSH1 0x20 DUP2 DUP4 SUB SUB DUP2 MSTORE SWAP1 PUSH1 0x40 MSTORE DUP1 MLOAD SWAP1 PUSH1 0x20 ADD KECCAK256 PUSH1 0x40 MLOAD PUSH1 0x20 ADD PUSH2 0x1628 SWAP3 SWAP2 SWAP1 PUSH1 0x1 PUSH1 0x1 PUSH1 0xF8 SHL SUB NOT DUP2 MSTORE PUSH1 0x60 SWAP3 SWAP1 SWAP3 SHL PUSH12 0xFFFFFFFFFFFFFFFFFFFFFFFF NOT AND PUSH1 0x1 DUP4 ADD MSTORE PUSH1 0x15 DUP3 ADD MSTORE PUSH31 0xFB7F630766E6A796048EA87D01ACD3068E8FF67D078148A3FA3F4A84F69BD5 PUSH1 0x35 DUP3 ADD MSTORE PUSH1 0x55 ADD SWAP1 JUMP JUMPDEST PUSH1 0x40 DUP1 MLOAD PUSH1 0x1F NOT DUP2 DUP5 SUB ADD DUP2 MSTORE SWAP2 SWAP1 MSTORE DUP1 MLOAD PUSH1 0x20 SWAP1 SWAP2 ADD KECCAK256 SWAP7 SWAP6 POP POP POP POP POP POP JUMP JUMPDEST PUSH1 0x0 DUP2 ISZERO DUP1 PUSH2 0x166E JUMPI POP DUP3 DUP3 PUSH2 0x1660 DUP2 DUP4 PUSH2 0x19FC JUMP JUMPDEST SWAP3 POP PUSH2 0x166C SWAP1 DUP4 PUSH2 0x1A13 JUMP JUMPDEST EQ JUMPDEST PUSH2 0xA7D JUMPI PUSH1 0x40 MLOAD PUSH3 0x461BCD PUSH1 0xE5 SHL DUP2 MSTORE PUSH1 0x20 PUSH1 0x4 DUP3 ADD MSTORE PUSH1 0x14 PUSH1 0x24 DUP3 ADD MSTORE PUSH20 0x64732D6D6174682D6D756C2D6F766572666C6F77 PUSH1 0x60 SHL PUSH1 0x44 DUP3 ADD MSTORE PUSH1 0x64 ADD PUSH2 0x596 JUMP JUMPDEST PUSH1 0x0 DUP3 PUSH2 0x16BE DUP4 DUP3 PUSH2 0x19E9 JUMP JUMPDEST SWAP2 POP DUP2 LT ISZERO PUSH2 0xA7D JUMPI PUSH1 0x40 MLOAD PUSH3 0x461BCD PUSH1 0xE5 SHL DUP2 MSTORE PUSH1 0x20 PUSH1 0x4 DUP3 ADD MSTORE PUSH1 0x14 PUSH1 0x24 DUP3 ADD MSTORE PUSH20 0x64732D6D6174682D6164642D6F766572666C6F77 PUSH1 0x60 SHL PUSH1 0x44 DUP3 ADD MSTORE PUSH1 0x64 ADD PUSH2 0x596 JUMP JUMPDEST PUSH1 0x0 PUSH32 0x7FFFFFFFFFFFFFFFFFFFFFFFFFFFFFFF5D576E7357A4501DDFE92F46681B20A0 DUP3 GT ISZERO PUSH2 0x1778 JUMPI PUSH1 0x40 MLOAD PUSH3 0x461BCD PUSH1 0xE5 SHL DUP2 MSTORE PUSH1 0x20 PUSH1 0x4 DUP3 ADD MSTORE PUSH1 0x1E PUSH1 0x24 DUP3 ADD MSTORE PUSH32 0x5369676E61747572653A20496E76616C6964207320706172616D657465720000 PUSH1 0x44 DUP3 ADD MSTORE PUSH1 0x64 ADD PUSH2 0x596 JUMP JUMPDEST DUP4 PUSH1 0xFF AND PUSH1 0x1B EQ DUP1 PUSH2 0x178D JUMPI POP DUP4 PUSH1 0xFF AND PUSH1 0x1C EQ JUMPDEST PUSH2 0x17D9 JUMPI PUSH1 0x40 MLOAD PUSH3 0x461BCD PUSH1 0xE5 SHL DUP2 MSTORE PUSH1 0x20 PUSH1 0x4 DUP3 ADD MSTORE PUSH1 0x1E PUSH1 0x24 DUP3 ADD MSTORE PUSH32 0x5369676E61747572653A20496E76616C6964207620706172616D657465720000 PUSH1 0x44 DUP3 ADD MSTORE PUSH1 0x64 ADD PUSH2 0x596 JUMP JUMPDEST PUSH1 0x40 DUP1 MLOAD PUSH1 0x0 DUP1 DUP3 MSTORE PUSH1 0x20 DUP3 ADD DUP1 DUP5 MSTORE DUP9 SWAP1 MSTORE PUSH1 0xFF DUP8 AND SWAP3 DUP3 ADD SWAP3 SWAP1 SWAP3 MSTORE PUSH1 0x60 DUP2 ADD DUP6 SWAP1 MSTORE PUSH1 0x80 DUP2 ADD DUP5 SWAP1 MSTORE PUSH1 0x1 SWAP1 PUSH1 0xA0 ADD PUSH1 0x20 PUSH1 0x40 MLOAD PUSH1 0x20 DUP2 SUB SWAP1 DUP1 DUP5 SUB SWAP1 DUP6 GAS STATICCALL ISZERO DUP1 ISZERO PUSH2 0x182D JUMPI RETURNDATASIZE PUSH1 0x0 DUP1 RETURNDATACOPY RETURNDATASIZE PUSH1 0x0 REVERT JUMPDEST POP POP PUSH1 0x40 MLOAD PUSH1 0x1F NOT ADD MLOAD SWAP2 POP POP PUSH1 0x1 PUSH1 0x1 PUSH1 0xA0 SHL SUB DUP2 AND PUSH2 0x1890 JUMPI PUSH1 0x40 MLOAD PUSH3 0x461BCD PUSH1 0xE5 SHL DUP2 MSTORE PUSH1 0x20 PUSH1 0x4 DUP3 ADD MSTORE PUSH1 0x19 PUSH1 0x24 DUP3 ADD MSTORE PUSH32 0x5369676E61747572653A20496E76616C6964207369676E657200000000000000 PUSH1 0x44 DUP3 ADD MSTORE PUSH1 0x64 ADD PUSH2 0x596 JUMP JUMPDEST SWAP6 SWAP5 POP POP POP POP POP JUMP JUMPDEST PUSH1 0x1 PUSH1 0x1 PUSH1 0xA0 SHL SUB DUP2 AND DUP2 EQ PUSH2 0xE6A JUMPI PUSH1 0x0 DUP1 REVERT JUMPDEST PUSH1 0x0 PUSH1 0x20 DUP3 DUP5 SUB SLT ISZERO PUSH2 0x18C0 JUMPI PUSH1 0x0 DUP1 REVERT JUMPDEST DUP2 CALLDATALOAD PUSH2 0x18CB DUP2 PUSH2 0x1899 JUMP JUMPDEST SWAP4 SWAP3 POP POP POP JUMP JUMPDEST PUSH1 0x0 PUSH2 0x100 DUP3 DUP5 SUB SLT ISZERO PUSH2 0x18E5 JUMPI PUSH1 0x0 DUP1 REVERT JUMPDEST POP SWAP2 SWAP1 POP JUMP JUMPDEST PUSH1 0x0 DUP1 PUSH1 0x40 DUP4 DUP6 SUB SLT ISZERO PUSH2 0x18FE JUMPI PUSH1 0x0 DUP1 REVERT JUMPDEST DUP3 CALLDATALOAD SWAP2 POP PUSH1 0x20 DUP4 ADD CALLDATALOAD PUSH2 0x1910 DUP2 PUSH2 0x1899 JUMP JUMPDEST DUP1 SWAP2 POP POP SWAP3 POP SWAP3 SWAP1 POP JUMP JUMPDEST PUSH1 0x0 DUP1 PUSH1 0x40 DUP4 DUP6 SUB SLT ISZERO PUSH2 0x192E JUMPI PUSH1 0x0 DUP1 REVERT JUMPDEST DUP3 CALLDATALOAD PUSH2 0x1939 DUP2 PUSH2 0x1899 JUMP JUMPDEST SWAP5 PUSH1 0x20 SWAP4 SWAP1 SWAP4 ADD CALLDATALOAD SWAP4 POP POP POP JUMP JUMPDEST PUSH1 0x0 PUSH1 0x20 DUP3 DUP5 SUB SLT ISZERO PUSH2 0x1959 JUMPI PUSH1 0x0 DUP1 REVERT JUMPDEST POP CALLDATALOAD SWAP2 SWAP1 POP JUMP JUMPDEST PUSH1 0x0 DUP1 PUSH1 0x40 DUP4 DUP6 SUB SLT ISZERO PUSH2 0x1973 JUMPI PUSH1 0x0 DUP1 REVERT JUMPDEST DUP3 CALLDATALOAD SWAP2 POP PUSH1 0x20 DUP4 ADD CALLDATALOAD PUSH1 0x5 DUP2 LT PUSH2 0x1910 JUMPI PUSH1 0x0 DUP1 REVERT JUMPDEST PUSH1 0x0 PUSH1 0x20 DUP3 DUP5 SUB SLT ISZERO PUSH2 0x199B JUMPI PUSH1 0x0 DUP1 REVERT JUMPDEST DUP2 MLOAD PUSH2 0x18CB DUP2 PUSH2 0x1899 JUMP JUMPDEST PUSH1 0x20 DUP1 DUP3 MSTORE PUSH1 0x13 SWAP1 DUP3 ADD MSTORE PUSH19 0x21B0B63632B91034B9903737BA1037BBB732B9 PUSH1 0x69 SHL PUSH1 0x40 DUP3 ADD MSTORE PUSH1 0x60 ADD SWAP1 JUMP JUMPDEST PUSH4 0x4E487B71 PUSH1 0xE0 SHL PUSH1 0x0 MSTORE PUSH1 0x11 PUSH1 0x4 MSTORE PUSH1 0x24 PUSH1 0x0 REVERT JUMPDEST DUP1 DUP3 ADD DUP1 DUP3 GT ISZERO PUSH2 0xA7D JUMPI PUSH2 0xA7D PUSH2 0x19D3 JUMP JUMPDEST DUP1 DUP3 MUL DUP2 ISZERO DUP3 DUP3 DIV DUP5 EQ OR PUSH2 0xA7D JUMPI PUSH2 0xA7D PUSH2 0x19D3 JUMP JUMPDEST PUSH1 0x0 DUP3 PUSH2 0x1A30 JUMPI PUSH4 0x4E487B71 PUSH1 0xE0 SHL PUSH1 0x0 MSTORE PUSH1 0x12 PUSH1 0x4 MSTORE PUSH1 0x24 PUSH1 0x0 REVERT JUMPDEST POP DIV SWAP1 JUMP JUMPDEST PUSH1 0x0 PUSH1 0x20 DUP3 DUP5 SUB SLT ISZERO PUSH2 0x1A47 JUMPI PUSH1 0x0 DUP1 REVERT JUMPDEST DUP2 CALLDATALOAD PUSH1 0xFF DUP2 AND DUP2 EQ PUSH2 0x18CB JUMPI PUSH1 0x0 DUP1 REVERT JUMPDEST PUSH4 0x4E487B71 PUSH1 0xE0 SHL PUSH1 0x0 MSTORE PUSH1 0x21 PUSH1 0x4 MSTORE PUSH1 0x24 PUSH1 0x0 REVERT JUMPDEST PUSH1 0x1 PUSH1 0x1 PUSH1 0xA0 SHL SUB DUP6 AND DUP2 MSTORE PUSH1 0x20 DUP2 ADD DUP5 SWAP1 MSTORE PUSH1 0x40 DUP2 ADD DUP4 SWAP1 MSTORE PUSH1 0x80 DUP2 ADD PUSH1 0x5 DUP4 LT PUSH2 0x1AAA JUMPI PUSH4 0x4E487B71 PUSH1 0xE0 SHL PUSH1 0x0 MSTORE PUSH1 0x21 PUSH1 0x4 MSTORE PUSH1 0x24 PUSH1 0x0 REVERT JUMPDEST DUP3 PUSH1 0x60 DUP4 ADD MSTORE SWAP6 SWAP5 POP POP POP POP POP JUMP JUMPDEST DUP1 MLOAD PUSH1 0x1 PUSH1 0x1 PUSH1 0x70 SHL SUB DUP2 AND DUP2 EQ PUSH2 0x1AD0 JUMPI PUSH1 0x0 DUP1 REVERT JUMPDEST SWAP2 SWAP1 POP JUMP JUMPDEST PUSH1 0x0 DUP1 PUSH1 0x0 PUSH1 0x60 DUP5 DUP7 SUB SLT ISZERO PUSH2 0x1AEA JUMPI PUSH1 0x0 DUP1 REVERT JUMPDEST PUSH2 0x1AF3 DUP5 PUSH2 0x1AB9 JUMP JUMPDEST SWAP3 POP PUSH2 0x1B01 PUSH1 0x20 DUP6 ADD PUSH2 0x1AB9 JUMP JUMPDEST SWAP2 POP PUSH1 0x40 DUP5 ADD MLOAD PUSH4 0xFFFFFFFF DUP2 AND DUP2 EQ PUSH2 0x1B1A JUMPI PUSH1 0x0 DUP1 REVERT JUMPDEST DUP1 SWAP2 POP POP SWAP3 POP SWAP3 POP SWAP3 JUMP JUMPDEST PUSH1 0x0 DUP3 MLOAD PUSH1 0x0 JUMPDEST DUP2 DUP2 LT ISZERO PUSH2 0x1B46 JUMPI PUSH1 0x20 DUP2 DUP7 ADD DUP2 ADD MLOAD DUP6 DUP4 ADD MSTORE ADD PUSH2 0x1B2C JUMP JUMPDEST POP PUSH1 0x0 SWAP3 ADD SWAP2 DUP3 MSTORE POP SWAP2 SWAP1 POP JUMP JUMPDEST PUSH1 0x0 PUSH1 0x20 DUP3 DUP5 SUB SLT ISZERO PUSH2 0x1B66 JUMPI PUSH1 0x0 DUP1 REVERT JUMPDEST DUP2 MLOAD DUP1 ISZERO ISZERO DUP2 EQ PUSH2 0x18CB JUMPI PUSH1 0x0 DUP1 REVERT INVALID LOG2 PUSH5 0x6970667358 0x22 SLT KECCAK256 RETURNDATASIZE 0xD0 LOG1 PUSH28 0x462BFF02CFD963BEEF0F89D3D369A633C074B3BA73A81DECB2295321 PUSH5 0x736F6C6343 STOP ADDMOD SLT STOP CALLER "
		},
		"gasEstimates": {
			"creation": {
				"codeDepositCost": "1416800",
				"executionCost": "25714",
				"totalCost": "1442514"
			},
			"external": {
				"DOMAIN_SEPARATOR()": "2396",
				"admin()": "2447",
				"dead()": "2360",
				"emergencyBNB(address,uint256)": "infinite",
				"emergencyToken(address,uint256)": "infinite",
				"getBnbPrice()": "infinite",
				"getHash()": "269",
				"getResult((address,address,uint256,uint256,uint256,uint8,bytes32,bytes32))": "infinite",
				"getTokenPrice()": "infinite",
				"implementation()": "2470",
				"initialize(address)": "infinite",
				"optionInfo(uint256)": "8934",
				"permit()": "2426",
				"provide(uint256,uint8)": "infinite",
				"reentrant(uint256,address)": "2650",
				"setAdmin(address)": "26772",
				"setPermit(address)": "26795",
				"token()": "2469",
				"uniswapV2Factory()": "2448",
				"uniswapV2Router()": "2383",
				"usdt()": "2405",
				"withdraw((address,address,uint256,uint256,uint256,uint8,bytes32,bytes32))": "infinite"
			},
			"internal": {
				"_updateDomainSeparator()": "infinite"
			}
		},
		"methodIdentifiers": {
			"DOMAIN_SEPARATOR()": "3644e515",
			"admin()": "f851a440",
			"dead()": "36cf7c87",
			"emergencyBNB(address,uint256)": "8fe7002c",
			"emergencyToken(address,uint256)": "88e3988f",
			"getBnbPrice()": "08760b0d",
			"getHash()": "d13319c4",
			"getResult((address,address,uint256,uint256,uint256,uint8,bytes32,bytes32))": "5e43cd68",
			"getTokenPrice()": "4b94f50e",
			"implementation()": "5c60da1b",
			"initialize(address)": "c4d66de8",
			"optionInfo(uint256)": "bc446708",
			"permit()": "5777e93d",
			"provide(uint256,uint8)": "bc7fb169",
			"reentrant(uint256,address)": "6d0000b7",
			"setAdmin(address)": "704b6c02",
			"setPermit(address)": "32105e46",
			"token()": "fc0c546a",
			"uniswapV2Factory()": "59d0f713",
			"uniswapV2Router()": "1694505e",
			"usdt()": "2f48ab7d",
			"withdraw((address,address,uint256,uint256,uint256,uint8,bytes32,bytes32))": "40003763"
		}
	},
	"abi": [
		{
			"inputs": [],
			"stateMutability": "nonpayable",
			"type": "constructor"
		},
		{
			"anonymous": false,
			"inputs": [
				{
					"indexed": false,
					"internalType": "address",
					"name": "owner",
					"type": "address"
				},
				{
					"indexed": false,
					"internalType": "uint256",
					"name": "amount",
					"type": "uint256"
				},
				{
					"indexed": false,
					"internalType": "uint256",
					"name": "time",
					"type": "uint256"
				},
				{
					"indexed": false,
					"internalType": "enum PledageStorV1.Expiration",
					"name": "expiration",
					"type": "uint8"
				}
			],
			"name": "Provide",
			"type": "event"
		},
		{
			"anonymous": false,
			"inputs": [
				{
					"indexed": false,
					"internalType": "uint256",
					"name": "orderId",
					"type": "uint256"
				},
				{
					"indexed": false,
					"internalType": "address",
					"name": "receiver",
					"type": "address"
				},
				{
					"indexed": false,
					"internalType": "address",
					"name": "token",
					"type": "address"
				},
				{
					"indexed": false,
					"internalType": "uint256",
					"name": "amount",
					"type": "uint256"
				},
				{
					"indexed": false,
					"internalType": "uint256",
					"name": "time",
					"type": "uint256"
				}
			],
			"name": "Withdraw",
			"type": "event"
		},
		{
			"inputs": [],
			"name": "DOMAIN_SEPARATOR",
			"outputs": [
				{
					"internalType": "bytes32",
					"name": "",
					"type": "bytes32"
				}
			],
			"stateMutability": "view",
			"type": "function"
		},
		{
			"inputs": [],
			"name": "admin",
			"outputs": [
				{
					"internalType": "address",
					"name": "",
					"type": "address"
				}
			],
			"stateMutability": "view",
			"type": "function"
		},
		{
			"inputs": [],
			"name": "dead",
			"outputs": [
				{
					"internalType": "address",
					"name": "",
					"type": "address"
				}
			],
			"stateMutability": "view",
			"type": "function"
		},
		{
			"inputs": [
				{
					"internalType": "address",
					"name": "receiver",
					"type": "address"
				},
				{
					"internalType": "uint256",
					"name": "amount",
					"type": "uint256"
				}
			],
			"name": "emergencyBNB",
			"outputs": [],
			"stateMutability": "nonpayable",
			"type": "function"
		},
		{
			"inputs": [
				{
					"internalType": "address",
					"name": "receiver",
					"type": "address"
				},
				{
					"internalType": "uint256",
					"name": "amount",
					"type": "uint256"
				}
			],
			"name": "emergencyToken",
			"outputs": [],
			"stateMutability": "nonpayable",
			"type": "function"
		},
		{
			"inputs": [],
			"name": "getBnbPrice",
			"outputs": [
				{
					"internalType": "uint256",
					"name": "",
					"type": "uint256"
				}
			],
			"stateMutability": "view",
			"type": "function"
		},
		{
			"inputs": [],
			"name": "getHash",
			"outputs": [
				{
					"internalType": "bytes32",
					"name": "",
					"type": "bytes32"
				}
			],
			"stateMutability": "pure",
			"type": "function"
		},
		{
			"inputs": [
				{
					"components": [
						{
							"internalType": "address",
							"name": "token",
							"type": "address"
						},
						{
							"internalType": "address",
							"name": "holder",
							"type": "address"
						},
						{
							"internalType": "uint256",
							"name": "amount",
							"type": "uint256"
						},
						{
							"internalType": "uint256",
							"name": "orderId",
							"type": "uint256"
						},
						{
							"internalType": "uint256",
							"name": "deadline",
							"type": "uint256"
						},
						{
							"internalType": "uint8",
							"name": "v",
							"type": "uint8"
						},
						{
							"internalType": "bytes32",
							"name": "r",
							"type": "bytes32"
						},
						{
							"internalType": "bytes32",
							"name": "s",
							"type": "bytes32"
						}
					],
					"internalType": "struct SignatureInfo.Content",
					"name": "content",
					"type": "tuple"
				}
			],
			"name": "getResult",
			"outputs": [
				{
					"internalType": "bool",
					"name": "",
					"type": "bool"
				}
			],
			"stateMutability": "view",
			"type": "function"
		},
		{
			"inputs": [],
			"name": "getTokenPrice",
			"outputs": [
				{
					"internalType": "uint256",
					"name": "",
					"type": "uint256"
				}
			],
			"stateMutability": "view",
			"type": "function"
		},
		{
			"inputs": [],
			"name": "implementation",
			"outputs": [
				{
					"internalType": "address",
					"name": "",
					"type": "address"
				}
			],
			"stateMutability": "view",
			"type": "function"
		},
		{
			"inputs": [
				{
					"internalType": "address",
					"name": "_permit",
					"type": "address"
				}
			],
			"name": "initialize",
			"outputs": [],
			"stateMutability": "nonpayable",
			"type": "function"
		},
		{
			"inputs": [
				{
					"internalType": "uint256",
					"name": "",
					"type": "uint256"
				}
			],
			"name": "optionInfo",
			"outputs": [
				{
					"internalType": "uint256",
					"name": "optionId",
					"type": "uint256"
				},
				{
					"internalType": "address",
					"name": "holder",
					"type": "address"
				},
				{
					"internalType": "address",
					"name": "token",
					"type": "address"
				},
				{
					"internalType": "uint256",
					"name": "amount",
					"type": "uint256"
				}
			],
			"stateMutability": "view",
			"type": "function"
		},
		{
			"inputs": [],
			"name": "permit",
			"outputs": [
				{
					"internalType": "address",
					"name": "",
					"type": "address"
				}
			],
			"stateMutability": "view",
			"type": "function"
		},
		{
			"inputs": [
				{
					"internalType": "uint256",
					"name": "_amount",
					"type": "uint256"
				},
				{
					"internalType": "enum PledageStorV1.Expiration",
					"name": "_expiration",
					"type": "uint8"
				}
			],
			"name": "provide",
			"outputs": [],
			"stateMutability": "nonpayable",
			"type": "function"
		},
		{
			"inputs": [
				{
					"internalType": "uint256",
					"name": "",
					"type": "uint256"
				},
				{
					"internalType": "address",
					"name": "",
					"type": "address"
				}
			],
			"name": "reentrant",
			"outputs": [
				{
					"internalType": "uint256",
					"name": "",
					"type": "uint256"
				}
			],
			"stateMutability": "view",
			"type": "function"
		},
		{
			"inputs": [
				{
					"internalType": "address",
					"name": "_admin",
					"type": "address"
				}
			],
			"name": "setAdmin",
			"outputs": [],
			"stateMutability": "nonpayable",
			"type": "function"
		},
		{
			"inputs": [
				{
					"internalType": "address",
					"name": "_permit",
					"type": "address"
				}
			],
			"name": "setPermit",
			"outputs": [],
			"stateMutability": "nonpayable",
			"type": "function"
		},
		{
			"inputs": [],
			"name": "token",
			"outputs": [
				{
					"internalType": "address",
					"name": "",
					"type": "address"
				}
			],
			"stateMutability": "view",
			"type": "function"
		},
		{
			"inputs": [],
			"name": "uniswapV2Factory",
			"outputs": [
				{
					"internalType": "address",
					"name": "",
					"type": "address"
				}
			],
			"stateMutability": "view",
			"type": "function"
		},
		{
			"inputs": [],
			"name": "uniswapV2Router",
			"outputs": [
				{
					"internalType": "address",
					"name": "",
					"type": "address"
				}
			],
			"stateMutability": "view",
			"type": "function"
		},
		{
			"inputs": [],
			"name": "usdt",
			"outputs": [
				{
					"internalType": "address",
					"name": "",
					"type": "address"
				}
			],
			"stateMutability": "view",
			"type": "function"
		},
		{
			"inputs": [
				{
					"components": [
						{
							"internalType": "address",
							"name": "token",
							"type": "address"
						},
						{
							"internalType": "address",
							"name": "holder",
							"type": "address"
						},
						{
							"internalType": "uint256",
							"name": "amount",
							"type": "uint256"
						},
						{
							"internalType": "uint256",
							"name": "orderId",
							"type": "uint256"
						},
						{
							"internalType": "uint256",
							"name": "deadline",
							"type": "uint256"
						},
						{
							"internalType": "uint8",
							"name": "v",
							"type": "uint8"
						},
						{
							"internalType": "bytes32",
							"name": "r",
							"type": "bytes32"
						},
						{
							"internalType": "bytes32",
							"name": "s",
							"type": "bytes32"
						}
					],
					"internalType": "struct SignatureInfo.Content",
					"name": "content",
					"type": "tuple"
				}
			],
			"name": "withdraw",
			"outputs": [],
			"stateMutability": "nonpayable",
			"type": "function"
		},
		{
			"stateMutability": "payable",
			"type": "receive"
		}
	]
}