{"abi":[{"type":"receive","stateMutability":"payable"},{"type":"function","name":"UPGRADE_INTERFACE_VERSION","inputs":[],"outputs":[{"name":"","type":"string","internalType":"string"}],"stateMutability":"view"},{"type":"function","name":"WETH","inputs":[],"outputs":[{"name":"","type":"address","internalType":"address"}],"stateMutability":"view"},{"type":"function","name":"claim","inputs":[],"outputs":[],"stateMutability":"nonpayable"},{"type":"function","name":"emergencyWithdraw","inputs":[{"name":"_to","type":"address","internalType":"address"}],"outputs":[],"stateMutability":"nonpayable"},{"type":"function","name":"fee","inputs":[],"outputs":[{"name":"","type":"uint256","internalType":"uint256"}],"stateMutability":"view"},{"type":"function","name":"getAmountOut","inputs":[{"name":"tokenIn","type":"address","internalType":"address"},{"name":"tokenOut","type":"address","internalType":"address"},{"name":"amountIn","type":"uint256","internalType":"uint256"}],"outputs":[{"name":"amountOut","type":"uint256","internalType":"uint256"}],"stateMutability":"view"},{"type":"function","name":"getInvitePurchaseAmount","inputs":[{"name":"","type":"address","internalType":"address"}],"outputs":[{"name":"","type":"uint256","internalType":"uint256"}],"stateMutability":"view"},{"type":"function","name":"getNftInviteRecords","inputs":[{"name":"","type":"address","internalType":"address"},{"name":"","type":"uint256","internalType":"uint256"}],"outputs":[{"name":"purchaser","type":"address","internalType":"address"},{"name":"nftAmount","type":"uint256","internalType":"uint256"},{"name":"time","type":"uint256","internalType":"uint256"}],"stateMutability":"view"},{"type":"function","name":"getPurchase","inputs":[{"name":"nfts","type":"uint256","internalType":"uint256"}],"outputs":[{"name":"","type":"uint256","internalType":"uint256"}],"stateMutability":"view"},{"type":"function","name":"getSwapResult","inputs":[{"name":"tokenIds","type":"uint256[]","internalType":"uint256[]"}],"outputs":[{"name":"","type":"uint256","internalType":"uint256"}],"stateMutability":"view"},{"type":"function","name":"getUserIncome","inputs":[{"name":"_member","type":"address","internalType":"address"}],"outputs":[{"name":"","type":"uint256","internalType":"uint256"}],"stateMutability":"view"},{"type":"function","name":"getUserInfo","inputs":[{"name":"member","type":"address","internalType":"address"}],"outputs":[{"name":"_inviter","type":"address","internalType":"address"},{"name":"_staking","type":"uint256","internalType":"uint256"},{"name":"_dynamic","type":"uint256","internalType":"uint256"},{"name":"_income","type":"uint256","internalType":"uint256"},{"name":"_members","type":"address[]","internalType":"address[]"},{"name":"_records","type":"tuple[]","internalType":"struct StakingV3.Record[]","components":[{"name":"operate","type":"uint8","internalType":"enum StakingV3.Operate"},{"name":"mark","type":"uint8","internalType":"enum StakingV3.Mark"},{"name":"members","type":"address","internalType":"address"},{"name":"amount","type":"uint256","internalType":"uint256"},{"name":"time","type":"uint256","internalType":"uint256"}]}],"stateMutability":"view"},{"type":"function","name":"initialize","inputs":[{"name":"_token","type":"address","internalType":"address"},{"name":"_prefixCode","type":"address","internalType":"address"},{"name":"_uniswapV2Factory","type":"address","internalType":"address"},{"name":"_recipient","type":"address","internalType":"address"},{"name":"_WETH","type":"address","internalType":"address"},{"name":"_rate","type":"uint256","internalType":"uint256"},{"name":"_fee","type":"uint256","internalType":"uint256"}],"outputs":[],"stateMutability":"nonpayable"},{"type":"function","name":"invite","inputs":[{"name":"_inviter","type":"address","internalType":"address"}],"outputs":[],"stateMutability":"nonpayable"},{"type":"function","name":"onERC721Received","inputs":[{"name":"","type":"address","internalType":"address"},{"name":"","type":"address","internalType":"address"},{"name":"","type":"uint256","internalType":"uint256"},{"name":"","type":"bytes","internalType":"bytes"}],"outputs":[{"name":"","type":"bytes4","internalType":"bytes4"}],"stateMutability":"nonpayable"},{"type":"function","name":"owner","inputs":[],"outputs":[{"name":"","type":"address","internalType":"address"}],"stateMutability":"view"},{"type":"function","name":"prefixCode","inputs":[],"outputs":[{"name":"","type":"address","internalType":"address"}],"stateMutability":"view"},{"type":"function","name":"provide","inputs":[{"name":"_amount","type":"uint256","internalType":"uint256"}],"outputs":[],"stateMutability":"nonpayable"},{"type":"function","name":"proxiableUUID","inputs":[],"outputs":[{"name":"","type":"bytes32","internalType":"bytes32"}],"stateMutability":"view"},{"type":"function","name":"purchase","inputs":[{"name":"amount","type":"uint256","internalType":"uint256"}],"outputs":[],"stateMutability":"payable"},{"type":"function","name":"rate","inputs":[],"outputs":[{"name":"","type":"uint256","internalType":"uint256"}],"stateMutability":"view"},{"type":"function","name":"recipient","inputs":[],"outputs":[{"name":"","type":"address","internalType":"address"}],"stateMutability":"view"},{"type":"function","name":"renounceOwnership","inputs":[],"outputs":[],"stateMutability":"nonpayable"},{"type":"function","name":"setConfig","inputs":[{"name":"_rate","type":"uint256","internalType":"uint256"},{"name":"_fee","type":"uint256","internalType":"uint256"}],"outputs":[],"stateMutability":"nonpayable"},{"type":"function","name":"setNftConfig","inputs":[{"name":"_wukong","type":"address","internalType":"address"},{"name":"_exchangeRate","type":"uint256","internalType":"uint256"},{"name":"_purchaseRate","type":"uint256","internalType":"uint256"},{"name":"_nftRecipient","type":"address","internalType":"address"},{"name":"_nftSubToken","type":"address","internalType":"address"}],"outputs":[],"stateMutability":"nonpayable"},{"type":"function","name":"setNftOwner","inputs":[{"name":"_owner","type":"address","internalType":"address"}],"outputs":[],"stateMutability":"nonpayable"},{"type":"function","name":"setSubToken","inputs":[{"name":"_subToken","type":"address","internalType":"address"}],"outputs":[],"stateMutability":"nonpayable"},{"type":"function","name":"subToken","inputs":[],"outputs":[{"name":"","type":"address","internalType":"address"}],"stateMutability":"view"},{"type":"function","name":"swap","inputs":[{"name":"tokenIds","type":"uint256[]","internalType":"uint256[]"}],"outputs":[],"stateMutability":"nonpayable"},{"type":"function","name":"token","inputs":[],"outputs":[{"name":"","type":"address","internalType":"address"}],"stateMutability":"view"},{"type":"function","name":"transferOwnership","inputs":[{"name":"newOwner","type":"address","internalType":"address"}],"outputs":[],"stateMutability":"nonpayable"},{"type":"function","name":"uniswapV2Factory","inputs":[],"outputs":[{"name":"","type":"address","internalType":"address"}],"stateMutability":"view"},{"type":"function","name":"upgradeToAndCall","inputs":[{"name":"newImplementation","type":"address","internalType":"address"},{"name":"data","type":"bytes","internalType":"bytes"}],"outputs":[],"stateMutability":"payable"},{"type":"function","name":"withdraw","inputs":[],"outputs":[],"stateMutability":"nonpayable"},{"type":"event","name":"Initialized","inputs":[{"name":"version","type":"uint64","indexed":false,"internalType":"uint64"}],"anonymous":false},{"type":"event","name":"OwnershipTransferred","inputs":[{"name":"previousOwner","type":"address","indexed":true,"internalType":"address"},{"name":"newOwner","type":"address","indexed":true,"internalType":"address"}],"anonymous":false},{"type":"event","name":"Upgraded","inputs":[{"name":"implementation","type":"address","indexed":true,"internalType":"address"}],"anonymous":false},{"type":"error","name":"AddressEmptyCode","inputs":[{"name":"target","type":"address","internalType":"address"}]},{"type":"error","name":"ERC1967InvalidImplementation","inputs":[{"name":"implementation","type":"address","internalType":"address"}]},{"type":"error","name":"ERC1967NonPayable","inputs":[]},{"type":"error","name":"FailedInnerCall","inputs":[]},{"type":"error","name":"InvalidInitialization","inputs":[]},{"type":"error","name":"NotInitializing","inputs":[]},{"type":"error","name":"OwnableInvalidOwner","inputs":[{"name":"owner","type":"address","internalType":"address"}]},{"type":"error","name":"OwnableUnauthorizedAccount","inputs":[{"name":"account","type":"address","internalType":"address"}]},{"type":"error","name":"UUPSUnauthorizedCallContext","inputs":[]},{"type":"error","name":"UUPSUnsupportedProxiableUUID","inputs":[{"name":"slot","type":"bytes32","internalType":"bytes32"}]}],"bytecode":{"object":"0x60a06040523060805234801561001457600080fd5b50608051612a9b61003e60003960008181611c2501528181611c4e0152611d8f0152612a9b6000f3fe6080604052600436106101fd5760003560e01c80636ff1c9bc1161010d578063ad5c4648116100a0578063e9ffa9f41161006f578063e9ffa9f41461062c578063ea68f66e1461064c578063efef39a11461066c578063f2fde38b1461067f578063fc0c546a1461069f57600080fd5b8063ad5c4648146105b6578063b33f9527146105d6578063c7236a46146105f6578063ddca3f431461061657600080fd5b80637f081b16116100dc5780637f081b16146104fb5780638da5cb5b1461051b578063a99e393e14610558578063ad3cb1cc1461057857600080fd5b80636ff1c9bc14610479578063715018a6146104995780637333eca7146104ae5780637d52ec37146104db57600080fd5b80634aa06652116101905780634f1ef2861161015f5780634f1ef286146103c757806352d1902d146103da57806359d0f713146103ef5780636386c1c71461042757806366d003ac1461045957600080fd5b80634aa06652146103525780634b39c792146103725780634b77c468146103925780634e71d92d146103b257600080fd5b80632e2ebe06116101cc5780632e2ebe06146102dd5780633742a9f7146102fd5780633ccfd60b1461031d57806348bf630b1461033257600080fd5b8063150b7a02146102095780631e34c585146102525780632837b438146102745780632c4e722e146102b957600080fd5b3661020457005b600080fd5b34801561021557600080fd5b50610234610224366004612493565b630a85bd0160e11b949350505050565b6040516001600160e01b031990911681526020015b60405180910390f35b34801561025e57600080fd5b5061027261026d3660046124fb565b6106bf565b005b34801561028057600080fd5b5061029461028f36600461251d565b6106d2565b604080516001600160a01b039094168452602084019290925290820152606001610249565b3480156102c557600080fd5b506102cf60045481565b604051908152602001610249565b3480156102e957600080fd5b506102726102f8366004612547565b61071e565b34801561030957600080fd5b506102cf610318366004612547565b610819565b34801561032957600080fd5b5061027261082f565b34801561033e57600080fd5b5061027261034d366004612560565b61090a565b34801561035e57600080fd5b506102cf61036d366004612606565b6109e4565b34801561037e57600080fd5b5061027261038d366004612642565b610a1b565b34801561039e57600080fd5b506102726103ad366004612699565b610a6d565b3480156103be57600080fd5b50610272610bac565b6102726103d53660046126b4565b610c80565b3480156103e657600080fd5b506102cf610c9b565b3480156103fb57600080fd5b5060035461040f906001600160a01b031681565b6040516001600160a01b039091168152602001610249565b34801561043357600080fd5b50610447610442366004612699565b610cb8565b60405161024996959493929190612718565b34801561046557600080fd5b5060075461040f906001600160a01b031681565b34801561048557600080fd5b50610272610494366004612699565b610e7e565b3480156104a557600080fd5b50610272610e90565b3480156104ba57600080fd5b506102cf6104c9366004612699565b600f6020526000908152604090205481565b3480156104e757600080fd5b506102726104f6366004612699565b610ea4565b34801561050757600080fd5b506102cf610516366004612699565b610ece565b34801561052757600080fd5b507f9016d09d72d40fdae2fd8ceac6b6234c7706214fd39c1cd1e609a0528c199300546001600160a01b031661040f565b34801561056457600080fd5b5060025461040f906001600160a01b031681565b34801561058457600080fd5b506105a9604051806040016040528060058152602001640352e302e360dc1b81525081565b6040516102499190612838565b3480156105c257600080fd5b5060065461040f906001600160a01b031681565b3480156105e257600080fd5b506102726105f136600461286b565b610f4b565b34801561060257600080fd5b506102cf610611366004612560565b6110c9565b34801561062257600080fd5b506102cf60055481565b34801561063857600080fd5b5060085461040f906001600160a01b031681565b34801561065857600080fd5b50610272610667366004612699565b6110da565b61027261067a366004612547565b611144565b34801561068b57600080fd5b5061027261069a366004612699565b6113e2565b3480156106ab57600080fd5b5060015461040f906001600160a01b031681565b6106c761141d565b600491909155600555565b600e60205281600052604060002081815481106106ee57600080fd5b60009182526020909120600390910201805460018201546002909201546001600160a01b03909116935090915083565b33600090815260208190526040902080546001600160a01b03161580159061074e575067016345785d8a00008210155b80156107625750670de0b6b3a76400008211155b6107a95760405162461bcd60e51b81526020600482015260136024820152722727aa2fa82927ab24a222afa822a926a4aa1760691b60448201526064015b60405180910390fd5b6001546007546107c8916001600160a01b039081169133911685611478565b6001546007546107e6916001600160a01b0390811691163085611478565b6107ef336115a8565b8181600101600082825461080391906128f9565b909155506108159050600033846115ed565b5050565b6000600b5482610829919061290c565b92915050565b336000908152602081905260409020600181015461087f5760405162461bcd60e51b815260206004820152600d60248201526c22a92927a92fa0a6a7aaa72a1760991b60448201526064016107a0565b610888336115a8565b60018054600754918301546108aa926001600160a01b0392831692169061191d565b60018054600754600554928401546108e9936001600160a01b03938416939092169133916064916108da9161290c565b6108e49190612923565b611478565b6108f960013383600101546115ed565b600060018201819055600290910155565b60005b81518110156109c15760095482516001600160a01b03909116906342842e0e903390309086908690811061094357610943612945565b60209081029190910101516040516001600160e01b031960e086901b1681526001600160a01b0393841660048201529290911660248301526044820152606401600060405180830381600087803b15801561099d57600080fd5b505af11580156109b1573d6000803e3d6000fd5b50506001909201915061090d9050565b50600d546109e1906001600160a01b0316336109dc846110c9565b61191d565b50565b60035460009081908190610a02906001600160a01b03168787611a31565b91509150610a11848383611afb565b9695505050505050565b610a2361141d565b600980546001600160a01b039687166001600160a01b031991821617909155600a94909455600b92909255600c8054918516918416919091179055600d8054919093169116179055565b60006001600160a01b03821633141580610a9d5750336000908152602081905260409020546001600160a01b0316155b905080610add5760405162461bcd60e51b815260206004820152600e60248201526d22a92927a92fa4a72b24aa22a91760911b60448201526064016107a0565b6002546001600160a01b03838116911614610b5e576001600160a01b03821660009081526020819052604090206001015467016345785d8a00001115610b5e5760405162461bcd60e51b81526020600482015260166024820152752727aa2fa420a9afa4a72b24aa22afa822a926a4aa1760511b60448201526064016107a0565b503360008181526020818152604080832080546001600160a01b039096166001600160a01b031996871681179091558352822060050180546001810182559083529120018054909216179055565b333b63ffffffff1615610bf45760405162461bcd60e51b815260206004820152601060248201526f22a92927a92fa922a1a4a824a2a72a1760811b60448201526064016107a0565b6000610bff33610ece565b11610c3c5760405162461bcd60e51b815260206004820152600d60248201526c22a92927a92fa0a6a7aaa72a1760991b60448201526064016107a0565b610c45336115a8565b6000610c5033610ece565b600854909150610c6a906001600160a01b0316338361191d565b5033600090815260208190526040812060030155565b610c88611c1a565b610c9182611cbf565b6108158282611cc7565b6000610ca5611d84565b50600080516020612a4683398151915290565b6001600160a01b038082166000908152602081905260408120805460018201546002909201549316929091606080610cef87610ece565b6001600160a01b038816600090815260208181526040918290206005018054835181840281018401909452808452939650919290830182828015610d5c57602002820191906000526020600020905b81546001600160a01b03168152600190910190602001808311610d3e575b5050506001600160a01b038a1660009081526020818152604080832060060180548251818502810185019093528083529698509095909450925084015b82821015610e6f576000848152602090206040805160a08101909152600384029091018054829060ff166001811115610dd457610dd4612702565b6001811115610de557610de5612702565b81528154602090910190610100900460ff166002811115610e0857610e08612702565b6002811115610e1957610e19612702565b81526020016000820160029054906101000a90046001600160a01b03166001600160a01b03166001600160a01b031681526020016001820154815260200160028201548152505081526020019060010190610d99565b50505050905091939550919395565b610e8661141d565b6109e18147611dcd565b610e9861141d565b610ea26000611e96565b565b610eac61141d565b600880546001600160a01b0319166001600160a01b0392909216919091179055565b6001600160a01b0381166000908152602081905260408120600381015460045460028301546001840154670de0b6b3a7640000939291610f0d916128f9565b6004850154610f1c904261295b565b610f26919061290c565b610f30919061290c565b610f3a91906128f9565b610f449190612923565b9392505050565b7ff0c57e16840df040f15088dc2f81fe391c3923bec73e23a9662efc9c229c6a008054600160401b810460ff16159067ffffffffffffffff16600081158015610f915750825b905060008267ffffffffffffffff166001148015610fae5750303b155b905081158015610fbc575080155b15610fda5760405163f92ee8a960e01b815260040160405180910390fd5b845467ffffffffffffffff19166001178555831561100457845460ff60401b1916600160401b1785555b61100d33611f07565b611015611f0f565b600180546001600160a01b03199081166001600160a01b038f8116919091179092556002805482168e84161790556003805482168d84161790556007805482168c841617905560068054909116918a169190911790556004879055600586905583156110bb57845460ff60401b19168555604051600181527fc7f505b2f371ae2175ee4913f4499e1f2633a7b5936321eed1cdaeb6115181d29060200160405180910390a15b505050505050505050505050565b6000600a548251610829919061290c565b6110e261141d565b60095460405163f2fde38b60e01b81526001600160a01b0383811660048301529091169063f2fde38b90602401600060405180830381600087803b15801561112957600080fd5b505af115801561113d573d6000803e3d6000fd5b5050505050565b80600b54611152919061290c565b3410156111935760405162461bcd60e51b815260206004820152600f60248201526e45726f7272206d73672e76616c756560881b60448201526064016107a0565b600c546111b1906001600160a01b03166111ac83610819565b611dcd565b6009546040516343508b0560e01b8152336004820152602481018390526001600160a01b03909116906343508b0590604401600060405180830381600087803b1580156111fd57600080fd5b505af1158015611211573d6000803e3d6000fd5b505033600090815260208190526040902080549092506001600160a01b031690506112745760405162461bcd60e51b81526020600482015260136024820152722727aa2fa82927ab24a222afa822a926a4aa1760691b60448201526064016107a0565b80546001600160a01b03166000908152600f60205260408120805484929061129d9084906128f9565b909155505080546001600160a01b039081166000908152600e602090815260408083208151606081018352338152808401888152428285019081528354600180820186559488528688209351600390910290930180546001600160a01b031916938916939093178355905192820192909255905160029091015584549093168252600f90529081205461133290600a90612923565b905080156113dd5760095482546040516343508b0560e01b81526001600160a01b039182166004820152602481018490529116906343508b0590604401600060405180830381600087803b15801561138957600080fd5b505af115801561139d573d6000803e3d6000fd5b5050505080600a6113ae919061290c565b82546001600160a01b03166000908152600f6020526040812080549091906113d790849061295b565b90915550505b505050565b6113ea61141d565b6001600160a01b03811661141457604051631e4fbdf760e01b8152600060048201526024016107a0565b6109e181611e96565b3361144f7f9016d09d72d40fdae2fd8ceac6b6234c7706214fd39c1cd1e609a0528c199300546001600160a01b031690565b6001600160a01b031614610ea25760405163118cdaa760e01b81523360048201526024016107a0565b604080516001600160a01b0385811660248301528481166044830152606480830185905283518084039091018152608490920183526020820180516001600160e01b03166323b872dd60e01b17905291516000928392908816916114dc919061296e565b6000604051808303816000865af19150503d8060008114611519576040519150601f19603f3d011682016040523d82523d6000602084013e61151e565b606091505b5091509150818015611548575080511580611548575080806020019051810190611548919061298a565b6115a05760405162461bcd60e51b8152602060048201526024808201527f5472616e7366657248656c7065723a205452414e534645525f46524f4d5f46416044820152631253115160e21b60648201526084016107a0565b505050505050565b6115b181610ece565b6115c390670de0b6b3a764000061290c565b6001600160a01b039091166000908152602081905260409020600381019190915542600490910155565b6001600160a01b03808316600090815260208190526040812054909116905b60028110801561162457506001600160a01b03821615155b1561113d57611632826115a8565b6001600160a01b03821660009081526020819052604081209082810361176057816006016040518060a0016040528089600181111561167357611673612702565b8152600160208083018290526001600160a01b038b166040840152606083018a905242608090930192909252835480820185556000948552919093208251600390920201805492939092839160ff199091169083818111156116d7576116d7612702565b021790555060208201518154829061ff0019166101008360028111156116ff576116ff612702565b0217905550604082015181546001600160a01b03909116620100000262010000600160b01b031990911617815560608201516001820155608090910151600290910155606461174f86601461290c565b6117599190612923565b905061186d565b816006016040518060a0016040528089600181111561178157611781612702565b8152602001600281526001600160a01b038916602080830191909152604082018990524260609092019190915282546001818101855560009485529190932082516003909402018054929390929091839160ff19169083818111156117e8576117e8612702565b021790555060208201518154829061ff00191661010083600281111561181057611810612702565b0217905550604082015181546001600160a01b03909116620100000262010000600160b01b031990911617815560608201516001820155608090910151600290910155606461186086600a61290c565b61186a9190612923565b90505b600087600181111561188157611881612702565b036118a0578082600201600082825461189a91906128f9565b90915550505b60018760018111156118b4576118b4612702565b036118eb57808260020154106118e357808260020160008282546118d8919061295b565b909155506118eb9050565b600060028301555b50506001600160a01b039182166000908152602081905260409020549091169080611915816129ac565b91505061160c565b604080516001600160a01b038481166024830152604480830185905283518084039091018152606490920183526020820180516001600160e01b031663a9059cbb60e01b1790529151600092839290871691611979919061296e565b6000604051808303816000865af19150503d80600081146119b6576040519150601f19603f3d011682016040523d82523d6000602084013e6119bb565b606091505b50915091508180156119e55750805115806119e55750808060200190518101906119e5919061298a565b61113d5760405162461bcd60e51b815260206004820152601f60248201527f5472616e7366657248656c7065723a205452414e534645525f4641494c45440060448201526064016107a0565b6000806000611a408585611f17565b509050600080611a5188888861200e565b6001600160a01b0316630902f1ac6040518163ffffffff1660e01b8152600401606060405180830381865afa158015611a8e573d6000803e3d6000fd5b505050506040513d601f19601f82011682018060405250810190611ab291906129dc565b506001600160701b031691506001600160701b03169150826001600160a01b0316876001600160a01b031614611ae9578082611aec565b81815b90999098509650505050505050565b6000808411611b605760405162461bcd60e51b815260206004820152602b60248201527f556e697377617056324c6962726172793a20494e53554646494349454e545f4960448201526a1394155517d05353d5539560aa1b60648201526084016107a0565b600083118015611b705750600082115b611bcd5760405162461bcd60e51b815260206004820152602860248201527f556e697377617056324c6962726172793a20494e53554646494349454e545f4c604482015267495155494449545960c01b60648201526084016107a0565b6000611bdb856103e56120e6565b90506000611be982856120e6565b90506000611c0383611bfd886103e86120e6565b9061214d565b9050611c0f8183612923565b979650505050505050565b306001600160a01b037f0000000000000000000000000000000000000000000000000000000000000000161480611ca157507f00000000000000000000000000000000000000000000000000000000000000006001600160a01b0316611c95600080516020612a46833981519152546001600160a01b031690565b6001600160a01b031614155b15610ea25760405163703e46dd60e11b815260040160405180910390fd5b6109e161141d565b816001600160a01b03166352d1902d6040518163ffffffff1660e01b8152600401602060405180830381865afa925050508015611d21575060408051601f3d908101601f19168201909252611d1e91810190612a2c565b60015b611d4957604051634c9c8ce360e01b81526001600160a01b03831660048201526024016107a0565b600080516020612a468339815191528114611d7a57604051632a87526960e21b8152600481018290526024016107a0565b6113dd83836121a2565b306001600160a01b037f00000000000000000000000000000000000000000000000000000000000000001614610ea25760405163703e46dd60e11b815260040160405180910390fd5b604080516000808252602082019092526001600160a01b038416908390604051611df7919061296e565b60006040518083038185875af1925050503d8060008114611e34576040519150601f19603f3d011682016040523d82523d6000602084013e611e39565b606091505b50509050806113dd5760405162461bcd60e51b815260206004820152602360248201527f5472616e7366657248656c7065723a204554485f5452414e534645525f46414960448201526213115160ea1b60648201526084016107a0565b7f9016d09d72d40fdae2fd8ceac6b6234c7706214fd39c1cd1e609a0528c19930080546001600160a01b031981166001600160a01b03848116918217845560405192169182907f8be0079c531659141344cd1fd0a4f28419497f9722a3daafe3b4186f6b6457e090600090a3505050565b6113ea6121f8565b610ea26121f8565b600080826001600160a01b0316846001600160a01b031603611f895760405162461bcd60e51b815260206004820152602560248201527f556e697377617056324c6962726172793a204944454e544943414c5f41444452604482015264455353455360d81b60648201526084016107a0565b826001600160a01b0316846001600160a01b031610611fa9578284611fac565b83835b90925090506001600160a01b0382166120075760405162461bcd60e51b815260206004820152601e60248201527f556e697377617056324c6962726172793a205a45524f5f41444452455353000060448201526064016107a0565b9250929050565b600080600061201d8585611f17565b6040516bffffffffffffffffffffffff19606084811b8216602084015283901b16603482015291935091508690604801604051602081830303815290604052805190602001206040516020016120c49291906001600160f81b0319815260609290921b6bffffffffffffffffffffffff1916600183015260158201527efb7f630766e6a796048ea87d01acd3068e8ff67d078148a3fa3f4a84f69bd5603582015260550190565b60408051601f1981840301815291905280516020909101209695505050505050565b600081158061210a575082826120fc818361290c565b92506121089083612923565b145b6108295760405162461bcd60e51b815260206004820152601460248201527364732d6d6174682d6d756c2d6f766572666c6f7760601b60448201526064016107a0565b60008261215a83826128f9565b91508110156108295760405162461bcd60e51b815260206004820152601460248201527364732d6d6174682d6164642d6f766572666c6f7760601b60448201526064016107a0565b6121ab82612241565b6040516001600160a01b038316907fbc7cd75a20ee27fd9adebab32041f755214dbc6bffa90cc0225b39da2e5c2d3b90600090a28051156121f0576113dd82826122a6565b61081561231c565b7ff0c57e16840df040f15088dc2f81fe391c3923bec73e23a9662efc9c229c6a0054600160401b900460ff16610ea257604051631afcd79f60e31b815260040160405180910390fd5b806001600160a01b03163b60000361227757604051634c9c8ce360e01b81526001600160a01b03821660048201526024016107a0565b600080516020612a4683398151915280546001600160a01b0319166001600160a01b0392909216919091179055565b6060600080846001600160a01b0316846040516122c3919061296e565b600060405180830381855af49150503d80600081146122fe576040519150601f19603f3d011682016040523d82523d6000602084013e612303565b606091505b509150915061231385838361233b565b95945050505050565b3415610ea25760405163b398979f60e01b815260040160405180910390fd5b6060826123505761234b82612397565b610f44565b815115801561236757506001600160a01b0384163b155b1561239057604051639996b31560e01b81526001600160a01b03851660048201526024016107a0565b5092915050565b8051156123a75780518082602001fd5b604051630a12f52160e11b815260040160405180910390fd5b80356001600160a01b03811681146123d757600080fd5b919050565b634e487b7160e01b600052604160045260246000fd5b604051601f8201601f1916810167ffffffffffffffff8111828210171561241b5761241b6123dc565b604052919050565b600082601f83011261243457600080fd5b813567ffffffffffffffff81111561244e5761244e6123dc565b612461601f8201601f19166020016123f2565b81815284602083860101111561247657600080fd5b816020850160208301376000918101602001919091529392505050565b600080600080608085870312156124a957600080fd5b6124b2856123c0565b93506124c0602086016123c0565b925060408501359150606085013567ffffffffffffffff8111156124e357600080fd5b6124ef87828801612423565b91505092959194509250565b6000806040838503121561250e57600080fd5b50508035926020909101359150565b6000806040838503121561253057600080fd5b612539836123c0565b946020939093013593505050565b60006020828403121561255957600080fd5b5035919050565b6000602080838503121561257357600080fd5b823567ffffffffffffffff8082111561258b57600080fd5b818501915085601f83011261259f57600080fd5b8135818111156125b1576125b16123dc565b8060051b91506125c28483016123f2565b81815291830184019184810190888411156125dc57600080fd5b938501935b838510156125fa578435825293850193908501906125e1565b98975050505050505050565b60008060006060848603121561261b57600080fd5b612624846123c0565b9250612632602085016123c0565b9150604084013590509250925092565b600080600080600060a0868803121561265a57600080fd5b612663866123c0565b9450602086013593506040860135925061267f606087016123c0565b915061268d608087016123c0565b90509295509295909350565b6000602082840312156126ab57600080fd5b610f44826123c0565b600080604083850312156126c757600080fd5b6126d0836123c0565b9150602083013567ffffffffffffffff8111156126ec57600080fd5b6126f885828601612423565b9150509250929050565b634e487b7160e01b600052602160045260246000fd5b600060c0820160018060a01b03808a1684526020898186015260408960408701526060896060880152608060c06080890152858a5180885260e08a019150858c01975060005b8181101561277c57885188168352978601979186019160010161275e565b505060a0965088810360a08a0152808a518083528683019150868c01925060005b818110156127fc5783518051600281106127b9576127b9612702565b845280890151600381106127cf576127cf612702565b848a0152808801518a1688850152868101518785015285015185840152928701929189019160010161279d565b50508098505050505050505050979650505050505050565b60005b8381101561282f578181015183820152602001612817565b50506000910152565b6020815260008251806020840152612857816040850160208701612814565b601f01601f19169190910160400192915050565b600080600080600080600060e0888a03121561288657600080fd5b61288f886123c0565b965061289d602089016123c0565b95506128ab604089016123c0565b94506128b9606089016123c0565b93506128c7608089016123c0565b925060a0880135915060c0880135905092959891949750929550565b634e487b7160e01b600052601160045260246000fd5b80820180821115610829576108296128e3565b8082028115828204841417610829576108296128e3565b60008261294057634e487b7160e01b600052601260045260246000fd5b500490565b634e487b7160e01b600052603260045260246000fd5b81810381811115610829576108296128e3565b60008251612980818460208701612814565b9190910192915050565b60006020828403121561299c57600080fd5b81518015158114610f4457600080fd5b6000600182016129be576129be6128e3565b5060010190565b80516001600160701b03811681146123d757600080fd5b6000806000606084860312156129f157600080fd5b6129fa846129c5565b9250612a08602085016129c5565b9150604084015163ffffffff81168114612a2157600080fd5b809150509250925092565b600060208284031215612a3e57600080fd5b505191905056fe360894a13ba1a3210667c828492db98dca3e2076cc3735a920a3ca505d382bbca2646970667358221220e01ba62c67e8b4175c2fb5b24cc50df2b710e1c98b12acce78076122be6de7db64736f6c63430008180033","linkReferences":{}},"methodIdentifiers":{"UPGRADE_INTERFACE_VERSION()":"ad3cb1cc","WETH()":"ad5c4648","claim()":"4e71d92d","emergencyWithdraw(address)":"6ff1c9bc","fee()":"ddca3f43","getAmountOut(address,address,uint256)":"4aa06652","getInvitePurchaseAmount(address)":"7333eca7","getNftInviteRecords(address,uint256)":"2837b438","getPurchase(uint256)":"3742a9f7","getSwapResult(uint256[])":"c7236a46","getUserIncome(address)":"7f081b16","getUserInfo(address)":"6386c1c7","initialize(address,address,address,address,address,uint256,uint256)":"b33f9527","invite(address)":"4b77c468","onERC721Received(address,address,uint256,bytes)":"150b7a02","owner()":"8da5cb5b","prefixCode()":"a99e393e","provide(uint256)":"2e2ebe06","proxiableUUID()":"52d1902d","purchase(uint256)":"efef39a1","rate()":"2c4e722e","recipient()":"66d003ac","renounceOwnership()":"715018a6","setConfig(uint256,uint256)":"1e34c585","setNftConfig(address,uint256,uint256,address,address)":"4b39c792","setNftOwner(address)":"ea68f66e","setSubToken(address)":"7d52ec37","subToken()":"e9ffa9f4","swap(uint256[])":"48bf630b","token()":"fc0c546a","transferOwnership(address)":"f2fde38b","uniswapV2Factory()":"59d0f713","upgradeToAndCall(address,bytes)":"4f1ef286","withdraw()":"3ccfd60b"},"id":48}