{
	"data": {
		"bytecode": {
			"linkReferences": {},
			"object": "60806040523480156200001157600080fd5b506040516200120738038062001207833981016040819052620000349162000408565b604051806040016040528060048152602001630446565760e41b815250604051806040016040528060048152602001630444545560e41b81525081600390816200007f9190620005a1565b5060046200008e8282620005a1565b50505060006c0c9f2c9cd04674edea400000009050620000e885600081518110620000bd57620000bd6200066d565b6020026020010151606483601e620000d6919062000699565b620000e29190620006b9565b6200030a565b6200011b856001815181106200010257620001026200066d565b60200260200101516064836005620000d6919062000699565b62000135856002815181106200010257620001026200066d565b6200014f856003815181106200010257620001026200066d565b62000182856004815181106200016957620001696200066d565b60200260200101516064836004620000d6919062000699565b620001b5856005815181106200019c576200019c6200066d565b60200260200101516064836001620000d6919062000699565b620001e885600681518110620001cf57620001cf6200066d565b60200260200101516064836032620000d6919062000699565b836001600160a01b031663c45a01556040518163ffffffff1660e01b8152600401602060405180830381865afa15801562000227573d6000803e3d6000fd5b505050506040513d601f19601f820116820180604052508101906200024d9190620006dc565b6040516364e329cb60e11b81526001600160a01b038581166004830152306024830152919091169063c9c65396906044016020604051808303816000875af11580156200029e573d6000803e3d6000fd5b505050506040513d601f19601f82011682018060405250810190620002c49190620006dc565b600680546001600160a01b039283166001600160a01b03199182161790915560078054949092169381169390931790555060058054909116331790555062000717915050565b6001600160a01b038216620003655760405162461bcd60e51b815260206004820152601f60248201527f45524332303a206d696e7420746f20746865207a65726f206164647265737300604482015260640160405180910390fd5b806002600082825462000379919062000701565b90915550506001600160a01b038216600081815260208181526040808320805486019055518481527fddf252ad1be2c89b69c2b068fc378daa952ba7f163c4a11628f55a4df523b3ef910160405180910390a35050565b505050565b634e487b7160e01b600052604160045260246000fd5b80516001600160a01b03811681146200040357600080fd5b919050565b600080600080608085870312156200041f57600080fd5b84516001600160401b03808211156200043757600080fd5b818701915087601f8301126200044c57600080fd5b8151602082821115620004635762000463620003d5565b8160051b604051601f19603f830116810181811086821117156200048b576200048b620003d5565b60405292835281830193508481018201928b841115620004aa57600080fd5b948201945b83861015620004d357620004c386620003eb565b85529482019493820193620004af565b9850620004e49050898201620003eb565b965050505050620004f860408601620003eb565b91506200050860608601620003eb565b905092959194509250565b600181811c908216806200052857607f821691505b6020821081036200054957634e487b7160e01b600052602260045260246000fd5b50919050565b601f821115620003d057600081815260208120601f850160051c81016020861015620005785750805b601f850160051c820191505b81811015620005995782815560010162000584565b505050505050565b81516001600160401b03811115620005bd57620005bd620003d5565b620005d581620005ce845462000513565b846200054f565b602080601f8311600181146200060d5760008415620005f45750858301515b600019600386901b1c1916600185901b17855562000599565b600085815260208120601f198616915b828110156200063e578886015182559484019460019091019084016200061d565b50858210156200065d5787850151600019600388901b60f8161c191681555b5050505050600190811b01905550565b634e487b7160e01b600052603260045260246000fd5b634e487b7160e01b600052601160045260246000fd5b8082028115828204841417620006b357620006b362000683565b92915050565b600082620006d757634e487b7160e01b600052601260045260246000fd5b500490565b600060208284031215620006ef57600080fd5b620006fa82620003eb565b9392505050565b80820180821115620006b357620006b362000683565b610ae080620007276000396000f3fe608060405234801561001057600080fd5b50600436106101005760003560e01c806349bd5a5e1161009757806395d89b411161006657806395d89b411461022f578063a457c2d714610237578063a9059cbb1461024a578063dd62ed3e1461025d57600080fd5b806349bd5a5e146101cd57806370a08231146101e05780637abd21b8146102095780638da5cb5b1461021c57600080fd5b806323b872dd116100d357806323b872dd1461016d578063313ce56714610180578063395093511461018f5780633e032a3b146101a257600080fd5b806306fdde0314610105578063095ea7b31461012357806313af40351461014657806318160ddd1461015b575b600080fd5b61010d610270565b60405161011a91906108d6565b60405180910390f35b610136610131366004610940565b610302565b604051901515815260200161011a565b61015961015436600461096a565b61031c565b005b6002545b60405190815260200161011a565b61013661017b36600461098c565b610393565b6040516012815260200161011a565b61013661019d366004610940565b6103b7565b6007546101b5906001600160a01b031681565b6040516001600160a01b03909116815260200161011a565b6006546101b5906001600160a01b031681565b61015f6101ee36600461096a565b6001600160a01b031660009081526020819052604090205490565b61015961021736600461096a565b6103d9565b6005546101b5906001600160a01b031681565b61010d61044b565b610136610245366004610940565b61045a565b610136610258366004610940565b6104d5565b61015f61026b3660046109c8565b6104e3565b60606003805461027f906109fb565b80601f01602080910402602001604051908101604052809291908181526020018280546102ab906109fb565b80156102f85780601f106102cd576101008083540402835291602001916102f8565b820191906000526020600020905b8154815290600101906020018083116102db57829003601f168201915b5050505050905090565b60003361031081858561050e565b60019150505b92915050565b6005546001600160a01b031633146103715760405162461bcd60e51b815260206004820152601360248201527221b0b63632b91034b9903737ba1037bbb732b960691b60448201526064015b60405180910390fd5b600580546001600160a01b0319166001600160a01b0392909216919091179055565b6000336103a1858285610632565b6103ac8585856106ac565b506001949350505050565b6000336103108185856103ca83836104e3565b6103d49190610a4b565b61050e565b6005546001600160a01b031633146104295760405162461bcd60e51b815260206004820152601360248201527221b0b63632b91034b9903737ba1037bbb732b960691b6044820152606401610368565b600780546001600160a01b0319166001600160a01b0392909216919091179055565b60606004805461027f906109fb565b6000338161046882866104e3565b9050838110156104c85760405162461bcd60e51b815260206004820152602560248201527f45524332303a2064656372656173656420616c6c6f77616e63652062656c6f77604482015264207a65726f60d81b6064820152608401610368565b6103ac828686840361050e565b6000336103108185856106ac565b6001600160a01b03918216600090815260016020908152604080832093909416825291909152205490565b6001600160a01b0383166105705760405162461bcd60e51b8152602060048201526024808201527f45524332303a20617070726f76652066726f6d20746865207a65726f206164646044820152637265737360e01b6064820152608401610368565b6001600160a01b0382166105d15760405162461bcd60e51b815260206004820152602260248201527f45524332303a20617070726f766520746f20746865207a65726f206164647265604482015261737360f01b6064820152608401610368565b6001600160a01b0383811660008181526001602090815260408083209487168084529482529182902085905590518481527f8c5be1e5ebec7d5bd14f71427d1e84f3dd0314c0f7b2291e5b200ac8c7c3b925910160405180910390a3505050565b600061063e84846104e3565b905060001981146106a657818110156106995760405162461bcd60e51b815260206004820152601d60248201527f45524332303a20696e73756666696369656e7420616c6c6f77616e63650000006044820152606401610368565b6106a6848484840361050e565b50505050565b6006546000906001600160a01b03848116911614806106d857506006546001600160a01b038581169116145b9050600060646106e9846003610a5e565b6106f39190610a75565b90508115610720576007546107139086906001600160a01b031683610732565b61071d8184610a97565b92505b61072b858585610732565b5050505050565b6001600160a01b0383166107965760405162461bcd60e51b815260206004820152602560248201527f45524332303a207472616e736665722066726f6d20746865207a65726f206164604482015264647265737360d81b6064820152608401610368565b6001600160a01b0382166107f85760405162461bcd60e51b815260206004820152602360248201527f45524332303a207472616e7366657220746f20746865207a65726f206164647260448201526265737360e81b6064820152608401610368565b6001600160a01b038316600090815260208190526040902054818110156108705760405162461bcd60e51b815260206004820152602660248201527f45524332303a207472616e7366657220616d6f756e7420657863656564732062604482015265616c616e636560d01b6064820152608401610368565b6001600160a01b03848116600081815260208181526040808320878703905593871680835291849020805487019055925185815290927fddf252ad1be2c89b69c2b068fc378daa952ba7f163c4a11628f55a4df523b3ef910160405180910390a36106a6565b600060208083528351808285015260005b81811015610903578581018301518582016040015282016108e7565b506000604082860101526040601f19601f8301168501019250505092915050565b80356001600160a01b038116811461093b57600080fd5b919050565b6000806040838503121561095357600080fd5b61095c83610924565b946020939093013593505050565b60006020828403121561097c57600080fd5b61098582610924565b9392505050565b6000806000606084860312156109a157600080fd5b6109aa84610924565b92506109b860208501610924565b9150604084013590509250925092565b600080604083850312156109db57600080fd5b6109e483610924565b91506109f260208401610924565b90509250929050565b600181811c90821680610a0f57607f821691505b602082108103610a2f57634e487b7160e01b600052602260045260246000fd5b50919050565b634e487b7160e01b600052601160045260246000fd5b8082018082111561031657610316610a35565b808202811582820484141761031657610316610a35565b600082610a9257634e487b7160e01b600052601260045260246000fd5b500490565b8181038181111561031657610316610a3556fea2646970667358221220fa514b27bb72ef904b28c9c2274014169774606cdcfae21d2c3889a871416b0664736f6c63430008120033",
			"opcodes": "PUSH1 0x80 PUSH1 0x40 MSTORE CALLVALUE DUP1 ISZERO PUSH3 0x11 JUMPI PUSH1 0x0 DUP1 REVERT JUMPDEST POP PUSH1 0x40 MLOAD PUSH3 0x1207 CODESIZE SUB DUP1 PUSH3 0x1207 DUP4 CODECOPY DUP2 ADD PUSH1 0x40 DUP2 SWAP1 MSTORE PUSH3 0x34 SWAP2 PUSH3 0x408 JUMP JUMPDEST PUSH1 0x40 MLOAD DUP1 PUSH1 0x40 ADD PUSH1 0x40 MSTORE DUP1 PUSH1 0x4 DUP2 MSTORE PUSH1 0x20 ADD PUSH4 0x4465657 PUSH1 0xE4 SHL DUP2 MSTORE POP PUSH1 0x40 MLOAD DUP1 PUSH1 0x40 ADD PUSH1 0x40 MSTORE DUP1 PUSH1 0x4 DUP2 MSTORE PUSH1 0x20 ADD PUSH4 0x4445455 PUSH1 0xE4 SHL DUP2 MSTORE POP DUP2 PUSH1 0x3 SWAP1 DUP2 PUSH3 0x7F SWAP2 SWAP1 PUSH3 0x5A1 JUMP JUMPDEST POP PUSH1 0x4 PUSH3 0x8E DUP3 DUP3 PUSH3 0x5A1 JUMP JUMPDEST POP POP POP PUSH1 0x0 PUSH13 0xC9F2C9CD04674EDEA40000000 SWAP1 POP PUSH3 0xE8 DUP6 PUSH1 0x0 DUP2 MLOAD DUP2 LT PUSH3 0xBD JUMPI PUSH3 0xBD PUSH3 0x66D JUMP JUMPDEST PUSH1 0x20 MUL PUSH1 0x20 ADD ADD MLOAD PUSH1 0x64 DUP4 PUSH1 0x1E PUSH3 0xD6 SWAP2 SWAP1 PUSH3 0x699 JUMP JUMPDEST PUSH3 0xE2 SWAP2 SWAP1 PUSH3 0x6B9 JUMP JUMPDEST PUSH3 0x30A JUMP JUMPDEST PUSH3 0x11B DUP6 PUSH1 0x1 DUP2 MLOAD DUP2 LT PUSH3 0x102 JUMPI PUSH3 0x102 PUSH3 0x66D JUMP JUMPDEST PUSH1 0x20 MUL PUSH1 0x20 ADD ADD MLOAD PUSH1 0x64 DUP4 PUSH1 0x5 PUSH3 0xD6 SWAP2 SWAP1 PUSH3 0x699 JUMP JUMPDEST PUSH3 0x135 DUP6 PUSH1 0x2 DUP2 MLOAD DUP2 LT PUSH3 0x102 JUMPI PUSH3 0x102 PUSH3 0x66D JUMP JUMPDEST PUSH3 0x14F DUP6 PUSH1 0x3 DUP2 MLOAD DUP2 LT PUSH3 0x102 JUMPI PUSH3 0x102 PUSH3 0x66D JUMP JUMPDEST PUSH3 0x182 DUP6 PUSH1 0x4 DUP2 MLOAD DUP2 LT PUSH3 0x169 JUMPI PUSH3 0x169 PUSH3 0x66D JUMP JUMPDEST PUSH1 0x20 MUL PUSH1 0x20 ADD ADD MLOAD PUSH1 0x64 DUP4 PUSH1 0x4 PUSH3 0xD6 SWAP2 SWAP1 PUSH3 0x699 JUMP JUMPDEST PUSH3 0x1B5 DUP6 PUSH1 0x5 DUP2 MLOAD DUP2 LT PUSH3 0x19C JUMPI PUSH3 0x19C PUSH3 0x66D JUMP JUMPDEST PUSH1 0x20 MUL PUSH1 0x20 ADD ADD MLOAD PUSH1 0x64 DUP4 PUSH1 0x1 PUSH3 0xD6 SWAP2 SWAP1 PUSH3 0x699 JUMP JUMPDEST PUSH3 0x1E8 DUP6 PUSH1 0x6 DUP2 MLOAD DUP2 LT PUSH3 0x1CF JUMPI PUSH3 0x1CF PUSH3 0x66D JUMP JUMPDEST PUSH1 0x20 MUL PUSH1 0x20 ADD ADD MLOAD PUSH1 0x64 DUP4 PUSH1 0x32 PUSH3 0xD6 SWAP2 SWAP1 PUSH3 0x699 JUMP JUMPDEST DUP4 PUSH1 0x1 PUSH1 0x1 PUSH1 0xA0 SHL SUB AND PUSH4 0xC45A0155 PUSH1 0x40 MLOAD DUP2 PUSH4 0xFFFFFFFF AND PUSH1 0xE0 SHL DUP2 MSTORE PUSH1 0x4 ADD PUSH1 0x20 PUSH1 0x40 MLOAD DUP1 DUP4 SUB DUP2 DUP7 GAS STATICCALL ISZERO DUP1 ISZERO PUSH3 0x227 JUMPI RETURNDATASIZE PUSH1 0x0 DUP1 RETURNDATACOPY RETURNDATASIZE PUSH1 0x0 REVERT JUMPDEST POP POP POP POP PUSH1 0x40 MLOAD RETURNDATASIZE PUSH1 0x1F NOT PUSH1 0x1F DUP3 ADD AND DUP3 ADD DUP1 PUSH1 0x40 MSTORE POP DUP2 ADD SWAP1 PUSH3 0x24D SWAP2 SWAP1 PUSH3 0x6DC JUMP JUMPDEST PUSH1 0x40 MLOAD PUSH4 0x64E329CB PUSH1 0xE1 SHL DUP2 MSTORE PUSH1 0x1 PUSH1 0x1 PUSH1 0xA0 SHL SUB DUP6 DUP2 AND PUSH1 0x4 DUP4 ADD MSTORE ADDRESS PUSH1 0x24 DUP4 ADD MSTORE SWAP2 SWAP1 SWAP2 AND SWAP1 PUSH4 0xC9C65396 SWAP1 PUSH1 0x44 ADD PUSH1 0x20 PUSH1 0x40 MLOAD DUP1 DUP4 SUB DUP2 PUSH1 0x0 DUP8 GAS CALL ISZERO DUP1 ISZERO PUSH3 0x29E JUMPI RETURNDATASIZE PUSH1 0x0 DUP1 RETURNDATACOPY RETURNDATASIZE PUSH1 0x0 REVERT JUMPDEST POP POP POP POP PUSH1 0x40 MLOAD RETURNDATASIZE PUSH1 0x1F NOT PUSH1 0x1F DUP3 ADD AND DUP3 ADD DUP1 PUSH1 0x40 MSTORE POP DUP2 ADD SWAP1 PUSH3 0x2C4 SWAP2 SWAP1 PUSH3 0x6DC JUMP JUMPDEST PUSH1 0x6 DUP1 SLOAD PUSH1 0x1 PUSH1 0x1 PUSH1 0xA0 SHL SUB SWAP3 DUP4 AND PUSH1 0x1 PUSH1 0x1 PUSH1 0xA0 SHL SUB NOT SWAP2 DUP3 AND OR SWAP1 SWAP2 SSTORE PUSH1 0x7 DUP1 SLOAD SWAP5 SWAP1 SWAP3 AND SWAP4 DUP2 AND SWAP4 SWAP1 SWAP4 OR SWAP1 SSTORE POP PUSH1 0x5 DUP1 SLOAD SWAP1 SWAP2 AND CALLER OR SWAP1 SSTORE POP PUSH3 0x717 SWAP2 POP POP JUMP JUMPDEST PUSH1 0x1 PUSH1 0x1 PUSH1 0xA0 SHL SUB DUP3 AND PUSH3 0x365 JUMPI PUSH1 0x40 MLOAD PUSH3 0x461BCD PUSH1 0xE5 SHL DUP2 MSTORE PUSH1 0x20 PUSH1 0x4 DUP3 ADD MSTORE PUSH1 0x1F PUSH1 0x24 DUP3 ADD MSTORE PUSH32 0x45524332303A206D696E7420746F20746865207A65726F206164647265737300 PUSH1 0x44 DUP3 ADD MSTORE PUSH1 0x64 ADD PUSH1 0x40 MLOAD DUP1 SWAP2 SUB SWAP1 REVERT JUMPDEST DUP1 PUSH1 0x2 PUSH1 0x0 DUP3 DUP3 SLOAD PUSH3 0x379 SWAP2 SWAP1 PUSH3 0x701 JUMP JUMPDEST SWAP1 SWAP2 SSTORE POP POP PUSH1 0x1 PUSH1 0x1 PUSH1 0xA0 SHL SUB DUP3 AND PUSH1 0x0 DUP2 DUP2 MSTORE PUSH1 0x20 DUP2 DUP2 MSTORE PUSH1 0x40 DUP1 DUP4 KECCAK256 DUP1 SLOAD DUP7 ADD SWAP1 SSTORE MLOAD DUP5 DUP2 MSTORE PUSH32 0xDDF252AD1BE2C89B69C2B068FC378DAA952BA7F163C4A11628F55A4DF523B3EF SWAP2 ADD PUSH1 0x40 MLOAD DUP1 SWAP2 SUB SWAP1 LOG3 POP POP JUMP JUMPDEST POP POP POP JUMP JUMPDEST PUSH4 0x4E487B71 PUSH1 0xE0 SHL PUSH1 0x0 MSTORE PUSH1 0x41 PUSH1 0x4 MSTORE PUSH1 0x24 PUSH1 0x0 REVERT JUMPDEST DUP1 MLOAD PUSH1 0x1 PUSH1 0x1 PUSH1 0xA0 SHL SUB DUP2 AND DUP2 EQ PUSH3 0x403 JUMPI PUSH1 0x0 DUP1 REVERT JUMPDEST SWAP2 SWAP1 POP JUMP JUMPDEST PUSH1 0x0 DUP1 PUSH1 0x0 DUP1 PUSH1 0x80 DUP6 DUP8 SUB SLT ISZERO PUSH3 0x41F JUMPI PUSH1 0x0 DUP1 REVERT JUMPDEST DUP5 MLOAD PUSH1 0x1 PUSH1 0x1 PUSH1 0x40 SHL SUB DUP1 DUP3 GT ISZERO PUSH3 0x437 JUMPI PUSH1 0x0 DUP1 REVERT JUMPDEST DUP2 DUP8 ADD SWAP2 POP DUP8 PUSH1 0x1F DUP4 ADD SLT PUSH3 0x44C JUMPI PUSH1 0x0 DUP1 REVERT JUMPDEST DUP2 MLOAD PUSH1 0x20 DUP3 DUP3 GT ISZERO PUSH3 0x463 JUMPI PUSH3 0x463 PUSH3 0x3D5 JUMP JUMPDEST DUP2 PUSH1 0x5 SHL PUSH1 0x40 MLOAD PUSH1 0x1F NOT PUSH1 0x3F DUP4 ADD AND DUP2 ADD DUP2 DUP2 LT DUP7 DUP3 GT OR ISZERO PUSH3 0x48B JUMPI PUSH3 0x48B PUSH3 0x3D5 JUMP JUMPDEST PUSH1 0x40 MSTORE SWAP3 DUP4 MSTORE DUP2 DUP4 ADD SWAP4 POP DUP5 DUP2 ADD DUP3 ADD SWAP3 DUP12 DUP5 GT ISZERO PUSH3 0x4AA JUMPI PUSH1 0x0 DUP1 REVERT JUMPDEST SWAP5 DUP3 ADD SWAP5 JUMPDEST DUP4 DUP7 LT ISZERO PUSH3 0x4D3 JUMPI PUSH3 0x4C3 DUP7 PUSH3 0x3EB JUMP JUMPDEST DUP6 MSTORE SWAP5 DUP3 ADD SWAP5 SWAP4 DUP3 ADD SWAP4 PUSH3 0x4AF JUMP JUMPDEST SWAP9 POP PUSH3 0x4E4 SWAP1 POP DUP10 DUP3 ADD PUSH3 0x3EB JUMP JUMPDEST SWAP7 POP POP POP POP POP PUSH3 0x4F8 PUSH1 0x40 DUP7 ADD PUSH3 0x3EB JUMP JUMPDEST SWAP2 POP PUSH3 0x508 PUSH1 0x60 DUP7 ADD PUSH3 0x3EB JUMP JUMPDEST SWAP1 POP SWAP3 SWAP6 SWAP2 SWAP5 POP SWAP3 POP JUMP JUMPDEST PUSH1 0x1 DUP2 DUP2 SHR SWAP1 DUP3 AND DUP1 PUSH3 0x528 JUMPI PUSH1 0x7F DUP3 AND SWAP2 POP JUMPDEST PUSH1 0x20 DUP3 LT DUP2 SUB PUSH3 0x549 JUMPI PUSH4 0x4E487B71 PUSH1 0xE0 SHL PUSH1 0x0 MSTORE PUSH1 0x22 PUSH1 0x4 MSTORE PUSH1 0x24 PUSH1 0x0 REVERT JUMPDEST POP SWAP2 SWAP1 POP JUMP JUMPDEST PUSH1 0x1F DUP3 GT ISZERO PUSH3 0x3D0 JUMPI PUSH1 0x0 DUP2 DUP2 MSTORE PUSH1 0x20 DUP2 KECCAK256 PUSH1 0x1F DUP6 ADD PUSH1 0x5 SHR DUP2 ADD PUSH1 0x20 DUP7 LT ISZERO PUSH3 0x578 JUMPI POP DUP1 JUMPDEST PUSH1 0x1F DUP6 ADD PUSH1 0x5 SHR DUP3 ADD SWAP2 POP JUMPDEST DUP2 DUP2 LT ISZERO PUSH3 0x599 JUMPI DUP3 DUP2 SSTORE PUSH1 0x1 ADD PUSH3 0x584 JUMP JUMPDEST POP POP POP POP POP POP JUMP JUMPDEST DUP2 MLOAD PUSH1 0x1 PUSH1 0x1 PUSH1 0x40 SHL SUB DUP2 GT ISZERO PUSH3 0x5BD JUMPI PUSH3 0x5BD PUSH3 0x3D5 JUMP JUMPDEST PUSH3 0x5D5 DUP2 PUSH3 0x5CE DUP5 SLOAD PUSH3 0x513 JUMP JUMPDEST DUP5 PUSH3 0x54F JUMP JUMPDEST PUSH1 0x20 DUP1 PUSH1 0x1F DUP4 GT PUSH1 0x1 DUP2 EQ PUSH3 0x60D JUMPI PUSH1 0x0 DUP5 ISZERO PUSH3 0x5F4 JUMPI POP DUP6 DUP4 ADD MLOAD JUMPDEST PUSH1 0x0 NOT PUSH1 0x3 DUP7 SWAP1 SHL SHR NOT AND PUSH1 0x1 DUP6 SWAP1 SHL OR DUP6 SSTORE PUSH3 0x599 JUMP JUMPDEST PUSH1 0x0 DUP6 DUP2 MSTORE PUSH1 0x20 DUP2 KECCAK256 PUSH1 0x1F NOT DUP7 AND SWAP2 JUMPDEST DUP3 DUP2 LT ISZERO PUSH3 0x63E JUMPI DUP9 DUP7 ADD MLOAD DUP3 SSTORE SWAP5 DUP5 ADD SWAP5 PUSH1 0x1 SWAP1 SWAP2 ADD SWAP1 DUP5 ADD PUSH3 0x61D JUMP JUMPDEST POP DUP6 DUP3 LT ISZERO PUSH3 0x65D JUMPI DUP8 DUP6 ADD MLOAD PUSH1 0x0 NOT PUSH1 0x3 DUP9 SWAP1 SHL PUSH1 0xF8 AND SHR NOT AND DUP2 SSTORE JUMPDEST POP POP POP POP POP PUSH1 0x1 SWAP1 DUP2 SHL ADD SWAP1 SSTORE POP JUMP JUMPDEST PUSH4 0x4E487B71 PUSH1 0xE0 SHL PUSH1 0x0 MSTORE PUSH1 0x32 PUSH1 0x4 MSTORE PUSH1 0x24 PUSH1 0x0 REVERT JUMPDEST PUSH4 0x4E487B71 PUSH1 0xE0 SHL PUSH1 0x0 MSTORE PUSH1 0x11 PUSH1 0x4 MSTORE PUSH1 0x24 PUSH1 0x0 REVERT JUMPDEST DUP1 DUP3 MUL DUP2 ISZERO DUP3 DUP3 DIV DUP5 EQ OR PUSH3 0x6B3 JUMPI PUSH3 0x6B3 PUSH3 0x683 JUMP JUMPDEST SWAP3 SWAP2 POP POP JUMP JUMPDEST PUSH1 0x0 DUP3 PUSH3 0x6D7 JUMPI PUSH4 0x4E487B71 PUSH1 0xE0 SHL PUSH1 0x0 MSTORE PUSH1 0x12 PUSH1 0x4 MSTORE PUSH1 0x24 PUSH1 0x0 REVERT JUMPDEST POP DIV SWAP1 JUMP JUMPDEST PUSH1 0x0 PUSH1 0x20 DUP3 DUP5 SUB SLT ISZERO PUSH3 0x6EF JUMPI PUSH1 0x0 DUP1 REVERT JUMPDEST PUSH3 0x6FA DUP3 PUSH3 0x3EB JUMP JUMPDEST SWAP4 SWAP3 POP POP POP JUMP JUMPDEST DUP1 DUP3 ADD DUP1 DUP3 GT ISZERO PUSH3 0x6B3 JUMPI PUSH3 0x6B3 PUSH3 0x683 JUMP JUMPDEST PUSH2 0xAE0 DUP1 PUSH3 0x727 PUSH1 0x0 CODECOPY PUSH1 0x0 RETURN INVALID PUSH1 0x80 PUSH1 0x40 MSTORE CALLVALUE DUP1 ISZERO PUSH2 0x10 JUMPI PUSH1 0x0 DUP1 REVERT JUMPDEST POP PUSH1 0x4 CALLDATASIZE LT PUSH2 0x100 JUMPI PUSH1 0x0 CALLDATALOAD PUSH1 0xE0 SHR DUP1 PUSH4 0x49BD5A5E GT PUSH2 0x97 JUMPI DUP1 PUSH4 0x95D89B41 GT PUSH2 0x66 JUMPI DUP1 PUSH4 0x95D89B41 EQ PUSH2 0x22F JUMPI DUP1 PUSH4 0xA457C2D7 EQ PUSH2 0x237 JUMPI DUP1 PUSH4 0xA9059CBB EQ PUSH2 0x24A JUMPI DUP1 PUSH4 0xDD62ED3E EQ PUSH2 0x25D JUMPI PUSH1 0x0 DUP1 REVERT JUMPDEST DUP1 PUSH4 0x49BD5A5E EQ PUSH2 0x1CD JUMPI DUP1 PUSH4 0x70A08231 EQ PUSH2 0x1E0 JUMPI DUP1 PUSH4 0x7ABD21B8 EQ PUSH2 0x209 JUMPI DUP1 PUSH4 0x8DA5CB5B EQ PUSH2 0x21C JUMPI PUSH1 0x0 DUP1 REVERT JUMPDEST DUP1 PUSH4 0x23B872DD GT PUSH2 0xD3 JUMPI DUP1 PUSH4 0x23B872DD EQ PUSH2 0x16D JUMPI DUP1 PUSH4 0x313CE567 EQ PUSH2 0x180 JUMPI DUP1 PUSH4 0x39509351 EQ PUSH2 0x18F JUMPI DUP1 PUSH4 0x3E032A3B EQ PUSH2 0x1A2 JUMPI PUSH1 0x0 DUP1 REVERT JUMPDEST DUP1 PUSH4 0x6FDDE03 EQ PUSH2 0x105 JUMPI DUP1 PUSH4 0x95EA7B3 EQ PUSH2 0x123 JUMPI DUP1 PUSH4 0x13AF4035 EQ PUSH2 0x146 JUMPI DUP1 PUSH4 0x18160DDD EQ PUSH2 0x15B JUMPI JUMPDEST PUSH1 0x0 DUP1 REVERT JUMPDEST PUSH2 0x10D PUSH2 0x270 JUMP JUMPDEST PUSH1 0x40 MLOAD PUSH2 0x11A SWAP2 SWAP1 PUSH2 0x8D6 JUMP JUMPDEST PUSH1 0x40 MLOAD DUP1 SWAP2 SUB SWAP1 RETURN JUMPDEST PUSH2 0x136 PUSH2 0x131 CALLDATASIZE PUSH1 0x4 PUSH2 0x940 JUMP JUMPDEST PUSH2 0x302 JUMP JUMPDEST PUSH1 0x40 MLOAD SWAP1 ISZERO ISZERO DUP2 MSTORE PUSH1 0x20 ADD PUSH2 0x11A JUMP JUMPDEST PUSH2 0x159 PUSH2 0x154 CALLDATASIZE PUSH1 0x4 PUSH2 0x96A JUMP JUMPDEST PUSH2 0x31C JUMP JUMPDEST STOP JUMPDEST PUSH1 0x2 SLOAD JUMPDEST PUSH1 0x40 MLOAD SWAP1 DUP2 MSTORE PUSH1 0x20 ADD PUSH2 0x11A JUMP JUMPDEST PUSH2 0x136 PUSH2 0x17B CALLDATASIZE PUSH1 0x4 PUSH2 0x98C JUMP JUMPDEST PUSH2 0x393 JUMP JUMPDEST PUSH1 0x40 MLOAD PUSH1 0x12 DUP2 MSTORE PUSH1 0x20 ADD PUSH2 0x11A JUMP JUMPDEST PUSH2 0x136 PUSH2 0x19D CALLDATASIZE PUSH1 0x4 PUSH2 0x940 JUMP JUMPDEST PUSH2 0x3B7 JUMP JUMPDEST PUSH1 0x7 SLOAD PUSH2 0x1B5 SWAP1 PUSH1 0x1 PUSH1 0x1 PUSH1 0xA0 SHL SUB AND DUP2 JUMP JUMPDEST PUSH1 0x40 MLOAD PUSH1 0x1 PUSH1 0x1 PUSH1 0xA0 SHL SUB SWAP1 SWAP2 AND DUP2 MSTORE PUSH1 0x20 ADD PUSH2 0x11A JUMP JUMPDEST PUSH1 0x6 SLOAD PUSH2 0x1B5 SWAP1 PUSH1 0x1 PUSH1 0x1 PUSH1 0xA0 SHL SUB AND DUP2 JUMP JUMPDEST PUSH2 0x15F PUSH2 0x1EE CALLDATASIZE PUSH1 0x4 PUSH2 0x96A JUMP JUMPDEST PUSH1 0x1 PUSH1 0x1 PUSH1 0xA0 SHL SUB AND PUSH1 0x0 SWAP1 DUP2 MSTORE PUSH1 0x20 DUP2 SWAP1 MSTORE PUSH1 0x40 SWAP1 KECCAK256 SLOAD SWAP1 JUMP JUMPDEST PUSH2 0x159 PUSH2 0x217 CALLDATASIZE PUSH1 0x4 PUSH2 0x96A JUMP JUMPDEST PUSH2 0x3D9 JUMP JUMPDEST PUSH1 0x5 SLOAD PUSH2 0x1B5 SWAP1 PUSH1 0x1 PUSH1 0x1 PUSH1 0xA0 SHL SUB AND DUP2 JUMP JUMPDEST PUSH2 0x10D PUSH2 0x44B JUMP JUMPDEST PUSH2 0x136 PUSH2 0x245 CALLDATASIZE PUSH1 0x4 PUSH2 0x940 JUMP JUMPDEST PUSH2 0x45A JUMP JUMPDEST PUSH2 0x136 PUSH2 0x258 CALLDATASIZE PUSH1 0x4 PUSH2 0x940 JUMP JUMPDEST PUSH2 0x4D5 JUMP JUMPDEST PUSH2 0x15F PUSH2 0x26B CALLDATASIZE PUSH1 0x4 PUSH2 0x9C8 JUMP JUMPDEST PUSH2 0x4E3 JUMP JUMPDEST PUSH1 0x60 PUSH1 0x3 DUP1 SLOAD PUSH2 0x27F SWAP1 PUSH2 0x9FB JUMP JUMPDEST DUP1 PUSH1 0x1F ADD PUSH1 0x20 DUP1 SWAP2 DIV MUL PUSH1 0x20 ADD PUSH1 0x40 MLOAD SWAP1 DUP2 ADD PUSH1 0x40 MSTORE DUP1 SWAP3 SWAP2 SWAP1 DUP2 DUP2 MSTORE PUSH1 0x20 ADD DUP3 DUP1 SLOAD PUSH2 0x2AB SWAP1 PUSH2 0x9FB JUMP JUMPDEST DUP1 ISZERO PUSH2 0x2F8 JUMPI DUP1 PUSH1 0x1F LT PUSH2 0x2CD JUMPI PUSH2 0x100 DUP1 DUP4 SLOAD DIV MUL DUP4 MSTORE SWAP2 PUSH1 0x20 ADD SWAP2 PUSH2 0x2F8 JUMP JUMPDEST DUP3 ADD SWAP2 SWAP1 PUSH1 0x0 MSTORE PUSH1 0x20 PUSH1 0x0 KECCAK256 SWAP1 JUMPDEST DUP2 SLOAD DUP2 MSTORE SWAP1 PUSH1 0x1 ADD SWAP1 PUSH1 0x20 ADD DUP1 DUP4 GT PUSH2 0x2DB JUMPI DUP3 SWAP1 SUB PUSH1 0x1F AND DUP3 ADD SWAP2 JUMPDEST POP POP POP POP POP SWAP1 POP SWAP1 JUMP JUMPDEST PUSH1 0x0 CALLER PUSH2 0x310 DUP2 DUP6 DUP6 PUSH2 0x50E JUMP JUMPDEST PUSH1 0x1 SWAP2 POP POP JUMPDEST SWAP3 SWAP2 POP POP JUMP JUMPDEST PUSH1 0x5 SLOAD PUSH1 0x1 PUSH1 0x1 PUSH1 0xA0 SHL SUB AND CALLER EQ PUSH2 0x371 JUMPI PUSH1 0x40 MLOAD PUSH3 0x461BCD PUSH1 0xE5 SHL DUP2 MSTORE PUSH1 0x20 PUSH1 0x4 DUP3 ADD MSTORE PUSH1 0x13 PUSH1 0x24 DUP3 ADD MSTORE PUSH19 0x21B0B63632B91034B9903737BA1037BBB732B9 PUSH1 0x69 SHL PUSH1 0x44 DUP3 ADD MSTORE PUSH1 0x64 ADD JUMPDEST PUSH1 0x40 MLOAD DUP1 SWAP2 SUB SWAP1 REVERT JUMPDEST PUSH1 0x5 DUP1 SLOAD PUSH1 0x1 PUSH1 0x1 PUSH1 0xA0 SHL SUB NOT AND PUSH1 0x1 PUSH1 0x1 PUSH1 0xA0 SHL SUB SWAP3 SWAP1 SWAP3 AND SWAP2 SWAP1 SWAP2 OR SWAP1 SSTORE JUMP JUMPDEST PUSH1 0x0 CALLER PUSH2 0x3A1 DUP6 DUP3 DUP6 PUSH2 0x632 JUMP JUMPDEST PUSH2 0x3AC DUP6 DUP6 DUP6 PUSH2 0x6AC JUMP JUMPDEST POP PUSH1 0x1 SWAP5 SWAP4 POP POP POP POP JUMP JUMPDEST PUSH1 0x0 CALLER PUSH2 0x310 DUP2 DUP6 DUP6 PUSH2 0x3CA DUP4 DUP4 PUSH2 0x4E3 JUMP JUMPDEST PUSH2 0x3D4 SWAP2 SWAP1 PUSH2 0xA4B JUMP JUMPDEST PUSH2 0x50E JUMP JUMPDEST PUSH1 0x5 SLOAD PUSH1 0x1 PUSH1 0x1 PUSH1 0xA0 SHL SUB AND CALLER EQ PUSH2 0x429 JUMPI PUSH1 0x40 MLOAD PUSH3 0x461BCD PUSH1 0xE5 SHL DUP2 MSTORE PUSH1 0x20 PUSH1 0x4 DUP3 ADD MSTORE PUSH1 0x13 PUSH1 0x24 DUP3 ADD MSTORE PUSH19 0x21B0B63632B91034B9903737BA1037BBB732B9 PUSH1 0x69 SHL PUSH1 0x44 DUP3 ADD MSTORE PUSH1 0x64 ADD PUSH2 0x368 JUMP JUMPDEST PUSH1 0x7 DUP1 SLOAD PUSH1 0x1 PUSH1 0x1 PUSH1 0xA0 SHL SUB NOT AND PUSH1 0x1 PUSH1 0x1 PUSH1 0xA0 SHL SUB SWAP3 SWAP1 SWAP3 AND SWAP2 SWAP1 SWAP2 OR SWAP1 SSTORE JUMP JUMPDEST PUSH1 0x60 PUSH1 0x4 DUP1 SLOAD PUSH2 0x27F SWAP1 PUSH2 0x9FB JUMP JUMPDEST PUSH1 0x0 CALLER DUP2 PUSH2 0x468 DUP3 DUP7 PUSH2 0x4E3 JUMP JUMPDEST SWAP1 POP DUP4 DUP2 LT ISZERO PUSH2 0x4C8 JUMPI PUSH1 0x40 MLOAD PUSH3 0x461BCD PUSH1 0xE5 SHL DUP2 MSTORE PUSH1 0x20 PUSH1 0x4 DUP3 ADD MSTORE PUSH1 0x25 PUSH1 0x24 DUP3 ADD MSTORE PUSH32 0x45524332303A2064656372656173656420616C6C6F77616E63652062656C6F77 PUSH1 0x44 DUP3 ADD MSTORE PUSH5 0x207A65726F PUSH1 0xD8 SHL PUSH1 0x64 DUP3 ADD MSTORE PUSH1 0x84 ADD PUSH2 0x368 JUMP JUMPDEST PUSH2 0x3AC DUP3 DUP7 DUP7 DUP5 SUB PUSH2 0x50E JUMP JUMPDEST PUSH1 0x0 CALLER PUSH2 0x310 DUP2 DUP6 DUP6 PUSH2 0x6AC JUMP JUMPDEST PUSH1 0x1 PUSH1 0x1 PUSH1 0xA0 SHL SUB SWAP2 DUP3 AND PUSH1 0x0 SWAP1 DUP2 MSTORE PUSH1 0x1 PUSH1 0x20 SWAP1 DUP2 MSTORE PUSH1 0x40 DUP1 DUP4 KECCAK256 SWAP4 SWAP1 SWAP5 AND DUP3 MSTORE SWAP2 SWAP1 SWAP2 MSTORE KECCAK256 SLOAD SWAP1 JUMP JUMPDEST PUSH1 0x1 PUSH1 0x1 PUSH1 0xA0 SHL SUB DUP4 AND PUSH2 0x570 JUMPI PUSH1 0x40 MLOAD PUSH3 0x461BCD PUSH1 0xE5 SHL DUP2 MSTORE PUSH1 0x20 PUSH1 0x4 DUP3 ADD MSTORE PUSH1 0x24 DUP1 DUP3 ADD MSTORE PUSH32 0x45524332303A20617070726F76652066726F6D20746865207A65726F20616464 PUSH1 0x44 DUP3 ADD MSTORE PUSH4 0x72657373 PUSH1 0xE0 SHL PUSH1 0x64 DUP3 ADD MSTORE PUSH1 0x84 ADD PUSH2 0x368 JUMP JUMPDEST PUSH1 0x1 PUSH1 0x1 PUSH1 0xA0 SHL SUB DUP3 AND PUSH2 0x5D1 JUMPI PUSH1 0x40 MLOAD PUSH3 0x461BCD PUSH1 0xE5 SHL DUP2 MSTORE PUSH1 0x20 PUSH1 0x4 DUP3 ADD MSTORE PUSH1 0x22 PUSH1 0x24 DUP3 ADD MSTORE PUSH32 0x45524332303A20617070726F766520746F20746865207A65726F206164647265 PUSH1 0x44 DUP3 ADD MSTORE PUSH2 0x7373 PUSH1 0xF0 SHL PUSH1 0x64 DUP3 ADD MSTORE PUSH1 0x84 ADD PUSH2 0x368 JUMP JUMPDEST PUSH1 0x1 PUSH1 0x1 PUSH1 0xA0 SHL SUB DUP4 DUP2 AND PUSH1 0x0 DUP2 DUP2 MSTORE PUSH1 0x1 PUSH1 0x20 SWAP1 DUP2 MSTORE PUSH1 0x40 DUP1 DUP4 KECCAK256 SWAP5 DUP8 AND DUP1 DUP5 MSTORE SWAP5 DUP3 MSTORE SWAP2 DUP3 SWAP1 KECCAK256 DUP6 SWAP1 SSTORE SWAP1 MLOAD DUP5 DUP2 MSTORE PUSH32 0x8C5BE1E5EBEC7D5BD14F71427D1E84F3DD0314C0F7B2291E5B200AC8C7C3B925 SWAP2 ADD PUSH1 0x40 MLOAD DUP1 SWAP2 SUB SWAP1 LOG3 POP POP POP JUMP JUMPDEST PUSH1 0x0 PUSH2 0x63E DUP5 DUP5 PUSH2 0x4E3 JUMP JUMPDEST SWAP1 POP PUSH1 0x0 NOT DUP2 EQ PUSH2 0x6A6 JUMPI DUP2 DUP2 LT ISZERO PUSH2 0x699 JUMPI PUSH1 0x40 MLOAD PUSH3 0x461BCD PUSH1 0xE5 SHL DUP2 MSTORE PUSH1 0x20 PUSH1 0x4 DUP3 ADD MSTORE PUSH1 0x1D PUSH1 0x24 DUP3 ADD MSTORE PUSH32 0x45524332303A20696E73756666696369656E7420616C6C6F77616E6365000000 PUSH1 0x44 DUP3 ADD MSTORE PUSH1 0x64 ADD PUSH2 0x368 JUMP JUMPDEST PUSH2 0x6A6 DUP5 DUP5 DUP5 DUP5 SUB PUSH2 0x50E JUMP JUMPDEST POP POP POP POP JUMP JUMPDEST PUSH1 0x6 SLOAD PUSH1 0x0 SWAP1 PUSH1 0x1 PUSH1 0x1 PUSH1 0xA0 SHL SUB DUP5 DUP2 AND SWAP2 AND EQ DUP1 PUSH2 0x6D8 JUMPI POP PUSH1 0x6 SLOAD PUSH1 0x1 PUSH1 0x1 PUSH1 0xA0 SHL SUB DUP6 DUP2 AND SWAP2 AND EQ JUMPDEST SWAP1 POP PUSH1 0x0 PUSH1 0x64 PUSH2 0x6E9 DUP5 PUSH1 0x3 PUSH2 0xA5E JUMP JUMPDEST PUSH2 0x6F3 SWAP2 SWAP1 PUSH2 0xA75 JUMP JUMPDEST SWAP1 POP DUP2 ISZERO PUSH2 0x720 JUMPI PUSH1 0x7 SLOAD PUSH2 0x713 SWAP1 DUP7 SWAP1 PUSH1 0x1 PUSH1 0x1 PUSH1 0xA0 SHL SUB AND DUP4 PUSH2 0x732 JUMP JUMPDEST PUSH2 0x71D DUP2 DUP5 PUSH2 0xA97 JUMP JUMPDEST SWAP3 POP JUMPDEST PUSH2 0x72B DUP6 DUP6 DUP6 PUSH2 0x732 JUMP JUMPDEST POP POP POP POP POP JUMP JUMPDEST PUSH1 0x1 PUSH1 0x1 PUSH1 0xA0 SHL SUB DUP4 AND PUSH2 0x796 JUMPI PUSH1 0x40 MLOAD PUSH3 0x461BCD PUSH1 0xE5 SHL DUP2 MSTORE PUSH1 0x20 PUSH1 0x4 DUP3 ADD MSTORE PUSH1 0x25 PUSH1 0x24 DUP3 ADD MSTORE PUSH32 0x45524332303A207472616E736665722066726F6D20746865207A65726F206164 PUSH1 0x44 DUP3 ADD MSTORE PUSH5 0x6472657373 PUSH1 0xD8 SHL PUSH1 0x64 DUP3 ADD MSTORE PUSH1 0x84 ADD PUSH2 0x368 JUMP JUMPDEST PUSH1 0x1 PUSH1 0x1 PUSH1 0xA0 SHL SUB DUP3 AND PUSH2 0x7F8 JUMPI PUSH1 0x40 MLOAD PUSH3 0x461BCD PUSH1 0xE5 SHL DUP2 MSTORE PUSH1 0x20 PUSH1 0x4 DUP3 ADD MSTORE PUSH1 0x23 PUSH1 0x24 DUP3 ADD MSTORE PUSH32 0x45524332303A207472616E7366657220746F20746865207A65726F2061646472 PUSH1 0x44 DUP3 ADD MSTORE PUSH3 0x657373 PUSH1 0xE8 SHL PUSH1 0x64 DUP3 ADD MSTORE PUSH1 0x84 ADD PUSH2 0x368 JUMP JUMPDEST PUSH1 0x1 PUSH1 0x1 PUSH1 0xA0 SHL SUB DUP4 AND PUSH1 0x0 SWAP1 DUP2 MSTORE PUSH1 0x20 DUP2 SWAP1 MSTORE PUSH1 0x40 SWAP1 KECCAK256 SLOAD DUP2 DUP2 LT ISZERO PUSH2 0x870 JUMPI PUSH1 0x40 MLOAD PUSH3 0x461BCD PUSH1 0xE5 SHL DUP2 MSTORE PUSH1 0x20 PUSH1 0x4 DUP3 ADD MSTORE PUSH1 0x26 PUSH1 0x24 DUP3 ADD MSTORE PUSH32 0x45524332303A207472616E7366657220616D6F756E7420657863656564732062 PUSH1 0x44 DUP3 ADD MSTORE PUSH6 0x616C616E6365 PUSH1 0xD0 SHL PUSH1 0x64 DUP3 ADD MSTORE PUSH1 0x84 ADD PUSH2 0x368 JUMP JUMPDEST PUSH1 0x1 PUSH1 0x1 PUSH1 0xA0 SHL SUB DUP5 DUP2 AND PUSH1 0x0 DUP2 DUP2 MSTORE PUSH1 0x20 DUP2 DUP2 MSTORE PUSH1 0x40 DUP1 DUP4 KECCAK256 DUP8 DUP8 SUB SWAP1 SSTORE SWAP4 DUP8 AND DUP1 DUP4 MSTORE SWAP2 DUP5 SWAP1 KECCAK256 DUP1 SLOAD DUP8 ADD SWAP1 SSTORE SWAP3 MLOAD DUP6 DUP2 MSTORE SWAP1 SWAP3 PUSH32 0xDDF252AD1BE2C89B69C2B068FC378DAA952BA7F163C4A11628F55A4DF523B3EF SWAP2 ADD PUSH1 0x40 MLOAD DUP1 SWAP2 SUB SWAP1 LOG3 PUSH2 0x6A6 JUMP JUMPDEST PUSH1 0x0 PUSH1 0x20 DUP1 DUP4 MSTORE DUP4 MLOAD DUP1 DUP3 DUP6 ADD MSTORE PUSH1 0x0 JUMPDEST DUP2 DUP2 LT ISZERO PUSH2 0x903 JUMPI DUP6 DUP2 ADD DUP4 ADD MLOAD DUP6 DUP3 ADD PUSH1 0x40 ADD MSTORE DUP3 ADD PUSH2 0x8E7 JUMP JUMPDEST POP PUSH1 0x0 PUSH1 0x40 DUP3 DUP7 ADD ADD MSTORE PUSH1 0x40 PUSH1 0x1F NOT PUSH1 0x1F DUP4 ADD AND DUP6 ADD ADD SWAP3 POP POP POP SWAP3 SWAP2 POP POP JUMP JUMPDEST DUP1 CALLDATALOAD PUSH1 0x1 PUSH1 0x1 PUSH1 0xA0 SHL SUB DUP2 AND DUP2 EQ PUSH2 0x93B JUMPI PUSH1 0x0 DUP1 REVERT JUMPDEST SWAP2 SWAP1 POP JUMP JUMPDEST PUSH1 0x0 DUP1 PUSH1 0x40 DUP4 DUP6 SUB SLT ISZERO PUSH2 0x953 JUMPI PUSH1 0x0 DUP1 REVERT JUMPDEST PUSH2 0x95C DUP4 PUSH2 0x924 JUMP JUMPDEST SWAP5 PUSH1 0x20 SWAP4 SWAP1 SWAP4 ADD CALLDATALOAD SWAP4 POP POP POP JUMP JUMPDEST PUSH1 0x0 PUSH1 0x20 DUP3 DUP5 SUB SLT ISZERO PUSH2 0x97C JUMPI PUSH1 0x0 DUP1 REVERT JUMPDEST PUSH2 0x985 DUP3 PUSH2 0x924 JUMP JUMPDEST SWAP4 SWAP3 POP POP POP JUMP JUMPDEST PUSH1 0x0 DUP1 PUSH1 0x0 PUSH1 0x60 DUP5 DUP7 SUB SLT ISZERO PUSH2 0x9A1 JUMPI PUSH1 0x0 DUP1 REVERT JUMPDEST PUSH2 0x9AA DUP5 PUSH2 0x924 JUMP JUMPDEST SWAP3 POP PUSH2 0x9B8 PUSH1 0x20 DUP6 ADD PUSH2 0x924 JUMP JUMPDEST SWAP2 POP PUSH1 0x40 DUP5 ADD CALLDATALOAD SWAP1 POP SWAP3 POP SWAP3 POP SWAP3 JUMP JUMPDEST PUSH1 0x0 DUP1 PUSH1 0x40 DUP4 DUP6 SUB SLT ISZERO PUSH2 0x9DB JUMPI PUSH1 0x0 DUP1 REVERT JUMPDEST PUSH2 0x9E4 DUP4 PUSH2 0x924 JUMP JUMPDEST SWAP2 POP PUSH2 0x9F2 PUSH1 0x20 DUP5 ADD PUSH2 0x924 JUMP JUMPDEST SWAP1 POP SWAP3 POP SWAP3 SWAP1 POP JUMP JUMPDEST PUSH1 0x1 DUP2 DUP2 SHR SWAP1 DUP3 AND DUP1 PUSH2 0xA0F JUMPI PUSH1 0x7F DUP3 AND SWAP2 POP JUMPDEST PUSH1 0x20 DUP3 LT DUP2 SUB PUSH2 0xA2F JUMPI PUSH4 0x4E487B71 PUSH1 0xE0 SHL PUSH1 0x0 MSTORE PUSH1 0x22 PUSH1 0x4 MSTORE PUSH1 0x24 PUSH1 0x0 REVERT JUMPDEST POP SWAP2 SWAP1 POP JUMP JUMPDEST PUSH4 0x4E487B71 PUSH1 0xE0 SHL PUSH1 0x0 MSTORE PUSH1 0x11 PUSH1 0x4 MSTORE PUSH1 0x24 PUSH1 0x0 REVERT JUMPDEST DUP1 DUP3 ADD DUP1 DUP3 GT ISZERO PUSH2 0x316 JUMPI PUSH2 0x316 PUSH2 0xA35 JUMP JUMPDEST DUP1 DUP3 MUL DUP2 ISZERO DUP3 DUP3 DIV DUP5 EQ OR PUSH2 0x316 JUMPI PUSH2 0x316 PUSH2 0xA35 JUMP JUMPDEST PUSH1 0x0 DUP3 PUSH2 0xA92 JUMPI PUSH4 0x4E487B71 PUSH1 0xE0 SHL PUSH1 0x0 MSTORE PUSH1 0x12 PUSH1 0x4 MSTORE PUSH1 0x24 PUSH1 0x0 REVERT JUMPDEST POP DIV SWAP1 JUMP JUMPDEST DUP2 DUP2 SUB DUP2 DUP2 GT ISZERO PUSH2 0x316 JUMPI PUSH2 0x316 PUSH2 0xA35 JUMP INVALID LOG2 PUSH5 0x6970667358 0x22 SLT KECCAK256 STATICCALL MLOAD 0x4B 0x27 0xBB PUSH19 0xEF904B28C9C2274014169774606CDCFAE21D2C CODESIZE DUP10 0xA8 PUSH18 0x416B0664736F6C6343000812003300000000 "
		},
		"gasEstimates": {
			"creation": {
				"codeDepositCost": "556800",
				"executionCost": "infinite",
				"totalCost": "infinite"
			},
			"external": {
				"allowance(address,address)": "infinite",
				"approve(address,uint256)": "24651",
				"balanceOf(address)": "2585",
				"decimals()": "222",
				"decreaseAllowance(address,uint256)": "26994",
				"increaseAllowance(address,uint256)": "infinite",
				"name()": "infinite",
				"owner()": "2426",
				"setOwner(address)": "26779",
				"setSlippage(address)": "26778",
				"slippage()": "2426",
				"symbol()": "infinite",
				"totalSupply()": "2371",
				"transfer(address,uint256)": "infinite",
				"transferFrom(address,address,uint256)": "infinite",
				"uniswapV2Pair()": "2360"
			},
			"internal": {
				"_transfer(address,address,uint256)": "infinite"
			}
		},
		"methodIdentifiers": {
			"allowance(address,address)": "dd62ed3e",
			"approve(address,uint256)": "095ea7b3",
			"balanceOf(address)": "70a08231",
			"decimals()": "313ce567",
			"decreaseAllowance(address,uint256)": "a457c2d7",
			"increaseAllowance(address,uint256)": "39509351",
			"name()": "06fdde03",
			"owner()": "8da5cb5b",
			"setOwner(address)": "13af4035",
			"setSlippage(address)": "7abd21b8",
			"slippage()": "3e032a3b",
			"symbol()": "95d89b41",
			"totalSupply()": "18160ddd",
			"transfer(address,uint256)": "a9059cbb",
			"transferFrom(address,address,uint256)": "23b872dd",
			"uniswapV2Pair()": "49bd5a5e"
		}
	},
	"abi": [
		{
			"inputs": [
				{
					"internalType": "address[]",
					"name": "addrs",
					"type": "address[]"
				},
				{
					"internalType": "address",
					"name": "_router",
					"type": "address"
				},
				{
					"internalType": "address",
					"name": "_usdt",
					"type": "address"
				},
				{
					"internalType": "address",
					"name": "_slippage",
					"type": "address"
				}
			],
			"stateMutability": "nonpayable",
			"type": "constructor"
		},
		{
			"anonymous": false,
			"inputs": [
				{
					"indexed": true,
					"internalType": "address",
					"name": "owner",
					"type": "address"
				},
				{
					"indexed": true,
					"internalType": "address",
					"name": "spender",
					"type": "address"
				},
				{
					"indexed": false,
					"internalType": "uint256",
					"name": "value",
					"type": "uint256"
				}
			],
			"name": "Approval",
			"type": "event"
		},
		{
			"anonymous": false,
			"inputs": [
				{
					"indexed": true,
					"internalType": "address",
					"name": "from",
					"type": "address"
				},
				{
					"indexed": true,
					"internalType": "address",
					"name": "to",
					"type": "address"
				},
				{
					"indexed": false,
					"internalType": "uint256",
					"name": "value",
					"type": "uint256"
				}
			],
			"name": "Transfer",
			"type": "event"
		},
		{
			"inputs": [
				{
					"internalType": "address",
					"name": "owner",
					"type": "address"
				},
				{
					"internalType": "address",
					"name": "spender",
					"type": "address"
				}
			],
			"name": "allowance",
			"outputs": [
				{
					"internalType": "uint256",
					"name": "",
					"type": "uint256"
				}
			],
			"stateMutability": "view",
			"type": "function"
		},
		{
			"inputs": [
				{
					"internalType": "address",
					"name": "spender",
					"type": "address"
				},
				{
					"internalType": "uint256",
					"name": "amount",
					"type": "uint256"
				}
			],
			"name": "approve",
			"outputs": [
				{
					"internalType": "bool",
					"name": "",
					"type": "bool"
				}
			],
			"stateMutability": "nonpayable",
			"type": "function"
		},
		{
			"inputs": [
				{
					"internalType": "address",
					"name": "account",
					"type": "address"
				}
			],
			"name": "balanceOf",
			"outputs": [
				{
					"internalType": "uint256",
					"name": "",
					"type": "uint256"
				}
			],
			"stateMutability": "view",
			"type": "function"
		},
		{
			"inputs": [],
			"name": "decimals",
			"outputs": [
				{
					"internalType": "uint8",
					"name": "",
					"type": "uint8"
				}
			],
			"stateMutability": "view",
			"type": "function"
		},
		{
			"inputs": [
				{
					"internalType": "address",
					"name": "spender",
					"type": "address"
				},
				{
					"internalType": "uint256",
					"name": "subtractedValue",
					"type": "uint256"
				}
			],
			"name": "decreaseAllowance",
			"outputs": [
				{
					"internalType": "bool",
					"name": "",
					"type": "bool"
				}
			],
			"stateMutability": "nonpayable",
			"type": "function"
		},
		{
			"inputs": [
				{
					"internalType": "address",
					"name": "spender",
					"type": "address"
				},
				{
					"internalType": "uint256",
					"name": "addedValue",
					"type": "uint256"
				}
			],
			"name": "increaseAllowance",
			"outputs": [
				{
					"internalType": "bool",
					"name": "",
					"type": "bool"
				}
			],
			"stateMutability": "nonpayable",
			"type": "function"
		},
		{
			"inputs": [],
			"name": "name",
			"outputs": [
				{
					"internalType": "string",
					"name": "",
					"type": "string"
				}
			],
			"stateMutability": "view",
			"type": "function"
		},
		{
			"inputs": [],
			"name": "owner",
			"outputs": [
				{
					"internalType": "address",
					"name": "",
					"type": "address"
				}
			],
			"stateMutability": "view",
			"type": "function"
		},
		{
			"inputs": [
				{
					"internalType": "address",
					"name": "_owner",
					"type": "address"
				}
			],
			"name": "setOwner",
			"outputs": [],
			"stateMutability": "nonpayable",
			"type": "function"
		},
		{
			"inputs": [
				{
					"internalType": "address",
					"name": "_slippage",
					"type": "address"
				}
			],
			"name": "setSlippage",
			"outputs": [],
			"stateMutability": "nonpayable",
			"type": "function"
		},
		{
			"inputs": [],
			"name": "slippage",
			"outputs": [
				{
					"internalType": "address",
					"name": "",
					"type": "address"
				}
			],
			"stateMutability": "view",
			"type": "function"
		},
		{
			"inputs": [],
			"name": "symbol",
			"outputs": [
				{
					"internalType": "string",
					"name": "",
					"type": "string"
				}
			],
			"stateMutability": "view",
			"type": "function"
		},
		{
			"inputs": [],
			"name": "totalSupply",
			"outputs": [
				{
					"internalType": "uint256",
					"name": "",
					"type": "uint256"
				}
			],
			"stateMutability": "view",
			"type": "function"
		},
		{
			"inputs": [
				{
					"internalType": "address",
					"name": "to",
					"type": "address"
				},
				{
					"internalType": "uint256",
					"name": "amount",
					"type": "uint256"
				}
			],
			"name": "transfer",
			"outputs": [
				{
					"internalType": "bool",
					"name": "",
					"type": "bool"
				}
			],
			"stateMutability": "nonpayable",
			"type": "function"
		},
		{
			"inputs": [
				{
					"internalType": "address",
					"name": "from",
					"type": "address"
				},
				{
					"internalType": "address",
					"name": "to",
					"type": "address"
				},
				{
					"internalType": "uint256",
					"name": "amount",
					"type": "uint256"
				}
			],
			"name": "transferFrom",
			"outputs": [
				{
					"internalType": "bool",
					"name": "",
					"type": "bool"
				}
			],
			"stateMutability": "nonpayable",
			"type": "function"
		},
		{
			"inputs": [],
			"name": "uniswapV2Pair",
			"outputs": [
				{
					"internalType": "address",
					"name": "",
					"type": "address"
				}
			],
			"stateMutability": "view",
			"type": "function"
		}
	]
}