{
	"data": {
		"bytecode": {
			"linkReferences": {},
			"object": "608060405234801561001057600080fd5b50600080546001600160a01b03191633179055611e20806100326000396000f3fe608060405234801561001057600080fd5b50600436106101cf5760003560e01c806360fe4483116101045780639e0060aa116100a2578063ee8f0b7a11610071578063ee8f0b7a14610510578063f48aa84f14610539578063f851a44014610559578063fc0c546a1461056c57600080fd5b80639e0060aa146104aa578063aad3ec96146104bd578063ac849501146104d0578063b13140ed146104f057600080fd5b8063704b6c02116100de578063704b6c021461044e5780637a8af5621461046157806381bac14f1461047457806384203f4b1461048757600080fd5b806360fe44831461032f5780636386c1c7146103425780636a7f74771461043b57600080fd5b806346e6dfe7116101715780635636f6ba1161014b5780635636f6ba146102ee57806357b2351d1461030157806359d0f713146103095780635c60da1b1461031c57600080fd5b806346e6dfe7146102895780634c3fbb66146102a85780634e377201146102db57600080fd5b80632f48ab7d116101ad5780632f48ab7d1461021857806330be0cd914610243578063328705771461026357806335fc14d81461027657600080fd5b80630667afe2146101d45780631459457a146101e95780631efba6c2146101fc575b600080fd5b6101e76101e2366004611a1e565b61057f565b005b6101e76101f7366004611a53565b6105b7565b61020560105481565b6040519081526020015b60405180910390f35b600c5461022b906001600160a01b031681565b6040516001600160a01b03909116815260200161020f565b610256610251366004611ab8565b610697565b60405161020f9190611ada565b6101e7610271366004611b3c565b61072f565b61022b610284366004611ab8565b61076f565b6011546102969060ff1681565b60405160ff909116815260200161020f565b6102cb6102b6366004611ab8565b60056020526000908152604090205460ff1681565b604051901515815260200161020f565b60095461022b906001600160a01b031681565b600e5461022b906001600160a01b031681565b6102056107aa565b600a5461022b906001600160a01b031681565b60015461022b906001600160a01b031681565b6101e761033d366004611b5f565b6107eb565b6103f1610350366004611ab8565b6040805160a081018252600080825260208201819052918101829052606081018290526080810191909152506040805160a0810182526001600160a01b039283166000818152600460209081528482205460ff90811615158552838352600582528583205416151581850152828252600681528482205490951683850152818152600785528381205460608401529081526008909352912054608082015290565b60405161020f91908151151581526020808301511515908201526040808301516001600160a01b031690820152606080830151908201526080918201519181019190915260a00190565b600d5461022b906001600160a01b031681565b6101e761045c366004611ab8565b610852565b6101e761046f366004611ab8565b61089e565b6101e7610482366004611ab8565b610b18565b6102cb610495366004611ab8565b60046020526000908152604090205460ff1681565b600f5461022b906001600160a01b031681565b6101e76104cb366004611ba2565b610c6a565b6102056104de366004611ab8565b60086020526000908152604090205481565b6102056104fe366004611ab8565b60076020526000908152604090205481565b61022b61051e366004611ab8565b6006602052600090815260409020546001600160a01b031681565b61054c610547366004611ab8565b610d8b565b60405161020f9190611be2565b60005461022b906001600160a01b031681565b600b5461022b906001600160a01b031681565b6000546001600160a01b031633146105b25760405162461bcd60e51b81526004016105a990611c6d565b60405180910390fd5b601055565b6000546001600160a01b031633146105e15760405162461bcd60e51b81526004016105a990611c6d565b600980546001600160a01b03199081166001600160a01b0396871617909155600a805473ca143ce32fe78f1f7019d7d551a6402fc5350c73908316179055600b8054821696861696909617909555600c80547355d398326f99059ff775485246999027b3197955908716179055600e8054861692851692909217909155600f8054851692841692909217909155600d8054909316911617905567d02ab486cedc000060105560118054601e60ff19909116179055565b6001600160a01b0381166000908152600360209081526040808320805482518185028101850190935280835260609492939192909184015b82821015610724576000848152602090819020604080516060810182526003860290920180546001600160a01b03168352600180820154848601526002909101549183019190915290835290920191016106cf565b505050509050919050565b6000546001600160a01b031633146107595760405162461bcd60e51b81526004016105a990611c6d565b6011805460ff191660ff92909216919091179055565b6001600160a01b03811660009081526005602052604081205460ff166107a6576011546107a090839060ff16610e53565b92915050565b5090565b600a54600c54600b54600092839283926107d3926001600160a01b039081169281169116610ed2565b915091506107e46010548383610f9c565b9250505090565b6000546001600160a01b031633146108155760405162461bcd60e51b81526004016105a990611c6d565b600f80546001600160a01b03199081166001600160a01b0393841617909155600d8054821694831694909417909355600e80549093169116179055565b6000546001600160a01b0316331461087c5760405162461bcd60e51b81526004016105a990611c6d565b600080546001600160a01b0319166001600160a01b0392909216919091179055565b6001600160a01b038181166000908152600660205260409020541661091d5760405162461bcd60e51b815260206004820152602f60248201527f4d656d626572736869703a54686520696e7669746174696f6e2061646472657360448201526e1cc81b5d5cdd08189948189bdd5b99608a1b60648201526084016105a9565b6001600160a01b03811633146109755760405162461bcd60e51b815260206004820152601b60248201527f4d656d626572736869703a496e76616c6964206f70657261746f72000000000060448201526064016105a9565b600061097f6107aa565b9050600081116109dd5760405162461bcd60e51b8152602060048201526024808201527f4d656d626572736869703a496e76616c69642070757263686173696e6720616d6044820152631bdd5b9d60e21b60648201526084016105a9565b600060646109ec836042611cba565b6109f69190611cd1565b905060006064610a07846014611cba565b610a119190611cd1565b905060006064610a2285600a611cba565b610a2c9190611cd1565b600b54909150610a47906001600160a01b03168630866110bb565b600b54600d54610a66916001600160a01b0390811691889116856110bb565b600b54600e54610a85916001600160a01b0390811691889116846110bb565b600b54600f54610ac3916001600160a01b03908116918891168486610aaa898b611cf3565b610ab49190611cf3565b610abe9190611cf3565b6110bb565b6001600160a01b03851660009081526004602052604090205460ff16610b1157610aed85856111eb565b6001600160a01b0385166000908152600460205260409020805460ff191660011790555b5050505050565b6009546001600160a01b0316610b705760405162461bcd60e51b815260206004820152601f60248201527f4d656d626572736869703a5a65726f20696e697469616c20616464726573730060448201526064016105a9565b6009546001600160a01b03828116911614610c3b576001600160a01b03811660009081526004602052604090205460ff16610bed5760405162461bcd60e51b815260206004820152601760248201527f4d656d626572736869703a4e6f7420656c696769626c6500000000000000000060448201526064016105a9565b336001600160a01b03821603610c3b5760405162461bcd60e51b815260206004820152601360248201527204d656d626572736869703a4f6e6c792076697606c1b60448201526064016105a9565b33600090815260066020526040902080546001600160a01b0319166001600160a01b0392909216919091179055565b6001600160a01b038216600090815260086020526040902054811115610cd25760405162461bcd60e51b815260206004820152601f60248201527f4d656d626572736869703a496e76616c696420636c61696d20616d6f756e740060448201526064016105a9565b600b54610ce9906001600160a01b03168383611643565b6001600160a01b03821660009081526008602052604081208054839290610d11908490611cf3565b90915550506001600160a01b0391821660008181526003602081815260408084208151606081018352958652858301968752429186019182528054600180820183559186529290942094519190920290930180546001600160a01b0319169390951692909217845591519183019190915551600290910155565b6001600160a01b0381166000908152600260209081526040808320805482518185028101850190935280835260609492939192909184015b82821015610724576000848152602090819020604080516080810182526004860290920180546001600160a01b03168352600181015493830193909352600280840154918301919091526003830154919291606084019160ff90911690811115610e2f57610e2f611bcc565b6002811115610e4057610e40611bcc565b8152505081526020019060010190610dc3565b600060ff82161580610e6c57506001600160a01b038316155b80610e8f57506001600160a01b03831660009081526005602052604090205460ff165b15610e9b5750816107a0565b6001600160a01b0380841660009081526006602052604090205416610eca81610ec5600186611d06565b610e53565b949350505050565b6000806000610ee18585611757565b509050600080610ef288888861184e565b6001600160a01b0316630902f1ac6040518163ffffffff1660e01b8152600401606060405180830381865afa158015610f2f573d6000803e3d6000fd5b505050506040513d601f19601f82011682018060405250810190610f539190611d36565b506001600160701b031691506001600160701b03169150826001600160a01b0316876001600160a01b031614610f8a578082610f8d565b81815b90999098509650505050505050565b60008084116110015760405162461bcd60e51b815260206004820152602b60248201527f556e697377617056324c6962726172793a20494e53554646494349454e545f4960448201526a1394155517d05353d5539560aa1b60648201526084016105a9565b6000831180156110115750600082115b61106e5760405162461bcd60e51b815260206004820152602860248201527f556e697377617056324c6962726172793a20494e53554646494349454e545f4c604482015267495155494449545960c01b60648201526084016105a9565b600061107c856103e5611926565b9050600061108a8285611926565b905060006110a48361109e886103e8611926565b9061198d565b90506110b08183611cd1565b979650505050505050565b604080516001600160a01b0385811660248301528481166044830152606480830185905283518084039091018152608490920183526020820180516001600160e01b03166323b872dd60e01b179052915160009283929088169161111f9190611d86565b6000604051808303816000865af19150503d806000811461115c576040519150601f19603f3d011682016040523d82523d6000602084013e611161565b606091505b509150915081801561118b57508051158061118b57508080602001905181019061118b9190611db5565b6111e35760405162461bcd60e51b8152602060048201526024808201527f5472616e7366657248656c7065723a205452414e534645525f46524f4d5f46416044820152631253115160e21b60648201526084016105a9565b505050505050565b6001600160a01b038083166000908152600660209081526040808320549093168083526007909152918120805460019290611227908490611dd7565b90915550506001600160a01b03811660009081526007602052604090205460031180159061126e57506001600160a01b03811660009081526005602052604090205460ff16155b15611297576001600160a01b0381166000908152600560205260409020805460ff191660011790555b60646112a4836014611cba565b6112ae9190611cd1565b6001600160a01b0382166000908152600860205260409020546112d19190611dd7565b6001600160a01b038083166000908152600860209081526040808320949094556002815290839020835160808101909452918616835290919081016064611319866014611cba565b6113239190611cd1565b8152426020820152604001600090528154600180820184556000938452602093849020835160049093020180546001600160a01b0319166001600160a01b03909316929092178255928201518184015560408201516002808301919091556060830151600383018054949593949193909260ff199092169184908111156113ac576113ac611bcc565b021790555050506001600160a01b03811660009081526005602052604090205460ff16156116345760646113e1836028611cba565b6113eb9190611cd1565b6001600160a01b03821660009081526008602052604090205461140e9190611dd7565b6001600160a01b038083166000908152600860209081526040808320949094556002815290839020835160808101909452918616835290919081016064611456866028611cba565b6114609190611cd1565b8152426020820152604001600190528154600180820184556000938452602093849020835160049093020180546001600160a01b0319166001600160a01b03909316929092178255928201518184015560408201516002808301919091556060830151600383018054949593949193909260ff199092169184908111156114e9576114e9611bcc565b021790555050506001600160a01b0380821660009081526006602052604090205416801561162e57606461151e846006611cba565b6115289190611cd1565b6001600160a01b03821660009081526008602052604090205461154b9190611dd7565b6001600160a01b038083166000908152600860209081526040808320949094556002815290839020835160808101909452918716835290919081016064611593876006611cba565b61159d9190611cd1565b8152426020820152604001600290528154600180820184556000938452602093849020835160049093020180546001600160a01b0319166001600160a01b03909316929092178255928201518184015560408201516002808301919091556060830151600383018054949593949193909260ff1990921691849081111561162657611626611bcc565b021790555050505b50505050565b61163e83836119e2565b505050565b604080516001600160a01b038481166024830152604480830185905283518084039091018152606490920183526020820180516001600160e01b031663a9059cbb60e01b179052915160009283929087169161169f9190611d86565b6000604051808303816000865af19150503d80600081146116dc576040519150601f19603f3d011682016040523d82523d6000602084013e6116e1565b606091505b509150915081801561170b57508051158061170b57508080602001905181019061170b9190611db5565b610b115760405162461bcd60e51b815260206004820152601f60248201527f5472616e7366657248656c7065723a205452414e534645525f4641494c45440060448201526064016105a9565b600080826001600160a01b0316846001600160a01b0316036117c95760405162461bcd60e51b815260206004820152602560248201527f556e697377617056324c6962726172793a204944454e544943414c5f41444452604482015264455353455360d81b60648201526084016105a9565b826001600160a01b0316846001600160a01b0316106117e95782846117ec565b83835b90925090506001600160a01b0382166118475760405162461bcd60e51b815260206004820152601e60248201527f556e697377617056324c6962726172793a205a45524f5f41444452455353000060448201526064016105a9565b9250929050565b600080600061185d8585611757565b6040516bffffffffffffffffffffffff19606084811b8216602084015283901b16603482015291935091508690604801604051602081830303815290604052805190602001206040516020016119049291906001600160f81b0319815260609290921b6bffffffffffffffffffffffff1916600183015260158201527efb7f630766e6a796048ea87d01acd3068e8ff67d078148a3fa3f4a84f69bd5603582015260550190565b60408051601f1981840301815291905280516020909101209695505050505050565b600081158061194a5750828261193c8183611cba565b92506119489083611cd1565b145b6107a05760405162461bcd60e51b815260206004820152601460248201527364732d6d6174682d6d756c2d6f766572666c6f7760601b60448201526064016105a9565b60008261199a8382611dd7565b91508110156107a05760405162461bcd60e51b815260206004820152601460248201527364732d6d6174682d6164642d6f766572666c6f7760601b60448201526064016105a9565b60006119ed8361076f565b6001600160a01b03811660009081526005602052604090205490915060ff161561163e5760646113e1836028611cba565b600060208284031215611a3057600080fd5b5035919050565b80356001600160a01b0381168114611a4e57600080fd5b919050565b600080600080600060a08688031215611a6b57600080fd5b611a7486611a37565b9450611a8260208701611a37565b9350611a9060408701611a37565b9250611a9e60608701611a37565b9150611aac60808701611a37565b90509295509295909350565b600060208284031215611aca57600080fd5b611ad382611a37565b9392505050565b602080825282518282018190526000919060409081850190868401855b82811015611b2f57815180516001600160a01b0316855286810151878601528501518585015260609093019290850190600101611af7565b5091979650505050505050565b600060208284031215611b4e57600080fd5b813560ff81168114611ad357600080fd5b600080600060608486031215611b7457600080fd5b611b7d84611a37565b9250611b8b60208501611a37565b9150611b9960408501611a37565b90509250925092565b60008060408385031215611bb557600080fd5b611bbe83611a37565b946020939093013593505050565b634e487b7160e01b600052602160045260246000fd5b60208082528251828201819052600091906040908185019086840185805b83811015611c5f57825180516001600160a01b03168652878101518887015286810151878701526060908101519060038210611c4a57634e487b7160e01b84526021600452602484fd5b86015260809094019391860191600101611c00565b509298975050505050505050565b6020808252601e908201527f4d656d626572736869703a43616c6c6572206973206e6f74206f776e65720000604082015260600190565b634e487b7160e01b600052601160045260246000fd5b80820281158282048414176107a0576107a0611ca4565b600082611cee57634e487b7160e01b600052601260045260246000fd5b500490565b818103818111156107a0576107a0611ca4565b60ff82811682821603908111156107a0576107a0611ca4565b80516001600160701b0381168114611a4e57600080fd5b600080600060608486031215611d4b57600080fd5b611d5484611d1f565b9250611d6260208501611d1f565b9150604084015163ffffffff81168114611d7b57600080fd5b809150509250925092565b6000825160005b81811015611da75760208186018101518583015201611d8d565b506000920191825250919050565b600060208284031215611dc757600080fd5b81518015158114611ad357600080fd5b808201808211156107a0576107a0611ca456fea2646970667358221220bc7cc71a62df1b5719b96c705f084b6970540fb072c069cd2a50ba8499a2ea9a64736f6c63430008120033",
			"opcodes": "PUSH1 0x80 PUSH1 0x40 MSTORE CALLVALUE DUP1 ISZERO PUSH2 0x10 JUMPI PUSH1 0x0 DUP1 REVERT JUMPDEST POP PUSH1 0x0 DUP1 SLOAD PUSH1 0x1 PUSH1 0x1 PUSH1 0xA0 SHL SUB NOT AND CALLER OR SWAP1 SSTORE PUSH2 0x1E20 DUP1 PUSH2 0x32 PUSH1 0x0 CODECOPY PUSH1 0x0 RETURN INVALID PUSH1 0x80 PUSH1 0x40 MSTORE CALLVALUE DUP1 ISZERO PUSH2 0x10 JUMPI PUSH1 0x0 DUP1 REVERT JUMPDEST POP PUSH1 0x4 CALLDATASIZE LT PUSH2 0x1CF JUMPI PUSH1 0x0 CALLDATALOAD PUSH1 0xE0 SHR DUP1 PUSH4 0x60FE4483 GT PUSH2 0x104 JUMPI DUP1 PUSH4 0x9E0060AA GT PUSH2 0xA2 JUMPI DUP1 PUSH4 0xEE8F0B7A GT PUSH2 0x71 JUMPI DUP1 PUSH4 0xEE8F0B7A EQ PUSH2 0x510 JUMPI DUP1 PUSH4 0xF48AA84F EQ PUSH2 0x539 JUMPI DUP1 PUSH4 0xF851A440 EQ PUSH2 0x559 JUMPI DUP1 PUSH4 0xFC0C546A EQ PUSH2 0x56C JUMPI PUSH1 0x0 DUP1 REVERT JUMPDEST DUP1 PUSH4 0x9E0060AA EQ PUSH2 0x4AA JUMPI DUP1 PUSH4 0xAAD3EC96 EQ PUSH2 0x4BD JUMPI DUP1 PUSH4 0xAC849501 EQ PUSH2 0x4D0 JUMPI DUP1 PUSH4 0xB13140ED EQ PUSH2 0x4F0 JUMPI PUSH1 0x0 DUP1 REVERT JUMPDEST DUP1 PUSH4 0x704B6C02 GT PUSH2 0xDE JUMPI DUP1 PUSH4 0x704B6C02 EQ PUSH2 0x44E JUMPI DUP1 PUSH4 0x7A8AF562 EQ PUSH2 0x461 JUMPI DUP1 PUSH4 0x81BAC14F EQ PUSH2 0x474 JUMPI DUP1 PUSH4 0x84203F4B EQ PUSH2 0x487 JUMPI PUSH1 0x0 DUP1 REVERT JUMPDEST DUP1 PUSH4 0x60FE4483 EQ PUSH2 0x32F JUMPI DUP1 PUSH4 0x6386C1C7 EQ PUSH2 0x342 JUMPI DUP1 PUSH4 0x6A7F7477 EQ PUSH2 0x43B JUMPI PUSH1 0x0 DUP1 REVERT JUMPDEST DUP1 PUSH4 0x46E6DFE7 GT PUSH2 0x171 JUMPI DUP1 PUSH4 0x5636F6BA GT PUSH2 0x14B JUMPI DUP1 PUSH4 0x5636F6BA EQ PUSH2 0x2EE JUMPI DUP1 PUSH4 0x57B2351D EQ PUSH2 0x301 JUMPI DUP1 PUSH4 0x59D0F713 EQ PUSH2 0x309 JUMPI DUP1 PUSH4 0x5C60DA1B EQ PUSH2 0x31C JUMPI PUSH1 0x0 DUP1 REVERT JUMPDEST DUP1 PUSH4 0x46E6DFE7 EQ PUSH2 0x289 JUMPI DUP1 PUSH4 0x4C3FBB66 EQ PUSH2 0x2A8 JUMPI DUP1 PUSH4 0x4E377201 EQ PUSH2 0x2DB JUMPI PUSH1 0x0 DUP1 REVERT JUMPDEST DUP1 PUSH4 0x2F48AB7D GT PUSH2 0x1AD JUMPI DUP1 PUSH4 0x2F48AB7D EQ PUSH2 0x218 JUMPI DUP1 PUSH4 0x30BE0CD9 EQ PUSH2 0x243 JUMPI DUP1 PUSH4 0x32870577 EQ PUSH2 0x263 JUMPI DUP1 PUSH4 0x35FC14D8 EQ PUSH2 0x276 JUMPI PUSH1 0x0 DUP1 REVERT JUMPDEST DUP1 PUSH4 0x667AFE2 EQ PUSH2 0x1D4 JUMPI DUP1 PUSH4 0x1459457A EQ PUSH2 0x1E9 JUMPI DUP1 PUSH4 0x1EFBA6C2 EQ PUSH2 0x1FC JUMPI JUMPDEST PUSH1 0x0 DUP1 REVERT JUMPDEST PUSH2 0x1E7 PUSH2 0x1E2 CALLDATASIZE PUSH1 0x4 PUSH2 0x1A1E JUMP JUMPDEST PUSH2 0x57F JUMP JUMPDEST STOP JUMPDEST PUSH2 0x1E7 PUSH2 0x1F7 CALLDATASIZE PUSH1 0x4 PUSH2 0x1A53 JUMP JUMPDEST PUSH2 0x5B7 JUMP JUMPDEST PUSH2 0x205 PUSH1 0x10 SLOAD DUP2 JUMP JUMPDEST PUSH1 0x40 MLOAD SWAP1 DUP2 MSTORE PUSH1 0x20 ADD JUMPDEST PUSH1 0x40 MLOAD DUP1 SWAP2 SUB SWAP1 RETURN JUMPDEST PUSH1 0xC SLOAD PUSH2 0x22B SWAP1 PUSH1 0x1 PUSH1 0x1 PUSH1 0xA0 SHL SUB AND DUP2 JUMP JUMPDEST PUSH1 0x40 MLOAD PUSH1 0x1 PUSH1 0x1 PUSH1 0xA0 SHL SUB SWAP1 SWAP2 AND DUP2 MSTORE PUSH1 0x20 ADD PUSH2 0x20F JUMP JUMPDEST PUSH2 0x256 PUSH2 0x251 CALLDATASIZE PUSH1 0x4 PUSH2 0x1AB8 JUMP JUMPDEST PUSH2 0x697 JUMP JUMPDEST PUSH1 0x40 MLOAD PUSH2 0x20F SWAP2 SWAP1 PUSH2 0x1ADA JUMP JUMPDEST PUSH2 0x1E7 PUSH2 0x271 CALLDATASIZE PUSH1 0x4 PUSH2 0x1B3C JUMP JUMPDEST PUSH2 0x72F JUMP JUMPDEST PUSH2 0x22B PUSH2 0x284 CALLDATASIZE PUSH1 0x4 PUSH2 0x1AB8 JUMP JUMPDEST PUSH2 0x76F JUMP JUMPDEST PUSH1 0x11 SLOAD PUSH2 0x296 SWAP1 PUSH1 0xFF AND DUP2 JUMP JUMPDEST PUSH1 0x40 MLOAD PUSH1 0xFF SWAP1 SWAP2 AND DUP2 MSTORE PUSH1 0x20 ADD PUSH2 0x20F JUMP JUMPDEST PUSH2 0x2CB PUSH2 0x2B6 CALLDATASIZE PUSH1 0x4 PUSH2 0x1AB8 JUMP JUMPDEST PUSH1 0x5 PUSH1 0x20 MSTORE PUSH1 0x0 SWAP1 DUP2 MSTORE PUSH1 0x40 SWAP1 KECCAK256 SLOAD PUSH1 0xFF AND DUP2 JUMP JUMPDEST PUSH1 0x40 MLOAD SWAP1 ISZERO ISZERO DUP2 MSTORE PUSH1 0x20 ADD PUSH2 0x20F JUMP JUMPDEST PUSH1 0x9 SLOAD PUSH2 0x22B SWAP1 PUSH1 0x1 PUSH1 0x1 PUSH1 0xA0 SHL SUB AND DUP2 JUMP JUMPDEST PUSH1 0xE SLOAD PUSH2 0x22B SWAP1 PUSH1 0x1 PUSH1 0x1 PUSH1 0xA0 SHL SUB AND DUP2 JUMP JUMPDEST PUSH2 0x205 PUSH2 0x7AA JUMP JUMPDEST PUSH1 0xA SLOAD PUSH2 0x22B SWAP1 PUSH1 0x1 PUSH1 0x1 PUSH1 0xA0 SHL SUB AND DUP2 JUMP JUMPDEST PUSH1 0x1 SLOAD PUSH2 0x22B SWAP1 PUSH1 0x1 PUSH1 0x1 PUSH1 0xA0 SHL SUB AND DUP2 JUMP JUMPDEST PUSH2 0x1E7 PUSH2 0x33D CALLDATASIZE PUSH1 0x4 PUSH2 0x1B5F JUMP JUMPDEST PUSH2 0x7EB JUMP JUMPDEST PUSH2 0x3F1 PUSH2 0x350 CALLDATASIZE PUSH1 0x4 PUSH2 0x1AB8 JUMP JUMPDEST PUSH1 0x40 DUP1 MLOAD PUSH1 0xA0 DUP2 ADD DUP3 MSTORE PUSH1 0x0 DUP1 DUP3 MSTORE PUSH1 0x20 DUP3 ADD DUP2 SWAP1 MSTORE SWAP2 DUP2 ADD DUP3 SWAP1 MSTORE PUSH1 0x60 DUP2 ADD DUP3 SWAP1 MSTORE PUSH1 0x80 DUP2 ADD SWAP2 SWAP1 SWAP2 MSTORE POP PUSH1 0x40 DUP1 MLOAD PUSH1 0xA0 DUP2 ADD DUP3 MSTORE PUSH1 0x1 PUSH1 0x1 PUSH1 0xA0 SHL SUB SWAP3 DUP4 AND PUSH1 0x0 DUP2 DUP2 MSTORE PUSH1 0x4 PUSH1 0x20 SWAP1 DUP2 MSTORE DUP5 DUP3 KECCAK256 SLOAD PUSH1 0xFF SWAP1 DUP2 AND ISZERO ISZERO DUP6 MSTORE DUP4 DUP4 MSTORE PUSH1 0x5 DUP3 MSTORE DUP6 DUP4 KECCAK256 SLOAD AND ISZERO ISZERO DUP2 DUP6 ADD MSTORE DUP3 DUP3 MSTORE PUSH1 0x6 DUP2 MSTORE DUP5 DUP3 KECCAK256 SLOAD SWAP1 SWAP6 AND DUP4 DUP6 ADD MSTORE DUP2 DUP2 MSTORE PUSH1 0x7 DUP6 MSTORE DUP4 DUP2 KECCAK256 SLOAD PUSH1 0x60 DUP5 ADD MSTORE SWAP1 DUP2 MSTORE PUSH1 0x8 SWAP1 SWAP4 MSTORE SWAP2 KECCAK256 SLOAD PUSH1 0x80 DUP3 ADD MSTORE SWAP1 JUMP JUMPDEST PUSH1 0x40 MLOAD PUSH2 0x20F SWAP2 SWAP1 DUP2 MLOAD ISZERO ISZERO DUP2 MSTORE PUSH1 0x20 DUP1 DUP4 ADD MLOAD ISZERO ISZERO SWAP1 DUP3 ADD MSTORE PUSH1 0x40 DUP1 DUP4 ADD MLOAD PUSH1 0x1 PUSH1 0x1 PUSH1 0xA0 SHL SUB AND SWAP1 DUP3 ADD MSTORE PUSH1 0x60 DUP1 DUP4 ADD MLOAD SWAP1 DUP3 ADD MSTORE PUSH1 0x80 SWAP2 DUP3 ADD MLOAD SWAP2 DUP2 ADD SWAP2 SWAP1 SWAP2 MSTORE PUSH1 0xA0 ADD SWAP1 JUMP JUMPDEST PUSH1 0xD SLOAD PUSH2 0x22B SWAP1 PUSH1 0x1 PUSH1 0x1 PUSH1 0xA0 SHL SUB AND DUP2 JUMP JUMPDEST PUSH2 0x1E7 PUSH2 0x45C CALLDATASIZE PUSH1 0x4 PUSH2 0x1AB8 JUMP JUMPDEST PUSH2 0x852 JUMP JUMPDEST PUSH2 0x1E7 PUSH2 0x46F CALLDATASIZE PUSH1 0x4 PUSH2 0x1AB8 JUMP JUMPDEST PUSH2 0x89E JUMP JUMPDEST PUSH2 0x1E7 PUSH2 0x482 CALLDATASIZE PUSH1 0x4 PUSH2 0x1AB8 JUMP JUMPDEST PUSH2 0xB18 JUMP JUMPDEST PUSH2 0x2CB PUSH2 0x495 CALLDATASIZE PUSH1 0x4 PUSH2 0x1AB8 JUMP JUMPDEST PUSH1 0x4 PUSH1 0x20 MSTORE PUSH1 0x0 SWAP1 DUP2 MSTORE PUSH1 0x40 SWAP1 KECCAK256 SLOAD PUSH1 0xFF AND DUP2 JUMP JUMPDEST PUSH1 0xF SLOAD PUSH2 0x22B SWAP1 PUSH1 0x1 PUSH1 0x1 PUSH1 0xA0 SHL SUB AND DUP2 JUMP JUMPDEST PUSH2 0x1E7 PUSH2 0x4CB CALLDATASIZE PUSH1 0x4 PUSH2 0x1BA2 JUMP JUMPDEST PUSH2 0xC6A JUMP JUMPDEST PUSH2 0x205 PUSH2 0x4DE CALLDATASIZE PUSH1 0x4 PUSH2 0x1AB8 JUMP JUMPDEST PUSH1 0x8 PUSH1 0x20 MSTORE PUSH1 0x0 SWAP1 DUP2 MSTORE PUSH1 0x40 SWAP1 KECCAK256 SLOAD DUP2 JUMP JUMPDEST PUSH2 0x205 PUSH2 0x4FE CALLDATASIZE PUSH1 0x4 PUSH2 0x1AB8 JUMP JUMPDEST PUSH1 0x7 PUSH1 0x20 MSTORE PUSH1 0x0 SWAP1 DUP2 MSTORE PUSH1 0x40 SWAP1 KECCAK256 SLOAD DUP2 JUMP JUMPDEST PUSH2 0x22B PUSH2 0x51E CALLDATASIZE PUSH1 0x4 PUSH2 0x1AB8 JUMP JUMPDEST PUSH1 0x6 PUSH1 0x20 MSTORE PUSH1 0x0 SWAP1 DUP2 MSTORE PUSH1 0x40 SWAP1 KECCAK256 SLOAD PUSH1 0x1 PUSH1 0x1 PUSH1 0xA0 SHL SUB AND DUP2 JUMP JUMPDEST PUSH2 0x54C PUSH2 0x547 CALLDATASIZE PUSH1 0x4 PUSH2 0x1AB8 JUMP JUMPDEST PUSH2 0xD8B JUMP JUMPDEST PUSH1 0x40 MLOAD PUSH2 0x20F SWAP2 SWAP1 PUSH2 0x1BE2 JUMP JUMPDEST PUSH1 0x0 SLOAD PUSH2 0x22B SWAP1 PUSH1 0x1 PUSH1 0x1 PUSH1 0xA0 SHL SUB AND DUP2 JUMP JUMPDEST PUSH1 0xB SLOAD PUSH2 0x22B SWAP1 PUSH1 0x1 PUSH1 0x1 PUSH1 0xA0 SHL SUB AND DUP2 JUMP JUMPDEST PUSH1 0x0 SLOAD PUSH1 0x1 PUSH1 0x1 PUSH1 0xA0 SHL SUB AND CALLER EQ PUSH2 0x5B2 JUMPI PUSH1 0x40 MLOAD PUSH3 0x461BCD PUSH1 0xE5 SHL DUP2 MSTORE PUSH1 0x4 ADD PUSH2 0x5A9 SWAP1 PUSH2 0x1C6D JUMP JUMPDEST PUSH1 0x40 MLOAD DUP1 SWAP2 SUB SWAP1 REVERT JUMPDEST PUSH1 0x10 SSTORE JUMP JUMPDEST PUSH1 0x0 SLOAD PUSH1 0x1 PUSH1 0x1 PUSH1 0xA0 SHL SUB AND CALLER EQ PUSH2 0x5E1 JUMPI PUSH1 0x40 MLOAD PUSH3 0x461BCD PUSH1 0xE5 SHL DUP2 MSTORE PUSH1 0x4 ADD PUSH2 0x5A9 SWAP1 PUSH2 0x1C6D JUMP JUMPDEST PUSH1 0x9 DUP1 SLOAD PUSH1 0x1 PUSH1 0x1 PUSH1 0xA0 SHL SUB NOT SWAP1 DUP2 AND PUSH1 0x1 PUSH1 0x1 PUSH1 0xA0 SHL SUB SWAP7 DUP8 AND OR SWAP1 SWAP2 SSTORE PUSH1 0xA DUP1 SLOAD PUSH20 0xCA143CE32FE78F1F7019D7D551A6402FC5350C73 SWAP1 DUP4 AND OR SWAP1 SSTORE PUSH1 0xB DUP1 SLOAD DUP3 AND SWAP7 DUP7 AND SWAP7 SWAP1 SWAP7 OR SWAP1 SWAP6 SSTORE PUSH1 0xC DUP1 SLOAD PUSH20 0x55D398326F99059FF775485246999027B3197955 SWAP1 DUP8 AND OR SWAP1 SSTORE PUSH1 0xE DUP1 SLOAD DUP7 AND SWAP3 DUP6 AND SWAP3 SWAP1 SWAP3 OR SWAP1 SWAP2 SSTORE PUSH1 0xF DUP1 SLOAD DUP6 AND SWAP3 DUP5 AND SWAP3 SWAP1 SWAP3 OR SWAP1 SWAP2 SSTORE PUSH1 0xD DUP1 SLOAD SWAP1 SWAP4 AND SWAP2 AND OR SWAP1 SSTORE PUSH8 0xD02AB486CEDC0000 PUSH1 0x10 SSTORE PUSH1 0x11 DUP1 SLOAD PUSH1 0x1E PUSH1 0xFF NOT SWAP1 SWAP2 AND OR SWAP1 SSTORE JUMP JUMPDEST PUSH1 0x1 PUSH1 0x1 PUSH1 0xA0 SHL SUB DUP2 AND PUSH1 0x0 SWAP1 DUP2 MSTORE PUSH1 0x3 PUSH1 0x20 SWAP1 DUP2 MSTORE PUSH1 0x40 DUP1 DUP4 KECCAK256 DUP1 SLOAD DUP3 MLOAD DUP2 DUP6 MUL DUP2 ADD DUP6 ADD SWAP1 SWAP4 MSTORE DUP1 DUP4 MSTORE PUSH1 0x60 SWAP5 SWAP3 SWAP4 SWAP2 SWAP3 SWAP1 SWAP2 DUP5 ADD JUMPDEST DUP3 DUP3 LT ISZERO PUSH2 0x724 JUMPI PUSH1 0x0 DUP5 DUP2 MSTORE PUSH1 0x20 SWAP1 DUP2 SWAP1 KECCAK256 PUSH1 0x40 DUP1 MLOAD PUSH1 0x60 DUP2 ADD DUP3 MSTORE PUSH1 0x3 DUP7 MUL SWAP1 SWAP3 ADD DUP1 SLOAD PUSH1 0x1 PUSH1 0x1 PUSH1 0xA0 SHL SUB AND DUP4 MSTORE PUSH1 0x1 DUP1 DUP3 ADD SLOAD DUP5 DUP7 ADD MSTORE PUSH1 0x2 SWAP1 SWAP2 ADD SLOAD SWAP2 DUP4 ADD SWAP2 SWAP1 SWAP2 MSTORE SWAP1 DUP4 MSTORE SWAP1 SWAP3 ADD SWAP2 ADD PUSH2 0x6CF JUMP JUMPDEST POP POP POP POP SWAP1 POP SWAP2 SWAP1 POP JUMP JUMPDEST PUSH1 0x0 SLOAD PUSH1 0x1 PUSH1 0x1 PUSH1 0xA0 SHL SUB AND CALLER EQ PUSH2 0x759 JUMPI PUSH1 0x40 MLOAD PUSH3 0x461BCD PUSH1 0xE5 SHL DUP2 MSTORE PUSH1 0x4 ADD PUSH2 0x5A9 SWAP1 PUSH2 0x1C6D JUMP JUMPDEST PUSH1 0x11 DUP1 SLOAD PUSH1 0xFF NOT AND PUSH1 0xFF SWAP3 SWAP1 SWAP3 AND SWAP2 SWAP1 SWAP2 OR SWAP1 SSTORE JUMP JUMPDEST PUSH1 0x1 PUSH1 0x1 PUSH1 0xA0 SHL SUB DUP2 AND PUSH1 0x0 SWAP1 DUP2 MSTORE PUSH1 0x5 PUSH1 0x20 MSTORE PUSH1 0x40 DUP2 KECCAK256 SLOAD PUSH1 0xFF AND PUSH2 0x7A6 JUMPI PUSH1 0x11 SLOAD PUSH2 0x7A0 SWAP1 DUP4 SWAP1 PUSH1 0xFF AND PUSH2 0xE53 JUMP JUMPDEST SWAP3 SWAP2 POP POP JUMP JUMPDEST POP SWAP1 JUMP JUMPDEST PUSH1 0xA SLOAD PUSH1 0xC SLOAD PUSH1 0xB SLOAD PUSH1 0x0 SWAP3 DUP4 SWAP3 DUP4 SWAP3 PUSH2 0x7D3 SWAP3 PUSH1 0x1 PUSH1 0x1 PUSH1 0xA0 SHL SUB SWAP1 DUP2 AND SWAP3 DUP2 AND SWAP2 AND PUSH2 0xED2 JUMP JUMPDEST SWAP2 POP SWAP2 POP PUSH2 0x7E4 PUSH1 0x10 SLOAD DUP4 DUP4 PUSH2 0xF9C JUMP JUMPDEST SWAP3 POP POP POP SWAP1 JUMP JUMPDEST PUSH1 0x0 SLOAD PUSH1 0x1 PUSH1 0x1 PUSH1 0xA0 SHL SUB AND CALLER EQ PUSH2 0x815 JUMPI PUSH1 0x40 MLOAD PUSH3 0x461BCD PUSH1 0xE5 SHL DUP2 MSTORE PUSH1 0x4 ADD PUSH2 0x5A9 SWAP1 PUSH2 0x1C6D JUMP JUMPDEST PUSH1 0xF DUP1 SLOAD PUSH1 0x1 PUSH1 0x1 PUSH1 0xA0 SHL SUB NOT SWAP1 DUP2 AND PUSH1 0x1 PUSH1 0x1 PUSH1 0xA0 SHL SUB SWAP4 DUP5 AND OR SWAP1 SWAP2 SSTORE PUSH1 0xD DUP1 SLOAD DUP3 AND SWAP5 DUP4 AND SWAP5 SWAP1 SWAP5 OR SWAP1 SWAP4 SSTORE PUSH1 0xE DUP1 SLOAD SWAP1 SWAP4 AND SWAP2 AND OR SWAP1 SSTORE JUMP JUMPDEST PUSH1 0x0 SLOAD PUSH1 0x1 PUSH1 0x1 PUSH1 0xA0 SHL SUB AND CALLER EQ PUSH2 0x87C JUMPI PUSH1 0x40 MLOAD PUSH3 0x461BCD PUSH1 0xE5 SHL DUP2 MSTORE PUSH1 0x4 ADD PUSH2 0x5A9 SWAP1 PUSH2 0x1C6D JUMP JUMPDEST PUSH1 0x0 DUP1 SLOAD PUSH1 0x1 PUSH1 0x1 PUSH1 0xA0 SHL SUB NOT AND PUSH1 0x1 PUSH1 0x1 PUSH1 0xA0 SHL SUB SWAP3 SWAP1 SWAP3 AND SWAP2 SWAP1 SWAP2 OR SWAP1 SSTORE JUMP JUMPDEST PUSH1 0x1 PUSH1 0x1 PUSH1 0xA0 SHL SUB DUP2 DUP2 AND PUSH1 0x0 SWAP1 DUP2 MSTORE PUSH1 0x6 PUSH1 0x20 MSTORE PUSH1 0x40 SWAP1 KECCAK256 SLOAD AND PUSH2 0x91D JUMPI PUSH1 0x40 MLOAD PUSH3 0x461BCD PUSH1 0xE5 SHL DUP2 MSTORE PUSH1 0x20 PUSH1 0x4 DUP3 ADD MSTORE PUSH1 0x2F PUSH1 0x24 DUP3 ADD MSTORE PUSH32 0x4D656D626572736869703A54686520696E7669746174696F6E20616464726573 PUSH1 0x44 DUP3 ADD MSTORE PUSH15 0x1CC81B5D5CDD08189948189BDD5B99 PUSH1 0x8A SHL PUSH1 0x64 DUP3 ADD MSTORE PUSH1 0x84 ADD PUSH2 0x5A9 JUMP JUMPDEST PUSH1 0x1 PUSH1 0x1 PUSH1 0xA0 SHL SUB DUP2 AND CALLER EQ PUSH2 0x975 JUMPI PUSH1 0x40 MLOAD PUSH3 0x461BCD PUSH1 0xE5 SHL DUP2 MSTORE PUSH1 0x20 PUSH1 0x4 DUP3 ADD MSTORE PUSH1 0x1B PUSH1 0x24 DUP3 ADD MSTORE PUSH32 0x4D656D626572736869703A496E76616C6964206F70657261746F720000000000 PUSH1 0x44 DUP3 ADD MSTORE PUSH1 0x64 ADD PUSH2 0x5A9 JUMP JUMPDEST PUSH1 0x0 PUSH2 0x97F PUSH2 0x7AA JUMP JUMPDEST SWAP1 POP PUSH1 0x0 DUP2 GT PUSH2 0x9DD JUMPI PUSH1 0x40 MLOAD PUSH3 0x461BCD PUSH1 0xE5 SHL DUP2 MSTORE PUSH1 0x20 PUSH1 0x4 DUP3 ADD MSTORE PUSH1 0x24 DUP1 DUP3 ADD MSTORE PUSH32 0x4D656D626572736869703A496E76616C69642070757263686173696E6720616D PUSH1 0x44 DUP3 ADD MSTORE PUSH4 0x1BDD5B9D PUSH1 0xE2 SHL PUSH1 0x64 DUP3 ADD MSTORE PUSH1 0x84 ADD PUSH2 0x5A9 JUMP JUMPDEST PUSH1 0x0 PUSH1 0x64 PUSH2 0x9EC DUP4 PUSH1 0x42 PUSH2 0x1CBA JUMP JUMPDEST PUSH2 0x9F6 SWAP2 SWAP1 PUSH2 0x1CD1 JUMP JUMPDEST SWAP1 POP PUSH1 0x0 PUSH1 0x64 PUSH2 0xA07 DUP5 PUSH1 0x14 PUSH2 0x1CBA JUMP JUMPDEST PUSH2 0xA11 SWAP2 SWAP1 PUSH2 0x1CD1 JUMP JUMPDEST SWAP1 POP PUSH1 0x0 PUSH1 0x64 PUSH2 0xA22 DUP6 PUSH1 0xA PUSH2 0x1CBA JUMP JUMPDEST PUSH2 0xA2C SWAP2 SWAP1 PUSH2 0x1CD1 JUMP JUMPDEST PUSH1 0xB SLOAD SWAP1 SWAP2 POP PUSH2 0xA47 SWAP1 PUSH1 0x1 PUSH1 0x1 PUSH1 0xA0 SHL SUB AND DUP7 ADDRESS DUP7 PUSH2 0x10BB JUMP JUMPDEST PUSH1 0xB SLOAD PUSH1 0xD SLOAD PUSH2 0xA66 SWAP2 PUSH1 0x1 PUSH1 0x1 PUSH1 0xA0 SHL SUB SWAP1 DUP2 AND SWAP2 DUP9 SWAP2 AND DUP6 PUSH2 0x10BB JUMP JUMPDEST PUSH1 0xB SLOAD PUSH1 0xE SLOAD PUSH2 0xA85 SWAP2 PUSH1 0x1 PUSH1 0x1 PUSH1 0xA0 SHL SUB SWAP1 DUP2 AND SWAP2 DUP9 SWAP2 AND DUP5 PUSH2 0x10BB JUMP JUMPDEST PUSH1 0xB SLOAD PUSH1 0xF SLOAD PUSH2 0xAC3 SWAP2 PUSH1 0x1 PUSH1 0x1 PUSH1 0xA0 SHL SUB SWAP1 DUP2 AND SWAP2 DUP9 SWAP2 AND DUP5 DUP7 PUSH2 0xAAA DUP10 DUP12 PUSH2 0x1CF3 JUMP JUMPDEST PUSH2 0xAB4 SWAP2 SWAP1 PUSH2 0x1CF3 JUMP JUMPDEST PUSH2 0xABE SWAP2 SWAP1 PUSH2 0x1CF3 JUMP JUMPDEST PUSH2 0x10BB JUMP JUMPDEST PUSH1 0x1 PUSH1 0x1 PUSH1 0xA0 SHL SUB DUP6 AND PUSH1 0x0 SWAP1 DUP2 MSTORE PUSH1 0x4 PUSH1 0x20 MSTORE PUSH1 0x40 SWAP1 KECCAK256 SLOAD PUSH1 0xFF AND PUSH2 0xB11 JUMPI PUSH2 0xAED DUP6 DUP6 PUSH2 0x11EB JUMP JUMPDEST PUSH1 0x1 PUSH1 0x1 PUSH1 0xA0 SHL SUB DUP6 AND PUSH1 0x0 SWAP1 DUP2 MSTORE PUSH1 0x4 PUSH1 0x20 MSTORE PUSH1 0x40 SWAP1 KECCAK256 DUP1 SLOAD PUSH1 0xFF NOT AND PUSH1 0x1 OR SWAP1 SSTORE JUMPDEST POP POP POP POP POP JUMP JUMPDEST PUSH1 0x9 SLOAD PUSH1 0x1 PUSH1 0x1 PUSH1 0xA0 SHL SUB AND PUSH2 0xB70 JUMPI PUSH1 0x40 MLOAD PUSH3 0x461BCD PUSH1 0xE5 SHL DUP2 MSTORE PUSH1 0x20 PUSH1 0x4 DUP3 ADD MSTORE PUSH1 0x1F PUSH1 0x24 DUP3 ADD MSTORE PUSH32 0x4D656D626572736869703A5A65726F20696E697469616C206164647265737300 PUSH1 0x44 DUP3 ADD MSTORE PUSH1 0x64 ADD PUSH2 0x5A9 JUMP JUMPDEST PUSH1 0x9 SLOAD PUSH1 0x1 PUSH1 0x1 PUSH1 0xA0 SHL SUB DUP3 DUP2 AND SWAP2 AND EQ PUSH2 0xC3B JUMPI PUSH1 0x1 PUSH1 0x1 PUSH1 0xA0 SHL SUB DUP2 AND PUSH1 0x0 SWAP1 DUP2 MSTORE PUSH1 0x4 PUSH1 0x20 MSTORE PUSH1 0x40 SWAP1 KECCAK256 SLOAD PUSH1 0xFF AND PUSH2 0xBED JUMPI PUSH1 0x40 MLOAD PUSH3 0x461BCD PUSH1 0xE5 SHL DUP2 MSTORE PUSH1 0x20 PUSH1 0x4 DUP3 ADD MSTORE PUSH1 0x17 PUSH1 0x24 DUP3 ADD MSTORE PUSH32 0x4D656D626572736869703A4E6F7420656C696769626C65000000000000000000 PUSH1 0x44 DUP3 ADD MSTORE PUSH1 0x64 ADD PUSH2 0x5A9 JUMP JUMPDEST CALLER PUSH1 0x1 PUSH1 0x1 PUSH1 0xA0 SHL SUB DUP3 AND SUB PUSH2 0xC3B JUMPI PUSH1 0x40 MLOAD PUSH3 0x461BCD PUSH1 0xE5 SHL DUP2 MSTORE PUSH1 0x20 PUSH1 0x4 DUP3 ADD MSTORE PUSH1 0x13 PUSH1 0x24 DUP3 ADD MSTORE PUSH19 0x4D656D626572736869703A4F6E6C792076697 PUSH1 0x6C SHL PUSH1 0x44 DUP3 ADD MSTORE PUSH1 0x64 ADD PUSH2 0x5A9 JUMP JUMPDEST CALLER PUSH1 0x0 SWAP1 DUP2 MSTORE PUSH1 0x6 PUSH1 0x20 MSTORE PUSH1 0x40 SWAP1 KECCAK256 DUP1 SLOAD PUSH1 0x1 PUSH1 0x1 PUSH1 0xA0 SHL SUB NOT AND PUSH1 0x1 PUSH1 0x1 PUSH1 0xA0 SHL SUB SWAP3 SWAP1 SWAP3 AND SWAP2 SWAP1 SWAP2 OR SWAP1 SSTORE JUMP JUMPDEST PUSH1 0x1 PUSH1 0x1 PUSH1 0xA0 SHL SUB DUP3 AND PUSH1 0x0 SWAP1 DUP2 MSTORE PUSH1 0x8 PUSH1 0x20 MSTORE PUSH1 0x40 SWAP1 KECCAK256 SLOAD DUP2 GT ISZERO PUSH2 0xCD2 JUMPI PUSH1 0x40 MLOAD PUSH3 0x461BCD PUSH1 0xE5 SHL DUP2 MSTORE PUSH1 0x20 PUSH1 0x4 DUP3 ADD MSTORE PUSH1 0x1F PUSH1 0x24 DUP3 ADD MSTORE PUSH32 0x4D656D626572736869703A496E76616C696420636C61696D20616D6F756E7400 PUSH1 0x44 DUP3 ADD MSTORE PUSH1 0x64 ADD PUSH2 0x5A9 JUMP JUMPDEST PUSH1 0xB SLOAD PUSH2 0xCE9 SWAP1 PUSH1 0x1 PUSH1 0x1 PUSH1 0xA0 SHL SUB AND DUP4 DUP4 PUSH2 0x1643 JUMP JUMPDEST PUSH1 0x1 PUSH1 0x1 PUSH1 0xA0 SHL SUB DUP3 AND PUSH1 0x0 SWAP1 DUP2 MSTORE PUSH1 0x8 PUSH1 0x20 MSTORE PUSH1 0x40 DUP2 KECCAK256 DUP1 SLOAD DUP4 SWAP3 SWAP1 PUSH2 0xD11 SWAP1 DUP5 SWAP1 PUSH2 0x1CF3 JUMP JUMPDEST SWAP1 SWAP2 SSTORE POP POP PUSH1 0x1 PUSH1 0x1 PUSH1 0xA0 SHL SUB SWAP2 DUP3 AND PUSH1 0x0 DUP2 DUP2 MSTORE PUSH1 0x3 PUSH1 0x20 DUP2 DUP2 MSTORE PUSH1 0x40 DUP1 DUP5 KECCAK256 DUP2 MLOAD PUSH1 0x60 DUP2 ADD DUP4 MSTORE SWAP6 DUP7 MSTORE DUP6 DUP4 ADD SWAP7 DUP8 MSTORE TIMESTAMP SWAP2 DUP7 ADD SWAP2 DUP3 MSTORE DUP1 SLOAD PUSH1 0x1 DUP1 DUP3 ADD DUP4 SSTORE SWAP2 DUP7 MSTORE SWAP3 SWAP1 SWAP5 KECCAK256 SWAP5 MLOAD SWAP2 SWAP1 SWAP3 MUL SWAP1 SWAP4 ADD DUP1 SLOAD PUSH1 0x1 PUSH1 0x1 PUSH1 0xA0 SHL SUB NOT AND SWAP4 SWAP1 SWAP6 AND SWAP3 SWAP1 SWAP3 OR DUP5 SSTORE SWAP2 MLOAD SWAP2 DUP4 ADD SWAP2 SWAP1 SWAP2 SSTORE MLOAD PUSH1 0x2 SWAP1 SWAP2 ADD SSTORE JUMP JUMPDEST PUSH1 0x1 PUSH1 0x1 PUSH1 0xA0 SHL SUB DUP2 AND PUSH1 0x0 SWAP1 DUP2 MSTORE PUSH1 0x2 PUSH1 0x20 SWAP1 DUP2 MSTORE PUSH1 0x40 DUP1 DUP4 KECCAK256 DUP1 SLOAD DUP3 MLOAD DUP2 DUP6 MUL DUP2 ADD DUP6 ADD SWAP1 SWAP4 MSTORE DUP1 DUP4 MSTORE PUSH1 0x60 SWAP5 SWAP3 SWAP4 SWAP2 SWAP3 SWAP1 SWAP2 DUP5 ADD JUMPDEST DUP3 DUP3 LT ISZERO PUSH2 0x724 JUMPI PUSH1 0x0 DUP5 DUP2 MSTORE PUSH1 0x20 SWAP1 DUP2 SWAP1 KECCAK256 PUSH1 0x40 DUP1 MLOAD PUSH1 0x80 DUP2 ADD DUP3 MSTORE PUSH1 0x4 DUP7 MUL SWAP1 SWAP3 ADD DUP1 SLOAD PUSH1 0x1 PUSH1 0x1 PUSH1 0xA0 SHL SUB AND DUP4 MSTORE PUSH1 0x1 DUP2 ADD SLOAD SWAP4 DUP4 ADD SWAP4 SWAP1 SWAP4 MSTORE PUSH1 0x2 DUP1 DUP5 ADD SLOAD SWAP2 DUP4 ADD SWAP2 SWAP1 SWAP2 MSTORE PUSH1 0x3 DUP4 ADD SLOAD SWAP2 SWAP3 SWAP2 PUSH1 0x60 DUP5 ADD SWAP2 PUSH1 0xFF SWAP1 SWAP2 AND SWAP1 DUP2 GT ISZERO PUSH2 0xE2F JUMPI PUSH2 0xE2F PUSH2 0x1BCC JUMP JUMPDEST PUSH1 0x2 DUP2 GT ISZERO PUSH2 0xE40 JUMPI PUSH2 0xE40 PUSH2 0x1BCC JUMP JUMPDEST DUP2 MSTORE POP POP DUP2 MSTORE PUSH1 0x20 ADD SWAP1 PUSH1 0x1 ADD SWAP1 PUSH2 0xDC3 JUMP JUMPDEST PUSH1 0x0 PUSH1 0xFF DUP3 AND ISZERO DUP1 PUSH2 0xE6C JUMPI POP PUSH1 0x1 PUSH1 0x1 PUSH1 0xA0 SHL SUB DUP4 AND ISZERO JUMPDEST DUP1 PUSH2 0xE8F JUMPI POP PUSH1 0x1 PUSH1 0x1 PUSH1 0xA0 SHL SUB DUP4 AND PUSH1 0x0 SWAP1 DUP2 MSTORE PUSH1 0x5 PUSH1 0x20 MSTORE PUSH1 0x40 SWAP1 KECCAK256 SLOAD PUSH1 0xFF AND JUMPDEST ISZERO PUSH2 0xE9B JUMPI POP DUP2 PUSH2 0x7A0 JUMP JUMPDEST PUSH1 0x1 PUSH1 0x1 PUSH1 0xA0 SHL SUB DUP1 DUP5 AND PUSH1 0x0 SWAP1 DUP2 MSTORE PUSH1 0x6 PUSH1 0x20 MSTORE PUSH1 0x40 SWAP1 KECCAK256 SLOAD AND PUSH2 0xECA DUP2 PUSH2 0xEC5 PUSH1 0x1 DUP7 PUSH2 0x1D06 JUMP JUMPDEST PUSH2 0xE53 JUMP JUMPDEST SWAP5 SWAP4 POP POP POP POP JUMP JUMPDEST PUSH1 0x0 DUP1 PUSH1 0x0 PUSH2 0xEE1 DUP6 DUP6 PUSH2 0x1757 JUMP JUMPDEST POP SWAP1 POP PUSH1 0x0 DUP1 PUSH2 0xEF2 DUP9 DUP9 DUP9 PUSH2 0x184E JUMP JUMPDEST PUSH1 0x1 PUSH1 0x1 PUSH1 0xA0 SHL SUB AND PUSH4 0x902F1AC PUSH1 0x40 MLOAD DUP2 PUSH4 0xFFFFFFFF AND PUSH1 0xE0 SHL DUP2 MSTORE PUSH1 0x4 ADD PUSH1 0x60 PUSH1 0x40 MLOAD DUP1 DUP4 SUB DUP2 DUP7 GAS STATICCALL ISZERO DUP1 ISZERO PUSH2 0xF2F JUMPI RETURNDATASIZE PUSH1 0x0 DUP1 RETURNDATACOPY RETURNDATASIZE PUSH1 0x0 REVERT JUMPDEST POP POP POP POP PUSH1 0x40 MLOAD RETURNDATASIZE PUSH1 0x1F NOT PUSH1 0x1F DUP3 ADD AND DUP3 ADD DUP1 PUSH1 0x40 MSTORE POP DUP2 ADD SWAP1 PUSH2 0xF53 SWAP2 SWAP1 PUSH2 0x1D36 JUMP JUMPDEST POP PUSH1 0x1 PUSH1 0x1 PUSH1 0x70 SHL SUB AND SWAP2 POP PUSH1 0x1 PUSH1 0x1 PUSH1 0x70 SHL SUB AND SWAP2 POP DUP3 PUSH1 0x1 PUSH1 0x1 PUSH1 0xA0 SHL SUB AND DUP8 PUSH1 0x1 PUSH1 0x1 PUSH1 0xA0 SHL SUB AND EQ PUSH2 0xF8A JUMPI DUP1 DUP3 PUSH2 0xF8D JUMP JUMPDEST DUP2 DUP2 JUMPDEST SWAP1 SWAP10 SWAP1 SWAP9 POP SWAP7 POP POP POP POP POP POP POP JUMP JUMPDEST PUSH1 0x0 DUP1 DUP5 GT PUSH2 0x1001 JUMPI PUSH1 0x40 MLOAD PUSH3 0x461BCD PUSH1 0xE5 SHL DUP2 MSTORE PUSH1 0x20 PUSH1 0x4 DUP3 ADD MSTORE PUSH1 0x2B PUSH1 0x24 DUP3 ADD MSTORE PUSH32 0x556E697377617056324C6962726172793A20494E53554646494349454E545F49 PUSH1 0x44 DUP3 ADD MSTORE PUSH11 0x1394155517D05353D55395 PUSH1 0xAA SHL PUSH1 0x64 DUP3 ADD MSTORE PUSH1 0x84 ADD PUSH2 0x5A9 JUMP JUMPDEST PUSH1 0x0 DUP4 GT DUP1 ISZERO PUSH2 0x1011 JUMPI POP PUSH1 0x0 DUP3 GT JUMPDEST PUSH2 0x106E JUMPI PUSH1 0x40 MLOAD PUSH3 0x461BCD PUSH1 0xE5 SHL DUP2 MSTORE PUSH1 0x20 PUSH1 0x4 DUP3 ADD MSTORE PUSH1 0x28 PUSH1 0x24 DUP3 ADD MSTORE PUSH32 0x556E697377617056324C6962726172793A20494E53554646494349454E545F4C PUSH1 0x44 DUP3 ADD MSTORE PUSH8 0x4951554944495459 PUSH1 0xC0 SHL PUSH1 0x64 DUP3 ADD MSTORE PUSH1 0x84 ADD PUSH2 0x5A9 JUMP JUMPDEST PUSH1 0x0 PUSH2 0x107C DUP6 PUSH2 0x3E5 PUSH2 0x1926 JUMP JUMPDEST SWAP1 POP PUSH1 0x0 PUSH2 0x108A DUP3 DUP6 PUSH2 0x1926 JUMP JUMPDEST SWAP1 POP PUSH1 0x0 PUSH2 0x10A4 DUP4 PUSH2 0x109E DUP9 PUSH2 0x3E8 PUSH2 0x1926 JUMP JUMPDEST SWAP1 PUSH2 0x198D JUMP JUMPDEST SWAP1 POP PUSH2 0x10B0 DUP2 DUP4 PUSH2 0x1CD1 JUMP JUMPDEST SWAP8 SWAP7 POP POP POP POP POP POP POP JUMP JUMPDEST PUSH1 0x40 DUP1 MLOAD PUSH1 0x1 PUSH1 0x1 PUSH1 0xA0 SHL SUB DUP6 DUP2 AND PUSH1 0x24 DUP4 ADD MSTORE DUP5 DUP2 AND PUSH1 0x44 DUP4 ADD MSTORE PUSH1 0x64 DUP1 DUP4 ADD DUP6 SWAP1 MSTORE DUP4 MLOAD DUP1 DUP5 SUB SWAP1 SWAP2 ADD DUP2 MSTORE PUSH1 0x84 SWAP1 SWAP3 ADD DUP4 MSTORE PUSH1 0x20 DUP3 ADD DUP1 MLOAD PUSH1 0x1 PUSH1 0x1 PUSH1 0xE0 SHL SUB AND PUSH4 0x23B872DD PUSH1 0xE0 SHL OR SWAP1 MSTORE SWAP2 MLOAD PUSH1 0x0 SWAP3 DUP4 SWAP3 SWAP1 DUP9 AND SWAP2 PUSH2 0x111F SWAP2 SWAP1 PUSH2 0x1D86 JUMP JUMPDEST PUSH1 0x0 PUSH1 0x40 MLOAD DUP1 DUP4 SUB DUP2 PUSH1 0x0 DUP7 GAS CALL SWAP2 POP POP RETURNDATASIZE DUP1 PUSH1 0x0 DUP2 EQ PUSH2 0x115C JUMPI PUSH1 0x40 MLOAD SWAP2 POP PUSH1 0x1F NOT PUSH1 0x3F RETURNDATASIZE ADD AND DUP3 ADD PUSH1 0x40 MSTORE RETURNDATASIZE DUP3 MSTORE RETURNDATASIZE PUSH1 0x0 PUSH1 0x20 DUP5 ADD RETURNDATACOPY PUSH2 0x1161 JUMP JUMPDEST PUSH1 0x60 SWAP2 POP JUMPDEST POP SWAP2 POP SWAP2 POP DUP2 DUP1 ISZERO PUSH2 0x118B JUMPI POP DUP1 MLOAD ISZERO DUP1 PUSH2 0x118B JUMPI POP DUP1 DUP1 PUSH1 0x20 ADD SWAP1 MLOAD DUP2 ADD SWAP1 PUSH2 0x118B SWAP2 SWAP1 PUSH2 0x1DB5 JUMP JUMPDEST PUSH2 0x11E3 JUMPI PUSH1 0x40 MLOAD PUSH3 0x461BCD PUSH1 0xE5 SHL DUP2 MSTORE PUSH1 0x20 PUSH1 0x4 DUP3 ADD MSTORE PUSH1 0x24 DUP1 DUP3 ADD MSTORE PUSH32 0x5472616E7366657248656C7065723A205452414E534645525F46524F4D5F4641 PUSH1 0x44 DUP3 ADD MSTORE PUSH4 0x12531151 PUSH1 0xE2 SHL PUSH1 0x64 DUP3 ADD MSTORE PUSH1 0x84 ADD PUSH2 0x5A9 JUMP JUMPDEST POP POP POP POP POP POP JUMP JUMPDEST PUSH1 0x1 PUSH1 0x1 PUSH1 0xA0 SHL SUB DUP1 DUP4 AND PUSH1 0x0 SWAP1 DUP2 MSTORE PUSH1 0x6 PUSH1 0x20 SWAP1 DUP2 MSTORE PUSH1 0x40 DUP1 DUP4 KECCAK256 SLOAD SWAP1 SWAP4 AND DUP1 DUP4 MSTORE PUSH1 0x7 SWAP1 SWAP2 MSTORE SWAP2 DUP2 KECCAK256 DUP1 SLOAD PUSH1 0x1 SWAP3 SWAP1 PUSH2 0x1227 SWAP1 DUP5 SWAP1 PUSH2 0x1DD7 JUMP JUMPDEST SWAP1 SWAP2 SSTORE POP POP PUSH1 0x1 PUSH1 0x1 PUSH1 0xA0 SHL SUB DUP2 AND PUSH1 0x0 SWAP1 DUP2 MSTORE PUSH1 0x7 PUSH1 0x20 MSTORE PUSH1 0x40 SWAP1 KECCAK256 SLOAD PUSH1 0x3 GT DUP1 ISZERO SWAP1 PUSH2 0x126E JUMPI POP PUSH1 0x1 PUSH1 0x1 PUSH1 0xA0 SHL SUB DUP2 AND PUSH1 0x0 SWAP1 DUP2 MSTORE PUSH1 0x5 PUSH1 0x20 MSTORE PUSH1 0x40 SWAP1 KECCAK256 SLOAD PUSH1 0xFF AND ISZERO JUMPDEST ISZERO PUSH2 0x1297 JUMPI PUSH1 0x1 PUSH1 0x1 PUSH1 0xA0 SHL SUB DUP2 AND PUSH1 0x0 SWAP1 DUP2 MSTORE PUSH1 0x5 PUSH1 0x20 MSTORE PUSH1 0x40 SWAP1 KECCAK256 DUP1 SLOAD PUSH1 0xFF NOT AND PUSH1 0x1 OR SWAP1 SSTORE JUMPDEST PUSH1 0x64 PUSH2 0x12A4 DUP4 PUSH1 0x14 PUSH2 0x1CBA JUMP JUMPDEST PUSH2 0x12AE SWAP2 SWAP1 PUSH2 0x1CD1 JUMP JUMPDEST PUSH1 0x1 PUSH1 0x1 PUSH1 0xA0 SHL SUB DUP3 AND PUSH1 0x0 SWAP1 DUP2 MSTORE PUSH1 0x8 PUSH1 0x20 MSTORE PUSH1 0x40 SWAP1 KECCAK256 SLOAD PUSH2 0x12D1 SWAP2 SWAP1 PUSH2 0x1DD7 JUMP JUMPDEST PUSH1 0x1 PUSH1 0x1 PUSH1 0xA0 SHL SUB DUP1 DUP4 AND PUSH1 0x0 SWAP1 DUP2 MSTORE PUSH1 0x8 PUSH1 0x20 SWAP1 DUP2 MSTORE PUSH1 0x40 DUP1 DUP4 KECCAK256 SWAP5 SWAP1 SWAP5 SSTORE PUSH1 0x2 DUP2 MSTORE SWAP1 DUP4 SWAP1 KECCAK256 DUP4 MLOAD PUSH1 0x80 DUP2 ADD SWAP1 SWAP5 MSTORE SWAP2 DUP7 AND DUP4 MSTORE SWAP1 SWAP2 SWAP1 DUP2 ADD PUSH1 0x64 PUSH2 0x1319 DUP7 PUSH1 0x14 PUSH2 0x1CBA JUMP JUMPDEST PUSH2 0x1323 SWAP2 SWAP1 PUSH2 0x1CD1 JUMP JUMPDEST DUP2 MSTORE TIMESTAMP PUSH1 0x20 DUP3 ADD MSTORE PUSH1 0x40 ADD PUSH1 0x0 SWAP1 MSTORE DUP2 SLOAD PUSH1 0x1 DUP1 DUP3 ADD DUP5 SSTORE PUSH1 0x0 SWAP4 DUP5 MSTORE PUSH1 0x20 SWAP4 DUP5 SWAP1 KECCAK256 DUP4 MLOAD PUSH1 0x4 SWAP1 SWAP4 MUL ADD DUP1 SLOAD PUSH1 0x1 PUSH1 0x1 PUSH1 0xA0 SHL SUB NOT AND PUSH1 0x1 PUSH1 0x1 PUSH1 0xA0 SHL SUB SWAP1 SWAP4 AND SWAP3 SWAP1 SWAP3 OR DUP3 SSTORE SWAP3 DUP3 ADD MLOAD DUP2 DUP5 ADD SSTORE PUSH1 0x40 DUP3 ADD MLOAD PUSH1 0x2 DUP1 DUP4 ADD SWAP2 SWAP1 SWAP2 SSTORE PUSH1 0x60 DUP4 ADD MLOAD PUSH1 0x3 DUP4 ADD DUP1 SLOAD SWAP5 SWAP6 SWAP4 SWAP5 SWAP2 SWAP4 SWAP1 SWAP3 PUSH1 0xFF NOT SWAP1 SWAP3 AND SWAP2 DUP5 SWAP1 DUP2 GT ISZERO PUSH2 0x13AC JUMPI PUSH2 0x13AC PUSH2 0x1BCC JUMP JUMPDEST MUL OR SWAP1 SSTORE POP POP POP PUSH1 0x1 PUSH1 0x1 PUSH1 0xA0 SHL SUB DUP2 AND PUSH1 0x0 SWAP1 DUP2 MSTORE PUSH1 0x5 PUSH1 0x20 MSTORE PUSH1 0x40 SWAP1 KECCAK256 SLOAD PUSH1 0xFF AND ISZERO PUSH2 0x1634 JUMPI PUSH1 0x64 PUSH2 0x13E1 DUP4 PUSH1 0x28 PUSH2 0x1CBA JUMP JUMPDEST PUSH2 0x13EB SWAP2 SWAP1 PUSH2 0x1CD1 JUMP JUMPDEST PUSH1 0x1 PUSH1 0x1 PUSH1 0xA0 SHL SUB DUP3 AND PUSH1 0x0 SWAP1 DUP2 MSTORE PUSH1 0x8 PUSH1 0x20 MSTORE PUSH1 0x40 SWAP1 KECCAK256 SLOAD PUSH2 0x140E SWAP2 SWAP1 PUSH2 0x1DD7 JUMP JUMPDEST PUSH1 0x1 PUSH1 0x1 PUSH1 0xA0 SHL SUB DUP1 DUP4 AND PUSH1 0x0 SWAP1 DUP2 MSTORE PUSH1 0x8 PUSH1 0x20 SWAP1 DUP2 MSTORE PUSH1 0x40 DUP1 DUP4 KECCAK256 SWAP5 SWAP1 SWAP5 SSTORE PUSH1 0x2 DUP2 MSTORE SWAP1 DUP4 SWAP1 KECCAK256 DUP4 MLOAD PUSH1 0x80 DUP2 ADD SWAP1 SWAP5 MSTORE SWAP2 DUP7 AND DUP4 MSTORE SWAP1 SWAP2 SWAP1 DUP2 ADD PUSH1 0x64 PUSH2 0x1456 DUP7 PUSH1 0x28 PUSH2 0x1CBA JUMP JUMPDEST PUSH2 0x1460 SWAP2 SWAP1 PUSH2 0x1CD1 JUMP JUMPDEST DUP2 MSTORE TIMESTAMP PUSH1 0x20 DUP3 ADD MSTORE PUSH1 0x40 ADD PUSH1 0x1 SWAP1 MSTORE DUP2 SLOAD PUSH1 0x1 DUP1 DUP3 ADD DUP5 SSTORE PUSH1 0x0 SWAP4 DUP5 MSTORE PUSH1 0x20 SWAP4 DUP5 SWAP1 KECCAK256 DUP4 MLOAD PUSH1 0x4 SWAP1 SWAP4 MUL ADD DUP1 SLOAD PUSH1 0x1 PUSH1 0x1 PUSH1 0xA0 SHL SUB NOT AND PUSH1 0x1 PUSH1 0x1 PUSH1 0xA0 SHL SUB SWAP1 SWAP4 AND SWAP3 SWAP1 SWAP3 OR DUP3 SSTORE SWAP3 DUP3 ADD MLOAD DUP2 DUP5 ADD SSTORE PUSH1 0x40 DUP3 ADD MLOAD PUSH1 0x2 DUP1 DUP4 ADD SWAP2 SWAP1 SWAP2 SSTORE PUSH1 0x60 DUP4 ADD MLOAD PUSH1 0x3 DUP4 ADD DUP1 SLOAD SWAP5 SWAP6 SWAP4 SWAP5 SWAP2 SWAP4 SWAP1 SWAP3 PUSH1 0xFF NOT SWAP1 SWAP3 AND SWAP2 DUP5 SWAP1 DUP2 GT ISZERO PUSH2 0x14E9 JUMPI PUSH2 0x14E9 PUSH2 0x1BCC JUMP JUMPDEST MUL OR SWAP1 SSTORE POP POP POP PUSH1 0x1 PUSH1 0x1 PUSH1 0xA0 SHL SUB DUP1 DUP3 AND PUSH1 0x0 SWAP1 DUP2 MSTORE PUSH1 0x6 PUSH1 0x20 MSTORE PUSH1 0x40 SWAP1 KECCAK256 SLOAD AND DUP1 ISZERO PUSH2 0x162E JUMPI PUSH1 0x64 PUSH2 0x151E DUP5 PUSH1 0x6 PUSH2 0x1CBA JUMP JUMPDEST PUSH2 0x1528 SWAP2 SWAP1 PUSH2 0x1CD1 JUMP JUMPDEST PUSH1 0x1 PUSH1 0x1 PUSH1 0xA0 SHL SUB DUP3 AND PUSH1 0x0 SWAP1 DUP2 MSTORE PUSH1 0x8 PUSH1 0x20 MSTORE PUSH1 0x40 SWAP1 KECCAK256 SLOAD PUSH2 0x154B SWAP2 SWAP1 PUSH2 0x1DD7 JUMP JUMPDEST PUSH1 0x1 PUSH1 0x1 PUSH1 0xA0 SHL SUB DUP1 DUP4 AND PUSH1 0x0 SWAP1 DUP2 MSTORE PUSH1 0x8 PUSH1 0x20 SWAP1 DUP2 MSTORE PUSH1 0x40 DUP1 DUP4 KECCAK256 SWAP5 SWAP1 SWAP5 SSTORE PUSH1 0x2 DUP2 MSTORE SWAP1 DUP4 SWAP1 KECCAK256 DUP4 MLOAD PUSH1 0x80 DUP2 ADD SWAP1 SWAP5 MSTORE SWAP2 DUP8 AND DUP4 MSTORE SWAP1 SWAP2 SWAP1 DUP2 ADD PUSH1 0x64 PUSH2 0x1593 DUP8 PUSH1 0x6 PUSH2 0x1CBA JUMP JUMPDEST PUSH2 0x159D SWAP2 SWAP1 PUSH2 0x1CD1 JUMP JUMPDEST DUP2 MSTORE TIMESTAMP PUSH1 0x20 DUP3 ADD MSTORE PUSH1 0x40 ADD PUSH1 0x2 SWAP1 MSTORE DUP2 SLOAD PUSH1 0x1 DUP1 DUP3 ADD DUP5 SSTORE PUSH1 0x0 SWAP4 DUP5 MSTORE PUSH1 0x20 SWAP4 DUP5 SWAP1 KECCAK256 DUP4 MLOAD PUSH1 0x4 SWAP1 SWAP4 MUL ADD DUP1 SLOAD PUSH1 0x1 PUSH1 0x1 PUSH1 0xA0 SHL SUB NOT AND PUSH1 0x1 PUSH1 0x1 PUSH1 0xA0 SHL SUB SWAP1 SWAP4 AND SWAP3 SWAP1 SWAP3 OR DUP3 SSTORE SWAP3 DUP3 ADD MLOAD DUP2 DUP5 ADD SSTORE PUSH1 0x40 DUP3 ADD MLOAD PUSH1 0x2 DUP1 DUP4 ADD SWAP2 SWAP1 SWAP2 SSTORE PUSH1 0x60 DUP4 ADD MLOAD PUSH1 0x3 DUP4 ADD DUP1 SLOAD SWAP5 SWAP6 SWAP4 SWAP5 SWAP2 SWAP4 SWAP1 SWAP3 PUSH1 0xFF NOT SWAP1 SWAP3 AND SWAP2 DUP5 SWAP1 DUP2 GT ISZERO PUSH2 0x1626 JUMPI PUSH2 0x1626 PUSH2 0x1BCC JUMP JUMPDEST MUL OR SWAP1 SSTORE POP POP POP JUMPDEST POP POP POP POP JUMP JUMPDEST PUSH2 0x163E DUP4 DUP4 PUSH2 0x19E2 JUMP JUMPDEST POP POP POP JUMP JUMPDEST PUSH1 0x40 DUP1 MLOAD PUSH1 0x1 PUSH1 0x1 PUSH1 0xA0 SHL SUB DUP5 DUP2 AND PUSH1 0x24 DUP4 ADD MSTORE PUSH1 0x44 DUP1 DUP4 ADD DUP6 SWAP1 MSTORE DUP4 MLOAD DUP1 DUP5 SUB SWAP1 SWAP2 ADD DUP2 MSTORE PUSH1 0x64 SWAP1 SWAP3 ADD DUP4 MSTORE PUSH1 0x20 DUP3 ADD DUP1 MLOAD PUSH1 0x1 PUSH1 0x1 PUSH1 0xE0 SHL SUB AND PUSH4 0xA9059CBB PUSH1 0xE0 SHL OR SWAP1 MSTORE SWAP2 MLOAD PUSH1 0x0 SWAP3 DUP4 SWAP3 SWAP1 DUP8 AND SWAP2 PUSH2 0x169F SWAP2 SWAP1 PUSH2 0x1D86 JUMP JUMPDEST PUSH1 0x0 PUSH1 0x40 MLOAD DUP1 DUP4 SUB DUP2 PUSH1 0x0 DUP7 GAS CALL SWAP2 POP POP RETURNDATASIZE DUP1 PUSH1 0x0 DUP2 EQ PUSH2 0x16DC JUMPI PUSH1 0x40 MLOAD SWAP2 POP PUSH1 0x1F NOT PUSH1 0x3F RETURNDATASIZE ADD AND DUP3 ADD PUSH1 0x40 MSTORE RETURNDATASIZE DUP3 MSTORE RETURNDATASIZE PUSH1 0x0 PUSH1 0x20 DUP5 ADD RETURNDATACOPY PUSH2 0x16E1 JUMP JUMPDEST PUSH1 0x60 SWAP2 POP JUMPDEST POP SWAP2 POP SWAP2 POP DUP2 DUP1 ISZERO PUSH2 0x170B JUMPI POP DUP1 MLOAD ISZERO DUP1 PUSH2 0x170B JUMPI POP DUP1 DUP1 PUSH1 0x20 ADD SWAP1 MLOAD DUP2 ADD SWAP1 PUSH2 0x170B SWAP2 SWAP1 PUSH2 0x1DB5 JUMP JUMPDEST PUSH2 0xB11 JUMPI PUSH1 0x40 MLOAD PUSH3 0x461BCD PUSH1 0xE5 SHL DUP2 MSTORE PUSH1 0x20 PUSH1 0x4 DUP3 ADD MSTORE PUSH1 0x1F PUSH1 0x24 DUP3 ADD MSTORE PUSH32 0x5472616E7366657248656C7065723A205452414E534645525F4641494C454400 PUSH1 0x44 DUP3 ADD MSTORE PUSH1 0x64 ADD PUSH2 0x5A9 JUMP JUMPDEST PUSH1 0x0 DUP1 DUP3 PUSH1 0x1 PUSH1 0x1 PUSH1 0xA0 SHL SUB AND DUP5 PUSH1 0x1 PUSH1 0x1 PUSH1 0xA0 SHL SUB AND SUB PUSH2 0x17C9 JUMPI PUSH1 0x40 MLOAD PUSH3 0x461BCD PUSH1 0xE5 SHL DUP2 MSTORE PUSH1 0x20 PUSH1 0x4 DUP3 ADD MSTORE PUSH1 0x25 PUSH1 0x24 DUP3 ADD MSTORE PUSH32 0x556E697377617056324C6962726172793A204944454E544943414C5F41444452 PUSH1 0x44 DUP3 ADD MSTORE PUSH5 0x4553534553 PUSH1 0xD8 SHL PUSH1 0x64 DUP3 ADD MSTORE PUSH1 0x84 ADD PUSH2 0x5A9 JUMP JUMPDEST DUP3 PUSH1 0x1 PUSH1 0x1 PUSH1 0xA0 SHL SUB AND DUP5 PUSH1 0x1 PUSH1 0x1 PUSH1 0xA0 SHL SUB AND LT PUSH2 0x17E9 JUMPI DUP3 DUP5 PUSH2 0x17EC JUMP JUMPDEST DUP4 DUP4 JUMPDEST SWAP1 SWAP3 POP SWAP1 POP PUSH1 0x1 PUSH1 0x1 PUSH1 0xA0 SHL SUB DUP3 AND PUSH2 0x1847 JUMPI PUSH1 0x40 MLOAD PUSH3 0x461BCD PUSH1 0xE5 SHL DUP2 MSTORE PUSH1 0x20 PUSH1 0x4 DUP3 ADD MSTORE PUSH1 0x1E PUSH1 0x24 DUP3 ADD MSTORE PUSH32 0x556E697377617056324C6962726172793A205A45524F5F414444524553530000 PUSH1 0x44 DUP3 ADD MSTORE PUSH1 0x64 ADD PUSH2 0x5A9 JUMP JUMPDEST SWAP3 POP SWAP3 SWAP1 POP JUMP JUMPDEST PUSH1 0x0 DUP1 PUSH1 0x0 PUSH2 0x185D DUP6 DUP6 PUSH2 0x1757 JUMP JUMPDEST PUSH1 0x40 MLOAD PUSH12 0xFFFFFFFFFFFFFFFFFFFFFFFF NOT PUSH1 0x60 DUP5 DUP2 SHL DUP3 AND PUSH1 0x20 DUP5 ADD MSTORE DUP4 SWAP1 SHL AND PUSH1 0x34 DUP3 ADD MSTORE SWAP2 SWAP4 POP SWAP2 POP DUP7 SWAP1 PUSH1 0x48 ADD PUSH1 0x40 MLOAD PUSH1 0x20 DUP2 DUP4 SUB SUB DUP2 MSTORE SWAP1 PUSH1 0x40 MSTORE DUP1 MLOAD SWAP1 PUSH1 0x20 ADD KECCAK256 PUSH1 0x40 MLOAD PUSH1 0x20 ADD PUSH2 0x1904 SWAP3 SWAP2 SWAP1 PUSH1 0x1 PUSH1 0x1 PUSH1 0xF8 SHL SUB NOT DUP2 MSTORE PUSH1 0x60 SWAP3 SWAP1 SWAP3 SHL PUSH12 0xFFFFFFFFFFFFFFFFFFFFFFFF NOT AND PUSH1 0x1 DUP4 ADD MSTORE PUSH1 0x15 DUP3 ADD MSTORE PUSH31 0xFB7F630766E6A796048EA87D01ACD3068E8FF67D078148A3FA3F4A84F69BD5 PUSH1 0x35 DUP3 ADD MSTORE PUSH1 0x55 ADD SWAP1 JUMP JUMPDEST PUSH1 0x40 DUP1 MLOAD PUSH1 0x1F NOT DUP2 DUP5 SUB ADD DUP2 MSTORE SWAP2 SWAP1 MSTORE DUP1 MLOAD PUSH1 0x20 SWAP1 SWAP2 ADD KECCAK256 SWAP7 SWAP6 POP POP POP POP POP POP JUMP JUMPDEST PUSH1 0x0 DUP2 ISZERO DUP1 PUSH2 0x194A JUMPI POP DUP3 DUP3 PUSH2 0x193C DUP2 DUP4 PUSH2 0x1CBA JUMP JUMPDEST SWAP3 POP PUSH2 0x1948 SWAP1 DUP4 PUSH2 0x1CD1 JUMP JUMPDEST EQ JUMPDEST PUSH2 0x7A0 JUMPI PUSH1 0x40 MLOAD PUSH3 0x461BCD PUSH1 0xE5 SHL DUP2 MSTORE PUSH1 0x20 PUSH1 0x4 DUP3 ADD MSTORE PUSH1 0x14 PUSH1 0x24 DUP3 ADD MSTORE PUSH20 0x64732D6D6174682D6D756C2D6F766572666C6F77 PUSH1 0x60 SHL PUSH1 0x44 DUP3 ADD MSTORE PUSH1 0x64 ADD PUSH2 0x5A9 JUMP JUMPDEST PUSH1 0x0 DUP3 PUSH2 0x199A DUP4 DUP3 PUSH2 0x1DD7 JUMP JUMPDEST SWAP2 POP DUP2 LT ISZERO PUSH2 0x7A0 JUMPI PUSH1 0x40 MLOAD PUSH3 0x461BCD PUSH1 0xE5 SHL DUP2 MSTORE PUSH1 0x20 PUSH1 0x4 DUP3 ADD MSTORE PUSH1 0x14 PUSH1 0x24 DUP3 ADD MSTORE PUSH20 0x64732D6D6174682D6164642D6F766572666C6F77 PUSH1 0x60 SHL PUSH1 0x44 DUP3 ADD MSTORE PUSH1 0x64 ADD PUSH2 0x5A9 JUMP JUMPDEST PUSH1 0x0 PUSH2 0x19ED DUP4 PUSH2 0x76F JUMP JUMPDEST PUSH1 0x1 PUSH1 0x1 PUSH1 0xA0 SHL SUB DUP2 AND PUSH1 0x0 SWAP1 DUP2 MSTORE PUSH1 0x5 PUSH1 0x20 MSTORE PUSH1 0x40 SWAP1 KECCAK256 SLOAD SWAP1 SWAP2 POP PUSH1 0xFF AND ISZERO PUSH2 0x163E JUMPI PUSH1 0x64 PUSH2 0x13E1 DUP4 PUSH1 0x28 PUSH2 0x1CBA JUMP JUMPDEST PUSH1 0x0 PUSH1 0x20 DUP3 DUP5 SUB SLT ISZERO PUSH2 0x1A30 JUMPI PUSH1 0x0 DUP1 REVERT JUMPDEST POP CALLDATALOAD SWAP2 SWAP1 POP JUMP JUMPDEST DUP1 CALLDATALOAD PUSH1 0x1 PUSH1 0x1 PUSH1 0xA0 SHL SUB DUP2 AND DUP2 EQ PUSH2 0x1A4E JUMPI PUSH1 0x0 DUP1 REVERT JUMPDEST SWAP2 SWAP1 POP JUMP JUMPDEST PUSH1 0x0 DUP1 PUSH1 0x0 DUP1 PUSH1 0x0 PUSH1 0xA0 DUP7 DUP9 SUB SLT ISZERO PUSH2 0x1A6B JUMPI PUSH1 0x0 DUP1 REVERT JUMPDEST PUSH2 0x1A74 DUP7 PUSH2 0x1A37 JUMP JUMPDEST SWAP5 POP PUSH2 0x1A82 PUSH1 0x20 DUP8 ADD PUSH2 0x1A37 JUMP JUMPDEST SWAP4 POP PUSH2 0x1A90 PUSH1 0x40 DUP8 ADD PUSH2 0x1A37 JUMP JUMPDEST SWAP3 POP PUSH2 0x1A9E PUSH1 0x60 DUP8 ADD PUSH2 0x1A37 JUMP JUMPDEST SWAP2 POP PUSH2 0x1AAC PUSH1 0x80 DUP8 ADD PUSH2 0x1A37 JUMP JUMPDEST SWAP1 POP SWAP3 SWAP6 POP SWAP3 SWAP6 SWAP1 SWAP4 POP JUMP JUMPDEST PUSH1 0x0 PUSH1 0x20 DUP3 DUP5 SUB SLT ISZERO PUSH2 0x1ACA JUMPI PUSH1 0x0 DUP1 REVERT JUMPDEST PUSH2 0x1AD3 DUP3 PUSH2 0x1A37 JUMP JUMPDEST SWAP4 SWAP3 POP POP POP JUMP JUMPDEST PUSH1 0x20 DUP1 DUP3 MSTORE DUP3 MLOAD DUP3 DUP3 ADD DUP2 SWAP1 MSTORE PUSH1 0x0 SWAP2 SWAP1 PUSH1 0x40 SWAP1 DUP2 DUP6 ADD SWAP1 DUP7 DUP5 ADD DUP6 JUMPDEST DUP3 DUP2 LT ISZERO PUSH2 0x1B2F JUMPI DUP2 MLOAD DUP1 MLOAD PUSH1 0x1 PUSH1 0x1 PUSH1 0xA0 SHL SUB AND DUP6 MSTORE DUP7 DUP2 ADD MLOAD DUP8 DUP7 ADD MSTORE DUP6 ADD MLOAD DUP6 DUP6 ADD MSTORE PUSH1 0x60 SWAP1 SWAP4 ADD SWAP3 SWAP1 DUP6 ADD SWAP1 PUSH1 0x1 ADD PUSH2 0x1AF7 JUMP JUMPDEST POP SWAP2 SWAP8 SWAP7 POP POP POP POP POP POP POP JUMP JUMPDEST PUSH1 0x0 PUSH1 0x20 DUP3 DUP5 SUB SLT ISZERO PUSH2 0x1B4E JUMPI PUSH1 0x0 DUP1 REVERT JUMPDEST DUP2 CALLDATALOAD PUSH1 0xFF DUP2 AND DUP2 EQ PUSH2 0x1AD3 JUMPI PUSH1 0x0 DUP1 REVERT JUMPDEST PUSH1 0x0 DUP1 PUSH1 0x0 PUSH1 0x60 DUP5 DUP7 SUB SLT ISZERO PUSH2 0x1B74 JUMPI PUSH1 0x0 DUP1 REVERT JUMPDEST PUSH2 0x1B7D DUP5 PUSH2 0x1A37 JUMP JUMPDEST SWAP3 POP PUSH2 0x1B8B PUSH1 0x20 DUP6 ADD PUSH2 0x1A37 JUMP JUMPDEST SWAP2 POP PUSH2 0x1B99 PUSH1 0x40 DUP6 ADD PUSH2 0x1A37 JUMP JUMPDEST SWAP1 POP SWAP3 POP SWAP3 POP SWAP3 JUMP JUMPDEST PUSH1 0x0 DUP1 PUSH1 0x40 DUP4 DUP6 SUB SLT ISZERO PUSH2 0x1BB5 JUMPI PUSH1 0x0 DUP1 REVERT JUMPDEST PUSH2 0x1BBE DUP4 PUSH2 0x1A37 JUMP JUMPDEST SWAP5 PUSH1 0x20 SWAP4 SWAP1 SWAP4 ADD CALLDATALOAD SWAP4 POP POP POP JUMP JUMPDEST PUSH4 0x4E487B71 PUSH1 0xE0 SHL PUSH1 0x0 MSTORE PUSH1 0x21 PUSH1 0x4 MSTORE PUSH1 0x24 PUSH1 0x0 REVERT JUMPDEST PUSH1 0x20 DUP1 DUP3 MSTORE DUP3 MLOAD DUP3 DUP3 ADD DUP2 SWAP1 MSTORE PUSH1 0x0 SWAP2 SWAP1 PUSH1 0x40 SWAP1 DUP2 DUP6 ADD SWAP1 DUP7 DUP5 ADD DUP6 DUP1 JUMPDEST DUP4 DUP2 LT ISZERO PUSH2 0x1C5F JUMPI DUP3 MLOAD DUP1 MLOAD PUSH1 0x1 PUSH1 0x1 PUSH1 0xA0 SHL SUB AND DUP7 MSTORE DUP8 DUP2 ADD MLOAD DUP9 DUP8 ADD MSTORE DUP7 DUP2 ADD MLOAD DUP8 DUP8 ADD MSTORE PUSH1 0x60 SWAP1 DUP2 ADD MLOAD SWAP1 PUSH1 0x3 DUP3 LT PUSH2 0x1C4A JUMPI PUSH4 0x4E487B71 PUSH1 0xE0 SHL DUP5 MSTORE PUSH1 0x21 PUSH1 0x4 MSTORE PUSH1 0x24 DUP5 REVERT JUMPDEST DUP7 ADD MSTORE PUSH1 0x80 SWAP1 SWAP5 ADD SWAP4 SWAP2 DUP7 ADD SWAP2 PUSH1 0x1 ADD PUSH2 0x1C00 JUMP JUMPDEST POP SWAP3 SWAP9 SWAP8 POP POP POP POP POP POP POP POP JUMP JUMPDEST PUSH1 0x20 DUP1 DUP3 MSTORE PUSH1 0x1E SWAP1 DUP3 ADD MSTORE PUSH32 0x4D656D626572736869703A43616C6C6572206973206E6F74206F776E65720000 PUSH1 0x40 DUP3 ADD MSTORE PUSH1 0x60 ADD SWAP1 JUMP JUMPDEST PUSH4 0x4E487B71 PUSH1 0xE0 SHL PUSH1 0x0 MSTORE PUSH1 0x11 PUSH1 0x4 MSTORE PUSH1 0x24 PUSH1 0x0 REVERT JUMPDEST DUP1 DUP3 MUL DUP2 ISZERO DUP3 DUP3 DIV DUP5 EQ OR PUSH2 0x7A0 JUMPI PUSH2 0x7A0 PUSH2 0x1CA4 JUMP JUMPDEST PUSH1 0x0 DUP3 PUSH2 0x1CEE JUMPI PUSH4 0x4E487B71 PUSH1 0xE0 SHL PUSH1 0x0 MSTORE PUSH1 0x12 PUSH1 0x4 MSTORE PUSH1 0x24 PUSH1 0x0 REVERT JUMPDEST POP DIV SWAP1 JUMP JUMPDEST DUP2 DUP2 SUB DUP2 DUP2 GT ISZERO PUSH2 0x7A0 JUMPI PUSH2 0x7A0 PUSH2 0x1CA4 JUMP JUMPDEST PUSH1 0xFF DUP3 DUP2 AND DUP3 DUP3 AND SUB SWAP1 DUP2 GT ISZERO PUSH2 0x7A0 JUMPI PUSH2 0x7A0 PUSH2 0x1CA4 JUMP JUMPDEST DUP1 MLOAD PUSH1 0x1 PUSH1 0x1 PUSH1 0x70 SHL SUB DUP2 AND DUP2 EQ PUSH2 0x1A4E JUMPI PUSH1 0x0 DUP1 REVERT JUMPDEST PUSH1 0x0 DUP1 PUSH1 0x0 PUSH1 0x60 DUP5 DUP7 SUB SLT ISZERO PUSH2 0x1D4B JUMPI PUSH1 0x0 DUP1 REVERT JUMPDEST PUSH2 0x1D54 DUP5 PUSH2 0x1D1F JUMP JUMPDEST SWAP3 POP PUSH2 0x1D62 PUSH1 0x20 DUP6 ADD PUSH2 0x1D1F JUMP JUMPDEST SWAP2 POP PUSH1 0x40 DUP5 ADD MLOAD PUSH4 0xFFFFFFFF DUP2 AND DUP2 EQ PUSH2 0x1D7B JUMPI PUSH1 0x0 DUP1 REVERT JUMPDEST DUP1 SWAP2 POP POP SWAP3 POP SWAP3 POP SWAP3 JUMP JUMPDEST PUSH1 0x0 DUP3 MLOAD PUSH1 0x0 JUMPDEST DUP2 DUP2 LT ISZERO PUSH2 0x1DA7 JUMPI PUSH1 0x20 DUP2 DUP7 ADD DUP2 ADD MLOAD DUP6 DUP4 ADD MSTORE ADD PUSH2 0x1D8D JUMP JUMPDEST POP PUSH1 0x0 SWAP3 ADD SWAP2 DUP3 MSTORE POP SWAP2 SWAP1 POP JUMP JUMPDEST PUSH1 0x0 PUSH1 0x20 DUP3 DUP5 SUB SLT ISZERO PUSH2 0x1DC7 JUMPI PUSH1 0x0 DUP1 REVERT JUMPDEST DUP2 MLOAD DUP1 ISZERO ISZERO DUP2 EQ PUSH2 0x1AD3 JUMPI PUSH1 0x0 DUP1 REVERT JUMPDEST DUP1 DUP3 ADD DUP1 DUP3 GT ISZERO PUSH2 0x7A0 JUMPI PUSH2 0x7A0 PUSH2 0x1CA4 JUMP INVALID LOG2 PUSH5 0x6970667358 0x22 SLT KECCAK256 0xBC PUSH29 0xC71A62DF1B5719B96C705F084B6970540FB072C069CD2A50BA8499A2EA SWAP11 PUSH5 0x736F6C6343 STOP ADDMOD SLT STOP CALLER "
		},
		"gasEstimates": {
			"creation": {
				"codeDepositCost": "1542400",
				"executionCost": "25845",
				"totalCost": "1568245"
			},
			"external": {
				"admin()": "2425",
				"bind(address)": "31262",
				"claim(address,uint256)": "infinite",
				"fixedPrice()": "2375",
				"fourPercent()": "2382",
				"getAmountOut()": "infinite",
				"getClaimRecordsInfo(address)": "infinite",
				"getTeamRewardInfo(address)": "infinite",
				"getUserInfo(address)": "11709",
				"implementation()": "2448",
				"initialInviter()": "2427",
				"initialize(address,address,address,address,address)": "infinite",
				"inviter(address)": "2602",
				"invitesNum(address)": "2619",
				"isVip(address)": "2642",
				"isVips(address)": "2599",
				"lookFor(address)": "infinite",
				"maxLooked()": "2359",
				"purchasingVip(address)": "infinite",
				"setAdmin(address)": "26756",
				"setMaxLooked(uint8)": "26730",
				"tenPercent()": "2382",
				"token()": "2447",
				"totalTeamReward(address)": "2597",
				"twentyPercent()": "2427",
				"uniswapV2Factory()": "2426",
				"updateFixed(uint256)": "24511",
				"updatePercentReceiver(address,address,address)": "infinite",
				"usdt()": "2383"
			},
			"internal": {
				"distribute(address,uint256)": "infinite",
				"findVip(address,uint8)": "infinite",
				"updateInviter(address,uint256)": "infinite"
			}
		},
		"methodIdentifiers": {
			"admin()": "f851a440",
			"bind(address)": "81bac14f",
			"claim(address,uint256)": "aad3ec96",
			"fixedPrice()": "1efba6c2",
			"fourPercent()": "9e0060aa",
			"getAmountOut()": "57b2351d",
			"getClaimRecordsInfo(address)": "30be0cd9",
			"getTeamRewardInfo(address)": "f48aa84f",
			"getUserInfo(address)": "6386c1c7",
			"implementation()": "5c60da1b",
			"initialInviter()": "4e377201",
			"initialize(address,address,address,address,address)": "1459457a",
			"inviter(address)": "ee8f0b7a",
			"invitesNum(address)": "b13140ed",
			"isVip(address)": "84203f4b",
			"isVips(address)": "4c3fbb66",
			"lookFor(address)": "35fc14d8",
			"maxLooked()": "46e6dfe7",
			"purchasingVip(address)": "7a8af562",
			"setAdmin(address)": "704b6c02",
			"setMaxLooked(uint8)": "32870577",
			"tenPercent()": "5636f6ba",
			"token()": "fc0c546a",
			"totalTeamReward(address)": "ac849501",
			"twentyPercent()": "6a7f7477",
			"uniswapV2Factory()": "59d0f713",
			"updateFixed(uint256)": "0667afe2",
			"updatePercentReceiver(address,address,address)": "60fe4483",
			"usdt()": "2f48ab7d"
		}
	},
	"abi": [
		{
			"inputs": [],
			"stateMutability": "nonpayable",
			"type": "constructor"
		},
		{
			"inputs": [],
			"name": "admin",
			"outputs": [
				{
					"internalType": "address",
					"name": "",
					"type": "address"
				}
			],
			"stateMutability": "view",
			"type": "function"
		},
		{
			"inputs": [
				{
					"internalType": "address",
					"name": "_inviter",
					"type": "address"
				}
			],
			"name": "bind",
			"outputs": [],
			"stateMutability": "nonpayable",
			"type": "function"
		},
		{
			"inputs": [
				{
					"internalType": "address",
					"name": "_user",
					"type": "address"
				},
				{
					"internalType": "uint256",
					"name": "_amount",
					"type": "uint256"
				}
			],
			"name": "claim",
			"outputs": [],
			"stateMutability": "nonpayable",
			"type": "function"
		},
		{
			"inputs": [],
			"name": "fixedPrice",
			"outputs": [
				{
					"internalType": "uint256",
					"name": "",
					"type": "uint256"
				}
			],
			"stateMutability": "view",
			"type": "function"
		},
		{
			"inputs": [],
			"name": "fourPercent",
			"outputs": [
				{
					"internalType": "address",
					"name": "",
					"type": "address"
				}
			],
			"stateMutability": "view",
			"type": "function"
		},
		{
			"inputs": [],
			"name": "getAmountOut",
			"outputs": [
				{
					"internalType": "uint256",
					"name": "amountOut",
					"type": "uint256"
				}
			],
			"stateMutability": "view",
			"type": "function"
		},
		{
			"inputs": [
				{
					"internalType": "address",
					"name": "_user",
					"type": "address"
				}
			],
			"name": "getClaimRecordsInfo",
			"outputs": [
				{
					"components": [
						{
							"internalType": "address",
							"name": "receiver",
							"type": "address"
						},
						{
							"internalType": "uint256",
							"name": "amount",
							"type": "uint256"
						},
						{
							"internalType": "uint256",
							"name": "claimTime",
							"type": "uint256"
						}
					],
					"internalType": "struct MemberStorV1.ClaimRecords[]",
					"name": "",
					"type": "tuple[]"
				}
			],
			"stateMutability": "view",
			"type": "function"
		},
		{
			"inputs": [
				{
					"internalType": "address",
					"name": "_user",
					"type": "address"
				}
			],
			"name": "getTeamRewardInfo",
			"outputs": [
				{
					"components": [
						{
							"internalType": "address",
							"name": "partner",
							"type": "address"
						},
						{
							"internalType": "uint256",
							"name": "rewardValue",
							"type": "uint256"
						},
						{
							"internalType": "uint256",
							"name": "rewardTime",
							"type": "uint256"
						},
						{
							"internalType": "enum MemberStorV1.Express",
							"name": "express",
							"type": "uint8"
						}
					],
					"internalType": "struct MemberStorV1.TeamReward[]",
					"name": "",
					"type": "tuple[]"
				}
			],
			"stateMutability": "view",
			"type": "function"
		},
		{
			"inputs": [
				{
					"internalType": "address",
					"name": "_user",
					"type": "address"
				}
			],
			"name": "getUserInfo",
			"outputs": [
				{
					"components": [
						{
							"internalType": "bool",
							"name": "isp",
							"type": "bool"
						},
						{
							"internalType": "bool",
							"name": "isps",
							"type": "bool"
						},
						{
							"internalType": "address",
							"name": "inv",
							"type": "address"
						},
						{
							"internalType": "uint256",
							"name": "invNum",
							"type": "uint256"
						},
						{
							"internalType": "uint256",
							"name": "totalTR",
							"type": "uint256"
						}
					],
					"internalType": "struct MemberStorV1.User",
					"name": "",
					"type": "tuple"
				}
			],
			"stateMutability": "view",
			"type": "function"
		},
		{
			"inputs": [],
			"name": "implementation",
			"outputs": [
				{
					"internalType": "address",
					"name": "",
					"type": "address"
				}
			],
			"stateMutability": "view",
			"type": "function"
		},
		{
			"inputs": [],
			"name": "initialInviter",
			"outputs": [
				{
					"internalType": "address",
					"name": "",
					"type": "address"
				}
			],
			"stateMutability": "view",
			"type": "function"
		},
		{
			"inputs": [
				{
					"internalType": "address",
					"name": "_token",
					"type": "address"
				},
				{
					"internalType": "address",
					"name": "_initialInviter",
					"type": "address"
				},
				{
					"internalType": "address",
					"name": "_fourPercent",
					"type": "address"
				},
				{
					"internalType": "address",
					"name": "_tenPercent",
					"type": "address"
				},
				{
					"internalType": "address",
					"name": "_twentyPercent",
					"type": "address"
				}
			],
			"name": "initialize",
			"outputs": [],
			"stateMutability": "nonpayable",
			"type": "function"
		},
		{
			"inputs": [
				{
					"internalType": "address",
					"name": "",
					"type": "address"
				}
			],
			"name": "inviter",
			"outputs": [
				{
					"internalType": "address",
					"name": "",
					"type": "address"
				}
			],
			"stateMutability": "view",
			"type": "function"
		},
		{
			"inputs": [
				{
					"internalType": "address",
					"name": "",
					"type": "address"
				}
			],
			"name": "invitesNum",
			"outputs": [
				{
					"internalType": "uint256",
					"name": "",
					"type": "uint256"
				}
			],
			"stateMutability": "view",
			"type": "function"
		},
		{
			"inputs": [
				{
					"internalType": "address",
					"name": "",
					"type": "address"
				}
			],
			"name": "isVip",
			"outputs": [
				{
					"internalType": "bool",
					"name": "",
					"type": "bool"
				}
			],
			"stateMutability": "view",
			"type": "function"
		},
		{
			"inputs": [
				{
					"internalType": "address",
					"name": "",
					"type": "address"
				}
			],
			"name": "isVips",
			"outputs": [
				{
					"internalType": "bool",
					"name": "",
					"type": "bool"
				}
			],
			"stateMutability": "view",
			"type": "function"
		},
		{
			"inputs": [
				{
					"internalType": "address",
					"name": "_user",
					"type": "address"
				}
			],
			"name": "lookFor",
			"outputs": [
				{
					"internalType": "address",
					"name": "",
					"type": "address"
				}
			],
			"stateMutability": "view",
			"type": "function"
		},
		{
			"inputs": [],
			"name": "maxLooked",
			"outputs": [
				{
					"internalType": "uint8",
					"name": "",
					"type": "uint8"
				}
			],
			"stateMutability": "view",
			"type": "function"
		},
		{
			"inputs": [
				{
					"internalType": "address",
					"name": "_user",
					"type": "address"
				}
			],
			"name": "purchasingVip",
			"outputs": [],
			"stateMutability": "nonpayable",
			"type": "function"
		},
		{
			"inputs": [
				{
					"internalType": "address",
					"name": "_admin",
					"type": "address"
				}
			],
			"name": "setAdmin",
			"outputs": [],
			"stateMutability": "nonpayable",
			"type": "function"
		},
		{
			"inputs": [
				{
					"internalType": "uint8",
					"name": "_looked",
					"type": "uint8"
				}
			],
			"name": "setMaxLooked",
			"outputs": [],
			"stateMutability": "nonpayable",
			"type": "function"
		},
		{
			"inputs": [],
			"name": "tenPercent",
			"outputs": [
				{
					"internalType": "address",
					"name": "",
					"type": "address"
				}
			],
			"stateMutability": "view",
			"type": "function"
		},
		{
			"inputs": [],
			"name": "token",
			"outputs": [
				{
					"internalType": "address",
					"name": "",
					"type": "address"
				}
			],
			"stateMutability": "view",
			"type": "function"
		},
		{
			"inputs": [
				{
					"internalType": "address",
					"name": "",
					"type": "address"
				}
			],
			"name": "totalTeamReward",
			"outputs": [
				{
					"internalType": "uint256",
					"name": "",
					"type": "uint256"
				}
			],
			"stateMutability": "view",
			"type": "function"
		},
		{
			"inputs": [],
			"name": "twentyPercent",
			"outputs": [
				{
					"internalType": "address",
					"name": "",
					"type": "address"
				}
			],
			"stateMutability": "view",
			"type": "function"
		},
		{
			"inputs": [],
			"name": "uniswapV2Factory",
			"outputs": [
				{
					"internalType": "address",
					"name": "",
					"type": "address"
				}
			],
			"stateMutability": "view",
			"type": "function"
		},
		{
			"inputs": [
				{
					"internalType": "uint256",
					"name": "_fixed",
					"type": "uint256"
				}
			],
			"name": "updateFixed",
			"outputs": [],
			"stateMutability": "nonpayable",
			"type": "function"
		},
		{
			"inputs": [
				{
					"internalType": "address",
					"name": "_twentyPercent",
					"type": "address"
				},
				{
					"internalType": "address",
					"name": "_tenPercent",
					"type": "address"
				},
				{
					"internalType": "address",
					"name": "_fourPercent",
					"type": "address"
				}
			],
			"name": "updatePercentReceiver",
			"outputs": [],
			"stateMutability": "nonpayable",
			"type": "function"
		},
		{
			"inputs": [],
			"name": "usdt",
			"outputs": [
				{
					"internalType": "address",
					"name": "",
					"type": "address"
				}
			],
			"stateMutability": "view",
			"type": "function"
		}
	]
}