{"abi":[{"type":"receive","stateMutability":"payable"},{"type":"function","name":"UPGRADE_INTERFACE_VERSION","inputs":[],"outputs":[{"name":"","type":"string","internalType":"string"}],"stateMutability":"view"},{"type":"function","name":"claim","inputs":[],"outputs":[],"stateMutability":"nonpayable"},{"type":"function","name":"emergencyWithdraw","inputs":[{"name":"_token","type":"address","internalType":"address"},{"name":"_to","type":"address","internalType":"address"}],"outputs":[],"stateMutability":"nonpayable"},{"type":"function","name":"getQuoteAmount","inputs":[{"name":"amountToken","type":"uint256","internalType":"uint256"}],"outputs":[{"name":"amountUsdt","type":"uint256","internalType":"uint256"}],"stateMutability":"view"},{"type":"function","name":"getUserIncome","inputs":[{"name":"member","type":"address","internalType":"address"}],"outputs":[{"name":"","type":"uint256","internalType":"uint256"}],"stateMutability":"view"},{"type":"function","name":"getUserInfo","inputs":[{"name":"member","type":"address","internalType":"address"}],"outputs":[{"name":"inviter","type":"address","internalType":"address"},{"name":"staking","type":"uint256","internalType":"uint256"},{"name":"lpAmount","type":"uint256","internalType":"uint256"},{"name":"value","type":"uint256","internalType":"uint256"},{"name":"dynamic","type":"uint256","internalType":"uint256"},{"name":"extracted","type":"uint256","internalType":"uint256"},{"name":"members","type":"address[]","internalType":"address[]"},{"name":"records","type":"tuple[]","internalType":"struct Liquidity.Record[]","components":[{"name":"members","type":"address","internalType":"address"},{"name":"amountToken","type":"uint256","internalType":"uint256"},{"name":"amountUsdt","type":"uint256","internalType":"uint256"},{"name":"liquidity","type":"uint256","internalType":"uint256"},{"name":"time","type":"uint256","internalType":"uint256"}]}],"stateMutability":"view"},{"type":"function","name":"initialize","inputs":[{"name":"_token","type":"address","internalType":"address"},{"name":"_subToken","type":"address","internalType":"address"},{"name":"_prefixCode","type":"address","internalType":"address"}],"outputs":[],"stateMutability":"nonpayable"},{"type":"function","name":"invite","inputs":[{"name":"_inviter","type":"address","internalType":"address"}],"outputs":[],"stateMutability":"nonpayable"},{"type":"function","name":"owner","inputs":[],"outputs":[{"name":"","type":"address","internalType":"address"}],"stateMutability":"view"},{"type":"function","name":"prefixCode","inputs":[],"outputs":[{"name":"","type":"address","internalType":"address"}],"stateMutability":"view"},{"type":"function","name":"provide","inputs":[{"name":"amountToken","type":"uint256","internalType":"uint256"}],"outputs":[],"stateMutability":"nonpayable"},{"type":"function","name":"proxiableUUID","inputs":[],"outputs":[{"name":"","type":"bytes32","internalType":"bytes32"}],"stateMutability":"view"},{"type":"function","name":"rate","inputs":[],"outputs":[{"name":"","type":"uint256","internalType":"uint256"}],"stateMutability":"view"},{"type":"function","name":"renounceOwnership","inputs":[],"outputs":[],"stateMutability":"nonpayable"},{"type":"function","name":"setConfig","inputs":[{"name":"_token","type":"address","internalType":"address"},{"name":"_subToken","type":"address","internalType":"address"},{"name":"_prefixCode","type":"address","internalType":"address"}],"outputs":[],"stateMutability":"nonpayable"},{"type":"function","name":"setRate","inputs":[{"name":"_dayRate","type":"uint256","internalType":"uint256"}],"outputs":[],"stateMutability":"nonpayable"},{"type":"function","name":"transferOwnership","inputs":[{"name":"newOwner","type":"address","internalType":"address"}],"outputs":[],"stateMutability":"nonpayable"},{"type":"function","name":"uniswapV2Factory","inputs":[],"outputs":[{"name":"","type":"address","internalType":"address"}],"stateMutability":"view"},{"type":"function","name":"uniswapV2Router","inputs":[],"outputs":[{"name":"","type":"address","internalType":"address"}],"stateMutability":"view"},{"type":"function","name":"upgradeToAndCall","inputs":[{"name":"newImplementation","type":"address","internalType":"address"},{"name":"data","type":"bytes","internalType":"bytes"}],"outputs":[],"stateMutability":"payable"},{"type":"function","name":"usdt","inputs":[],"outputs":[{"name":"","type":"address","internalType":"address"}],"stateMutability":"view"},{"type":"event","name":"Initialized","inputs":[{"name":"version","type":"uint64","indexed":false,"internalType":"uint64"}],"anonymous":false},{"type":"event","name":"OwnershipTransferred","inputs":[{"name":"previousOwner","type":"address","indexed":true,"internalType":"address"},{"name":"newOwner","type":"address","indexed":true,"internalType":"address"}],"anonymous":false},{"type":"event","name":"Upgraded","inputs":[{"name":"implementation","type":"address","indexed":true,"internalType":"address"}],"anonymous":false},{"type":"error","name":"AddressEmptyCode","inputs":[{"name":"target","type":"address","internalType":"address"}]},{"type":"error","name":"ERC1967InvalidImplementation","inputs":[{"name":"implementation","type":"address","internalType":"address"}]},{"type":"error","name":"ERC1967NonPayable","inputs":[]},{"type":"error","name":"FailedInnerCall","inputs":[]},{"type":"error","name":"InvalidInitialization","inputs":[]},{"type":"error","name":"NotInitializing","inputs":[]},{"type":"error","name":"OwnableInvalidOwner","inputs":[{"name":"owner","type":"address","internalType":"address"}]},{"type":"error","name":"OwnableUnauthorizedAccount","inputs":[{"name":"account","type":"address","internalType":"address"}]},{"type":"error","name":"ReentrancyGuardReentrantCall","inputs":[]},{"type":"error","name":"UUPSUnauthorizedCallContext","inputs":[]},{"type":"error","name":"UUPSUnsupportedProxiableUUID","inputs":[{"name":"slot","type":"bytes32","internalType":"bytes32"}]}],"bytecode":{"object":"0x60a06040523060805234801561001457600080fd5b5060016000556080516122966100436000396000818161127f015281816112a801526113ee01526122966000f3fe60806040526004361061012e5760003560e01c806352d1902d116100ab5780637f081b161161006f5780637f081b161461033b5780638da5cb5b1461035b578063a99e393e14610398578063ad3cb1cc146103b8578063c0c53b8b146103f6578063f2fde38b1461041657600080fd5b806352d1902d1461029557806359d0f713146102aa5780636382d9ad146102d25780636386c1c7146102f2578063715018a61461032657600080fd5b80633141e25b116100f25780633141e25b1461020d57806334fcf4371461022d5780634b77c4681461024d5780634e71d92d1461026d5780634f1ef2861461028257600080fd5b80631694505e1461013a5780632a75d5f41461017f5780632c4e722e146101ad5780632e2ebe06146101c35780632f48ab7d146101e557600080fd5b3661013557005b600080fd5b34801561014657600080fd5b506101627310ed43c718714eb63d5aa57b78b54704e256024e81565b6040516001600160a01b0390911681526020015b60405180910390f35b34801561018b57600080fd5b5061019f61019a366004611ddb565b610436565b604051908152602001610176565b3480156101b957600080fd5b5061019f60025481565b3480156101cf57600080fd5b506101e36101de366004611ddb565b610494565b005b3480156101f157600080fd5b506101627355d398326f99059ff775485246999027b319795581565b34801561021957600080fd5b506101e3610228366004611e09565b6105d2565b34801561023957600080fd5b506101e3610248366004611ddb565b610619565b34801561025957600080fd5b506101e3610268366004611e54565b610634565b34801561027957600080fd5b506101e361076a565b6101e3610290366004611e87565b610829565b3480156102a157600080fd5b5061019f610848565b3480156102b657600080fd5b5061016273ca143ce32fe78f1f7019d7d551a6402fc5350c7381565b3480156102de57600080fd5b506101e36102ed366004611f4b565b610865565b3480156102fe57600080fd5b5061031261030d366004611e54565b6108fa565b604051610176989796959493929190611ff3565b34801561033257600080fd5b506101e3610aec565b34801561034757600080fd5b5061019f610356366004611e54565b610b00565b34801561036757600080fd5b507f9016d09d72d40fdae2fd8ceac6b6234c7706214fd39c1cd1e609a0528c199300546001600160a01b0316610162565b3480156103a457600080fd5b50600554610162906001600160a01b031681565b3480156103c457600080fd5b506103e9604051806040016040528060058152602001640352e302e360dc1b81525081565b60405161017691906120ad565b34801561040257600080fd5b506101e3610411366004611e09565b610b24565b34801561042257600080fd5b506101e3610431366004611e54565b610c93565b6003546000908190819061047d9073ca143ce32fe78f1f7019d7d551a6402fc5350c73906001600160a01b03167355d398326f99059ff775485246999027b3197955610cce565b9150915061048c848383610d98565b949350505050565b61049c610e79565b33600090815260016020526040902080546001600160a01b03166105075760405162461bcd60e51b815260206004820152601960248201527f4e4f545f4144445f4c49515549444954595f5045524d49542e0000000000000060448201526064015b60405180910390fd5b600061051283610436565b6003549091506000908190819061054c906001600160a01b03167355d398326f99059ff775485246999027b3197955888785803042610ea3565b92509250925061055b33610fc5565b8285600101600082825461056f91906120f6565b925050819055508085600201600082825461058a91906120f6565b9091555061059b9050826002612109565b8560030160008282546105ae91906120f6565b909155506105c0905033848484610ff8565b50505050506105cf6001600055565b50565b6105da611105565b600380546001600160a01b039485166001600160a01b031991821617909155600480549385169382169390931790925560058054919093169116179055565b610621611105565b61062e6201518082612120565b60025550565b60006001600160a01b038216331415806106645750336000908152600160205260409020546001600160a01b0316155b9050806106a45760405162461bcd60e51b815260206004820152600e60248201526d22a92927a92fa4a72b24aa22a91760911b60448201526064016104fe565b6005546001600160a01b0383811691161461071b576001600160a01b0382166000908152600160208190526040909120015461071b5760405162461bcd60e51b81526020600482015260166024820152752727aa2fa420a9afa4a72b24aa22afa822a926a4aa1760511b60448201526064016104fe565b5033600081815260016020818152604080842080546001600160a01b039097166001600160a01b0319978816811790915584528320600801805492830181558352909120018054909216179055565b600061077533610b00565b116107b25760405162461bcd60e51b815260206004820152600d60248201526c22a92927a92fa0a6a7aaa72a1760991b60448201526064016104fe565b6107bb33610fc5565b60006107c633610b00565b6004549091506107e0906001600160a01b03163383611160565b5060006107ec33610b00565b336000908152600160205260408120600701805490919061080e9084906120f6565b90915550503360009081526001602052604081206005015550565b610831611274565b61083a82611319565b6108448282611321565b5050565b60006108526113e3565b5060008051602061224183398151915290565b61086d611105565b6001600160a01b03821661088557610844814761142c565b6040516370a0823160e01b815230600482015261084490839083906001600160a01b038316906370a0823190602401602060405180830381865afa1580156108d1573d6000803e3d6000fd5b505050506040513d601f19601f820116820180604052508101906108f59190612142565b611160565b6000806000806000806060806000600160008b6001600160a01b03166001600160a01b03168152602001908152602001600020604051806101400160405290816000820160009054906101000a90046001600160a01b03166001600160a01b03166001600160a01b031681526020016001820154815260200160028201548152602001600382015481526020016004820154815260200160058201548152602001600682015481526020016007820154815260200160088201805480602002602001604051908101604052809291908181526020018280548015610a0757602002820191906000526020600020905b81546001600160a01b031681526001909101906020018083116109e9575b5050505050815260200160098201805480602002602001604051908101604052809291908181526020016000905b82821015610a9c5760008481526020908190206040805160a0810182526005860290920180546001600160a01b0316835260018082015484860152600282015492840192909252600381015460608401526004015460808301529083529092019101610a35565b5050505081525050905080600001519850806020015197508060400151965080606001519550806080015194508060e0015193508061010001519250806101200151915050919395975091939597565b610af4611105565b610afe60006114f5565b565b6000670de0b6b3a7640000610b1483611566565b610b1e9190612120565b92915050565b7ff0c57e16840df040f15088dc2f81fe391c3923bec73e23a9662efc9c229c6a008054600160401b810460ff16159067ffffffffffffffff16600081158015610b6a5750825b905060008267ffffffffffffffff166001148015610b875750303b155b905081158015610b95575080155b15610bb35760405163f92ee8a960e01b815260040160405180910390fd5b845467ffffffffffffffff191660011785558315610bdd57845460ff60401b1916600160401b1785555b610be6336115cc565b610bee6115d4565b600380546001600160a01b03808b166001600160a01b031992831617909255600480548a84169083161790556005805492891692909116919091179055610c4062015180678ac7230489e80000612120565b6002558315610c8957845460ff60401b19168555604051600181527fc7f505b2f371ae2175ee4913f4499e1f2633a7b5936321eed1cdaeb6115181d29060200160405180910390a15b5050505050505050565b610c9b611105565b6001600160a01b038116610cc557604051631e4fbdf760e01b8152600060048201526024016104fe565b6105cf816114f5565b6000806000610cdd85856115dc565b509050600080610cee8888886116d3565b6001600160a01b0316630902f1ac6040518163ffffffff1660e01b8152600401606060405180830381865afa158015610d2b573d6000803e3d6000fd5b505050506040513d601f19601f82011682018060405250810190610d4f9190612177565b506001600160701b031691506001600160701b03169150826001600160a01b0316876001600160a01b031614610d86578082610d89565b81815b90999098509650505050505050565b6000808411610df75760405162461bcd60e51b815260206004820152602560248201527f556e697377617056324c6962726172793a20494e53554646494349454e545f416044820152641353d5539560da1b60648201526084016104fe565b600083118015610e075750600082115b610e645760405162461bcd60e51b815260206004820152602860248201527f556e697377617056324c6962726172793a20494e53554646494349454e545f4c604482015267495155494449545960c01b60648201526084016104fe565b82610e6f85846117ab565b61048c9190612120565b600260005403610e9c57604051633ee5aeb560e01b815260040160405180910390fd5b6002600055565b60008060008342811015610ef95760405162461bcd60e51b815260206004820152601860248201527f556e69737761705632526f757465723a2045585049524544000000000000000060448201526064016104fe565b610f078c8c8c8c8c8c611812565b90945092506000610f2d73ca143ce32fe78f1f7019d7d551a6402fc5350c738e8e6116d3565b9050610f3b8d338388611a8a565b610f478c338387611a8a565b6040516335313c2160e11b81526001600160a01b038881166004830152821690636a627842906024016020604051808303816000875af1158015610f8f573d6000803e3d6000fd5b505050506040513d601f19601f82011682018060405250810190610fb39190612142565b92505050985098509895505050505050565b610fce81611566565b6001600160a01b039091166000908152600160205260409020600581019190915542600690910155565b6001600160a01b038085166000908152600160205260409020541680156110fe576001600160a01b038181166000908152600160208181526040808420815160a0810183528b871681528084018b81529281018a8152606082018a81524260808401908152600990940180548089018255908952959097209151600590950290910180546001600160a01b0319169490971693909317865590519285019290925551600284015590516003830155516004909101556110b681610fc5565b60646110c3856001612109565b6110cd9190612120565b6001600160a01b038216600090815260016020526040812060040180549091906110f89084906120f6565b90915550505b5050505050565b336111377f9016d09d72d40fdae2fd8ceac6b6234c7706214fd39c1cd1e609a0528c199300546001600160a01b031690565b6001600160a01b031614610afe5760405163118cdaa760e01b81523360048201526024016104fe565b604080516001600160a01b038481166024830152604480830185905283518084039091018152606490920183526020820180516001600160e01b031663a9059cbb60e01b17905291516000928392908716916111bc91906121bc565b6000604051808303816000865af19150503d80600081146111f9576040519150601f19603f3d011682016040523d82523d6000602084013e6111fe565b606091505b509150915081801561122857508051158061122857508080602001905181019061122891906121d8565b6110fe5760405162461bcd60e51b815260206004820152601f60248201527f5472616e7366657248656c7065723a205452414e534645525f4641494c45440060448201526064016104fe565b306001600160a01b037f00000000000000000000000000000000000000000000000000000000000000001614806112fb57507f00000000000000000000000000000000000000000000000000000000000000006001600160a01b03166112ef600080516020612241833981519152546001600160a01b031690565b6001600160a01b031614155b15610afe5760405163703e46dd60e11b815260040160405180910390fd5b6105cf611105565b816001600160a01b03166352d1902d6040518163ffffffff1660e01b8152600401602060405180830381865afa92505050801561137b575060408051601f3d908101601f1916820190925261137891810190612142565b60015b6113a357604051634c9c8ce360e01b81526001600160a01b03831660048201526024016104fe565b60008051602061224183398151915281146113d457604051632a87526960e21b8152600481018290526024016104fe565b6113de8383611bba565b505050565b306001600160a01b037f00000000000000000000000000000000000000000000000000000000000000001614610afe5760405163703e46dd60e11b815260040160405180910390fd5b604080516000808252602082019092526001600160a01b03841690839060405161145691906121bc565b60006040518083038185875af1925050503d8060008114611493576040519150601f19603f3d011682016040523d82523d6000602084013e611498565b606091505b50509050806113de5760405162461bcd60e51b815260206004820152602360248201527f5472616e7366657248656c7065723a204554485f5452414e534645525f46414960448201526213115160ea1b60648201526084016104fe565b7f9016d09d72d40fdae2fd8ceac6b6234c7706214fd39c1cd1e609a0528c19930080546001600160a01b031981166001600160a01b03848116918217845560405192169182907f8be0079c531659141344cd1fd0a4f28419497f9722a3daafe3b4186f6b6457e090600090a3505050565b6001600160a01b0381166000908152600160208190526040822060058101546002546004830154938301549293859361159f91906120f6565b60068501546115ae90426121fa565b6115b89190612109565b6115c29190612109565b61048c91906120f6565b610c9b611c10565b610afe611c10565b600080826001600160a01b0316846001600160a01b03160361164e5760405162461bcd60e51b815260206004820152602560248201527f556e697377617056324c6962726172793a204944454e544943414c5f41444452604482015264455353455360d81b60648201526084016104fe565b826001600160a01b0316846001600160a01b03161061166e578284611671565b83835b90925090506001600160a01b0382166116cc5760405162461bcd60e51b815260206004820152601e60248201527f556e697377617056324c6962726172793a205a45524f5f41444452455353000060448201526064016104fe565b9250929050565b60008060006116e285856115dc565b6040516bffffffffffffffffffffffff19606084811b8216602084015283901b16603482015291935091508690604801604051602081830303815290604052805190602001206040516020016117899291906001600160f81b0319815260609290921b6bffffffffffffffffffffffff1916600183015260158201527efb7f630766e6a796048ea87d01acd3068e8ff67d078148a3fa3f4a84f69bd5603582015260550190565b60408051601f1981840301815291905280516020909101209695505050505050565b60008115806117cf575082826117c18183612109565b92506117cd9083612120565b145b610b1e5760405162461bcd60e51b815260206004820152601460248201527364732d6d6174682d6d756c2d6f766572666c6f7760601b60448201526064016104fe565b60405163e6a4390560e01b81526001600160a01b038088166004830152861660248201526000908190819073ca143ce32fe78f1f7019d7d551a6402fc5350c739063e6a4390590604401602060405180830381865afa158015611879573d6000803e3d6000fd5b505050506040513d601f19601f8201168201806040525081019061189d919061220d565b6001600160a01b031603611933576040516364e329cb60e11b81526001600160a01b03808a1660048301528816602482015273ca143ce32fe78f1f7019d7d551a6402fc5350c739063c9c65396906044016020604051808303816000875af115801561190d573d6000803e3d6000fd5b505050506040513d601f19601f82011682018060405250810190611931919061220d565b505b60008061195573ca143ce32fe78f1f7019d7d551a6402fc5350c738b8b610cce565b91509150816000148015611967575080155b1561197757879350869250611a7d565b6000611984898484610d98565b90508781116119f757858110156119ec5760405162461bcd60e51b815260206004820152602660248201527f556e69737761705632526f757465723a20494e53554646494349454e545f425f604482015265105353d5539560d21b60648201526084016104fe565b889450925082611a7b565b6000611a04898486610d98565b905089811115611a1657611a1661222a565b87811015611a755760405162461bcd60e51b815260206004820152602660248201527f556e69737761705632526f757465723a20494e53554646494349454e545f415f604482015265105353d5539560d21b60648201526084016104fe565b94508793505b505b5050965096945050505050565b604080516001600160a01b0385811660248301528481166044830152606480830185905283518084039091018152608490920183526020820180516001600160e01b03166323b872dd60e01b1790529151600092839290881691611aee91906121bc565b6000604051808303816000865af19150503d8060008114611b2b576040519150601f19603f3d011682016040523d82523d6000602084013e611b30565b606091505b5091509150818015611b5a575080511580611b5a575080806020019051810190611b5a91906121d8565b611bb25760405162461bcd60e51b8152602060048201526024808201527f5472616e7366657248656c7065723a205452414e534645525f46524f4d5f46416044820152631253115160e21b60648201526084016104fe565b505050505050565b611bc382611c59565b6040516001600160a01b038316907fbc7cd75a20ee27fd9adebab32041f755214dbc6bffa90cc0225b39da2e5c2d3b90600090a2805115611c08576113de8282611cbe565b610844611d34565b7ff0c57e16840df040f15088dc2f81fe391c3923bec73e23a9662efc9c229c6a0054600160401b900460ff16610afe57604051631afcd79f60e31b815260040160405180910390fd5b806001600160a01b03163b600003611c8f57604051634c9c8ce360e01b81526001600160a01b03821660048201526024016104fe565b60008051602061224183398151915280546001600160a01b0319166001600160a01b0392909216919091179055565b6060600080846001600160a01b031684604051611cdb91906121bc565b600060405180830381855af49150503d8060008114611d16576040519150601f19603f3d011682016040523d82523d6000602084013e611d1b565b606091505b5091509150611d2b858383611d53565b95945050505050565b3415610afe5760405163b398979f60e01b815260040160405180910390fd5b606082611d6857611d6382611db2565b611dab565b8151158015611d7f57506001600160a01b0384163b155b15611da857604051639996b31560e01b81526001600160a01b03851660048201526024016104fe565b50805b9392505050565b805115611dc25780518082602001fd5b604051630a12f52160e11b815260040160405180910390fd5b600060208284031215611ded57600080fd5b5035919050565b6001600160a01b03811681146105cf57600080fd5b600080600060608486031215611e1e57600080fd5b8335611e2981611df4565b92506020840135611e3981611df4565b91506040840135611e4981611df4565b809150509250925092565b600060208284031215611e6657600080fd5b8135611dab81611df4565b634e487b7160e01b600052604160045260246000fd5b60008060408385031215611e9a57600080fd5b8235611ea581611df4565b9150602083013567ffffffffffffffff80821115611ec257600080fd5b818501915085601f830112611ed657600080fd5b813581811115611ee857611ee8611e71565b604051601f8201601f19908116603f01168101908382118183101715611f1057611f10611e71565b81604052828152886020848701011115611f2957600080fd5b8260208601602083013760006020848301015280955050505050509250929050565b60008060408385031215611f5e57600080fd5b8235611f6981611df4565b91506020830135611f7981611df4565b809150509250929050565b60008151808452602080850194506020840160005b83811015611fe857815180516001600160a01b03168852838101518489015260408082015190890152606080820151908901526080908101519088015260a09096019590820190600101611f99565b509495945050505050565b6001600160a01b03898116825260208083018a905260408301899052606083018890526080830187905260a0830186905261010060c08401819052855190840181905260009261012085019287810192855b81811015612063578451841686529482019493820193600101612045565b505050505082810360e084015261207a8185611f84565b9b9a5050505050505050505050565b60005b838110156120a457818101518382015260200161208c565b50506000910152565b60208152600082518060208401526120cc816040850160208701612089565b601f01601f19169190910160400192915050565b634e487b7160e01b600052601160045260246000fd5b80820180821115610b1e57610b1e6120e0565b8082028115828204841417610b1e57610b1e6120e0565b60008261213d57634e487b7160e01b600052601260045260246000fd5b500490565b60006020828403121561215457600080fd5b5051919050565b80516001600160701b038116811461217257600080fd5b919050565b60008060006060848603121561218c57600080fd5b6121958461215b565b92506121a36020850161215b565b9150604084015163ffffffff81168114611e4957600080fd5b600082516121ce818460208701612089565b9190910192915050565b6000602082840312156121ea57600080fd5b81518015158114611dab57600080fd5b81810381811115610b1e57610b1e6120e0565b60006020828403121561221f57600080fd5b8151611dab81611df4565b634e487b7160e01b600052600160045260246000fdfe360894a13ba1a3210667c828492db98dca3e2076cc3735a920a3ca505d382bbca26469706673582212202308d6b3903dfdf5f18d93ff485bb691d0a9cbb30f6b904157ff905f494a5e0464736f6c63430008180033","linkReferences":{}},"methodIdentifiers":{"UPGRADE_INTERFACE_VERSION()":"ad3cb1cc","claim()":"4e71d92d","emergencyWithdraw(address,address)":"6382d9ad","getQuoteAmount(uint256)":"2a75d5f4","getUserIncome(address)":"7f081b16","getUserInfo(address)":"6386c1c7","initialize(address,address,address)":"c0c53b8b","invite(address)":"4b77c468","owner()":"8da5cb5b","prefixCode()":"a99e393e","provide(uint256)":"2e2ebe06","proxiableUUID()":"52d1902d","rate()":"2c4e722e","renounceOwnership()":"715018a6","setConfig(address,address,address)":"3141e25b","setRate(uint256)":"34fcf437","transferOwnership(address)":"f2fde38b","uniswapV2Factory()":"59d0f713","uniswapV2Router()":"1694505e","upgradeToAndCall(address,bytes)":"4f1ef286","usdt()":"2f48ab7d"},"id":38}