{"abi":[{"type":"receive","stateMutability":"payable"},{"type":"function","name":"UPGRADE_INTERFACE_VERSION","inputs":[],"outputs":[{"name":"","type":"string","internalType":"string"}],"stateMutability":"view"},{"type":"function","name":"claim","inputs":[],"outputs":[],"stateMutability":"nonpayable"},{"type":"function","name":"emergencyWithdraw","inputs":[{"name":"_token","type":"address","internalType":"address"},{"name":"_to","type":"address","internalType":"address"}],"outputs":[],"stateMutability":"nonpayable"},{"type":"function","name":"getQuoteAmount","inputs":[{"name":"amountToken","type":"uint256","internalType":"uint256"}],"outputs":[{"name":"amountUsdt","type":"uint256","internalType":"uint256"}],"stateMutability":"view"},{"type":"function","name":"getUserIncome","inputs":[{"name":"member","type":"address","internalType":"address"}],"outputs":[{"name":"","type":"uint256","internalType":"uint256"}],"stateMutability":"view"},{"type":"function","name":"getUserInfo","inputs":[{"name":"member","type":"address","internalType":"address"}],"outputs":[{"name":"inviter","type":"address","internalType":"address"},{"name":"staking","type":"uint256","internalType":"uint256"},{"name":"lpAmount","type":"uint256","internalType":"uint256"},{"name":"value","type":"uint256","internalType":"uint256"},{"name":"dynamic","type":"uint256","internalType":"uint256"},{"name":"extracted","type":"uint256","internalType":"uint256"},{"name":"members","type":"address[]","internalType":"address[]"},{"name":"records","type":"tuple[]","internalType":"struct Liquidity.Record[]","components":[{"name":"members","type":"address","internalType":"address"},{"name":"amountToken","type":"uint256","internalType":"uint256"},{"name":"amountUsdt","type":"uint256","internalType":"uint256"},{"name":"liquidity","type":"uint256","internalType":"uint256"},{"name":"time","type":"uint256","internalType":"uint256"}]}],"stateMutability":"view"},{"type":"function","name":"initialize","inputs":[{"name":"_token","type":"address","internalType":"address"},{"name":"_subToken","type":"address","internalType":"address"},{"name":"_prefixCode","type":"address","internalType":"address"}],"outputs":[],"stateMutability":"nonpayable"},{"type":"function","name":"invite","inputs":[{"name":"_inviter","type":"address","internalType":"address"}],"outputs":[],"stateMutability":"nonpayable"},{"type":"function","name":"owner","inputs":[],"outputs":[{"name":"","type":"address","internalType":"address"}],"stateMutability":"view"},{"type":"function","name":"prefixCode","inputs":[],"outputs":[{"name":"","type":"address","internalType":"address"}],"stateMutability":"view"},{"type":"function","name":"provide","inputs":[{"name":"amountToken","type":"uint256","internalType":"uint256"}],"outputs":[],"stateMutability":"nonpayable"},{"type":"function","name":"proxiableUUID","inputs":[],"outputs":[{"name":"","type":"bytes32","internalType":"bytes32"}],"stateMutability":"view"},{"type":"function","name":"renounceOwnership","inputs":[],"outputs":[],"stateMutability":"nonpayable"},{"type":"function","name":"setConfig","inputs":[{"name":"_token","type":"address","internalType":"address"},{"name":"_subToken","type":"address","internalType":"address"},{"name":"_prefixCode","type":"address","internalType":"address"}],"outputs":[],"stateMutability":"nonpayable"},{"type":"function","name":"transferOwnership","inputs":[{"name":"newOwner","type":"address","internalType":"address"}],"outputs":[],"stateMutability":"nonpayable"},{"type":"function","name":"uniswapV2Factory","inputs":[],"outputs":[{"name":"","type":"address","internalType":"address"}],"stateMutability":"view"},{"type":"function","name":"uniswapV2Router","inputs":[],"outputs":[{"name":"","type":"address","internalType":"address"}],"stateMutability":"view"},{"type":"function","name":"upgradeToAndCall","inputs":[{"name":"newImplementation","type":"address","internalType":"address"},{"name":"data","type":"bytes","internalType":"bytes"}],"outputs":[],"stateMutability":"payable"},{"type":"function","name":"usdt","inputs":[],"outputs":[{"name":"","type":"address","internalType":"address"}],"stateMutability":"view"},{"type":"event","name":"Initialized","inputs":[{"name":"version","type":"uint64","indexed":false,"internalType":"uint64"}],"anonymous":false},{"type":"event","name":"OwnershipTransferred","inputs":[{"name":"previousOwner","type":"address","indexed":true,"internalType":"address"},{"name":"newOwner","type":"address","indexed":true,"internalType":"address"}],"anonymous":false},{"type":"event","name":"Upgraded","inputs":[{"name":"implementation","type":"address","indexed":true,"internalType":"address"}],"anonymous":false},{"type":"error","name":"AddressEmptyCode","inputs":[{"name":"target","type":"address","internalType":"address"}]},{"type":"error","name":"ERC1967InvalidImplementation","inputs":[{"name":"implementation","type":"address","internalType":"address"}]},{"type":"error","name":"ERC1967NonPayable","inputs":[]},{"type":"error","name":"FailedInnerCall","inputs":[]},{"type":"error","name":"InvalidInitialization","inputs":[]},{"type":"error","name":"NotInitializing","inputs":[]},{"type":"error","name":"OwnableInvalidOwner","inputs":[{"name":"owner","type":"address","internalType":"address"}]},{"type":"error","name":"OwnableUnauthorizedAccount","inputs":[{"name":"account","type":"address","internalType":"address"}]},{"type":"error","name":"ReentrancyGuardReentrantCall","inputs":[]},{"type":"error","name":"UUPSUnauthorizedCallContext","inputs":[]},{"type":"error","name":"UUPSUnsupportedProxiableUUID","inputs":[{"name":"slot","type":"bytes32","internalType":"bytes32"}]}],"bytecode":{"object":"0x60a06040523060805234801561001457600080fd5b5060016000556080516122876100436000396000818161121801528181611241015261138701526122876000f3fe6080604052600436106101185760003560e01c806359d0f713116100a05780638da5cb5b116100645780638da5cb5b1461030f578063a99e393e1461034c578063ad3cb1cc1461036c578063c0c53b8b146103aa578063f2fde38b146103ca57600080fd5b806359d0f7131461025e5780636382d9ad146102865780636386c1c7146102a6578063715018a6146102da5780637f081b16146102ef57600080fd5b80633141e25b116100e75780633141e25b146101e15780634b77c468146102015780634e71d92d146102215780634f1ef2861461023657806352d1902d1461024957600080fd5b80631694505e146101245780632a75d5f4146101695780632e2ebe06146101975780632f48ab7d146101b957600080fd5b3661011f57005b600080fd5b34801561013057600080fd5b5061014c7310ed43c718714eb63d5aa57b78b54704e256024e81565b6040516001600160a01b0390911681526020015b60405180910390f35b34801561017557600080fd5b50610189610184366004611dcc565b6103ea565b604051908152602001610160565b3480156101a357600080fd5b506101b76101b2366004611dcc565b610448565b005b3480156101c557600080fd5b5061014c7355d398326f99059ff775485246999027b319795581565b3480156101ed57600080fd5b506101b76101fc366004611dfa565b610586565b34801561020d57600080fd5b506101b761021c366004611e45565b6105cd565b34801561022d57600080fd5b506101b7610703565b6101b7610244366004611e78565b6107c2565b34801561025557600080fd5b506101896107e1565b34801561026a57600080fd5b5061014c73ca143ce32fe78f1f7019d7d551a6402fc5350c7381565b34801561029257600080fd5b506101b76102a1366004611f3c565b6107fe565b3480156102b257600080fd5b506102c66102c1366004611e45565b610893565b604051610160989796959493929190611fe4565b3480156102e657600080fd5b506101b7610a85565b3480156102fb57600080fd5b5061018961030a366004611e45565b610a99565b34801561031b57600080fd5b507f9016d09d72d40fdae2fd8ceac6b6234c7706214fd39c1cd1e609a0528c199300546001600160a01b031661014c565b34801561035857600080fd5b5060055461014c906001600160a01b031681565b34801561037857600080fd5b5061039d604051806040016040528060058152602001640352e302e360dc1b81525081565b604051610160919061209e565b3480156103b657600080fd5b506101b76103c5366004611dfa565b610abd565b3480156103d657600080fd5b506101b76103e5366004611e45565b610c2c565b600354600090819081906104319073ca143ce32fe78f1f7019d7d551a6402fc5350c73906001600160a01b03167355d398326f99059ff775485246999027b3197955610c67565b91509150610440848383610d31565b949350505050565b610450610e12565b33600090815260016020526040902080546001600160a01b03166104bb5760405162461bcd60e51b815260206004820152601960248201527f4e4f545f4144445f4c49515549444954595f5045524d49542e0000000000000060448201526064015b60405180910390fd5b60006104c6836103ea565b60035490915060009081908190610500906001600160a01b03167355d398326f99059ff775485246999027b3197955888785803042610e3c565b92509250925061050f33610f5e565b8285600101600082825461052391906120e7565b925050819055508085600201600082825461053e91906120e7565b9091555061054f90508260026120fa565b85600301600082825461056291906120e7565b90915550610574905033848484610f91565b50505050506105836001600055565b50565b61058e61109e565b600380546001600160a01b039485166001600160a01b031991821617909155600480549385169382169390931790925560058054919093169116179055565b60006001600160a01b038216331415806105fd5750336000908152600160205260409020546001600160a01b0316155b90508061063d5760405162461bcd60e51b815260206004820152600e60248201526d22a92927a92fa4a72b24aa22a91760911b60448201526064016104b2565b6005546001600160a01b038381169116146106b4576001600160a01b038216600090815260016020819052604090912001546106b45760405162461bcd60e51b81526020600482015260166024820152752727aa2fa420a9afa4a72b24aa22afa822a926a4aa1760511b60448201526064016104b2565b5033600081815260016020818152604080842080546001600160a01b039097166001600160a01b0319978816811790915584528320600801805492830181558352909120018054909216179055565b600061070e33610a99565b1161074b5760405162461bcd60e51b815260206004820152600d60248201526c22a92927a92fa0a6a7aaa72a1760991b60448201526064016104b2565b61075433610f5e565b600061075f33610a99565b600454909150610779906001600160a01b031633836110f9565b50600061078533610a99565b33600090815260016020526040812060070180549091906107a79084906120e7565b90915550503360009081526001602052604081206005015550565b6107ca61120d565b6107d3826112b2565b6107dd82826112ba565b5050565b60006107eb61137c565b5060008051602061223283398151915290565b61080661109e565b6001600160a01b03821661081e576107dd81476113c5565b6040516370a0823160e01b81523060048201526107dd90839083906001600160a01b038316906370a0823190602401602060405180830381865afa15801561086a573d6000803e3d6000fd5b505050506040513d601f19601f8201168201806040525081019061088e9190612111565b6110f9565b6000806000806000806060806000600160008b6001600160a01b03166001600160a01b03168152602001908152602001600020604051806101400160405290816000820160009054906101000a90046001600160a01b03166001600160a01b03166001600160a01b0316815260200160018201548152602001600282015481526020016003820154815260200160048201548152602001600582015481526020016006820154815260200160078201548152602001600882018054806020026020016040519081016040528092919081815260200182805480156109a057602002820191906000526020600020905b81546001600160a01b03168152600190910190602001808311610982575b5050505050815260200160098201805480602002602001604051908101604052809291908181526020016000905b82821015610a355760008481526020908190206040805160a0810182526005860290920180546001600160a01b03168352600180820154848601526002820154928401929092526003810154606084015260040154608083015290835290920191016109ce565b5050505081525050905080600001519850806020015197508060400151965080606001519550806080015194508060e0015193508061010001519250806101200151915050919395975091939597565b610a8d61109e565b610a97600061148e565b565b6000670de0b6b3a7640000610aad836114ff565b610ab7919061212a565b92915050565b7ff0c57e16840df040f15088dc2f81fe391c3923bec73e23a9662efc9c229c6a008054600160401b810460ff16159067ffffffffffffffff16600081158015610b035750825b905060008267ffffffffffffffff166001148015610b205750303b155b905081158015610b2e575080155b15610b4c5760405163f92ee8a960e01b815260040160405180910390fd5b845467ffffffffffffffff191660011785558315610b7657845460ff60401b1916600160401b1785555b610b7f336115c6565b610b876115ce565b600380546001600160a01b03808b166001600160a01b031992831617909255600480548a84169083161790556005805492891692909116919091179055610bd962015180678ac7230489e8000061212a565b6002558315610c2257845460ff60401b19168555604051600181527fc7f505b2f371ae2175ee4913f4499e1f2633a7b5936321eed1cdaeb6115181d29060200160405180910390a15b5050505050505050565b610c3461109e565b6001600160a01b038116610c5e57604051631e4fbdf760e01b8152600060048201526024016104b2565b6105838161148e565b6000806000610c7685856115d6565b509050600080610c878888886116cd565b6001600160a01b0316630902f1ac6040518163ffffffff1660e01b8152600401606060405180830381865afa158015610cc4573d6000803e3d6000fd5b505050506040513d601f19601f82011682018060405250810190610ce89190612168565b506001600160701b031691506001600160701b03169150826001600160a01b0316876001600160a01b031614610d1f578082610d22565b81815b90999098509650505050505050565b6000808411610d905760405162461bcd60e51b815260206004820152602560248201527f556e697377617056324c6962726172793a20494e53554646494349454e545f416044820152641353d5539560da1b60648201526084016104b2565b600083118015610da05750600082115b610dfd5760405162461bcd60e51b815260206004820152602860248201527f556e697377617056324c6962726172793a20494e53554646494349454e545f4c604482015267495155494449545960c01b60648201526084016104b2565b82610e0885846117a5565b610440919061212a565b600260005403610e3557604051633ee5aeb560e01b815260040160405180910390fd5b6002600055565b60008060008342811015610e925760405162461bcd60e51b815260206004820152601860248201527f556e69737761705632526f757465723a2045585049524544000000000000000060448201526064016104b2565b610ea08c8c8c8c8c8c61180c565b90945092506000610ec673ca143ce32fe78f1f7019d7d551a6402fc5350c738e8e6116cd565b9050610ed48d338388611a84565b610ee08c338387611a84565b6040516335313c2160e11b81526001600160a01b038881166004830152821690636a627842906024016020604051808303816000875af1158015610f28573d6000803e3d6000fd5b505050506040513d601f19601f82011682018060405250810190610f4c9190612111565b92505050985098509895505050505050565b610f67816114ff565b6001600160a01b039091166000908152600160205260409020600581019190915542600690910155565b6001600160a01b03808516600090815260016020526040902054168015611097576001600160a01b038181166000908152600160208181526040808420815160a0810183528b871681528084018b81529281018a8152606082018a81524260808401908152600990940180548089018255908952959097209151600590950290910180546001600160a01b03191694909716939093178655905192850192909255516002840155905160038301555160049091015561104f81610f5e565b606461105c8560016120fa565b611066919061212a565b6001600160a01b038216600090815260016020526040812060040180549091906110919084906120e7565b90915550505b5050505050565b336110d07f9016d09d72d40fdae2fd8ceac6b6234c7706214fd39c1cd1e609a0528c199300546001600160a01b031690565b6001600160a01b031614610a975760405163118cdaa760e01b81523360048201526024016104b2565b604080516001600160a01b038481166024830152604480830185905283518084039091018152606490920183526020820180516001600160e01b031663a9059cbb60e01b179052915160009283929087169161115591906121ad565b6000604051808303816000865af19150503d8060008114611192576040519150601f19603f3d011682016040523d82523d6000602084013e611197565b606091505b50915091508180156111c15750805115806111c15750808060200190518101906111c191906121c9565b6110975760405162461bcd60e51b815260206004820152601f60248201527f5472616e7366657248656c7065723a205452414e534645525f4641494c45440060448201526064016104b2565b306001600160a01b037f000000000000000000000000000000000000000000000000000000000000000016148061129457507f00000000000000000000000000000000000000000000000000000000000000006001600160a01b0316611288600080516020612232833981519152546001600160a01b031690565b6001600160a01b031614155b15610a975760405163703e46dd60e11b815260040160405180910390fd5b61058361109e565b816001600160a01b03166352d1902d6040518163ffffffff1660e01b8152600401602060405180830381865afa925050508015611314575060408051601f3d908101601f1916820190925261131191810190612111565b60015b61133c57604051634c9c8ce360e01b81526001600160a01b03831660048201526024016104b2565b600080516020612232833981519152811461136d57604051632a87526960e21b8152600481018290526024016104b2565b6113778383611bb4565b505050565b306001600160a01b037f00000000000000000000000000000000000000000000000000000000000000001614610a975760405163703e46dd60e11b815260040160405180910390fd5b604080516000808252602082019092526001600160a01b0384169083906040516113ef91906121ad565b60006040518083038185875af1925050503d806000811461142c576040519150601f19603f3d011682016040523d82523d6000602084013e611431565b606091505b50509050806113775760405162461bcd60e51b815260206004820152602360248201527f5472616e7366657248656c7065723a204554485f5452414e534645525f46414960448201526213115160ea1b60648201526084016104b2565b7f9016d09d72d40fdae2fd8ceac6b6234c7706214fd39c1cd1e609a0528c19930080546001600160a01b031981166001600160a01b03848116918217845560405192169182907f8be0079c531659141344cd1fd0a4f28419497f9722a3daafe3b4186f6b6457e090600090a3505050565b6001600160a01b0381166000908152600160208190526040822060058101546002546004830154938301549293859361153891906120e7565b600685015461154790426121eb565b61155191906120fa565b61155b91906120fa565b61156591906120e7565b9050600082600701548360030154600361157f91906120fa565b61158991906121eb565b905061159d81670de0b6b3a76400006120fa565b82106115be576115b581670de0b6b3a76400006120fa565b95945050505050565b509392505050565b610c34611c0a565b610a97611c0a565b600080826001600160a01b0316846001600160a01b0316036116485760405162461bcd60e51b815260206004820152602560248201527f556e697377617056324c6962726172793a204944454e544943414c5f41444452604482015264455353455360d81b60648201526084016104b2565b826001600160a01b0316846001600160a01b03161061166857828461166b565b83835b90925090506001600160a01b0382166116c65760405162461bcd60e51b815260206004820152601e60248201527f556e697377617056324c6962726172793a205a45524f5f41444452455353000060448201526064016104b2565b9250929050565b60008060006116dc85856115d6565b6040516bffffffffffffffffffffffff19606084811b8216602084015283901b16603482015291935091508690604801604051602081830303815290604052805190602001206040516020016117839291906001600160f81b0319815260609290921b6bffffffffffffffffffffffff1916600183015260158201527efb7f630766e6a796048ea87d01acd3068e8ff67d078148a3fa3f4a84f69bd5603582015260550190565b60408051601f1981840301815291905280516020909101209695505050505050565b60008115806117c9575082826117bb81836120fa565b92506117c7908361212a565b145b610ab75760405162461bcd60e51b815260206004820152601460248201527364732d6d6174682d6d756c2d6f766572666c6f7760601b60448201526064016104b2565b60405163e6a4390560e01b81526001600160a01b038088166004830152861660248201526000908190819073ca143ce32fe78f1f7019d7d551a6402fc5350c739063e6a4390590604401602060405180830381865afa158015611873573d6000803e3d6000fd5b505050506040513d601f19601f8201168201806040525081019061189791906121fe565b6001600160a01b03160361192d576040516364e329cb60e11b81526001600160a01b03808a1660048301528816602482015273ca143ce32fe78f1f7019d7d551a6402fc5350c739063c9c65396906044016020604051808303816000875af1158015611907573d6000803e3d6000fd5b505050506040513d601f19601f8201168201806040525081019061192b91906121fe565b505b60008061194f73ca143ce32fe78f1f7019d7d551a6402fc5350c738b8b610c67565b91509150816000148015611961575080155b1561197157879350869250611a77565b600061197e898484610d31565b90508781116119f157858110156119e65760405162461bcd60e51b815260206004820152602660248201527f556e69737761705632526f757465723a20494e53554646494349454e545f425f604482015265105353d5539560d21b60648201526084016104b2565b889450925082611a75565b60006119fe898486610d31565b905089811115611a1057611a1061221b565b87811015611a6f5760405162461bcd60e51b815260206004820152602660248201527f556e69737761705632526f757465723a20494e53554646494349454e545f415f604482015265105353d5539560d21b60648201526084016104b2565b94508793505b505b5050965096945050505050565b604080516001600160a01b0385811660248301528481166044830152606480830185905283518084039091018152608490920183526020820180516001600160e01b03166323b872dd60e01b1790529151600092839290881691611ae891906121ad565b6000604051808303816000865af19150503d8060008114611b25576040519150601f19603f3d011682016040523d82523d6000602084013e611b2a565b606091505b5091509150818015611b54575080511580611b54575080806020019051810190611b5491906121c9565b611bac5760405162461bcd60e51b8152602060048201526024808201527f5472616e7366657248656c7065723a205452414e534645525f46524f4d5f46416044820152631253115160e21b60648201526084016104b2565b505050505050565b611bbd82611c53565b6040516001600160a01b038316907fbc7cd75a20ee27fd9adebab32041f755214dbc6bffa90cc0225b39da2e5c2d3b90600090a2805115611c02576113778282611cb8565b6107dd611d25565b7ff0c57e16840df040f15088dc2f81fe391c3923bec73e23a9662efc9c229c6a0054600160401b900460ff16610a9757604051631afcd79f60e31b815260040160405180910390fd5b806001600160a01b03163b600003611c8957604051634c9c8ce360e01b81526001600160a01b03821660048201526024016104b2565b60008051602061223283398151915280546001600160a01b0319166001600160a01b0392909216919091179055565b6060600080846001600160a01b031684604051611cd591906121ad565b600060405180830381855af49150503d8060008114611d10576040519150601f19603f3d011682016040523d82523d6000602084013e611d15565b606091505b50915091506115b5858383611d44565b3415610a975760405163b398979f60e01b815260040160405180910390fd5b606082611d5957611d5482611da3565b611d9c565b8151158015611d7057506001600160a01b0384163b155b15611d9957604051639996b31560e01b81526001600160a01b03851660048201526024016104b2565b50805b9392505050565b805115611db35780518082602001fd5b604051630a12f52160e11b815260040160405180910390fd5b600060208284031215611dde57600080fd5b5035919050565b6001600160a01b038116811461058357600080fd5b600080600060608486031215611e0f57600080fd5b8335611e1a81611de5565b92506020840135611e2a81611de5565b91506040840135611e3a81611de5565b809150509250925092565b600060208284031215611e5757600080fd5b8135611d9c81611de5565b634e487b7160e01b600052604160045260246000fd5b60008060408385031215611e8b57600080fd5b8235611e9681611de5565b9150602083013567ffffffffffffffff80821115611eb357600080fd5b818501915085601f830112611ec757600080fd5b813581811115611ed957611ed9611e62565b604051601f8201601f19908116603f01168101908382118183101715611f0157611f01611e62565b81604052828152886020848701011115611f1a57600080fd5b8260208601602083013760006020848301015280955050505050509250929050565b60008060408385031215611f4f57600080fd5b8235611f5a81611de5565b91506020830135611f6a81611de5565b809150509250929050565b60008151808452602080850194506020840160005b83811015611fd957815180516001600160a01b03168852838101518489015260408082015190890152606080820151908901526080908101519088015260a09096019590820190600101611f8a565b509495945050505050565b6001600160a01b03898116825260208083018a905260408301899052606083018890526080830187905260a0830186905261010060c08401819052855190840181905260009261012085019287810192855b81811015612054578451841686529482019493820193600101612036565b505050505082810360e084015261206b8185611f75565b9b9a5050505050505050505050565b60005b8381101561209557818101518382015260200161207d565b50506000910152565b60208152600082518060208401526120bd81604085016020870161207a565b601f01601f19169190910160400192915050565b634e487b7160e01b600052601160045260246000fd5b80820180821115610ab757610ab76120d1565b8082028115828204841417610ab757610ab76120d1565b60006020828403121561212357600080fd5b5051919050565b60008261214757634e487b7160e01b600052601260045260246000fd5b500490565b80516001600160701b038116811461216357600080fd5b919050565b60008060006060848603121561217d57600080fd5b6121868461214c565b92506121946020850161214c565b9150604084015163ffffffff81168114611e3a57600080fd5b600082516121bf81846020870161207a565b9190910192915050565b6000602082840312156121db57600080fd5b81518015158114611d9c57600080fd5b81810381811115610ab757610ab76120d1565b60006020828403121561221057600080fd5b8151611d9c81611de5565b634e487b7160e01b600052600160045260246000fdfe360894a13ba1a3210667c828492db98dca3e2076cc3735a920a3ca505d382bbca26469706673582212209f1c1bd74545de09e9516362a22da7c92afbf1931c28ce0bb98edb1bfc84bc8064736f6c63430008180033","linkReferences":{}},"methodIdentifiers":{"UPGRADE_INTERFACE_VERSION()":"ad3cb1cc","claim()":"4e71d92d","emergencyWithdraw(address,address)":"6382d9ad","getQuoteAmount(uint256)":"2a75d5f4","getUserIncome(address)":"7f081b16","getUserInfo(address)":"6386c1c7","initialize(address,address,address)":"c0c53b8b","invite(address)":"4b77c468","owner()":"8da5cb5b","prefixCode()":"a99e393e","provide(uint256)":"2e2ebe06","proxiableUUID()":"52d1902d","renounceOwnership()":"715018a6","setConfig(address,address,address)":"3141e25b","transferOwnership(address)":"f2fde38b","uniswapV2Factory()":"59d0f713","uniswapV2Router()":"1694505e","upgradeToAndCall(address,bytes)":"4f1ef286","usdt()":"2f48ab7d"},"id":34}