{"abi":[{"type":"receive","stateMutability":"payable"},{"type":"function","name":"UPGRADE_INTERFACE_VERSION","inputs":[],"outputs":[{"name":"","type":"string","internalType":"string"}],"stateMutability":"view"},{"type":"function","name":"claim","inputs":[],"outputs":[],"stateMutability":"nonpayable"},{"type":"function","name":"emergencyWithdraw","inputs":[{"name":"_token","type":"address","internalType":"address"},{"name":"_to","type":"address","internalType":"address"}],"outputs":[],"stateMutability":"nonpayable"},{"type":"function","name":"getQuoteAmount","inputs":[{"name":"amountToken","type":"uint256","internalType":"uint256"}],"outputs":[{"name":"amountUsdt","type":"uint256","internalType":"uint256"}],"stateMutability":"view"},{"type":"function","name":"getUserIncome","inputs":[{"name":"member","type":"address","internalType":"address"}],"outputs":[{"name":"","type":"uint256","internalType":"uint256"}],"stateMutability":"view"},{"type":"function","name":"getUserInfo","inputs":[{"name":"member","type":"address","internalType":"address"}],"outputs":[{"name":"inviter","type":"address","internalType":"address"},{"name":"staking","type":"uint256","internalType":"uint256"},{"name":"value","type":"uint256","internalType":"uint256"},{"name":"dynamic","type":"uint256","internalType":"uint256"},{"name":"extracted","type":"uint256","internalType":"uint256"},{"name":"members","type":"address[]","internalType":"address[]"},{"name":"records","type":"tuple[]","internalType":"struct Liquidity.Record[]","components":[{"name":"members","type":"address","internalType":"address"},{"name":"amountToken","type":"uint256","internalType":"uint256"},{"name":"amountUsdt","type":"uint256","internalType":"uint256"},{"name":"liquidity","type":"uint256","internalType":"uint256"},{"name":"time","type":"uint256","internalType":"uint256"}]}],"stateMutability":"view"},{"type":"function","name":"initialize","inputs":[{"name":"_token","type":"address","internalType":"address"},{"name":"_subToken","type":"address","internalType":"address"},{"name":"_prefixCode","type":"address","internalType":"address"}],"outputs":[],"stateMutability":"nonpayable"},{"type":"function","name":"invite","inputs":[{"name":"_inviter","type":"address","internalType":"address"}],"outputs":[],"stateMutability":"nonpayable"},{"type":"function","name":"owner","inputs":[],"outputs":[{"name":"","type":"address","internalType":"address"}],"stateMutability":"view"},{"type":"function","name":"prefixCode","inputs":[],"outputs":[{"name":"","type":"address","internalType":"address"}],"stateMutability":"view"},{"type":"function","name":"provide","inputs":[{"name":"amountToken","type":"uint256","internalType":"uint256"}],"outputs":[],"stateMutability":"nonpayable"},{"type":"function","name":"proxiableUUID","inputs":[],"outputs":[{"name":"","type":"bytes32","internalType":"bytes32"}],"stateMutability":"view"},{"type":"function","name":"renounceOwnership","inputs":[],"outputs":[],"stateMutability":"nonpayable"},{"type":"function","name":"setConfig","inputs":[{"name":"_token","type":"address","internalType":"address"},{"name":"_subToken","type":"address","internalType":"address"},{"name":"_prefixCode","type":"address","internalType":"address"}],"outputs":[],"stateMutability":"nonpayable"},{"type":"function","name":"transferOwnership","inputs":[{"name":"newOwner","type":"address","internalType":"address"}],"outputs":[],"stateMutability":"nonpayable"},{"type":"function","name":"uniswapV2Factory","inputs":[],"outputs":[{"name":"","type":"address","internalType":"address"}],"stateMutability":"view"},{"type":"function","name":"uniswapV2Router","inputs":[],"outputs":[{"name":"","type":"address","internalType":"address"}],"stateMutability":"view"},{"type":"function","name":"upgradeToAndCall","inputs":[{"name":"newImplementation","type":"address","internalType":"address"},{"name":"data","type":"bytes","internalType":"bytes"}],"outputs":[],"stateMutability":"payable"},{"type":"function","name":"usdt","inputs":[],"outputs":[{"name":"","type":"address","internalType":"address"}],"stateMutability":"view"},{"type":"event","name":"Initialized","inputs":[{"name":"version","type":"uint64","indexed":false,"internalType":"uint64"}],"anonymous":false},{"type":"event","name":"OwnershipTransferred","inputs":[{"name":"previousOwner","type":"address","indexed":true,"internalType":"address"},{"name":"newOwner","type":"address","indexed":true,"internalType":"address"}],"anonymous":false},{"type":"event","name":"Upgraded","inputs":[{"name":"implementation","type":"address","indexed":true,"internalType":"address"}],"anonymous":false},{"type":"error","name":"AddressEmptyCode","inputs":[{"name":"target","type":"address","internalType":"address"}]},{"type":"error","name":"ERC1967InvalidImplementation","inputs":[{"name":"implementation","type":"address","internalType":"address"}]},{"type":"error","name":"ERC1967NonPayable","inputs":[]},{"type":"error","name":"FailedInnerCall","inputs":[]},{"type":"error","name":"InvalidInitialization","inputs":[]},{"type":"error","name":"NotInitializing","inputs":[]},{"type":"error","name":"OwnableInvalidOwner","inputs":[{"name":"owner","type":"address","internalType":"address"}]},{"type":"error","name":"OwnableUnauthorizedAccount","inputs":[{"name":"account","type":"address","internalType":"address"}]},{"type":"error","name":"ReentrancyGuardReentrantCall","inputs":[]},{"type":"error","name":"UUPSUnauthorizedCallContext","inputs":[]},{"type":"error","name":"UUPSUnsupportedProxiableUUID","inputs":[{"name":"slot","type":"bytes32","internalType":"bytes32"}]}],"bytecode":{"object":"0x60a06040523060805234801561001457600080fd5b5060016000556080516120f961004360003960008181611094015281816110bd015261120301526120f96000f3fe6080604052600436106101185760003560e01c806359d0f713116100a05780638da5cb5b116100645780638da5cb5b1461030e578063a99e393e1461034b578063ad3cb1cc1461036b578063c0c53b8b146103a9578063f2fde38b146103c957600080fd5b806359d0f7131461025e5780636382d9ad146102865780636386c1c7146102a6578063715018a6146102d95780637f081b16146102ee57600080fd5b80633141e25b116100e75780633141e25b146101e15780634b77c468146102015780634e71d92d146102215780634f1ef2861461023657806352d1902d1461024957600080fd5b80631694505e146101245780632a75d5f4146101695780632e2ebe06146101975780632f48ab7d146101b957600080fd5b3661011f57005b600080fd5b34801561013057600080fd5b5061014c7310ed43c718714eb63d5aa57b78b54704e256024e81565b6040516001600160a01b0390911681526020015b60405180910390f35b34801561017557600080fd5b50610189610184366004611c48565b6103e9565b604051908152602001610160565b3480156101a357600080fd5b506101b76101b2366004611c48565b610447565b005b3480156101c557600080fd5b5061014c7355d398326f99059ff775485246999027b319795581565b3480156101ed57600080fd5b506101b76101fc366004611c76565b61055a565b34801561020d57600080fd5b506101b761021c366004611cc1565b6105a1565b34801561022d57600080fd5b506101b76106d7565b6101b7610244366004611cf4565b610796565b34801561025557600080fd5b506101896107b5565b34801561026a57600080fd5b5061014c73ca143ce32fe78f1f7019d7d551a6402fc5350c7381565b34801561029257600080fd5b506101b76102a1366004611db8565b6107d2565b3480156102b257600080fd5b506102c66102c1366004611cc1565b610867565b6040516101609796959493929190611e60565b3480156102e557600080fd5b506101b7610a07565b3480156102fa57600080fd5b50610189610309366004611cc1565b610a1b565b34801561031a57600080fd5b507f9016d09d72d40fdae2fd8ceac6b6234c7706214fd39c1cd1e609a0528c199300546001600160a01b031661014c565b34801561035757600080fd5b5060055461014c906001600160a01b031681565b34801561037757600080fd5b5061039c604051806040016040528060058152602001640352e302e360dc1b81525081565b6040516101609190611f10565b3480156103b557600080fd5b506101b76103c4366004611c76565b610a3f565b3480156103d557600080fd5b506101b76103e4366004611cc1565b610bae565b600354600090819081906104309073ca143ce32fe78f1f7019d7d551a6402fc5350c73906001600160a01b03167355d398326f99059ff775485246999027b3197955610be9565b9150915061043f848383610cb3565b949350505050565b61044f610d94565b33600090815260016020526040902080546001600160a01b03166104ba5760405162461bcd60e51b815260206004820152601960248201527f4e4f545f4144445f4c49515549444954595f5045524d49542e0000000000000060448201526064015b60405180910390fd5b60006104c5836103e9565b60035490915060009081906104fd906001600160a01b03167355d398326f99059ff775485246999027b3197955878685803042610dbe565b925092505061050b33610ee0565b8084600101600082825461051f9190611f59565b909155506105309050826002611f6c565b8460020160008282546105439190611f59565b909155505060016000555061055792505050565b50565b610562610f13565b600380546001600160a01b039485166001600160a01b031991821617909155600480549385169382169390931790925560058054919093169116179055565b60006001600160a01b038216331415806105d15750336000908152600160205260409020546001600160a01b0316155b9050806106115760405162461bcd60e51b815260206004820152600e60248201526d22a92927a92fa4a72b24aa22a91760911b60448201526064016104b1565b6005546001600160a01b03838116911614610688576001600160a01b038216600090815260016020819052604090912001546106885760405162461bcd60e51b81526020600482015260166024820152752727aa2fa420a9afa4a72b24aa22afa822a926a4aa1760511b60448201526064016104b1565b5033600081815260016020818152604080842080546001600160a01b039097166001600160a01b0319978816811790915584528320600701805492830181558352909120018054909216179055565b60006106e233610a1b565b1161071f5760405162461bcd60e51b815260206004820152600d60248201526c22a92927a92fa0a6a7aaa72a1760991b60448201526064016104b1565b61072833610ee0565b600061073333610a1b565b60045490915061074d906001600160a01b03163383610f6e565b50600061075933610a1b565b336000908152600160205260408120600601805490919061077b908490611f59565b90915550503360009081526001602052604081206004015550565b61079e611089565b6107a78261112e565b6107b18282611136565b5050565b60006107bf6111f8565b506000805160206120a483398151915290565b6107da610f13565b6001600160a01b0382166107f2576107b18147611241565b6040516370a0823160e01b81523060048201526107b190839083906001600160a01b038316906370a0823190602401602060405180830381865afa15801561083e573d6000803e3d6000fd5b505050506040513d601f19601f820116820180604052508101906108629190611f83565b610f6e565b6001600160a01b038082166000908152600160208181526040808420815161012081018352815490961686529283015485830152600283015485820152600383015460608681019190915260048401546080870152600584015460a0870152600684015460c087015260078401805483518186028101860190945280845295968796879687968796869588959460e086019383018282801561093257602002820191906000526020600020905b81546001600160a01b03168152600190910190602001808311610914575b5050505050815260200160088201805480602002602001604051908101604052809291908181526020016000905b828210156109c75760008481526020908190206040805160a0810182526005860290920180546001600160a01b0316835260018082015484860152600282015492840192909252600381015460608401526004015460808301529083529092019101610960565b50505091525050805160208201516040830151606084015160c085015160e086015161010090960151949f939e50919c509a509850919650945092505050565b610a0f610f13565b610a19600061130a565b565b6000670de0b6b3a7640000610a2f8361137b565b610a399190611f9c565b92915050565b7ff0c57e16840df040f15088dc2f81fe391c3923bec73e23a9662efc9c229c6a008054600160401b810460ff16159067ffffffffffffffff16600081158015610a855750825b905060008267ffffffffffffffff166001148015610aa25750303b155b905081158015610ab0575080155b15610ace5760405163f92ee8a960e01b815260040160405180910390fd5b845467ffffffffffffffff191660011785558315610af857845460ff60401b1916600160401b1785555b610b0133611442565b610b0961144a565b600380546001600160a01b03808b166001600160a01b031992831617909255600480548a84169083161790556005805492891692909116919091179055610b5b62015180678ac7230489e80000611f9c565b6002558315610ba457845460ff60401b19168555604051600181527fc7f505b2f371ae2175ee4913f4499e1f2633a7b5936321eed1cdaeb6115181d29060200160405180910390a15b5050505050505050565b610bb6610f13565b6001600160a01b038116610be057604051631e4fbdf760e01b8152600060048201526024016104b1565b6105578161130a565b6000806000610bf88585611452565b509050600080610c09888888611549565b6001600160a01b0316630902f1ac6040518163ffffffff1660e01b8152600401606060405180830381865afa158015610c46573d6000803e3d6000fd5b505050506040513d601f19601f82011682018060405250810190610c6a9190611fda565b506001600160701b031691506001600160701b03169150826001600160a01b0316876001600160a01b031614610ca1578082610ca4565b81815b90999098509650505050505050565b6000808411610d125760405162461bcd60e51b815260206004820152602560248201527f556e697377617056324c6962726172793a20494e53554646494349454e545f416044820152641353d5539560da1b60648201526084016104b1565b600083118015610d225750600082115b610d7f5760405162461bcd60e51b815260206004820152602860248201527f556e697377617056324c6962726172793a20494e53554646494349454e545f4c604482015267495155494449545960c01b60648201526084016104b1565b82610d8a8584611621565b61043f9190611f9c565b600260005403610db757604051633ee5aeb560e01b815260040160405180910390fd5b6002600055565b60008060008342811015610e145760405162461bcd60e51b815260206004820152601860248201527f556e69737761705632526f757465723a2045585049524544000000000000000060448201526064016104b1565b610e228c8c8c8c8c8c611688565b90945092506000610e4873ca143ce32fe78f1f7019d7d551a6402fc5350c738e8e611549565b9050610e568d338388611900565b610e628c338387611900565b6040516335313c2160e11b81526001600160a01b038881166004830152821690636a627842906024016020604051808303816000875af1158015610eaa573d6000803e3d6000fd5b505050506040513d601f19601f82011682018060405250810190610ece9190611f83565b92505050985098509895505050505050565b610ee98161137b565b6001600160a01b039091166000908152600160205260409020600481019190915542600590910155565b33610f457f9016d09d72d40fdae2fd8ceac6b6234c7706214fd39c1cd1e609a0528c199300546001600160a01b031690565b6001600160a01b031614610a195760405163118cdaa760e01b81523360048201526024016104b1565b604080516001600160a01b038481166024830152604480830185905283518084039091018152606490920183526020820180516001600160e01b031663a9059cbb60e01b1790529151600092839290871691610fca919061201f565b6000604051808303816000865af19150503d8060008114611007576040519150601f19603f3d011682016040523d82523d6000602084013e61100c565b606091505b5091509150818015611036575080511580611036575080806020019051810190611036919061203b565b6110825760405162461bcd60e51b815260206004820152601f60248201527f5472616e7366657248656c7065723a205452414e534645525f4641494c45440060448201526064016104b1565b5050505050565b306001600160a01b037f000000000000000000000000000000000000000000000000000000000000000016148061111057507f00000000000000000000000000000000000000000000000000000000000000006001600160a01b03166111046000805160206120a4833981519152546001600160a01b031690565b6001600160a01b031614155b15610a195760405163703e46dd60e11b815260040160405180910390fd5b610557610f13565b816001600160a01b03166352d1902d6040518163ffffffff1660e01b8152600401602060405180830381865afa925050508015611190575060408051601f3d908101601f1916820190925261118d91810190611f83565b60015b6111b857604051634c9c8ce360e01b81526001600160a01b03831660048201526024016104b1565b6000805160206120a483398151915281146111e957604051632a87526960e21b8152600481018290526024016104b1565b6111f38383611a30565b505050565b306001600160a01b037f00000000000000000000000000000000000000000000000000000000000000001614610a195760405163703e46dd60e11b815260040160405180910390fd5b604080516000808252602082019092526001600160a01b03841690839060405161126b919061201f565b60006040518083038185875af1925050503d80600081146112a8576040519150601f19603f3d011682016040523d82523d6000602084013e6112ad565b606091505b50509050806111f35760405162461bcd60e51b815260206004820152602360248201527f5472616e7366657248656c7065723a204554485f5452414e534645525f46414960448201526213115160ea1b60648201526084016104b1565b7f9016d09d72d40fdae2fd8ceac6b6234c7706214fd39c1cd1e609a0528c19930080546001600160a01b031981166001600160a01b03848116918217845560405192169182907f8be0079c531659141344cd1fd0a4f28419497f9722a3daafe3b4186f6b6457e090600090a3505050565b6001600160a01b038116600090815260016020819052604082206004810154600254600383015493830154929385936113b49190611f59565b60058501546113c3904261205d565b6113cd9190611f6c565b6113d79190611f6c565b6113e19190611f59565b905060008260060154836002015460036113fb9190611f6c565b611405919061205d565b905061141981670de0b6b3a7640000611f6c565b821061143a5761143181670de0b6b3a7640000611f6c565b95945050505050565b509392505050565b610bb6611a86565b610a19611a86565b600080826001600160a01b0316846001600160a01b0316036114c45760405162461bcd60e51b815260206004820152602560248201527f556e697377617056324c6962726172793a204944454e544943414c5f41444452604482015264455353455360d81b60648201526084016104b1565b826001600160a01b0316846001600160a01b0316106114e45782846114e7565b83835b90925090506001600160a01b0382166115425760405162461bcd60e51b815260206004820152601e60248201527f556e697377617056324c6962726172793a205a45524f5f41444452455353000060448201526064016104b1565b9250929050565b60008060006115588585611452565b6040516bffffffffffffffffffffffff19606084811b8216602084015283901b16603482015291935091508690604801604051602081830303815290604052805190602001206040516020016115ff9291906001600160f81b0319815260609290921b6bffffffffffffffffffffffff1916600183015260158201527efb7f630766e6a796048ea87d01acd3068e8ff67d078148a3fa3f4a84f69bd5603582015260550190565b60408051601f1981840301815291905280516020909101209695505050505050565b6000811580611645575082826116378183611f6c565b92506116439083611f9c565b145b610a395760405162461bcd60e51b815260206004820152601460248201527364732d6d6174682d6d756c2d6f766572666c6f7760601b60448201526064016104b1565b60405163e6a4390560e01b81526001600160a01b038088166004830152861660248201526000908190819073ca143ce32fe78f1f7019d7d551a6402fc5350c739063e6a4390590604401602060405180830381865afa1580156116ef573d6000803e3d6000fd5b505050506040513d601f19601f820116820180604052508101906117139190612070565b6001600160a01b0316036117a9576040516364e329cb60e11b81526001600160a01b03808a1660048301528816602482015273ca143ce32fe78f1f7019d7d551a6402fc5350c739063c9c65396906044016020604051808303816000875af1158015611783573d6000803e3d6000fd5b505050506040513d601f19601f820116820180604052508101906117a79190612070565b505b6000806117cb73ca143ce32fe78f1f7019d7d551a6402fc5350c738b8b610be9565b915091508160001480156117dd575080155b156117ed578793508692506118f3565b60006117fa898484610cb3565b905087811161186d57858110156118625760405162461bcd60e51b815260206004820152602660248201527f556e69737761705632526f757465723a20494e53554646494349454e545f425f604482015265105353d5539560d21b60648201526084016104b1565b8894509250826118f1565b600061187a898486610cb3565b90508981111561188c5761188c61208d565b878110156118eb5760405162461bcd60e51b815260206004820152602660248201527f556e69737761705632526f757465723a20494e53554646494349454e545f415f604482015265105353d5539560d21b60648201526084016104b1565b94508793505b505b5050965096945050505050565b604080516001600160a01b0385811660248301528481166044830152606480830185905283518084039091018152608490920183526020820180516001600160e01b03166323b872dd60e01b1790529151600092839290881691611964919061201f565b6000604051808303816000865af19150503d80600081146119a1576040519150601f19603f3d011682016040523d82523d6000602084013e6119a6565b606091505b50915091508180156119d05750805115806119d05750808060200190518101906119d0919061203b565b611a285760405162461bcd60e51b8152602060048201526024808201527f5472616e7366657248656c7065723a205452414e534645525f46524f4d5f46416044820152631253115160e21b60648201526084016104b1565b505050505050565b611a3982611acf565b6040516001600160a01b038316907fbc7cd75a20ee27fd9adebab32041f755214dbc6bffa90cc0225b39da2e5c2d3b90600090a2805115611a7e576111f38282611b34565b6107b1611ba1565b7ff0c57e16840df040f15088dc2f81fe391c3923bec73e23a9662efc9c229c6a0054600160401b900460ff16610a1957604051631afcd79f60e31b815260040160405180910390fd5b806001600160a01b03163b600003611b0557604051634c9c8ce360e01b81526001600160a01b03821660048201526024016104b1565b6000805160206120a483398151915280546001600160a01b0319166001600160a01b0392909216919091179055565b6060600080846001600160a01b031684604051611b51919061201f565b600060405180830381855af49150503d8060008114611b8c576040519150601f19603f3d011682016040523d82523d6000602084013e611b91565b606091505b5091509150611431858383611bc0565b3415610a195760405163b398979f60e01b815260040160405180910390fd5b606082611bd557611bd082611c1f565b611c18565b8151158015611bec57506001600160a01b0384163b155b15611c1557604051639996b31560e01b81526001600160a01b03851660048201526024016104b1565b50805b9392505050565b805115611c2f5780518082602001fd5b604051630a12f52160e11b815260040160405180910390fd5b600060208284031215611c5a57600080fd5b5035919050565b6001600160a01b038116811461055757600080fd5b600080600060608486031215611c8b57600080fd5b8335611c9681611c61565b92506020840135611ca681611c61565b91506040840135611cb681611c61565b809150509250925092565b600060208284031215611cd357600080fd5b8135611c1881611c61565b634e487b7160e01b600052604160045260246000fd5b60008060408385031215611d0757600080fd5b8235611d1281611c61565b9150602083013567ffffffffffffffff80821115611d2f57600080fd5b818501915085601f830112611d4357600080fd5b813581811115611d5557611d55611cde565b604051601f8201601f19908116603f01168101908382118183101715611d7d57611d7d611cde565b81604052828152886020848701011115611d9657600080fd5b8260208601602083013760006020848301015280955050505050509250929050565b60008060408385031215611dcb57600080fd5b8235611dd681611c61565b91506020830135611de681611c61565b809150509250929050565b60008151808452602080850194506020840160005b83811015611e5557815180516001600160a01b03168852838101518489015260408082015190890152606080820151908901526080908101519088015260a09096019590820190600101611e06565b509495945050505050565b600060e0820160018060a01b03808b16845260208a602086015289604086015288606086015287608086015260e060a08601528287518085526101008701915060208901945060005b81811015611ec7578551851683529483019491830191600101611ea9565b505085810360c0870152611edb8188611df1565b9d9c50505050505050505050505050565b60005b83811015611f07578181015183820152602001611eef565b50506000910152565b6020815260008251806020840152611f2f816040850160208701611eec565b601f01601f19169190910160400192915050565b634e487b7160e01b600052601160045260246000fd5b80820180821115610a3957610a39611f43565b8082028115828204841417610a3957610a39611f43565b600060208284031215611f9557600080fd5b5051919050565b600082611fb957634e487b7160e01b600052601260045260246000fd5b500490565b80516001600160701b0381168114611fd557600080fd5b919050565b600080600060608486031215611fef57600080fd5b611ff884611fbe565b925061200660208501611fbe565b9150604084015163ffffffff81168114611cb657600080fd5b60008251612031818460208701611eec565b9190910192915050565b60006020828403121561204d57600080fd5b81518015158114611c1857600080fd5b81810381811115610a3957610a39611f43565b60006020828403121561208257600080fd5b8151611c1881611c61565b634e487b7160e01b600052600160045260246000fdfe360894a13ba1a3210667c828492db98dca3e2076cc3735a920a3ca505d382bbca26469706673582212200a4ae79f100325bd83f8865f1d4986d09b7f797a50b88a19a195868f7587b33864736f6c63430008180033","linkReferences":{}},"methodIdentifiers":{"UPGRADE_INTERFACE_VERSION()":"ad3cb1cc","claim()":"4e71d92d","emergencyWithdraw(address,address)":"6382d9ad","getQuoteAmount(uint256)":"2a75d5f4","getUserIncome(address)":"7f081b16","getUserInfo(address)":"6386c1c7","initialize(address,address,address)":"c0c53b8b","invite(address)":"4b77c468","owner()":"8da5cb5b","prefixCode()":"a99e393e","provide(uint256)":"2e2ebe06","proxiableUUID()":"52d1902d","renounceOwnership()":"715018a6","setConfig(address,address,address)":"3141e25b","transferOwnership(address)":"f2fde38b","uniswapV2Factory()":"59d0f713","uniswapV2Router()":"1694505e","upgradeToAndCall(address,bytes)":"4f1ef286","usdt()":"2f48ab7d"},"id":36}