{"abi":[{"type":"constructor","inputs":[],"stateMutability":"nonpayable"},{"type":"fallback","stateMutability":"payable"},{"type":"receive","stateMutability":"payable"},{"type":"function","name":"_updateAdmin","inputs":[{"name":"_admin","type":"address","internalType":"address"}],"outputs":[],"stateMutability":"nonpayable"},{"type":"function","name":"admin","inputs":[],"outputs":[{"name":"","type":"address","internalType":"address"}],"stateMutability":"view"},{"type":"function","name":"implementation","inputs":[],"outputs":[{"name":"","type":"address","internalType":"address"}],"stateMutability":"view"},{"type":"function","name":"setImplementation","inputs":[{"name":"newImplementation","type":"address","internalType":"address"}],"outputs":[],"stateMutability":"nonpayable"}],"bytecode":{"object":"0x608060405234801561001057600080fd5b50600080546001600160a01b031916331790556102ce806100326000396000f3fe6080604052600436106100435760003560e01c80635c60da1b146100c7578063bc17439114610103578063d784d42614610123578063f851a440146101435761004a565b3661004a57005b6001546040516000916001600160a01b03169061006a9083903690610258565b600060405180830381855af49150503d80600081146100a5576040519150601f19603f3d011682016040523d82523d6000602084013e6100aa565b606091505b505090506040513d6000823e8180156100c1573d82f35b3d82fd5b005b3480156100d357600080fd5b506001546100e7906001600160a01b031681565b6040516001600160a01b03909116815260200160405180910390f35b34801561010f57600080fd5b506100c561011e366004610268565b610163565b34801561012f57600080fd5b506100c561013e366004610268565b6101e0565b34801561014f57600080fd5b506000546100e7906001600160a01b031681565b6000546001600160a01b031633146101be5760405162461bcd60e51b8152602060048201526019602482015278283937bc3c9d21b0b63632b91034b9903737ba1037bbb732b960391b60448201526064015b60405180910390fd5b600080546001600160a01b0319166001600160a01b0392909216919091179055565b6000546001600160a01b031633146102365760405162461bcd60e51b8152602060048201526019602482015278283937bc3c9d21b0b63632b91034b9903737ba1037bbb732b960391b60448201526064016101b5565b600180546001600160a01b0319166001600160a01b0392909216919091179055565b8183823760009101908152919050565b60006020828403121561027a57600080fd5b81356001600160a01b038116811461029157600080fd5b939250505056fea2646970667358221220c0ae129cb113bcd588c3f87c7b0cf851c277d02822a48c121a33c5228b6cb7a064736f6c63430008180033","linkReferences":{}},"methodIdentifiers":{"_updateAdmin(address)":"bc174391","admin()":"f851a440","implementation()":"5c60da1b","setImplementation(address)":"d784d426"},"id":33}