{"abi":[{"type":"constructor","inputs":[],"stateMutability":"nonpayable"},{"type":"receive","stateMutability":"payable"},{"type":"function","name":"_getUserIncome","inputs":[{"name":"_member","type":"address","internalType":"address"}],"outputs":[{"name":"","type":"uint256","internalType":"uint256"}],"stateMutability":"view"},{"type":"function","name":"admin","inputs":[],"outputs":[{"name":"","type":"address","internalType":"address"}],"stateMutability":"view"},{"type":"function","name":"awardToken","inputs":[],"outputs":[{"name":"","type":"address","internalType":"address"}],"stateMutability":"view"},{"type":"function","name":"claim","inputs":[],"outputs":[],"stateMutability":"nonpayable"},{"type":"function","name":"fees","inputs":[],"outputs":[{"name":"","type":"uint256","internalType":"uint256"}],"stateMutability":"view"},{"type":"function","name":"getAmountOut","inputs":[{"name":"tokenIn","type":"address","internalType":"address"},{"name":"tokenOut","type":"address","internalType":"address"},{"name":"amountIn","type":"uint256","internalType":"uint256"}],"outputs":[{"name":"amountOut","type":"uint256","internalType":"uint256"}],"stateMutability":"view"},{"type":"function","name":"getUserIncome","inputs":[{"name":"_member","type":"address","internalType":"address"}],"outputs":[{"name":"","type":"uint256","internalType":"uint256"}],"stateMutability":"view"},{"type":"function","name":"getUserInfo","inputs":[{"name":"member","type":"address","internalType":"address"}],"outputs":[{"name":"_inviter","type":"address","internalType":"address"},{"name":"_staking","type":"uint256","internalType":"uint256"},{"name":"_dynamic","type":"uint256","internalType":"uint256"},{"name":"_income","type":"uint256","internalType":"uint256"},{"name":"_members","type":"address[]","internalType":"address[]"},{"name":"_records","type":"tuple[]","internalType":"struct StoreV1.Record[]","components":[{"name":"operate","type":"uint8","internalType":"enum StoreV1.Operate"},{"name":"mark","type":"uint8","internalType":"enum StoreV1.Mark"},{"name":"members","type":"address","internalType":"address"},{"name":"amount","type":"uint256","internalType":"uint256"},{"name":"time","type":"uint256","internalType":"uint256"}]}],"stateMutability":"view"},{"type":"function","name":"implementation","inputs":[],"outputs":[{"name":"","type":"address","internalType":"address"}],"stateMutability":"view"},{"type":"function","name":"init","inputs":[{"name":"_award","type":"address","internalType":"address"}],"outputs":[],"stateMutability":"nonpayable"},{"type":"function","name":"invite","inputs":[{"name":"_inviter","type":"address","internalType":"address"}],"outputs":[],"stateMutability":"nonpayable"},{"type":"function","name":"managerWithdrawBaby","inputs":[{"name":"_token","type":"address","internalType":"address"},{"name":"_receiver","type":"address","internalType":"address"},{"name":"_amount","type":"uint256","internalType":"uint256"}],"outputs":[],"stateMutability":"nonpayable"},{"type":"function","name":"managerWithdrawETH","inputs":[{"name":"receiver","type":"address","internalType":"address"},{"name":"amount","type":"uint256","internalType":"uint256"}],"outputs":[],"stateMutability":"nonpayable"},{"type":"function","name":"prefixCode","inputs":[],"outputs":[{"name":"","type":"address","internalType":"address"}],"stateMutability":"view"},{"type":"function","name":"provide","inputs":[{"name":"_amount","type":"uint256","internalType":"uint256"}],"outputs":[],"stateMutability":"nonpayable"},{"type":"function","name":"setInfo","inputs":[{"name":"_withdraw","type":"uint256","internalType":"uint256"},{"name":"_reward","type":"uint256","internalType":"uint256"},{"name":"_min","type":"uint256","internalType":"uint256"},{"name":"_max","type":"uint256","internalType":"uint256"}],"outputs":[],"stateMutability":"nonpayable"},{"type":"function","name":"withdraw","inputs":[],"outputs":[],"stateMutability":"nonpayable"}],"bytecode":{"object":"0x608060405234801561001057600080fd5b50600080546001600160a01b03191633179055611afb806100326000396000f3fe6080604052600436106101025760003560e01c80635c60da1b116100955780639af1d35a116100645780639af1d35a146102b7578063a99e393e146102cd578063b22fe567146102ed578063d2da7bca1461030d578063f851a4401461032d57600080fd5b80635c60da1b1461020d5780635fb0ce22146102455780636386c1c7146102655780637f081b161461029757600080fd5b80634aa06652116100d15780634aa06652146101855780634b77c468146101b85780634c6b0a50146101d85780634e71d92d146101f857600080fd5b806313efcc631461010e57806319ab453c146101305780632e2ebe06146101505780633ccfd60b1461017057600080fd5b3661010957005b600080fd5b34801561011a57600080fd5b5061012e61012936600461175c565b61034d565b005b34801561013c57600080fd5b5061012e61014b3660046117a5565b6103d7565b34801561015c57600080fd5b5061012e61016b3660046117c0565b610423565b34801561017c57600080fd5b5061012e610522565b34801561019157600080fd5b506101a56101a03660046117d9565b61061c565b6040519081526020015b60405180910390f35b3480156101c457600080fd5b5061012e6101d33660046117a5565b610653565b3480156101e457600080fd5b5061012e6101f3366004611815565b6107ca565b34801561020457600080fd5b5061012e6107fe565b34801561021957600080fd5b5060015461022d906001600160a01b031681565b6040516001600160a01b0390911681526020016101af565b34801561025157600080fd5b5061012e6102603660046117d9565b610884565b34801561027157600080fd5b506102856102803660046117a5565b6108be565b6040516101af96959493929190611855565b3480156102a357600080fd5b506101a56102b23660046117a5565b610a8a565b3480156102c357600080fd5b506101a5600b5481565b3480156102d957600080fd5b5060045461022d906001600160a01b031681565b3480156102f957600080fd5b506101a56103083660046117a5565b610b06565b34801561031957600080fd5b50600c5461022d906001600160a01b031681565b34801561033957600080fd5b5060005461022d906001600160a01b031681565b6000546001600160a01b031633146103805760405162461bcd60e51b815260040161037790611951565b60405180910390fd5b60088490556201518061039a8466038d7ea4c68000611995565b6103a491906119ac565b6007556103b982670de0b6b3a7640000611995565b6009556103ce81670de0b6b3a7640000611995565b600a5550505050565b6000546001600160a01b031633146104015760405162461bcd60e51b815260040161037790611951565b600c80546001600160a01b0319166001600160a01b0392909216919091179055565b33600090815260026020526040902080546001600160a01b031661047f5760405162461bcd60e51b81526020600482015260136024820152724e6f742070726f76696465207065726d69742160681b6044820152606401610377565b60095482101580156104935750600a548211155b6104d75760405162461bcd60e51b815260206004820152601560248201527470726f7669646520616d6f756e74206572726f722160581b6044820152606401610377565b6003546104ef906001600160a01b0316333085610b6c565b6104f833610c9c565b8181600101600082825461050c91906119ce565b9091555061051e905060003384610ccf565b5050565b336000908152600260205260409020600181015461057b5760405162461bcd60e51b8152602060048201526016602482015275576974686472617720616d6f756e74206572726f722160501b6044820152606401610377565b61058433610c9c565b6003546008546105c5916001600160a01b03169033906064906105a790826119e1565b85600101546105b69190611995565b6105c091906119ac565b611105565b606460085482600101546105d99190611995565b6105e391906119ac565b600b60008282546105f491906119ce565b9250508190555061060b6001338360010154610ccf565b600060018201819055600290910155565b6005546000908190819061063a906001600160a01b03168787611219565b915091506106498483836112e3565b9695505050505050565b336001600160a01b038216036106ab5760405162461bcd60e51b815260206004820152601860248201527f496e76616c696420696e766974657220616464726573732100000000000000006044820152606401610377565b6004546001600160a01b03828116911614610721576001600160a01b0381166000908152600260205260409020600101546107215760405162461bcd60e51b81526020600482015260166024820152754e6f742068617320696e76697465207065726d69742160501b6044820152606401610377565b336000908152600260205260409020546001600160a01b03161561077b5760405162461bcd60e51b8152602060048201526011602482015270526570656174206f7065726174696f6e2160781b6044820152606401610377565b33600081815260026020908152604080832080546001600160a01b039096166001600160a01b031996871681179091558352822060050180546001810182559083529120018054909216179055565b6000546001600160a01b031633146107f45760405162461bcd60e51b815260040161037790611951565b61051e8282611402565b600061080933610a8a565b1161084c5760405162461bcd60e51b8152602060048201526013602482015272436c61696d20616d6f756e74206572726f722160681b6044820152606401610377565b61085533610c9c565b600c5461086f906001600160a01b0316336105c081610a8a565b33600090815260026020526040812060030155565b6000546001600160a01b031633146108ae5760405162461bcd60e51b815260040161037790611951565b6108b9838383611105565b505050565b6001600160a01b03808216600090815260026020819052604082208054600182015491909201549190931692916060806108f787610a8a565b6001600160a01b038816600090815260026020908152604091829020600501805483518184028101840190945280845293965091929083018282801561096657602002820191906000526020600020905b81546001600160a01b03168152600190910190602001808311610948575b5050506001600160a01b038a16600090815260026020908152604080832060060180548251818502810185019093528083529698509095909450925084015b82821015610a7b576000848152602090206040805160a08101909152600384029091018054829060ff1660018111156109e0576109e061183f565b60018111156109f1576109f161183f565b81528154602090910190610100900460ff166003811115610a1457610a1461183f565b6003811115610a2557610a2561183f565b81526020016000820160029054906101000a90046001600160a01b03166001600160a01b03166001600160a01b0316815260200160018201548152602001600282015481525050815260200190600101906109a5565b50505050905091939550919395565b600080610a9683610b06565b1115610af957600354600654600091610ad2916001600160a01b039182169116670de0b6b3a7640000610ac887610b06565b6101a091906119ac565b600654600c54919250610af2916001600160a01b0391821691168361061c565b9392505050565b506000919050565b919050565b6001600160a01b03811660009081526002602081905260408220600381015460075492820154600183015492939192610b3f91906119ce565b6004840154610b4e90426119e1565b610b589190611995565b610b629190611995565b610af291906119ce565b604080516001600160a01b0385811660248301528481166044830152606480830185905283518084039091018152608490920183526020820180516001600160e01b03166323b872dd60e01b1790529151600092839290881691610bd091906119f4565b6000604051808303816000865af19150503d8060008114610c0d576040519150601f19603f3d011682016040523d82523d6000602084013e610c12565b606091505b5091509150818015610c3c575080511580610c3c575080806020019051810190610c3c9190611a23565b610c945760405162461bcd60e51b8152602060048201526024808201527f5472616e7366657248656c7065723a205452414e534645525f46524f4d5f46416044820152631253115160e21b6064820152608401610377565b505050505050565b610ca581610b06565b6001600160a01b039091166000908152600260205260409020600381019190915542600490910155565b6001600160a01b03808316600090815260026020526040812054909116905b600381108015610d0657506001600160a01b03821615155b156110fe57610d1482610c9c565b6001600160a01b038216600090815260026020526040812090828103610e4257816006016040518060a00160405280896001811115610d5557610d5561183f565b8152600160208083018290526001600160a01b038b166040840152606083018a905242608090930192909252835480820185556000948552919093208251600390920201805492939092839160ff19909116908381811115610db957610db961183f565b021790555060208201518154829061ff001916610100836003811115610de157610de161183f565b0217905550604082015181546001600160a01b03909116620100000262010000600160b01b0319909116178155606082015160018201556080909101516002909101556064610e3186600a611995565b610e3b91906119ac565b9050611055565b82600103610f4a57816006016040518060a00160405280896001811115610e6b57610e6b61183f565b8152602001600281526001600160a01b038916602080830191909152604082018990524260609092019190915282546001818101855560009485529190932082516003909402018054929390929091839160ff1916908381811115610ed257610ed261183f565b021790555060208201518154829061ff001916610100836003811115610efa57610efa61183f565b0217905550604082015181546001600160a01b03909116620100000262010000600160b01b0319909116178155606082015160018201556080909101516002909101556064610e31866006611995565b816006016040518060a00160405280896001811115610f6b57610f6b61183f565b8152600360208083018290526001600160a01b038b166040840152606083018a905242608090930192909252835460018082018655600095865292909420835194909102018054929390929091839160ff1916908381811115610fd057610fd061183f565b021790555060208201518154829061ff001916610100836003811115610ff857610ff861183f565b0217905550604082015181546001600160a01b03909116620100000262010000600160b01b0319909116178155606082015160018201556080909101516002909101556064611048866004611995565b61105291906119ac565b90505b60008760018111156110695761106961183f565b03611088578082600201600082825461108291906119ce565b90915550505b600187600181111561109c5761109c61183f565b1480156110ad575080826002015410155b156110cc57808260020160008282546110c691906119e1565b90915550505b50506001600160a01b0391821660009081526002602052604090205490911690806110f681611a45565b915050610cee565b5050505050565b604080516001600160a01b038481166024830152604480830185905283518084039091018152606490920183526020820180516001600160e01b031663a9059cbb60e01b179052915160009283929087169161116191906119f4565b6000604051808303816000865af19150503d806000811461119e576040519150601f19603f3d011682016040523d82523d6000602084013e6111a3565b606091505b50915091508180156111cd5750805115806111cd5750808060200190518101906111cd9190611a23565b6110fe5760405162461bcd60e51b815260206004820152601f60248201527f5472616e7366657248656c7065723a205452414e534645525f4641494c4544006044820152606401610377565b600080600061122885856114cb565b5090506000806112398888886115c2565b6001600160a01b0316630902f1ac6040518163ffffffff1660e01b8152600401606060405180830381865afa158015611276573d6000803e3d6000fd5b505050506040513d601f19601f8201168201806040525081019061129a9190611a75565b506001600160701b031691506001600160701b03169150826001600160a01b0316876001600160a01b0316146112d15780826112d4565b81815b90999098509650505050505050565b60008084116113485760405162461bcd60e51b815260206004820152602b60248201527f556e697377617056324c6962726172793a20494e53554646494349454e545f4960448201526a1394155517d05353d5539560aa1b6064820152608401610377565b6000831180156113585750600082115b6113b55760405162461bcd60e51b815260206004820152602860248201527f556e697377617056324c6962726172793a20494e53554646494349454e545f4c604482015267495155494449545960c01b6064820152608401610377565b60006113c3856103e561169a565b905060006113d1828561169a565b905060006113eb836113e5886103e861169a565b90611707565b90506113f781836119ac565b979650505050505050565b604080516000808252602082019092526001600160a01b03841690839060405161142c91906119f4565b60006040518083038185875af1925050503d8060008114611469576040519150601f19603f3d011682016040523d82523d6000602084013e61146e565b606091505b50509050806108b95760405162461bcd60e51b815260206004820152602360248201527f5472616e7366657248656c7065723a204554485f5452414e534645525f46414960448201526213115160ea1b6064820152608401610377565b600080826001600160a01b0316846001600160a01b03160361153d5760405162461bcd60e51b815260206004820152602560248201527f556e697377617056324c6962726172793a204944454e544943414c5f41444452604482015264455353455360d81b6064820152608401610377565b826001600160a01b0316846001600160a01b03161061155d578284611560565b83835b90925090506001600160a01b0382166115bb5760405162461bcd60e51b815260206004820152601e60248201527f556e697377617056324c6962726172793a205a45524f5f4144445245535300006044820152606401610377565b9250929050565b60008060006115d185856114cb565b6040516bffffffffffffffffffffffff19606084811b8216602084015283901b16603482015291935091508690604801604051602081830303815290604052805190602001206040516020016116789291906001600160f81b0319815260609290921b6bffffffffffffffffffffffff1916600183015260158201527efb7f630766e6a796048ea87d01acd3068e8ff67d078148a3fa3f4a84f69bd5603582015260550190565b60408051601f1981840301815291905280516020909101209695505050505050565b60008115806116be575082826116b08183611995565b92506116bc90836119ac565b145b6117015760405162461bcd60e51b815260206004820152601460248201527364732d6d6174682d6d756c2d6f766572666c6f7760601b6044820152606401610377565b92915050565b60008261171483826119ce565b91508110156117015760405162461bcd60e51b815260206004820152601460248201527364732d6d6174682d6164642d6f766572666c6f7760601b6044820152606401610377565b6000806000806080858703121561177257600080fd5b5050823594602084013594506040840135936060013592509050565b80356001600160a01b0381168114610b0157600080fd5b6000602082840312156117b757600080fd5b610af28261178e565b6000602082840312156117d257600080fd5b5035919050565b6000806000606084860312156117ee57600080fd5b6117f78461178e565b92506118056020850161178e565b9150604084013590509250925092565b6000806040838503121561182857600080fd5b6118318361178e565b946020939093013593505050565b634e487b7160e01b600052602160045260246000fd5b600060c0820160018060a01b03808a1684526020898186015260408960408701526060896060880152608060c06080890152858a5180885260e08a019150858c01975060005b818110156118b957885188168352978601979186019160010161189b565b505060a0965088810360a08a0152808a518083528683019150868c01925060005b818110156119395783518051600281106118f6576118f661183f565b8452808901516004811061190c5761190c61183f565b848a0152808801518a168885015286810151878501528501518584015292870192918901916001016118da565b50508098505050505050505050979650505050505050565b60208082526014908201527343616c6c6572206973206e6f74206f776e65722160601b604082015260600190565b634e487b7160e01b600052601160045260246000fd5b80820281158282048414176117015761170161197f565b6000826119c957634e487b7160e01b600052601260045260246000fd5b500490565b808201808211156117015761170161197f565b818103818111156117015761170161197f565b6000825160005b81811015611a1557602081860181015185830152016119fb565b506000920191825250919050565b600060208284031215611a3557600080fd5b81518015158114610af257600080fd5b600060018201611a5757611a5761197f565b5060010190565b80516001600160701b0381168114610b0157600080fd5b600080600060608486031215611a8a57600080fd5b611a9384611a5e565b9250611aa160208501611a5e565b9150604084015163ffffffff81168114611aba57600080fd5b80915050925092509256fea26469706673582212208470f52bf839ac8379387f8c7d66792abd82e0b93348deb6b4b1dcbaaa61309864736f6c63430008180033","linkReferences":{}},"methodIdentifiers":{"_getUserIncome(address)":"b22fe567","admin()":"f851a440","awardToken()":"d2da7bca","claim()":"4e71d92d","fees()":"9af1d35a","getAmountOut(address,address,uint256)":"4aa06652","getUserIncome(address)":"7f081b16","getUserInfo(address)":"6386c1c7","implementation()":"5c60da1b","init(address)":"19ab453c","invite(address)":"4b77c468","managerWithdrawBaby(address,address,uint256)":"5fb0ce22","managerWithdrawETH(address,uint256)":"4c6b0a50","prefixCode()":"a99e393e","provide(uint256)":"2e2ebe06","setInfo(uint256,uint256,uint256,uint256)":"13efcc63","withdraw()":"3ccfd60b"},"id":32}