{"abi":[{"type":"function","name":"admin","inputs":[],"outputs":[{"name":"","type":"address","internalType":"address"}],"stateMutability":"view"},{"type":"function","name":"awardToken","inputs":[],"outputs":[{"name":"","type":"address","internalType":"address"}],"stateMutability":"view"},{"type":"function","name":"fees","inputs":[],"outputs":[{"name":"","type":"uint256","internalType":"uint256"}],"stateMutability":"view"},{"type":"function","name":"implementation","inputs":[],"outputs":[{"name":"","type":"address","internalType":"address"}],"stateMutability":"view"},{"type":"function","name":"prefixCode","inputs":[],"outputs":[{"name":"","type":"address","internalType":"address"}],"stateMutability":"view"}],"bytecode":{"object":"0x608060405234801561001057600080fd5b50610105806100206000396000f3fe6080604052348015600f57600080fd5b506004361060505760003560e01c80635c60da1b1460555780639af1d35a146084578063a99e393e146099578063d2da7bca1460ab578063f851a4401460bd575b600080fd5b6001546067906001600160a01b031681565b6040516001600160a01b0390911681526020015b60405180910390f35b608c600b5481565b604051908152602001607b565b6004546067906001600160a01b031681565b600c546067906001600160a01b031681565b6000546067906001600160a01b03168156fea26469706673582212202a2e6d2d67b314f42840e921837867dfa0dd12e96787e922dbace3f7e41045cf64736f6c63430008180033","linkReferences":{}},"methodIdentifiers":{"admin()":"f851a440","awardToken()":"d2da7bca","fees()":"9af1d35a","implementation()":"5c60da1b","prefixCode()":"a99e393e"},"id":32}