{"abi":[{"type":"function","name":"admin","inputs":[],"outputs":[{"name":"","type":"address","internalType":"address"}],"stateMutability":"view"},{"type":"function","name":"implementation","inputs":[],"outputs":[{"name":"","type":"address","internalType":"address"}],"stateMutability":"view"}],"bytecode":{"object":"0x6080604052348015600f57600080fd5b5060ad8061001e6000396000f3fe6080604052348015600f57600080fd5b506004361060325760003560e01c80635c60da1b146037578063f851a440146065575b600080fd5b6001546049906001600160a01b031681565b6040516001600160a01b03909116815260200160405180910390f35b6000546049906001600160a01b03168156fea2646970667358221220505bcb7d5aa7afe686f67fbd992113092146010bd673e44ffeb3f4ffa5d7260a64736f6c63430008180033","linkReferences":{}},"methodIdentifiers":{"admin()":"f851a440","implementation()":"5c60da1b"},"id":33}