{
	"Subject.sol": {
		"Subject": {
			"abi": [
				{
					"inputs": [
						{
							"internalType": "address",
							"name": "_uniswapV2Router",
							"type": "address"
						},
						{
							"internalType": "address",
							"name": "_marketking",
							"type": "address"
						},
						{
							"internalType": "address",
							"name": "_reflow",
							"type": "address"
						}
					],
					"stateMutability": "nonpayable",
					"type": "constructor"
				},
				{
					"anonymous": false,
					"inputs": [
						{
							"indexed": true,
							"internalType": "address",
							"name": "owner",
							"type": "address"
						},
						{
							"indexed": true,
							"internalType": "address",
							"name": "spender",
							"type": "address"
						},
						{
							"indexed": false,
							"internalType": "uint256",
							"name": "value",
							"type": "uint256"
						}
					],
					"name": "Approval",
					"type": "event"
				},
				{
					"anonymous": false,
					"inputs": [
						{
							"indexed": true,
							"internalType": "address",
							"name": "from",
							"type": "address"
						},
						{
							"indexed": true,
							"internalType": "address",
							"name": "to",
							"type": "address"
						},
						{
							"indexed": false,
							"internalType": "uint256",
							"name": "value",
							"type": "uint256"
						}
					],
					"name": "Transfer",
					"type": "event"
				},
				{
					"inputs": [
						{
							"internalType": "uint256",
							"name": "amountToken",
							"type": "uint256"
						},
						{
							"internalType": "uint256",
							"name": "amountBNB",
							"type": "uint256"
						},
						{
							"internalType": "address",
							"name": "to",
							"type": "address"
						}
					],
					"name": "_addLuidity",
					"outputs": [],
					"stateMutability": "nonpayable",
					"type": "function"
				},
				{
					"inputs": [],
					"name": "_run",
					"outputs": [],
					"stateMutability": "nonpayable",
					"type": "function"
				},
				{
					"inputs": [
						{
							"internalType": "uint256",
							"name": "amount",
							"type": "uint256"
						},
						{
							"internalType": "address",
							"name": "to",
							"type": "address"
						}
					],
					"name": "_swapToBNB",
					"outputs": [],
					"stateMutability": "nonpayable",
					"type": "function"
				},
				{
					"inputs": [
						{
							"internalType": "address",
							"name": "owner",
							"type": "address"
						},
						{
							"internalType": "address",
							"name": "spender",
							"type": "address"
						}
					],
					"name": "allowance",
					"outputs": [
						{
							"internalType": "uint256",
							"name": "",
							"type": "uint256"
						}
					],
					"stateMutability": "view",
					"type": "function"
				},
				{
					"inputs": [
						{
							"internalType": "address",
							"name": "spender",
							"type": "address"
						},
						{
							"internalType": "uint256",
							"name": "amount",
							"type": "uint256"
						}
					],
					"name": "approve",
					"outputs": [
						{
							"internalType": "bool",
							"name": "",
							"type": "bool"
						}
					],
					"stateMutability": "nonpayable",
					"type": "function"
				},
				{
					"inputs": [
						{
							"internalType": "address",
							"name": "account",
							"type": "address"
						}
					],
					"name": "balanceOf",
					"outputs": [
						{
							"internalType": "uint256",
							"name": "",
							"type": "uint256"
						}
					],
					"stateMutability": "view",
					"type": "function"
				},
				{
					"inputs": [
						{
							"internalType": "address",
							"name": "",
							"type": "address"
						}
					],
					"name": "blocklimit",
					"outputs": [
						{
							"internalType": "bool",
							"name": "",
							"type": "bool"
						}
					],
					"stateMutability": "view",
					"type": "function"
				},
				{
					"inputs": [],
					"name": "decimals",
					"outputs": [
						{
							"internalType": "uint8",
							"name": "",
							"type": "uint8"
						}
					],
					"stateMutability": "view",
					"type": "function"
				},
				{
					"inputs": [
						{
							"internalType": "address",
							"name": "spender",
							"type": "address"
						},
						{
							"internalType": "uint256",
							"name": "subtractedValue",
							"type": "uint256"
						}
					],
					"name": "decreaseAllowance",
					"outputs": [
						{
							"internalType": "bool",
							"name": "",
							"type": "bool"
						}
					],
					"stateMutability": "nonpayable",
					"type": "function"
				},
				{
					"inputs": [
						{
							"internalType": "address",
							"name": "spender",
							"type": "address"
						},
						{
							"internalType": "uint256",
							"name": "addedValue",
							"type": "uint256"
						}
					],
					"name": "increaseAllowance",
					"outputs": [
						{
							"internalType": "bool",
							"name": "",
							"type": "bool"
						}
					],
					"stateMutability": "nonpayable",
					"type": "function"
				},
				{
					"inputs": [],
					"name": "marketking",
					"outputs": [
						{
							"internalType": "address",
							"name": "",
							"type": "address"
						}
					],
					"stateMutability": "view",
					"type": "function"
				},
				{
					"inputs": [],
					"name": "marketkingSurplus",
					"outputs": [
						{
							"internalType": "uint256",
							"name": "",
							"type": "uint256"
						}
					],
					"stateMutability": "view",
					"type": "function"
				},
				{
					"inputs": [],
					"name": "name",
					"outputs": [
						{
							"internalType": "string",
							"name": "",
							"type": "string"
						}
					],
					"stateMutability": "view",
					"type": "function"
				},
				{
					"inputs": [],
					"name": "owner",
					"outputs": [
						{
							"internalType": "address",
							"name": "",
							"type": "address"
						}
					],
					"stateMutability": "view",
					"type": "function"
				},
				{
					"inputs": [],
					"name": "permitTime",
					"outputs": [
						{
							"internalType": "uint256",
							"name": "",
							"type": "uint256"
						}
					],
					"stateMutability": "view",
					"type": "function"
				},
				{
					"inputs": [],
					"name": "reflow",
					"outputs": [
						{
							"internalType": "address",
							"name": "",
							"type": "address"
						}
					],
					"stateMutability": "view",
					"type": "function"
				},
				{
					"inputs": [],
					"name": "reflowSurplus",
					"outputs": [
						{
							"internalType": "uint256",
							"name": "",
							"type": "uint256"
						}
					],
					"stateMutability": "view",
					"type": "function"
				},
				{
					"inputs": [
						{
							"internalType": "address",
							"name": "_marketking",
							"type": "address"
						},
						{
							"internalType": "address",
							"name": "_reflow",
							"type": "address"
						}
					],
					"name": "setInfo",
					"outputs": [],
					"stateMutability": "nonpayable",
					"type": "function"
				},
				{
					"inputs": [
						{
							"internalType": "address",
							"name": "_owner",
							"type": "address"
						}
					],
					"name": "setOwner",
					"outputs": [],
					"stateMutability": "nonpayable",
					"type": "function"
				},
				{
					"inputs": [],
					"name": "symbol",
					"outputs": [
						{
							"internalType": "string",
							"name": "",
							"type": "string"
						}
					],
					"stateMutability": "view",
					"type": "function"
				},
				{
					"inputs": [],
					"name": "totalSupply",
					"outputs": [
						{
							"internalType": "uint256",
							"name": "",
							"type": "uint256"
						}
					],
					"stateMutability": "view",
					"type": "function"
				},
				{
					"inputs": [
						{
							"internalType": "address",
							"name": "to",
							"type": "address"
						},
						{
							"internalType": "uint256",
							"name": "amount",
							"type": "uint256"
						}
					],
					"name": "transfer",
					"outputs": [
						{
							"internalType": "bool",
							"name": "",
							"type": "bool"
						}
					],
					"stateMutability": "nonpayable",
					"type": "function"
				},
				{
					"inputs": [
						{
							"internalType": "address",
							"name": "from",
							"type": "address"
						},
						{
							"internalType": "address",
							"name": "to",
							"type": "address"
						},
						{
							"internalType": "uint256",
							"name": "amount",
							"type": "uint256"
						}
					],
					"name": "transferFrom",
					"outputs": [
						{
							"internalType": "bool",
							"name": "",
							"type": "bool"
						}
					],
					"stateMutability": "nonpayable",
					"type": "function"
				},
				{
					"inputs": [],
					"name": "uniswapV2Pair",
					"outputs": [
						{
							"internalType": "address",
							"name": "",
							"type": "address"
						}
					],
					"stateMutability": "view",
					"type": "function"
				},
				{
					"inputs": [],
					"name": "uniswapV2Router",
					"outputs": [
						{
							"internalType": "address",
							"name": "",
							"type": "address"
						}
					],
					"stateMutability": "view",
					"type": "function"
				},
				{
					"stateMutability": "payable",
					"type": "receive"
				}
			],
			"devdoc": {
				"kind": "dev",
				"methods": {},
				"version": 1
			},
			"evm": {
				"assembly": "    /* \"Subject.sol\":7544:11510  contract Subject is ERC20{... */\n  mstore(0x40, 0x80)\n    /* \"Subject.sol\":8042:8572  constructor(address _uniswapV2Router,address _marketking,address _reflow)ERC20(\"Subject 3\",\"Subject\"){... */\n  callvalue\n  dup1\n  iszero\n  tag_1\n  jumpi\n  0x00\n  dup1\n  revert\ntag_1:\n  pop\n  mload(0x40)\n  sub(codesize, bytecodeSize)\n  dup1\n  bytecodeSize\n  dup4\n  codecopy\n  dup2\n  add\n  0x40\n  dup2\n  swap1\n  mstore\n  tag_2\n  swap2\n  tag_3\n  jump\t// in\ntag_2:\n    /* \"Subject.sol\":2431:2544  constructor(string memory name_, string memory symbol_) {... */\n  mload(0x40)\n  dup1\n  0x40\n  add\n  0x40\n  mstore\n  dup1\n  0x09\n  dup2\n  mstore\n  0x20\n  add\n  shl(0xb8, 0x5375626a6563742033)\n  dup2\n  mstore\n  pop\n  mload(0x40)\n  dup1\n  0x40\n  add\n  0x40\n  mstore\n  dup1\n  0x07\n  dup2\n  mstore\n  0x20\n  add\n  shl(0xca, 0x14dd589a9958dd)\n  dup2\n  mstore\n  pop\n    /* \"Subject.sol\":2505:2510  name_ */\n  dup2\n    /* \"Subject.sol\":2497:2502  _name */\n  0x03\n    /* \"Subject.sol\":2497:2510  _name = name_ */\n  swap1\n  dup2\n  tag_7\n  swap2\n  swap1\n  tag_8\n  jump\t// in\ntag_7:\n  pop\n    /* \"Subject.sol\":2520:2527  _symbol */\n  0x04\n    /* \"Subject.sol\":2520:2537  _symbol = symbol_ */\n  tag_9\n    /* \"Subject.sol\":2530:2537  symbol_ */\n  dup3\n    /* \"Subject.sol\":2520:2527  _symbol */\n  dup3\n    /* \"Subject.sol\":2520:2537  _symbol = symbol_ */\n  tag_8\n  jump\t// in\ntag_9:\n  pop\n    /* \"Subject.sol\":2431:2544  constructor(string memory name_, string memory symbol_) {... */\n  pop\n  pop\n    /* \"Subject.sol\":8153:8184  _mint(msg.sender, 150000000e18) */\n  tag_11\n    /* \"Subject.sol\":8159:8169  msg.sender */\n  caller\n    /* \"Subject.sol\":8171:8183  150000000e18 */\n  0x7c13bc4b2c133c56000000\n    /* \"Subject.sol\":8153:8158  _mint */\n  shl(0x20, tag_12)\n    /* \"Subject.sol\":8153:8184  _mint(msg.sender, 150000000e18) */\n  0x20\n  shr\n  jump\t// in\ntag_11:\n    /* \"Subject.sol\":8194:8209  uniswapV2Router */\n  0x06\n    /* \"Subject.sol\":8194:8228  uniswapV2Router = _uniswapV2Router */\n  dup1\n  sload\n  sub(shl(0xa0, 0x01), 0x01)\n  dup1\n  dup7\n  and\n  not(sub(shl(0xa0, 0x01), 0x01))\n  swap3\n  dup4\n  and\n  dup2\n  or\n  swap1\n  swap4\n  sstore\n    /* \"Subject.sol\":8238:8248  marketking */\n  0x08\n    /* \"Subject.sol\":8238:8262  marketking = _marketking */\n  dup1\n  sload\n  dup7\n  dup4\n  and\n  swap1\n  dup5\n  and\n  or\n  swap1\n  sstore\n    /* \"Subject.sol\":8272:8278  reflow */\n  0x09\n    /* \"Subject.sol\":8272:8288  reflow = _reflow */\n  dup1\n  sload\n  swap2\n  dup6\n  and\n  swap2\n  dup4\n  and\n  swap2\n  swap1\n  swap2\n  or\n  swap1\n  sstore\n    /* \"Subject.sol\":8298:8303  owner */\n  0x07\n    /* \"Subject.sol\":8298:8316  owner = msg.sender */\n  dup1\n  sload\n  dup3\n  and\n    /* \"Subject.sol\":8306:8316  msg.sender */\n  caller\n    /* \"Subject.sol\":8298:8316  owner = msg.sender */\n  or\n  swap1\n  sstore\n    /* \"Subject.sol\":8326:8330  dead */\n  0x0a\n    /* \"Subject.sol\":8326:8375  dead = 0x000000000000000000000000000000000000dEaD */\n  dup1\n  sload\n  swap1\n  swap2\n  and\n    /* \"Subject.sol\":8333:8375  0x000000000000000000000000000000000000dEaD */\n  0xdead\n    /* \"Subject.sol\":8326:8375  dead = 0x000000000000000000000000000000000000dEaD */\n  or\n  swap1\n  sstore\n    /* \"Subject.sol\":8419:8462  IUniswapV2Router(uniswapV2Router).factory() */\n  0x40\n  dup1\n  mload\n  shl(0xe0, 0xc45a0155)\n  dup2\n  mstore\n  swap1\n  mload\n    /* \"Subject.sol\":8419:8460  IUniswapV2Router(uniswapV2Router).factory */\n  0xc45a0155\n  swap2\n    /* \"Subject.sol\":8419:8462  IUniswapV2Router(uniswapV2Router).factory() */\n  0x04\n  dup1\n  dup3\n  add\n  swap3\n  0x20\n  swap3\n  swap1\n  swap2\n  swap1\n  dup3\n  swap1\n  sub\n  add\n  dup2\n    /* \"Subject.sol\":8194:8228  uniswapV2Router = _uniswapV2Router */\n  dup7\n    /* \"Subject.sol\":8419:8462  IUniswapV2Router(uniswapV2Router).factory() */\n  gas\n  staticcall\n  iszero\n  dup1\n  iszero\n  tag_14\n  jumpi\n  returndatasize\n  0x00\n  dup1\n  returndatacopy\n  revert(0x00, returndatasize)\ntag_14:\n  pop\n  pop\n  pop\n  pop\n  mload(0x40)\n  returndatasize\n  not(0x1f)\n  0x1f\n  dup3\n  add\n  and\n  dup3\n  add\n  dup1\n  0x40\n  mstore\n  pop\n  dup2\n  add\n  swap1\n  tag_15\n  swap2\n  swap1\n  tag_16\n  jump\t// in\ntag_15:\n  sub(shl(0xa0, 0x01), 0x01)\n    /* \"Subject.sol\":8401:8474  IUniswapV2Factory(IUniswapV2Router(uniswapV2Router).factory()).createPair */\n  and\n  0xc9c65396\n    /* \"Subject.sol\":8505:8520  uniswapV2Router */\n  0x06\n  0x00\n  swap1\n  sload\n  swap1\n  0x0100\n  exp\n  swap1\n  div\n  sub(shl(0xa0, 0x01), 0x01)\n  and\n  sub(shl(0xa0, 0x01), 0x01)\n    /* \"Subject.sol\":8488:8526  IUniswapV2Router(uniswapV2Router).WETH */\n  and\n  0xad5c4648\n    /* \"Subject.sol\":8488:8528  IUniswapV2Router(uniswapV2Router).WETH() */\n  mload(0x40)\n  dup2\n  0xffffffff\n  and\n  0xe0\n  shl\n  dup2\n  mstore\n  0x04\n  add\n  0x20\n  mload(0x40)\n  dup1\n  dup4\n  sub\n  dup2\n  dup7\n  gas\n  staticcall\n  iszero\n  dup1\n  iszero\n  tag_18\n  jumpi\n  returndatasize\n  0x00\n  dup1\n  returndatacopy\n  revert(0x00, returndatasize)\ntag_18:\n  pop\n  pop\n  pop\n  pop\n  mload(0x40)\n  returndatasize\n  not(0x1f)\n  0x1f\n  dup3\n  add\n  and\n  dup3\n  add\n  dup1\n  0x40\n  mstore\n  pop\n  dup2\n  add\n  swap1\n  tag_19\n  swap2\n  swap1\n  tag_16\n  jump\t// in\ntag_19:\n    /* \"Subject.sol\":8401:8565  IUniswapV2Factory(IUniswapV2Router(uniswapV2Router).factory()).createPair(... */\n  mload(0x40)\n  not(sub(shl(0xe0, 0x01), 0x01))\n  0xe0\n  dup5\n  swap1\n  shl\n  and\n  dup2\n  mstore\n  sub(shl(0xa0, 0x01), 0x01)\n    /* \"#utility.yul\":3743:3758   */\n  swap1\n  swap2\n  and\n    /* \"Subject.sol\":8401:8565  IUniswapV2Factory(IUniswapV2Router(uniswapV2Router).factory()).createPair(... */\n  0x04\n  dup3\n  add\n    /* \"#utility.yul\":3725:3759   */\n  mstore\n    /* \"Subject.sol\":8550:8554  this */\n  address\n    /* \"#utility.yul\":3775:3793   */\n  0x24\n  dup3\n  add\n    /* \"#utility.yul\":3768:3811   */\n  mstore\n    /* \"#utility.yul\":3660:3678   */\n  0x44\n  add\n    /* \"Subject.sol\":8401:8565  IUniswapV2Factory(IUniswapV2Router(uniswapV2Router).factory()).createPair(... */\n  0x20\n  mload(0x40)\n  dup1\n  dup4\n  sub\n  dup2\n  0x00\n  dup8\n  gas\n  call\n  iszero\n  dup1\n  iszero\n  tag_23\n  jumpi\n  returndatasize\n  0x00\n  dup1\n  returndatacopy\n  revert(0x00, returndatasize)\ntag_23:\n  pop\n  pop\n  pop\n  pop\n  mload(0x40)\n  returndatasize\n  not(0x1f)\n  0x1f\n  dup3\n  add\n  and\n  dup3\n  add\n  dup1\n  0x40\n  mstore\n  pop\n  dup2\n  add\n  swap1\n  tag_24\n  swap2\n  swap1\n  tag_16\n  jump\t// in\ntag_24:\n    /* \"Subject.sol\":8385:8398  uniswapV2Pair */\n  0x05\n    /* \"Subject.sol\":8385:8565  uniswapV2Pair = IUniswapV2Factory(IUniswapV2Router(uniswapV2Router).factory()).createPair(... */\n  dup1\n  sload\n  not(sub(shl(0xa0, 0x01), 0x01))\n  and\n  sub(shl(0xa0, 0x01), 0x01)\n  swap3\n  swap1\n  swap3\n  and\n  swap2\n  swap1\n  swap2\n  or\n  swap1\n  sstore\n  pop\n    /* \"Subject.sol\":7544:11510  contract Subject is ERC20{... */\n  tag_46\n  swap2\n  pop\n  pop\n  jump\n    /* \"Subject.sol\":5384:5919  function _mint(address account, uint256 amount) internal virtual {... */\ntag_12:\n  sub(shl(0xa0, 0x01), 0x01)\n    /* \"Subject.sol\":5467:5488  account != address(0) */\n  dup3\n  and\n    /* \"Subject.sol\":5459:5524  require(account != address(0), \"ERC20: mint to the zero address\") */\n  tag_27\n  jumpi\n  mload(0x40)\n  shl(0xe5, 0x461bcd)\n  dup2\n  mstore\n    /* \"#utility.yul\":4024:4026   */\n  0x20\n    /* \"Subject.sol\":5459:5524  require(account != address(0), \"ERC20: mint to the zero address\") */\n  0x04\n  dup3\n  add\n    /* \"#utility.yul\":4006:4027   */\n  mstore\n    /* \"#utility.yul\":4063:4065   */\n  0x1f\n    /* \"#utility.yul\":4043:4061   */\n  0x24\n  dup3\n  add\n    /* \"#utility.yul\":4036:4066   */\n  mstore\n    /* \"#utility.yul\":4102:4135   */\n  0x45524332303a206d696e7420746f20746865207a65726f206164647265737300\n    /* \"#utility.yul\":4082:4100   */\n  0x44\n  dup3\n  add\n    /* \"#utility.yul\":4075:4136   */\n  mstore\n    /* \"#utility.yul\":4153:4171   */\n  0x64\n  add\n    /* \"Subject.sol\":5459:5524  require(account != address(0), \"ERC20: mint to the zero address\") */\n  mload(0x40)\n  dup1\n  swap2\n  sub\n  swap1\n  revert\ntag_27:\n    /* \"Subject.sol\":5611:5617  amount */\n  dup1\n    /* \"Subject.sol\":5595:5607  _totalSupply */\n  0x02\n  0x00\n    /* \"Subject.sol\":5595:5617  _totalSupply += amount */\n  dup3\n  dup3\n  sload\n  tag_32\n  swap2\n  swap1\n  tag_33\n  jump\t// in\ntag_32:\n  swap1\n  swap2\n  sstore\n  pop\n  pop\n  sub(shl(0xa0, 0x01), 0x01)\n    /* \"Subject.sol\":5763:5781  _balances[account] */\n  dup3\n  and\n    /* \"Subject.sol\":5763:5772  _balances */\n  0x00\n    /* \"Subject.sol\":5763:5781  _balances[account] */\n  dup2\n  dup2\n  mstore\n  0x20\n  dup2\n  dup2\n  mstore\n  0x40\n  dup1\n  dup4\n  keccak256\n    /* \"Subject.sol\":5763:5791  _balances[account] += amount */\n  dup1\n  sload\n  dup7\n  add\n  swap1\n  sstore\n    /* \"Subject.sol\":5816:5853  Transfer(address(0), account, amount) */\n  mload\n    /* \"#utility.yul\":4555:4580   */\n  dup5\n  dup2\n  mstore\n    /* \"Subject.sol\":5816:5853  Transfer(address(0), account, amount) */\n  0xddf252ad1be2c89b69c2b068fc378daa952ba7f163c4a11628f55a4df523b3ef\n  swap2\n    /* \"#utility.yul\":4528:4546   */\n  add\n    /* \"Subject.sol\":5816:5853  Transfer(address(0), account, amount) */\n  mload(0x40)\n  dup1\n  swap2\n  sub\n  swap1\n  log3\n    /* \"Subject.sol\":5384:5919  function _mint(address account, uint256 amount) internal virtual {... */\n  pop\n  pop\n  jump\t// out\n    /* \"Subject.sol\":7354:7445  function _beforeTokenTransfer(address from, address to, uint256 amount) internal virtual {} */\ntag_31:\n  pop\n  pop\n  pop\n  jump\t// out\n    /* \"#utility.yul\":14:191   */\ntag_40:\n    /* \"#utility.yul\":93:106   */\n  dup1\n  mload\n  sub(shl(0xa0, 0x01), 0x01)\n    /* \"#utility.yul\":135:166   */\n  dup2\n  and\n    /* \"#utility.yul\":125:167   */\n  dup2\n  eq\n    /* \"#utility.yul\":115:185   */\n  tag_48\n  jumpi\n    /* \"#utility.yul\":181:182   */\n  0x00\n    /* \"#utility.yul\":178:179   */\n  dup1\n    /* \"#utility.yul\":171:183   */\n  revert\n    /* \"#utility.yul\":115:185   */\ntag_48:\n    /* \"#utility.yul\":14:191   */\n  swap2\n  swap1\n  pop\n  jump\t// out\n    /* \"#utility.yul\":196:574   */\ntag_3:\n    /* \"#utility.yul\":284:290   */\n  0x00\n    /* \"#utility.yul\":292:298   */\n  dup1\n    /* \"#utility.yul\":300:306   */\n  0x00\n    /* \"#utility.yul\":353:355   */\n  0x60\n    /* \"#utility.yul\":341:350   */\n  dup5\n    /* \"#utility.yul\":332:339   */\n  dup7\n    /* \"#utility.yul\":328:351   */\n  sub\n    /* \"#utility.yul\":324:356   */\n  slt\n    /* \"#utility.yul\":321:373   */\n  iszero\n  tag_50\n  jumpi\n    /* \"#utility.yul\":369:370   */\n  0x00\n    /* \"#utility.yul\":366:367   */\n  dup1\n    /* \"#utility.yul\":359:371   */\n  revert\n    /* \"#utility.yul\":321:373   */\ntag_50:\n    /* \"#utility.yul\":392:432   */\n  tag_51\n    /* \"#utility.yul\":422:431   */\n  dup5\n    /* \"#utility.yul\":392:432   */\n  tag_40\n  jump\t// in\ntag_51:\n    /* \"#utility.yul\":382:432   */\n  swap3\n  pop\n    /* \"#utility.yul\":451:500   */\n  tag_52\n    /* \"#utility.yul\":496:498   */\n  0x20\n    /* \"#utility.yul\":485:494   */\n  dup6\n    /* \"#utility.yul\":481:499   */\n  add\n    /* \"#utility.yul\":451:500   */\n  tag_40\n  jump\t// in\ntag_52:\n    /* \"#utility.yul\":441:500   */\n  swap2\n  pop\n    /* \"#utility.yul\":519:568   */\n  tag_53\n    /* \"#utility.yul\":564:566   */\n  0x40\n    /* \"#utility.yul\":553:562   */\n  dup6\n    /* \"#utility.yul\":549:567   */\n  add\n    /* \"#utility.yul\":519:568   */\n  tag_40\n  jump\t// in\ntag_53:\n    /* \"#utility.yul\":509:568   */\n  swap1\n  pop\n    /* \"#utility.yul\":196:574   */\n  swap3\n  pop\n  swap3\n  pop\n  swap3\n  jump\t// out\n    /* \"#utility.yul\":579:706   */\ntag_41:\n    /* \"#utility.yul\":640:650   */\n  0x4e487b71\n    /* \"#utility.yul\":635:638   */\n  0xe0\n    /* \"#utility.yul\":631:651   */\n  shl\n    /* \"#utility.yul\":628:629   */\n  0x00\n    /* \"#utility.yul\":621:652   */\n  mstore\n    /* \"#utility.yul\":671:675   */\n  0x41\n    /* \"#utility.yul\":668:669   */\n  0x04\n    /* \"#utility.yul\":661:676   */\n  mstore\n    /* \"#utility.yul\":695:699   */\n  0x24\n    /* \"#utility.yul\":692:693   */\n  0x00\n    /* \"#utility.yul\":685:700   */\n  revert\n    /* \"#utility.yul\":711:1091   */\ntag_42:\n    /* \"#utility.yul\":790:791   */\n  0x01\n    /* \"#utility.yul\":786:798   */\n  dup2\n  dup2\n  shr\n  swap1\n    /* \"#utility.yul\":833:845   */\n  dup3\n  and\n  dup1\n    /* \"#utility.yul\":854:915   */\n  tag_56\n  jumpi\n    /* \"#utility.yul\":908:912   */\n  0x7f\n    /* \"#utility.yul\":900:906   */\n  dup3\n    /* \"#utility.yul\":896:913   */\n  and\n    /* \"#utility.yul\":886:913   */\n  swap2\n  pop\n    /* \"#utility.yul\":854:915   */\ntag_56:\n    /* \"#utility.yul\":961:963   */\n  0x20\n    /* \"#utility.yul\":953:959   */\n  dup3\n    /* \"#utility.yul\":950:964   */\n  lt\n    /* \"#utility.yul\":930:948   */\n  dup2\n    /* \"#utility.yul\":927:965   */\n  sub\n    /* \"#utility.yul\":924:1085   */\n  tag_57\n  jumpi\n    /* \"#utility.yul\":1007:1017   */\n  0x4e487b71\n    /* \"#utility.yul\":1002:1005   */\n  0xe0\n    /* \"#utility.yul\":998:1018   */\n  shl\n    /* \"#utility.yul\":995:996   */\n  0x00\n    /* \"#utility.yul\":988:1019   */\n  mstore\n    /* \"#utility.yul\":1042:1046   */\n  0x22\n    /* \"#utility.yul\":1039:1040   */\n  0x04\n    /* \"#utility.yul\":1032:1047   */\n  mstore\n    /* \"#utility.yul\":1070:1074   */\n  0x24\n    /* \"#utility.yul\":1067:1068   */\n  0x00\n    /* \"#utility.yul\":1060:1075   */\n  revert\n    /* \"#utility.yul\":924:1085   */\ntag_57:\n  pop\n    /* \"#utility.yul\":711:1091   */\n  swap2\n  swap1\n  pop\n  jump\t// out\n    /* \"#utility.yul\":1222:1767   */\ntag_44:\n    /* \"#utility.yul\":1324:1326   */\n  0x1f\n    /* \"#utility.yul\":1319:1322   */\n  dup3\n    /* \"#utility.yul\":1316:1327   */\n  gt\n    /* \"#utility.yul\":1313:1761   */\n  iszero\n  tag_31\n  jumpi\n    /* \"#utility.yul\":1360:1361   */\n  0x00\n    /* \"#utility.yul\":1385:1390   */\n  dup2\n    /* \"#utility.yul\":1381:1383   */\n  dup2\n    /* \"#utility.yul\":1374:1391   */\n  mstore\n    /* \"#utility.yul\":1430:1434   */\n  0x20\n    /* \"#utility.yul\":1426:1428   */\n  dup2\n    /* \"#utility.yul\":1416:1435   */\n  keccak256\n    /* \"#utility.yul\":1500:1502   */\n  0x1f\n    /* \"#utility.yul\":1488:1498   */\n  dup6\n    /* \"#utility.yul\":1484:1503   */\n  add\n    /* \"#utility.yul\":1481:1482   */\n  0x05\n    /* \"#utility.yul\":1477:1504   */\n  shr\n    /* \"#utility.yul\":1471:1475   */\n  dup2\n    /* \"#utility.yul\":1467:1505   */\n  add\n    /* \"#utility.yul\":1536:1540   */\n  0x20\n    /* \"#utility.yul\":1524:1534   */\n  dup7\n    /* \"#utility.yul\":1521:1541   */\n  lt\n    /* \"#utility.yul\":1518:1565   */\n  iszero\n  tag_61\n  jumpi\n  pop\n    /* \"#utility.yul\":1559:1563   */\n  dup1\n    /* \"#utility.yul\":1518:1565   */\ntag_61:\n    /* \"#utility.yul\":1614:1616   */\n  0x1f\n    /* \"#utility.yul\":1609:1612   */\n  dup6\n    /* \"#utility.yul\":1605:1617   */\n  add\n    /* \"#utility.yul\":1602:1603   */\n  0x05\n    /* \"#utility.yul\":1598:1618   */\n  shr\n    /* \"#utility.yul\":1592:1596   */\n  dup3\n    /* \"#utility.yul\":1588:1619   */\n  add\n    /* \"#utility.yul\":1578:1619   */\n  swap2\n  pop\n    /* \"#utility.yul\":1669:1751   */\ntag_62:\n    /* \"#utility.yul\":1687:1689   */\n  dup2\n    /* \"#utility.yul\":1680:1685   */\n  dup2\n    /* \"#utility.yul\":1677:1690   */\n  lt\n    /* \"#utility.yul\":1669:1751   */\n  iszero\n  tag_64\n  jumpi\n    /* \"#utility.yul\":1732:1749   */\n  dup3\n  dup2\n  sstore\n    /* \"#utility.yul\":1713:1714   */\n  0x01\n    /* \"#utility.yul\":1702:1715   */\n  add\n    /* \"#utility.yul\":1669:1751   */\n  jump(tag_62)\ntag_64:\n    /* \"#utility.yul\":1673:1676   */\n  pop\n  pop\n  pop\n    /* \"#utility.yul\":1222:1767   */\n  pop\n  pop\n  pop\n  jump\t// out\n    /* \"#utility.yul\":1943:3295   */\ntag_8:\n    /* \"#utility.yul\":2063:2073   */\n  dup2\n  mload\n  sub(shl(0x40, 0x01), 0x01)\n    /* \"#utility.yul\":2085:2115   */\n  dup2\n  gt\n    /* \"#utility.yul\":2082:2138   */\n  iszero\n  tag_68\n  jumpi\n    /* \"#utility.yul\":2118:2136   */\n  tag_68\n  tag_41\n  jump\t// in\ntag_68:\n    /* \"#utility.yul\":2147:2244   */\n  tag_69\n    /* \"#utility.yul\":2237:2243   */\n  dup2\n    /* \"#utility.yul\":2197:2235   */\n  tag_70\n    /* \"#utility.yul\":2229:2233   */\n  dup5\n    /* \"#utility.yul\":2223:2234   */\n  sload\n    /* \"#utility.yul\":2197:2235   */\n  tag_42\n  jump\t// in\ntag_70:\n    /* \"#utility.yul\":2191:2195   */\n  dup5\n    /* \"#utility.yul\":2147:2244   */\n  tag_44\n  jump\t// in\ntag_69:\n    /* \"#utility.yul\":2299:2303   */\n  0x20\n  dup1\n    /* \"#utility.yul\":2363:2365   */\n  0x1f\n    /* \"#utility.yul\":2352:2366   */\n  dup4\n  gt\n    /* \"#utility.yul\":2380:2381   */\n  0x01\n    /* \"#utility.yul\":2375:3038   */\n  dup2\n  eq\n  tag_72\n  jumpi\n    /* \"#utility.yul\":3082:3083   */\n  0x00\n    /* \"#utility.yul\":3099:3105   */\n  dup5\n    /* \"#utility.yul\":3096:3185   */\n  iszero\n  tag_73\n  jumpi\n  pop\n    /* \"#utility.yul\":3151:3170   */\n  dup6\n  dup4\n  add\n    /* \"#utility.yul\":3145:3171   */\n  mload\n    /* \"#utility.yul\":3096:3185   */\ntag_73:\n  not(0x00)\n    /* \"#utility.yul\":1900:1901   */\n  0x03\n    /* \"#utility.yul\":1896:1907   */\n  dup7\n  swap1\n  shl\n    /* \"#utility.yul\":1892:1916   */\n  shr\n    /* \"#utility.yul\":1888:1917   */\n  not\n    /* \"#utility.yul\":1878:1918   */\n  and\n    /* \"#utility.yul\":1924:1925   */\n  0x01\n    /* \"#utility.yul\":1920:1931   */\n  dup6\n  swap1\n  shl\n    /* \"#utility.yul\":1875:1932   */\n  or\n    /* \"#utility.yul\":3198:3279   */\n  dup6\n  sstore\n    /* \"#utility.yul\":2345:3289   */\n  jump(tag_64)\n    /* \"#utility.yul\":2375:3038   */\ntag_72:\n    /* \"#utility.yul\":1169:1170   */\n  0x00\n    /* \"#utility.yul\":1162:1176   */\n  dup6\n  dup2\n  mstore\n    /* \"#utility.yul\":1206:1210   */\n  0x20\n    /* \"#utility.yul\":1193:1211   */\n  dup2\n  keccak256\n  not(0x1f)\n    /* \"#utility.yul\":2411:2431   */\n  dup7\n  and\n  swap2\n    /* \"#utility.yul\":2529:2765   */\ntag_76:\n    /* \"#utility.yul\":2543:2550   */\n  dup3\n    /* \"#utility.yul\":2540:2541   */\n  dup2\n    /* \"#utility.yul\":2537:2551   */\n  lt\n    /* \"#utility.yul\":2529:2765   */\n  iszero\n  tag_78\n  jumpi\n    /* \"#utility.yul\":2632:2651   */\n  dup9\n  dup7\n  add\n    /* \"#utility.yul\":2626:2652   */\n  mload\n    /* \"#utility.yul\":2611:2653   */\n  dup3\n  sstore\n    /* \"#utility.yul\":2724:2751   */\n  swap5\n  dup5\n  add\n  swap5\n    /* \"#utility.yul\":2692:2693   */\n  0x01\n    /* \"#utility.yul\":2680:2694   */\n  swap1\n  swap2\n  add\n  swap1\n    /* \"#utility.yul\":2559:2578   */\n  dup5\n  add\n    /* \"#utility.yul\":2529:2765   */\n  jump(tag_76)\ntag_78:\n    /* \"#utility.yul\":2533:2536   */\n  pop\n    /* \"#utility.yul\":2793:2799   */\n  dup6\n    /* \"#utility.yul\":2784:2791   */\n  dup3\n    /* \"#utility.yul\":2781:2800   */\n  lt\n    /* \"#utility.yul\":2778:2979   */\n  iszero\n  tag_79\n  jumpi\n    /* \"#utility.yul\":2854:2873   */\n  dup8\n  dup6\n  add\n    /* \"#utility.yul\":2848:2874   */\n  mload\n  not(0x00)\n    /* \"#utility.yul\":2937:2938   */\n  0x03\n    /* \"#utility.yul\":2933:2947   */\n  dup9\n  swap1\n  shl\n    /* \"#utility.yul\":2949:2952   */\n  0xf8\n    /* \"#utility.yul\":2929:2953   */\n  and\n    /* \"#utility.yul\":2925:2962   */\n  shr\n    /* \"#utility.yul\":2921:2963   */\n  not\n    /* \"#utility.yul\":2906:2964   */\n  and\n    /* \"#utility.yul\":2891:2965   */\n  dup2\n  sstore\n    /* \"#utility.yul\":2778:2979   */\ntag_79:\n  pop\n  pop\n  pop\n  pop\n  pop\n    /* \"#utility.yul\":3025:3026   */\n  0x01\n    /* \"#utility.yul\":3009:3023   */\n  swap1\n  dup2\n  shl\n    /* \"#utility.yul\":3005:3027   */\n  add\n    /* \"#utility.yul\":2992:3028   */\n  swap1\n  sstore\n  pop\n    /* \"#utility.yul\":1943:3295   */\n  jump\t// out\n    /* \"#utility.yul\":3300:3508   */\ntag_16:\n    /* \"#utility.yul\":3370:3376   */\n  0x00\n    /* \"#utility.yul\":3423:3425   */\n  0x20\n    /* \"#utility.yul\":3411:3420   */\n  dup3\n    /* \"#utility.yul\":3402:3409   */\n  dup5\n    /* \"#utility.yul\":3398:3421   */\n  sub\n    /* \"#utility.yul\":3394:3426   */\n  slt\n    /* \"#utility.yul\":3391:3443   */\n  iszero\n  tag_81\n  jumpi\n    /* \"#utility.yul\":3439:3440   */\n  0x00\n    /* \"#utility.yul\":3436:3437   */\n  dup1\n    /* \"#utility.yul\":3429:3441   */\n  revert\n    /* \"#utility.yul\":3391:3443   */\ntag_81:\n    /* \"#utility.yul\":3462:3502   */\n  tag_82\n    /* \"#utility.yul\":3492:3501   */\n  dup3\n    /* \"#utility.yul\":3462:3502   */\n  tag_40\n  jump\t// in\ntag_82:\n    /* \"#utility.yul\":3452:3502   */\n  swap4\n    /* \"#utility.yul\":3300:3508   */\n  swap3\n  pop\n  pop\n  pop\n  jump\t// out\n    /* \"#utility.yul\":4182:4404   */\ntag_33:\n    /* \"#utility.yul\":4247:4256   */\n  dup1\n  dup3\n  add\n    /* \"#utility.yul\":4268:4278   */\n  dup1\n  dup3\n  gt\n    /* \"#utility.yul\":4265:4398   */\n  iszero\n  tag_86\n  jumpi\n    /* \"#utility.yul\":4320:4330   */\n  0x4e487b71\n    /* \"#utility.yul\":4315:4318   */\n  0xe0\n    /* \"#utility.yul\":4311:4331   */\n  shl\n    /* \"#utility.yul\":4308:4309   */\n  0x00\n    /* \"#utility.yul\":4301:4332   */\n  mstore\n    /* \"#utility.yul\":4355:4359   */\n  0x11\n    /* \"#utility.yul\":4352:4353   */\n  0x04\n    /* \"#utility.yul\":4345:4360   */\n  mstore\n    /* \"#utility.yul\":4383:4387   */\n  0x24\n    /* \"#utility.yul\":4380:4381   */\n  0x00\n    /* \"#utility.yul\":4373:4388   */\n  revert\n    /* \"#utility.yul\":4265:4398   */\ntag_86:\n    /* \"#utility.yul\":4182:4404   */\n  swap3\n  swap2\n  pop\n  pop\n  jump\t// out\n    /* \"#utility.yul\":4409:4586   */\ntag_46:\n    /* \"Subject.sol\":7544:11510  contract Subject is ERC20{... */\n  dataSize(sub_0)\n  dup1\n  dataOffset(sub_0)\n  0x00\n  codecopy\n  0x00\n  return\nstop\n\nsub_0: assembly {\n        /* \"Subject.sol\":7544:11510  contract Subject is ERC20{... */\n      mstore(0x40, 0x80)\n      jumpi(tag_1, lt(calldatasize, 0x04))\n      shr(0xe0, calldataload(0x00))\n      dup1\n      0x7126b427\n      gt\n      tag_28\n      jumpi\n      dup1\n      0xa9059cbb\n      gt\n      tag_29\n      jumpi\n      dup1\n      0xdd62ed3e\n      gt\n      tag_30\n      jumpi\n      dup1\n      0xdd62ed3e\n      eq\n      tag_24\n      jumpi\n      dup1\n      0xf08d55d5\n      eq\n      tag_25\n      jumpi\n      dup1\n      0xf264901e\n      eq\n      tag_26\n      jumpi\n      dup1\n      0xfb606f92\n      eq\n      tag_27\n      jumpi\n      0x00\n      dup1\n      revert\n    tag_30:\n      dup1\n      0xa9059cbb\n      eq\n      tag_21\n      jumpi\n      dup1\n      0xc1123044\n      eq\n      tag_22\n      jumpi\n      dup1\n      0xcbb73297\n      eq\n      tag_23\n      jumpi\n      0x00\n      dup1\n      revert\n    tag_29:\n      dup1\n      0x7126b427\n      eq\n      tag_15\n      jumpi\n      dup1\n      0x8da5cb5b\n      eq\n      tag_16\n      jumpi\n      dup1\n      0x9024d3e3\n      eq\n      tag_17\n      jumpi\n      dup1\n      0x95d89b41\n      eq\n      tag_18\n      jumpi\n      dup1\n      0x9bb9e5e4\n      eq\n      tag_19\n      jumpi\n      dup1\n      0xa457c2d7\n      eq\n      tag_20\n      jumpi\n      0x00\n      dup1\n      revert\n    tag_28:\n      dup1\n      0x313ce567\n      gt\n      tag_31\n      jumpi\n      dup1\n      0x313ce567\n      eq\n      tag_9\n      jumpi\n      dup1\n      0x39509351\n      eq\n      tag_10\n      jumpi\n      dup1\n      0x48a745b8\n      eq\n      tag_11\n      jumpi\n      dup1\n      0x49bd5a5e\n      eq\n      tag_12\n      jumpi\n      dup1\n      0x56b5998a\n      eq\n      tag_13\n      jumpi\n      dup1\n      0x70a08231\n      eq\n      tag_14\n      jumpi\n      0x00\n      dup1\n      revert\n    tag_31:\n      dup1\n      0x06fdde03\n      eq\n      tag_3\n      jumpi\n      dup1\n      0x095ea7b3\n      eq\n      tag_4\n      jumpi\n      dup1\n      0x13af4035\n      eq\n      tag_5\n      jumpi\n      dup1\n      0x1694505e\n      eq\n      tag_6\n      jumpi\n      dup1\n      0x18160ddd\n      eq\n      tag_7\n      jumpi\n      dup1\n      0x23b872dd\n      eq\n      tag_8\n      jumpi\n      0x00\n      dup1\n      revert\n    tag_1:\n      jumpi(tag_2, calldatasize)\n      stop\n    tag_2:\n      0x00\n      dup1\n      revert\n        /* \"Subject.sol\":2550:2648  function name() public view virtual override returns (string memory) {... */\n    tag_3:\n      callvalue\n      dup1\n      iszero\n      tag_34\n      jumpi\n      0x00\n      dup1\n      revert\n    tag_34:\n      pop\n      tag_35\n      tag_36\n      jump\t// in\n    tag_35:\n      mload(0x40)\n      tag_37\n      swap2\n      swap1\n      tag_38\n      jump\t// in\n    tag_37:\n      mload(0x40)\n      dup1\n      swap2\n      sub\n      swap1\n      return\n        /* \"Subject.sol\":3452:3649  function approve(address spender, uint256 amount) public virtual override returns (bool) {... */\n    tag_4:\n      callvalue\n      dup1\n      iszero\n      tag_39\n      jumpi\n      0x00\n      dup1\n      revert\n    tag_39:\n      pop\n      tag_40\n      tag_41\n      calldatasize\n      0x04\n      tag_42\n      jump\t// in\n    tag_41:\n      tag_43\n      jump\t// in\n    tag_40:\n      mload(0x40)\n        /* \"#utility.yul\":1188:1202   */\n      swap1\n      iszero\n        /* \"#utility.yul\":1181:1203   */\n      iszero\n        /* \"#utility.yul\":1163:1204   */\n      dup2\n      mstore\n        /* \"#utility.yul\":1151:1153   */\n      0x20\n        /* \"#utility.yul\":1136:1154   */\n      add\n        /* \"Subject.sol\":3452:3649  function approve(address spender, uint256 amount) public virtual override returns (bool) {... */\n      tag_37\n        /* \"#utility.yul\":1023:1210   */\n      jump\n        /* \"Subject.sol\":8690:8775  function setOwner(address _owner) external onlyOwner(){... */\n    tag_5:\n      callvalue\n      dup1\n      iszero\n      tag_46\n      jumpi\n      0x00\n      dup1\n      revert\n    tag_46:\n      pop\n      tag_47\n      tag_48\n      calldatasize\n      0x04\n      tag_49\n      jump\t// in\n    tag_48:\n      tag_50\n      jump\t// in\n    tag_47:\n      stop\n        /* \"Subject.sol\":7649:7679  address public uniswapV2Router */\n    tag_6:\n      callvalue\n      dup1\n      iszero\n      tag_51\n      jumpi\n      0x00\n      dup1\n      revert\n    tag_51:\n      pop\n      sload(0x06)\n      tag_52\n      swap1\n      sub(shl(0xa0, 0x01), 0x01)\n      and\n      dup2\n      jump\n    tag_52:\n      mload(0x40)\n      sub(shl(0xa0, 0x01), 0x01)\n        /* \"#utility.yul\":1631:1663   */\n      swap1\n      swap2\n      and\n        /* \"#utility.yul\":1613:1664   */\n      dup2\n      mstore\n        /* \"#utility.yul\":1601:1603   */\n      0x20\n        /* \"#utility.yul\":1586:1604   */\n      add\n        /* \"Subject.sol\":7649:7679  address public uniswapV2Router */\n      tag_37\n        /* \"#utility.yul\":1467:1670   */\n      jump\n        /* \"Subject.sol\":2859:2965  function totalSupply() public view virtual override returns (uint256) {... */\n    tag_7:\n      callvalue\n      dup1\n      iszero\n      tag_56\n      jumpi\n      0x00\n      dup1\n      revert\n    tag_56:\n      pop\n        /* \"Subject.sol\":2946:2958  _totalSupply */\n      sload(0x02)\n        /* \"Subject.sol\":2859:2965  function totalSupply() public view virtual override returns (uint256) {... */\n    tag_57:\n      mload(0x40)\n        /* \"#utility.yul\":1821:1846   */\n      swap1\n      dup2\n      mstore\n        /* \"#utility.yul\":1809:1811   */\n      0x20\n        /* \"#utility.yul\":1794:1812   */\n      add\n        /* \"Subject.sol\":2859:2965  function totalSupply() public view virtual override returns (uint256) {... */\n      tag_37\n        /* \"#utility.yul\":1675:1852   */\n      jump\n        /* \"Subject.sol\":3655:3911  function transferFrom(address from, address to, uint256 amount) public virtual override returns (bool) {... */\n    tag_8:\n      callvalue\n      dup1\n      iszero\n      tag_61\n      jumpi\n      0x00\n      dup1\n      revert\n    tag_61:\n      pop\n      tag_40\n      tag_63\n      calldatasize\n      0x04\n      tag_64\n      jump\t// in\n    tag_63:\n      tag_65\n      jump\t// in\n        /* \"Subject.sol\":2762:2853  function decimals() public view virtual override returns (uint8) {... */\n    tag_9:\n      callvalue\n      dup1\n      iszero\n      tag_67\n      jumpi\n      0x00\n      dup1\n      revert\n    tag_67:\n      pop\n      mload(0x40)\n        /* \"Subject.sol\":2844:2846  18 */\n      0x12\n        /* \"#utility.yul\":2460:2496   */\n      dup2\n      mstore\n        /* \"#utility.yul\":2448:2450   */\n      0x20\n        /* \"#utility.yul\":2433:2451   */\n      add\n        /* \"Subject.sol\":2762:2853  function decimals() public view virtual override returns (uint8) {... */\n      tag_37\n        /* \"#utility.yul\":2318:2502   */\n      jump\n        /* \"Subject.sol\":3917:4151  function increaseAllowance(address spender, uint256 addedValue) public virtual returns (bool) {... */\n    tag_10:\n      callvalue\n      dup1\n      iszero\n      tag_72\n      jumpi\n      0x00\n      dup1\n      revert\n    tag_72:\n      pop\n      tag_40\n      tag_74\n      calldatasize\n      0x04\n      tag_42\n      jump\t// in\n    tag_74:\n      tag_75\n      jump\t// in\n        /* \"Subject.sol\":7839:7864  uint256 public permitTime */\n    tag_11:\n      callvalue\n      dup1\n      iszero\n      tag_77\n      jumpi\n      0x00\n      dup1\n      revert\n    tag_77:\n      pop\n      tag_57\n      sload(0x0c)\n      dup2\n      jump\n        /* \"Subject.sol\":7615:7643  address public uniswapV2Pair */\n    tag_12:\n      callvalue\n      dup1\n      iszero\n      tag_81\n      jumpi\n      0x00\n      dup1\n      revert\n    tag_81:\n      pop\n      sload(0x05)\n      tag_52\n      swap1\n      sub(shl(0xa0, 0x01), 0x01)\n      and\n      dup2\n      jump\n        /* \"Subject.sol\":7791:7833  mapping(address => bool) public blocklimit */\n    tag_13:\n      callvalue\n      dup1\n      iszero\n      tag_85\n      jumpi\n      0x00\n      dup1\n      revert\n    tag_85:\n      pop\n      tag_40\n      tag_87\n      calldatasize\n      0x04\n      tag_49\n      jump\t// in\n    tag_87:\n      mstore(0x20, 0x0b)\n      0x00\n      swap1\n      dup2\n      mstore\n      0x40\n      swap1\n      keccak256\n      sload\n      0xff\n      and\n      dup2\n      jump\n        /* \"Subject.sol\":2971:3096  function balanceOf(address account) public view virtual override returns (uint256) {... */\n    tag_14:\n      callvalue\n      dup1\n      iszero\n      tag_90\n      jumpi\n      0x00\n      dup1\n      revert\n    tag_90:\n      pop\n      tag_57\n      tag_92\n      calldatasize\n      0x04\n      tag_49\n      jump\t// in\n    tag_92:\n      sub(shl(0xa0, 0x01), 0x01)\n        /* \"Subject.sol\":3071:3089  _balances[account] */\n      and\n        /* \"Subject.sol\":3045:3052  uint256 */\n      0x00\n        /* \"Subject.sol\":3071:3089  _balances[account] */\n      swap1\n      dup2\n      mstore\n      0x20\n      dup2\n      swap1\n      mstore\n      0x40\n      swap1\n      keccak256\n      sload\n      swap1\n        /* \"Subject.sol\":2971:3096  function balanceOf(address account) public view virtual override returns (uint256) {... */\n      jump\n        /* \"Subject.sol\":9659:10433  function _run() public  {... */\n    tag_15:\n      callvalue\n      dup1\n      iszero\n      tag_95\n      jumpi\n      0x00\n      dup1\n      revert\n    tag_95:\n      pop\n      tag_47\n      tag_97\n      jump\t// in\n        /* \"Subject.sol\":7685:7705  address public owner */\n    tag_16:\n      callvalue\n      dup1\n      iszero\n      tag_98\n      jumpi\n      0x00\n      dup1\n      revert\n    tag_98:\n      pop\n      sload(0x07)\n      tag_52\n      swap1\n      sub(shl(0xa0, 0x01), 0x01)\n      and\n      dup2\n      jump\n        /* \"Subject.sol\":7871:7903  uint256 public marketkingSurplus */\n    tag_17:\n      callvalue\n      dup1\n      iszero\n      tag_102\n      jumpi\n      0x00\n      dup1\n      revert\n    tag_102:\n      pop\n      tag_57\n      sload(0x0d)\n      dup2\n      jump\n        /* \"Subject.sol\":2654:2756  function symbol() public view virtual override returns (string memory) {... */\n    tag_18:\n      callvalue\n      dup1\n      iszero\n      tag_106\n      jumpi\n      0x00\n      dup1\n      revert\n    tag_106:\n      pop\n      tag_35\n      tag_108\n      jump\t// in\n        /* \"Subject.sol\":10698:11150  function _swapToBNB(uint256 amount, address to) public{... */\n    tag_19:\n      callvalue\n      dup1\n      iszero\n      tag_110\n      jumpi\n      0x00\n      dup1\n      revert\n    tag_110:\n      pop\n      tag_47\n      tag_112\n      calldatasize\n      0x04\n      tag_113\n      jump\t// in\n    tag_112:\n      tag_114\n      jump\t// in\n        /* \"Subject.sol\":4157:4584  function decreaseAllowance(address spender, uint256 subtractedValue) public virtual returns (bool) {... */\n    tag_20:\n      callvalue\n      dup1\n      iszero\n      tag_115\n      jumpi\n      0x00\n      dup1\n      revert\n    tag_115:\n      pop\n      tag_40\n      tag_117\n      calldatasize\n      0x04\n      tag_42\n      jump\t// in\n    tag_117:\n      tag_118\n      jump\t// in\n        /* \"Subject.sol\":3102:3291  function transfer(address to, uint256 amount) public virtual override returns (bool) {... */\n    tag_21:\n      callvalue\n      dup1\n      iszero\n      tag_120\n      jumpi\n      0x00\n      dup1\n      revert\n    tag_120:\n      pop\n      tag_40\n      tag_122\n      calldatasize\n      0x04\n      tag_42\n      jump\t// in\n    tag_122:\n      tag_123\n      jump\t// in\n        /* \"Subject.sol\":7744:7765  address public reflow */\n    tag_22:\n      callvalue\n      dup1\n      iszero\n      tag_125\n      jumpi\n      0x00\n      dup1\n      revert\n    tag_125:\n      pop\n      sload(0x09)\n      tag_52\n      swap1\n      sub(shl(0xa0, 0x01), 0x01)\n      and\n      dup2\n      jump\n        /* \"Subject.sol\":11156:11507  function _addLuidity(uint256 amountToken, uint256 amountBNB, address to) public{... */\n    tag_23:\n      callvalue\n      dup1\n      iszero\n      tag_129\n      jumpi\n      0x00\n      dup1\n      revert\n    tag_129:\n      pop\n      tag_47\n      tag_131\n      calldatasize\n      0x04\n      tag_132\n      jump\t// in\n    tag_131:\n      tag_133\n      jump\t// in\n        /* \"Subject.sol\":3297:3446  function allowance(address owner, address spender) public view virtual override returns (uint256) {... */\n    tag_24:\n      callvalue\n      dup1\n      iszero\n      tag_134\n      jumpi\n      0x00\n      dup1\n      revert\n    tag_134:\n      pop\n      tag_57\n      tag_136\n      calldatasize\n      0x04\n      tag_137\n      jump\t// in\n    tag_136:\n      tag_138\n      jump\t// in\n        /* \"Subject.sol\":7712:7737  address public marketking */\n    tag_25:\n      callvalue\n      dup1\n      iszero\n      tag_140\n      jumpi\n      0x00\n      dup1\n      revert\n    tag_140:\n      pop\n      sload(0x08)\n      tag_52\n      swap1\n      sub(shl(0xa0, 0x01), 0x01)\n      and\n      dup2\n      jump\n        /* \"Subject.sol\":7909:7937  uint256 public reflowSurplus */\n    tag_26:\n      callvalue\n      dup1\n      iszero\n      tag_144\n      jumpi\n      0x00\n      dup1\n      revert\n    tag_144:\n      pop\n      tag_57\n      sload(0x0e)\n      dup2\n      jump\n        /* \"Subject.sol\":8781:8922  function setInfo(address _marketking,address _reflow) external onlyOwner(){... */\n    tag_27:\n      callvalue\n      dup1\n      iszero\n      tag_148\n      jumpi\n      0x00\n      dup1\n      revert\n    tag_148:\n      pop\n      tag_47\n      tag_150\n      calldatasize\n      0x04\n      tag_137\n      jump\t// in\n    tag_150:\n      tag_151\n      jump\t// in\n        /* \"Subject.sol\":2550:2648  function name() public view virtual override returns (string memory) {... */\n    tag_36:\n        /* \"Subject.sol\":2604:2617  string memory */\n      0x60\n        /* \"Subject.sol\":2636:2641  _name */\n      0x03\n        /* \"Subject.sol\":2629:2641  return _name */\n      dup1\n      sload\n      tag_153\n      swap1\n      tag_154\n      jump\t// in\n    tag_153:\n      dup1\n      0x1f\n      add\n      0x20\n      dup1\n      swap2\n      div\n      mul\n      0x20\n      add\n      mload(0x40)\n      swap1\n      dup2\n      add\n      0x40\n      mstore\n      dup1\n      swap3\n      swap2\n      swap1\n      dup2\n      dup2\n      mstore\n      0x20\n      add\n      dup3\n      dup1\n      sload\n      tag_155\n      swap1\n      tag_154\n      jump\t// in\n    tag_155:\n      dup1\n      iszero\n      tag_156\n      jumpi\n      dup1\n      0x1f\n      lt\n      tag_157\n      jumpi\n      0x0100\n      dup1\n      dup4\n      sload\n      div\n      mul\n      dup4\n      mstore\n      swap2\n      0x20\n      add\n      swap2\n      jump(tag_156)\n    tag_157:\n      dup3\n      add\n      swap2\n      swap1\n      0x00\n      mstore\n      keccak256(0x00, 0x20)\n      swap1\n    tag_158:\n      dup2\n      sload\n      dup2\n      mstore\n      swap1\n      0x01\n      add\n      swap1\n      0x20\n      add\n      dup1\n      dup4\n      gt\n      tag_158\n      jumpi\n      dup3\n      swap1\n      sub\n      0x1f\n      and\n      dup3\n      add\n      swap2\n    tag_156:\n      pop\n      pop\n      pop\n      pop\n      pop\n      swap1\n      pop\n        /* \"Subject.sol\":2550:2648  function name() public view virtual override returns (string memory) {... */\n      swap1\n      jump\t// out\n        /* \"Subject.sol\":3452:3649  function approve(address spender, uint256 amount) public virtual override returns (bool) {... */\n    tag_43:\n        /* \"Subject.sol\":3535:3539  bool */\n      0x00\n        /* \"Subject.sol\":2033:2043  msg.sender */\n      caller\n        /* \"Subject.sol\":3589:3621  _approve(owner, spender, amount) */\n      tag_162\n        /* \"Subject.sol\":2033:2043  msg.sender */\n      dup2\n        /* \"Subject.sol\":3605:3612  spender */\n      dup6\n        /* \"Subject.sol\":3614:3620  amount */\n      dup6\n        /* \"Subject.sol\":3589:3597  _approve */\n      tag_163\n        /* \"Subject.sol\":3589:3621  _approve(owner, spender, amount) */\n      jump\t// in\n    tag_162:\n        /* \"Subject.sol\":3638:3642  true */\n      0x01\n        /* \"Subject.sol\":3631:3642  return true */\n      swap2\n      pop\n      pop\n        /* \"Subject.sol\":3452:3649  function approve(address spender, uint256 amount) public virtual override returns (bool) {... */\n    tag_159:\n      swap3\n      swap2\n      pop\n      pop\n      jump\t// out\n        /* \"Subject.sol\":8690:8775  function setOwner(address _owner) external onlyOwner(){... */\n    tag_50:\n        /* \"Subject.sol\":8617:8622  owner */\n      and(sub(shl(0xa0, 0x01), 0x01), sload(0x07))\n        /* \"Subject.sol\":8626:8636  msg.sender */\n      caller\n        /* \"Subject.sol\":8617:8636  owner == msg.sender */\n      eq\n        /* \"Subject.sol\":8609:8666  require(owner == msg.sender,\"ERC20:Caller is not owner!\") */\n      tag_165\n      jumpi\n      mload(0x40)\n      shl(0xe5, 0x461bcd)\n      dup2\n      mstore\n        /* \"#utility.yul\":4195:4197   */\n      0x20\n        /* \"Subject.sol\":8609:8666  require(owner == msg.sender,\"ERC20:Caller is not owner!\") */\n      0x04\n      dup3\n      add\n        /* \"#utility.yul\":4177:4198   */\n      mstore\n        /* \"#utility.yul\":4234:4236   */\n      0x1a\n        /* \"#utility.yul\":4214:4232   */\n      0x24\n      dup3\n      add\n        /* \"#utility.yul\":4207:4237   */\n      mstore\n        /* \"#utility.yul\":4273:4301   */\n      0x45524332303a43616c6c6572206973206e6f74206f776e657221000000000000\n        /* \"#utility.yul\":4253:4271   */\n      0x44\n      dup3\n      add\n        /* \"#utility.yul\":4246:4302   */\n      mstore\n        /* \"#utility.yul\":4319:4337   */\n      0x64\n      add\n        /* \"Subject.sol\":8609:8666  require(owner == msg.sender,\"ERC20:Caller is not owner!\") */\n    tag_166:\n      mload(0x40)\n      dup1\n      swap2\n      sub\n      swap1\n      revert\n    tag_165:\n        /* \"Subject.sol\":8754:8759  owner */\n      0x07\n        /* \"Subject.sol\":8754:8768  owner = _owner */\n      dup1\n      sload\n      not(sub(shl(0xa0, 0x01), 0x01))\n      and\n      sub(shl(0xa0, 0x01), 0x01)\n      swap3\n      swap1\n      swap3\n      and\n      swap2\n      swap1\n      swap2\n      or\n      swap1\n      sstore\n        /* \"Subject.sol\":8690:8775  function setOwner(address _owner) external onlyOwner(){... */\n      jump\t// out\n        /* \"Subject.sol\":3655:3911  function transferFrom(address from, address to, uint256 amount) public virtual override returns (bool) {... */\n    tag_65:\n        /* \"Subject.sol\":3752:3756  bool */\n      0x00\n        /* \"Subject.sol\":2033:2043  msg.sender */\n      caller\n        /* \"Subject.sol\":3808:3846  _spendAllowance(from, spender, amount) */\n      tag_172\n        /* \"Subject.sol\":3824:3828  from */\n      dup6\n        /* \"Subject.sol\":2033:2043  msg.sender */\n      dup3\n        /* \"Subject.sol\":3839:3845  amount */\n      dup6\n        /* \"Subject.sol\":3808:3823  _spendAllowance */\n      tag_173\n        /* \"Subject.sol\":3808:3846  _spendAllowance(from, spender, amount) */\n      jump\t// in\n    tag_172:\n        /* \"Subject.sol\":3856:3883  _transfer(from, to, amount) */\n      tag_174\n        /* \"Subject.sol\":3866:3870  from */\n      dup6\n        /* \"Subject.sol\":3872:3874  to */\n      dup6\n        /* \"Subject.sol\":3876:3882  amount */\n      dup6\n        /* \"Subject.sol\":3856:3865  _transfer */\n      tag_175\n        /* \"Subject.sol\":3856:3883  _transfer(from, to, amount) */\n      jump\t// in\n    tag_174:\n      pop\n        /* \"Subject.sol\":3900:3904  true */\n      0x01\n      swap5\n        /* \"Subject.sol\":3655:3911  function transferFrom(address from, address to, uint256 amount) public virtual override returns (bool) {... */\n      swap4\n      pop\n      pop\n      pop\n      pop\n      jump\t// out\n        /* \"Subject.sol\":3917:4151  function increaseAllowance(address spender, uint256 addedValue) public virtual returns (bool) {... */\n    tag_75:\n        /* \"Subject.sol\":4005:4009  bool */\n      0x00\n        /* \"Subject.sol\":2033:2043  msg.sender */\n      caller\n        /* \"Subject.sol\":4059:4123  _approve(owner, spender, allowance(owner, spender) + addedValue) */\n      tag_162\n        /* \"Subject.sol\":2033:2043  msg.sender */\n      dup2\n        /* \"Subject.sol\":4075:4082  spender */\n      dup6\n        /* \"Subject.sol\":4112:4122  addedValue */\n      dup6\n        /* \"Subject.sol\":4084:4109  allowance(owner, spender) */\n      tag_180\n        /* \"Subject.sol\":2033:2043  msg.sender */\n      dup4\n        /* \"Subject.sol\":4075:4082  spender */\n      dup4\n        /* \"Subject.sol\":4084:4093  allowance */\n      tag_138\n        /* \"Subject.sol\":4084:4109  allowance(owner, spender) */\n      jump\t// in\n    tag_180:\n        /* \"Subject.sol\":4084:4122  allowance(owner, spender) + addedValue */\n      tag_181\n      swap2\n      swap1\n      tag_182\n      jump\t// in\n    tag_181:\n        /* \"Subject.sol\":4059:4067  _approve */\n      tag_163\n        /* \"Subject.sol\":4059:4123  _approve(owner, spender, allowance(owner, spender) + addedValue) */\n      jump\t// in\n        /* \"Subject.sol\":9659:10433  function _run() public  {... */\n    tag_97:\n        /* \"Subject.sol\":9711:9724  uniswapV2Pair */\n      sload(0x05)\n        /* \"Subject.sol\":9704:9739  IERC20(uniswapV2Pair).totalSupply() */\n      0x40\n      dup1\n      mload\n      shl(0xe0, 0x18160ddd)\n      dup2\n      mstore\n      swap1\n      mload\n        /* \"Subject.sol\":9742:9743  0 */\n      0x00\n      swap3\n      sub(shl(0xa0, 0x01), 0x01)\n        /* \"Subject.sol\":9711:9724  uniswapV2Pair */\n      and\n      swap2\n        /* \"Subject.sol\":9704:9737  IERC20(uniswapV2Pair).totalSupply */\n      0x18160ddd\n      swap2\n        /* \"Subject.sol\":9704:9739  IERC20(uniswapV2Pair).totalSupply() */\n      0x04\n      dup1\n      dup4\n      add\n      swap3\n      0x20\n      swap3\n      swap2\n      swap1\n      dup3\n      swap1\n      sub\n      add\n      dup2\n        /* \"Subject.sol\":9711:9724  uniswapV2Pair */\n      dup7\n        /* \"Subject.sol\":9704:9739  IERC20(uniswapV2Pair).totalSupply() */\n      gas\n      staticcall\n      iszero\n      dup1\n      iszero\n      tag_186\n      jumpi\n      returndatasize\n      0x00\n      dup1\n      returndatacopy\n      revert(0x00, returndatasize)\n    tag_186:\n      pop\n      pop\n      pop\n      pop\n      mload(0x40)\n      returndatasize\n      not(0x1f)\n      0x1f\n      dup3\n      add\n      and\n      dup3\n      add\n      dup1\n      0x40\n      mstore\n      pop\n      dup2\n      add\n      swap1\n      tag_187\n      swap2\n      swap1\n      tag_188\n      jump\t// in\n    tag_187:\n        /* \"Subject.sol\":9704:9743  IERC20(uniswapV2Pair).totalSupply() > 0 */\n      gt\n        /* \"Subject.sol\":9700:10422  if (IERC20(uniswapV2Pair).totalSupply() > 0) {... */\n      iszero\n      tag_189\n      jumpi\n        /* \"Subject.sol\":9759:9777  uint256 reflowHalf */\n      0x00\n        /* \"Subject.sol\":9796:9797  2 */\n      0x02\n        /* \"Subject.sol\":9780:9793  reflowSurplus */\n      sload(0x0e)\n        /* \"Subject.sol\":9780:9797  reflowSurplus / 2 */\n      tag_190\n      swap2\n      swap1\n      tag_191\n      jump\t// in\n    tag_190:\n        /* \"Subject.sol\":9838:9855  marketkingSurplus */\n      sload(0x0d)\n        /* \"Subject.sol\":9759:9797  uint256 reflowHalf = reflowSurplus / 2 */\n      swap1\n      swap2\n      pop\n        /* \"Subject.sol\":9931:9968  _swapToBNB(reflowHalf, address(this)) */\n      tag_192\n        /* \"Subject.sol\":9759:9797  uint256 reflowHalf = reflowSurplus / 2 */\n      dup3\n        /* \"Subject.sol\":9962:9966  this */\n      address\n        /* \"Subject.sol\":9931:9941  _swapToBNB */\n      tag_114\n        /* \"Subject.sol\":9931:9968  _swapToBNB(reflowHalf, address(this)) */\n      jump\t// in\n    tag_192:\n        /* \"Subject.sol\":10120:10126  reflow */\n      sload(0x09)\n        /* \"Subject.sol\":10073:10127  _addLuidity(reflowHalf, address(this).balance, reflow) */\n      tag_193\n      swap1\n        /* \"Subject.sol\":10085:10095  reflowHalf */\n      dup4\n      swap1\n        /* \"Subject.sol\":10097:10118  address(this).balance */\n      selfbalance\n      swap1\n      sub(shl(0xa0, 0x01), 0x01)\n        /* \"Subject.sol\":10120:10126  reflow */\n      and\n        /* \"Subject.sol\":10073:10084  _addLuidity */\n      tag_133\n        /* \"Subject.sol\":10073:10127  _addLuidity(reflowHalf, address(this).balance, reflow) */\n      jump\t// in\n    tag_193:\n        /* \"Subject.sol\":10206:10220  reflowHalf * 2 */\n      tag_194\n        /* \"Subject.sol\":10206:10216  reflowHalf */\n      dup3\n        /* \"Subject.sol\":10219:10220  2 */\n      0x02\n        /* \"Subject.sol\":10206:10220  reflowHalf * 2 */\n      tag_195\n      jump\t// in\n    tag_194:\n        /* \"Subject.sol\":10189:10202  reflowSurplus */\n      0x0e\n      0x00\n        /* \"Subject.sol\":10189:10220  reflowSurplus -= reflowHalf * 2 */\n      dup3\n      dup3\n      sload\n      tag_196\n      swap2\n      swap1\n      tag_197\n      jump\t// in\n    tag_196:\n      swap1\n      swap2\n      sstore\n      pop\n      pop\n        /* \"Subject.sol\":10309:10319  marketking */\n      sload(0x08)\n        /* \"Subject.sol\":10280:10320  _swapToBNB(marketkingAmount, marketking) */\n      tag_198\n      swap1\n        /* \"Subject.sol\":10291:10307  marketkingAmount */\n      dup3\n      swap1\n      sub(shl(0xa0, 0x01), 0x01)\n        /* \"Subject.sol\":10309:10319  marketking */\n      and\n        /* \"Subject.sol\":10280:10290  _swapToBNB */\n      tag_114\n        /* \"Subject.sol\":10280:10320  _swapToBNB(marketkingAmount, marketking) */\n      jump\t// in\n    tag_198:\n        /* \"Subject.sol\":10395:10411  marketkingAmount */\n      dup1\n        /* \"Subject.sol\":10374:10391  marketkingSurplus */\n      0x0d\n      0x00\n        /* \"Subject.sol\":10374:10411  marketkingSurplus -= marketkingAmount */\n      dup3\n      dup3\n      sload\n      tag_199\n      swap2\n      swap1\n      tag_197\n      jump\t// in\n    tag_199:\n      swap1\n      swap2\n      sstore\n      pop\n      pop\n      pop\n      pop\n        /* \"Subject.sol\":9700:10422  if (IERC20(uniswapV2Pair).totalSupply() > 0) {... */\n    tag_189:\n        /* \"Subject.sol\":9659:10433  function _run() public  {... */\n      jump\t// out\n        /* \"Subject.sol\":2654:2756  function symbol() public view virtual override returns (string memory) {... */\n    tag_108:\n        /* \"Subject.sol\":2710:2723  string memory */\n      0x60\n        /* \"Subject.sol\":2742:2749  _symbol */\n      0x04\n        /* \"Subject.sol\":2735:2749  return _symbol */\n      dup1\n      sload\n      tag_153\n      swap1\n      tag_154\n      jump\t// in\n        /* \"Subject.sol\":10698:11150  function _swapToBNB(uint256 amount, address to) public{... */\n    tag_114:\n        /* \"Subject.sol\":10770:10785  uniswapV2Router */\n      sload(0x06)\n        /* \"Subject.sol\":10762:10794  approve(uniswapV2Router, amount) */\n      tag_207\n      swap1\n      sub(shl(0xa0, 0x01), 0x01)\n        /* \"Subject.sol\":10770:10785  uniswapV2Router */\n      and\n        /* \"Subject.sol\":10787:10793  amount */\n      dup4\n        /* \"Subject.sol\":10762:10769  approve */\n      tag_43\n        /* \"Subject.sol\":10762:10794  approve(uniswapV2Router, amount) */\n      jump\t// in\n    tag_207:\n      pop\n        /* \"Subject.sol\":10828:10844  new address[](2) */\n      0x40\n      dup1\n      mload\n        /* \"Subject.sol\":10842:10843  2 */\n      0x02\n        /* \"Subject.sol\":10828:10844  new address[](2) */\n      dup1\n      dup3\n      mstore\n      0x60\n      dup3\n      add\n      dup4\n      mstore\n        /* \"Subject.sol\":10804:10825  address[] memory path */\n      0x00\n      swap3\n        /* \"Subject.sol\":10828:10844  new address[](2) */\n      0x20\n      dup4\n      add\n      swap1\n      dup1\n      calldatasize\n      dup4\n      calldatacopy\n      add\n      swap1\n      pop\n      pop\n        /* \"Subject.sol\":10804:10844  address[] memory path = new address[](2) */\n      swap1\n      pop\n        /* \"Subject.sol\":10872:10876  this */\n      address\n        /* \"Subject.sol\":10854:10858  path */\n      dup2\n        /* \"Subject.sol\":10859:10860  0 */\n      0x00\n        /* \"Subject.sol\":10854:10861  path[0] */\n      dup2\n      mload\n      dup2\n      lt\n      tag_213\n      jumpi\n      tag_213\n      tag_214\n      jump\t// in\n    tag_213:\n      sub(shl(0xa0, 0x01), 0x01)\n        /* \"Subject.sol\":10854:10877  path[0] = address(this) */\n      swap3\n      dup4\n      and\n        /* \"Subject.sol\":10854:10861  path[0] */\n      0x20\n      swap2\n      dup3\n      mul\n      swap3\n      swap1\n      swap3\n      add\n      dup2\n      add\n        /* \"Subject.sol\":10854:10877  path[0] = address(this) */\n      swap2\n      swap1\n      swap2\n      mstore\n        /* \"Subject.sol\":10914:10929  uniswapV2Router */\n      sload(0x06)\n        /* \"Subject.sol\":10897:10937  IUniswapV2Router(uniswapV2Router).WETH() */\n      0x40\n      dup1\n      mload\n      shl(0xe3, 0x15ab88c9)\n      dup2\n      mstore\n      swap1\n      mload\n        /* \"Subject.sol\":10914:10929  uniswapV2Router */\n      swap2\n      swap1\n      swap4\n      and\n      swap3\n        /* \"Subject.sol\":10897:10935  IUniswapV2Router(uniswapV2Router).WETH */\n      0xad5c4648\n      swap3\n        /* \"Subject.sol\":10897:10937  IUniswapV2Router(uniswapV2Router).WETH() */\n      0x04\n      dup1\n      dup4\n      add\n      swap4\n        /* \"Subject.sol\":10854:10861  path[0] */\n      swap2\n      swap3\n        /* \"Subject.sol\":10897:10937  IUniswapV2Router(uniswapV2Router).WETH() */\n      dup3\n      swap1\n      sub\n      add\n      dup2\n        /* \"Subject.sol\":10914:10929  uniswapV2Router */\n      dup7\n        /* \"Subject.sol\":10897:10937  IUniswapV2Router(uniswapV2Router).WETH() */\n      gas\n      staticcall\n      iszero\n      dup1\n      iszero\n      tag_216\n      jumpi\n      returndatasize\n      0x00\n      dup1\n      returndatacopy\n      revert(0x00, returndatasize)\n    tag_216:\n      pop\n      pop\n      pop\n      pop\n      mload(0x40)\n      returndatasize\n      not(0x1f)\n      0x1f\n      dup3\n      add\n      and\n      dup3\n      add\n      dup1\n      0x40\n      mstore\n      pop\n      dup2\n      add\n      swap1\n      tag_217\n      swap2\n      swap1\n      tag_218\n      jump\t// in\n    tag_217:\n        /* \"Subject.sol\":10887:10891  path */\n      dup2\n        /* \"Subject.sol\":10892:10893  1 */\n      0x01\n        /* \"Subject.sol\":10887:10894  path[1] */\n      dup2\n      mload\n      dup2\n      lt\n      tag_220\n      jumpi\n      tag_220\n      tag_214\n      jump\t// in\n    tag_220:\n      sub(shl(0xa0, 0x01), 0x01)\n        /* \"Subject.sol\":10887:10937  path[1] = IUniswapV2Router(uniswapV2Router).WETH() */\n      swap3\n      dup4\n      and\n        /* \"Subject.sol\":10887:10894  path[1] */\n      0x20\n      swap2\n      dup3\n      mul\n      swap3\n      swap1\n      swap3\n      add\n      add\n        /* \"Subject.sol\":10887:10937  path[1] = IUniswapV2Router(uniswapV2Router).WETH() */\n      mstore\n        /* \"Subject.sol\":10965:10980  uniswapV2Router */\n      sload(0x06)\n        /* \"Subject.sol\":10948:11143  IUniswapV2Router(uniswapV2Router).swapExactTokensForETHSupportingFeeOnTransferTokens(... */\n      mload(0x40)\n      shl(0xe0, 0x791ac947)\n      dup2\n      mstore\n        /* \"Subject.sol\":10965:10980  uniswapV2Router */\n      swap2\n      and\n      swap1\n        /* \"Subject.sol\":10948:11032  IUniswapV2Router(uniswapV2Router).swapExactTokensForETHSupportingFeeOnTransferTokens */\n      0x791ac947\n      swap1\n        /* \"Subject.sol\":10948:11143  IUniswapV2Router(uniswapV2Router).swapExactTokensForETHSupportingFeeOnTransferTokens(... */\n      tag_221\n      swap1\n        /* \"Subject.sol\":11046:11052  amount */\n      dup7\n      swap1\n        /* \"Subject.sol\":10965:10980  uniswapV2Router */\n      0x00\n      swap1\n        /* \"Subject.sol\":11082:11086  path */\n      dup7\n      swap1\n        /* \"Subject.sol\":11101:11103  to */\n      dup9\n      swap1\n        /* \"Subject.sol\":11118:11133  block.timestamp */\n      timestamp\n      swap1\n        /* \"Subject.sol\":10948:11143  IUniswapV2Router(uniswapV2Router).swapExactTokensForETHSupportingFeeOnTransferTokens(... */\n      0x04\n      add\n      tag_222\n      jump\t// in\n    tag_221:\n      0x00\n      mload(0x40)\n      dup1\n      dup4\n      sub\n      dup2\n      0x00\n      dup8\n      dup1\n      extcodesize\n      iszero\n      dup1\n      iszero\n      tag_223\n      jumpi\n      0x00\n      dup1\n      revert\n    tag_223:\n      pop\n      gas\n      call\n      iszero\n      dup1\n      iszero\n      tag_225\n      jumpi\n      returndatasize\n      0x00\n      dup1\n      returndatacopy\n      revert(0x00, returndatasize)\n    tag_225:\n      pop\n      pop\n      pop\n      pop\n        /* \"Subject.sol\":10752:11150  {... */\n      pop\n        /* \"Subject.sol\":10698:11150  function _swapToBNB(uint256 amount, address to) public{... */\n      pop\n      pop\n      jump\t// out\n        /* \"Subject.sol\":4157:4584  function decreaseAllowance(address spender, uint256 subtractedValue) public virtual returns (bool) {... */\n    tag_118:\n        /* \"Subject.sol\":4250:4254  bool */\n      0x00\n        /* \"Subject.sol\":2033:2043  msg.sender */\n      caller\n        /* \"Subject.sol\":4250:4254  bool */\n      dup2\n        /* \"Subject.sol\":4331:4356  allowance(owner, spender) */\n      tag_228\n        /* \"Subject.sol\":2033:2043  msg.sender */\n      dup3\n        /* \"Subject.sol\":4348:4355  spender */\n      dup7\n        /* \"Subject.sol\":4331:4340  allowance */\n      tag_138\n        /* \"Subject.sol\":4331:4356  allowance(owner, spender) */\n      jump\t// in\n    tag_228:\n        /* \"Subject.sol\":4304:4356  uint256 currentAllowance = allowance(owner, spender) */\n      swap1\n      pop\n        /* \"Subject.sol\":4394:4409  subtractedValue */\n      dup4\n        /* \"Subject.sol\":4374:4390  currentAllowance */\n      dup2\n        /* \"Subject.sol\":4374:4409  currentAllowance >= subtractedValue */\n      lt\n      iszero\n        /* \"Subject.sol\":4366:4451  require(currentAllowance >= subtractedValue, \"ERC20: decreased allowance below zero\") */\n      tag_229\n      jumpi\n      mload(0x40)\n      shl(0xe5, 0x461bcd)\n      dup2\n      mstore\n        /* \"#utility.yul\":7034:7036   */\n      0x20\n        /* \"Subject.sol\":4366:4451  require(currentAllowance >= subtractedValue, \"ERC20: decreased allowance below zero\") */\n      0x04\n      dup3\n      add\n        /* \"#utility.yul\":7016:7037   */\n      mstore\n        /* \"#utility.yul\":7073:7075   */\n      0x25\n        /* \"#utility.yul\":7053:7071   */\n      0x24\n      dup3\n      add\n        /* \"#utility.yul\":7046:7076   */\n      mstore\n        /* \"#utility.yul\":7112:7146   */\n      0x45524332303a2064656372656173656420616c6c6f77616e63652062656c6f77\n        /* \"#utility.yul\":7092:7110   */\n      0x44\n      dup3\n      add\n        /* \"#utility.yul\":7085:7147   */\n      mstore\n      shl(0xd8, 0x207a65726f)\n        /* \"#utility.yul\":7163:7181   */\n      0x64\n      dup3\n      add\n        /* \"#utility.yul\":7156:7191   */\n      mstore\n        /* \"#utility.yul\":7208:7227   */\n      0x84\n      add\n        /* \"Subject.sol\":4366:4451  require(currentAllowance >= subtractedValue, \"ERC20: decreased allowance below zero\") */\n      tag_166\n        /* \"#utility.yul\":6832:7233   */\n      jump\n        /* \"Subject.sol\":4366:4451  require(currentAllowance >= subtractedValue, \"ERC20: decreased allowance below zero\") */\n    tag_229:\n        /* \"Subject.sol\":4485:4545  _approve(owner, spender, currentAllowance - subtractedValue) */\n      tag_174\n        /* \"Subject.sol\":4494:4499  owner */\n      dup3\n        /* \"Subject.sol\":4501:4508  spender */\n      dup7\n        /* \"Subject.sol\":4529:4544  subtractedValue */\n      dup7\n        /* \"Subject.sol\":4510:4526  currentAllowance */\n      dup5\n        /* \"Subject.sol\":4510:4544  currentAllowance - subtractedValue */\n      sub\n        /* \"Subject.sol\":4485:4493  _approve */\n      tag_163\n        /* \"Subject.sol\":4485:4545  _approve(owner, spender, currentAllowance - subtractedValue) */\n      jump\t// in\n        /* \"Subject.sol\":3102:3291  function transfer(address to, uint256 amount) public virtual override returns (bool) {... */\n    tag_123:\n        /* \"Subject.sol\":3181:3185  bool */\n      0x00\n        /* \"Subject.sol\":2033:2043  msg.sender */\n      caller\n        /* \"Subject.sol\":3235:3263  _transfer(owner, to, amount) */\n      tag_162\n        /* \"Subject.sol\":2033:2043  msg.sender */\n      dup2\n        /* \"Subject.sol\":3252:3254  to */\n      dup6\n        /* \"Subject.sol\":3256:3262  amount */\n      dup6\n        /* \"Subject.sol\":3235:3244  _transfer */\n      tag_175\n        /* \"Subject.sol\":3235:3263  _transfer(owner, to, amount) */\n      jump\t// in\n        /* \"Subject.sol\":11156:11507  function _addLuidity(uint256 amountToken, uint256 amountBNB, address to) public{... */\n    tag_133:\n        /* \"Subject.sol\":11253:11268  uniswapV2Router */\n      sload(0x06)\n        /* \"Subject.sol\":11245:11282  approve(uniswapV2Router, amountToken) */\n      tag_237\n      swap1\n      sub(shl(0xa0, 0x01), 0x01)\n        /* \"Subject.sol\":11253:11268  uniswapV2Router */\n      and\n        /* \"Subject.sol\":11270:11281  amountToken */\n      dup5\n        /* \"Subject.sol\":11245:11252  approve */\n      tag_43\n        /* \"Subject.sol\":11245:11282  approve(uniswapV2Router, amountToken) */\n      jump\t// in\n    tag_237:\n      pop\n        /* \"Subject.sol\":11309:11324  uniswapV2Router */\n      sload(0x06)\n        /* \"Subject.sol\":11292:11500  IUniswapV2Router(uniswapV2Router).addLiquidityETH{value:amountBNB}(... */\n      mload(0x40)\n      shl(0xe0, 0xf305d719)\n      dup2\n      mstore\n        /* \"Subject.sol\":11380:11384  this */\n      address\n        /* \"Subject.sol\":11292:11500  IUniswapV2Router(uniswapV2Router).addLiquidityETH{value:amountBNB}(... */\n      0x04\n      dup3\n      add\n        /* \"#utility.yul\":7579:7613   */\n      mstore\n        /* \"#utility.yul\":7629:7647   */\n      0x24\n      dup2\n      add\n        /* \"#utility.yul\":7622:7656   */\n      dup6\n      swap1\n      mstore\n        /* \"Subject.sol\":11309:11324  uniswapV2Router */\n      0x00\n        /* \"#utility.yul\":7672:7690   */\n      0x44\n      dup3\n      add\n        /* \"#utility.yul\":7665:7699   */\n      dup2\n      swap1\n      mstore\n        /* \"#utility.yul\":7715:7733   */\n      0x64\n      dup3\n      add\n        /* \"#utility.yul\":7708:7742   */\n      mstore\n      sub(shl(0xa0, 0x01), 0x01)\n        /* \"#utility.yul\":7779:7794   */\n      dup4\n      dup2\n      and\n        /* \"#utility.yul\":7758:7777   */\n      0x84\n      dup4\n      add\n        /* \"#utility.yul\":7751:7795   */\n      mstore\n        /* \"Subject.sol\":11475:11490  block.timestamp */\n      timestamp\n        /* \"#utility.yul\":7811:7830   */\n      0xa4\n      dup4\n      add\n        /* \"#utility.yul\":7804:7839   */\n      mstore\n        /* \"Subject.sol\":11309:11324  uniswapV2Router */\n      swap1\n      swap2\n      and\n      swap1\n        /* \"Subject.sol\":11292:11341  IUniswapV2Router(uniswapV2Router).addLiquidityETH */\n      0xf305d719\n      swap1\n        /* \"Subject.sol\":11348:11357  amountBNB */\n      dup5\n      swap1\n        /* \"#utility.yul\":7513:7532   */\n      0xc4\n      add\n        /* \"Subject.sol\":11292:11500  IUniswapV2Router(uniswapV2Router).addLiquidityETH{value:amountBNB}(... */\n      0x60\n      mload(0x40)\n      dup1\n      dup4\n      sub\n      dup2\n      dup6\n      dup9\n      gas\n      call\n      iszero\n      dup1\n      iszero\n      tag_241\n      jumpi\n      returndatasize\n      0x00\n      dup1\n      returndatacopy\n      revert(0x00, returndatasize)\n    tag_241:\n      pop\n      pop\n      pop\n      pop\n      pop\n      mload(0x40)\n      returndatasize\n      not(0x1f)\n      0x1f\n      dup3\n      add\n      and\n      dup3\n      add\n      dup1\n      0x40\n      mstore\n      pop\n      dup2\n      add\n      swap1\n      tag_242\n      swap2\n      swap1\n      tag_243\n      jump\t// in\n    tag_242:\n      pop\n      pop\n      pop\n        /* \"Subject.sol\":11156:11507  function _addLuidity(uint256 amountToken, uint256 amountBNB, address to) public{... */\n      pop\n      pop\n      pop\n      jump\t// out\n        /* \"Subject.sol\":3297:3446  function allowance(address owner, address spender) public view virtual override returns (uint256) {... */\n    tag_138:\n      sub(shl(0xa0, 0x01), 0x01)\n        /* \"Subject.sol\":3412:3430  _allowances[owner] */\n      swap2\n      dup3\n      and\n        /* \"Subject.sol\":3386:3393  uint256 */\n      0x00\n        /* \"Subject.sol\":3412:3430  _allowances[owner] */\n      swap1\n      dup2\n      mstore\n        /* \"Subject.sol\":3412:3423  _allowances */\n      0x01\n        /* \"Subject.sol\":3412:3430  _allowances[owner] */\n      0x20\n      swap1\n      dup2\n      mstore\n      0x40\n      dup1\n      dup4\n      keccak256\n        /* \"Subject.sol\":3412:3439  _allowances[owner][spender] */\n      swap4\n      swap1\n      swap5\n      and\n      dup3\n      mstore\n      swap2\n      swap1\n      swap2\n      mstore\n      keccak256\n      sload\n      swap1\n        /* \"Subject.sol\":3297:3446  function allowance(address owner, address spender) public view virtual override returns (uint256) {... */\n      jump\t// out\n        /* \"Subject.sol\":8781:8922  function setInfo(address _marketking,address _reflow) external onlyOwner(){... */\n    tag_151:\n        /* \"Subject.sol\":8617:8622  owner */\n      and(sub(shl(0xa0, 0x01), 0x01), sload(0x07))\n        /* \"Subject.sol\":8626:8636  msg.sender */\n      caller\n        /* \"Subject.sol\":8617:8636  owner == msg.sender */\n      eq\n        /* \"Subject.sol\":8609:8666  require(owner == msg.sender,\"ERC20:Caller is not owner!\") */\n      tag_246\n      jumpi\n      mload(0x40)\n      shl(0xe5, 0x461bcd)\n      dup2\n      mstore\n        /* \"#utility.yul\":4195:4197   */\n      0x20\n        /* \"Subject.sol\":8609:8666  require(owner == msg.sender,\"ERC20:Caller is not owner!\") */\n      0x04\n      dup3\n      add\n        /* \"#utility.yul\":4177:4198   */\n      mstore\n        /* \"#utility.yul\":4234:4236   */\n      0x1a\n        /* \"#utility.yul\":4214:4232   */\n      0x24\n      dup3\n      add\n        /* \"#utility.yul\":4207:4237   */\n      mstore\n        /* \"#utility.yul\":4273:4301   */\n      0x45524332303a43616c6c6572206973206e6f74206f776e657221000000000000\n        /* \"#utility.yul\":4253:4271   */\n      0x44\n      dup3\n      add\n        /* \"#utility.yul\":4246:4302   */\n      mstore\n        /* \"#utility.yul\":4319:4337   */\n      0x64\n      add\n        /* \"Subject.sol\":8609:8666  require(owner == msg.sender,\"ERC20:Caller is not owner!\") */\n      tag_166\n        /* \"#utility.yul\":3993:4343   */\n      jump\n        /* \"Subject.sol\":8609:8666  require(owner == msg.sender,\"ERC20:Caller is not owner!\") */\n    tag_246:\n        /* \"Subject.sol\":8865:8875  marketking */\n      0x08\n        /* \"Subject.sol\":8865:8889  marketking = _marketking */\n      dup1\n      sload\n      sub(shl(0xa0, 0x01), 0x01)\n      swap4\n      dup5\n      and\n      not(sub(shl(0xa0, 0x01), 0x01))\n      swap2\n      dup3\n      and\n      or\n      swap1\n      swap2\n      sstore\n        /* \"Subject.sol\":8899:8905  reflow */\n      0x09\n        /* \"Subject.sol\":8899:8915  reflow = _reflow */\n      dup1\n      sload\n      swap3\n      swap1\n      swap4\n      and\n      swap2\n      and\n      or\n      swap1\n      sstore\n        /* \"Subject.sol\":8781:8922  function setInfo(address _marketking,address _reflow) external onlyOwner(){... */\n      jump\t// out\n        /* \"Subject.sol\":6591:6931  function _approve(address owner, address spender, uint256 amount) internal virtual {... */\n    tag_163:\n      sub(shl(0xa0, 0x01), 0x01)\n        /* \"Subject.sol\":6692:6711  owner != address(0) */\n      dup4\n      and\n        /* \"Subject.sol\":6684:6752  require(owner != address(0), \"ERC20: approve from the zero address\") */\n      tag_251\n      jumpi\n      mload(0x40)\n      shl(0xe5, 0x461bcd)\n      dup2\n      mstore\n        /* \"#utility.yul\":8363:8365   */\n      0x20\n        /* \"Subject.sol\":6684:6752  require(owner != address(0), \"ERC20: approve from the zero address\") */\n      0x04\n      dup3\n      add\n        /* \"#utility.yul\":8345:8366   */\n      mstore\n        /* \"#utility.yul\":8402:8404   */\n      0x24\n        /* \"#utility.yul\":8382:8400   */\n      dup1\n      dup3\n      add\n        /* \"#utility.yul\":8375:8405   */\n      mstore\n        /* \"#utility.yul\":8441:8475   */\n      0x45524332303a20617070726f76652066726f6d20746865207a65726f20616464\n        /* \"#utility.yul\":8421:8439   */\n      0x44\n      dup3\n      add\n        /* \"#utility.yul\":8414:8476   */\n      mstore\n      shl(0xe0, 0x72657373)\n        /* \"#utility.yul\":8492:8510   */\n      0x64\n      dup3\n      add\n        /* \"#utility.yul\":8485:8519   */\n      mstore\n        /* \"#utility.yul\":8536:8555   */\n      0x84\n      add\n        /* \"Subject.sol\":6684:6752  require(owner != address(0), \"ERC20: approve from the zero address\") */\n      tag_166\n        /* \"#utility.yul\":8161:8561   */\n      jump\n        /* \"Subject.sol\":6684:6752  require(owner != address(0), \"ERC20: approve from the zero address\") */\n    tag_251:\n      sub(shl(0xa0, 0x01), 0x01)\n        /* \"Subject.sol\":6770:6791  spender != address(0) */\n      dup3\n      and\n        /* \"Subject.sol\":6762:6830  require(spender != address(0), \"ERC20: approve to the zero address\") */\n      tag_254\n      jumpi\n      mload(0x40)\n      shl(0xe5, 0x461bcd)\n      dup2\n      mstore\n        /* \"#utility.yul\":8768:8770   */\n      0x20\n        /* \"Subject.sol\":6762:6830  require(spender != address(0), \"ERC20: approve to the zero address\") */\n      0x04\n      dup3\n      add\n        /* \"#utility.yul\":8750:8771   */\n      mstore\n        /* \"#utility.yul\":8807:8809   */\n      0x22\n        /* \"#utility.yul\":8787:8805   */\n      0x24\n      dup3\n      add\n        /* \"#utility.yul\":8780:8810   */\n      mstore\n        /* \"#utility.yul\":8846:8880   */\n      0x45524332303a20617070726f766520746f20746865207a65726f206164647265\n        /* \"#utility.yul\":8826:8844   */\n      0x44\n      dup3\n      add\n        /* \"#utility.yul\":8819:8881   */\n      mstore\n      shl(0xf0, 0x7373)\n        /* \"#utility.yul\":8897:8915   */\n      0x64\n      dup3\n      add\n        /* \"#utility.yul\":8890:8922   */\n      mstore\n        /* \"#utility.yul\":8939:8958   */\n      0x84\n      add\n        /* \"Subject.sol\":6762:6830  require(spender != address(0), \"ERC20: approve to the zero address\") */\n      tag_166\n        /* \"#utility.yul\":8566:8964   */\n      jump\n        /* \"Subject.sol\":6762:6830  require(spender != address(0), \"ERC20: approve to the zero address\") */\n    tag_254:\n      sub(shl(0xa0, 0x01), 0x01)\n        /* \"Subject.sol\":6841:6859  _allowances[owner] */\n      dup4\n      dup2\n      and\n      0x00\n      dup2\n      dup2\n      mstore\n        /* \"Subject.sol\":6841:6852  _allowances */\n      0x01\n        /* \"Subject.sol\":6841:6859  _allowances[owner] */\n      0x20\n      swap1\n      dup2\n      mstore\n      0x40\n      dup1\n      dup4\n      keccak256\n        /* \"Subject.sol\":6841:6868  _allowances[owner][spender] */\n      swap5\n      dup8\n      and\n      dup1\n      dup5\n      mstore\n      swap5\n      dup3\n      mstore\n      swap2\n      dup3\n      swap1\n      keccak256\n        /* \"Subject.sol\":6841:6877  _allowances[owner][spender] = amount */\n      dup6\n      swap1\n      sstore\n        /* \"Subject.sol\":6892:6924  Approval(owner, spender, amount) */\n      swap1\n      mload\n        /* \"#utility.yul\":1821:1846   */\n      dup5\n      dup2\n      mstore\n        /* \"Subject.sol\":6892:6924  Approval(owner, spender, amount) */\n      0x8c5be1e5ebec7d5bd14f71427d1e84f3dd0314c0f7b2291e5b200ac8c7c3b925\n      swap2\n        /* \"#utility.yul\":1794:1812   */\n      add\n        /* \"Subject.sol\":6892:6924  Approval(owner, spender, amount) */\n      mload(0x40)\n      dup1\n      swap2\n      sub\n      swap1\n      log3\n        /* \"Subject.sol\":6591:6931  function _approve(address owner, address spender, uint256 amount) internal virtual {... */\n      pop\n      pop\n      pop\n      jump\t// out\n        /* \"Subject.sol\":6937:7348  function _spendAllowance(address owner, address spender, uint256 amount) internal virtual {... */\n    tag_173:\n        /* \"Subject.sol\":7037:7061  uint256 currentAllowance */\n      0x00\n        /* \"Subject.sol\":7064:7089  allowance(owner, spender) */\n      tag_259\n        /* \"Subject.sol\":7074:7079  owner */\n      dup5\n        /* \"Subject.sol\":7081:7088  spender */\n      dup5\n        /* \"Subject.sol\":7064:7073  allowance */\n      tag_138\n        /* \"Subject.sol\":7064:7089  allowance(owner, spender) */\n      jump\t// in\n    tag_259:\n        /* \"Subject.sol\":7037:7089  uint256 currentAllowance = allowance(owner, spender) */\n      swap1\n      pop\n      not(0x00)\n        /* \"Subject.sol\":7103:7119  currentAllowance */\n      dup2\n        /* \"Subject.sol\":7103:7140  currentAllowance != type(uint256).max */\n      eq\n        /* \"Subject.sol\":7099:7342  if (currentAllowance != type(uint256).max) {... */\n      tag_264\n      jumpi\n        /* \"Subject.sol\":7184:7190  amount */\n      dup2\n        /* \"Subject.sol\":7164:7180  currentAllowance */\n      dup2\n        /* \"Subject.sol\":7164:7190  currentAllowance >= amount */\n      lt\n      iszero\n        /* \"Subject.sol\":7156:7224  require(currentAllowance >= amount, \"ERC20: insufficient allowance\") */\n      tag_261\n      jumpi\n      mload(0x40)\n      shl(0xe5, 0x461bcd)\n      dup2\n      mstore\n        /* \"#utility.yul\":9171:9173   */\n      0x20\n        /* \"Subject.sol\":7156:7224  require(currentAllowance >= amount, \"ERC20: insufficient allowance\") */\n      0x04\n      dup3\n      add\n        /* \"#utility.yul\":9153:9174   */\n      mstore\n        /* \"#utility.yul\":9210:9212   */\n      0x1d\n        /* \"#utility.yul\":9190:9208   */\n      0x24\n      dup3\n      add\n        /* \"#utility.yul\":9183:9213   */\n      mstore\n        /* \"#utility.yul\":9249:9280   */\n      0x45524332303a20696e73756666696369656e7420616c6c6f77616e6365000000\n        /* \"#utility.yul\":9229:9247   */\n      0x44\n      dup3\n      add\n        /* \"#utility.yul\":9222:9281   */\n      mstore\n        /* \"#utility.yul\":9298:9316   */\n      0x64\n      add\n        /* \"Subject.sol\":7156:7224  require(currentAllowance >= amount, \"ERC20: insufficient allowance\") */\n      tag_166\n        /* \"#utility.yul\":8969:9322   */\n      jump\n        /* \"Subject.sol\":7156:7224  require(currentAllowance >= amount, \"ERC20: insufficient allowance\") */\n    tag_261:\n        /* \"Subject.sol\":7266:7317  _approve(owner, spender, currentAllowance - amount) */\n      tag_264\n        /* \"Subject.sol\":7275:7280  owner */\n      dup5\n        /* \"Subject.sol\":7282:7289  spender */\n      dup5\n        /* \"Subject.sol\":7310:7316  amount */\n      dup5\n        /* \"Subject.sol\":7291:7307  currentAllowance */\n      dup5\n        /* \"Subject.sol\":7291:7316  currentAllowance - amount */\n      sub\n        /* \"Subject.sol\":7266:7274  _approve */\n      tag_163\n        /* \"Subject.sol\":7266:7317  _approve(owner, spender, currentAllowance - amount) */\n      jump\t// in\n    tag_264:\n        /* \"Subject.sol\":7027:7348  {... */\n      pop\n        /* \"Subject.sol\":6937:7348  function _spendAllowance(address owner, address spender, uint256 amount) internal virtual {... */\n      pop\n      pop\n      pop\n      jump\t// out\n        /* \"Subject.sol\":8928:9653  function _transfer(address from, address to, uint256 amount) internal virtual override{... */\n    tag_175:\n      sub(shl(0xa0, 0x01), 0x01)\n        /* \"Subject.sol\":9033:9049  blocklimit[from] */\n      dup4\n      and\n      0x00\n      swap1\n      dup2\n      mstore\n        /* \"Subject.sol\":9033:9043  blocklimit */\n      0x0b\n        /* \"Subject.sol\":9033:9049  blocklimit[from] */\n      0x20\n      mstore\n      0x40\n      swap1\n      keccak256\n      sload\n      0xff\n      and\n        /* \"Subject.sol\":9032:9049  !blocklimit[from] */\n      iszero\n        /* \"Subject.sol\":9024:9069  require(!blocklimit[from],\"ERC20:No permit!\") */\n      tag_266\n      jumpi\n      mload(0x40)\n      shl(0xe5, 0x461bcd)\n      dup2\n      mstore\n        /* \"#utility.yul\":9529:9531   */\n      0x20\n        /* \"Subject.sol\":9024:9069  require(!blocklimit[from],\"ERC20:No permit!\") */\n      0x04\n      dup3\n      add\n        /* \"#utility.yul\":9511:9532   */\n      mstore\n        /* \"#utility.yul\":9568:9570   */\n      0x10\n        /* \"#utility.yul\":9548:9566   */\n      0x24\n      dup3\n      add\n        /* \"#utility.yul\":9541:9571   */\n      mstore\n      shl(0x80, 0x45524332303a4e6f207065726d697421)\n        /* \"#utility.yul\":9587:9605   */\n      0x44\n      dup3\n      add\n        /* \"#utility.yul\":9580:9626   */\n      mstore\n        /* \"#utility.yul\":9643:9661   */\n      0x64\n      add\n        /* \"Subject.sol\":9024:9069  require(!blocklimit[from],\"ERC20:No permit!\") */\n      tag_166\n        /* \"#utility.yul\":9327:9667   */\n      jump\n        /* \"Subject.sol\":9024:9069  require(!blocklimit[from],\"ERC20:No permit!\") */\n    tag_266:\n        /* \"Subject.sol\":9128:9141  uniswapV2Pair */\n      sload(0x05)\n        /* \"Subject.sol\":9101:9107  amount */\n      dup2\n      swap1\n      sub(shl(0xa0, 0x01), 0x01)\n        /* \"Subject.sol\":9120:9141  from == uniswapV2Pair */\n      dup6\n      dup2\n      and\n        /* \"Subject.sol\":9128:9141  uniswapV2Pair */\n      swap2\n      and\n        /* \"Subject.sol\":9120:9141  from == uniswapV2Pair */\n      eq\n      dup1\n        /* \"Subject.sol\":9120:9164  from == uniswapV2Pair || to == uniswapV2Pair */\n      tag_269\n      jumpi\n      pop\n        /* \"Subject.sol\":9151:9164  uniswapV2Pair */\n      sload(0x05)\n      sub(shl(0xa0, 0x01), 0x01)\n        /* \"Subject.sol\":9145:9164  to == uniswapV2Pair */\n      dup5\n      dup2\n      and\n        /* \"Subject.sol\":9151:9164  uniswapV2Pair */\n      swap2\n      and\n        /* \"Subject.sol\":9145:9164  to == uniswapV2Pair */\n      eq\n        /* \"Subject.sol\":9120:9164  from == uniswapV2Pair || to == uniswapV2Pair */\n    tag_269:\n        /* \"Subject.sol\":9117:9463  if(from == uniswapV2Pair || to == uniswapV2Pair){... */\n      iszero\n      tag_270\n      jumpi\n        /* \"Subject.sol\":9179:9238  super._transfer(from, address(this), tokenAmount * 4 / 100) */\n      tag_271\n        /* \"Subject.sol\":9195:9199  from */\n      dup5\n        /* \"Subject.sol\":9209:9213  this */\n      address\n        /* \"Subject.sol\":9234:9237  100 */\n      0x64\n        /* \"Subject.sol\":9216:9231  tokenAmount * 4 */\n      tag_272\n        /* \"Subject.sol\":9216:9227  tokenAmount */\n      dup6\n        /* \"Subject.sol\":9230:9231  4 */\n      0x04\n        /* \"Subject.sol\":9216:9231  tokenAmount * 4 */\n      tag_195\n      jump\t// in\n    tag_272:\n        /* \"Subject.sol\":9216:9237  tokenAmount * 4 / 100 */\n      tag_273\n      swap2\n      swap1\n      tag_191\n      jump\t// in\n    tag_273:\n        /* \"Subject.sol\":9179:9194  super._transfer */\n      tag_274\n        /* \"Subject.sol\":9179:9238  super._transfer(from, address(this), tokenAmount * 4 / 100) */\n      jump\t// in\n    tag_271:\n        /* \"Subject.sol\":9274:9278  dead */\n      sload(0x0a)\n        /* \"Subject.sol\":9252:9302  super._transfer(from, dead, tokenAmount * 2 / 100) */\n      tag_275\n      swap1\n        /* \"Subject.sol\":9268:9272  from */\n      dup6\n      swap1\n      sub(shl(0xa0, 0x01), 0x01)\n        /* \"Subject.sol\":9274:9278  dead */\n      and\n        /* \"Subject.sol\":9298:9301  100 */\n      0x64\n        /* \"Subject.sol\":9280:9295  tokenAmount * 2 */\n      tag_272\n        /* \"Subject.sol\":9280:9291  tokenAmount */\n      dup6\n        /* \"Subject.sol\":9294:9295  2 */\n      0x02\n        /* \"Subject.sol\":9280:9295  tokenAmount * 2 */\n      tag_195\n      jump\t// in\n        /* \"Subject.sol\":9252:9302  super._transfer(from, dead, tokenAmount * 2 / 100) */\n    tag_275:\n        /* \"Subject.sol\":9350:9353  100 */\n      0x64\n        /* \"Subject.sol\":9332:9347  tokenAmount * 6 */\n      tag_278\n        /* \"Subject.sol\":9332:9343  tokenAmount */\n      dup3\n        /* \"Subject.sol\":9346:9347  6 */\n      0x06\n        /* \"Subject.sol\":9332:9347  tokenAmount * 6 */\n      tag_195\n      jump\t// in\n    tag_278:\n        /* \"Subject.sol\":9332:9353  tokenAmount * 6 / 100 */\n      tag_279\n      swap2\n      swap1\n      tag_191\n      jump\t// in\n    tag_279:\n        /* \"Subject.sol\":9316:9354  tokenAmount -= (tokenAmount * 6 / 100) */\n      tag_280\n      swap1\n      dup3\n      tag_197\n      jump\t// in\n    tag_280:\n      swap1\n      pop\n        /* \"Subject.sol\":9398:9401  100 */\n      0x64\n        /* \"Subject.sol\":9385:9395  amount * 2 */\n      tag_281\n        /* \"Subject.sol\":9385:9391  amount */\n      dup4\n        /* \"Subject.sol\":9394:9395  2 */\n      0x02\n        /* \"Subject.sol\":9385:9395  amount * 2 */\n      tag_195\n      jump\t// in\n    tag_281:\n        /* \"Subject.sol\":9385:9401  amount * 2 / 100 */\n      tag_282\n      swap2\n      swap1\n      tag_191\n      jump\t// in\n    tag_282:\n        /* \"Subject.sol\":9368:9381  reflowSurplus */\n      0x0e\n      0x00\n        /* \"Subject.sol\":9368:9401  reflowSurplus += amount * 2 / 100 */\n      dup3\n      dup3\n      sload\n      tag_283\n      swap2\n      swap1\n      tag_182\n      jump\t// in\n    tag_283:\n      swap1\n      swap2\n      sstore\n      pop\n        /* \"Subject.sol\":9449:9452  100 */\n      0x64\n      swap1\n      pop\n        /* \"Subject.sol\":9436:9446  amount * 2 */\n      tag_284\n        /* \"Subject.sol\":9436:9442  amount */\n      dup4\n        /* \"Subject.sol\":9445:9446  2 */\n      0x02\n        /* \"Subject.sol\":9436:9446  amount * 2 */\n      tag_195\n      jump\t// in\n    tag_284:\n        /* \"Subject.sol\":9436:9452  amount * 2 / 100 */\n      tag_285\n      swap2\n      swap1\n      tag_191\n      jump\t// in\n    tag_285:\n        /* \"Subject.sol\":9415:9432  marketkingSurplus */\n      0x0d\n      0x00\n        /* \"Subject.sol\":9415:9452  marketkingSurplus += amount * 2 / 100 */\n      dup3\n      dup3\n      sload\n      tag_286\n      swap2\n      swap1\n      tag_182\n      jump\t// in\n    tag_286:\n      swap1\n      swap2\n      sstore\n      pop\n      pop\n        /* \"Subject.sol\":9117:9463  if(from == uniswapV2Pair || to == uniswapV2Pair){... */\n    tag_270:\n        /* \"Subject.sol\":9472:9510  super._transfer(from, to, tokenAmount) */\n      tag_287\n        /* \"Subject.sol\":9488:9492  from */\n      dup5\n        /* \"Subject.sol\":9494:9496  to */\n      dup5\n        /* \"Subject.sol\":9498:9509  tokenAmount */\n      dup4\n        /* \"Subject.sol\":9472:9487  super._transfer */\n      tag_274\n        /* \"Subject.sol\":9472:9510  super._transfer(from, to, tokenAmount) */\n      jump\t// in\n    tag_287:\n        /* \"Subject.sol\":9520:9529  limit(to) */\n      tag_288\n        /* \"Subject.sol\":9526:9528  to */\n      dup4\n        /* \"Subject.sol\":9520:9525  limit */\n      tag_289\n        /* \"Subject.sol\":9520:9529  limit(to) */\n      jump\t// in\n    tag_288:\n        /* \"Subject.sol\":9550:9563  uniswapV2Pair */\n      sload(0x05)\n      sub(shl(0xa0, 0x01), 0x01)\n        /* \"Subject.sol\":9542:9563  from != uniswapV2Pair */\n      dup6\n      dup2\n      and\n        /* \"Subject.sol\":9550:9563  uniswapV2Pair */\n      swap2\n      and\n        /* \"Subject.sol\":9542:9563  from != uniswapV2Pair */\n      eq\n      dup1\n      iszero\n      swap1\n        /* \"Subject.sol\":9542:9590  from != uniswapV2Pair && from != uniswapV2Router */\n      tag_290\n      jumpi\n      pop\n        /* \"Subject.sol\":9575:9590  uniswapV2Router */\n      sload(0x06)\n      sub(shl(0xa0, 0x01), 0x01)\n        /* \"Subject.sol\":9567:9590  from != uniswapV2Router */\n      dup6\n      dup2\n      and\n        /* \"Subject.sol\":9575:9590  uniswapV2Router */\n      swap2\n      and\n        /* \"Subject.sol\":9567:9590  from != uniswapV2Router */\n      eq\n      iszero\n        /* \"Subject.sol\":9542:9590  from != uniswapV2Pair && from != uniswapV2Router */\n    tag_290:\n        /* \"Subject.sol\":9542:9613  from != uniswapV2Pair && from != uniswapV2Router && to != uniswapV2Pair */\n      dup1\n      iszero\n      tag_291\n      jumpi\n      pop\n        /* \"Subject.sol\":9600:9613  uniswapV2Pair */\n      sload(0x05)\n      sub(shl(0xa0, 0x01), 0x01)\n        /* \"Subject.sol\":9594:9613  to != uniswapV2Pair */\n      dup5\n      dup2\n      and\n        /* \"Subject.sol\":9600:9613  uniswapV2Pair */\n      swap2\n      and\n        /* \"Subject.sol\":9594:9613  to != uniswapV2Pair */\n      eq\n      iszero\n        /* \"Subject.sol\":9542:9613  from != uniswapV2Pair && from != uniswapV2Router && to != uniswapV2Pair */\n    tag_291:\n        /* \"Subject.sol\":9542:9638  from != uniswapV2Pair && from != uniswapV2Router && to != uniswapV2Pair && to != uniswapV2Router */\n      dup1\n      iszero\n      tag_292\n      jumpi\n      pop\n        /* \"Subject.sol\":9623:9638  uniswapV2Router */\n      sload(0x06)\n      sub(shl(0xa0, 0x01), 0x01)\n        /* \"Subject.sol\":9617:9638  to != uniswapV2Router */\n      dup5\n      dup2\n      and\n        /* \"Subject.sol\":9623:9638  uniswapV2Router */\n      swap2\n      and\n        /* \"Subject.sol\":9617:9638  to != uniswapV2Router */\n      eq\n      iszero\n        /* \"Subject.sol\":9542:9638  from != uniswapV2Pair && from != uniswapV2Router && to != uniswapV2Pair && to != uniswapV2Router */\n    tag_292:\n        /* \"Subject.sol\":9539:9646  if(from != uniswapV2Pair && from != uniswapV2Router && to != uniswapV2Pair && to != uniswapV2Router) _run() */\n      iszero\n      tag_264\n      jumpi\n        /* \"Subject.sol\":9640:9646  _run() */\n      tag_264\n        /* \"Subject.sol\":9640:9644  _run */\n      tag_97\n        /* \"Subject.sol\":9640:9646  _run() */\n      jump\t// in\n        /* \"Subject.sol\":4590:5378  function _transfer(address from, address to, uint256 amount) internal virtual {... */\n    tag_274:\n      sub(shl(0xa0, 0x01), 0x01)\n        /* \"Subject.sol\":4686:4704  from != address(0) */\n      dup4\n      and\n        /* \"Subject.sol\":4678:4746  require(from != address(0), \"ERC20: transfer from the zero address\") */\n      tag_296\n      jumpi\n      mload(0x40)\n      shl(0xe5, 0x461bcd)\n      dup2\n      mstore\n        /* \"#utility.yul\":9874:9876   */\n      0x20\n        /* \"Subject.sol\":4678:4746  require(from != address(0), \"ERC20: transfer from the zero address\") */\n      0x04\n      dup3\n      add\n        /* \"#utility.yul\":9856:9877   */\n      mstore\n        /* \"#utility.yul\":9913:9915   */\n      0x25\n        /* \"#utility.yul\":9893:9911   */\n      0x24\n      dup3\n      add\n        /* \"#utility.yul\":9886:9916   */\n      mstore\n        /* \"#utility.yul\":9952:9986   */\n      0x45524332303a207472616e736665722066726f6d20746865207a65726f206164\n        /* \"#utility.yul\":9932:9950   */\n      0x44\n      dup3\n      add\n        /* \"#utility.yul\":9925:9987   */\n      mstore\n      shl(0xd8, 0x6472657373)\n        /* \"#utility.yul\":10003:10021   */\n      0x64\n      dup3\n      add\n        /* \"#utility.yul\":9996:10031   */\n      mstore\n        /* \"#utility.yul\":10048:10067   */\n      0x84\n      add\n        /* \"Subject.sol\":4678:4746  require(from != address(0), \"ERC20: transfer from the zero address\") */\n      tag_166\n        /* \"#utility.yul\":9672:10073   */\n      jump\n        /* \"Subject.sol\":4678:4746  require(from != address(0), \"ERC20: transfer from the zero address\") */\n    tag_296:\n      sub(shl(0xa0, 0x01), 0x01)\n        /* \"Subject.sol\":4764:4780  to != address(0) */\n      dup3\n      and\n        /* \"Subject.sol\":4756:4820  require(to != address(0), \"ERC20: transfer to the zero address\") */\n      tag_299\n      jumpi\n      mload(0x40)\n      shl(0xe5, 0x461bcd)\n      dup2\n      mstore\n        /* \"#utility.yul\":10280:10282   */\n      0x20\n        /* \"Subject.sol\":4756:4820  require(to != address(0), \"ERC20: transfer to the zero address\") */\n      0x04\n      dup3\n      add\n        /* \"#utility.yul\":10262:10283   */\n      mstore\n        /* \"#utility.yul\":10319:10321   */\n      0x23\n        /* \"#utility.yul\":10299:10317   */\n      0x24\n      dup3\n      add\n        /* \"#utility.yul\":10292:10322   */\n      mstore\n        /* \"#utility.yul\":10358:10392   */\n      0x45524332303a207472616e7366657220746f20746865207a65726f2061646472\n        /* \"#utility.yul\":10338:10356   */\n      0x44\n      dup3\n      add\n        /* \"#utility.yul\":10331:10393   */\n      mstore\n      shl(0xe8, 0x657373)\n        /* \"#utility.yul\":10409:10427   */\n      0x64\n      dup3\n      add\n        /* \"#utility.yul\":10402:10435   */\n      mstore\n        /* \"#utility.yul\":10452:10471   */\n      0x84\n      add\n        /* \"Subject.sol\":4756:4820  require(to != address(0), \"ERC20: transfer to the zero address\") */\n      tag_166\n        /* \"#utility.yul\":10078:10477   */\n      jump\n        /* \"Subject.sol\":4756:4820  require(to != address(0), \"ERC20: transfer to the zero address\") */\n    tag_299:\n      sub(shl(0xa0, 0x01), 0x01)\n        /* \"Subject.sol\":4902:4917  _balances[from] */\n      dup4\n      and\n        /* \"Subject.sol\":4880:4899  uint256 fromBalance */\n      0x00\n        /* \"Subject.sol\":4902:4917  _balances[from] */\n      swap1\n      dup2\n      mstore\n      0x20\n      dup2\n      swap1\n      mstore\n      0x40\n      swap1\n      keccak256\n      sload\n        /* \"Subject.sol\":4935:4956  fromBalance >= amount */\n      dup2\n      dup2\n      lt\n      iszero\n        /* \"Subject.sol\":4927:4999  require(fromBalance >= amount, \"ERC20: transfer amount exceeds balance\") */\n      tag_304\n      jumpi\n      mload(0x40)\n      shl(0xe5, 0x461bcd)\n      dup2\n      mstore\n        /* \"#utility.yul\":10684:10686   */\n      0x20\n        /* \"Subject.sol\":4927:4999  require(fromBalance >= amount, \"ERC20: transfer amount exceeds balance\") */\n      0x04\n      dup3\n      add\n        /* \"#utility.yul\":10666:10687   */\n      mstore\n        /* \"#utility.yul\":10723:10725   */\n      0x26\n        /* \"#utility.yul\":10703:10721   */\n      0x24\n      dup3\n      add\n        /* \"#utility.yul\":10696:10726   */\n      mstore\n        /* \"#utility.yul\":10762:10796   */\n      0x45524332303a207472616e7366657220616d6f756e7420657863656564732062\n        /* \"#utility.yul\":10742:10760   */\n      0x44\n      dup3\n      add\n        /* \"#utility.yul\":10735:10797   */\n      mstore\n      shl(0xd0, 0x616c616e6365)\n        /* \"#utility.yul\":10813:10831   */\n      0x64\n      dup3\n      add\n        /* \"#utility.yul\":10806:10842   */\n      mstore\n        /* \"#utility.yul\":10859:10878   */\n      0x84\n      add\n        /* \"Subject.sol\":4927:4999  require(fromBalance >= amount, \"ERC20: transfer amount exceeds balance\") */\n      tag_166\n        /* \"#utility.yul\":10482:10884   */\n      jump\n        /* \"Subject.sol\":4927:4999  require(fromBalance >= amount, \"ERC20: transfer amount exceeds balance\") */\n    tag_304:\n      sub(shl(0xa0, 0x01), 0x01)\n        /* \"Subject.sol\":5033:5048  _balances[from] */\n      dup5\n      dup2\n      and\n        /* \"Subject.sol\":5033:5042  _balances */\n      0x00\n        /* \"Subject.sol\":5033:5048  _balances[from] */\n      dup2\n      dup2\n      mstore\n      0x20\n      dup2\n      dup2\n      mstore\n      0x40\n      dup1\n      dup4\n      keccak256\n        /* \"Subject.sol\":5051:5071  fromBalance - amount */\n      dup8\n      dup8\n      sub\n        /* \"Subject.sol\":5033:5071  _balances[from] = fromBalance - amount */\n      swap1\n      sstore\n        /* \"Subject.sol\":5248:5261  _balances[to] */\n      swap4\n      dup8\n      and\n      dup1\n      dup4\n      mstore\n      swap2\n      dup5\n      swap1\n      keccak256\n        /* \"Subject.sol\":5248:5271  _balances[to] += amount */\n      dup1\n      sload\n      dup8\n      add\n      swap1\n      sstore\n        /* \"Subject.sol\":5297:5323  Transfer(from, to, amount) */\n      swap3\n      mload\n        /* \"#utility.yul\":1821:1846   */\n      dup6\n      dup2\n      mstore\n        /* \"Subject.sol\":5248:5261  _balances[to] */\n      swap1\n      swap3\n        /* \"Subject.sol\":5297:5323  Transfer(from, to, amount) */\n      0xddf252ad1be2c89b69c2b068fc378daa952ba7f163c4a11628f55a4df523b3ef\n      swap2\n        /* \"#utility.yul\":1794:1812   */\n      add\n        /* \"Subject.sol\":5297:5323  Transfer(from, to, amount) */\n      mload(0x40)\n      dup1\n      swap2\n      sub\n      swap1\n      log3\n        /* \"Subject.sol\":5334:5371  _afterTokenTransfer(from, to, amount) */\n      tag_264\n        /* \"Subject.sol\":7354:7445  function _beforeTokenTransfer(address from, address to, uint256 amount) internal virtual {} */\n      jump\n        /* \"Subject.sol\":10441:10692  function limit(address to) internal{... */\n    tag_289:\n        /* \"Subject.sol\":10489:10499  permitTime */\n      sload(0x0c)\n        /* \"Subject.sol\":10489:10504  permitTime == 0 */\n      iszero\n        /* \"Subject.sol\":10489:10545  permitTime == 0 && IERC20(uniswapV2Pair).totalSupply()>0 */\n      dup1\n      iszero\n      tag_311\n      jumpi\n      pop\n        /* \"Subject.sol\":10515:10528  uniswapV2Pair */\n      sload(0x05)\n        /* \"Subject.sol\":10508:10543  IERC20(uniswapV2Pair).totalSupply() */\n      0x40\n      dup1\n      mload\n      shl(0xe0, 0x18160ddd)\n      dup2\n      mstore\n      swap1\n      mload\n        /* \"Subject.sol\":10544:10545  0 */\n      0x00\n      swap3\n      sub(shl(0xa0, 0x01), 0x01)\n        /* \"Subject.sol\":10515:10528  uniswapV2Pair */\n      and\n      swap2\n        /* \"Subject.sol\":10508:10541  IERC20(uniswapV2Pair).totalSupply */\n      0x18160ddd\n      swap2\n        /* \"Subject.sol\":10508:10543  IERC20(uniswapV2Pair).totalSupply() */\n      0x04\n      dup1\n      dup4\n      add\n      swap3\n      0x20\n      swap3\n      swap2\n      swap1\n      dup3\n      swap1\n      sub\n      add\n      dup2\n        /* \"Subject.sol\":10515:10528  uniswapV2Pair */\n      dup7\n        /* \"Subject.sol\":10508:10543  IERC20(uniswapV2Pair).totalSupply() */\n      gas\n      staticcall\n      iszero\n      dup1\n      iszero\n      tag_313\n      jumpi\n      returndatasize\n      0x00\n      dup1\n      returndatacopy\n      revert(0x00, returndatasize)\n    tag_313:\n      pop\n      pop\n      pop\n      pop\n      mload(0x40)\n      returndatasize\n      not(0x1f)\n      0x1f\n      dup3\n      add\n      and\n      dup3\n      add\n      dup1\n      0x40\n      mstore\n      pop\n      dup2\n      add\n      swap1\n      tag_314\n      swap2\n      swap1\n      tag_188\n      jump\t// in\n    tag_314:\n        /* \"Subject.sol\":10508:10545  IERC20(uniswapV2Pair).totalSupply()>0 */\n      gt\n        /* \"Subject.sol\":10489:10545  permitTime == 0 && IERC20(uniswapV2Pair).totalSupply()>0 */\n    tag_311:\n        /* \"Subject.sol\":10486:10575  if(permitTime == 0 && IERC20(uniswapV2Pair).totalSupply()>0) permitTime = block.timestamp */\n      iszero\n      tag_315\n      jumpi\n        /* \"Subject.sol\":10560:10575  block.timestamp */\n      timestamp\n        /* \"Subject.sol\":10547:10557  permitTime */\n      0x0c\n        /* \"Subject.sol\":10547:10575  permitTime = block.timestamp */\n      sstore\n        /* \"Subject.sol\":10486:10575  if(permitTime == 0 && IERC20(uniswapV2Pair).totalSupply()>0) permitTime = block.timestamp */\n    tag_315:\n        /* \"Subject.sol\":10606:10616  permitTime */\n      sload(0x0c)\n        /* \"Subject.sol\":10606:10621  permitTime + 60 */\n      tag_316\n      swap1\n        /* \"Subject.sol\":10619:10621  60 */\n      0x3c\n        /* \"Subject.sol\":10606:10621  permitTime + 60 */\n      tag_182\n      jump\t// in\n    tag_316:\n        /* \"Subject.sol\":10588:10603  block.timestamp */\n      timestamp\n        /* \"Subject.sol\":10588:10621  block.timestamp < permitTime + 60 */\n      lt\n        /* \"Subject.sol\":10588:10639  block.timestamp < permitTime + 60 && permitTime > 0 */\n      dup1\n      iszero\n      tag_317\n      jumpi\n      pop\n        /* \"Subject.sol\":10638:10639  0 */\n      0x00\n        /* \"Subject.sol\":10625:10635  permitTime */\n      sload(0x0c)\n        /* \"Subject.sol\":10625:10639  permitTime > 0 */\n      gt\n        /* \"Subject.sol\":10588:10639  block.timestamp < permitTime + 60 && permitTime > 0 */\n    tag_317:\n        /* \"Subject.sol\":10588:10662  block.timestamp < permitTime + 60 && permitTime > 0 && to != address(this) */\n      dup1\n      iszero\n      tag_318\n      jumpi\n      pop\n      sub(shl(0xa0, 0x01), 0x01)\n        /* \"Subject.sol\":10643:10662  to != address(this) */\n      dup2\n      and\n        /* \"Subject.sol\":10657:10661  this */\n      address\n        /* \"Subject.sol\":10643:10662  to != address(this) */\n      eq\n      iszero\n        /* \"Subject.sol\":10588:10662  block.timestamp < permitTime + 60 && permitTime > 0 && to != address(this) */\n    tag_318:\n        /* \"Subject.sol\":10585:10685  if(block.timestamp < permitTime + 60 && permitTime > 0 && to != address(this)) blocklimit[to] = true */\n      iszero\n      tag_319\n      jumpi\n      sub(shl(0xa0, 0x01), 0x01)\n        /* \"Subject.sol\":10664:10678  blocklimit[to] */\n      dup2\n      and\n      0x00\n      swap1\n      dup2\n      mstore\n        /* \"Subject.sol\":10664:10674  blocklimit */\n      0x0b\n        /* \"Subject.sol\":10664:10678  blocklimit[to] */\n      0x20\n      mstore\n      0x40\n      swap1\n      keccak256\n        /* \"Subject.sol\":10664:10685  blocklimit[to] = true */\n      dup1\n      sload\n      not(0xff)\n      and\n        /* \"Subject.sol\":10681:10685  true */\n      0x01\n        /* \"Subject.sol\":10664:10685  blocklimit[to] = true */\n      or\n      swap1\n      sstore\n        /* \"Subject.sol\":10585:10685  if(block.timestamp < permitTime + 60 && permitTime > 0 && to != address(this)) blocklimit[to] = true */\n    tag_319:\n        /* \"Subject.sol\":10441:10692  function limit(address to) internal{... */\n      pop\n      jump\t// out\n        /* \"#utility.yul\":14:562   */\n    tag_38:\n        /* \"#utility.yul\":126:130   */\n      0x00\n        /* \"#utility.yul\":155:157   */\n      0x20\n        /* \"#utility.yul\":184:186   */\n      dup1\n        /* \"#utility.yul\":173:182   */\n      dup4\n        /* \"#utility.yul\":166:187   */\n      mstore\n        /* \"#utility.yul\":216:222   */\n      dup4\n        /* \"#utility.yul\":210:223   */\n      mload\n        /* \"#utility.yul\":259:265   */\n      dup1\n        /* \"#utility.yul\":254:256   */\n      dup3\n        /* \"#utility.yul\":243:252   */\n      dup6\n        /* \"#utility.yul\":239:257   */\n      add\n        /* \"#utility.yul\":232:266   */\n      mstore\n        /* \"#utility.yul\":284:285   */\n      0x00\n        /* \"#utility.yul\":294:434   */\n    tag_326:\n        /* \"#utility.yul\":308:314   */\n      dup2\n        /* \"#utility.yul\":305:306   */\n      dup2\n        /* \"#utility.yul\":302:315   */\n      lt\n        /* \"#utility.yul\":294:434   */\n      iszero\n      tag_328\n      jumpi\n        /* \"#utility.yul\":403:417   */\n      dup6\n      dup2\n      add\n        /* \"#utility.yul\":399:422   */\n      dup4\n      add\n        /* \"#utility.yul\":393:423   */\n      mload\n        /* \"#utility.yul\":369:386   */\n      dup6\n      dup3\n      add\n        /* \"#utility.yul\":388:390   */\n      0x40\n        /* \"#utility.yul\":365:391   */\n      add\n        /* \"#utility.yul\":358:424   */\n      mstore\n        /* \"#utility.yul\":323:333   */\n      dup3\n      add\n        /* \"#utility.yul\":294:434   */\n      jump(tag_326)\n    tag_328:\n        /* \"#utility.yul\":298:301   */\n      pop\n        /* \"#utility.yul\":483:484   */\n      0x00\n        /* \"#utility.yul\":478:480   */\n      0x40\n        /* \"#utility.yul\":469:475   */\n      dup3\n        /* \"#utility.yul\":458:467   */\n      dup7\n        /* \"#utility.yul\":454:476   */\n      add\n        /* \"#utility.yul\":450:481   */\n      add\n        /* \"#utility.yul\":443:485   */\n      mstore\n        /* \"#utility.yul\":553:555   */\n      0x40\n        /* \"#utility.yul\":546:548   */\n      0x1f\n        /* \"#utility.yul\":542:549   */\n      not\n        /* \"#utility.yul\":537:539   */\n      0x1f\n        /* \"#utility.yul\":529:535   */\n      dup4\n        /* \"#utility.yul\":525:540   */\n      add\n        /* \"#utility.yul\":521:550   */\n      and\n        /* \"#utility.yul\":510:519   */\n      dup6\n        /* \"#utility.yul\":506:551   */\n      add\n        /* \"#utility.yul\":502:556   */\n      add\n        /* \"#utility.yul\":494:556   */\n      swap3\n      pop\n      pop\n      pop\n        /* \"#utility.yul\":14:562   */\n      swap3\n      swap2\n      pop\n      pop\n      jump\t// out\n        /* \"#utility.yul\":567:698   */\n    tag_322:\n      sub(shl(0xa0, 0x01), 0x01)\n        /* \"#utility.yul\":642:673   */\n      dup2\n      and\n        /* \"#utility.yul\":632:674   */\n      dup2\n      eq\n        /* \"#utility.yul\":622:692   */\n      tag_319\n      jumpi\n        /* \"#utility.yul\":688:689   */\n      0x00\n        /* \"#utility.yul\":685:686   */\n      dup1\n        /* \"#utility.yul\":678:690   */\n      revert\n        /* \"#utility.yul\":703:1018   */\n    tag_42:\n        /* \"#utility.yul\":771:777   */\n      0x00\n        /* \"#utility.yul\":779:785   */\n      dup1\n        /* \"#utility.yul\":832:834   */\n      0x40\n        /* \"#utility.yul\":820:829   */\n      dup4\n        /* \"#utility.yul\":811:818   */\n      dup6\n        /* \"#utility.yul\":807:830   */\n      sub\n        /* \"#utility.yul\":803:835   */\n      slt\n        /* \"#utility.yul\":800:852   */\n      iszero\n      tag_332\n      jumpi\n        /* \"#utility.yul\":848:849   */\n      0x00\n        /* \"#utility.yul\":845:846   */\n      dup1\n        /* \"#utility.yul\":838:850   */\n      revert\n        /* \"#utility.yul\":800:852   */\n    tag_332:\n        /* \"#utility.yul\":887:896   */\n      dup3\n        /* \"#utility.yul\":874:897   */\n      calldataload\n        /* \"#utility.yul\":906:937   */\n      tag_333\n        /* \"#utility.yul\":931:936   */\n      dup2\n        /* \"#utility.yul\":906:937   */\n      tag_322\n      jump\t// in\n    tag_333:\n        /* \"#utility.yul\":956:961   */\n      swap5\n        /* \"#utility.yul\":1008:1010   */\n      0x20\n        /* \"#utility.yul\":993:1011   */\n      swap4\n      swap1\n      swap4\n      add\n        /* \"#utility.yul\":980:1012   */\n      calldataload\n      swap4\n      pop\n      pop\n      pop\n        /* \"#utility.yul\":703:1018   */\n      jump\t// out\n        /* \"#utility.yul\":1215:1462   */\n    tag_49:\n        /* \"#utility.yul\":1274:1280   */\n      0x00\n        /* \"#utility.yul\":1327:1329   */\n      0x20\n        /* \"#utility.yul\":1315:1324   */\n      dup3\n        /* \"#utility.yul\":1306:1313   */\n      dup5\n        /* \"#utility.yul\":1302:1325   */\n      sub\n        /* \"#utility.yul\":1298:1330   */\n      slt\n        /* \"#utility.yul\":1295:1347   */\n      iszero\n      tag_336\n      jumpi\n        /* \"#utility.yul\":1343:1344   */\n      0x00\n        /* \"#utility.yul\":1340:1341   */\n      dup1\n        /* \"#utility.yul\":1333:1345   */\n      revert\n        /* \"#utility.yul\":1295:1347   */\n    tag_336:\n        /* \"#utility.yul\":1382:1391   */\n      dup2\n        /* \"#utility.yul\":1369:1392   */\n      calldataload\n        /* \"#utility.yul\":1401:1432   */\n      tag_337\n        /* \"#utility.yul\":1426:1431   */\n      dup2\n        /* \"#utility.yul\":1401:1432   */\n      tag_322\n      jump\t// in\n    tag_337:\n        /* \"#utility.yul\":1451:1456   */\n      swap4\n        /* \"#utility.yul\":1215:1462   */\n      swap3\n      pop\n      pop\n      pop\n      jump\t// out\n        /* \"#utility.yul\":1857:2313   */\n    tag_64:\n        /* \"#utility.yul\":1934:1940   */\n      0x00\n        /* \"#utility.yul\":1942:1948   */\n      dup1\n        /* \"#utility.yul\":1950:1956   */\n      0x00\n        /* \"#utility.yul\":2003:2005   */\n      0x60\n        /* \"#utility.yul\":1991:2000   */\n      dup5\n        /* \"#utility.yul\":1982:1989   */\n      dup7\n        /* \"#utility.yul\":1978:2001   */\n      sub\n        /* \"#utility.yul\":1974:2006   */\n      slt\n        /* \"#utility.yul\":1971:2023   */\n      iszero\n      tag_341\n      jumpi\n        /* \"#utility.yul\":2019:2020   */\n      0x00\n        /* \"#utility.yul\":2016:2017   */\n      dup1\n        /* \"#utility.yul\":2009:2021   */\n      revert\n        /* \"#utility.yul\":1971:2023   */\n    tag_341:\n        /* \"#utility.yul\":2058:2067   */\n      dup4\n        /* \"#utility.yul\":2045:2068   */\n      calldataload\n        /* \"#utility.yul\":2077:2108   */\n      tag_342\n        /* \"#utility.yul\":2102:2107   */\n      dup2\n        /* \"#utility.yul\":2077:2108   */\n      tag_322\n      jump\t// in\n    tag_342:\n        /* \"#utility.yul\":2127:2132   */\n      swap3\n      pop\n        /* \"#utility.yul\":2184:2186   */\n      0x20\n        /* \"#utility.yul\":2169:2187   */\n      dup5\n      add\n        /* \"#utility.yul\":2156:2188   */\n      calldataload\n        /* \"#utility.yul\":2197:2230   */\n      tag_343\n        /* \"#utility.yul\":2156:2188   */\n      dup2\n        /* \"#utility.yul\":2197:2230   */\n      tag_322\n      jump\t// in\n    tag_343:\n        /* \"#utility.yul\":1857:2313   */\n      swap3\n      swap6\n        /* \"#utility.yul\":2249:2256   */\n      swap3\n      swap5\n      pop\n      pop\n      pop\n        /* \"#utility.yul\":2303:2305   */\n      0x40\n        /* \"#utility.yul\":2288:2306   */\n      swap2\n      swap1\n      swap2\n      add\n        /* \"#utility.yul\":2275:2307   */\n      calldataload\n      swap1\n        /* \"#utility.yul\":1857:2313   */\n      jump\t// out\n        /* \"#utility.yul\":2507:2822   */\n    tag_113:\n        /* \"#utility.yul\":2575:2581   */\n      0x00\n        /* \"#utility.yul\":2583:2589   */\n      dup1\n        /* \"#utility.yul\":2636:2638   */\n      0x40\n        /* \"#utility.yul\":2624:2633   */\n      dup4\n        /* \"#utility.yul\":2615:2622   */\n      dup6\n        /* \"#utility.yul\":2611:2634   */\n      sub\n        /* \"#utility.yul\":2607:2639   */\n      slt\n        /* \"#utility.yul\":2604:2656   */\n      iszero\n      tag_346\n      jumpi\n        /* \"#utility.yul\":2652:2653   */\n      0x00\n        /* \"#utility.yul\":2649:2650   */\n      dup1\n        /* \"#utility.yul\":2642:2654   */\n      revert\n        /* \"#utility.yul\":2604:2656   */\n    tag_346:\n        /* \"#utility.yul\":2688:2697   */\n      dup3\n        /* \"#utility.yul\":2675:2698   */\n      calldataload\n        /* \"#utility.yul\":2665:2698   */\n      swap2\n      pop\n        /* \"#utility.yul\":2748:2750   */\n      0x20\n        /* \"#utility.yul\":2737:2746   */\n      dup4\n        /* \"#utility.yul\":2733:2751   */\n      add\n        /* \"#utility.yul\":2720:2752   */\n      calldataload\n        /* \"#utility.yul\":2761:2792   */\n      tag_347\n        /* \"#utility.yul\":2786:2791   */\n      dup2\n        /* \"#utility.yul\":2761:2792   */\n      tag_322\n      jump\t// in\n    tag_347:\n        /* \"#utility.yul\":2811:2816   */\n      dup1\n        /* \"#utility.yul\":2801:2816   */\n      swap2\n      pop\n      pop\n        /* \"#utility.yul\":2507:2822   */\n      swap3\n      pop\n      swap3\n      swap1\n      pop\n      jump\t// out\n        /* \"#utility.yul\":2827:3210   */\n    tag_132:\n        /* \"#utility.yul\":2904:2910   */\n      0x00\n        /* \"#utility.yul\":2912:2918   */\n      dup1\n        /* \"#utility.yul\":2920:2926   */\n      0x00\n        /* \"#utility.yul\":2973:2975   */\n      0x60\n        /* \"#utility.yul\":2961:2970   */\n      dup5\n        /* \"#utility.yul\":2952:2959   */\n      dup7\n        /* \"#utility.yul\":2948:2971   */\n      sub\n        /* \"#utility.yul\":2944:2976   */\n      slt\n        /* \"#utility.yul\":2941:2993   */\n      iszero\n      tag_349\n      jumpi\n        /* \"#utility.yul\":2989:2990   */\n      0x00\n        /* \"#utility.yul\":2986:2987   */\n      dup1\n        /* \"#utility.yul\":2979:2991   */\n      revert\n        /* \"#utility.yul\":2941:2993   */\n    tag_349:\n        /* \"#utility.yul\":3025:3034   */\n      dup4\n        /* \"#utility.yul\":3012:3035   */\n      calldataload\n        /* \"#utility.yul\":3002:3035   */\n      swap3\n      pop\n        /* \"#utility.yul\":3082:3084   */\n      0x20\n        /* \"#utility.yul\":3071:3080   */\n      dup5\n        /* \"#utility.yul\":3067:3085   */\n      add\n        /* \"#utility.yul\":3054:3086   */\n      calldataload\n        /* \"#utility.yul\":3044:3086   */\n      swap2\n      pop\n        /* \"#utility.yul\":3136:3138   */\n      0x40\n        /* \"#utility.yul\":3125:3134   */\n      dup5\n        /* \"#utility.yul\":3121:3139   */\n      add\n        /* \"#utility.yul\":3108:3140   */\n      calldataload\n        /* \"#utility.yul\":3149:3180   */\n      tag_350\n        /* \"#utility.yul\":3174:3179   */\n      dup2\n        /* \"#utility.yul\":3149:3180   */\n      tag_322\n      jump\t// in\n    tag_350:\n        /* \"#utility.yul\":3199:3204   */\n      dup1\n        /* \"#utility.yul\":3189:3204   */\n      swap2\n      pop\n      pop\n        /* \"#utility.yul\":2827:3210   */\n      swap3\n      pop\n      swap3\n      pop\n      swap3\n      jump\t// out\n        /* \"#utility.yul\":3215:3603   */\n    tag_137:\n        /* \"#utility.yul\":3283:3289   */\n      0x00\n        /* \"#utility.yul\":3291:3297   */\n      dup1\n        /* \"#utility.yul\":3344:3346   */\n      0x40\n        /* \"#utility.yul\":3332:3341   */\n      dup4\n        /* \"#utility.yul\":3323:3330   */\n      dup6\n        /* \"#utility.yul\":3319:3342   */\n      sub\n        /* \"#utility.yul\":3315:3347   */\n      slt\n        /* \"#utility.yul\":3312:3364   */\n      iszero\n      tag_352\n      jumpi\n        /* \"#utility.yul\":3360:3361   */\n      0x00\n        /* \"#utility.yul\":3357:3358   */\n      dup1\n        /* \"#utility.yul\":3350:3362   */\n      revert\n        /* \"#utility.yul\":3312:3364   */\n    tag_352:\n        /* \"#utility.yul\":3399:3408   */\n      dup3\n        /* \"#utility.yul\":3386:3409   */\n      calldataload\n        /* \"#utility.yul\":3418:3449   */\n      tag_353\n        /* \"#utility.yul\":3443:3448   */\n      dup2\n        /* \"#utility.yul\":3418:3449   */\n      tag_322\n      jump\t// in\n    tag_353:\n        /* \"#utility.yul\":3468:3473   */\n      swap2\n      pop\n        /* \"#utility.yul\":3525:3527   */\n      0x20\n        /* \"#utility.yul\":3510:3528   */\n      dup4\n      add\n        /* \"#utility.yul\":3497:3529   */\n      calldataload\n        /* \"#utility.yul\":3538:3571   */\n      tag_347\n        /* \"#utility.yul\":3497:3529   */\n      dup2\n        /* \"#utility.yul\":3538:3571   */\n      tag_322\n      jump\t// in\n        /* \"#utility.yul\":3608:3988   */\n    tag_154:\n        /* \"#utility.yul\":3687:3688   */\n      0x01\n        /* \"#utility.yul\":3683:3695   */\n      dup2\n      dup2\n      shr\n      swap1\n        /* \"#utility.yul\":3730:3742   */\n      dup3\n      and\n      dup1\n        /* \"#utility.yul\":3751:3812   */\n      tag_356\n      jumpi\n        /* \"#utility.yul\":3805:3809   */\n      0x7f\n        /* \"#utility.yul\":3797:3803   */\n      dup3\n        /* \"#utility.yul\":3793:3810   */\n      and\n        /* \"#utility.yul\":3783:3810   */\n      swap2\n      pop\n        /* \"#utility.yul\":3751:3812   */\n    tag_356:\n        /* \"#utility.yul\":3858:3860   */\n      0x20\n        /* \"#utility.yul\":3850:3856   */\n      dup3\n        /* \"#utility.yul\":3847:3861   */\n      lt\n        /* \"#utility.yul\":3827:3845   */\n      dup2\n        /* \"#utility.yul\":3824:3862   */\n      sub\n        /* \"#utility.yul\":3821:3982   */\n      tag_357\n      jumpi\n        /* \"#utility.yul\":3904:3914   */\n      0x4e487b71\n        /* \"#utility.yul\":3899:3902   */\n      0xe0\n        /* \"#utility.yul\":3895:3915   */\n      shl\n        /* \"#utility.yul\":3892:3893   */\n      0x00\n        /* \"#utility.yul\":3885:3916   */\n      mstore\n        /* \"#utility.yul\":3939:3943   */\n      0x22\n        /* \"#utility.yul\":3936:3937   */\n      0x04\n        /* \"#utility.yul\":3929:3944   */\n      mstore\n        /* \"#utility.yul\":3967:3971   */\n      0x24\n        /* \"#utility.yul\":3964:3965   */\n      0x00\n        /* \"#utility.yul\":3957:3972   */\n      revert\n        /* \"#utility.yul\":3821:3982   */\n    tag_357:\n      pop\n        /* \"#utility.yul\":3608:3988   */\n      swap2\n      swap1\n      pop\n      jump\t// out\n        /* \"#utility.yul\":4348:4475   */\n    tag_323:\n        /* \"#utility.yul\":4409:4419   */\n      0x4e487b71\n        /* \"#utility.yul\":4404:4407   */\n      0xe0\n        /* \"#utility.yul\":4400:4420   */\n      shl\n        /* \"#utility.yul\":4397:4398   */\n      0x00\n        /* \"#utility.yul\":4390:4421   */\n      mstore\n        /* \"#utility.yul\":4440:4444   */\n      0x11\n        /* \"#utility.yul\":4437:4438   */\n      0x04\n        /* \"#utility.yul\":4430:4445   */\n      mstore\n        /* \"#utility.yul\":4464:4468   */\n      0x24\n        /* \"#utility.yul\":4461:4462   */\n      0x00\n        /* \"#utility.yul\":4454:4469   */\n      revert\n        /* \"#utility.yul\":4480:4605   */\n    tag_182:\n        /* \"#utility.yul\":4545:4554   */\n      dup1\n      dup3\n      add\n        /* \"#utility.yul\":4566:4576   */\n      dup1\n      dup3\n      gt\n        /* \"#utility.yul\":4563:4599   */\n      iszero\n      tag_159\n      jumpi\n        /* \"#utility.yul\":4579:4597   */\n      tag_159\n      tag_323\n      jump\t// in\n        /* \"#utility.yul\":4610:4794   */\n    tag_188:\n        /* \"#utility.yul\":4680:4686   */\n      0x00\n        /* \"#utility.yul\":4733:4735   */\n      0x20\n        /* \"#utility.yul\":4721:4730   */\n      dup3\n        /* \"#utility.yul\":4712:4719   */\n      dup5\n        /* \"#utility.yul\":4708:4731   */\n      sub\n        /* \"#utility.yul\":4704:4736   */\n      slt\n        /* \"#utility.yul\":4701:4753   */\n      iszero\n      tag_364\n      jumpi\n        /* \"#utility.yul\":4749:4750   */\n      0x00\n        /* \"#utility.yul\":4746:4747   */\n      dup1\n        /* \"#utility.yul\":4739:4751   */\n      revert\n        /* \"#utility.yul\":4701:4753   */\n    tag_364:\n      pop\n        /* \"#utility.yul\":4772:4788   */\n      mload\n      swap2\n        /* \"#utility.yul\":4610:4794   */\n      swap1\n      pop\n      jump\t// out\n        /* \"#utility.yul\":4799:5016   */\n    tag_191:\n        /* \"#utility.yul\":4839:4840   */\n      0x00\n        /* \"#utility.yul\":4865:4866   */\n      dup3\n        /* \"#utility.yul\":4855:4987   */\n      tag_366\n      jumpi\n        /* \"#utility.yul\":4909:4919   */\n      0x4e487b71\n        /* \"#utility.yul\":4904:4907   */\n      0xe0\n        /* \"#utility.yul\":4900:4920   */\n      shl\n        /* \"#utility.yul\":4897:4898   */\n      0x00\n        /* \"#utility.yul\":4890:4921   */\n      mstore\n        /* \"#utility.yul\":4944:4948   */\n      0x12\n        /* \"#utility.yul\":4941:4942   */\n      0x04\n        /* \"#utility.yul\":4934:4949   */\n      mstore\n        /* \"#utility.yul\":4972:4976   */\n      0x24\n        /* \"#utility.yul\":4969:4970   */\n      0x00\n        /* \"#utility.yul\":4962:4977   */\n      revert\n        /* \"#utility.yul\":4855:4987   */\n    tag_366:\n      pop\n        /* \"#utility.yul\":5001:5010   */\n      div\n      swap1\n        /* \"#utility.yul\":4799:5016   */\n      jump\t// out\n        /* \"#utility.yul\":5021:5189   */\n    tag_195:\n        /* \"#utility.yul\":5094:5103   */\n      dup1\n      dup3\n      mul\n        /* \"#utility.yul\":5125:5134   */\n      dup2\n      iszero\n        /* \"#utility.yul\":5142:5157   */\n      dup3\n      dup3\n      div\n        /* \"#utility.yul\":5136:5158   */\n      dup5\n      eq\n        /* \"#utility.yul\":5122:5159   */\n      or\n        /* \"#utility.yul\":5112:5183   */\n      tag_159\n      jumpi\n        /* \"#utility.yul\":5163:5181   */\n      tag_159\n      tag_323\n      jump\t// in\n        /* \"#utility.yul\":5194:5322   */\n    tag_197:\n        /* \"#utility.yul\":5261:5270   */\n      dup2\n      dup2\n      sub\n        /* \"#utility.yul\":5282:5293   */\n      dup2\n      dup2\n      gt\n        /* \"#utility.yul\":5279:5316   */\n      iszero\n      tag_159\n      jumpi\n        /* \"#utility.yul\":5296:5314   */\n      tag_159\n      tag_323\n      jump\t// in\n        /* \"#utility.yul\":5459:5586   */\n    tag_214:\n        /* \"#utility.yul\":5520:5530   */\n      0x4e487b71\n        /* \"#utility.yul\":5515:5518   */\n      0xe0\n        /* \"#utility.yul\":5511:5531   */\n      shl\n        /* \"#utility.yul\":5508:5509   */\n      0x00\n        /* \"#utility.yul\":5501:5532   */\n      mstore\n        /* \"#utility.yul\":5551:5555   */\n      0x32\n        /* \"#utility.yul\":5548:5549   */\n      0x04\n        /* \"#utility.yul\":5541:5556   */\n      mstore\n        /* \"#utility.yul\":5575:5579   */\n      0x24\n        /* \"#utility.yul\":5572:5573   */\n      0x00\n        /* \"#utility.yul\":5565:5580   */\n      revert\n        /* \"#utility.yul\":5591:5842   */\n    tag_218:\n        /* \"#utility.yul\":5661:5667   */\n      0x00\n        /* \"#utility.yul\":5714:5716   */\n      0x20\n        /* \"#utility.yul\":5702:5711   */\n      dup3\n        /* \"#utility.yul\":5693:5700   */\n      dup5\n        /* \"#utility.yul\":5689:5712   */\n      sub\n        /* \"#utility.yul\":5685:5717   */\n      slt\n        /* \"#utility.yul\":5682:5734   */\n      iszero\n      tag_376\n      jumpi\n        /* \"#utility.yul\":5730:5731   */\n      0x00\n        /* \"#utility.yul\":5727:5728   */\n      dup1\n        /* \"#utility.yul\":5720:5732   */\n      revert\n        /* \"#utility.yul\":5682:5734   */\n    tag_376:\n        /* \"#utility.yul\":5762:5771   */\n      dup2\n        /* \"#utility.yul\":5756:5772   */\n      mload\n        /* \"#utility.yul\":5781:5812   */\n      tag_337\n        /* \"#utility.yul\":5806:5811   */\n      dup2\n        /* \"#utility.yul\":5781:5812   */\n      tag_322\n      jump\t// in\n        /* \"#utility.yul\":5847:6827   */\n    tag_222:\n        /* \"#utility.yul\":6109:6113   */\n      0x00\n        /* \"#utility.yul\":6157:6160   */\n      0xa0\n        /* \"#utility.yul\":6146:6155   */\n      dup3\n        /* \"#utility.yul\":6142:6161   */\n      add\n        /* \"#utility.yul\":6188:6194   */\n      dup8\n        /* \"#utility.yul\":6177:6186   */\n      dup4\n        /* \"#utility.yul\":6170:6195   */\n      mstore\n        /* \"#utility.yul\":6214:6216   */\n      0x20\n        /* \"#utility.yul\":6252:6258   */\n      dup8\n        /* \"#utility.yul\":6247:6249   */\n      dup2\n        /* \"#utility.yul\":6236:6245   */\n      dup6\n        /* \"#utility.yul\":6232:6250   */\n      add\n        /* \"#utility.yul\":6225:6259   */\n      mstore\n        /* \"#utility.yul\":6295:6298   */\n      0xa0\n        /* \"#utility.yul\":6290:6292   */\n      0x40\n        /* \"#utility.yul\":6279:6288   */\n      dup6\n        /* \"#utility.yul\":6275:6293   */\n      add\n        /* \"#utility.yul\":6268:6299   */\n      mstore\n        /* \"#utility.yul\":6319:6325   */\n      dup2\n        /* \"#utility.yul\":6354:6360   */\n      dup8\n        /* \"#utility.yul\":6348:6361   */\n      mload\n        /* \"#utility.yul\":6385:6391   */\n      dup1\n        /* \"#utility.yul\":6377:6383   */\n      dup5\n        /* \"#utility.yul\":6370:6392   */\n      mstore\n        /* \"#utility.yul\":6423:6426   */\n      0xc0\n        /* \"#utility.yul\":6412:6421   */\n      dup7\n        /* \"#utility.yul\":6408:6427   */\n      add\n        /* \"#utility.yul\":6401:6427   */\n      swap2\n      pop\n        /* \"#utility.yul\":6462:6464   */\n      dup3\n        /* \"#utility.yul\":6454:6460   */\n      dup10\n        /* \"#utility.yul\":6450:6465   */\n      add\n        /* \"#utility.yul\":6436:6465   */\n      swap4\n      pop\n        /* \"#utility.yul\":6483:6484   */\n      0x00\n        /* \"#utility.yul\":6493:6688   */\n    tag_379:\n        /* \"#utility.yul\":6507:6513   */\n      dup2\n        /* \"#utility.yul\":6504:6505   */\n      dup2\n        /* \"#utility.yul\":6501:6514   */\n      lt\n        /* \"#utility.yul\":6493:6688   */\n      iszero\n      tag_381\n      jumpi\n        /* \"#utility.yul\":6572:6585   */\n      dup5\n      mload\n      sub(shl(0xa0, 0x01), 0x01)\n        /* \"#utility.yul\":6568:6607   */\n      and\n        /* \"#utility.yul\":6556:6608   */\n      dup4\n      mstore\n        /* \"#utility.yul\":6663:6678   */\n      swap4\n      dup4\n      add\n      swap4\n        /* \"#utility.yul\":6628:6640   */\n      swap2\n      dup4\n      add\n      swap2\n        /* \"#utility.yul\":6604:6605   */\n      0x01\n        /* \"#utility.yul\":6522:6531   */\n      add\n        /* \"#utility.yul\":6493:6688   */\n      jump(tag_379)\n    tag_381:\n      pop\n      pop\n      sub(shl(0xa0, 0x01), 0x01)\n        /* \"#utility.yul\":6744:6776   */\n      swap7\n      swap1\n      swap7\n      and\n        /* \"#utility.yul\":6739:6741   */\n      0x60\n        /* \"#utility.yul\":6724:6742   */\n      dup6\n      add\n        /* \"#utility.yul\":6717:6777   */\n      mstore\n      pop\n      pop\n      pop\n        /* \"#utility.yul\":6808:6811   */\n      0x80\n        /* \"#utility.yul\":6793:6812   */\n      add\n        /* \"#utility.yul\":6786:6821   */\n      mstore\n        /* \"#utility.yul\":6705:6708   */\n      swap4\n        /* \"#utility.yul\":5847:6827   */\n      swap3\n      pop\n      pop\n      pop\n      jump\t// out\n        /* \"#utility.yul\":7850:8156   */\n    tag_243:\n        /* \"#utility.yul\":7938:7944   */\n      0x00\n        /* \"#utility.yul\":7946:7952   */\n      dup1\n        /* \"#utility.yul\":7954:7960   */\n      0x00\n        /* \"#utility.yul\":8007:8009   */\n      0x60\n        /* \"#utility.yul\":7995:8004   */\n      dup5\n        /* \"#utility.yul\":7986:7993   */\n      dup7\n        /* \"#utility.yul\":7982:8005   */\n      sub\n        /* \"#utility.yul\":7978:8010   */\n      slt\n        /* \"#utility.yul\":7975:8027   */\n      iszero\n      tag_385\n      jumpi\n        /* \"#utility.yul\":8023:8024   */\n      0x00\n        /* \"#utility.yul\":8020:8021   */\n      dup1\n        /* \"#utility.yul\":8013:8025   */\n      revert\n        /* \"#utility.yul\":7975:8027   */\n    tag_385:\n        /* \"#utility.yul\":8052:8061   */\n      dup4\n        /* \"#utility.yul\":8046:8062   */\n      mload\n        /* \"#utility.yul\":8036:8062   */\n      swap3\n      pop\n        /* \"#utility.yul\":8102:8104   */\n      0x20\n        /* \"#utility.yul\":8091:8100   */\n      dup5\n        /* \"#utility.yul\":8087:8105   */\n      add\n        /* \"#utility.yul\":8081:8106   */\n      mload\n        /* \"#utility.yul\":8071:8106   */\n      swap2\n      pop\n        /* \"#utility.yul\":8146:8148   */\n      0x40\n        /* \"#utility.yul\":8135:8144   */\n      dup5\n        /* \"#utility.yul\":8131:8149   */\n      add\n        /* \"#utility.yul\":8125:8150   */\n      mload\n        /* \"#utility.yul\":8115:8150   */\n      swap1\n      pop\n        /* \"#utility.yul\":7850:8156   */\n      swap3\n      pop\n      swap3\n      pop\n      swap3\n      jump\t// out\n\n    auxdata: 0xa2646970667358221220dc619be63b8d5b89137c3cc2b3465cad1e40a34ebc5e3547da89437d12f32ddc64736f6c63430008120033\n}\n",
				"bytecode": {
					"linkReferences": {},
					"object": "60806040523480156200001157600080fd5b506040516200196038038062001960833981016040819052620000349162000379565b604051806040016040528060098152602001685375626a656374203360b81b8152506040518060400160405280600781526020016614dd589a9958dd60ca1b815250816003908162000087919062000467565b50600462000096828262000467565b505050620000b6336a7c13bc4b2c133c560000006200029160201b60201c565b600680546001600160a01b038086166001600160a01b03199283168117909355600880548683169084161790556009805491851691831691909117905560078054821633179055600a805490911661dead1790556040805163c45a015560e01b8152905163c45a0155916004808201926020929091908290030181865afa15801562000146573d6000803e3d6000fd5b505050506040513d601f19601f820116820180604052508101906200016c919062000533565b6001600160a01b031663c9c65396600660009054906101000a90046001600160a01b03166001600160a01b031663ad5c46486040518163ffffffff1660e01b8152600401602060405180830381865afa158015620001ce573d6000803e3d6000fd5b505050506040513d601f19601f82011682018060405250810190620001f4919062000533565b6040516001600160e01b031960e084901b1681526001600160a01b0390911660048201523060248201526044016020604051808303816000875af115801562000241573d6000803e3d6000fd5b505050506040513d601f19601f8201168201806040525081019062000267919062000533565b600580546001600160a01b0319166001600160a01b03929092169190911790555062000580915050565b6001600160a01b038216620002ec5760405162461bcd60e51b815260206004820152601f60248201527f45524332303a206d696e7420746f20746865207a65726f206164647265737300604482015260640160405180910390fd5b806002600082825462000300919062000558565b90915550506001600160a01b038216600081815260208181526040808320805486019055518481527fddf252ad1be2c89b69c2b068fc378daa952ba7f163c4a11628f55a4df523b3ef910160405180910390a35050565b505050565b80516001600160a01b03811681146200037457600080fd5b919050565b6000806000606084860312156200038f57600080fd5b6200039a846200035c565b9250620003aa602085016200035c565b9150620003ba604085016200035c565b90509250925092565b634e487b7160e01b600052604160045260246000fd5b600181811c90821680620003ee57607f821691505b6020821081036200040f57634e487b7160e01b600052602260045260246000fd5b50919050565b601f8211156200035757600081815260208120601f850160051c810160208610156200043e5750805b601f850160051c820191505b818110156200045f578281556001016200044a565b505050505050565b81516001600160401b03811115620004835762000483620003c3565b6200049b81620004948454620003d9565b8462000415565b602080601f831160018114620004d35760008415620004ba5750858301515b600019600386901b1c1916600185901b1785556200045f565b600085815260208120601f198616915b828110156200050457888601518255948401946001909101908401620004e3565b5085821015620005235787850151600019600388901b60f8161c191681555b5050505050600190811b01905550565b6000602082840312156200054657600080fd5b62000551826200035c565b9392505050565b808201808211156200057a57634e487b7160e01b600052601160045260246000fd5b92915050565b6113d080620005906000396000f3fe60806040526004361061016a5760003560e01c80637126b427116100d1578063a9059cbb1161008a578063dd62ed3e11610064578063dd62ed3e14610442578063f08d55d514610462578063f264901e14610482578063fb606f921461049857600080fd5b8063a9059cbb146103e2578063c112304414610402578063cbb732971461042257600080fd5b80637126b427146103425780638da5cb5b146103575780639024d3e31461037757806395d89b411461038d5780639bb9e5e4146103a2578063a457c2d7146103c257600080fd5b8063313ce56711610123578063313ce5671461026a578063395093511461028657806348a745b8146102a657806349bd5a5e146102bc57806356b5998a146102dc57806370a082311461030c57600080fd5b806306fdde0314610176578063095ea7b3146101a157806313af4035146101d15780631694505e146101f357806318160ddd1461022b57806323b872dd1461024a57600080fd5b3661017157005b600080fd5b34801561018257600080fd5b5061018b6104b8565b6040516101989190611075565b60405180910390f35b3480156101ad57600080fd5b506101c16101bc3660046110d8565b61054a565b6040519015158152602001610198565b3480156101dd57600080fd5b506101f16101ec366004611104565b610564565b005b3480156101ff57600080fd5b50600654610213906001600160a01b031681565b6040516001600160a01b039091168152602001610198565b34801561023757600080fd5b506002545b604051908152602001610198565b34801561025657600080fd5b506101c1610265366004611128565b6105e5565b34801561027657600080fd5b5060405160128152602001610198565b34801561029257600080fd5b506101c16102a13660046110d8565b610609565b3480156102b257600080fd5b5061023c600c5481565b3480156102c857600080fd5b50600554610213906001600160a01b031681565b3480156102e857600080fd5b506101c16102f7366004611104565b600b6020526000908152604090205460ff1681565b34801561031857600080fd5b5061023c610327366004611104565b6001600160a01b031660009081526020819052604090205490565b34801561034e57600080fd5b506101f161062b565b34801561036357600080fd5b50600754610213906001600160a01b031681565b34801561038357600080fd5b5061023c600d5481565b34801561039957600080fd5b5061018b61072d565b3480156103ae57600080fd5b506101f16103bd366004611169565b61073c565b3480156103ce57600080fd5b506101c16103dd3660046110d8565b610895565b3480156103ee57600080fd5b506101c16103fd3660046110d8565b610910565b34801561040e57600080fd5b50600954610213906001600160a01b031681565b34801561042e57600080fd5b506101f161043d366004611199565b61091e565b34801561044e57600080fd5b5061023c61045d3660046111d2565b6109d0565b34801561046e57600080fd5b50600854610213906001600160a01b031681565b34801561048e57600080fd5b5061023c600e5481565b3480156104a457600080fd5b506101f16104b33660046111d2565b6109fb565b6060600380546104c790611200565b80601f01602080910402602001604051908101604052809291908181526020018280546104f390611200565b80156105405780601f1061051557610100808354040283529160200191610540565b820191906000526020600020905b81548152906001019060200180831161052357829003601f168201915b5050505050905090565b600033610558818585610a83565b60019150505b92915050565b6007546001600160a01b031633146105c35760405162461bcd60e51b815260206004820152601a60248201527f45524332303a43616c6c6572206973206e6f74206f776e65722100000000000060448201526064015b60405180910390fd5b600780546001600160a01b0319166001600160a01b0392909216919091179055565b6000336105f3858285610ba7565b6105fe858585610c21565b506001949350505050565b60003361055881858561061c83836109d0565b6106269190611250565b610a83565b600554604080516318160ddd60e01b815290516000926001600160a01b0316916318160ddd9160048083019260209291908290030181865afa158015610675573d6000803e3d6000fd5b505050506040513d601f19601f820116820180604052508101906106999190611263565b111561072b5760006002600e546106b0919061127c565b600d549091506106c0823061073c565b6009546106d990839047906001600160a01b031661091e565b6106e482600261129e565b600e60008282546106f591906112b5565b90915550506008546107119082906001600160a01b031661073c565b80600d600082825461072391906112b5565b909155505050505b565b6060600480546104c790611200565b600654610752906001600160a01b03168361054a565b506040805160028082526060820183526000926020830190803683370190505090503081600081518110610788576107886112c8565b6001600160a01b03928316602091820292909201810191909152600654604080516315ab88c960e31b81529051919093169263ad5c46489260048083019391928290030181865afa1580156107e1573d6000803e3d6000fd5b505050506040513d601f19601f8201168201806040525081019061080591906112de565b81600181518110610818576108186112c8565b6001600160a01b03928316602091820292909201015260065460405163791ac94760e01b815291169063791ac9479061085e9086906000908690889042906004016112fb565b600060405180830381600087803b15801561087857600080fd5b505af115801561088c573d6000803e3d6000fd5b50505050505050565b600033816108a382866109d0565b9050838110156109035760405162461bcd60e51b815260206004820152602560248201527f45524332303a2064656372656173656420616c6c6f77616e63652062656c6f77604482015264207a65726f60d81b60648201526084016105ba565b6105fe8286868403610a83565b600033610558818585610c21565b600654610934906001600160a01b03168461054a565b5060065460405163f305d71960e01b81523060048201526024810185905260006044820181905260648201526001600160a01b0383811660848301524260a48301529091169063f305d71990849060c40160606040518083038185885af11580156109a3573d6000803e3d6000fd5b50505050506040513d601f19601f820116820180604052508101906109c8919061136c565b505050505050565b6001600160a01b03918216600090815260016020908152604080832093909416825291909152205490565b6007546001600160a01b03163314610a555760405162461bcd60e51b815260206004820152601a60248201527f45524332303a43616c6c6572206973206e6f74206f776e65722100000000000060448201526064016105ba565b600880546001600160a01b039384166001600160a01b03199182161790915560098054929093169116179055565b6001600160a01b038316610ae55760405162461bcd60e51b8152602060048201526024808201527f45524332303a20617070726f76652066726f6d20746865207a65726f206164646044820152637265737360e01b60648201526084016105ba565b6001600160a01b038216610b465760405162461bcd60e51b815260206004820152602260248201527f45524332303a20617070726f766520746f20746865207a65726f206164647265604482015261737360f01b60648201526084016105ba565b6001600160a01b0383811660008181526001602090815260408083209487168084529482529182902085905590518481527f8c5be1e5ebec7d5bd14f71427d1e84f3dd0314c0f7b2291e5b200ac8c7c3b925910160405180910390a3505050565b6000610bb384846109d0565b90506000198114610c1b5781811015610c0e5760405162461bcd60e51b815260206004820152601d60248201527f45524332303a20696e73756666696369656e7420616c6c6f77616e636500000060448201526064016105ba565b610c1b8484848403610a83565b50505050565b6001600160a01b0383166000908152600b602052604090205460ff1615610c7d5760405162461bcd60e51b815260206004820152601060248201526f45524332303a4e6f207065726d69742160801b60448201526064016105ba565b60055481906001600160a01b0385811691161480610ca857506005546001600160a01b038481169116145b15610d6c57610cce84306064610cbf85600461129e565b610cc9919061127c565b610ded565b600a54610ced9085906001600160a01b03166064610cbf85600261129e565b6064610cfa82600661129e565b610d04919061127c565b610d0e90826112b5565b90506064610d1d83600261129e565b610d27919061127c565b600e6000828254610d389190611250565b9091555060649050610d4b83600261129e565b610d55919061127c565b600d6000828254610d669190611250565b90915550505b610d77848483610ded565b610d8083610f91565b6005546001600160a01b03858116911614801590610dac57506006546001600160a01b03858116911614155b8015610dc657506005546001600160a01b03848116911614155b8015610de057506006546001600160a01b03848116911614155b15610c1b57610c1b61062b565b6001600160a01b038316610e515760405162461bcd60e51b815260206004820152602560248201527f45524332303a207472616e736665722066726f6d20746865207a65726f206164604482015264647265737360d81b60648201526084016105ba565b6001600160a01b038216610eb35760405162461bcd60e51b815260206004820152602360248201527f45524332303a207472616e7366657220746f20746865207a65726f206164647260448201526265737360e81b60648201526084016105ba565b6001600160a01b03831660009081526020819052604090205481811015610f2b5760405162461bcd60e51b815260206004820152602660248201527f45524332303a207472616e7366657220616d6f756e7420657863656564732062604482015265616c616e636560d01b60648201526084016105ba565b6001600160a01b03848116600081815260208181526040808320878703905593871680835291849020805487019055925185815290927fddf252ad1be2c89b69c2b068fc378daa952ba7f163c4a11628f55a4df523b3ef910160405180910390a3610c1b565b600c5415801561100c5750600554604080516318160ddd60e01b815290516000926001600160a01b0316916318160ddd9160048083019260209291908290030181865afa158015610fe6573d6000803e3d6000fd5b505050506040513d601f19601f8201168201806040525081019061100a9190611263565b115b156110165742600c555b600c5461102490603c611250565b4210801561103457506000600c54115b801561104957506001600160a01b0381163014155b15611072576001600160a01b0381166000908152600b60205260409020805460ff191660011790555b50565b600060208083528351808285015260005b818110156110a257858101830151858201604001528201611086565b506000604082860101526040601f19601f8301168501019250505092915050565b6001600160a01b038116811461107257600080fd5b600080604083850312156110eb57600080fd5b82356110f6816110c3565b946020939093013593505050565b60006020828403121561111657600080fd5b8135611121816110c3565b9392505050565b60008060006060848603121561113d57600080fd5b8335611148816110c3565b92506020840135611158816110c3565b929592945050506040919091013590565b6000806040838503121561117c57600080fd5b82359150602083013561118e816110c3565b809150509250929050565b6000806000606084860312156111ae57600080fd5b833592506020840135915060408401356111c7816110c3565b809150509250925092565b600080604083850312156111e557600080fd5b82356111f0816110c3565b9150602083013561118e816110c3565b600181811c9082168061121457607f821691505b60208210810361123457634e487b7160e01b600052602260045260246000fd5b50919050565b634e487b7160e01b600052601160045260246000fd5b8082018082111561055e5761055e61123a565b60006020828403121561127557600080fd5b5051919050565b60008261129957634e487b7160e01b600052601260045260246000fd5b500490565b808202811582820484141761055e5761055e61123a565b8181038181111561055e5761055e61123a565b634e487b7160e01b600052603260045260246000fd5b6000602082840312156112f057600080fd5b8151611121816110c3565b600060a082018783526020878185015260a0604085015281875180845260c086019150828901935060005b8181101561134b5784516001600160a01b031683529383019391830191600101611326565b50506001600160a01b03969096166060850152505050608001529392505050565b60008060006060848603121561138157600080fd5b835192506020840151915060408401519050925092509256fea2646970667358221220dc619be63b8d5b89137c3cc2b3465cad1e40a34ebc5e3547da89437d12f32ddc64736f6c63430008120033",
					"opcodes": "PUSH1 0x80 PUSH1 0x40 MSTORE CALLVALUE DUP1 ISZERO PUSH3 0x11 JUMPI PUSH1 0x0 DUP1 REVERT JUMPDEST POP PUSH1 0x40 MLOAD PUSH3 0x1960 CODESIZE SUB DUP1 PUSH3 0x1960 DUP4 CODECOPY DUP2 ADD PUSH1 0x40 DUP2 SWAP1 MSTORE PUSH3 0x34 SWAP2 PUSH3 0x379 JUMP JUMPDEST PUSH1 0x40 MLOAD DUP1 PUSH1 0x40 ADD PUSH1 0x40 MSTORE DUP1 PUSH1 0x9 DUP2 MSTORE PUSH1 0x20 ADD PUSH9 0x5375626A6563742033 PUSH1 0xB8 SHL DUP2 MSTORE POP PUSH1 0x40 MLOAD DUP1 PUSH1 0x40 ADD PUSH1 0x40 MSTORE DUP1 PUSH1 0x7 DUP2 MSTORE PUSH1 0x20 ADD PUSH7 0x14DD589A9958DD PUSH1 0xCA SHL DUP2 MSTORE POP DUP2 PUSH1 0x3 SWAP1 DUP2 PUSH3 0x87 SWAP2 SWAP1 PUSH3 0x467 JUMP JUMPDEST POP PUSH1 0x4 PUSH3 0x96 DUP3 DUP3 PUSH3 0x467 JUMP JUMPDEST POP POP POP PUSH3 0xB6 CALLER PUSH11 0x7C13BC4B2C133C56000000 PUSH3 0x291 PUSH1 0x20 SHL PUSH1 0x20 SHR JUMP JUMPDEST PUSH1 0x6 DUP1 SLOAD PUSH1 0x1 PUSH1 0x1 PUSH1 0xA0 SHL SUB DUP1 DUP7 AND PUSH1 0x1 PUSH1 0x1 PUSH1 0xA0 SHL SUB NOT SWAP3 DUP4 AND DUP2 OR SWAP1 SWAP4 SSTORE PUSH1 0x8 DUP1 SLOAD DUP7 DUP4 AND SWAP1 DUP5 AND OR SWAP1 SSTORE PUSH1 0x9 DUP1 SLOAD SWAP2 DUP6 AND SWAP2 DUP4 AND SWAP2 SWAP1 SWAP2 OR SWAP1 SSTORE PUSH1 0x7 DUP1 SLOAD DUP3 AND CALLER OR SWAP1 SSTORE PUSH1 0xA DUP1 SLOAD SWAP1 SWAP2 AND PUSH2 0xDEAD OR SWAP1 SSTORE PUSH1 0x40 DUP1 MLOAD PUSH4 0xC45A0155 PUSH1 0xE0 SHL DUP2 MSTORE SWAP1 MLOAD PUSH4 0xC45A0155 SWAP2 PUSH1 0x4 DUP1 DUP3 ADD SWAP3 PUSH1 0x20 SWAP3 SWAP1 SWAP2 SWAP1 DUP3 SWAP1 SUB ADD DUP2 DUP7 GAS STATICCALL ISZERO DUP1 ISZERO PUSH3 0x146 JUMPI RETURNDATASIZE PUSH1 0x0 DUP1 RETURNDATACOPY RETURNDATASIZE PUSH1 0x0 REVERT JUMPDEST POP POP POP POP PUSH1 0x40 MLOAD RETURNDATASIZE PUSH1 0x1F NOT PUSH1 0x1F DUP3 ADD AND DUP3 ADD DUP1 PUSH1 0x40 MSTORE POP DUP2 ADD SWAP1 PUSH3 0x16C SWAP2 SWAP1 PUSH3 0x533 JUMP JUMPDEST PUSH1 0x1 PUSH1 0x1 PUSH1 0xA0 SHL SUB AND PUSH4 0xC9C65396 PUSH1 0x6 PUSH1 0x0 SWAP1 SLOAD SWAP1 PUSH2 0x100 EXP SWAP1 DIV PUSH1 0x1 PUSH1 0x1 PUSH1 0xA0 SHL SUB AND PUSH1 0x1 PUSH1 0x1 PUSH1 0xA0 SHL SUB AND PUSH4 0xAD5C4648 PUSH1 0x40 MLOAD DUP2 PUSH4 0xFFFFFFFF AND PUSH1 0xE0 SHL DUP2 MSTORE PUSH1 0x4 ADD PUSH1 0x20 PUSH1 0x40 MLOAD DUP1 DUP4 SUB DUP2 DUP7 GAS STATICCALL ISZERO DUP1 ISZERO PUSH3 0x1CE JUMPI RETURNDATASIZE PUSH1 0x0 DUP1 RETURNDATACOPY RETURNDATASIZE PUSH1 0x0 REVERT JUMPDEST POP POP POP POP PUSH1 0x40 MLOAD RETURNDATASIZE PUSH1 0x1F NOT PUSH1 0x1F DUP3 ADD AND DUP3 ADD DUP1 PUSH1 0x40 MSTORE POP DUP2 ADD SWAP1 PUSH3 0x1F4 SWAP2 SWAP1 PUSH3 0x533 JUMP JUMPDEST PUSH1 0x40 MLOAD PUSH1 0x1 PUSH1 0x1 PUSH1 0xE0 SHL SUB NOT PUSH1 0xE0 DUP5 SWAP1 SHL AND DUP2 MSTORE PUSH1 0x1 PUSH1 0x1 PUSH1 0xA0 SHL SUB SWAP1 SWAP2 AND PUSH1 0x4 DUP3 ADD MSTORE ADDRESS PUSH1 0x24 DUP3 ADD MSTORE PUSH1 0x44 ADD PUSH1 0x20 PUSH1 0x40 MLOAD DUP1 DUP4 SUB DUP2 PUSH1 0x0 DUP8 GAS CALL ISZERO DUP1 ISZERO PUSH3 0x241 JUMPI RETURNDATASIZE PUSH1 0x0 DUP1 RETURNDATACOPY RETURNDATASIZE PUSH1 0x0 REVERT JUMPDEST POP POP POP POP PUSH1 0x40 MLOAD RETURNDATASIZE PUSH1 0x1F NOT PUSH1 0x1F DUP3 ADD AND DUP3 ADD DUP1 PUSH1 0x40 MSTORE POP DUP2 ADD SWAP1 PUSH3 0x267 SWAP2 SWAP1 PUSH3 0x533 JUMP JUMPDEST PUSH1 0x5 DUP1 SLOAD PUSH1 0x1 PUSH1 0x1 PUSH1 0xA0 SHL SUB NOT AND PUSH1 0x1 PUSH1 0x1 PUSH1 0xA0 SHL SUB SWAP3 SWAP1 SWAP3 AND SWAP2 SWAP1 SWAP2 OR SWAP1 SSTORE POP PUSH3 0x580 SWAP2 POP POP JUMP JUMPDEST PUSH1 0x1 PUSH1 0x1 PUSH1 0xA0 SHL SUB DUP3 AND PUSH3 0x2EC JUMPI PUSH1 0x40 MLOAD PUSH3 0x461BCD PUSH1 0xE5 SHL DUP2 MSTORE PUSH1 0x20 PUSH1 0x4 DUP3 ADD MSTORE PUSH1 0x1F PUSH1 0x24 DUP3 ADD MSTORE PUSH32 0x45524332303A206D696E7420746F20746865207A65726F206164647265737300 PUSH1 0x44 DUP3 ADD MSTORE PUSH1 0x64 ADD PUSH1 0x40 MLOAD DUP1 SWAP2 SUB SWAP1 REVERT JUMPDEST DUP1 PUSH1 0x2 PUSH1 0x0 DUP3 DUP3 SLOAD PUSH3 0x300 SWAP2 SWAP1 PUSH3 0x558 JUMP JUMPDEST SWAP1 SWAP2 SSTORE POP POP PUSH1 0x1 PUSH1 0x1 PUSH1 0xA0 SHL SUB DUP3 AND PUSH1 0x0 DUP2 DUP2 MSTORE PUSH1 0x20 DUP2 DUP2 MSTORE PUSH1 0x40 DUP1 DUP4 KECCAK256 DUP1 SLOAD DUP7 ADD SWAP1 SSTORE MLOAD DUP5 DUP2 MSTORE PUSH32 0xDDF252AD1BE2C89B69C2B068FC378DAA952BA7F163C4A11628F55A4DF523B3EF SWAP2 ADD PUSH1 0x40 MLOAD DUP1 SWAP2 SUB SWAP1 LOG3 POP POP JUMP JUMPDEST POP POP POP JUMP JUMPDEST DUP1 MLOAD PUSH1 0x1 PUSH1 0x1 PUSH1 0xA0 SHL SUB DUP2 AND DUP2 EQ PUSH3 0x374 JUMPI PUSH1 0x0 DUP1 REVERT JUMPDEST SWAP2 SWAP1 POP JUMP JUMPDEST PUSH1 0x0 DUP1 PUSH1 0x0 PUSH1 0x60 DUP5 DUP7 SUB SLT ISZERO PUSH3 0x38F JUMPI PUSH1 0x0 DUP1 REVERT JUMPDEST PUSH3 0x39A DUP5 PUSH3 0x35C JUMP JUMPDEST SWAP3 POP PUSH3 0x3AA PUSH1 0x20 DUP6 ADD PUSH3 0x35C JUMP JUMPDEST SWAP2 POP PUSH3 0x3BA PUSH1 0x40 DUP6 ADD PUSH3 0x35C JUMP JUMPDEST SWAP1 POP SWAP3 POP SWAP3 POP SWAP3 JUMP JUMPDEST PUSH4 0x4E487B71 PUSH1 0xE0 SHL PUSH1 0x0 MSTORE PUSH1 0x41 PUSH1 0x4 MSTORE PUSH1 0x24 PUSH1 0x0 REVERT JUMPDEST PUSH1 0x1 DUP2 DUP2 SHR SWAP1 DUP3 AND DUP1 PUSH3 0x3EE JUMPI PUSH1 0x7F DUP3 AND SWAP2 POP JUMPDEST PUSH1 0x20 DUP3 LT DUP2 SUB PUSH3 0x40F JUMPI PUSH4 0x4E487B71 PUSH1 0xE0 SHL PUSH1 0x0 MSTORE PUSH1 0x22 PUSH1 0x4 MSTORE PUSH1 0x24 PUSH1 0x0 REVERT JUMPDEST POP SWAP2 SWAP1 POP JUMP JUMPDEST PUSH1 0x1F DUP3 GT ISZERO PUSH3 0x357 JUMPI PUSH1 0x0 DUP2 DUP2 MSTORE PUSH1 0x20 DUP2 KECCAK256 PUSH1 0x1F DUP6 ADD PUSH1 0x5 SHR DUP2 ADD PUSH1 0x20 DUP7 LT ISZERO PUSH3 0x43E JUMPI POP DUP1 JUMPDEST PUSH1 0x1F DUP6 ADD PUSH1 0x5 SHR DUP3 ADD SWAP2 POP JUMPDEST DUP2 DUP2 LT ISZERO PUSH3 0x45F JUMPI DUP3 DUP2 SSTORE PUSH1 0x1 ADD PUSH3 0x44A JUMP JUMPDEST POP POP POP POP POP POP JUMP JUMPDEST DUP2 MLOAD PUSH1 0x1 PUSH1 0x1 PUSH1 0x40 SHL SUB DUP2 GT ISZERO PUSH3 0x483 JUMPI PUSH3 0x483 PUSH3 0x3C3 JUMP JUMPDEST PUSH3 0x49B DUP2 PUSH3 0x494 DUP5 SLOAD PUSH3 0x3D9 JUMP JUMPDEST DUP5 PUSH3 0x415 JUMP JUMPDEST PUSH1 0x20 DUP1 PUSH1 0x1F DUP4 GT PUSH1 0x1 DUP2 EQ PUSH3 0x4D3 JUMPI PUSH1 0x0 DUP5 ISZERO PUSH3 0x4BA JUMPI POP DUP6 DUP4 ADD MLOAD JUMPDEST PUSH1 0x0 NOT PUSH1 0x3 DUP7 SWAP1 SHL SHR NOT AND PUSH1 0x1 DUP6 SWAP1 SHL OR DUP6 SSTORE PUSH3 0x45F JUMP JUMPDEST PUSH1 0x0 DUP6 DUP2 MSTORE PUSH1 0x20 DUP2 KECCAK256 PUSH1 0x1F NOT DUP7 AND SWAP2 JUMPDEST DUP3 DUP2 LT ISZERO PUSH3 0x504 JUMPI DUP9 DUP7 ADD MLOAD DUP3 SSTORE SWAP5 DUP5 ADD SWAP5 PUSH1 0x1 SWAP1 SWAP2 ADD SWAP1 DUP5 ADD PUSH3 0x4E3 JUMP JUMPDEST POP DUP6 DUP3 LT ISZERO PUSH3 0x523 JUMPI DUP8 DUP6 ADD MLOAD PUSH1 0x0 NOT PUSH1 0x3 DUP9 SWAP1 SHL PUSH1 0xF8 AND SHR NOT AND DUP2 SSTORE JUMPDEST POP POP POP POP POP PUSH1 0x1 SWAP1 DUP2 SHL ADD SWAP1 SSTORE POP JUMP JUMPDEST PUSH1 0x0 PUSH1 0x20 DUP3 DUP5 SUB SLT ISZERO PUSH3 0x546 JUMPI PUSH1 0x0 DUP1 REVERT JUMPDEST PUSH3 0x551 DUP3 PUSH3 0x35C JUMP JUMPDEST SWAP4 SWAP3 POP POP POP JUMP JUMPDEST DUP1 DUP3 ADD DUP1 DUP3 GT ISZERO PUSH3 0x57A JUMPI PUSH4 0x4E487B71 PUSH1 0xE0 SHL PUSH1 0x0 MSTORE PUSH1 0x11 PUSH1 0x4 MSTORE PUSH1 0x24 PUSH1 0x0 REVERT JUMPDEST SWAP3 SWAP2 POP POP JUMP JUMPDEST PUSH2 0x13D0 DUP1 PUSH3 0x590 PUSH1 0x0 CODECOPY PUSH1 0x0 RETURN INVALID PUSH1 0x80 PUSH1 0x40 MSTORE PUSH1 0x4 CALLDATASIZE LT PUSH2 0x16A JUMPI PUSH1 0x0 CALLDATALOAD PUSH1 0xE0 SHR DUP1 PUSH4 0x7126B427 GT PUSH2 0xD1 JUMPI DUP1 PUSH4 0xA9059CBB GT PUSH2 0x8A JUMPI DUP1 PUSH4 0xDD62ED3E GT PUSH2 0x64 JUMPI DUP1 PUSH4 0xDD62ED3E EQ PUSH2 0x442 JUMPI DUP1 PUSH4 0xF08D55D5 EQ PUSH2 0x462 JUMPI DUP1 PUSH4 0xF264901E EQ PUSH2 0x482 JUMPI DUP1 PUSH4 0xFB606F92 EQ PUSH2 0x498 JUMPI PUSH1 0x0 DUP1 REVERT JUMPDEST DUP1 PUSH4 0xA9059CBB EQ PUSH2 0x3E2 JUMPI DUP1 PUSH4 0xC1123044 EQ PUSH2 0x402 JUMPI DUP1 PUSH4 0xCBB73297 EQ PUSH2 0x422 JUMPI PUSH1 0x0 DUP1 REVERT JUMPDEST DUP1 PUSH4 0x7126B427 EQ PUSH2 0x342 JUMPI DUP1 PUSH4 0x8DA5CB5B EQ PUSH2 0x357 JUMPI DUP1 PUSH4 0x9024D3E3 EQ PUSH2 0x377 JUMPI DUP1 PUSH4 0x95D89B41 EQ PUSH2 0x38D JUMPI DUP1 PUSH4 0x9BB9E5E4 EQ PUSH2 0x3A2 JUMPI DUP1 PUSH4 0xA457C2D7 EQ PUSH2 0x3C2 JUMPI PUSH1 0x0 DUP1 REVERT JUMPDEST DUP1 PUSH4 0x313CE567 GT PUSH2 0x123 JUMPI DUP1 PUSH4 0x313CE567 EQ PUSH2 0x26A JUMPI DUP1 PUSH4 0x39509351 EQ PUSH2 0x286 JUMPI DUP1 PUSH4 0x48A745B8 EQ PUSH2 0x2A6 JUMPI DUP1 PUSH4 0x49BD5A5E EQ PUSH2 0x2BC JUMPI DUP1 PUSH4 0x56B5998A EQ PUSH2 0x2DC JUMPI DUP1 PUSH4 0x70A08231 EQ PUSH2 0x30C JUMPI PUSH1 0x0 DUP1 REVERT JUMPDEST DUP1 PUSH4 0x6FDDE03 EQ PUSH2 0x176 JUMPI DUP1 PUSH4 0x95EA7B3 EQ PUSH2 0x1A1 JUMPI DUP1 PUSH4 0x13AF4035 EQ PUSH2 0x1D1 JUMPI DUP1 PUSH4 0x1694505E EQ PUSH2 0x1F3 JUMPI DUP1 PUSH4 0x18160DDD EQ PUSH2 0x22B JUMPI DUP1 PUSH4 0x23B872DD EQ PUSH2 0x24A JUMPI PUSH1 0x0 DUP1 REVERT JUMPDEST CALLDATASIZE PUSH2 0x171 JUMPI STOP JUMPDEST PUSH1 0x0 DUP1 REVERT JUMPDEST CALLVALUE DUP1 ISZERO PUSH2 0x182 JUMPI PUSH1 0x0 DUP1 REVERT JUMPDEST POP PUSH2 0x18B PUSH2 0x4B8 JUMP JUMPDEST PUSH1 0x40 MLOAD PUSH2 0x198 SWAP2 SWAP1 PUSH2 0x1075 JUMP JUMPDEST PUSH1 0x40 MLOAD DUP1 SWAP2 SUB SWAP1 RETURN JUMPDEST CALLVALUE DUP1 ISZERO PUSH2 0x1AD JUMPI PUSH1 0x0 DUP1 REVERT JUMPDEST POP PUSH2 0x1C1 PUSH2 0x1BC CALLDATASIZE PUSH1 0x4 PUSH2 0x10D8 JUMP JUMPDEST PUSH2 0x54A JUMP JUMPDEST PUSH1 0x40 MLOAD SWAP1 ISZERO ISZERO DUP2 MSTORE PUSH1 0x20 ADD PUSH2 0x198 JUMP JUMPDEST CALLVALUE DUP1 ISZERO PUSH2 0x1DD JUMPI PUSH1 0x0 DUP1 REVERT JUMPDEST POP PUSH2 0x1F1 PUSH2 0x1EC CALLDATASIZE PUSH1 0x4 PUSH2 0x1104 JUMP JUMPDEST PUSH2 0x564 JUMP JUMPDEST STOP JUMPDEST CALLVALUE DUP1 ISZERO PUSH2 0x1FF JUMPI PUSH1 0x0 DUP1 REVERT JUMPDEST POP PUSH1 0x6 SLOAD PUSH2 0x213 SWAP1 PUSH1 0x1 PUSH1 0x1 PUSH1 0xA0 SHL SUB AND DUP2 JUMP JUMPDEST PUSH1 0x40 MLOAD PUSH1 0x1 PUSH1 0x1 PUSH1 0xA0 SHL SUB SWAP1 SWAP2 AND DUP2 MSTORE PUSH1 0x20 ADD PUSH2 0x198 JUMP JUMPDEST CALLVALUE DUP1 ISZERO PUSH2 0x237 JUMPI PUSH1 0x0 DUP1 REVERT JUMPDEST POP PUSH1 0x2 SLOAD JUMPDEST PUSH1 0x40 MLOAD SWAP1 DUP2 MSTORE PUSH1 0x20 ADD PUSH2 0x198 JUMP JUMPDEST CALLVALUE DUP1 ISZERO PUSH2 0x256 JUMPI PUSH1 0x0 DUP1 REVERT JUMPDEST POP PUSH2 0x1C1 PUSH2 0x265 CALLDATASIZE PUSH1 0x4 PUSH2 0x1128 JUMP JUMPDEST PUSH2 0x5E5 JUMP JUMPDEST CALLVALUE DUP1 ISZERO PUSH2 0x276 JUMPI PUSH1 0x0 DUP1 REVERT JUMPDEST POP PUSH1 0x40 MLOAD PUSH1 0x12 DUP2 MSTORE PUSH1 0x20 ADD PUSH2 0x198 JUMP JUMPDEST CALLVALUE DUP1 ISZERO PUSH2 0x292 JUMPI PUSH1 0x0 DUP1 REVERT JUMPDEST POP PUSH2 0x1C1 PUSH2 0x2A1 CALLDATASIZE PUSH1 0x4 PUSH2 0x10D8 JUMP JUMPDEST PUSH2 0x609 JUMP JUMPDEST CALLVALUE DUP1 ISZERO PUSH2 0x2B2 JUMPI PUSH1 0x0 DUP1 REVERT JUMPDEST POP PUSH2 0x23C PUSH1 0xC SLOAD DUP2 JUMP JUMPDEST CALLVALUE DUP1 ISZERO PUSH2 0x2C8 JUMPI PUSH1 0x0 DUP1 REVERT JUMPDEST POP PUSH1 0x5 SLOAD PUSH2 0x213 SWAP1 PUSH1 0x1 PUSH1 0x1 PUSH1 0xA0 SHL SUB AND DUP2 JUMP JUMPDEST CALLVALUE DUP1 ISZERO PUSH2 0x2E8 JUMPI PUSH1 0x0 DUP1 REVERT JUMPDEST POP PUSH2 0x1C1 PUSH2 0x2F7 CALLDATASIZE PUSH1 0x4 PUSH2 0x1104 JUMP JUMPDEST PUSH1 0xB PUSH1 0x20 MSTORE PUSH1 0x0 SWAP1 DUP2 MSTORE PUSH1 0x40 SWAP1 KECCAK256 SLOAD PUSH1 0xFF AND DUP2 JUMP JUMPDEST CALLVALUE DUP1 ISZERO PUSH2 0x318 JUMPI PUSH1 0x0 DUP1 REVERT JUMPDEST POP PUSH2 0x23C PUSH2 0x327 CALLDATASIZE PUSH1 0x4 PUSH2 0x1104 JUMP JUMPDEST PUSH1 0x1 PUSH1 0x1 PUSH1 0xA0 SHL SUB AND PUSH1 0x0 SWAP1 DUP2 MSTORE PUSH1 0x20 DUP2 SWAP1 MSTORE PUSH1 0x40 SWAP1 KECCAK256 SLOAD SWAP1 JUMP JUMPDEST CALLVALUE DUP1 ISZERO PUSH2 0x34E JUMPI PUSH1 0x0 DUP1 REVERT JUMPDEST POP PUSH2 0x1F1 PUSH2 0x62B JUMP JUMPDEST CALLVALUE DUP1 ISZERO PUSH2 0x363 JUMPI PUSH1 0x0 DUP1 REVERT JUMPDEST POP PUSH1 0x7 SLOAD PUSH2 0x213 SWAP1 PUSH1 0x1 PUSH1 0x1 PUSH1 0xA0 SHL SUB AND DUP2 JUMP JUMPDEST CALLVALUE DUP1 ISZERO PUSH2 0x383 JUMPI PUSH1 0x0 DUP1 REVERT JUMPDEST POP PUSH2 0x23C PUSH1 0xD SLOAD DUP2 JUMP JUMPDEST CALLVALUE DUP1 ISZERO PUSH2 0x399 JUMPI PUSH1 0x0 DUP1 REVERT JUMPDEST POP PUSH2 0x18B PUSH2 0x72D JUMP JUMPDEST CALLVALUE DUP1 ISZERO PUSH2 0x3AE JUMPI PUSH1 0x0 DUP1 REVERT JUMPDEST POP PUSH2 0x1F1 PUSH2 0x3BD CALLDATASIZE PUSH1 0x4 PUSH2 0x1169 JUMP JUMPDEST PUSH2 0x73C JUMP JUMPDEST CALLVALUE DUP1 ISZERO PUSH2 0x3CE JUMPI PUSH1 0x0 DUP1 REVERT JUMPDEST POP PUSH2 0x1C1 PUSH2 0x3DD CALLDATASIZE PUSH1 0x4 PUSH2 0x10D8 JUMP JUMPDEST PUSH2 0x895 JUMP JUMPDEST CALLVALUE DUP1 ISZERO PUSH2 0x3EE JUMPI PUSH1 0x0 DUP1 REVERT JUMPDEST POP PUSH2 0x1C1 PUSH2 0x3FD CALLDATASIZE PUSH1 0x4 PUSH2 0x10D8 JUMP JUMPDEST PUSH2 0x910 JUMP JUMPDEST CALLVALUE DUP1 ISZERO PUSH2 0x40E JUMPI PUSH1 0x0 DUP1 REVERT JUMPDEST POP PUSH1 0x9 SLOAD PUSH2 0x213 SWAP1 PUSH1 0x1 PUSH1 0x1 PUSH1 0xA0 SHL SUB AND DUP2 JUMP JUMPDEST CALLVALUE DUP1 ISZERO PUSH2 0x42E JUMPI PUSH1 0x0 DUP1 REVERT JUMPDEST POP PUSH2 0x1F1 PUSH2 0x43D CALLDATASIZE PUSH1 0x4 PUSH2 0x1199 JUMP JUMPDEST PUSH2 0x91E JUMP JUMPDEST CALLVALUE DUP1 ISZERO PUSH2 0x44E JUMPI PUSH1 0x0 DUP1 REVERT JUMPDEST POP PUSH2 0x23C PUSH2 0x45D CALLDATASIZE PUSH1 0x4 PUSH2 0x11D2 JUMP JUMPDEST PUSH2 0x9D0 JUMP JUMPDEST CALLVALUE DUP1 ISZERO PUSH2 0x46E JUMPI PUSH1 0x0 DUP1 REVERT JUMPDEST POP PUSH1 0x8 SLOAD PUSH2 0x213 SWAP1 PUSH1 0x1 PUSH1 0x1 PUSH1 0xA0 SHL SUB AND DUP2 JUMP JUMPDEST CALLVALUE DUP1 ISZERO PUSH2 0x48E JUMPI PUSH1 0x0 DUP1 REVERT JUMPDEST POP PUSH2 0x23C PUSH1 0xE SLOAD DUP2 JUMP JUMPDEST CALLVALUE DUP1 ISZERO PUSH2 0x4A4 JUMPI PUSH1 0x0 DUP1 REVERT JUMPDEST POP PUSH2 0x1F1 PUSH2 0x4B3 CALLDATASIZE PUSH1 0x4 PUSH2 0x11D2 JUMP JUMPDEST PUSH2 0x9FB JUMP JUMPDEST PUSH1 0x60 PUSH1 0x3 DUP1 SLOAD PUSH2 0x4C7 SWAP1 PUSH2 0x1200 JUMP JUMPDEST DUP1 PUSH1 0x1F ADD PUSH1 0x20 DUP1 SWAP2 DIV MUL PUSH1 0x20 ADD PUSH1 0x40 MLOAD SWAP1 DUP2 ADD PUSH1 0x40 MSTORE DUP1 SWAP3 SWAP2 SWAP1 DUP2 DUP2 MSTORE PUSH1 0x20 ADD DUP3 DUP1 SLOAD PUSH2 0x4F3 SWAP1 PUSH2 0x1200 JUMP JUMPDEST DUP1 ISZERO PUSH2 0x540 JUMPI DUP1 PUSH1 0x1F LT PUSH2 0x515 JUMPI PUSH2 0x100 DUP1 DUP4 SLOAD DIV MUL DUP4 MSTORE SWAP2 PUSH1 0x20 ADD SWAP2 PUSH2 0x540 JUMP JUMPDEST DUP3 ADD SWAP2 SWAP1 PUSH1 0x0 MSTORE PUSH1 0x20 PUSH1 0x0 KECCAK256 SWAP1 JUMPDEST DUP2 SLOAD DUP2 MSTORE SWAP1 PUSH1 0x1 ADD SWAP1 PUSH1 0x20 ADD DUP1 DUP4 GT PUSH2 0x523 JUMPI DUP3 SWAP1 SUB PUSH1 0x1F AND DUP3 ADD SWAP2 JUMPDEST POP POP POP POP POP SWAP1 POP SWAP1 JUMP JUMPDEST PUSH1 0x0 CALLER PUSH2 0x558 DUP2 DUP6 DUP6 PUSH2 0xA83 JUMP JUMPDEST PUSH1 0x1 SWAP2 POP POP JUMPDEST SWAP3 SWAP2 POP POP JUMP JUMPDEST PUSH1 0x7 SLOAD PUSH1 0x1 PUSH1 0x1 PUSH1 0xA0 SHL SUB AND CALLER EQ PUSH2 0x5C3 JUMPI PUSH1 0x40 MLOAD PUSH3 0x461BCD PUSH1 0xE5 SHL DUP2 MSTORE PUSH1 0x20 PUSH1 0x4 DUP3 ADD MSTORE PUSH1 0x1A PUSH1 0x24 DUP3 ADD MSTORE PUSH32 0x45524332303A43616C6C6572206973206E6F74206F776E657221000000000000 PUSH1 0x44 DUP3 ADD MSTORE PUSH1 0x64 ADD JUMPDEST PUSH1 0x40 MLOAD DUP1 SWAP2 SUB SWAP1 REVERT JUMPDEST PUSH1 0x7 DUP1 SLOAD PUSH1 0x1 PUSH1 0x1 PUSH1 0xA0 SHL SUB NOT AND PUSH1 0x1 PUSH1 0x1 PUSH1 0xA0 SHL SUB SWAP3 SWAP1 SWAP3 AND SWAP2 SWAP1 SWAP2 OR SWAP1 SSTORE JUMP JUMPDEST PUSH1 0x0 CALLER PUSH2 0x5F3 DUP6 DUP3 DUP6 PUSH2 0xBA7 JUMP JUMPDEST PUSH2 0x5FE DUP6 DUP6 DUP6 PUSH2 0xC21 JUMP JUMPDEST POP PUSH1 0x1 SWAP5 SWAP4 POP POP POP POP JUMP JUMPDEST PUSH1 0x0 CALLER PUSH2 0x558 DUP2 DUP6 DUP6 PUSH2 0x61C DUP4 DUP4 PUSH2 0x9D0 JUMP JUMPDEST PUSH2 0x626 SWAP2 SWAP1 PUSH2 0x1250 JUMP JUMPDEST PUSH2 0xA83 JUMP JUMPDEST PUSH1 0x5 SLOAD PUSH1 0x40 DUP1 MLOAD PUSH4 0x18160DDD PUSH1 0xE0 SHL DUP2 MSTORE SWAP1 MLOAD PUSH1 0x0 SWAP3 PUSH1 0x1 PUSH1 0x1 PUSH1 0xA0 SHL SUB AND SWAP2 PUSH4 0x18160DDD SWAP2 PUSH1 0x4 DUP1 DUP4 ADD SWAP3 PUSH1 0x20 SWAP3 SWAP2 SWAP1 DUP3 SWAP1 SUB ADD DUP2 DUP7 GAS STATICCALL ISZERO DUP1 ISZERO PUSH2 0x675 JUMPI RETURNDATASIZE PUSH1 0x0 DUP1 RETURNDATACOPY RETURNDATASIZE PUSH1 0x0 REVERT JUMPDEST POP POP POP POP PUSH1 0x40 MLOAD RETURNDATASIZE PUSH1 0x1F NOT PUSH1 0x1F DUP3 ADD AND DUP3 ADD DUP1 PUSH1 0x40 MSTORE POP DUP2 ADD SWAP1 PUSH2 0x699 SWAP2 SWAP1 PUSH2 0x1263 JUMP JUMPDEST GT ISZERO PUSH2 0x72B JUMPI PUSH1 0x0 PUSH1 0x2 PUSH1 0xE SLOAD PUSH2 0x6B0 SWAP2 SWAP1 PUSH2 0x127C JUMP JUMPDEST PUSH1 0xD SLOAD SWAP1 SWAP2 POP PUSH2 0x6C0 DUP3 ADDRESS PUSH2 0x73C JUMP JUMPDEST PUSH1 0x9 SLOAD PUSH2 0x6D9 SWAP1 DUP4 SWAP1 SELFBALANCE SWAP1 PUSH1 0x1 PUSH1 0x1 PUSH1 0xA0 SHL SUB AND PUSH2 0x91E JUMP JUMPDEST PUSH2 0x6E4 DUP3 PUSH1 0x2 PUSH2 0x129E JUMP JUMPDEST PUSH1 0xE PUSH1 0x0 DUP3 DUP3 SLOAD PUSH2 0x6F5 SWAP2 SWAP1 PUSH2 0x12B5 JUMP JUMPDEST SWAP1 SWAP2 SSTORE POP POP PUSH1 0x8 SLOAD PUSH2 0x711 SWAP1 DUP3 SWAP1 PUSH1 0x1 PUSH1 0x1 PUSH1 0xA0 SHL SUB AND PUSH2 0x73C JUMP JUMPDEST DUP1 PUSH1 0xD PUSH1 0x0 DUP3 DUP3 SLOAD PUSH2 0x723 SWAP2 SWAP1 PUSH2 0x12B5 JUMP JUMPDEST SWAP1 SWAP2 SSTORE POP POP POP POP JUMPDEST JUMP JUMPDEST PUSH1 0x60 PUSH1 0x4 DUP1 SLOAD PUSH2 0x4C7 SWAP1 PUSH2 0x1200 JUMP JUMPDEST PUSH1 0x6 SLOAD PUSH2 0x752 SWAP1 PUSH1 0x1 PUSH1 0x1 PUSH1 0xA0 SHL SUB AND DUP4 PUSH2 0x54A JUMP JUMPDEST POP PUSH1 0x40 DUP1 MLOAD PUSH1 0x2 DUP1 DUP3 MSTORE PUSH1 0x60 DUP3 ADD DUP4 MSTORE PUSH1 0x0 SWAP3 PUSH1 0x20 DUP4 ADD SWAP1 DUP1 CALLDATASIZE DUP4 CALLDATACOPY ADD SWAP1 POP POP SWAP1 POP ADDRESS DUP2 PUSH1 0x0 DUP2 MLOAD DUP2 LT PUSH2 0x788 JUMPI PUSH2 0x788 PUSH2 0x12C8 JUMP JUMPDEST PUSH1 0x1 PUSH1 0x1 PUSH1 0xA0 SHL SUB SWAP3 DUP4 AND PUSH1 0x20 SWAP2 DUP3 MUL SWAP3 SWAP1 SWAP3 ADD DUP2 ADD SWAP2 SWAP1 SWAP2 MSTORE PUSH1 0x6 SLOAD PUSH1 0x40 DUP1 MLOAD PUSH4 0x15AB88C9 PUSH1 0xE3 SHL DUP2 MSTORE SWAP1 MLOAD SWAP2 SWAP1 SWAP4 AND SWAP3 PUSH4 0xAD5C4648 SWAP3 PUSH1 0x4 DUP1 DUP4 ADD SWAP4 SWAP2 SWAP3 DUP3 SWAP1 SUB ADD DUP2 DUP7 GAS STATICCALL ISZERO DUP1 ISZERO PUSH2 0x7E1 JUMPI RETURNDATASIZE PUSH1 0x0 DUP1 RETURNDATACOPY RETURNDATASIZE PUSH1 0x0 REVERT JUMPDEST POP POP POP POP PUSH1 0x40 MLOAD RETURNDATASIZE PUSH1 0x1F NOT PUSH1 0x1F DUP3 ADD AND DUP3 ADD DUP1 PUSH1 0x40 MSTORE POP DUP2 ADD SWAP1 PUSH2 0x805 SWAP2 SWAP1 PUSH2 0x12DE JUMP JUMPDEST DUP2 PUSH1 0x1 DUP2 MLOAD DUP2 LT PUSH2 0x818 JUMPI PUSH2 0x818 PUSH2 0x12C8 JUMP JUMPDEST PUSH1 0x1 PUSH1 0x1 PUSH1 0xA0 SHL SUB SWAP3 DUP4 AND PUSH1 0x20 SWAP2 DUP3 MUL SWAP3 SWAP1 SWAP3 ADD ADD MSTORE PUSH1 0x6 SLOAD PUSH1 0x40 MLOAD PUSH4 0x791AC947 PUSH1 0xE0 SHL DUP2 MSTORE SWAP2 AND SWAP1 PUSH4 0x791AC947 SWAP1 PUSH2 0x85E SWAP1 DUP7 SWAP1 PUSH1 0x0 SWAP1 DUP7 SWAP1 DUP9 SWAP1 TIMESTAMP SWAP1 PUSH1 0x4 ADD PUSH2 0x12FB JUMP JUMPDEST PUSH1 0x0 PUSH1 0x40 MLOAD DUP1 DUP4 SUB DUP2 PUSH1 0x0 DUP8 DUP1 EXTCODESIZE ISZERO DUP1 ISZERO PUSH2 0x878 JUMPI PUSH1 0x0 DUP1 REVERT JUMPDEST POP GAS CALL ISZERO DUP1 ISZERO PUSH2 0x88C JUMPI RETURNDATASIZE PUSH1 0x0 DUP1 RETURNDATACOPY RETURNDATASIZE PUSH1 0x0 REVERT JUMPDEST POP POP POP POP POP POP POP JUMP JUMPDEST PUSH1 0x0 CALLER DUP2 PUSH2 0x8A3 DUP3 DUP7 PUSH2 0x9D0 JUMP JUMPDEST SWAP1 POP DUP4 DUP2 LT ISZERO PUSH2 0x903 JUMPI PUSH1 0x40 MLOAD PUSH3 0x461BCD PUSH1 0xE5 SHL DUP2 MSTORE PUSH1 0x20 PUSH1 0x4 DUP3 ADD MSTORE PUSH1 0x25 PUSH1 0x24 DUP3 ADD MSTORE PUSH32 0x45524332303A2064656372656173656420616C6C6F77616E63652062656C6F77 PUSH1 0x44 DUP3 ADD MSTORE PUSH5 0x207A65726F PUSH1 0xD8 SHL PUSH1 0x64 DUP3 ADD MSTORE PUSH1 0x84 ADD PUSH2 0x5BA JUMP JUMPDEST PUSH2 0x5FE DUP3 DUP7 DUP7 DUP5 SUB PUSH2 0xA83 JUMP JUMPDEST PUSH1 0x0 CALLER PUSH2 0x558 DUP2 DUP6 DUP6 PUSH2 0xC21 JUMP JUMPDEST PUSH1 0x6 SLOAD PUSH2 0x934 SWAP1 PUSH1 0x1 PUSH1 0x1 PUSH1 0xA0 SHL SUB AND DUP5 PUSH2 0x54A JUMP JUMPDEST POP PUSH1 0x6 SLOAD PUSH1 0x40 MLOAD PUSH4 0xF305D719 PUSH1 0xE0 SHL DUP2 MSTORE ADDRESS PUSH1 0x4 DUP3 ADD MSTORE PUSH1 0x24 DUP2 ADD DUP6 SWAP1 MSTORE PUSH1 0x0 PUSH1 0x44 DUP3 ADD DUP2 SWAP1 MSTORE PUSH1 0x64 DUP3 ADD MSTORE PUSH1 0x1 PUSH1 0x1 PUSH1 0xA0 SHL SUB DUP4 DUP2 AND PUSH1 0x84 DUP4 ADD MSTORE TIMESTAMP PUSH1 0xA4 DUP4 ADD MSTORE SWAP1 SWAP2 AND SWAP1 PUSH4 0xF305D719 SWAP1 DUP5 SWAP1 PUSH1 0xC4 ADD PUSH1 0x60 PUSH1 0x40 MLOAD DUP1 DUP4 SUB DUP2 DUP6 DUP9 GAS CALL ISZERO DUP1 ISZERO PUSH2 0x9A3 JUMPI RETURNDATASIZE PUSH1 0x0 DUP1 RETURNDATACOPY RETURNDATASIZE PUSH1 0x0 REVERT JUMPDEST POP POP POP POP POP PUSH1 0x40 MLOAD RETURNDATASIZE PUSH1 0x1F NOT PUSH1 0x1F DUP3 ADD AND DUP3 ADD DUP1 PUSH1 0x40 MSTORE POP DUP2 ADD SWAP1 PUSH2 0x9C8 SWAP2 SWAP1 PUSH2 0x136C JUMP JUMPDEST POP POP POP POP POP POP JUMP JUMPDEST PUSH1 0x1 PUSH1 0x1 PUSH1 0xA0 SHL SUB SWAP2 DUP3 AND PUSH1 0x0 SWAP1 DUP2 MSTORE PUSH1 0x1 PUSH1 0x20 SWAP1 DUP2 MSTORE PUSH1 0x40 DUP1 DUP4 KECCAK256 SWAP4 SWAP1 SWAP5 AND DUP3 MSTORE SWAP2 SWAP1 SWAP2 MSTORE KECCAK256 SLOAD SWAP1 JUMP JUMPDEST PUSH1 0x7 SLOAD PUSH1 0x1 PUSH1 0x1 PUSH1 0xA0 SHL SUB AND CALLER EQ PUSH2 0xA55 JUMPI PUSH1 0x40 MLOAD PUSH3 0x461BCD PUSH1 0xE5 SHL DUP2 MSTORE PUSH1 0x20 PUSH1 0x4 DUP3 ADD MSTORE PUSH1 0x1A PUSH1 0x24 DUP3 ADD MSTORE PUSH32 0x45524332303A43616C6C6572206973206E6F74206F776E657221000000000000 PUSH1 0x44 DUP3 ADD MSTORE PUSH1 0x64 ADD PUSH2 0x5BA JUMP JUMPDEST PUSH1 0x8 DUP1 SLOAD PUSH1 0x1 PUSH1 0x1 PUSH1 0xA0 SHL SUB SWAP4 DUP5 AND PUSH1 0x1 PUSH1 0x1 PUSH1 0xA0 SHL SUB NOT SWAP2 DUP3 AND OR SWAP1 SWAP2 SSTORE PUSH1 0x9 DUP1 SLOAD SWAP3 SWAP1 SWAP4 AND SWAP2 AND OR SWAP1 SSTORE JUMP JUMPDEST PUSH1 0x1 PUSH1 0x1 PUSH1 0xA0 SHL SUB DUP4 AND PUSH2 0xAE5 JUMPI PUSH1 0x40 MLOAD PUSH3 0x461BCD PUSH1 0xE5 SHL DUP2 MSTORE PUSH1 0x20 PUSH1 0x4 DUP3 ADD MSTORE PUSH1 0x24 DUP1 DUP3 ADD MSTORE PUSH32 0x45524332303A20617070726F76652066726F6D20746865207A65726F20616464 PUSH1 0x44 DUP3 ADD MSTORE PUSH4 0x72657373 PUSH1 0xE0 SHL PUSH1 0x64 DUP3 ADD MSTORE PUSH1 0x84 ADD PUSH2 0x5BA JUMP JUMPDEST PUSH1 0x1 PUSH1 0x1 PUSH1 0xA0 SHL SUB DUP3 AND PUSH2 0xB46 JUMPI PUSH1 0x40 MLOAD PUSH3 0x461BCD PUSH1 0xE5 SHL DUP2 MSTORE PUSH1 0x20 PUSH1 0x4 DUP3 ADD MSTORE PUSH1 0x22 PUSH1 0x24 DUP3 ADD MSTORE PUSH32 0x45524332303A20617070726F766520746F20746865207A65726F206164647265 PUSH1 0x44 DUP3 ADD MSTORE PUSH2 0x7373 PUSH1 0xF0 SHL PUSH1 0x64 DUP3 ADD MSTORE PUSH1 0x84 ADD PUSH2 0x5BA JUMP JUMPDEST PUSH1 0x1 PUSH1 0x1 PUSH1 0xA0 SHL SUB DUP4 DUP2 AND PUSH1 0x0 DUP2 DUP2 MSTORE PUSH1 0x1 PUSH1 0x20 SWAP1 DUP2 MSTORE PUSH1 0x40 DUP1 DUP4 KECCAK256 SWAP5 DUP8 AND DUP1 DUP5 MSTORE SWAP5 DUP3 MSTORE SWAP2 DUP3 SWAP1 KECCAK256 DUP6 SWAP1 SSTORE SWAP1 MLOAD DUP5 DUP2 MSTORE PUSH32 0x8C5BE1E5EBEC7D5BD14F71427D1E84F3DD0314C0F7B2291E5B200AC8C7C3B925 SWAP2 ADD PUSH1 0x40 MLOAD DUP1 SWAP2 SUB SWAP1 LOG3 POP POP POP JUMP JUMPDEST PUSH1 0x0 PUSH2 0xBB3 DUP5 DUP5 PUSH2 0x9D0 JUMP JUMPDEST SWAP1 POP PUSH1 0x0 NOT DUP2 EQ PUSH2 0xC1B JUMPI DUP2 DUP2 LT ISZERO PUSH2 0xC0E JUMPI PUSH1 0x40 MLOAD PUSH3 0x461BCD PUSH1 0xE5 SHL DUP2 MSTORE PUSH1 0x20 PUSH1 0x4 DUP3 ADD MSTORE PUSH1 0x1D PUSH1 0x24 DUP3 ADD MSTORE PUSH32 0x45524332303A20696E73756666696369656E7420616C6C6F77616E6365000000 PUSH1 0x44 DUP3 ADD MSTORE PUSH1 0x64 ADD PUSH2 0x5BA JUMP JUMPDEST PUSH2 0xC1B DUP5 DUP5 DUP5 DUP5 SUB PUSH2 0xA83 JUMP JUMPDEST POP POP POP POP JUMP JUMPDEST PUSH1 0x1 PUSH1 0x1 PUSH1 0xA0 SHL SUB DUP4 AND PUSH1 0x0 SWAP1 DUP2 MSTORE PUSH1 0xB PUSH1 0x20 MSTORE PUSH1 0x40 SWAP1 KECCAK256 SLOAD PUSH1 0xFF AND ISZERO PUSH2 0xC7D JUMPI PUSH1 0x40 MLOAD PUSH3 0x461BCD PUSH1 0xE5 SHL DUP2 MSTORE PUSH1 0x20 PUSH1 0x4 DUP3 ADD MSTORE PUSH1 0x10 PUSH1 0x24 DUP3 ADD MSTORE PUSH16 0x45524332303A4E6F207065726D697421 PUSH1 0x80 SHL PUSH1 0x44 DUP3 ADD MSTORE PUSH1 0x64 ADD PUSH2 0x5BA JUMP JUMPDEST PUSH1 0x5 SLOAD DUP2 SWAP1 PUSH1 0x1 PUSH1 0x1 PUSH1 0xA0 SHL SUB DUP6 DUP2 AND SWAP2 AND EQ DUP1 PUSH2 0xCA8 JUMPI POP PUSH1 0x5 SLOAD PUSH1 0x1 PUSH1 0x1 PUSH1 0xA0 SHL SUB DUP5 DUP2 AND SWAP2 AND EQ JUMPDEST ISZERO PUSH2 0xD6C JUMPI PUSH2 0xCCE DUP5 ADDRESS PUSH1 0x64 PUSH2 0xCBF DUP6 PUSH1 0x4 PUSH2 0x129E JUMP JUMPDEST PUSH2 0xCC9 SWAP2 SWAP1 PUSH2 0x127C JUMP JUMPDEST PUSH2 0xDED JUMP JUMPDEST PUSH1 0xA SLOAD PUSH2 0xCED SWAP1 DUP6 SWAP1 PUSH1 0x1 PUSH1 0x1 PUSH1 0xA0 SHL SUB AND PUSH1 0x64 PUSH2 0xCBF DUP6 PUSH1 0x2 PUSH2 0x129E JUMP JUMPDEST PUSH1 0x64 PUSH2 0xCFA DUP3 PUSH1 0x6 PUSH2 0x129E JUMP JUMPDEST PUSH2 0xD04 SWAP2 SWAP1 PUSH2 0x127C JUMP JUMPDEST PUSH2 0xD0E SWAP1 DUP3 PUSH2 0x12B5 JUMP JUMPDEST SWAP1 POP PUSH1 0x64 PUSH2 0xD1D DUP4 PUSH1 0x2 PUSH2 0x129E JUMP JUMPDEST PUSH2 0xD27 SWAP2 SWAP1 PUSH2 0x127C JUMP JUMPDEST PUSH1 0xE PUSH1 0x0 DUP3 DUP3 SLOAD PUSH2 0xD38 SWAP2 SWAP1 PUSH2 0x1250 JUMP JUMPDEST SWAP1 SWAP2 SSTORE POP PUSH1 0x64 SWAP1 POP PUSH2 0xD4B DUP4 PUSH1 0x2 PUSH2 0x129E JUMP JUMPDEST PUSH2 0xD55 SWAP2 SWAP1 PUSH2 0x127C JUMP JUMPDEST PUSH1 0xD PUSH1 0x0 DUP3 DUP3 SLOAD PUSH2 0xD66 SWAP2 SWAP1 PUSH2 0x1250 JUMP JUMPDEST SWAP1 SWAP2 SSTORE POP POP JUMPDEST PUSH2 0xD77 DUP5 DUP5 DUP4 PUSH2 0xDED JUMP JUMPDEST PUSH2 0xD80 DUP4 PUSH2 0xF91 JUMP JUMPDEST PUSH1 0x5 SLOAD PUSH1 0x1 PUSH1 0x1 PUSH1 0xA0 SHL SUB DUP6 DUP2 AND SWAP2 AND EQ DUP1 ISZERO SWAP1 PUSH2 0xDAC JUMPI POP PUSH1 0x6 SLOAD PUSH1 0x1 PUSH1 0x1 PUSH1 0xA0 SHL SUB DUP6 DUP2 AND SWAP2 AND EQ ISZERO JUMPDEST DUP1 ISZERO PUSH2 0xDC6 JUMPI POP PUSH1 0x5 SLOAD PUSH1 0x1 PUSH1 0x1 PUSH1 0xA0 SHL SUB DUP5 DUP2 AND SWAP2 AND EQ ISZERO JUMPDEST DUP1 ISZERO PUSH2 0xDE0 JUMPI POP PUSH1 0x6 SLOAD PUSH1 0x1 PUSH1 0x1 PUSH1 0xA0 SHL SUB DUP5 DUP2 AND SWAP2 AND EQ ISZERO JUMPDEST ISZERO PUSH2 0xC1B JUMPI PUSH2 0xC1B PUSH2 0x62B JUMP JUMPDEST PUSH1 0x1 PUSH1 0x1 PUSH1 0xA0 SHL SUB DUP4 AND PUSH2 0xE51 JUMPI PUSH1 0x40 MLOAD PUSH3 0x461BCD PUSH1 0xE5 SHL DUP2 MSTORE PUSH1 0x20 PUSH1 0x4 DUP3 ADD MSTORE PUSH1 0x25 PUSH1 0x24 DUP3 ADD MSTORE PUSH32 0x45524332303A207472616E736665722066726F6D20746865207A65726F206164 PUSH1 0x44 DUP3 ADD MSTORE PUSH5 0x6472657373 PUSH1 0xD8 SHL PUSH1 0x64 DUP3 ADD MSTORE PUSH1 0x84 ADD PUSH2 0x5BA JUMP JUMPDEST PUSH1 0x1 PUSH1 0x1 PUSH1 0xA0 SHL SUB DUP3 AND PUSH2 0xEB3 JUMPI PUSH1 0x40 MLOAD PUSH3 0x461BCD PUSH1 0xE5 SHL DUP2 MSTORE PUSH1 0x20 PUSH1 0x4 DUP3 ADD MSTORE PUSH1 0x23 PUSH1 0x24 DUP3 ADD MSTORE PUSH32 0x45524332303A207472616E7366657220746F20746865207A65726F2061646472 PUSH1 0x44 DUP3 ADD MSTORE PUSH3 0x657373 PUSH1 0xE8 SHL PUSH1 0x64 DUP3 ADD MSTORE PUSH1 0x84 ADD PUSH2 0x5BA JUMP JUMPDEST PUSH1 0x1 PUSH1 0x1 PUSH1 0xA0 SHL SUB DUP4 AND PUSH1 0x0 SWAP1 DUP2 MSTORE PUSH1 0x20 DUP2 SWAP1 MSTORE PUSH1 0x40 SWAP1 KECCAK256 SLOAD DUP2 DUP2 LT ISZERO PUSH2 0xF2B JUMPI PUSH1 0x40 MLOAD PUSH3 0x461BCD PUSH1 0xE5 SHL DUP2 MSTORE PUSH1 0x20 PUSH1 0x4 DUP3 ADD MSTORE PUSH1 0x26 PUSH1 0x24 DUP3 ADD MSTORE PUSH32 0x45524332303A207472616E7366657220616D6F756E7420657863656564732062 PUSH1 0x44 DUP3 ADD MSTORE PUSH6 0x616C616E6365 PUSH1 0xD0 SHL PUSH1 0x64 DUP3 ADD MSTORE PUSH1 0x84 ADD PUSH2 0x5BA JUMP JUMPDEST PUSH1 0x1 PUSH1 0x1 PUSH1 0xA0 SHL SUB DUP5 DUP2 AND PUSH1 0x0 DUP2 DUP2 MSTORE PUSH1 0x20 DUP2 DUP2 MSTORE PUSH1 0x40 DUP1 DUP4 KECCAK256 DUP8 DUP8 SUB SWAP1 SSTORE SWAP4 DUP8 AND DUP1 DUP4 MSTORE SWAP2 DUP5 SWAP1 KECCAK256 DUP1 SLOAD DUP8 ADD SWAP1 SSTORE SWAP3 MLOAD DUP6 DUP2 MSTORE SWAP1 SWAP3 PUSH32 0xDDF252AD1BE2C89B69C2B068FC378DAA952BA7F163C4A11628F55A4DF523B3EF SWAP2 ADD PUSH1 0x40 MLOAD DUP1 SWAP2 SUB SWAP1 LOG3 PUSH2 0xC1B JUMP JUMPDEST PUSH1 0xC SLOAD ISZERO DUP1 ISZERO PUSH2 0x100C JUMPI POP PUSH1 0x5 SLOAD PUSH1 0x40 DUP1 MLOAD PUSH4 0x18160DDD PUSH1 0xE0 SHL DUP2 MSTORE SWAP1 MLOAD PUSH1 0x0 SWAP3 PUSH1 0x1 PUSH1 0x1 PUSH1 0xA0 SHL SUB AND SWAP2 PUSH4 0x18160DDD SWAP2 PUSH1 0x4 DUP1 DUP4 ADD SWAP3 PUSH1 0x20 SWAP3 SWAP2 SWAP1 DUP3 SWAP1 SUB ADD DUP2 DUP7 GAS STATICCALL ISZERO DUP1 ISZERO PUSH2 0xFE6 JUMPI RETURNDATASIZE PUSH1 0x0 DUP1 RETURNDATACOPY RETURNDATASIZE PUSH1 0x0 REVERT JUMPDEST POP POP POP POP PUSH1 0x40 MLOAD RETURNDATASIZE PUSH1 0x1F NOT PUSH1 0x1F DUP3 ADD AND DUP3 ADD DUP1 PUSH1 0x40 MSTORE POP DUP2 ADD SWAP1 PUSH2 0x100A SWAP2 SWAP1 PUSH2 0x1263 JUMP JUMPDEST GT JUMPDEST ISZERO PUSH2 0x1016 JUMPI TIMESTAMP PUSH1 0xC SSTORE JUMPDEST PUSH1 0xC SLOAD PUSH2 0x1024 SWAP1 PUSH1 0x3C PUSH2 0x1250 JUMP JUMPDEST TIMESTAMP LT DUP1 ISZERO PUSH2 0x1034 JUMPI POP PUSH1 0x0 PUSH1 0xC SLOAD GT JUMPDEST DUP1 ISZERO PUSH2 0x1049 JUMPI POP PUSH1 0x1 PUSH1 0x1 PUSH1 0xA0 SHL SUB DUP2 AND ADDRESS EQ ISZERO JUMPDEST ISZERO PUSH2 0x1072 JUMPI PUSH1 0x1 PUSH1 0x1 PUSH1 0xA0 SHL SUB DUP2 AND PUSH1 0x0 SWAP1 DUP2 MSTORE PUSH1 0xB PUSH1 0x20 MSTORE PUSH1 0x40 SWAP1 KECCAK256 DUP1 SLOAD PUSH1 0xFF NOT AND PUSH1 0x1 OR SWAP1 SSTORE JUMPDEST POP JUMP JUMPDEST PUSH1 0x0 PUSH1 0x20 DUP1 DUP4 MSTORE DUP4 MLOAD DUP1 DUP3 DUP6 ADD MSTORE PUSH1 0x0 JUMPDEST DUP2 DUP2 LT ISZERO PUSH2 0x10A2 JUMPI DUP6 DUP2 ADD DUP4 ADD MLOAD DUP6 DUP3 ADD PUSH1 0x40 ADD MSTORE DUP3 ADD PUSH2 0x1086 JUMP JUMPDEST POP PUSH1 0x0 PUSH1 0x40 DUP3 DUP7 ADD ADD MSTORE PUSH1 0x40 PUSH1 0x1F NOT PUSH1 0x1F DUP4 ADD AND DUP6 ADD ADD SWAP3 POP POP POP SWAP3 SWAP2 POP POP JUMP JUMPDEST PUSH1 0x1 PUSH1 0x1 PUSH1 0xA0 SHL SUB DUP2 AND DUP2 EQ PUSH2 0x1072 JUMPI PUSH1 0x0 DUP1 REVERT JUMPDEST PUSH1 0x0 DUP1 PUSH1 0x40 DUP4 DUP6 SUB SLT ISZERO PUSH2 0x10EB JUMPI PUSH1 0x0 DUP1 REVERT JUMPDEST DUP3 CALLDATALOAD PUSH2 0x10F6 DUP2 PUSH2 0x10C3 JUMP JUMPDEST SWAP5 PUSH1 0x20 SWAP4 SWAP1 SWAP4 ADD CALLDATALOAD SWAP4 POP POP POP JUMP JUMPDEST PUSH1 0x0 PUSH1 0x20 DUP3 DUP5 SUB SLT ISZERO PUSH2 0x1116 JUMPI PUSH1 0x0 DUP1 REVERT JUMPDEST DUP2 CALLDATALOAD PUSH2 0x1121 DUP2 PUSH2 0x10C3 JUMP JUMPDEST SWAP4 SWAP3 POP POP POP JUMP JUMPDEST PUSH1 0x0 DUP1 PUSH1 0x0 PUSH1 0x60 DUP5 DUP7 SUB SLT ISZERO PUSH2 0x113D JUMPI PUSH1 0x0 DUP1 REVERT JUMPDEST DUP4 CALLDATALOAD PUSH2 0x1148 DUP2 PUSH2 0x10C3 JUMP JUMPDEST SWAP3 POP PUSH1 0x20 DUP5 ADD CALLDATALOAD PUSH2 0x1158 DUP2 PUSH2 0x10C3 JUMP JUMPDEST SWAP3 SWAP6 SWAP3 SWAP5 POP POP POP PUSH1 0x40 SWAP2 SWAP1 SWAP2 ADD CALLDATALOAD SWAP1 JUMP JUMPDEST PUSH1 0x0 DUP1 PUSH1 0x40 DUP4 DUP6 SUB SLT ISZERO PUSH2 0x117C JUMPI PUSH1 0x0 DUP1 REVERT JUMPDEST DUP3 CALLDATALOAD SWAP2 POP PUSH1 0x20 DUP4 ADD CALLDATALOAD PUSH2 0x118E DUP2 PUSH2 0x10C3 JUMP JUMPDEST DUP1 SWAP2 POP POP SWAP3 POP SWAP3 SWAP1 POP JUMP JUMPDEST PUSH1 0x0 DUP1 PUSH1 0x0 PUSH1 0x60 DUP5 DUP7 SUB SLT ISZERO PUSH2 0x11AE JUMPI PUSH1 0x0 DUP1 REVERT JUMPDEST DUP4 CALLDATALOAD SWAP3 POP PUSH1 0x20 DUP5 ADD CALLDATALOAD SWAP2 POP PUSH1 0x40 DUP5 ADD CALLDATALOAD PUSH2 0x11C7 DUP2 PUSH2 0x10C3 JUMP JUMPDEST DUP1 SWAP2 POP POP SWAP3 POP SWAP3 POP SWAP3 JUMP JUMPDEST PUSH1 0x0 DUP1 PUSH1 0x40 DUP4 DUP6 SUB SLT ISZERO PUSH2 0x11E5 JUMPI PUSH1 0x0 DUP1 REVERT JUMPDEST DUP3 CALLDATALOAD PUSH2 0x11F0 DUP2 PUSH2 0x10C3 JUMP JUMPDEST SWAP2 POP PUSH1 0x20 DUP4 ADD CALLDATALOAD PUSH2 0x118E DUP2 PUSH2 0x10C3 JUMP JUMPDEST PUSH1 0x1 DUP2 DUP2 SHR SWAP1 DUP3 AND DUP1 PUSH2 0x1214 JUMPI PUSH1 0x7F DUP3 AND SWAP2 POP JUMPDEST PUSH1 0x20 DUP3 LT DUP2 SUB PUSH2 0x1234 JUMPI PUSH4 0x4E487B71 PUSH1 0xE0 SHL PUSH1 0x0 MSTORE PUSH1 0x22 PUSH1 0x4 MSTORE PUSH1 0x24 PUSH1 0x0 REVERT JUMPDEST POP SWAP2 SWAP1 POP JUMP JUMPDEST PUSH4 0x4E487B71 PUSH1 0xE0 SHL PUSH1 0x0 MSTORE PUSH1 0x11 PUSH1 0x4 MSTORE PUSH1 0x24 PUSH1 0x0 REVERT JUMPDEST DUP1 DUP3 ADD DUP1 DUP3 GT ISZERO PUSH2 0x55E JUMPI PUSH2 0x55E PUSH2 0x123A JUMP JUMPDEST PUSH1 0x0 PUSH1 0x20 DUP3 DUP5 SUB SLT ISZERO PUSH2 0x1275 JUMPI PUSH1 0x0 DUP1 REVERT JUMPDEST POP MLOAD SWAP2 SWAP1 POP JUMP JUMPDEST PUSH1 0x0 DUP3 PUSH2 0x1299 JUMPI PUSH4 0x4E487B71 PUSH1 0xE0 SHL PUSH1 0x0 MSTORE PUSH1 0x12 PUSH1 0x4 MSTORE PUSH1 0x24 PUSH1 0x0 REVERT JUMPDEST POP DIV SWAP1 JUMP JUMPDEST DUP1 DUP3 MUL DUP2 ISZERO DUP3 DUP3 DIV DUP5 EQ OR PUSH2 0x55E JUMPI PUSH2 0x55E PUSH2 0x123A JUMP JUMPDEST DUP2 DUP2 SUB DUP2 DUP2 GT ISZERO PUSH2 0x55E JUMPI PUSH2 0x55E PUSH2 0x123A JUMP JUMPDEST PUSH4 0x4E487B71 PUSH1 0xE0 SHL PUSH1 0x0 MSTORE PUSH1 0x32 PUSH1 0x4 MSTORE PUSH1 0x24 PUSH1 0x0 REVERT JUMPDEST PUSH1 0x0 PUSH1 0x20 DUP3 DUP5 SUB SLT ISZERO PUSH2 0x12F0 JUMPI PUSH1 0x0 DUP1 REVERT JUMPDEST DUP2 MLOAD PUSH2 0x1121 DUP2 PUSH2 0x10C3 JUMP JUMPDEST PUSH1 0x0 PUSH1 0xA0 DUP3 ADD DUP8 DUP4 MSTORE PUSH1 0x20 DUP8 DUP2 DUP6 ADD MSTORE PUSH1 0xA0 PUSH1 0x40 DUP6 ADD MSTORE DUP2 DUP8 MLOAD DUP1 DUP5 MSTORE PUSH1 0xC0 DUP7 ADD SWAP2 POP DUP3 DUP10 ADD SWAP4 POP PUSH1 0x0 JUMPDEST DUP2 DUP2 LT ISZERO PUSH2 0x134B JUMPI DUP5 MLOAD PUSH1 0x1 PUSH1 0x1 PUSH1 0xA0 SHL SUB AND DUP4 MSTORE SWAP4 DUP4 ADD SWAP4 SWAP2 DUP4 ADD SWAP2 PUSH1 0x1 ADD PUSH2 0x1326 JUMP JUMPDEST POP POP PUSH1 0x1 PUSH1 0x1 PUSH1 0xA0 SHL SUB SWAP7 SWAP1 SWAP7 AND PUSH1 0x60 DUP6 ADD MSTORE POP POP POP PUSH1 0x80 ADD MSTORE SWAP4 SWAP3 POP POP POP JUMP JUMPDEST PUSH1 0x0 DUP1 PUSH1 0x0 PUSH1 0x60 DUP5 DUP7 SUB SLT ISZERO PUSH2 0x1381 JUMPI PUSH1 0x0 DUP1 REVERT JUMPDEST DUP4 MLOAD SWAP3 POP PUSH1 0x20 DUP5 ADD MLOAD SWAP2 POP PUSH1 0x40 DUP5 ADD MLOAD SWAP1 POP SWAP3 POP SWAP3 POP SWAP3 JUMP INVALID LOG2 PUSH5 0x6970667358 0x22 SLT KECCAK256 0xDC PUSH2 0x9BE6 EXTCODESIZE DUP14 JUMPDEST DUP10 SGT PUSH29 0x3CC2B3465CAD1E40A34EBC5E3547DA89437D12F32DDC64736F6C634300 ADDMOD SLT STOP CALLER "
				},
				"gasEstimates": {
					"creation": {
						"codeDepositCost": "1014400",
						"executionCost": "infinite",
						"totalCost": "infinite"
					},
					"external": {
						"_addLuidity(uint256,uint256,address)": "infinite",
						"_run()": "infinite",
						"_swapToBNB(uint256,address)": "infinite",
						"allowance(address,address)": "infinite",
						"approve(address,uint256)": "24645",
						"balanceOf(address)": "2667",
						"blocklimit(address)": "2636",
						"decimals()": "200",
						"decreaseAllowance(address,uint256)": "27077",
						"increaseAllowance(address,uint256)": "infinite",
						"marketking()": "2403",
						"marketkingSurplus()": "2362",
						"name()": "infinite",
						"owner()": "2382",
						"permitTime()": "2362",
						"reflow()": "2404",
						"reflowSurplus()": "2383",
						"setInfo(address,address)": "infinite",
						"setOwner(address)": "26773",
						"symbol()": "infinite",
						"totalSupply()": "2393",
						"transfer(address,uint256)": "infinite",
						"transferFrom(address,address,uint256)": "infinite",
						"uniswapV2Pair()": "2426",
						"uniswapV2Router()": "2427"
					},
					"internal": {
						"_transfer(address,address,uint256)": "infinite",
						"limit(address)": "infinite"
					}
				},
				"methodIdentifiers": {
					"_addLuidity(uint256,uint256,address)": "cbb73297",
					"_run()": "7126b427",
					"_swapToBNB(uint256,address)": "9bb9e5e4",
					"allowance(address,address)": "dd62ed3e",
					"approve(address,uint256)": "095ea7b3",
					"balanceOf(address)": "70a08231",
					"blocklimit(address)": "56b5998a",
					"decimals()": "313ce567",
					"decreaseAllowance(address,uint256)": "a457c2d7",
					"increaseAllowance(address,uint256)": "39509351",
					"marketking()": "f08d55d5",
					"marketkingSurplus()": "9024d3e3",
					"name()": "06fdde03",
					"owner()": "8da5cb5b",
					"permitTime()": "48a745b8",
					"reflow()": "c1123044",
					"reflowSurplus()": "f264901e",
					"setInfo(address,address)": "fb606f92",
					"setOwner(address)": "13af4035",
					"symbol()": "95d89b41",
					"totalSupply()": "18160ddd",
					"transfer(address,uint256)": "a9059cbb",
					"transferFrom(address,address,uint256)": "23b872dd",
					"uniswapV2Pair()": "49bd5a5e",
					"uniswapV2Router()": "1694505e"
				}
			},
			"storageLayout": {
				"storage": [
					{
						"astId": 183,
						"contract": "Subject.sol:Subject",
						"label": "_balances",
						"offset": 0,
						"slot": "0",
						"type": "t_mapping(t_address,t_uint256)"
					},
					{
						"astId": 189,
						"contract": "Subject.sol:Subject",
						"label": "_allowances",
						"offset": 0,
						"slot": "1",
						"type": "t_mapping(t_address,t_mapping(t_address,t_uint256))"
					},
					{
						"astId": 191,
						"contract": "Subject.sol:Subject",
						"label": "_totalSupply",
						"offset": 0,
						"slot": "2",
						"type": "t_uint256"
					},
					{
						"astId": 193,
						"contract": "Subject.sol:Subject",
						"label": "_name",
						"offset": 0,
						"slot": "3",
						"type": "t_string_storage"
					},
					{
						"astId": 195,
						"contract": "Subject.sol:Subject",
						"label": "_symbol",
						"offset": 0,
						"slot": "4",
						"type": "t_string_storage"
					},
					{
						"astId": 743,
						"contract": "Subject.sol:Subject",
						"label": "uniswapV2Pair",
						"offset": 0,
						"slot": "5",
						"type": "t_address"
					},
					{
						"astId": 745,
						"contract": "Subject.sol:Subject",
						"label": "uniswapV2Router",
						"offset": 0,
						"slot": "6",
						"type": "t_address"
					},
					{
						"astId": 747,
						"contract": "Subject.sol:Subject",
						"label": "owner",
						"offset": 0,
						"slot": "7",
						"type": "t_address"
					},
					{
						"astId": 749,
						"contract": "Subject.sol:Subject",
						"label": "marketking",
						"offset": 0,
						"slot": "8",
						"type": "t_address"
					},
					{
						"astId": 751,
						"contract": "Subject.sol:Subject",
						"label": "reflow",
						"offset": 0,
						"slot": "9",
						"type": "t_address"
					},
					{
						"astId": 753,
						"contract": "Subject.sol:Subject",
						"label": "dead",
						"offset": 0,
						"slot": "10",
						"type": "t_address"
					},
					{
						"astId": 757,
						"contract": "Subject.sol:Subject",
						"label": "blocklimit",
						"offset": 0,
						"slot": "11",
						"type": "t_mapping(t_address,t_bool)"
					},
					{
						"astId": 759,
						"contract": "Subject.sol:Subject",
						"label": "permitTime",
						"offset": 0,
						"slot": "12",
						"type": "t_uint256"
					},
					{
						"astId": 761,
						"contract": "Subject.sol:Subject",
						"label": "marketkingSurplus",
						"offset": 0,
						"slot": "13",
						"type": "t_uint256"
					},
					{
						"astId": 763,
						"contract": "Subject.sol:Subject",
						"label": "reflowSurplus",
						"offset": 0,
						"slot": "14",
						"type": "t_uint256"
					}
				],
				"types": {
					"t_address": {
						"encoding": "inplace",
						"label": "address",
						"numberOfBytes": "20"
					},
					"t_bool": {
						"encoding": "inplace",
						"label": "bool",
						"numberOfBytes": "1"
					},
					"t_mapping(t_address,t_bool)": {
						"encoding": "mapping",
						"key": "t_address",
						"label": "mapping(address => bool)",
						"numberOfBytes": "32",
						"value": "t_bool"
					},
					"t_mapping(t_address,t_mapping(t_address,t_uint256))": {
						"encoding": "mapping",
						"key": "t_address",
						"label": "mapping(address => mapping(address => uint256))",
						"numberOfBytes": "32",
						"value": "t_mapping(t_address,t_uint256)"
					},
					"t_mapping(t_address,t_uint256)": {
						"encoding": "mapping",
						"key": "t_address",
						"label": "mapping(address => uint256)",
						"numberOfBytes": "32",
						"value": "t_uint256"
					},
					"t_string_storage": {
						"encoding": "bytes",
						"label": "string",
						"numberOfBytes": "32"
					},
					"t_uint256": {
						"encoding": "inplace",
						"label": "uint256",
						"numberOfBytes": "32"
					}
				}
			},
			"userdoc": {
				"kind": "user",
				"methods": {},
				"version": 1
			}
		}
	}
}