{
	"data": {
		"bytecode": {
			"linkReferences": {},
			"object": "608060405234801561001057600080fd5b50600080546001600160a01b03191633179055614d64806100326000396000f3fe608060405234801561001057600080fd5b50600436106101da5760003560e01c806376e9255911610104578063dcde5a0c116100a2578063ee9b1b5311610071578063ee9b1b53146104c7578063f851a4401461050c578063f8c8765e1461052c578063f98029c81461053f57600080fd5b8063dcde5a0c146103f4578063df26442914610481578063e1aaeb5014610494578063e44ae85c146104b457600080fd5b8063a8d4bb75116100de578063a8d4bb751461037b578063b3ab15fb14610390578063cce9639f146103a3578063cdc09b4b146103e157600080fd5b806376e92559146103565780638eb955e21461035f5780639bbea7751461036857600080fd5b8063450402971161017c5780636f4c64431161014b5780636f4c6443146103295780636fbf7fb61461033c57806375ba748d14610345578063765c58b61461034e57600080fd5b806345040297146102bc578063570ca735146102c55780635c60da1b146102e55780636386c1c71461030557600080fd5b806313af4035116101b857806313af40351461023e57806336b73908146102515780633ecaff991461026457806340eedabb1461027757600080fd5b8063041c489e146101df57806304e9e4a41461020857806311a8bb9c1461021d575b600080fd5b6101f26101ed366004614517565b610552565b6040516101ff9190614583565b60405180910390f35b61021b610216366004614596565b610722565b005b61023061022b366004614596565b6107d3565b6040519081526020016101ff565b61021b61024c3660046145d3565b610921565b61021b61025f3660046145ee565b6109e9565b61021b610272366004614618565b610f72565b6006546102979073ffffffffffffffffffffffffffffffffffffffff1681565b60405173ffffffffffffffffffffffffffffffffffffffff90911681526020016101ff565b610230600f5481565b601a546102979073ffffffffffffffffffffffffffffffffffffffff1681565b6001546102979073ffffffffffffffffffffffffffffffffffffffff1681565b6103186103133660046145d3565b611056565b6040516101ff959493929190614634565b61021b61033736600461466b565b6111d1565b61023060125481565b61023060155481565b61023061140b565b61023060165481565b61023060185481565b61023061037636600461469e565b611454565b61038361155e565b6040516101ff91906146e9565b61021b61039e3660046145d3565b61195f565b6103d16103b136600461487b565b805160208183018101805160198252928201919093012091525460ff1681565b60405190151581526020016101ff565b61021b6103ef3660046148b0565b611a27565b6104496104023660046145d3565b73ffffffffffffffffffffffffffffffffffffffff908116600090815260026020819052604090912080546001820154928201546003909201549084169492909316929091565b6040805173ffffffffffffffffffffffffffffffffffffffff95861681529490931660208501529183015260608201526080016101ff565b61021b61048f3660046145ee565b611ade565b6104a76104a2366004614973565b611bff565b6040516101ff91906149c1565b6103d16104c2366004614596565b611f87565b6104da6104d5366004614517565b611ff6565b6040805173ffffffffffffffffffffffffffffffffffffffff90941684526020840192909252908201526060016101ff565b6000546102979073ffffffffffffffffffffffffffffffffffffffff1681565b61021b61053a366004614a26565b61211b565b61021b61054d366004614a7a565b61234d565b6060816004811115610566576105666146ba565b6000036105e757601254600090815260106020908152604091829020805483518184028101840190945280845290918301828280156105db57602002820191906000526020600020905b815473ffffffffffffffffffffffffffffffffffffffff1681526001909101906020018083116105b0575b50505050509050919050565b8160048111156105f9576105f96146ba565b60010361067857601554600090815260136020908152604091829020805483518184028101840190945280845290918301828280156105db5760200282019190600052602060002090815473ffffffffffffffffffffffffffffffffffffffff1681526001909101906020018083116105b05750505050509050919050565b81600481111561068a5761068a6146ba565b60020361070957600f546000908152600d6020908152604091829020805483518184028101840190945280845290918301828280156105db5760200282019190600052602060002090815473ffffffffffffffffffffffffffffffffffffffff1681526001909101906020018083116105b05750505050509050919050565b505060408051600081526020810190915290565b919050565b601a5473ffffffffffffffffffffffffffffffffffffffff1633146107ce576040517f08c379a000000000000000000000000000000000000000000000000000000000815260206004820152602360248201527f4d656d626572736869703a496e76616c6964206f70657261746f72206164647260448201527f657373000000000000000000000000000000000000000000000000000000000060648201526084015b60405180910390fd5b602255565b6003546005546040517f70a0823100000000000000000000000000000000000000000000000000000000815273ffffffffffffffffffffffffffffffffffffffff9182166004820152600092839216906370a0823190602401602060405180830381865afa158015610849573d6000803e3d6000fd5b505050506040513d601f19601f8201168201806040525081019061086d9190614aee565b90506000600560009054906101000a900473ffffffffffffffffffffffffffffffffffffffff1673ffffffffffffffffffffffffffffffffffffffff166318160ddd6040518163ffffffff1660e01b8152600401602060405180830381865afa1580156108de573d6000803e3d6000fd5b505050506040513d601f19601f820116820180604052508101906109029190614aee565b90508061090f8584614b36565b6109199190614b7c565b949350505050565b60005473ffffffffffffffffffffffffffffffffffffffff1633146109a2576040517f08c379a000000000000000000000000000000000000000000000000000000000815260206004820181905260248201527f4d656d626572736869703a496e76616c69642061646d696e206164647265737360448201526064016107c5565b600080547fffffffffffffffffffffffff00000000000000000000000000000000000000001673ffffffffffffffffffffffffffffffffffffffff92909216919091179055565b601c5460ff1615610a56576040517f08c379a000000000000000000000000000000000000000000000000000000000815260206004820152601760248201527f5265656e7472616e742063616c6c20646574656374656400000000000000000060448201526064016107c5565b601c80547fffffffffffffffffffffffffffffffffffffffffffffffffffffffffffffff0016600117905573ffffffffffffffffffffffffffffffffffffffff808316600081815260026020526040902060065490921614610b5657805473ffffffffffffffffffffffffffffffffffffffff16610b56576040517f08c379a000000000000000000000000000000000000000000000000000000000815260206004820152602360248201527f4d656d626572736869703a20496e76616c696420696e7669746572206164647260448201527f657373000000000000000000000000000000000000000000000000000000000060648201526084016107c5565b610b5f82611f87565b610beb576040517f08c379a000000000000000000000000000000000000000000000000000000000815260206004820152602260248201527f4d656d626572736869703a20496e76616c69642070726f7669646520616d6f7560448201527f6e7400000000000000000000000000000000000000000000000000000000000060648201526084016107c5565b6000610bf561140b565b1115610ca157818160020154610c0961140b565b610c139190614b90565b1015610ca1576040517f08c379a000000000000000000000000000000000000000000000000000000000815260206004820152602860248201527f4d656d626572736869703a4e6f206f7665722d70617274696369706174696f6e60448201527f20616c6c6f77656400000000000000000000000000000000000000000000000060648201526084016107c5565b600354610cc69073ffffffffffffffffffffffffffffffffffffffff16843085612625565b6003546040517f70a08231000000000000000000000000000000000000000000000000000000008152306004820152839173ffffffffffffffffffffffffffffffffffffffff16906370a0823190602401602060405180830381865afa158015610d34573d6000803e3d6000fd5b505050506040513d601f19601f82011682018060405250810190610d589190614aee565b1015610de6576040517f08c379a000000000000000000000000000000000000000000000000000000000815260206004820152602660248201527f4d656d626572736869703a20496e73756666696369656e7420746f6b656e206260448201527f616c616e6365000000000000000000000000000000000000000000000000000060648201526084016107c5565b81816002016000828254610dfa9190614ba3565b9091555060009050610e0a6127bb565b90506064610e19826028614b36565b610e239190614b7c565b826003016000828254610e369190614ba3565b9091555050600554610e759073ffffffffffffffffffffffffffffffffffffffff16856064610e66856028614b36565b610e709190614b7c565b6129e0565b8260176000828254610e879190614ba3565b9091555060009050610e9a858584612b50565b9050600080610eaa878786612cff565b909250905060006064610ebe866014614b36565b610ec89190614b7c565b905060006103e8610eda876002614b36565b610ee49190614b7c565b905060008386610ef48785614b36565b610efe9086614b90565b610f089190614ba3565b610f129190614ba3565b90508060186000828254610f269190614ba3565b90915550610f3590508a612fe5565b610f3e816132ad565b5050601c80547fffffffffffffffffffffffffffffffffffffffffffffffffffffffffffffff001690555050505050505050565b601a5473ffffffffffffffffffffffffffffffffffffffff163314611019576040517f08c379a000000000000000000000000000000000000000000000000000000000815260206004820152602360248201527f4d656d626572736869703a496e76616c6964206f70657261746f72206164647260448201527f657373000000000000000000000000000000000000000000000000000000000060648201526084016107c5565b80601b6000846004811115611030576110306146ba565b6004811115611041576110416146ba565b81526020810191909152604001600020555050565b73ffffffffffffffffffffffffffffffffffffffff81166000818152600260208181526040808420601254855260048101835281852054600f54865260058201845282862054601554875260068301855283872054979096529383526007018054825181850281018501909352808352939593606093849392919083018282801561111757602002820191906000526020600020905b815473ffffffffffffffffffffffffffffffffffffffff1681526001909101906020018083116110ec575b50505050509150600260008773ffffffffffffffffffffffffffffffffffffffff1673ffffffffffffffffffffffffffffffffffffffff1681526020019081526020016000206008018054806020026020016040519081016040528092919081815260200182805480156111c157602002820191906000526020600020905b815473ffffffffffffffffffffffffffffffffffffffff168152600190910190602001808311611196575b5050505050905091939590929450565b60065473ffffffffffffffffffffffffffffffffffffffff8381169116146112a75773ffffffffffffffffffffffffffffffffffffffff828116600090815260026020526040902054166112a7576040517f08c379a000000000000000000000000000000000000000000000000000000000815260206004820152602360248201527f4d656d626572536869703a20496e76616c696420696e7669746572206164647260448201527f657373000000000000000000000000000000000000000000000000000000000060648201526084016107c5565b73ffffffffffffffffffffffffffffffffffffffff818116600090815260026020526040902054161561135c576040517f08c379a000000000000000000000000000000000000000000000000000000000815260206004820152602260248201527f4d656d626572536869703a20496e76616c6964206d656d62657220616464726560448201527f737300000000000000000000000000000000000000000000000000000000000060648201526084016107c5565b73ffffffffffffffffffffffffffffffffffffffff8082166000818152600260209081526040808320600190810180549689167fffffffffffffffffffffffff00000000000000000000000000000000000000009788168117909155845290832060070180548083018255908452918320909101805490941690921790925560168054919290916113ee908490614ba3565b909155506113fd90508261346c565b6114078282613671565b5050565b6000806103e860165461141e9190614b7c565b9050600281111561143057600061144e565b61143b816001614ba3565b61144e9068056bc75e2d63100000614b36565b91505090565b600080836004811115611469576114696146ba565b036114aa575073ffffffffffffffffffffffffffffffffffffffff811660009081526002602090815260408083206012548452600401909152902054611558565b60018360048111156114be576114be6146ba565b036114ff575073ffffffffffffffffffffffffffffffffffffffff811660009081526002602090815260408083206015548452600601909152902054611558565b6002836004811115611513576115136146ba565b03611554575073ffffffffffffffffffffffffffffffffffffffff81166000908152600260209081526040808320600f548452600501909152902054611558565b5060005b92915050565b60408051600580825260c0820190925260609160009190816020015b604080518082019091526000808252602082015281526020019060019003908161157a579050506018546005546040517f70a0823100000000000000000000000000000000000000000000000000000000815230600482015292935060009273ffffffffffffffffffffffffffffffffffffffff909116906370a0823190602401602060405180830381865afa158015611618573d6000803e3d6000fd5b505050506040513d601f19601f8201168201806040525081019061163c9190614aee565b106116e3576018546005546040517f70a0823100000000000000000000000000000000000000000000000000000000815230600482015273ffffffffffffffffffffffffffffffffffffffff909116906370a0823190602401602060405180830381865afa1580156116b2573d6000803e3d6000fd5b505050506040513d601f19601f820116820180604052508101906116d69190614aee565b6116e09190614b90565b90505b6040805180820190915260008082528052601b60209081527f584f46c60af19681376031579adb04a2416e54ee5505351c2a8435e3766026ea549082019060649061172e9085614b36565b6117389190614b7c565b601d546117459190614ba3565b8152508260008151811061175b5761175b614bb6565b60209081029190910101526040805180820190915280600181526020016064601b600060016004811115611791576117916146ba565b815260200190815260200160002054846117ab9190614b36565b6117b59190614b7c565b601e546117c29190614ba3565b815250826001815181106117d8576117d8614bb6565b60209081029190910101526040805180820190915280600281526020016064601b60006002600481111561180e5761180e6146ba565b815260200190815260200160002054846118289190614b36565b6118329190614b7c565b601f5461183f9190614ba3565b8152508260028151811061185557611855614bb6565b60209081029190910101526040805180820190915280600381526020016064601b60006003600481111561188b5761188b6146ba565b815260200190815260200160002054846118a59190614b36565b6118af9190614b7c565b6020546118bc9190614ba3565b815250826003815181106118d2576118d2614bb6565b60209081029190910101526040805180820190915280600481526020016064601b6000600480811115611907576119076146ba565b815260200190815260200160002054846119219190614b36565b61192b9190614b7c565b6021546119389190614ba3565b8152508260048151811061194e5761194e614bb6565b602090810291909101015250919050565b60005473ffffffffffffffffffffffffffffffffffffffff1633146119e0576040517f08c379a000000000000000000000000000000000000000000000000000000000815260206004820181905260248201527f4d656d626572736869703a496e76616c69642061646d696e206164647265737360448201526064016107c5565b601a80547fffffffffffffffffffffffff00000000000000000000000000000000000000001673ffffffffffffffffffffffffffffffffffffffff92909216919091179055565b601a5473ffffffffffffffffffffffffffffffffffffffff163314611ace576040517f08c379a000000000000000000000000000000000000000000000000000000000815260206004820152602360248201527f4d656d626572736869703a496e76616c6964206f70657261746f72206164647260448201527f657373000000000000000000000000000000000000000000000000000000000060648201526084016107c5565b611ad98383836129e0565b505050565b73ffffffffffffffffffffffffffffffffffffffff82163314611b5d576040517f08c379a000000000000000000000000000000000000000000000000000000000815260206004820152601660248201527f4d656d626572736869703a4e6f74207065726d6974210000000000000000000060448201526064016107c5565b600554611b829073ffffffffffffffffffffffffffffffffffffffff16833084612625565b60006064611b91836061614b36565b611b9b9190614b7c565b90506064611baa836003614b36565b611bb49190614b7c565b60186000828254611bc59190614ba3565b90915550611bea90506064611bdb846003614b36565b611be59190614b7c565b6132ad565b611bf483836137fe565b611ad9838383613a98565b60606000825167ffffffffffffffff811115611c1d57611c1d61476f565b604051908082528060200260200182016040528015611c6257816020015b6040805180820190915260008082526020820152815260200190600190039081611c3b5790505b5090506000846004811115611c7957611c796146ba565b03611d6e5760005b8151811015611d6c576040518060400160405280858381518110611ca757611ca7614bb6565b602002602001015173ffffffffffffffffffffffffffffffffffffffff16815260200160026000878581518110611ce057611ce0614bb6565b602002602001015173ffffffffffffffffffffffffffffffffffffffff1673ffffffffffffffffffffffffffffffffffffffff1681526020019081526020016000206004016000601254815260200190815260200160002054815250828281518110611d4e57611d4e614bb6565b60200260200101819052508080611d6490614be5565b915050611c81565b505b6002846004811115611d8257611d826146ba565b03611e775760005b8151811015611e75576040518060400160405280858381518110611db057611db0614bb6565b602002602001015173ffffffffffffffffffffffffffffffffffffffff16815260200160026000878581518110611de957611de9614bb6565b602002602001015173ffffffffffffffffffffffffffffffffffffffff1673ffffffffffffffffffffffffffffffffffffffff1681526020019081526020016000206005016000600f54815260200190815260200160002054815250828281518110611e5757611e57614bb6565b60200260200101819052508080611e6d90614be5565b915050611d8a565b505b6001846004811115611e8b57611e8b6146ba565b03611f805760005b8151811015611f7e576040518060400160405280858381518110611eb957611eb9614bb6565b602002602001015173ffffffffffffffffffffffffffffffffffffffff16815260200160026000878581518110611ef257611ef2614bb6565b602002602001015173ffffffffffffffffffffffffffffffffffffffff1673ffffffffffffffffffffffffffffffffffffffff1681526020019081526020016000206006016000601554815260200190815260200160002054815250828281518110611f6057611f60614bb6565b60200260200101819052508080611f7690614be5565b915050611e93565b505b9392505050565b6000806103e8601654611f9a9190614b7c565b905060028111158015611fc95750611fb3816001614ba3565b611fc69068056bc75e2d63100000614b36565b83145b80611f80575060038110158015611f805750611fee68056bc75e2d6310000084614c1d565b159392505050565b60008080600384600481111561200e5761200e6146ba565b036120875760095415612060576009805461202b90600190614b90565b8154811061203b5761203b614bb6565b60009182526020909120015473ffffffffffffffffffffffffffffffffffffffff1692505b600a549150600a54421061207657506000612087565b42600a546120849190614b90565b90505b600484600481111561209b5761209b6146ba565b0361211457600b54156120ed57600b80546120b890600190614b90565b815481106120c8576120c8614bb6565b60009182526020909120015473ffffffffffffffffffffffffffffffffffffffff1692505b600c549150600c54421061210357506000612114565b42600c546121119190614b90565b90505b9193909250565b60005473ffffffffffffffffffffffffffffffffffffffff16331461219c576040517f08c379a000000000000000000000000000000000000000000000000000000000815260206004820181905260248201527f4d656d626572736869703a496e76616c69642061646d696e206164647265737360448201526064016107c5565b6004805473ffffffffffffffffffffffffffffffffffffffff8087167fffffffffffffffffffffffff0000000000000000000000000000000000000000928316179092556005805486841690831617905560068054858416908316179055601a8054928416928216929092179091554260128190556015819055600f556003805482167355d398326f99059ff775485246999027b31979551790556007805482167310ed43c718714eb63d5aa57b78b54704e256024e1790556008805490911661dead1790556016805460019190600090612278908490614ba3565b9091555050678ac7230489e800006022555050601b602052505060057f584f46c60af19681376031579adb04a2416e54ee5505351c2a8435e3766026ea5560017f9fafca4c9c0d5c2cbf85f49fd8ab8212430ce78c2a0cb75b51e0f9c4f9ace00381905560027f1dd2f4b94a51cfb409e6e317a497f7cfd9013960a1c723f830c49c05a25f08a5557f804a3d0621e73505f5f0c57c922f3e57d6b48e175551184eb12f80d7b4a9c78381905560046000527fa952f8c0f40734b22d2328e0f7ff57eeffee78885b9cf2147ff941cc37e1c86e55565b601a5473ffffffffffffffffffffffffffffffffffffffff1633146123f4576040517f08c379a000000000000000000000000000000000000000000000000000000000815260206004820152602360248201527f4d656d626572736869703a496e76616c6964206f70657261746f72206164647260448201527f657373000000000000000000000000000000000000000000000000000000000060648201526084016107c5565b60006123ff83613df1565b90506000811161246b576040517f08c379a000000000000000000000000000000000000000000000000000000000815260206004820152601b60248201527f4d656d626572736869703a496e76616c69642070657263656e7421000000000060448201526064016107c5565b6000606461247a83601e614b36565b6124849190614b7c565b905060006064612495846014614b36565b61249f9190614b7c565b905060005b86518110156125c357600060058210156124ca576124c3600585614b7c565b9050612500565b600a8210156124de576124c3600584614b7c565b60148210156124f2576124c3600a85614b7c565b6124fd600a84614b7c565b90505b80600260008a858151811061251757612517614bb6565b602002602001015173ffffffffffffffffffffffffffffffffffffffff1673ffffffffffffffffffffffffffffffffffffffff168152602001908152602001600020600301600082825461256b9190614ba3565b909155505060055488516125b09173ffffffffffffffffffffffffffffffffffffffff16908a90859081106125a2576125a2614bb6565b6020026020010151836129e0565b50806125bb81614be5565b9150506124a4565b5060016019856040516125d69190614c55565b90815260405190819003602001902080549115157fffffffffffffffffffffffffffffffffffffffffffffffffffffffffffffff0090921691909117905561261d85613e96565b505050505050565b6040805173ffffffffffffffffffffffffffffffffffffffff85811660248301528481166044830152606480830185905283518084039091018152608490920183526020820180517bffffffffffffffffffffffffffffffffffffffffffffffffffffffff167f23b872dd0000000000000000000000000000000000000000000000000000000017905291516000928392908816916126c49190614c55565b6000604051808303816000865af19150503d8060008114612701576040519150601f19603f3d011682016040523d82523d6000602084013e612706565b606091505b50915091508180156127305750805115806127305750808060200190518101906127309190614c71565b61261d576040517f08c379a0000000000000000000000000000000000000000000000000000000008152602060048201526024808201527f5472616e7366657248656c7065723a205452414e534645525f46524f4d5f464160448201527f494c45440000000000000000000000000000000000000000000000000000000060648201526084016107c5565b6003546040517f70a08231000000000000000000000000000000000000000000000000000000008152306004820152600091829173ffffffffffffffffffffffffffffffffffffffff909116906370a0823190602401602060405180830381865afa15801561282e573d6000803e3d6000fd5b505050506040513d601f19601f820116820180604052508101906128529190614aee565b9050612867612862600283614b7c565b613f06565b6003546040517f70a0823100000000000000000000000000000000000000000000000000000000815230600482015260009173ffffffffffffffffffffffffffffffffffffffff16906370a0823190602401602060405180830381865afa1580156128d6573d6000803e3d6000fd5b505050506040513d601f19601f820116820180604052508101906128fa9190614aee565b600480546040517f70a08231000000000000000000000000000000000000000000000000000000008152309281019290925291925060009173ffffffffffffffffffffffffffffffffffffffff16906370a0823190602401602060405180830381865afa15801561296f573d6000803e3d6000fd5b505050506040513d601f19601f820116820180604052508101906129939190614aee565b90506000806129a284846140bc565b6004546008549295509093506129d7925073ffffffffffffffffffffffffffffffffffffffff9081169116610e708587614b90565b95945050505050565b6040805173ffffffffffffffffffffffffffffffffffffffff8481166024830152604480830185905283518084039091018152606490920183526020820180517bffffffffffffffffffffffffffffffffffffffffffffffffffffffff167fa9059cbb000000000000000000000000000000000000000000000000000000001790529151600092839290871691612a779190614c55565b6000604051808303816000865af19150503d8060008114612ab4576040519150601f19603f3d011682016040523d82523d6000602084013e612ab9565b606091505b5091509150818015612ae3575080511580612ae3575080806020019051810190612ae39190614c71565b612b49576040517f08c379a000000000000000000000000000000000000000000000000000000000815260206004820152601f60248201527f5472616e7366657248656c7065723a205452414e534645525f4641494c45440060448201526064016107c5565b5050505050565b73ffffffffffffffffffffffffffffffffffffffff80841660009081526002602090815260408083206001015490931680835283832060125484526004810190925292822080549293928691908590612baa908490614ba3565b9091555050601554600090815260068201602052604081208054879290612bd2908490614ba3565b90915550600090506064612be7866028614b36565b612bf19190614b7c565b90508160020154600003612c09579250611f80915050565b858260020154101580612c295750682086ac351052600000826002015410155b15612c775780826003016000828254612c429190614ba3565b9091555050600554612c6b9073ffffffffffffffffffffffffffffffffffffffff1684836129e0565b60009350505050611f80565b60006064836002015488612c8b9190614b7c565b612c959088614b7c565b612ca0906028614b36565b612caa9190614b7c565b905080836003016000828254612cc09190614ba3565b9091555050600554612ce99073ffffffffffffffffffffffffffffffffffffffff1685836129e0565b612cf38183614b90565b98975050505050505050565b73ffffffffffffffffffffffffffffffffffffffff8084166000908152600260205260408120549091829116815b603281108015612d52575073ffffffffffffffffffffffffffffffffffffffff821615155b15612fdb5773ffffffffffffffffffffffffffffffffffffffff82166000908152600260208190526040909120015415612f6c5773ffffffffffffffffffffffffffffffffffffffff82166000908152600260208190526040909120015486111580612df0575073ffffffffffffffffffffffffffffffffffffffff821660009081526002602081905260409091200154682086ac35105260000011155b15612e7b576103e8612e03866002614b36565b612e0d9190614b7c565b73ffffffffffffffffffffffffffffffffffffffff831660009081526002602052604081206003018054909190612e45908490614ba3565b9091555050600554612e769073ffffffffffffffffffffffffffffffffffffffff16836103e8610e66896002614b36565b612f91565b73ffffffffffffffffffffffffffffffffffffffff82166000908152600260208190526040822001546103e890612eb29089614b7c565b612ebc9088614b7c565b612ec7906002614b36565b612ed19190614b7c565b73ffffffffffffffffffffffffffffffffffffffff8416600090815260026020526040812060030180549293508392909190612f0e908490614ba3565b9091555050600554612f379073ffffffffffffffffffffffffffffffffffffffff1684836129e0565b806103e8612f46886002614b36565b612f509190614b7c565b612f5a9190614b90565b612f649085614ba3565b935050612f91565b6103e8612f7a866002614b36565b612f849190614b7c565b612f8e9084614ba3565b92505b73ffffffffffffffffffffffffffffffffffffffff91821660009081526002602052604090205490911690612fc7816001614ba3565b935080612fd381614be5565b915050612d2d565b5050935093915050565b600a5460000361300057612ffc4262015180614ba3565b600a555b600a544210158015613013575060095415155b15613230576005546040517f70a0823100000000000000000000000000000000000000000000000000000000815230600482015260009173ffffffffffffffffffffffffffffffffffffffff16906370a0823190602401602060405180830381865afa158015613087573d6000803e3d6000fd5b505050506040513d601f19601f820116820180604052508101906130ab9190614aee565b90506000601854826130bd9190614b90565b60036000908152601b6020527f804a3d0621e73505f5f0c57c922f3e57d6b48e175551184eb12f80d7b4a9c78354919250906064906130fc9084614b36565b6131069190614b7c565b6020546131139190614ba3565b9050613120600282614b7c565b6009805460029160009161313690600190614b90565b8154811061314657613146614bb6565b600091825260208083209091015473ffffffffffffffffffffffffffffffffffffffff1683528201929092526040018120600301805490919061318a908490614ba3565b9091555050600554600980546131fb9273ffffffffffffffffffffffffffffffffffffffff1691906131be90600190614b90565b815481106131ce576131ce614bb6565b60009182526020909120015473ffffffffffffffffffffffffffffffffffffffff16610e70600285614b7c565b6132084262015180614ba3565b600a55613216600282614b7c565b602060008282546132279190614b90565b90915550505050505b600980546001810182556000919091527f6e1540171b6c0c960b71a7020d9f60077f6af931a8bbf590da0223dacf75c7af0180547fffffffffffffffffffffffff00000000000000000000000000000000000000001673ffffffffffffffffffffffffffffffffffffffff83161790556132aa60036142e1565b50565b60008052601b6020527f584f46c60af19681376031579adb04a2416e54ee5505351c2a8435e3766026ea546064906132e59083614b36565b6132ef9190614b7c565b601d60008282546133009190614ba3565b90915550506001600052601b6020527f9fafca4c9c0d5c2cbf85f49fd8ab8212430ce78c2a0cb75b51e0f9c4f9ace0035460649061333e9083614b36565b6133489190614b7c565b601e60008282546133599190614ba3565b90915550506002600052601b6020527f1dd2f4b94a51cfb409e6e317a497f7cfd9013960a1c723f830c49c05a25f08a5546064906133979083614b36565b6133a19190614b7c565b601f60008282546133b29190614ba3565b90915550506003600052601b6020527f804a3d0621e73505f5f0c57c922f3e57d6b48e175551184eb12f80d7b4a9c783546064906133f09083614b36565b6133fa9190614b7c565b6020600082825461340b9190614ba3565b90915550506004600052601b6020527fa952f8c0f40734b22d2328e0f7ff57eeffee78885b9cf2147ff941cc37e1c86e546064906134499083614b36565b6134539190614b7c565b602160008282546134649190614ba3565b909155505050565b601254600090815260116020908152604080832073ffffffffffffffffffffffffffffffffffffffff8516845290915290205460ff161580156134c4575073ffffffffffffffffffffffffffffffffffffffff811615155b1561356d576012805460009081526010602090815260408083208054600180820183559185528385200180547fffffffffffffffffffffffff00000000000000000000000000000000000000001673ffffffffffffffffffffffffffffffffffffffff8816908117909155945484526011835281842094845293909152902080547fffffffffffffffffffffffffffffffffffffffffffffffffffffffffffffff001690911790555b601554600090815260146020908152604080832073ffffffffffffffffffffffffffffffffffffffff8516845290915290205460ff161580156135c5575073ffffffffffffffffffffffffffffffffffffffff811615155b156132aa5760158054600090815260136020908152604080832080546001818101835591855283852001805473ffffffffffffffffffffffffffffffffffffffff88167fffffffffffffffffffffffff00000000000000000000000000000000000000009091168117909155945484526014835281842094845293909152902080547fffffffffffffffffffffffffffffffffffffffffffffffffffffffffffffff0016909117905550565b73ffffffffffffffffffffffffffffffffffffffff8216600090815260026020819052604090912060080154106137865760006136ad836143cc565b905073ffffffffffffffffffffffffffffffffffffffff811661377c5760005b73ffffffffffffffffffffffffffffffffffffffff84166000908152600260205260409020600801548110156137765773ffffffffffffffffffffffffffffffffffffffff84166000908152600260205260409020600801805461376491908390811061373c5761373c614bb6565b60009182526020909120015473ffffffffffffffffffffffffffffffffffffffff1684613671565b8061376e81614be5565b9150506136cd565b50505050565b611ad98183613671565b73ffffffffffffffffffffffffffffffffffffffff808216600081815260026020908152604080832080549588167fffffffffffffffffffffffff0000000000000000000000000000000000000000968716811790915583528220600801805460018101825590835291200180549092161790555050565b600c54600003613819576138154262015180614ba3565b600c555b600c54421015801561382c5750600b5415155b15613a0f576005546040517f70a0823100000000000000000000000000000000000000000000000000000000815230600482015260009173ffffffffffffffffffffffffffffffffffffffff16906370a0823190602401602060405180830381865afa1580156138a0573d6000803e3d6000fd5b505050506040513d601f19601f820116820180604052508101906138c49190614aee565b90506000601854826138d69190614b90565b60046000908152601b6020527fa952f8c0f40734b22d2328e0f7ff57eeffee78885b9cf2147ff941cc37e1c86e54919250906064906139159084614b36565b61391f9190614b7c565b60215461392c9190614ba3565b9050613939600282614b7c565b600b805460029160009161394f90600190614b90565b8154811061395f5761395f614bb6565b600091825260208083209091015473ffffffffffffffffffffffffffffffffffffffff168352820192909252604001812060030180549091906139a3908490614ba3565b9091555050600554600b80546139d79273ffffffffffffffffffffffffffffffffffffffff1691906131be90600190614b90565b6139e44262015180614ba3565b506000600c556139f5600282614b7c565b60186000828254613a069190614ba3565b90915550505050505b613a1960046142e1565b602254811061140757600b80546001810182556000919091527f0175b7a638427703f0dbe7bb9bbf987a2551717b34e79f33b5b1008d1fa01db901805473ffffffffffffffffffffffffffffffffffffffff84167fffffffffffffffffffffffff00000000000000000000000000000000000000009091161790555050565b73ffffffffffffffffffffffffffffffffffffffff83166000908152600260209081526040808320600f54845260050190915281208054849290613add908490614ba3565b9091555050600f546000908152600e6020908152604080832073ffffffffffffffffffffffffffffffffffffffff8716845290915290205460ff16613bc057600f80546000908152600d602090815260408083208054600180820183559185528385200180547fffffffffffffffffffffffff00000000000000000000000000000000000000001673ffffffffffffffffffffffffffffffffffffffff8a1690811790915594548452600e835281842094845293909152902080547fffffffffffffffffffffffffffffffffffffffffffffffffffffffffffffff001690911790555b6040805160028082526060820183526000926020830190803683375050600354825192935073ffffffffffffffffffffffffffffffffffffffff1691839150600090613c0e57613c0e614bb6565b73ffffffffffffffffffffffffffffffffffffffff9283166020918202929092010152600454825191169082906001908110613c4c57613c4c614bb6565b73ffffffffffffffffffffffffffffffffffffffff92831660209182029290920101526005546007546040517f095ea7b300000000000000000000000000000000000000000000000000000000815290831660048201526024810185905291169063095ea7b3906044016020604051808303816000875af1158015613cd5573d6000803e3d6000fd5b505050506040513d601f19601f82011682018060405250810190613cf99190614c71565b5060075460045460035473ffffffffffffffffffffffffffffffffffffffff9283169263baa2abde9281169116856000808a613d3642600a614ba3565b60405160e089901b7fffffffff0000000000000000000000000000000000000000000000000000000016815273ffffffffffffffffffffffffffffffffffffffff9788166004820152958716602487015260448601949094526064850192909252608484015290921660a482015260c481019190915260e40160408051808303816000875af1158015613dcd573d6000803e3d6000fd5b505050506040513d601f19601f8201168201806040525081019061261d9190614c93565b600080613dfc61155e565b9050826004811115613e1057613e106146ba565b600003613e3e5780600081518110613e2a57613e2a614bb6565b602002602001015160200151915050919050565b826004811115613e5057613e506146ba565b600103613e6a5780600181518110613e2a57613e2a614bb6565b826004811115613e7c57613e7c6146ba565b6002036115545780600281518110613e2a57613e2a614bb6565b806004811115613ea857613ea86146ba565b600003613ebe574260125560006018819055601d555b806004811115613ed057613ed06146ba565b600103613ee157426015556000601e555b806004811115613ef357613ef36146ba565b6002036132aa5742600f556000601f5550565b6003546007546040517f095ea7b300000000000000000000000000000000000000000000000000000000815273ffffffffffffffffffffffffffffffffffffffff91821660048201526024810184905291169063095ea7b3906044016020604051808303816000875af1158015613f81573d6000803e3d6000fd5b505050506040513d601f19601f82011682018060405250810190613fa59190614c71565b506040805160028082526060820183526000926020830190803683375050600354825192935073ffffffffffffffffffffffffffffffffffffffff1691839150600090613ff457613ff4614bb6565b73ffffffffffffffffffffffffffffffffffffffff928316602091820292909201015260045482519116908290600190811061403257614032614bb6565b73ffffffffffffffffffffffffffffffffffffffff928316602091820292909201015260075416635c11d795836000843061406e42600a614ba3565b6040518663ffffffff1660e01b815260040161408e959493929190614cb7565b600060405180830381600087803b1580156140a857600080fd5b505af115801561261d573d6000803e3d6000fd5b600480546007546040517f095ea7b300000000000000000000000000000000000000000000000000000000815273ffffffffffffffffffffffffffffffffffffffff918216938101939093526024830184905260009283928392169063095ea7b3906044016020604051808303816000875af1158015614140573d6000803e3d6000fd5b505050506040513d601f19601f820116820180604052508101906141649190614c71565b506003546007546040517f095ea7b300000000000000000000000000000000000000000000000000000000815273ffffffffffffffffffffffffffffffffffffffff91821660048201526024810188905291169063095ea7b3906044016020604051808303816000875af11580156141e0573d6000803e3d6000fd5b505050506040513d601f19601f820116820180604052508101906142049190614c71565b50600754600354600480546040517fe8e3370000000000000000000000000000000000000000000000000000000000815273ffffffffffffffffffffffffffffffffffffffff9384169281019290925282166024820152604481018890526064810187905260006084820181905260a48201523060c48201524260e482015291169063e8e3370090610104016060604051808303816000875af11580156142af573d6000803e3d6000fd5b505050506040513d601f19601f820116820180604052508101906142d39190614d00565b919790965090945092505050565b8060048111156142f3576142f36146ba565b6003036143565742600a54111561435657600042600a546143149190614b90565b9050610e1081116143305761432c4262015180614ba3565b600a555b610e1081111561435457610e10600a600082825461434e9190614ba3565b90915550505b505b806004811115614368576143686146ba565b6004036132aa5742600c5411156132aa57600042600c546143899190614b90565b905061025881116143a5576143a14262015180614ba3565b600c555b61025881111561140757610258600c60008282546143c39190614ba3565b90915550505050565b6000805b73ffffffffffffffffffffffffffffffffffffffff8316600090815260026020526040902060080154811015611554576002806000600260008773ffffffffffffffffffffffffffffffffffffffff1673ffffffffffffffffffffffffffffffffffffffff168152602001908152602001600020600801848154811061445857614458614bb6565b600091825260208083209091015473ffffffffffffffffffffffffffffffffffffffff16835282019290925260400190206008015410156144f65773ffffffffffffffffffffffffffffffffffffffff831660009081526002602052604090206008018054829081106144cd576144cd614bb6565b60009182526020909120015473ffffffffffffffffffffffffffffffffffffffff169392505050565b8061450081614be5565b9150506143d0565b80356005811061071d57600080fd5b60006020828403121561452957600080fd5b611f8082614508565b600081518084526020808501945080840160005b8381101561457857815173ffffffffffffffffffffffffffffffffffffffff1687529582019590820190600101614546565b509495945050505050565b602081526000611f806020830184614532565b6000602082840312156145a857600080fd5b5035919050565b803573ffffffffffffffffffffffffffffffffffffffff8116811461071d57600080fd5b6000602082840312156145e557600080fd5b611f80826145af565b6000806040838503121561460157600080fd5b61460a836145af565b946020939093013593505050565b6000806040838503121561462b57600080fd5b61460a83614508565b85815284602082015283604082015260a06060820152600061465960a0830185614532565b8281036080840152612cf38185614532565b6000806040838503121561467e57600080fd5b614687836145af565b9150614695602084016145af565b90509250929050565b600080604083850312156146b157600080fd5b61468783614508565b7f4e487b7100000000000000000000000000000000000000000000000000000000600052602160045260246000fd5b60208082528251828201819052600091906040908185019086840185805b83811015614761578251805160058110614748577f4e487b710000000000000000000000000000000000000000000000000000000084526021600452602484fd5b8652870151878601529385019391860191600101614707565b509298975050505050505050565b7f4e487b7100000000000000000000000000000000000000000000000000000000600052604160045260246000fd5b604051601f82017fffffffffffffffffffffffffffffffffffffffffffffffffffffffffffffffe016810167ffffffffffffffff811182821017156147e5576147e561476f565b604052919050565b600082601f8301126147fe57600080fd5b813567ffffffffffffffff8111156148185761481861476f565b61484960207fffffffffffffffffffffffffffffffffffffffffffffffffffffffffffffffe0601f8401160161479e565b81815284602083860101111561485e57600080fd5b816020850160208301376000918101602001919091529392505050565b60006020828403121561488d57600080fd5b813567ffffffffffffffff8111156148a457600080fd5b610919848285016147ed565b6000806000606084860312156148c557600080fd5b6148ce846145af565b92506148dc602085016145af565b9150604084013590509250925092565b600082601f8301126148fd57600080fd5b8135602067ffffffffffffffff8211156149195761491961476f565b8160051b61492882820161479e565b928352848101820192828101908785111561494257600080fd5b83870192505b8483101561496857614959836145af565b82529183019190830190614948565b979650505050505050565b6000806040838503121561498657600080fd5b61498f83614508565b9150602083013567ffffffffffffffff8111156149ab57600080fd5b6149b7858286016148ec565b9150509250929050565b602080825282518282018190526000919060409081850190868401855b82811015614a19578151805173ffffffffffffffffffffffffffffffffffffffff1685528601518685015292840192908501906001016149de565b5091979650505050505050565b60008060008060808587031215614a3c57600080fd5b614a45856145af565b9350614a53602086016145af565b9250614a61604086016145af565b9150614a6f606086016145af565b905092959194509250565b600080600060608486031215614a8f57600080fd5b833567ffffffffffffffff80821115614aa757600080fd5b614ab3878388016148ec565b9450614ac160208701614508565b93506040860135915080821115614ad757600080fd5b50614ae4868287016147ed565b9150509250925092565b600060208284031215614b0057600080fd5b5051919050565b7f4e487b7100000000000000000000000000000000000000000000000000000000600052601160045260246000fd5b808202811582820484141761155857611558614b07565b7f4e487b7100000000000000000000000000000000000000000000000000000000600052601260045260246000fd5b600082614b8b57614b8b614b4d565b500490565b8181038181111561155857611558614b07565b8082018082111561155857611558614b07565b7f4e487b7100000000000000000000000000000000000000000000000000000000600052603260045260246000fd5b60007fffffffffffffffffffffffffffffffffffffffffffffffffffffffffffffffff8203614c1657614c16614b07565b5060010190565b600082614c2c57614c2c614b4d565b500690565b60005b83811015614c4c578181015183820152602001614c34565b50506000910152565b60008251614c67818460208701614c31565b9190910192915050565b600060208284031215614c8357600080fd5b81518015158114611f8057600080fd5b60008060408385031215614ca657600080fd5b505080516020909101519092909150565b85815284602082015260a060408201526000614cd660a0830186614532565b73ffffffffffffffffffffffffffffffffffffffff94909416606083015250608001529392505050565b600080600060608486031215614d1557600080fd5b835192506020840151915060408401519050925092509256fea264697066735822122093a738cba08e4c3bf6efc609a490b01f2e2e1306428112fd012277ff02913ed764736f6c63430008120033",
			"opcodes": "PUSH1 0x80 PUSH1 0x40 MSTORE CALLVALUE DUP1 ISZERO PUSH2 0x10 JUMPI PUSH1 0x0 DUP1 REVERT JUMPDEST POP PUSH1 0x0 DUP1 SLOAD PUSH1 0x1 PUSH1 0x1 PUSH1 0xA0 SHL SUB NOT AND CALLER OR SWAP1 SSTORE PUSH2 0x4D64 DUP1 PUSH2 0x32 PUSH1 0x0 CODECOPY PUSH1 0x0 RETURN INVALID PUSH1 0x80 PUSH1 0x40 MSTORE CALLVALUE DUP1 ISZERO PUSH2 0x10 JUMPI PUSH1 0x0 DUP1 REVERT JUMPDEST POP PUSH1 0x4 CALLDATASIZE LT PUSH2 0x1DA JUMPI PUSH1 0x0 CALLDATALOAD PUSH1 0xE0 SHR DUP1 PUSH4 0x76E92559 GT PUSH2 0x104 JUMPI DUP1 PUSH4 0xDCDE5A0C GT PUSH2 0xA2 JUMPI DUP1 PUSH4 0xEE9B1B53 GT PUSH2 0x71 JUMPI DUP1 PUSH4 0xEE9B1B53 EQ PUSH2 0x4C7 JUMPI DUP1 PUSH4 0xF851A440 EQ PUSH2 0x50C JUMPI DUP1 PUSH4 0xF8C8765E EQ PUSH2 0x52C JUMPI DUP1 PUSH4 0xF98029C8 EQ PUSH2 0x53F JUMPI PUSH1 0x0 DUP1 REVERT JUMPDEST DUP1 PUSH4 0xDCDE5A0C EQ PUSH2 0x3F4 JUMPI DUP1 PUSH4 0xDF264429 EQ PUSH2 0x481 JUMPI DUP1 PUSH4 0xE1AAEB50 EQ PUSH2 0x494 JUMPI DUP1 PUSH4 0xE44AE85C EQ PUSH2 0x4B4 JUMPI PUSH1 0x0 DUP1 REVERT JUMPDEST DUP1 PUSH4 0xA8D4BB75 GT PUSH2 0xDE JUMPI DUP1 PUSH4 0xA8D4BB75 EQ PUSH2 0x37B JUMPI DUP1 PUSH4 0xB3AB15FB EQ PUSH2 0x390 JUMPI DUP1 PUSH4 0xCCE9639F EQ PUSH2 0x3A3 JUMPI DUP1 PUSH4 0xCDC09B4B EQ PUSH2 0x3E1 JUMPI PUSH1 0x0 DUP1 REVERT JUMPDEST DUP1 PUSH4 0x76E92559 EQ PUSH2 0x356 JUMPI DUP1 PUSH4 0x8EB955E2 EQ PUSH2 0x35F JUMPI DUP1 PUSH4 0x9BBEA775 EQ PUSH2 0x368 JUMPI PUSH1 0x0 DUP1 REVERT JUMPDEST DUP1 PUSH4 0x45040297 GT PUSH2 0x17C JUMPI DUP1 PUSH4 0x6F4C6443 GT PUSH2 0x14B JUMPI DUP1 PUSH4 0x6F4C6443 EQ PUSH2 0x329 JUMPI DUP1 PUSH4 0x6FBF7FB6 EQ PUSH2 0x33C JUMPI DUP1 PUSH4 0x75BA748D EQ PUSH2 0x345 JUMPI DUP1 PUSH4 0x765C58B6 EQ PUSH2 0x34E JUMPI PUSH1 0x0 DUP1 REVERT JUMPDEST DUP1 PUSH4 0x45040297 EQ PUSH2 0x2BC JUMPI DUP1 PUSH4 0x570CA735 EQ PUSH2 0x2C5 JUMPI DUP1 PUSH4 0x5C60DA1B EQ PUSH2 0x2E5 JUMPI DUP1 PUSH4 0x6386C1C7 EQ PUSH2 0x305 JUMPI PUSH1 0x0 DUP1 REVERT JUMPDEST DUP1 PUSH4 0x13AF4035 GT PUSH2 0x1B8 JUMPI DUP1 PUSH4 0x13AF4035 EQ PUSH2 0x23E JUMPI DUP1 PUSH4 0x36B73908 EQ PUSH2 0x251 JUMPI DUP1 PUSH4 0x3ECAFF99 EQ PUSH2 0x264 JUMPI DUP1 PUSH4 0x40EEDABB EQ PUSH2 0x277 JUMPI PUSH1 0x0 DUP1 REVERT JUMPDEST DUP1 PUSH4 0x41C489E EQ PUSH2 0x1DF JUMPI DUP1 PUSH4 0x4E9E4A4 EQ PUSH2 0x208 JUMPI DUP1 PUSH4 0x11A8BB9C EQ PUSH2 0x21D JUMPI JUMPDEST PUSH1 0x0 DUP1 REVERT JUMPDEST PUSH2 0x1F2 PUSH2 0x1ED CALLDATASIZE PUSH1 0x4 PUSH2 0x4517 JUMP JUMPDEST PUSH2 0x552 JUMP JUMPDEST PUSH1 0x40 MLOAD PUSH2 0x1FF SWAP2 SWAP1 PUSH2 0x4583 JUMP JUMPDEST PUSH1 0x40 MLOAD DUP1 SWAP2 SUB SWAP1 RETURN JUMPDEST PUSH2 0x21B PUSH2 0x216 CALLDATASIZE PUSH1 0x4 PUSH2 0x4596 JUMP JUMPDEST PUSH2 0x722 JUMP JUMPDEST STOP JUMPDEST PUSH2 0x230 PUSH2 0x22B CALLDATASIZE PUSH1 0x4 PUSH2 0x4596 JUMP JUMPDEST PUSH2 0x7D3 JUMP JUMPDEST PUSH1 0x40 MLOAD SWAP1 DUP2 MSTORE PUSH1 0x20 ADD PUSH2 0x1FF JUMP JUMPDEST PUSH2 0x21B PUSH2 0x24C CALLDATASIZE PUSH1 0x4 PUSH2 0x45D3 JUMP JUMPDEST PUSH2 0x921 JUMP JUMPDEST PUSH2 0x21B PUSH2 0x25F CALLDATASIZE PUSH1 0x4 PUSH2 0x45EE JUMP JUMPDEST PUSH2 0x9E9 JUMP JUMPDEST PUSH2 0x21B PUSH2 0x272 CALLDATASIZE PUSH1 0x4 PUSH2 0x4618 JUMP JUMPDEST PUSH2 0xF72 JUMP JUMPDEST PUSH1 0x6 SLOAD PUSH2 0x297 SWAP1 PUSH20 0xFFFFFFFFFFFFFFFFFFFFFFFFFFFFFFFFFFFFFFFF AND DUP2 JUMP JUMPDEST PUSH1 0x40 MLOAD PUSH20 0xFFFFFFFFFFFFFFFFFFFFFFFFFFFFFFFFFFFFFFFF SWAP1 SWAP2 AND DUP2 MSTORE PUSH1 0x20 ADD PUSH2 0x1FF JUMP JUMPDEST PUSH2 0x230 PUSH1 0xF SLOAD DUP2 JUMP JUMPDEST PUSH1 0x1A SLOAD PUSH2 0x297 SWAP1 PUSH20 0xFFFFFFFFFFFFFFFFFFFFFFFFFFFFFFFFFFFFFFFF AND DUP2 JUMP JUMPDEST PUSH1 0x1 SLOAD PUSH2 0x297 SWAP1 PUSH20 0xFFFFFFFFFFFFFFFFFFFFFFFFFFFFFFFFFFFFFFFF AND DUP2 JUMP JUMPDEST PUSH2 0x318 PUSH2 0x313 CALLDATASIZE PUSH1 0x4 PUSH2 0x45D3 JUMP JUMPDEST PUSH2 0x1056 JUMP JUMPDEST PUSH1 0x40 MLOAD PUSH2 0x1FF SWAP6 SWAP5 SWAP4 SWAP3 SWAP2 SWAP1 PUSH2 0x4634 JUMP JUMPDEST PUSH2 0x21B PUSH2 0x337 CALLDATASIZE PUSH1 0x4 PUSH2 0x466B JUMP JUMPDEST PUSH2 0x11D1 JUMP JUMPDEST PUSH2 0x230 PUSH1 0x12 SLOAD DUP2 JUMP JUMPDEST PUSH2 0x230 PUSH1 0x15 SLOAD DUP2 JUMP JUMPDEST PUSH2 0x230 PUSH2 0x140B JUMP JUMPDEST PUSH2 0x230 PUSH1 0x16 SLOAD DUP2 JUMP JUMPDEST PUSH2 0x230 PUSH1 0x18 SLOAD DUP2 JUMP JUMPDEST PUSH2 0x230 PUSH2 0x376 CALLDATASIZE PUSH1 0x4 PUSH2 0x469E JUMP JUMPDEST PUSH2 0x1454 JUMP JUMPDEST PUSH2 0x383 PUSH2 0x155E JUMP JUMPDEST PUSH1 0x40 MLOAD PUSH2 0x1FF SWAP2 SWAP1 PUSH2 0x46E9 JUMP JUMPDEST PUSH2 0x21B PUSH2 0x39E CALLDATASIZE PUSH1 0x4 PUSH2 0x45D3 JUMP JUMPDEST PUSH2 0x195F JUMP JUMPDEST PUSH2 0x3D1 PUSH2 0x3B1 CALLDATASIZE PUSH1 0x4 PUSH2 0x487B JUMP JUMPDEST DUP1 MLOAD PUSH1 0x20 DUP2 DUP4 ADD DUP2 ADD DUP1 MLOAD PUSH1 0x19 DUP3 MSTORE SWAP3 DUP3 ADD SWAP2 SWAP1 SWAP4 ADD KECCAK256 SWAP2 MSTORE SLOAD PUSH1 0xFF AND DUP2 JUMP JUMPDEST PUSH1 0x40 MLOAD SWAP1 ISZERO ISZERO DUP2 MSTORE PUSH1 0x20 ADD PUSH2 0x1FF JUMP JUMPDEST PUSH2 0x21B PUSH2 0x3EF CALLDATASIZE PUSH1 0x4 PUSH2 0x48B0 JUMP JUMPDEST PUSH2 0x1A27 JUMP JUMPDEST PUSH2 0x449 PUSH2 0x402 CALLDATASIZE PUSH1 0x4 PUSH2 0x45D3 JUMP JUMPDEST PUSH20 0xFFFFFFFFFFFFFFFFFFFFFFFFFFFFFFFFFFFFFFFF SWAP1 DUP2 AND PUSH1 0x0 SWAP1 DUP2 MSTORE PUSH1 0x2 PUSH1 0x20 DUP2 SWAP1 MSTORE PUSH1 0x40 SWAP1 SWAP2 KECCAK256 DUP1 SLOAD PUSH1 0x1 DUP3 ADD SLOAD SWAP3 DUP3 ADD SLOAD PUSH1 0x3 SWAP1 SWAP3 ADD SLOAD SWAP1 DUP5 AND SWAP5 SWAP3 SWAP1 SWAP4 AND SWAP3 SWAP1 SWAP2 JUMP JUMPDEST PUSH1 0x40 DUP1 MLOAD PUSH20 0xFFFFFFFFFFFFFFFFFFFFFFFFFFFFFFFFFFFFFFFF SWAP6 DUP7 AND DUP2 MSTORE SWAP5 SWAP1 SWAP4 AND PUSH1 0x20 DUP6 ADD MSTORE SWAP2 DUP4 ADD MSTORE PUSH1 0x60 DUP3 ADD MSTORE PUSH1 0x80 ADD PUSH2 0x1FF JUMP JUMPDEST PUSH2 0x21B PUSH2 0x48F CALLDATASIZE PUSH1 0x4 PUSH2 0x45EE JUMP JUMPDEST PUSH2 0x1ADE JUMP JUMPDEST PUSH2 0x4A7 PUSH2 0x4A2 CALLDATASIZE PUSH1 0x4 PUSH2 0x4973 JUMP JUMPDEST PUSH2 0x1BFF JUMP JUMPDEST PUSH1 0x40 MLOAD PUSH2 0x1FF SWAP2 SWAP1 PUSH2 0x49C1 JUMP JUMPDEST PUSH2 0x3D1 PUSH2 0x4C2 CALLDATASIZE PUSH1 0x4 PUSH2 0x4596 JUMP JUMPDEST PUSH2 0x1F87 JUMP JUMPDEST PUSH2 0x4DA PUSH2 0x4D5 CALLDATASIZE PUSH1 0x4 PUSH2 0x4517 JUMP JUMPDEST PUSH2 0x1FF6 JUMP JUMPDEST PUSH1 0x40 DUP1 MLOAD PUSH20 0xFFFFFFFFFFFFFFFFFFFFFFFFFFFFFFFFFFFFFFFF SWAP1 SWAP5 AND DUP5 MSTORE PUSH1 0x20 DUP5 ADD SWAP3 SWAP1 SWAP3 MSTORE SWAP1 DUP3 ADD MSTORE PUSH1 0x60 ADD PUSH2 0x1FF JUMP JUMPDEST PUSH1 0x0 SLOAD PUSH2 0x297 SWAP1 PUSH20 0xFFFFFFFFFFFFFFFFFFFFFFFFFFFFFFFFFFFFFFFF AND DUP2 JUMP JUMPDEST PUSH2 0x21B PUSH2 0x53A CALLDATASIZE PUSH1 0x4 PUSH2 0x4A26 JUMP JUMPDEST PUSH2 0x211B JUMP JUMPDEST PUSH2 0x21B PUSH2 0x54D CALLDATASIZE PUSH1 0x4 PUSH2 0x4A7A JUMP JUMPDEST PUSH2 0x234D JUMP JUMPDEST PUSH1 0x60 DUP2 PUSH1 0x4 DUP2 GT ISZERO PUSH2 0x566 JUMPI PUSH2 0x566 PUSH2 0x46BA JUMP JUMPDEST PUSH1 0x0 SUB PUSH2 0x5E7 JUMPI PUSH1 0x12 SLOAD PUSH1 0x0 SWAP1 DUP2 MSTORE PUSH1 0x10 PUSH1 0x20 SWAP1 DUP2 MSTORE PUSH1 0x40 SWAP2 DUP3 SWAP1 KECCAK256 DUP1 SLOAD DUP4 MLOAD DUP2 DUP5 MUL DUP2 ADD DUP5 ADD SWAP1 SWAP5 MSTORE DUP1 DUP5 MSTORE SWAP1 SWAP2 DUP4 ADD DUP3 DUP3 DUP1 ISZERO PUSH2 0x5DB JUMPI PUSH1 0x20 MUL DUP3 ADD SWAP2 SWAP1 PUSH1 0x0 MSTORE PUSH1 0x20 PUSH1 0x0 KECCAK256 SWAP1 JUMPDEST DUP2 SLOAD PUSH20 0xFFFFFFFFFFFFFFFFFFFFFFFFFFFFFFFFFFFFFFFF AND DUP2 MSTORE PUSH1 0x1 SWAP1 SWAP2 ADD SWAP1 PUSH1 0x20 ADD DUP1 DUP4 GT PUSH2 0x5B0 JUMPI JUMPDEST POP POP POP POP POP SWAP1 POP SWAP2 SWAP1 POP JUMP JUMPDEST DUP2 PUSH1 0x4 DUP2 GT ISZERO PUSH2 0x5F9 JUMPI PUSH2 0x5F9 PUSH2 0x46BA JUMP JUMPDEST PUSH1 0x1 SUB PUSH2 0x678 JUMPI PUSH1 0x15 SLOAD PUSH1 0x0 SWAP1 DUP2 MSTORE PUSH1 0x13 PUSH1 0x20 SWAP1 DUP2 MSTORE PUSH1 0x40 SWAP2 DUP3 SWAP1 KECCAK256 DUP1 SLOAD DUP4 MLOAD DUP2 DUP5 MUL DUP2 ADD DUP5 ADD SWAP1 SWAP5 MSTORE DUP1 DUP5 MSTORE SWAP1 SWAP2 DUP4 ADD DUP3 DUP3 DUP1 ISZERO PUSH2 0x5DB JUMPI PUSH1 0x20 MUL DUP3 ADD SWAP2 SWAP1 PUSH1 0x0 MSTORE PUSH1 0x20 PUSH1 0x0 KECCAK256 SWAP1 DUP2 SLOAD PUSH20 0xFFFFFFFFFFFFFFFFFFFFFFFFFFFFFFFFFFFFFFFF AND DUP2 MSTORE PUSH1 0x1 SWAP1 SWAP2 ADD SWAP1 PUSH1 0x20 ADD DUP1 DUP4 GT PUSH2 0x5B0 JUMPI POP POP POP POP POP SWAP1 POP SWAP2 SWAP1 POP JUMP JUMPDEST DUP2 PUSH1 0x4 DUP2 GT ISZERO PUSH2 0x68A JUMPI PUSH2 0x68A PUSH2 0x46BA JUMP JUMPDEST PUSH1 0x2 SUB PUSH2 0x709 JUMPI PUSH1 0xF SLOAD PUSH1 0x0 SWAP1 DUP2 MSTORE PUSH1 0xD PUSH1 0x20 SWAP1 DUP2 MSTORE PUSH1 0x40 SWAP2 DUP3 SWAP1 KECCAK256 DUP1 SLOAD DUP4 MLOAD DUP2 DUP5 MUL DUP2 ADD DUP5 ADD SWAP1 SWAP5 MSTORE DUP1 DUP5 MSTORE SWAP1 SWAP2 DUP4 ADD DUP3 DUP3 DUP1 ISZERO PUSH2 0x5DB JUMPI PUSH1 0x20 MUL DUP3 ADD SWAP2 SWAP1 PUSH1 0x0 MSTORE PUSH1 0x20 PUSH1 0x0 KECCAK256 SWAP1 DUP2 SLOAD PUSH20 0xFFFFFFFFFFFFFFFFFFFFFFFFFFFFFFFFFFFFFFFF AND DUP2 MSTORE PUSH1 0x1 SWAP1 SWAP2 ADD SWAP1 PUSH1 0x20 ADD DUP1 DUP4 GT PUSH2 0x5B0 JUMPI POP POP POP POP POP SWAP1 POP SWAP2 SWAP1 POP JUMP JUMPDEST POP POP PUSH1 0x40 DUP1 MLOAD PUSH1 0x0 DUP2 MSTORE PUSH1 0x20 DUP2 ADD SWAP1 SWAP2 MSTORE SWAP1 JUMP JUMPDEST SWAP2 SWAP1 POP JUMP JUMPDEST PUSH1 0x1A SLOAD PUSH20 0xFFFFFFFFFFFFFFFFFFFFFFFFFFFFFFFFFFFFFFFF AND CALLER EQ PUSH2 0x7CE JUMPI PUSH1 0x40 MLOAD PUSH32 0x8C379A000000000000000000000000000000000000000000000000000000000 DUP2 MSTORE PUSH1 0x20 PUSH1 0x4 DUP3 ADD MSTORE PUSH1 0x23 PUSH1 0x24 DUP3 ADD MSTORE PUSH32 0x4D656D626572736869703A496E76616C6964206F70657261746F722061646472 PUSH1 0x44 DUP3 ADD MSTORE PUSH32 0x6573730000000000000000000000000000000000000000000000000000000000 PUSH1 0x64 DUP3 ADD MSTORE PUSH1 0x84 ADD JUMPDEST PUSH1 0x40 MLOAD DUP1 SWAP2 SUB SWAP1 REVERT JUMPDEST PUSH1 0x22 SSTORE JUMP JUMPDEST PUSH1 0x3 SLOAD PUSH1 0x5 SLOAD PUSH1 0x40 MLOAD PUSH32 0x70A0823100000000000000000000000000000000000000000000000000000000 DUP2 MSTORE PUSH20 0xFFFFFFFFFFFFFFFFFFFFFFFFFFFFFFFFFFFFFFFF SWAP2 DUP3 AND PUSH1 0x4 DUP3 ADD MSTORE PUSH1 0x0 SWAP3 DUP4 SWAP3 AND SWAP1 PUSH4 0x70A08231 SWAP1 PUSH1 0x24 ADD PUSH1 0x20 PUSH1 0x40 MLOAD DUP1 DUP4 SUB DUP2 DUP7 GAS STATICCALL ISZERO DUP1 ISZERO PUSH2 0x849 JUMPI RETURNDATASIZE PUSH1 0x0 DUP1 RETURNDATACOPY RETURNDATASIZE PUSH1 0x0 REVERT JUMPDEST POP POP POP POP PUSH1 0x40 MLOAD RETURNDATASIZE PUSH1 0x1F NOT PUSH1 0x1F DUP3 ADD AND DUP3 ADD DUP1 PUSH1 0x40 MSTORE POP DUP2 ADD SWAP1 PUSH2 0x86D SWAP2 SWAP1 PUSH2 0x4AEE JUMP JUMPDEST SWAP1 POP PUSH1 0x0 PUSH1 0x5 PUSH1 0x0 SWAP1 SLOAD SWAP1 PUSH2 0x100 EXP SWAP1 DIV PUSH20 0xFFFFFFFFFFFFFFFFFFFFFFFFFFFFFFFFFFFFFFFF AND PUSH20 0xFFFFFFFFFFFFFFFFFFFFFFFFFFFFFFFFFFFFFFFF AND PUSH4 0x18160DDD PUSH1 0x40 MLOAD DUP2 PUSH4 0xFFFFFFFF AND PUSH1 0xE0 SHL DUP2 MSTORE PUSH1 0x4 ADD PUSH1 0x20 PUSH1 0x40 MLOAD DUP1 DUP4 SUB DUP2 DUP7 GAS STATICCALL ISZERO DUP1 ISZERO PUSH2 0x8DE JUMPI RETURNDATASIZE PUSH1 0x0 DUP1 RETURNDATACOPY RETURNDATASIZE PUSH1 0x0 REVERT JUMPDEST POP POP POP POP PUSH1 0x40 MLOAD RETURNDATASIZE PUSH1 0x1F NOT PUSH1 0x1F DUP3 ADD AND DUP3 ADD DUP1 PUSH1 0x40 MSTORE POP DUP2 ADD SWAP1 PUSH2 0x902 SWAP2 SWAP1 PUSH2 0x4AEE JUMP JUMPDEST SWAP1 POP DUP1 PUSH2 0x90F DUP6 DUP5 PUSH2 0x4B36 JUMP JUMPDEST PUSH2 0x919 SWAP2 SWAP1 PUSH2 0x4B7C JUMP JUMPDEST SWAP5 SWAP4 POP POP POP POP JUMP JUMPDEST PUSH1 0x0 SLOAD PUSH20 0xFFFFFFFFFFFFFFFFFFFFFFFFFFFFFFFFFFFFFFFF AND CALLER EQ PUSH2 0x9A2 JUMPI PUSH1 0x40 MLOAD PUSH32 0x8C379A000000000000000000000000000000000000000000000000000000000 DUP2 MSTORE PUSH1 0x20 PUSH1 0x4 DUP3 ADD DUP2 SWAP1 MSTORE PUSH1 0x24 DUP3 ADD MSTORE PUSH32 0x4D656D626572736869703A496E76616C69642061646D696E2061646472657373 PUSH1 0x44 DUP3 ADD MSTORE PUSH1 0x64 ADD PUSH2 0x7C5 JUMP JUMPDEST PUSH1 0x0 DUP1 SLOAD PUSH32 0xFFFFFFFFFFFFFFFFFFFFFFFF0000000000000000000000000000000000000000 AND PUSH20 0xFFFFFFFFFFFFFFFFFFFFFFFFFFFFFFFFFFFFFFFF SWAP3 SWAP1 SWAP3 AND SWAP2 SWAP1 SWAP2 OR SWAP1 SSTORE JUMP JUMPDEST PUSH1 0x1C SLOAD PUSH1 0xFF AND ISZERO PUSH2 0xA56 JUMPI PUSH1 0x40 MLOAD PUSH32 0x8C379A000000000000000000000000000000000000000000000000000000000 DUP2 MSTORE PUSH1 0x20 PUSH1 0x4 DUP3 ADD MSTORE PUSH1 0x17 PUSH1 0x24 DUP3 ADD MSTORE PUSH32 0x5265656E7472616E742063616C6C206465746563746564000000000000000000 PUSH1 0x44 DUP3 ADD MSTORE PUSH1 0x64 ADD PUSH2 0x7C5 JUMP JUMPDEST PUSH1 0x1C DUP1 SLOAD PUSH32 0xFFFFFFFFFFFFFFFFFFFFFFFFFFFFFFFFFFFFFFFFFFFFFFFFFFFFFFFFFFFFFF00 AND PUSH1 0x1 OR SWAP1 SSTORE PUSH20 0xFFFFFFFFFFFFFFFFFFFFFFFFFFFFFFFFFFFFFFFF DUP1 DUP4 AND PUSH1 0x0 DUP2 DUP2 MSTORE PUSH1 0x2 PUSH1 0x20 MSTORE PUSH1 0x40 SWAP1 KECCAK256 PUSH1 0x6 SLOAD SWAP1 SWAP3 AND EQ PUSH2 0xB56 JUMPI DUP1 SLOAD PUSH20 0xFFFFFFFFFFFFFFFFFFFFFFFFFFFFFFFFFFFFFFFF AND PUSH2 0xB56 JUMPI PUSH1 0x40 MLOAD PUSH32 0x8C379A000000000000000000000000000000000000000000000000000000000 DUP2 MSTORE PUSH1 0x20 PUSH1 0x4 DUP3 ADD MSTORE PUSH1 0x23 PUSH1 0x24 DUP3 ADD MSTORE PUSH32 0x4D656D626572736869703A20496E76616C696420696E76697465722061646472 PUSH1 0x44 DUP3 ADD MSTORE PUSH32 0x6573730000000000000000000000000000000000000000000000000000000000 PUSH1 0x64 DUP3 ADD MSTORE PUSH1 0x84 ADD PUSH2 0x7C5 JUMP JUMPDEST PUSH2 0xB5F DUP3 PUSH2 0x1F87 JUMP JUMPDEST PUSH2 0xBEB JUMPI PUSH1 0x40 MLOAD PUSH32 0x8C379A000000000000000000000000000000000000000000000000000000000 DUP2 MSTORE PUSH1 0x20 PUSH1 0x4 DUP3 ADD MSTORE PUSH1 0x22 PUSH1 0x24 DUP3 ADD MSTORE PUSH32 0x4D656D626572736869703A20496E76616C69642070726F7669646520616D6F75 PUSH1 0x44 DUP3 ADD MSTORE PUSH32 0x6E74000000000000000000000000000000000000000000000000000000000000 PUSH1 0x64 DUP3 ADD MSTORE PUSH1 0x84 ADD PUSH2 0x7C5 JUMP JUMPDEST PUSH1 0x0 PUSH2 0xBF5 PUSH2 0x140B JUMP JUMPDEST GT ISZERO PUSH2 0xCA1 JUMPI DUP2 DUP2 PUSH1 0x2 ADD SLOAD PUSH2 0xC09 PUSH2 0x140B JUMP JUMPDEST PUSH2 0xC13 SWAP2 SWAP1 PUSH2 0x4B90 JUMP JUMPDEST LT ISZERO PUSH2 0xCA1 JUMPI PUSH1 0x40 MLOAD PUSH32 0x8C379A000000000000000000000000000000000000000000000000000000000 DUP2 MSTORE PUSH1 0x20 PUSH1 0x4 DUP3 ADD MSTORE PUSH1 0x28 PUSH1 0x24 DUP3 ADD MSTORE PUSH32 0x4D656D626572736869703A4E6F206F7665722D70617274696369706174696F6E PUSH1 0x44 DUP3 ADD MSTORE PUSH32 0x20616C6C6F776564000000000000000000000000000000000000000000000000 PUSH1 0x64 DUP3 ADD MSTORE PUSH1 0x84 ADD PUSH2 0x7C5 JUMP JUMPDEST PUSH1 0x3 SLOAD PUSH2 0xCC6 SWAP1 PUSH20 0xFFFFFFFFFFFFFFFFFFFFFFFFFFFFFFFFFFFFFFFF AND DUP5 ADDRESS DUP6 PUSH2 0x2625 JUMP JUMPDEST PUSH1 0x3 SLOAD PUSH1 0x40 MLOAD PUSH32 0x70A0823100000000000000000000000000000000000000000000000000000000 DUP2 MSTORE ADDRESS PUSH1 0x4 DUP3 ADD MSTORE DUP4 SWAP2 PUSH20 0xFFFFFFFFFFFFFFFFFFFFFFFFFFFFFFFFFFFFFFFF AND SWAP1 PUSH4 0x70A08231 SWAP1 PUSH1 0x24 ADD PUSH1 0x20 PUSH1 0x40 MLOAD DUP1 DUP4 SUB DUP2 DUP7 GAS STATICCALL ISZERO DUP1 ISZERO PUSH2 0xD34 JUMPI RETURNDATASIZE PUSH1 0x0 DUP1 RETURNDATACOPY RETURNDATASIZE PUSH1 0x0 REVERT JUMPDEST POP POP POP POP PUSH1 0x40 MLOAD RETURNDATASIZE PUSH1 0x1F NOT PUSH1 0x1F DUP3 ADD AND DUP3 ADD DUP1 PUSH1 0x40 MSTORE POP DUP2 ADD SWAP1 PUSH2 0xD58 SWAP2 SWAP1 PUSH2 0x4AEE JUMP JUMPDEST LT ISZERO PUSH2 0xDE6 JUMPI PUSH1 0x40 MLOAD PUSH32 0x8C379A000000000000000000000000000000000000000000000000000000000 DUP2 MSTORE PUSH1 0x20 PUSH1 0x4 DUP3 ADD MSTORE PUSH1 0x26 PUSH1 0x24 DUP3 ADD MSTORE PUSH32 0x4D656D626572736869703A20496E73756666696369656E7420746F6B656E2062 PUSH1 0x44 DUP3 ADD MSTORE PUSH32 0x616C616E63650000000000000000000000000000000000000000000000000000 PUSH1 0x64 DUP3 ADD MSTORE PUSH1 0x84 ADD PUSH2 0x7C5 JUMP JUMPDEST DUP2 DUP2 PUSH1 0x2 ADD PUSH1 0x0 DUP3 DUP3 SLOAD PUSH2 0xDFA SWAP2 SWAP1 PUSH2 0x4BA3 JUMP JUMPDEST SWAP1 SWAP2 SSTORE POP PUSH1 0x0 SWAP1 POP PUSH2 0xE0A PUSH2 0x27BB JUMP JUMPDEST SWAP1 POP PUSH1 0x64 PUSH2 0xE19 DUP3 PUSH1 0x28 PUSH2 0x4B36 JUMP JUMPDEST PUSH2 0xE23 SWAP2 SWAP1 PUSH2 0x4B7C JUMP JUMPDEST DUP3 PUSH1 0x3 ADD PUSH1 0x0 DUP3 DUP3 SLOAD PUSH2 0xE36 SWAP2 SWAP1 PUSH2 0x4BA3 JUMP JUMPDEST SWAP1 SWAP2 SSTORE POP POP PUSH1 0x5 SLOAD PUSH2 0xE75 SWAP1 PUSH20 0xFFFFFFFFFFFFFFFFFFFFFFFFFFFFFFFFFFFFFFFF AND DUP6 PUSH1 0x64 PUSH2 0xE66 DUP6 PUSH1 0x28 PUSH2 0x4B36 JUMP JUMPDEST PUSH2 0xE70 SWAP2 SWAP1 PUSH2 0x4B7C JUMP JUMPDEST PUSH2 0x29E0 JUMP JUMPDEST DUP3 PUSH1 0x17 PUSH1 0x0 DUP3 DUP3 SLOAD PUSH2 0xE87 SWAP2 SWAP1 PUSH2 0x4BA3 JUMP JUMPDEST SWAP1 SWAP2 SSTORE POP PUSH1 0x0 SWAP1 POP PUSH2 0xE9A DUP6 DUP6 DUP5 PUSH2 0x2B50 JUMP JUMPDEST SWAP1 POP PUSH1 0x0 DUP1 PUSH2 0xEAA DUP8 DUP8 DUP7 PUSH2 0x2CFF JUMP JUMPDEST SWAP1 SWAP3 POP SWAP1 POP PUSH1 0x0 PUSH1 0x64 PUSH2 0xEBE DUP7 PUSH1 0x14 PUSH2 0x4B36 JUMP JUMPDEST PUSH2 0xEC8 SWAP2 SWAP1 PUSH2 0x4B7C JUMP JUMPDEST SWAP1 POP PUSH1 0x0 PUSH2 0x3E8 PUSH2 0xEDA DUP8 PUSH1 0x2 PUSH2 0x4B36 JUMP JUMPDEST PUSH2 0xEE4 SWAP2 SWAP1 PUSH2 0x4B7C JUMP JUMPDEST SWAP1 POP PUSH1 0x0 DUP4 DUP7 PUSH2 0xEF4 DUP8 DUP6 PUSH2 0x4B36 JUMP JUMPDEST PUSH2 0xEFE SWAP1 DUP7 PUSH2 0x4B90 JUMP JUMPDEST PUSH2 0xF08 SWAP2 SWAP1 PUSH2 0x4BA3 JUMP JUMPDEST PUSH2 0xF12 SWAP2 SWAP1 PUSH2 0x4BA3 JUMP JUMPDEST SWAP1 POP DUP1 PUSH1 0x18 PUSH1 0x0 DUP3 DUP3 SLOAD PUSH2 0xF26 SWAP2 SWAP1 PUSH2 0x4BA3 JUMP JUMPDEST SWAP1 SWAP2 SSTORE POP PUSH2 0xF35 SWAP1 POP DUP11 PUSH2 0x2FE5 JUMP JUMPDEST PUSH2 0xF3E DUP2 PUSH2 0x32AD JUMP JUMPDEST POP POP PUSH1 0x1C DUP1 SLOAD PUSH32 0xFFFFFFFFFFFFFFFFFFFFFFFFFFFFFFFFFFFFFFFFFFFFFFFFFFFFFFFFFFFFFF00 AND SWAP1 SSTORE POP POP POP POP POP POP POP POP JUMP JUMPDEST PUSH1 0x1A SLOAD PUSH20 0xFFFFFFFFFFFFFFFFFFFFFFFFFFFFFFFFFFFFFFFF AND CALLER EQ PUSH2 0x1019 JUMPI PUSH1 0x40 MLOAD PUSH32 0x8C379A000000000000000000000000000000000000000000000000000000000 DUP2 MSTORE PUSH1 0x20 PUSH1 0x4 DUP3 ADD MSTORE PUSH1 0x23 PUSH1 0x24 DUP3 ADD MSTORE PUSH32 0x4D656D626572736869703A496E76616C6964206F70657261746F722061646472 PUSH1 0x44 DUP3 ADD MSTORE PUSH32 0x6573730000000000000000000000000000000000000000000000000000000000 PUSH1 0x64 DUP3 ADD MSTORE PUSH1 0x84 ADD PUSH2 0x7C5 JUMP JUMPDEST DUP1 PUSH1 0x1B PUSH1 0x0 DUP5 PUSH1 0x4 DUP2 GT ISZERO PUSH2 0x1030 JUMPI PUSH2 0x1030 PUSH2 0x46BA JUMP JUMPDEST PUSH1 0x4 DUP2 GT ISZERO PUSH2 0x1041 JUMPI PUSH2 0x1041 PUSH2 0x46BA JUMP JUMPDEST DUP2 MSTORE PUSH1 0x20 DUP2 ADD SWAP2 SWAP1 SWAP2 MSTORE PUSH1 0x40 ADD PUSH1 0x0 KECCAK256 SSTORE POP POP JUMP JUMPDEST PUSH20 0xFFFFFFFFFFFFFFFFFFFFFFFFFFFFFFFFFFFFFFFF DUP2 AND PUSH1 0x0 DUP2 DUP2 MSTORE PUSH1 0x2 PUSH1 0x20 DUP2 DUP2 MSTORE PUSH1 0x40 DUP1 DUP5 KECCAK256 PUSH1 0x12 SLOAD DUP6 MSTORE PUSH1 0x4 DUP2 ADD DUP4 MSTORE DUP2 DUP6 KECCAK256 SLOAD PUSH1 0xF SLOAD DUP7 MSTORE PUSH1 0x5 DUP3 ADD DUP5 MSTORE DUP3 DUP7 KECCAK256 SLOAD PUSH1 0x15 SLOAD DUP8 MSTORE PUSH1 0x6 DUP4 ADD DUP6 MSTORE DUP4 DUP8 KECCAK256 SLOAD SWAP8 SWAP1 SWAP7 MSTORE SWAP4 DUP4 MSTORE PUSH1 0x7 ADD DUP1 SLOAD DUP3 MLOAD DUP2 DUP6 MUL DUP2 ADD DUP6 ADD SWAP1 SWAP4 MSTORE DUP1 DUP4 MSTORE SWAP4 SWAP6 SWAP4 PUSH1 0x60 SWAP4 DUP5 SWAP4 SWAP3 SWAP2 SWAP1 DUP4 ADD DUP3 DUP3 DUP1 ISZERO PUSH2 0x1117 JUMPI PUSH1 0x20 MUL DUP3 ADD SWAP2 SWAP1 PUSH1 0x0 MSTORE PUSH1 0x20 PUSH1 0x0 KECCAK256 SWAP1 JUMPDEST DUP2 SLOAD PUSH20 0xFFFFFFFFFFFFFFFFFFFFFFFFFFFFFFFFFFFFFFFF AND DUP2 MSTORE PUSH1 0x1 SWAP1 SWAP2 ADD SWAP1 PUSH1 0x20 ADD DUP1 DUP4 GT PUSH2 0x10EC JUMPI JUMPDEST POP POP POP POP POP SWAP2 POP PUSH1 0x2 PUSH1 0x0 DUP8 PUSH20 0xFFFFFFFFFFFFFFFFFFFFFFFFFFFFFFFFFFFFFFFF AND PUSH20 0xFFFFFFFFFFFFFFFFFFFFFFFFFFFFFFFFFFFFFFFF AND DUP2 MSTORE PUSH1 0x20 ADD SWAP1 DUP2 MSTORE PUSH1 0x20 ADD PUSH1 0x0 KECCAK256 PUSH1 0x8 ADD DUP1 SLOAD DUP1 PUSH1 0x20 MUL PUSH1 0x20 ADD PUSH1 0x40 MLOAD SWAP1 DUP2 ADD PUSH1 0x40 MSTORE DUP1 SWAP3 SWAP2 SWAP1 DUP2 DUP2 MSTORE PUSH1 0x20 ADD DUP3 DUP1 SLOAD DUP1 ISZERO PUSH2 0x11C1 JUMPI PUSH1 0x20 MUL DUP3 ADD SWAP2 SWAP1 PUSH1 0x0 MSTORE PUSH1 0x20 PUSH1 0x0 KECCAK256 SWAP1 JUMPDEST DUP2 SLOAD PUSH20 0xFFFFFFFFFFFFFFFFFFFFFFFFFFFFFFFFFFFFFFFF AND DUP2 MSTORE PUSH1 0x1 SWAP1 SWAP2 ADD SWAP1 PUSH1 0x20 ADD DUP1 DUP4 GT PUSH2 0x1196 JUMPI JUMPDEST POP POP POP POP POP SWAP1 POP SWAP2 SWAP4 SWAP6 SWAP1 SWAP3 SWAP5 POP JUMP JUMPDEST PUSH1 0x6 SLOAD PUSH20 0xFFFFFFFFFFFFFFFFFFFFFFFFFFFFFFFFFFFFFFFF DUP4 DUP2 AND SWAP2 AND EQ PUSH2 0x12A7 JUMPI PUSH20 0xFFFFFFFFFFFFFFFFFFFFFFFFFFFFFFFFFFFFFFFF DUP3 DUP2 AND PUSH1 0x0 SWAP1 DUP2 MSTORE PUSH1 0x2 PUSH1 0x20 MSTORE PUSH1 0x40 SWAP1 KECCAK256 SLOAD AND PUSH2 0x12A7 JUMPI PUSH1 0x40 MLOAD PUSH32 0x8C379A000000000000000000000000000000000000000000000000000000000 DUP2 MSTORE PUSH1 0x20 PUSH1 0x4 DUP3 ADD MSTORE PUSH1 0x23 PUSH1 0x24 DUP3 ADD MSTORE PUSH32 0x4D656D626572536869703A20496E76616C696420696E76697465722061646472 PUSH1 0x44 DUP3 ADD MSTORE PUSH32 0x6573730000000000000000000000000000000000000000000000000000000000 PUSH1 0x64 DUP3 ADD MSTORE PUSH1 0x84 ADD PUSH2 0x7C5 JUMP JUMPDEST PUSH20 0xFFFFFFFFFFFFFFFFFFFFFFFFFFFFFFFFFFFFFFFF DUP2 DUP2 AND PUSH1 0x0 SWAP1 DUP2 MSTORE PUSH1 0x2 PUSH1 0x20 MSTORE PUSH1 0x40 SWAP1 KECCAK256 SLOAD AND ISZERO PUSH2 0x135C JUMPI PUSH1 0x40 MLOAD PUSH32 0x8C379A000000000000000000000000000000000000000000000000000000000 DUP2 MSTORE PUSH1 0x20 PUSH1 0x4 DUP3 ADD MSTORE PUSH1 0x22 PUSH1 0x24 DUP3 ADD MSTORE PUSH32 0x4D656D626572536869703A20496E76616C6964206D656D626572206164647265 PUSH1 0x44 DUP3 ADD MSTORE PUSH32 0x7373000000000000000000000000000000000000000000000000000000000000 PUSH1 0x64 DUP3 ADD MSTORE PUSH1 0x84 ADD PUSH2 0x7C5 JUMP JUMPDEST PUSH20 0xFFFFFFFFFFFFFFFFFFFFFFFFFFFFFFFFFFFFFFFF DUP1 DUP3 AND PUSH1 0x0 DUP2 DUP2 MSTORE PUSH1 0x2 PUSH1 0x20 SWAP1 DUP2 MSTORE PUSH1 0x40 DUP1 DUP4 KECCAK256 PUSH1 0x1 SWAP1 DUP2 ADD DUP1 SLOAD SWAP7 DUP10 AND PUSH32 0xFFFFFFFFFFFFFFFFFFFFFFFF0000000000000000000000000000000000000000 SWAP8 DUP9 AND DUP2 OR SWAP1 SWAP2 SSTORE DUP5 MSTORE SWAP1 DUP4 KECCAK256 PUSH1 0x7 ADD DUP1 SLOAD DUP1 DUP4 ADD DUP3 SSTORE SWAP1 DUP5 MSTORE SWAP2 DUP4 KECCAK256 SWAP1 SWAP2 ADD DUP1 SLOAD SWAP1 SWAP5 AND SWAP1 SWAP3 OR SWAP1 SWAP3 SSTORE PUSH1 0x16 DUP1 SLOAD SWAP2 SWAP3 SWAP1 SWAP2 PUSH2 0x13EE SWAP1 DUP5 SWAP1 PUSH2 0x4BA3 JUMP JUMPDEST SWAP1 SWAP2 SSTORE POP PUSH2 0x13FD SWAP1 POP DUP3 PUSH2 0x346C JUMP JUMPDEST PUSH2 0x1407 DUP3 DUP3 PUSH2 0x3671 JUMP JUMPDEST POP POP JUMP JUMPDEST PUSH1 0x0 DUP1 PUSH2 0x3E8 PUSH1 0x16 SLOAD PUSH2 0x141E SWAP2 SWAP1 PUSH2 0x4B7C JUMP JUMPDEST SWAP1 POP PUSH1 0x2 DUP2 GT ISZERO PUSH2 0x1430 JUMPI PUSH1 0x0 PUSH2 0x144E JUMP JUMPDEST PUSH2 0x143B DUP2 PUSH1 0x1 PUSH2 0x4BA3 JUMP JUMPDEST PUSH2 0x144E SWAP1 PUSH9 0x56BC75E2D63100000 PUSH2 0x4B36 JUMP JUMPDEST SWAP2 POP POP SWAP1 JUMP JUMPDEST PUSH1 0x0 DUP1 DUP4 PUSH1 0x4 DUP2 GT ISZERO PUSH2 0x1469 JUMPI PUSH2 0x1469 PUSH2 0x46BA JUMP JUMPDEST SUB PUSH2 0x14AA JUMPI POP PUSH20 0xFFFFFFFFFFFFFFFFFFFFFFFFFFFFFFFFFFFFFFFF DUP2 AND PUSH1 0x0 SWAP1 DUP2 MSTORE PUSH1 0x2 PUSH1 0x20 SWAP1 DUP2 MSTORE PUSH1 0x40 DUP1 DUP4 KECCAK256 PUSH1 0x12 SLOAD DUP5 MSTORE PUSH1 0x4 ADD SWAP1 SWAP2 MSTORE SWAP1 KECCAK256 SLOAD PUSH2 0x1558 JUMP JUMPDEST PUSH1 0x1 DUP4 PUSH1 0x4 DUP2 GT ISZERO PUSH2 0x14BE JUMPI PUSH2 0x14BE PUSH2 0x46BA JUMP JUMPDEST SUB PUSH2 0x14FF JUMPI POP PUSH20 0xFFFFFFFFFFFFFFFFFFFFFFFFFFFFFFFFFFFFFFFF DUP2 AND PUSH1 0x0 SWAP1 DUP2 MSTORE PUSH1 0x2 PUSH1 0x20 SWAP1 DUP2 MSTORE PUSH1 0x40 DUP1 DUP4 KECCAK256 PUSH1 0x15 SLOAD DUP5 MSTORE PUSH1 0x6 ADD SWAP1 SWAP2 MSTORE SWAP1 KECCAK256 SLOAD PUSH2 0x1558 JUMP JUMPDEST PUSH1 0x2 DUP4 PUSH1 0x4 DUP2 GT ISZERO PUSH2 0x1513 JUMPI PUSH2 0x1513 PUSH2 0x46BA JUMP JUMPDEST SUB PUSH2 0x1554 JUMPI POP PUSH20 0xFFFFFFFFFFFFFFFFFFFFFFFFFFFFFFFFFFFFFFFF DUP2 AND PUSH1 0x0 SWAP1 DUP2 MSTORE PUSH1 0x2 PUSH1 0x20 SWAP1 DUP2 MSTORE PUSH1 0x40 DUP1 DUP4 KECCAK256 PUSH1 0xF SLOAD DUP5 MSTORE PUSH1 0x5 ADD SWAP1 SWAP2 MSTORE SWAP1 KECCAK256 SLOAD PUSH2 0x1558 JUMP JUMPDEST POP PUSH1 0x0 JUMPDEST SWAP3 SWAP2 POP POP JUMP JUMPDEST PUSH1 0x40 DUP1 MLOAD PUSH1 0x5 DUP1 DUP3 MSTORE PUSH1 0xC0 DUP3 ADD SWAP1 SWAP3 MSTORE PUSH1 0x60 SWAP2 PUSH1 0x0 SWAP2 SWAP1 DUP2 PUSH1 0x20 ADD JUMPDEST PUSH1 0x40 DUP1 MLOAD DUP1 DUP3 ADD SWAP1 SWAP2 MSTORE PUSH1 0x0 DUP1 DUP3 MSTORE PUSH1 0x20 DUP3 ADD MSTORE DUP2 MSTORE PUSH1 0x20 ADD SWAP1 PUSH1 0x1 SWAP1 SUB SWAP1 DUP2 PUSH2 0x157A JUMPI SWAP1 POP POP PUSH1 0x18 SLOAD PUSH1 0x5 SLOAD PUSH1 0x40 MLOAD PUSH32 0x70A0823100000000000000000000000000000000000000000000000000000000 DUP2 MSTORE ADDRESS PUSH1 0x4 DUP3 ADD MSTORE SWAP3 SWAP4 POP PUSH1 0x0 SWAP3 PUSH20 0xFFFFFFFFFFFFFFFFFFFFFFFFFFFFFFFFFFFFFFFF SWAP1 SWAP2 AND SWAP1 PUSH4 0x70A08231 SWAP1 PUSH1 0x24 ADD PUSH1 0x20 PUSH1 0x40 MLOAD DUP1 DUP4 SUB DUP2 DUP7 GAS STATICCALL ISZERO DUP1 ISZERO PUSH2 0x1618 JUMPI RETURNDATASIZE PUSH1 0x0 DUP1 RETURNDATACOPY RETURNDATASIZE PUSH1 0x0 REVERT JUMPDEST POP POP POP POP PUSH1 0x40 MLOAD RETURNDATASIZE PUSH1 0x1F NOT PUSH1 0x1F DUP3 ADD AND DUP3 ADD DUP1 PUSH1 0x40 MSTORE POP DUP2 ADD SWAP1 PUSH2 0x163C SWAP2 SWAP1 PUSH2 0x4AEE JUMP JUMPDEST LT PUSH2 0x16E3 JUMPI PUSH1 0x18 SLOAD PUSH1 0x5 SLOAD PUSH1 0x40 MLOAD PUSH32 0x70A0823100000000000000000000000000000000000000000000000000000000 DUP2 MSTORE ADDRESS PUSH1 0x4 DUP3 ADD MSTORE PUSH20 0xFFFFFFFFFFFFFFFFFFFFFFFFFFFFFFFFFFFFFFFF SWAP1 SWAP2 AND SWAP1 PUSH4 0x70A08231 SWAP1 PUSH1 0x24 ADD PUSH1 0x20 PUSH1 0x40 MLOAD DUP1 DUP4 SUB DUP2 DUP7 GAS STATICCALL ISZERO DUP1 ISZERO PUSH2 0x16B2 JUMPI RETURNDATASIZE PUSH1 0x0 DUP1 RETURNDATACOPY RETURNDATASIZE PUSH1 0x0 REVERT JUMPDEST POP POP POP POP PUSH1 0x40 MLOAD RETURNDATASIZE PUSH1 0x1F NOT PUSH1 0x1F DUP3 ADD AND DUP3 ADD DUP1 PUSH1 0x40 MSTORE POP DUP2 ADD SWAP1 PUSH2 0x16D6 SWAP2 SWAP1 PUSH2 0x4AEE JUMP JUMPDEST PUSH2 0x16E0 SWAP2 SWAP1 PUSH2 0x4B90 JUMP JUMPDEST SWAP1 POP JUMPDEST PUSH1 0x40 DUP1 MLOAD DUP1 DUP3 ADD SWAP1 SWAP2 MSTORE PUSH1 0x0 DUP1 DUP3 MSTORE DUP1 MSTORE PUSH1 0x1B PUSH1 0x20 SWAP1 DUP2 MSTORE PUSH32 0x584F46C60AF19681376031579ADB04A2416E54EE5505351C2A8435E3766026EA SLOAD SWAP1 DUP3 ADD SWAP1 PUSH1 0x64 SWAP1 PUSH2 0x172E SWAP1 DUP6 PUSH2 0x4B36 JUMP JUMPDEST PUSH2 0x1738 SWAP2 SWAP1 PUSH2 0x4B7C JUMP JUMPDEST PUSH1 0x1D SLOAD PUSH2 0x1745 SWAP2 SWAP1 PUSH2 0x4BA3 JUMP JUMPDEST DUP2 MSTORE POP DUP3 PUSH1 0x0 DUP2 MLOAD DUP2 LT PUSH2 0x175B JUMPI PUSH2 0x175B PUSH2 0x4BB6 JUMP JUMPDEST PUSH1 0x20 SWAP1 DUP2 MUL SWAP2 SWAP1 SWAP2 ADD ADD MSTORE PUSH1 0x40 DUP1 MLOAD DUP1 DUP3 ADD SWAP1 SWAP2 MSTORE DUP1 PUSH1 0x1 DUP2 MSTORE PUSH1 0x20 ADD PUSH1 0x64 PUSH1 0x1B PUSH1 0x0 PUSH1 0x1 PUSH1 0x4 DUP2 GT ISZERO PUSH2 0x1791 JUMPI PUSH2 0x1791 PUSH2 0x46BA JUMP JUMPDEST DUP2 MSTORE PUSH1 0x20 ADD SWAP1 DUP2 MSTORE PUSH1 0x20 ADD PUSH1 0x0 KECCAK256 SLOAD DUP5 PUSH2 0x17AB SWAP2 SWAP1 PUSH2 0x4B36 JUMP JUMPDEST PUSH2 0x17B5 SWAP2 SWAP1 PUSH2 0x4B7C JUMP JUMPDEST PUSH1 0x1E SLOAD PUSH2 0x17C2 SWAP2 SWAP1 PUSH2 0x4BA3 JUMP JUMPDEST DUP2 MSTORE POP DUP3 PUSH1 0x1 DUP2 MLOAD DUP2 LT PUSH2 0x17D8 JUMPI PUSH2 0x17D8 PUSH2 0x4BB6 JUMP JUMPDEST PUSH1 0x20 SWAP1 DUP2 MUL SWAP2 SWAP1 SWAP2 ADD ADD MSTORE PUSH1 0x40 DUP1 MLOAD DUP1 DUP3 ADD SWAP1 SWAP2 MSTORE DUP1 PUSH1 0x2 DUP2 MSTORE PUSH1 0x20 ADD PUSH1 0x64 PUSH1 0x1B PUSH1 0x0 PUSH1 0x2 PUSH1 0x4 DUP2 GT ISZERO PUSH2 0x180E JUMPI PUSH2 0x180E PUSH2 0x46BA JUMP JUMPDEST DUP2 MSTORE PUSH1 0x20 ADD SWAP1 DUP2 MSTORE PUSH1 0x20 ADD PUSH1 0x0 KECCAK256 SLOAD DUP5 PUSH2 0x1828 SWAP2 SWAP1 PUSH2 0x4B36 JUMP JUMPDEST PUSH2 0x1832 SWAP2 SWAP1 PUSH2 0x4B7C JUMP JUMPDEST PUSH1 0x1F SLOAD PUSH2 0x183F SWAP2 SWAP1 PUSH2 0x4BA3 JUMP JUMPDEST DUP2 MSTORE POP DUP3 PUSH1 0x2 DUP2 MLOAD DUP2 LT PUSH2 0x1855 JUMPI PUSH2 0x1855 PUSH2 0x4BB6 JUMP JUMPDEST PUSH1 0x20 SWAP1 DUP2 MUL SWAP2 SWAP1 SWAP2 ADD ADD MSTORE PUSH1 0x40 DUP1 MLOAD DUP1 DUP3 ADD SWAP1 SWAP2 MSTORE DUP1 PUSH1 0x3 DUP2 MSTORE PUSH1 0x20 ADD PUSH1 0x64 PUSH1 0x1B PUSH1 0x0 PUSH1 0x3 PUSH1 0x4 DUP2 GT ISZERO PUSH2 0x188B JUMPI PUSH2 0x188B PUSH2 0x46BA JUMP JUMPDEST DUP2 MSTORE PUSH1 0x20 ADD SWAP1 DUP2 MSTORE PUSH1 0x20 ADD PUSH1 0x0 KECCAK256 SLOAD DUP5 PUSH2 0x18A5 SWAP2 SWAP1 PUSH2 0x4B36 JUMP JUMPDEST PUSH2 0x18AF SWAP2 SWAP1 PUSH2 0x4B7C JUMP JUMPDEST PUSH1 0x20 SLOAD PUSH2 0x18BC SWAP2 SWAP1 PUSH2 0x4BA3 JUMP JUMPDEST DUP2 MSTORE POP DUP3 PUSH1 0x3 DUP2 MLOAD DUP2 LT PUSH2 0x18D2 JUMPI PUSH2 0x18D2 PUSH2 0x4BB6 JUMP JUMPDEST PUSH1 0x20 SWAP1 DUP2 MUL SWAP2 SWAP1 SWAP2 ADD ADD MSTORE PUSH1 0x40 DUP1 MLOAD DUP1 DUP3 ADD SWAP1 SWAP2 MSTORE DUP1 PUSH1 0x4 DUP2 MSTORE PUSH1 0x20 ADD PUSH1 0x64 PUSH1 0x1B PUSH1 0x0 PUSH1 0x4 DUP1 DUP2 GT ISZERO PUSH2 0x1907 JUMPI PUSH2 0x1907 PUSH2 0x46BA JUMP JUMPDEST DUP2 MSTORE PUSH1 0x20 ADD SWAP1 DUP2 MSTORE PUSH1 0x20 ADD PUSH1 0x0 KECCAK256 SLOAD DUP5 PUSH2 0x1921 SWAP2 SWAP1 PUSH2 0x4B36 JUMP JUMPDEST PUSH2 0x192B SWAP2 SWAP1 PUSH2 0x4B7C JUMP JUMPDEST PUSH1 0x21 SLOAD PUSH2 0x1938 SWAP2 SWAP1 PUSH2 0x4BA3 JUMP JUMPDEST DUP2 MSTORE POP DUP3 PUSH1 0x4 DUP2 MLOAD DUP2 LT PUSH2 0x194E JUMPI PUSH2 0x194E PUSH2 0x4BB6 JUMP JUMPDEST PUSH1 0x20 SWAP1 DUP2 MUL SWAP2 SWAP1 SWAP2 ADD ADD MSTORE POP SWAP2 SWAP1 POP JUMP JUMPDEST PUSH1 0x0 SLOAD PUSH20 0xFFFFFFFFFFFFFFFFFFFFFFFFFFFFFFFFFFFFFFFF AND CALLER EQ PUSH2 0x19E0 JUMPI PUSH1 0x40 MLOAD PUSH32 0x8C379A000000000000000000000000000000000000000000000000000000000 DUP2 MSTORE PUSH1 0x20 PUSH1 0x4 DUP3 ADD DUP2 SWAP1 MSTORE PUSH1 0x24 DUP3 ADD MSTORE PUSH32 0x4D656D626572736869703A496E76616C69642061646D696E2061646472657373 PUSH1 0x44 DUP3 ADD MSTORE PUSH1 0x64 ADD PUSH2 0x7C5 JUMP JUMPDEST PUSH1 0x1A DUP1 SLOAD PUSH32 0xFFFFFFFFFFFFFFFFFFFFFFFF0000000000000000000000000000000000000000 AND PUSH20 0xFFFFFFFFFFFFFFFFFFFFFFFFFFFFFFFFFFFFFFFF SWAP3 SWAP1 SWAP3 AND SWAP2 SWAP1 SWAP2 OR SWAP1 SSTORE JUMP JUMPDEST PUSH1 0x1A SLOAD PUSH20 0xFFFFFFFFFFFFFFFFFFFFFFFFFFFFFFFFFFFFFFFF AND CALLER EQ PUSH2 0x1ACE JUMPI PUSH1 0x40 MLOAD PUSH32 0x8C379A000000000000000000000000000000000000000000000000000000000 DUP2 MSTORE PUSH1 0x20 PUSH1 0x4 DUP3 ADD MSTORE PUSH1 0x23 PUSH1 0x24 DUP3 ADD MSTORE PUSH32 0x4D656D626572736869703A496E76616C6964206F70657261746F722061646472 PUSH1 0x44 DUP3 ADD MSTORE PUSH32 0x6573730000000000000000000000000000000000000000000000000000000000 PUSH1 0x64 DUP3 ADD MSTORE PUSH1 0x84 ADD PUSH2 0x7C5 JUMP JUMPDEST PUSH2 0x1AD9 DUP4 DUP4 DUP4 PUSH2 0x29E0 JUMP JUMPDEST POP POP POP JUMP JUMPDEST PUSH20 0xFFFFFFFFFFFFFFFFFFFFFFFFFFFFFFFFFFFFFFFF DUP3 AND CALLER EQ PUSH2 0x1B5D JUMPI PUSH1 0x40 MLOAD PUSH32 0x8C379A000000000000000000000000000000000000000000000000000000000 DUP2 MSTORE PUSH1 0x20 PUSH1 0x4 DUP3 ADD MSTORE PUSH1 0x16 PUSH1 0x24 DUP3 ADD MSTORE PUSH32 0x4D656D626572736869703A4E6F74207065726D69742100000000000000000000 PUSH1 0x44 DUP3 ADD MSTORE PUSH1 0x64 ADD PUSH2 0x7C5 JUMP JUMPDEST PUSH1 0x5 SLOAD PUSH2 0x1B82 SWAP1 PUSH20 0xFFFFFFFFFFFFFFFFFFFFFFFFFFFFFFFFFFFFFFFF AND DUP4 ADDRESS DUP5 PUSH2 0x2625 JUMP JUMPDEST PUSH1 0x0 PUSH1 0x64 PUSH2 0x1B91 DUP4 PUSH1 0x61 PUSH2 0x4B36 JUMP JUMPDEST PUSH2 0x1B9B SWAP2 SWAP1 PUSH2 0x4B7C JUMP JUMPDEST SWAP1 POP PUSH1 0x64 PUSH2 0x1BAA DUP4 PUSH1 0x3 PUSH2 0x4B36 JUMP JUMPDEST PUSH2 0x1BB4 SWAP2 SWAP1 PUSH2 0x4B7C JUMP JUMPDEST PUSH1 0x18 PUSH1 0x0 DUP3 DUP3 SLOAD PUSH2 0x1BC5 SWAP2 SWAP1 PUSH2 0x4BA3 JUMP JUMPDEST SWAP1 SWAP2 SSTORE POP PUSH2 0x1BEA SWAP1 POP PUSH1 0x64 PUSH2 0x1BDB DUP5 PUSH1 0x3 PUSH2 0x4B36 JUMP JUMPDEST PUSH2 0x1BE5 SWAP2 SWAP1 PUSH2 0x4B7C JUMP JUMPDEST PUSH2 0x32AD JUMP JUMPDEST PUSH2 0x1BF4 DUP4 DUP4 PUSH2 0x37FE JUMP JUMPDEST PUSH2 0x1AD9 DUP4 DUP4 DUP4 PUSH2 0x3A98 JUMP JUMPDEST PUSH1 0x60 PUSH1 0x0 DUP3 MLOAD PUSH8 0xFFFFFFFFFFFFFFFF DUP2 GT ISZERO PUSH2 0x1C1D JUMPI PUSH2 0x1C1D PUSH2 0x476F JUMP JUMPDEST PUSH1 0x40 MLOAD SWAP1 DUP1 DUP3 MSTORE DUP1 PUSH1 0x20 MUL PUSH1 0x20 ADD DUP3 ADD PUSH1 0x40 MSTORE DUP1 ISZERO PUSH2 0x1C62 JUMPI DUP2 PUSH1 0x20 ADD JUMPDEST PUSH1 0x40 DUP1 MLOAD DUP1 DUP3 ADD SWAP1 SWAP2 MSTORE PUSH1 0x0 DUP1 DUP3 MSTORE PUSH1 0x20 DUP3 ADD MSTORE DUP2 MSTORE PUSH1 0x20 ADD SWAP1 PUSH1 0x1 SWAP1 SUB SWAP1 DUP2 PUSH2 0x1C3B JUMPI SWAP1 POP JUMPDEST POP SWAP1 POP PUSH1 0x0 DUP5 PUSH1 0x4 DUP2 GT ISZERO PUSH2 0x1C79 JUMPI PUSH2 0x1C79 PUSH2 0x46BA JUMP JUMPDEST SUB PUSH2 0x1D6E JUMPI PUSH1 0x0 JUMPDEST DUP2 MLOAD DUP2 LT ISZERO PUSH2 0x1D6C JUMPI PUSH1 0x40 MLOAD DUP1 PUSH1 0x40 ADD PUSH1 0x40 MSTORE DUP1 DUP6 DUP4 DUP2 MLOAD DUP2 LT PUSH2 0x1CA7 JUMPI PUSH2 0x1CA7 PUSH2 0x4BB6 JUMP JUMPDEST PUSH1 0x20 MUL PUSH1 0x20 ADD ADD MLOAD PUSH20 0xFFFFFFFFFFFFFFFFFFFFFFFFFFFFFFFFFFFFFFFF AND DUP2 MSTORE PUSH1 0x20 ADD PUSH1 0x2 PUSH1 0x0 DUP8 DUP6 DUP2 MLOAD DUP2 LT PUSH2 0x1CE0 JUMPI PUSH2 0x1CE0 PUSH2 0x4BB6 JUMP JUMPDEST PUSH1 0x20 MUL PUSH1 0x20 ADD ADD MLOAD PUSH20 0xFFFFFFFFFFFFFFFFFFFFFFFFFFFFFFFFFFFFFFFF AND PUSH20 0xFFFFFFFFFFFFFFFFFFFFFFFFFFFFFFFFFFFFFFFF AND DUP2 MSTORE PUSH1 0x20 ADD SWAP1 DUP2 MSTORE PUSH1 0x20 ADD PUSH1 0x0 KECCAK256 PUSH1 0x4 ADD PUSH1 0x0 PUSH1 0x12 SLOAD DUP2 MSTORE PUSH1 0x20 ADD SWAP1 DUP2 MSTORE PUSH1 0x20 ADD PUSH1 0x0 KECCAK256 SLOAD DUP2 MSTORE POP DUP3 DUP3 DUP2 MLOAD DUP2 LT PUSH2 0x1D4E JUMPI PUSH2 0x1D4E PUSH2 0x4BB6 JUMP JUMPDEST PUSH1 0x20 MUL PUSH1 0x20 ADD ADD DUP2 SWAP1 MSTORE POP DUP1 DUP1 PUSH2 0x1D64 SWAP1 PUSH2 0x4BE5 JUMP JUMPDEST SWAP2 POP POP PUSH2 0x1C81 JUMP JUMPDEST POP JUMPDEST PUSH1 0x2 DUP5 PUSH1 0x4 DUP2 GT ISZERO PUSH2 0x1D82 JUMPI PUSH2 0x1D82 PUSH2 0x46BA JUMP JUMPDEST SUB PUSH2 0x1E77 JUMPI PUSH1 0x0 JUMPDEST DUP2 MLOAD DUP2 LT ISZERO PUSH2 0x1E75 JUMPI PUSH1 0x40 MLOAD DUP1 PUSH1 0x40 ADD PUSH1 0x40 MSTORE DUP1 DUP6 DUP4 DUP2 MLOAD DUP2 LT PUSH2 0x1DB0 JUMPI PUSH2 0x1DB0 PUSH2 0x4BB6 JUMP JUMPDEST PUSH1 0x20 MUL PUSH1 0x20 ADD ADD MLOAD PUSH20 0xFFFFFFFFFFFFFFFFFFFFFFFFFFFFFFFFFFFFFFFF AND DUP2 MSTORE PUSH1 0x20 ADD PUSH1 0x2 PUSH1 0x0 DUP8 DUP6 DUP2 MLOAD DUP2 LT PUSH2 0x1DE9 JUMPI PUSH2 0x1DE9 PUSH2 0x4BB6 JUMP JUMPDEST PUSH1 0x20 MUL PUSH1 0x20 ADD ADD MLOAD PUSH20 0xFFFFFFFFFFFFFFFFFFFFFFFFFFFFFFFFFFFFFFFF AND PUSH20 0xFFFFFFFFFFFFFFFFFFFFFFFFFFFFFFFFFFFFFFFF AND DUP2 MSTORE PUSH1 0x20 ADD SWAP1 DUP2 MSTORE PUSH1 0x20 ADD PUSH1 0x0 KECCAK256 PUSH1 0x5 ADD PUSH1 0x0 PUSH1 0xF SLOAD DUP2 MSTORE PUSH1 0x20 ADD SWAP1 DUP2 MSTORE PUSH1 0x20 ADD PUSH1 0x0 KECCAK256 SLOAD DUP2 MSTORE POP DUP3 DUP3 DUP2 MLOAD DUP2 LT PUSH2 0x1E57 JUMPI PUSH2 0x1E57 PUSH2 0x4BB6 JUMP JUMPDEST PUSH1 0x20 MUL PUSH1 0x20 ADD ADD DUP2 SWAP1 MSTORE POP DUP1 DUP1 PUSH2 0x1E6D SWAP1 PUSH2 0x4BE5 JUMP JUMPDEST SWAP2 POP POP PUSH2 0x1D8A JUMP JUMPDEST POP JUMPDEST PUSH1 0x1 DUP5 PUSH1 0x4 DUP2 GT ISZERO PUSH2 0x1E8B JUMPI PUSH2 0x1E8B PUSH2 0x46BA JUMP JUMPDEST SUB PUSH2 0x1F80 JUMPI PUSH1 0x0 JUMPDEST DUP2 MLOAD DUP2 LT ISZERO PUSH2 0x1F7E JUMPI PUSH1 0x40 MLOAD DUP1 PUSH1 0x40 ADD PUSH1 0x40 MSTORE DUP1 DUP6 DUP4 DUP2 MLOAD DUP2 LT PUSH2 0x1EB9 JUMPI PUSH2 0x1EB9 PUSH2 0x4BB6 JUMP JUMPDEST PUSH1 0x20 MUL PUSH1 0x20 ADD ADD MLOAD PUSH20 0xFFFFFFFFFFFFFFFFFFFFFFFFFFFFFFFFFFFFFFFF AND DUP2 MSTORE PUSH1 0x20 ADD PUSH1 0x2 PUSH1 0x0 DUP8 DUP6 DUP2 MLOAD DUP2 LT PUSH2 0x1EF2 JUMPI PUSH2 0x1EF2 PUSH2 0x4BB6 JUMP JUMPDEST PUSH1 0x20 MUL PUSH1 0x20 ADD ADD MLOAD PUSH20 0xFFFFFFFFFFFFFFFFFFFFFFFFFFFFFFFFFFFFFFFF AND PUSH20 0xFFFFFFFFFFFFFFFFFFFFFFFFFFFFFFFFFFFFFFFF AND DUP2 MSTORE PUSH1 0x20 ADD SWAP1 DUP2 MSTORE PUSH1 0x20 ADD PUSH1 0x0 KECCAK256 PUSH1 0x6 ADD PUSH1 0x0 PUSH1 0x15 SLOAD DUP2 MSTORE PUSH1 0x20 ADD SWAP1 DUP2 MSTORE PUSH1 0x20 ADD PUSH1 0x0 KECCAK256 SLOAD DUP2 MSTORE POP DUP3 DUP3 DUP2 MLOAD DUP2 LT PUSH2 0x1F60 JUMPI PUSH2 0x1F60 PUSH2 0x4BB6 JUMP JUMPDEST PUSH1 0x20 MUL PUSH1 0x20 ADD ADD DUP2 SWAP1 MSTORE POP DUP1 DUP1 PUSH2 0x1F76 SWAP1 PUSH2 0x4BE5 JUMP JUMPDEST SWAP2 POP POP PUSH2 0x1E93 JUMP JUMPDEST POP JUMPDEST SWAP4 SWAP3 POP POP POP JUMP JUMPDEST PUSH1 0x0 DUP1 PUSH2 0x3E8 PUSH1 0x16 SLOAD PUSH2 0x1F9A SWAP2 SWAP1 PUSH2 0x4B7C JUMP JUMPDEST SWAP1 POP PUSH1 0x2 DUP2 GT ISZERO DUP1 ISZERO PUSH2 0x1FC9 JUMPI POP PUSH2 0x1FB3 DUP2 PUSH1 0x1 PUSH2 0x4BA3 JUMP JUMPDEST PUSH2 0x1FC6 SWAP1 PUSH9 0x56BC75E2D63100000 PUSH2 0x4B36 JUMP JUMPDEST DUP4 EQ JUMPDEST DUP1 PUSH2 0x1F80 JUMPI POP PUSH1 0x3 DUP2 LT ISZERO DUP1 ISZERO PUSH2 0x1F80 JUMPI POP PUSH2 0x1FEE PUSH9 0x56BC75E2D63100000 DUP5 PUSH2 0x4C1D JUMP JUMPDEST ISZERO SWAP4 SWAP3 POP POP POP JUMP JUMPDEST PUSH1 0x0 DUP1 DUP1 PUSH1 0x3 DUP5 PUSH1 0x4 DUP2 GT ISZERO PUSH2 0x200E JUMPI PUSH2 0x200E PUSH2 0x46BA JUMP JUMPDEST SUB PUSH2 0x2087 JUMPI PUSH1 0x9 SLOAD ISZERO PUSH2 0x2060 JUMPI PUSH1 0x9 DUP1 SLOAD PUSH2 0x202B SWAP1 PUSH1 0x1 SWAP1 PUSH2 0x4B90 JUMP JUMPDEST DUP2 SLOAD DUP2 LT PUSH2 0x203B JUMPI PUSH2 0x203B PUSH2 0x4BB6 JUMP JUMPDEST PUSH1 0x0 SWAP2 DUP3 MSTORE PUSH1 0x20 SWAP1 SWAP2 KECCAK256 ADD SLOAD PUSH20 0xFFFFFFFFFFFFFFFFFFFFFFFFFFFFFFFFFFFFFFFF AND SWAP3 POP JUMPDEST PUSH1 0xA SLOAD SWAP2 POP PUSH1 0xA SLOAD TIMESTAMP LT PUSH2 0x2076 JUMPI POP PUSH1 0x0 PUSH2 0x2087 JUMP JUMPDEST TIMESTAMP PUSH1 0xA SLOAD PUSH2 0x2084 SWAP2 SWAP1 PUSH2 0x4B90 JUMP JUMPDEST SWAP1 POP JUMPDEST PUSH1 0x4 DUP5 PUSH1 0x4 DUP2 GT ISZERO PUSH2 0x209B JUMPI PUSH2 0x209B PUSH2 0x46BA JUMP JUMPDEST SUB PUSH2 0x2114 JUMPI PUSH1 0xB SLOAD ISZERO PUSH2 0x20ED JUMPI PUSH1 0xB DUP1 SLOAD PUSH2 0x20B8 SWAP1 PUSH1 0x1 SWAP1 PUSH2 0x4B90 JUMP JUMPDEST DUP2 SLOAD DUP2 LT PUSH2 0x20C8 JUMPI PUSH2 0x20C8 PUSH2 0x4BB6 JUMP JUMPDEST PUSH1 0x0 SWAP2 DUP3 MSTORE PUSH1 0x20 SWAP1 SWAP2 KECCAK256 ADD SLOAD PUSH20 0xFFFFFFFFFFFFFFFFFFFFFFFFFFFFFFFFFFFFFFFF AND SWAP3 POP JUMPDEST PUSH1 0xC SLOAD SWAP2 POP PUSH1 0xC SLOAD TIMESTAMP LT PUSH2 0x2103 JUMPI POP PUSH1 0x0 PUSH2 0x2114 JUMP JUMPDEST TIMESTAMP PUSH1 0xC SLOAD PUSH2 0x2111 SWAP2 SWAP1 PUSH2 0x4B90 JUMP JUMPDEST SWAP1 POP JUMPDEST SWAP2 SWAP4 SWAP1 SWAP3 POP JUMP JUMPDEST PUSH1 0x0 SLOAD PUSH20 0xFFFFFFFFFFFFFFFFFFFFFFFFFFFFFFFFFFFFFFFF AND CALLER EQ PUSH2 0x219C JUMPI PUSH1 0x40 MLOAD PUSH32 0x8C379A000000000000000000000000000000000000000000000000000000000 DUP2 MSTORE PUSH1 0x20 PUSH1 0x4 DUP3 ADD DUP2 SWAP1 MSTORE PUSH1 0x24 DUP3 ADD MSTORE PUSH32 0x4D656D626572736869703A496E76616C69642061646D696E2061646472657373 PUSH1 0x44 DUP3 ADD MSTORE PUSH1 0x64 ADD PUSH2 0x7C5 JUMP JUMPDEST PUSH1 0x4 DUP1 SLOAD PUSH20 0xFFFFFFFFFFFFFFFFFFFFFFFFFFFFFFFFFFFFFFFF DUP1 DUP8 AND PUSH32 0xFFFFFFFFFFFFFFFFFFFFFFFF0000000000000000000000000000000000000000 SWAP3 DUP4 AND OR SWAP1 SWAP3 SSTORE PUSH1 0x5 DUP1 SLOAD DUP7 DUP5 AND SWAP1 DUP4 AND OR SWAP1 SSTORE PUSH1 0x6 DUP1 SLOAD DUP6 DUP5 AND SWAP1 DUP4 AND OR SWAP1 SSTORE PUSH1 0x1A DUP1 SLOAD SWAP3 DUP5 AND SWAP3 DUP3 AND SWAP3 SWAP1 SWAP3 OR SWAP1 SWAP2 SSTORE TIMESTAMP PUSH1 0x12 DUP2 SWAP1 SSTORE PUSH1 0x15 DUP2 SWAP1 SSTORE PUSH1 0xF SSTORE PUSH1 0x3 DUP1 SLOAD DUP3 AND PUSH20 0x55D398326F99059FF775485246999027B3197955 OR SWAP1 SSTORE PUSH1 0x7 DUP1 SLOAD DUP3 AND PUSH20 0x10ED43C718714EB63D5AA57B78B54704E256024E OR SWAP1 SSTORE PUSH1 0x8 DUP1 SLOAD SWAP1 SWAP2 AND PUSH2 0xDEAD OR SWAP1 SSTORE PUSH1 0x16 DUP1 SLOAD PUSH1 0x1 SWAP2 SWAP1 PUSH1 0x0 SWAP1 PUSH2 0x2278 SWAP1 DUP5 SWAP1 PUSH2 0x4BA3 JUMP JUMPDEST SWAP1 SWAP2 SSTORE POP POP PUSH8 0x8AC7230489E80000 PUSH1 0x22 SSTORE POP POP PUSH1 0x1B PUSH1 0x20 MSTORE POP POP PUSH1 0x5 PUSH32 0x584F46C60AF19681376031579ADB04A2416E54EE5505351C2A8435E3766026EA SSTORE PUSH1 0x1 PUSH32 0x9FAFCA4C9C0D5C2CBF85F49FD8AB8212430CE78C2A0CB75B51E0F9C4F9ACE003 DUP2 SWAP1 SSTORE PUSH1 0x2 PUSH32 0x1DD2F4B94A51CFB409E6E317A497F7CFD9013960A1C723F830C49C05A25F08A5 SSTORE PUSH32 0x804A3D0621E73505F5F0C57C922F3E57D6B48E175551184EB12F80D7B4A9C783 DUP2 SWAP1 SSTORE PUSH1 0x4 PUSH1 0x0 MSTORE PUSH32 0xA952F8C0F40734B22D2328E0F7FF57EEFFEE78885B9CF2147FF941CC37E1C86E SSTORE JUMP JUMPDEST PUSH1 0x1A SLOAD PUSH20 0xFFFFFFFFFFFFFFFFFFFFFFFFFFFFFFFFFFFFFFFF AND CALLER EQ PUSH2 0x23F4 JUMPI PUSH1 0x40 MLOAD PUSH32 0x8C379A000000000000000000000000000000000000000000000000000000000 DUP2 MSTORE PUSH1 0x20 PUSH1 0x4 DUP3 ADD MSTORE PUSH1 0x23 PUSH1 0x24 DUP3 ADD MSTORE PUSH32 0x4D656D626572736869703A496E76616C6964206F70657261746F722061646472 PUSH1 0x44 DUP3 ADD MSTORE PUSH32 0x6573730000000000000000000000000000000000000000000000000000000000 PUSH1 0x64 DUP3 ADD MSTORE PUSH1 0x84 ADD PUSH2 0x7C5 JUMP JUMPDEST PUSH1 0x0 PUSH2 0x23FF DUP4 PUSH2 0x3DF1 JUMP JUMPDEST SWAP1 POP PUSH1 0x0 DUP2 GT PUSH2 0x246B JUMPI PUSH1 0x40 MLOAD PUSH32 0x8C379A000000000000000000000000000000000000000000000000000000000 DUP2 MSTORE PUSH1 0x20 PUSH1 0x4 DUP3 ADD MSTORE PUSH1 0x1B PUSH1 0x24 DUP3 ADD MSTORE PUSH32 0x4D656D626572736869703A496E76616C69642070657263656E74210000000000 PUSH1 0x44 DUP3 ADD MSTORE PUSH1 0x64 ADD PUSH2 0x7C5 JUMP JUMPDEST PUSH1 0x0 PUSH1 0x64 PUSH2 0x247A DUP4 PUSH1 0x1E PUSH2 0x4B36 JUMP JUMPDEST PUSH2 0x2484 SWAP2 SWAP1 PUSH2 0x4B7C JUMP JUMPDEST SWAP1 POP PUSH1 0x0 PUSH1 0x64 PUSH2 0x2495 DUP5 PUSH1 0x14 PUSH2 0x4B36 JUMP JUMPDEST PUSH2 0x249F SWAP2 SWAP1 PUSH2 0x4B7C JUMP JUMPDEST SWAP1 POP PUSH1 0x0 JUMPDEST DUP7 MLOAD DUP2 LT ISZERO PUSH2 0x25C3 JUMPI PUSH1 0x0 PUSH1 0x5 DUP3 LT ISZERO PUSH2 0x24CA JUMPI PUSH2 0x24C3 PUSH1 0x5 DUP6 PUSH2 0x4B7C JUMP JUMPDEST SWAP1 POP PUSH2 0x2500 JUMP JUMPDEST PUSH1 0xA DUP3 LT ISZERO PUSH2 0x24DE JUMPI PUSH2 0x24C3 PUSH1 0x5 DUP5 PUSH2 0x4B7C JUMP JUMPDEST PUSH1 0x14 DUP3 LT ISZERO PUSH2 0x24F2 JUMPI PUSH2 0x24C3 PUSH1 0xA DUP6 PUSH2 0x4B7C JUMP JUMPDEST PUSH2 0x24FD PUSH1 0xA DUP5 PUSH2 0x4B7C JUMP JUMPDEST SWAP1 POP JUMPDEST DUP1 PUSH1 0x2 PUSH1 0x0 DUP11 DUP6 DUP2 MLOAD DUP2 LT PUSH2 0x2517 JUMPI PUSH2 0x2517 PUSH2 0x4BB6 JUMP JUMPDEST PUSH1 0x20 MUL PUSH1 0x20 ADD ADD MLOAD PUSH20 0xFFFFFFFFFFFFFFFFFFFFFFFFFFFFFFFFFFFFFFFF AND PUSH20 0xFFFFFFFFFFFFFFFFFFFFFFFFFFFFFFFFFFFFFFFF AND DUP2 MSTORE PUSH1 0x20 ADD SWAP1 DUP2 MSTORE PUSH1 0x20 ADD PUSH1 0x0 KECCAK256 PUSH1 0x3 ADD PUSH1 0x0 DUP3 DUP3 SLOAD PUSH2 0x256B SWAP2 SWAP1 PUSH2 0x4BA3 JUMP JUMPDEST SWAP1 SWAP2 SSTORE POP POP PUSH1 0x5 SLOAD DUP9 MLOAD PUSH2 0x25B0 SWAP2 PUSH20 0xFFFFFFFFFFFFFFFFFFFFFFFFFFFFFFFFFFFFFFFF AND SWAP1 DUP11 SWAP1 DUP6 SWAP1 DUP2 LT PUSH2 0x25A2 JUMPI PUSH2 0x25A2 PUSH2 0x4BB6 JUMP JUMPDEST PUSH1 0x20 MUL PUSH1 0x20 ADD ADD MLOAD DUP4 PUSH2 0x29E0 JUMP JUMPDEST POP DUP1 PUSH2 0x25BB DUP2 PUSH2 0x4BE5 JUMP JUMPDEST SWAP2 POP POP PUSH2 0x24A4 JUMP JUMPDEST POP PUSH1 0x1 PUSH1 0x19 DUP6 PUSH1 0x40 MLOAD PUSH2 0x25D6 SWAP2 SWAP1 PUSH2 0x4C55 JUMP JUMPDEST SWAP1 DUP2 MSTORE PUSH1 0x40 MLOAD SWAP1 DUP2 SWAP1 SUB PUSH1 0x20 ADD SWAP1 KECCAK256 DUP1 SLOAD SWAP2 ISZERO ISZERO PUSH32 0xFFFFFFFFFFFFFFFFFFFFFFFFFFFFFFFFFFFFFFFFFFFFFFFFFFFFFFFFFFFFFF00 SWAP1 SWAP3 AND SWAP2 SWAP1 SWAP2 OR SWAP1 SSTORE PUSH2 0x261D DUP6 PUSH2 0x3E96 JUMP JUMPDEST POP POP POP POP POP POP JUMP JUMPDEST PUSH1 0x40 DUP1 MLOAD PUSH20 0xFFFFFFFFFFFFFFFFFFFFFFFFFFFFFFFFFFFFFFFF DUP6 DUP2 AND PUSH1 0x24 DUP4 ADD MSTORE DUP5 DUP2 AND PUSH1 0x44 DUP4 ADD MSTORE PUSH1 0x64 DUP1 DUP4 ADD DUP6 SWAP1 MSTORE DUP4 MLOAD DUP1 DUP5 SUB SWAP1 SWAP2 ADD DUP2 MSTORE PUSH1 0x84 SWAP1 SWAP3 ADD DUP4 MSTORE PUSH1 0x20 DUP3 ADD DUP1 MLOAD PUSH28 0xFFFFFFFFFFFFFFFFFFFFFFFFFFFFFFFFFFFFFFFFFFFFFFFFFFFFFFFF AND PUSH32 0x23B872DD00000000000000000000000000000000000000000000000000000000 OR SWAP1 MSTORE SWAP2 MLOAD PUSH1 0x0 SWAP3 DUP4 SWAP3 SWAP1 DUP9 AND SWAP2 PUSH2 0x26C4 SWAP2 SWAP1 PUSH2 0x4C55 JUMP JUMPDEST PUSH1 0x0 PUSH1 0x40 MLOAD DUP1 DUP4 SUB DUP2 PUSH1 0x0 DUP7 GAS CALL SWAP2 POP POP RETURNDATASIZE DUP1 PUSH1 0x0 DUP2 EQ PUSH2 0x2701 JUMPI PUSH1 0x40 MLOAD SWAP2 POP PUSH1 0x1F NOT PUSH1 0x3F RETURNDATASIZE ADD AND DUP3 ADD PUSH1 0x40 MSTORE RETURNDATASIZE DUP3 MSTORE RETURNDATASIZE PUSH1 0x0 PUSH1 0x20 DUP5 ADD RETURNDATACOPY PUSH2 0x2706 JUMP JUMPDEST PUSH1 0x60 SWAP2 POP JUMPDEST POP SWAP2 POP SWAP2 POP DUP2 DUP1 ISZERO PUSH2 0x2730 JUMPI POP DUP1 MLOAD ISZERO DUP1 PUSH2 0x2730 JUMPI POP DUP1 DUP1 PUSH1 0x20 ADD SWAP1 MLOAD DUP2 ADD SWAP1 PUSH2 0x2730 SWAP2 SWAP1 PUSH2 0x4C71 JUMP JUMPDEST PUSH2 0x261D JUMPI PUSH1 0x40 MLOAD PUSH32 0x8C379A000000000000000000000000000000000000000000000000000000000 DUP2 MSTORE PUSH1 0x20 PUSH1 0x4 DUP3 ADD MSTORE PUSH1 0x24 DUP1 DUP3 ADD MSTORE PUSH32 0x5472616E7366657248656C7065723A205452414E534645525F46524F4D5F4641 PUSH1 0x44 DUP3 ADD MSTORE PUSH32 0x494C454400000000000000000000000000000000000000000000000000000000 PUSH1 0x64 DUP3 ADD MSTORE PUSH1 0x84 ADD PUSH2 0x7C5 JUMP JUMPDEST PUSH1 0x3 SLOAD PUSH1 0x40 MLOAD PUSH32 0x70A0823100000000000000000000000000000000000000000000000000000000 DUP2 MSTORE ADDRESS PUSH1 0x4 DUP3 ADD MSTORE PUSH1 0x0 SWAP2 DUP3 SWAP2 PUSH20 0xFFFFFFFFFFFFFFFFFFFFFFFFFFFFFFFFFFFFFFFF SWAP1 SWAP2 AND SWAP1 PUSH4 0x70A08231 SWAP1 PUSH1 0x24 ADD PUSH1 0x20 PUSH1 0x40 MLOAD DUP1 DUP4 SUB DUP2 DUP7 GAS STATICCALL ISZERO DUP1 ISZERO PUSH2 0x282E JUMPI RETURNDATASIZE PUSH1 0x0 DUP1 RETURNDATACOPY RETURNDATASIZE PUSH1 0x0 REVERT JUMPDEST POP POP POP POP PUSH1 0x40 MLOAD RETURNDATASIZE PUSH1 0x1F NOT PUSH1 0x1F DUP3 ADD AND DUP3 ADD DUP1 PUSH1 0x40 MSTORE POP DUP2 ADD SWAP1 PUSH2 0x2852 SWAP2 SWAP1 PUSH2 0x4AEE JUMP JUMPDEST SWAP1 POP PUSH2 0x2867 PUSH2 0x2862 PUSH1 0x2 DUP4 PUSH2 0x4B7C JUMP JUMPDEST PUSH2 0x3F06 JUMP JUMPDEST PUSH1 0x3 SLOAD PUSH1 0x40 MLOAD PUSH32 0x70A0823100000000000000000000000000000000000000000000000000000000 DUP2 MSTORE ADDRESS PUSH1 0x4 DUP3 ADD MSTORE PUSH1 0x0 SWAP2 PUSH20 0xFFFFFFFFFFFFFFFFFFFFFFFFFFFFFFFFFFFFFFFF AND SWAP1 PUSH4 0x70A08231 SWAP1 PUSH1 0x24 ADD PUSH1 0x20 PUSH1 0x40 MLOAD DUP1 DUP4 SUB DUP2 DUP7 GAS STATICCALL ISZERO DUP1 ISZERO PUSH2 0x28D6 JUMPI RETURNDATASIZE PUSH1 0x0 DUP1 RETURNDATACOPY RETURNDATASIZE PUSH1 0x0 REVERT JUMPDEST POP POP POP POP PUSH1 0x40 MLOAD RETURNDATASIZE PUSH1 0x1F NOT PUSH1 0x1F DUP3 ADD AND DUP3 ADD DUP1 PUSH1 0x40 MSTORE POP DUP2 ADD SWAP1 PUSH2 0x28FA SWAP2 SWAP1 PUSH2 0x4AEE JUMP JUMPDEST PUSH1 0x4 DUP1 SLOAD PUSH1 0x40 MLOAD PUSH32 0x70A0823100000000000000000000000000000000000000000000000000000000 DUP2 MSTORE ADDRESS SWAP3 DUP2 ADD SWAP3 SWAP1 SWAP3 MSTORE SWAP2 SWAP3 POP PUSH1 0x0 SWAP2 PUSH20 0xFFFFFFFFFFFFFFFFFFFFFFFFFFFFFFFFFFFFFFFF AND SWAP1 PUSH4 0x70A08231 SWAP1 PUSH1 0x24 ADD PUSH1 0x20 PUSH1 0x40 MLOAD DUP1 DUP4 SUB DUP2 DUP7 GAS STATICCALL ISZERO DUP1 ISZERO PUSH2 0x296F JUMPI RETURNDATASIZE PUSH1 0x0 DUP1 RETURNDATACOPY RETURNDATASIZE PUSH1 0x0 REVERT JUMPDEST POP POP POP POP PUSH1 0x40 MLOAD RETURNDATASIZE PUSH1 0x1F NOT PUSH1 0x1F DUP3 ADD AND DUP3 ADD DUP1 PUSH1 0x40 MSTORE POP DUP2 ADD SWAP1 PUSH2 0x2993 SWAP2 SWAP1 PUSH2 0x4AEE JUMP JUMPDEST SWAP1 POP PUSH1 0x0 DUP1 PUSH2 0x29A2 DUP5 DUP5 PUSH2 0x40BC JUMP JUMPDEST PUSH1 0x4 SLOAD PUSH1 0x8 SLOAD SWAP3 SWAP6 POP SWAP1 SWAP4 POP PUSH2 0x29D7 SWAP3 POP PUSH20 0xFFFFFFFFFFFFFFFFFFFFFFFFFFFFFFFFFFFFFFFF SWAP1 DUP2 AND SWAP2 AND PUSH2 0xE70 DUP6 DUP8 PUSH2 0x4B90 JUMP JUMPDEST SWAP6 SWAP5 POP POP POP POP POP JUMP JUMPDEST PUSH1 0x40 DUP1 MLOAD PUSH20 0xFFFFFFFFFFFFFFFFFFFFFFFFFFFFFFFFFFFFFFFF DUP5 DUP2 AND PUSH1 0x24 DUP4 ADD MSTORE PUSH1 0x44 DUP1 DUP4 ADD DUP6 SWAP1 MSTORE DUP4 MLOAD DUP1 DUP5 SUB SWAP1 SWAP2 ADD DUP2 MSTORE PUSH1 0x64 SWAP1 SWAP3 ADD DUP4 MSTORE PUSH1 0x20 DUP3 ADD DUP1 MLOAD PUSH28 0xFFFFFFFFFFFFFFFFFFFFFFFFFFFFFFFFFFFFFFFFFFFFFFFFFFFFFFFF AND PUSH32 0xA9059CBB00000000000000000000000000000000000000000000000000000000 OR SWAP1 MSTORE SWAP2 MLOAD PUSH1 0x0 SWAP3 DUP4 SWAP3 SWAP1 DUP8 AND SWAP2 PUSH2 0x2A77 SWAP2 SWAP1 PUSH2 0x4C55 JUMP JUMPDEST PUSH1 0x0 PUSH1 0x40 MLOAD DUP1 DUP4 SUB DUP2 PUSH1 0x0 DUP7 GAS CALL SWAP2 POP POP RETURNDATASIZE DUP1 PUSH1 0x0 DUP2 EQ PUSH2 0x2AB4 JUMPI PUSH1 0x40 MLOAD SWAP2 POP PUSH1 0x1F NOT PUSH1 0x3F RETURNDATASIZE ADD AND DUP3 ADD PUSH1 0x40 MSTORE RETURNDATASIZE DUP3 MSTORE RETURNDATASIZE PUSH1 0x0 PUSH1 0x20 DUP5 ADD RETURNDATACOPY PUSH2 0x2AB9 JUMP JUMPDEST PUSH1 0x60 SWAP2 POP JUMPDEST POP SWAP2 POP SWAP2 POP DUP2 DUP1 ISZERO PUSH2 0x2AE3 JUMPI POP DUP1 MLOAD ISZERO DUP1 PUSH2 0x2AE3 JUMPI POP DUP1 DUP1 PUSH1 0x20 ADD SWAP1 MLOAD DUP2 ADD SWAP1 PUSH2 0x2AE3 SWAP2 SWAP1 PUSH2 0x4C71 JUMP JUMPDEST PUSH2 0x2B49 JUMPI PUSH1 0x40 MLOAD PUSH32 0x8C379A000000000000000000000000000000000000000000000000000000000 DUP2 MSTORE PUSH1 0x20 PUSH1 0x4 DUP3 ADD MSTORE PUSH1 0x1F PUSH1 0x24 DUP3 ADD MSTORE PUSH32 0x5472616E7366657248656C7065723A205452414E534645525F4641494C454400 PUSH1 0x44 DUP3 ADD MSTORE PUSH1 0x64 ADD PUSH2 0x7C5 JUMP JUMPDEST POP POP POP POP POP JUMP JUMPDEST PUSH20 0xFFFFFFFFFFFFFFFFFFFFFFFFFFFFFFFFFFFFFFFF DUP1 DUP5 AND PUSH1 0x0 SWAP1 DUP2 MSTORE PUSH1 0x2 PUSH1 0x20 SWAP1 DUP2 MSTORE PUSH1 0x40 DUP1 DUP4 KECCAK256 PUSH1 0x1 ADD SLOAD SWAP1 SWAP4 AND DUP1 DUP4 MSTORE DUP4 DUP4 KECCAK256 PUSH1 0x12 SLOAD DUP5 MSTORE PUSH1 0x4 DUP2 ADD SWAP1 SWAP3 MSTORE SWAP3 DUP3 KECCAK256 DUP1 SLOAD SWAP3 SWAP4 SWAP3 DUP7 SWAP2 SWAP1 DUP6 SWAP1 PUSH2 0x2BAA SWAP1 DUP5 SWAP1 PUSH2 0x4BA3 JUMP JUMPDEST SWAP1 SWAP2 SSTORE POP POP PUSH1 0x15 SLOAD PUSH1 0x0 SWAP1 DUP2 MSTORE PUSH1 0x6 DUP3 ADD PUSH1 0x20 MSTORE PUSH1 0x40 DUP2 KECCAK256 DUP1 SLOAD DUP8 SWAP3 SWAP1 PUSH2 0x2BD2 SWAP1 DUP5 SWAP1 PUSH2 0x4BA3 JUMP JUMPDEST SWAP1 SWAP2 SSTORE POP PUSH1 0x0 SWAP1 POP PUSH1 0x64 PUSH2 0x2BE7 DUP7 PUSH1 0x28 PUSH2 0x4B36 JUMP JUMPDEST PUSH2 0x2BF1 SWAP2 SWAP1 PUSH2 0x4B7C JUMP JUMPDEST SWAP1 POP DUP2 PUSH1 0x2 ADD SLOAD PUSH1 0x0 SUB PUSH2 0x2C09 JUMPI SWAP3 POP PUSH2 0x1F80 SWAP2 POP POP JUMP JUMPDEST DUP6 DUP3 PUSH1 0x2 ADD SLOAD LT ISZERO DUP1 PUSH2 0x2C29 JUMPI POP PUSH9 0x2086AC351052600000 DUP3 PUSH1 0x2 ADD SLOAD LT ISZERO JUMPDEST ISZERO PUSH2 0x2C77 JUMPI DUP1 DUP3 PUSH1 0x3 ADD PUSH1 0x0 DUP3 DUP3 SLOAD PUSH2 0x2C42 SWAP2 SWAP1 PUSH2 0x4BA3 JUMP JUMPDEST SWAP1 SWAP2 SSTORE POP POP PUSH1 0x5 SLOAD PUSH2 0x2C6B SWAP1 PUSH20 0xFFFFFFFFFFFFFFFFFFFFFFFFFFFFFFFFFFFFFFFF AND DUP5 DUP4 PUSH2 0x29E0 JUMP JUMPDEST PUSH1 0x0 SWAP4 POP POP POP POP PUSH2 0x1F80 JUMP JUMPDEST PUSH1 0x0 PUSH1 0x64 DUP4 PUSH1 0x2 ADD SLOAD DUP9 PUSH2 0x2C8B SWAP2 SWAP1 PUSH2 0x4B7C JUMP JUMPDEST PUSH2 0x2C95 SWAP1 DUP9 PUSH2 0x4B7C JUMP JUMPDEST PUSH2 0x2CA0 SWAP1 PUSH1 0x28 PUSH2 0x4B36 JUMP JUMPDEST PUSH2 0x2CAA SWAP2 SWAP1 PUSH2 0x4B7C JUMP JUMPDEST SWAP1 POP DUP1 DUP4 PUSH1 0x3 ADD PUSH1 0x0 DUP3 DUP3 SLOAD PUSH2 0x2CC0 SWAP2 SWAP1 PUSH2 0x4BA3 JUMP JUMPDEST SWAP1 SWAP2 SSTORE POP POP PUSH1 0x5 SLOAD PUSH2 0x2CE9 SWAP1 PUSH20 0xFFFFFFFFFFFFFFFFFFFFFFFFFFFFFFFFFFFFFFFF AND DUP6 DUP4 PUSH2 0x29E0 JUMP JUMPDEST PUSH2 0x2CF3 DUP2 DUP4 PUSH2 0x4B90 JUMP JUMPDEST SWAP9 SWAP8 POP POP POP POP POP POP POP POP JUMP JUMPDEST PUSH20 0xFFFFFFFFFFFFFFFFFFFFFFFFFFFFFFFFFFFFFFFF DUP1 DUP5 AND PUSH1 0x0 SWAP1 DUP2 MSTORE PUSH1 0x2 PUSH1 0x20 MSTORE PUSH1 0x40 DUP2 KECCAK256 SLOAD SWAP1 SWAP2 DUP3 SWAP2 AND DUP2 JUMPDEST PUSH1 0x32 DUP2 LT DUP1 ISZERO PUSH2 0x2D52 JUMPI POP PUSH20 0xFFFFFFFFFFFFFFFFFFFFFFFFFFFFFFFFFFFFFFFF DUP3 AND ISZERO ISZERO JUMPDEST ISZERO PUSH2 0x2FDB JUMPI PUSH20 0xFFFFFFFFFFFFFFFFFFFFFFFFFFFFFFFFFFFFFFFF DUP3 AND PUSH1 0x0 SWAP1 DUP2 MSTORE PUSH1 0x2 PUSH1 0x20 DUP2 SWAP1 MSTORE PUSH1 0x40 SWAP1 SWAP2 KECCAK256 ADD SLOAD ISZERO PUSH2 0x2F6C JUMPI PUSH20 0xFFFFFFFFFFFFFFFFFFFFFFFFFFFFFFFFFFFFFFFF DUP3 AND PUSH1 0x0 SWAP1 DUP2 MSTORE PUSH1 0x2 PUSH1 0x20 DUP2 SWAP1 MSTORE PUSH1 0x40 SWAP1 SWAP2 KECCAK256 ADD SLOAD DUP7 GT ISZERO DUP1 PUSH2 0x2DF0 JUMPI POP PUSH20 0xFFFFFFFFFFFFFFFFFFFFFFFFFFFFFFFFFFFFFFFF DUP3 AND PUSH1 0x0 SWAP1 DUP2 MSTORE PUSH1 0x2 PUSH1 0x20 DUP2 SWAP1 MSTORE PUSH1 0x40 SWAP1 SWAP2 KECCAK256 ADD SLOAD PUSH9 0x2086AC351052600000 GT ISZERO JUMPDEST ISZERO PUSH2 0x2E7B JUMPI PUSH2 0x3E8 PUSH2 0x2E03 DUP7 PUSH1 0x2 PUSH2 0x4B36 JUMP JUMPDEST PUSH2 0x2E0D SWAP2 SWAP1 PUSH2 0x4B7C JUMP JUMPDEST PUSH20 0xFFFFFFFFFFFFFFFFFFFFFFFFFFFFFFFFFFFFFFFF DUP4 AND PUSH1 0x0 SWAP1 DUP2 MSTORE PUSH1 0x2 PUSH1 0x20 MSTORE PUSH1 0x40 DUP2 KECCAK256 PUSH1 0x3 ADD DUP1 SLOAD SWAP1 SWAP2 SWAP1 PUSH2 0x2E45 SWAP1 DUP5 SWAP1 PUSH2 0x4BA3 JUMP JUMPDEST SWAP1 SWAP2 SSTORE POP POP PUSH1 0x5 SLOAD PUSH2 0x2E76 SWAP1 PUSH20 0xFFFFFFFFFFFFFFFFFFFFFFFFFFFFFFFFFFFFFFFF AND DUP4 PUSH2 0x3E8 PUSH2 0xE66 DUP10 PUSH1 0x2 PUSH2 0x4B36 JUMP JUMPDEST PUSH2 0x2F91 JUMP JUMPDEST PUSH20 0xFFFFFFFFFFFFFFFFFFFFFFFFFFFFFFFFFFFFFFFF DUP3 AND PUSH1 0x0 SWAP1 DUP2 MSTORE PUSH1 0x2 PUSH1 0x20 DUP2 SWAP1 MSTORE PUSH1 0x40 DUP3 KECCAK256 ADD SLOAD PUSH2 0x3E8 SWAP1 PUSH2 0x2EB2 SWAP1 DUP10 PUSH2 0x4B7C JUMP JUMPDEST PUSH2 0x2EBC SWAP1 DUP9 PUSH2 0x4B7C JUMP JUMPDEST PUSH2 0x2EC7 SWAP1 PUSH1 0x2 PUSH2 0x4B36 JUMP JUMPDEST PUSH2 0x2ED1 SWAP2 SWAP1 PUSH2 0x4B7C JUMP JUMPDEST PUSH20 0xFFFFFFFFFFFFFFFFFFFFFFFFFFFFFFFFFFFFFFFF DUP5 AND PUSH1 0x0 SWAP1 DUP2 MSTORE PUSH1 0x2 PUSH1 0x20 MSTORE PUSH1 0x40 DUP2 KECCAK256 PUSH1 0x3 ADD DUP1 SLOAD SWAP3 SWAP4 POP DUP4 SWAP3 SWAP1 SWAP2 SWAP1 PUSH2 0x2F0E SWAP1 DUP5 SWAP1 PUSH2 0x4BA3 JUMP JUMPDEST SWAP1 SWAP2 SSTORE POP POP PUSH1 0x5 SLOAD PUSH2 0x2F37 SWAP1 PUSH20 0xFFFFFFFFFFFFFFFFFFFFFFFFFFFFFFFFFFFFFFFF AND DUP5 DUP4 PUSH2 0x29E0 JUMP JUMPDEST DUP1 PUSH2 0x3E8 PUSH2 0x2F46 DUP9 PUSH1 0x2 PUSH2 0x4B36 JUMP JUMPDEST PUSH2 0x2F50 SWAP2 SWAP1 PUSH2 0x4B7C JUMP JUMPDEST PUSH2 0x2F5A SWAP2 SWAP1 PUSH2 0x4B90 JUMP JUMPDEST PUSH2 0x2F64 SWAP1 DUP6 PUSH2 0x4BA3 JUMP JUMPDEST SWAP4 POP POP PUSH2 0x2F91 JUMP JUMPDEST PUSH2 0x3E8 PUSH2 0x2F7A DUP7 PUSH1 0x2 PUSH2 0x4B36 JUMP JUMPDEST PUSH2 0x2F84 SWAP2 SWAP1 PUSH2 0x4B7C JUMP JUMPDEST PUSH2 0x2F8E SWAP1 DUP5 PUSH2 0x4BA3 JUMP JUMPDEST SWAP3 POP JUMPDEST PUSH20 0xFFFFFFFFFFFFFFFFFFFFFFFFFFFFFFFFFFFFFFFF SWAP2 DUP3 AND PUSH1 0x0 SWAP1 DUP2 MSTORE PUSH1 0x2 PUSH1 0x20 MSTORE PUSH1 0x40 SWAP1 KECCAK256 SLOAD SWAP1 SWAP2 AND SWAP1 PUSH2 0x2FC7 DUP2 PUSH1 0x1 PUSH2 0x4BA3 JUMP JUMPDEST SWAP4 POP DUP1 PUSH2 0x2FD3 DUP2 PUSH2 0x4BE5 JUMP JUMPDEST SWAP2 POP POP PUSH2 0x2D2D JUMP JUMPDEST POP POP SWAP4 POP SWAP4 SWAP2 POP POP JUMP JUMPDEST PUSH1 0xA SLOAD PUSH1 0x0 SUB PUSH2 0x3000 JUMPI PUSH2 0x2FFC TIMESTAMP PUSH3 0x15180 PUSH2 0x4BA3 JUMP JUMPDEST PUSH1 0xA SSTORE JUMPDEST PUSH1 0xA SLOAD TIMESTAMP LT ISZERO DUP1 ISZERO PUSH2 0x3013 JUMPI POP PUSH1 0x9 SLOAD ISZERO ISZERO JUMPDEST ISZERO PUSH2 0x3230 JUMPI PUSH1 0x5 SLOAD PUSH1 0x40 MLOAD PUSH32 0x70A0823100000000000000000000000000000000000000000000000000000000 DUP2 MSTORE ADDRESS PUSH1 0x4 DUP3 ADD MSTORE PUSH1 0x0 SWAP2 PUSH20 0xFFFFFFFFFFFFFFFFFFFFFFFFFFFFFFFFFFFFFFFF AND SWAP1 PUSH4 0x70A08231 SWAP1 PUSH1 0x24 ADD PUSH1 0x20 PUSH1 0x40 MLOAD DUP1 DUP4 SUB DUP2 DUP7 GAS STATICCALL ISZERO DUP1 ISZERO PUSH2 0x3087 JUMPI RETURNDATASIZE PUSH1 0x0 DUP1 RETURNDATACOPY RETURNDATASIZE PUSH1 0x0 REVERT JUMPDEST POP POP POP POP PUSH1 0x40 MLOAD RETURNDATASIZE PUSH1 0x1F NOT PUSH1 0x1F DUP3 ADD AND DUP3 ADD DUP1 PUSH1 0x40 MSTORE POP DUP2 ADD SWAP1 PUSH2 0x30AB SWAP2 SWAP1 PUSH2 0x4AEE JUMP JUMPDEST SWAP1 POP PUSH1 0x0 PUSH1 0x18 SLOAD DUP3 PUSH2 0x30BD SWAP2 SWAP1 PUSH2 0x4B90 JUMP JUMPDEST PUSH1 0x3 PUSH1 0x0 SWAP1 DUP2 MSTORE PUSH1 0x1B PUSH1 0x20 MSTORE PUSH32 0x804A3D0621E73505F5F0C57C922F3E57D6B48E175551184EB12F80D7B4A9C783 SLOAD SWAP2 SWAP3 POP SWAP1 PUSH1 0x64 SWAP1 PUSH2 0x30FC SWAP1 DUP5 PUSH2 0x4B36 JUMP JUMPDEST PUSH2 0x3106 SWAP2 SWAP1 PUSH2 0x4B7C JUMP JUMPDEST PUSH1 0x20 SLOAD PUSH2 0x3113 SWAP2 SWAP1 PUSH2 0x4BA3 JUMP JUMPDEST SWAP1 POP PUSH2 0x3120 PUSH1 0x2 DUP3 PUSH2 0x4B7C JUMP JUMPDEST PUSH1 0x9 DUP1 SLOAD PUSH1 0x2 SWAP2 PUSH1 0x0 SWAP2 PUSH2 0x3136 SWAP1 PUSH1 0x1 SWAP1 PUSH2 0x4B90 JUMP JUMPDEST DUP2 SLOAD DUP2 LT PUSH2 0x3146 JUMPI PUSH2 0x3146 PUSH2 0x4BB6 JUMP JUMPDEST PUSH1 0x0 SWAP2 DUP3 MSTORE PUSH1 0x20 DUP1 DUP4 KECCAK256 SWAP1 SWAP2 ADD SLOAD PUSH20 0xFFFFFFFFFFFFFFFFFFFFFFFFFFFFFFFFFFFFFFFF AND DUP4 MSTORE DUP3 ADD SWAP3 SWAP1 SWAP3 MSTORE PUSH1 0x40 ADD DUP2 KECCAK256 PUSH1 0x3 ADD DUP1 SLOAD SWAP1 SWAP2 SWAP1 PUSH2 0x318A SWAP1 DUP5 SWAP1 PUSH2 0x4BA3 JUMP JUMPDEST SWAP1 SWAP2 SSTORE POP POP PUSH1 0x5 SLOAD PUSH1 0x9 DUP1 SLOAD PUSH2 0x31FB SWAP3 PUSH20 0xFFFFFFFFFFFFFFFFFFFFFFFFFFFFFFFFFFFFFFFF AND SWAP2 SWAP1 PUSH2 0x31BE SWAP1 PUSH1 0x1 SWAP1 PUSH2 0x4B90 JUMP JUMPDEST DUP2 SLOAD DUP2 LT PUSH2 0x31CE JUMPI PUSH2 0x31CE PUSH2 0x4BB6 JUMP JUMPDEST PUSH1 0x0 SWAP2 DUP3 MSTORE PUSH1 0x20 SWAP1 SWAP2 KECCAK256 ADD SLOAD PUSH20 0xFFFFFFFFFFFFFFFFFFFFFFFFFFFFFFFFFFFFFFFF AND PUSH2 0xE70 PUSH1 0x2 DUP6 PUSH2 0x4B7C JUMP JUMPDEST PUSH2 0x3208 TIMESTAMP PUSH3 0x15180 PUSH2 0x4BA3 JUMP JUMPDEST PUSH1 0xA SSTORE PUSH2 0x3216 PUSH1 0x2 DUP3 PUSH2 0x4B7C JUMP JUMPDEST PUSH1 0x20 PUSH1 0x0 DUP3 DUP3 SLOAD PUSH2 0x3227 SWAP2 SWAP1 PUSH2 0x4B90 JUMP JUMPDEST SWAP1 SWAP2 SSTORE POP POP POP POP POP JUMPDEST PUSH1 0x9 DUP1 SLOAD PUSH1 0x1 DUP2 ADD DUP3 SSTORE PUSH1 0x0 SWAP2 SWAP1 SWAP2 MSTORE PUSH32 0x6E1540171B6C0C960B71A7020D9F60077F6AF931A8BBF590DA0223DACF75C7AF ADD DUP1 SLOAD PUSH32 0xFFFFFFFFFFFFFFFFFFFFFFFF0000000000000000000000000000000000000000 AND PUSH20 0xFFFFFFFFFFFFFFFFFFFFFFFFFFFFFFFFFFFFFFFF DUP4 AND OR SWAP1 SSTORE PUSH2 0x32AA PUSH1 0x3 PUSH2 0x42E1 JUMP JUMPDEST POP JUMP JUMPDEST PUSH1 0x0 DUP1 MSTORE PUSH1 0x1B PUSH1 0x20 MSTORE PUSH32 0x584F46C60AF19681376031579ADB04A2416E54EE5505351C2A8435E3766026EA SLOAD PUSH1 0x64 SWAP1 PUSH2 0x32E5 SWAP1 DUP4 PUSH2 0x4B36 JUMP JUMPDEST PUSH2 0x32EF SWAP2 SWAP1 PUSH2 0x4B7C JUMP JUMPDEST PUSH1 0x1D PUSH1 0x0 DUP3 DUP3 SLOAD PUSH2 0x3300 SWAP2 SWAP1 PUSH2 0x4BA3 JUMP JUMPDEST SWAP1 SWAP2 SSTORE POP POP PUSH1 0x1 PUSH1 0x0 MSTORE PUSH1 0x1B PUSH1 0x20 MSTORE PUSH32 0x9FAFCA4C9C0D5C2CBF85F49FD8AB8212430CE78C2A0CB75B51E0F9C4F9ACE003 SLOAD PUSH1 0x64 SWAP1 PUSH2 0x333E SWAP1 DUP4 PUSH2 0x4B36 JUMP JUMPDEST PUSH2 0x3348 SWAP2 SWAP1 PUSH2 0x4B7C JUMP JUMPDEST PUSH1 0x1E PUSH1 0x0 DUP3 DUP3 SLOAD PUSH2 0x3359 SWAP2 SWAP1 PUSH2 0x4BA3 JUMP JUMPDEST SWAP1 SWAP2 SSTORE POP POP PUSH1 0x2 PUSH1 0x0 MSTORE PUSH1 0x1B PUSH1 0x20 MSTORE PUSH32 0x1DD2F4B94A51CFB409E6E317A497F7CFD9013960A1C723F830C49C05A25F08A5 SLOAD PUSH1 0x64 SWAP1 PUSH2 0x3397 SWAP1 DUP4 PUSH2 0x4B36 JUMP JUMPDEST PUSH2 0x33A1 SWAP2 SWAP1 PUSH2 0x4B7C JUMP JUMPDEST PUSH1 0x1F PUSH1 0x0 DUP3 DUP3 SLOAD PUSH2 0x33B2 SWAP2 SWAP1 PUSH2 0x4BA3 JUMP JUMPDEST SWAP1 SWAP2 SSTORE POP POP PUSH1 0x3 PUSH1 0x0 MSTORE PUSH1 0x1B PUSH1 0x20 MSTORE PUSH32 0x804A3D0621E73505F5F0C57C922F3E57D6B48E175551184EB12F80D7B4A9C783 SLOAD PUSH1 0x64 SWAP1 PUSH2 0x33F0 SWAP1 DUP4 PUSH2 0x4B36 JUMP JUMPDEST PUSH2 0x33FA SWAP2 SWAP1 PUSH2 0x4B7C JUMP JUMPDEST PUSH1 0x20 PUSH1 0x0 DUP3 DUP3 SLOAD PUSH2 0x340B SWAP2 SWAP1 PUSH2 0x4BA3 JUMP JUMPDEST SWAP1 SWAP2 SSTORE POP POP PUSH1 0x4 PUSH1 0x0 MSTORE PUSH1 0x1B PUSH1 0x20 MSTORE PUSH32 0xA952F8C0F40734B22D2328E0F7FF57EEFFEE78885B9CF2147FF941CC37E1C86E SLOAD PUSH1 0x64 SWAP1 PUSH2 0x3449 SWAP1 DUP4 PUSH2 0x4B36 JUMP JUMPDEST PUSH2 0x3453 SWAP2 SWAP1 PUSH2 0x4B7C JUMP JUMPDEST PUSH1 0x21 PUSH1 0x0 DUP3 DUP3 SLOAD PUSH2 0x3464 SWAP2 SWAP1 PUSH2 0x4BA3 JUMP JUMPDEST SWAP1 SWAP2 SSTORE POP POP POP JUMP JUMPDEST PUSH1 0x12 SLOAD PUSH1 0x0 SWAP1 DUP2 MSTORE PUSH1 0x11 PUSH1 0x20 SWAP1 DUP2 MSTORE PUSH1 0x40 DUP1 DUP4 KECCAK256 PUSH20 0xFFFFFFFFFFFFFFFFFFFFFFFFFFFFFFFFFFFFFFFF DUP6 AND DUP5 MSTORE SWAP1 SWAP2 MSTORE SWAP1 KECCAK256 SLOAD PUSH1 0xFF AND ISZERO DUP1 ISZERO PUSH2 0x34C4 JUMPI POP PUSH20 0xFFFFFFFFFFFFFFFFFFFFFFFFFFFFFFFFFFFFFFFF DUP2 AND ISZERO ISZERO JUMPDEST ISZERO PUSH2 0x356D JUMPI PUSH1 0x12 DUP1 SLOAD PUSH1 0x0 SWAP1 DUP2 MSTORE PUSH1 0x10 PUSH1 0x20 SWAP1 DUP2 MSTORE PUSH1 0x40 DUP1 DUP4 KECCAK256 DUP1 SLOAD PUSH1 0x1 DUP1 DUP3 ADD DUP4 SSTORE SWAP2 DUP6 MSTORE DUP4 DUP6 KECCAK256 ADD DUP1 SLOAD PUSH32 0xFFFFFFFFFFFFFFFFFFFFFFFF0000000000000000000000000000000000000000 AND PUSH20 0xFFFFFFFFFFFFFFFFFFFFFFFFFFFFFFFFFFFFFFFF DUP9 AND SWAP1 DUP2 OR SWAP1 SWAP2 SSTORE SWAP5 SLOAD DUP5 MSTORE PUSH1 0x11 DUP4 MSTORE DUP2 DUP5 KECCAK256 SWAP5 DUP5 MSTORE SWAP4 SWAP1 SWAP2 MSTORE SWAP1 KECCAK256 DUP1 SLOAD PUSH32 0xFFFFFFFFFFFFFFFFFFFFFFFFFFFFFFFFFFFFFFFFFFFFFFFFFFFFFFFFFFFFFF00 AND SWAP1 SWAP2 OR SWAP1 SSTORE JUMPDEST PUSH1 0x15 SLOAD PUSH1 0x0 SWAP1 DUP2 MSTORE PUSH1 0x14 PUSH1 0x20 SWAP1 DUP2 MSTORE PUSH1 0x40 DUP1 DUP4 KECCAK256 PUSH20 0xFFFFFFFFFFFFFFFFFFFFFFFFFFFFFFFFFFFFFFFF DUP6 AND DUP5 MSTORE SWAP1 SWAP2 MSTORE SWAP1 KECCAK256 SLOAD PUSH1 0xFF AND ISZERO DUP1 ISZERO PUSH2 0x35C5 JUMPI POP PUSH20 0xFFFFFFFFFFFFFFFFFFFFFFFFFFFFFFFFFFFFFFFF DUP2 AND ISZERO ISZERO JUMPDEST ISZERO PUSH2 0x32AA JUMPI PUSH1 0x15 DUP1 SLOAD PUSH1 0x0 SWAP1 DUP2 MSTORE PUSH1 0x13 PUSH1 0x20 SWAP1 DUP2 MSTORE PUSH1 0x40 DUP1 DUP4 KECCAK256 DUP1 SLOAD PUSH1 0x1 DUP2 DUP2 ADD DUP4 SSTORE SWAP2 DUP6 MSTORE DUP4 DUP6 KECCAK256 ADD DUP1 SLOAD PUSH20 0xFFFFFFFFFFFFFFFFFFFFFFFFFFFFFFFFFFFFFFFF DUP9 AND PUSH32 0xFFFFFFFFFFFFFFFFFFFFFFFF0000000000000000000000000000000000000000 SWAP1 SWAP2 AND DUP2 OR SWAP1 SWAP2 SSTORE SWAP5 SLOAD DUP5 MSTORE PUSH1 0x14 DUP4 MSTORE DUP2 DUP5 KECCAK256 SWAP5 DUP5 MSTORE SWAP4 SWAP1 SWAP2 MSTORE SWAP1 KECCAK256 DUP1 SLOAD PUSH32 0xFFFFFFFFFFFFFFFFFFFFFFFFFFFFFFFFFFFFFFFFFFFFFFFFFFFFFFFFFFFFFF00 AND SWAP1 SWAP2 OR SWAP1 SSTORE POP JUMP JUMPDEST PUSH20 0xFFFFFFFFFFFFFFFFFFFFFFFFFFFFFFFFFFFFFFFF DUP3 AND PUSH1 0x0 SWAP1 DUP2 MSTORE PUSH1 0x2 PUSH1 0x20 DUP2 SWAP1 MSTORE PUSH1 0x40 SWAP1 SWAP2 KECCAK256 PUSH1 0x8 ADD SLOAD LT PUSH2 0x3786 JUMPI PUSH1 0x0 PUSH2 0x36AD DUP4 PUSH2 0x43CC JUMP JUMPDEST SWAP1 POP PUSH20 0xFFFFFFFFFFFFFFFFFFFFFFFFFFFFFFFFFFFFFFFF DUP2 AND PUSH2 0x377C JUMPI PUSH1 0x0 JUMPDEST PUSH20 0xFFFFFFFFFFFFFFFFFFFFFFFFFFFFFFFFFFFFFFFF DUP5 AND PUSH1 0x0 SWAP1 DUP2 MSTORE PUSH1 0x2 PUSH1 0x20 MSTORE PUSH1 0x40 SWAP1 KECCAK256 PUSH1 0x8 ADD SLOAD DUP2 LT ISZERO PUSH2 0x3776 JUMPI PUSH20 0xFFFFFFFFFFFFFFFFFFFFFFFFFFFFFFFFFFFFFFFF DUP5 AND PUSH1 0x0 SWAP1 DUP2 MSTORE PUSH1 0x2 PUSH1 0x20 MSTORE PUSH1 0x40 SWAP1 KECCAK256 PUSH1 0x8 ADD DUP1 SLOAD PUSH2 0x3764 SWAP2 SWAP1 DUP4 SWAP1 DUP2 LT PUSH2 0x373C JUMPI PUSH2 0x373C PUSH2 0x4BB6 JUMP JUMPDEST PUSH1 0x0 SWAP2 DUP3 MSTORE PUSH1 0x20 SWAP1 SWAP2 KECCAK256 ADD SLOAD PUSH20 0xFFFFFFFFFFFFFFFFFFFFFFFFFFFFFFFFFFFFFFFF AND DUP5 PUSH2 0x3671 JUMP JUMPDEST DUP1 PUSH2 0x376E DUP2 PUSH2 0x4BE5 JUMP JUMPDEST SWAP2 POP POP PUSH2 0x36CD JUMP JUMPDEST POP POP POP POP JUMP JUMPDEST PUSH2 0x1AD9 DUP2 DUP4 PUSH2 0x3671 JUMP JUMPDEST PUSH20 0xFFFFFFFFFFFFFFFFFFFFFFFFFFFFFFFFFFFFFFFF DUP1 DUP3 AND PUSH1 0x0 DUP2 DUP2 MSTORE PUSH1 0x2 PUSH1 0x20 SWAP1 DUP2 MSTORE PUSH1 0x40 DUP1 DUP4 KECCAK256 DUP1 SLOAD SWAP6 DUP9 AND PUSH32 0xFFFFFFFFFFFFFFFFFFFFFFFF0000000000000000000000000000000000000000 SWAP7 DUP8 AND DUP2 OR SWAP1 SWAP2 SSTORE DUP4 MSTORE DUP3 KECCAK256 PUSH1 0x8 ADD DUP1 SLOAD PUSH1 0x1 DUP2 ADD DUP3 SSTORE SWAP1 DUP4 MSTORE SWAP2 KECCAK256 ADD DUP1 SLOAD SWAP1 SWAP3 AND OR SWAP1 SSTORE POP POP JUMP JUMPDEST PUSH1 0xC SLOAD PUSH1 0x0 SUB PUSH2 0x3819 JUMPI PUSH2 0x3815 TIMESTAMP PUSH3 0x15180 PUSH2 0x4BA3 JUMP JUMPDEST PUSH1 0xC SSTORE JUMPDEST PUSH1 0xC SLOAD TIMESTAMP LT ISZERO DUP1 ISZERO PUSH2 0x382C JUMPI POP PUSH1 0xB SLOAD ISZERO ISZERO JUMPDEST ISZERO PUSH2 0x3A0F JUMPI PUSH1 0x5 SLOAD PUSH1 0x40 MLOAD PUSH32 0x70A0823100000000000000000000000000000000000000000000000000000000 DUP2 MSTORE ADDRESS PUSH1 0x4 DUP3 ADD MSTORE PUSH1 0x0 SWAP2 PUSH20 0xFFFFFFFFFFFFFFFFFFFFFFFFFFFFFFFFFFFFFFFF AND SWAP1 PUSH4 0x70A08231 SWAP1 PUSH1 0x24 ADD PUSH1 0x20 PUSH1 0x40 MLOAD DUP1 DUP4 SUB DUP2 DUP7 GAS STATICCALL ISZERO DUP1 ISZERO PUSH2 0x38A0 JUMPI RETURNDATASIZE PUSH1 0x0 DUP1 RETURNDATACOPY RETURNDATASIZE PUSH1 0x0 REVERT JUMPDEST POP POP POP POP PUSH1 0x40 MLOAD RETURNDATASIZE PUSH1 0x1F NOT PUSH1 0x1F DUP3 ADD AND DUP3 ADD DUP1 PUSH1 0x40 MSTORE POP DUP2 ADD SWAP1 PUSH2 0x38C4 SWAP2 SWAP1 PUSH2 0x4AEE JUMP JUMPDEST SWAP1 POP PUSH1 0x0 PUSH1 0x18 SLOAD DUP3 PUSH2 0x38D6 SWAP2 SWAP1 PUSH2 0x4B90 JUMP JUMPDEST PUSH1 0x4 PUSH1 0x0 SWAP1 DUP2 MSTORE PUSH1 0x1B PUSH1 0x20 MSTORE PUSH32 0xA952F8C0F40734B22D2328E0F7FF57EEFFEE78885B9CF2147FF941CC37E1C86E SLOAD SWAP2 SWAP3 POP SWAP1 PUSH1 0x64 SWAP1 PUSH2 0x3915 SWAP1 DUP5 PUSH2 0x4B36 JUMP JUMPDEST PUSH2 0x391F SWAP2 SWAP1 PUSH2 0x4B7C JUMP JUMPDEST PUSH1 0x21 SLOAD PUSH2 0x392C SWAP2 SWAP1 PUSH2 0x4BA3 JUMP JUMPDEST SWAP1 POP PUSH2 0x3939 PUSH1 0x2 DUP3 PUSH2 0x4B7C JUMP JUMPDEST PUSH1 0xB DUP1 SLOAD PUSH1 0x2 SWAP2 PUSH1 0x0 SWAP2 PUSH2 0x394F SWAP1 PUSH1 0x1 SWAP1 PUSH2 0x4B90 JUMP JUMPDEST DUP2 SLOAD DUP2 LT PUSH2 0x395F JUMPI PUSH2 0x395F PUSH2 0x4BB6 JUMP JUMPDEST PUSH1 0x0 SWAP2 DUP3 MSTORE PUSH1 0x20 DUP1 DUP4 KECCAK256 SWAP1 SWAP2 ADD SLOAD PUSH20 0xFFFFFFFFFFFFFFFFFFFFFFFFFFFFFFFFFFFFFFFF AND DUP4 MSTORE DUP3 ADD SWAP3 SWAP1 SWAP3 MSTORE PUSH1 0x40 ADD DUP2 KECCAK256 PUSH1 0x3 ADD DUP1 SLOAD SWAP1 SWAP2 SWAP1 PUSH2 0x39A3 SWAP1 DUP5 SWAP1 PUSH2 0x4BA3 JUMP JUMPDEST SWAP1 SWAP2 SSTORE POP POP PUSH1 0x5 SLOAD PUSH1 0xB DUP1 SLOAD PUSH2 0x39D7 SWAP3 PUSH20 0xFFFFFFFFFFFFFFFFFFFFFFFFFFFFFFFFFFFFFFFF AND SWAP2 SWAP1 PUSH2 0x31BE SWAP1 PUSH1 0x1 SWAP1 PUSH2 0x4B90 JUMP JUMPDEST PUSH2 0x39E4 TIMESTAMP PUSH3 0x15180 PUSH2 0x4BA3 JUMP JUMPDEST POP PUSH1 0x0 PUSH1 0xC SSTORE PUSH2 0x39F5 PUSH1 0x2 DUP3 PUSH2 0x4B7C JUMP JUMPDEST PUSH1 0x18 PUSH1 0x0 DUP3 DUP3 SLOAD PUSH2 0x3A06 SWAP2 SWAP1 PUSH2 0x4BA3 JUMP JUMPDEST SWAP1 SWAP2 SSTORE POP POP POP POP POP JUMPDEST PUSH2 0x3A19 PUSH1 0x4 PUSH2 0x42E1 JUMP JUMPDEST PUSH1 0x22 SLOAD DUP2 LT PUSH2 0x1407 JUMPI PUSH1 0xB DUP1 SLOAD PUSH1 0x1 DUP2 ADD DUP3 SSTORE PUSH1 0x0 SWAP2 SWAP1 SWAP2 MSTORE PUSH32 0x175B7A638427703F0DBE7BB9BBF987A2551717B34E79F33B5B1008D1FA01DB9 ADD DUP1 SLOAD PUSH20 0xFFFFFFFFFFFFFFFFFFFFFFFFFFFFFFFFFFFFFFFF DUP5 AND PUSH32 0xFFFFFFFFFFFFFFFFFFFFFFFF0000000000000000000000000000000000000000 SWAP1 SWAP2 AND OR SWAP1 SSTORE POP POP JUMP JUMPDEST PUSH20 0xFFFFFFFFFFFFFFFFFFFFFFFFFFFFFFFFFFFFFFFF DUP4 AND PUSH1 0x0 SWAP1 DUP2 MSTORE PUSH1 0x2 PUSH1 0x20 SWAP1 DUP2 MSTORE PUSH1 0x40 DUP1 DUP4 KECCAK256 PUSH1 0xF SLOAD DUP5 MSTORE PUSH1 0x5 ADD SWAP1 SWAP2 MSTORE DUP2 KECCAK256 DUP1 SLOAD DUP5 SWAP3 SWAP1 PUSH2 0x3ADD SWAP1 DUP5 SWAP1 PUSH2 0x4BA3 JUMP JUMPDEST SWAP1 SWAP2 SSTORE POP POP PUSH1 0xF SLOAD PUSH1 0x0 SWAP1 DUP2 MSTORE PUSH1 0xE PUSH1 0x20 SWAP1 DUP2 MSTORE PUSH1 0x40 DUP1 DUP4 KECCAK256 PUSH20 0xFFFFFFFFFFFFFFFFFFFFFFFFFFFFFFFFFFFFFFFF DUP8 AND DUP5 MSTORE SWAP1 SWAP2 MSTORE SWAP1 KECCAK256 SLOAD PUSH1 0xFF AND PUSH2 0x3BC0 JUMPI PUSH1 0xF DUP1 SLOAD PUSH1 0x0 SWAP1 DUP2 MSTORE PUSH1 0xD PUSH1 0x20 SWAP1 DUP2 MSTORE PUSH1 0x40 DUP1 DUP4 KECCAK256 DUP1 SLOAD PUSH1 0x1 DUP1 DUP3 ADD DUP4 SSTORE SWAP2 DUP6 MSTORE DUP4 DUP6 KECCAK256 ADD DUP1 SLOAD PUSH32 0xFFFFFFFFFFFFFFFFFFFFFFFF0000000000000000000000000000000000000000 AND PUSH20 0xFFFFFFFFFFFFFFFFFFFFFFFFFFFFFFFFFFFFFFFF DUP11 AND SWAP1 DUP2 OR SWAP1 SWAP2 SSTORE SWAP5 SLOAD DUP5 MSTORE PUSH1 0xE DUP4 MSTORE DUP2 DUP5 KECCAK256 SWAP5 DUP5 MSTORE SWAP4 SWAP1 SWAP2 MSTORE SWAP1 KECCAK256 DUP1 SLOAD PUSH32 0xFFFFFFFFFFFFFFFFFFFFFFFFFFFFFFFFFFFFFFFFFFFFFFFFFFFFFFFFFFFFFF00 AND SWAP1 SWAP2 OR SWAP1 SSTORE JUMPDEST PUSH1 0x40 DUP1 MLOAD PUSH1 0x2 DUP1 DUP3 MSTORE PUSH1 0x60 DUP3 ADD DUP4 MSTORE PUSH1 0x0 SWAP3 PUSH1 0x20 DUP4 ADD SWAP1 DUP1 CALLDATASIZE DUP4 CALLDATACOPY POP POP PUSH1 0x3 SLOAD DUP3 MLOAD SWAP3 SWAP4 POP PUSH20 0xFFFFFFFFFFFFFFFFFFFFFFFFFFFFFFFFFFFFFFFF AND SWAP2 DUP4 SWAP2 POP PUSH1 0x0 SWAP1 PUSH2 0x3C0E JUMPI PUSH2 0x3C0E PUSH2 0x4BB6 JUMP JUMPDEST PUSH20 0xFFFFFFFFFFFFFFFFFFFFFFFFFFFFFFFFFFFFFFFF SWAP3 DUP4 AND PUSH1 0x20 SWAP2 DUP3 MUL SWAP3 SWAP1 SWAP3 ADD ADD MSTORE PUSH1 0x4 SLOAD DUP3 MLOAD SWAP2 AND SWAP1 DUP3 SWAP1 PUSH1 0x1 SWAP1 DUP2 LT PUSH2 0x3C4C JUMPI PUSH2 0x3C4C PUSH2 0x4BB6 JUMP JUMPDEST PUSH20 0xFFFFFFFFFFFFFFFFFFFFFFFFFFFFFFFFFFFFFFFF SWAP3 DUP4 AND PUSH1 0x20 SWAP2 DUP3 MUL SWAP3 SWAP1 SWAP3 ADD ADD MSTORE PUSH1 0x5 SLOAD PUSH1 0x7 SLOAD PUSH1 0x40 MLOAD PUSH32 0x95EA7B300000000000000000000000000000000000000000000000000000000 DUP2 MSTORE SWAP1 DUP4 AND PUSH1 0x4 DUP3 ADD MSTORE PUSH1 0x24 DUP2 ADD DUP6 SWAP1 MSTORE SWAP2 AND SWAP1 PUSH4 0x95EA7B3 SWAP1 PUSH1 0x44 ADD PUSH1 0x20 PUSH1 0x40 MLOAD DUP1 DUP4 SUB DUP2 PUSH1 0x0 DUP8 GAS CALL ISZERO DUP1 ISZERO PUSH2 0x3CD5 JUMPI RETURNDATASIZE PUSH1 0x0 DUP1 RETURNDATACOPY RETURNDATASIZE PUSH1 0x0 REVERT JUMPDEST POP POP POP POP PUSH1 0x40 MLOAD RETURNDATASIZE PUSH1 0x1F NOT PUSH1 0x1F DUP3 ADD AND DUP3 ADD DUP1 PUSH1 0x40 MSTORE POP DUP2 ADD SWAP1 PUSH2 0x3CF9 SWAP2 SWAP1 PUSH2 0x4C71 JUMP JUMPDEST POP PUSH1 0x7 SLOAD PUSH1 0x4 SLOAD PUSH1 0x3 SLOAD PUSH20 0xFFFFFFFFFFFFFFFFFFFFFFFFFFFFFFFFFFFFFFFF SWAP3 DUP4 AND SWAP3 PUSH4 0xBAA2ABDE SWAP3 DUP2 AND SWAP2 AND DUP6 PUSH1 0x0 DUP1 DUP11 PUSH2 0x3D36 TIMESTAMP PUSH1 0xA PUSH2 0x4BA3 JUMP JUMPDEST PUSH1 0x40 MLOAD PUSH1 0xE0 DUP10 SWAP1 SHL PUSH32 0xFFFFFFFF00000000000000000000000000000000000000000000000000000000 AND DUP2 MSTORE PUSH20 0xFFFFFFFFFFFFFFFFFFFFFFFFFFFFFFFFFFFFFFFF SWAP8 DUP9 AND PUSH1 0x4 DUP3 ADD MSTORE SWAP6 DUP8 AND PUSH1 0x24 DUP8 ADD MSTORE PUSH1 0x44 DUP7 ADD SWAP5 SWAP1 SWAP5 MSTORE PUSH1 0x64 DUP6 ADD SWAP3 SWAP1 SWAP3 MSTORE PUSH1 0x84 DUP5 ADD MSTORE SWAP1 SWAP3 AND PUSH1 0xA4 DUP3 ADD MSTORE PUSH1 0xC4 DUP2 ADD SWAP2 SWAP1 SWAP2 MSTORE PUSH1 0xE4 ADD PUSH1 0x40 DUP1 MLOAD DUP1 DUP4 SUB DUP2 PUSH1 0x0 DUP8 GAS CALL ISZERO DUP1 ISZERO PUSH2 0x3DCD JUMPI RETURNDATASIZE PUSH1 0x0 DUP1 RETURNDATACOPY RETURNDATASIZE PUSH1 0x0 REVERT JUMPDEST POP POP POP POP PUSH1 0x40 MLOAD RETURNDATASIZE PUSH1 0x1F NOT PUSH1 0x1F DUP3 ADD AND DUP3 ADD DUP1 PUSH1 0x40 MSTORE POP DUP2 ADD SWAP1 PUSH2 0x261D SWAP2 SWAP1 PUSH2 0x4C93 JUMP JUMPDEST PUSH1 0x0 DUP1 PUSH2 0x3DFC PUSH2 0x155E JUMP JUMPDEST SWAP1 POP DUP3 PUSH1 0x4 DUP2 GT ISZERO PUSH2 0x3E10 JUMPI PUSH2 0x3E10 PUSH2 0x46BA JUMP JUMPDEST PUSH1 0x0 SUB PUSH2 0x3E3E JUMPI DUP1 PUSH1 0x0 DUP2 MLOAD DUP2 LT PUSH2 0x3E2A JUMPI PUSH2 0x3E2A PUSH2 0x4BB6 JUMP JUMPDEST PUSH1 0x20 MUL PUSH1 0x20 ADD ADD MLOAD PUSH1 0x20 ADD MLOAD SWAP2 POP POP SWAP2 SWAP1 POP JUMP JUMPDEST DUP3 PUSH1 0x4 DUP2 GT ISZERO PUSH2 0x3E50 JUMPI PUSH2 0x3E50 PUSH2 0x46BA JUMP JUMPDEST PUSH1 0x1 SUB PUSH2 0x3E6A JUMPI DUP1 PUSH1 0x1 DUP2 MLOAD DUP2 LT PUSH2 0x3E2A JUMPI PUSH2 0x3E2A PUSH2 0x4BB6 JUMP JUMPDEST DUP3 PUSH1 0x4 DUP2 GT ISZERO PUSH2 0x3E7C JUMPI PUSH2 0x3E7C PUSH2 0x46BA JUMP JUMPDEST PUSH1 0x2 SUB PUSH2 0x1554 JUMPI DUP1 PUSH1 0x2 DUP2 MLOAD DUP2 LT PUSH2 0x3E2A JUMPI PUSH2 0x3E2A PUSH2 0x4BB6 JUMP JUMPDEST DUP1 PUSH1 0x4 DUP2 GT ISZERO PUSH2 0x3EA8 JUMPI PUSH2 0x3EA8 PUSH2 0x46BA JUMP JUMPDEST PUSH1 0x0 SUB PUSH2 0x3EBE JUMPI TIMESTAMP PUSH1 0x12 SSTORE PUSH1 0x0 PUSH1 0x18 DUP2 SWAP1 SSTORE PUSH1 0x1D SSTORE JUMPDEST DUP1 PUSH1 0x4 DUP2 GT ISZERO PUSH2 0x3ED0 JUMPI PUSH2 0x3ED0 PUSH2 0x46BA JUMP JUMPDEST PUSH1 0x1 SUB PUSH2 0x3EE1 JUMPI TIMESTAMP PUSH1 0x15 SSTORE PUSH1 0x0 PUSH1 0x1E SSTORE JUMPDEST DUP1 PUSH1 0x4 DUP2 GT ISZERO PUSH2 0x3EF3 JUMPI PUSH2 0x3EF3 PUSH2 0x46BA JUMP JUMPDEST PUSH1 0x2 SUB PUSH2 0x32AA JUMPI TIMESTAMP PUSH1 0xF SSTORE PUSH1 0x0 PUSH1 0x1F SSTORE POP JUMP JUMPDEST PUSH1 0x3 SLOAD PUSH1 0x7 SLOAD PUSH1 0x40 MLOAD PUSH32 0x95EA7B300000000000000000000000000000000000000000000000000000000 DUP2 MSTORE PUSH20 0xFFFFFFFFFFFFFFFFFFFFFFFFFFFFFFFFFFFFFFFF SWAP2 DUP3 AND PUSH1 0x4 DUP3 ADD MSTORE PUSH1 0x24 DUP2 ADD DUP5 SWAP1 MSTORE SWAP2 AND SWAP1 PUSH4 0x95EA7B3 SWAP1 PUSH1 0x44 ADD PUSH1 0x20 PUSH1 0x40 MLOAD DUP1 DUP4 SUB DUP2 PUSH1 0x0 DUP8 GAS CALL ISZERO DUP1 ISZERO PUSH2 0x3F81 JUMPI RETURNDATASIZE PUSH1 0x0 DUP1 RETURNDATACOPY RETURNDATASIZE PUSH1 0x0 REVERT JUMPDEST POP POP POP POP PUSH1 0x40 MLOAD RETURNDATASIZE PUSH1 0x1F NOT PUSH1 0x1F DUP3 ADD AND DUP3 ADD DUP1 PUSH1 0x40 MSTORE POP DUP2 ADD SWAP1 PUSH2 0x3FA5 SWAP2 SWAP1 PUSH2 0x4C71 JUMP JUMPDEST POP PUSH1 0x40 DUP1 MLOAD PUSH1 0x2 DUP1 DUP3 MSTORE PUSH1 0x60 DUP3 ADD DUP4 MSTORE PUSH1 0x0 SWAP3 PUSH1 0x20 DUP4 ADD SWAP1 DUP1 CALLDATASIZE DUP4 CALLDATACOPY POP POP PUSH1 0x3 SLOAD DUP3 MLOAD SWAP3 SWAP4 POP PUSH20 0xFFFFFFFFFFFFFFFFFFFFFFFFFFFFFFFFFFFFFFFF AND SWAP2 DUP4 SWAP2 POP PUSH1 0x0 SWAP1 PUSH2 0x3FF4 JUMPI PUSH2 0x3FF4 PUSH2 0x4BB6 JUMP JUMPDEST PUSH20 0xFFFFFFFFFFFFFFFFFFFFFFFFFFFFFFFFFFFFFFFF SWAP3 DUP4 AND PUSH1 0x20 SWAP2 DUP3 MUL SWAP3 SWAP1 SWAP3 ADD ADD MSTORE PUSH1 0x4 SLOAD DUP3 MLOAD SWAP2 AND SWAP1 DUP3 SWAP1 PUSH1 0x1 SWAP1 DUP2 LT PUSH2 0x4032 JUMPI PUSH2 0x4032 PUSH2 0x4BB6 JUMP JUMPDEST PUSH20 0xFFFFFFFFFFFFFFFFFFFFFFFFFFFFFFFFFFFFFFFF SWAP3 DUP4 AND PUSH1 0x20 SWAP2 DUP3 MUL SWAP3 SWAP1 SWAP3 ADD ADD MSTORE PUSH1 0x7 SLOAD AND PUSH4 0x5C11D795 DUP4 PUSH1 0x0 DUP5 ADDRESS PUSH2 0x406E TIMESTAMP PUSH1 0xA PUSH2 0x4BA3 JUMP JUMPDEST PUSH1 0x40 MLOAD DUP7 PUSH4 0xFFFFFFFF AND PUSH1 0xE0 SHL DUP2 MSTORE PUSH1 0x4 ADD PUSH2 0x408E SWAP6 SWAP5 SWAP4 SWAP3 SWAP2 SWAP1 PUSH2 0x4CB7 JUMP JUMPDEST PUSH1 0x0 PUSH1 0x40 MLOAD DUP1 DUP4 SUB DUP2 PUSH1 0x0 DUP8 DUP1 EXTCODESIZE ISZERO DUP1 ISZERO PUSH2 0x40A8 JUMPI PUSH1 0x0 DUP1 REVERT JUMPDEST POP GAS CALL ISZERO DUP1 ISZERO PUSH2 0x261D JUMPI RETURNDATASIZE PUSH1 0x0 DUP1 RETURNDATACOPY RETURNDATASIZE PUSH1 0x0 REVERT JUMPDEST PUSH1 0x4 DUP1 SLOAD PUSH1 0x7 SLOAD PUSH1 0x40 MLOAD PUSH32 0x95EA7B300000000000000000000000000000000000000000000000000000000 DUP2 MSTORE PUSH20 0xFFFFFFFFFFFFFFFFFFFFFFFFFFFFFFFFFFFFFFFF SWAP2 DUP3 AND SWAP4 DUP2 ADD SWAP4 SWAP1 SWAP4 MSTORE PUSH1 0x24 DUP4 ADD DUP5 SWAP1 MSTORE PUSH1 0x0 SWAP3 DUP4 SWAP3 DUP4 SWAP3 AND SWAP1 PUSH4 0x95EA7B3 SWAP1 PUSH1 0x44 ADD PUSH1 0x20 PUSH1 0x40 MLOAD DUP1 DUP4 SUB DUP2 PUSH1 0x0 DUP8 GAS CALL ISZERO DUP1 ISZERO PUSH2 0x4140 JUMPI RETURNDATASIZE PUSH1 0x0 DUP1 RETURNDATACOPY RETURNDATASIZE PUSH1 0x0 REVERT JUMPDEST POP POP POP POP PUSH1 0x40 MLOAD RETURNDATASIZE PUSH1 0x1F NOT PUSH1 0x1F DUP3 ADD AND DUP3 ADD DUP1 PUSH1 0x40 MSTORE POP DUP2 ADD SWAP1 PUSH2 0x4164 SWAP2 SWAP1 PUSH2 0x4C71 JUMP JUMPDEST POP PUSH1 0x3 SLOAD PUSH1 0x7 SLOAD PUSH1 0x40 MLOAD PUSH32 0x95EA7B300000000000000000000000000000000000000000000000000000000 DUP2 MSTORE PUSH20 0xFFFFFFFFFFFFFFFFFFFFFFFFFFFFFFFFFFFFFFFF SWAP2 DUP3 AND PUSH1 0x4 DUP3 ADD MSTORE PUSH1 0x24 DUP2 ADD DUP9 SWAP1 MSTORE SWAP2 AND SWAP1 PUSH4 0x95EA7B3 SWAP1 PUSH1 0x44 ADD PUSH1 0x20 PUSH1 0x40 MLOAD DUP1 DUP4 SUB DUP2 PUSH1 0x0 DUP8 GAS CALL ISZERO DUP1 ISZERO PUSH2 0x41E0 JUMPI RETURNDATASIZE PUSH1 0x0 DUP1 RETURNDATACOPY RETURNDATASIZE PUSH1 0x0 REVERT JUMPDEST POP POP POP POP PUSH1 0x40 MLOAD RETURNDATASIZE PUSH1 0x1F NOT PUSH1 0x1F DUP3 ADD AND DUP3 ADD DUP1 PUSH1 0x40 MSTORE POP DUP2 ADD SWAP1 PUSH2 0x4204 SWAP2 SWAP1 PUSH2 0x4C71 JUMP JUMPDEST POP PUSH1 0x7 SLOAD PUSH1 0x3 SLOAD PUSH1 0x4 DUP1 SLOAD PUSH1 0x40 MLOAD PUSH32 0xE8E3370000000000000000000000000000000000000000000000000000000000 DUP2 MSTORE PUSH20 0xFFFFFFFFFFFFFFFFFFFFFFFFFFFFFFFFFFFFFFFF SWAP4 DUP5 AND SWAP3 DUP2 ADD SWAP3 SWAP1 SWAP3 MSTORE DUP3 AND PUSH1 0x24 DUP3 ADD MSTORE PUSH1 0x44 DUP2 ADD DUP9 SWAP1 MSTORE PUSH1 0x64 DUP2 ADD DUP8 SWAP1 MSTORE PUSH1 0x0 PUSH1 0x84 DUP3 ADD DUP2 SWAP1 MSTORE PUSH1 0xA4 DUP3 ADD MSTORE ADDRESS PUSH1 0xC4 DUP3 ADD MSTORE TIMESTAMP PUSH1 0xE4 DUP3 ADD MSTORE SWAP2 AND SWAP1 PUSH4 0xE8E33700 SWAP1 PUSH2 0x104 ADD PUSH1 0x60 PUSH1 0x40 MLOAD DUP1 DUP4 SUB DUP2 PUSH1 0x0 DUP8 GAS CALL ISZERO DUP1 ISZERO PUSH2 0x42AF JUMPI RETURNDATASIZE PUSH1 0x0 DUP1 RETURNDATACOPY RETURNDATASIZE PUSH1 0x0 REVERT JUMPDEST POP POP POP POP PUSH1 0x40 MLOAD RETURNDATASIZE PUSH1 0x1F NOT PUSH1 0x1F DUP3 ADD AND DUP3 ADD DUP1 PUSH1 0x40 MSTORE POP DUP2 ADD SWAP1 PUSH2 0x42D3 SWAP2 SWAP1 PUSH2 0x4D00 JUMP JUMPDEST SWAP2 SWAP8 SWAP1 SWAP7 POP SWAP1 SWAP5 POP SWAP3 POP POP POP JUMP JUMPDEST DUP1 PUSH1 0x4 DUP2 GT ISZERO PUSH2 0x42F3 JUMPI PUSH2 0x42F3 PUSH2 0x46BA JUMP JUMPDEST PUSH1 0x3 SUB PUSH2 0x4356 JUMPI TIMESTAMP PUSH1 0xA SLOAD GT ISZERO PUSH2 0x4356 JUMPI PUSH1 0x0 TIMESTAMP PUSH1 0xA SLOAD PUSH2 0x4314 SWAP2 SWAP1 PUSH2 0x4B90 JUMP JUMPDEST SWAP1 POP PUSH2 0xE10 DUP2 GT PUSH2 0x4330 JUMPI PUSH2 0x432C TIMESTAMP PUSH3 0x15180 PUSH2 0x4BA3 JUMP JUMPDEST PUSH1 0xA SSTORE JUMPDEST PUSH2 0xE10 DUP2 GT ISZERO PUSH2 0x4354 JUMPI PUSH2 0xE10 PUSH1 0xA PUSH1 0x0 DUP3 DUP3 SLOAD PUSH2 0x434E SWAP2 SWAP1 PUSH2 0x4BA3 JUMP JUMPDEST SWAP1 SWAP2 SSTORE POP POP JUMPDEST POP JUMPDEST DUP1 PUSH1 0x4 DUP2 GT ISZERO PUSH2 0x4368 JUMPI PUSH2 0x4368 PUSH2 0x46BA JUMP JUMPDEST PUSH1 0x4 SUB PUSH2 0x32AA JUMPI TIMESTAMP PUSH1 0xC SLOAD GT ISZERO PUSH2 0x32AA JUMPI PUSH1 0x0 TIMESTAMP PUSH1 0xC SLOAD PUSH2 0x4389 SWAP2 SWAP1 PUSH2 0x4B90 JUMP JUMPDEST SWAP1 POP PUSH2 0x258 DUP2 GT PUSH2 0x43A5 JUMPI PUSH2 0x43A1 TIMESTAMP PUSH3 0x15180 PUSH2 0x4BA3 JUMP JUMPDEST PUSH1 0xC SSTORE JUMPDEST PUSH2 0x258 DUP2 GT ISZERO PUSH2 0x1407 JUMPI PUSH2 0x258 PUSH1 0xC PUSH1 0x0 DUP3 DUP3 SLOAD PUSH2 0x43C3 SWAP2 SWAP1 PUSH2 0x4BA3 JUMP JUMPDEST SWAP1 SWAP2 SSTORE POP POP POP POP JUMP JUMPDEST PUSH1 0x0 DUP1 JUMPDEST PUSH20 0xFFFFFFFFFFFFFFFFFFFFFFFFFFFFFFFFFFFFFFFF DUP4 AND PUSH1 0x0 SWAP1 DUP2 MSTORE PUSH1 0x2 PUSH1 0x20 MSTORE PUSH1 0x40 SWAP1 KECCAK256 PUSH1 0x8 ADD SLOAD DUP2 LT ISZERO PUSH2 0x1554 JUMPI PUSH1 0x2 DUP1 PUSH1 0x0 PUSH1 0x2 PUSH1 0x0 DUP8 PUSH20 0xFFFFFFFFFFFFFFFFFFFFFFFFFFFFFFFFFFFFFFFF AND PUSH20 0xFFFFFFFFFFFFFFFFFFFFFFFFFFFFFFFFFFFFFFFF AND DUP2 MSTORE PUSH1 0x20 ADD SWAP1 DUP2 MSTORE PUSH1 0x20 ADD PUSH1 0x0 KECCAK256 PUSH1 0x8 ADD DUP5 DUP2 SLOAD DUP2 LT PUSH2 0x4458 JUMPI PUSH2 0x4458 PUSH2 0x4BB6 JUMP JUMPDEST PUSH1 0x0 SWAP2 DUP3 MSTORE PUSH1 0x20 DUP1 DUP4 KECCAK256 SWAP1 SWAP2 ADD SLOAD PUSH20 0xFFFFFFFFFFFFFFFFFFFFFFFFFFFFFFFFFFFFFFFF AND DUP4 MSTORE DUP3 ADD SWAP3 SWAP1 SWAP3 MSTORE PUSH1 0x40 ADD SWAP1 KECCAK256 PUSH1 0x8 ADD SLOAD LT ISZERO PUSH2 0x44F6 JUMPI PUSH20 0xFFFFFFFFFFFFFFFFFFFFFFFFFFFFFFFFFFFFFFFF DUP4 AND PUSH1 0x0 SWAP1 DUP2 MSTORE PUSH1 0x2 PUSH1 0x20 MSTORE PUSH1 0x40 SWAP1 KECCAK256 PUSH1 0x8 ADD DUP1 SLOAD DUP3 SWAP1 DUP2 LT PUSH2 0x44CD JUMPI PUSH2 0x44CD PUSH2 0x4BB6 JUMP JUMPDEST PUSH1 0x0 SWAP2 DUP3 MSTORE PUSH1 0x20 SWAP1 SWAP2 KECCAK256 ADD SLOAD PUSH20 0xFFFFFFFFFFFFFFFFFFFFFFFFFFFFFFFFFFFFFFFF AND SWAP4 SWAP3 POP POP POP JUMP JUMPDEST DUP1 PUSH2 0x4500 DUP2 PUSH2 0x4BE5 JUMP JUMPDEST SWAP2 POP POP PUSH2 0x43D0 JUMP JUMPDEST DUP1 CALLDATALOAD PUSH1 0x5 DUP2 LT PUSH2 0x71D JUMPI PUSH1 0x0 DUP1 REVERT JUMPDEST PUSH1 0x0 PUSH1 0x20 DUP3 DUP5 SUB SLT ISZERO PUSH2 0x4529 JUMPI PUSH1 0x0 DUP1 REVERT JUMPDEST PUSH2 0x1F80 DUP3 PUSH2 0x4508 JUMP JUMPDEST PUSH1 0x0 DUP2 MLOAD DUP1 DUP5 MSTORE PUSH1 0x20 DUP1 DUP6 ADD SWAP5 POP DUP1 DUP5 ADD PUSH1 0x0 JUMPDEST DUP4 DUP2 LT ISZERO PUSH2 0x4578 JUMPI DUP2 MLOAD PUSH20 0xFFFFFFFFFFFFFFFFFFFFFFFFFFFFFFFFFFFFFFFF AND DUP8 MSTORE SWAP6 DUP3 ADD SWAP6 SWAP1 DUP3 ADD SWAP1 PUSH1 0x1 ADD PUSH2 0x4546 JUMP JUMPDEST POP SWAP5 SWAP6 SWAP5 POP POP POP POP POP JUMP JUMPDEST PUSH1 0x20 DUP2 MSTORE PUSH1 0x0 PUSH2 0x1F80 PUSH1 0x20 DUP4 ADD DUP5 PUSH2 0x4532 JUMP JUMPDEST PUSH1 0x0 PUSH1 0x20 DUP3 DUP5 SUB SLT ISZERO PUSH2 0x45A8 JUMPI PUSH1 0x0 DUP1 REVERT JUMPDEST POP CALLDATALOAD SWAP2 SWAP1 POP JUMP JUMPDEST DUP1 CALLDATALOAD PUSH20 0xFFFFFFFFFFFFFFFFFFFFFFFFFFFFFFFFFFFFFFFF DUP2 AND DUP2 EQ PUSH2 0x71D JUMPI PUSH1 0x0 DUP1 REVERT JUMPDEST PUSH1 0x0 PUSH1 0x20 DUP3 DUP5 SUB SLT ISZERO PUSH2 0x45E5 JUMPI PUSH1 0x0 DUP1 REVERT JUMPDEST PUSH2 0x1F80 DUP3 PUSH2 0x45AF JUMP JUMPDEST PUSH1 0x0 DUP1 PUSH1 0x40 DUP4 DUP6 SUB SLT ISZERO PUSH2 0x4601 JUMPI PUSH1 0x0 DUP1 REVERT JUMPDEST PUSH2 0x460A DUP4 PUSH2 0x45AF JUMP JUMPDEST SWAP5 PUSH1 0x20 SWAP4 SWAP1 SWAP4 ADD CALLDATALOAD SWAP4 POP POP POP JUMP JUMPDEST PUSH1 0x0 DUP1 PUSH1 0x40 DUP4 DUP6 SUB SLT ISZERO PUSH2 0x462B JUMPI PUSH1 0x0 DUP1 REVERT JUMPDEST PUSH2 0x460A DUP4 PUSH2 0x4508 JUMP JUMPDEST DUP6 DUP2 MSTORE DUP5 PUSH1 0x20 DUP3 ADD MSTORE DUP4 PUSH1 0x40 DUP3 ADD MSTORE PUSH1 0xA0 PUSH1 0x60 DUP3 ADD MSTORE PUSH1 0x0 PUSH2 0x4659 PUSH1 0xA0 DUP4 ADD DUP6 PUSH2 0x4532 JUMP JUMPDEST DUP3 DUP2 SUB PUSH1 0x80 DUP5 ADD MSTORE PUSH2 0x2CF3 DUP2 DUP6 PUSH2 0x4532 JUMP JUMPDEST PUSH1 0x0 DUP1 PUSH1 0x40 DUP4 DUP6 SUB SLT ISZERO PUSH2 0x467E JUMPI PUSH1 0x0 DUP1 REVERT JUMPDEST PUSH2 0x4687 DUP4 PUSH2 0x45AF JUMP JUMPDEST SWAP2 POP PUSH2 0x4695 PUSH1 0x20 DUP5 ADD PUSH2 0x45AF JUMP JUMPDEST SWAP1 POP SWAP3 POP SWAP3 SWAP1 POP JUMP JUMPDEST PUSH1 0x0 DUP1 PUSH1 0x40 DUP4 DUP6 SUB SLT ISZERO PUSH2 0x46B1 JUMPI PUSH1 0x0 DUP1 REVERT JUMPDEST PUSH2 0x4687 DUP4 PUSH2 0x4508 JUMP JUMPDEST PUSH32 0x4E487B7100000000000000000000000000000000000000000000000000000000 PUSH1 0x0 MSTORE PUSH1 0x21 PUSH1 0x4 MSTORE PUSH1 0x24 PUSH1 0x0 REVERT JUMPDEST PUSH1 0x20 DUP1 DUP3 MSTORE DUP3 MLOAD DUP3 DUP3 ADD DUP2 SWAP1 MSTORE PUSH1 0x0 SWAP2 SWAP1 PUSH1 0x40 SWAP1 DUP2 DUP6 ADD SWAP1 DUP7 DUP5 ADD DUP6 DUP1 JUMPDEST DUP4 DUP2 LT ISZERO PUSH2 0x4761 JUMPI DUP3 MLOAD DUP1 MLOAD PUSH1 0x5 DUP2 LT PUSH2 0x4748 JUMPI PUSH32 0x4E487B7100000000000000000000000000000000000000000000000000000000 DUP5 MSTORE PUSH1 0x21 PUSH1 0x4 MSTORE PUSH1 0x24 DUP5 REVERT JUMPDEST DUP7 MSTORE DUP8 ADD MLOAD DUP8 DUP7 ADD MSTORE SWAP4 DUP6 ADD SWAP4 SWAP2 DUP7 ADD SWAP2 PUSH1 0x1 ADD PUSH2 0x4707 JUMP JUMPDEST POP SWAP3 SWAP9 SWAP8 POP POP POP POP POP POP POP POP JUMP JUMPDEST PUSH32 0x4E487B7100000000000000000000000000000000000000000000000000000000 PUSH1 0x0 MSTORE PUSH1 0x41 PUSH1 0x4 MSTORE PUSH1 0x24 PUSH1 0x0 REVERT JUMPDEST PUSH1 0x40 MLOAD PUSH1 0x1F DUP3 ADD PUSH32 0xFFFFFFFFFFFFFFFFFFFFFFFFFFFFFFFFFFFFFFFFFFFFFFFFFFFFFFFFFFFFFFE0 AND DUP2 ADD PUSH8 0xFFFFFFFFFFFFFFFF DUP2 GT DUP3 DUP3 LT OR ISZERO PUSH2 0x47E5 JUMPI PUSH2 0x47E5 PUSH2 0x476F JUMP JUMPDEST PUSH1 0x40 MSTORE SWAP2 SWAP1 POP JUMP JUMPDEST PUSH1 0x0 DUP3 PUSH1 0x1F DUP4 ADD SLT PUSH2 0x47FE JUMPI PUSH1 0x0 DUP1 REVERT JUMPDEST DUP2 CALLDATALOAD PUSH8 0xFFFFFFFFFFFFFFFF DUP2 GT ISZERO PUSH2 0x4818 JUMPI PUSH2 0x4818 PUSH2 0x476F JUMP JUMPDEST PUSH2 0x4849 PUSH1 0x20 PUSH32 0xFFFFFFFFFFFFFFFFFFFFFFFFFFFFFFFFFFFFFFFFFFFFFFFFFFFFFFFFFFFFFFE0 PUSH1 0x1F DUP5 ADD AND ADD PUSH2 0x479E JUMP JUMPDEST DUP2 DUP2 MSTORE DUP5 PUSH1 0x20 DUP4 DUP7 ADD ADD GT ISZERO PUSH2 0x485E JUMPI PUSH1 0x0 DUP1 REVERT JUMPDEST DUP2 PUSH1 0x20 DUP6 ADD PUSH1 0x20 DUP4 ADD CALLDATACOPY PUSH1 0x0 SWAP2 DUP2 ADD PUSH1 0x20 ADD SWAP2 SWAP1 SWAP2 MSTORE SWAP4 SWAP3 POP POP POP JUMP JUMPDEST PUSH1 0x0 PUSH1 0x20 DUP3 DUP5 SUB SLT ISZERO PUSH2 0x488D JUMPI PUSH1 0x0 DUP1 REVERT JUMPDEST DUP2 CALLDATALOAD PUSH8 0xFFFFFFFFFFFFFFFF DUP2 GT ISZERO PUSH2 0x48A4 JUMPI PUSH1 0x0 DUP1 REVERT JUMPDEST PUSH2 0x919 DUP5 DUP3 DUP6 ADD PUSH2 0x47ED JUMP JUMPDEST PUSH1 0x0 DUP1 PUSH1 0x0 PUSH1 0x60 DUP5 DUP7 SUB SLT ISZERO PUSH2 0x48C5 JUMPI PUSH1 0x0 DUP1 REVERT JUMPDEST PUSH2 0x48CE DUP5 PUSH2 0x45AF JUMP JUMPDEST SWAP3 POP PUSH2 0x48DC PUSH1 0x20 DUP6 ADD PUSH2 0x45AF JUMP JUMPDEST SWAP2 POP PUSH1 0x40 DUP5 ADD CALLDATALOAD SWAP1 POP SWAP3 POP SWAP3 POP SWAP3 JUMP JUMPDEST PUSH1 0x0 DUP3 PUSH1 0x1F DUP4 ADD SLT PUSH2 0x48FD JUMPI PUSH1 0x0 DUP1 REVERT JUMPDEST DUP2 CALLDATALOAD PUSH1 0x20 PUSH8 0xFFFFFFFFFFFFFFFF DUP3 GT ISZERO PUSH2 0x4919 JUMPI PUSH2 0x4919 PUSH2 0x476F JUMP JUMPDEST DUP2 PUSH1 0x5 SHL PUSH2 0x4928 DUP3 DUP3 ADD PUSH2 0x479E JUMP JUMPDEST SWAP3 DUP4 MSTORE DUP5 DUP2 ADD DUP3 ADD SWAP3 DUP3 DUP2 ADD SWAP1 DUP8 DUP6 GT ISZERO PUSH2 0x4942 JUMPI PUSH1 0x0 DUP1 REVERT JUMPDEST DUP4 DUP8 ADD SWAP3 POP JUMPDEST DUP5 DUP4 LT ISZERO PUSH2 0x4968 JUMPI PUSH2 0x4959 DUP4 PUSH2 0x45AF JUMP JUMPDEST DUP3 MSTORE SWAP2 DUP4 ADD SWAP2 SWAP1 DUP4 ADD SWAP1 PUSH2 0x4948 JUMP JUMPDEST SWAP8 SWAP7 POP POP POP POP POP POP POP JUMP JUMPDEST PUSH1 0x0 DUP1 PUSH1 0x40 DUP4 DUP6 SUB SLT ISZERO PUSH2 0x4986 JUMPI PUSH1 0x0 DUP1 REVERT JUMPDEST PUSH2 0x498F DUP4 PUSH2 0x4508 JUMP JUMPDEST SWAP2 POP PUSH1 0x20 DUP4 ADD CALLDATALOAD PUSH8 0xFFFFFFFFFFFFFFFF DUP2 GT ISZERO PUSH2 0x49AB JUMPI PUSH1 0x0 DUP1 REVERT JUMPDEST PUSH2 0x49B7 DUP6 DUP3 DUP7 ADD PUSH2 0x48EC JUMP JUMPDEST SWAP2 POP POP SWAP3 POP SWAP3 SWAP1 POP JUMP JUMPDEST PUSH1 0x20 DUP1 DUP3 MSTORE DUP3 MLOAD DUP3 DUP3 ADD DUP2 SWAP1 MSTORE PUSH1 0x0 SWAP2 SWAP1 PUSH1 0x40 SWAP1 DUP2 DUP6 ADD SWAP1 DUP7 DUP5 ADD DUP6 JUMPDEST DUP3 DUP2 LT ISZERO PUSH2 0x4A19 JUMPI DUP2 MLOAD DUP1 MLOAD PUSH20 0xFFFFFFFFFFFFFFFFFFFFFFFFFFFFFFFFFFFFFFFF AND DUP6 MSTORE DUP7 ADD MLOAD DUP7 DUP6 ADD MSTORE SWAP3 DUP5 ADD SWAP3 SWAP1 DUP6 ADD SWAP1 PUSH1 0x1 ADD PUSH2 0x49DE JUMP JUMPDEST POP SWAP2 SWAP8 SWAP7 POP POP POP POP POP POP POP JUMP JUMPDEST PUSH1 0x0 DUP1 PUSH1 0x0 DUP1 PUSH1 0x80 DUP6 DUP8 SUB SLT ISZERO PUSH2 0x4A3C JUMPI PUSH1 0x0 DUP1 REVERT JUMPDEST PUSH2 0x4A45 DUP6 PUSH2 0x45AF JUMP JUMPDEST SWAP4 POP PUSH2 0x4A53 PUSH1 0x20 DUP7 ADD PUSH2 0x45AF JUMP JUMPDEST SWAP3 POP PUSH2 0x4A61 PUSH1 0x40 DUP7 ADD PUSH2 0x45AF JUMP JUMPDEST SWAP2 POP PUSH2 0x4A6F PUSH1 0x60 DUP7 ADD PUSH2 0x45AF JUMP JUMPDEST SWAP1 POP SWAP3 SWAP6 SWAP2 SWAP5 POP SWAP3 POP JUMP JUMPDEST PUSH1 0x0 DUP1 PUSH1 0x0 PUSH1 0x60 DUP5 DUP7 SUB SLT ISZERO PUSH2 0x4A8F JUMPI PUSH1 0x0 DUP1 REVERT JUMPDEST DUP4 CALLDATALOAD PUSH8 0xFFFFFFFFFFFFFFFF DUP1 DUP3 GT ISZERO PUSH2 0x4AA7 JUMPI PUSH1 0x0 DUP1 REVERT JUMPDEST PUSH2 0x4AB3 DUP8 DUP4 DUP9 ADD PUSH2 0x48EC JUMP JUMPDEST SWAP5 POP PUSH2 0x4AC1 PUSH1 0x20 DUP8 ADD PUSH2 0x4508 JUMP JUMPDEST SWAP4 POP PUSH1 0x40 DUP7 ADD CALLDATALOAD SWAP2 POP DUP1 DUP3 GT ISZERO PUSH2 0x4AD7 JUMPI PUSH1 0x0 DUP1 REVERT JUMPDEST POP PUSH2 0x4AE4 DUP7 DUP3 DUP8 ADD PUSH2 0x47ED JUMP JUMPDEST SWAP2 POP POP SWAP3 POP SWAP3 POP SWAP3 JUMP JUMPDEST PUSH1 0x0 PUSH1 0x20 DUP3 DUP5 SUB SLT ISZERO PUSH2 0x4B00 JUMPI PUSH1 0x0 DUP1 REVERT JUMPDEST POP MLOAD SWAP2 SWAP1 POP JUMP JUMPDEST PUSH32 0x4E487B7100000000000000000000000000000000000000000000000000000000 PUSH1 0x0 MSTORE PUSH1 0x11 PUSH1 0x4 MSTORE PUSH1 0x24 PUSH1 0x0 REVERT JUMPDEST DUP1 DUP3 MUL DUP2 ISZERO DUP3 DUP3 DIV DUP5 EQ OR PUSH2 0x1558 JUMPI PUSH2 0x1558 PUSH2 0x4B07 JUMP JUMPDEST PUSH32 0x4E487B7100000000000000000000000000000000000000000000000000000000 PUSH1 0x0 MSTORE PUSH1 0x12 PUSH1 0x4 MSTORE PUSH1 0x24 PUSH1 0x0 REVERT JUMPDEST PUSH1 0x0 DUP3 PUSH2 0x4B8B JUMPI PUSH2 0x4B8B PUSH2 0x4B4D JUMP JUMPDEST POP DIV SWAP1 JUMP JUMPDEST DUP2 DUP2 SUB DUP2 DUP2 GT ISZERO PUSH2 0x1558 JUMPI PUSH2 0x1558 PUSH2 0x4B07 JUMP JUMPDEST DUP1 DUP3 ADD DUP1 DUP3 GT ISZERO PUSH2 0x1558 JUMPI PUSH2 0x1558 PUSH2 0x4B07 JUMP JUMPDEST PUSH32 0x4E487B7100000000000000000000000000000000000000000000000000000000 PUSH1 0x0 MSTORE PUSH1 0x32 PUSH1 0x4 MSTORE PUSH1 0x24 PUSH1 0x0 REVERT JUMPDEST PUSH1 0x0 PUSH32 0xFFFFFFFFFFFFFFFFFFFFFFFFFFFFFFFFFFFFFFFFFFFFFFFFFFFFFFFFFFFFFFFF DUP3 SUB PUSH2 0x4C16 JUMPI PUSH2 0x4C16 PUSH2 0x4B07 JUMP JUMPDEST POP PUSH1 0x1 ADD SWAP1 JUMP JUMPDEST PUSH1 0x0 DUP3 PUSH2 0x4C2C JUMPI PUSH2 0x4C2C PUSH2 0x4B4D JUMP JUMPDEST POP MOD SWAP1 JUMP JUMPDEST PUSH1 0x0 JUMPDEST DUP4 DUP2 LT ISZERO PUSH2 0x4C4C JUMPI DUP2 DUP2 ADD MLOAD DUP4 DUP3 ADD MSTORE PUSH1 0x20 ADD PUSH2 0x4C34 JUMP JUMPDEST POP POP PUSH1 0x0 SWAP2 ADD MSTORE JUMP JUMPDEST PUSH1 0x0 DUP3 MLOAD PUSH2 0x4C67 DUP2 DUP5 PUSH1 0x20 DUP8 ADD PUSH2 0x4C31 JUMP JUMPDEST SWAP2 SWAP1 SWAP2 ADD SWAP3 SWAP2 POP POP JUMP JUMPDEST PUSH1 0x0 PUSH1 0x20 DUP3 DUP5 SUB SLT ISZERO PUSH2 0x4C83 JUMPI PUSH1 0x0 DUP1 REVERT JUMPDEST DUP2 MLOAD DUP1 ISZERO ISZERO DUP2 EQ PUSH2 0x1F80 JUMPI PUSH1 0x0 DUP1 REVERT JUMPDEST PUSH1 0x0 DUP1 PUSH1 0x40 DUP4 DUP6 SUB SLT ISZERO PUSH2 0x4CA6 JUMPI PUSH1 0x0 DUP1 REVERT JUMPDEST POP POP DUP1 MLOAD PUSH1 0x20 SWAP1 SWAP2 ADD MLOAD SWAP1 SWAP3 SWAP1 SWAP2 POP JUMP JUMPDEST DUP6 DUP2 MSTORE DUP5 PUSH1 0x20 DUP3 ADD MSTORE PUSH1 0xA0 PUSH1 0x40 DUP3 ADD MSTORE PUSH1 0x0 PUSH2 0x4CD6 PUSH1 0xA0 DUP4 ADD DUP7 PUSH2 0x4532 JUMP JUMPDEST PUSH20 0xFFFFFFFFFFFFFFFFFFFFFFFFFFFFFFFFFFFFFFFF SWAP5 SWAP1 SWAP5 AND PUSH1 0x60 DUP4 ADD MSTORE POP PUSH1 0x80 ADD MSTORE SWAP4 SWAP3 POP POP POP JUMP JUMPDEST PUSH1 0x0 DUP1 PUSH1 0x0 PUSH1 0x60 DUP5 DUP7 SUB SLT ISZERO PUSH2 0x4D15 JUMPI PUSH1 0x0 DUP1 REVERT JUMPDEST DUP4 MLOAD SWAP3 POP PUSH1 0x20 DUP5 ADD MLOAD SWAP2 POP PUSH1 0x40 DUP5 ADD MLOAD SWAP1 POP SWAP3 POP SWAP3 POP SWAP3 JUMP INVALID LOG2 PUSH5 0x6970667358 0x22 SLT KECCAK256 SWAP4 0xA7 CODESIZE 0xCB LOG0 DUP15 0x4C EXTCODESIZE 0xF6 0xEF 0xC6 MULMOD LOG4 SWAP1 0xB0 0x1F 0x2E 0x2E SGT MOD TIMESTAMP DUP2 SLT REVERT ADD 0x22 PUSH24 0xFF02913ED764736F6C634300081200330000000000000000 "
		},
		"gasEstimates": {
			"creation": {
				"codeDepositCost": "3962400",
				"executionCost": "28756",
				"totalCost": "3991156"
			},
			"external": {
				"admin()": "2379",
				"dailyInviteCurrentTime()": "2362",
				"distributeRankings(address[],uint8,string)": "infinite",
				"getAccessAmount(uint256)": "infinite",
				"getAccessAmountIn()": "infinite",
				"getBaseUserInfo(address)": "9005",
				"getLuidityPrice(uint256)": "infinite",
				"getMemberGrades(uint8,address)": "infinite",
				"getPrizeInfo()": "infinite",
				"getProsperOrEarlyBirdInfo(uint8)": "15457",
				"getRankings(uint8)": "infinite",
				"getUserInfo(address)": "infinite",
				"implementation()": "2403",
				"initialize(address,address,address,address)": "infinite",
				"invite(address,address)": "infinite",
				"leader()": "2425",
				"managerWithdraw(address,address,uint256)": "infinite",
				"multiGetMemberGrades(uint8,address[])": "infinite",
				"operator()": "2381",
				"provide(address,uint256)": "infinite",
				"removeLuidity(address,uint256)": "infinite",
				"setMinPositiveRemove(uint256)": "24521",
				"setOperator(address)": "26727",
				"setOwner(address)": "26706",
				"setPercent(uint8,uint256)": "24769",
				"totalMembers()": "2341",
				"totalSurplus()": "2363",
				"transactionMark(string)": "infinite",
				"weeklyInviteCurrentTime()": "2384",
				"weeklyRemoveCurrentTime()": "2341"
			},
			"internal": {
				"_addLuidity(uint256,uint256)": "infinite",
				"_distributeEarlyBirdReward(address,uint256)": "infinite",
				"_distributeProsperReward(address)": "infinite",
				"_loopReward(address,uint256,uint256)": "infinite",
				"_removeLuidity(address,uint256,uint256)": "infinite",
				"_reward(address,uint256,uint256)": "infinite",
				"_run()": "infinite",
				"_swapUSDTForToken(uint256)": "infinite",
				"findSubordinateWithSpace(address)": "infinite",
				"prizesInfo(enum StoreV1.Target)": "infinite",
				"recursiveInvite(address,address)": "infinite",
				"updateCountTime(enum StoreV1.Target)": "infinite",
				"updateInviteList(address)": "163129",
				"updatePrizes(enum StoreV1.Target)": "86499",
				"updateRewards(uint256)": "infinite"
			}
		},
		"methodIdentifiers": {
			"admin()": "f851a440",
			"dailyInviteCurrentTime()": "6fbf7fb6",
			"distributeRankings(address[],uint8,string)": "f98029c8",
			"getAccessAmount(uint256)": "e44ae85c",
			"getAccessAmountIn()": "765c58b6",
			"getBaseUserInfo(address)": "dcde5a0c",
			"getLuidityPrice(uint256)": "11a8bb9c",
			"getMemberGrades(uint8,address)": "9bbea775",
			"getPrizeInfo()": "a8d4bb75",
			"getProsperOrEarlyBirdInfo(uint8)": "ee9b1b53",
			"getRankings(uint8)": "041c489e",
			"getUserInfo(address)": "6386c1c7",
			"implementation()": "5c60da1b",
			"initialize(address,address,address,address)": "f8c8765e",
			"invite(address,address)": "6f4c6443",
			"leader()": "40eedabb",
			"managerWithdraw(address,address,uint256)": "cdc09b4b",
			"multiGetMemberGrades(uint8,address[])": "e1aaeb50",
			"operator()": "570ca735",
			"provide(address,uint256)": "36b73908",
			"removeLuidity(address,uint256)": "df264429",
			"setMinPositiveRemove(uint256)": "04e9e4a4",
			"setOperator(address)": "b3ab15fb",
			"setOwner(address)": "13af4035",
			"setPercent(uint8,uint256)": "3ecaff99",
			"totalMembers()": "76e92559",
			"totalSurplus()": "8eb955e2",
			"transactionMark(string)": "cce9639f",
			"weeklyInviteCurrentTime()": "75ba748d",
			"weeklyRemoveCurrentTime()": "45040297"
		}
	},
	"abi": [
		{
			"inputs": [],
			"stateMutability": "nonpayable",
			"type": "constructor"
		},
		{
			"inputs": [],
			"name": "admin",
			"outputs": [
				{
					"internalType": "address",
					"name": "",
					"type": "address"
				}
			],
			"stateMutability": "view",
			"type": "function"
		},
		{
			"inputs": [],
			"name": "dailyInviteCurrentTime",
			"outputs": [
				{
					"internalType": "uint256",
					"name": "",
					"type": "uint256"
				}
			],
			"stateMutability": "view",
			"type": "function"
		},
		{
			"inputs": [
				{
					"internalType": "address[]",
					"name": "members",
					"type": "address[]"
				},
				{
					"internalType": "enum StoreV1.Target",
					"name": "target",
					"type": "uint8"
				},
				{
					"internalType": "string",
					"name": "mark",
					"type": "string"
				}
			],
			"name": "distributeRankings",
			"outputs": [],
			"stateMutability": "nonpayable",
			"type": "function"
		},
		{
			"inputs": [
				{
					"internalType": "uint256",
					"name": "amount",
					"type": "uint256"
				}
			],
			"name": "getAccessAmount",
			"outputs": [
				{
					"internalType": "bool",
					"name": "supp",
					"type": "bool"
				}
			],
			"stateMutability": "view",
			"type": "function"
		},
		{
			"inputs": [],
			"name": "getAccessAmountIn",
			"outputs": [
				{
					"internalType": "uint256",
					"name": "amountIn",
					"type": "uint256"
				}
			],
			"stateMutability": "view",
			"type": "function"
		},
		{
			"inputs": [
				{
					"internalType": "address",
					"name": "member",
					"type": "address"
				}
			],
			"name": "getBaseUserInfo",
			"outputs": [
				{
					"internalType": "address",
					"name": "_inviter",
					"type": "address"
				},
				{
					"internalType": "address",
					"name": "_additionalInviter",
					"type": "address"
				},
				{
					"internalType": "uint256",
					"name": "_staking",
					"type": "uint256"
				},
				{
					"internalType": "uint256",
					"name": "_property",
					"type": "uint256"
				}
			],
			"stateMutability": "view",
			"type": "function"
		},
		{
			"inputs": [
				{
					"internalType": "uint256",
					"name": "amount",
					"type": "uint256"
				}
			],
			"name": "getLuidityPrice",
			"outputs": [
				{
					"internalType": "uint256",
					"name": "",
					"type": "uint256"
				}
			],
			"stateMutability": "view",
			"type": "function"
		},
		{
			"inputs": [
				{
					"internalType": "enum StoreV1.Target",
					"name": "target",
					"type": "uint8"
				},
				{
					"internalType": "address",
					"name": "member",
					"type": "address"
				}
			],
			"name": "getMemberGrades",
			"outputs": [
				{
					"internalType": "uint256",
					"name": "",
					"type": "uint256"
				}
			],
			"stateMutability": "view",
			"type": "function"
		},
		{
			"inputs": [],
			"name": "getPrizeInfo",
			"outputs": [
				{
					"components": [
						{
							"internalType": "enum StoreV1.Target",
							"name": "target",
							"type": "uint8"
						},
						{
							"internalType": "uint256",
							"name": "amount",
							"type": "uint256"
						}
					],
					"internalType": "struct StoreV1.Prize[]",
					"name": "",
					"type": "tuple[]"
				}
			],
			"stateMutability": "view",
			"type": "function"
		},
		{
			"inputs": [
				{
					"internalType": "enum StoreV1.Target",
					"name": "target",
					"type": "uint8"
				}
			],
			"name": "getProsperOrEarlyBirdInfo",
			"outputs": [
				{
					"internalType": "address",
					"name": "last",
					"type": "address"
				},
				{
					"internalType": "uint256",
					"name": "lastTime",
					"type": "uint256"
				},
				{
					"internalType": "uint256",
					"name": "count",
					"type": "uint256"
				}
			],
			"stateMutability": "view",
			"type": "function"
		},
		{
			"inputs": [
				{
					"internalType": "enum StoreV1.Target",
					"name": "target",
					"type": "uint8"
				}
			],
			"name": "getRankings",
			"outputs": [
				{
					"internalType": "address[]",
					"name": "",
					"type": "address[]"
				}
			],
			"stateMutability": "view",
			"type": "function"
		},
		{
			"inputs": [
				{
					"internalType": "address",
					"name": "member",
					"type": "address"
				}
			],
			"name": "getUserInfo",
			"outputs": [
				{
					"internalType": "uint256",
					"name": "_dailyInvite",
					"type": "uint256"
				},
				{
					"internalType": "uint256",
					"name": "_weeklyRemove",
					"type": "uint256"
				},
				{
					"internalType": "uint256",
					"name": "_weeklyInvite",
					"type": "uint256"
				},
				{
					"internalType": "address[]",
					"name": "_inviteForms",
					"type": "address[]"
				},
				{
					"internalType": "address[]",
					"name": "_subordinates",
					"type": "address[]"
				}
			],
			"stateMutability": "view",
			"type": "function"
		},
		{
			"inputs": [],
			"name": "implementation",
			"outputs": [
				{
					"internalType": "address",
					"name": "",
					"type": "address"
				}
			],
			"stateMutability": "view",
			"type": "function"
		},
		{
			"inputs": [
				{
					"internalType": "address",
					"name": "_token",
					"type": "address"
				},
				{
					"internalType": "address",
					"name": "_lp",
					"type": "address"
				},
				{
					"internalType": "address",
					"name": "_leader",
					"type": "address"
				},
				{
					"internalType": "address",
					"name": "_operator",
					"type": "address"
				}
			],
			"name": "initialize",
			"outputs": [],
			"stateMutability": "nonpayable",
			"type": "function"
		},
		{
			"inputs": [
				{
					"internalType": "address",
					"name": "_inviter",
					"type": "address"
				},
				{
					"internalType": "address",
					"name": "_member",
					"type": "address"
				}
			],
			"name": "invite",
			"outputs": [],
			"stateMutability": "nonpayable",
			"type": "function"
		},
		{
			"inputs": [],
			"name": "leader",
			"outputs": [
				{
					"internalType": "address",
					"name": "",
					"type": "address"
				}
			],
			"stateMutability": "view",
			"type": "function"
		},
		{
			"inputs": [
				{
					"internalType": "address",
					"name": "_token",
					"type": "address"
				},
				{
					"internalType": "address",
					"name": "_to",
					"type": "address"
				},
				{
					"internalType": "uint256",
					"name": "_amount",
					"type": "uint256"
				}
			],
			"name": "managerWithdraw",
			"outputs": [],
			"stateMutability": "nonpayable",
			"type": "function"
		},
		{
			"inputs": [
				{
					"internalType": "enum StoreV1.Target",
					"name": "target",
					"type": "uint8"
				},
				{
					"internalType": "address[]",
					"name": "member",
					"type": "address[]"
				}
			],
			"name": "multiGetMemberGrades",
			"outputs": [
				{
					"components": [
						{
							"internalType": "address",
							"name": "member",
							"type": "address"
						},
						{
							"internalType": "uint256",
							"name": "amount",
							"type": "uint256"
						}
					],
					"internalType": "struct StoreV1.Assemble[]",
					"name": "",
					"type": "tuple[]"
				}
			],
			"stateMutability": "view",
			"type": "function"
		},
		{
			"inputs": [],
			"name": "operator",
			"outputs": [
				{
					"internalType": "address",
					"name": "",
					"type": "address"
				}
			],
			"stateMutability": "view",
			"type": "function"
		},
		{
			"inputs": [
				{
					"internalType": "address",
					"name": "member",
					"type": "address"
				},
				{
					"internalType": "uint256",
					"name": "amount",
					"type": "uint256"
				}
			],
			"name": "provide",
			"outputs": [],
			"stateMutability": "nonpayable",
			"type": "function"
		},
		{
			"inputs": [
				{
					"internalType": "address",
					"name": "member",
					"type": "address"
				},
				{
					"internalType": "uint256",
					"name": "amount",
					"type": "uint256"
				}
			],
			"name": "removeLuidity",
			"outputs": [],
			"stateMutability": "nonpayable",
			"type": "function"
		},
		{
			"inputs": [
				{
					"internalType": "uint256",
					"name": "amount",
					"type": "uint256"
				}
			],
			"name": "setMinPositiveRemove",
			"outputs": [],
			"stateMutability": "nonpayable",
			"type": "function"
		},
		{
			"inputs": [
				{
					"internalType": "address",
					"name": "_operator",
					"type": "address"
				}
			],
			"name": "setOperator",
			"outputs": [],
			"stateMutability": "nonpayable",
			"type": "function"
		},
		{
			"inputs": [
				{
					"internalType": "address",
					"name": "_owner",
					"type": "address"
				}
			],
			"name": "setOwner",
			"outputs": [],
			"stateMutability": "nonpayable",
			"type": "function"
		},
		{
			"inputs": [
				{
					"internalType": "enum StoreV1.Target",
					"name": "_target",
					"type": "uint8"
				},
				{
					"internalType": "uint256",
					"name": "_percent",
					"type": "uint256"
				}
			],
			"name": "setPercent",
			"outputs": [],
			"stateMutability": "nonpayable",
			"type": "function"
		},
		{
			"inputs": [],
			"name": "totalMembers",
			"outputs": [
				{
					"internalType": "uint256",
					"name": "",
					"type": "uint256"
				}
			],
			"stateMutability": "view",
			"type": "function"
		},
		{
			"inputs": [],
			"name": "totalSurplus",
			"outputs": [
				{
					"internalType": "uint256",
					"name": "",
					"type": "uint256"
				}
			],
			"stateMutability": "view",
			"type": "function"
		},
		{
			"inputs": [
				{
					"internalType": "string",
					"name": "",
					"type": "string"
				}
			],
			"name": "transactionMark",
			"outputs": [
				{
					"internalType": "bool",
					"name": "",
					"type": "bool"
				}
			],
			"stateMutability": "view",
			"type": "function"
		},
		{
			"inputs": [],
			"name": "weeklyInviteCurrentTime",
			"outputs": [
				{
					"internalType": "uint256",
					"name": "",
					"type": "uint256"
				}
			],
			"stateMutability": "view",
			"type": "function"
		},
		{
			"inputs": [],
			"name": "weeklyRemoveCurrentTime",
			"outputs": [
				{
					"internalType": "uint256",
					"name": "",
					"type": "uint256"
				}
			],
			"stateMutability": "view",
			"type": "function"
		}
	]
}